{
	"data": {
		"bytecode": {
			"linkReferences": {},
			"object": "608060405234801562000010575f80fd5b506040516200485938038062004859833981810160405281019062000036919062000130565b815f806101000a81548173ffffffffffffffffffffffffffffffffffffffff021916908373ffffffffffffffffffffffffffffffffffffffff1602179055508060015f6101000a81548173ffffffffffffffffffffffffffffffffffffffff021916908373ffffffffffffffffffffffffffffffffffffffff1602179055505f6002819055505f600381905550505062000175565b5f80fd5b5f73ffffffffffffffffffffffffffffffffffffffff82169050919050565b5f620000fa82620000cf565b9050919050565b6200010c81620000ee565b811462000117575f80fd5b50565b5f815190506200012a8162000101565b92915050565b5f8060408385031215620001495762000148620000cb565b5b5f62000158858286016200011a565b92505060206200016b858286016200011a565b9150509250929050565b6146d680620001835f395ff3fe608060405234801561000f575f80fd5b5060043610610156575f3560e01c806385e68531116100c1578063a1dc99b41161007a578063a1dc99b4146103f9578063b05efaab1461042c578063e60e5ee21461045c578063e8a3791914610478578063eff5cfae14610496578063f8b4d690146104b257610156565b806385e685311461033b5780638bc3bbc0146103575780638fe2d9501461037557806397fc007c14610391578063992cc022146103ad578063a0619d4a146103c957610156565b806353ca81151161011357806353ca811514610250578063636d02621461026e5780636388bafc146102a0578063739f48a6146102d0578063832de71e146102ec57806384e2395d1461030857610156565b80630ae5e7391461015a57806312f1a83a14610176578063185c6f84146101ab57806328c10330146101c95780632b76ea9c146101e55780633835a1191461021b575b5f80fd5b610174600480360381019061016f919061302d565b6104e4565b005b610190600480360381019061018b919061308b565b610683565b6040516101a29695949392919061319d565b60405180910390f35b6101b36106de565b6040516101c091906131fc565b60405180910390f35b6101e360048036038101906101de919061324a565b6106e4565b005b6101ff60048036038101906101fa9190613288565b61093e565b60405161021297969594939291906132c2565b60405180910390f35b61023560048036038101906102309190613288565b6109a7565b6040516102479695949392919061333e565b60405180910390f35b610258610a17565b60405161026591906133f8565b60405180910390f35b61028860048036038101906102839190613288565b610a3c565b60405161029793929190613411565b60405180910390f35b6102ba60048036038101906102b59190613288565b610c83565b6040516102c791906131fc565b60405180910390f35b6102ea60048036038101906102e5919061308b565b610c98565b005b6103066004803603810190610301919061349a565b6110d0565b005b610322600480360381019061031d919061308b565b611545565b60405161033294939291906134fe565b60405180910390f35b6103556004803603810190610350919061302d565b611918565b005b61035f611ab8565b60405161036c91906131fc565b60405180910390f35b61038f600480360381019061038a919061367d565b611abe565b005b6103ab60048036038101906103a6919061302d565b611d4e565b005b6103c760048036038101906103c291906136d7565b611eda565b005b6103e360048036038101906103de919061302d565b612380565b6040516103f09190613727565b60405180910390f35b610413600480360381019061040e919061308b565b61239d565b6040516104239493929190613740565b60405180910390f35b61044660048036038101906104419190613288565b612667565b60405161045391906131fc565b60405180910390f35b61047660048036038101906104719190613783565b61267c565b005b610480612ab1565b60405161048d919061380f565b60405180910390f35b6104b060048036038101906104ab9190613828565b612ad4565b005b6104cc60048036038101906104c79190613288565b612ecf565b6040516104db93929190613977565b60405180910390f35b5f805f8054906101000a900473ffffffffffffffffffffffffffffffffffffffff1673ffffffffffffffffffffffffffffffffffffffff166375894e8c336040518263ffffffff1660e01b815260040161053e91906139ad565b60408051808303815f875af1158015610559573d5f803e3d5ffd5b505050506040513d601f19601f8201168201806040525081019061057d91906139fd565b915091506005808111156105945761059361312a565b5b8260058111156105a7576105a661312a565b5b1480156105b15750805b6105f0576040517f08c379a00000000000000000000000000000000000000000000000000000000081526004016105e790613abb565b60405180910390fd5b600160095f8573ffffffffffffffffffffffffffffffffffffffff1673ffffffffffffffffffffffffffffffffffffffff1681526020019081526020015f205f6101000a81548160ff0219169083151502179055507f6ea640312e182de387819fbeb13be00db3171a445412852248559054871c41998342604051610676929190613ad9565b60405180910390a1505050565b6006602052815f5260405f20602052805f5260405f205f9150915050805f015490806001015490806002015490806003015f9054906101000a900460f81b90806004015490806005015f9054906101000a900460ff16905086565b60025481565b5f805f8054906101000a900473ffffffffffffffffffffffffffffffffffffffff1673ffffffffffffffffffffffffffffffffffffffff166375894e8c336040518263ffffffff1660e01b815260040161073e91906139ad565b60408051808303815f875af1158015610759573d5f803e3d5ffd5b505050506040513d601f19601f8201168201806040525081019061077d91906139fd565b91509150600260058111156107955761079461312a565b5b8260058111156107a8576107a761312a565b5b1480156107b25750805b6107f1576040517f08c379a00000000000000000000000000000000000000000000000000000000081526004016107e890613b70565b60405180910390fd5b6001841015801561080457506002548411155b610843576040517f08c379a000000000000000000000000000000000000000000000000000000000815260040161083a90613bd8565b60405180910390fd5b60045f8581526020019081526020015f206004015f9054906101000a900460ff16156108a4576040517f08c379a000000000000000000000000000000000000000000000000000000000815260040161089b90613c66565b60405180910390fd5b600160045f8681526020019081526020015f206004015f6101000a81548160ff0219169083151502179055508260045f8681526020019081526020015f2060040160016101000a81548160ff021916908315150217905550837f5e672278b5a4ce7f1deaeb816f60398e65c2401c6f90928e8344510d7fa9275533854260405161093093929190613c84565b60405180910390a250505050565b6008602052805f5260405f205f91509050805f015f9054906101000a900473ffffffffffffffffffffffffffffffffffffffff1690806001015490806002015490806003015490806004015490806005015490806006015f9054906101000a900460ff16905087565b6004602052805f5260405f205f91509050805f015f9054906101000a900473ffffffffffffffffffffffffffffffffffffffff1690806001015490806002015490806003015490806004015f9054906101000a900460ff16908060040160019054906101000a900460ff16905086565b60015f9054906101000a900473ffffffffffffffffffffffffffffffffffffffff1681565b5f805f805f805f9054906101000a900473ffffffffffffffffffffffffffffffffffffffff1673ffffffffffffffffffffffffffffffffffffffff166375894e8c336040518263ffffffff1660e01b8152600401610a9a91906139ad565b60408051808303815f875af1158015610ab5573d5f803e3d5ffd5b505050506040513d601f19601f82011682018060405250810190610ad991906139fd565b9150915060026005811115610af157610af061312a565b5b826005811115610b0457610b0361312a565b5b148015610b0e5750805b610b4d576040517f08c379a0000000000000000000000000000000000000000000000000000000008152600401610b4490613b70565b60405180910390fd5b60018610158015610b6057506002548611155b610b9f576040517f08c379a0000000000000000000000000000000000000000000000000000000008152600401610b9690613bd8565b60405180910390fd5b5f60045f8881526020019081526020015f206040518060c00160405290815f82015f9054906101000a900473ffffffffffffffffffffffffffffffffffffffff1673ffffffffffffffffffffffffffffffffffffffff1673ffffffffffffffffffffffffffffffffffffffff168152602001600182015481526020016002820154815260200160038201548152602001600482015f9054906101000a900460ff161515151581526020016004820160019054906101000a900460ff1615151515815250509050805f0151816020015182606001519550955095505050509193909250565b6007602052805f5260405f205f915090505481565b805f805f8054906101000a900473ffffffffffffffffffffffffffffffffffffffff1673ffffffffffffffffffffffffffffffffffffffff166375894e8c336040518263ffffffff1660e01b8152600401610cf391906139ad565b60408051808303815f875af1158015610d0e573d5f803e3d5ffd5b505050506040513d601f19601f82011682018060405250810190610d3291906139fd565b9150915060046005811115610d4a57610d4961312a565b5b826005811115610d5d57610d5c61312a565b5b148015610d675750805b610da6576040517f08c379a0000000000000000000000000000000000000000000000000000000008152600401610d9d90613d29565b60405180910390fd5b3373ffffffffffffffffffffffffffffffffffffffff1660085f8581526020019081526020015f205f015f9054906101000a900473ffffffffffffffffffffffffffffffffffffffff1673ffffffffffffffffffffffffffffffffffffffff1614610e46576040517f08c379a0000000000000000000000000000000000000000000000000000000008152600401610e3d90613db7565b60405180910390fd5b5f60085f8681526020019081526020015f206040518060e00160405290815f82015f9054906101000a900473ffffffffffffffffffffffffffffffffffffffff1673ffffffffffffffffffffffffffffffffffffffff1673ffffffffffffffffffffffffffffffffffffffff1681526020016001820154815260200160028201548152602001600382015481526020016004820154815260200160058201548152602001600682015f9054906101000a900460ff166003811115610f0d57610f0c61312a565b5b6003811115610f1f57610f1e61312a565b5b81525050905060018510158015610f47575060075f8781526020019081526020015f20548511155b610f86576040517f08c379a0000000000000000000000000000000000000000000000000000000008152600401610f7d90613e1f565b60405180910390fd5b60026003811115610f9a57610f9961312a565b5b8160c001516003811115610fb157610fb061312a565b5b14610ff1576040517f08c379a0000000000000000000000000000000000000000000000000000000008152600401610fe890613ead565b60405180910390fd5b8060600151421015611038576040517f08c379a000000000000000000000000000000000000000000000000000000000815260040161102f90613f3b565b60405180910390fd5b600360085f8781526020019081526020015f206006015f6101000a81548160ff0219169083600381111561106f5761106e61312a565b5b02179055504260085f8781526020019081526020015f20600401819055507ff0759b1c58f2eb04b7275484184a141f88fedeb54c9a6a48b4e7d9d332edb1a78686426040516110c093929190613f59565b60405180910390a1505050505050565b5f805f8054906101000a900473ffffffffffffffffffffffffffffffffffffffff1673ffffffffffffffffffffffffffffffffffffffff166375894e8c336040518263ffffffff1660e01b815260040161112a91906139ad565b60408051808303815f875af1158015611145573d5f803e3d5ffd5b505050506040513d601f19601f8201168201806040525081019061116991906139fd565b91509150600260058111156111815761118061312a565b5b8260058111156111945761119361312a565b5b14801561119e5750805b6111dd576040517f08c379a00000000000000000000000000000000000000000000000000000000081526004016111d490613b70565b60405180910390fd5b5f801b8603611221576040517f08c379a000000000000000000000000000000000000000000000000000000000815260040161121890613fd8565b60405180910390fd5b5f8511611263576040517f08c379a000000000000000000000000000000000000000000000000000000000815260040161125a90614040565b60405180910390fd5b7f4d00000000000000000000000000000000000000000000000000000000000000847effffffffffffffffffffffffffffffffffffffffffffffffffffffffffffff191614806112f457507f4600000000000000000000000000000000000000000000000000000000000000847effffffffffffffffffffffffffffffffffffffffffffffffffffffffffffff1916145b611333576040517f08c379a000000000000000000000000000000000000000000000000000000000815260040161132a906140a8565b60405180910390fd5b6001831015801561134657506002548311155b611385576040517f08c379a000000000000000000000000000000000000000000000000000000000815260040161137c90613bd8565b60405180910390fd5b60075f8481526020019081526020015f205f8154809291906113a6906140f3565b91905055506040518060c0016040528060075f8681526020019081526020015f20548152602001878152602001868152602001857effffffffffffffffffffffffffffffffffffffffffffffffffffffffffffff191681526020018481526020015f600381111561141a5761141961312a565b5b81525060065f8581526020019081526020015f205f60075f8781526020019081526020015f205481526020019081526020015f205f820151815f015560208201518160010155604082015181600201556060820151816003015f6101000a81548160ff021916908360f81c02179055506080820151816004015560a0820151816005015f6101000a81548160ff021916908360038111156114be576114bd61312a565b5b02179055509050508260055f60075f8781526020019081526020015f205481526020019081526020015f20819055507f8f6937edcd05ce1c1912e225ec700cb996d92333e3b1631ce16e703fc6b8e77a60075f8581526020019081526020015f20548787878760405161153595949392919061413a565b60405180910390a1505050505050565b5f805f805f805f8054906101000a900473ffffffffffffffffffffffffffffffffffffffff1673ffffffffffffffffffffffffffffffffffffffff166375894e8c336040518263ffffffff1660e01b81526004016115a391906139ad565b60408051808303815f875af11580156115be573d5f803e3d5ffd5b505050506040513d601f19601f820116820180604052508101906115e291906139fd565b91509150600360058111156115fa576115f961312a565b5b82600581111561160d5761160c61312a565b5b1480156116175750805b8061164e57505f60058111156116305761162f61312a565b5b8260058111156116435761164261312a565b5b14801561164d5750805b5b61168d576040517f08c379a000000000000000000000000000000000000000000000000000000000815260040161168490614221565b60405180910390fd5b600188101580156116a057506002548811155b6116df576040517f08c379a00000000000000000000000000000000000000000000000000000000081526004016116d690613bd8565b60405180910390fd5b60018710158015611701575060075f8981526020019081526020015f20548711155b611740576040517f08c379a000000000000000000000000000000000000000000000000000000000815260040161173790613e1f565b60405180910390fd5b5f60065f8a81526020019081526020015f205f8981526020019081526020015f206040518060c00160405290815f82015481526020016001820154815260200160028201548152602001600382015f9054906101000a900460f81b7effffffffffffffffffffffffffffffffffffffffffffffffffffffffffffff19167effffffffffffffffffffffffffffffffffffffffffffffffffffffffffffff1916815260200160048201548152602001600582015f9054906101000a900460ff1660038111156118115761181061312a565b5b60038111156118235761182261312a565b5b8152505090505f60045f8b81526020019081526020015f206040518060c00160405290815f82015f9054906101000a900473ffffffffffffffffffffffffffffffffffffffff1673ffffffffffffffffffffffffffffffffffffffff1673ffffffffffffffffffffffffffffffffffffffff168152602001600182015481526020016002820154815260200160038201548152602001600482015f9054906101000a900460ff161515151581526020016004820160019054906101000a900460ff1615151515815250509050816020015182604001518360600151836060015197509750975097505050505092959194509250565b5f805f8054906101000a900473ffffffffffffffffffffffffffffffffffffffff1673ffffffffffffffffffffffffffffffffffffffff166375894e8c336040518263ffffffff1660e01b815260040161197291906139ad565b60408051808303815f875af115801561198d573d5f803e3d5ffd5b505050506040513d601f19601f820116820180604052508101906119b191906139fd565b915091505f60058111156119c8576119c761312a565b5b8260058111156119db576119da61312a565b5b1480156119e55750805b611a24576040517f08c379a0000000000000000000000000000000000000000000000000000000008152600401611a1b906142af565b60405180910390fd5b5f60095f8573ffffffffffffffffffffffffffffffffffffffff1673ffffffffffffffffffffffffffffffffffffffff1681526020019081526020015f205f6101000a81548160ff0219169083151502179055507f6f6a404ffd2cea4713256a4fd9ce99c8cf8cf32d85c2bb8061d1603ff57d50c3338442604051611aab939291906142cd565b60405180910390a1505050565b60035481565b5f805f8054906101000a900473ffffffffffffffffffffffffffffffffffffffff1673ffffffffffffffffffffffffffffffffffffffff166375894e8c336040518263ffffffff1660e01b8152600401611b1891906139ad565b60408051808303815f875af1158015611b33573d5f803e3d5ffd5b505050506040513d601f19601f82011682018060405250810190611b5791906139fd565b9150915060016005811115611b6f57611b6e61312a565b5b826005811115611b8257611b8161312a565b5b148015611b8c5750805b611bcb576040517f08c379a0000000000000000000000000000000000000000000000000000000008152600401611bc290614372565b60405180910390fd5b60025f815480929190611bdd906140f3565b91905055506040518060c001604052803373ffffffffffffffffffffffffffffffffffffffff16815260200142815260200184815260200185611c1f906143c9565b81526020015f151581526020015f151581525060045f60025481526020019081526020015f205f820151815f015f6101000a81548173ffffffffffffffffffffffffffffffffffffffff021916908373ffffffffffffffffffffffffffffffffffffffff1602179055506020820151816001015560408201518160020155606082015181600301556080820151816004015f6101000a81548160ff02191690831515021790555060a08201518160040160016101000a81548160ff0219169083151502179055509050508260035f828254611cfa919061442f565b925050819055506002547f681f3195132986285e497b66d82a1d87dee04fe482a1e74020677b543e3f7c40334287611d31906143c9565b604051611d4093929190613411565b60405180910390a250505050565b5f805f8054906101000a900473ffffffffffffffffffffffffffffffffffffffff1673ffffffffffffffffffffffffffffffffffffffff166375894e8c336040518263ffffffff1660e01b8152600401611da891906139ad565b60408051808303815f875af1158015611dc3573d5f803e3d5ffd5b505050506040513d601f19601f82011682018060405250810190611de791906139fd565b915091505f6005811115611dfe57611dfd61312a565b5b826005811115611e1157611e1061312a565b5b148015611e1b5750805b611e5a576040517f08c379a0000000000000000000000000000000000000000000000000000000008152600401611e51906142af565b60405180910390fd5b8260015f6101000a81548173ffffffffffffffffffffffffffffffffffffffff021916908373ffffffffffffffffffffffffffffffffffffffff1602179055507fd64ae07f3ddea489022b7c3651c0b93cc96296695feac84461061dfa1f34c0cb338442604051611ecd939291906142cd565b60405180910390a1505050565b815f805f8054906101000a900473ffffffffffffffffffffffffffffffffffffffff1673ffffffffffffffffffffffffffffffffffffffff166375894e8c336040518263ffffffff1660e01b8152600401611f3591906139ad565b60408051808303815f875af1158015611f50573d5f803e3d5ffd5b505050506040513d601f19601f82011682018060405250810190611f7491906139fd565b9150915060046005811115611f8c57611f8b61312a565b5b826005811115611f9f57611f9e61312a565b5b148015611fa95750805b611fe8576040517f08c379a0000000000000000000000000000000000000000000000000000000008152600401611fdf90613d29565b60405180910390fd5b3373ffffffffffffffffffffffffffffffffffffffff1660085f8581526020019081526020015f205f015f9054906101000a900473ffffffffffffffffffffffffffffffffffffffff1673ffffffffffffffffffffffffffffffffffffffff1614612088576040517f08c379a000000000000000000000000000000000000000000000000000000000815260040161207f90613db7565b60405180910390fd5b5f60085f8781526020019081526020015f206040518060e00160405290815f82015f9054906101000a900473ffffffffffffffffffffffffffffffffffffffff1673ffffffffffffffffffffffffffffffffffffffff1673ffffffffffffffffffffffffffffffffffffffff1681526020016001820154815260200160028201548152602001600382015481526020016004820154815260200160058201548152602001600682015f9054906101000a900460ff16600381111561214f5761214e61312a565b5b60038111156121615761216061312a565b5b8152505090506001871015801561217a57506002548711155b6121b9576040517f08c379a00000000000000000000000000000000000000000000000000000000081526004016121b090613bd8565b60405180910390fd5b600186101580156121db575060075f8881526020019081526020015f20548611155b61221a576040517f08c379a000000000000000000000000000000000000000000000000000000000815260040161221190613e1f565b60405180910390fd5b6001600381111561222e5761222d61312a565b5b8160c0015160038111156122455761224461312a565b5b14612285576040517f08c379a000000000000000000000000000000000000000000000000000000000815260040161227c906144d2565b60405180910390fd5b600260085f8881526020019081526020015f206006015f6101000a81548160ff021916908360038111156122bc576122bb61312a565b5b02179055504260085f8881526020019081526020015f20600201819055506001856122e791906144f0565b426122f2919061442f565b60085f8881526020019081526020015f20600301819055504260085f8881526020019081526020015f20600401819055507f29dc036766d8e77f495b0b42f18a239419af9f8dd528d84e1251663aa6da16c987874260018961235491906144f0565b4261235f919061442f565b60405161236f9493929190614531565b60405180910390a150505050505050565b6009602052805f5260405f205f915054906101000a900460ff1681565b5f805f805f805f8054906101000a900473ffffffffffffffffffffffffffffffffffffffff1673ffffffffffffffffffffffffffffffffffffffff166375894e8c336040518263ffffffff1660e01b81526004016123fb91906139ad565b60408051808303815f875af1158015612416573d5f803e3d5ffd5b505050506040513d601f19601f8201168201806040525081019061243a91906139fd565b915091505f60058111156124515761245061312a565b5b8260058111156124645761246361312a565b5b14801561246e5750805b6124ad576040517f08c379a00000000000000000000000000000000000000000000000000000000081526004016124a4906142af565b60405180910390fd5b5f60085f8981526020019081526020015f206040518060e00160405290815f82015f9054906101000a900473ffffffffffffffffffffffffffffffffffffffff1673ffffffffffffffffffffffffffffffffffffffff1673ffffffffffffffffffffffffffffffffffffffff1681526020016001820154815260200160028201548152602001600382015481526020016004820154815260200160058201548152602001600682015f9054906101000a900460ff1660038111156125745761257361312a565b5b60038111156125865761258561312a565b5b8152505090506001891015801561259f57506002548911155b6125de576040517f08c379a00000000000000000000000000000000000000000000000000000000081526004016125d590613bd8565b60405180910390fd5b60018810158015612600575060075f8a81526020019081526020015f20548811155b61263f576040517f08c379a000000000000000000000000000000000000000000000000000000000815260040161263690613e1f565b60405180910390fd5b8060c00151816080015182604001518360600151965096509650965050505092959194509250565b6005602052805f5260405f205f915090505481565b815f805f8054906101000a900473ffffffffffffffffffffffffffffffffffffffff1673ffffffffffffffffffffffffffffffffffffffff166375894e8c336040518263ffffffff1660e01b81526004016126d791906139ad565b60408051808303815f875af11580156126f2573d5f803e3d5ffd5b505050506040513d601f19601f8201168201806040525081019061271691906139fd565b915091506004600581111561272e5761272d61312a565b5b8260058111156127415761274061312a565b5b14801561274b5750805b61278a576040517f08c379a000000000000000000000000000000000000000000000000000000000815260040161278190613d29565b60405180910390fd5b3373ffffffffffffffffffffffffffffffffffffffff1660085f8581526020019081526020015f205f015f9054906101000a900473ffffffffffffffffffffffffffffffffffffffff1673ffffffffffffffffffffffffffffffffffffffff161461282a576040517f08c379a000000000000000000000000000000000000000000000000000000000815260040161282190613db7565b60405180910390fd5b5f60085f8781526020019081526020015f206040518060e00160405290815f82015f9054906101000a900473ffffffffffffffffffffffffffffffffffffffff1673ffffffffffffffffffffffffffffffffffffffff1673ffffffffffffffffffffffffffffffffffffffff1681526020016001820154815260200160028201548152602001600382015481526020016004820154815260200160058201548152602001600682015f9054906101000a900460ff1660038111156128f1576128f061312a565b5b60038111156129035761290261312a565b5b8152505090506001871015801561291c57506002548711155b61295b576040517f08c379a000000000000000000000000000000000000000000000000000000000815260040161295290613bd8565b60405180910390fd5b6001861015801561297d575060075f8881526020019081526020015f20548611155b6129bc576040517f08c379a00000000000000000000000000000000000000000000000000000000081526004016129b390613e1f565b60405180910390fd5b600260038111156129d0576129cf61312a565b5b8160c0015160038111156129e7576129e661312a565b5b14612a27576040517f08c379a0000000000000000000000000000000000000000000000000000000008152600401612a1e90613ead565b60405180910390fd5b84612a31906143c9565b60085f8881526020019081526020015f20600501819055504260085f8881526020019081526020015f20600401819055507fde2669f070bfb51d280ef42c92c59e3f20bbeef765e99cab94cd673cc2bf0f2f87874288612a90906143c9565b604051612aa09493929190614574565b60405180910390a150505050505050565b5f8054906101000a900473ffffffffffffffffffffffffffffffffffffffff1681565b5f805f8054906101000a900473ffffffffffffffffffffffffffffffffffffffff1673ffffffffffffffffffffffffffffffffffffffff166375894e8c336040518263ffffffff1660e01b8152600401612b2e91906139ad565b60408051808303815f875af1158015612b49573d5f803e3d5ffd5b505050506040513d601f19601f82011682018060405250810190612b6d91906139fd565b915091505f6005811115612b8457612b8361312a565b5b826005811115612b9757612b9661312a565b5b148015612ba15750805b612be0576040517f08c379a0000000000000000000000000000000000000000000000000000000008152600401612bd7906142af565b60405180910390fd5b5f60065f8781526020019081526020015f205f8681526020019081526020015f206040518060c00160405290815f82015481526020016001820154815260200160028201548152602001600382015f9054906101000a900460f81b7effffffffffffffffffffffffffffffffffffffffffffffffffffffffffffff19167effffffffffffffffffffffffffffffffffffffffffffffffffffffffffffff1916815260200160048201548152602001600582015f9054906101000a900460ff166003811115612cb157612cb061312a565b5b6003811115612cc357612cc261312a565b5b8152505090505f6003811115612cdc57612cdb61312a565b5b8160a001516003811115612cf357612cf261312a565b5b14612d33576040517f08c379a0000000000000000000000000000000000000000000000000000000008152600401612d2a9061464d565b60405180910390fd5b60018610158015612d4657506002548611155b612d85576040517f08c379a0000000000000000000000000000000000000000000000000000000008152600401612d7c90613bd8565b60405180910390fd5b60018510158015612da7575060075f8781526020019081526020015f20548511155b612de6576040517f08c379a0000000000000000000000000000000000000000000000000000000008152600401612ddd90613e1f565b60405180910390fd5b8360085f8781526020019081526020015f205f015f6101000a81548173ffffffffffffffffffffffffffffffffffffffff021916908373ffffffffffffffffffffffffffffffffffffffff1602179055508460085f8781526020019081526020015f2060010181905550600160085f8781526020019081526020015f206006015f6101000a81548160ff02191690836003811115612e8757612e8661312a565b5b02179055507fe1a03807ff7b7d8ac4c42cf3fe3905d10b2b30935d18974726482db3bf232e36858786604051612ebf9392919061466b565b60405180910390a1505050505050565b600a602052805f5260405f205f91509050805f016040518060400160405290815f820154815260200160018201548152505090806002016040518060400160405290815f8201600280602002604051908101604052809291908260028015612f4c576020028201915b815481526020019060010190808311612f38575b5050505050815260200160028201600280602002604051908101604052809291908260028015612f91576020028201915b815481526020019060010190808311612f7d575b50505050508152505090806006016040518060400160405290815f8201548152602001600182015481525050905083565b5f604051905090565b5f80fd5b5f80fd5b5f73ffffffffffffffffffffffffffffffffffffffff82169050919050565b5f612ffc82612fd3565b9050919050565b61300c81612ff2565b8114613016575f80fd5b50565b5f8135905061302781613003565b92915050565b5f6020828403121561304257613041612fcb565b5b5f61304f84828501613019565b91505092915050565b5f819050919050565b61306a81613058565b8114613074575f80fd5b50565b5f8135905061308581613061565b92915050565b5f80604083850312156130a1576130a0612fcb565b5b5f6130ae85828601613077565b92505060206130bf85828601613077565b9150509250929050565b6130d281613058565b82525050565b5f819050919050565b6130ea816130d8565b82525050565b5f7fff0000000000000000000000000000000000000000000000000000000000000082169050919050565b613124816130f0565b82525050565b7f4e487b71000000000000000000000000000000000000000000000000000000005f52602160045260245ffd5b600481106131685761316761312a565b5b50565b5f81905061317882613157565b919050565b5f6131878261316b565b9050919050565b6131978161317d565b82525050565b5f60c0820190506131b05f8301896130c9565b6131bd60208301886130e1565b6131ca60408301876130c9565b6131d7606083018661311b565b6131e460808301856130c9565b6131f160a083018461318e565b979650505050505050565b5f60208201905061320f5f8301846130c9565b92915050565b5f8115159050919050565b61322981613215565b8114613233575f80fd5b50565b5f8135905061324481613220565b92915050565b5f80604083850312156132605761325f612fcb565b5b5f61326d85828601613077565b925050602061327e85828601613236565b9150509250929050565b5f6020828403121561329d5761329c612fcb565b5b5f6132aa84828501613077565b91505092915050565b6132bc81612ff2565b82525050565b5f60e0820190506132d55f83018a6132b3565b6132e260208301896130c9565b6132ef60408301886130c9565b6132fc60608301876130c9565b61330960808301866130c9565b61331660a08301856130e1565b61332360c083018461318e565b98975050505050505050565b61333881613215565b82525050565b5f60c0820190506133515f8301896132b3565b61335e60208301886130c9565b61336b60408301876130c9565b61337860608301866130e1565b613385608083018561332f565b61339260a083018461332f565b979650505050505050565b5f819050919050565b5f6133c06133bb6133b684612fd3565b61339d565b612fd3565b9050919050565b5f6133d1826133a6565b9050919050565b5f6133e2826133c7565b9050919050565b6133f2816133d8565b82525050565b5f60208201905061340b5f8301846133e9565b92915050565b5f6060820190506134245f8301866132b3565b61343160208301856130c9565b61343e60408301846130e1565b949350505050565b61344f816130d8565b8114613459575f80fd5b50565b5f8135905061346a81613446565b92915050565b613479816130f0565b8114613483575f80fd5b50565b5f8135905061349481613470565b92915050565b5f805f80608085870312156134b2576134b1612fcb565b5b5f6134bf8782880161345c565b94505060206134d087828801613077565b93505060406134e187828801613486565b92505060606134f287828801613077565b91505092959194509250565b5f6080820190506135115f8301876130e1565b61351e60208301866130c9565b61352b604083018561311b565b61353860608301846130e1565b95945050505050565b5f80fd5b5f80fd5b5f601f19601f8301169050919050565b7f4e487b71000000000000000000000000000000000000000000000000000000005f52604160045260245ffd5b61358f82613549565b810181811067ffffffffffffffff821117156135ae576135ad613559565b5b80604052505050565b5f6135c0612fc2565b90506135cc8282613586565b919050565b5f67ffffffffffffffff8211156135eb576135ea613559565b5b6135f482613549565b9050602081019050919050565b828183375f83830152505050565b5f61362161361c846135d1565b6135b7565b90508281526020810184848401111561363d5761363c613545565b5b613648848285613601565b509392505050565b5f82601f83011261366457613663613541565b5b813561367484826020860161360f565b91505092915050565b5f806040838503121561369357613692612fcb565b5b5f83013567ffffffffffffffff8111156136b0576136af612fcf565b5b6136bc85828601613650565b92505060206136cd85828601613077565b9150509250929050565b5f805f606084860312156136ee576136ed612fcb565b5b5f6136fb86828701613077565b935050602061370c86828701613077565b925050604061371d86828701613077565b9150509250925092565b5f60208201905061373a5f83018461332f565b92915050565b5f6080820190506137535f83018761318e565b61376060208301866130c9565b61376d60408301856130c9565b61377a60608301846130c9565b95945050505050565b5f805f6060848603121561379a57613799612fcb565b5b5f6137a786828701613077565b93505060206137b886828701613077565b925050604084013567ffffffffffffffff8111156137d9576137d8612fcf565b5b6137e586828701613650565b9150509250925092565b5f6137f9826133c7565b9050919050565b613809816137ef565b82525050565b5f6020820190506138225f830184613800565b92915050565b5f805f6060848603121561383f5761383e612fcb565b5b5f61384c86828701613077565b935050602061385d86828701613077565b925050604061386e86828701613019565b9150509250925092565b61388181613058565b82525050565b604082015f82015161389b5f850182613878565b5060208201516138ae6020850182613878565b50505050565b5f60029050919050565b5f81905092915050565b5f819050919050565b5f6138dc8383613878565b60208301905092915050565b5f602082019050919050565b6138fd816138b4565b61390781846138be565b9250613912826138c8565b805f5b8381101561394257815161392987826138d1565b9650613934836138e8565b925050600181019050613915565b505050505050565b608082015f82015161395e5f8501826138f4565b50602082015161397160408501826138f4565b50505050565b5f6101008201905061398b5f830186613887565b613998604083018561394a565b6139a560c0830184613887565b949350505050565b5f6020820190506139c05f8301846132b3565b92915050565b600681106139d2575f80fd5b50565b5f815190506139e3816139c6565b92915050565b5f815190506139f781613220565b92915050565b5f8060408385031215613a1357613a12612fcb565b5b5f613a20858286016139d5565b9250506020613a31858286016139e9565b9150509250929050565b5f82825260208201905092915050565b7f4f6e6c792074686520426c6f636b636861696e204f7261636c652063616e20725f8201527f756e20746869732066756e6374696f6e00000000000000000000000000000000602082015250565b5f613aa5603083613a3b565b9150613ab082613a4b565b604082019050919050565b5f6020820190508181035f830152613ad281613a99565b9050919050565b5f604082019050613aec5f8301856132b3565b613af960208301846130c9565b9392505050565b7f4f6e6c792074686520496e7370656374696f6e204167656e742063616e2072755f8201527f6e20746869732066756e6374696f6e0000000000000000000000000000000000602082015250565b5f613b5a602f83613a3b565b9150613b6582613b00565b604082019050919050565b5f6020820190508181035f830152613b8781613b4e565b9050919050565b7f496e76616c6964205265706f72742049440000000000000000000000000000005f82015250565b5f613bc2601183613a3b565b9150613bcd82613b8e565b602082019050919050565b5f6020820190508181035f830152613bef81613bb6565b9050919050565b7f54686973207265706f72742068617320616c7265616479206265656e20696e735f8201527f7065637465640000000000000000000000000000000000000000000000000000602082015250565b5f613c50602683613a3b565b9150613c5b82613bf6565b604082019050919050565b5f6020820190508181035f830152613c7d81613c44565b9050919050565b5f606082019050613c975f8301866132b3565b613ca4602083018561332f565b613cb160408301846130c9565b949350505050565b7f4f6e6c7920746865204368696c6420477561726469616e2063616e2072756e205f8201527f746869732066756e6374696f6e00000000000000000000000000000000000000602082015250565b5f613d13602d83613a3b565b9150613d1e82613cb9565b604082019050919050565b5f6020820190508181035f830152613d4081613d07565b9050919050565b7f4f6e6c79207468652061737369676e656420477561726469616e20746f2074685f8201527f6973206368696c642063616e2072756e20746869732066756e6374696f6e0000602082015250565b5f613da1603e83613a3b565b9150613dac82613d47565b604082019050919050565b5f6020820190508181035f830152613dce81613d95565b9050919050565b7f496e76616c6964204368696c64204944000000000000000000000000000000005f82015250565b5f613e09601083613a3b565b9150613e1482613dd5565b602082019050919050565b5f6020820190508181035f830152613e3681613dfd565b9050919050565b7f54686973206368696c64206973206e6f742063757272656e746c7920696e20725f8201527f656d6564696174696f6e00000000000000000000000000000000000000000000602082015250565b5f613e97602a83613a3b565b9150613ea282613e3d565b604082019050919050565b5f6020820190508181035f830152613ec481613e8b565b9050919050565b7f5468652074696d652077696e646f7720666f722072656d6564696174696f6e205f8201527f6973207374696c6c206f70656e00000000000000000000000000000000000000602082015250565b5f613f25602d83613a3b565b9150613f3082613ecb565b604082019050919050565b5f6020820190508181035f830152613f5281613f19565b9050919050565b5f606082019050613f6c5f8301866130c9565b613f7960208301856130c9565b613f8660408301846130c9565b949350505050565b7f496e76616c696420686173686564206e616d65000000000000000000000000005f82015250565b5f613fc2601383613a3b565b9150613fcd82613f8e565b602082019050919050565b5f6020820190508181035f830152613fef81613fb6565b9050919050565b7f496e76616c6964204167650000000000000000000000000000000000000000005f82015250565b5f61402a600b83613a3b565b915061403582613ff6565b602082019050919050565b5f6020820190508181035f8301526140578161401e565b9050919050565b7f496e76616c69642047656e6465720000000000000000000000000000000000005f82015250565b5f614092600e83613a3b565b915061409d8261405e565b602082019050919050565b5f6020820190508181035f8301526140bf81614086565b9050919050565b7f4e487b71000000000000000000000000000000000000000000000000000000005f52601160045260245ffd5b5f6140fd82613058565b91507fffffffffffffffffffffffffffffffffffffffffffffffffffffffffffffffff820361412f5761412e6140c6565b5b600182019050919050565b5f60a08201905061414d5f8301886130c9565b61415a60208301876130e1565b61416760408301866130c9565b614174606083018561311b565b61418160808301846130c9565b9695505050505050565b7f4f6e6c792074686520526567756c61746f727920417574686f7269747920616e5f8201527f64204461746120416e616c797374732063616e2072756e20746869732066756e60208201527f6374696f6e000000000000000000000000000000000000000000000000000000604082015250565b5f61420b604583613a3b565b91506142168261418b565b606082019050919050565b5f6020820190508181035f830152614238816141ff565b9050919050565b7f4f6e6c792074686520726567756c61746f727920617574686f726974792063615f8201527f6e2072756e20746869732066756e6374696f6e00000000000000000000000000602082015250565b5f614299603383613a3b565b91506142a48261423f565b604082019050919050565b5f6020820190508181035f8301526142c68161428d565b9050919050565b5f6060820190506142e05f8301866132b3565b6142ed60208301856132b3565b6142fa60408301846130c9565b949350505050565b7f4f6e6c7920746865204c696169736f6e204f6666696365722063616e2072756e5f8201527f20746869732066756e6374696f6e000000000000000000000000000000000000602082015250565b5f61435c602e83613a3b565b915061436782614302565b604082019050919050565b5f6020820190508181035f83015261438981614350565b9050919050565b5f81519050919050565b5f819050602082019050919050565b5f6143b482516130d8565b80915050919050565b5f82821b905092915050565b5f6143d382614390565b826143dd8461439a565b90506143e8816143a9565b92506020821015614428576144237fffffffffffffffffffffffffffffffffffffffffffffffffffffffffffffffff836020036008026143bd565b831692505b5050919050565b5f61443982613058565b915061444483613058565b925082820190508082111561445c5761445b6140c6565b5b92915050565b7f54686973206368696c64206973206e6f7420726561647920666f722072656d655f8201527f64696174696f6e00000000000000000000000000000000000000000000000000602082015250565b5f6144bc602783613a3b565b91506144c782614462565b604082019050919050565b5f6020820190508181035f8301526144e9816144b0565b9050919050565b5f6144fa82613058565b915061450583613058565b925082820261451381613058565b9150828204841483151761452a576145296140c6565b5b5092915050565b5f6080820190506145445f8301876130c9565b61455160208301866130c9565b61455e60408301856130c9565b61456b60608301846130c9565b95945050505050565b5f6080820190506145875f8301876130c9565b61459460208301866130c9565b6145a160408301856130c9565b6145ae60608301846130e1565b95945050505050565b7f54686973206368696c6420496420646f6573206e6f74206578697374206f72205f8201527f68617320616c7265616479206265656e2061737369676e65642061206775617260208201527f6469616e00000000000000000000000000000000000000000000000000000000604082015250565b5f614637604483613a3b565b9150614642826145b7565b606082019050919050565b5f6020820190508181035f8301526146648161462b565b9050919050565b5f60608201905061467e5f8301866130c9565b61468b60208301856130c9565b61469860408301846132b3565b94935050505056fea26469706673582212205beada54db5936e40b1520ce6084ed884952cb2851b198757570452f4fd1655e64736f6c63430008150033",
			"opcodes": "PUSH1 0x80 PUSH1 0x40 MSTORE CALLVALUE DUP1 ISZERO PUSH3 0x10 JUMPI PUSH0 DUP1 REVERT JUMPDEST POP PUSH1 0x40 MLOAD PUSH3 0x4859 CODESIZE SUB DUP1 PUSH3 0x4859 DUP4 CODECOPY DUP2 DUP2 ADD PUSH1 0x40 MSTORE DUP2 ADD SWAP1 PUSH3 0x36 SWAP2 SWAP1 PUSH3 0x130 JUMP JUMPDEST DUP2 PUSH0 DUP1 PUSH2 0x100 EXP DUP2 SLOAD DUP2 PUSH20 0xFFFFFFFFFFFFFFFFFFFFFFFFFFFFFFFFFFFFFFFF MUL NOT AND SWAP1 DUP4 PUSH20 0xFFFFFFFFFFFFFFFFFFFFFFFFFFFFFFFFFFFFFFFF AND MUL OR SWAP1 SSTORE POP DUP1 PUSH1 0x1 PUSH0 PUSH2 0x100 EXP DUP2 SLOAD DUP2 PUSH20 0xFFFFFFFFFFFFFFFFFFFFFFFFFFFFFFFFFFFFFFFF MUL NOT AND SWAP1 DUP4 PUSH20 0xFFFFFFFFFFFFFFFFFFFFFFFFFFFFFFFFFFFFFFFF AND MUL OR SWAP1 SSTORE POP PUSH0 PUSH1 0x2 DUP2 SWAP1 SSTORE POP PUSH0 PUSH1 0x3 DUP2 SWAP1 SSTORE POP POP POP PUSH3 0x175 JUMP JUMPDEST PUSH0 DUP1 REVERT JUMPDEST PUSH0 PUSH20 0xFFFFFFFFFFFFFFFFFFFFFFFFFFFFFFFFFFFFFFFF DUP3 AND SWAP1 POP SWAP2 SWAP1 POP JUMP JUMPDEST PUSH0 PUSH3 0xFA DUP3 PUSH3 0xCF JUMP JUMPDEST SWAP1 POP SWAP2 SWAP1 POP JUMP JUMPDEST PUSH3 0x10C DUP2 PUSH3 0xEE JUMP JUMPDEST DUP2 EQ PUSH3 0x117 JUMPI PUSH0 DUP1 REVERT JUMPDEST POP JUMP JUMPDEST PUSH0 DUP2 MLOAD SWAP1 POP PUSH3 0x12A DUP2 PUSH3 0x101 JUMP JUMPDEST SWAP3 SWAP2 POP POP JUMP JUMPDEST PUSH0 DUP1 PUSH1 0x40 DUP4 DUP6 SUB SLT ISZERO PUSH3 0x149 JUMPI PUSH3 0x148 PUSH3 0xCB JUMP JUMPDEST JUMPDEST PUSH0 PUSH3 0x158 DUP6 DUP3 DUP7 ADD PUSH3 0x11A JUMP JUMPDEST SWAP3 POP POP PUSH1 0x20 PUSH3 0x16B DUP6 DUP3 DUP7 ADD PUSH3 0x11A JUMP JUMPDEST SWAP2 POP POP SWAP3 POP SWAP3 SWAP1 POP JUMP JUMPDEST PUSH2 0x46D6 DUP1 PUSH3 0x183 PUSH0 CODECOPY PUSH0 RETURN INVALID PUSH1 0x80 PUSH1 0x40 MSTORE CALLVALUE DUP1 ISZERO PUSH2 0xF JUMPI PUSH0 DUP1 REVERT JUMPDEST POP PUSH1 0x4 CALLDATASIZE LT PUSH2 0x156 JUMPI PUSH0 CALLDATALOAD PUSH1 0xE0 SHR DUP1 PUSH4 0x85E68531 GT PUSH2 0xC1 JUMPI DUP1 PUSH4 0xA1DC99B4 GT PUSH2 0x7A JUMPI DUP1 PUSH4 0xA1DC99B4 EQ PUSH2 0x3F9 JUMPI DUP1 PUSH4 0xB05EFAAB EQ PUSH2 0x42C JUMPI DUP1 PUSH4 0xE60E5EE2 EQ PUSH2 0x45C JUMPI DUP1 PUSH4 0xE8A37919 EQ PUSH2 0x478 JUMPI DUP1 PUSH4 0xEFF5CFAE EQ PUSH2 0x496 JUMPI DUP1 PUSH4 0xF8B4D690 EQ PUSH2 0x4B2 JUMPI PUSH2 0x156 JUMP JUMPDEST DUP1 PUSH4 0x85E68531 EQ PUSH2 0x33B JUMPI DUP1 PUSH4 0x8BC3BBC0 EQ PUSH2 0x357 JUMPI DUP1 PUSH4 0x8FE2D950 EQ PUSH2 0x375 JUMPI DUP1 PUSH4 0x97FC007C EQ PUSH2 0x391 JUMPI DUP1 PUSH4 0x992CC022 EQ PUSH2 0x3AD JUMPI DUP1 PUSH4 0xA0619D4A EQ PUSH2 0x3C9 JUMPI PUSH2 0x156 JUMP JUMPDEST DUP1 PUSH4 0x53CA8115 GT PUSH2 0x113 JUMPI DUP1 PUSH4 0x53CA8115 EQ PUSH2 0x250 JUMPI DUP1 PUSH4 0x636D0262 EQ PUSH2 0x26E JUMPI DUP1 PUSH4 0x6388BAFC EQ PUSH2 0x2A0 JUMPI DUP1 PUSH4 0x739F48A6 EQ PUSH2 0x2D0 JUMPI DUP1 PUSH4 0x832DE71E EQ PUSH2 0x2EC JUMPI DUP1 PUSH4 0x84E2395D EQ PUSH2 0x308 JUMPI PUSH2 0x156 JUMP JUMPDEST DUP1 PUSH4 0xAE5E739 EQ PUSH2 0x15A JUMPI DUP1 PUSH4 0x12F1A83A EQ PUSH2 0x176 JUMPI DUP1 PUSH4 0x185C6F84 EQ PUSH2 0x1AB JUMPI DUP1 PUSH4 0x28C10330 EQ PUSH2 0x1C9 JUMPI DUP1 PUSH4 0x2B76EA9C EQ PUSH2 0x1E5 JUMPI DUP1 PUSH4 0x3835A119 EQ PUSH2 0x21B JUMPI JUMPDEST PUSH0 DUP1 REVERT JUMPDEST PUSH2 0x174 PUSH1 0x4 DUP1 CALLDATASIZE SUB DUP2 ADD SWAP1 PUSH2 0x16F SWAP2 SWAP1 PUSH2 0x302D JUMP JUMPDEST PUSH2 0x4E4 JUMP JUMPDEST STOP JUMPDEST PUSH2 0x190 PUSH1 0x4 DUP1 CALLDATASIZE SUB DUP2 ADD SWAP1 PUSH2 0x18B SWAP2 SWAP1 PUSH2 0x308B JUMP JUMPDEST PUSH2 0x683 JUMP JUMPDEST PUSH1 0x40 MLOAD PUSH2 0x1A2 SWAP7 SWAP6 SWAP5 SWAP4 SWAP3 SWAP2 SWAP1 PUSH2 0x319D JUMP JUMPDEST PUSH1 0x40 MLOAD DUP1 SWAP2 SUB SWAP1 RETURN JUMPDEST PUSH2 0x1B3 PUSH2 0x6DE JUMP JUMPDEST PUSH1 0x40 MLOAD PUSH2 0x1C0 SWAP2 SWAP1 PUSH2 0x31FC JUMP JUMPDEST PUSH1 0x40 MLOAD DUP1 SWAP2 SUB SWAP1 RETURN JUMPDEST PUSH2 0x1E3 PUSH1 0x4 DUP1 CALLDATASIZE SUB DUP2 ADD SWAP1 PUSH2 0x1DE SWAP2 SWAP1 PUSH2 0x324A JUMP JUMPDEST PUSH2 0x6E4 JUMP JUMPDEST STOP JUMPDEST PUSH2 0x1FF PUSH1 0x4 DUP1 CALLDATASIZE SUB DUP2 ADD SWAP1 PUSH2 0x1FA SWAP2 SWAP1 PUSH2 0x3288 JUMP JUMPDEST PUSH2 0x93E JUMP JUMPDEST PUSH1 0x40 MLOAD PUSH2 0x212 SWAP8 SWAP7 SWAP6 SWAP5 SWAP4 SWAP3 SWAP2 SWAP1 PUSH2 0x32C2 JUMP JUMPDEST PUSH1 0x40 MLOAD DUP1 SWAP2 SUB SWAP1 RETURN JUMPDEST PUSH2 0x235 PUSH1 0x4 DUP1 CALLDATASIZE SUB DUP2 ADD SWAP1 PUSH2 0x230 SWAP2 SWAP1 PUSH2 0x3288 JUMP JUMPDEST PUSH2 0x9A7 JUMP JUMPDEST PUSH1 0x40 MLOAD PUSH2 0x247 SWAP7 SWAP6 SWAP5 SWAP4 SWAP3 SWAP2 SWAP1 PUSH2 0x333E JUMP JUMPDEST PUSH1 0x40 MLOAD DUP1 SWAP2 SUB SWAP1 RETURN JUMPDEST PUSH2 0x258 PUSH2 0xA17 JUMP JUMPDEST PUSH1 0x40 MLOAD PUSH2 0x265 SWAP2 SWAP1 PUSH2 0x33F8 JUMP JUMPDEST PUSH1 0x40 MLOAD DUP1 SWAP2 SUB SWAP1 RETURN JUMPDEST PUSH2 0x288 PUSH1 0x4 DUP1 CALLDATASIZE SUB DUP2 ADD SWAP1 PUSH2 0x283 SWAP2 SWAP1 PUSH2 0x3288 JUMP JUMPDEST PUSH2 0xA3C JUMP JUMPDEST PUSH1 0x40 MLOAD PUSH2 0x297 SWAP4 SWAP3 SWAP2 SWAP1 PUSH2 0x3411 JUMP JUMPDEST PUSH1 0x40 MLOAD DUP1 SWAP2 SUB SWAP1 RETURN JUMPDEST PUSH2 0x2BA PUSH1 0x4 DUP1 CALLDATASIZE SUB DUP2 ADD SWAP1 PUSH2 0x2B5 SWAP2 SWAP1 PUSH2 0x3288 JUMP JUMPDEST PUSH2 0xC83 JUMP JUMPDEST PUSH1 0x40 MLOAD PUSH2 0x2C7 SWAP2 SWAP1 PUSH2 0x31FC JUMP JUMPDEST PUSH1 0x40 MLOAD DUP1 SWAP2 SUB SWAP1 RETURN JUMPDEST PUSH2 0x2EA PUSH1 0x4 DUP1 CALLDATASIZE SUB DUP2 ADD SWAP1 PUSH2 0x2E5 SWAP2 SWAP1 PUSH2 0x308B JUMP JUMPDEST PUSH2 0xC98 JUMP JUMPDEST STOP JUMPDEST PUSH2 0x306 PUSH1 0x4 DUP1 CALLDATASIZE SUB DUP2 ADD SWAP1 PUSH2 0x301 SWAP2 SWAP1 PUSH2 0x349A JUMP JUMPDEST PUSH2 0x10D0 JUMP JUMPDEST STOP JUMPDEST PUSH2 0x322 PUSH1 0x4 DUP1 CALLDATASIZE SUB DUP2 ADD SWAP1 PUSH2 0x31D SWAP2 SWAP1 PUSH2 0x308B JUMP JUMPDEST PUSH2 0x1545 JUMP JUMPDEST PUSH1 0x40 MLOAD PUSH2 0x332 SWAP5 SWAP4 SWAP3 SWAP2 SWAP1 PUSH2 0x34FE JUMP JUMPDEST PUSH1 0x40 MLOAD DUP1 SWAP2 SUB SWAP1 RETURN JUMPDEST PUSH2 0x355 PUSH1 0x4 DUP1 CALLDATASIZE SUB DUP2 ADD SWAP1 PUSH2 0x350 SWAP2 SWAP1 PUSH2 0x302D JUMP JUMPDEST PUSH2 0x1918 JUMP JUMPDEST STOP JUMPDEST PUSH2 0x35F PUSH2 0x1AB8 JUMP JUMPDEST PUSH1 0x40 MLOAD PUSH2 0x36C SWAP2 SWAP1 PUSH2 0x31FC JUMP JUMPDEST PUSH1 0x40 MLOAD DUP1 SWAP2 SUB SWAP1 RETURN JUMPDEST PUSH2 0x38F PUSH1 0x4 DUP1 CALLDATASIZE SUB DUP2 ADD SWAP1 PUSH2 0x38A SWAP2 SWAP1 PUSH2 0x367D JUMP JUMPDEST PUSH2 0x1ABE JUMP JUMPDEST STOP JUMPDEST PUSH2 0x3AB PUSH1 0x4 DUP1 CALLDATASIZE SUB DUP2 ADD SWAP1 PUSH2 0x3A6 SWAP2 SWAP1 PUSH2 0x302D JUMP JUMPDEST PUSH2 0x1D4E JUMP JUMPDEST STOP JUMPDEST PUSH2 0x3C7 PUSH1 0x4 DUP1 CALLDATASIZE SUB DUP2 ADD SWAP1 PUSH2 0x3C2 SWAP2 SWAP1 PUSH2 0x36D7 JUMP JUMPDEST PUSH2 0x1EDA JUMP JUMPDEST STOP JUMPDEST PUSH2 0x3E3 PUSH1 0x4 DUP1 CALLDATASIZE SUB DUP2 ADD SWAP1 PUSH2 0x3DE SWAP2 SWAP1 PUSH2 0x302D JUMP JUMPDEST PUSH2 0x2380 JUMP JUMPDEST PUSH1 0x40 MLOAD PUSH2 0x3F0 SWAP2 SWAP1 PUSH2 0x3727 JUMP JUMPDEST PUSH1 0x40 MLOAD DUP1 SWAP2 SUB SWAP1 RETURN JUMPDEST PUSH2 0x413 PUSH1 0x4 DUP1 CALLDATASIZE SUB DUP2 ADD SWAP1 PUSH2 0x40E SWAP2 SWAP1 PUSH2 0x308B JUMP JUMPDEST PUSH2 0x239D JUMP JUMPDEST PUSH1 0x40 MLOAD PUSH2 0x423 SWAP5 SWAP4 SWAP3 SWAP2 SWAP1 PUSH2 0x3740 JUMP JUMPDEST PUSH1 0x40 MLOAD DUP1 SWAP2 SUB SWAP1 RETURN JUMPDEST PUSH2 0x446 PUSH1 0x4 DUP1 CALLDATASIZE SUB DUP2 ADD SWAP1 PUSH2 0x441 SWAP2 SWAP1 PUSH2 0x3288 JUMP JUMPDEST PUSH2 0x2667 JUMP JUMPDEST PUSH1 0x40 MLOAD PUSH2 0x453 SWAP2 SWAP1 PUSH2 0x31FC JUMP JUMPDEST PUSH1 0x40 MLOAD DUP1 SWAP2 SUB SWAP1 RETURN JUMPDEST PUSH2 0x476 PUSH1 0x4 DUP1 CALLDATASIZE SUB DUP2 ADD SWAP1 PUSH2 0x471 SWAP2 SWAP1 PUSH2 0x3783 JUMP JUMPDEST PUSH2 0x267C JUMP JUMPDEST STOP JUMPDEST PUSH2 0x480 PUSH2 0x2AB1 JUMP JUMPDEST PUSH1 0x40 MLOAD PUSH2 0x48D SWAP2 SWAP1 PUSH2 0x380F JUMP JUMPDEST PUSH1 0x40 MLOAD DUP1 SWAP2 SUB SWAP1 RETURN JUMPDEST PUSH2 0x4B0 PUSH1 0x4 DUP1 CALLDATASIZE SUB DUP2 ADD SWAP1 PUSH2 0x4AB SWAP2 SWAP1 PUSH2 0x3828 JUMP JUMPDEST PUSH2 0x2AD4 JUMP JUMPDEST STOP JUMPDEST PUSH2 0x4CC PUSH1 0x4 DUP1 CALLDATASIZE SUB DUP2 ADD SWAP1 PUSH2 0x4C7 SWAP2 SWAP1 PUSH2 0x3288 JUMP JUMPDEST PUSH2 0x2ECF JUMP JUMPDEST PUSH1 0x40 MLOAD PUSH2 0x4DB SWAP4 SWAP3 SWAP2 SWAP1 PUSH2 0x3977 JUMP JUMPDEST PUSH1 0x40 MLOAD DUP1 SWAP2 SUB SWAP1 RETURN JUMPDEST PUSH0 DUP1 PUSH0 DUP1 SLOAD SWAP1 PUSH2 0x100 EXP SWAP1 DIV PUSH20 0xFFFFFFFFFFFFFFFFFFFFFFFFFFFFFFFFFFFFFFFF AND PUSH20 0xFFFFFFFFFFFFFFFFFFFFFFFFFFFFFFFFFFFFFFFF AND PUSH4 0x75894E8C CALLER PUSH1 0x40 MLOAD DUP3 PUSH4 0xFFFFFFFF AND PUSH1 0xE0 SHL DUP2 MSTORE PUSH1 0x4 ADD PUSH2 0x53E SWAP2 SWAP1 PUSH2 0x39AD JUMP JUMPDEST PUSH1 0x40 DUP1 MLOAD DUP1 DUP4 SUB DUP2 PUSH0 DUP8 GAS CALL ISZERO DUP1 ISZERO PUSH2 0x559 JUMPI RETURNDATASIZE PUSH0 DUP1 RETURNDATACOPY RETURNDATASIZE PUSH0 REVERT JUMPDEST POP POP POP POP PUSH1 0x40 MLOAD RETURNDATASIZE PUSH1 0x1F NOT PUSH1 0x1F DUP3 ADD AND DUP3 ADD DUP1 PUSH1 0x40 MSTORE POP DUP2 ADD SWAP1 PUSH2 0x57D SWAP2 SWAP1 PUSH2 0x39FD JUMP JUMPDEST SWAP2 POP SWAP2 POP PUSH1 0x5 DUP1 DUP2 GT ISZERO PUSH2 0x594 JUMPI PUSH2 0x593 PUSH2 0x312A JUMP JUMPDEST JUMPDEST DUP3 PUSH1 0x5 DUP2 GT ISZERO PUSH2 0x5A7 JUMPI PUSH2 0x5A6 PUSH2 0x312A JUMP JUMPDEST JUMPDEST EQ DUP1 ISZERO PUSH2 0x5B1 JUMPI POP DUP1 JUMPDEST PUSH2 0x5F0 JUMPI PUSH1 0x40 MLOAD PUSH32 0x8C379A000000000000000000000000000000000000000000000000000000000 DUP2 MSTORE PUSH1 0x4 ADD PUSH2 0x5E7 SWAP1 PUSH2 0x3ABB JUMP JUMPDEST PUSH1 0x40 MLOAD DUP1 SWAP2 SUB SWAP1 REVERT JUMPDEST PUSH1 0x1 PUSH1 0x9 PUSH0 DUP6 PUSH20 0xFFFFFFFFFFFFFFFFFFFFFFFFFFFFFFFFFFFFFFFF AND PUSH20 0xFFFFFFFFFFFFFFFFFFFFFFFFFFFFFFFFFFFFFFFF AND DUP2 MSTORE PUSH1 0x20 ADD SWAP1 DUP2 MSTORE PUSH1 0x20 ADD PUSH0 KECCAK256 PUSH0 PUSH2 0x100 EXP DUP2 SLOAD DUP2 PUSH1 0xFF MUL NOT AND SWAP1 DUP4 ISZERO ISZERO MUL OR SWAP1 SSTORE POP PUSH32 0x6EA640312E182DE387819FBEB13BE00DB3171A445412852248559054871C4199 DUP4 TIMESTAMP PUSH1 0x40 MLOAD PUSH2 0x676 SWAP3 SWAP2 SWAP1 PUSH2 0x3AD9 JUMP JUMPDEST PUSH1 0x40 MLOAD DUP1 SWAP2 SUB SWAP1 LOG1 POP POP POP JUMP JUMPDEST PUSH1 0x6 PUSH1 0x20 MSTORE DUP2 PUSH0 MSTORE PUSH1 0x40 PUSH0 KECCAK256 PUSH1 0x20 MSTORE DUP1 PUSH0 MSTORE PUSH1 0x40 PUSH0 KECCAK256 PUSH0 SWAP2 POP SWAP2 POP POP DUP1 PUSH0 ADD SLOAD SWAP1 DUP1 PUSH1 0x1 ADD SLOAD SWAP1 DUP1 PUSH1 0x2 ADD SLOAD SWAP1 DUP1 PUSH1 0x3 ADD PUSH0 SWAP1 SLOAD SWAP1 PUSH2 0x100 EXP SWAP1 DIV PUSH1 0xF8 SHL SWAP1 DUP1 PUSH1 0x4 ADD SLOAD SWAP1 DUP1 PUSH1 0x5 ADD PUSH0 SWAP1 SLOAD SWAP1 PUSH2 0x100 EXP SWAP1 DIV PUSH1 0xFF AND SWAP1 POP DUP7 JUMP JUMPDEST PUSH1 0x2 SLOAD DUP2 JUMP JUMPDEST PUSH0 DUP1 PUSH0 DUP1 SLOAD SWAP1 PUSH2 0x100 EXP SWAP1 DIV PUSH20 0xFFFFFFFFFFFFFFFFFFFFFFFFFFFFFFFFFFFFFFFF AND PUSH20 0xFFFFFFFFFFFFFFFFFFFFFFFFFFFFFFFFFFFFFFFF AND PUSH4 0x75894E8C CALLER PUSH1 0x40 MLOAD DUP3 PUSH4 0xFFFFFFFF AND PUSH1 0xE0 SHL DUP2 MSTORE PUSH1 0x4 ADD PUSH2 0x73E SWAP2 SWAP1 PUSH2 0x39AD JUMP JUMPDEST PUSH1 0x40 DUP1 MLOAD DUP1 DUP4 SUB DUP2 PUSH0 DUP8 GAS CALL ISZERO DUP1 ISZERO PUSH2 0x759 JUMPI RETURNDATASIZE PUSH0 DUP1 RETURNDATACOPY RETURNDATASIZE PUSH0 REVERT JUMPDEST POP POP POP POP PUSH1 0x40 MLOAD RETURNDATASIZE PUSH1 0x1F NOT PUSH1 0x1F DUP3 ADD AND DUP3 ADD DUP1 PUSH1 0x40 MSTORE POP DUP2 ADD SWAP1 PUSH2 0x77D SWAP2 SWAP1 PUSH2 0x39FD JUMP JUMPDEST SWAP2 POP SWAP2 POP PUSH1 0x2 PUSH1 0x5 DUP2 GT ISZERO PUSH2 0x795 JUMPI PUSH2 0x794 PUSH2 0x312A JUMP JUMPDEST JUMPDEST DUP3 PUSH1 0x5 DUP2 GT ISZERO PUSH2 0x7A8 JUMPI PUSH2 0x7A7 PUSH2 0x312A JUMP JUMPDEST JUMPDEST EQ DUP1 ISZERO PUSH2 0x7B2 JUMPI POP DUP1 JUMPDEST PUSH2 0x7F1 JUMPI PUSH1 0x40 MLOAD PUSH32 0x8C379A000000000000000000000000000000000000000000000000000000000 DUP2 MSTORE PUSH1 0x4 ADD PUSH2 0x7E8 SWAP1 PUSH2 0x3B70 JUMP JUMPDEST PUSH1 0x40 MLOAD DUP1 SWAP2 SUB SWAP1 REVERT JUMPDEST PUSH1 0x1 DUP5 LT ISZERO DUP1 ISZERO PUSH2 0x804 JUMPI POP PUSH1 0x2 SLOAD DUP5 GT ISZERO JUMPDEST PUSH2 0x843 JUMPI PUSH1 0x40 MLOAD PUSH32 0x8C379A000000000000000000000000000000000000000000000000000000000 DUP2 MSTORE PUSH1 0x4 ADD PUSH2 0x83A SWAP1 PUSH2 0x3BD8 JUMP JUMPDEST PUSH1 0x40 MLOAD DUP1 SWAP2 SUB SWAP1 REVERT JUMPDEST PUSH1 0x4 PUSH0 DUP6 DUP2 MSTORE PUSH1 0x20 ADD SWAP1 DUP2 MSTORE PUSH1 0x20 ADD PUSH0 KECCAK256 PUSH1 0x4 ADD PUSH0 SWAP1 SLOAD SWAP1 PUSH2 0x100 EXP SWAP1 DIV PUSH1 0xFF AND ISZERO PUSH2 0x8A4 JUMPI PUSH1 0x40 MLOAD PUSH32 0x8C379A000000000000000000000000000000000000000000000000000000000 DUP2 MSTORE PUSH1 0x4 ADD PUSH2 0x89B SWAP1 PUSH2 0x3C66 JUMP JUMPDEST PUSH1 0x40 MLOAD DUP1 SWAP2 SUB SWAP1 REVERT JUMPDEST PUSH1 0x1 PUSH1 0x4 PUSH0 DUP7 DUP2 MSTORE PUSH1 0x20 ADD SWAP1 DUP2 MSTORE PUSH1 0x20 ADD PUSH0 KECCAK256 PUSH1 0x4 ADD PUSH0 PUSH2 0x100 EXP DUP2 SLOAD DUP2 PUSH1 0xFF MUL NOT AND SWAP1 DUP4 ISZERO ISZERO MUL OR SWAP1 SSTORE POP DUP3 PUSH1 0x4 PUSH0 DUP7 DUP2 MSTORE PUSH1 0x20 ADD SWAP1 DUP2 MSTORE PUSH1 0x20 ADD PUSH0 KECCAK256 PUSH1 0x4 ADD PUSH1 0x1 PUSH2 0x100 EXP DUP2 SLOAD DUP2 PUSH1 0xFF MUL NOT AND SWAP1 DUP4 ISZERO ISZERO MUL OR SWAP1 SSTORE POP DUP4 PUSH32 0x5E672278B5A4CE7F1DEAEB816F60398E65C2401C6F90928E8344510D7FA92755 CALLER DUP6 TIMESTAMP PUSH1 0x40 MLOAD PUSH2 0x930 SWAP4 SWAP3 SWAP2 SWAP1 PUSH2 0x3C84 JUMP JUMPDEST PUSH1 0x40 MLOAD DUP1 SWAP2 SUB SWAP1 LOG2 POP POP POP POP JUMP JUMPDEST PUSH1 0x8 PUSH1 0x20 MSTORE DUP1 PUSH0 MSTORE PUSH1 0x40 PUSH0 KECCAK256 PUSH0 SWAP2 POP SWAP1 POP DUP1 PUSH0 ADD PUSH0 SWAP1 SLOAD SWAP1 PUSH2 0x100 EXP SWAP1 DIV PUSH20 0xFFFFFFFFFFFFFFFFFFFFFFFFFFFFFFFFFFFFFFFF AND SWAP1 DUP1 PUSH1 0x1 ADD SLOAD SWAP1 DUP1 PUSH1 0x2 ADD SLOAD SWAP1 DUP1 PUSH1 0x3 ADD SLOAD SWAP1 DUP1 PUSH1 0x4 ADD SLOAD SWAP1 DUP1 PUSH1 0x5 ADD SLOAD SWAP1 DUP1 PUSH1 0x6 ADD PUSH0 SWAP1 SLOAD SWAP1 PUSH2 0x100 EXP SWAP1 DIV PUSH1 0xFF AND SWAP1 POP DUP8 JUMP JUMPDEST PUSH1 0x4 PUSH1 0x20 MSTORE DUP1 PUSH0 MSTORE PUSH1 0x40 PUSH0 KECCAK256 PUSH0 SWAP2 POP SWAP1 POP DUP1 PUSH0 ADD PUSH0 SWAP1 SLOAD SWAP1 PUSH2 0x100 EXP SWAP1 DIV PUSH20 0xFFFFFFFFFFFFFFFFFFFFFFFFFFFFFFFFFFFFFFFF AND SWAP1 DUP1 PUSH1 0x1 ADD SLOAD SWAP1 DUP1 PUSH1 0x2 ADD SLOAD SWAP1 DUP1 PUSH1 0x3 ADD SLOAD SWAP1 DUP1 PUSH1 0x4 ADD PUSH0 SWAP1 SLOAD SWAP1 PUSH2 0x100 EXP SWAP1 DIV PUSH1 0xFF AND SWAP1 DUP1 PUSH1 0x4 ADD PUSH1 0x1 SWAP1 SLOAD SWAP1 PUSH2 0x100 EXP SWAP1 DIV PUSH1 0xFF AND SWAP1 POP DUP7 JUMP JUMPDEST PUSH1 0x1 PUSH0 SWAP1 SLOAD SWAP1 PUSH2 0x100 EXP SWAP1 DIV PUSH20 0xFFFFFFFFFFFFFFFFFFFFFFFFFFFFFFFFFFFFFFFF AND DUP2 JUMP JUMPDEST PUSH0 DUP1 PUSH0 DUP1 PUSH0 DUP1 PUSH0 SWAP1 SLOAD SWAP1 PUSH2 0x100 EXP SWAP1 DIV PUSH20 0xFFFFFFFFFFFFFFFFFFFFFFFFFFFFFFFFFFFFFFFF AND PUSH20 0xFFFFFFFFFFFFFFFFFFFFFFFFFFFFFFFFFFFFFFFF AND PUSH4 0x75894E8C CALLER PUSH1 0x40 MLOAD DUP3 PUSH4 0xFFFFFFFF AND PUSH1 0xE0 SHL DUP2 MSTORE PUSH1 0x4 ADD PUSH2 0xA9A SWAP2 SWAP1 PUSH2 0x39AD JUMP JUMPDEST PUSH1 0x40 DUP1 MLOAD DUP1 DUP4 SUB DUP2 PUSH0 DUP8 GAS CALL ISZERO DUP1 ISZERO PUSH2 0xAB5 JUMPI RETURNDATASIZE PUSH0 DUP1 RETURNDATACOPY RETURNDATASIZE PUSH0 REVERT JUMPDEST POP POP POP POP PUSH1 0x40 MLOAD RETURNDATASIZE PUSH1 0x1F NOT PUSH1 0x1F DUP3 ADD AND DUP3 ADD DUP1 PUSH1 0x40 MSTORE POP DUP2 ADD SWAP1 PUSH2 0xAD9 SWAP2 SWAP1 PUSH2 0x39FD JUMP JUMPDEST SWAP2 POP SWAP2 POP PUSH1 0x2 PUSH1 0x5 DUP2 GT ISZERO PUSH2 0xAF1 JUMPI PUSH2 0xAF0 PUSH2 0x312A JUMP JUMPDEST JUMPDEST DUP3 PUSH1 0x5 DUP2 GT ISZERO PUSH2 0xB04 JUMPI PUSH2 0xB03 PUSH2 0x312A JUMP JUMPDEST JUMPDEST EQ DUP1 ISZERO PUSH2 0xB0E JUMPI POP DUP1 JUMPDEST PUSH2 0xB4D JUMPI PUSH1 0x40 MLOAD PUSH32 0x8C379A000000000000000000000000000000000000000000000000000000000 DUP2 MSTORE PUSH1 0x4 ADD PUSH2 0xB44 SWAP1 PUSH2 0x3B70 JUMP JUMPDEST PUSH1 0x40 MLOAD DUP1 SWAP2 SUB SWAP1 REVERT JUMPDEST PUSH1 0x1 DUP7 LT ISZERO DUP1 ISZERO PUSH2 0xB60 JUMPI POP PUSH1 0x2 SLOAD DUP7 GT ISZERO JUMPDEST PUSH2 0xB9F JUMPI PUSH1 0x40 MLOAD PUSH32 0x8C379A000000000000000000000000000000000000000000000000000000000 DUP2 MSTORE PUSH1 0x4 ADD PUSH2 0xB96 SWAP1 PUSH2 0x3BD8 JUMP JUMPDEST PUSH1 0x40 MLOAD DUP1 SWAP2 SUB SWAP1 REVERT JUMPDEST PUSH0 PUSH1 0x4 PUSH0 DUP9 DUP2 MSTORE PUSH1 0x20 ADD SWAP1 DUP2 MSTORE PUSH1 0x20 ADD PUSH0 KECCAK256 PUSH1 0x40 MLOAD DUP1 PUSH1 0xC0 ADD PUSH1 0x40 MSTORE SWAP1 DUP2 PUSH0 DUP3 ADD PUSH0 SWAP1 SLOAD SWAP1 PUSH2 0x100 EXP SWAP1 DIV PUSH20 0xFFFFFFFFFFFFFFFFFFFFFFFFFFFFFFFFFFFFFFFF AND PUSH20 0xFFFFFFFFFFFFFFFFFFFFFFFFFFFFFFFFFFFFFFFF AND PUSH20 0xFFFFFFFFFFFFFFFFFFFFFFFFFFFFFFFFFFFFFFFF AND DUP2 MSTORE PUSH1 0x20 ADD PUSH1 0x1 DUP3 ADD SLOAD DUP2 MSTORE PUSH1 0x20 ADD PUSH1 0x2 DUP3 ADD SLOAD DUP2 MSTORE PUSH1 0x20 ADD PUSH1 0x3 DUP3 ADD SLOAD DUP2 MSTORE PUSH1 0x20 ADD PUSH1 0x4 DUP3 ADD PUSH0 SWAP1 SLOAD SWAP1 PUSH2 0x100 EXP SWAP1 DIV PUSH1 0xFF AND ISZERO ISZERO ISZERO ISZERO DUP2 MSTORE PUSH1 0x20 ADD PUSH1 0x4 DUP3 ADD PUSH1 0x1 SWAP1 SLOAD SWAP1 PUSH2 0x100 EXP SWAP1 DIV PUSH1 0xFF AND ISZERO ISZERO ISZERO ISZERO DUP2 MSTORE POP POP SWAP1 POP DUP1 PUSH0 ADD MLOAD DUP2 PUSH1 0x20 ADD MLOAD DUP3 PUSH1 0x60 ADD MLOAD SWAP6 POP SWAP6 POP SWAP6 POP POP POP POP SWAP2 SWAP4 SWAP1 SWAP3 POP JUMP JUMPDEST PUSH1 0x7 PUSH1 0x20 MSTORE DUP1 PUSH0 MSTORE PUSH1 0x40 PUSH0 KECCAK256 PUSH0 SWAP2 POP SWAP1 POP SLOAD DUP2 JUMP JUMPDEST DUP1 PUSH0 DUP1 PUSH0 DUP1 SLOAD SWAP1 PUSH2 0x100 EXP SWAP1 DIV PUSH20 0xFFFFFFFFFFFFFFFFFFFFFFFFFFFFFFFFFFFFFFFF AND PUSH20 0xFFFFFFFFFFFFFFFFFFFFFFFFFFFFFFFFFFFFFFFF AND PUSH4 0x75894E8C CALLER PUSH1 0x40 MLOAD DUP3 PUSH4 0xFFFFFFFF AND PUSH1 0xE0 SHL DUP2 MSTORE PUSH1 0x4 ADD PUSH2 0xCF3 SWAP2 SWAP1 PUSH2 0x39AD JUMP JUMPDEST PUSH1 0x40 DUP1 MLOAD DUP1 DUP4 SUB DUP2 PUSH0 DUP8 GAS CALL ISZERO DUP1 ISZERO PUSH2 0xD0E JUMPI RETURNDATASIZE PUSH0 DUP1 RETURNDATACOPY RETURNDATASIZE PUSH0 REVERT JUMPDEST POP POP POP POP PUSH1 0x40 MLOAD RETURNDATASIZE PUSH1 0x1F NOT PUSH1 0x1F DUP3 ADD AND DUP3 ADD DUP1 PUSH1 0x40 MSTORE POP DUP2 ADD SWAP1 PUSH2 0xD32 SWAP2 SWAP1 PUSH2 0x39FD JUMP JUMPDEST SWAP2 POP SWAP2 POP PUSH1 0x4 PUSH1 0x5 DUP2 GT ISZERO PUSH2 0xD4A JUMPI PUSH2 0xD49 PUSH2 0x312A JUMP JUMPDEST JUMPDEST DUP3 PUSH1 0x5 DUP2 GT ISZERO PUSH2 0xD5D JUMPI PUSH2 0xD5C PUSH2 0x312A JUMP JUMPDEST JUMPDEST EQ DUP1 ISZERO PUSH2 0xD67 JUMPI POP DUP1 JUMPDEST PUSH2 0xDA6 JUMPI PUSH1 0x40 MLOAD PUSH32 0x8C379A000000000000000000000000000000000000000000000000000000000 DUP2 MSTORE PUSH1 0x4 ADD PUSH2 0xD9D SWAP1 PUSH2 0x3D29 JUMP JUMPDEST PUSH1 0x40 MLOAD DUP1 SWAP2 SUB SWAP1 REVERT JUMPDEST CALLER PUSH20 0xFFFFFFFFFFFFFFFFFFFFFFFFFFFFFFFFFFFFFFFF AND PUSH1 0x8 PUSH0 DUP6 DUP2 MSTORE PUSH1 0x20 ADD SWAP1 DUP2 MSTORE PUSH1 0x20 ADD PUSH0 KECCAK256 PUSH0 ADD PUSH0 SWAP1 SLOAD SWAP1 PUSH2 0x100 EXP SWAP1 DIV PUSH20 0xFFFFFFFFFFFFFFFFFFFFFFFFFFFFFFFFFFFFFFFF AND PUSH20 0xFFFFFFFFFFFFFFFFFFFFFFFFFFFFFFFFFFFFFFFF AND EQ PUSH2 0xE46 JUMPI PUSH1 0x40 MLOAD PUSH32 0x8C379A000000000000000000000000000000000000000000000000000000000 DUP2 MSTORE PUSH1 0x4 ADD PUSH2 0xE3D SWAP1 PUSH2 0x3DB7 JUMP JUMPDEST PUSH1 0x40 MLOAD DUP1 SWAP2 SUB SWAP1 REVERT JUMPDEST PUSH0 PUSH1 0x8 PUSH0 DUP7 DUP2 MSTORE PUSH1 0x20 ADD SWAP1 DUP2 MSTORE PUSH1 0x20 ADD PUSH0 KECCAK256 PUSH1 0x40 MLOAD DUP1 PUSH1 0xE0 ADD PUSH1 0x40 MSTORE SWAP1 DUP2 PUSH0 DUP3 ADD PUSH0 SWAP1 SLOAD SWAP1 PUSH2 0x100 EXP SWAP1 DIV PUSH20 0xFFFFFFFFFFFFFFFFFFFFFFFFFFFFFFFFFFFFFFFF AND PUSH20 0xFFFFFFFFFFFFFFFFFFFFFFFFFFFFFFFFFFFFFFFF AND PUSH20 0xFFFFFFFFFFFFFFFFFFFFFFFFFFFFFFFFFFFFFFFF AND DUP2 MSTORE PUSH1 0x20 ADD PUSH1 0x1 DUP3 ADD SLOAD DUP2 MSTORE PUSH1 0x20 ADD PUSH1 0x2 DUP3 ADD SLOAD DUP2 MSTORE PUSH1 0x20 ADD PUSH1 0x3 DUP3 ADD SLOAD DUP2 MSTORE PUSH1 0x20 ADD PUSH1 0x4 DUP3 ADD SLOAD DUP2 MSTORE PUSH1 0x20 ADD PUSH1 0x5 DUP3 ADD SLOAD DUP2 MSTORE PUSH1 0x20 ADD PUSH1 0x6 DUP3 ADD PUSH0 SWAP1 SLOAD SWAP1 PUSH2 0x100 EXP SWAP1 DIV PUSH1 0xFF AND PUSH1 0x3 DUP2 GT ISZERO PUSH2 0xF0D JUMPI PUSH2 0xF0C PUSH2 0x312A JUMP JUMPDEST JUMPDEST PUSH1 0x3 DUP2 GT ISZERO PUSH2 0xF1F JUMPI PUSH2 0xF1E PUSH2 0x312A JUMP JUMPDEST JUMPDEST DUP2 MSTORE POP POP SWAP1 POP PUSH1 0x1 DUP6 LT ISZERO DUP1 ISZERO PUSH2 0xF47 JUMPI POP PUSH1 0x7 PUSH0 DUP8 DUP2 MSTORE PUSH1 0x20 ADD SWAP1 DUP2 MSTORE PUSH1 0x20 ADD PUSH0 KECCAK256 SLOAD DUP6 GT ISZERO JUMPDEST PUSH2 0xF86 JUMPI PUSH1 0x40 MLOAD PUSH32 0x8C379A000000000000000000000000000000000000000000000000000000000 DUP2 MSTORE PUSH1 0x4 ADD PUSH2 0xF7D SWAP1 PUSH2 0x3E1F JUMP JUMPDEST PUSH1 0x40 MLOAD DUP1 SWAP2 SUB SWAP1 REVERT JUMPDEST PUSH1 0x2 PUSH1 0x3 DUP2 GT ISZERO PUSH2 0xF9A JUMPI PUSH2 0xF99 PUSH2 0x312A JUMP JUMPDEST JUMPDEST DUP2 PUSH1 0xC0 ADD MLOAD PUSH1 0x3 DUP2 GT ISZERO PUSH2 0xFB1 JUMPI PUSH2 0xFB0 PUSH2 0x312A JUMP JUMPDEST JUMPDEST EQ PUSH2 0xFF1 JUMPI PUSH1 0x40 MLOAD PUSH32 0x8C379A000000000000000000000000000000000000000000000000000000000 DUP2 MSTORE PUSH1 0x4 ADD PUSH2 0xFE8 SWAP1 PUSH2 0x3EAD JUMP JUMPDEST PUSH1 0x40 MLOAD DUP1 SWAP2 SUB SWAP1 REVERT JUMPDEST DUP1 PUSH1 0x60 ADD MLOAD TIMESTAMP LT ISZERO PUSH2 0x1038 JUMPI PUSH1 0x40 MLOAD PUSH32 0x8C379A000000000000000000000000000000000000000000000000000000000 DUP2 MSTORE PUSH1 0x4 ADD PUSH2 0x102F SWAP1 PUSH2 0x3F3B JUMP JUMPDEST PUSH1 0x40 MLOAD DUP1 SWAP2 SUB SWAP1 REVERT JUMPDEST PUSH1 0x3 PUSH1 0x8 PUSH0 DUP8 DUP2 MSTORE PUSH1 0x20 ADD SWAP1 DUP2 MSTORE PUSH1 0x20 ADD PUSH0 KECCAK256 PUSH1 0x6 ADD PUSH0 PUSH2 0x100 EXP DUP2 SLOAD DUP2 PUSH1 0xFF MUL NOT AND SWAP1 DUP4 PUSH1 0x3 DUP2 GT ISZERO PUSH2 0x106F JUMPI PUSH2 0x106E PUSH2 0x312A JUMP JUMPDEST JUMPDEST MUL OR SWAP1 SSTORE POP TIMESTAMP PUSH1 0x8 PUSH0 DUP8 DUP2 MSTORE PUSH1 0x20 ADD SWAP1 DUP2 MSTORE PUSH1 0x20 ADD PUSH0 KECCAK256 PUSH1 0x4 ADD DUP2 SWAP1 SSTORE POP PUSH32 0xF0759B1C58F2EB04B7275484184A141F88FEDEB54C9A6A48B4E7D9D332EDB1A7 DUP7 DUP7 TIMESTAMP PUSH1 0x40 MLOAD PUSH2 0x10C0 SWAP4 SWAP3 SWAP2 SWAP1 PUSH2 0x3F59 JUMP JUMPDEST PUSH1 0x40 MLOAD DUP1 SWAP2 SUB SWAP1 LOG1 POP POP POP POP POP POP JUMP JUMPDEST PUSH0 DUP1 PUSH0 DUP1 SLOAD SWAP1 PUSH2 0x100 EXP SWAP1 DIV PUSH20 0xFFFFFFFFFFFFFFFFFFFFFFFFFFFFFFFFFFFFFFFF AND PUSH20 0xFFFFFFFFFFFFFFFFFFFFFFFFFFFFFFFFFFFFFFFF AND PUSH4 0x75894E8C CALLER PUSH1 0x40 MLOAD DUP3 PUSH4 0xFFFFFFFF AND PUSH1 0xE0 SHL DUP2 MSTORE PUSH1 0x4 ADD PUSH2 0x112A SWAP2 SWAP1 PUSH2 0x39AD JUMP JUMPDEST PUSH1 0x40 DUP1 MLOAD DUP1 DUP4 SUB DUP2 PUSH0 DUP8 GAS CALL ISZERO DUP1 ISZERO PUSH2 0x1145 JUMPI RETURNDATASIZE PUSH0 DUP1 RETURNDATACOPY RETURNDATASIZE PUSH0 REVERT JUMPDEST POP POP POP POP PUSH1 0x40 MLOAD RETURNDATASIZE PUSH1 0x1F NOT PUSH1 0x1F DUP3 ADD AND DUP3 ADD DUP1 PUSH1 0x40 MSTORE POP DUP2 ADD SWAP1 PUSH2 0x1169 SWAP2 SWAP1 PUSH2 0x39FD JUMP JUMPDEST SWAP2 POP SWAP2 POP PUSH1 0x2 PUSH1 0x5 DUP2 GT ISZERO PUSH2 0x1181 JUMPI PUSH2 0x1180 PUSH2 0x312A JUMP JUMPDEST JUMPDEST DUP3 PUSH1 0x5 DUP2 GT ISZERO PUSH2 0x1194 JUMPI PUSH2 0x1193 PUSH2 0x312A JUMP JUMPDEST JUMPDEST EQ DUP1 ISZERO PUSH2 0x119E JUMPI POP DUP1 JUMPDEST PUSH2 0x11DD JUMPI PUSH1 0x40 MLOAD PUSH32 0x8C379A000000000000000000000000000000000000000000000000000000000 DUP2 MSTORE PUSH1 0x4 ADD PUSH2 0x11D4 SWAP1 PUSH2 0x3B70 JUMP JUMPDEST PUSH1 0x40 MLOAD DUP1 SWAP2 SUB SWAP1 REVERT JUMPDEST PUSH0 DUP1 SHL DUP7 SUB PUSH2 0x1221 JUMPI PUSH1 0x40 MLOAD PUSH32 0x8C379A000000000000000000000000000000000000000000000000000000000 DUP2 MSTORE PUSH1 0x4 ADD PUSH2 0x1218 SWAP1 PUSH2 0x3FD8 JUMP JUMPDEST PUSH1 0x40 MLOAD DUP1 SWAP2 SUB SWAP1 REVERT JUMPDEST PUSH0 DUP6 GT PUSH2 0x1263 JUMPI PUSH1 0x40 MLOAD PUSH32 0x8C379A000000000000000000000000000000000000000000000000000000000 DUP2 MSTORE PUSH1 0x4 ADD PUSH2 0x125A SWAP1 PUSH2 0x4040 JUMP JUMPDEST PUSH1 0x40 MLOAD DUP1 SWAP2 SUB SWAP1 REVERT JUMPDEST PUSH32 0x4D00000000000000000000000000000000000000000000000000000000000000 DUP5 PUSH31 0xFFFFFFFFFFFFFFFFFFFFFFFFFFFFFFFFFFFFFFFFFFFFFFFFFFFFFFFFFFFFFF NOT AND EQ DUP1 PUSH2 0x12F4 JUMPI POP PUSH32 0x4600000000000000000000000000000000000000000000000000000000000000 DUP5 PUSH31 0xFFFFFFFFFFFFFFFFFFFFFFFFFFFFFFFFFFFFFFFFFFFFFFFFFFFFFFFFFFFFFF NOT AND EQ JUMPDEST PUSH2 0x1333 JUMPI PUSH1 0x40 MLOAD PUSH32 0x8C379A000000000000000000000000000000000000000000000000000000000 DUP2 MSTORE PUSH1 0x4 ADD PUSH2 0x132A SWAP1 PUSH2 0x40A8 JUMP JUMPDEST PUSH1 0x40 MLOAD DUP1 SWAP2 SUB SWAP1 REVERT JUMPDEST PUSH1 0x1 DUP4 LT ISZERO DUP1 ISZERO PUSH2 0x1346 JUMPI POP PUSH1 0x2 SLOAD DUP4 GT ISZERO JUMPDEST PUSH2 0x1385 JUMPI PUSH1 0x40 MLOAD PUSH32 0x8C379A000000000000000000000000000000000000000000000000000000000 DUP2 MSTORE PUSH1 0x4 ADD PUSH2 0x137C SWAP1 PUSH2 0x3BD8 JUMP JUMPDEST PUSH1 0x40 MLOAD DUP1 SWAP2 SUB SWAP1 REVERT JUMPDEST PUSH1 0x7 PUSH0 DUP5 DUP2 MSTORE PUSH1 0x20 ADD SWAP1 DUP2 MSTORE PUSH1 0x20 ADD PUSH0 KECCAK256 PUSH0 DUP2 SLOAD DUP1 SWAP3 SWAP2 SWAP1 PUSH2 0x13A6 SWAP1 PUSH2 0x40F3 JUMP JUMPDEST SWAP2 SWAP1 POP SSTORE POP PUSH1 0x40 MLOAD DUP1 PUSH1 0xC0 ADD PUSH1 0x40 MSTORE DUP1 PUSH1 0x7 PUSH0 DUP7 DUP2 MSTORE PUSH1 0x20 ADD SWAP1 DUP2 MSTORE PUSH1 0x20 ADD PUSH0 KECCAK256 SLOAD DUP2 MSTORE PUSH1 0x20 ADD DUP8 DUP2 MSTORE PUSH1 0x20 ADD DUP7 DUP2 MSTORE PUSH1 0x20 ADD DUP6 PUSH31 0xFFFFFFFFFFFFFFFFFFFFFFFFFFFFFFFFFFFFFFFFFFFFFFFFFFFFFFFFFFFFFF NOT AND DUP2 MSTORE PUSH1 0x20 ADD DUP5 DUP2 MSTORE PUSH1 0x20 ADD PUSH0 PUSH1 0x3 DUP2 GT ISZERO PUSH2 0x141A JUMPI PUSH2 0x1419 PUSH2 0x312A JUMP JUMPDEST JUMPDEST DUP2 MSTORE POP PUSH1 0x6 PUSH0 DUP6 DUP2 MSTORE PUSH1 0x20 ADD SWAP1 DUP2 MSTORE PUSH1 0x20 ADD PUSH0 KECCAK256 PUSH0 PUSH1 0x7 PUSH0 DUP8 DUP2 MSTORE PUSH1 0x20 ADD SWAP1 DUP2 MSTORE PUSH1 0x20 ADD PUSH0 KECCAK256 SLOAD DUP2 MSTORE PUSH1 0x20 ADD SWAP1 DUP2 MSTORE PUSH1 0x20 ADD PUSH0 KECCAK256 PUSH0 DUP3 ADD MLOAD DUP2 PUSH0 ADD SSTORE PUSH1 0x20 DUP3 ADD MLOAD DUP2 PUSH1 0x1 ADD SSTORE PUSH1 0x40 DUP3 ADD MLOAD DUP2 PUSH1 0x2 ADD SSTORE PUSH1 0x60 DUP3 ADD MLOAD DUP2 PUSH1 0x3 ADD PUSH0 PUSH2 0x100 EXP DUP2 SLOAD DUP2 PUSH1 0xFF MUL NOT AND SWAP1 DUP4 PUSH1 0xF8 SHR MUL OR SWAP1 SSTORE POP PUSH1 0x80 DUP3 ADD MLOAD DUP2 PUSH1 0x4 ADD SSTORE PUSH1 0xA0 DUP3 ADD MLOAD DUP2 PUSH1 0x5 ADD PUSH0 PUSH2 0x100 EXP DUP2 SLOAD DUP2 PUSH1 0xFF MUL NOT AND SWAP1 DUP4 PUSH1 0x3 DUP2 GT ISZERO PUSH2 0x14BE JUMPI PUSH2 0x14BD PUSH2 0x312A JUMP JUMPDEST JUMPDEST MUL OR SWAP1 SSTORE POP SWAP1 POP POP DUP3 PUSH1 0x5 PUSH0 PUSH1 0x7 PUSH0 DUP8 DUP2 MSTORE PUSH1 0x20 ADD SWAP1 DUP2 MSTORE PUSH1 0x20 ADD PUSH0 KECCAK256 SLOAD DUP2 MSTORE PUSH1 0x20 ADD SWAP1 DUP2 MSTORE PUSH1 0x20 ADD PUSH0 KECCAK256 DUP2 SWAP1 SSTORE POP PUSH32 0x8F6937EDCD05CE1C1912E225EC700CB996D92333E3B1631CE16E703FC6B8E77A PUSH1 0x7 PUSH0 DUP6 DUP2 MSTORE PUSH1 0x20 ADD SWAP1 DUP2 MSTORE PUSH1 0x20 ADD PUSH0 KECCAK256 SLOAD DUP8 DUP8 DUP8 DUP8 PUSH1 0x40 MLOAD PUSH2 0x1535 SWAP6 SWAP5 SWAP4 SWAP3 SWAP2 SWAP1 PUSH2 0x413A JUMP JUMPDEST PUSH1 0x40 MLOAD DUP1 SWAP2 SUB SWAP1 LOG1 POP POP POP POP POP POP JUMP JUMPDEST PUSH0 DUP1 PUSH0 DUP1 PUSH0 DUP1 PUSH0 DUP1 SLOAD SWAP1 PUSH2 0x100 EXP SWAP1 DIV PUSH20 0xFFFFFFFFFFFFFFFFFFFFFFFFFFFFFFFFFFFFFFFF AND PUSH20 0xFFFFFFFFFFFFFFFFFFFFFFFFFFFFFFFFFFFFFFFF AND PUSH4 0x75894E8C CALLER PUSH1 0x40 MLOAD DUP3 PUSH4 0xFFFFFFFF AND PUSH1 0xE0 SHL DUP2 MSTORE PUSH1 0x4 ADD PUSH2 0x15A3 SWAP2 SWAP1 PUSH2 0x39AD JUMP JUMPDEST PUSH1 0x40 DUP1 MLOAD DUP1 DUP4 SUB DUP2 PUSH0 DUP8 GAS CALL ISZERO DUP1 ISZERO PUSH2 0x15BE JUMPI RETURNDATASIZE PUSH0 DUP1 RETURNDATACOPY RETURNDATASIZE PUSH0 REVERT JUMPDEST POP POP POP POP PUSH1 0x40 MLOAD RETURNDATASIZE PUSH1 0x1F NOT PUSH1 0x1F DUP3 ADD AND DUP3 ADD DUP1 PUSH1 0x40 MSTORE POP DUP2 ADD SWAP1 PUSH2 0x15E2 SWAP2 SWAP1 PUSH2 0x39FD JUMP JUMPDEST SWAP2 POP SWAP2 POP PUSH1 0x3 PUSH1 0x5 DUP2 GT ISZERO PUSH2 0x15FA JUMPI PUSH2 0x15F9 PUSH2 0x312A JUMP JUMPDEST JUMPDEST DUP3 PUSH1 0x5 DUP2 GT ISZERO PUSH2 0x160D JUMPI PUSH2 0x160C PUSH2 0x312A JUMP JUMPDEST JUMPDEST EQ DUP1 ISZERO PUSH2 0x1617 JUMPI POP DUP1 JUMPDEST DUP1 PUSH2 0x164E JUMPI POP PUSH0 PUSH1 0x5 DUP2 GT ISZERO PUSH2 0x1630 JUMPI PUSH2 0x162F PUSH2 0x312A JUMP JUMPDEST JUMPDEST DUP3 PUSH1 0x5 DUP2 GT ISZERO PUSH2 0x1643 JUMPI PUSH2 0x1642 PUSH2 0x312A JUMP JUMPDEST JUMPDEST EQ DUP1 ISZERO PUSH2 0x164D JUMPI POP DUP1 JUMPDEST JUMPDEST PUSH2 0x168D JUMPI PUSH1 0x40 MLOAD PUSH32 0x8C379A000000000000000000000000000000000000000000000000000000000 DUP2 MSTORE PUSH1 0x4 ADD PUSH2 0x1684 SWAP1 PUSH2 0x4221 JUMP JUMPDEST PUSH1 0x40 MLOAD DUP1 SWAP2 SUB SWAP1 REVERT JUMPDEST PUSH1 0x1 DUP9 LT ISZERO DUP1 ISZERO PUSH2 0x16A0 JUMPI POP PUSH1 0x2 SLOAD DUP9 GT ISZERO JUMPDEST PUSH2 0x16DF JUMPI PUSH1 0x40 MLOAD PUSH32 0x8C379A000000000000000000000000000000000000000000000000000000000 DUP2 MSTORE PUSH1 0x4 ADD PUSH2 0x16D6 SWAP1 PUSH2 0x3BD8 JUMP JUMPDEST PUSH1 0x40 MLOAD DUP1 SWAP2 SUB SWAP1 REVERT JUMPDEST PUSH1 0x1 DUP8 LT ISZERO DUP1 ISZERO PUSH2 0x1701 JUMPI POP PUSH1 0x7 PUSH0 DUP10 DUP2 MSTORE PUSH1 0x20 ADD SWAP1 DUP2 MSTORE PUSH1 0x20 ADD PUSH0 KECCAK256 SLOAD DUP8 GT ISZERO JUMPDEST PUSH2 0x1740 JUMPI PUSH1 0x40 MLOAD PUSH32 0x8C379A000000000000000000000000000000000000000000000000000000000 DUP2 MSTORE PUSH1 0x4 ADD PUSH2 0x1737 SWAP1 PUSH2 0x3E1F JUMP JUMPDEST PUSH1 0x40 MLOAD DUP1 SWAP2 SUB SWAP1 REVERT JUMPDEST PUSH0 PUSH1 0x6 PUSH0 DUP11 DUP2 MSTORE PUSH1 0x20 ADD SWAP1 DUP2 MSTORE PUSH1 0x20 ADD PUSH0 KECCAK256 PUSH0 DUP10 DUP2 MSTORE PUSH1 0x20 ADD SWAP1 DUP2 MSTORE PUSH1 0x20 ADD PUSH0 KECCAK256 PUSH1 0x40 MLOAD DUP1 PUSH1 0xC0 ADD PUSH1 0x40 MSTORE SWAP1 DUP2 PUSH0 DUP3 ADD SLOAD DUP2 MSTORE PUSH1 0x20 ADD PUSH1 0x1 DUP3 ADD SLOAD DUP2 MSTORE PUSH1 0x20 ADD PUSH1 0x2 DUP3 ADD SLOAD DUP2 MSTORE PUSH1 0x20 ADD PUSH1 0x3 DUP3 ADD PUSH0 SWAP1 SLOAD SWAP1 PUSH2 0x100 EXP SWAP1 DIV PUSH1 0xF8 SHL PUSH31 0xFFFFFFFFFFFFFFFFFFFFFFFFFFFFFFFFFFFFFFFFFFFFFFFFFFFFFFFFFFFFFF NOT AND PUSH31 0xFFFFFFFFFFFFFFFFFFFFFFFFFFFFFFFFFFFFFFFFFFFFFFFFFFFFFFFFFFFFFF NOT AND DUP2 MSTORE PUSH1 0x20 ADD PUSH1 0x4 DUP3 ADD SLOAD DUP2 MSTORE PUSH1 0x20 ADD PUSH1 0x5 DUP3 ADD PUSH0 SWAP1 SLOAD SWAP1 PUSH2 0x100 EXP SWAP1 DIV PUSH1 0xFF AND PUSH1 0x3 DUP2 GT ISZERO PUSH2 0x1811 JUMPI PUSH2 0x1810 PUSH2 0x312A JUMP JUMPDEST JUMPDEST PUSH1 0x3 DUP2 GT ISZERO PUSH2 0x1823 JUMPI PUSH2 0x1822 PUSH2 0x312A JUMP JUMPDEST JUMPDEST DUP2 MSTORE POP POP SWAP1 POP PUSH0 PUSH1 0x4 PUSH0 DUP12 DUP2 MSTORE PUSH1 0x20 ADD SWAP1 DUP2 MSTORE PUSH1 0x20 ADD PUSH0 KECCAK256 PUSH1 0x40 MLOAD DUP1 PUSH1 0xC0 ADD PUSH1 0x40 MSTORE SWAP1 DUP2 PUSH0 DUP3 ADD PUSH0 SWAP1 SLOAD SWAP1 PUSH2 0x100 EXP SWAP1 DIV PUSH20 0xFFFFFFFFFFFFFFFFFFFFFFFFFFFFFFFFFFFFFFFF AND PUSH20 0xFFFFFFFFFFFFFFFFFFFFFFFFFFFFFFFFFFFFFFFF AND PUSH20 0xFFFFFFFFFFFFFFFFFFFFFFFFFFFFFFFFFFFFFFFF AND DUP2 MSTORE PUSH1 0x20 ADD PUSH1 0x1 DUP3 ADD SLOAD DUP2 MSTORE PUSH1 0x20 ADD PUSH1 0x2 DUP3 ADD SLOAD DUP2 MSTORE PUSH1 0x20 ADD PUSH1 0x3 DUP3 ADD SLOAD DUP2 MSTORE PUSH1 0x20 ADD PUSH1 0x4 DUP3 ADD PUSH0 SWAP1 SLOAD SWAP1 PUSH2 0x100 EXP SWAP1 DIV PUSH1 0xFF AND ISZERO ISZERO ISZERO ISZERO DUP2 MSTORE PUSH1 0x20 ADD PUSH1 0x4 DUP3 ADD PUSH1 0x1 SWAP1 SLOAD SWAP1 PUSH2 0x100 EXP SWAP1 DIV PUSH1 0xFF AND ISZERO ISZERO ISZERO ISZERO DUP2 MSTORE POP POP SWAP1 POP DUP2 PUSH1 0x20 ADD MLOAD DUP3 PUSH1 0x40 ADD MLOAD DUP4 PUSH1 0x60 ADD MLOAD DUP4 PUSH1 0x60 ADD MLOAD SWAP8 POP SWAP8 POP SWAP8 POP SWAP8 POP POP POP POP POP SWAP3 SWAP6 SWAP2 SWAP5 POP SWAP3 POP JUMP JUMPDEST PUSH0 DUP1 PUSH0 DUP1 SLOAD SWAP1 PUSH2 0x100 EXP SWAP1 DIV PUSH20 0xFFFFFFFFFFFFFFFFFFFFFFFFFFFFFFFFFFFFFFFF AND PUSH20 0xFFFFFFFFFFFFFFFFFFFFFFFFFFFFFFFFFFFFFFFF AND PUSH4 0x75894E8C CALLER PUSH1 0x40 MLOAD DUP3 PUSH4 0xFFFFFFFF AND PUSH1 0xE0 SHL DUP2 MSTORE PUSH1 0x4 ADD PUSH2 0x1972 SWAP2 SWAP1 PUSH2 0x39AD JUMP JUMPDEST PUSH1 0x40 DUP1 MLOAD DUP1 DUP4 SUB DUP2 PUSH0 DUP8 GAS CALL ISZERO DUP1 ISZERO PUSH2 0x198D JUMPI RETURNDATASIZE PUSH0 DUP1 RETURNDATACOPY RETURNDATASIZE PUSH0 REVERT JUMPDEST POP POP POP POP PUSH1 0x40 MLOAD RETURNDATASIZE PUSH1 0x1F NOT PUSH1 0x1F DUP3 ADD AND DUP3 ADD DUP1 PUSH1 0x40 MSTORE POP DUP2 ADD SWAP1 PUSH2 0x19B1 SWAP2 SWAP1 PUSH2 0x39FD JUMP JUMPDEST SWAP2 POP SWAP2 POP PUSH0 PUSH1 0x5 DUP2 GT ISZERO PUSH2 0x19C8 JUMPI PUSH2 0x19C7 PUSH2 0x312A JUMP JUMPDEST JUMPDEST DUP3 PUSH1 0x5 DUP2 GT ISZERO PUSH2 0x19DB JUMPI PUSH2 0x19DA PUSH2 0x312A JUMP JUMPDEST JUMPDEST EQ DUP1 ISZERO PUSH2 0x19E5 JUMPI POP DUP1 JUMPDEST PUSH2 0x1A24 JUMPI PUSH1 0x40 MLOAD PUSH32 0x8C379A000000000000000000000000000000000000000000000000000000000 DUP2 MSTORE PUSH1 0x4 ADD PUSH2 0x1A1B SWAP1 PUSH2 0x42AF JUMP JUMPDEST PUSH1 0x40 MLOAD DUP1 SWAP2 SUB SWAP1 REVERT JUMPDEST PUSH0 PUSH1 0x9 PUSH0 DUP6 PUSH20 0xFFFFFFFFFFFFFFFFFFFFFFFFFFFFFFFFFFFFFFFF AND PUSH20 0xFFFFFFFFFFFFFFFFFFFFFFFFFFFFFFFFFFFFFFFF AND DUP2 MSTORE PUSH1 0x20 ADD SWAP1 DUP2 MSTORE PUSH1 0x20 ADD PUSH0 KECCAK256 PUSH0 PUSH2 0x100 EXP DUP2 SLOAD DUP2 PUSH1 0xFF MUL NOT AND SWAP1 DUP4 ISZERO ISZERO MUL OR SWAP1 SSTORE POP PUSH32 0x6F6A404FFD2CEA4713256A4FD9CE99C8CF8CF32D85C2BB8061D1603FF57D50C3 CALLER DUP5 TIMESTAMP PUSH1 0x40 MLOAD PUSH2 0x1AAB SWAP4 SWAP3 SWAP2 SWAP1 PUSH2 0x42CD JUMP JUMPDEST PUSH1 0x40 MLOAD DUP1 SWAP2 SUB SWAP1 LOG1 POP POP POP JUMP JUMPDEST PUSH1 0x3 SLOAD DUP2 JUMP JUMPDEST PUSH0 DUP1 PUSH0 DUP1 SLOAD SWAP1 PUSH2 0x100 EXP SWAP1 DIV PUSH20 0xFFFFFFFFFFFFFFFFFFFFFFFFFFFFFFFFFFFFFFFF AND PUSH20 0xFFFFFFFFFFFFFFFFFFFFFFFFFFFFFFFFFFFFFFFF AND PUSH4 0x75894E8C CALLER PUSH1 0x40 MLOAD DUP3 PUSH4 0xFFFFFFFF AND PUSH1 0xE0 SHL DUP2 MSTORE PUSH1 0x4 ADD PUSH2 0x1B18 SWAP2 SWAP1 PUSH2 0x39AD JUMP JUMPDEST PUSH1 0x40 DUP1 MLOAD DUP1 DUP4 SUB DUP2 PUSH0 DUP8 GAS CALL ISZERO DUP1 ISZERO PUSH2 0x1B33 JUMPI RETURNDATASIZE PUSH0 DUP1 RETURNDATACOPY RETURNDATASIZE PUSH0 REVERT JUMPDEST POP POP POP POP PUSH1 0x40 MLOAD RETURNDATASIZE PUSH1 0x1F NOT PUSH1 0x1F DUP3 ADD AND DUP3 ADD DUP1 PUSH1 0x40 MSTORE POP DUP2 ADD SWAP1 PUSH2 0x1B57 SWAP2 SWAP1 PUSH2 0x39FD JUMP JUMPDEST SWAP2 POP SWAP2 POP PUSH1 0x1 PUSH1 0x5 DUP2 GT ISZERO PUSH2 0x1B6F JUMPI PUSH2 0x1B6E PUSH2 0x312A JUMP JUMPDEST JUMPDEST DUP3 PUSH1 0x5 DUP2 GT ISZERO PUSH2 0x1B82 JUMPI PUSH2 0x1B81 PUSH2 0x312A JUMP JUMPDEST JUMPDEST EQ DUP1 ISZERO PUSH2 0x1B8C JUMPI POP DUP1 JUMPDEST PUSH2 0x1BCB JUMPI PUSH1 0x40 MLOAD PUSH32 0x8C379A000000000000000000000000000000000000000000000000000000000 DUP2 MSTORE PUSH1 0x4 ADD PUSH2 0x1BC2 SWAP1 PUSH2 0x4372 JUMP JUMPDEST PUSH1 0x40 MLOAD DUP1 SWAP2 SUB SWAP1 REVERT JUMPDEST PUSH1 0x2 PUSH0 DUP2 SLOAD DUP1 SWAP3 SWAP2 SWAP1 PUSH2 0x1BDD SWAP1 PUSH2 0x40F3 JUMP JUMPDEST SWAP2 SWAP1 POP SSTORE POP PUSH1 0x40 MLOAD DUP1 PUSH1 0xC0 ADD PUSH1 0x40 MSTORE DUP1 CALLER PUSH20 0xFFFFFFFFFFFFFFFFFFFFFFFFFFFFFFFFFFFFFFFF AND DUP2 MSTORE PUSH1 0x20 ADD TIMESTAMP DUP2 MSTORE PUSH1 0x20 ADD DUP5 DUP2 MSTORE PUSH1 0x20 ADD DUP6 PUSH2 0x1C1F SWAP1 PUSH2 0x43C9 JUMP JUMPDEST DUP2 MSTORE PUSH1 0x20 ADD PUSH0 ISZERO ISZERO DUP2 MSTORE PUSH1 0x20 ADD PUSH0 ISZERO ISZERO DUP2 MSTORE POP PUSH1 0x4 PUSH0 PUSH1 0x2 SLOAD DUP2 MSTORE PUSH1 0x20 ADD SWAP1 DUP2 MSTORE PUSH1 0x20 ADD PUSH0 KECCAK256 PUSH0 DUP3 ADD MLOAD DUP2 PUSH0 ADD PUSH0 PUSH2 0x100 EXP DUP2 SLOAD DUP2 PUSH20 0xFFFFFFFFFFFFFFFFFFFFFFFFFFFFFFFFFFFFFFFF MUL NOT AND SWAP1 DUP4 PUSH20 0xFFFFFFFFFFFFFFFFFFFFFFFFFFFFFFFFFFFFFFFF AND MUL OR SWAP1 SSTORE POP PUSH1 0x20 DUP3 ADD MLOAD DUP2 PUSH1 0x1 ADD SSTORE PUSH1 0x40 DUP3 ADD MLOAD DUP2 PUSH1 0x2 ADD SSTORE PUSH1 0x60 DUP3 ADD MLOAD DUP2 PUSH1 0x3 ADD SSTORE PUSH1 0x80 DUP3 ADD MLOAD DUP2 PUSH1 0x4 ADD PUSH0 PUSH2 0x100 EXP DUP2 SLOAD DUP2 PUSH1 0xFF MUL NOT AND SWAP1 DUP4 ISZERO ISZERO MUL OR SWAP1 SSTORE POP PUSH1 0xA0 DUP3 ADD MLOAD DUP2 PUSH1 0x4 ADD PUSH1 0x1 PUSH2 0x100 EXP DUP2 SLOAD DUP2 PUSH1 0xFF MUL NOT AND SWAP1 DUP4 ISZERO ISZERO MUL OR SWAP1 SSTORE POP SWAP1 POP POP DUP3 PUSH1 0x3 PUSH0 DUP3 DUP3 SLOAD PUSH2 0x1CFA SWAP2 SWAP1 PUSH2 0x442F JUMP JUMPDEST SWAP3 POP POP DUP2 SWAP1 SSTORE POP PUSH1 0x2 SLOAD PUSH32 0x681F3195132986285E497B66D82A1D87DEE04FE482A1E74020677B543E3F7C40 CALLER TIMESTAMP DUP8 PUSH2 0x1D31 SWAP1 PUSH2 0x43C9 JUMP JUMPDEST PUSH1 0x40 MLOAD PUSH2 0x1D40 SWAP4 SWAP3 SWAP2 SWAP1 PUSH2 0x3411 JUMP JUMPDEST PUSH1 0x40 MLOAD DUP1 SWAP2 SUB SWAP1 LOG2 POP POP POP POP JUMP JUMPDEST PUSH0 DUP1 PUSH0 DUP1 SLOAD SWAP1 PUSH2 0x100 EXP SWAP1 DIV PUSH20 0xFFFFFFFFFFFFFFFFFFFFFFFFFFFFFFFFFFFFFFFF AND PUSH20 0xFFFFFFFFFFFFFFFFFFFFFFFFFFFFFFFFFFFFFFFF AND PUSH4 0x75894E8C CALLER PUSH1 0x40 MLOAD DUP3 PUSH4 0xFFFFFFFF AND PUSH1 0xE0 SHL DUP2 MSTORE PUSH1 0x4 ADD PUSH2 0x1DA8 SWAP2 SWAP1 PUSH2 0x39AD JUMP JUMPDEST PUSH1 0x40 DUP1 MLOAD DUP1 DUP4 SUB DUP2 PUSH0 DUP8 GAS CALL ISZERO DUP1 ISZERO PUSH2 0x1DC3 JUMPI RETURNDATASIZE PUSH0 DUP1 RETURNDATACOPY RETURNDATASIZE PUSH0 REVERT JUMPDEST POP POP POP POP PUSH1 0x40 MLOAD RETURNDATASIZE PUSH1 0x1F NOT PUSH1 0x1F DUP3 ADD AND DUP3 ADD DUP1 PUSH1 0x40 MSTORE POP DUP2 ADD SWAP1 PUSH2 0x1DE7 SWAP2 SWAP1 PUSH2 0x39FD JUMP JUMPDEST SWAP2 POP SWAP2 POP PUSH0 PUSH1 0x5 DUP2 GT ISZERO PUSH2 0x1DFE JUMPI PUSH2 0x1DFD PUSH2 0x312A JUMP JUMPDEST JUMPDEST DUP3 PUSH1 0x5 DUP2 GT ISZERO PUSH2 0x1E11 JUMPI PUSH2 0x1E10 PUSH2 0x312A JUMP JUMPDEST JUMPDEST EQ DUP1 ISZERO PUSH2 0x1E1B JUMPI POP DUP1 JUMPDEST PUSH2 0x1E5A JUMPI PUSH1 0x40 MLOAD PUSH32 0x8C379A000000000000000000000000000000000000000000000000000000000 DUP2 MSTORE PUSH1 0x4 ADD PUSH2 0x1E51 SWAP1 PUSH2 0x42AF JUMP JUMPDEST PUSH1 0x40 MLOAD DUP1 SWAP2 SUB SWAP1 REVERT JUMPDEST DUP3 PUSH1 0x1 PUSH0 PUSH2 0x100 EXP DUP2 SLOAD DUP2 PUSH20 0xFFFFFFFFFFFFFFFFFFFFFFFFFFFFFFFFFFFFFFFF MUL NOT AND SWAP1 DUP4 PUSH20 0xFFFFFFFFFFFFFFFFFFFFFFFFFFFFFFFFFFFFFFFF AND MUL OR SWAP1 SSTORE POP PUSH32 0xD64AE07F3DDEA489022B7C3651C0B93CC96296695FEAC84461061DFA1F34C0CB CALLER DUP5 TIMESTAMP PUSH1 0x40 MLOAD PUSH2 0x1ECD SWAP4 SWAP3 SWAP2 SWAP1 PUSH2 0x42CD JUMP JUMPDEST PUSH1 0x40 MLOAD DUP1 SWAP2 SUB SWAP1 LOG1 POP POP POP JUMP JUMPDEST DUP2 PUSH0 DUP1 PUSH0 DUP1 SLOAD SWAP1 PUSH2 0x100 EXP SWAP1 DIV PUSH20 0xFFFFFFFFFFFFFFFFFFFFFFFFFFFFFFFFFFFFFFFF AND PUSH20 0xFFFFFFFFFFFFFFFFFFFFFFFFFFFFFFFFFFFFFFFF AND PUSH4 0x75894E8C CALLER PUSH1 0x40 MLOAD DUP3 PUSH4 0xFFFFFFFF AND PUSH1 0xE0 SHL DUP2 MSTORE PUSH1 0x4 ADD PUSH2 0x1F35 SWAP2 SWAP1 PUSH2 0x39AD JUMP JUMPDEST PUSH1 0x40 DUP1 MLOAD DUP1 DUP4 SUB DUP2 PUSH0 DUP8 GAS CALL ISZERO DUP1 ISZERO PUSH2 0x1F50 JUMPI RETURNDATASIZE PUSH0 DUP1 RETURNDATACOPY RETURNDATASIZE PUSH0 REVERT JUMPDEST POP POP POP POP PUSH1 0x40 MLOAD RETURNDATASIZE PUSH1 0x1F NOT PUSH1 0x1F DUP3 ADD AND DUP3 ADD DUP1 PUSH1 0x40 MSTORE POP DUP2 ADD SWAP1 PUSH2 0x1F74 SWAP2 SWAP1 PUSH2 0x39FD JUMP JUMPDEST SWAP2 POP SWAP2 POP PUSH1 0x4 PUSH1 0x5 DUP2 GT ISZERO PUSH2 0x1F8C JUMPI PUSH2 0x1F8B PUSH2 0x312A JUMP JUMPDEST JUMPDEST DUP3 PUSH1 0x5 DUP2 GT ISZERO PUSH2 0x1F9F JUMPI PUSH2 0x1F9E PUSH2 0x312A JUMP JUMPDEST JUMPDEST EQ DUP1 ISZERO PUSH2 0x1FA9 JUMPI POP DUP1 JUMPDEST PUSH2 0x1FE8 JUMPI PUSH1 0x40 MLOAD PUSH32 0x8C379A000000000000000000000000000000000000000000000000000000000 DUP2 MSTORE PUSH1 0x4 ADD PUSH2 0x1FDF SWAP1 PUSH2 0x3D29 JUMP JUMPDEST PUSH1 0x40 MLOAD DUP1 SWAP2 SUB SWAP1 REVERT JUMPDEST CALLER PUSH20 0xFFFFFFFFFFFFFFFFFFFFFFFFFFFFFFFFFFFFFFFF AND PUSH1 0x8 PUSH0 DUP6 DUP2 MSTORE PUSH1 0x20 ADD SWAP1 DUP2 MSTORE PUSH1 0x20 ADD PUSH0 KECCAK256 PUSH0 ADD PUSH0 SWAP1 SLOAD SWAP1 PUSH2 0x100 EXP SWAP1 DIV PUSH20 0xFFFFFFFFFFFFFFFFFFFFFFFFFFFFFFFFFFFFFFFF AND PUSH20 0xFFFFFFFFFFFFFFFFFFFFFFFFFFFFFFFFFFFFFFFF AND EQ PUSH2 0x2088 JUMPI PUSH1 0x40 MLOAD PUSH32 0x8C379A000000000000000000000000000000000000000000000000000000000 DUP2 MSTORE PUSH1 0x4 ADD PUSH2 0x207F SWAP1 PUSH2 0x3DB7 JUMP JUMPDEST PUSH1 0x40 MLOAD DUP1 SWAP2 SUB SWAP1 REVERT JUMPDEST PUSH0 PUSH1 0x8 PUSH0 DUP8 DUP2 MSTORE PUSH1 0x20 ADD SWAP1 DUP2 MSTORE PUSH1 0x20 ADD PUSH0 KECCAK256 PUSH1 0x40 MLOAD DUP1 PUSH1 0xE0 ADD PUSH1 0x40 MSTORE SWAP1 DUP2 PUSH0 DUP3 ADD PUSH0 SWAP1 SLOAD SWAP1 PUSH2 0x100 EXP SWAP1 DIV PUSH20 0xFFFFFFFFFFFFFFFFFFFFFFFFFFFFFFFFFFFFFFFF AND PUSH20 0xFFFFFFFFFFFFFFFFFFFFFFFFFFFFFFFFFFFFFFFF AND PUSH20 0xFFFFFFFFFFFFFFFFFFFFFFFFFFFFFFFFFFFFFFFF AND DUP2 MSTORE PUSH1 0x20 ADD PUSH1 0x1 DUP3 ADD SLOAD DUP2 MSTORE PUSH1 0x20 ADD PUSH1 0x2 DUP3 ADD SLOAD DUP2 MSTORE PUSH1 0x20 ADD PUSH1 0x3 DUP3 ADD SLOAD DUP2 MSTORE PUSH1 0x20 ADD PUSH1 0x4 DUP3 ADD SLOAD DUP2 MSTORE PUSH1 0x20 ADD PUSH1 0x5 DUP3 ADD SLOAD DUP2 MSTORE PUSH1 0x20 ADD PUSH1 0x6 DUP3 ADD PUSH0 SWAP1 SLOAD SWAP1 PUSH2 0x100 EXP SWAP1 DIV PUSH1 0xFF AND PUSH1 0x3 DUP2 GT ISZERO PUSH2 0x214F JUMPI PUSH2 0x214E PUSH2 0x312A JUMP JUMPDEST JUMPDEST PUSH1 0x3 DUP2 GT ISZERO PUSH2 0x2161 JUMPI PUSH2 0x2160 PUSH2 0x312A JUMP JUMPDEST JUMPDEST DUP2 MSTORE POP POP SWAP1 POP PUSH1 0x1 DUP8 LT ISZERO DUP1 ISZERO PUSH2 0x217A JUMPI POP PUSH1 0x2 SLOAD DUP8 GT ISZERO JUMPDEST PUSH2 0x21B9 JUMPI PUSH1 0x40 MLOAD PUSH32 0x8C379A000000000000000000000000000000000000000000000000000000000 DUP2 MSTORE PUSH1 0x4 ADD PUSH2 0x21B0 SWAP1 PUSH2 0x3BD8 JUMP JUMPDEST PUSH1 0x40 MLOAD DUP1 SWAP2 SUB SWAP1 REVERT JUMPDEST PUSH1 0x1 DUP7 LT ISZERO DUP1 ISZERO PUSH2 0x21DB JUMPI POP PUSH1 0x7 PUSH0 DUP9 DUP2 MSTORE PUSH1 0x20 ADD SWAP1 DUP2 MSTORE PUSH1 0x20 ADD PUSH0 KECCAK256 SLOAD DUP7 GT ISZERO JUMPDEST PUSH2 0x221A JUMPI PUSH1 0x40 MLOAD PUSH32 0x8C379A000000000000000000000000000000000000000000000000000000000 DUP2 MSTORE PUSH1 0x4 ADD PUSH2 0x2211 SWAP1 PUSH2 0x3E1F JUMP JUMPDEST PUSH1 0x40 MLOAD DUP1 SWAP2 SUB SWAP1 REVERT JUMPDEST PUSH1 0x1 PUSH1 0x3 DUP2 GT ISZERO PUSH2 0x222E JUMPI PUSH2 0x222D PUSH2 0x312A JUMP JUMPDEST JUMPDEST DUP2 PUSH1 0xC0 ADD MLOAD PUSH1 0x3 DUP2 GT ISZERO PUSH2 0x2245 JUMPI PUSH2 0x2244 PUSH2 0x312A JUMP JUMPDEST JUMPDEST EQ PUSH2 0x2285 JUMPI PUSH1 0x40 MLOAD PUSH32 0x8C379A000000000000000000000000000000000000000000000000000000000 DUP2 MSTORE PUSH1 0x4 ADD PUSH2 0x227C SWAP1 PUSH2 0x44D2 JUMP JUMPDEST PUSH1 0x40 MLOAD DUP1 SWAP2 SUB SWAP1 REVERT JUMPDEST PUSH1 0x2 PUSH1 0x8 PUSH0 DUP9 DUP2 MSTORE PUSH1 0x20 ADD SWAP1 DUP2 MSTORE PUSH1 0x20 ADD PUSH0 KECCAK256 PUSH1 0x6 ADD PUSH0 PUSH2 0x100 EXP DUP2 SLOAD DUP2 PUSH1 0xFF MUL NOT AND SWAP1 DUP4 PUSH1 0x3 DUP2 GT ISZERO PUSH2 0x22BC JUMPI PUSH2 0x22BB PUSH2 0x312A JUMP JUMPDEST JUMPDEST MUL OR SWAP1 SSTORE POP TIMESTAMP PUSH1 0x8 PUSH0 DUP9 DUP2 MSTORE PUSH1 0x20 ADD SWAP1 DUP2 MSTORE PUSH1 0x20 ADD PUSH0 KECCAK256 PUSH1 0x2 ADD DUP2 SWAP1 SSTORE POP PUSH1 0x1 DUP6 PUSH2 0x22E7 SWAP2 SWAP1 PUSH2 0x44F0 JUMP JUMPDEST TIMESTAMP PUSH2 0x22F2 SWAP2 SWAP1 PUSH2 0x442F JUMP JUMPDEST PUSH1 0x8 PUSH0 DUP9 DUP2 MSTORE PUSH1 0x20 ADD SWAP1 DUP2 MSTORE PUSH1 0x20 ADD PUSH0 KECCAK256 PUSH1 0x3 ADD DUP2 SWAP1 SSTORE POP TIMESTAMP PUSH1 0x8 PUSH0 DUP9 DUP2 MSTORE PUSH1 0x20 ADD SWAP1 DUP2 MSTORE PUSH1 0x20 ADD PUSH0 KECCAK256 PUSH1 0x4 ADD DUP2 SWAP1 SSTORE POP PUSH32 0x29DC036766D8E77F495B0B42F18A239419AF9F8DD528D84E1251663AA6DA16C9 DUP8 DUP8 TIMESTAMP PUSH1 0x1 DUP10 PUSH2 0x2354 SWAP2 SWAP1 PUSH2 0x44F0 JUMP JUMPDEST TIMESTAMP PUSH2 0x235F SWAP2 SWAP1 PUSH2 0x442F JUMP JUMPDEST PUSH1 0x40 MLOAD PUSH2 0x236F SWAP5 SWAP4 SWAP3 SWAP2 SWAP1 PUSH2 0x4531 JUMP JUMPDEST PUSH1 0x40 MLOAD DUP1 SWAP2 SUB SWAP1 LOG1 POP POP POP POP POP POP POP JUMP JUMPDEST PUSH1 0x9 PUSH1 0x20 MSTORE DUP1 PUSH0 MSTORE PUSH1 0x40 PUSH0 KECCAK256 PUSH0 SWAP2 POP SLOAD SWAP1 PUSH2 0x100 EXP SWAP1 DIV PUSH1 0xFF AND DUP2 JUMP JUMPDEST PUSH0 DUP1 PUSH0 DUP1 PUSH0 DUP1 PUSH0 DUP1 SLOAD SWAP1 PUSH2 0x100 EXP SWAP1 DIV PUSH20 0xFFFFFFFFFFFFFFFFFFFFFFFFFFFFFFFFFFFFFFFF AND PUSH20 0xFFFFFFFFFFFFFFFFFFFFFFFFFFFFFFFFFFFFFFFF AND PUSH4 0x75894E8C CALLER PUSH1 0x40 MLOAD DUP3 PUSH4 0xFFFFFFFF AND PUSH1 0xE0 SHL DUP2 MSTORE PUSH1 0x4 ADD PUSH2 0x23FB SWAP2 SWAP1 PUSH2 0x39AD JUMP JUMPDEST PUSH1 0x40 DUP1 MLOAD DUP1 DUP4 SUB DUP2 PUSH0 DUP8 GAS CALL ISZERO DUP1 ISZERO PUSH2 0x2416 JUMPI RETURNDATASIZE PUSH0 DUP1 RETURNDATACOPY RETURNDATASIZE PUSH0 REVERT JUMPDEST POP POP POP POP PUSH1 0x40 MLOAD RETURNDATASIZE PUSH1 0x1F NOT PUSH1 0x1F DUP3 ADD AND DUP3 ADD DUP1 PUSH1 0x40 MSTORE POP DUP2 ADD SWAP1 PUSH2 0x243A SWAP2 SWAP1 PUSH2 0x39FD JUMP JUMPDEST SWAP2 POP SWAP2 POP PUSH0 PUSH1 0x5 DUP2 GT ISZERO PUSH2 0x2451 JUMPI PUSH2 0x2450 PUSH2 0x312A JUMP JUMPDEST JUMPDEST DUP3 PUSH1 0x5 DUP2 GT ISZERO PUSH2 0x2464 JUMPI PUSH2 0x2463 PUSH2 0x312A JUMP JUMPDEST JUMPDEST EQ DUP1 ISZERO PUSH2 0x246E JUMPI POP DUP1 JUMPDEST PUSH2 0x24AD JUMPI PUSH1 0x40 MLOAD PUSH32 0x8C379A000000000000000000000000000000000000000000000000000000000 DUP2 MSTORE PUSH1 0x4 ADD PUSH2 0x24A4 SWAP1 PUSH2 0x42AF JUMP JUMPDEST PUSH1 0x40 MLOAD DUP1 SWAP2 SUB SWAP1 REVERT JUMPDEST PUSH0 PUSH1 0x8 PUSH0 DUP10 DUP2 MSTORE PUSH1 0x20 ADD SWAP1 DUP2 MSTORE PUSH1 0x20 ADD PUSH0 KECCAK256 PUSH1 0x40 MLOAD DUP1 PUSH1 0xE0 ADD PUSH1 0x40 MSTORE SWAP1 DUP2 PUSH0 DUP3 ADD PUSH0 SWAP1 SLOAD SWAP1 PUSH2 0x100 EXP SWAP1 DIV PUSH20 0xFFFFFFFFFFFFFFFFFFFFFFFFFFFFFFFFFFFFFFFF AND PUSH20 0xFFFFFFFFFFFFFFFFFFFFFFFFFFFFFFFFFFFFFFFF AND PUSH20 0xFFFFFFFFFFFFFFFFFFFFFFFFFFFFFFFFFFFFFFFF AND DUP2 MSTORE PUSH1 0x20 ADD PUSH1 0x1 DUP3 ADD SLOAD DUP2 MSTORE PUSH1 0x20 ADD PUSH1 0x2 DUP3 ADD SLOAD DUP2 MSTORE PUSH1 0x20 ADD PUSH1 0x3 DUP3 ADD SLOAD DUP2 MSTORE PUSH1 0x20 ADD PUSH1 0x4 DUP3 ADD SLOAD DUP2 MSTORE PUSH1 0x20 ADD PUSH1 0x5 DUP3 ADD SLOAD DUP2 MSTORE PUSH1 0x20 ADD PUSH1 0x6 DUP3 ADD PUSH0 SWAP1 SLOAD SWAP1 PUSH2 0x100 EXP SWAP1 DIV PUSH1 0xFF AND PUSH1 0x3 DUP2 GT ISZERO PUSH2 0x2574 JUMPI PUSH2 0x2573 PUSH2 0x312A JUMP JUMPDEST JUMPDEST PUSH1 0x3 DUP2 GT ISZERO PUSH2 0x2586 JUMPI PUSH2 0x2585 PUSH2 0x312A JUMP JUMPDEST JUMPDEST DUP2 MSTORE POP POP SWAP1 POP PUSH1 0x1 DUP10 LT ISZERO DUP1 ISZERO PUSH2 0x259F JUMPI POP PUSH1 0x2 SLOAD DUP10 GT ISZERO JUMPDEST PUSH2 0x25DE JUMPI PUSH1 0x40 MLOAD PUSH32 0x8C379A000000000000000000000000000000000000000000000000000000000 DUP2 MSTORE PUSH1 0x4 ADD PUSH2 0x25D5 SWAP1 PUSH2 0x3BD8 JUMP JUMPDEST PUSH1 0x40 MLOAD DUP1 SWAP2 SUB SWAP1 REVERT JUMPDEST PUSH1 0x1 DUP9 LT ISZERO DUP1 ISZERO PUSH2 0x2600 JUMPI POP PUSH1 0x7 PUSH0 DUP11 DUP2 MSTORE PUSH1 0x20 ADD SWAP1 DUP2 MSTORE PUSH1 0x20 ADD PUSH0 KECCAK256 SLOAD DUP9 GT ISZERO JUMPDEST PUSH2 0x263F JUMPI PUSH1 0x40 MLOAD PUSH32 0x8C379A000000000000000000000000000000000000000000000000000000000 DUP2 MSTORE PUSH1 0x4 ADD PUSH2 0x2636 SWAP1 PUSH2 0x3E1F JUMP JUMPDEST PUSH1 0x40 MLOAD DUP1 SWAP2 SUB SWAP1 REVERT JUMPDEST DUP1 PUSH1 0xC0 ADD MLOAD DUP2 PUSH1 0x80 ADD MLOAD DUP3 PUSH1 0x40 ADD MLOAD DUP4 PUSH1 0x60 ADD MLOAD SWAP7 POP SWAP7 POP SWAP7 POP SWAP7 POP POP POP POP SWAP3 SWAP6 SWAP2 SWAP5 POP SWAP3 POP JUMP JUMPDEST PUSH1 0x5 PUSH1 0x20 MSTORE DUP1 PUSH0 MSTORE PUSH1 0x40 PUSH0 KECCAK256 PUSH0 SWAP2 POP SWAP1 POP SLOAD DUP2 JUMP JUMPDEST DUP2 PUSH0 DUP1 PUSH0 DUP1 SLOAD SWAP1 PUSH2 0x100 EXP SWAP1 DIV PUSH20 0xFFFFFFFFFFFFFFFFFFFFFFFFFFFFFFFFFFFFFFFF AND PUSH20 0xFFFFFFFFFFFFFFFFFFFFFFFFFFFFFFFFFFFFFFFF AND PUSH4 0x75894E8C CALLER PUSH1 0x40 MLOAD DUP3 PUSH4 0xFFFFFFFF AND PUSH1 0xE0 SHL DUP2 MSTORE PUSH1 0x4 ADD PUSH2 0x26D7 SWAP2 SWAP1 PUSH2 0x39AD JUMP JUMPDEST PUSH1 0x40 DUP1 MLOAD DUP1 DUP4 SUB DUP2 PUSH0 DUP8 GAS CALL ISZERO DUP1 ISZERO PUSH2 0x26F2 JUMPI RETURNDATASIZE PUSH0 DUP1 RETURNDATACOPY RETURNDATASIZE PUSH0 REVERT JUMPDEST POP POP POP POP PUSH1 0x40 MLOAD RETURNDATASIZE PUSH1 0x1F NOT PUSH1 0x1F DUP3 ADD AND DUP3 ADD DUP1 PUSH1 0x40 MSTORE POP DUP2 ADD SWAP1 PUSH2 0x2716 SWAP2 SWAP1 PUSH2 0x39FD JUMP JUMPDEST SWAP2 POP SWAP2 POP PUSH1 0x4 PUSH1 0x5 DUP2 GT ISZERO PUSH2 0x272E JUMPI PUSH2 0x272D PUSH2 0x312A JUMP JUMPDEST JUMPDEST DUP3 PUSH1 0x5 DUP2 GT ISZERO PUSH2 0x2741 JUMPI PUSH2 0x2740 PUSH2 0x312A JUMP JUMPDEST JUMPDEST EQ DUP1 ISZERO PUSH2 0x274B JUMPI POP DUP1 JUMPDEST PUSH2 0x278A JUMPI PUSH1 0x40 MLOAD PUSH32 0x8C379A000000000000000000000000000000000000000000000000000000000 DUP2 MSTORE PUSH1 0x4 ADD PUSH2 0x2781 SWAP1 PUSH2 0x3D29 JUMP JUMPDEST PUSH1 0x40 MLOAD DUP1 SWAP2 SUB SWAP1 REVERT JUMPDEST CALLER PUSH20 0xFFFFFFFFFFFFFFFFFFFFFFFFFFFFFFFFFFFFFFFF AND PUSH1 0x8 PUSH0 DUP6 DUP2 MSTORE PUSH1 0x20 ADD SWAP1 DUP2 MSTORE PUSH1 0x20 ADD PUSH0 KECCAK256 PUSH0 ADD PUSH0 SWAP1 SLOAD SWAP1 PUSH2 0x100 EXP SWAP1 DIV PUSH20 0xFFFFFFFFFFFFFFFFFFFFFFFFFFFFFFFFFFFFFFFF AND PUSH20 0xFFFFFFFFFFFFFFFFFFFFFFFFFFFFFFFFFFFFFFFF AND EQ PUSH2 0x282A JUMPI PUSH1 0x40 MLOAD PUSH32 0x8C379A000000000000000000000000000000000000000000000000000000000 DUP2 MSTORE PUSH1 0x4 ADD PUSH2 0x2821 SWAP1 PUSH2 0x3DB7 JUMP JUMPDEST PUSH1 0x40 MLOAD DUP1 SWAP2 SUB SWAP1 REVERT JUMPDEST PUSH0 PUSH1 0x8 PUSH0 DUP8 DUP2 MSTORE PUSH1 0x20 ADD SWAP1 DUP2 MSTORE PUSH1 0x20 ADD PUSH0 KECCAK256 PUSH1 0x40 MLOAD DUP1 PUSH1 0xE0 ADD PUSH1 0x40 MSTORE SWAP1 DUP2 PUSH0 DUP3 ADD PUSH0 SWAP1 SLOAD SWAP1 PUSH2 0x100 EXP SWAP1 DIV PUSH20 0xFFFFFFFFFFFFFFFFFFFFFFFFFFFFFFFFFFFFFFFF AND PUSH20 0xFFFFFFFFFFFFFFFFFFFFFFFFFFFFFFFFFFFFFFFF AND PUSH20 0xFFFFFFFFFFFFFFFFFFFFFFFFFFFFFFFFFFFFFFFF AND DUP2 MSTORE PUSH1 0x20 ADD PUSH1 0x1 DUP3 ADD SLOAD DUP2 MSTORE PUSH1 0x20 ADD PUSH1 0x2 DUP3 ADD SLOAD DUP2 MSTORE PUSH1 0x20 ADD PUSH1 0x3 DUP3 ADD SLOAD DUP2 MSTORE PUSH1 0x20 ADD PUSH1 0x4 DUP3 ADD SLOAD DUP2 MSTORE PUSH1 0x20 ADD PUSH1 0x5 DUP3 ADD SLOAD DUP2 MSTORE PUSH1 0x20 ADD PUSH1 0x6 DUP3 ADD PUSH0 SWAP1 SLOAD SWAP1 PUSH2 0x100 EXP SWAP1 DIV PUSH1 0xFF AND PUSH1 0x3 DUP2 GT ISZERO PUSH2 0x28F1 JUMPI PUSH2 0x28F0 PUSH2 0x312A JUMP JUMPDEST JUMPDEST PUSH1 0x3 DUP2 GT ISZERO PUSH2 0x2903 JUMPI PUSH2 0x2902 PUSH2 0x312A JUMP JUMPDEST JUMPDEST DUP2 MSTORE POP POP SWAP1 POP PUSH1 0x1 DUP8 LT ISZERO DUP1 ISZERO PUSH2 0x291C JUMPI POP PUSH1 0x2 SLOAD DUP8 GT ISZERO JUMPDEST PUSH2 0x295B JUMPI PUSH1 0x40 MLOAD PUSH32 0x8C379A000000000000000000000000000000000000000000000000000000000 DUP2 MSTORE PUSH1 0x4 ADD PUSH2 0x2952 SWAP1 PUSH2 0x3BD8 JUMP JUMPDEST PUSH1 0x40 MLOAD DUP1 SWAP2 SUB SWAP1 REVERT JUMPDEST PUSH1 0x1 DUP7 LT ISZERO DUP1 ISZERO PUSH2 0x297D JUMPI POP PUSH1 0x7 PUSH0 DUP9 DUP2 MSTORE PUSH1 0x20 ADD SWAP1 DUP2 MSTORE PUSH1 0x20 ADD PUSH0 KECCAK256 SLOAD DUP7 GT ISZERO JUMPDEST PUSH2 0x29BC JUMPI PUSH1 0x40 MLOAD PUSH32 0x8C379A000000000000000000000000000000000000000000000000000000000 DUP2 MSTORE PUSH1 0x4 ADD PUSH2 0x29B3 SWAP1 PUSH2 0x3E1F JUMP JUMPDEST PUSH1 0x40 MLOAD DUP1 SWAP2 SUB SWAP1 REVERT JUMPDEST PUSH1 0x2 PUSH1 0x3 DUP2 GT ISZERO PUSH2 0x29D0 JUMPI PUSH2 0x29CF PUSH2 0x312A JUMP JUMPDEST JUMPDEST DUP2 PUSH1 0xC0 ADD MLOAD PUSH1 0x3 DUP2 GT ISZERO PUSH2 0x29E7 JUMPI PUSH2 0x29E6 PUSH2 0x312A JUMP JUMPDEST JUMPDEST EQ PUSH2 0x2A27 JUMPI PUSH1 0x40 MLOAD PUSH32 0x8C379A000000000000000000000000000000000000000000000000000000000 DUP2 MSTORE PUSH1 0x4 ADD PUSH2 0x2A1E SWAP1 PUSH2 0x3EAD JUMP JUMPDEST PUSH1 0x40 MLOAD DUP1 SWAP2 SUB SWAP1 REVERT JUMPDEST DUP5 PUSH2 0x2A31 SWAP1 PUSH2 0x43C9 JUMP JUMPDEST PUSH1 0x8 PUSH0 DUP9 DUP2 MSTORE PUSH1 0x20 ADD SWAP1 DUP2 MSTORE PUSH1 0x20 ADD PUSH0 KECCAK256 PUSH1 0x5 ADD DUP2 SWAP1 SSTORE POP TIMESTAMP PUSH1 0x8 PUSH0 DUP9 DUP2 MSTORE PUSH1 0x20 ADD SWAP1 DUP2 MSTORE PUSH1 0x20 ADD PUSH0 KECCAK256 PUSH1 0x4 ADD DUP2 SWAP1 SSTORE POP PUSH32 0xDE2669F070BFB51D280EF42C92C59E3F20BBEEF765E99CAB94CD673CC2BF0F2F DUP8 DUP8 TIMESTAMP DUP9 PUSH2 0x2A90 SWAP1 PUSH2 0x43C9 JUMP JUMPDEST PUSH1 0x40 MLOAD PUSH2 0x2AA0 SWAP5 SWAP4 SWAP3 SWAP2 SWAP1 PUSH2 0x4574 JUMP JUMPDEST PUSH1 0x40 MLOAD DUP1 SWAP2 SUB SWAP1 LOG1 POP POP POP POP POP POP POP JUMP JUMPDEST PUSH0 DUP1 SLOAD SWAP1 PUSH2 0x100 EXP SWAP1 DIV PUSH20 0xFFFFFFFFFFFFFFFFFFFFFFFFFFFFFFFFFFFFFFFF AND DUP2 JUMP JUMPDEST PUSH0 DUP1 PUSH0 DUP1 SLOAD SWAP1 PUSH2 0x100 EXP SWAP1 DIV PUSH20 0xFFFFFFFFFFFFFFFFFFFFFFFFFFFFFFFFFFFFFFFF AND PUSH20 0xFFFFFFFFFFFFFFFFFFFFFFFFFFFFFFFFFFFFFFFF AND PUSH4 0x75894E8C CALLER PUSH1 0x40 MLOAD DUP3 PUSH4 0xFFFFFFFF AND PUSH1 0xE0 SHL DUP2 MSTORE PUSH1 0x4 ADD PUSH2 0x2B2E SWAP2 SWAP1 PUSH2 0x39AD JUMP JUMPDEST PUSH1 0x40 DUP1 MLOAD DUP1 DUP4 SUB DUP2 PUSH0 DUP8 GAS CALL ISZERO DUP1 ISZERO PUSH2 0x2B49 JUMPI RETURNDATASIZE PUSH0 DUP1 RETURNDATACOPY RETURNDATASIZE PUSH0 REVERT JUMPDEST POP POP POP POP PUSH1 0x40 MLOAD RETURNDATASIZE PUSH1 0x1F NOT PUSH1 0x1F DUP3 ADD AND DUP3 ADD DUP1 PUSH1 0x40 MSTORE POP DUP2 ADD SWAP1 PUSH2 0x2B6D SWAP2 SWAP1 PUSH2 0x39FD JUMP JUMPDEST SWAP2 POP SWAP2 POP PUSH0 PUSH1 0x5 DUP2 GT ISZERO PUSH2 0x2B84 JUMPI PUSH2 0x2B83 PUSH2 0x312A JUMP JUMPDEST JUMPDEST DUP3 PUSH1 0x5 DUP2 GT ISZERO PUSH2 0x2B97 JUMPI PUSH2 0x2B96 PUSH2 0x312A JUMP JUMPDEST JUMPDEST EQ DUP1 ISZERO PUSH2 0x2BA1 JUMPI POP DUP1 JUMPDEST PUSH2 0x2BE0 JUMPI PUSH1 0x40 MLOAD PUSH32 0x8C379A000000000000000000000000000000000000000000000000000000000 DUP2 MSTORE PUSH1 0x4 ADD PUSH2 0x2BD7 SWAP1 PUSH2 0x42AF JUMP JUMPDEST PUSH1 0x40 MLOAD DUP1 SWAP2 SUB SWAP1 REVERT JUMPDEST PUSH0 PUSH1 0x6 PUSH0 DUP8 DUP2 MSTORE PUSH1 0x20 ADD SWAP1 DUP2 MSTORE PUSH1 0x20 ADD PUSH0 KECCAK256 PUSH0 DUP7 DUP2 MSTORE PUSH1 0x20 ADD SWAP1 DUP2 MSTORE PUSH1 0x20 ADD PUSH0 KECCAK256 PUSH1 0x40 MLOAD DUP1 PUSH1 0xC0 ADD PUSH1 0x40 MSTORE SWAP1 DUP2 PUSH0 DUP3 ADD SLOAD DUP2 MSTORE PUSH1 0x20 ADD PUSH1 0x1 DUP3 ADD SLOAD DUP2 MSTORE PUSH1 0x20 ADD PUSH1 0x2 DUP3 ADD SLOAD DUP2 MSTORE PUSH1 0x20 ADD PUSH1 0x3 DUP3 ADD PUSH0 SWAP1 SLOAD SWAP1 PUSH2 0x100 EXP SWAP1 DIV PUSH1 0xF8 SHL PUSH31 0xFFFFFFFFFFFFFFFFFFFFFFFFFFFFFFFFFFFFFFFFFFFFFFFFFFFFFFFFFFFFFF NOT AND PUSH31 0xFFFFFFFFFFFFFFFFFFFFFFFFFFFFFFFFFFFFFFFFFFFFFFFFFFFFFFFFFFFFFF NOT AND DUP2 MSTORE PUSH1 0x20 ADD PUSH1 0x4 DUP3 ADD SLOAD DUP2 MSTORE PUSH1 0x20 ADD PUSH1 0x5 DUP3 ADD PUSH0 SWAP1 SLOAD SWAP1 PUSH2 0x100 EXP SWAP1 DIV PUSH1 0xFF AND PUSH1 0x3 DUP2 GT ISZERO PUSH2 0x2CB1 JUMPI PUSH2 0x2CB0 PUSH2 0x312A JUMP JUMPDEST JUMPDEST PUSH1 0x3 DUP2 GT ISZERO PUSH2 0x2CC3 JUMPI PUSH2 0x2CC2 PUSH2 0x312A JUMP JUMPDEST JUMPDEST DUP2 MSTORE POP POP SWAP1 POP PUSH0 PUSH1 0x3 DUP2 GT ISZERO PUSH2 0x2CDC JUMPI PUSH2 0x2CDB PUSH2 0x312A JUMP JUMPDEST JUMPDEST DUP2 PUSH1 0xA0 ADD MLOAD PUSH1 0x3 DUP2 GT ISZERO PUSH2 0x2CF3 JUMPI PUSH2 0x2CF2 PUSH2 0x312A JUMP JUMPDEST JUMPDEST EQ PUSH2 0x2D33 JUMPI PUSH1 0x40 MLOAD PUSH32 0x8C379A000000000000000000000000000000000000000000000000000000000 DUP2 MSTORE PUSH1 0x4 ADD PUSH2 0x2D2A SWAP1 PUSH2 0x464D JUMP JUMPDEST PUSH1 0x40 MLOAD DUP1 SWAP2 SUB SWAP1 REVERT JUMPDEST PUSH1 0x1 DUP7 LT ISZERO DUP1 ISZERO PUSH2 0x2D46 JUMPI POP PUSH1 0x2 SLOAD DUP7 GT ISZERO JUMPDEST PUSH2 0x2D85 JUMPI PUSH1 0x40 MLOAD PUSH32 0x8C379A000000000000000000000000000000000000000000000000000000000 DUP2 MSTORE PUSH1 0x4 ADD PUSH2 0x2D7C SWAP1 PUSH2 0x3BD8 JUMP JUMPDEST PUSH1 0x40 MLOAD DUP1 SWAP2 SUB SWAP1 REVERT JUMPDEST PUSH1 0x1 DUP6 LT ISZERO DUP1 ISZERO PUSH2 0x2DA7 JUMPI POP PUSH1 0x7 PUSH0 DUP8 DUP2 MSTORE PUSH1 0x20 ADD SWAP1 DUP2 MSTORE PUSH1 0x20 ADD PUSH0 KECCAK256 SLOAD DUP6 GT ISZERO JUMPDEST PUSH2 0x2DE6 JUMPI PUSH1 0x40 MLOAD PUSH32 0x8C379A000000000000000000000000000000000000000000000000000000000 DUP2 MSTORE PUSH1 0x4 ADD PUSH2 0x2DDD SWAP1 PUSH2 0x3E1F JUMP JUMPDEST PUSH1 0x40 MLOAD DUP1 SWAP2 SUB SWAP1 REVERT JUMPDEST DUP4 PUSH1 0x8 PUSH0 DUP8 DUP2 MSTORE PUSH1 0x20 ADD SWAP1 DUP2 MSTORE PUSH1 0x20 ADD PUSH0 KECCAK256 PUSH0 ADD PUSH0 PUSH2 0x100 EXP DUP2 SLOAD DUP2 PUSH20 0xFFFFFFFFFFFFFFFFFFFFFFFFFFFFFFFFFFFFFFFF MUL NOT AND SWAP1 DUP4 PUSH20 0xFFFFFFFFFFFFFFFFFFFFFFFFFFFFFFFFFFFFFFFF AND MUL OR SWAP1 SSTORE POP DUP5 PUSH1 0x8 PUSH0 DUP8 DUP2 MSTORE PUSH1 0x20 ADD SWAP1 DUP2 MSTORE PUSH1 0x20 ADD PUSH0 KECCAK256 PUSH1 0x1 ADD DUP2 SWAP1 SSTORE POP PUSH1 0x1 PUSH1 0x8 PUSH0 DUP8 DUP2 MSTORE PUSH1 0x20 ADD SWAP1 DUP2 MSTORE PUSH1 0x20 ADD PUSH0 KECCAK256 PUSH1 0x6 ADD PUSH0 PUSH2 0x100 EXP DUP2 SLOAD DUP2 PUSH1 0xFF MUL NOT AND SWAP1 DUP4 PUSH1 0x3 DUP2 GT ISZERO PUSH2 0x2E87 JUMPI PUSH2 0x2E86 PUSH2 0x312A JUMP JUMPDEST JUMPDEST MUL OR SWAP1 SSTORE POP PUSH32 0xE1A03807FF7B7D8AC4C42CF3FE3905D10B2B30935D18974726482DB3BF232E36 DUP6 DUP8 DUP7 PUSH1 0x40 MLOAD PUSH2 0x2EBF SWAP4 SWAP3 SWAP2 SWAP1 PUSH2 0x466B JUMP JUMPDEST PUSH1 0x40 MLOAD DUP1 SWAP2 SUB SWAP1 LOG1 POP POP POP POP POP POP JUMP JUMPDEST PUSH1 0xA PUSH1 0x20 MSTORE DUP1 PUSH0 MSTORE PUSH1 0x40 PUSH0 KECCAK256 PUSH0 SWAP2 POP SWAP1 POP DUP1 PUSH0 ADD PUSH1 0x40 MLOAD DUP1 PUSH1 0x40 ADD PUSH1 0x40 MSTORE SWAP1 DUP2 PUSH0 DUP3 ADD SLOAD DUP2 MSTORE PUSH1 0x20 ADD PUSH1 0x1 DUP3 ADD SLOAD DUP2 MSTORE POP POP SWAP1 DUP1 PUSH1 0x2 ADD PUSH1 0x40 MLOAD DUP1 PUSH1 0x40 ADD PUSH1 0x40 MSTORE SWAP1 DUP2 PUSH0 DUP3 ADD PUSH1 0x2 DUP1 PUSH1 0x20 MUL PUSH1 0x40 MLOAD SWAP1 DUP2 ADD PUSH1 0x40 MSTORE DUP1 SWAP3 SWAP2 SWAP1 DUP3 PUSH1 0x2 DUP1 ISZERO PUSH2 0x2F4C JUMPI PUSH1 0x20 MUL DUP3 ADD SWAP2 JUMPDEST DUP2 SLOAD DUP2 MSTORE PUSH1 0x20 ADD SWAP1 PUSH1 0x1 ADD SWAP1 DUP1 DUP4 GT PUSH2 0x2F38 JUMPI JUMPDEST POP POP POP POP POP DUP2 MSTORE PUSH1 0x20 ADD PUSH1 0x2 DUP3 ADD PUSH1 0x2 DUP1 PUSH1 0x20 MUL PUSH1 0x40 MLOAD SWAP1 DUP2 ADD PUSH1 0x40 MSTORE DUP1 SWAP3 SWAP2 SWAP1 DUP3 PUSH1 0x2 DUP1 ISZERO PUSH2 0x2F91 JUMPI PUSH1 0x20 MUL DUP3 ADD SWAP2 JUMPDEST DUP2 SLOAD DUP2 MSTORE PUSH1 0x20 ADD SWAP1 PUSH1 0x1 ADD SWAP1 DUP1 DUP4 GT PUSH2 0x2F7D JUMPI JUMPDEST POP POP POP POP POP DUP2 MSTORE POP POP SWAP1 DUP1 PUSH1 0x6 ADD PUSH1 0x40 MLOAD DUP1 PUSH1 0x40 ADD PUSH1 0x40 MSTORE SWAP1 DUP2 PUSH0 DUP3 ADD SLOAD DUP2 MSTORE PUSH1 0x20 ADD PUSH1 0x1 DUP3 ADD SLOAD DUP2 MSTORE POP POP SWAP1 POP DUP4 JUMP JUMPDEST PUSH0 PUSH1 0x40 MLOAD SWAP1 POP SWAP1 JUMP JUMPDEST PUSH0 DUP1 REVERT JUMPDEST PUSH0 DUP1 REVERT JUMPDEST PUSH0 PUSH20 0xFFFFFFFFFFFFFFFFFFFFFFFFFFFFFFFFFFFFFFFF DUP3 AND SWAP1 POP SWAP2 SWAP1 POP JUMP JUMPDEST PUSH0 PUSH2 0x2FFC DUP3 PUSH2 0x2FD3 JUMP JUMPDEST SWAP1 POP SWAP2 SWAP1 POP JUMP JUMPDEST PUSH2 0x300C DUP2 PUSH2 0x2FF2 JUMP JUMPDEST DUP2 EQ PUSH2 0x3016 JUMPI PUSH0 DUP1 REVERT JUMPDEST POP JUMP JUMPDEST PUSH0 DUP2 CALLDATALOAD SWAP1 POP PUSH2 0x3027 DUP2 PUSH2 0x3003 JUMP JUMPDEST SWAP3 SWAP2 POP POP JUMP JUMPDEST PUSH0 PUSH1 0x20 DUP3 DUP5 SUB SLT ISZERO PUSH2 0x3042 JUMPI PUSH2 0x3041 PUSH2 0x2FCB JUMP JUMPDEST JUMPDEST PUSH0 PUSH2 0x304F DUP5 DUP3 DUP6 ADD PUSH2 0x3019 JUMP JUMPDEST SWAP2 POP POP SWAP3 SWAP2 POP POP JUMP JUMPDEST PUSH0 DUP2 SWAP1 POP SWAP2 SWAP1 POP JUMP JUMPDEST PUSH2 0x306A DUP2 PUSH2 0x3058 JUMP JUMPDEST DUP2 EQ PUSH2 0x3074 JUMPI PUSH0 DUP1 REVERT JUMPDEST POP JUMP JUMPDEST PUSH0 DUP2 CALLDATALOAD SWAP1 POP PUSH2 0x3085 DUP2 PUSH2 0x3061 JUMP JUMPDEST SWAP3 SWAP2 POP POP JUMP JUMPDEST PUSH0 DUP1 PUSH1 0x40 DUP4 DUP6 SUB SLT ISZERO PUSH2 0x30A1 JUMPI PUSH2 0x30A0 PUSH2 0x2FCB JUMP JUMPDEST JUMPDEST PUSH0 PUSH2 0x30AE DUP6 DUP3 DUP7 ADD PUSH2 0x3077 JUMP JUMPDEST SWAP3 POP POP PUSH1 0x20 PUSH2 0x30BF DUP6 DUP3 DUP7 ADD PUSH2 0x3077 JUMP JUMPDEST SWAP2 POP POP SWAP3 POP SWAP3 SWAP1 POP JUMP JUMPDEST PUSH2 0x30D2 DUP2 PUSH2 0x3058 JUMP JUMPDEST DUP3 MSTORE POP POP JUMP JUMPDEST PUSH0 DUP2 SWAP1 POP SWAP2 SWAP1 POP JUMP JUMPDEST PUSH2 0x30EA DUP2 PUSH2 0x30D8 JUMP JUMPDEST DUP3 MSTORE POP POP JUMP JUMPDEST PUSH0 PUSH32 0xFF00000000000000000000000000000000000000000000000000000000000000 DUP3 AND SWAP1 POP SWAP2 SWAP1 POP JUMP JUMPDEST PUSH2 0x3124 DUP2 PUSH2 0x30F0 JUMP JUMPDEST DUP3 MSTORE POP POP JUMP JUMPDEST PUSH32 0x4E487B7100000000000000000000000000000000000000000000000000000000 PUSH0 MSTORE PUSH1 0x21 PUSH1 0x4 MSTORE PUSH1 0x24 PUSH0 REVERT JUMPDEST PUSH1 0x4 DUP2 LT PUSH2 0x3168 JUMPI PUSH2 0x3167 PUSH2 0x312A JUMP JUMPDEST JUMPDEST POP JUMP JUMPDEST PUSH0 DUP2 SWAP1 POP PUSH2 0x3178 DUP3 PUSH2 0x3157 JUMP JUMPDEST SWAP2 SWAP1 POP JUMP JUMPDEST PUSH0 PUSH2 0x3187 DUP3 PUSH2 0x316B JUMP JUMPDEST SWAP1 POP SWAP2 SWAP1 POP JUMP JUMPDEST PUSH2 0x3197 DUP2 PUSH2 0x317D JUMP JUMPDEST DUP3 MSTORE POP POP JUMP JUMPDEST PUSH0 PUSH1 0xC0 DUP3 ADD SWAP1 POP PUSH2 0x31B0 PUSH0 DUP4 ADD DUP10 PUSH2 0x30C9 JUMP JUMPDEST PUSH2 0x31BD PUSH1 0x20 DUP4 ADD DUP9 PUSH2 0x30E1 JUMP JUMPDEST PUSH2 0x31CA PUSH1 0x40 DUP4 ADD DUP8 PUSH2 0x30C9 JUMP JUMPDEST PUSH2 0x31D7 PUSH1 0x60 DUP4 ADD DUP7 PUSH2 0x311B JUMP JUMPDEST PUSH2 0x31E4 PUSH1 0x80 DUP4 ADD DUP6 PUSH2 0x30C9 JUMP JUMPDEST PUSH2 0x31F1 PUSH1 0xA0 DUP4 ADD DUP5 PUSH2 0x318E JUMP JUMPDEST SWAP8 SWAP7 POP POP POP POP POP POP POP JUMP JUMPDEST PUSH0 PUSH1 0x20 DUP3 ADD SWAP1 POP PUSH2 0x320F PUSH0 DUP4 ADD DUP5 PUSH2 0x30C9 JUMP JUMPDEST SWAP3 SWAP2 POP POP JUMP JUMPDEST PUSH0 DUP2 ISZERO ISZERO SWAP1 POP SWAP2 SWAP1 POP JUMP JUMPDEST PUSH2 0x3229 DUP2 PUSH2 0x3215 JUMP JUMPDEST DUP2 EQ PUSH2 0x3233 JUMPI PUSH0 DUP1 REVERT JUMPDEST POP JUMP JUMPDEST PUSH0 DUP2 CALLDATALOAD SWAP1 POP PUSH2 0x3244 DUP2 PUSH2 0x3220 JUMP JUMPDEST SWAP3 SWAP2 POP POP JUMP JUMPDEST PUSH0 DUP1 PUSH1 0x40 DUP4 DUP6 SUB SLT ISZERO PUSH2 0x3260 JUMPI PUSH2 0x325F PUSH2 0x2FCB JUMP JUMPDEST JUMPDEST PUSH0 PUSH2 0x326D DUP6 DUP3 DUP7 ADD PUSH2 0x3077 JUMP JUMPDEST SWAP3 POP POP PUSH1 0x20 PUSH2 0x327E DUP6 DUP3 DUP7 ADD PUSH2 0x3236 JUMP JUMPDEST SWAP2 POP POP SWAP3 POP SWAP3 SWAP1 POP JUMP JUMPDEST PUSH0 PUSH1 0x20 DUP3 DUP5 SUB SLT ISZERO PUSH2 0x329D JUMPI PUSH2 0x329C PUSH2 0x2FCB JUMP JUMPDEST JUMPDEST PUSH0 PUSH2 0x32AA DUP5 DUP3 DUP6 ADD PUSH2 0x3077 JUMP JUMPDEST SWAP2 POP POP SWAP3 SWAP2 POP POP JUMP JUMPDEST PUSH2 0x32BC DUP2 PUSH2 0x2FF2 JUMP JUMPDEST DUP3 MSTORE POP POP JUMP JUMPDEST PUSH0 PUSH1 0xE0 DUP3 ADD SWAP1 POP PUSH2 0x32D5 PUSH0 DUP4 ADD DUP11 PUSH2 0x32B3 JUMP JUMPDEST PUSH2 0x32E2 PUSH1 0x20 DUP4 ADD DUP10 PUSH2 0x30C9 JUMP JUMPDEST PUSH2 0x32EF PUSH1 0x40 DUP4 ADD DUP9 PUSH2 0x30C9 JUMP JUMPDEST PUSH2 0x32FC PUSH1 0x60 DUP4 ADD DUP8 PUSH2 0x30C9 JUMP JUMPDEST PUSH2 0x3309 PUSH1 0x80 DUP4 ADD DUP7 PUSH2 0x30C9 JUMP JUMPDEST PUSH2 0x3316 PUSH1 0xA0 DUP4 ADD DUP6 PUSH2 0x30E1 JUMP JUMPDEST PUSH2 0x3323 PUSH1 0xC0 DUP4 ADD DUP5 PUSH2 0x318E JUMP JUMPDEST SWAP9 SWAP8 POP POP POP POP POP POP POP POP JUMP JUMPDEST PUSH2 0x3338 DUP2 PUSH2 0x3215 JUMP JUMPDEST DUP3 MSTORE POP POP JUMP JUMPDEST PUSH0 PUSH1 0xC0 DUP3 ADD SWAP1 POP PUSH2 0x3351 PUSH0 DUP4 ADD DUP10 PUSH2 0x32B3 JUMP JUMPDEST PUSH2 0x335E PUSH1 0x20 DUP4 ADD DUP9 PUSH2 0x30C9 JUMP JUMPDEST PUSH2 0x336B PUSH1 0x40 DUP4 ADD DUP8 PUSH2 0x30C9 JUMP JUMPDEST PUSH2 0x3378 PUSH1 0x60 DUP4 ADD DUP7 PUSH2 0x30E1 JUMP JUMPDEST PUSH2 0x3385 PUSH1 0x80 DUP4 ADD DUP6 PUSH2 0x332F JUMP JUMPDEST PUSH2 0x3392 PUSH1 0xA0 DUP4 ADD DUP5 PUSH2 0x332F JUMP JUMPDEST SWAP8 SWAP7 POP POP POP POP POP POP POP JUMP JUMPDEST PUSH0 DUP2 SWAP1 POP SWAP2 SWAP1 POP JUMP JUMPDEST PUSH0 PUSH2 0x33C0 PUSH2 0x33BB PUSH2 0x33B6 DUP5 PUSH2 0x2FD3 JUMP JUMPDEST PUSH2 0x339D JUMP JUMPDEST PUSH2 0x2FD3 JUMP JUMPDEST SWAP1 POP SWAP2 SWAP1 POP JUMP JUMPDEST PUSH0 PUSH2 0x33D1 DUP3 PUSH2 0x33A6 JUMP JUMPDEST SWAP1 POP SWAP2 SWAP1 POP JUMP JUMPDEST PUSH0 PUSH2 0x33E2 DUP3 PUSH2 0x33C7 JUMP JUMPDEST SWAP1 POP SWAP2 SWAP1 POP JUMP JUMPDEST PUSH2 0x33F2 DUP2 PUSH2 0x33D8 JUMP JUMPDEST DUP3 MSTORE POP POP JUMP JUMPDEST PUSH0 PUSH1 0x20 DUP3 ADD SWAP1 POP PUSH2 0x340B PUSH0 DUP4 ADD DUP5 PUSH2 0x33E9 JUMP JUMPDEST SWAP3 SWAP2 POP POP JUMP JUMPDEST PUSH0 PUSH1 0x60 DUP3 ADD SWAP1 POP PUSH2 0x3424 PUSH0 DUP4 ADD DUP7 PUSH2 0x32B3 JUMP JUMPDEST PUSH2 0x3431 PUSH1 0x20 DUP4 ADD DUP6 PUSH2 0x30C9 JUMP JUMPDEST PUSH2 0x343E PUSH1 0x40 DUP4 ADD DUP5 PUSH2 0x30E1 JUMP JUMPDEST SWAP5 SWAP4 POP POP POP POP JUMP JUMPDEST PUSH2 0x344F DUP2 PUSH2 0x30D8 JUMP JUMPDEST DUP2 EQ PUSH2 0x3459 JUMPI PUSH0 DUP1 REVERT JUMPDEST POP JUMP JUMPDEST PUSH0 DUP2 CALLDATALOAD SWAP1 POP PUSH2 0x346A DUP2 PUSH2 0x3446 JUMP JUMPDEST SWAP3 SWAP2 POP POP JUMP JUMPDEST PUSH2 0x3479 DUP2 PUSH2 0x30F0 JUMP JUMPDEST DUP2 EQ PUSH2 0x3483 JUMPI PUSH0 DUP1 REVERT JUMPDEST POP JUMP JUMPDEST PUSH0 DUP2 CALLDATALOAD SWAP1 POP PUSH2 0x3494 DUP2 PUSH2 0x3470 JUMP JUMPDEST SWAP3 SWAP2 POP POP JUMP JUMPDEST PUSH0 DUP1 PUSH0 DUP1 PUSH1 0x80 DUP6 DUP8 SUB SLT ISZERO PUSH2 0x34B2 JUMPI PUSH2 0x34B1 PUSH2 0x2FCB JUMP JUMPDEST JUMPDEST PUSH0 PUSH2 0x34BF DUP8 DUP3 DUP9 ADD PUSH2 0x345C JUMP JUMPDEST SWAP5 POP POP PUSH1 0x20 PUSH2 0x34D0 DUP8 DUP3 DUP9 ADD PUSH2 0x3077 JUMP JUMPDEST SWAP4 POP POP PUSH1 0x40 PUSH2 0x34E1 DUP8 DUP3 DUP9 ADD PUSH2 0x3486 JUMP JUMPDEST SWAP3 POP POP PUSH1 0x60 PUSH2 0x34F2 DUP8 DUP3 DUP9 ADD PUSH2 0x3077 JUMP JUMPDEST SWAP2 POP POP SWAP3 SWAP6 SWAP2 SWAP5 POP SWAP3 POP JUMP JUMPDEST PUSH0 PUSH1 0x80 DUP3 ADD SWAP1 POP PUSH2 0x3511 PUSH0 DUP4 ADD DUP8 PUSH2 0x30E1 JUMP JUMPDEST PUSH2 0x351E PUSH1 0x20 DUP4 ADD DUP7 PUSH2 0x30C9 JUMP JUMPDEST PUSH2 0x352B PUSH1 0x40 DUP4 ADD DUP6 PUSH2 0x311B JUMP JUMPDEST PUSH2 0x3538 PUSH1 0x60 DUP4 ADD DUP5 PUSH2 0x30E1 JUMP JUMPDEST SWAP6 SWAP5 POP POP POP POP POP JUMP JUMPDEST PUSH0 DUP1 REVERT JUMPDEST PUSH0 DUP1 REVERT JUMPDEST PUSH0 PUSH1 0x1F NOT PUSH1 0x1F DUP4 ADD AND SWAP1 POP SWAP2 SWAP1 POP JUMP JUMPDEST PUSH32 0x4E487B7100000000000000000000000000000000000000000000000000000000 PUSH0 MSTORE PUSH1 0x41 PUSH1 0x4 MSTORE PUSH1 0x24 PUSH0 REVERT JUMPDEST PUSH2 0x358F DUP3 PUSH2 0x3549 JUMP JUMPDEST DUP2 ADD DUP2 DUP2 LT PUSH8 0xFFFFFFFFFFFFFFFF DUP3 GT OR ISZERO PUSH2 0x35AE JUMPI PUSH2 0x35AD PUSH2 0x3559 JUMP JUMPDEST JUMPDEST DUP1 PUSH1 0x40 MSTORE POP POP POP JUMP JUMPDEST PUSH0 PUSH2 0x35C0 PUSH2 0x2FC2 JUMP JUMPDEST SWAP1 POP PUSH2 0x35CC DUP3 DUP3 PUSH2 0x3586 JUMP JUMPDEST SWAP2 SWAP1 POP JUMP JUMPDEST PUSH0 PUSH8 0xFFFFFFFFFFFFFFFF DUP3 GT ISZERO PUSH2 0x35EB JUMPI PUSH2 0x35EA PUSH2 0x3559 JUMP JUMPDEST JUMPDEST PUSH2 0x35F4 DUP3 PUSH2 0x3549 JUMP JUMPDEST SWAP1 POP PUSH1 0x20 DUP2 ADD SWAP1 POP SWAP2 SWAP1 POP JUMP JUMPDEST DUP3 DUP2 DUP4 CALLDATACOPY PUSH0 DUP4 DUP4 ADD MSTORE POP POP POP JUMP JUMPDEST PUSH0 PUSH2 0x3621 PUSH2 0x361C DUP5 PUSH2 0x35D1 JUMP JUMPDEST PUSH2 0x35B7 JUMP JUMPDEST SWAP1 POP DUP3 DUP2 MSTORE PUSH1 0x20 DUP2 ADD DUP5 DUP5 DUP5 ADD GT ISZERO PUSH2 0x363D JUMPI PUSH2 0x363C PUSH2 0x3545 JUMP JUMPDEST JUMPDEST PUSH2 0x3648 DUP5 DUP3 DUP6 PUSH2 0x3601 JUMP JUMPDEST POP SWAP4 SWAP3 POP POP POP JUMP JUMPDEST PUSH0 DUP3 PUSH1 0x1F DUP4 ADD SLT PUSH2 0x3664 JUMPI PUSH2 0x3663 PUSH2 0x3541 JUMP JUMPDEST JUMPDEST DUP2 CALLDATALOAD PUSH2 0x3674 DUP5 DUP3 PUSH1 0x20 DUP7 ADD PUSH2 0x360F JUMP JUMPDEST SWAP2 POP POP SWAP3 SWAP2 POP POP JUMP JUMPDEST PUSH0 DUP1 PUSH1 0x40 DUP4 DUP6 SUB SLT ISZERO PUSH2 0x3693 JUMPI PUSH2 0x3692 PUSH2 0x2FCB JUMP JUMPDEST JUMPDEST PUSH0 DUP4 ADD CALLDATALOAD PUSH8 0xFFFFFFFFFFFFFFFF DUP2 GT ISZERO PUSH2 0x36B0 JUMPI PUSH2 0x36AF PUSH2 0x2FCF JUMP JUMPDEST JUMPDEST PUSH2 0x36BC DUP6 DUP3 DUP7 ADD PUSH2 0x3650 JUMP JUMPDEST SWAP3 POP POP PUSH1 0x20 PUSH2 0x36CD DUP6 DUP3 DUP7 ADD PUSH2 0x3077 JUMP JUMPDEST SWAP2 POP POP SWAP3 POP SWAP3 SWAP1 POP JUMP JUMPDEST PUSH0 DUP1 PUSH0 PUSH1 0x60 DUP5 DUP7 SUB SLT ISZERO PUSH2 0x36EE JUMPI PUSH2 0x36ED PUSH2 0x2FCB JUMP JUMPDEST JUMPDEST PUSH0 PUSH2 0x36FB DUP7 DUP3 DUP8 ADD PUSH2 0x3077 JUMP JUMPDEST SWAP4 POP POP PUSH1 0x20 PUSH2 0x370C DUP7 DUP3 DUP8 ADD PUSH2 0x3077 JUMP JUMPDEST SWAP3 POP POP PUSH1 0x40 PUSH2 0x371D DUP7 DUP3 DUP8 ADD PUSH2 0x3077 JUMP JUMPDEST SWAP2 POP POP SWAP3 POP SWAP3 POP SWAP3 JUMP JUMPDEST PUSH0 PUSH1 0x20 DUP3 ADD SWAP1 POP PUSH2 0x373A PUSH0 DUP4 ADD DUP5 PUSH2 0x332F JUMP JUMPDEST SWAP3 SWAP2 POP POP JUMP JUMPDEST PUSH0 PUSH1 0x80 DUP3 ADD SWAP1 POP PUSH2 0x3753 PUSH0 DUP4 ADD DUP8 PUSH2 0x318E JUMP JUMPDEST PUSH2 0x3760 PUSH1 0x20 DUP4 ADD DUP7 PUSH2 0x30C9 JUMP JUMPDEST PUSH2 0x376D PUSH1 0x40 DUP4 ADD DUP6 PUSH2 0x30C9 JUMP JUMPDEST PUSH2 0x377A PUSH1 0x60 DUP4 ADD DUP5 PUSH2 0x30C9 JUMP JUMPDEST SWAP6 SWAP5 POP POP POP POP POP JUMP JUMPDEST PUSH0 DUP1 PUSH0 PUSH1 0x60 DUP5 DUP7 SUB SLT ISZERO PUSH2 0x379A JUMPI PUSH2 0x3799 PUSH2 0x2FCB JUMP JUMPDEST JUMPDEST PUSH0 PUSH2 0x37A7 DUP7 DUP3 DUP8 ADD PUSH2 0x3077 JUMP JUMPDEST SWAP4 POP POP PUSH1 0x20 PUSH2 0x37B8 DUP7 DUP3 DUP8 ADD PUSH2 0x3077 JUMP JUMPDEST SWAP3 POP POP PUSH1 0x40 DUP5 ADD CALLDATALOAD PUSH8 0xFFFFFFFFFFFFFFFF DUP2 GT ISZERO PUSH2 0x37D9 JUMPI PUSH2 0x37D8 PUSH2 0x2FCF JUMP JUMPDEST JUMPDEST PUSH2 0x37E5 DUP7 DUP3 DUP8 ADD PUSH2 0x3650 JUMP JUMPDEST SWAP2 POP POP SWAP3 POP SWAP3 POP SWAP3 JUMP JUMPDEST PUSH0 PUSH2 0x37F9 DUP3 PUSH2 0x33C7 JUMP JUMPDEST SWAP1 POP SWAP2 SWAP1 POP JUMP JUMPDEST PUSH2 0x3809 DUP2 PUSH2 0x37EF JUMP JUMPDEST DUP3 MSTORE POP POP JUMP JUMPDEST PUSH0 PUSH1 0x20 DUP3 ADD SWAP1 POP PUSH2 0x3822 PUSH0 DUP4 ADD DUP5 PUSH2 0x3800 JUMP JUMPDEST SWAP3 SWAP2 POP POP JUMP JUMPDEST PUSH0 DUP1 PUSH0 PUSH1 0x60 DUP5 DUP7 SUB SLT ISZERO PUSH2 0x383F JUMPI PUSH2 0x383E PUSH2 0x2FCB JUMP JUMPDEST JUMPDEST PUSH0 PUSH2 0x384C DUP7 DUP3 DUP8 ADD PUSH2 0x3077 JUMP JUMPDEST SWAP4 POP POP PUSH1 0x20 PUSH2 0x385D DUP7 DUP3 DUP8 ADD PUSH2 0x3077 JUMP JUMPDEST SWAP3 POP POP PUSH1 0x40 PUSH2 0x386E DUP7 DUP3 DUP8 ADD PUSH2 0x3019 JUMP JUMPDEST SWAP2 POP POP SWAP3 POP SWAP3 POP SWAP3 JUMP JUMPDEST PUSH2 0x3881 DUP2 PUSH2 0x3058 JUMP JUMPDEST DUP3 MSTORE POP POP JUMP JUMPDEST PUSH1 0x40 DUP3 ADD PUSH0 DUP3 ADD MLOAD PUSH2 0x389B PUSH0 DUP6 ADD DUP3 PUSH2 0x3878 JUMP JUMPDEST POP PUSH1 0x20 DUP3 ADD MLOAD PUSH2 0x38AE PUSH1 0x20 DUP6 ADD DUP3 PUSH2 0x3878 JUMP JUMPDEST POP POP POP POP JUMP JUMPDEST PUSH0 PUSH1 0x2 SWAP1 POP SWAP2 SWAP1 POP JUMP JUMPDEST PUSH0 DUP2 SWAP1 POP SWAP3 SWAP2 POP POP JUMP JUMPDEST PUSH0 DUP2 SWAP1 POP SWAP2 SWAP1 POP JUMP JUMPDEST PUSH0 PUSH2 0x38DC DUP4 DUP4 PUSH2 0x3878 JUMP JUMPDEST PUSH1 0x20 DUP4 ADD SWAP1 POP SWAP3 SWAP2 POP POP JUMP JUMPDEST PUSH0 PUSH1 0x20 DUP3 ADD SWAP1 POP SWAP2 SWAP1 POP JUMP JUMPDEST PUSH2 0x38FD DUP2 PUSH2 0x38B4 JUMP JUMPDEST PUSH2 0x3907 DUP2 DUP5 PUSH2 0x38BE JUMP JUMPDEST SWAP3 POP PUSH2 0x3912 DUP3 PUSH2 0x38C8 JUMP JUMPDEST DUP1 PUSH0 JUMPDEST DUP4 DUP2 LT ISZERO PUSH2 0x3942 JUMPI DUP2 MLOAD PUSH2 0x3929 DUP8 DUP3 PUSH2 0x38D1 JUMP JUMPDEST SWAP7 POP PUSH2 0x3934 DUP4 PUSH2 0x38E8 JUMP JUMPDEST SWAP3 POP POP PUSH1 0x1 DUP2 ADD SWAP1 POP PUSH2 0x3915 JUMP JUMPDEST POP POP POP POP POP POP JUMP JUMPDEST PUSH1 0x80 DUP3 ADD PUSH0 DUP3 ADD MLOAD PUSH2 0x395E PUSH0 DUP6 ADD DUP3 PUSH2 0x38F4 JUMP JUMPDEST POP PUSH1 0x20 DUP3 ADD MLOAD PUSH2 0x3971 PUSH1 0x40 DUP6 ADD DUP3 PUSH2 0x38F4 JUMP JUMPDEST POP POP POP POP JUMP JUMPDEST PUSH0 PUSH2 0x100 DUP3 ADD SWAP1 POP PUSH2 0x398B PUSH0 DUP4 ADD DUP7 PUSH2 0x3887 JUMP JUMPDEST PUSH2 0x3998 PUSH1 0x40 DUP4 ADD DUP6 PUSH2 0x394A JUMP JUMPDEST PUSH2 0x39A5 PUSH1 0xC0 DUP4 ADD DUP5 PUSH2 0x3887 JUMP JUMPDEST SWAP5 SWAP4 POP POP POP POP JUMP JUMPDEST PUSH0 PUSH1 0x20 DUP3 ADD SWAP1 POP PUSH2 0x39C0 PUSH0 DUP4 ADD DUP5 PUSH2 0x32B3 JUMP JUMPDEST SWAP3 SWAP2 POP POP JUMP JUMPDEST PUSH1 0x6 DUP2 LT PUSH2 0x39D2 JUMPI PUSH0 DUP1 REVERT JUMPDEST POP JUMP JUMPDEST PUSH0 DUP2 MLOAD SWAP1 POP PUSH2 0x39E3 DUP2 PUSH2 0x39C6 JUMP JUMPDEST SWAP3 SWAP2 POP POP JUMP JUMPDEST PUSH0 DUP2 MLOAD SWAP1 POP PUSH2 0x39F7 DUP2 PUSH2 0x3220 JUMP JUMPDEST SWAP3 SWAP2 POP POP JUMP JUMPDEST PUSH0 DUP1 PUSH1 0x40 DUP4 DUP6 SUB SLT ISZERO PUSH2 0x3A13 JUMPI PUSH2 0x3A12 PUSH2 0x2FCB JUMP JUMPDEST JUMPDEST PUSH0 PUSH2 0x3A20 DUP6 DUP3 DUP7 ADD PUSH2 0x39D5 JUMP JUMPDEST SWAP3 POP POP PUSH1 0x20 PUSH2 0x3A31 DUP6 DUP3 DUP7 ADD PUSH2 0x39E9 JUMP JUMPDEST SWAP2 POP POP SWAP3 POP SWAP3 SWAP1 POP JUMP JUMPDEST PUSH0 DUP3 DUP3 MSTORE PUSH1 0x20 DUP3 ADD SWAP1 POP SWAP3 SWAP2 POP POP JUMP JUMPDEST PUSH32 0x4F6E6C792074686520426C6F636B636861696E204F7261636C652063616E2072 PUSH0 DUP3 ADD MSTORE PUSH32 0x756E20746869732066756E6374696F6E00000000000000000000000000000000 PUSH1 0x20 DUP3 ADD MSTORE POP JUMP JUMPDEST PUSH0 PUSH2 0x3AA5 PUSH1 0x30 DUP4 PUSH2 0x3A3B JUMP JUMPDEST SWAP2 POP PUSH2 0x3AB0 DUP3 PUSH2 0x3A4B JUMP JUMPDEST PUSH1 0x40 DUP3 ADD SWAP1 POP SWAP2 SWAP1 POP JUMP JUMPDEST PUSH0 PUSH1 0x20 DUP3 ADD SWAP1 POP DUP2 DUP2 SUB PUSH0 DUP4 ADD MSTORE PUSH2 0x3AD2 DUP2 PUSH2 0x3A99 JUMP JUMPDEST SWAP1 POP SWAP2 SWAP1 POP JUMP JUMPDEST PUSH0 PUSH1 0x40 DUP3 ADD SWAP1 POP PUSH2 0x3AEC PUSH0 DUP4 ADD DUP6 PUSH2 0x32B3 JUMP JUMPDEST PUSH2 0x3AF9 PUSH1 0x20 DUP4 ADD DUP5 PUSH2 0x30C9 JUMP JUMPDEST SWAP4 SWAP3 POP POP POP JUMP JUMPDEST PUSH32 0x4F6E6C792074686520496E7370656374696F6E204167656E742063616E207275 PUSH0 DUP3 ADD MSTORE PUSH32 0x6E20746869732066756E6374696F6E0000000000000000000000000000000000 PUSH1 0x20 DUP3 ADD MSTORE POP JUMP JUMPDEST PUSH0 PUSH2 0x3B5A PUSH1 0x2F DUP4 PUSH2 0x3A3B JUMP JUMPDEST SWAP2 POP PUSH2 0x3B65 DUP3 PUSH2 0x3B00 JUMP JUMPDEST PUSH1 0x40 DUP3 ADD SWAP1 POP SWAP2 SWAP1 POP JUMP JUMPDEST PUSH0 PUSH1 0x20 DUP3 ADD SWAP1 POP DUP2 DUP2 SUB PUSH0 DUP4 ADD MSTORE PUSH2 0x3B87 DUP2 PUSH2 0x3B4E JUMP JUMPDEST SWAP1 POP SWAP2 SWAP1 POP JUMP JUMPDEST PUSH32 0x496E76616C6964205265706F7274204944000000000000000000000000000000 PUSH0 DUP3 ADD MSTORE POP JUMP JUMPDEST PUSH0 PUSH2 0x3BC2 PUSH1 0x11 DUP4 PUSH2 0x3A3B JUMP JUMPDEST SWAP2 POP PUSH2 0x3BCD DUP3 PUSH2 0x3B8E JUMP JUMPDEST PUSH1 0x20 DUP3 ADD SWAP1 POP SWAP2 SWAP1 POP JUMP JUMPDEST PUSH0 PUSH1 0x20 DUP3 ADD SWAP1 POP DUP2 DUP2 SUB PUSH0 DUP4 ADD MSTORE PUSH2 0x3BEF DUP2 PUSH2 0x3BB6 JUMP JUMPDEST SWAP1 POP SWAP2 SWAP1 POP JUMP JUMPDEST PUSH32 0x54686973207265706F72742068617320616C7265616479206265656E20696E73 PUSH0 DUP3 ADD MSTORE PUSH32 0x7065637465640000000000000000000000000000000000000000000000000000 PUSH1 0x20 DUP3 ADD MSTORE POP JUMP JUMPDEST PUSH0 PUSH2 0x3C50 PUSH1 0x26 DUP4 PUSH2 0x3A3B JUMP JUMPDEST SWAP2 POP PUSH2 0x3C5B DUP3 PUSH2 0x3BF6 JUMP JUMPDEST PUSH1 0x40 DUP3 ADD SWAP1 POP SWAP2 SWAP1 POP JUMP JUMPDEST PUSH0 PUSH1 0x20 DUP3 ADD SWAP1 POP DUP2 DUP2 SUB PUSH0 DUP4 ADD MSTORE PUSH2 0x3C7D DUP2 PUSH2 0x3C44 JUMP JUMPDEST SWAP1 POP SWAP2 SWAP1 POP JUMP JUMPDEST PUSH0 PUSH1 0x60 DUP3 ADD SWAP1 POP PUSH2 0x3C97 PUSH0 DUP4 ADD DUP7 PUSH2 0x32B3 JUMP JUMPDEST PUSH2 0x3CA4 PUSH1 0x20 DUP4 ADD DUP6 PUSH2 0x332F JUMP JUMPDEST PUSH2 0x3CB1 PUSH1 0x40 DUP4 ADD DUP5 PUSH2 0x30C9 JUMP JUMPDEST SWAP5 SWAP4 POP POP POP POP JUMP JUMPDEST PUSH32 0x4F6E6C7920746865204368696C6420477561726469616E2063616E2072756E20 PUSH0 DUP3 ADD MSTORE PUSH32 0x746869732066756E6374696F6E00000000000000000000000000000000000000 PUSH1 0x20 DUP3 ADD MSTORE POP JUMP JUMPDEST PUSH0 PUSH2 0x3D13 PUSH1 0x2D DUP4 PUSH2 0x3A3B JUMP JUMPDEST SWAP2 POP PUSH2 0x3D1E DUP3 PUSH2 0x3CB9 JUMP JUMPDEST PUSH1 0x40 DUP3 ADD SWAP1 POP SWAP2 SWAP1 POP JUMP JUMPDEST PUSH0 PUSH1 0x20 DUP3 ADD SWAP1 POP DUP2 DUP2 SUB PUSH0 DUP4 ADD MSTORE PUSH2 0x3D40 DUP2 PUSH2 0x3D07 JUMP JUMPDEST SWAP1 POP SWAP2 SWAP1 POP JUMP JUMPDEST PUSH32 0x4F6E6C79207468652061737369676E656420477561726469616E20746F207468 PUSH0 DUP3 ADD MSTORE PUSH32 0x6973206368696C642063616E2072756E20746869732066756E6374696F6E0000 PUSH1 0x20 DUP3 ADD MSTORE POP JUMP JUMPDEST PUSH0 PUSH2 0x3DA1 PUSH1 0x3E DUP4 PUSH2 0x3A3B JUMP JUMPDEST SWAP2 POP PUSH2 0x3DAC DUP3 PUSH2 0x3D47 JUMP JUMPDEST PUSH1 0x40 DUP3 ADD SWAP1 POP SWAP2 SWAP1 POP JUMP JUMPDEST PUSH0 PUSH1 0x20 DUP3 ADD SWAP1 POP DUP2 DUP2 SUB PUSH0 DUP4 ADD MSTORE PUSH2 0x3DCE DUP2 PUSH2 0x3D95 JUMP JUMPDEST SWAP1 POP SWAP2 SWAP1 POP JUMP JUMPDEST PUSH32 0x496E76616C6964204368696C6420494400000000000000000000000000000000 PUSH0 DUP3 ADD MSTORE POP JUMP JUMPDEST PUSH0 PUSH2 0x3E09 PUSH1 0x10 DUP4 PUSH2 0x3A3B JUMP JUMPDEST SWAP2 POP PUSH2 0x3E14 DUP3 PUSH2 0x3DD5 JUMP JUMPDEST PUSH1 0x20 DUP3 ADD SWAP1 POP SWAP2 SWAP1 POP JUMP JUMPDEST PUSH0 PUSH1 0x20 DUP3 ADD SWAP1 POP DUP2 DUP2 SUB PUSH0 DUP4 ADD MSTORE PUSH2 0x3E36 DUP2 PUSH2 0x3DFD JUMP JUMPDEST SWAP1 POP SWAP2 SWAP1 POP JUMP JUMPDEST PUSH32 0x54686973206368696C64206973206E6F742063757272656E746C7920696E2072 PUSH0 DUP3 ADD MSTORE PUSH32 0x656D6564696174696F6E00000000000000000000000000000000000000000000 PUSH1 0x20 DUP3 ADD MSTORE POP JUMP JUMPDEST PUSH0 PUSH2 0x3E97 PUSH1 0x2A DUP4 PUSH2 0x3A3B JUMP JUMPDEST SWAP2 POP PUSH2 0x3EA2 DUP3 PUSH2 0x3E3D JUMP JUMPDEST PUSH1 0x40 DUP3 ADD SWAP1 POP SWAP2 SWAP1 POP JUMP JUMPDEST PUSH0 PUSH1 0x20 DUP3 ADD SWAP1 POP DUP2 DUP2 SUB PUSH0 DUP4 ADD MSTORE PUSH2 0x3EC4 DUP2 PUSH2 0x3E8B JUMP JUMPDEST SWAP1 POP SWAP2 SWAP1 POP JUMP JUMPDEST PUSH32 0x5468652074696D652077696E646F7720666F722072656D6564696174696F6E20 PUSH0 DUP3 ADD MSTORE PUSH32 0x6973207374696C6C206F70656E00000000000000000000000000000000000000 PUSH1 0x20 DUP3 ADD MSTORE POP JUMP JUMPDEST PUSH0 PUSH2 0x3F25 PUSH1 0x2D DUP4 PUSH2 0x3A3B JUMP JUMPDEST SWAP2 POP PUSH2 0x3F30 DUP3 PUSH2 0x3ECB JUMP JUMPDEST PUSH1 0x40 DUP3 ADD SWAP1 POP SWAP2 SWAP1 POP JUMP JUMPDEST PUSH0 PUSH1 0x20 DUP3 ADD SWAP1 POP DUP2 DUP2 SUB PUSH0 DUP4 ADD MSTORE PUSH2 0x3F52 DUP2 PUSH2 0x3F19 JUMP JUMPDEST SWAP1 POP SWAP2 SWAP1 POP JUMP JUMPDEST PUSH0 PUSH1 0x60 DUP3 ADD SWAP1 POP PUSH2 0x3F6C PUSH0 DUP4 ADD DUP7 PUSH2 0x30C9 JUMP JUMPDEST PUSH2 0x3F79 PUSH1 0x20 DUP4 ADD DUP6 PUSH2 0x30C9 JUMP JUMPDEST PUSH2 0x3F86 PUSH1 0x40 DUP4 ADD DUP5 PUSH2 0x30C9 JUMP JUMPDEST SWAP5 SWAP4 POP POP POP POP JUMP JUMPDEST PUSH32 0x496E76616C696420686173686564206E616D6500000000000000000000000000 PUSH0 DUP3 ADD MSTORE POP JUMP JUMPDEST PUSH0 PUSH2 0x3FC2 PUSH1 0x13 DUP4 PUSH2 0x3A3B JUMP JUMPDEST SWAP2 POP PUSH2 0x3FCD DUP3 PUSH2 0x3F8E JUMP JUMPDEST PUSH1 0x20 DUP3 ADD SWAP1 POP SWAP2 SWAP1 POP JUMP JUMPDEST PUSH0 PUSH1 0x20 DUP3 ADD SWAP1 POP DUP2 DUP2 SUB PUSH0 DUP4 ADD MSTORE PUSH2 0x3FEF DUP2 PUSH2 0x3FB6 JUMP JUMPDEST SWAP1 POP SWAP2 SWAP1 POP JUMP JUMPDEST PUSH32 0x496E76616C696420416765000000000000000000000000000000000000000000 PUSH0 DUP3 ADD MSTORE POP JUMP JUMPDEST PUSH0 PUSH2 0x402A PUSH1 0xB DUP4 PUSH2 0x3A3B JUMP JUMPDEST SWAP2 POP PUSH2 0x4035 DUP3 PUSH2 0x3FF6 JUMP JUMPDEST PUSH1 0x20 DUP3 ADD SWAP1 POP SWAP2 SWAP1 POP JUMP JUMPDEST PUSH0 PUSH1 0x20 DUP3 ADD SWAP1 POP DUP2 DUP2 SUB PUSH0 DUP4 ADD MSTORE PUSH2 0x4057 DUP2 PUSH2 0x401E JUMP JUMPDEST SWAP1 POP SWAP2 SWAP1 POP JUMP JUMPDEST PUSH32 0x496E76616C69642047656E646572000000000000000000000000000000000000 PUSH0 DUP3 ADD MSTORE POP JUMP JUMPDEST PUSH0 PUSH2 0x4092 PUSH1 0xE DUP4 PUSH2 0x3A3B JUMP JUMPDEST SWAP2 POP PUSH2 0x409D DUP3 PUSH2 0x405E JUMP JUMPDEST PUSH1 0x20 DUP3 ADD SWAP1 POP SWAP2 SWAP1 POP JUMP JUMPDEST PUSH0 PUSH1 0x20 DUP3 ADD SWAP1 POP DUP2 DUP2 SUB PUSH0 DUP4 ADD MSTORE PUSH2 0x40BF DUP2 PUSH2 0x4086 JUMP JUMPDEST SWAP1 POP SWAP2 SWAP1 POP JUMP JUMPDEST PUSH32 0x4E487B7100000000000000000000000000000000000000000000000000000000 PUSH0 MSTORE PUSH1 0x11 PUSH1 0x4 MSTORE PUSH1 0x24 PUSH0 REVERT JUMPDEST PUSH0 PUSH2 0x40FD DUP3 PUSH2 0x3058 JUMP JUMPDEST SWAP2 POP PUSH32 0xFFFFFFFFFFFFFFFFFFFFFFFFFFFFFFFFFFFFFFFFFFFFFFFFFFFFFFFFFFFFFFFF DUP3 SUB PUSH2 0x412F JUMPI PUSH2 0x412E PUSH2 0x40C6 JUMP JUMPDEST JUMPDEST PUSH1 0x1 DUP3 ADD SWAP1 POP SWAP2 SWAP1 POP JUMP JUMPDEST PUSH0 PUSH1 0xA0 DUP3 ADD SWAP1 POP PUSH2 0x414D PUSH0 DUP4 ADD DUP9 PUSH2 0x30C9 JUMP JUMPDEST PUSH2 0x415A PUSH1 0x20 DUP4 ADD DUP8 PUSH2 0x30E1 JUMP JUMPDEST PUSH2 0x4167 PUSH1 0x40 DUP4 ADD DUP7 PUSH2 0x30C9 JUMP JUMPDEST PUSH2 0x4174 PUSH1 0x60 DUP4 ADD DUP6 PUSH2 0x311B JUMP JUMPDEST PUSH2 0x4181 PUSH1 0x80 DUP4 ADD DUP5 PUSH2 0x30C9 JUMP JUMPDEST SWAP7 SWAP6 POP POP POP POP POP POP JUMP JUMPDEST PUSH32 0x4F6E6C792074686520526567756C61746F727920417574686F7269747920616E PUSH0 DUP3 ADD MSTORE PUSH32 0x64204461746120416E616C797374732063616E2072756E20746869732066756E PUSH1 0x20 DUP3 ADD MSTORE PUSH32 0x6374696F6E000000000000000000000000000000000000000000000000000000 PUSH1 0x40 DUP3 ADD MSTORE POP JUMP JUMPDEST PUSH0 PUSH2 0x420B PUSH1 0x45 DUP4 PUSH2 0x3A3B JUMP JUMPDEST SWAP2 POP PUSH2 0x4216 DUP3 PUSH2 0x418B JUMP JUMPDEST PUSH1 0x60 DUP3 ADD SWAP1 POP SWAP2 SWAP1 POP JUMP JUMPDEST PUSH0 PUSH1 0x20 DUP3 ADD SWAP1 POP DUP2 DUP2 SUB PUSH0 DUP4 ADD MSTORE PUSH2 0x4238 DUP2 PUSH2 0x41FF JUMP JUMPDEST SWAP1 POP SWAP2 SWAP1 POP JUMP JUMPDEST PUSH32 0x4F6E6C792074686520726567756C61746F727920617574686F72697479206361 PUSH0 DUP3 ADD MSTORE PUSH32 0x6E2072756E20746869732066756E6374696F6E00000000000000000000000000 PUSH1 0x20 DUP3 ADD MSTORE POP JUMP JUMPDEST PUSH0 PUSH2 0x4299 PUSH1 0x33 DUP4 PUSH2 0x3A3B JUMP JUMPDEST SWAP2 POP PUSH2 0x42A4 DUP3 PUSH2 0x423F JUMP JUMPDEST PUSH1 0x40 DUP3 ADD SWAP1 POP SWAP2 SWAP1 POP JUMP JUMPDEST PUSH0 PUSH1 0x20 DUP3 ADD SWAP1 POP DUP2 DUP2 SUB PUSH0 DUP4 ADD MSTORE PUSH2 0x42C6 DUP2 PUSH2 0x428D JUMP JUMPDEST SWAP1 POP SWAP2 SWAP1 POP JUMP JUMPDEST PUSH0 PUSH1 0x60 DUP3 ADD SWAP1 POP PUSH2 0x42E0 PUSH0 DUP4 ADD DUP7 PUSH2 0x32B3 JUMP JUMPDEST PUSH2 0x42ED PUSH1 0x20 DUP4 ADD DUP6 PUSH2 0x32B3 JUMP JUMPDEST PUSH2 0x42FA PUSH1 0x40 DUP4 ADD DUP5 PUSH2 0x30C9 JUMP JUMPDEST SWAP5 SWAP4 POP POP POP POP JUMP JUMPDEST PUSH32 0x4F6E6C7920746865204C696169736F6E204F6666696365722063616E2072756E PUSH0 DUP3 ADD MSTORE PUSH32 0x20746869732066756E6374696F6E000000000000000000000000000000000000 PUSH1 0x20 DUP3 ADD MSTORE POP JUMP JUMPDEST PUSH0 PUSH2 0x435C PUSH1 0x2E DUP4 PUSH2 0x3A3B JUMP JUMPDEST SWAP2 POP PUSH2 0x4367 DUP3 PUSH2 0x4302 JUMP JUMPDEST PUSH1 0x40 DUP3 ADD SWAP1 POP SWAP2 SWAP1 POP JUMP JUMPDEST PUSH0 PUSH1 0x20 DUP3 ADD SWAP1 POP DUP2 DUP2 SUB PUSH0 DUP4 ADD MSTORE PUSH2 0x4389 DUP2 PUSH2 0x4350 JUMP JUMPDEST SWAP1 POP SWAP2 SWAP1 POP JUMP JUMPDEST PUSH0 DUP2 MLOAD SWAP1 POP SWAP2 SWAP1 POP JUMP JUMPDEST PUSH0 DUP2 SWAP1 POP PUSH1 0x20 DUP3 ADD SWAP1 POP SWAP2 SWAP1 POP JUMP JUMPDEST PUSH0 PUSH2 0x43B4 DUP3 MLOAD PUSH2 0x30D8 JUMP JUMPDEST DUP1 SWAP2 POP POP SWAP2 SWAP1 POP JUMP JUMPDEST PUSH0 DUP3 DUP3 SHL SWAP1 POP SWAP3 SWAP2 POP POP JUMP JUMPDEST PUSH0 PUSH2 0x43D3 DUP3 PUSH2 0x4390 JUMP JUMPDEST DUP3 PUSH2 0x43DD DUP5 PUSH2 0x439A JUMP JUMPDEST SWAP1 POP PUSH2 0x43E8 DUP2 PUSH2 0x43A9 JUMP JUMPDEST SWAP3 POP PUSH1 0x20 DUP3 LT ISZERO PUSH2 0x4428 JUMPI PUSH2 0x4423 PUSH32 0xFFFFFFFFFFFFFFFFFFFFFFFFFFFFFFFFFFFFFFFFFFFFFFFFFFFFFFFFFFFFFFFF DUP4 PUSH1 0x20 SUB PUSH1 0x8 MUL PUSH2 0x43BD JUMP JUMPDEST DUP4 AND SWAP3 POP JUMPDEST POP POP SWAP2 SWAP1 POP JUMP JUMPDEST PUSH0 PUSH2 0x4439 DUP3 PUSH2 0x3058 JUMP JUMPDEST SWAP2 POP PUSH2 0x4444 DUP4 PUSH2 0x3058 JUMP JUMPDEST SWAP3 POP DUP3 DUP3 ADD SWAP1 POP DUP1 DUP3 GT ISZERO PUSH2 0x445C JUMPI PUSH2 0x445B PUSH2 0x40C6 JUMP JUMPDEST JUMPDEST SWAP3 SWAP2 POP POP JUMP JUMPDEST PUSH32 0x54686973206368696C64206973206E6F7420726561647920666F722072656D65 PUSH0 DUP3 ADD MSTORE PUSH32 0x64696174696F6E00000000000000000000000000000000000000000000000000 PUSH1 0x20 DUP3 ADD MSTORE POP JUMP JUMPDEST PUSH0 PUSH2 0x44BC PUSH1 0x27 DUP4 PUSH2 0x3A3B JUMP JUMPDEST SWAP2 POP PUSH2 0x44C7 DUP3 PUSH2 0x4462 JUMP JUMPDEST PUSH1 0x40 DUP3 ADD SWAP1 POP SWAP2 SWAP1 POP JUMP JUMPDEST PUSH0 PUSH1 0x20 DUP3 ADD SWAP1 POP DUP2 DUP2 SUB PUSH0 DUP4 ADD MSTORE PUSH2 0x44E9 DUP2 PUSH2 0x44B0 JUMP JUMPDEST SWAP1 POP SWAP2 SWAP1 POP JUMP JUMPDEST PUSH0 PUSH2 0x44FA DUP3 PUSH2 0x3058 JUMP JUMPDEST SWAP2 POP PUSH2 0x4505 DUP4 PUSH2 0x3058 JUMP JUMPDEST SWAP3 POP DUP3 DUP3 MUL PUSH2 0x4513 DUP2 PUSH2 0x3058 JUMP JUMPDEST SWAP2 POP DUP3 DUP3 DIV DUP5 EQ DUP4 ISZERO OR PUSH2 0x452A JUMPI PUSH2 0x4529 PUSH2 0x40C6 JUMP JUMPDEST JUMPDEST POP SWAP3 SWAP2 POP POP JUMP JUMPDEST PUSH0 PUSH1 0x80 DUP3 ADD SWAP1 POP PUSH2 0x4544 PUSH0 DUP4 ADD DUP8 PUSH2 0x30C9 JUMP JUMPDEST PUSH2 0x4551 PUSH1 0x20 DUP4 ADD DUP7 PUSH2 0x30C9 JUMP JUMPDEST PUSH2 0x455E PUSH1 0x40 DUP4 ADD DUP6 PUSH2 0x30C9 JUMP JUMPDEST PUSH2 0x456B PUSH1 0x60 DUP4 ADD DUP5 PUSH2 0x30C9 JUMP JUMPDEST SWAP6 SWAP5 POP POP POP POP POP JUMP JUMPDEST PUSH0 PUSH1 0x80 DUP3 ADD SWAP1 POP PUSH2 0x4587 PUSH0 DUP4 ADD DUP8 PUSH2 0x30C9 JUMP JUMPDEST PUSH2 0x4594 PUSH1 0x20 DUP4 ADD DUP7 PUSH2 0x30C9 JUMP JUMPDEST PUSH2 0x45A1 PUSH1 0x40 DUP4 ADD DUP6 PUSH2 0x30C9 JUMP JUMPDEST PUSH2 0x45AE PUSH1 0x60 DUP4 ADD DUP5 PUSH2 0x30E1 JUMP JUMPDEST SWAP6 SWAP5 POP POP POP POP POP JUMP JUMPDEST PUSH32 0x54686973206368696C6420496420646F6573206E6F74206578697374206F7220 PUSH0 DUP3 ADD MSTORE PUSH32 0x68617320616C7265616479206265656E2061737369676E656420612067756172 PUSH1 0x20 DUP3 ADD MSTORE PUSH32 0x6469616E00000000000000000000000000000000000000000000000000000000 PUSH1 0x40 DUP3 ADD MSTORE POP JUMP JUMPDEST PUSH0 PUSH2 0x4637 PUSH1 0x44 DUP4 PUSH2 0x3A3B JUMP JUMPDEST SWAP2 POP PUSH2 0x4642 DUP3 PUSH2 0x45B7 JUMP JUMPDEST PUSH1 0x60 DUP3 ADD SWAP1 POP SWAP2 SWAP1 POP JUMP JUMPDEST PUSH0 PUSH1 0x20 DUP3 ADD SWAP1 POP DUP2 DUP2 SUB PUSH0 DUP4 ADD MSTORE PUSH2 0x4664 DUP2 PUSH2 0x462B JUMP JUMPDEST SWAP1 POP SWAP2 SWAP1 POP JUMP JUMPDEST PUSH0 PUSH1 0x60 DUP3 ADD SWAP1 POP PUSH2 0x467E PUSH0 DUP4 ADD DUP7 PUSH2 0x30C9 JUMP JUMPDEST PUSH2 0x468B PUSH1 0x20 DUP4 ADD DUP6 PUSH2 0x30C9 JUMP JUMPDEST PUSH2 0x4698 PUSH1 0x40 DUP4 ADD DUP5 PUSH2 0x32B3 JUMP JUMPDEST SWAP5 SWAP4 POP POP POP POP JUMP INVALID LOG2 PUSH5 0x6970667358 0x22 SLT KECCAK256 JUMPDEST 0xEA 0xDA SLOAD 0xDB MSIZE CALLDATASIZE 0xE4 SIGNEXTEND ISZERO KECCAK256 0xCE PUSH1 0x84 0xED DUP9 0x49 MSTORE 0xCB 0x28 MLOAD 0xB1 SWAP9 PUSH22 0x7570452F4FD1655E64736F6C63430008150033000000 "
		},
		"gasEstimates": {
			"creation": {
				"codeDepositCost": "3626800",
				"executionCost": "infinite",
				"totalCost": "infinite"
			},
			"external": {
				"Registration()": "infinite",
				"Verifier()": "infinite",
				"accessWhitelist(address)": "2966",
				"assignGuardian(uint256,uint256,address)": "infinite",
				"child2ReportMapping(uint256)": "infinite",
				"childCount()": "2470",
				"childData(uint256,uint256)": "infinite",
				"childRemediationData(uint256)": "infinite",
				"completeRemediation(uint256,uint256)": "infinite",
				"getChildData(uint256,uint256)": "infinite",
				"getChildStatus(uint256,uint256)": "infinite",
				"getViolationReport(uint256)": "infinite",
				"grantAccess(address)": "infinite",
				"remediationUpdate(uint256,uint256,string)": "infinite",
				"reportChildrenCount(uint256)": "infinite",
				"reportCount()": "2493",
				"reportProof(uint256)": "infinite",
				"revokeAccess(address)": "infinite",
				"startRemediation(uint256,uint256,uint256)": "infinite",
				"storeChildData(bytes32,uint256,bytes1,uint256)": "infinite",
				"submitViolationReport(string,uint256)": "infinite",
				"updateVerifier(address)": "infinite",
				"verifyViolationReport(uint256,bool)": "infinite",
				"violationReports(uint256)": "infinite"
			}
		},
		"methodIdentifiers": {
			"Registration()": "e8a37919",
			"Verifier()": "53ca8115",
			"accessWhitelist(address)": "a0619d4a",
			"assignGuardian(uint256,uint256,address)": "eff5cfae",
			"child2ReportMapping(uint256)": "b05efaab",
			"childCount()": "8bc3bbc0",
			"childData(uint256,uint256)": "12f1a83a",
			"childRemediationData(uint256)": "2b76ea9c",
			"completeRemediation(uint256,uint256)": "739f48a6",
			"getChildData(uint256,uint256)": "84e2395d",
			"getChildStatus(uint256,uint256)": "a1dc99b4",
			"getViolationReport(uint256)": "636d0262",
			"grantAccess(address)": "0ae5e739",
			"remediationUpdate(uint256,uint256,string)": "e60e5ee2",
			"reportChildrenCount(uint256)": "6388bafc",
			"reportCount()": "185c6f84",
			"reportProof(uint256)": "f8b4d690",
			"revokeAccess(address)": "85e68531",
			"startRemediation(uint256,uint256,uint256)": "992cc022",
			"storeChildData(bytes32,uint256,bytes1,uint256)": "832de71e",
			"submitViolationReport(string,uint256)": "8fe2d950",
			"updateVerifier(address)": "97fc007c",
			"verifyViolationReport(uint256,bool)": "28c10330",
			"violationReports(uint256)": "3835a119"
		}
	},
	"abi": [
		{
			"inputs": [
				{
					"internalType": "address",
					"name": "_registration",
					"type": "address"
				},
				{
					"internalType": "address",
					"name": "_verifier",
					"type": "address"
				}
			],
			"stateMutability": "nonpayable",
			"type": "constructor"
		},
		{
			"anonymous": false,
			"inputs": [
				{
					"indexed": false,
					"internalType": "address",
					"name": "regulatoryAuthority",
					"type": "address"
				},
				{
					"indexed": false,
					"internalType": "address",
					"name": "entity",
					"type": "address"
				},
				{
					"indexed": false,
					"internalType": "uint256",
					"name": "date",
					"type": "uint256"
				}
			],
			"name": "AccessRevoked",
			"type": "event"
		},
		{
			"anonymous": false,
			"inputs": [
				{
					"indexed": false,
					"internalType": "uint256",
					"name": "childId",
					"type": "uint256"
				},
				{
					"indexed": false,
					"internalType": "bytes32",
					"name": "hashedName",
					"type": "bytes32"
				},
				{
					"indexed": false,
					"internalType": "uint256",
					"name": "age",
					"type": "uint256"
				},
				{
					"indexed": false,
					"internalType": "bytes1",
					"name": "gender",
					"type": "bytes1"
				},
				{
					"indexed": false,
					"internalType": "uint256",
					"name": "reportId",
					"type": "uint256"
				}
			],
			"name": "ChildDataStored",
			"type": "event"
		},
		{
			"anonymous": false,
			"inputs": [
				{
					"indexed": false,
					"internalType": "uint256",
					"name": "childId",
					"type": "uint256"
				},
				{
					"indexed": false,
					"internalType": "uint256",
					"name": "reportId",
					"type": "uint256"
				},
				{
					"indexed": false,
					"internalType": "address",
					"name": "guardian",
					"type": "address"
				}
			],
			"name": "GuardianAssigned",
			"type": "event"
		},
		{
			"anonymous": false,
			"inputs": [
				{
					"indexed": true,
					"internalType": "uint256",
					"name": "reportCount",
					"type": "uint256"
				},
				{
					"indexed": false,
					"internalType": "address",
					"name": "reporter",
					"type": "address"
				},
				{
					"indexed": false,
					"internalType": "uint256",
					"name": "date",
					"type": "uint256"
				},
				{
					"indexed": false,
					"internalType": "bytes32",
					"name": "reportDetails",
					"type": "bytes32"
				}
			],
			"name": "NewViolationReport",
			"type": "event"
		},
		{
			"anonymous": false,
			"inputs": [
				{
					"indexed": false,
					"internalType": "uint256",
					"name": "violationReportId",
					"type": "uint256"
				},
				{
					"indexed": false,
					"internalType": "uint256",
					"name": "childId",
					"type": "uint256"
				},
				{
					"indexed": false,
					"internalType": "uint256",
					"name": "remediationCompletionDate",
					"type": "uint256"
				}
			],
			"name": "RemediationCompleted",
			"type": "event"
		},
		{
			"anonymous": false,
			"inputs": [
				{
					"indexed": false,
					"internalType": "uint256",
					"name": "violationReportId",
					"type": "uint256"
				},
				{
					"indexed": false,
					"internalType": "uint256",
					"name": "childId",
					"type": "uint256"
				},
				{
					"indexed": false,
					"internalType": "uint256",
					"name": "remediationStartDate",
					"type": "uint256"
				},
				{
					"indexed": false,
					"internalType": "uint256",
					"name": "remediationCompletionDate",
					"type": "uint256"
				}
			],
			"name": "RemediationStarted",
			"type": "event"
		},
		{
			"anonymous": false,
			"inputs": [
				{
					"indexed": false,
					"internalType": "uint256",
					"name": "violationReportId",
					"type": "uint256"
				},
				{
					"indexed": false,
					"internalType": "uint256",
					"name": "childId",
					"type": "uint256"
				},
				{
					"indexed": false,
					"internalType": "uint256",
					"name": "remediationUpdatedate",
					"type": "uint256"
				},
				{
					"indexed": false,
					"internalType": "bytes32",
					"name": "reportUpdate",
					"type": "bytes32"
				}
			],
			"name": "RemediationUpdate",
			"type": "event"
		},
		{
			"anonymous": false,
			"inputs": [
				{
					"indexed": false,
					"internalType": "address",
					"name": "regulatoryAuthority",
					"type": "address"
				},
				{
					"indexed": false,
					"internalType": "address",
					"name": "verifierSC",
					"type": "address"
				},
				{
					"indexed": false,
					"internalType": "uint256",
					"name": "date",
					"type": "uint256"
				}
			],
			"name": "VerifierUpdated",
			"type": "event"
		},
		{
			"anonymous": false,
			"inputs": [
				{
					"indexed": true,
					"internalType": "uint256",
					"name": "reportCount",
					"type": "uint256"
				},
				{
					"indexed": false,
					"internalType": "address",
					"name": "inspector",
					"type": "address"
				},
				{
					"indexed": false,
					"internalType": "bool",
					"name": "isVerified",
					"type": "bool"
				},
				{
					"indexed": false,
					"internalType": "uint256",
					"name": "verificationDate",
					"type": "uint256"
				}
			],
			"name": "ViolationReportVerification",
			"type": "event"
		},
		{
			"anonymous": false,
			"inputs": [
				{
					"indexed": false,
					"internalType": "address",
					"name": "user",
					"type": "address"
				},
				{
					"indexed": false,
					"internalType": "uint256",
					"name": "Date",
					"type": "uint256"
				}
			],
			"name": "Whitelisted",
			"type": "event"
		},
		{
			"inputs": [],
			"name": "Registration",
			"outputs": [
				{
					"internalType": "contract IRegistration",
					"name": "",
					"type": "address"
				}
			],
			"stateMutability": "view",
			"type": "function"
		},
		{
			"inputs": [],
			"name": "Verifier",
			"outputs": [
				{
					"internalType": "contract IVerifier",
					"name": "",
					"type": "address"
				}
			],
			"stateMutability": "view",
			"type": "function"
		},
		{
			"inputs": [
				{
					"internalType": "address",
					"name": "",
					"type": "address"
				}
			],
			"name": "accessWhitelist",
			"outputs": [
				{
					"internalType": "bool",
					"name": "",
					"type": "bool"
				}
			],
			"stateMutability": "view",
			"type": "function"
		},
		{
			"inputs": [
				{
					"internalType": "uint256",
					"name": "_violationReportId",
					"type": "uint256"
				},
				{
					"internalType": "uint256",
					"name": "_childId",
					"type": "uint256"
				},
				{
					"internalType": "address",
					"name": "_guardian",
					"type": "address"
				}
			],
			"name": "assignGuardian",
			"outputs": [],
			"stateMutability": "nonpayable",
			"type": "function"
		},
		{
			"inputs": [
				{
					"internalType": "uint256",
					"name": "",
					"type": "uint256"
				}
			],
			"name": "child2ReportMapping",
			"outputs": [
				{
					"internalType": "uint256",
					"name": "",
					"type": "uint256"
				}
			],
			"stateMutability": "view",
			"type": "function"
		},
		{
			"inputs": [],
			"name": "childCount",
			"outputs": [
				{
					"internalType": "uint256",
					"name": "",
					"type": "uint256"
				}
			],
			"stateMutability": "view",
			"type": "function"
		},
		{
			"inputs": [
				{
					"internalType": "uint256",
					"name": "",
					"type": "uint256"
				},
				{
					"internalType": "uint256",
					"name": "",
					"type": "uint256"
				}
			],
			"name": "childData",
			"outputs": [
				{
					"internalType": "uint256",
					"name": "childId",
					"type": "uint256"
				},
				{
					"internalType": "bytes32",
					"name": "hashedName",
					"type": "bytes32"
				},
				{
					"internalType": "uint256",
					"name": "age",
					"type": "uint256"
				},
				{
					"internalType": "bytes1",
					"name": "gender",
					"type": "bytes1"
				},
				{
					"internalType": "uint256",
					"name": "violationReportId",
					"type": "uint256"
				},
				{
					"internalType": "enum ChildLabourDataManagement.ChildStatus",
					"name": "status",
					"type": "uint8"
				}
			],
			"stateMutability": "view",
			"type": "function"
		},
		{
			"inputs": [
				{
					"internalType": "uint256",
					"name": "",
					"type": "uint256"
				}
			],
			"name": "childRemediationData",
			"outputs": [
				{
					"internalType": "address",
					"name": "guardian",
					"type": "address"
				},
				{
					"internalType": "uint256",
					"name": "childId",
					"type": "uint256"
				},
				{
					"internalType": "uint256",
					"name": "remediationStart",
					"type": "uint256"
				},
				{
					"internalType": "uint256",
					"name": "remediationCompletion",
					"type": "uint256"
				},
				{
					"internalType": "uint256",
					"name": "lastUpdated",
					"type": "uint256"
				},
				{
					"internalType": "bytes32",
					"name": "updateReport",
					"type": "bytes32"
				},
				{
					"internalType": "enum ChildLabourDataManagement.ChildStatus",
					"name": "status",
					"type": "uint8"
				}
			],
			"stateMutability": "view",
			"type": "function"
		},
		{
			"inputs": [
				{
					"internalType": "uint256",
					"name": "_violationReportId",
					"type": "uint256"
				},
				{
					"internalType": "uint256",
					"name": "_childId",
					"type": "uint256"
				}
			],
			"name": "completeRemediation",
			"outputs": [],
			"stateMutability": "nonpayable",
			"type": "function"
		},
		{
			"inputs": [
				{
					"internalType": "uint256",
					"name": "_violationReportId",
					"type": "uint256"
				},
				{
					"internalType": "uint256",
					"name": "_childId",
					"type": "uint256"
				}
			],
			"name": "getChildData",
			"outputs": [
				{
					"internalType": "bytes32",
					"name": "hashedName",
					"type": "bytes32"
				},
				{
					"internalType": "uint256",
					"name": "age",
					"type": "uint256"
				},
				{
					"internalType": "bytes1",
					"name": "gender",
					"type": "bytes1"
				},
				{
					"internalType": "bytes32",
					"name": "reportipfshash",
					"type": "bytes32"
				}
			],
			"stateMutability": "nonpayable",
			"type": "function"
		},
		{
			"inputs": [
				{
					"internalType": "uint256",
					"name": "_violationReportId",
					"type": "uint256"
				},
				{
					"internalType": "uint256",
					"name": "_childId",
					"type": "uint256"
				}
			],
			"name": "getChildStatus",
			"outputs": [
				{
					"internalType": "enum ChildLabourDataManagement.ChildStatus",
					"name": "",
					"type": "uint8"
				},
				{
					"internalType": "uint256",
					"name": "",
					"type": "uint256"
				},
				{
					"internalType": "uint256",
					"name": "",
					"type": "uint256"
				},
				{
					"internalType": "uint256",
					"name": "",
					"type": "uint256"
				}
			],
			"stateMutability": "nonpayable",
			"type": "function"
		},
		{
			"inputs": [
				{
					"internalType": "uint256",
					"name": "_violationReportId",
					"type": "uint256"
				}
			],
			"name": "getViolationReport",
			"outputs": [
				{
					"internalType": "address",
					"name": "reporter",
					"type": "address"
				},
				{
					"internalType": "uint256",
					"name": "date",
					"type": "uint256"
				},
				{
					"internalType": "bytes32",
					"name": "reportDetails",
					"type": "bytes32"
				}
			],
			"stateMutability": "nonpayable",
			"type": "function"
		},
		{
			"inputs": [
				{
					"internalType": "address",
					"name": "_user",
					"type": "address"
				}
			],
			"name": "grantAccess",
			"outputs": [],
			"stateMutability": "nonpayable",
			"type": "function"
		},
		{
			"inputs": [
				{
					"internalType": "uint256",
					"name": "_violationReportId",
					"type": "uint256"
				},
				{
					"internalType": "uint256",
					"name": "_childId",
					"type": "uint256"
				},
				{
					"internalType": "string",
					"name": "_updateReport",
					"type": "string"
				}
			],
			"name": "remediationUpdate",
			"outputs": [],
			"stateMutability": "nonpayable",
			"type": "function"
		},
		{
			"inputs": [
				{
					"internalType": "uint256",
					"name": "",
					"type": "uint256"
				}
			],
			"name": "reportChildrenCount",
			"outputs": [
				{
					"internalType": "uint256",
					"name": "",
					"type": "uint256"
				}
			],
			"stateMutability": "view",
			"type": "function"
		},
		{
			"inputs": [],
			"name": "reportCount",
			"outputs": [
				{
					"internalType": "uint256",
					"name": "",
					"type": "uint256"
				}
			],
			"stateMutability": "view",
			"type": "function"
		},
		{
			"inputs": [
				{
					"internalType": "uint256",
					"name": "",
					"type": "uint256"
				}
			],
			"name": "reportProof",
			"outputs": [
				{
					"components": [
						{
							"internalType": "uint256",
							"name": "X",
							"type": "uint256"
						},
						{
							"internalType": "uint256",
							"name": "Y",
							"type": "uint256"
						}
					],
					"internalType": "struct Pairing.G1Point",
					"name": "a",
					"type": "tuple"
				},
				{
					"components": [
						{
							"internalType": "uint256[2]",
							"name": "X",
							"type": "uint256[2]"
						},
						{
							"internalType": "uint256[2]",
							"name": "Y",
							"type": "uint256[2]"
						}
					],
					"internalType": "struct Pairing.G2Point",
					"name": "b",
					"type": "tuple"
				},
				{
					"components": [
						{
							"internalType": "uint256",
							"name": "X",
							"type": "uint256"
						},
						{
							"internalType": "uint256",
							"name": "Y",
							"type": "uint256"
						}
					],
					"internalType": "struct Pairing.G1Point",
					"name": "c",
					"type": "tuple"
				}
			],
			"stateMutability": "view",
			"type": "function"
		},
		{
			"inputs": [
				{
					"internalType": "address",
					"name": "_user",
					"type": "address"
				}
			],
			"name": "revokeAccess",
			"outputs": [],
			"stateMutability": "nonpayable",
			"type": "function"
		},
		{
			"inputs": [
				{
					"internalType": "uint256",
					"name": "_violationReportId",
					"type": "uint256"
				},
				{
					"internalType": "uint256",
					"name": "_childId",
					"type": "uint256"
				},
				{
					"internalType": "uint256",
					"name": "_daysToRemediate",
					"type": "uint256"
				}
			],
			"name": "startRemediation",
			"outputs": [],
			"stateMutability": "nonpayable",
			"type": "function"
		},
		{
			"inputs": [
				{
					"internalType": "bytes32",
					"name": "_hashedName",
					"type": "bytes32"
				},
				{
					"internalType": "uint256",
					"name": "_age",
					"type": "uint256"
				},
				{
					"internalType": "bytes1",
					"name": "_gender",
					"type": "bytes1"
				},
				{
					"internalType": "uint256",
					"name": "_violationReportId",
					"type": "uint256"
				}
			],
			"name": "storeChildData",
			"outputs": [],
			"stateMutability": "nonpayable",
			"type": "function"
		},
		{
			"inputs": [
				{
					"internalType": "string",
					"name": "_reportIPFSHash",
					"type": "string"
				},
				{
					"internalType": "uint256",
					"name": "_spottedChildrenNumber",
					"type": "uint256"
				}
			],
			"name": "submitViolationReport",
			"outputs": [],
			"stateMutability": "nonpayable",
			"type": "function"
		},
		{
			"inputs": [
				{
					"internalType": "address",
					"name": "_verifier",
					"type": "address"
				}
			],
			"name": "updateVerifier",
			"outputs": [],
			"stateMutability": "nonpayable",
			"type": "function"
		},
		{
			"inputs": [
				{
					"internalType": "uint256",
					"name": "_violationReportId",
					"type": "uint256"
				},
				{
					"internalType": "bool",
					"name": "_decision",
					"type": "bool"
				}
			],
			"name": "verifyViolationReport",
			"outputs": [],
			"stateMutability": "nonpayable",
			"type": "function"
		},
		{
			"inputs": [
				{
					"internalType": "uint256",
					"name": "",
					"type": "uint256"
				}
			],
			"name": "violationReports",
			"outputs": [
				{
					"internalType": "address",
					"name": "reporter",
					"type": "address"
				},
				{
					"internalType": "uint256",
					"name": "timestamp",
					"type": "uint256"
				},
				{
					"internalType": "uint256",
					"name": "spottedChildrenNumber",
					"type": "uint256"
				},
				{
					"internalType": "bytes32",
					"name": "ipfsHash",
					"type": "bytes32"
				},
				{
					"internalType": "bool",
					"name": "isInspected",
					"type": "bool"
				},
				{
					"internalType": "bool",
					"name": "isVerified",
					"type": "bool"
				}
			],
			"stateMutability": "view",
			"type": "function"
		}
	]
}