{
	"data": {
		"bytecode": {
			"linkReferences": {},
			"object": "608060405234801562000010575f80fd5b50604051620049e3380380620049e3833981810160405281019062000036919062000130565b815f806101000a81548173ffffffffffffffffffffffffffffffffffffffff021916908373ffffffffffffffffffffffffffffffffffffffff1602179055508060015f6101000a81548173ffffffffffffffffffffffffffffffffffffffff021916908373ffffffffffffffffffffffffffffffffffffffff1602179055505f6002819055505f600381905550505062000175565b5f80fd5b5f73ffffffffffffffffffffffffffffffffffffffff82169050919050565b5f620000fa82620000cf565b9050919050565b6200010c81620000ee565b811462000117575f80fd5b50565b5f815190506200012a8162000101565b92915050565b5f8060408385031215620001495762000148620000cb565b5b5f62000158858286016200011a565b92505060206200016b858286016200011a565b9150509250929050565b61486080620001835f395ff3fe608060405234801561000f575f80fd5b5060043610610156575f3560e01c806385e68531116100c1578063a1dc99b41161007a578063a1dc99b41461040d578063b05efaab14610440578063e60e5ee214610470578063e8a379191461048c578063eff5cfae146104aa578063f8b4d690146104c657610156565b806385e685311461034f5780638bc3bbc01461036b5780638fe2d9501461038957806397fc007c146103a5578063992cc022146103c1578063a0619d4a146103dd57610156565b8063636d026211610113578063636d0262146102525780636388bafc14610284578063739f48a6146102b45780637a7935a7146102d0578063832de71e1461030057806384e2395d1461031c57610156565b806312f1a83a1461015a578063185c6f841461018f57806328c10330146101ad5780632b76ea9c146101c95780633835a119146101ff57806353ca811514610234575b5f80fd5b610174600480360381019061016f9190612f86565b6104f8565b60405161018696959493929190613098565b60405180910390f35b610197610553565b6040516101a491906130f7565b60405180910390f35b6101c760048036038101906101c29190613145565b610559565b005b6101e360048036038101906101de9190613183565b6107b3565b6040516101f697969594939291906131ed565b60405180910390f35b61021960048036038101906102149190613183565b61081c565b60405161022b96959493929190613269565b60405180910390f35b61023c61088c565b6040516102499190613323565b60405180910390f35b61026c60048036038101906102679190613183565b6108b1565b60405161027b9392919061333c565b60405180910390f35b61029e60048036038101906102999190613183565b610af8565b6040516102ab91906130f7565b60405180910390f35b6102ce60048036038101906102c99190612f86565b610b0d565b005b6102ea60048036038101906102e591906135af565b610f44565b6040516102f791906135db565b60405180910390f35b61031a60048036038101906103159190613648565b611089565b005b61033660048036038101906103319190612f86565b6114fe565b60405161034694939291906136ac565b60405180910390f35b61036960048036038101906103649190613719565b61189a565b005b610373611a3a565b60405161038091906130f7565b60405180910390f35b6103a3600480360381019061039e91906137f4565b611a40565b005b6103bf60048036038101906103ba9190613719565b611cd0565b005b6103db60048036038101906103d6919061384e565b611e5c565b005b6103f760048036038101906103f29190613719565b612301565b60405161040491906135db565b60405180910390f35b61042760048036038101906104229190612f86565b61231e565b604051610437949392919061389e565b60405180910390f35b61045a60048036038101906104559190613183565b6125e8565b60405161046791906130f7565b60405180910390f35b61048a600480360381019061048591906138e1565b6125fd565b005b610494612a31565b6040516104a1919061396d565b60405180910390f35b6104c460048036038101906104bf9190613986565b612a54565b005b6104e060048036038101906104db9190613183565b612e4f565b6040516104ef93929190613ad5565b60405180910390f35b6006602052815f5260405f20602052805f5260405f205f9150915050805f015490806001015490806002015490806003015f9054906101000a900460f81b90806004015490806005015f9054906101000a900460ff16905086565b60025481565b5f805f8054906101000a900473ffffffffffffffffffffffffffffffffffffffff1673ffffffffffffffffffffffffffffffffffffffff166375894e8c336040518263ffffffff1660e01b81526004016105b39190613b0b565b60408051808303815f875af11580156105ce573d5f803e3d5ffd5b505050506040513d601f19601f820116820180604052508101906105f29190613b5b565b915091506002600481111561060a57610609613025565b5b82600481111561061d5761061c613025565b5b1480156106275750805b610666576040517f08c379a000000000000000000000000000000000000000000000000000000000815260040161065d90613c19565b60405180910390fd5b6001841015801561067957506002548411155b6106b8576040517f08c379a00000000000000000000000000000000000000000000000000000000081526004016106af90613c81565b60405180910390fd5b60045f8581526020019081526020015f206004015f9054906101000a900460ff1615610719576040517f08c379a000000000000000000000000000000000000000000000000000000000815260040161071090613d0f565b60405180910390fd5b600160045f8681526020019081526020015f206004015f6101000a81548160ff0219169083151502179055508260045f8681526020019081526020015f2060040160016101000a81548160ff021916908315150217905550837f5e672278b5a4ce7f1deaeb816f60398e65c2401c6f90928e8344510d7fa927553385426040516107a593929190613d2d565b60405180910390a250505050565b6008602052805f5260405f205f91509050805f015f9054906101000a900473ffffffffffffffffffffffffffffffffffffffff1690806001015490806002015490806003015490806004015490806005015490806006015f9054906101000a900460ff16905087565b6004602052805f5260405f205f91509050805f015f9054906101000a900473ffffffffffffffffffffffffffffffffffffffff1690806001015490806002015490806003015490806004015f9054906101000a900460ff16908060040160019054906101000a900460ff16905086565b60015f9054906101000a900473ffffffffffffffffffffffffffffffffffffffff1681565b5f805f805f805f9054906101000a900473ffffffffffffffffffffffffffffffffffffffff1673ffffffffffffffffffffffffffffffffffffffff166375894e8c336040518263ffffffff1660e01b815260040161090f9190613b0b565b60408051808303815f875af115801561092a573d5f803e3d5ffd5b505050506040513d601f19601f8201168201806040525081019061094e9190613b5b565b915091506002600481111561096657610965613025565b5b82600481111561097957610978613025565b5b1480156109835750805b6109c2576040517f08c379a00000000000000000000000000000000000000000000000000000000081526004016109b990613c19565b60405180910390fd5b600186101580156109d557506002548611155b610a14576040517f08c379a0000000000000000000000000000000000000000000000000000000008152600401610a0b90613c81565b60405180910390fd5b5f60045f8881526020019081526020015f206040518060c00160405290815f82015f9054906101000a900473ffffffffffffffffffffffffffffffffffffffff1673ffffffffffffffffffffffffffffffffffffffff1673ffffffffffffffffffffffffffffffffffffffff168152602001600182015481526020016002820154815260200160038201548152602001600482015f9054906101000a900460ff161515151581526020016004820160019054906101000a900460ff1615151515815250509050805f0151816020015182606001519550955095505050509193909250565b6007602052805f5260405f205f915090505481565b805f805f8054906101000a900473ffffffffffffffffffffffffffffffffffffffff1673ffffffffffffffffffffffffffffffffffffffff166375894e8c336040518263ffffffff1660e01b8152600401610b689190613b0b565b60408051808303815f875af1158015610b83573d5f803e3d5ffd5b505050506040513d601f19601f82011682018060405250810190610ba79190613b5b565b91509150600480811115610bbe57610bbd613025565b5b826004811115610bd157610bd0613025565b5b148015610bdb5750805b610c1a576040517f08c379a0000000000000000000000000000000000000000000000000000000008152600401610c1190613dd2565b60405180910390fd5b3373ffffffffffffffffffffffffffffffffffffffff1660085f8581526020019081526020015f205f015f9054906101000a900473ffffffffffffffffffffffffffffffffffffffff1673ffffffffffffffffffffffffffffffffffffffff1614610cba576040517f08c379a0000000000000000000000000000000000000000000000000000000008152600401610cb190613e60565b60405180910390fd5b5f60085f8681526020019081526020015f206040518060e00160405290815f82015f9054906101000a900473ffffffffffffffffffffffffffffffffffffffff1673ffffffffffffffffffffffffffffffffffffffff1673ffffffffffffffffffffffffffffffffffffffff1681526020016001820154815260200160028201548152602001600382015481526020016004820154815260200160058201548152602001600682015f9054906101000a900460ff166003811115610d8157610d80613025565b5b6003811115610d9357610d92613025565b5b81525050905060018510158015610dbb575060075f8781526020019081526020015f20548511155b610dfa576040517f08c379a0000000000000000000000000000000000000000000000000000000008152600401610df190613ec8565b60405180910390fd5b60026003811115610e0e57610e0d613025565b5b8160c001516003811115610e2557610e24613025565b5b14610e65576040517f08c379a0000000000000000000000000000000000000000000000000000000008152600401610e5c90613f56565b60405180910390fd5b8060600151421015610eac576040517f08c379a0000000000000000000000000000000000000000000000000000000008152600401610ea390613fe4565b60405180910390fd5b600360085f8781526020019081526020015f206006015f6101000a81548160ff02191690836003811115610ee357610ee2613025565b5b02179055504260085f8781526020019081526020015f20600401819055507ff0759b1c58f2eb04b7275484184a141f88fedeb54c9a6a48b4e7d9d332edb1a7868642604051610f3493929190614002565b60405180910390a1505050505050565b5f8060015f9054906101000a900473ffffffffffffffffffffffffffffffffffffffff1673ffffffffffffffffffffffffffffffffffffffff1663f6af0311846040518263ffffffff1660e01b8152600401610fa091906140d2565b602060405180830381865afa158015610fbb573d5f803e3d5ffd5b505050506040513d601f19601f82011682018060405250810190610fdf91906140ec565b9050801561107f57600160095f3373ffffffffffffffffffffffffffffffffffffffff1673ffffffffffffffffffffffffffffffffffffffff1681526020019081526020015f205f6101000a81548160ff0219169083151502179055507f6ea640312e182de387819fbeb13be00db3171a445412852248559054871c4199334260405161106d929190614117565b60405180910390a16001915050611084565b5f9150505b919050565b5f805f8054906101000a900473ffffffffffffffffffffffffffffffffffffffff1673ffffffffffffffffffffffffffffffffffffffff166375894e8c336040518263ffffffff1660e01b81526004016110e39190613b0b565b60408051808303815f875af11580156110fe573d5f803e3d5ffd5b505050506040513d601f19601f820116820180604052508101906111229190613b5b565b915091506002600481111561113a57611139613025565b5b82600481111561114d5761114c613025565b5b1480156111575750805b611196576040517f08c379a000000000000000000000000000000000000000000000000000000000815260040161118d90613c19565b60405180910390fd5b5f801b86036111da576040517f08c379a00000000000000000000000000000000000000000000000000000000081526004016111d190614188565b60405180910390fd5b5f851161121c576040517f08c379a0000000000000000000000000000000000000000000000000000000008152600401611213906141f0565b60405180910390fd5b7f4d00000000000000000000000000000000000000000000000000000000000000847effffffffffffffffffffffffffffffffffffffffffffffffffffffffffffff191614806112ad57507f4600000000000000000000000000000000000000000000000000000000000000847effffffffffffffffffffffffffffffffffffffffffffffffffffffffffffff1916145b6112ec576040517f08c379a00000000000000000000000000000000000000000000000000000000081526004016112e390614258565b60405180910390fd5b600183101580156112ff57506002548311155b61133e576040517f08c379a000000000000000000000000000000000000000000000000000000000815260040161133590613c81565b60405180910390fd5b60075f8481526020019081526020015f205f81548092919061135f906142a3565b91905055506040518060c0016040528060075f8681526020019081526020015f20548152602001878152602001868152602001857effffffffffffffffffffffffffffffffffffffffffffffffffffffffffffff191681526020018481526020015f60038111156113d3576113d2613025565b5b81525060065f8581526020019081526020015f205f60075f8781526020019081526020015f205481526020019081526020015f205f820151815f015560208201518160010155604082015181600201556060820151816003015f6101000a81548160ff021916908360f81c02179055506080820151816004015560a0820151816005015f6101000a81548160ff0219169083600381111561147757611476613025565b5b02179055509050508260055f60075f8781526020019081526020015f205481526020019081526020015f20819055507f8f6937edcd05ce1c1912e225ec700cb996d92333e3b1631ce16e703fc6b8e77a60075f8581526020019081526020015f2054878787876040516114ee9594939291906142ea565b60405180910390a1505050505050565b5f805f805f805f8054906101000a900473ffffffffffffffffffffffffffffffffffffffff1673ffffffffffffffffffffffffffffffffffffffff166375894e8c336040518263ffffffff1660e01b815260040161155c9190613b0b565b60408051808303815f875af1158015611577573d5f803e3d5ffd5b505050506040513d601f19601f8201168201806040525081019061159b9190613b5b565b91509150600360048111156115b3576115b2613025565b5b8260048111156115c6576115c5613025565b5b1480156115d05750805b61160f576040517f08c379a0000000000000000000000000000000000000000000000000000000008152600401611606906143ab565b60405180910390fd5b6001881015801561162257506002548811155b611661576040517f08c379a000000000000000000000000000000000000000000000000000000000815260040161165890613c81565b60405180910390fd5b60018710158015611683575060075f8981526020019081526020015f20548711155b6116c2576040517f08c379a00000000000000000000000000000000000000000000000000000000081526004016116b990613ec8565b60405180910390fd5b5f60065f8a81526020019081526020015f205f8981526020019081526020015f206040518060c00160405290815f82015481526020016001820154815260200160028201548152602001600382015f9054906101000a900460f81b7effffffffffffffffffffffffffffffffffffffffffffffffffffffffffffff19167effffffffffffffffffffffffffffffffffffffffffffffffffffffffffffff1916815260200160048201548152602001600582015f9054906101000a900460ff16600381111561179357611792613025565b5b60038111156117a5576117a4613025565b5b8152505090505f60045f8b81526020019081526020015f206040518060c00160405290815f82015f9054906101000a900473ffffffffffffffffffffffffffffffffffffffff1673ffffffffffffffffffffffffffffffffffffffff1673ffffffffffffffffffffffffffffffffffffffff168152602001600182015481526020016002820154815260200160038201548152602001600482015f9054906101000a900460ff161515151581526020016004820160019054906101000a900460ff1615151515815250509050816020015182604001518360600151836060015197509750975097505050505092959194509250565b5f805f8054906101000a900473ffffffffffffffffffffffffffffffffffffffff1673ffffffffffffffffffffffffffffffffffffffff166375894e8c336040518263ffffffff1660e01b81526004016118f49190613b0b565b60408051808303815f875af115801561190f573d5f803e3d5ffd5b505050506040513d601f19601f820116820180604052508101906119339190613b5b565b915091505f600481111561194a57611949613025565b5b82600481111561195d5761195c613025565b5b1480156119675750805b6119a6576040517f08c379a000000000000000000000000000000000000000000000000000000000815260040161199d90614439565b60405180910390fd5b5f60095f8573ffffffffffffffffffffffffffffffffffffffff1673ffffffffffffffffffffffffffffffffffffffff1681526020019081526020015f205f6101000a81548160ff0219169083151502179055507f6f6a404ffd2cea4713256a4fd9ce99c8cf8cf32d85c2bb8061d1603ff57d50c3338442604051611a2d93929190614457565b60405180910390a1505050565b60035481565b5f805f8054906101000a900473ffffffffffffffffffffffffffffffffffffffff1673ffffffffffffffffffffffffffffffffffffffff166375894e8c336040518263ffffffff1660e01b8152600401611a9a9190613b0b565b60408051808303815f875af1158015611ab5573d5f803e3d5ffd5b505050506040513d601f19601f82011682018060405250810190611ad99190613b5b565b9150915060016004811115611af157611af0613025565b5b826004811115611b0457611b03613025565b5b148015611b0e5750805b611b4d576040517f08c379a0000000000000000000000000000000000000000000000000000000008152600401611b44906144fc565b60405180910390fd5b60025f815480929190611b5f906142a3565b91905055506040518060c001604052803373ffffffffffffffffffffffffffffffffffffffff16815260200142815260200184815260200185611ba190614553565b81526020015f151581526020015f151581525060045f60025481526020019081526020015f205f820151815f015f6101000a81548173ffffffffffffffffffffffffffffffffffffffff021916908373ffffffffffffffffffffffffffffffffffffffff1602179055506020820151816001015560408201518160020155606082015181600301556080820151816004015f6101000a81548160ff02191690831515021790555060a08201518160040160016101000a81548160ff0219169083151502179055509050508260035f828254611c7c91906145b9565b925050819055506002547f681f3195132986285e497b66d82a1d87dee04fe482a1e74020677b543e3f7c40334287611cb390614553565b604051611cc29392919061333c565b60405180910390a250505050565b5f805f8054906101000a900473ffffffffffffffffffffffffffffffffffffffff1673ffffffffffffffffffffffffffffffffffffffff166375894e8c336040518263ffffffff1660e01b8152600401611d2a9190613b0b565b60408051808303815f875af1158015611d45573d5f803e3d5ffd5b505050506040513d601f19601f82011682018060405250810190611d699190613b5b565b915091505f6004811115611d8057611d7f613025565b5b826004811115611d9357611d92613025565b5b148015611d9d5750805b611ddc576040517f08c379a0000000000000000000000000000000000000000000000000000000008152600401611dd390614439565b60405180910390fd5b8260015f6101000a81548173ffffffffffffffffffffffffffffffffffffffff021916908373ffffffffffffffffffffffffffffffffffffffff1602179055507fd64ae07f3ddea489022b7c3651c0b93cc96296695feac84461061dfa1f34c0cb338442604051611e4f93929190614457565b60405180910390a1505050565b815f805f8054906101000a900473ffffffffffffffffffffffffffffffffffffffff1673ffffffffffffffffffffffffffffffffffffffff166375894e8c336040518263ffffffff1660e01b8152600401611eb79190613b0b565b60408051808303815f875af1158015611ed2573d5f803e3d5ffd5b505050506040513d601f19601f82011682018060405250810190611ef69190613b5b565b91509150600480811115611f0d57611f0c613025565b5b826004811115611f2057611f1f613025565b5b148015611f2a5750805b611f69576040517f08c379a0000000000000000000000000000000000000000000000000000000008152600401611f6090613dd2565b60405180910390fd5b3373ffffffffffffffffffffffffffffffffffffffff1660085f8581526020019081526020015f205f015f9054906101000a900473ffffffffffffffffffffffffffffffffffffffff1673ffffffffffffffffffffffffffffffffffffffff1614612009576040517f08c379a000000000000000000000000000000000000000000000000000000000815260040161200090613e60565b60405180910390fd5b5f60085f8781526020019081526020015f206040518060e00160405290815f82015f9054906101000a900473ffffffffffffffffffffffffffffffffffffffff1673ffffffffffffffffffffffffffffffffffffffff1673ffffffffffffffffffffffffffffffffffffffff1681526020016001820154815260200160028201548152602001600382015481526020016004820154815260200160058201548152602001600682015f9054906101000a900460ff1660038111156120d0576120cf613025565b5b60038111156120e2576120e1613025565b5b815250509050600187101580156120fb57506002548711155b61213a576040517f08c379a000000000000000000000000000000000000000000000000000000000815260040161213190613c81565b60405180910390fd5b6001861015801561215c575060075f8881526020019081526020015f20548611155b61219b576040517f08c379a000000000000000000000000000000000000000000000000000000000815260040161219290613ec8565b60405180910390fd5b600160038111156121af576121ae613025565b5b8160c0015160038111156121c6576121c5613025565b5b14612206576040517f08c379a00000000000000000000000000000000000000000000000000000000081526004016121fd9061465c565b60405180910390fd5b600260085f8881526020019081526020015f206006015f6101000a81548160ff0219169083600381111561223d5761223c613025565b5b02179055504260085f8881526020019081526020015f2060020181905550600185612268919061467a565b4261227391906145b9565b60085f8881526020019081526020015f20600301819055504260085f8881526020019081526020015f20600401819055507f29dc036766d8e77f495b0b42f18a239419af9f8dd528d84e1251663aa6da16c98787426001896122d5919061467a565b426122e091906145b9565b6040516122f094939291906146bb565b60405180910390a150505050505050565b6009602052805f5260405f205f915054906101000a900460ff1681565b5f805f805f805f8054906101000a900473ffffffffffffffffffffffffffffffffffffffff1673ffffffffffffffffffffffffffffffffffffffff166375894e8c336040518263ffffffff1660e01b815260040161237c9190613b0b565b60408051808303815f875af1158015612397573d5f803e3d5ffd5b505050506040513d601f19601f820116820180604052508101906123bb9190613b5b565b915091505f60048111156123d2576123d1613025565b5b8260048111156123e5576123e4613025565b5b1480156123ef5750805b61242e576040517f08c379a000000000000000000000000000000000000000000000000000000000815260040161242590614439565b60405180910390fd5b5f60085f8981526020019081526020015f206040518060e00160405290815f82015f9054906101000a900473ffffffffffffffffffffffffffffffffffffffff1673ffffffffffffffffffffffffffffffffffffffff1673ffffffffffffffffffffffffffffffffffffffff1681526020016001820154815260200160028201548152602001600382015481526020016004820154815260200160058201548152602001600682015f9054906101000a900460ff1660038111156124f5576124f4613025565b5b600381111561250757612506613025565b5b8152505090506001891015801561252057506002548911155b61255f576040517f08c379a000000000000000000000000000000000000000000000000000000000815260040161255690613c81565b60405180910390fd5b60018810158015612581575060075f8a81526020019081526020015f20548811155b6125c0576040517f08c379a00000000000000000000000000000000000000000000000000000000081526004016125b790613ec8565b60405180910390fd5b8060c00151816080015182604001518360600151965096509650965050505092959194509250565b6005602052805f5260405f205f915090505481565b815f805f8054906101000a900473ffffffffffffffffffffffffffffffffffffffff1673ffffffffffffffffffffffffffffffffffffffff166375894e8c336040518263ffffffff1660e01b81526004016126589190613b0b565b60408051808303815f875af1158015612673573d5f803e3d5ffd5b505050506040513d601f19601f820116820180604052508101906126979190613b5b565b915091506004808111156126ae576126ad613025565b5b8260048111156126c1576126c0613025565b5b1480156126cb5750805b61270a576040517f08c379a000000000000000000000000000000000000000000000000000000000815260040161270190613dd2565b60405180910390fd5b3373ffffffffffffffffffffffffffffffffffffffff1660085f8581526020019081526020015f205f015f9054906101000a900473ffffffffffffffffffffffffffffffffffffffff1673ffffffffffffffffffffffffffffffffffffffff16146127aa576040517f08c379a00000000000000000000000000000000000000000000000000000000081526004016127a190613e60565b60405180910390fd5b5f60085f8781526020019081526020015f206040518060e00160405290815f82015f9054906101000a900473ffffffffffffffffffffffffffffffffffffffff1673ffffffffffffffffffffffffffffffffffffffff1673ffffffffffffffffffffffffffffffffffffffff1681526020016001820154815260200160028201548152602001600382015481526020016004820154815260200160058201548152602001600682015f9054906101000a900460ff16600381111561287157612870613025565b5b600381111561288357612882613025565b5b8152505090506001871015801561289c57506002548711155b6128db576040517f08c379a00000000000000000000000000000000000000000000000000000000081526004016128d290613c81565b60405180910390fd5b600186101580156128fd575060075f8881526020019081526020015f20548611155b61293c576040517f08c379a000000000000000000000000000000000000000000000000000000000815260040161293390613ec8565b60405180910390fd5b600260038111156129505761294f613025565b5b8160c00151600381111561296757612966613025565b5b146129a7576040517f08c379a000000000000000000000000000000000000000000000000000000000815260040161299e90613f56565b60405180910390fd5b846129b190614553565b60085f8881526020019081526020015f20600501819055504260085f8881526020019081526020015f20600401819055507fde2669f070bfb51d280ef42c92c59e3f20bbeef765e99cab94cd673cc2bf0f2f87874288612a1090614553565b604051612a2094939291906146fe565b60405180910390a150505050505050565b5f8054906101000a900473ffffffffffffffffffffffffffffffffffffffff1681565b5f805f8054906101000a900473ffffffffffffffffffffffffffffffffffffffff1673ffffffffffffffffffffffffffffffffffffffff166375894e8c336040518263ffffffff1660e01b8152600401612aae9190613b0b565b60408051808303815f875af1158015612ac9573d5f803e3d5ffd5b505050506040513d601f19601f82011682018060405250810190612aed9190613b5b565b915091505f6004811115612b0457612b03613025565b5b826004811115612b1757612b16613025565b5b148015612b215750805b612b60576040517f08c379a0000000000000000000000000000000000000000000000000000000008152600401612b5790614439565b60405180910390fd5b5f60065f8781526020019081526020015f205f8681526020019081526020015f206040518060c00160405290815f82015481526020016001820154815260200160028201548152602001600382015f9054906101000a900460f81b7effffffffffffffffffffffffffffffffffffffffffffffffffffffffffffff19167effffffffffffffffffffffffffffffffffffffffffffffffffffffffffffff1916815260200160048201548152602001600582015f9054906101000a900460ff166003811115612c3157612c30613025565b5b6003811115612c4357612c42613025565b5b8152505090505f6003811115612c5c57612c5b613025565b5b8160a001516003811115612c7357612c72613025565b5b14612cb3576040517f08c379a0000000000000000000000000000000000000000000000000000000008152600401612caa906147d7565b60405180910390fd5b60018610158015612cc657506002548611155b612d05576040517f08c379a0000000000000000000000000000000000000000000000000000000008152600401612cfc90613c81565b60405180910390fd5b60018510158015612d27575060075f8781526020019081526020015f20548511155b612d66576040517f08c379a0000000000000000000000000000000000000000000000000000000008152600401612d5d90613ec8565b60405180910390fd5b8360085f8781526020019081526020015f205f015f6101000a81548173ffffffffffffffffffffffffffffffffffffffff021916908373ffffffffffffffffffffffffffffffffffffffff1602179055508460085f8781526020019081526020015f2060010181905550600160085f8781526020019081526020015f206006015f6101000a81548160ff02191690836003811115612e0757612e06613025565b5b02179055507fe1a03807ff7b7d8ac4c42cf3fe3905d10b2b30935d18974726482db3bf232e36858786604051612e3f939291906147f5565b60405180910390a1505050505050565b600a602052805f5260405f205f91509050805f016040518060400160405290815f820154815260200160018201548152505090806002016040518060400160405290815f8201600280602002604051908101604052809291908260028015612ecc576020028201915b815481526020019060010190808311612eb8575b5050505050815260200160028201600280602002604051908101604052809291908260028015612f11576020028201915b815481526020019060010190808311612efd575b50505050508152505090806006016040518060400160405290815f8201548152602001600182015481525050905083565b5f604051905090565b5f80fd5b5f80fd5b5f819050919050565b612f6581612f53565b8114612f6f575f80fd5b50565b5f81359050612f8081612f5c565b92915050565b5f8060408385031215612f9c57612f9b612f4b565b5b5f612fa985828601612f72565b9250506020612fba85828601612f72565b9150509250929050565b612fcd81612f53565b82525050565b5f819050919050565b612fe581612fd3565b82525050565b5f7fff0000000000000000000000000000000000000000000000000000000000000082169050919050565b61301f81612feb565b82525050565b7f4e487b71000000000000000000000000000000000000000000000000000000005f52602160045260245ffd5b6004811061306357613062613025565b5b50565b5f81905061307382613052565b919050565b5f61308282613066565b9050919050565b61309281613078565b82525050565b5f60c0820190506130ab5f830189612fc4565b6130b86020830188612fdc565b6130c56040830187612fc4565b6130d26060830186613016565b6130df6080830185612fc4565b6130ec60a0830184613089565b979650505050505050565b5f60208201905061310a5f830184612fc4565b92915050565b5f8115159050919050565b61312481613110565b811461312e575f80fd5b50565b5f8135905061313f8161311b565b92915050565b5f806040838503121561315b5761315a612f4b565b5b5f61316885828601612f72565b925050602061317985828601613131565b9150509250929050565b5f6020828403121561319857613197612f4b565b5b5f6131a584828501612f72565b91505092915050565b5f73ffffffffffffffffffffffffffffffffffffffff82169050919050565b5f6131d7826131ae565b9050919050565b6131e7816131cd565b82525050565b5f60e0820190506132005f83018a6131de565b61320d6020830189612fc4565b61321a6040830188612fc4565b6132276060830187612fc4565b6132346080830186612fc4565b61324160a0830185612fdc565b61324e60c0830184613089565b98975050505050505050565b61326381613110565b82525050565b5f60c08201905061327c5f8301896131de565b6132896020830188612fc4565b6132966040830187612fc4565b6132a36060830186612fdc565b6132b0608083018561325a565b6132bd60a083018461325a565b979650505050505050565b5f819050919050565b5f6132eb6132e66132e1846131ae565b6132c8565b6131ae565b9050919050565b5f6132fc826132d1565b9050919050565b5f61330d826132f2565b9050919050565b61331d81613303565b82525050565b5f6020820190506133365f830184613314565b92915050565b5f60608201905061334f5f8301866131de565b61335c6020830185612fc4565b6133696040830184612fdc565b949350505050565b5f80fd5b5f601f19601f8301169050919050565b7f4e487b71000000000000000000000000000000000000000000000000000000005f52604160045260245ffd5b6133bb82613375565b810181811067ffffffffffffffff821117156133da576133d9613385565b5b80604052505050565b5f6133ec612f42565b90506133f882826133b2565b919050565b5f6040828403121561341257613411613371565b5b61341c60406133e3565b90505f61342b84828501612f72565b5f83015250602061343e84828501612f72565b60208301525092915050565b5f80fd5b5f67ffffffffffffffff82111561346857613467613385565b5b602082029050919050565b5f80fd5b5f6134896134848461344e565b6133e3565b905080602084028301858111156134a3576134a2613473565b5b835b818110156134cc57806134b88882612f72565b8452602084019350506020810190506134a5565b5050509392505050565b5f82601f8301126134ea576134e961344a565b5b60026134f7848285613477565b91505092915050565b5f6080828403121561351557613514613371565b5b61351f60406133e3565b90505f61352e848285016134d6565b5f830152506040613541848285016134d6565b60208301525092915050565b5f610100828403121561356357613562613371565b5b61356d60606133e3565b90505f61357c848285016133fd565b5f83015250604061358f84828501613500565b60208301525060c06135a3848285016133fd565b60408301525092915050565b5f61010082840312156135c5576135c4612f4b565b5b5f6135d28482850161354d565b91505092915050565b5f6020820190506135ee5f83018461325a565b92915050565b6135fd81612fd3565b8114613607575f80fd5b50565b5f81359050613618816135f4565b92915050565b61362781612feb565b8114613631575f80fd5b50565b5f813590506136428161361e565b92915050565b5f805f80608085870312156136605761365f612f4b565b5b5f61366d8782880161360a565b945050602061367e87828801612f72565b935050604061368f87828801613634565b92505060606136a087828801612f72565b91505092959194509250565b5f6080820190506136bf5f830187612fdc565b6136cc6020830186612fc4565b6136d96040830185613016565b6136e66060830184612fdc565b95945050505050565b6136f8816131cd565b8114613702575f80fd5b50565b5f81359050613713816136ef565b92915050565b5f6020828403121561372e5761372d612f4b565b5b5f61373b84828501613705565b91505092915050565b5f80fd5b5f67ffffffffffffffff82111561376257613761613385565b5b61376b82613375565b9050602081019050919050565b828183375f83830152505050565b5f61379861379384613748565b6133e3565b9050828152602081018484840111156137b4576137b3613744565b5b6137bf848285613778565b509392505050565b5f82601f8301126137db576137da61344a565b5b81356137eb848260208601613786565b91505092915050565b5f806040838503121561380a57613809612f4b565b5b5f83013567ffffffffffffffff81111561382757613826612f4f565b5b613833858286016137c7565b925050602061384485828601612f72565b9150509250929050565b5f805f6060848603121561386557613864612f4b565b5b5f61387286828701612f72565b935050602061388386828701612f72565b925050604061389486828701612f72565b9150509250925092565b5f6080820190506138b15f830187613089565b6138be6020830186612fc4565b6138cb6040830185612fc4565b6138d86060830184612fc4565b95945050505050565b5f805f606084860312156138f8576138f7612f4b565b5b5f61390586828701612f72565b935050602061391686828701612f72565b925050604084013567ffffffffffffffff81111561393757613936612f4f565b5b613943868287016137c7565b9150509250925092565b5f613957826132f2565b9050919050565b6139678161394d565b82525050565b5f6020820190506139805f83018461395e565b92915050565b5f805f6060848603121561399d5761399c612f4b565b5b5f6139aa86828701612f72565b93505060206139bb86828701612f72565b92505060406139cc86828701613705565b9150509250925092565b6139df81612f53565b82525050565b604082015f8201516139f95f8501826139d6565b506020820151613a0c60208501826139d6565b50505050565b5f60029050919050565b5f81905092915050565b5f819050919050565b5f613a3a83836139d6565b60208301905092915050565b5f602082019050919050565b613a5b81613a12565b613a658184613a1c565b9250613a7082613a26565b805f5b83811015613aa0578151613a878782613a2f565b9650613a9283613a46565b925050600181019050613a73565b505050505050565b608082015f820151613abc5f850182613a52565b506020820151613acf6040850182613a52565b50505050565b5f61010082019050613ae95f8301866139e5565b613af66040830185613aa8565b613b0360c08301846139e5565b949350505050565b5f602082019050613b1e5f8301846131de565b92915050565b60058110613b30575f80fd5b50565b5f81519050613b4181613b24565b92915050565b5f81519050613b558161311b565b92915050565b5f8060408385031215613b7157613b70612f4b565b5b5f613b7e85828601613b33565b9250506020613b8f85828601613b47565b9150509250929050565b5f82825260208201905092915050565b7f4f6e6c792074686520496e7370656374696f6e204167656e742063616e2072755f8201527f6e20746869732066756e6374696f6e0000000000000000000000000000000000602082015250565b5f613c03602f83613b99565b9150613c0e82613ba9565b604082019050919050565b5f6020820190508181035f830152613c3081613bf7565b9050919050565b7f496e76616c6964205265706f72742049440000000000000000000000000000005f82015250565b5f613c6b601183613b99565b9150613c7682613c37565b602082019050919050565b5f6020820190508181035f830152613c9881613c5f565b9050919050565b7f54686973207265706f72742068617320616c7265616479206265656e20696e735f8201527f7065637465640000000000000000000000000000000000000000000000000000602082015250565b5f613cf9602683613b99565b9150613d0482613c9f565b604082019050919050565b5f6020820190508181035f830152613d2681613ced565b9050919050565b5f606082019050613d405f8301866131de565b613d4d602083018561325a565b613d5a6040830184612fc4565b949350505050565b7f4f6e6c7920746865204368696c6420477561726469616e2063616e2072756e205f8201527f746869732066756e6374696f6e00000000000000000000000000000000000000602082015250565b5f613dbc602d83613b99565b9150613dc782613d62565b604082019050919050565b5f6020820190508181035f830152613de981613db0565b9050919050565b7f4f6e6c79207468652061737369676e656420477561726469616e20746f2074685f8201527f6973206368696c642063616e2072756e20746869732066756e6374696f6e0000602082015250565b5f613e4a603e83613b99565b9150613e5582613df0565b604082019050919050565b5f6020820190508181035f830152613e7781613e3e565b9050919050565b7f496e76616c6964204368696c64204944000000000000000000000000000000005f82015250565b5f613eb2601083613b99565b9150613ebd82613e7e565b602082019050919050565b5f6020820190508181035f830152613edf81613ea6565b9050919050565b7f54686973206368696c64206973206e6f742063757272656e746c7920696e20725f8201527f656d6564696174696f6e00000000000000000000000000000000000000000000602082015250565b5f613f40602a83613b99565b9150613f4b82613ee6565b604082019050919050565b5f6020820190508181035f830152613f6d81613f34565b9050919050565b7f5468652074696d652077696e646f7720666f722072656d6564696174696f6e205f8201527f6973207374696c6c206f70656e00000000000000000000000000000000000000602082015250565b5f613fce602d83613b99565b9150613fd982613f74565b604082019050919050565b5f6020820190508181035f830152613ffb81613fc2565b9050919050565b5f6060820190506140155f830186612fc4565b6140226020830185612fc4565b61402f6040830184612fc4565b949350505050565b604082015f82015161404b5f8501826139d6565b50602082015161405e60208501826139d6565b50505050565b608082015f8201516140785f850182613a52565b50602082015161408b6040850182613a52565b50505050565b61010082015f8201516140a65f850182614037565b5060208201516140b96040850182614064565b5060408201516140cc60c0850182614037565b50505050565b5f610100820190506140e65f830184614091565b92915050565b5f6020828403121561410157614100612f4b565b5b5f61410e84828501613b47565b91505092915050565b5f60408201905061412a5f8301856131de565b6141376020830184612fc4565b9392505050565b7f496e76616c696420686173686564206e616d65000000000000000000000000005f82015250565b5f614172601383613b99565b915061417d8261413e565b602082019050919050565b5f6020820190508181035f83015261419f81614166565b9050919050565b7f496e76616c6964204167650000000000000000000000000000000000000000005f82015250565b5f6141da600b83613b99565b91506141e5826141a6565b602082019050919050565b5f6020820190508181035f830152614207816141ce565b9050919050565b7f496e76616c69642047656e6465720000000000000000000000000000000000005f82015250565b5f614242600e83613b99565b915061424d8261420e565b602082019050919050565b5f6020820190508181035f83015261426f81614236565b9050919050565b7f4e487b71000000000000000000000000000000000000000000000000000000005f52601160045260245ffd5b5f6142ad82612f53565b91507fffffffffffffffffffffffffffffffffffffffffffffffffffffffffffffffff82036142df576142de614276565b5b600182019050919050565b5f60a0820190506142fd5f830188612fc4565b61430a6020830187612fdc565b6143176040830186612fc4565b6143246060830185613016565b6143316080830184612fc4565b9695505050505050565b7f4f6e6c7920746865204461746120416e616c7973742063616e2072756e2074685f8201527f69732066756e6374696f6e000000000000000000000000000000000000000000602082015250565b5f614395602b83613b99565b91506143a08261433b565b604082019050919050565b5f6020820190508181035f8301526143c281614389565b9050919050565b7f4f6e6c792074686520726567756c61746f727920617574686f726974792063615f8201527f6e2072756e20746869732066756e6374696f6e00000000000000000000000000602082015250565b5f614423603383613b99565b915061442e826143c9565b604082019050919050565b5f6020820190508181035f83015261445081614417565b9050919050565b5f60608201905061446a5f8301866131de565b61447760208301856131de565b6144846040830184612fc4565b949350505050565b7f4f6e6c7920746865204c696169736f6e204f6666696365722063616e2072756e5f8201527f20746869732066756e6374696f6e000000000000000000000000000000000000602082015250565b5f6144e6602e83613b99565b91506144f18261448c565b604082019050919050565b5f6020820190508181035f830152614513816144da565b9050919050565b5f81519050919050565b5f819050602082019050919050565b5f61453e8251612fd3565b80915050919050565b5f82821b905092915050565b5f61455d8261451a565b8261456784614524565b905061457281614533565b925060208210156145b2576145ad7fffffffffffffffffffffffffffffffffffffffffffffffffffffffffffffffff83602003600802614547565b831692505b5050919050565b5f6145c382612f53565b91506145ce83612f53565b92508282019050808211156145e6576145e5614276565b5b92915050565b7f54686973206368696c64206973206e6f7420726561647920666f722072656d655f8201527f64696174696f6e00000000000000000000000000000000000000000000000000602082015250565b5f614646602783613b99565b9150614651826145ec565b604082019050919050565b5f6020820190508181035f8301526146738161463a565b9050919050565b5f61468482612f53565b915061468f83612f53565b925082820261469d81612f53565b915082820484148315176146b4576146b3614276565b5b5092915050565b5f6080820190506146ce5f830187612fc4565b6146db6020830186612fc4565b6146e86040830185612fc4565b6146f56060830184612fc4565b95945050505050565b5f6080820190506147115f830187612fc4565b61471e6020830186612fc4565b61472b6040830185612fc4565b6147386060830184612fdc565b95945050505050565b7f54686973206368696c6420496420646f6573206e6f74206578697374206f72205f8201527f68617320616c7265616479206265656e2061737369676e65642061206775617260208201527f6469616e00000000000000000000000000000000000000000000000000000000604082015250565b5f6147c1604483613b99565b91506147cc82614741565b606082019050919050565b5f6020820190508181035f8301526147ee816147b5565b9050919050565b5f6060820190506148085f830186612fc4565b6148156020830185612fc4565b61482260408301846131de565b94935050505056fea26469706673582212202bb8ed68b3af9bce86b399708776d278a250c7134f44bab6c4b73132674607df64736f6c63430008150033",
			"opcodes": "PUSH1 0x80 PUSH1 0x40 MSTORE CALLVALUE DUP1 ISZERO PUSH3 0x10 JUMPI PUSH0 DUP1 REVERT JUMPDEST POP PUSH1 0x40 MLOAD PUSH3 0x49E3 CODESIZE SUB DUP1 PUSH3 0x49E3 DUP4 CODECOPY DUP2 DUP2 ADD PUSH1 0x40 MSTORE DUP2 ADD SWAP1 PUSH3 0x36 SWAP2 SWAP1 PUSH3 0x130 JUMP JUMPDEST DUP2 PUSH0 DUP1 PUSH2 0x100 EXP DUP2 SLOAD DUP2 PUSH20 0xFFFFFFFFFFFFFFFFFFFFFFFFFFFFFFFFFFFFFFFF MUL NOT AND SWAP1 DUP4 PUSH20 0xFFFFFFFFFFFFFFFFFFFFFFFFFFFFFFFFFFFFFFFF AND MUL OR SWAP1 SSTORE POP DUP1 PUSH1 0x1 PUSH0 PUSH2 0x100 EXP DUP2 SLOAD DUP2 PUSH20 0xFFFFFFFFFFFFFFFFFFFFFFFFFFFFFFFFFFFFFFFF MUL NOT AND SWAP1 DUP4 PUSH20 0xFFFFFFFFFFFFFFFFFFFFFFFFFFFFFFFFFFFFFFFF AND MUL OR SWAP1 SSTORE POP PUSH0 PUSH1 0x2 DUP2 SWAP1 SSTORE POP PUSH0 PUSH1 0x3 DUP2 SWAP1 SSTORE POP POP POP PUSH3 0x175 JUMP JUMPDEST PUSH0 DUP1 REVERT JUMPDEST PUSH0 PUSH20 0xFFFFFFFFFFFFFFFFFFFFFFFFFFFFFFFFFFFFFFFF DUP3 AND SWAP1 POP SWAP2 SWAP1 POP JUMP JUMPDEST PUSH0 PUSH3 0xFA DUP3 PUSH3 0xCF JUMP JUMPDEST SWAP1 POP SWAP2 SWAP1 POP JUMP JUMPDEST PUSH3 0x10C DUP2 PUSH3 0xEE JUMP JUMPDEST DUP2 EQ PUSH3 0x117 JUMPI PUSH0 DUP1 REVERT JUMPDEST POP JUMP JUMPDEST PUSH0 DUP2 MLOAD SWAP1 POP PUSH3 0x12A DUP2 PUSH3 0x101 JUMP JUMPDEST SWAP3 SWAP2 POP POP JUMP JUMPDEST PUSH0 DUP1 PUSH1 0x40 DUP4 DUP6 SUB SLT ISZERO PUSH3 0x149 JUMPI PUSH3 0x148 PUSH3 0xCB JUMP JUMPDEST JUMPDEST PUSH0 PUSH3 0x158 DUP6 DUP3 DUP7 ADD PUSH3 0x11A JUMP JUMPDEST SWAP3 POP POP PUSH1 0x20 PUSH3 0x16B DUP6 DUP3 DUP7 ADD PUSH3 0x11A JUMP JUMPDEST SWAP2 POP POP SWAP3 POP SWAP3 SWAP1 POP JUMP JUMPDEST PUSH2 0x4860 DUP1 PUSH3 0x183 PUSH0 CODECOPY PUSH0 RETURN INVALID PUSH1 0x80 PUSH1 0x40 MSTORE CALLVALUE DUP1 ISZERO PUSH2 0xF JUMPI PUSH0 DUP1 REVERT JUMPDEST POP PUSH1 0x4 CALLDATASIZE LT PUSH2 0x156 JUMPI PUSH0 CALLDATALOAD PUSH1 0xE0 SHR DUP1 PUSH4 0x85E68531 GT PUSH2 0xC1 JUMPI DUP1 PUSH4 0xA1DC99B4 GT PUSH2 0x7A JUMPI DUP1 PUSH4 0xA1DC99B4 EQ PUSH2 0x40D JUMPI DUP1 PUSH4 0xB05EFAAB EQ PUSH2 0x440 JUMPI DUP1 PUSH4 0xE60E5EE2 EQ PUSH2 0x470 JUMPI DUP1 PUSH4 0xE8A37919 EQ PUSH2 0x48C JUMPI DUP1 PUSH4 0xEFF5CFAE EQ PUSH2 0x4AA JUMPI DUP1 PUSH4 0xF8B4D690 EQ PUSH2 0x4C6 JUMPI PUSH2 0x156 JUMP JUMPDEST DUP1 PUSH4 0x85E68531 EQ PUSH2 0x34F JUMPI DUP1 PUSH4 0x8BC3BBC0 EQ PUSH2 0x36B JUMPI DUP1 PUSH4 0x8FE2D950 EQ PUSH2 0x389 JUMPI DUP1 PUSH4 0x97FC007C EQ PUSH2 0x3A5 JUMPI DUP1 PUSH4 0x992CC022 EQ PUSH2 0x3C1 JUMPI DUP1 PUSH4 0xA0619D4A EQ PUSH2 0x3DD JUMPI PUSH2 0x156 JUMP JUMPDEST DUP1 PUSH4 0x636D0262 GT PUSH2 0x113 JUMPI DUP1 PUSH4 0x636D0262 EQ PUSH2 0x252 JUMPI DUP1 PUSH4 0x6388BAFC EQ PUSH2 0x284 JUMPI DUP1 PUSH4 0x739F48A6 EQ PUSH2 0x2B4 JUMPI DUP1 PUSH4 0x7A7935A7 EQ PUSH2 0x2D0 JUMPI DUP1 PUSH4 0x832DE71E EQ PUSH2 0x300 JUMPI DUP1 PUSH4 0x84E2395D EQ PUSH2 0x31C JUMPI PUSH2 0x156 JUMP JUMPDEST DUP1 PUSH4 0x12F1A83A EQ PUSH2 0x15A JUMPI DUP1 PUSH4 0x185C6F84 EQ PUSH2 0x18F JUMPI DUP1 PUSH4 0x28C10330 EQ PUSH2 0x1AD JUMPI DUP1 PUSH4 0x2B76EA9C EQ PUSH2 0x1C9 JUMPI DUP1 PUSH4 0x3835A119 EQ PUSH2 0x1FF JUMPI DUP1 PUSH4 0x53CA8115 EQ PUSH2 0x234 JUMPI JUMPDEST PUSH0 DUP1 REVERT JUMPDEST PUSH2 0x174 PUSH1 0x4 DUP1 CALLDATASIZE SUB DUP2 ADD SWAP1 PUSH2 0x16F SWAP2 SWAP1 PUSH2 0x2F86 JUMP JUMPDEST PUSH2 0x4F8 JUMP JUMPDEST PUSH1 0x40 MLOAD PUSH2 0x186 SWAP7 SWAP6 SWAP5 SWAP4 SWAP3 SWAP2 SWAP1 PUSH2 0x3098 JUMP JUMPDEST PUSH1 0x40 MLOAD DUP1 SWAP2 SUB SWAP1 RETURN JUMPDEST PUSH2 0x197 PUSH2 0x553 JUMP JUMPDEST PUSH1 0x40 MLOAD PUSH2 0x1A4 SWAP2 SWAP1 PUSH2 0x30F7 JUMP JUMPDEST PUSH1 0x40 MLOAD DUP1 SWAP2 SUB SWAP1 RETURN JUMPDEST PUSH2 0x1C7 PUSH1 0x4 DUP1 CALLDATASIZE SUB DUP2 ADD SWAP1 PUSH2 0x1C2 SWAP2 SWAP1 PUSH2 0x3145 JUMP JUMPDEST PUSH2 0x559 JUMP JUMPDEST STOP JUMPDEST PUSH2 0x1E3 PUSH1 0x4 DUP1 CALLDATASIZE SUB DUP2 ADD SWAP1 PUSH2 0x1DE SWAP2 SWAP1 PUSH2 0x3183 JUMP JUMPDEST PUSH2 0x7B3 JUMP JUMPDEST PUSH1 0x40 MLOAD PUSH2 0x1F6 SWAP8 SWAP7 SWAP6 SWAP5 SWAP4 SWAP3 SWAP2 SWAP1 PUSH2 0x31ED JUMP JUMPDEST PUSH1 0x40 MLOAD DUP1 SWAP2 SUB SWAP1 RETURN JUMPDEST PUSH2 0x219 PUSH1 0x4 DUP1 CALLDATASIZE SUB DUP2 ADD SWAP1 PUSH2 0x214 SWAP2 SWAP1 PUSH2 0x3183 JUMP JUMPDEST PUSH2 0x81C JUMP JUMPDEST PUSH1 0x40 MLOAD PUSH2 0x22B SWAP7 SWAP6 SWAP5 SWAP4 SWAP3 SWAP2 SWAP1 PUSH2 0x3269 JUMP JUMPDEST PUSH1 0x40 MLOAD DUP1 SWAP2 SUB SWAP1 RETURN JUMPDEST PUSH2 0x23C PUSH2 0x88C JUMP JUMPDEST PUSH1 0x40 MLOAD PUSH2 0x249 SWAP2 SWAP1 PUSH2 0x3323 JUMP JUMPDEST PUSH1 0x40 MLOAD DUP1 SWAP2 SUB SWAP1 RETURN JUMPDEST PUSH2 0x26C PUSH1 0x4 DUP1 CALLDATASIZE SUB DUP2 ADD SWAP1 PUSH2 0x267 SWAP2 SWAP1 PUSH2 0x3183 JUMP JUMPDEST PUSH2 0x8B1 JUMP JUMPDEST PUSH1 0x40 MLOAD PUSH2 0x27B SWAP4 SWAP3 SWAP2 SWAP1 PUSH2 0x333C JUMP JUMPDEST PUSH1 0x40 MLOAD DUP1 SWAP2 SUB SWAP1 RETURN JUMPDEST PUSH2 0x29E PUSH1 0x4 DUP1 CALLDATASIZE SUB DUP2 ADD SWAP1 PUSH2 0x299 SWAP2 SWAP1 PUSH2 0x3183 JUMP JUMPDEST PUSH2 0xAF8 JUMP JUMPDEST PUSH1 0x40 MLOAD PUSH2 0x2AB SWAP2 SWAP1 PUSH2 0x30F7 JUMP JUMPDEST PUSH1 0x40 MLOAD DUP1 SWAP2 SUB SWAP1 RETURN JUMPDEST PUSH2 0x2CE PUSH1 0x4 DUP1 CALLDATASIZE SUB DUP2 ADD SWAP1 PUSH2 0x2C9 SWAP2 SWAP1 PUSH2 0x2F86 JUMP JUMPDEST PUSH2 0xB0D JUMP JUMPDEST STOP JUMPDEST PUSH2 0x2EA PUSH1 0x4 DUP1 CALLDATASIZE SUB DUP2 ADD SWAP1 PUSH2 0x2E5 SWAP2 SWAP1 PUSH2 0x35AF JUMP JUMPDEST PUSH2 0xF44 JUMP JUMPDEST PUSH1 0x40 MLOAD PUSH2 0x2F7 SWAP2 SWAP1 PUSH2 0x35DB JUMP JUMPDEST PUSH1 0x40 MLOAD DUP1 SWAP2 SUB SWAP1 RETURN JUMPDEST PUSH2 0x31A PUSH1 0x4 DUP1 CALLDATASIZE SUB DUP2 ADD SWAP1 PUSH2 0x315 SWAP2 SWAP1 PUSH2 0x3648 JUMP JUMPDEST PUSH2 0x1089 JUMP JUMPDEST STOP JUMPDEST PUSH2 0x336 PUSH1 0x4 DUP1 CALLDATASIZE SUB DUP2 ADD SWAP1 PUSH2 0x331 SWAP2 SWAP1 PUSH2 0x2F86 JUMP JUMPDEST PUSH2 0x14FE JUMP JUMPDEST PUSH1 0x40 MLOAD PUSH2 0x346 SWAP5 SWAP4 SWAP3 SWAP2 SWAP1 PUSH2 0x36AC JUMP JUMPDEST PUSH1 0x40 MLOAD DUP1 SWAP2 SUB SWAP1 RETURN JUMPDEST PUSH2 0x369 PUSH1 0x4 DUP1 CALLDATASIZE SUB DUP2 ADD SWAP1 PUSH2 0x364 SWAP2 SWAP1 PUSH2 0x3719 JUMP JUMPDEST PUSH2 0x189A JUMP JUMPDEST STOP JUMPDEST PUSH2 0x373 PUSH2 0x1A3A JUMP JUMPDEST PUSH1 0x40 MLOAD PUSH2 0x380 SWAP2 SWAP1 PUSH2 0x30F7 JUMP JUMPDEST PUSH1 0x40 MLOAD DUP1 SWAP2 SUB SWAP1 RETURN JUMPDEST PUSH2 0x3A3 PUSH1 0x4 DUP1 CALLDATASIZE SUB DUP2 ADD SWAP1 PUSH2 0x39E SWAP2 SWAP1 PUSH2 0x37F4 JUMP JUMPDEST PUSH2 0x1A40 JUMP JUMPDEST STOP JUMPDEST PUSH2 0x3BF PUSH1 0x4 DUP1 CALLDATASIZE SUB DUP2 ADD SWAP1 PUSH2 0x3BA SWAP2 SWAP1 PUSH2 0x3719 JUMP JUMPDEST PUSH2 0x1CD0 JUMP JUMPDEST STOP JUMPDEST PUSH2 0x3DB PUSH1 0x4 DUP1 CALLDATASIZE SUB DUP2 ADD SWAP1 PUSH2 0x3D6 SWAP2 SWAP1 PUSH2 0x384E JUMP JUMPDEST PUSH2 0x1E5C JUMP JUMPDEST STOP JUMPDEST PUSH2 0x3F7 PUSH1 0x4 DUP1 CALLDATASIZE SUB DUP2 ADD SWAP1 PUSH2 0x3F2 SWAP2 SWAP1 PUSH2 0x3719 JUMP JUMPDEST PUSH2 0x2301 JUMP JUMPDEST PUSH1 0x40 MLOAD PUSH2 0x404 SWAP2 SWAP1 PUSH2 0x35DB JUMP JUMPDEST PUSH1 0x40 MLOAD DUP1 SWAP2 SUB SWAP1 RETURN JUMPDEST PUSH2 0x427 PUSH1 0x4 DUP1 CALLDATASIZE SUB DUP2 ADD SWAP1 PUSH2 0x422 SWAP2 SWAP1 PUSH2 0x2F86 JUMP JUMPDEST PUSH2 0x231E JUMP JUMPDEST PUSH1 0x40 MLOAD PUSH2 0x437 SWAP5 SWAP4 SWAP3 SWAP2 SWAP1 PUSH2 0x389E JUMP JUMPDEST PUSH1 0x40 MLOAD DUP1 SWAP2 SUB SWAP1 RETURN JUMPDEST PUSH2 0x45A PUSH1 0x4 DUP1 CALLDATASIZE SUB DUP2 ADD SWAP1 PUSH2 0x455 SWAP2 SWAP1 PUSH2 0x3183 JUMP JUMPDEST PUSH2 0x25E8 JUMP JUMPDEST PUSH1 0x40 MLOAD PUSH2 0x467 SWAP2 SWAP1 PUSH2 0x30F7 JUMP JUMPDEST PUSH1 0x40 MLOAD DUP1 SWAP2 SUB SWAP1 RETURN JUMPDEST PUSH2 0x48A PUSH1 0x4 DUP1 CALLDATASIZE SUB DUP2 ADD SWAP1 PUSH2 0x485 SWAP2 SWAP1 PUSH2 0x38E1 JUMP JUMPDEST PUSH2 0x25FD JUMP JUMPDEST STOP JUMPDEST PUSH2 0x494 PUSH2 0x2A31 JUMP JUMPDEST PUSH1 0x40 MLOAD PUSH2 0x4A1 SWAP2 SWAP1 PUSH2 0x396D JUMP JUMPDEST PUSH1 0x40 MLOAD DUP1 SWAP2 SUB SWAP1 RETURN JUMPDEST PUSH2 0x4C4 PUSH1 0x4 DUP1 CALLDATASIZE SUB DUP2 ADD SWAP1 PUSH2 0x4BF SWAP2 SWAP1 PUSH2 0x3986 JUMP JUMPDEST PUSH2 0x2A54 JUMP JUMPDEST STOP JUMPDEST PUSH2 0x4E0 PUSH1 0x4 DUP1 CALLDATASIZE SUB DUP2 ADD SWAP1 PUSH2 0x4DB SWAP2 SWAP1 PUSH2 0x3183 JUMP JUMPDEST PUSH2 0x2E4F JUMP JUMPDEST PUSH1 0x40 MLOAD PUSH2 0x4EF SWAP4 SWAP3 SWAP2 SWAP1 PUSH2 0x3AD5 JUMP JUMPDEST PUSH1 0x40 MLOAD DUP1 SWAP2 SUB SWAP1 RETURN JUMPDEST PUSH1 0x6 PUSH1 0x20 MSTORE DUP2 PUSH0 MSTORE PUSH1 0x40 PUSH0 KECCAK256 PUSH1 0x20 MSTORE DUP1 PUSH0 MSTORE PUSH1 0x40 PUSH0 KECCAK256 PUSH0 SWAP2 POP SWAP2 POP POP DUP1 PUSH0 ADD SLOAD SWAP1 DUP1 PUSH1 0x1 ADD SLOAD SWAP1 DUP1 PUSH1 0x2 ADD SLOAD SWAP1 DUP1 PUSH1 0x3 ADD PUSH0 SWAP1 SLOAD SWAP1 PUSH2 0x100 EXP SWAP1 DIV PUSH1 0xF8 SHL SWAP1 DUP1 PUSH1 0x4 ADD SLOAD SWAP1 DUP1 PUSH1 0x5 ADD PUSH0 SWAP1 SLOAD SWAP1 PUSH2 0x100 EXP SWAP1 DIV PUSH1 0xFF AND SWAP1 POP DUP7 JUMP JUMPDEST PUSH1 0x2 SLOAD DUP2 JUMP JUMPDEST PUSH0 DUP1 PUSH0 DUP1 SLOAD SWAP1 PUSH2 0x100 EXP SWAP1 DIV PUSH20 0xFFFFFFFFFFFFFFFFFFFFFFFFFFFFFFFFFFFFFFFF AND PUSH20 0xFFFFFFFFFFFFFFFFFFFFFFFFFFFFFFFFFFFFFFFF AND PUSH4 0x75894E8C CALLER PUSH1 0x40 MLOAD DUP3 PUSH4 0xFFFFFFFF AND PUSH1 0xE0 SHL DUP2 MSTORE PUSH1 0x4 ADD PUSH2 0x5B3 SWAP2 SWAP1 PUSH2 0x3B0B JUMP JUMPDEST PUSH1 0x40 DUP1 MLOAD DUP1 DUP4 SUB DUP2 PUSH0 DUP8 GAS CALL ISZERO DUP1 ISZERO PUSH2 0x5CE JUMPI RETURNDATASIZE PUSH0 DUP1 RETURNDATACOPY RETURNDATASIZE PUSH0 REVERT JUMPDEST POP POP POP POP PUSH1 0x40 MLOAD RETURNDATASIZE PUSH1 0x1F NOT PUSH1 0x1F DUP3 ADD AND DUP3 ADD DUP1 PUSH1 0x40 MSTORE POP DUP2 ADD SWAP1 PUSH2 0x5F2 SWAP2 SWAP1 PUSH2 0x3B5B JUMP JUMPDEST SWAP2 POP SWAP2 POP PUSH1 0x2 PUSH1 0x4 DUP2 GT ISZERO PUSH2 0x60A JUMPI PUSH2 0x609 PUSH2 0x3025 JUMP JUMPDEST JUMPDEST DUP3 PUSH1 0x4 DUP2 GT ISZERO PUSH2 0x61D JUMPI PUSH2 0x61C PUSH2 0x3025 JUMP JUMPDEST JUMPDEST EQ DUP1 ISZERO PUSH2 0x627 JUMPI POP DUP1 JUMPDEST PUSH2 0x666 JUMPI PUSH1 0x40 MLOAD PUSH32 0x8C379A000000000000000000000000000000000000000000000000000000000 DUP2 MSTORE PUSH1 0x4 ADD PUSH2 0x65D SWAP1 PUSH2 0x3C19 JUMP JUMPDEST PUSH1 0x40 MLOAD DUP1 SWAP2 SUB SWAP1 REVERT JUMPDEST PUSH1 0x1 DUP5 LT ISZERO DUP1 ISZERO PUSH2 0x679 JUMPI POP PUSH1 0x2 SLOAD DUP5 GT ISZERO JUMPDEST PUSH2 0x6B8 JUMPI PUSH1 0x40 MLOAD PUSH32 0x8C379A000000000000000000000000000000000000000000000000000000000 DUP2 MSTORE PUSH1 0x4 ADD PUSH2 0x6AF SWAP1 PUSH2 0x3C81 JUMP JUMPDEST PUSH1 0x40 MLOAD DUP1 SWAP2 SUB SWAP1 REVERT JUMPDEST PUSH1 0x4 PUSH0 DUP6 DUP2 MSTORE PUSH1 0x20 ADD SWAP1 DUP2 MSTORE PUSH1 0x20 ADD PUSH0 KECCAK256 PUSH1 0x4 ADD PUSH0 SWAP1 SLOAD SWAP1 PUSH2 0x100 EXP SWAP1 DIV PUSH1 0xFF AND ISZERO PUSH2 0x719 JUMPI PUSH1 0x40 MLOAD PUSH32 0x8C379A000000000000000000000000000000000000000000000000000000000 DUP2 MSTORE PUSH1 0x4 ADD PUSH2 0x710 SWAP1 PUSH2 0x3D0F JUMP JUMPDEST PUSH1 0x40 MLOAD DUP1 SWAP2 SUB SWAP1 REVERT JUMPDEST PUSH1 0x1 PUSH1 0x4 PUSH0 DUP7 DUP2 MSTORE PUSH1 0x20 ADD SWAP1 DUP2 MSTORE PUSH1 0x20 ADD PUSH0 KECCAK256 PUSH1 0x4 ADD PUSH0 PUSH2 0x100 EXP DUP2 SLOAD DUP2 PUSH1 0xFF MUL NOT AND SWAP1 DUP4 ISZERO ISZERO MUL OR SWAP1 SSTORE POP DUP3 PUSH1 0x4 PUSH0 DUP7 DUP2 MSTORE PUSH1 0x20 ADD SWAP1 DUP2 MSTORE PUSH1 0x20 ADD PUSH0 KECCAK256 PUSH1 0x4 ADD PUSH1 0x1 PUSH2 0x100 EXP DUP2 SLOAD DUP2 PUSH1 0xFF MUL NOT AND SWAP1 DUP4 ISZERO ISZERO MUL OR SWAP1 SSTORE POP DUP4 PUSH32 0x5E672278B5A4CE7F1DEAEB816F60398E65C2401C6F90928E8344510D7FA92755 CALLER DUP6 TIMESTAMP PUSH1 0x40 MLOAD PUSH2 0x7A5 SWAP4 SWAP3 SWAP2 SWAP1 PUSH2 0x3D2D JUMP JUMPDEST PUSH1 0x40 MLOAD DUP1 SWAP2 SUB SWAP1 LOG2 POP POP POP POP JUMP JUMPDEST PUSH1 0x8 PUSH1 0x20 MSTORE DUP1 PUSH0 MSTORE PUSH1 0x40 PUSH0 KECCAK256 PUSH0 SWAP2 POP SWAP1 POP DUP1 PUSH0 ADD PUSH0 SWAP1 SLOAD SWAP1 PUSH2 0x100 EXP SWAP1 DIV PUSH20 0xFFFFFFFFFFFFFFFFFFFFFFFFFFFFFFFFFFFFFFFF AND SWAP1 DUP1 PUSH1 0x1 ADD SLOAD SWAP1 DUP1 PUSH1 0x2 ADD SLOAD SWAP1 DUP1 PUSH1 0x3 ADD SLOAD SWAP1 DUP1 PUSH1 0x4 ADD SLOAD SWAP1 DUP1 PUSH1 0x5 ADD SLOAD SWAP1 DUP1 PUSH1 0x6 ADD PUSH0 SWAP1 SLOAD SWAP1 PUSH2 0x100 EXP SWAP1 DIV PUSH1 0xFF AND SWAP1 POP DUP8 JUMP JUMPDEST PUSH1 0x4 PUSH1 0x20 MSTORE DUP1 PUSH0 MSTORE PUSH1 0x40 PUSH0 KECCAK256 PUSH0 SWAP2 POP SWAP1 POP DUP1 PUSH0 ADD PUSH0 SWAP1 SLOAD SWAP1 PUSH2 0x100 EXP SWAP1 DIV PUSH20 0xFFFFFFFFFFFFFFFFFFFFFFFFFFFFFFFFFFFFFFFF AND SWAP1 DUP1 PUSH1 0x1 ADD SLOAD SWAP1 DUP1 PUSH1 0x2 ADD SLOAD SWAP1 DUP1 PUSH1 0x3 ADD SLOAD SWAP1 DUP1 PUSH1 0x4 ADD PUSH0 SWAP1 SLOAD SWAP1 PUSH2 0x100 EXP SWAP1 DIV PUSH1 0xFF AND SWAP1 DUP1 PUSH1 0x4 ADD PUSH1 0x1 SWAP1 SLOAD SWAP1 PUSH2 0x100 EXP SWAP1 DIV PUSH1 0xFF AND SWAP1 POP DUP7 JUMP JUMPDEST PUSH1 0x1 PUSH0 SWAP1 SLOAD SWAP1 PUSH2 0x100 EXP SWAP1 DIV PUSH20 0xFFFFFFFFFFFFFFFFFFFFFFFFFFFFFFFFFFFFFFFF AND DUP2 JUMP JUMPDEST PUSH0 DUP1 PUSH0 DUP1 PUSH0 DUP1 PUSH0 SWAP1 SLOAD SWAP1 PUSH2 0x100 EXP SWAP1 DIV PUSH20 0xFFFFFFFFFFFFFFFFFFFFFFFFFFFFFFFFFFFFFFFF AND PUSH20 0xFFFFFFFFFFFFFFFFFFFFFFFFFFFFFFFFFFFFFFFF AND PUSH4 0x75894E8C CALLER PUSH1 0x40 MLOAD DUP3 PUSH4 0xFFFFFFFF AND PUSH1 0xE0 SHL DUP2 MSTORE PUSH1 0x4 ADD PUSH2 0x90F SWAP2 SWAP1 PUSH2 0x3B0B JUMP JUMPDEST PUSH1 0x40 DUP1 MLOAD DUP1 DUP4 SUB DUP2 PUSH0 DUP8 GAS CALL ISZERO DUP1 ISZERO PUSH2 0x92A JUMPI RETURNDATASIZE PUSH0 DUP1 RETURNDATACOPY RETURNDATASIZE PUSH0 REVERT JUMPDEST POP POP POP POP PUSH1 0x40 MLOAD RETURNDATASIZE PUSH1 0x1F NOT PUSH1 0x1F DUP3 ADD AND DUP3 ADD DUP1 PUSH1 0x40 MSTORE POP DUP2 ADD SWAP1 PUSH2 0x94E SWAP2 SWAP1 PUSH2 0x3B5B JUMP JUMPDEST SWAP2 POP SWAP2 POP PUSH1 0x2 PUSH1 0x4 DUP2 GT ISZERO PUSH2 0x966 JUMPI PUSH2 0x965 PUSH2 0x3025 JUMP JUMPDEST JUMPDEST DUP3 PUSH1 0x4 DUP2 GT ISZERO PUSH2 0x979 JUMPI PUSH2 0x978 PUSH2 0x3025 JUMP JUMPDEST JUMPDEST EQ DUP1 ISZERO PUSH2 0x983 JUMPI POP DUP1 JUMPDEST PUSH2 0x9C2 JUMPI PUSH1 0x40 MLOAD PUSH32 0x8C379A000000000000000000000000000000000000000000000000000000000 DUP2 MSTORE PUSH1 0x4 ADD PUSH2 0x9B9 SWAP1 PUSH2 0x3C19 JUMP JUMPDEST PUSH1 0x40 MLOAD DUP1 SWAP2 SUB SWAP1 REVERT JUMPDEST PUSH1 0x1 DUP7 LT ISZERO DUP1 ISZERO PUSH2 0x9D5 JUMPI POP PUSH1 0x2 SLOAD DUP7 GT ISZERO JUMPDEST PUSH2 0xA14 JUMPI PUSH1 0x40 MLOAD PUSH32 0x8C379A000000000000000000000000000000000000000000000000000000000 DUP2 MSTORE PUSH1 0x4 ADD PUSH2 0xA0B SWAP1 PUSH2 0x3C81 JUMP JUMPDEST PUSH1 0x40 MLOAD DUP1 SWAP2 SUB SWAP1 REVERT JUMPDEST PUSH0 PUSH1 0x4 PUSH0 DUP9 DUP2 MSTORE PUSH1 0x20 ADD SWAP1 DUP2 MSTORE PUSH1 0x20 ADD PUSH0 KECCAK256 PUSH1 0x40 MLOAD DUP1 PUSH1 0xC0 ADD PUSH1 0x40 MSTORE SWAP1 DUP2 PUSH0 DUP3 ADD PUSH0 SWAP1 SLOAD SWAP1 PUSH2 0x100 EXP SWAP1 DIV PUSH20 0xFFFFFFFFFFFFFFFFFFFFFFFFFFFFFFFFFFFFFFFF AND PUSH20 0xFFFFFFFFFFFFFFFFFFFFFFFFFFFFFFFFFFFFFFFF AND PUSH20 0xFFFFFFFFFFFFFFFFFFFFFFFFFFFFFFFFFFFFFFFF AND DUP2 MSTORE PUSH1 0x20 ADD PUSH1 0x1 DUP3 ADD SLOAD DUP2 MSTORE PUSH1 0x20 ADD PUSH1 0x2 DUP3 ADD SLOAD DUP2 MSTORE PUSH1 0x20 ADD PUSH1 0x3 DUP3 ADD SLOAD DUP2 MSTORE PUSH1 0x20 ADD PUSH1 0x4 DUP3 ADD PUSH0 SWAP1 SLOAD SWAP1 PUSH2 0x100 EXP SWAP1 DIV PUSH1 0xFF AND ISZERO ISZERO ISZERO ISZERO DUP2 MSTORE PUSH1 0x20 ADD PUSH1 0x4 DUP3 ADD PUSH1 0x1 SWAP1 SLOAD SWAP1 PUSH2 0x100 EXP SWAP1 DIV PUSH1 0xFF AND ISZERO ISZERO ISZERO ISZERO DUP2 MSTORE POP POP SWAP1 POP DUP1 PUSH0 ADD MLOAD DUP2 PUSH1 0x20 ADD MLOAD DUP3 PUSH1 0x60 ADD MLOAD SWAP6 POP SWAP6 POP SWAP6 POP POP POP POP SWAP2 SWAP4 SWAP1 SWAP3 POP JUMP JUMPDEST PUSH1 0x7 PUSH1 0x20 MSTORE DUP1 PUSH0 MSTORE PUSH1 0x40 PUSH0 KECCAK256 PUSH0 SWAP2 POP SWAP1 POP SLOAD DUP2 JUMP JUMPDEST DUP1 PUSH0 DUP1 PUSH0 DUP1 SLOAD SWAP1 PUSH2 0x100 EXP SWAP1 DIV PUSH20 0xFFFFFFFFFFFFFFFFFFFFFFFFFFFFFFFFFFFFFFFF AND PUSH20 0xFFFFFFFFFFFFFFFFFFFFFFFFFFFFFFFFFFFFFFFF AND PUSH4 0x75894E8C CALLER PUSH1 0x40 MLOAD DUP3 PUSH4 0xFFFFFFFF AND PUSH1 0xE0 SHL DUP2 MSTORE PUSH1 0x4 ADD PUSH2 0xB68 SWAP2 SWAP1 PUSH2 0x3B0B JUMP JUMPDEST PUSH1 0x40 DUP1 MLOAD DUP1 DUP4 SUB DUP2 PUSH0 DUP8 GAS CALL ISZERO DUP1 ISZERO PUSH2 0xB83 JUMPI RETURNDATASIZE PUSH0 DUP1 RETURNDATACOPY RETURNDATASIZE PUSH0 REVERT JUMPDEST POP POP POP POP PUSH1 0x40 MLOAD RETURNDATASIZE PUSH1 0x1F NOT PUSH1 0x1F DUP3 ADD AND DUP3 ADD DUP1 PUSH1 0x40 MSTORE POP DUP2 ADD SWAP1 PUSH2 0xBA7 SWAP2 SWAP1 PUSH2 0x3B5B JUMP JUMPDEST SWAP2 POP SWAP2 POP PUSH1 0x4 DUP1 DUP2 GT ISZERO PUSH2 0xBBE JUMPI PUSH2 0xBBD PUSH2 0x3025 JUMP JUMPDEST JUMPDEST DUP3 PUSH1 0x4 DUP2 GT ISZERO PUSH2 0xBD1 JUMPI PUSH2 0xBD0 PUSH2 0x3025 JUMP JUMPDEST JUMPDEST EQ DUP1 ISZERO PUSH2 0xBDB JUMPI POP DUP1 JUMPDEST PUSH2 0xC1A JUMPI PUSH1 0x40 MLOAD PUSH32 0x8C379A000000000000000000000000000000000000000000000000000000000 DUP2 MSTORE PUSH1 0x4 ADD PUSH2 0xC11 SWAP1 PUSH2 0x3DD2 JUMP JUMPDEST PUSH1 0x40 MLOAD DUP1 SWAP2 SUB SWAP1 REVERT JUMPDEST CALLER PUSH20 0xFFFFFFFFFFFFFFFFFFFFFFFFFFFFFFFFFFFFFFFF AND PUSH1 0x8 PUSH0 DUP6 DUP2 MSTORE PUSH1 0x20 ADD SWAP1 DUP2 MSTORE PUSH1 0x20 ADD PUSH0 KECCAK256 PUSH0 ADD PUSH0 SWAP1 SLOAD SWAP1 PUSH2 0x100 EXP SWAP1 DIV PUSH20 0xFFFFFFFFFFFFFFFFFFFFFFFFFFFFFFFFFFFFFFFF AND PUSH20 0xFFFFFFFFFFFFFFFFFFFFFFFFFFFFFFFFFFFFFFFF AND EQ PUSH2 0xCBA JUMPI PUSH1 0x40 MLOAD PUSH32 0x8C379A000000000000000000000000000000000000000000000000000000000 DUP2 MSTORE PUSH1 0x4 ADD PUSH2 0xCB1 SWAP1 PUSH2 0x3E60 JUMP JUMPDEST PUSH1 0x40 MLOAD DUP1 SWAP2 SUB SWAP1 REVERT JUMPDEST PUSH0 PUSH1 0x8 PUSH0 DUP7 DUP2 MSTORE PUSH1 0x20 ADD SWAP1 DUP2 MSTORE PUSH1 0x20 ADD PUSH0 KECCAK256 PUSH1 0x40 MLOAD DUP1 PUSH1 0xE0 ADD PUSH1 0x40 MSTORE SWAP1 DUP2 PUSH0 DUP3 ADD PUSH0 SWAP1 SLOAD SWAP1 PUSH2 0x100 EXP SWAP1 DIV PUSH20 0xFFFFFFFFFFFFFFFFFFFFFFFFFFFFFFFFFFFFFFFF AND PUSH20 0xFFFFFFFFFFFFFFFFFFFFFFFFFFFFFFFFFFFFFFFF AND PUSH20 0xFFFFFFFFFFFFFFFFFFFFFFFFFFFFFFFFFFFFFFFF AND DUP2 MSTORE PUSH1 0x20 ADD PUSH1 0x1 DUP3 ADD SLOAD DUP2 MSTORE PUSH1 0x20 ADD PUSH1 0x2 DUP3 ADD SLOAD DUP2 MSTORE PUSH1 0x20 ADD PUSH1 0x3 DUP3 ADD SLOAD DUP2 MSTORE PUSH1 0x20 ADD PUSH1 0x4 DUP3 ADD SLOAD DUP2 MSTORE PUSH1 0x20 ADD PUSH1 0x5 DUP3 ADD SLOAD DUP2 MSTORE PUSH1 0x20 ADD PUSH1 0x6 DUP3 ADD PUSH0 SWAP1 SLOAD SWAP1 PUSH2 0x100 EXP SWAP1 DIV PUSH1 0xFF AND PUSH1 0x3 DUP2 GT ISZERO PUSH2 0xD81 JUMPI PUSH2 0xD80 PUSH2 0x3025 JUMP JUMPDEST JUMPDEST PUSH1 0x3 DUP2 GT ISZERO PUSH2 0xD93 JUMPI PUSH2 0xD92 PUSH2 0x3025 JUMP JUMPDEST JUMPDEST DUP2 MSTORE POP POP SWAP1 POP PUSH1 0x1 DUP6 LT ISZERO DUP1 ISZERO PUSH2 0xDBB JUMPI POP PUSH1 0x7 PUSH0 DUP8 DUP2 MSTORE PUSH1 0x20 ADD SWAP1 DUP2 MSTORE PUSH1 0x20 ADD PUSH0 KECCAK256 SLOAD DUP6 GT ISZERO JUMPDEST PUSH2 0xDFA JUMPI PUSH1 0x40 MLOAD PUSH32 0x8C379A000000000000000000000000000000000000000000000000000000000 DUP2 MSTORE PUSH1 0x4 ADD PUSH2 0xDF1 SWAP1 PUSH2 0x3EC8 JUMP JUMPDEST PUSH1 0x40 MLOAD DUP1 SWAP2 SUB SWAP1 REVERT JUMPDEST PUSH1 0x2 PUSH1 0x3 DUP2 GT ISZERO PUSH2 0xE0E JUMPI PUSH2 0xE0D PUSH2 0x3025 JUMP JUMPDEST JUMPDEST DUP2 PUSH1 0xC0 ADD MLOAD PUSH1 0x3 DUP2 GT ISZERO PUSH2 0xE25 JUMPI PUSH2 0xE24 PUSH2 0x3025 JUMP JUMPDEST JUMPDEST EQ PUSH2 0xE65 JUMPI PUSH1 0x40 MLOAD PUSH32 0x8C379A000000000000000000000000000000000000000000000000000000000 DUP2 MSTORE PUSH1 0x4 ADD PUSH2 0xE5C SWAP1 PUSH2 0x3F56 JUMP JUMPDEST PUSH1 0x40 MLOAD DUP1 SWAP2 SUB SWAP1 REVERT JUMPDEST DUP1 PUSH1 0x60 ADD MLOAD TIMESTAMP LT ISZERO PUSH2 0xEAC JUMPI PUSH1 0x40 MLOAD PUSH32 0x8C379A000000000000000000000000000000000000000000000000000000000 DUP2 MSTORE PUSH1 0x4 ADD PUSH2 0xEA3 SWAP1 PUSH2 0x3FE4 JUMP JUMPDEST PUSH1 0x40 MLOAD DUP1 SWAP2 SUB SWAP1 REVERT JUMPDEST PUSH1 0x3 PUSH1 0x8 PUSH0 DUP8 DUP2 MSTORE PUSH1 0x20 ADD SWAP1 DUP2 MSTORE PUSH1 0x20 ADD PUSH0 KECCAK256 PUSH1 0x6 ADD PUSH0 PUSH2 0x100 EXP DUP2 SLOAD DUP2 PUSH1 0xFF MUL NOT AND SWAP1 DUP4 PUSH1 0x3 DUP2 GT ISZERO PUSH2 0xEE3 JUMPI PUSH2 0xEE2 PUSH2 0x3025 JUMP JUMPDEST JUMPDEST MUL OR SWAP1 SSTORE POP TIMESTAMP PUSH1 0x8 PUSH0 DUP8 DUP2 MSTORE PUSH1 0x20 ADD SWAP1 DUP2 MSTORE PUSH1 0x20 ADD PUSH0 KECCAK256 PUSH1 0x4 ADD DUP2 SWAP1 SSTORE POP PUSH32 0xF0759B1C58F2EB04B7275484184A141F88FEDEB54C9A6A48B4E7D9D332EDB1A7 DUP7 DUP7 TIMESTAMP PUSH1 0x40 MLOAD PUSH2 0xF34 SWAP4 SWAP3 SWAP2 SWAP1 PUSH2 0x4002 JUMP JUMPDEST PUSH1 0x40 MLOAD DUP1 SWAP2 SUB SWAP1 LOG1 POP POP POP POP POP POP JUMP JUMPDEST PUSH0 DUP1 PUSH1 0x1 PUSH0 SWAP1 SLOAD SWAP1 PUSH2 0x100 EXP SWAP1 DIV PUSH20 0xFFFFFFFFFFFFFFFFFFFFFFFFFFFFFFFFFFFFFFFF AND PUSH20 0xFFFFFFFFFFFFFFFFFFFFFFFFFFFFFFFFFFFFFFFF AND PUSH4 0xF6AF0311 DUP5 PUSH1 0x40 MLOAD DUP3 PUSH4 0xFFFFFFFF AND PUSH1 0xE0 SHL DUP2 MSTORE PUSH1 0x4 ADD PUSH2 0xFA0 SWAP2 SWAP1 PUSH2 0x40D2 JUMP JUMPDEST PUSH1 0x20 PUSH1 0x40 MLOAD DUP1 DUP4 SUB DUP2 DUP7 GAS STATICCALL ISZERO DUP1 ISZERO PUSH2 0xFBB JUMPI RETURNDATASIZE PUSH0 DUP1 RETURNDATACOPY RETURNDATASIZE PUSH0 REVERT JUMPDEST POP POP POP POP PUSH1 0x40 MLOAD RETURNDATASIZE PUSH1 0x1F NOT PUSH1 0x1F DUP3 ADD AND DUP3 ADD DUP1 PUSH1 0x40 MSTORE POP DUP2 ADD SWAP1 PUSH2 0xFDF SWAP2 SWAP1 PUSH2 0x40EC JUMP JUMPDEST SWAP1 POP DUP1 ISZERO PUSH2 0x107F JUMPI PUSH1 0x1 PUSH1 0x9 PUSH0 CALLER PUSH20 0xFFFFFFFFFFFFFFFFFFFFFFFFFFFFFFFFFFFFFFFF AND PUSH20 0xFFFFFFFFFFFFFFFFFFFFFFFFFFFFFFFFFFFFFFFF AND DUP2 MSTORE PUSH1 0x20 ADD SWAP1 DUP2 MSTORE PUSH1 0x20 ADD PUSH0 KECCAK256 PUSH0 PUSH2 0x100 EXP DUP2 SLOAD DUP2 PUSH1 0xFF MUL NOT AND SWAP1 DUP4 ISZERO ISZERO MUL OR SWAP1 SSTORE POP PUSH32 0x6EA640312E182DE387819FBEB13BE00DB3171A445412852248559054871C4199 CALLER TIMESTAMP PUSH1 0x40 MLOAD PUSH2 0x106D SWAP3 SWAP2 SWAP1 PUSH2 0x4117 JUMP JUMPDEST PUSH1 0x40 MLOAD DUP1 SWAP2 SUB SWAP1 LOG1 PUSH1 0x1 SWAP2 POP POP PUSH2 0x1084 JUMP JUMPDEST PUSH0 SWAP2 POP POP JUMPDEST SWAP2 SWAP1 POP JUMP JUMPDEST PUSH0 DUP1 PUSH0 DUP1 SLOAD SWAP1 PUSH2 0x100 EXP SWAP1 DIV PUSH20 0xFFFFFFFFFFFFFFFFFFFFFFFFFFFFFFFFFFFFFFFF AND PUSH20 0xFFFFFFFFFFFFFFFFFFFFFFFFFFFFFFFFFFFFFFFF AND PUSH4 0x75894E8C CALLER PUSH1 0x40 MLOAD DUP3 PUSH4 0xFFFFFFFF AND PUSH1 0xE0 SHL DUP2 MSTORE PUSH1 0x4 ADD PUSH2 0x10E3 SWAP2 SWAP1 PUSH2 0x3B0B JUMP JUMPDEST PUSH1 0x40 DUP1 MLOAD DUP1 DUP4 SUB DUP2 PUSH0 DUP8 GAS CALL ISZERO DUP1 ISZERO PUSH2 0x10FE JUMPI RETURNDATASIZE PUSH0 DUP1 RETURNDATACOPY RETURNDATASIZE PUSH0 REVERT JUMPDEST POP POP POP POP PUSH1 0x40 MLOAD RETURNDATASIZE PUSH1 0x1F NOT PUSH1 0x1F DUP3 ADD AND DUP3 ADD DUP1 PUSH1 0x40 MSTORE POP DUP2 ADD SWAP1 PUSH2 0x1122 SWAP2 SWAP1 PUSH2 0x3B5B JUMP JUMPDEST SWAP2 POP SWAP2 POP PUSH1 0x2 PUSH1 0x4 DUP2 GT ISZERO PUSH2 0x113A JUMPI PUSH2 0x1139 PUSH2 0x3025 JUMP JUMPDEST JUMPDEST DUP3 PUSH1 0x4 DUP2 GT ISZERO PUSH2 0x114D JUMPI PUSH2 0x114C PUSH2 0x3025 JUMP JUMPDEST JUMPDEST EQ DUP1 ISZERO PUSH2 0x1157 JUMPI POP DUP1 JUMPDEST PUSH2 0x1196 JUMPI PUSH1 0x40 MLOAD PUSH32 0x8C379A000000000000000000000000000000000000000000000000000000000 DUP2 MSTORE PUSH1 0x4 ADD PUSH2 0x118D SWAP1 PUSH2 0x3C19 JUMP JUMPDEST PUSH1 0x40 MLOAD DUP1 SWAP2 SUB SWAP1 REVERT JUMPDEST PUSH0 DUP1 SHL DUP7 SUB PUSH2 0x11DA JUMPI PUSH1 0x40 MLOAD PUSH32 0x8C379A000000000000000000000000000000000000000000000000000000000 DUP2 MSTORE PUSH1 0x4 ADD PUSH2 0x11D1 SWAP1 PUSH2 0x4188 JUMP JUMPDEST PUSH1 0x40 MLOAD DUP1 SWAP2 SUB SWAP1 REVERT JUMPDEST PUSH0 DUP6 GT PUSH2 0x121C JUMPI PUSH1 0x40 MLOAD PUSH32 0x8C379A000000000000000000000000000000000000000000000000000000000 DUP2 MSTORE PUSH1 0x4 ADD PUSH2 0x1213 SWAP1 PUSH2 0x41F0 JUMP JUMPDEST PUSH1 0x40 MLOAD DUP1 SWAP2 SUB SWAP1 REVERT JUMPDEST PUSH32 0x4D00000000000000000000000000000000000000000000000000000000000000 DUP5 PUSH31 0xFFFFFFFFFFFFFFFFFFFFFFFFFFFFFFFFFFFFFFFFFFFFFFFFFFFFFFFFFFFFFF NOT AND EQ DUP1 PUSH2 0x12AD JUMPI POP PUSH32 0x4600000000000000000000000000000000000000000000000000000000000000 DUP5 PUSH31 0xFFFFFFFFFFFFFFFFFFFFFFFFFFFFFFFFFFFFFFFFFFFFFFFFFFFFFFFFFFFFFF NOT AND EQ JUMPDEST PUSH2 0x12EC JUMPI PUSH1 0x40 MLOAD PUSH32 0x8C379A000000000000000000000000000000000000000000000000000000000 DUP2 MSTORE PUSH1 0x4 ADD PUSH2 0x12E3 SWAP1 PUSH2 0x4258 JUMP JUMPDEST PUSH1 0x40 MLOAD DUP1 SWAP2 SUB SWAP1 REVERT JUMPDEST PUSH1 0x1 DUP4 LT ISZERO DUP1 ISZERO PUSH2 0x12FF JUMPI POP PUSH1 0x2 SLOAD DUP4 GT ISZERO JUMPDEST PUSH2 0x133E JUMPI PUSH1 0x40 MLOAD PUSH32 0x8C379A000000000000000000000000000000000000000000000000000000000 DUP2 MSTORE PUSH1 0x4 ADD PUSH2 0x1335 SWAP1 PUSH2 0x3C81 JUMP JUMPDEST PUSH1 0x40 MLOAD DUP1 SWAP2 SUB SWAP1 REVERT JUMPDEST PUSH1 0x7 PUSH0 DUP5 DUP2 MSTORE PUSH1 0x20 ADD SWAP1 DUP2 MSTORE PUSH1 0x20 ADD PUSH0 KECCAK256 PUSH0 DUP2 SLOAD DUP1 SWAP3 SWAP2 SWAP1 PUSH2 0x135F SWAP1 PUSH2 0x42A3 JUMP JUMPDEST SWAP2 SWAP1 POP SSTORE POP PUSH1 0x40 MLOAD DUP1 PUSH1 0xC0 ADD PUSH1 0x40 MSTORE DUP1 PUSH1 0x7 PUSH0 DUP7 DUP2 MSTORE PUSH1 0x20 ADD SWAP1 DUP2 MSTORE PUSH1 0x20 ADD PUSH0 KECCAK256 SLOAD DUP2 MSTORE PUSH1 0x20 ADD DUP8 DUP2 MSTORE PUSH1 0x20 ADD DUP7 DUP2 MSTORE PUSH1 0x20 ADD DUP6 PUSH31 0xFFFFFFFFFFFFFFFFFFFFFFFFFFFFFFFFFFFFFFFFFFFFFFFFFFFFFFFFFFFFFF NOT AND DUP2 MSTORE PUSH1 0x20 ADD DUP5 DUP2 MSTORE PUSH1 0x20 ADD PUSH0 PUSH1 0x3 DUP2 GT ISZERO PUSH2 0x13D3 JUMPI PUSH2 0x13D2 PUSH2 0x3025 JUMP JUMPDEST JUMPDEST DUP2 MSTORE POP PUSH1 0x6 PUSH0 DUP6 DUP2 MSTORE PUSH1 0x20 ADD SWAP1 DUP2 MSTORE PUSH1 0x20 ADD PUSH0 KECCAK256 PUSH0 PUSH1 0x7 PUSH0 DUP8 DUP2 MSTORE PUSH1 0x20 ADD SWAP1 DUP2 MSTORE PUSH1 0x20 ADD PUSH0 KECCAK256 SLOAD DUP2 MSTORE PUSH1 0x20 ADD SWAP1 DUP2 MSTORE PUSH1 0x20 ADD PUSH0 KECCAK256 PUSH0 DUP3 ADD MLOAD DUP2 PUSH0 ADD SSTORE PUSH1 0x20 DUP3 ADD MLOAD DUP2 PUSH1 0x1 ADD SSTORE PUSH1 0x40 DUP3 ADD MLOAD DUP2 PUSH1 0x2 ADD SSTORE PUSH1 0x60 DUP3 ADD MLOAD DUP2 PUSH1 0x3 ADD PUSH0 PUSH2 0x100 EXP DUP2 SLOAD DUP2 PUSH1 0xFF MUL NOT AND SWAP1 DUP4 PUSH1 0xF8 SHR MUL OR SWAP1 SSTORE POP PUSH1 0x80 DUP3 ADD MLOAD DUP2 PUSH1 0x4 ADD SSTORE PUSH1 0xA0 DUP3 ADD MLOAD DUP2 PUSH1 0x5 ADD PUSH0 PUSH2 0x100 EXP DUP2 SLOAD DUP2 PUSH1 0xFF MUL NOT AND SWAP1 DUP4 PUSH1 0x3 DUP2 GT ISZERO PUSH2 0x1477 JUMPI PUSH2 0x1476 PUSH2 0x3025 JUMP JUMPDEST JUMPDEST MUL OR SWAP1 SSTORE POP SWAP1 POP POP DUP3 PUSH1 0x5 PUSH0 PUSH1 0x7 PUSH0 DUP8 DUP2 MSTORE PUSH1 0x20 ADD SWAP1 DUP2 MSTORE PUSH1 0x20 ADD PUSH0 KECCAK256 SLOAD DUP2 MSTORE PUSH1 0x20 ADD SWAP1 DUP2 MSTORE PUSH1 0x20 ADD PUSH0 KECCAK256 DUP2 SWAP1 SSTORE POP PUSH32 0x8F6937EDCD05CE1C1912E225EC700CB996D92333E3B1631CE16E703FC6B8E77A PUSH1 0x7 PUSH0 DUP6 DUP2 MSTORE PUSH1 0x20 ADD SWAP1 DUP2 MSTORE PUSH1 0x20 ADD PUSH0 KECCAK256 SLOAD DUP8 DUP8 DUP8 DUP8 PUSH1 0x40 MLOAD PUSH2 0x14EE SWAP6 SWAP5 SWAP4 SWAP3 SWAP2 SWAP1 PUSH2 0x42EA JUMP JUMPDEST PUSH1 0x40 MLOAD DUP1 SWAP2 SUB SWAP1 LOG1 POP POP POP POP POP POP JUMP JUMPDEST PUSH0 DUP1 PUSH0 DUP1 PUSH0 DUP1 PUSH0 DUP1 SLOAD SWAP1 PUSH2 0x100 EXP SWAP1 DIV PUSH20 0xFFFFFFFFFFFFFFFFFFFFFFFFFFFFFFFFFFFFFFFF AND PUSH20 0xFFFFFFFFFFFFFFFFFFFFFFFFFFFFFFFFFFFFFFFF AND PUSH4 0x75894E8C CALLER PUSH1 0x40 MLOAD DUP3 PUSH4 0xFFFFFFFF AND PUSH1 0xE0 SHL DUP2 MSTORE PUSH1 0x4 ADD PUSH2 0x155C SWAP2 SWAP1 PUSH2 0x3B0B JUMP JUMPDEST PUSH1 0x40 DUP1 MLOAD DUP1 DUP4 SUB DUP2 PUSH0 DUP8 GAS CALL ISZERO DUP1 ISZERO PUSH2 0x1577 JUMPI RETURNDATASIZE PUSH0 DUP1 RETURNDATACOPY RETURNDATASIZE PUSH0 REVERT JUMPDEST POP POP POP POP PUSH1 0x40 MLOAD RETURNDATASIZE PUSH1 0x1F NOT PUSH1 0x1F DUP3 ADD AND DUP3 ADD DUP1 PUSH1 0x40 MSTORE POP DUP2 ADD SWAP1 PUSH2 0x159B SWAP2 SWAP1 PUSH2 0x3B5B JUMP JUMPDEST SWAP2 POP SWAP2 POP PUSH1 0x3 PUSH1 0x4 DUP2 GT ISZERO PUSH2 0x15B3 JUMPI PUSH2 0x15B2 PUSH2 0x3025 JUMP JUMPDEST JUMPDEST DUP3 PUSH1 0x4 DUP2 GT ISZERO PUSH2 0x15C6 JUMPI PUSH2 0x15C5 PUSH2 0x3025 JUMP JUMPDEST JUMPDEST EQ DUP1 ISZERO PUSH2 0x15D0 JUMPI POP DUP1 JUMPDEST PUSH2 0x160F JUMPI PUSH1 0x40 MLOAD PUSH32 0x8C379A000000000000000000000000000000000000000000000000000000000 DUP2 MSTORE PUSH1 0x4 ADD PUSH2 0x1606 SWAP1 PUSH2 0x43AB JUMP JUMPDEST PUSH1 0x40 MLOAD DUP1 SWAP2 SUB SWAP1 REVERT JUMPDEST PUSH1 0x1 DUP9 LT ISZERO DUP1 ISZERO PUSH2 0x1622 JUMPI POP PUSH1 0x2 SLOAD DUP9 GT ISZERO JUMPDEST PUSH2 0x1661 JUMPI PUSH1 0x40 MLOAD PUSH32 0x8C379A000000000000000000000000000000000000000000000000000000000 DUP2 MSTORE PUSH1 0x4 ADD PUSH2 0x1658 SWAP1 PUSH2 0x3C81 JUMP JUMPDEST PUSH1 0x40 MLOAD DUP1 SWAP2 SUB SWAP1 REVERT JUMPDEST PUSH1 0x1 DUP8 LT ISZERO DUP1 ISZERO PUSH2 0x1683 JUMPI POP PUSH1 0x7 PUSH0 DUP10 DUP2 MSTORE PUSH1 0x20 ADD SWAP1 DUP2 MSTORE PUSH1 0x20 ADD PUSH0 KECCAK256 SLOAD DUP8 GT ISZERO JUMPDEST PUSH2 0x16C2 JUMPI PUSH1 0x40 MLOAD PUSH32 0x8C379A000000000000000000000000000000000000000000000000000000000 DUP2 MSTORE PUSH1 0x4 ADD PUSH2 0x16B9 SWAP1 PUSH2 0x3EC8 JUMP JUMPDEST PUSH1 0x40 MLOAD DUP1 SWAP2 SUB SWAP1 REVERT JUMPDEST PUSH0 PUSH1 0x6 PUSH0 DUP11 DUP2 MSTORE PUSH1 0x20 ADD SWAP1 DUP2 MSTORE PUSH1 0x20 ADD PUSH0 KECCAK256 PUSH0 DUP10 DUP2 MSTORE PUSH1 0x20 ADD SWAP1 DUP2 MSTORE PUSH1 0x20 ADD PUSH0 KECCAK256 PUSH1 0x40 MLOAD DUP1 PUSH1 0xC0 ADD PUSH1 0x40 MSTORE SWAP1 DUP2 PUSH0 DUP3 ADD SLOAD DUP2 MSTORE PUSH1 0x20 ADD PUSH1 0x1 DUP3 ADD SLOAD DUP2 MSTORE PUSH1 0x20 ADD PUSH1 0x2 DUP3 ADD SLOAD DUP2 MSTORE PUSH1 0x20 ADD PUSH1 0x3 DUP3 ADD PUSH0 SWAP1 SLOAD SWAP1 PUSH2 0x100 EXP SWAP1 DIV PUSH1 0xF8 SHL PUSH31 0xFFFFFFFFFFFFFFFFFFFFFFFFFFFFFFFFFFFFFFFFFFFFFFFFFFFFFFFFFFFFFF NOT AND PUSH31 0xFFFFFFFFFFFFFFFFFFFFFFFFFFFFFFFFFFFFFFFFFFFFFFFFFFFFFFFFFFFFFF NOT AND DUP2 MSTORE PUSH1 0x20 ADD PUSH1 0x4 DUP3 ADD SLOAD DUP2 MSTORE PUSH1 0x20 ADD PUSH1 0x5 DUP3 ADD PUSH0 SWAP1 SLOAD SWAP1 PUSH2 0x100 EXP SWAP1 DIV PUSH1 0xFF AND PUSH1 0x3 DUP2 GT ISZERO PUSH2 0x1793 JUMPI PUSH2 0x1792 PUSH2 0x3025 JUMP JUMPDEST JUMPDEST PUSH1 0x3 DUP2 GT ISZERO PUSH2 0x17A5 JUMPI PUSH2 0x17A4 PUSH2 0x3025 JUMP JUMPDEST JUMPDEST DUP2 MSTORE POP POP SWAP1 POP PUSH0 PUSH1 0x4 PUSH0 DUP12 DUP2 MSTORE PUSH1 0x20 ADD SWAP1 DUP2 MSTORE PUSH1 0x20 ADD PUSH0 KECCAK256 PUSH1 0x40 MLOAD DUP1 PUSH1 0xC0 ADD PUSH1 0x40 MSTORE SWAP1 DUP2 PUSH0 DUP3 ADD PUSH0 SWAP1 SLOAD SWAP1 PUSH2 0x100 EXP SWAP1 DIV PUSH20 0xFFFFFFFFFFFFFFFFFFFFFFFFFFFFFFFFFFFFFFFF AND PUSH20 0xFFFFFFFFFFFFFFFFFFFFFFFFFFFFFFFFFFFFFFFF AND PUSH20 0xFFFFFFFFFFFFFFFFFFFFFFFFFFFFFFFFFFFFFFFF AND DUP2 MSTORE PUSH1 0x20 ADD PUSH1 0x1 DUP3 ADD SLOAD DUP2 MSTORE PUSH1 0x20 ADD PUSH1 0x2 DUP3 ADD SLOAD DUP2 MSTORE PUSH1 0x20 ADD PUSH1 0x3 DUP3 ADD SLOAD DUP2 MSTORE PUSH1 0x20 ADD PUSH1 0x4 DUP3 ADD PUSH0 SWAP1 SLOAD SWAP1 PUSH2 0x100 EXP SWAP1 DIV PUSH1 0xFF AND ISZERO ISZERO ISZERO ISZERO DUP2 MSTORE PUSH1 0x20 ADD PUSH1 0x4 DUP3 ADD PUSH1 0x1 SWAP1 SLOAD SWAP1 PUSH2 0x100 EXP SWAP1 DIV PUSH1 0xFF AND ISZERO ISZERO ISZERO ISZERO DUP2 MSTORE POP POP SWAP1 POP DUP2 PUSH1 0x20 ADD MLOAD DUP3 PUSH1 0x40 ADD MLOAD DUP4 PUSH1 0x60 ADD MLOAD DUP4 PUSH1 0x60 ADD MLOAD SWAP8 POP SWAP8 POP SWAP8 POP SWAP8 POP POP POP POP POP SWAP3 SWAP6 SWAP2 SWAP5 POP SWAP3 POP JUMP JUMPDEST PUSH0 DUP1 PUSH0 DUP1 SLOAD SWAP1 PUSH2 0x100 EXP SWAP1 DIV PUSH20 0xFFFFFFFFFFFFFFFFFFFFFFFFFFFFFFFFFFFFFFFF AND PUSH20 0xFFFFFFFFFFFFFFFFFFFFFFFFFFFFFFFFFFFFFFFF AND PUSH4 0x75894E8C CALLER PUSH1 0x40 MLOAD DUP3 PUSH4 0xFFFFFFFF AND PUSH1 0xE0 SHL DUP2 MSTORE PUSH1 0x4 ADD PUSH2 0x18F4 SWAP2 SWAP1 PUSH2 0x3B0B JUMP JUMPDEST PUSH1 0x40 DUP1 MLOAD DUP1 DUP4 SUB DUP2 PUSH0 DUP8 GAS CALL ISZERO DUP1 ISZERO PUSH2 0x190F JUMPI RETURNDATASIZE PUSH0 DUP1 RETURNDATACOPY RETURNDATASIZE PUSH0 REVERT JUMPDEST POP POP POP POP PUSH1 0x40 MLOAD RETURNDATASIZE PUSH1 0x1F NOT PUSH1 0x1F DUP3 ADD AND DUP3 ADD DUP1 PUSH1 0x40 MSTORE POP DUP2 ADD SWAP1 PUSH2 0x1933 SWAP2 SWAP1 PUSH2 0x3B5B JUMP JUMPDEST SWAP2 POP SWAP2 POP PUSH0 PUSH1 0x4 DUP2 GT ISZERO PUSH2 0x194A JUMPI PUSH2 0x1949 PUSH2 0x3025 JUMP JUMPDEST JUMPDEST DUP3 PUSH1 0x4 DUP2 GT ISZERO PUSH2 0x195D JUMPI PUSH2 0x195C PUSH2 0x3025 JUMP JUMPDEST JUMPDEST EQ DUP1 ISZERO PUSH2 0x1967 JUMPI POP DUP1 JUMPDEST PUSH2 0x19A6 JUMPI PUSH1 0x40 MLOAD PUSH32 0x8C379A000000000000000000000000000000000000000000000000000000000 DUP2 MSTORE PUSH1 0x4 ADD PUSH2 0x199D SWAP1 PUSH2 0x4439 JUMP JUMPDEST PUSH1 0x40 MLOAD DUP1 SWAP2 SUB SWAP1 REVERT JUMPDEST PUSH0 PUSH1 0x9 PUSH0 DUP6 PUSH20 0xFFFFFFFFFFFFFFFFFFFFFFFFFFFFFFFFFFFFFFFF AND PUSH20 0xFFFFFFFFFFFFFFFFFFFFFFFFFFFFFFFFFFFFFFFF AND DUP2 MSTORE PUSH1 0x20 ADD SWAP1 DUP2 MSTORE PUSH1 0x20 ADD PUSH0 KECCAK256 PUSH0 PUSH2 0x100 EXP DUP2 SLOAD DUP2 PUSH1 0xFF MUL NOT AND SWAP1 DUP4 ISZERO ISZERO MUL OR SWAP1 SSTORE POP PUSH32 0x6F6A404FFD2CEA4713256A4FD9CE99C8CF8CF32D85C2BB8061D1603FF57D50C3 CALLER DUP5 TIMESTAMP PUSH1 0x40 MLOAD PUSH2 0x1A2D SWAP4 SWAP3 SWAP2 SWAP1 PUSH2 0x4457 JUMP JUMPDEST PUSH1 0x40 MLOAD DUP1 SWAP2 SUB SWAP1 LOG1 POP POP POP JUMP JUMPDEST PUSH1 0x3 SLOAD DUP2 JUMP JUMPDEST PUSH0 DUP1 PUSH0 DUP1 SLOAD SWAP1 PUSH2 0x100 EXP SWAP1 DIV PUSH20 0xFFFFFFFFFFFFFFFFFFFFFFFFFFFFFFFFFFFFFFFF AND PUSH20 0xFFFFFFFFFFFFFFFFFFFFFFFFFFFFFFFFFFFFFFFF AND PUSH4 0x75894E8C CALLER PUSH1 0x40 MLOAD DUP3 PUSH4 0xFFFFFFFF AND PUSH1 0xE0 SHL DUP2 MSTORE PUSH1 0x4 ADD PUSH2 0x1A9A SWAP2 SWAP1 PUSH2 0x3B0B JUMP JUMPDEST PUSH1 0x40 DUP1 MLOAD DUP1 DUP4 SUB DUP2 PUSH0 DUP8 GAS CALL ISZERO DUP1 ISZERO PUSH2 0x1AB5 JUMPI RETURNDATASIZE PUSH0 DUP1 RETURNDATACOPY RETURNDATASIZE PUSH0 REVERT JUMPDEST POP POP POP POP PUSH1 0x40 MLOAD RETURNDATASIZE PUSH1 0x1F NOT PUSH1 0x1F DUP3 ADD AND DUP3 ADD DUP1 PUSH1 0x40 MSTORE POP DUP2 ADD SWAP1 PUSH2 0x1AD9 SWAP2 SWAP1 PUSH2 0x3B5B JUMP JUMPDEST SWAP2 POP SWAP2 POP PUSH1 0x1 PUSH1 0x4 DUP2 GT ISZERO PUSH2 0x1AF1 JUMPI PUSH2 0x1AF0 PUSH2 0x3025 JUMP JUMPDEST JUMPDEST DUP3 PUSH1 0x4 DUP2 GT ISZERO PUSH2 0x1B04 JUMPI PUSH2 0x1B03 PUSH2 0x3025 JUMP JUMPDEST JUMPDEST EQ DUP1 ISZERO PUSH2 0x1B0E JUMPI POP DUP1 JUMPDEST PUSH2 0x1B4D JUMPI PUSH1 0x40 MLOAD PUSH32 0x8C379A000000000000000000000000000000000000000000000000000000000 DUP2 MSTORE PUSH1 0x4 ADD PUSH2 0x1B44 SWAP1 PUSH2 0x44FC JUMP JUMPDEST PUSH1 0x40 MLOAD DUP1 SWAP2 SUB SWAP1 REVERT JUMPDEST PUSH1 0x2 PUSH0 DUP2 SLOAD DUP1 SWAP3 SWAP2 SWAP1 PUSH2 0x1B5F SWAP1 PUSH2 0x42A3 JUMP JUMPDEST SWAP2 SWAP1 POP SSTORE POP PUSH1 0x40 MLOAD DUP1 PUSH1 0xC0 ADD PUSH1 0x40 MSTORE DUP1 CALLER PUSH20 0xFFFFFFFFFFFFFFFFFFFFFFFFFFFFFFFFFFFFFFFF AND DUP2 MSTORE PUSH1 0x20 ADD TIMESTAMP DUP2 MSTORE PUSH1 0x20 ADD DUP5 DUP2 MSTORE PUSH1 0x20 ADD DUP6 PUSH2 0x1BA1 SWAP1 PUSH2 0x4553 JUMP JUMPDEST DUP2 MSTORE PUSH1 0x20 ADD PUSH0 ISZERO ISZERO DUP2 MSTORE PUSH1 0x20 ADD PUSH0 ISZERO ISZERO DUP2 MSTORE POP PUSH1 0x4 PUSH0 PUSH1 0x2 SLOAD DUP2 MSTORE PUSH1 0x20 ADD SWAP1 DUP2 MSTORE PUSH1 0x20 ADD PUSH0 KECCAK256 PUSH0 DUP3 ADD MLOAD DUP2 PUSH0 ADD PUSH0 PUSH2 0x100 EXP DUP2 SLOAD DUP2 PUSH20 0xFFFFFFFFFFFFFFFFFFFFFFFFFFFFFFFFFFFFFFFF MUL NOT AND SWAP1 DUP4 PUSH20 0xFFFFFFFFFFFFFFFFFFFFFFFFFFFFFFFFFFFFFFFF AND MUL OR SWAP1 SSTORE POP PUSH1 0x20 DUP3 ADD MLOAD DUP2 PUSH1 0x1 ADD SSTORE PUSH1 0x40 DUP3 ADD MLOAD DUP2 PUSH1 0x2 ADD SSTORE PUSH1 0x60 DUP3 ADD MLOAD DUP2 PUSH1 0x3 ADD SSTORE PUSH1 0x80 DUP3 ADD MLOAD DUP2 PUSH1 0x4 ADD PUSH0 PUSH2 0x100 EXP DUP2 SLOAD DUP2 PUSH1 0xFF MUL NOT AND SWAP1 DUP4 ISZERO ISZERO MUL OR SWAP1 SSTORE POP PUSH1 0xA0 DUP3 ADD MLOAD DUP2 PUSH1 0x4 ADD PUSH1 0x1 PUSH2 0x100 EXP DUP2 SLOAD DUP2 PUSH1 0xFF MUL NOT AND SWAP1 DUP4 ISZERO ISZERO MUL OR SWAP1 SSTORE POP SWAP1 POP POP DUP3 PUSH1 0x3 PUSH0 DUP3 DUP3 SLOAD PUSH2 0x1C7C SWAP2 SWAP1 PUSH2 0x45B9 JUMP JUMPDEST SWAP3 POP POP DUP2 SWAP1 SSTORE POP PUSH1 0x2 SLOAD PUSH32 0x681F3195132986285E497B66D82A1D87DEE04FE482A1E74020677B543E3F7C40 CALLER TIMESTAMP DUP8 PUSH2 0x1CB3 SWAP1 PUSH2 0x4553 JUMP JUMPDEST PUSH1 0x40 MLOAD PUSH2 0x1CC2 SWAP4 SWAP3 SWAP2 SWAP1 PUSH2 0x333C JUMP JUMPDEST PUSH1 0x40 MLOAD DUP1 SWAP2 SUB SWAP1 LOG2 POP POP POP POP JUMP JUMPDEST PUSH0 DUP1 PUSH0 DUP1 SLOAD SWAP1 PUSH2 0x100 EXP SWAP1 DIV PUSH20 0xFFFFFFFFFFFFFFFFFFFFFFFFFFFFFFFFFFFFFFFF AND PUSH20 0xFFFFFFFFFFFFFFFFFFFFFFFFFFFFFFFFFFFFFFFF AND PUSH4 0x75894E8C CALLER PUSH1 0x40 MLOAD DUP3 PUSH4 0xFFFFFFFF AND PUSH1 0xE0 SHL DUP2 MSTORE PUSH1 0x4 ADD PUSH2 0x1D2A SWAP2 SWAP1 PUSH2 0x3B0B JUMP JUMPDEST PUSH1 0x40 DUP1 MLOAD DUP1 DUP4 SUB DUP2 PUSH0 DUP8 GAS CALL ISZERO DUP1 ISZERO PUSH2 0x1D45 JUMPI RETURNDATASIZE PUSH0 DUP1 RETURNDATACOPY RETURNDATASIZE PUSH0 REVERT JUMPDEST POP POP POP POP PUSH1 0x40 MLOAD RETURNDATASIZE PUSH1 0x1F NOT PUSH1 0x1F DUP3 ADD AND DUP3 ADD DUP1 PUSH1 0x40 MSTORE POP DUP2 ADD SWAP1 PUSH2 0x1D69 SWAP2 SWAP1 PUSH2 0x3B5B JUMP JUMPDEST SWAP2 POP SWAP2 POP PUSH0 PUSH1 0x4 DUP2 GT ISZERO PUSH2 0x1D80 JUMPI PUSH2 0x1D7F PUSH2 0x3025 JUMP JUMPDEST JUMPDEST DUP3 PUSH1 0x4 DUP2 GT ISZERO PUSH2 0x1D93 JUMPI PUSH2 0x1D92 PUSH2 0x3025 JUMP JUMPDEST JUMPDEST EQ DUP1 ISZERO PUSH2 0x1D9D JUMPI POP DUP1 JUMPDEST PUSH2 0x1DDC JUMPI PUSH1 0x40 MLOAD PUSH32 0x8C379A000000000000000000000000000000000000000000000000000000000 DUP2 MSTORE PUSH1 0x4 ADD PUSH2 0x1DD3 SWAP1 PUSH2 0x4439 JUMP JUMPDEST PUSH1 0x40 MLOAD DUP1 SWAP2 SUB SWAP1 REVERT JUMPDEST DUP3 PUSH1 0x1 PUSH0 PUSH2 0x100 EXP DUP2 SLOAD DUP2 PUSH20 0xFFFFFFFFFFFFFFFFFFFFFFFFFFFFFFFFFFFFFFFF MUL NOT AND SWAP1 DUP4 PUSH20 0xFFFFFFFFFFFFFFFFFFFFFFFFFFFFFFFFFFFFFFFF AND MUL OR SWAP1 SSTORE POP PUSH32 0xD64AE07F3DDEA489022B7C3651C0B93CC96296695FEAC84461061DFA1F34C0CB CALLER DUP5 TIMESTAMP PUSH1 0x40 MLOAD PUSH2 0x1E4F SWAP4 SWAP3 SWAP2 SWAP1 PUSH2 0x4457 JUMP JUMPDEST PUSH1 0x40 MLOAD DUP1 SWAP2 SUB SWAP1 LOG1 POP POP POP JUMP JUMPDEST DUP2 PUSH0 DUP1 PUSH0 DUP1 SLOAD SWAP1 PUSH2 0x100 EXP SWAP1 DIV PUSH20 0xFFFFFFFFFFFFFFFFFFFFFFFFFFFFFFFFFFFFFFFF AND PUSH20 0xFFFFFFFFFFFFFFFFFFFFFFFFFFFFFFFFFFFFFFFF AND PUSH4 0x75894E8C CALLER PUSH1 0x40 MLOAD DUP3 PUSH4 0xFFFFFFFF AND PUSH1 0xE0 SHL DUP2 MSTORE PUSH1 0x4 ADD PUSH2 0x1EB7 SWAP2 SWAP1 PUSH2 0x3B0B JUMP JUMPDEST PUSH1 0x40 DUP1 MLOAD DUP1 DUP4 SUB DUP2 PUSH0 DUP8 GAS CALL ISZERO DUP1 ISZERO PUSH2 0x1ED2 JUMPI RETURNDATASIZE PUSH0 DUP1 RETURNDATACOPY RETURNDATASIZE PUSH0 REVERT JUMPDEST POP POP POP POP PUSH1 0x40 MLOAD RETURNDATASIZE PUSH1 0x1F NOT PUSH1 0x1F DUP3 ADD AND DUP3 ADD DUP1 PUSH1 0x40 MSTORE POP DUP2 ADD SWAP1 PUSH2 0x1EF6 SWAP2 SWAP1 PUSH2 0x3B5B JUMP JUMPDEST SWAP2 POP SWAP2 POP PUSH1 0x4 DUP1 DUP2 GT ISZERO PUSH2 0x1F0D JUMPI PUSH2 0x1F0C PUSH2 0x3025 JUMP JUMPDEST JUMPDEST DUP3 PUSH1 0x4 DUP2 GT ISZERO PUSH2 0x1F20 JUMPI PUSH2 0x1F1F PUSH2 0x3025 JUMP JUMPDEST JUMPDEST EQ DUP1 ISZERO PUSH2 0x1F2A JUMPI POP DUP1 JUMPDEST PUSH2 0x1F69 JUMPI PUSH1 0x40 MLOAD PUSH32 0x8C379A000000000000000000000000000000000000000000000000000000000 DUP2 MSTORE PUSH1 0x4 ADD PUSH2 0x1F60 SWAP1 PUSH2 0x3DD2 JUMP JUMPDEST PUSH1 0x40 MLOAD DUP1 SWAP2 SUB SWAP1 REVERT JUMPDEST CALLER PUSH20 0xFFFFFFFFFFFFFFFFFFFFFFFFFFFFFFFFFFFFFFFF AND PUSH1 0x8 PUSH0 DUP6 DUP2 MSTORE PUSH1 0x20 ADD SWAP1 DUP2 MSTORE PUSH1 0x20 ADD PUSH0 KECCAK256 PUSH0 ADD PUSH0 SWAP1 SLOAD SWAP1 PUSH2 0x100 EXP SWAP1 DIV PUSH20 0xFFFFFFFFFFFFFFFFFFFFFFFFFFFFFFFFFFFFFFFF AND PUSH20 0xFFFFFFFFFFFFFFFFFFFFFFFFFFFFFFFFFFFFFFFF AND EQ PUSH2 0x2009 JUMPI PUSH1 0x40 MLOAD PUSH32 0x8C379A000000000000000000000000000000000000000000000000000000000 DUP2 MSTORE PUSH1 0x4 ADD PUSH2 0x2000 SWAP1 PUSH2 0x3E60 JUMP JUMPDEST PUSH1 0x40 MLOAD DUP1 SWAP2 SUB SWAP1 REVERT JUMPDEST PUSH0 PUSH1 0x8 PUSH0 DUP8 DUP2 MSTORE PUSH1 0x20 ADD SWAP1 DUP2 MSTORE PUSH1 0x20 ADD PUSH0 KECCAK256 PUSH1 0x40 MLOAD DUP1 PUSH1 0xE0 ADD PUSH1 0x40 MSTORE SWAP1 DUP2 PUSH0 DUP3 ADD PUSH0 SWAP1 SLOAD SWAP1 PUSH2 0x100 EXP SWAP1 DIV PUSH20 0xFFFFFFFFFFFFFFFFFFFFFFFFFFFFFFFFFFFFFFFF AND PUSH20 0xFFFFFFFFFFFFFFFFFFFFFFFFFFFFFFFFFFFFFFFF AND PUSH20 0xFFFFFFFFFFFFFFFFFFFFFFFFFFFFFFFFFFFFFFFF AND DUP2 MSTORE PUSH1 0x20 ADD PUSH1 0x1 DUP3 ADD SLOAD DUP2 MSTORE PUSH1 0x20 ADD PUSH1 0x2 DUP3 ADD SLOAD DUP2 MSTORE PUSH1 0x20 ADD PUSH1 0x3 DUP3 ADD SLOAD DUP2 MSTORE PUSH1 0x20 ADD PUSH1 0x4 DUP3 ADD SLOAD DUP2 MSTORE PUSH1 0x20 ADD PUSH1 0x5 DUP3 ADD SLOAD DUP2 MSTORE PUSH1 0x20 ADD PUSH1 0x6 DUP3 ADD PUSH0 SWAP1 SLOAD SWAP1 PUSH2 0x100 EXP SWAP1 DIV PUSH1 0xFF AND PUSH1 0x3 DUP2 GT ISZERO PUSH2 0x20D0 JUMPI PUSH2 0x20CF PUSH2 0x3025 JUMP JUMPDEST JUMPDEST PUSH1 0x3 DUP2 GT ISZERO PUSH2 0x20E2 JUMPI PUSH2 0x20E1 PUSH2 0x3025 JUMP JUMPDEST JUMPDEST DUP2 MSTORE POP POP SWAP1 POP PUSH1 0x1 DUP8 LT ISZERO DUP1 ISZERO PUSH2 0x20FB JUMPI POP PUSH1 0x2 SLOAD DUP8 GT ISZERO JUMPDEST PUSH2 0x213A JUMPI PUSH1 0x40 MLOAD PUSH32 0x8C379A000000000000000000000000000000000000000000000000000000000 DUP2 MSTORE PUSH1 0x4 ADD PUSH2 0x2131 SWAP1 PUSH2 0x3C81 JUMP JUMPDEST PUSH1 0x40 MLOAD DUP1 SWAP2 SUB SWAP1 REVERT JUMPDEST PUSH1 0x1 DUP7 LT ISZERO DUP1 ISZERO PUSH2 0x215C JUMPI POP PUSH1 0x7 PUSH0 DUP9 DUP2 MSTORE PUSH1 0x20 ADD SWAP1 DUP2 MSTORE PUSH1 0x20 ADD PUSH0 KECCAK256 SLOAD DUP7 GT ISZERO JUMPDEST PUSH2 0x219B JUMPI PUSH1 0x40 MLOAD PUSH32 0x8C379A000000000000000000000000000000000000000000000000000000000 DUP2 MSTORE PUSH1 0x4 ADD PUSH2 0x2192 SWAP1 PUSH2 0x3EC8 JUMP JUMPDEST PUSH1 0x40 MLOAD DUP1 SWAP2 SUB SWAP1 REVERT JUMPDEST PUSH1 0x1 PUSH1 0x3 DUP2 GT ISZERO PUSH2 0x21AF JUMPI PUSH2 0x21AE PUSH2 0x3025 JUMP JUMPDEST JUMPDEST DUP2 PUSH1 0xC0 ADD MLOAD PUSH1 0x3 DUP2 GT ISZERO PUSH2 0x21C6 JUMPI PUSH2 0x21C5 PUSH2 0x3025 JUMP JUMPDEST JUMPDEST EQ PUSH2 0x2206 JUMPI PUSH1 0x40 MLOAD PUSH32 0x8C379A000000000000000000000000000000000000000000000000000000000 DUP2 MSTORE PUSH1 0x4 ADD PUSH2 0x21FD SWAP1 PUSH2 0x465C JUMP JUMPDEST PUSH1 0x40 MLOAD DUP1 SWAP2 SUB SWAP1 REVERT JUMPDEST PUSH1 0x2 PUSH1 0x8 PUSH0 DUP9 DUP2 MSTORE PUSH1 0x20 ADD SWAP1 DUP2 MSTORE PUSH1 0x20 ADD PUSH0 KECCAK256 PUSH1 0x6 ADD PUSH0 PUSH2 0x100 EXP DUP2 SLOAD DUP2 PUSH1 0xFF MUL NOT AND SWAP1 DUP4 PUSH1 0x3 DUP2 GT ISZERO PUSH2 0x223D JUMPI PUSH2 0x223C PUSH2 0x3025 JUMP JUMPDEST JUMPDEST MUL OR SWAP1 SSTORE POP TIMESTAMP PUSH1 0x8 PUSH0 DUP9 DUP2 MSTORE PUSH1 0x20 ADD SWAP1 DUP2 MSTORE PUSH1 0x20 ADD PUSH0 KECCAK256 PUSH1 0x2 ADD DUP2 SWAP1 SSTORE POP PUSH1 0x1 DUP6 PUSH2 0x2268 SWAP2 SWAP1 PUSH2 0x467A JUMP JUMPDEST TIMESTAMP PUSH2 0x2273 SWAP2 SWAP1 PUSH2 0x45B9 JUMP JUMPDEST PUSH1 0x8 PUSH0 DUP9 DUP2 MSTORE PUSH1 0x20 ADD SWAP1 DUP2 MSTORE PUSH1 0x20 ADD PUSH0 KECCAK256 PUSH1 0x3 ADD DUP2 SWAP1 SSTORE POP TIMESTAMP PUSH1 0x8 PUSH0 DUP9 DUP2 MSTORE PUSH1 0x20 ADD SWAP1 DUP2 MSTORE PUSH1 0x20 ADD PUSH0 KECCAK256 PUSH1 0x4 ADD DUP2 SWAP1 SSTORE POP PUSH32 0x29DC036766D8E77F495B0B42F18A239419AF9F8DD528D84E1251663AA6DA16C9 DUP8 DUP8 TIMESTAMP PUSH1 0x1 DUP10 PUSH2 0x22D5 SWAP2 SWAP1 PUSH2 0x467A JUMP JUMPDEST TIMESTAMP PUSH2 0x22E0 SWAP2 SWAP1 PUSH2 0x45B9 JUMP JUMPDEST PUSH1 0x40 MLOAD PUSH2 0x22F0 SWAP5 SWAP4 SWAP3 SWAP2 SWAP1 PUSH2 0x46BB JUMP JUMPDEST PUSH1 0x40 MLOAD DUP1 SWAP2 SUB SWAP1 LOG1 POP POP POP POP POP POP POP JUMP JUMPDEST PUSH1 0x9 PUSH1 0x20 MSTORE DUP1 PUSH0 MSTORE PUSH1 0x40 PUSH0 KECCAK256 PUSH0 SWAP2 POP SLOAD SWAP1 PUSH2 0x100 EXP SWAP1 DIV PUSH1 0xFF AND DUP2 JUMP JUMPDEST PUSH0 DUP1 PUSH0 DUP1 PUSH0 DUP1 PUSH0 DUP1 SLOAD SWAP1 PUSH2 0x100 EXP SWAP1 DIV PUSH20 0xFFFFFFFFFFFFFFFFFFFFFFFFFFFFFFFFFFFFFFFF AND PUSH20 0xFFFFFFFFFFFFFFFFFFFFFFFFFFFFFFFFFFFFFFFF AND PUSH4 0x75894E8C CALLER PUSH1 0x40 MLOAD DUP3 PUSH4 0xFFFFFFFF AND PUSH1 0xE0 SHL DUP2 MSTORE PUSH1 0x4 ADD PUSH2 0x237C SWAP2 SWAP1 PUSH2 0x3B0B JUMP JUMPDEST PUSH1 0x40 DUP1 MLOAD DUP1 DUP4 SUB DUP2 PUSH0 DUP8 GAS CALL ISZERO DUP1 ISZERO PUSH2 0x2397 JUMPI RETURNDATASIZE PUSH0 DUP1 RETURNDATACOPY RETURNDATASIZE PUSH0 REVERT JUMPDEST POP POP POP POP PUSH1 0x40 MLOAD RETURNDATASIZE PUSH1 0x1F NOT PUSH1 0x1F DUP3 ADD AND DUP3 ADD DUP1 PUSH1 0x40 MSTORE POP DUP2 ADD SWAP1 PUSH2 0x23BB SWAP2 SWAP1 PUSH2 0x3B5B JUMP JUMPDEST SWAP2 POP SWAP2 POP PUSH0 PUSH1 0x4 DUP2 GT ISZERO PUSH2 0x23D2 JUMPI PUSH2 0x23D1 PUSH2 0x3025 JUMP JUMPDEST JUMPDEST DUP3 PUSH1 0x4 DUP2 GT ISZERO PUSH2 0x23E5 JUMPI PUSH2 0x23E4 PUSH2 0x3025 JUMP JUMPDEST JUMPDEST EQ DUP1 ISZERO PUSH2 0x23EF JUMPI POP DUP1 JUMPDEST PUSH2 0x242E JUMPI PUSH1 0x40 MLOAD PUSH32 0x8C379A000000000000000000000000000000000000000000000000000000000 DUP2 MSTORE PUSH1 0x4 ADD PUSH2 0x2425 SWAP1 PUSH2 0x4439 JUMP JUMPDEST PUSH1 0x40 MLOAD DUP1 SWAP2 SUB SWAP1 REVERT JUMPDEST PUSH0 PUSH1 0x8 PUSH0 DUP10 DUP2 MSTORE PUSH1 0x20 ADD SWAP1 DUP2 MSTORE PUSH1 0x20 ADD PUSH0 KECCAK256 PUSH1 0x40 MLOAD DUP1 PUSH1 0xE0 ADD PUSH1 0x40 MSTORE SWAP1 DUP2 PUSH0 DUP3 ADD PUSH0 SWAP1 SLOAD SWAP1 PUSH2 0x100 EXP SWAP1 DIV PUSH20 0xFFFFFFFFFFFFFFFFFFFFFFFFFFFFFFFFFFFFFFFF AND PUSH20 0xFFFFFFFFFFFFFFFFFFFFFFFFFFFFFFFFFFFFFFFF AND PUSH20 0xFFFFFFFFFFFFFFFFFFFFFFFFFFFFFFFFFFFFFFFF AND DUP2 MSTORE PUSH1 0x20 ADD PUSH1 0x1 DUP3 ADD SLOAD DUP2 MSTORE PUSH1 0x20 ADD PUSH1 0x2 DUP3 ADD SLOAD DUP2 MSTORE PUSH1 0x20 ADD PUSH1 0x3 DUP3 ADD SLOAD DUP2 MSTORE PUSH1 0x20 ADD PUSH1 0x4 DUP3 ADD SLOAD DUP2 MSTORE PUSH1 0x20 ADD PUSH1 0x5 DUP3 ADD SLOAD DUP2 MSTORE PUSH1 0x20 ADD PUSH1 0x6 DUP3 ADD PUSH0 SWAP1 SLOAD SWAP1 PUSH2 0x100 EXP SWAP1 DIV PUSH1 0xFF AND PUSH1 0x3 DUP2 GT ISZERO PUSH2 0x24F5 JUMPI PUSH2 0x24F4 PUSH2 0x3025 JUMP JUMPDEST JUMPDEST PUSH1 0x3 DUP2 GT ISZERO PUSH2 0x2507 JUMPI PUSH2 0x2506 PUSH2 0x3025 JUMP JUMPDEST JUMPDEST DUP2 MSTORE POP POP SWAP1 POP PUSH1 0x1 DUP10 LT ISZERO DUP1 ISZERO PUSH2 0x2520 JUMPI POP PUSH1 0x2 SLOAD DUP10 GT ISZERO JUMPDEST PUSH2 0x255F JUMPI PUSH1 0x40 MLOAD PUSH32 0x8C379A000000000000000000000000000000000000000000000000000000000 DUP2 MSTORE PUSH1 0x4 ADD PUSH2 0x2556 SWAP1 PUSH2 0x3C81 JUMP JUMPDEST PUSH1 0x40 MLOAD DUP1 SWAP2 SUB SWAP1 REVERT JUMPDEST PUSH1 0x1 DUP9 LT ISZERO DUP1 ISZERO PUSH2 0x2581 JUMPI POP PUSH1 0x7 PUSH0 DUP11 DUP2 MSTORE PUSH1 0x20 ADD SWAP1 DUP2 MSTORE PUSH1 0x20 ADD PUSH0 KECCAK256 SLOAD DUP9 GT ISZERO JUMPDEST PUSH2 0x25C0 JUMPI PUSH1 0x40 MLOAD PUSH32 0x8C379A000000000000000000000000000000000000000000000000000000000 DUP2 MSTORE PUSH1 0x4 ADD PUSH2 0x25B7 SWAP1 PUSH2 0x3EC8 JUMP JUMPDEST PUSH1 0x40 MLOAD DUP1 SWAP2 SUB SWAP1 REVERT JUMPDEST DUP1 PUSH1 0xC0 ADD MLOAD DUP2 PUSH1 0x80 ADD MLOAD DUP3 PUSH1 0x40 ADD MLOAD DUP4 PUSH1 0x60 ADD MLOAD SWAP7 POP SWAP7 POP SWAP7 POP SWAP7 POP POP POP POP SWAP3 SWAP6 SWAP2 SWAP5 POP SWAP3 POP JUMP JUMPDEST PUSH1 0x5 PUSH1 0x20 MSTORE DUP1 PUSH0 MSTORE PUSH1 0x40 PUSH0 KECCAK256 PUSH0 SWAP2 POP SWAP1 POP SLOAD DUP2 JUMP JUMPDEST DUP2 PUSH0 DUP1 PUSH0 DUP1 SLOAD SWAP1 PUSH2 0x100 EXP SWAP1 DIV PUSH20 0xFFFFFFFFFFFFFFFFFFFFFFFFFFFFFFFFFFFFFFFF AND PUSH20 0xFFFFFFFFFFFFFFFFFFFFFFFFFFFFFFFFFFFFFFFF AND PUSH4 0x75894E8C CALLER PUSH1 0x40 MLOAD DUP3 PUSH4 0xFFFFFFFF AND PUSH1 0xE0 SHL DUP2 MSTORE PUSH1 0x4 ADD PUSH2 0x2658 SWAP2 SWAP1 PUSH2 0x3B0B JUMP JUMPDEST PUSH1 0x40 DUP1 MLOAD DUP1 DUP4 SUB DUP2 PUSH0 DUP8 GAS CALL ISZERO DUP1 ISZERO PUSH2 0x2673 JUMPI RETURNDATASIZE PUSH0 DUP1 RETURNDATACOPY RETURNDATASIZE PUSH0 REVERT JUMPDEST POP POP POP POP PUSH1 0x40 MLOAD RETURNDATASIZE PUSH1 0x1F NOT PUSH1 0x1F DUP3 ADD AND DUP3 ADD DUP1 PUSH1 0x40 MSTORE POP DUP2 ADD SWAP1 PUSH2 0x2697 SWAP2 SWAP1 PUSH2 0x3B5B JUMP JUMPDEST SWAP2 POP SWAP2 POP PUSH1 0x4 DUP1 DUP2 GT ISZERO PUSH2 0x26AE JUMPI PUSH2 0x26AD PUSH2 0x3025 JUMP JUMPDEST JUMPDEST DUP3 PUSH1 0x4 DUP2 GT ISZERO PUSH2 0x26C1 JUMPI PUSH2 0x26C0 PUSH2 0x3025 JUMP JUMPDEST JUMPDEST EQ DUP1 ISZERO PUSH2 0x26CB JUMPI POP DUP1 JUMPDEST PUSH2 0x270A JUMPI PUSH1 0x40 MLOAD PUSH32 0x8C379A000000000000000000000000000000000000000000000000000000000 DUP2 MSTORE PUSH1 0x4 ADD PUSH2 0x2701 SWAP1 PUSH2 0x3DD2 JUMP JUMPDEST PUSH1 0x40 MLOAD DUP1 SWAP2 SUB SWAP1 REVERT JUMPDEST CALLER PUSH20 0xFFFFFFFFFFFFFFFFFFFFFFFFFFFFFFFFFFFFFFFF AND PUSH1 0x8 PUSH0 DUP6 DUP2 MSTORE PUSH1 0x20 ADD SWAP1 DUP2 MSTORE PUSH1 0x20 ADD PUSH0 KECCAK256 PUSH0 ADD PUSH0 SWAP1 SLOAD SWAP1 PUSH2 0x100 EXP SWAP1 DIV PUSH20 0xFFFFFFFFFFFFFFFFFFFFFFFFFFFFFFFFFFFFFFFF AND PUSH20 0xFFFFFFFFFFFFFFFFFFFFFFFFFFFFFFFFFFFFFFFF AND EQ PUSH2 0x27AA JUMPI PUSH1 0x40 MLOAD PUSH32 0x8C379A000000000000000000000000000000000000000000000000000000000 DUP2 MSTORE PUSH1 0x4 ADD PUSH2 0x27A1 SWAP1 PUSH2 0x3E60 JUMP JUMPDEST PUSH1 0x40 MLOAD DUP1 SWAP2 SUB SWAP1 REVERT JUMPDEST PUSH0 PUSH1 0x8 PUSH0 DUP8 DUP2 MSTORE PUSH1 0x20 ADD SWAP1 DUP2 MSTORE PUSH1 0x20 ADD PUSH0 KECCAK256 PUSH1 0x40 MLOAD DUP1 PUSH1 0xE0 ADD PUSH1 0x40 MSTORE SWAP1 DUP2 PUSH0 DUP3 ADD PUSH0 SWAP1 SLOAD SWAP1 PUSH2 0x100 EXP SWAP1 DIV PUSH20 0xFFFFFFFFFFFFFFFFFFFFFFFFFFFFFFFFFFFFFFFF AND PUSH20 0xFFFFFFFFFFFFFFFFFFFFFFFFFFFFFFFFFFFFFFFF AND PUSH20 0xFFFFFFFFFFFFFFFFFFFFFFFFFFFFFFFFFFFFFFFF AND DUP2 MSTORE PUSH1 0x20 ADD PUSH1 0x1 DUP3 ADD SLOAD DUP2 MSTORE PUSH1 0x20 ADD PUSH1 0x2 DUP3 ADD SLOAD DUP2 MSTORE PUSH1 0x20 ADD PUSH1 0x3 DUP3 ADD SLOAD DUP2 MSTORE PUSH1 0x20 ADD PUSH1 0x4 DUP3 ADD SLOAD DUP2 MSTORE PUSH1 0x20 ADD PUSH1 0x5 DUP3 ADD SLOAD DUP2 MSTORE PUSH1 0x20 ADD PUSH1 0x6 DUP3 ADD PUSH0 SWAP1 SLOAD SWAP1 PUSH2 0x100 EXP SWAP1 DIV PUSH1 0xFF AND PUSH1 0x3 DUP2 GT ISZERO PUSH2 0x2871 JUMPI PUSH2 0x2870 PUSH2 0x3025 JUMP JUMPDEST JUMPDEST PUSH1 0x3 DUP2 GT ISZERO PUSH2 0x2883 JUMPI PUSH2 0x2882 PUSH2 0x3025 JUMP JUMPDEST JUMPDEST DUP2 MSTORE POP POP SWAP1 POP PUSH1 0x1 DUP8 LT ISZERO DUP1 ISZERO PUSH2 0x289C JUMPI POP PUSH1 0x2 SLOAD DUP8 GT ISZERO JUMPDEST PUSH2 0x28DB JUMPI PUSH1 0x40 MLOAD PUSH32 0x8C379A000000000000000000000000000000000000000000000000000000000 DUP2 MSTORE PUSH1 0x4 ADD PUSH2 0x28D2 SWAP1 PUSH2 0x3C81 JUMP JUMPDEST PUSH1 0x40 MLOAD DUP1 SWAP2 SUB SWAP1 REVERT JUMPDEST PUSH1 0x1 DUP7 LT ISZERO DUP1 ISZERO PUSH2 0x28FD JUMPI POP PUSH1 0x7 PUSH0 DUP9 DUP2 MSTORE PUSH1 0x20 ADD SWAP1 DUP2 MSTORE PUSH1 0x20 ADD PUSH0 KECCAK256 SLOAD DUP7 GT ISZERO JUMPDEST PUSH2 0x293C JUMPI PUSH1 0x40 MLOAD PUSH32 0x8C379A000000000000000000000000000000000000000000000000000000000 DUP2 MSTORE PUSH1 0x4 ADD PUSH2 0x2933 SWAP1 PUSH2 0x3EC8 JUMP JUMPDEST PUSH1 0x40 MLOAD DUP1 SWAP2 SUB SWAP1 REVERT JUMPDEST PUSH1 0x2 PUSH1 0x3 DUP2 GT ISZERO PUSH2 0x2950 JUMPI PUSH2 0x294F PUSH2 0x3025 JUMP JUMPDEST JUMPDEST DUP2 PUSH1 0xC0 ADD MLOAD PUSH1 0x3 DUP2 GT ISZERO PUSH2 0x2967 JUMPI PUSH2 0x2966 PUSH2 0x3025 JUMP JUMPDEST JUMPDEST EQ PUSH2 0x29A7 JUMPI PUSH1 0x40 MLOAD PUSH32 0x8C379A000000000000000000000000000000000000000000000000000000000 DUP2 MSTORE PUSH1 0x4 ADD PUSH2 0x299E SWAP1 PUSH2 0x3F56 JUMP JUMPDEST PUSH1 0x40 MLOAD DUP1 SWAP2 SUB SWAP1 REVERT JUMPDEST DUP5 PUSH2 0x29B1 SWAP1 PUSH2 0x4553 JUMP JUMPDEST PUSH1 0x8 PUSH0 DUP9 DUP2 MSTORE PUSH1 0x20 ADD SWAP1 DUP2 MSTORE PUSH1 0x20 ADD PUSH0 KECCAK256 PUSH1 0x5 ADD DUP2 SWAP1 SSTORE POP TIMESTAMP PUSH1 0x8 PUSH0 DUP9 DUP2 MSTORE PUSH1 0x20 ADD SWAP1 DUP2 MSTORE PUSH1 0x20 ADD PUSH0 KECCAK256 PUSH1 0x4 ADD DUP2 SWAP1 SSTORE POP PUSH32 0xDE2669F070BFB51D280EF42C92C59E3F20BBEEF765E99CAB94CD673CC2BF0F2F DUP8 DUP8 TIMESTAMP DUP9 PUSH2 0x2A10 SWAP1 PUSH2 0x4553 JUMP JUMPDEST PUSH1 0x40 MLOAD PUSH2 0x2A20 SWAP5 SWAP4 SWAP3 SWAP2 SWAP1 PUSH2 0x46FE JUMP JUMPDEST PUSH1 0x40 MLOAD DUP1 SWAP2 SUB SWAP1 LOG1 POP POP POP POP POP POP POP JUMP JUMPDEST PUSH0 DUP1 SLOAD SWAP1 PUSH2 0x100 EXP SWAP1 DIV PUSH20 0xFFFFFFFFFFFFFFFFFFFFFFFFFFFFFFFFFFFFFFFF AND DUP2 JUMP JUMPDEST PUSH0 DUP1 PUSH0 DUP1 SLOAD SWAP1 PUSH2 0x100 EXP SWAP1 DIV PUSH20 0xFFFFFFFFFFFFFFFFFFFFFFFFFFFFFFFFFFFFFFFF AND PUSH20 0xFFFFFFFFFFFFFFFFFFFFFFFFFFFFFFFFFFFFFFFF AND PUSH4 0x75894E8C CALLER PUSH1 0x40 MLOAD DUP3 PUSH4 0xFFFFFFFF AND PUSH1 0xE0 SHL DUP2 MSTORE PUSH1 0x4 ADD PUSH2 0x2AAE SWAP2 SWAP1 PUSH2 0x3B0B JUMP JUMPDEST PUSH1 0x40 DUP1 MLOAD DUP1 DUP4 SUB DUP2 PUSH0 DUP8 GAS CALL ISZERO DUP1 ISZERO PUSH2 0x2AC9 JUMPI RETURNDATASIZE PUSH0 DUP1 RETURNDATACOPY RETURNDATASIZE PUSH0 REVERT JUMPDEST POP POP POP POP PUSH1 0x40 MLOAD RETURNDATASIZE PUSH1 0x1F NOT PUSH1 0x1F DUP3 ADD AND DUP3 ADD DUP1 PUSH1 0x40 MSTORE POP DUP2 ADD SWAP1 PUSH2 0x2AED SWAP2 SWAP1 PUSH2 0x3B5B JUMP JUMPDEST SWAP2 POP SWAP2 POP PUSH0 PUSH1 0x4 DUP2 GT ISZERO PUSH2 0x2B04 JUMPI PUSH2 0x2B03 PUSH2 0x3025 JUMP JUMPDEST JUMPDEST DUP3 PUSH1 0x4 DUP2 GT ISZERO PUSH2 0x2B17 JUMPI PUSH2 0x2B16 PUSH2 0x3025 JUMP JUMPDEST JUMPDEST EQ DUP1 ISZERO PUSH2 0x2B21 JUMPI POP DUP1 JUMPDEST PUSH2 0x2B60 JUMPI PUSH1 0x40 MLOAD PUSH32 0x8C379A000000000000000000000000000000000000000000000000000000000 DUP2 MSTORE PUSH1 0x4 ADD PUSH2 0x2B57 SWAP1 PUSH2 0x4439 JUMP JUMPDEST PUSH1 0x40 MLOAD DUP1 SWAP2 SUB SWAP1 REVERT JUMPDEST PUSH0 PUSH1 0x6 PUSH0 DUP8 DUP2 MSTORE PUSH1 0x20 ADD SWAP1 DUP2 MSTORE PUSH1 0x20 ADD PUSH0 KECCAK256 PUSH0 DUP7 DUP2 MSTORE PUSH1 0x20 ADD SWAP1 DUP2 MSTORE PUSH1 0x20 ADD PUSH0 KECCAK256 PUSH1 0x40 MLOAD DUP1 PUSH1 0xC0 ADD PUSH1 0x40 MSTORE SWAP1 DUP2 PUSH0 DUP3 ADD SLOAD DUP2 MSTORE PUSH1 0x20 ADD PUSH1 0x1 DUP3 ADD SLOAD DUP2 MSTORE PUSH1 0x20 ADD PUSH1 0x2 DUP3 ADD SLOAD DUP2 MSTORE PUSH1 0x20 ADD PUSH1 0x3 DUP3 ADD PUSH0 SWAP1 SLOAD SWAP1 PUSH2 0x100 EXP SWAP1 DIV PUSH1 0xF8 SHL PUSH31 0xFFFFFFFFFFFFFFFFFFFFFFFFFFFFFFFFFFFFFFFFFFFFFFFFFFFFFFFFFFFFFF NOT AND PUSH31 0xFFFFFFFFFFFFFFFFFFFFFFFFFFFFFFFFFFFFFFFFFFFFFFFFFFFFFFFFFFFFFF NOT AND DUP2 MSTORE PUSH1 0x20 ADD PUSH1 0x4 DUP3 ADD SLOAD DUP2 MSTORE PUSH1 0x20 ADD PUSH1 0x5 DUP3 ADD PUSH0 SWAP1 SLOAD SWAP1 PUSH2 0x100 EXP SWAP1 DIV PUSH1 0xFF AND PUSH1 0x3 DUP2 GT ISZERO PUSH2 0x2C31 JUMPI PUSH2 0x2C30 PUSH2 0x3025 JUMP JUMPDEST JUMPDEST PUSH1 0x3 DUP2 GT ISZERO PUSH2 0x2C43 JUMPI PUSH2 0x2C42 PUSH2 0x3025 JUMP JUMPDEST JUMPDEST DUP2 MSTORE POP POP SWAP1 POP PUSH0 PUSH1 0x3 DUP2 GT ISZERO PUSH2 0x2C5C JUMPI PUSH2 0x2C5B PUSH2 0x3025 JUMP JUMPDEST JUMPDEST DUP2 PUSH1 0xA0 ADD MLOAD PUSH1 0x3 DUP2 GT ISZERO PUSH2 0x2C73 JUMPI PUSH2 0x2C72 PUSH2 0x3025 JUMP JUMPDEST JUMPDEST EQ PUSH2 0x2CB3 JUMPI PUSH1 0x40 MLOAD PUSH32 0x8C379A000000000000000000000000000000000000000000000000000000000 DUP2 MSTORE PUSH1 0x4 ADD PUSH2 0x2CAA SWAP1 PUSH2 0x47D7 JUMP JUMPDEST PUSH1 0x40 MLOAD DUP1 SWAP2 SUB SWAP1 REVERT JUMPDEST PUSH1 0x1 DUP7 LT ISZERO DUP1 ISZERO PUSH2 0x2CC6 JUMPI POP PUSH1 0x2 SLOAD DUP7 GT ISZERO JUMPDEST PUSH2 0x2D05 JUMPI PUSH1 0x40 MLOAD PUSH32 0x8C379A000000000000000000000000000000000000000000000000000000000 DUP2 MSTORE PUSH1 0x4 ADD PUSH2 0x2CFC SWAP1 PUSH2 0x3C81 JUMP JUMPDEST PUSH1 0x40 MLOAD DUP1 SWAP2 SUB SWAP1 REVERT JUMPDEST PUSH1 0x1 DUP6 LT ISZERO DUP1 ISZERO PUSH2 0x2D27 JUMPI POP PUSH1 0x7 PUSH0 DUP8 DUP2 MSTORE PUSH1 0x20 ADD SWAP1 DUP2 MSTORE PUSH1 0x20 ADD PUSH0 KECCAK256 SLOAD DUP6 GT ISZERO JUMPDEST PUSH2 0x2D66 JUMPI PUSH1 0x40 MLOAD PUSH32 0x8C379A000000000000000000000000000000000000000000000000000000000 DUP2 MSTORE PUSH1 0x4 ADD PUSH2 0x2D5D SWAP1 PUSH2 0x3EC8 JUMP JUMPDEST PUSH1 0x40 MLOAD DUP1 SWAP2 SUB SWAP1 REVERT JUMPDEST DUP4 PUSH1 0x8 PUSH0 DUP8 DUP2 MSTORE PUSH1 0x20 ADD SWAP1 DUP2 MSTORE PUSH1 0x20 ADD PUSH0 KECCAK256 PUSH0 ADD PUSH0 PUSH2 0x100 EXP DUP2 SLOAD DUP2 PUSH20 0xFFFFFFFFFFFFFFFFFFFFFFFFFFFFFFFFFFFFFFFF MUL NOT AND SWAP1 DUP4 PUSH20 0xFFFFFFFFFFFFFFFFFFFFFFFFFFFFFFFFFFFFFFFF AND MUL OR SWAP1 SSTORE POP DUP5 PUSH1 0x8 PUSH0 DUP8 DUP2 MSTORE PUSH1 0x20 ADD SWAP1 DUP2 MSTORE PUSH1 0x20 ADD PUSH0 KECCAK256 PUSH1 0x1 ADD DUP2 SWAP1 SSTORE POP PUSH1 0x1 PUSH1 0x8 PUSH0 DUP8 DUP2 MSTORE PUSH1 0x20 ADD SWAP1 DUP2 MSTORE PUSH1 0x20 ADD PUSH0 KECCAK256 PUSH1 0x6 ADD PUSH0 PUSH2 0x100 EXP DUP2 SLOAD DUP2 PUSH1 0xFF MUL NOT AND SWAP1 DUP4 PUSH1 0x3 DUP2 GT ISZERO PUSH2 0x2E07 JUMPI PUSH2 0x2E06 PUSH2 0x3025 JUMP JUMPDEST JUMPDEST MUL OR SWAP1 SSTORE POP PUSH32 0xE1A03807FF7B7D8AC4C42CF3FE3905D10B2B30935D18974726482DB3BF232E36 DUP6 DUP8 DUP7 PUSH1 0x40 MLOAD PUSH2 0x2E3F SWAP4 SWAP3 SWAP2 SWAP1 PUSH2 0x47F5 JUMP JUMPDEST PUSH1 0x40 MLOAD DUP1 SWAP2 SUB SWAP1 LOG1 POP POP POP POP POP POP JUMP JUMPDEST PUSH1 0xA PUSH1 0x20 MSTORE DUP1 PUSH0 MSTORE PUSH1 0x40 PUSH0 KECCAK256 PUSH0 SWAP2 POP SWAP1 POP DUP1 PUSH0 ADD PUSH1 0x40 MLOAD DUP1 PUSH1 0x40 ADD PUSH1 0x40 MSTORE SWAP1 DUP2 PUSH0 DUP3 ADD SLOAD DUP2 MSTORE PUSH1 0x20 ADD PUSH1 0x1 DUP3 ADD SLOAD DUP2 MSTORE POP POP SWAP1 DUP1 PUSH1 0x2 ADD PUSH1 0x40 MLOAD DUP1 PUSH1 0x40 ADD PUSH1 0x40 MSTORE SWAP1 DUP2 PUSH0 DUP3 ADD PUSH1 0x2 DUP1 PUSH1 0x20 MUL PUSH1 0x40 MLOAD SWAP1 DUP2 ADD PUSH1 0x40 MSTORE DUP1 SWAP3 SWAP2 SWAP1 DUP3 PUSH1 0x2 DUP1 ISZERO PUSH2 0x2ECC JUMPI PUSH1 0x20 MUL DUP3 ADD SWAP2 JUMPDEST DUP2 SLOAD DUP2 MSTORE PUSH1 0x20 ADD SWAP1 PUSH1 0x1 ADD SWAP1 DUP1 DUP4 GT PUSH2 0x2EB8 JUMPI JUMPDEST POP POP POP POP POP DUP2 MSTORE PUSH1 0x20 ADD PUSH1 0x2 DUP3 ADD PUSH1 0x2 DUP1 PUSH1 0x20 MUL PUSH1 0x40 MLOAD SWAP1 DUP2 ADD PUSH1 0x40 MSTORE DUP1 SWAP3 SWAP2 SWAP1 DUP3 PUSH1 0x2 DUP1 ISZERO PUSH2 0x2F11 JUMPI PUSH1 0x20 MUL DUP3 ADD SWAP2 JUMPDEST DUP2 SLOAD DUP2 MSTORE PUSH1 0x20 ADD SWAP1 PUSH1 0x1 ADD SWAP1 DUP1 DUP4 GT PUSH2 0x2EFD JUMPI JUMPDEST POP POP POP POP POP DUP2 MSTORE POP POP SWAP1 DUP1 PUSH1 0x6 ADD PUSH1 0x40 MLOAD DUP1 PUSH1 0x40 ADD PUSH1 0x40 MSTORE SWAP1 DUP2 PUSH0 DUP3 ADD SLOAD DUP2 MSTORE PUSH1 0x20 ADD PUSH1 0x1 DUP3 ADD SLOAD DUP2 MSTORE POP POP SWAP1 POP DUP4 JUMP JUMPDEST PUSH0 PUSH1 0x40 MLOAD SWAP1 POP SWAP1 JUMP JUMPDEST PUSH0 DUP1 REVERT JUMPDEST PUSH0 DUP1 REVERT JUMPDEST PUSH0 DUP2 SWAP1 POP SWAP2 SWAP1 POP JUMP JUMPDEST PUSH2 0x2F65 DUP2 PUSH2 0x2F53 JUMP JUMPDEST DUP2 EQ PUSH2 0x2F6F JUMPI PUSH0 DUP1 REVERT JUMPDEST POP JUMP JUMPDEST PUSH0 DUP2 CALLDATALOAD SWAP1 POP PUSH2 0x2F80 DUP2 PUSH2 0x2F5C JUMP JUMPDEST SWAP3 SWAP2 POP POP JUMP JUMPDEST PUSH0 DUP1 PUSH1 0x40 DUP4 DUP6 SUB SLT ISZERO PUSH2 0x2F9C JUMPI PUSH2 0x2F9B PUSH2 0x2F4B JUMP JUMPDEST JUMPDEST PUSH0 PUSH2 0x2FA9 DUP6 DUP3 DUP7 ADD PUSH2 0x2F72 JUMP JUMPDEST SWAP3 POP POP PUSH1 0x20 PUSH2 0x2FBA DUP6 DUP3 DUP7 ADD PUSH2 0x2F72 JUMP JUMPDEST SWAP2 POP POP SWAP3 POP SWAP3 SWAP1 POP JUMP JUMPDEST PUSH2 0x2FCD DUP2 PUSH2 0x2F53 JUMP JUMPDEST DUP3 MSTORE POP POP JUMP JUMPDEST PUSH0 DUP2 SWAP1 POP SWAP2 SWAP1 POP JUMP JUMPDEST PUSH2 0x2FE5 DUP2 PUSH2 0x2FD3 JUMP JUMPDEST DUP3 MSTORE POP POP JUMP JUMPDEST PUSH0 PUSH32 0xFF00000000000000000000000000000000000000000000000000000000000000 DUP3 AND SWAP1 POP SWAP2 SWAP1 POP JUMP JUMPDEST PUSH2 0x301F DUP2 PUSH2 0x2FEB JUMP JUMPDEST DUP3 MSTORE POP POP JUMP JUMPDEST PUSH32 0x4E487B7100000000000000000000000000000000000000000000000000000000 PUSH0 MSTORE PUSH1 0x21 PUSH1 0x4 MSTORE PUSH1 0x24 PUSH0 REVERT JUMPDEST PUSH1 0x4 DUP2 LT PUSH2 0x3063 JUMPI PUSH2 0x3062 PUSH2 0x3025 JUMP JUMPDEST JUMPDEST POP JUMP JUMPDEST PUSH0 DUP2 SWAP1 POP PUSH2 0x3073 DUP3 PUSH2 0x3052 JUMP JUMPDEST SWAP2 SWAP1 POP JUMP JUMPDEST PUSH0 PUSH2 0x3082 DUP3 PUSH2 0x3066 JUMP JUMPDEST SWAP1 POP SWAP2 SWAP1 POP JUMP JUMPDEST PUSH2 0x3092 DUP2 PUSH2 0x3078 JUMP JUMPDEST DUP3 MSTORE POP POP JUMP JUMPDEST PUSH0 PUSH1 0xC0 DUP3 ADD SWAP1 POP PUSH2 0x30AB PUSH0 DUP4 ADD DUP10 PUSH2 0x2FC4 JUMP JUMPDEST PUSH2 0x30B8 PUSH1 0x20 DUP4 ADD DUP9 PUSH2 0x2FDC JUMP JUMPDEST PUSH2 0x30C5 PUSH1 0x40 DUP4 ADD DUP8 PUSH2 0x2FC4 JUMP JUMPDEST PUSH2 0x30D2 PUSH1 0x60 DUP4 ADD DUP7 PUSH2 0x3016 JUMP JUMPDEST PUSH2 0x30DF PUSH1 0x80 DUP4 ADD DUP6 PUSH2 0x2FC4 JUMP JUMPDEST PUSH2 0x30EC PUSH1 0xA0 DUP4 ADD DUP5 PUSH2 0x3089 JUMP JUMPDEST SWAP8 SWAP7 POP POP POP POP POP POP POP JUMP JUMPDEST PUSH0 PUSH1 0x20 DUP3 ADD SWAP1 POP PUSH2 0x310A PUSH0 DUP4 ADD DUP5 PUSH2 0x2FC4 JUMP JUMPDEST SWAP3 SWAP2 POP POP JUMP JUMPDEST PUSH0 DUP2 ISZERO ISZERO SWAP1 POP SWAP2 SWAP1 POP JUMP JUMPDEST PUSH2 0x3124 DUP2 PUSH2 0x3110 JUMP JUMPDEST DUP2 EQ PUSH2 0x312E JUMPI PUSH0 DUP1 REVERT JUMPDEST POP JUMP JUMPDEST PUSH0 DUP2 CALLDATALOAD SWAP1 POP PUSH2 0x313F DUP2 PUSH2 0x311B JUMP JUMPDEST SWAP3 SWAP2 POP POP JUMP JUMPDEST PUSH0 DUP1 PUSH1 0x40 DUP4 DUP6 SUB SLT ISZERO PUSH2 0x315B JUMPI PUSH2 0x315A PUSH2 0x2F4B JUMP JUMPDEST JUMPDEST PUSH0 PUSH2 0x3168 DUP6 DUP3 DUP7 ADD PUSH2 0x2F72 JUMP JUMPDEST SWAP3 POP POP PUSH1 0x20 PUSH2 0x3179 DUP6 DUP3 DUP7 ADD PUSH2 0x3131 JUMP JUMPDEST SWAP2 POP POP SWAP3 POP SWAP3 SWAP1 POP JUMP JUMPDEST PUSH0 PUSH1 0x20 DUP3 DUP5 SUB SLT ISZERO PUSH2 0x3198 JUMPI PUSH2 0x3197 PUSH2 0x2F4B JUMP JUMPDEST JUMPDEST PUSH0 PUSH2 0x31A5 DUP5 DUP3 DUP6 ADD PUSH2 0x2F72 JUMP JUMPDEST SWAP2 POP POP SWAP3 SWAP2 POP POP JUMP JUMPDEST PUSH0 PUSH20 0xFFFFFFFFFFFFFFFFFFFFFFFFFFFFFFFFFFFFFFFF DUP3 AND SWAP1 POP SWAP2 SWAP1 POP JUMP JUMPDEST PUSH0 PUSH2 0x31D7 DUP3 PUSH2 0x31AE JUMP JUMPDEST SWAP1 POP SWAP2 SWAP1 POP JUMP JUMPDEST PUSH2 0x31E7 DUP2 PUSH2 0x31CD JUMP JUMPDEST DUP3 MSTORE POP POP JUMP JUMPDEST PUSH0 PUSH1 0xE0 DUP3 ADD SWAP1 POP PUSH2 0x3200 PUSH0 DUP4 ADD DUP11 PUSH2 0x31DE JUMP JUMPDEST PUSH2 0x320D PUSH1 0x20 DUP4 ADD DUP10 PUSH2 0x2FC4 JUMP JUMPDEST PUSH2 0x321A PUSH1 0x40 DUP4 ADD DUP9 PUSH2 0x2FC4 JUMP JUMPDEST PUSH2 0x3227 PUSH1 0x60 DUP4 ADD DUP8 PUSH2 0x2FC4 JUMP JUMPDEST PUSH2 0x3234 PUSH1 0x80 DUP4 ADD DUP7 PUSH2 0x2FC4 JUMP JUMPDEST PUSH2 0x3241 PUSH1 0xA0 DUP4 ADD DUP6 PUSH2 0x2FDC JUMP JUMPDEST PUSH2 0x324E PUSH1 0xC0 DUP4 ADD DUP5 PUSH2 0x3089 JUMP JUMPDEST SWAP9 SWAP8 POP POP POP POP POP POP POP POP JUMP JUMPDEST PUSH2 0x3263 DUP2 PUSH2 0x3110 JUMP JUMPDEST DUP3 MSTORE POP POP JUMP JUMPDEST PUSH0 PUSH1 0xC0 DUP3 ADD SWAP1 POP PUSH2 0x327C PUSH0 DUP4 ADD DUP10 PUSH2 0x31DE JUMP JUMPDEST PUSH2 0x3289 PUSH1 0x20 DUP4 ADD DUP9 PUSH2 0x2FC4 JUMP JUMPDEST PUSH2 0x3296 PUSH1 0x40 DUP4 ADD DUP8 PUSH2 0x2FC4 JUMP JUMPDEST PUSH2 0x32A3 PUSH1 0x60 DUP4 ADD DUP7 PUSH2 0x2FDC JUMP JUMPDEST PUSH2 0x32B0 PUSH1 0x80 DUP4 ADD DUP6 PUSH2 0x325A JUMP JUMPDEST PUSH2 0x32BD PUSH1 0xA0 DUP4 ADD DUP5 PUSH2 0x325A JUMP JUMPDEST SWAP8 SWAP7 POP POP POP POP POP POP POP JUMP JUMPDEST PUSH0 DUP2 SWAP1 POP SWAP2 SWAP1 POP JUMP JUMPDEST PUSH0 PUSH2 0x32EB PUSH2 0x32E6 PUSH2 0x32E1 DUP5 PUSH2 0x31AE JUMP JUMPDEST PUSH2 0x32C8 JUMP JUMPDEST PUSH2 0x31AE JUMP JUMPDEST SWAP1 POP SWAP2 SWAP1 POP JUMP JUMPDEST PUSH0 PUSH2 0x32FC DUP3 PUSH2 0x32D1 JUMP JUMPDEST SWAP1 POP SWAP2 SWAP1 POP JUMP JUMPDEST PUSH0 PUSH2 0x330D DUP3 PUSH2 0x32F2 JUMP JUMPDEST SWAP1 POP SWAP2 SWAP1 POP JUMP JUMPDEST PUSH2 0x331D DUP2 PUSH2 0x3303 JUMP JUMPDEST DUP3 MSTORE POP POP JUMP JUMPDEST PUSH0 PUSH1 0x20 DUP3 ADD SWAP1 POP PUSH2 0x3336 PUSH0 DUP4 ADD DUP5 PUSH2 0x3314 JUMP JUMPDEST SWAP3 SWAP2 POP POP JUMP JUMPDEST PUSH0 PUSH1 0x60 DUP3 ADD SWAP1 POP PUSH2 0x334F PUSH0 DUP4 ADD DUP7 PUSH2 0x31DE JUMP JUMPDEST PUSH2 0x335C PUSH1 0x20 DUP4 ADD DUP6 PUSH2 0x2FC4 JUMP JUMPDEST PUSH2 0x3369 PUSH1 0x40 DUP4 ADD DUP5 PUSH2 0x2FDC JUMP JUMPDEST SWAP5 SWAP4 POP POP POP POP JUMP JUMPDEST PUSH0 DUP1 REVERT JUMPDEST PUSH0 PUSH1 0x1F NOT PUSH1 0x1F DUP4 ADD AND SWAP1 POP SWAP2 SWAP1 POP JUMP JUMPDEST PUSH32 0x4E487B7100000000000000000000000000000000000000000000000000000000 PUSH0 MSTORE PUSH1 0x41 PUSH1 0x4 MSTORE PUSH1 0x24 PUSH0 REVERT JUMPDEST PUSH2 0x33BB DUP3 PUSH2 0x3375 JUMP JUMPDEST DUP2 ADD DUP2 DUP2 LT PUSH8 0xFFFFFFFFFFFFFFFF DUP3 GT OR ISZERO PUSH2 0x33DA JUMPI PUSH2 0x33D9 PUSH2 0x3385 JUMP JUMPDEST JUMPDEST DUP1 PUSH1 0x40 MSTORE POP POP POP JUMP JUMPDEST PUSH0 PUSH2 0x33EC PUSH2 0x2F42 JUMP JUMPDEST SWAP1 POP PUSH2 0x33F8 DUP3 DUP3 PUSH2 0x33B2 JUMP JUMPDEST SWAP2 SWAP1 POP JUMP JUMPDEST PUSH0 PUSH1 0x40 DUP3 DUP5 SUB SLT ISZERO PUSH2 0x3412 JUMPI PUSH2 0x3411 PUSH2 0x3371 JUMP JUMPDEST JUMPDEST PUSH2 0x341C PUSH1 0x40 PUSH2 0x33E3 JUMP JUMPDEST SWAP1 POP PUSH0 PUSH2 0x342B DUP5 DUP3 DUP6 ADD PUSH2 0x2F72 JUMP JUMPDEST PUSH0 DUP4 ADD MSTORE POP PUSH1 0x20 PUSH2 0x343E DUP5 DUP3 DUP6 ADD PUSH2 0x2F72 JUMP JUMPDEST PUSH1 0x20 DUP4 ADD MSTORE POP SWAP3 SWAP2 POP POP JUMP JUMPDEST PUSH0 DUP1 REVERT JUMPDEST PUSH0 PUSH8 0xFFFFFFFFFFFFFFFF DUP3 GT ISZERO PUSH2 0x3468 JUMPI PUSH2 0x3467 PUSH2 0x3385 JUMP JUMPDEST JUMPDEST PUSH1 0x20 DUP3 MUL SWAP1 POP SWAP2 SWAP1 POP JUMP JUMPDEST PUSH0 DUP1 REVERT JUMPDEST PUSH0 PUSH2 0x3489 PUSH2 0x3484 DUP5 PUSH2 0x344E JUMP JUMPDEST PUSH2 0x33E3 JUMP JUMPDEST SWAP1 POP DUP1 PUSH1 0x20 DUP5 MUL DUP4 ADD DUP6 DUP2 GT ISZERO PUSH2 0x34A3 JUMPI PUSH2 0x34A2 PUSH2 0x3473 JUMP JUMPDEST JUMPDEST DUP4 JUMPDEST DUP2 DUP2 LT ISZERO PUSH2 0x34CC JUMPI DUP1 PUSH2 0x34B8 DUP9 DUP3 PUSH2 0x2F72 JUMP JUMPDEST DUP5 MSTORE PUSH1 0x20 DUP5 ADD SWAP4 POP POP PUSH1 0x20 DUP2 ADD SWAP1 POP PUSH2 0x34A5 JUMP JUMPDEST POP POP POP SWAP4 SWAP3 POP POP POP JUMP JUMPDEST PUSH0 DUP3 PUSH1 0x1F DUP4 ADD SLT PUSH2 0x34EA JUMPI PUSH2 0x34E9 PUSH2 0x344A JUMP JUMPDEST JUMPDEST PUSH1 0x2 PUSH2 0x34F7 DUP5 DUP3 DUP6 PUSH2 0x3477 JUMP JUMPDEST SWAP2 POP POP SWAP3 SWAP2 POP POP JUMP JUMPDEST PUSH0 PUSH1 0x80 DUP3 DUP5 SUB SLT ISZERO PUSH2 0x3515 JUMPI PUSH2 0x3514 PUSH2 0x3371 JUMP JUMPDEST JUMPDEST PUSH2 0x351F PUSH1 0x40 PUSH2 0x33E3 JUMP JUMPDEST SWAP1 POP PUSH0 PUSH2 0x352E DUP5 DUP3 DUP6 ADD PUSH2 0x34D6 JUMP JUMPDEST PUSH0 DUP4 ADD MSTORE POP PUSH1 0x40 PUSH2 0x3541 DUP5 DUP3 DUP6 ADD PUSH2 0x34D6 JUMP JUMPDEST PUSH1 0x20 DUP4 ADD MSTORE POP SWAP3 SWAP2 POP POP JUMP JUMPDEST PUSH0 PUSH2 0x100 DUP3 DUP5 SUB SLT ISZERO PUSH2 0x3563 JUMPI PUSH2 0x3562 PUSH2 0x3371 JUMP JUMPDEST JUMPDEST PUSH2 0x356D PUSH1 0x60 PUSH2 0x33E3 JUMP JUMPDEST SWAP1 POP PUSH0 PUSH2 0x357C DUP5 DUP3 DUP6 ADD PUSH2 0x33FD JUMP JUMPDEST PUSH0 DUP4 ADD MSTORE POP PUSH1 0x40 PUSH2 0x358F DUP5 DUP3 DUP6 ADD PUSH2 0x3500 JUMP JUMPDEST PUSH1 0x20 DUP4 ADD MSTORE POP PUSH1 0xC0 PUSH2 0x35A3 DUP5 DUP3 DUP6 ADD PUSH2 0x33FD JUMP JUMPDEST PUSH1 0x40 DUP4 ADD MSTORE POP SWAP3 SWAP2 POP POP JUMP JUMPDEST PUSH0 PUSH2 0x100 DUP3 DUP5 SUB SLT ISZERO PUSH2 0x35C5 JUMPI PUSH2 0x35C4 PUSH2 0x2F4B JUMP JUMPDEST JUMPDEST PUSH0 PUSH2 0x35D2 DUP5 DUP3 DUP6 ADD PUSH2 0x354D JUMP JUMPDEST SWAP2 POP POP SWAP3 SWAP2 POP POP JUMP JUMPDEST PUSH0 PUSH1 0x20 DUP3 ADD SWAP1 POP PUSH2 0x35EE PUSH0 DUP4 ADD DUP5 PUSH2 0x325A JUMP JUMPDEST SWAP3 SWAP2 POP POP JUMP JUMPDEST PUSH2 0x35FD DUP2 PUSH2 0x2FD3 JUMP JUMPDEST DUP2 EQ PUSH2 0x3607 JUMPI PUSH0 DUP1 REVERT JUMPDEST POP JUMP JUMPDEST PUSH0 DUP2 CALLDATALOAD SWAP1 POP PUSH2 0x3618 DUP2 PUSH2 0x35F4 JUMP JUMPDEST SWAP3 SWAP2 POP POP JUMP JUMPDEST PUSH2 0x3627 DUP2 PUSH2 0x2FEB JUMP JUMPDEST DUP2 EQ PUSH2 0x3631 JUMPI PUSH0 DUP1 REVERT JUMPDEST POP JUMP JUMPDEST PUSH0 DUP2 CALLDATALOAD SWAP1 POP PUSH2 0x3642 DUP2 PUSH2 0x361E JUMP JUMPDEST SWAP3 SWAP2 POP POP JUMP JUMPDEST PUSH0 DUP1 PUSH0 DUP1 PUSH1 0x80 DUP6 DUP8 SUB SLT ISZERO PUSH2 0x3660 JUMPI PUSH2 0x365F PUSH2 0x2F4B JUMP JUMPDEST JUMPDEST PUSH0 PUSH2 0x366D DUP8 DUP3 DUP9 ADD PUSH2 0x360A JUMP JUMPDEST SWAP5 POP POP PUSH1 0x20 PUSH2 0x367E DUP8 DUP3 DUP9 ADD PUSH2 0x2F72 JUMP JUMPDEST SWAP4 POP POP PUSH1 0x40 PUSH2 0x368F DUP8 DUP3 DUP9 ADD PUSH2 0x3634 JUMP JUMPDEST SWAP3 POP POP PUSH1 0x60 PUSH2 0x36A0 DUP8 DUP3 DUP9 ADD PUSH2 0x2F72 JUMP JUMPDEST SWAP2 POP POP SWAP3 SWAP6 SWAP2 SWAP5 POP SWAP3 POP JUMP JUMPDEST PUSH0 PUSH1 0x80 DUP3 ADD SWAP1 POP PUSH2 0x36BF PUSH0 DUP4 ADD DUP8 PUSH2 0x2FDC JUMP JUMPDEST PUSH2 0x36CC PUSH1 0x20 DUP4 ADD DUP7 PUSH2 0x2FC4 JUMP JUMPDEST PUSH2 0x36D9 PUSH1 0x40 DUP4 ADD DUP6 PUSH2 0x3016 JUMP JUMPDEST PUSH2 0x36E6 PUSH1 0x60 DUP4 ADD DUP5 PUSH2 0x2FDC JUMP JUMPDEST SWAP6 SWAP5 POP POP POP POP POP JUMP JUMPDEST PUSH2 0x36F8 DUP2 PUSH2 0x31CD JUMP JUMPDEST DUP2 EQ PUSH2 0x3702 JUMPI PUSH0 DUP1 REVERT JUMPDEST POP JUMP JUMPDEST PUSH0 DUP2 CALLDATALOAD SWAP1 POP PUSH2 0x3713 DUP2 PUSH2 0x36EF JUMP JUMPDEST SWAP3 SWAP2 POP POP JUMP JUMPDEST PUSH0 PUSH1 0x20 DUP3 DUP5 SUB SLT ISZERO PUSH2 0x372E JUMPI PUSH2 0x372D PUSH2 0x2F4B JUMP JUMPDEST JUMPDEST PUSH0 PUSH2 0x373B DUP5 DUP3 DUP6 ADD PUSH2 0x3705 JUMP JUMPDEST SWAP2 POP POP SWAP3 SWAP2 POP POP JUMP JUMPDEST PUSH0 DUP1 REVERT JUMPDEST PUSH0 PUSH8 0xFFFFFFFFFFFFFFFF DUP3 GT ISZERO PUSH2 0x3762 JUMPI PUSH2 0x3761 PUSH2 0x3385 JUMP JUMPDEST JUMPDEST PUSH2 0x376B DUP3 PUSH2 0x3375 JUMP JUMPDEST SWAP1 POP PUSH1 0x20 DUP2 ADD SWAP1 POP SWAP2 SWAP1 POP JUMP JUMPDEST DUP3 DUP2 DUP4 CALLDATACOPY PUSH0 DUP4 DUP4 ADD MSTORE POP POP POP JUMP JUMPDEST PUSH0 PUSH2 0x3798 PUSH2 0x3793 DUP5 PUSH2 0x3748 JUMP JUMPDEST PUSH2 0x33E3 JUMP JUMPDEST SWAP1 POP DUP3 DUP2 MSTORE PUSH1 0x20 DUP2 ADD DUP5 DUP5 DUP5 ADD GT ISZERO PUSH2 0x37B4 JUMPI PUSH2 0x37B3 PUSH2 0x3744 JUMP JUMPDEST JUMPDEST PUSH2 0x37BF DUP5 DUP3 DUP6 PUSH2 0x3778 JUMP JUMPDEST POP SWAP4 SWAP3 POP POP POP JUMP JUMPDEST PUSH0 DUP3 PUSH1 0x1F DUP4 ADD SLT PUSH2 0x37DB JUMPI PUSH2 0x37DA PUSH2 0x344A JUMP JUMPDEST JUMPDEST DUP2 CALLDATALOAD PUSH2 0x37EB DUP5 DUP3 PUSH1 0x20 DUP7 ADD PUSH2 0x3786 JUMP JUMPDEST SWAP2 POP POP SWAP3 SWAP2 POP POP JUMP JUMPDEST PUSH0 DUP1 PUSH1 0x40 DUP4 DUP6 SUB SLT ISZERO PUSH2 0x380A JUMPI PUSH2 0x3809 PUSH2 0x2F4B JUMP JUMPDEST JUMPDEST PUSH0 DUP4 ADD CALLDATALOAD PUSH8 0xFFFFFFFFFFFFFFFF DUP2 GT ISZERO PUSH2 0x3827 JUMPI PUSH2 0x3826 PUSH2 0x2F4F JUMP JUMPDEST JUMPDEST PUSH2 0x3833 DUP6 DUP3 DUP7 ADD PUSH2 0x37C7 JUMP JUMPDEST SWAP3 POP POP PUSH1 0x20 PUSH2 0x3844 DUP6 DUP3 DUP7 ADD PUSH2 0x2F72 JUMP JUMPDEST SWAP2 POP POP SWAP3 POP SWAP3 SWAP1 POP JUMP JUMPDEST PUSH0 DUP1 PUSH0 PUSH1 0x60 DUP5 DUP7 SUB SLT ISZERO PUSH2 0x3865 JUMPI PUSH2 0x3864 PUSH2 0x2F4B JUMP JUMPDEST JUMPDEST PUSH0 PUSH2 0x3872 DUP7 DUP3 DUP8 ADD PUSH2 0x2F72 JUMP JUMPDEST SWAP4 POP POP PUSH1 0x20 PUSH2 0x3883 DUP7 DUP3 DUP8 ADD PUSH2 0x2F72 JUMP JUMPDEST SWAP3 POP POP PUSH1 0x40 PUSH2 0x3894 DUP7 DUP3 DUP8 ADD PUSH2 0x2F72 JUMP JUMPDEST SWAP2 POP POP SWAP3 POP SWAP3 POP SWAP3 JUMP JUMPDEST PUSH0 PUSH1 0x80 DUP3 ADD SWAP1 POP PUSH2 0x38B1 PUSH0 DUP4 ADD DUP8 PUSH2 0x3089 JUMP JUMPDEST PUSH2 0x38BE PUSH1 0x20 DUP4 ADD DUP7 PUSH2 0x2FC4 JUMP JUMPDEST PUSH2 0x38CB PUSH1 0x40 DUP4 ADD DUP6 PUSH2 0x2FC4 JUMP JUMPDEST PUSH2 0x38D8 PUSH1 0x60 DUP4 ADD DUP5 PUSH2 0x2FC4 JUMP JUMPDEST SWAP6 SWAP5 POP POP POP POP POP JUMP JUMPDEST PUSH0 DUP1 PUSH0 PUSH1 0x60 DUP5 DUP7 SUB SLT ISZERO PUSH2 0x38F8 JUMPI PUSH2 0x38F7 PUSH2 0x2F4B JUMP JUMPDEST JUMPDEST PUSH0 PUSH2 0x3905 DUP7 DUP3 DUP8 ADD PUSH2 0x2F72 JUMP JUMPDEST SWAP4 POP POP PUSH1 0x20 PUSH2 0x3916 DUP7 DUP3 DUP8 ADD PUSH2 0x2F72 JUMP JUMPDEST SWAP3 POP POP PUSH1 0x40 DUP5 ADD CALLDATALOAD PUSH8 0xFFFFFFFFFFFFFFFF DUP2 GT ISZERO PUSH2 0x3937 JUMPI PUSH2 0x3936 PUSH2 0x2F4F JUMP JUMPDEST JUMPDEST PUSH2 0x3943 DUP7 DUP3 DUP8 ADD PUSH2 0x37C7 JUMP JUMPDEST SWAP2 POP POP SWAP3 POP SWAP3 POP SWAP3 JUMP JUMPDEST PUSH0 PUSH2 0x3957 DUP3 PUSH2 0x32F2 JUMP JUMPDEST SWAP1 POP SWAP2 SWAP1 POP JUMP JUMPDEST PUSH2 0x3967 DUP2 PUSH2 0x394D JUMP JUMPDEST DUP3 MSTORE POP POP JUMP JUMPDEST PUSH0 PUSH1 0x20 DUP3 ADD SWAP1 POP PUSH2 0x3980 PUSH0 DUP4 ADD DUP5 PUSH2 0x395E JUMP JUMPDEST SWAP3 SWAP2 POP POP JUMP JUMPDEST PUSH0 DUP1 PUSH0 PUSH1 0x60 DUP5 DUP7 SUB SLT ISZERO PUSH2 0x399D JUMPI PUSH2 0x399C PUSH2 0x2F4B JUMP JUMPDEST JUMPDEST PUSH0 PUSH2 0x39AA DUP7 DUP3 DUP8 ADD PUSH2 0x2F72 JUMP JUMPDEST SWAP4 POP POP PUSH1 0x20 PUSH2 0x39BB DUP7 DUP3 DUP8 ADD PUSH2 0x2F72 JUMP JUMPDEST SWAP3 POP POP PUSH1 0x40 PUSH2 0x39CC DUP7 DUP3 DUP8 ADD PUSH2 0x3705 JUMP JUMPDEST SWAP2 POP POP SWAP3 POP SWAP3 POP SWAP3 JUMP JUMPDEST PUSH2 0x39DF DUP2 PUSH2 0x2F53 JUMP JUMPDEST DUP3 MSTORE POP POP JUMP JUMPDEST PUSH1 0x40 DUP3 ADD PUSH0 DUP3 ADD MLOAD PUSH2 0x39F9 PUSH0 DUP6 ADD DUP3 PUSH2 0x39D6 JUMP JUMPDEST POP PUSH1 0x20 DUP3 ADD MLOAD PUSH2 0x3A0C PUSH1 0x20 DUP6 ADD DUP3 PUSH2 0x39D6 JUMP JUMPDEST POP POP POP POP JUMP JUMPDEST PUSH0 PUSH1 0x2 SWAP1 POP SWAP2 SWAP1 POP JUMP JUMPDEST PUSH0 DUP2 SWAP1 POP SWAP3 SWAP2 POP POP JUMP JUMPDEST PUSH0 DUP2 SWAP1 POP SWAP2 SWAP1 POP JUMP JUMPDEST PUSH0 PUSH2 0x3A3A DUP4 DUP4 PUSH2 0x39D6 JUMP JUMPDEST PUSH1 0x20 DUP4 ADD SWAP1 POP SWAP3 SWAP2 POP POP JUMP JUMPDEST PUSH0 PUSH1 0x20 DUP3 ADD SWAP1 POP SWAP2 SWAP1 POP JUMP JUMPDEST PUSH2 0x3A5B DUP2 PUSH2 0x3A12 JUMP JUMPDEST PUSH2 0x3A65 DUP2 DUP5 PUSH2 0x3A1C JUMP JUMPDEST SWAP3 POP PUSH2 0x3A70 DUP3 PUSH2 0x3A26 JUMP JUMPDEST DUP1 PUSH0 JUMPDEST DUP4 DUP2 LT ISZERO PUSH2 0x3AA0 JUMPI DUP2 MLOAD PUSH2 0x3A87 DUP8 DUP3 PUSH2 0x3A2F JUMP JUMPDEST SWAP7 POP PUSH2 0x3A92 DUP4 PUSH2 0x3A46 JUMP JUMPDEST SWAP3 POP POP PUSH1 0x1 DUP2 ADD SWAP1 POP PUSH2 0x3A73 JUMP JUMPDEST POP POP POP POP POP POP JUMP JUMPDEST PUSH1 0x80 DUP3 ADD PUSH0 DUP3 ADD MLOAD PUSH2 0x3ABC PUSH0 DUP6 ADD DUP3 PUSH2 0x3A52 JUMP JUMPDEST POP PUSH1 0x20 DUP3 ADD MLOAD PUSH2 0x3ACF PUSH1 0x40 DUP6 ADD DUP3 PUSH2 0x3A52 JUMP JUMPDEST POP POP POP POP JUMP JUMPDEST PUSH0 PUSH2 0x100 DUP3 ADD SWAP1 POP PUSH2 0x3AE9 PUSH0 DUP4 ADD DUP7 PUSH2 0x39E5 JUMP JUMPDEST PUSH2 0x3AF6 PUSH1 0x40 DUP4 ADD DUP6 PUSH2 0x3AA8 JUMP JUMPDEST PUSH2 0x3B03 PUSH1 0xC0 DUP4 ADD DUP5 PUSH2 0x39E5 JUMP JUMPDEST SWAP5 SWAP4 POP POP POP POP JUMP JUMPDEST PUSH0 PUSH1 0x20 DUP3 ADD SWAP1 POP PUSH2 0x3B1E PUSH0 DUP4 ADD DUP5 PUSH2 0x31DE JUMP JUMPDEST SWAP3 SWAP2 POP POP JUMP JUMPDEST PUSH1 0x5 DUP2 LT PUSH2 0x3B30 JUMPI PUSH0 DUP1 REVERT JUMPDEST POP JUMP JUMPDEST PUSH0 DUP2 MLOAD SWAP1 POP PUSH2 0x3B41 DUP2 PUSH2 0x3B24 JUMP JUMPDEST SWAP3 SWAP2 POP POP JUMP JUMPDEST PUSH0 DUP2 MLOAD SWAP1 POP PUSH2 0x3B55 DUP2 PUSH2 0x311B JUMP JUMPDEST SWAP3 SWAP2 POP POP JUMP JUMPDEST PUSH0 DUP1 PUSH1 0x40 DUP4 DUP6 SUB SLT ISZERO PUSH2 0x3B71 JUMPI PUSH2 0x3B70 PUSH2 0x2F4B JUMP JUMPDEST JUMPDEST PUSH0 PUSH2 0x3B7E DUP6 DUP3 DUP7 ADD PUSH2 0x3B33 JUMP JUMPDEST SWAP3 POP POP PUSH1 0x20 PUSH2 0x3B8F DUP6 DUP3 DUP7 ADD PUSH2 0x3B47 JUMP JUMPDEST SWAP2 POP POP SWAP3 POP SWAP3 SWAP1 POP JUMP JUMPDEST PUSH0 DUP3 DUP3 MSTORE PUSH1 0x20 DUP3 ADD SWAP1 POP SWAP3 SWAP2 POP POP JUMP JUMPDEST PUSH32 0x4F6E6C792074686520496E7370656374696F6E204167656E742063616E207275 PUSH0 DUP3 ADD MSTORE PUSH32 0x6E20746869732066756E6374696F6E0000000000000000000000000000000000 PUSH1 0x20 DUP3 ADD MSTORE POP JUMP JUMPDEST PUSH0 PUSH2 0x3C03 PUSH1 0x2F DUP4 PUSH2 0x3B99 JUMP JUMPDEST SWAP2 POP PUSH2 0x3C0E DUP3 PUSH2 0x3BA9 JUMP JUMPDEST PUSH1 0x40 DUP3 ADD SWAP1 POP SWAP2 SWAP1 POP JUMP JUMPDEST PUSH0 PUSH1 0x20 DUP3 ADD SWAP1 POP DUP2 DUP2 SUB PUSH0 DUP4 ADD MSTORE PUSH2 0x3C30 DUP2 PUSH2 0x3BF7 JUMP JUMPDEST SWAP1 POP SWAP2 SWAP1 POP JUMP JUMPDEST PUSH32 0x496E76616C6964205265706F7274204944000000000000000000000000000000 PUSH0 DUP3 ADD MSTORE POP JUMP JUMPDEST PUSH0 PUSH2 0x3C6B PUSH1 0x11 DUP4 PUSH2 0x3B99 JUMP JUMPDEST SWAP2 POP PUSH2 0x3C76 DUP3 PUSH2 0x3C37 JUMP JUMPDEST PUSH1 0x20 DUP3 ADD SWAP1 POP SWAP2 SWAP1 POP JUMP JUMPDEST PUSH0 PUSH1 0x20 DUP3 ADD SWAP1 POP DUP2 DUP2 SUB PUSH0 DUP4 ADD MSTORE PUSH2 0x3C98 DUP2 PUSH2 0x3C5F JUMP JUMPDEST SWAP1 POP SWAP2 SWAP1 POP JUMP JUMPDEST PUSH32 0x54686973207265706F72742068617320616C7265616479206265656E20696E73 PUSH0 DUP3 ADD MSTORE PUSH32 0x7065637465640000000000000000000000000000000000000000000000000000 PUSH1 0x20 DUP3 ADD MSTORE POP JUMP JUMPDEST PUSH0 PUSH2 0x3CF9 PUSH1 0x26 DUP4 PUSH2 0x3B99 JUMP JUMPDEST SWAP2 POP PUSH2 0x3D04 DUP3 PUSH2 0x3C9F JUMP JUMPDEST PUSH1 0x40 DUP3 ADD SWAP1 POP SWAP2 SWAP1 POP JUMP JUMPDEST PUSH0 PUSH1 0x20 DUP3 ADD SWAP1 POP DUP2 DUP2 SUB PUSH0 DUP4 ADD MSTORE PUSH2 0x3D26 DUP2 PUSH2 0x3CED JUMP JUMPDEST SWAP1 POP SWAP2 SWAP1 POP JUMP JUMPDEST PUSH0 PUSH1 0x60 DUP3 ADD SWAP1 POP PUSH2 0x3D40 PUSH0 DUP4 ADD DUP7 PUSH2 0x31DE JUMP JUMPDEST PUSH2 0x3D4D PUSH1 0x20 DUP4 ADD DUP6 PUSH2 0x325A JUMP JUMPDEST PUSH2 0x3D5A PUSH1 0x40 DUP4 ADD DUP5 PUSH2 0x2FC4 JUMP JUMPDEST SWAP5 SWAP4 POP POP POP POP JUMP JUMPDEST PUSH32 0x4F6E6C7920746865204368696C6420477561726469616E2063616E2072756E20 PUSH0 DUP3 ADD MSTORE PUSH32 0x746869732066756E6374696F6E00000000000000000000000000000000000000 PUSH1 0x20 DUP3 ADD MSTORE POP JUMP JUMPDEST PUSH0 PUSH2 0x3DBC PUSH1 0x2D DUP4 PUSH2 0x3B99 JUMP JUMPDEST SWAP2 POP PUSH2 0x3DC7 DUP3 PUSH2 0x3D62 JUMP JUMPDEST PUSH1 0x40 DUP3 ADD SWAP1 POP SWAP2 SWAP1 POP JUMP JUMPDEST PUSH0 PUSH1 0x20 DUP3 ADD SWAP1 POP DUP2 DUP2 SUB PUSH0 DUP4 ADD MSTORE PUSH2 0x3DE9 DUP2 PUSH2 0x3DB0 JUMP JUMPDEST SWAP1 POP SWAP2 SWAP1 POP JUMP JUMPDEST PUSH32 0x4F6E6C79207468652061737369676E656420477561726469616E20746F207468 PUSH0 DUP3 ADD MSTORE PUSH32 0x6973206368696C642063616E2072756E20746869732066756E6374696F6E0000 PUSH1 0x20 DUP3 ADD MSTORE POP JUMP JUMPDEST PUSH0 PUSH2 0x3E4A PUSH1 0x3E DUP4 PUSH2 0x3B99 JUMP JUMPDEST SWAP2 POP PUSH2 0x3E55 DUP3 PUSH2 0x3DF0 JUMP JUMPDEST PUSH1 0x40 DUP3 ADD SWAP1 POP SWAP2 SWAP1 POP JUMP JUMPDEST PUSH0 PUSH1 0x20 DUP3 ADD SWAP1 POP DUP2 DUP2 SUB PUSH0 DUP4 ADD MSTORE PUSH2 0x3E77 DUP2 PUSH2 0x3E3E JUMP JUMPDEST SWAP1 POP SWAP2 SWAP1 POP JUMP JUMPDEST PUSH32 0x496E76616C6964204368696C6420494400000000000000000000000000000000 PUSH0 DUP3 ADD MSTORE POP JUMP JUMPDEST PUSH0 PUSH2 0x3EB2 PUSH1 0x10 DUP4 PUSH2 0x3B99 JUMP JUMPDEST SWAP2 POP PUSH2 0x3EBD DUP3 PUSH2 0x3E7E JUMP JUMPDEST PUSH1 0x20 DUP3 ADD SWAP1 POP SWAP2 SWAP1 POP JUMP JUMPDEST PUSH0 PUSH1 0x20 DUP3 ADD SWAP1 POP DUP2 DUP2 SUB PUSH0 DUP4 ADD MSTORE PUSH2 0x3EDF DUP2 PUSH2 0x3EA6 JUMP JUMPDEST SWAP1 POP SWAP2 SWAP1 POP JUMP JUMPDEST PUSH32 0x54686973206368696C64206973206E6F742063757272656E746C7920696E2072 PUSH0 DUP3 ADD MSTORE PUSH32 0x656D6564696174696F6E00000000000000000000000000000000000000000000 PUSH1 0x20 DUP3 ADD MSTORE POP JUMP JUMPDEST PUSH0 PUSH2 0x3F40 PUSH1 0x2A DUP4 PUSH2 0x3B99 JUMP JUMPDEST SWAP2 POP PUSH2 0x3F4B DUP3 PUSH2 0x3EE6 JUMP JUMPDEST PUSH1 0x40 DUP3 ADD SWAP1 POP SWAP2 SWAP1 POP JUMP JUMPDEST PUSH0 PUSH1 0x20 DUP3 ADD SWAP1 POP DUP2 DUP2 SUB PUSH0 DUP4 ADD MSTORE PUSH2 0x3F6D DUP2 PUSH2 0x3F34 JUMP JUMPDEST SWAP1 POP SWAP2 SWAP1 POP JUMP JUMPDEST PUSH32 0x5468652074696D652077696E646F7720666F722072656D6564696174696F6E20 PUSH0 DUP3 ADD MSTORE PUSH32 0x6973207374696C6C206F70656E00000000000000000000000000000000000000 PUSH1 0x20 DUP3 ADD MSTORE POP JUMP JUMPDEST PUSH0 PUSH2 0x3FCE PUSH1 0x2D DUP4 PUSH2 0x3B99 JUMP JUMPDEST SWAP2 POP PUSH2 0x3FD9 DUP3 PUSH2 0x3F74 JUMP JUMPDEST PUSH1 0x40 DUP3 ADD SWAP1 POP SWAP2 SWAP1 POP JUMP JUMPDEST PUSH0 PUSH1 0x20 DUP3 ADD SWAP1 POP DUP2 DUP2 SUB PUSH0 DUP4 ADD MSTORE PUSH2 0x3FFB DUP2 PUSH2 0x3FC2 JUMP JUMPDEST SWAP1 POP SWAP2 SWAP1 POP JUMP JUMPDEST PUSH0 PUSH1 0x60 DUP3 ADD SWAP1 POP PUSH2 0x4015 PUSH0 DUP4 ADD DUP7 PUSH2 0x2FC4 JUMP JUMPDEST PUSH2 0x4022 PUSH1 0x20 DUP4 ADD DUP6 PUSH2 0x2FC4 JUMP JUMPDEST PUSH2 0x402F PUSH1 0x40 DUP4 ADD DUP5 PUSH2 0x2FC4 JUMP JUMPDEST SWAP5 SWAP4 POP POP POP POP JUMP JUMPDEST PUSH1 0x40 DUP3 ADD PUSH0 DUP3 ADD MLOAD PUSH2 0x404B PUSH0 DUP6 ADD DUP3 PUSH2 0x39D6 JUMP JUMPDEST POP PUSH1 0x20 DUP3 ADD MLOAD PUSH2 0x405E PUSH1 0x20 DUP6 ADD DUP3 PUSH2 0x39D6 JUMP JUMPDEST POP POP POP POP JUMP JUMPDEST PUSH1 0x80 DUP3 ADD PUSH0 DUP3 ADD MLOAD PUSH2 0x4078 PUSH0 DUP6 ADD DUP3 PUSH2 0x3A52 JUMP JUMPDEST POP PUSH1 0x20 DUP3 ADD MLOAD PUSH2 0x408B PUSH1 0x40 DUP6 ADD DUP3 PUSH2 0x3A52 JUMP JUMPDEST POP POP POP POP JUMP JUMPDEST PUSH2 0x100 DUP3 ADD PUSH0 DUP3 ADD MLOAD PUSH2 0x40A6 PUSH0 DUP6 ADD DUP3 PUSH2 0x4037 JUMP JUMPDEST POP PUSH1 0x20 DUP3 ADD MLOAD PUSH2 0x40B9 PUSH1 0x40 DUP6 ADD DUP3 PUSH2 0x4064 JUMP JUMPDEST POP PUSH1 0x40 DUP3 ADD MLOAD PUSH2 0x40CC PUSH1 0xC0 DUP6 ADD DUP3 PUSH2 0x4037 JUMP JUMPDEST POP POP POP POP JUMP JUMPDEST PUSH0 PUSH2 0x100 DUP3 ADD SWAP1 POP PUSH2 0x40E6 PUSH0 DUP4 ADD DUP5 PUSH2 0x4091 JUMP JUMPDEST SWAP3 SWAP2 POP POP JUMP JUMPDEST PUSH0 PUSH1 0x20 DUP3 DUP5 SUB SLT ISZERO PUSH2 0x4101 JUMPI PUSH2 0x4100 PUSH2 0x2F4B JUMP JUMPDEST JUMPDEST PUSH0 PUSH2 0x410E DUP5 DUP3 DUP6 ADD PUSH2 0x3B47 JUMP JUMPDEST SWAP2 POP POP SWAP3 SWAP2 POP POP JUMP JUMPDEST PUSH0 PUSH1 0x40 DUP3 ADD SWAP1 POP PUSH2 0x412A PUSH0 DUP4 ADD DUP6 PUSH2 0x31DE JUMP JUMPDEST PUSH2 0x4137 PUSH1 0x20 DUP4 ADD DUP5 PUSH2 0x2FC4 JUMP JUMPDEST SWAP4 SWAP3 POP POP POP JUMP JUMPDEST PUSH32 0x496E76616C696420686173686564206E616D6500000000000000000000000000 PUSH0 DUP3 ADD MSTORE POP JUMP JUMPDEST PUSH0 PUSH2 0x4172 PUSH1 0x13 DUP4 PUSH2 0x3B99 JUMP JUMPDEST SWAP2 POP PUSH2 0x417D DUP3 PUSH2 0x413E JUMP JUMPDEST PUSH1 0x20 DUP3 ADD SWAP1 POP SWAP2 SWAP1 POP JUMP JUMPDEST PUSH0 PUSH1 0x20 DUP3 ADD SWAP1 POP DUP2 DUP2 SUB PUSH0 DUP4 ADD MSTORE PUSH2 0x419F DUP2 PUSH2 0x4166 JUMP JUMPDEST SWAP1 POP SWAP2 SWAP1 POP JUMP JUMPDEST PUSH32 0x496E76616C696420416765000000000000000000000000000000000000000000 PUSH0 DUP3 ADD MSTORE POP JUMP JUMPDEST PUSH0 PUSH2 0x41DA PUSH1 0xB DUP4 PUSH2 0x3B99 JUMP JUMPDEST SWAP2 POP PUSH2 0x41E5 DUP3 PUSH2 0x41A6 JUMP JUMPDEST PUSH1 0x20 DUP3 ADD SWAP1 POP SWAP2 SWAP1 POP JUMP JUMPDEST PUSH0 PUSH1 0x20 DUP3 ADD SWAP1 POP DUP2 DUP2 SUB PUSH0 DUP4 ADD MSTORE PUSH2 0x4207 DUP2 PUSH2 0x41CE JUMP JUMPDEST SWAP1 POP SWAP2 SWAP1 POP JUMP JUMPDEST PUSH32 0x496E76616C69642047656E646572000000000000000000000000000000000000 PUSH0 DUP3 ADD MSTORE POP JUMP JUMPDEST PUSH0 PUSH2 0x4242 PUSH1 0xE DUP4 PUSH2 0x3B99 JUMP JUMPDEST SWAP2 POP PUSH2 0x424D DUP3 PUSH2 0x420E JUMP JUMPDEST PUSH1 0x20 DUP3 ADD SWAP1 POP SWAP2 SWAP1 POP JUMP JUMPDEST PUSH0 PUSH1 0x20 DUP3 ADD SWAP1 POP DUP2 DUP2 SUB PUSH0 DUP4 ADD MSTORE PUSH2 0x426F DUP2 PUSH2 0x4236 JUMP JUMPDEST SWAP1 POP SWAP2 SWAP1 POP JUMP JUMPDEST PUSH32 0x4E487B7100000000000000000000000000000000000000000000000000000000 PUSH0 MSTORE PUSH1 0x11 PUSH1 0x4 MSTORE PUSH1 0x24 PUSH0 REVERT JUMPDEST PUSH0 PUSH2 0x42AD DUP3 PUSH2 0x2F53 JUMP JUMPDEST SWAP2 POP PUSH32 0xFFFFFFFFFFFFFFFFFFFFFFFFFFFFFFFFFFFFFFFFFFFFFFFFFFFFFFFFFFFFFFFF DUP3 SUB PUSH2 0x42DF JUMPI PUSH2 0x42DE PUSH2 0x4276 JUMP JUMPDEST JUMPDEST PUSH1 0x1 DUP3 ADD SWAP1 POP SWAP2 SWAP1 POP JUMP JUMPDEST PUSH0 PUSH1 0xA0 DUP3 ADD SWAP1 POP PUSH2 0x42FD PUSH0 DUP4 ADD DUP9 PUSH2 0x2FC4 JUMP JUMPDEST PUSH2 0x430A PUSH1 0x20 DUP4 ADD DUP8 PUSH2 0x2FDC JUMP JUMPDEST PUSH2 0x4317 PUSH1 0x40 DUP4 ADD DUP7 PUSH2 0x2FC4 JUMP JUMPDEST PUSH2 0x4324 PUSH1 0x60 DUP4 ADD DUP6 PUSH2 0x3016 JUMP JUMPDEST PUSH2 0x4331 PUSH1 0x80 DUP4 ADD DUP5 PUSH2 0x2FC4 JUMP JUMPDEST SWAP7 SWAP6 POP POP POP POP POP POP JUMP JUMPDEST PUSH32 0x4F6E6C7920746865204461746120416E616C7973742063616E2072756E207468 PUSH0 DUP3 ADD MSTORE PUSH32 0x69732066756E6374696F6E000000000000000000000000000000000000000000 PUSH1 0x20 DUP3 ADD MSTORE POP JUMP JUMPDEST PUSH0 PUSH2 0x4395 PUSH1 0x2B DUP4 PUSH2 0x3B99 JUMP JUMPDEST SWAP2 POP PUSH2 0x43A0 DUP3 PUSH2 0x433B JUMP JUMPDEST PUSH1 0x40 DUP3 ADD SWAP1 POP SWAP2 SWAP1 POP JUMP JUMPDEST PUSH0 PUSH1 0x20 DUP3 ADD SWAP1 POP DUP2 DUP2 SUB PUSH0 DUP4 ADD MSTORE PUSH2 0x43C2 DUP2 PUSH2 0x4389 JUMP JUMPDEST SWAP1 POP SWAP2 SWAP1 POP JUMP JUMPDEST PUSH32 0x4F6E6C792074686520726567756C61746F727920617574686F72697479206361 PUSH0 DUP3 ADD MSTORE PUSH32 0x6E2072756E20746869732066756E6374696F6E00000000000000000000000000 PUSH1 0x20 DUP3 ADD MSTORE POP JUMP JUMPDEST PUSH0 PUSH2 0x4423 PUSH1 0x33 DUP4 PUSH2 0x3B99 JUMP JUMPDEST SWAP2 POP PUSH2 0x442E DUP3 PUSH2 0x43C9 JUMP JUMPDEST PUSH1 0x40 DUP3 ADD SWAP1 POP SWAP2 SWAP1 POP JUMP JUMPDEST PUSH0 PUSH1 0x20 DUP3 ADD SWAP1 POP DUP2 DUP2 SUB PUSH0 DUP4 ADD MSTORE PUSH2 0x4450 DUP2 PUSH2 0x4417 JUMP JUMPDEST SWAP1 POP SWAP2 SWAP1 POP JUMP JUMPDEST PUSH0 PUSH1 0x60 DUP3 ADD SWAP1 POP PUSH2 0x446A PUSH0 DUP4 ADD DUP7 PUSH2 0x31DE JUMP JUMPDEST PUSH2 0x4477 PUSH1 0x20 DUP4 ADD DUP6 PUSH2 0x31DE JUMP JUMPDEST PUSH2 0x4484 PUSH1 0x40 DUP4 ADD DUP5 PUSH2 0x2FC4 JUMP JUMPDEST SWAP5 SWAP4 POP POP POP POP JUMP JUMPDEST PUSH32 0x4F6E6C7920746865204C696169736F6E204F6666696365722063616E2072756E PUSH0 DUP3 ADD MSTORE PUSH32 0x20746869732066756E6374696F6E000000000000000000000000000000000000 PUSH1 0x20 DUP3 ADD MSTORE POP JUMP JUMPDEST PUSH0 PUSH2 0x44E6 PUSH1 0x2E DUP4 PUSH2 0x3B99 JUMP JUMPDEST SWAP2 POP PUSH2 0x44F1 DUP3 PUSH2 0x448C JUMP JUMPDEST PUSH1 0x40 DUP3 ADD SWAP1 POP SWAP2 SWAP1 POP JUMP JUMPDEST PUSH0 PUSH1 0x20 DUP3 ADD SWAP1 POP DUP2 DUP2 SUB PUSH0 DUP4 ADD MSTORE PUSH2 0x4513 DUP2 PUSH2 0x44DA JUMP JUMPDEST SWAP1 POP SWAP2 SWAP1 POP JUMP JUMPDEST PUSH0 DUP2 MLOAD SWAP1 POP SWAP2 SWAP1 POP JUMP JUMPDEST PUSH0 DUP2 SWAP1 POP PUSH1 0x20 DUP3 ADD SWAP1 POP SWAP2 SWAP1 POP JUMP JUMPDEST PUSH0 PUSH2 0x453E DUP3 MLOAD PUSH2 0x2FD3 JUMP JUMPDEST DUP1 SWAP2 POP POP SWAP2 SWAP1 POP JUMP JUMPDEST PUSH0 DUP3 DUP3 SHL SWAP1 POP SWAP3 SWAP2 POP POP JUMP JUMPDEST PUSH0 PUSH2 0x455D DUP3 PUSH2 0x451A JUMP JUMPDEST DUP3 PUSH2 0x4567 DUP5 PUSH2 0x4524 JUMP JUMPDEST SWAP1 POP PUSH2 0x4572 DUP2 PUSH2 0x4533 JUMP JUMPDEST SWAP3 POP PUSH1 0x20 DUP3 LT ISZERO PUSH2 0x45B2 JUMPI PUSH2 0x45AD PUSH32 0xFFFFFFFFFFFFFFFFFFFFFFFFFFFFFFFFFFFFFFFFFFFFFFFFFFFFFFFFFFFFFFFF DUP4 PUSH1 0x20 SUB PUSH1 0x8 MUL PUSH2 0x4547 JUMP JUMPDEST DUP4 AND SWAP3 POP JUMPDEST POP POP SWAP2 SWAP1 POP JUMP JUMPDEST PUSH0 PUSH2 0x45C3 DUP3 PUSH2 0x2F53 JUMP JUMPDEST SWAP2 POP PUSH2 0x45CE DUP4 PUSH2 0x2F53 JUMP JUMPDEST SWAP3 POP DUP3 DUP3 ADD SWAP1 POP DUP1 DUP3 GT ISZERO PUSH2 0x45E6 JUMPI PUSH2 0x45E5 PUSH2 0x4276 JUMP JUMPDEST JUMPDEST SWAP3 SWAP2 POP POP JUMP JUMPDEST PUSH32 0x54686973206368696C64206973206E6F7420726561647920666F722072656D65 PUSH0 DUP3 ADD MSTORE PUSH32 0x64696174696F6E00000000000000000000000000000000000000000000000000 PUSH1 0x20 DUP3 ADD MSTORE POP JUMP JUMPDEST PUSH0 PUSH2 0x4646 PUSH1 0x27 DUP4 PUSH2 0x3B99 JUMP JUMPDEST SWAP2 POP PUSH2 0x4651 DUP3 PUSH2 0x45EC JUMP JUMPDEST PUSH1 0x40 DUP3 ADD SWAP1 POP SWAP2 SWAP1 POP JUMP JUMPDEST PUSH0 PUSH1 0x20 DUP3 ADD SWAP1 POP DUP2 DUP2 SUB PUSH0 DUP4 ADD MSTORE PUSH2 0x4673 DUP2 PUSH2 0x463A JUMP JUMPDEST SWAP1 POP SWAP2 SWAP1 POP JUMP JUMPDEST PUSH0 PUSH2 0x4684 DUP3 PUSH2 0x2F53 JUMP JUMPDEST SWAP2 POP PUSH2 0x468F DUP4 PUSH2 0x2F53 JUMP JUMPDEST SWAP3 POP DUP3 DUP3 MUL PUSH2 0x469D DUP2 PUSH2 0x2F53 JUMP JUMPDEST SWAP2 POP DUP3 DUP3 DIV DUP5 EQ DUP4 ISZERO OR PUSH2 0x46B4 JUMPI PUSH2 0x46B3 PUSH2 0x4276 JUMP JUMPDEST JUMPDEST POP SWAP3 SWAP2 POP POP JUMP JUMPDEST PUSH0 PUSH1 0x80 DUP3 ADD SWAP1 POP PUSH2 0x46CE PUSH0 DUP4 ADD DUP8 PUSH2 0x2FC4 JUMP JUMPDEST PUSH2 0x46DB PUSH1 0x20 DUP4 ADD DUP7 PUSH2 0x2FC4 JUMP JUMPDEST PUSH2 0x46E8 PUSH1 0x40 DUP4 ADD DUP6 PUSH2 0x2FC4 JUMP JUMPDEST PUSH2 0x46F5 PUSH1 0x60 DUP4 ADD DUP5 PUSH2 0x2FC4 JUMP JUMPDEST SWAP6 SWAP5 POP POP POP POP POP JUMP JUMPDEST PUSH0 PUSH1 0x80 DUP3 ADD SWAP1 POP PUSH2 0x4711 PUSH0 DUP4 ADD DUP8 PUSH2 0x2FC4 JUMP JUMPDEST PUSH2 0x471E PUSH1 0x20 DUP4 ADD DUP7 PUSH2 0x2FC4 JUMP JUMPDEST PUSH2 0x472B PUSH1 0x40 DUP4 ADD DUP6 PUSH2 0x2FC4 JUMP JUMPDEST PUSH2 0x4738 PUSH1 0x60 DUP4 ADD DUP5 PUSH2 0x2FDC JUMP JUMPDEST SWAP6 SWAP5 POP POP POP POP POP JUMP JUMPDEST PUSH32 0x54686973206368696C6420496420646F6573206E6F74206578697374206F7220 PUSH0 DUP3 ADD MSTORE PUSH32 0x68617320616C7265616479206265656E2061737369676E656420612067756172 PUSH1 0x20 DUP3 ADD MSTORE PUSH32 0x6469616E00000000000000000000000000000000000000000000000000000000 PUSH1 0x40 DUP3 ADD MSTORE POP JUMP JUMPDEST PUSH0 PUSH2 0x47C1 PUSH1 0x44 DUP4 PUSH2 0x3B99 JUMP JUMPDEST SWAP2 POP PUSH2 0x47CC DUP3 PUSH2 0x4741 JUMP JUMPDEST PUSH1 0x60 DUP3 ADD SWAP1 POP SWAP2 SWAP1 POP JUMP JUMPDEST PUSH0 PUSH1 0x20 DUP3 ADD SWAP1 POP DUP2 DUP2 SUB PUSH0 DUP4 ADD MSTORE PUSH2 0x47EE DUP2 PUSH2 0x47B5 JUMP JUMPDEST SWAP1 POP SWAP2 SWAP1 POP JUMP JUMPDEST PUSH0 PUSH1 0x60 DUP3 ADD SWAP1 POP PUSH2 0x4808 PUSH0 DUP4 ADD DUP7 PUSH2 0x2FC4 JUMP JUMPDEST PUSH2 0x4815 PUSH1 0x20 DUP4 ADD DUP6 PUSH2 0x2FC4 JUMP JUMPDEST PUSH2 0x4822 PUSH1 0x40 DUP4 ADD DUP5 PUSH2 0x31DE JUMP JUMPDEST SWAP5 SWAP4 POP POP POP POP JUMP INVALID LOG2 PUSH5 0x6970667358 0x22 SLT KECCAK256 0x2B 0xB8 0xED PUSH9 0xB3AF9BCE86B3997087 PUSH23 0xD278A250C7134F44BAB6C4B73132674607DF64736F6C63 NUMBER STOP ADDMOD ISZERO STOP CALLER "
		},
		"gasEstimates": {
			"creation": {
				"codeDepositCost": "3705600",
				"executionCost": "infinite",
				"totalCost": "infinite"
			},
			"external": {
				"Registration()": "infinite",
				"Verifier()": "infinite",
				"accessWhitelist(address)": "2966",
				"assignGuardian(uint256,uint256,address)": "infinite",
				"child2ReportMapping(uint256)": "infinite",
				"childCount()": "2470",
				"childData(uint256,uint256)": "infinite",
				"childRemediationData(uint256)": "infinite",
				"completeRemediation(uint256,uint256)": "infinite",
				"getChildData(uint256,uint256)": "infinite",
				"getChildStatus(uint256,uint256)": "infinite",
				"getViolationReport(uint256)": "infinite",
				"grantAccess(((uint256,uint256),(uint256[2],uint256[2]),(uint256,uint256)))": "infinite",
				"remediationUpdate(uint256,uint256,string)": "infinite",
				"reportChildrenCount(uint256)": "infinite",
				"reportCount()": "2471",
				"reportProof(uint256)": "infinite",
				"revokeAccess(address)": "infinite",
				"startRemediation(uint256,uint256,uint256)": "infinite",
				"storeChildData(bytes32,uint256,bytes1,uint256)": "infinite",
				"submitViolationReport(string,uint256)": "infinite",
				"updateVerifier(address)": "infinite",
				"verifyViolationReport(uint256,bool)": "infinite",
				"violationReports(uint256)": "infinite"
			}
		},
		"methodIdentifiers": {
			"Registration()": "e8a37919",
			"Verifier()": "53ca8115",
			"accessWhitelist(address)": "a0619d4a",
			"assignGuardian(uint256,uint256,address)": "eff5cfae",
			"child2ReportMapping(uint256)": "b05efaab",
			"childCount()": "8bc3bbc0",
			"childData(uint256,uint256)": "12f1a83a",
			"childRemediationData(uint256)": "2b76ea9c",
			"completeRemediation(uint256,uint256)": "739f48a6",
			"getChildData(uint256,uint256)": "84e2395d",
			"getChildStatus(uint256,uint256)": "a1dc99b4",
			"getViolationReport(uint256)": "636d0262",
			"grantAccess(((uint256,uint256),(uint256[2],uint256[2]),(uint256,uint256)))": "7a7935a7",
			"remediationUpdate(uint256,uint256,string)": "e60e5ee2",
			"reportChildrenCount(uint256)": "6388bafc",
			"reportCount()": "185c6f84",
			"reportProof(uint256)": "f8b4d690",
			"revokeAccess(address)": "85e68531",
			"startRemediation(uint256,uint256,uint256)": "992cc022",
			"storeChildData(bytes32,uint256,bytes1,uint256)": "832de71e",
			"submitViolationReport(string,uint256)": "8fe2d950",
			"updateVerifier(address)": "97fc007c",
			"verifyViolationReport(uint256,bool)": "28c10330",
			"violationReports(uint256)": "3835a119"
		}
	},
	"abi": [
		{
			"inputs": [
				{
					"internalType": "address",
					"name": "_registration",
					"type": "address"
				},
				{
					"internalType": "address",
					"name": "_verifier",
					"type": "address"
				}
			],
			"stateMutability": "nonpayable",
			"type": "constructor"
		},
		{
			"anonymous": false,
			"inputs": [
				{
					"indexed": false,
					"internalType": "address",
					"name": "regulatoryAuthority",
					"type": "address"
				},
				{
					"indexed": false,
					"internalType": "address",
					"name": "entity",
					"type": "address"
				},
				{
					"indexed": false,
					"internalType": "uint256",
					"name": "date",
					"type": "uint256"
				}
			],
			"name": "AccessRevoked",
			"type": "event"
		},
		{
			"anonymous": false,
			"inputs": [
				{
					"indexed": false,
					"internalType": "uint256",
					"name": "childId",
					"type": "uint256"
				},
				{
					"indexed": false,
					"internalType": "bytes32",
					"name": "hashedName",
					"type": "bytes32"
				},
				{
					"indexed": false,
					"internalType": "uint256",
					"name": "age",
					"type": "uint256"
				},
				{
					"indexed": false,
					"internalType": "bytes1",
					"name": "gender",
					"type": "bytes1"
				},
				{
					"indexed": false,
					"internalType": "uint256",
					"name": "reportId",
					"type": "uint256"
				}
			],
			"name": "ChildDataStored",
			"type": "event"
		},
		{
			"anonymous": false,
			"inputs": [
				{
					"indexed": false,
					"internalType": "uint256",
					"name": "childId",
					"type": "uint256"
				},
				{
					"indexed": false,
					"internalType": "uint256",
					"name": "reportId",
					"type": "uint256"
				},
				{
					"indexed": false,
					"internalType": "address",
					"name": "guardian",
					"type": "address"
				}
			],
			"name": "GuardianAssigned",
			"type": "event"
		},
		{
			"anonymous": false,
			"inputs": [
				{
					"indexed": true,
					"internalType": "uint256",
					"name": "reportCount",
					"type": "uint256"
				},
				{
					"indexed": false,
					"internalType": "address",
					"name": "reporter",
					"type": "address"
				},
				{
					"indexed": false,
					"internalType": "uint256",
					"name": "date",
					"type": "uint256"
				},
				{
					"indexed": false,
					"internalType": "bytes32",
					"name": "reportDetails",
					"type": "bytes32"
				}
			],
			"name": "NewViolationReport",
			"type": "event"
		},
		{
			"anonymous": false,
			"inputs": [
				{
					"indexed": false,
					"internalType": "uint256",
					"name": "violationReportId",
					"type": "uint256"
				},
				{
					"indexed": false,
					"internalType": "uint256",
					"name": "childId",
					"type": "uint256"
				},
				{
					"indexed": false,
					"internalType": "uint256",
					"name": "remediationCompletionDate",
					"type": "uint256"
				}
			],
			"name": "RemediationCompleted",
			"type": "event"
		},
		{
			"anonymous": false,
			"inputs": [
				{
					"indexed": false,
					"internalType": "uint256",
					"name": "violationReportId",
					"type": "uint256"
				},
				{
					"indexed": false,
					"internalType": "uint256",
					"name": "childId",
					"type": "uint256"
				},
				{
					"indexed": false,
					"internalType": "uint256",
					"name": "remediationStartDate",
					"type": "uint256"
				},
				{
					"indexed": false,
					"internalType": "uint256",
					"name": "remediationCompletionDate",
					"type": "uint256"
				}
			],
			"name": "RemediationStarted",
			"type": "event"
		},
		{
			"anonymous": false,
			"inputs": [
				{
					"indexed": false,
					"internalType": "uint256",
					"name": "violationReportId",
					"type": "uint256"
				},
				{
					"indexed": false,
					"internalType": "uint256",
					"name": "childId",
					"type": "uint256"
				},
				{
					"indexed": false,
					"internalType": "uint256",
					"name": "remediationUpdatedate",
					"type": "uint256"
				},
				{
					"indexed": false,
					"internalType": "bytes32",
					"name": "reportUpdate",
					"type": "bytes32"
				}
			],
			"name": "RemediationUpdate",
			"type": "event"
		},
		{
			"anonymous": false,
			"inputs": [
				{
					"indexed": false,
					"internalType": "address",
					"name": "regulatoryAuthority",
					"type": "address"
				},
				{
					"indexed": false,
					"internalType": "address",
					"name": "verifierSC",
					"type": "address"
				},
				{
					"indexed": false,
					"internalType": "uint256",
					"name": "date",
					"type": "uint256"
				}
			],
			"name": "VerifierUpdated",
			"type": "event"
		},
		{
			"anonymous": false,
			"inputs": [
				{
					"indexed": true,
					"internalType": "uint256",
					"name": "reportCount",
					"type": "uint256"
				},
				{
					"indexed": false,
					"internalType": "address",
					"name": "inspector",
					"type": "address"
				},
				{
					"indexed": false,
					"internalType": "bool",
					"name": "isVerified",
					"type": "bool"
				},
				{
					"indexed": false,
					"internalType": "uint256",
					"name": "verificationDate",
					"type": "uint256"
				}
			],
			"name": "ViolationReportVerification",
			"type": "event"
		},
		{
			"anonymous": false,
			"inputs": [
				{
					"indexed": false,
					"internalType": "address",
					"name": "entity",
					"type": "address"
				},
				{
					"indexed": false,
					"internalType": "uint256",
					"name": "Date",
					"type": "uint256"
				}
			],
			"name": "Whitelisted",
			"type": "event"
		},
		{
			"inputs": [],
			"name": "Registration",
			"outputs": [
				{
					"internalType": "contract IRegistration",
					"name": "",
					"type": "address"
				}
			],
			"stateMutability": "view",
			"type": "function"
		},
		{
			"inputs": [],
			"name": "Verifier",
			"outputs": [
				{
					"internalType": "contract IVerifier",
					"name": "",
					"type": "address"
				}
			],
			"stateMutability": "view",
			"type": "function"
		},
		{
			"inputs": [
				{
					"internalType": "address",
					"name": "",
					"type": "address"
				}
			],
			"name": "accessWhitelist",
			"outputs": [
				{
					"internalType": "bool",
					"name": "",
					"type": "bool"
				}
			],
			"stateMutability": "view",
			"type": "function"
		},
		{
			"inputs": [
				{
					"internalType": "uint256",
					"name": "_violationReportId",
					"type": "uint256"
				},
				{
					"internalType": "uint256",
					"name": "_childId",
					"type": "uint256"
				},
				{
					"internalType": "address",
					"name": "_guardian",
					"type": "address"
				}
			],
			"name": "assignGuardian",
			"outputs": [],
			"stateMutability": "nonpayable",
			"type": "function"
		},
		{
			"inputs": [
				{
					"internalType": "uint256",
					"name": "",
					"type": "uint256"
				}
			],
			"name": "child2ReportMapping",
			"outputs": [
				{
					"internalType": "uint256",
					"name": "",
					"type": "uint256"
				}
			],
			"stateMutability": "view",
			"type": "function"
		},
		{
			"inputs": [],
			"name": "childCount",
			"outputs": [
				{
					"internalType": "uint256",
					"name": "",
					"type": "uint256"
				}
			],
			"stateMutability": "view",
			"type": "function"
		},
		{
			"inputs": [
				{
					"internalType": "uint256",
					"name": "",
					"type": "uint256"
				},
				{
					"internalType": "uint256",
					"name": "",
					"type": "uint256"
				}
			],
			"name": "childData",
			"outputs": [
				{
					"internalType": "uint256",
					"name": "childId",
					"type": "uint256"
				},
				{
					"internalType": "bytes32",
					"name": "hashedName",
					"type": "bytes32"
				},
				{
					"internalType": "uint256",
					"name": "age",
					"type": "uint256"
				},
				{
					"internalType": "bytes1",
					"name": "gender",
					"type": "bytes1"
				},
				{
					"internalType": "uint256",
					"name": "violationReportId",
					"type": "uint256"
				},
				{
					"internalType": "enum ChildLabourDataManagement.ChildStatus",
					"name": "status",
					"type": "uint8"
				}
			],
			"stateMutability": "view",
			"type": "function"
		},
		{
			"inputs": [
				{
					"internalType": "uint256",
					"name": "",
					"type": "uint256"
				}
			],
			"name": "childRemediationData",
			"outputs": [
				{
					"internalType": "address",
					"name": "guardian",
					"type": "address"
				},
				{
					"internalType": "uint256",
					"name": "childId",
					"type": "uint256"
				},
				{
					"internalType": "uint256",
					"name": "remediationStart",
					"type": "uint256"
				},
				{
					"internalType": "uint256",
					"name": "remediationCompletion",
					"type": "uint256"
				},
				{
					"internalType": "uint256",
					"name": "lastUpdated",
					"type": "uint256"
				},
				{
					"internalType": "bytes32",
					"name": "updateReport",
					"type": "bytes32"
				},
				{
					"internalType": "enum ChildLabourDataManagement.ChildStatus",
					"name": "status",
					"type": "uint8"
				}
			],
			"stateMutability": "view",
			"type": "function"
		},
		{
			"inputs": [
				{
					"internalType": "uint256",
					"name": "_violationReportId",
					"type": "uint256"
				},
				{
					"internalType": "uint256",
					"name": "_childId",
					"type": "uint256"
				}
			],
			"name": "completeRemediation",
			"outputs": [],
			"stateMutability": "nonpayable",
			"type": "function"
		},
		{
			"inputs": [
				{
					"internalType": "uint256",
					"name": "_violationReportId",
					"type": "uint256"
				},
				{
					"internalType": "uint256",
					"name": "_childId",
					"type": "uint256"
				}
			],
			"name": "getChildData",
			"outputs": [
				{
					"internalType": "bytes32",
					"name": "hashedName",
					"type": "bytes32"
				},
				{
					"internalType": "uint256",
					"name": "age",
					"type": "uint256"
				},
				{
					"internalType": "bytes1",
					"name": "gender",
					"type": "bytes1"
				},
				{
					"internalType": "bytes32",
					"name": "reportipfshash",
					"type": "bytes32"
				}
			],
			"stateMutability": "nonpayable",
			"type": "function"
		},
		{
			"inputs": [
				{
					"internalType": "uint256",
					"name": "_violationReportId",
					"type": "uint256"
				},
				{
					"internalType": "uint256",
					"name": "_childId",
					"type": "uint256"
				}
			],
			"name": "getChildStatus",
			"outputs": [
				{
					"internalType": "enum ChildLabourDataManagement.ChildStatus",
					"name": "",
					"type": "uint8"
				},
				{
					"internalType": "uint256",
					"name": "",
					"type": "uint256"
				},
				{
					"internalType": "uint256",
					"name": "",
					"type": "uint256"
				},
				{
					"internalType": "uint256",
					"name": "",
					"type": "uint256"
				}
			],
			"stateMutability": "nonpayable",
			"type": "function"
		},
		{
			"inputs": [
				{
					"internalType": "uint256",
					"name": "_violationReportId",
					"type": "uint256"
				}
			],
			"name": "getViolationReport",
			"outputs": [
				{
					"internalType": "address",
					"name": "reporter",
					"type": "address"
				},
				{
					"internalType": "uint256",
					"name": "date",
					"type": "uint256"
				},
				{
					"internalType": "bytes32",
					"name": "reportDetails",
					"type": "bytes32"
				}
			],
			"stateMutability": "nonpayable",
			"type": "function"
		},
		{
			"inputs": [
				{
					"components": [
						{
							"components": [
								{
									"internalType": "uint256",
									"name": "X",
									"type": "uint256"
								},
								{
									"internalType": "uint256",
									"name": "Y",
									"type": "uint256"
								}
							],
							"internalType": "struct Pairing.G1Point",
							"name": "a",
							"type": "tuple"
						},
						{
							"components": [
								{
									"internalType": "uint256[2]",
									"name": "X",
									"type": "uint256[2]"
								},
								{
									"internalType": "uint256[2]",
									"name": "Y",
									"type": "uint256[2]"
								}
							],
							"internalType": "struct Pairing.G2Point",
							"name": "b",
							"type": "tuple"
						},
						{
							"components": [
								{
									"internalType": "uint256",
									"name": "X",
									"type": "uint256"
								},
								{
									"internalType": "uint256",
									"name": "Y",
									"type": "uint256"
								}
							],
							"internalType": "struct Pairing.G1Point",
							"name": "c",
							"type": "tuple"
						}
					],
					"internalType": "struct IVerifier.Proof",
					"name": "proof",
					"type": "tuple"
				}
			],
			"name": "grantAccess",
			"outputs": [
				{
					"internalType": "bool",
					"name": "",
					"type": "bool"
				}
			],
			"stateMutability": "nonpayable",
			"type": "function"
		},
		{
			"inputs": [
				{
					"internalType": "uint256",
					"name": "_violationReportId",
					"type": "uint256"
				},
				{
					"internalType": "uint256",
					"name": "_childId",
					"type": "uint256"
				},
				{
					"internalType": "string",
					"name": "_updateReport",
					"type": "string"
				}
			],
			"name": "remediationUpdate",
			"outputs": [],
			"stateMutability": "nonpayable",
			"type": "function"
		},
		{
			"inputs": [
				{
					"internalType": "uint256",
					"name": "",
					"type": "uint256"
				}
			],
			"name": "reportChildrenCount",
			"outputs": [
				{
					"internalType": "uint256",
					"name": "",
					"type": "uint256"
				}
			],
			"stateMutability": "view",
			"type": "function"
		},
		{
			"inputs": [],
			"name": "reportCount",
			"outputs": [
				{
					"internalType": "uint256",
					"name": "",
					"type": "uint256"
				}
			],
			"stateMutability": "view",
			"type": "function"
		},
		{
			"inputs": [
				{
					"internalType": "uint256",
					"name": "",
					"type": "uint256"
				}
			],
			"name": "reportProof",
			"outputs": [
				{
					"components": [
						{
							"internalType": "uint256",
							"name": "X",
							"type": "uint256"
						},
						{
							"internalType": "uint256",
							"name": "Y",
							"type": "uint256"
						}
					],
					"internalType": "struct Pairing.G1Point",
					"name": "a",
					"type": "tuple"
				},
				{
					"components": [
						{
							"internalType": "uint256[2]",
							"name": "X",
							"type": "uint256[2]"
						},
						{
							"internalType": "uint256[2]",
							"name": "Y",
							"type": "uint256[2]"
						}
					],
					"internalType": "struct Pairing.G2Point",
					"name": "b",
					"type": "tuple"
				},
				{
					"components": [
						{
							"internalType": "uint256",
							"name": "X",
							"type": "uint256"
						},
						{
							"internalType": "uint256",
							"name": "Y",
							"type": "uint256"
						}
					],
					"internalType": "struct Pairing.G1Point",
					"name": "c",
					"type": "tuple"
				}
			],
			"stateMutability": "view",
			"type": "function"
		},
		{
			"inputs": [
				{
					"internalType": "address",
					"name": "_user",
					"type": "address"
				}
			],
			"name": "revokeAccess",
			"outputs": [],
			"stateMutability": "nonpayable",
			"type": "function"
		},
		{
			"inputs": [
				{
					"internalType": "uint256",
					"name": "_violationReportId",
					"type": "uint256"
				},
				{
					"internalType": "uint256",
					"name": "_childId",
					"type": "uint256"
				},
				{
					"internalType": "uint256",
					"name": "_daysToRemediate",
					"type": "uint256"
				}
			],
			"name": "startRemediation",
			"outputs": [],
			"stateMutability": "nonpayable",
			"type": "function"
		},
		{
			"inputs": [
				{
					"internalType": "bytes32",
					"name": "_hashedName",
					"type": "bytes32"
				},
				{
					"internalType": "uint256",
					"name": "_age",
					"type": "uint256"
				},
				{
					"internalType": "bytes1",
					"name": "_gender",
					"type": "bytes1"
				},
				{
					"internalType": "uint256",
					"name": "_violationReportId",
					"type": "uint256"
				}
			],
			"name": "storeChildData",
			"outputs": [],
			"stateMutability": "nonpayable",
			"type": "function"
		},
		{
			"inputs": [
				{
					"internalType": "string",
					"name": "_reportIPFSHash",
					"type": "string"
				},
				{
					"internalType": "uint256",
					"name": "_spottedChildrenNumber",
					"type": "uint256"
				}
			],
			"name": "submitViolationReport",
			"outputs": [],
			"stateMutability": "nonpayable",
			"type": "function"
		},
		{
			"inputs": [
				{
					"internalType": "address",
					"name": "_verifier",
					"type": "address"
				}
			],
			"name": "updateVerifier",
			"outputs": [],
			"stateMutability": "nonpayable",
			"type": "function"
		},
		{
			"inputs": [
				{
					"internalType": "uint256",
					"name": "_violationReportId",
					"type": "uint256"
				},
				{
					"internalType": "bool",
					"name": "_decision",
					"type": "bool"
				}
			],
			"name": "verifyViolationReport",
			"outputs": [],
			"stateMutability": "nonpayable",
			"type": "function"
		},
		{
			"inputs": [
				{
					"internalType": "uint256",
					"name": "",
					"type": "uint256"
				}
			],
			"name": "violationReports",
			"outputs": [
				{
					"internalType": "address",
					"name": "reporter",
					"type": "address"
				},
				{
					"internalType": "uint256",
					"name": "timestamp",
					"type": "uint256"
				},
				{
					"internalType": "uint256",
					"name": "spottedChildrenNumber",
					"type": "uint256"
				},
				{
					"internalType": "bytes32",
					"name": "ipfsHash",
					"type": "bytes32"
				},
				{
					"internalType": "bool",
					"name": "isInspected",
					"type": "bool"
				},
				{
					"internalType": "bool",
					"name": "isVerified",
					"type": "bool"
				}
			],
			"stateMutability": "view",
			"type": "function"
		}
	]
}