{
	"data": {
		"bytecode": {
			"linkReferences": {},
			"object": "608060405234801562000010575f80fd5b506040516200264f3803806200264f83398101604081905262000033916200008b565b5f80546001600160a01b039384166001600160a01b031991821617825560018054939094169216919091179091556002819055600355620000c1565b80516001600160a01b038116811462000086575f80fd5b919050565b5f80604083850312156200009d575f80fd5b620000a8836200006f565b9150620000b8602084016200006f565b90509250929050565b61258080620000cf5f395ff3fe608060405234801561000f575f80fd5b5060043610610148575f3560e01c806384e2395d116100bf578063a1dc99b411610079578063a1dc99b414610449578063b05efaab1461046c578063d9a5ec1b1461048b578063e8a379191461049e578063eff5cfae146104b0578063f8b4d690146104c3575f80fd5b806384e2395d146103a25780638bc3bbc0146103e55780638fe2d950146103ee57806397fc007c14610401578063992cc02214610414578063a0619d4a14610427575f80fd5b80633835a119116101105780633835a1191461026c57806353ca8115146102fa578063636d0262146103255780636388bafc1461035d578063739f48a61461037c578063832de71e1461038f575f80fd5b806312f1a83a1461014c578063185c6f84146101bc57806328c10330146101d35780632b76ea9c146101e85780632ccc839214610249575b5f80fd5b6101a161015a366004611da5565b600660209081525f928352604080842090915290825290208054600182015460028301546003840154600485015460059095015493949293919260f89190911b9160ff1686565b6040516101b396959493929190611df9565b60405180910390f35b6101c560025481565b6040519081526020016101b3565b6101e66101e1366004611e4d565b6104e5565b005b6102376101f6366004611e7b565b60086020525f90815260409020805460018201546002830154600384015460048501546005909501546001600160a01b039094169492939192909160ff1686565b6040516101b396959493929190611e92565b61025c610257366004611fb4565b6106bd565b60405190151581526020016101b3565b6102bf61027a366004611e7b565b600460208190525f9182526040909120805460018201546002830154600384015493909401546001600160a01b03909216939092909160ff8082169161010090041686565b604080516001600160a01b039097168752602087019590955293850192909252606084015215156080830152151560a082015260c0016101b3565b60015461030d906001600160a01b031681565b6040516001600160a01b0390911681526020016101b3565b610338610333366004611e7b565b6107a1565b604080516001600160a01b0390941684526020840192909252908201526060016101b3565b6101c561036b366004611e7b565b60076020525f908152604090205481565b6101e661038a366004611da5565b6108f7565b6101e661039d366004612054565b610be3565b6103b56103b0366004611da5565b610ef6565b6040516101b3949392919093845260208401929092526001600160f81b0319166040830152606082015260800190565b6101c560035481565b6101e66103fc36600461209c565b611166565b6101e661040f36600461214b565b611388565b6101e661042236600461216b565b611454565b61025c61043536600461214b565b60096020525f908152604090205460ff1681565b61045c610457366004611da5565b611752565b6040516101b39493929190612194565b6101c561047a366004611e7b565b60056020525f908152604090205481565b6101e66104993660046121bd565b611919565b5f5461030d906001600160a01b031681565b6101e66104be3660046121e7565b611a26565b6104d66104d1366004611e7b565b611ceb565b6040516101b393929190612263565b5f8054604051631d6253a360e21b815233600482015282916001600160a01b0316906375894e8c9060240160408051808303815f875af115801561052b573d5f803e3d5ffd5b505050506040513d601f19601f8201168201806040525081019061054f919061229c565b9092509050600282600481111561056857610568611dc5565b1480156105725750805b6105975760405162461bcd60e51b815260040161058e906122cc565b60405180910390fd5b600184101580156105aa57506002548411155b6105c65760405162461bcd60e51b815260040161058e9061231b565b5f848152600460208190526040909120015460ff16156106375760405162461bcd60e51b815260206004820152602660248201527f54686973207265706f72742068617320616c7265616479206265656e20696e736044820152651c1958dd195960d21b606482015260840161058e565b5f848152600460208190526040918290200180548515156101000261ffff199091161760011790555184907f5e672278b5a4ce7f1deaeb816f60398e65c2401c6f90928e8344510d7fa92755906106af903390879042906001600160a01b039390931683529015156020830152604082015260600190565b60405180910390a250505050565b60015460405163f6af031160e01b81525f9182916001600160a01b039091169063f6af0311906106f1908690600401612346565b602060405180830381865afa15801561070c573d5f803e3d5ffd5b505050506040513d601f19601f820116820180604052508101906107309190612389565b9050801561079357335f81815260096020908152604091829020805460ff19166001179055815192835242908301527f6ea640312e182de387819fbeb13be00db3171a445412852248559054871c4199910160405180910390a150600192915050565b505f92915050565b50919050565b5f8054604051631d6253a360e21b815233600482015282918291829182916001600160a01b03909116906375894e8c9060240160408051808303815f875af11580156107ef573d5f803e3d5ffd5b505050506040513d601f19601f82011682018060405250810190610813919061229c565b9092509050600282600481111561082c5761082c611dc5565b1480156108365750805b6108525760405162461bcd60e51b815260040161058e906122cc565b6001861015801561086557506002548611155b6108815760405162461bcd60e51b815260040161058e9061231b565b5050505f928352505060046020818152604092839020835160c08101855281546001600160a01b03168082526001830154938201849052600283015495820195909552600382015460608201819052919093015460ff8082161515608086015261010090910416151560a0909301929092529192565b5f8054604051631d6253a360e21b815233600482015283929182916001600160a01b03909116906375894e8c9060240160408051808303815f875af1158015610942573d5f803e3d5ffd5b505050506040513d601f19601f82011682018060405250810190610966919061229c565b9092509050600482600481111561097f5761097f611dc5565b1480156109895750805b6109a55760405162461bcd60e51b815260040161058e906123a4565b5f838152600860205260409020546001600160a01b031633146109da5760405162461bcd60e51b815260040161058e906123f1565b5f848152600860209081526040808320815160c08101835281546001600160a01b03168152600182015493810193909352600281015491830191909152600380820154606084015260048201546080840152600582015460a084019160ff90911690811115610a4b57610a4b611dc5565b6003811115610a5c57610a5c611dc5565b905250905060018510801590610a7f57505f868152600760205260409020548511155b610a9b5760405162461bcd60e51b815260040161058e9061244e565b60028160a001516003811115610ab357610ab3611dc5565b14610b135760405162461bcd60e51b815260206004820152602a60248201527f54686973206368696c64206973206e6f742063757272656e746c7920696e207260448201526932b6b2b234b0ba34b7b760b11b606482015260840161058e565b8060600151421015610b7d5760405162461bcd60e51b815260206004820152602d60248201527f5468652074696d652077696e646f7720666f722072656d6564696174696f6e2060448201526c34b99039ba34b6361037b832b760991b606482015260840161058e565b5f8581526008602090815260409182902060058101805460ff191660031790554260049091018190558251888152918201527f20bdfc4aed336b176d0d9fcc339a80e25301f17464e264fb2ef18960418b20ca91015b60405180910390a1505050505050565b5f8054604051631d6253a360e21b815233600482015282916001600160a01b0316906375894e8c9060240160408051808303815f875af1158015610c29573d5f803e3d5ffd5b505050506040513d601f19601f82011682018060405250810190610c4d919061229c565b90925090506002826004811115610c6657610c66611dc5565b148015610c705750805b610c8c5760405162461bcd60e51b815260040161058e906122cc565b85610ccf5760405162461bcd60e51b8152602060048201526013602482015272496e76616c696420686173686564206e616d6560681b604482015260640161058e565b5f8511610d0c5760405162461bcd60e51b815260206004820152600b60248201526a496e76616c69642041676560a81b604482015260640161058e565b604d60f81b6001600160f81b031985161480610d355750602360f91b6001600160f81b03198516145b610d725760405162461bcd60e51b815260206004820152600e60248201526d24b73b30b634b21023b2b73232b960911b604482015260640161058e565b60018310158015610d8557506002548311155b610da15760405162461bcd60e51b815260040161058e9061231b565b5f838152600760205260408120805491610dba8361248c565b90915550506040805160c0810182525f85815260076020908152838220548084528184018b81528486018b81526001600160f81b03198b1660608701908152608087018b815260a088018781528c88526006875289882095885294909552969094208551815590516001808301919091559351600282015594516003808701805460f89390931c60ff19938416179055925160048701559051600586018054959695919490939190921691908490811115610e7757610e77611dc5565b021790555050505f8381526007602081815260408084208054855260058352818520889055938790529181529154815190815291820188905281018690526001600160f81b031985166060820152608081018490527f8f6937edcd05ce1c1912e225ec700cb996d92333e3b1631ce16e703fc6b8e77a9060a001610bd3565b5f8054604051631d6253a360e21b8152336004820152829182918291829182916001600160a01b0316906375894e8c9060240160408051808303815f875af1158015610f44573d5f803e3d5ffd5b505050506040513d601f19601f82011682018060405250810190610f68919061229c565b90925090506003826004811115610f8157610f81611dc5565b148015610f8b5750805b610feb5760405162461bcd60e51b815260206004820152602b60248201527f4f6e6c7920746865204461746120416e616c7973742063616e2072756e20746860448201526a34b990333ab731ba34b7b760a91b606482015260840161058e565b60018810158015610ffe57506002548811155b61101a5760405162461bcd60e51b815260040161058e9061231b565b6001871015801561103857505f888152600760205260409020548711155b6110545760405162461bcd60e51b815260040161058e9061244e565b5f8881526006602090815260408083208a84528252808320815160c0810183528154815260018201549381019390935260028101549183019190915260038082015460f81b6001600160f81b031916606084015260048201546080840152600582015460a084019160ff909116908111156110d1576110d1611dc5565b60038111156110e2576110e2611dc5565b9052505f998a526004602081815260409b8c90208c5160c081018e5281546001600160a01b031681526001820154818401526002820154818f015260038201546060808301829052929094015460ff8082161515608084015261010090910416151560a090910152908301519b8301519201519a9b919a9950975095505050505050565b5f8054604051631d6253a360e21b815233600482015282916001600160a01b0316906375894e8c9060240160408051808303815f875af11580156111ac573d5f803e3d5ffd5b505050506040513d601f19601f820116820180604052508101906111d0919061229c565b909250905060018260048111156111e9576111e9611dc5565b1480156111f35750805b6112565760405162461bcd60e51b815260206004820152602e60248201527f4f6e6c7920746865204c696169736f6e204f6666696365722063616e2072756e60448201526d103a3434b990333ab731ba34b7b760911b606482015260840161058e565b60028054905f6112658361248c565b90915550506040805160c08101825233815242602082015290810184905260608101611290866124a4565b81525f602080830182905260409283018290526002805483526004808352848420865181546001600160a01b039091166001600160a01b031990911617815592860151600184015593850151908201556060840151600380830191909155608085015191909301805460a09095015115156101000261ff00199215159290921661ffff199095169490941717909255805485929061132f9084906124c7565b90915550506002547f681f3195132986285e497b66d82a1d87dee04fe482a1e74020677b543e3f7c403342611363886124a4565b604080516001600160a01b0390941684526020840192909252908201526060016106af565b5f8054604051631d6253a360e21b815233600482015282916001600160a01b0316906375894e8c9060240160408051808303815f875af11580156113ce573d5f803e3d5ffd5b505050506040513d601f19601f820116820180604052508101906113f2919061229c565b90925090505f82600481111561140a5761140a611dc5565b1480156114145750805b6114305760405162461bcd60e51b815260040161058e906124e0565b5050600180546001600160a01b0319166001600160a01b0392909216919091179055565b5f8054604051631d6253a360e21b815233600482015284929182916001600160a01b03909116906375894e8c9060240160408051808303815f875af115801561149f573d5f803e3d5ffd5b505050506040513d601f19601f820116820180604052508101906114c3919061229c565b909250905060048260048111156114dc576114dc611dc5565b1480156114e65750805b6115025760405162461bcd60e51b815260040161058e906123a4565b5f838152600860205260409020546001600160a01b031633146115375760405162461bcd60e51b815260040161058e906123f1565b5f858152600860209081526040808320815160c08101835281546001600160a01b03168152600182015493810193909352600281015491830191909152600380820154606084015260048201546080840152600582015460a084019160ff909116908111156115a8576115a8611dc5565b60038111156115b9576115b9611dc5565b9052509050600187108015906115d157506002548711155b6115ed5760405162461bcd60e51b815260040161058e9061231b565b6001861015801561160b57505f878152600760205260409020548611155b6116275760405162461bcd60e51b815260040161058e9061244e565b60018160a00151600381111561163f5761163f611dc5565b1461169c5760405162461bcd60e51b815260206004820152602760248201527f54686973206368696c64206973206e6f7420726561647920666f722072656d656044820152663234b0ba34b7b760c91b606482015260840161058e565b5f86815260086020526040902060058101805460ff19166002908117909155429101556116ca856001612533565b6116d490426124c7565b5f87815260086020526040902060038101919091554260049091018190557fe8c0a5c01ea0a1da185a4990b289aa6b4dc5fd0d2b3d68be0bb0b32ebde6a2a5908790611721886001612533565b61172b90426124c7565b6040805193845260208401929092529082015260600160405180910390a150505050505050565b5f8054604051631d6253a360e21b8152336004820152829182918291829182916001600160a01b0316906375894e8c9060240160408051808303815f875af11580156117a0573d5f803e3d5ffd5b505050506040513d601f19601f820116820180604052508101906117c4919061229c565b90925090505f8260048111156117dc576117dc611dc5565b1480156117e65750805b6118025760405162461bcd60e51b815260040161058e906124e0565b5f878152600860209081526040808320815160c08101835281546001600160a01b03168152600182015493810193909352600281015491830191909152600380820154606084015260048201546080840152600582015460a084019160ff9091169081111561187357611873611dc5565b600381111561188457611884611dc5565b90525090506001891080159061189c57506002548911155b6118b85760405162461bcd60e51b815260040161058e9061231b565b600188101580156118d657505f898152600760205260409020548811155b6118f25760405162461bcd60e51b815260040161058e9061244e565b60a081015160808201516040830151606090930151919b909a509198509650945050505050565b5f8054604051631d6253a360e21b815233600482015282916001600160a01b0316906375894e8c9060240160408051808303815f875af115801561195f573d5f803e3d5ffd5b505050506040513d601f19601f82011682018060405250810190611983919061229c565b90925090505f82600481111561199b5761199b611dc5565b1480156119a55750805b6119c15760405162461bcd60e51b815260040161058e906124e0565b6001600160a01b0383165f81815260096020908152604091829020805460ff191690558151338152908101929092524282820152517f6f6a404ffd2cea4713256a4fd9ce99c8cf8cf32d85c2bb8061d1603ff57d50c39181900360600190a150505050565b5f8054604051631d6253a360e21b815233600482015282916001600160a01b0316906375894e8c9060240160408051808303815f875af1158015611a6c573d5f803e3d5ffd5b505050506040513d601f19601f82011682018060405250810190611a90919061229c565b90925090505f826004811115611aa857611aa8611dc5565b148015611ab25750805b611ace5760405162461bcd60e51b815260040161058e906124e0565b5f8581526006602090815260408083208784528252808320815160c0810183528154815260018201549381019390935260028101549183019190915260038082015460f81b6001600160f81b031916606084015260048201546080840152600582015460a084019160ff90911690811115611b4b57611b4b611dc5565b6003811115611b5c57611b5c611dc5565b90525090505f8160a001516003811115611b7857611b78611dc5565b14611bf95760405162461bcd60e51b8152602060048201526044602482018190527f54686973206368696c6420496420646f6573206e6f74206578697374206f7220908201527f68617320616c7265616479206265656e2061737369676e6564206120677561726064820152633234b0b760e11b608482015260a40161058e565b60018610158015611c0c57506002548611155b611c285760405162461bcd60e51b815260040161058e9061231b565b60018510158015611c4657505f868152600760205260409020548511155b611c625760405162461bcd60e51b815260040161058e9061244e565b5f85815260086020526040902080546001600160a01b0319166001600160a01b03861617815560018082018790556005909101805460ff19168280021790555060408051868152602081018890526001600160a01b038616918101919091527fe1a03807ff7b7d8ac4c42cf3fe3905d10b2b30935d18974726482db3bf232e3690606001610bd3565b600a60209081525f91825260409182902082518084018452815481526001820154928101929092528251608081018085529293919290916002808501928492830191849182845b815481526020019060010190808311611d3257505050918352505060408051808201918290526020909201919060028481019182845b815481526020019060010190808311611d685750505091909252505060408051808201909152600684015481526007909301546020840152509083565b5f8060408385031215611db6575f80fd5b50508035926020909101359150565b634e487b7160e01b5f52602160045260245ffd5b60048110611df557634e487b7160e01b5f52602160045260245ffd5b9052565b86815260208101869052604081018590526001600160f81b0319841660608201526080810183905260c08101611e3260a0830184611dd9565b979650505050505050565b8015158114611e4a575f80fd5b50565b5f8060408385031215611e5e575f80fd5b823591506020830135611e7081611e3d565b809150509250929050565b5f60208284031215611e8b575f80fd5b5035919050565b6001600160a01b03871681526020810186905260408101859052606081018490526080810183905260c08101611e3260a0830184611dd9565b634e487b7160e01b5f52604160045260245ffd5b6040805190810167ffffffffffffffff81118282101715611f0257611f02611ecb565b60405290565b604051601f8201601f1916810167ffffffffffffffff81118282101715611f3157611f31611ecb565b604052919050565b5f60408284031215611f49575f80fd5b611f51611edf565b9050813581526020820135602082015292915050565b5f82601f830112611f76575f80fd5b611f7e611edf565b806040840185811115611f8f575f80fd5b845b81811015611fa9578035845260209384019301611f91565b509095945050505050565b5f818303610100811215611fc6575f80fd5b6040516060810181811067ffffffffffffffff82111715611fe957611fe9611ecb565b604052611ff68585611f39565b81526080603f1983011215612009575f80fd5b612011611edf565b91506120208560408601611f67565b825261202f8560808601611f67565b60208301528160208201526120478560c08601611f39565b6040820152949350505050565b5f805f8060808587031215612067575f80fd5b843593506020850135925060408501356001600160f81b03198116811461208c575f80fd5b9396929550929360600135925050565b5f80604083850312156120ad575f80fd5b823567ffffffffffffffff808211156120c4575f80fd5b818501915085601f8301126120d7575f80fd5b81356020828211156120eb576120eb611ecb565b6120fd601f8301601f19168201611f08565b92508183528781838601011115612112575f80fd5b81818501828501375f91830181019190915290969401359450505050565b80356001600160a01b0381168114612146575f80fd5b919050565b5f6020828403121561215b575f80fd5b61216482612130565b9392505050565b5f805f6060848603121561217d575f80fd5b505081359360208301359350604090920135919050565b608081016121a28287611dd9565b84602083015283604083015282606083015295945050505050565b5f80604083850312156121ce575f80fd5b823591506121de60208401612130565b90509250929050565b5f805f606084860312156121f9575f80fd5b833592506020840135915061221060408501612130565b90509250925092565b805f5b600281101561223b57815184526020938401939091019060010161221c565b50505050565b61224c828251612219565b602081015161225e6040840182612219565b505050565b835181526020808501519082015261010081016122836040830185612241565b825160c0830152602083015160e0830152949350505050565b5f80604083850312156122ad575f80fd5b8251600581106122bb575f80fd5b6020840151909250611e7081611e3d565b6020808252602f908201527f4f6e6c792074686520496e7370656374696f6e204167656e742063616e20727560408201526e37103a3434b990333ab731ba34b7b760891b606082015260800190565b602080825260119082015270125b9d985b1a590814995c1bdc9d081251607a1b604082015260600190565b815180518252602090810151908201526101008101602083015161236d6040840182612241565b5060409290920151805160c08301526020015160e09091015290565b5f60208284031215612399575f80fd5b815161216481611e3d565b6020808252602d908201527f4f6e6c7920746865204368696c6420477561726469616e2063616e2072756e2060408201526c3a3434b990333ab731ba34b7b760991b606082015260800190565b6020808252603e908201527f4f6e6c79207468652061737369676e656420477561726469616e20746f20746860408201527f6973206368696c642063616e2072756e20746869732066756e6374696f6e0000606082015260800190565b60208082526010908201526f125b9d985b1a590810da1a5b1908125160821b604082015260600190565b634e487b7160e01b5f52601160045260245ffd5b5f6001820161249d5761249d612478565b5060010190565b8051602080830151919081101561079b575f1960209190910360031b1b16919050565b808201808211156124da576124da612478565b92915050565b60208082526033908201527f4f6e6c792074686520726567756c61746f727920617574686f726974792063616040820152723710393ab7103a3434b990333ab731ba34b7b760691b606082015260800190565b80820281158282048414176124da576124da61247856fea264697066735822122025f936cbc9ee0d0fb6316f3efa966611900b455d0729f86003be8989630f8e5364736f6c63430008150033",
			"opcodes": "PUSH1 0x80 PUSH1 0x40 MSTORE CALLVALUE DUP1 ISZERO PUSH3 0x10 JUMPI PUSH0 DUP1 REVERT JUMPDEST POP PUSH1 0x40 MLOAD PUSH3 0x264F CODESIZE SUB DUP1 PUSH3 0x264F DUP4 CODECOPY DUP2 ADD PUSH1 0x40 DUP2 SWAP1 MSTORE PUSH3 0x33 SWAP2 PUSH3 0x8B JUMP JUMPDEST PUSH0 DUP1 SLOAD PUSH1 0x1 PUSH1 0x1 PUSH1 0xA0 SHL SUB SWAP4 DUP5 AND PUSH1 0x1 PUSH1 0x1 PUSH1 0xA0 SHL SUB NOT SWAP2 DUP3 AND OR DUP3 SSTORE PUSH1 0x1 DUP1 SLOAD SWAP4 SWAP1 SWAP5 AND SWAP3 AND SWAP2 SWAP1 SWAP2 OR SWAP1 SWAP2 SSTORE PUSH1 0x2 DUP2 SWAP1 SSTORE PUSH1 0x3 SSTORE PUSH3 0xC1 JUMP JUMPDEST DUP1 MLOAD PUSH1 0x1 PUSH1 0x1 PUSH1 0xA0 SHL SUB DUP2 AND DUP2 EQ PUSH3 0x86 JUMPI PUSH0 DUP1 REVERT JUMPDEST SWAP2 SWAP1 POP JUMP JUMPDEST PUSH0 DUP1 PUSH1 0x40 DUP4 DUP6 SUB SLT ISZERO PUSH3 0x9D JUMPI PUSH0 DUP1 REVERT JUMPDEST PUSH3 0xA8 DUP4 PUSH3 0x6F JUMP JUMPDEST SWAP2 POP PUSH3 0xB8 PUSH1 0x20 DUP5 ADD PUSH3 0x6F JUMP JUMPDEST SWAP1 POP SWAP3 POP SWAP3 SWAP1 POP JUMP JUMPDEST PUSH2 0x2580 DUP1 PUSH3 0xCF PUSH0 CODECOPY PUSH0 RETURN INVALID PUSH1 0x80 PUSH1 0x40 MSTORE CALLVALUE DUP1 ISZERO PUSH2 0xF JUMPI PUSH0 DUP1 REVERT JUMPDEST POP PUSH1 0x4 CALLDATASIZE LT PUSH2 0x148 JUMPI PUSH0 CALLDATALOAD PUSH1 0xE0 SHR DUP1 PUSH4 0x84E2395D GT PUSH2 0xBF JUMPI DUP1 PUSH4 0xA1DC99B4 GT PUSH2 0x79 JUMPI DUP1 PUSH4 0xA1DC99B4 EQ PUSH2 0x449 JUMPI DUP1 PUSH4 0xB05EFAAB EQ PUSH2 0x46C JUMPI DUP1 PUSH4 0xD9A5EC1B EQ PUSH2 0x48B JUMPI DUP1 PUSH4 0xE8A37919 EQ PUSH2 0x49E JUMPI DUP1 PUSH4 0xEFF5CFAE EQ PUSH2 0x4B0 JUMPI DUP1 PUSH4 0xF8B4D690 EQ PUSH2 0x4C3 JUMPI PUSH0 DUP1 REVERT JUMPDEST DUP1 PUSH4 0x84E2395D EQ PUSH2 0x3A2 JUMPI DUP1 PUSH4 0x8BC3BBC0 EQ PUSH2 0x3E5 JUMPI DUP1 PUSH4 0x8FE2D950 EQ PUSH2 0x3EE JUMPI DUP1 PUSH4 0x97FC007C EQ PUSH2 0x401 JUMPI DUP1 PUSH4 0x992CC022 EQ PUSH2 0x414 JUMPI DUP1 PUSH4 0xA0619D4A EQ PUSH2 0x427 JUMPI PUSH0 DUP1 REVERT JUMPDEST DUP1 PUSH4 0x3835A119 GT PUSH2 0x110 JUMPI DUP1 PUSH4 0x3835A119 EQ PUSH2 0x26C JUMPI DUP1 PUSH4 0x53CA8115 EQ PUSH2 0x2FA JUMPI DUP1 PUSH4 0x636D0262 EQ PUSH2 0x325 JUMPI DUP1 PUSH4 0x6388BAFC EQ PUSH2 0x35D JUMPI DUP1 PUSH4 0x739F48A6 EQ PUSH2 0x37C JUMPI DUP1 PUSH4 0x832DE71E EQ PUSH2 0x38F JUMPI PUSH0 DUP1 REVERT JUMPDEST DUP1 PUSH4 0x12F1A83A EQ PUSH2 0x14C JUMPI DUP1 PUSH4 0x185C6F84 EQ PUSH2 0x1BC JUMPI DUP1 PUSH4 0x28C10330 EQ PUSH2 0x1D3 JUMPI DUP1 PUSH4 0x2B76EA9C EQ PUSH2 0x1E8 JUMPI DUP1 PUSH4 0x2CCC8392 EQ PUSH2 0x249 JUMPI JUMPDEST PUSH0 DUP1 REVERT JUMPDEST PUSH2 0x1A1 PUSH2 0x15A CALLDATASIZE PUSH1 0x4 PUSH2 0x1DA5 JUMP JUMPDEST PUSH1 0x6 PUSH1 0x20 SWAP1 DUP2 MSTORE PUSH0 SWAP3 DUP4 MSTORE PUSH1 0x40 DUP1 DUP5 KECCAK256 SWAP1 SWAP2 MSTORE SWAP1 DUP3 MSTORE SWAP1 KECCAK256 DUP1 SLOAD PUSH1 0x1 DUP3 ADD SLOAD PUSH1 0x2 DUP4 ADD SLOAD PUSH1 0x3 DUP5 ADD SLOAD PUSH1 0x4 DUP6 ADD SLOAD PUSH1 0x5 SWAP1 SWAP6 ADD SLOAD SWAP4 SWAP5 SWAP3 SWAP4 SWAP2 SWAP3 PUSH1 0xF8 SWAP2 SWAP1 SWAP2 SHL SWAP2 PUSH1 0xFF AND DUP7 JUMP JUMPDEST PUSH1 0x40 MLOAD PUSH2 0x1B3 SWAP7 SWAP6 SWAP5 SWAP4 SWAP3 SWAP2 SWAP1 PUSH2 0x1DF9 JUMP JUMPDEST PUSH1 0x40 MLOAD DUP1 SWAP2 SUB SWAP1 RETURN JUMPDEST PUSH2 0x1C5 PUSH1 0x2 SLOAD DUP2 JUMP JUMPDEST PUSH1 0x40 MLOAD SWAP1 DUP2 MSTORE PUSH1 0x20 ADD PUSH2 0x1B3 JUMP JUMPDEST PUSH2 0x1E6 PUSH2 0x1E1 CALLDATASIZE PUSH1 0x4 PUSH2 0x1E4D JUMP JUMPDEST PUSH2 0x4E5 JUMP JUMPDEST STOP JUMPDEST PUSH2 0x237 PUSH2 0x1F6 CALLDATASIZE PUSH1 0x4 PUSH2 0x1E7B JUMP JUMPDEST PUSH1 0x8 PUSH1 0x20 MSTORE PUSH0 SWAP1 DUP2 MSTORE PUSH1 0x40 SWAP1 KECCAK256 DUP1 SLOAD PUSH1 0x1 DUP3 ADD SLOAD PUSH1 0x2 DUP4 ADD SLOAD PUSH1 0x3 DUP5 ADD SLOAD PUSH1 0x4 DUP6 ADD SLOAD PUSH1 0x5 SWAP1 SWAP6 ADD SLOAD PUSH1 0x1 PUSH1 0x1 PUSH1 0xA0 SHL SUB SWAP1 SWAP5 AND SWAP5 SWAP3 SWAP4 SWAP2 SWAP3 SWAP1 SWAP2 PUSH1 0xFF AND DUP7 JUMP JUMPDEST PUSH1 0x40 MLOAD PUSH2 0x1B3 SWAP7 SWAP6 SWAP5 SWAP4 SWAP3 SWAP2 SWAP1 PUSH2 0x1E92 JUMP JUMPDEST PUSH2 0x25C PUSH2 0x257 CALLDATASIZE PUSH1 0x4 PUSH2 0x1FB4 JUMP JUMPDEST PUSH2 0x6BD JUMP JUMPDEST PUSH1 0x40 MLOAD SWAP1 ISZERO ISZERO DUP2 MSTORE PUSH1 0x20 ADD PUSH2 0x1B3 JUMP JUMPDEST PUSH2 0x2BF PUSH2 0x27A CALLDATASIZE PUSH1 0x4 PUSH2 0x1E7B JUMP JUMPDEST PUSH1 0x4 PUSH1 0x20 DUP2 SWAP1 MSTORE PUSH0 SWAP2 DUP3 MSTORE PUSH1 0x40 SWAP1 SWAP2 KECCAK256 DUP1 SLOAD PUSH1 0x1 DUP3 ADD SLOAD PUSH1 0x2 DUP4 ADD SLOAD PUSH1 0x3 DUP5 ADD SLOAD SWAP4 SWAP1 SWAP5 ADD SLOAD PUSH1 0x1 PUSH1 0x1 PUSH1 0xA0 SHL SUB SWAP1 SWAP3 AND SWAP4 SWAP1 SWAP3 SWAP1 SWAP2 PUSH1 0xFF DUP1 DUP3 AND SWAP2 PUSH2 0x100 SWAP1 DIV AND DUP7 JUMP JUMPDEST PUSH1 0x40 DUP1 MLOAD PUSH1 0x1 PUSH1 0x1 PUSH1 0xA0 SHL SUB SWAP1 SWAP8 AND DUP8 MSTORE PUSH1 0x20 DUP8 ADD SWAP6 SWAP1 SWAP6 MSTORE SWAP4 DUP6 ADD SWAP3 SWAP1 SWAP3 MSTORE PUSH1 0x60 DUP5 ADD MSTORE ISZERO ISZERO PUSH1 0x80 DUP4 ADD MSTORE ISZERO ISZERO PUSH1 0xA0 DUP3 ADD MSTORE PUSH1 0xC0 ADD PUSH2 0x1B3 JUMP JUMPDEST PUSH1 0x1 SLOAD PUSH2 0x30D SWAP1 PUSH1 0x1 PUSH1 0x1 PUSH1 0xA0 SHL SUB AND DUP2 JUMP JUMPDEST PUSH1 0x40 MLOAD PUSH1 0x1 PUSH1 0x1 PUSH1 0xA0 SHL SUB SWAP1 SWAP2 AND DUP2 MSTORE PUSH1 0x20 ADD PUSH2 0x1B3 JUMP JUMPDEST PUSH2 0x338 PUSH2 0x333 CALLDATASIZE PUSH1 0x4 PUSH2 0x1E7B JUMP JUMPDEST PUSH2 0x7A1 JUMP JUMPDEST PUSH1 0x40 DUP1 MLOAD PUSH1 0x1 PUSH1 0x1 PUSH1 0xA0 SHL SUB SWAP1 SWAP5 AND DUP5 MSTORE PUSH1 0x20 DUP5 ADD SWAP3 SWAP1 SWAP3 MSTORE SWAP1 DUP3 ADD MSTORE PUSH1 0x60 ADD PUSH2 0x1B3 JUMP JUMPDEST PUSH2 0x1C5 PUSH2 0x36B CALLDATASIZE PUSH1 0x4 PUSH2 0x1E7B JUMP JUMPDEST PUSH1 0x7 PUSH1 0x20 MSTORE PUSH0 SWAP1 DUP2 MSTORE PUSH1 0x40 SWAP1 KECCAK256 SLOAD DUP2 JUMP JUMPDEST PUSH2 0x1E6 PUSH2 0x38A CALLDATASIZE PUSH1 0x4 PUSH2 0x1DA5 JUMP JUMPDEST PUSH2 0x8F7 JUMP JUMPDEST PUSH2 0x1E6 PUSH2 0x39D CALLDATASIZE PUSH1 0x4 PUSH2 0x2054 JUMP JUMPDEST PUSH2 0xBE3 JUMP JUMPDEST PUSH2 0x3B5 PUSH2 0x3B0 CALLDATASIZE PUSH1 0x4 PUSH2 0x1DA5 JUMP JUMPDEST PUSH2 0xEF6 JUMP JUMPDEST PUSH1 0x40 MLOAD PUSH2 0x1B3 SWAP5 SWAP4 SWAP3 SWAP2 SWAP1 SWAP4 DUP5 MSTORE PUSH1 0x20 DUP5 ADD SWAP3 SWAP1 SWAP3 MSTORE PUSH1 0x1 PUSH1 0x1 PUSH1 0xF8 SHL SUB NOT AND PUSH1 0x40 DUP4 ADD MSTORE PUSH1 0x60 DUP3 ADD MSTORE PUSH1 0x80 ADD SWAP1 JUMP JUMPDEST PUSH2 0x1C5 PUSH1 0x3 SLOAD DUP2 JUMP JUMPDEST PUSH2 0x1E6 PUSH2 0x3FC CALLDATASIZE PUSH1 0x4 PUSH2 0x209C JUMP JUMPDEST PUSH2 0x1166 JUMP JUMPDEST PUSH2 0x1E6 PUSH2 0x40F CALLDATASIZE PUSH1 0x4 PUSH2 0x214B JUMP JUMPDEST PUSH2 0x1388 JUMP JUMPDEST PUSH2 0x1E6 PUSH2 0x422 CALLDATASIZE PUSH1 0x4 PUSH2 0x216B JUMP JUMPDEST PUSH2 0x1454 JUMP JUMPDEST PUSH2 0x25C PUSH2 0x435 CALLDATASIZE PUSH1 0x4 PUSH2 0x214B JUMP JUMPDEST PUSH1 0x9 PUSH1 0x20 MSTORE PUSH0 SWAP1 DUP2 MSTORE PUSH1 0x40 SWAP1 KECCAK256 SLOAD PUSH1 0xFF AND DUP2 JUMP JUMPDEST PUSH2 0x45C PUSH2 0x457 CALLDATASIZE PUSH1 0x4 PUSH2 0x1DA5 JUMP JUMPDEST PUSH2 0x1752 JUMP JUMPDEST PUSH1 0x40 MLOAD PUSH2 0x1B3 SWAP5 SWAP4 SWAP3 SWAP2 SWAP1 PUSH2 0x2194 JUMP JUMPDEST PUSH2 0x1C5 PUSH2 0x47A CALLDATASIZE PUSH1 0x4 PUSH2 0x1E7B JUMP JUMPDEST PUSH1 0x5 PUSH1 0x20 MSTORE PUSH0 SWAP1 DUP2 MSTORE PUSH1 0x40 SWAP1 KECCAK256 SLOAD DUP2 JUMP JUMPDEST PUSH2 0x1E6 PUSH2 0x499 CALLDATASIZE PUSH1 0x4 PUSH2 0x21BD JUMP JUMPDEST PUSH2 0x1919 JUMP JUMPDEST PUSH0 SLOAD PUSH2 0x30D SWAP1 PUSH1 0x1 PUSH1 0x1 PUSH1 0xA0 SHL SUB AND DUP2 JUMP JUMPDEST PUSH2 0x1E6 PUSH2 0x4BE CALLDATASIZE PUSH1 0x4 PUSH2 0x21E7 JUMP JUMPDEST PUSH2 0x1A26 JUMP JUMPDEST PUSH2 0x4D6 PUSH2 0x4D1 CALLDATASIZE PUSH1 0x4 PUSH2 0x1E7B JUMP JUMPDEST PUSH2 0x1CEB JUMP JUMPDEST PUSH1 0x40 MLOAD PUSH2 0x1B3 SWAP4 SWAP3 SWAP2 SWAP1 PUSH2 0x2263 JUMP JUMPDEST PUSH0 DUP1 SLOAD PUSH1 0x40 MLOAD PUSH4 0x1D6253A3 PUSH1 0xE2 SHL DUP2 MSTORE CALLER PUSH1 0x4 DUP3 ADD MSTORE DUP3 SWAP2 PUSH1 0x1 PUSH1 0x1 PUSH1 0xA0 SHL SUB AND SWAP1 PUSH4 0x75894E8C SWAP1 PUSH1 0x24 ADD PUSH1 0x40 DUP1 MLOAD DUP1 DUP4 SUB DUP2 PUSH0 DUP8 GAS CALL ISZERO DUP1 ISZERO PUSH2 0x52B JUMPI RETURNDATASIZE PUSH0 DUP1 RETURNDATACOPY RETURNDATASIZE PUSH0 REVERT JUMPDEST POP POP POP POP PUSH1 0x40 MLOAD RETURNDATASIZE PUSH1 0x1F NOT PUSH1 0x1F DUP3 ADD AND DUP3 ADD DUP1 PUSH1 0x40 MSTORE POP DUP2 ADD SWAP1 PUSH2 0x54F SWAP2 SWAP1 PUSH2 0x229C JUMP JUMPDEST SWAP1 SWAP3 POP SWAP1 POP PUSH1 0x2 DUP3 PUSH1 0x4 DUP2 GT ISZERO PUSH2 0x568 JUMPI PUSH2 0x568 PUSH2 0x1DC5 JUMP JUMPDEST EQ DUP1 ISZERO PUSH2 0x572 JUMPI POP DUP1 JUMPDEST PUSH2 0x597 JUMPI PUSH1 0x40 MLOAD PUSH3 0x461BCD PUSH1 0xE5 SHL DUP2 MSTORE PUSH1 0x4 ADD PUSH2 0x58E SWAP1 PUSH2 0x22CC JUMP JUMPDEST PUSH1 0x40 MLOAD DUP1 SWAP2 SUB SWAP1 REVERT JUMPDEST PUSH1 0x1 DUP5 LT ISZERO DUP1 ISZERO PUSH2 0x5AA JUMPI POP PUSH1 0x2 SLOAD DUP5 GT ISZERO JUMPDEST PUSH2 0x5C6 JUMPI PUSH1 0x40 MLOAD PUSH3 0x461BCD PUSH1 0xE5 SHL DUP2 MSTORE PUSH1 0x4 ADD PUSH2 0x58E SWAP1 PUSH2 0x231B JUMP JUMPDEST PUSH0 DUP5 DUP2 MSTORE PUSH1 0x4 PUSH1 0x20 DUP2 SWAP1 MSTORE PUSH1 0x40 SWAP1 SWAP2 KECCAK256 ADD SLOAD PUSH1 0xFF AND ISZERO PUSH2 0x637 JUMPI PUSH1 0x40 MLOAD PUSH3 0x461BCD PUSH1 0xE5 SHL DUP2 MSTORE PUSH1 0x20 PUSH1 0x4 DUP3 ADD MSTORE PUSH1 0x26 PUSH1 0x24 DUP3 ADD MSTORE PUSH32 0x54686973207265706F72742068617320616C7265616479206265656E20696E73 PUSH1 0x44 DUP3 ADD MSTORE PUSH6 0x1C1958DD1959 PUSH1 0xD2 SHL PUSH1 0x64 DUP3 ADD MSTORE PUSH1 0x84 ADD PUSH2 0x58E JUMP JUMPDEST PUSH0 DUP5 DUP2 MSTORE PUSH1 0x4 PUSH1 0x20 DUP2 SWAP1 MSTORE PUSH1 0x40 SWAP2 DUP3 SWAP1 KECCAK256 ADD DUP1 SLOAD DUP6 ISZERO ISZERO PUSH2 0x100 MUL PUSH2 0xFFFF NOT SWAP1 SWAP2 AND OR PUSH1 0x1 OR SWAP1 SSTORE MLOAD DUP5 SWAP1 PUSH32 0x5E672278B5A4CE7F1DEAEB816F60398E65C2401C6F90928E8344510D7FA92755 SWAP1 PUSH2 0x6AF SWAP1 CALLER SWAP1 DUP8 SWAP1 TIMESTAMP SWAP1 PUSH1 0x1 PUSH1 0x1 PUSH1 0xA0 SHL SUB SWAP4 SWAP1 SWAP4 AND DUP4 MSTORE SWAP1 ISZERO ISZERO PUSH1 0x20 DUP4 ADD MSTORE PUSH1 0x40 DUP3 ADD MSTORE PUSH1 0x60 ADD SWAP1 JUMP JUMPDEST PUSH1 0x40 MLOAD DUP1 SWAP2 SUB SWAP1 LOG2 POP POP POP POP JUMP JUMPDEST PUSH1 0x1 SLOAD PUSH1 0x40 MLOAD PUSH4 0xF6AF0311 PUSH1 0xE0 SHL DUP2 MSTORE PUSH0 SWAP2 DUP3 SWAP2 PUSH1 0x1 PUSH1 0x1 PUSH1 0xA0 SHL SUB SWAP1 SWAP2 AND SWAP1 PUSH4 0xF6AF0311 SWAP1 PUSH2 0x6F1 SWAP1 DUP7 SWAP1 PUSH1 0x4 ADD PUSH2 0x2346 JUMP JUMPDEST PUSH1 0x20 PUSH1 0x40 MLOAD DUP1 DUP4 SUB DUP2 DUP7 GAS STATICCALL ISZERO DUP1 ISZERO PUSH2 0x70C JUMPI RETURNDATASIZE PUSH0 DUP1 RETURNDATACOPY RETURNDATASIZE PUSH0 REVERT JUMPDEST POP POP POP POP PUSH1 0x40 MLOAD RETURNDATASIZE PUSH1 0x1F NOT PUSH1 0x1F DUP3 ADD AND DUP3 ADD DUP1 PUSH1 0x40 MSTORE POP DUP2 ADD SWAP1 PUSH2 0x730 SWAP2 SWAP1 PUSH2 0x2389 JUMP JUMPDEST SWAP1 POP DUP1 ISZERO PUSH2 0x793 JUMPI CALLER PUSH0 DUP2 DUP2 MSTORE PUSH1 0x9 PUSH1 0x20 SWAP1 DUP2 MSTORE PUSH1 0x40 SWAP2 DUP3 SWAP1 KECCAK256 DUP1 SLOAD PUSH1 0xFF NOT AND PUSH1 0x1 OR SWAP1 SSTORE DUP2 MLOAD SWAP3 DUP4 MSTORE TIMESTAMP SWAP1 DUP4 ADD MSTORE PUSH32 0x6EA640312E182DE387819FBEB13BE00DB3171A445412852248559054871C4199 SWAP2 ADD PUSH1 0x40 MLOAD DUP1 SWAP2 SUB SWAP1 LOG1 POP PUSH1 0x1 SWAP3 SWAP2 POP POP JUMP JUMPDEST POP PUSH0 SWAP3 SWAP2 POP POP JUMP JUMPDEST POP SWAP2 SWAP1 POP JUMP JUMPDEST PUSH0 DUP1 SLOAD PUSH1 0x40 MLOAD PUSH4 0x1D6253A3 PUSH1 0xE2 SHL DUP2 MSTORE CALLER PUSH1 0x4 DUP3 ADD MSTORE DUP3 SWAP2 DUP3 SWAP2 DUP3 SWAP2 DUP3 SWAP2 PUSH1 0x1 PUSH1 0x1 PUSH1 0xA0 SHL SUB SWAP1 SWAP2 AND SWAP1 PUSH4 0x75894E8C SWAP1 PUSH1 0x24 ADD PUSH1 0x40 DUP1 MLOAD DUP1 DUP4 SUB DUP2 PUSH0 DUP8 GAS CALL ISZERO DUP1 ISZERO PUSH2 0x7EF JUMPI RETURNDATASIZE PUSH0 DUP1 RETURNDATACOPY RETURNDATASIZE PUSH0 REVERT JUMPDEST POP POP POP POP PUSH1 0x40 MLOAD RETURNDATASIZE PUSH1 0x1F NOT PUSH1 0x1F DUP3 ADD AND DUP3 ADD DUP1 PUSH1 0x40 MSTORE POP DUP2 ADD SWAP1 PUSH2 0x813 SWAP2 SWAP1 PUSH2 0x229C JUMP JUMPDEST SWAP1 SWAP3 POP SWAP1 POP PUSH1 0x2 DUP3 PUSH1 0x4 DUP2 GT ISZERO PUSH2 0x82C JUMPI PUSH2 0x82C PUSH2 0x1DC5 JUMP JUMPDEST EQ DUP1 ISZERO PUSH2 0x836 JUMPI POP DUP1 JUMPDEST PUSH2 0x852 JUMPI PUSH1 0x40 MLOAD PUSH3 0x461BCD PUSH1 0xE5 SHL DUP2 MSTORE PUSH1 0x4 ADD PUSH2 0x58E SWAP1 PUSH2 0x22CC JUMP JUMPDEST PUSH1 0x1 DUP7 LT ISZERO DUP1 ISZERO PUSH2 0x865 JUMPI POP PUSH1 0x2 SLOAD DUP7 GT ISZERO JUMPDEST PUSH2 0x881 JUMPI PUSH1 0x40 MLOAD PUSH3 0x461BCD PUSH1 0xE5 SHL DUP2 MSTORE PUSH1 0x4 ADD PUSH2 0x58E SWAP1 PUSH2 0x231B JUMP JUMPDEST POP POP POP PUSH0 SWAP3 DUP4 MSTORE POP POP PUSH1 0x4 PUSH1 0x20 DUP2 DUP2 MSTORE PUSH1 0x40 SWAP3 DUP4 SWAP1 KECCAK256 DUP4 MLOAD PUSH1 0xC0 DUP2 ADD DUP6 MSTORE DUP2 SLOAD PUSH1 0x1 PUSH1 0x1 PUSH1 0xA0 SHL SUB AND DUP1 DUP3 MSTORE PUSH1 0x1 DUP4 ADD SLOAD SWAP4 DUP3 ADD DUP5 SWAP1 MSTORE PUSH1 0x2 DUP4 ADD SLOAD SWAP6 DUP3 ADD SWAP6 SWAP1 SWAP6 MSTORE PUSH1 0x3 DUP3 ADD SLOAD PUSH1 0x60 DUP3 ADD DUP2 SWAP1 MSTORE SWAP2 SWAP1 SWAP4 ADD SLOAD PUSH1 0xFF DUP1 DUP3 AND ISZERO ISZERO PUSH1 0x80 DUP7 ADD MSTORE PUSH2 0x100 SWAP1 SWAP2 DIV AND ISZERO ISZERO PUSH1 0xA0 SWAP1 SWAP4 ADD SWAP3 SWAP1 SWAP3 MSTORE SWAP2 SWAP3 JUMP JUMPDEST PUSH0 DUP1 SLOAD PUSH1 0x40 MLOAD PUSH4 0x1D6253A3 PUSH1 0xE2 SHL DUP2 MSTORE CALLER PUSH1 0x4 DUP3 ADD MSTORE DUP4 SWAP3 SWAP2 DUP3 SWAP2 PUSH1 0x1 PUSH1 0x1 PUSH1 0xA0 SHL SUB SWAP1 SWAP2 AND SWAP1 PUSH4 0x75894E8C SWAP1 PUSH1 0x24 ADD PUSH1 0x40 DUP1 MLOAD DUP1 DUP4 SUB DUP2 PUSH0 DUP8 GAS CALL ISZERO DUP1 ISZERO PUSH2 0x942 JUMPI RETURNDATASIZE PUSH0 DUP1 RETURNDATACOPY RETURNDATASIZE PUSH0 REVERT JUMPDEST POP POP POP POP PUSH1 0x40 MLOAD RETURNDATASIZE PUSH1 0x1F NOT PUSH1 0x1F DUP3 ADD AND DUP3 ADD DUP1 PUSH1 0x40 MSTORE POP DUP2 ADD SWAP1 PUSH2 0x966 SWAP2 SWAP1 PUSH2 0x229C JUMP JUMPDEST SWAP1 SWAP3 POP SWAP1 POP PUSH1 0x4 DUP3 PUSH1 0x4 DUP2 GT ISZERO PUSH2 0x97F JUMPI PUSH2 0x97F PUSH2 0x1DC5 JUMP JUMPDEST EQ DUP1 ISZERO PUSH2 0x989 JUMPI POP DUP1 JUMPDEST PUSH2 0x9A5 JUMPI PUSH1 0x40 MLOAD PUSH3 0x461BCD PUSH1 0xE5 SHL DUP2 MSTORE PUSH1 0x4 ADD PUSH2 0x58E SWAP1 PUSH2 0x23A4 JUMP JUMPDEST PUSH0 DUP4 DUP2 MSTORE PUSH1 0x8 PUSH1 0x20 MSTORE PUSH1 0x40 SWAP1 KECCAK256 SLOAD PUSH1 0x1 PUSH1 0x1 PUSH1 0xA0 SHL SUB AND CALLER EQ PUSH2 0x9DA JUMPI PUSH1 0x40 MLOAD PUSH3 0x461BCD PUSH1 0xE5 SHL DUP2 MSTORE PUSH1 0x4 ADD PUSH2 0x58E SWAP1 PUSH2 0x23F1 JUMP JUMPDEST PUSH0 DUP5 DUP2 MSTORE PUSH1 0x8 PUSH1 0x20 SWAP1 DUP2 MSTORE PUSH1 0x40 DUP1 DUP4 KECCAK256 DUP2 MLOAD PUSH1 0xC0 DUP2 ADD DUP4 MSTORE DUP2 SLOAD PUSH1 0x1 PUSH1 0x1 PUSH1 0xA0 SHL SUB AND DUP2 MSTORE PUSH1 0x1 DUP3 ADD SLOAD SWAP4 DUP2 ADD SWAP4 SWAP1 SWAP4 MSTORE PUSH1 0x2 DUP2 ADD SLOAD SWAP2 DUP4 ADD SWAP2 SWAP1 SWAP2 MSTORE PUSH1 0x3 DUP1 DUP3 ADD SLOAD PUSH1 0x60 DUP5 ADD MSTORE PUSH1 0x4 DUP3 ADD SLOAD PUSH1 0x80 DUP5 ADD MSTORE PUSH1 0x5 DUP3 ADD SLOAD PUSH1 0xA0 DUP5 ADD SWAP2 PUSH1 0xFF SWAP1 SWAP2 AND SWAP1 DUP2 GT ISZERO PUSH2 0xA4B JUMPI PUSH2 0xA4B PUSH2 0x1DC5 JUMP JUMPDEST PUSH1 0x3 DUP2 GT ISZERO PUSH2 0xA5C JUMPI PUSH2 0xA5C PUSH2 0x1DC5 JUMP JUMPDEST SWAP1 MSTORE POP SWAP1 POP PUSH1 0x1 DUP6 LT DUP1 ISZERO SWAP1 PUSH2 0xA7F JUMPI POP PUSH0 DUP7 DUP2 MSTORE PUSH1 0x7 PUSH1 0x20 MSTORE PUSH1 0x40 SWAP1 KECCAK256 SLOAD DUP6 GT ISZERO JUMPDEST PUSH2 0xA9B JUMPI PUSH1 0x40 MLOAD PUSH3 0x461BCD PUSH1 0xE5 SHL DUP2 MSTORE PUSH1 0x4 ADD PUSH2 0x58E SWAP1 PUSH2 0x244E JUMP JUMPDEST PUSH1 0x2 DUP2 PUSH1 0xA0 ADD MLOAD PUSH1 0x3 DUP2 GT ISZERO PUSH2 0xAB3 JUMPI PUSH2 0xAB3 PUSH2 0x1DC5 JUMP JUMPDEST EQ PUSH2 0xB13 JUMPI PUSH1 0x40 MLOAD PUSH3 0x461BCD PUSH1 0xE5 SHL DUP2 MSTORE PUSH1 0x20 PUSH1 0x4 DUP3 ADD MSTORE PUSH1 0x2A PUSH1 0x24 DUP3 ADD MSTORE PUSH32 0x54686973206368696C64206973206E6F742063757272656E746C7920696E2072 PUSH1 0x44 DUP3 ADD MSTORE PUSH10 0x32B6B2B234B0BA34B7B7 PUSH1 0xB1 SHL PUSH1 0x64 DUP3 ADD MSTORE PUSH1 0x84 ADD PUSH2 0x58E JUMP JUMPDEST DUP1 PUSH1 0x60 ADD MLOAD TIMESTAMP LT ISZERO PUSH2 0xB7D JUMPI PUSH1 0x40 MLOAD PUSH3 0x461BCD PUSH1 0xE5 SHL DUP2 MSTORE PUSH1 0x20 PUSH1 0x4 DUP3 ADD MSTORE PUSH1 0x2D PUSH1 0x24 DUP3 ADD MSTORE PUSH32 0x5468652074696D652077696E646F7720666F722072656D6564696174696F6E20 PUSH1 0x44 DUP3 ADD MSTORE PUSH13 0x34B99039BA34B6361037B832B7 PUSH1 0x99 SHL PUSH1 0x64 DUP3 ADD MSTORE PUSH1 0x84 ADD PUSH2 0x58E JUMP JUMPDEST PUSH0 DUP6 DUP2 MSTORE PUSH1 0x8 PUSH1 0x20 SWAP1 DUP2 MSTORE PUSH1 0x40 SWAP2 DUP3 SWAP1 KECCAK256 PUSH1 0x5 DUP2 ADD DUP1 SLOAD PUSH1 0xFF NOT AND PUSH1 0x3 OR SWAP1 SSTORE TIMESTAMP PUSH1 0x4 SWAP1 SWAP2 ADD DUP2 SWAP1 SSTORE DUP3 MLOAD DUP9 DUP2 MSTORE SWAP2 DUP3 ADD MSTORE PUSH32 0x20BDFC4AED336B176D0D9FCC339A80E25301F17464E264FB2EF18960418B20CA SWAP2 ADD JUMPDEST PUSH1 0x40 MLOAD DUP1 SWAP2 SUB SWAP1 LOG1 POP POP POP POP POP POP JUMP JUMPDEST PUSH0 DUP1 SLOAD PUSH1 0x40 MLOAD PUSH4 0x1D6253A3 PUSH1 0xE2 SHL DUP2 MSTORE CALLER PUSH1 0x4 DUP3 ADD MSTORE DUP3 SWAP2 PUSH1 0x1 PUSH1 0x1 PUSH1 0xA0 SHL SUB AND SWAP1 PUSH4 0x75894E8C SWAP1 PUSH1 0x24 ADD PUSH1 0x40 DUP1 MLOAD DUP1 DUP4 SUB DUP2 PUSH0 DUP8 GAS CALL ISZERO DUP1 ISZERO PUSH2 0xC29 JUMPI RETURNDATASIZE PUSH0 DUP1 RETURNDATACOPY RETURNDATASIZE PUSH0 REVERT JUMPDEST POP POP POP POP PUSH1 0x40 MLOAD RETURNDATASIZE PUSH1 0x1F NOT PUSH1 0x1F DUP3 ADD AND DUP3 ADD DUP1 PUSH1 0x40 MSTORE POP DUP2 ADD SWAP1 PUSH2 0xC4D SWAP2 SWAP1 PUSH2 0x229C JUMP JUMPDEST SWAP1 SWAP3 POP SWAP1 POP PUSH1 0x2 DUP3 PUSH1 0x4 DUP2 GT ISZERO PUSH2 0xC66 JUMPI PUSH2 0xC66 PUSH2 0x1DC5 JUMP JUMPDEST EQ DUP1 ISZERO PUSH2 0xC70 JUMPI POP DUP1 JUMPDEST PUSH2 0xC8C JUMPI PUSH1 0x40 MLOAD PUSH3 0x461BCD PUSH1 0xE5 SHL DUP2 MSTORE PUSH1 0x4 ADD PUSH2 0x58E SWAP1 PUSH2 0x22CC JUMP JUMPDEST DUP6 PUSH2 0xCCF JUMPI PUSH1 0x40 MLOAD PUSH3 0x461BCD PUSH1 0xE5 SHL DUP2 MSTORE PUSH1 0x20 PUSH1 0x4 DUP3 ADD MSTORE PUSH1 0x13 PUSH1 0x24 DUP3 ADD MSTORE PUSH19 0x496E76616C696420686173686564206E616D65 PUSH1 0x68 SHL PUSH1 0x44 DUP3 ADD MSTORE PUSH1 0x64 ADD PUSH2 0x58E JUMP JUMPDEST PUSH0 DUP6 GT PUSH2 0xD0C JUMPI PUSH1 0x40 MLOAD PUSH3 0x461BCD PUSH1 0xE5 SHL DUP2 MSTORE PUSH1 0x20 PUSH1 0x4 DUP3 ADD MSTORE PUSH1 0xB PUSH1 0x24 DUP3 ADD MSTORE PUSH11 0x496E76616C696420416765 PUSH1 0xA8 SHL PUSH1 0x44 DUP3 ADD MSTORE PUSH1 0x64 ADD PUSH2 0x58E JUMP JUMPDEST PUSH1 0x4D PUSH1 0xF8 SHL PUSH1 0x1 PUSH1 0x1 PUSH1 0xF8 SHL SUB NOT DUP6 AND EQ DUP1 PUSH2 0xD35 JUMPI POP PUSH1 0x23 PUSH1 0xF9 SHL PUSH1 0x1 PUSH1 0x1 PUSH1 0xF8 SHL SUB NOT DUP6 AND EQ JUMPDEST PUSH2 0xD72 JUMPI PUSH1 0x40 MLOAD PUSH3 0x461BCD PUSH1 0xE5 SHL DUP2 MSTORE PUSH1 0x20 PUSH1 0x4 DUP3 ADD MSTORE PUSH1 0xE PUSH1 0x24 DUP3 ADD MSTORE PUSH14 0x24B73B30B634B21023B2B73232B9 PUSH1 0x91 SHL PUSH1 0x44 DUP3 ADD MSTORE PUSH1 0x64 ADD PUSH2 0x58E JUMP JUMPDEST PUSH1 0x1 DUP4 LT ISZERO DUP1 ISZERO PUSH2 0xD85 JUMPI POP PUSH1 0x2 SLOAD DUP4 GT ISZERO JUMPDEST PUSH2 0xDA1 JUMPI PUSH1 0x40 MLOAD PUSH3 0x461BCD PUSH1 0xE5 SHL DUP2 MSTORE PUSH1 0x4 ADD PUSH2 0x58E SWAP1 PUSH2 0x231B JUMP JUMPDEST PUSH0 DUP4 DUP2 MSTORE PUSH1 0x7 PUSH1 0x20 MSTORE PUSH1 0x40 DUP2 KECCAK256 DUP1 SLOAD SWAP2 PUSH2 0xDBA DUP4 PUSH2 0x248C JUMP JUMPDEST SWAP1 SWAP2 SSTORE POP POP PUSH1 0x40 DUP1 MLOAD PUSH1 0xC0 DUP2 ADD DUP3 MSTORE PUSH0 DUP6 DUP2 MSTORE PUSH1 0x7 PUSH1 0x20 SWAP1 DUP2 MSTORE DUP4 DUP3 KECCAK256 SLOAD DUP1 DUP5 MSTORE DUP2 DUP5 ADD DUP12 DUP2 MSTORE DUP5 DUP7 ADD DUP12 DUP2 MSTORE PUSH1 0x1 PUSH1 0x1 PUSH1 0xF8 SHL SUB NOT DUP12 AND PUSH1 0x60 DUP8 ADD SWAP1 DUP2 MSTORE PUSH1 0x80 DUP8 ADD DUP12 DUP2 MSTORE PUSH1 0xA0 DUP9 ADD DUP8 DUP2 MSTORE DUP13 DUP9 MSTORE PUSH1 0x6 DUP8 MSTORE DUP10 DUP9 KECCAK256 SWAP6 DUP9 MSTORE SWAP5 SWAP1 SWAP6 MSTORE SWAP7 SWAP1 SWAP5 KECCAK256 DUP6 MLOAD DUP2 SSTORE SWAP1 MLOAD PUSH1 0x1 DUP1 DUP4 ADD SWAP2 SWAP1 SWAP2 SSTORE SWAP4 MLOAD PUSH1 0x2 DUP3 ADD SSTORE SWAP5 MLOAD PUSH1 0x3 DUP1 DUP8 ADD DUP1 SLOAD PUSH1 0xF8 SWAP4 SWAP1 SWAP4 SHR PUSH1 0xFF NOT SWAP4 DUP5 AND OR SWAP1 SSTORE SWAP3 MLOAD PUSH1 0x4 DUP8 ADD SSTORE SWAP1 MLOAD PUSH1 0x5 DUP7 ADD DUP1 SLOAD SWAP6 SWAP7 SWAP6 SWAP2 SWAP5 SWAP1 SWAP4 SWAP2 SWAP1 SWAP3 AND SWAP2 SWAP1 DUP5 SWAP1 DUP2 GT ISZERO PUSH2 0xE77 JUMPI PUSH2 0xE77 PUSH2 0x1DC5 JUMP JUMPDEST MUL OR SWAP1 SSTORE POP POP POP PUSH0 DUP4 DUP2 MSTORE PUSH1 0x7 PUSH1 0x20 DUP2 DUP2 MSTORE PUSH1 0x40 DUP1 DUP5 KECCAK256 DUP1 SLOAD DUP6 MSTORE PUSH1 0x5 DUP4 MSTORE DUP2 DUP6 KECCAK256 DUP9 SWAP1 SSTORE SWAP4 DUP8 SWAP1 MSTORE SWAP2 DUP2 MSTORE SWAP2 SLOAD DUP2 MLOAD SWAP1 DUP2 MSTORE SWAP2 DUP3 ADD DUP9 SWAP1 MSTORE DUP2 ADD DUP7 SWAP1 MSTORE PUSH1 0x1 PUSH1 0x1 PUSH1 0xF8 SHL SUB NOT DUP6 AND PUSH1 0x60 DUP3 ADD MSTORE PUSH1 0x80 DUP2 ADD DUP5 SWAP1 MSTORE PUSH32 0x8F6937EDCD05CE1C1912E225EC700CB996D92333E3B1631CE16E703FC6B8E77A SWAP1 PUSH1 0xA0 ADD PUSH2 0xBD3 JUMP JUMPDEST PUSH0 DUP1 SLOAD PUSH1 0x40 MLOAD PUSH4 0x1D6253A3 PUSH1 0xE2 SHL DUP2 MSTORE CALLER PUSH1 0x4 DUP3 ADD MSTORE DUP3 SWAP2 DUP3 SWAP2 DUP3 SWAP2 DUP3 SWAP2 DUP3 SWAP2 PUSH1 0x1 PUSH1 0x1 PUSH1 0xA0 SHL SUB AND SWAP1 PUSH4 0x75894E8C SWAP1 PUSH1 0x24 ADD PUSH1 0x40 DUP1 MLOAD DUP1 DUP4 SUB DUP2 PUSH0 DUP8 GAS CALL ISZERO DUP1 ISZERO PUSH2 0xF44 JUMPI RETURNDATASIZE PUSH0 DUP1 RETURNDATACOPY RETURNDATASIZE PUSH0 REVERT JUMPDEST POP POP POP POP PUSH1 0x40 MLOAD RETURNDATASIZE PUSH1 0x1F NOT PUSH1 0x1F DUP3 ADD AND DUP3 ADD DUP1 PUSH1 0x40 MSTORE POP DUP2 ADD SWAP1 PUSH2 0xF68 SWAP2 SWAP1 PUSH2 0x229C JUMP JUMPDEST SWAP1 SWAP3 POP SWAP1 POP PUSH1 0x3 DUP3 PUSH1 0x4 DUP2 GT ISZERO PUSH2 0xF81 JUMPI PUSH2 0xF81 PUSH2 0x1DC5 JUMP JUMPDEST EQ DUP1 ISZERO PUSH2 0xF8B JUMPI POP DUP1 JUMPDEST PUSH2 0xFEB JUMPI PUSH1 0x40 MLOAD PUSH3 0x461BCD PUSH1 0xE5 SHL DUP2 MSTORE PUSH1 0x20 PUSH1 0x4 DUP3 ADD MSTORE PUSH1 0x2B PUSH1 0x24 DUP3 ADD MSTORE PUSH32 0x4F6E6C7920746865204461746120416E616C7973742063616E2072756E207468 PUSH1 0x44 DUP3 ADD MSTORE PUSH11 0x34B990333AB731BA34B7B7 PUSH1 0xA9 SHL PUSH1 0x64 DUP3 ADD MSTORE PUSH1 0x84 ADD PUSH2 0x58E JUMP JUMPDEST PUSH1 0x1 DUP9 LT ISZERO DUP1 ISZERO PUSH2 0xFFE JUMPI POP PUSH1 0x2 SLOAD DUP9 GT ISZERO JUMPDEST PUSH2 0x101A JUMPI PUSH1 0x40 MLOAD PUSH3 0x461BCD PUSH1 0xE5 SHL DUP2 MSTORE PUSH1 0x4 ADD PUSH2 0x58E SWAP1 PUSH2 0x231B JUMP JUMPDEST PUSH1 0x1 DUP8 LT ISZERO DUP1 ISZERO PUSH2 0x1038 JUMPI POP PUSH0 DUP9 DUP2 MSTORE PUSH1 0x7 PUSH1 0x20 MSTORE PUSH1 0x40 SWAP1 KECCAK256 SLOAD DUP8 GT ISZERO JUMPDEST PUSH2 0x1054 JUMPI PUSH1 0x40 MLOAD PUSH3 0x461BCD PUSH1 0xE5 SHL DUP2 MSTORE PUSH1 0x4 ADD PUSH2 0x58E SWAP1 PUSH2 0x244E JUMP JUMPDEST PUSH0 DUP9 DUP2 MSTORE PUSH1 0x6 PUSH1 0x20 SWAP1 DUP2 MSTORE PUSH1 0x40 DUP1 DUP4 KECCAK256 DUP11 DUP5 MSTORE DUP3 MSTORE DUP1 DUP4 KECCAK256 DUP2 MLOAD PUSH1 0xC0 DUP2 ADD DUP4 MSTORE DUP2 SLOAD DUP2 MSTORE PUSH1 0x1 DUP3 ADD SLOAD SWAP4 DUP2 ADD SWAP4 SWAP1 SWAP4 MSTORE PUSH1 0x2 DUP2 ADD SLOAD SWAP2 DUP4 ADD SWAP2 SWAP1 SWAP2 MSTORE PUSH1 0x3 DUP1 DUP3 ADD SLOAD PUSH1 0xF8 SHL PUSH1 0x1 PUSH1 0x1 PUSH1 0xF8 SHL SUB NOT AND PUSH1 0x60 DUP5 ADD MSTORE PUSH1 0x4 DUP3 ADD SLOAD PUSH1 0x80 DUP5 ADD MSTORE PUSH1 0x5 DUP3 ADD SLOAD PUSH1 0xA0 DUP5 ADD SWAP2 PUSH1 0xFF SWAP1 SWAP2 AND SWAP1 DUP2 GT ISZERO PUSH2 0x10D1 JUMPI PUSH2 0x10D1 PUSH2 0x1DC5 JUMP JUMPDEST PUSH1 0x3 DUP2 GT ISZERO PUSH2 0x10E2 JUMPI PUSH2 0x10E2 PUSH2 0x1DC5 JUMP JUMPDEST SWAP1 MSTORE POP PUSH0 SWAP10 DUP11 MSTORE PUSH1 0x4 PUSH1 0x20 DUP2 DUP2 MSTORE PUSH1 0x40 SWAP12 DUP13 SWAP1 KECCAK256 DUP13 MLOAD PUSH1 0xC0 DUP2 ADD DUP15 MSTORE DUP2 SLOAD PUSH1 0x1 PUSH1 0x1 PUSH1 0xA0 SHL SUB AND DUP2 MSTORE PUSH1 0x1 DUP3 ADD SLOAD DUP2 DUP5 ADD MSTORE PUSH1 0x2 DUP3 ADD SLOAD DUP2 DUP16 ADD MSTORE PUSH1 0x3 DUP3 ADD SLOAD PUSH1 0x60 DUP1 DUP4 ADD DUP3 SWAP1 MSTORE SWAP3 SWAP1 SWAP5 ADD SLOAD PUSH1 0xFF DUP1 DUP3 AND ISZERO ISZERO PUSH1 0x80 DUP5 ADD MSTORE PUSH2 0x100 SWAP1 SWAP2 DIV AND ISZERO ISZERO PUSH1 0xA0 SWAP1 SWAP2 ADD MSTORE SWAP1 DUP4 ADD MLOAD SWAP12 DUP4 ADD MLOAD SWAP3 ADD MLOAD SWAP11 SWAP12 SWAP2 SWAP11 SWAP10 POP SWAP8 POP SWAP6 POP POP POP POP POP POP JUMP JUMPDEST PUSH0 DUP1 SLOAD PUSH1 0x40 MLOAD PUSH4 0x1D6253A3 PUSH1 0xE2 SHL DUP2 MSTORE CALLER PUSH1 0x4 DUP3 ADD MSTORE DUP3 SWAP2 PUSH1 0x1 PUSH1 0x1 PUSH1 0xA0 SHL SUB AND SWAP1 PUSH4 0x75894E8C SWAP1 PUSH1 0x24 ADD PUSH1 0x40 DUP1 MLOAD DUP1 DUP4 SUB DUP2 PUSH0 DUP8 GAS CALL ISZERO DUP1 ISZERO PUSH2 0x11AC JUMPI RETURNDATASIZE PUSH0 DUP1 RETURNDATACOPY RETURNDATASIZE PUSH0 REVERT JUMPDEST POP POP POP POP PUSH1 0x40 MLOAD RETURNDATASIZE PUSH1 0x1F NOT PUSH1 0x1F DUP3 ADD AND DUP3 ADD DUP1 PUSH1 0x40 MSTORE POP DUP2 ADD SWAP1 PUSH2 0x11D0 SWAP2 SWAP1 PUSH2 0x229C JUMP JUMPDEST SWAP1 SWAP3 POP SWAP1 POP PUSH1 0x1 DUP3 PUSH1 0x4 DUP2 GT ISZERO PUSH2 0x11E9 JUMPI PUSH2 0x11E9 PUSH2 0x1DC5 JUMP JUMPDEST EQ DUP1 ISZERO PUSH2 0x11F3 JUMPI POP DUP1 JUMPDEST PUSH2 0x1256 JUMPI PUSH1 0x40 MLOAD PUSH3 0x461BCD PUSH1 0xE5 SHL DUP2 MSTORE PUSH1 0x20 PUSH1 0x4 DUP3 ADD MSTORE PUSH1 0x2E PUSH1 0x24 DUP3 ADD MSTORE PUSH32 0x4F6E6C7920746865204C696169736F6E204F6666696365722063616E2072756E PUSH1 0x44 DUP3 ADD MSTORE PUSH14 0x103A3434B990333AB731BA34B7B7 PUSH1 0x91 SHL PUSH1 0x64 DUP3 ADD MSTORE PUSH1 0x84 ADD PUSH2 0x58E JUMP JUMPDEST PUSH1 0x2 DUP1 SLOAD SWAP1 PUSH0 PUSH2 0x1265 DUP4 PUSH2 0x248C JUMP JUMPDEST SWAP1 SWAP2 SSTORE POP POP PUSH1 0x40 DUP1 MLOAD PUSH1 0xC0 DUP2 ADD DUP3 MSTORE CALLER DUP2 MSTORE TIMESTAMP PUSH1 0x20 DUP3 ADD MSTORE SWAP1 DUP2 ADD DUP5 SWAP1 MSTORE PUSH1 0x60 DUP2 ADD PUSH2 0x1290 DUP7 PUSH2 0x24A4 JUMP JUMPDEST DUP2 MSTORE PUSH0 PUSH1 0x20 DUP1 DUP4 ADD DUP3 SWAP1 MSTORE PUSH1 0x40 SWAP3 DUP4 ADD DUP3 SWAP1 MSTORE PUSH1 0x2 DUP1 SLOAD DUP4 MSTORE PUSH1 0x4 DUP1 DUP4 MSTORE DUP5 DUP5 KECCAK256 DUP7 MLOAD DUP2 SLOAD PUSH1 0x1 PUSH1 0x1 PUSH1 0xA0 SHL SUB SWAP1 SWAP2 AND PUSH1 0x1 PUSH1 0x1 PUSH1 0xA0 SHL SUB NOT SWAP1 SWAP2 AND OR DUP2 SSTORE SWAP3 DUP7 ADD MLOAD PUSH1 0x1 DUP5 ADD SSTORE SWAP4 DUP6 ADD MLOAD SWAP1 DUP3 ADD SSTORE PUSH1 0x60 DUP5 ADD MLOAD PUSH1 0x3 DUP1 DUP4 ADD SWAP2 SWAP1 SWAP2 SSTORE PUSH1 0x80 DUP6 ADD MLOAD SWAP2 SWAP1 SWAP4 ADD DUP1 SLOAD PUSH1 0xA0 SWAP1 SWAP6 ADD MLOAD ISZERO ISZERO PUSH2 0x100 MUL PUSH2 0xFF00 NOT SWAP3 ISZERO ISZERO SWAP3 SWAP1 SWAP3 AND PUSH2 0xFFFF NOT SWAP1 SWAP6 AND SWAP5 SWAP1 SWAP5 OR OR SWAP1 SWAP3 SSTORE DUP1 SLOAD DUP6 SWAP3 SWAP1 PUSH2 0x132F SWAP1 DUP5 SWAP1 PUSH2 0x24C7 JUMP JUMPDEST SWAP1 SWAP2 SSTORE POP POP PUSH1 0x2 SLOAD PUSH32 0x681F3195132986285E497B66D82A1D87DEE04FE482A1E74020677B543E3F7C40 CALLER TIMESTAMP PUSH2 0x1363 DUP9 PUSH2 0x24A4 JUMP JUMPDEST PUSH1 0x40 DUP1 MLOAD PUSH1 0x1 PUSH1 0x1 PUSH1 0xA0 SHL SUB SWAP1 SWAP5 AND DUP5 MSTORE PUSH1 0x20 DUP5 ADD SWAP3 SWAP1 SWAP3 MSTORE SWAP1 DUP3 ADD MSTORE PUSH1 0x60 ADD PUSH2 0x6AF JUMP JUMPDEST PUSH0 DUP1 SLOAD PUSH1 0x40 MLOAD PUSH4 0x1D6253A3 PUSH1 0xE2 SHL DUP2 MSTORE CALLER PUSH1 0x4 DUP3 ADD MSTORE DUP3 SWAP2 PUSH1 0x1 PUSH1 0x1 PUSH1 0xA0 SHL SUB AND SWAP1 PUSH4 0x75894E8C SWAP1 PUSH1 0x24 ADD PUSH1 0x40 DUP1 MLOAD DUP1 DUP4 SUB DUP2 PUSH0 DUP8 GAS CALL ISZERO DUP1 ISZERO PUSH2 0x13CE JUMPI RETURNDATASIZE PUSH0 DUP1 RETURNDATACOPY RETURNDATASIZE PUSH0 REVERT JUMPDEST POP POP POP POP PUSH1 0x40 MLOAD RETURNDATASIZE PUSH1 0x1F NOT PUSH1 0x1F DUP3 ADD AND DUP3 ADD DUP1 PUSH1 0x40 MSTORE POP DUP2 ADD SWAP1 PUSH2 0x13F2 SWAP2 SWAP1 PUSH2 0x229C JUMP JUMPDEST SWAP1 SWAP3 POP SWAP1 POP PUSH0 DUP3 PUSH1 0x4 DUP2 GT ISZERO PUSH2 0x140A JUMPI PUSH2 0x140A PUSH2 0x1DC5 JUMP JUMPDEST EQ DUP1 ISZERO PUSH2 0x1414 JUMPI POP DUP1 JUMPDEST PUSH2 0x1430 JUMPI PUSH1 0x40 MLOAD PUSH3 0x461BCD PUSH1 0xE5 SHL DUP2 MSTORE PUSH1 0x4 ADD PUSH2 0x58E SWAP1 PUSH2 0x24E0 JUMP JUMPDEST POP POP PUSH1 0x1 DUP1 SLOAD PUSH1 0x1 PUSH1 0x1 PUSH1 0xA0 SHL SUB NOT AND PUSH1 0x1 PUSH1 0x1 PUSH1 0xA0 SHL SUB SWAP3 SWAP1 SWAP3 AND SWAP2 SWAP1 SWAP2 OR SWAP1 SSTORE JUMP JUMPDEST PUSH0 DUP1 SLOAD PUSH1 0x40 MLOAD PUSH4 0x1D6253A3 PUSH1 0xE2 SHL DUP2 MSTORE CALLER PUSH1 0x4 DUP3 ADD MSTORE DUP5 SWAP3 SWAP2 DUP3 SWAP2 PUSH1 0x1 PUSH1 0x1 PUSH1 0xA0 SHL SUB SWAP1 SWAP2 AND SWAP1 PUSH4 0x75894E8C SWAP1 PUSH1 0x24 ADD PUSH1 0x40 DUP1 MLOAD DUP1 DUP4 SUB DUP2 PUSH0 DUP8 GAS CALL ISZERO DUP1 ISZERO PUSH2 0x149F JUMPI RETURNDATASIZE PUSH0 DUP1 RETURNDATACOPY RETURNDATASIZE PUSH0 REVERT JUMPDEST POP POP POP POP PUSH1 0x40 MLOAD RETURNDATASIZE PUSH1 0x1F NOT PUSH1 0x1F DUP3 ADD AND DUP3 ADD DUP1 PUSH1 0x40 MSTORE POP DUP2 ADD SWAP1 PUSH2 0x14C3 SWAP2 SWAP1 PUSH2 0x229C JUMP JUMPDEST SWAP1 SWAP3 POP SWAP1 POP PUSH1 0x4 DUP3 PUSH1 0x4 DUP2 GT ISZERO PUSH2 0x14DC JUMPI PUSH2 0x14DC PUSH2 0x1DC5 JUMP JUMPDEST EQ DUP1 ISZERO PUSH2 0x14E6 JUMPI POP DUP1 JUMPDEST PUSH2 0x1502 JUMPI PUSH1 0x40 MLOAD PUSH3 0x461BCD PUSH1 0xE5 SHL DUP2 MSTORE PUSH1 0x4 ADD PUSH2 0x58E SWAP1 PUSH2 0x23A4 JUMP JUMPDEST PUSH0 DUP4 DUP2 MSTORE PUSH1 0x8 PUSH1 0x20 MSTORE PUSH1 0x40 SWAP1 KECCAK256 SLOAD PUSH1 0x1 PUSH1 0x1 PUSH1 0xA0 SHL SUB AND CALLER EQ PUSH2 0x1537 JUMPI PUSH1 0x40 MLOAD PUSH3 0x461BCD PUSH1 0xE5 SHL DUP2 MSTORE PUSH1 0x4 ADD PUSH2 0x58E SWAP1 PUSH2 0x23F1 JUMP JUMPDEST PUSH0 DUP6 DUP2 MSTORE PUSH1 0x8 PUSH1 0x20 SWAP1 DUP2 MSTORE PUSH1 0x40 DUP1 DUP4 KECCAK256 DUP2 MLOAD PUSH1 0xC0 DUP2 ADD DUP4 MSTORE DUP2 SLOAD PUSH1 0x1 PUSH1 0x1 PUSH1 0xA0 SHL SUB AND DUP2 MSTORE PUSH1 0x1 DUP3 ADD SLOAD SWAP4 DUP2 ADD SWAP4 SWAP1 SWAP4 MSTORE PUSH1 0x2 DUP2 ADD SLOAD SWAP2 DUP4 ADD SWAP2 SWAP1 SWAP2 MSTORE PUSH1 0x3 DUP1 DUP3 ADD SLOAD PUSH1 0x60 DUP5 ADD MSTORE PUSH1 0x4 DUP3 ADD SLOAD PUSH1 0x80 DUP5 ADD MSTORE PUSH1 0x5 DUP3 ADD SLOAD PUSH1 0xA0 DUP5 ADD SWAP2 PUSH1 0xFF SWAP1 SWAP2 AND SWAP1 DUP2 GT ISZERO PUSH2 0x15A8 JUMPI PUSH2 0x15A8 PUSH2 0x1DC5 JUMP JUMPDEST PUSH1 0x3 DUP2 GT ISZERO PUSH2 0x15B9 JUMPI PUSH2 0x15B9 PUSH2 0x1DC5 JUMP JUMPDEST SWAP1 MSTORE POP SWAP1 POP PUSH1 0x1 DUP8 LT DUP1 ISZERO SWAP1 PUSH2 0x15D1 JUMPI POP PUSH1 0x2 SLOAD DUP8 GT ISZERO JUMPDEST PUSH2 0x15ED JUMPI PUSH1 0x40 MLOAD PUSH3 0x461BCD PUSH1 0xE5 SHL DUP2 MSTORE PUSH1 0x4 ADD PUSH2 0x58E SWAP1 PUSH2 0x231B JUMP JUMPDEST PUSH1 0x1 DUP7 LT ISZERO DUP1 ISZERO PUSH2 0x160B JUMPI POP PUSH0 DUP8 DUP2 MSTORE PUSH1 0x7 PUSH1 0x20 MSTORE PUSH1 0x40 SWAP1 KECCAK256 SLOAD DUP7 GT ISZERO JUMPDEST PUSH2 0x1627 JUMPI PUSH1 0x40 MLOAD PUSH3 0x461BCD PUSH1 0xE5 SHL DUP2 MSTORE PUSH1 0x4 ADD PUSH2 0x58E SWAP1 PUSH2 0x244E JUMP JUMPDEST PUSH1 0x1 DUP2 PUSH1 0xA0 ADD MLOAD PUSH1 0x3 DUP2 GT ISZERO PUSH2 0x163F JUMPI PUSH2 0x163F PUSH2 0x1DC5 JUMP JUMPDEST EQ PUSH2 0x169C JUMPI PUSH1 0x40 MLOAD PUSH3 0x461BCD PUSH1 0xE5 SHL DUP2 MSTORE PUSH1 0x20 PUSH1 0x4 DUP3 ADD MSTORE PUSH1 0x27 PUSH1 0x24 DUP3 ADD MSTORE PUSH32 0x54686973206368696C64206973206E6F7420726561647920666F722072656D65 PUSH1 0x44 DUP3 ADD MSTORE PUSH7 0x3234B0BA34B7B7 PUSH1 0xC9 SHL PUSH1 0x64 DUP3 ADD MSTORE PUSH1 0x84 ADD PUSH2 0x58E JUMP JUMPDEST PUSH0 DUP7 DUP2 MSTORE PUSH1 0x8 PUSH1 0x20 MSTORE PUSH1 0x40 SWAP1 KECCAK256 PUSH1 0x5 DUP2 ADD DUP1 SLOAD PUSH1 0xFF NOT AND PUSH1 0x2 SWAP1 DUP2 OR SWAP1 SWAP2 SSTORE TIMESTAMP SWAP2 ADD SSTORE PUSH2 0x16CA DUP6 PUSH1 0x1 PUSH2 0x2533 JUMP JUMPDEST PUSH2 0x16D4 SWAP1 TIMESTAMP PUSH2 0x24C7 JUMP JUMPDEST PUSH0 DUP8 DUP2 MSTORE PUSH1 0x8 PUSH1 0x20 MSTORE PUSH1 0x40 SWAP1 KECCAK256 PUSH1 0x3 DUP2 ADD SWAP2 SWAP1 SWAP2 SSTORE TIMESTAMP PUSH1 0x4 SWAP1 SWAP2 ADD DUP2 SWAP1 SSTORE PUSH32 0xE8C0A5C01EA0A1DA185A4990B289AA6B4DC5FD0D2B3D68BE0BB0B32EBDE6A2A5 SWAP1 DUP8 SWAP1 PUSH2 0x1721 DUP9 PUSH1 0x1 PUSH2 0x2533 JUMP JUMPDEST PUSH2 0x172B SWAP1 TIMESTAMP PUSH2 0x24C7 JUMP JUMPDEST PUSH1 0x40 DUP1 MLOAD SWAP4 DUP5 MSTORE PUSH1 0x20 DUP5 ADD SWAP3 SWAP1 SWAP3 MSTORE SWAP1 DUP3 ADD MSTORE PUSH1 0x60 ADD PUSH1 0x40 MLOAD DUP1 SWAP2 SUB SWAP1 LOG1 POP POP POP POP POP POP POP JUMP JUMPDEST PUSH0 DUP1 SLOAD PUSH1 0x40 MLOAD PUSH4 0x1D6253A3 PUSH1 0xE2 SHL DUP2 MSTORE CALLER PUSH1 0x4 DUP3 ADD MSTORE DUP3 SWAP2 DUP3 SWAP2 DUP3 SWAP2 DUP3 SWAP2 DUP3 SWAP2 PUSH1 0x1 PUSH1 0x1 PUSH1 0xA0 SHL SUB AND SWAP1 PUSH4 0x75894E8C SWAP1 PUSH1 0x24 ADD PUSH1 0x40 DUP1 MLOAD DUP1 DUP4 SUB DUP2 PUSH0 DUP8 GAS CALL ISZERO DUP1 ISZERO PUSH2 0x17A0 JUMPI RETURNDATASIZE PUSH0 DUP1 RETURNDATACOPY RETURNDATASIZE PUSH0 REVERT JUMPDEST POP POP POP POP PUSH1 0x40 MLOAD RETURNDATASIZE PUSH1 0x1F NOT PUSH1 0x1F DUP3 ADD AND DUP3 ADD DUP1 PUSH1 0x40 MSTORE POP DUP2 ADD SWAP1 PUSH2 0x17C4 SWAP2 SWAP1 PUSH2 0x229C JUMP JUMPDEST SWAP1 SWAP3 POP SWAP1 POP PUSH0 DUP3 PUSH1 0x4 DUP2 GT ISZERO PUSH2 0x17DC JUMPI PUSH2 0x17DC PUSH2 0x1DC5 JUMP JUMPDEST EQ DUP1 ISZERO PUSH2 0x17E6 JUMPI POP DUP1 JUMPDEST PUSH2 0x1802 JUMPI PUSH1 0x40 MLOAD PUSH3 0x461BCD PUSH1 0xE5 SHL DUP2 MSTORE PUSH1 0x4 ADD PUSH2 0x58E SWAP1 PUSH2 0x24E0 JUMP JUMPDEST PUSH0 DUP8 DUP2 MSTORE PUSH1 0x8 PUSH1 0x20 SWAP1 DUP2 MSTORE PUSH1 0x40 DUP1 DUP4 KECCAK256 DUP2 MLOAD PUSH1 0xC0 DUP2 ADD DUP4 MSTORE DUP2 SLOAD PUSH1 0x1 PUSH1 0x1 PUSH1 0xA0 SHL SUB AND DUP2 MSTORE PUSH1 0x1 DUP3 ADD SLOAD SWAP4 DUP2 ADD SWAP4 SWAP1 SWAP4 MSTORE PUSH1 0x2 DUP2 ADD SLOAD SWAP2 DUP4 ADD SWAP2 SWAP1 SWAP2 MSTORE PUSH1 0x3 DUP1 DUP3 ADD SLOAD PUSH1 0x60 DUP5 ADD MSTORE PUSH1 0x4 DUP3 ADD SLOAD PUSH1 0x80 DUP5 ADD MSTORE PUSH1 0x5 DUP3 ADD SLOAD PUSH1 0xA0 DUP5 ADD SWAP2 PUSH1 0xFF SWAP1 SWAP2 AND SWAP1 DUP2 GT ISZERO PUSH2 0x1873 JUMPI PUSH2 0x1873 PUSH2 0x1DC5 JUMP JUMPDEST PUSH1 0x3 DUP2 GT ISZERO PUSH2 0x1884 JUMPI PUSH2 0x1884 PUSH2 0x1DC5 JUMP JUMPDEST SWAP1 MSTORE POP SWAP1 POP PUSH1 0x1 DUP10 LT DUP1 ISZERO SWAP1 PUSH2 0x189C JUMPI POP PUSH1 0x2 SLOAD DUP10 GT ISZERO JUMPDEST PUSH2 0x18B8 JUMPI PUSH1 0x40 MLOAD PUSH3 0x461BCD PUSH1 0xE5 SHL DUP2 MSTORE PUSH1 0x4 ADD PUSH2 0x58E SWAP1 PUSH2 0x231B JUMP JUMPDEST PUSH1 0x1 DUP9 LT ISZERO DUP1 ISZERO PUSH2 0x18D6 JUMPI POP PUSH0 DUP10 DUP2 MSTORE PUSH1 0x7 PUSH1 0x20 MSTORE PUSH1 0x40 SWAP1 KECCAK256 SLOAD DUP9 GT ISZERO JUMPDEST PUSH2 0x18F2 JUMPI PUSH1 0x40 MLOAD PUSH3 0x461BCD PUSH1 0xE5 SHL DUP2 MSTORE PUSH1 0x4 ADD PUSH2 0x58E SWAP1 PUSH2 0x244E JUMP JUMPDEST PUSH1 0xA0 DUP2 ADD MLOAD PUSH1 0x80 DUP3 ADD MLOAD PUSH1 0x40 DUP4 ADD MLOAD PUSH1 0x60 SWAP1 SWAP4 ADD MLOAD SWAP2 SWAP12 SWAP1 SWAP11 POP SWAP2 SWAP9 POP SWAP7 POP SWAP5 POP POP POP POP POP JUMP JUMPDEST PUSH0 DUP1 SLOAD PUSH1 0x40 MLOAD PUSH4 0x1D6253A3 PUSH1 0xE2 SHL DUP2 MSTORE CALLER PUSH1 0x4 DUP3 ADD MSTORE DUP3 SWAP2 PUSH1 0x1 PUSH1 0x1 PUSH1 0xA0 SHL SUB AND SWAP1 PUSH4 0x75894E8C SWAP1 PUSH1 0x24 ADD PUSH1 0x40 DUP1 MLOAD DUP1 DUP4 SUB DUP2 PUSH0 DUP8 GAS CALL ISZERO DUP1 ISZERO PUSH2 0x195F JUMPI RETURNDATASIZE PUSH0 DUP1 RETURNDATACOPY RETURNDATASIZE PUSH0 REVERT JUMPDEST POP POP POP POP PUSH1 0x40 MLOAD RETURNDATASIZE PUSH1 0x1F NOT PUSH1 0x1F DUP3 ADD AND DUP3 ADD DUP1 PUSH1 0x40 MSTORE POP DUP2 ADD SWAP1 PUSH2 0x1983 SWAP2 SWAP1 PUSH2 0x229C JUMP JUMPDEST SWAP1 SWAP3 POP SWAP1 POP PUSH0 DUP3 PUSH1 0x4 DUP2 GT ISZERO PUSH2 0x199B JUMPI PUSH2 0x199B PUSH2 0x1DC5 JUMP JUMPDEST EQ DUP1 ISZERO PUSH2 0x19A5 JUMPI POP DUP1 JUMPDEST PUSH2 0x19C1 JUMPI PUSH1 0x40 MLOAD PUSH3 0x461BCD PUSH1 0xE5 SHL DUP2 MSTORE PUSH1 0x4 ADD PUSH2 0x58E SWAP1 PUSH2 0x24E0 JUMP JUMPDEST PUSH1 0x1 PUSH1 0x1 PUSH1 0xA0 SHL SUB DUP4 AND PUSH0 DUP2 DUP2 MSTORE PUSH1 0x9 PUSH1 0x20 SWAP1 DUP2 MSTORE PUSH1 0x40 SWAP2 DUP3 SWAP1 KECCAK256 DUP1 SLOAD PUSH1 0xFF NOT AND SWAP1 SSTORE DUP2 MLOAD CALLER DUP2 MSTORE SWAP1 DUP2 ADD SWAP3 SWAP1 SWAP3 MSTORE TIMESTAMP DUP3 DUP3 ADD MSTORE MLOAD PUSH32 0x6F6A404FFD2CEA4713256A4FD9CE99C8CF8CF32D85C2BB8061D1603FF57D50C3 SWAP2 DUP2 SWAP1 SUB PUSH1 0x60 ADD SWAP1 LOG1 POP POP POP POP JUMP JUMPDEST PUSH0 DUP1 SLOAD PUSH1 0x40 MLOAD PUSH4 0x1D6253A3 PUSH1 0xE2 SHL DUP2 MSTORE CALLER PUSH1 0x4 DUP3 ADD MSTORE DUP3 SWAP2 PUSH1 0x1 PUSH1 0x1 PUSH1 0xA0 SHL SUB AND SWAP1 PUSH4 0x75894E8C SWAP1 PUSH1 0x24 ADD PUSH1 0x40 DUP1 MLOAD DUP1 DUP4 SUB DUP2 PUSH0 DUP8 GAS CALL ISZERO DUP1 ISZERO PUSH2 0x1A6C JUMPI RETURNDATASIZE PUSH0 DUP1 RETURNDATACOPY RETURNDATASIZE PUSH0 REVERT JUMPDEST POP POP POP POP PUSH1 0x40 MLOAD RETURNDATASIZE PUSH1 0x1F NOT PUSH1 0x1F DUP3 ADD AND DUP3 ADD DUP1 PUSH1 0x40 MSTORE POP DUP2 ADD SWAP1 PUSH2 0x1A90 SWAP2 SWAP1 PUSH2 0x229C JUMP JUMPDEST SWAP1 SWAP3 POP SWAP1 POP PUSH0 DUP3 PUSH1 0x4 DUP2 GT ISZERO PUSH2 0x1AA8 JUMPI PUSH2 0x1AA8 PUSH2 0x1DC5 JUMP JUMPDEST EQ DUP1 ISZERO PUSH2 0x1AB2 JUMPI POP DUP1 JUMPDEST PUSH2 0x1ACE JUMPI PUSH1 0x40 MLOAD PUSH3 0x461BCD PUSH1 0xE5 SHL DUP2 MSTORE PUSH1 0x4 ADD PUSH2 0x58E SWAP1 PUSH2 0x24E0 JUMP JUMPDEST PUSH0 DUP6 DUP2 MSTORE PUSH1 0x6 PUSH1 0x20 SWAP1 DUP2 MSTORE PUSH1 0x40 DUP1 DUP4 KECCAK256 DUP8 DUP5 MSTORE DUP3 MSTORE DUP1 DUP4 KECCAK256 DUP2 MLOAD PUSH1 0xC0 DUP2 ADD DUP4 MSTORE DUP2 SLOAD DUP2 MSTORE PUSH1 0x1 DUP3 ADD SLOAD SWAP4 DUP2 ADD SWAP4 SWAP1 SWAP4 MSTORE PUSH1 0x2 DUP2 ADD SLOAD SWAP2 DUP4 ADD SWAP2 SWAP1 SWAP2 MSTORE PUSH1 0x3 DUP1 DUP3 ADD SLOAD PUSH1 0xF8 SHL PUSH1 0x1 PUSH1 0x1 PUSH1 0xF8 SHL SUB NOT AND PUSH1 0x60 DUP5 ADD MSTORE PUSH1 0x4 DUP3 ADD SLOAD PUSH1 0x80 DUP5 ADD MSTORE PUSH1 0x5 DUP3 ADD SLOAD PUSH1 0xA0 DUP5 ADD SWAP2 PUSH1 0xFF SWAP1 SWAP2 AND SWAP1 DUP2 GT ISZERO PUSH2 0x1B4B JUMPI PUSH2 0x1B4B PUSH2 0x1DC5 JUMP JUMPDEST PUSH1 0x3 DUP2 GT ISZERO PUSH2 0x1B5C JUMPI PUSH2 0x1B5C PUSH2 0x1DC5 JUMP JUMPDEST SWAP1 MSTORE POP SWAP1 POP PUSH0 DUP2 PUSH1 0xA0 ADD MLOAD PUSH1 0x3 DUP2 GT ISZERO PUSH2 0x1B78 JUMPI PUSH2 0x1B78 PUSH2 0x1DC5 JUMP JUMPDEST EQ PUSH2 0x1BF9 JUMPI PUSH1 0x40 MLOAD PUSH3 0x461BCD PUSH1 0xE5 SHL DUP2 MSTORE PUSH1 0x20 PUSH1 0x4 DUP3 ADD MSTORE PUSH1 0x44 PUSH1 0x24 DUP3 ADD DUP2 SWAP1 MSTORE PUSH32 0x54686973206368696C6420496420646F6573206E6F74206578697374206F7220 SWAP1 DUP3 ADD MSTORE PUSH32 0x68617320616C7265616479206265656E2061737369676E656420612067756172 PUSH1 0x64 DUP3 ADD MSTORE PUSH4 0x3234B0B7 PUSH1 0xE1 SHL PUSH1 0x84 DUP3 ADD MSTORE PUSH1 0xA4 ADD PUSH2 0x58E JUMP JUMPDEST PUSH1 0x1 DUP7 LT ISZERO DUP1 ISZERO PUSH2 0x1C0C JUMPI POP PUSH1 0x2 SLOAD DUP7 GT ISZERO JUMPDEST PUSH2 0x1C28 JUMPI PUSH1 0x40 MLOAD PUSH3 0x461BCD PUSH1 0xE5 SHL DUP2 MSTORE PUSH1 0x4 ADD PUSH2 0x58E SWAP1 PUSH2 0x231B JUMP JUMPDEST PUSH1 0x1 DUP6 LT ISZERO DUP1 ISZERO PUSH2 0x1C46 JUMPI POP PUSH0 DUP7 DUP2 MSTORE PUSH1 0x7 PUSH1 0x20 MSTORE PUSH1 0x40 SWAP1 KECCAK256 SLOAD DUP6 GT ISZERO JUMPDEST PUSH2 0x1C62 JUMPI PUSH1 0x40 MLOAD PUSH3 0x461BCD PUSH1 0xE5 SHL DUP2 MSTORE PUSH1 0x4 ADD PUSH2 0x58E SWAP1 PUSH2 0x244E JUMP JUMPDEST PUSH0 DUP6 DUP2 MSTORE PUSH1 0x8 PUSH1 0x20 MSTORE PUSH1 0x40 SWAP1 KECCAK256 DUP1 SLOAD PUSH1 0x1 PUSH1 0x1 PUSH1 0xA0 SHL SUB NOT AND PUSH1 0x1 PUSH1 0x1 PUSH1 0xA0 SHL SUB DUP7 AND OR DUP2 SSTORE PUSH1 0x1 DUP1 DUP3 ADD DUP8 SWAP1 SSTORE PUSH1 0x5 SWAP1 SWAP2 ADD DUP1 SLOAD PUSH1 0xFF NOT AND DUP3 DUP1 MUL OR SWAP1 SSTORE POP PUSH1 0x40 DUP1 MLOAD DUP7 DUP2 MSTORE PUSH1 0x20 DUP2 ADD DUP9 SWAP1 MSTORE PUSH1 0x1 PUSH1 0x1 PUSH1 0xA0 SHL SUB DUP7 AND SWAP2 DUP2 ADD SWAP2 SWAP1 SWAP2 MSTORE PUSH32 0xE1A03807FF7B7D8AC4C42CF3FE3905D10B2B30935D18974726482DB3BF232E36 SWAP1 PUSH1 0x60 ADD PUSH2 0xBD3 JUMP JUMPDEST PUSH1 0xA PUSH1 0x20 SWAP1 DUP2 MSTORE PUSH0 SWAP2 DUP3 MSTORE PUSH1 0x40 SWAP2 DUP3 SWAP1 KECCAK256 DUP3 MLOAD DUP1 DUP5 ADD DUP5 MSTORE DUP2 SLOAD DUP2 MSTORE PUSH1 0x1 DUP3 ADD SLOAD SWAP3 DUP2 ADD SWAP3 SWAP1 SWAP3 MSTORE DUP3 MLOAD PUSH1 0x80 DUP2 ADD DUP1 DUP6 MSTORE SWAP3 SWAP4 SWAP2 SWAP3 SWAP1 SWAP2 PUSH1 0x2 DUP1 DUP6 ADD SWAP3 DUP5 SWAP3 DUP4 ADD SWAP2 DUP5 SWAP2 DUP3 DUP5 JUMPDEST DUP2 SLOAD DUP2 MSTORE PUSH1 0x20 ADD SWAP1 PUSH1 0x1 ADD SWAP1 DUP1 DUP4 GT PUSH2 0x1D32 JUMPI POP POP POP SWAP2 DUP4 MSTORE POP POP PUSH1 0x40 DUP1 MLOAD DUP1 DUP3 ADD SWAP2 DUP3 SWAP1 MSTORE PUSH1 0x20 SWAP1 SWAP3 ADD SWAP2 SWAP1 PUSH1 0x2 DUP5 DUP2 ADD SWAP2 DUP3 DUP5 JUMPDEST DUP2 SLOAD DUP2 MSTORE PUSH1 0x20 ADD SWAP1 PUSH1 0x1 ADD SWAP1 DUP1 DUP4 GT PUSH2 0x1D68 JUMPI POP POP POP SWAP2 SWAP1 SWAP3 MSTORE POP POP PUSH1 0x40 DUP1 MLOAD DUP1 DUP3 ADD SWAP1 SWAP2 MSTORE PUSH1 0x6 DUP5 ADD SLOAD DUP2 MSTORE PUSH1 0x7 SWAP1 SWAP4 ADD SLOAD PUSH1 0x20 DUP5 ADD MSTORE POP SWAP1 DUP4 JUMP JUMPDEST PUSH0 DUP1 PUSH1 0x40 DUP4 DUP6 SUB SLT ISZERO PUSH2 0x1DB6 JUMPI PUSH0 DUP1 REVERT JUMPDEST POP POP DUP1 CALLDATALOAD SWAP3 PUSH1 0x20 SWAP1 SWAP2 ADD CALLDATALOAD SWAP2 POP JUMP JUMPDEST PUSH4 0x4E487B71 PUSH1 0xE0 SHL PUSH0 MSTORE PUSH1 0x21 PUSH1 0x4 MSTORE PUSH1 0x24 PUSH0 REVERT JUMPDEST PUSH1 0x4 DUP2 LT PUSH2 0x1DF5 JUMPI PUSH4 0x4E487B71 PUSH1 0xE0 SHL PUSH0 MSTORE PUSH1 0x21 PUSH1 0x4 MSTORE PUSH1 0x24 PUSH0 REVERT JUMPDEST SWAP1 MSTORE JUMP JUMPDEST DUP7 DUP2 MSTORE PUSH1 0x20 DUP2 ADD DUP7 SWAP1 MSTORE PUSH1 0x40 DUP2 ADD DUP6 SWAP1 MSTORE PUSH1 0x1 PUSH1 0x1 PUSH1 0xF8 SHL SUB NOT DUP5 AND PUSH1 0x60 DUP3 ADD MSTORE PUSH1 0x80 DUP2 ADD DUP4 SWAP1 MSTORE PUSH1 0xC0 DUP2 ADD PUSH2 0x1E32 PUSH1 0xA0 DUP4 ADD DUP5 PUSH2 0x1DD9 JUMP JUMPDEST SWAP8 SWAP7 POP POP POP POP POP POP POP JUMP JUMPDEST DUP1 ISZERO ISZERO DUP2 EQ PUSH2 0x1E4A JUMPI PUSH0 DUP1 REVERT JUMPDEST POP JUMP JUMPDEST PUSH0 DUP1 PUSH1 0x40 DUP4 DUP6 SUB SLT ISZERO PUSH2 0x1E5E JUMPI PUSH0 DUP1 REVERT JUMPDEST DUP3 CALLDATALOAD SWAP2 POP PUSH1 0x20 DUP4 ADD CALLDATALOAD PUSH2 0x1E70 DUP2 PUSH2 0x1E3D JUMP JUMPDEST DUP1 SWAP2 POP POP SWAP3 POP SWAP3 SWAP1 POP JUMP JUMPDEST PUSH0 PUSH1 0x20 DUP3 DUP5 SUB SLT ISZERO PUSH2 0x1E8B JUMPI PUSH0 DUP1 REVERT JUMPDEST POP CALLDATALOAD SWAP2 SWAP1 POP JUMP JUMPDEST PUSH1 0x1 PUSH1 0x1 PUSH1 0xA0 SHL SUB DUP8 AND DUP2 MSTORE PUSH1 0x20 DUP2 ADD DUP7 SWAP1 MSTORE PUSH1 0x40 DUP2 ADD DUP6 SWAP1 MSTORE PUSH1 0x60 DUP2 ADD DUP5 SWAP1 MSTORE PUSH1 0x80 DUP2 ADD DUP4 SWAP1 MSTORE PUSH1 0xC0 DUP2 ADD PUSH2 0x1E32 PUSH1 0xA0 DUP4 ADD DUP5 PUSH2 0x1DD9 JUMP JUMPDEST PUSH4 0x4E487B71 PUSH1 0xE0 SHL PUSH0 MSTORE PUSH1 0x41 PUSH1 0x4 MSTORE PUSH1 0x24 PUSH0 REVERT JUMPDEST PUSH1 0x40 DUP1 MLOAD SWAP1 DUP2 ADD PUSH8 0xFFFFFFFFFFFFFFFF DUP2 GT DUP3 DUP3 LT OR ISZERO PUSH2 0x1F02 JUMPI PUSH2 0x1F02 PUSH2 0x1ECB JUMP JUMPDEST PUSH1 0x40 MSTORE SWAP1 JUMP JUMPDEST PUSH1 0x40 MLOAD PUSH1 0x1F DUP3 ADD PUSH1 0x1F NOT AND DUP2 ADD PUSH8 0xFFFFFFFFFFFFFFFF DUP2 GT DUP3 DUP3 LT OR ISZERO PUSH2 0x1F31 JUMPI PUSH2 0x1F31 PUSH2 0x1ECB JUMP JUMPDEST PUSH1 0x40 MSTORE SWAP2 SWAP1 POP JUMP JUMPDEST PUSH0 PUSH1 0x40 DUP3 DUP5 SUB SLT ISZERO PUSH2 0x1F49 JUMPI PUSH0 DUP1 REVERT JUMPDEST PUSH2 0x1F51 PUSH2 0x1EDF JUMP JUMPDEST SWAP1 POP DUP2 CALLDATALOAD DUP2 MSTORE PUSH1 0x20 DUP3 ADD CALLDATALOAD PUSH1 0x20 DUP3 ADD MSTORE SWAP3 SWAP2 POP POP JUMP JUMPDEST PUSH0 DUP3 PUSH1 0x1F DUP4 ADD SLT PUSH2 0x1F76 JUMPI PUSH0 DUP1 REVERT JUMPDEST PUSH2 0x1F7E PUSH2 0x1EDF JUMP JUMPDEST DUP1 PUSH1 0x40 DUP5 ADD DUP6 DUP2 GT ISZERO PUSH2 0x1F8F JUMPI PUSH0 DUP1 REVERT JUMPDEST DUP5 JUMPDEST DUP2 DUP2 LT ISZERO PUSH2 0x1FA9 JUMPI DUP1 CALLDATALOAD DUP5 MSTORE PUSH1 0x20 SWAP4 DUP5 ADD SWAP4 ADD PUSH2 0x1F91 JUMP JUMPDEST POP SWAP1 SWAP6 SWAP5 POP POP POP POP POP JUMP JUMPDEST PUSH0 DUP2 DUP4 SUB PUSH2 0x100 DUP2 SLT ISZERO PUSH2 0x1FC6 JUMPI PUSH0 DUP1 REVERT JUMPDEST PUSH1 0x40 MLOAD PUSH1 0x60 DUP2 ADD DUP2 DUP2 LT PUSH8 0xFFFFFFFFFFFFFFFF DUP3 GT OR ISZERO PUSH2 0x1FE9 JUMPI PUSH2 0x1FE9 PUSH2 0x1ECB JUMP JUMPDEST PUSH1 0x40 MSTORE PUSH2 0x1FF6 DUP6 DUP6 PUSH2 0x1F39 JUMP JUMPDEST DUP2 MSTORE PUSH1 0x80 PUSH1 0x3F NOT DUP4 ADD SLT ISZERO PUSH2 0x2009 JUMPI PUSH0 DUP1 REVERT JUMPDEST PUSH2 0x2011 PUSH2 0x1EDF JUMP JUMPDEST SWAP2 POP PUSH2 0x2020 DUP6 PUSH1 0x40 DUP7 ADD PUSH2 0x1F67 JUMP JUMPDEST DUP3 MSTORE PUSH2 0x202F DUP6 PUSH1 0x80 DUP7 ADD PUSH2 0x1F67 JUMP JUMPDEST PUSH1 0x20 DUP4 ADD MSTORE DUP2 PUSH1 0x20 DUP3 ADD MSTORE PUSH2 0x2047 DUP6 PUSH1 0xC0 DUP7 ADD PUSH2 0x1F39 JUMP JUMPDEST PUSH1 0x40 DUP3 ADD MSTORE SWAP5 SWAP4 POP POP POP POP JUMP JUMPDEST PUSH0 DUP1 PUSH0 DUP1 PUSH1 0x80 DUP6 DUP8 SUB SLT ISZERO PUSH2 0x2067 JUMPI PUSH0 DUP1 REVERT JUMPDEST DUP5 CALLDATALOAD SWAP4 POP PUSH1 0x20 DUP6 ADD CALLDATALOAD SWAP3 POP PUSH1 0x40 DUP6 ADD CALLDATALOAD PUSH1 0x1 PUSH1 0x1 PUSH1 0xF8 SHL SUB NOT DUP2 AND DUP2 EQ PUSH2 0x208C JUMPI PUSH0 DUP1 REVERT JUMPDEST SWAP4 SWAP7 SWAP3 SWAP6 POP SWAP3 SWAP4 PUSH1 0x60 ADD CALLDATALOAD SWAP3 POP POP JUMP JUMPDEST PUSH0 DUP1 PUSH1 0x40 DUP4 DUP6 SUB SLT ISZERO PUSH2 0x20AD JUMPI PUSH0 DUP1 REVERT JUMPDEST DUP3 CALLDATALOAD PUSH8 0xFFFFFFFFFFFFFFFF DUP1 DUP3 GT ISZERO PUSH2 0x20C4 JUMPI PUSH0 DUP1 REVERT JUMPDEST DUP2 DUP6 ADD SWAP2 POP DUP6 PUSH1 0x1F DUP4 ADD SLT PUSH2 0x20D7 JUMPI PUSH0 DUP1 REVERT JUMPDEST DUP2 CALLDATALOAD PUSH1 0x20 DUP3 DUP3 GT ISZERO PUSH2 0x20EB JUMPI PUSH2 0x20EB PUSH2 0x1ECB JUMP JUMPDEST PUSH2 0x20FD PUSH1 0x1F DUP4 ADD PUSH1 0x1F NOT AND DUP3 ADD PUSH2 0x1F08 JUMP JUMPDEST SWAP3 POP DUP2 DUP4 MSTORE DUP8 DUP2 DUP4 DUP7 ADD ADD GT ISZERO PUSH2 0x2112 JUMPI PUSH0 DUP1 REVERT JUMPDEST DUP2 DUP2 DUP6 ADD DUP3 DUP6 ADD CALLDATACOPY PUSH0 SWAP2 DUP4 ADD DUP2 ADD SWAP2 SWAP1 SWAP2 MSTORE SWAP1 SWAP7 SWAP5 ADD CALLDATALOAD SWAP5 POP POP POP POP JUMP JUMPDEST DUP1 CALLDATALOAD PUSH1 0x1 PUSH1 0x1 PUSH1 0xA0 SHL SUB DUP2 AND DUP2 EQ PUSH2 0x2146 JUMPI PUSH0 DUP1 REVERT JUMPDEST SWAP2 SWAP1 POP JUMP JUMPDEST PUSH0 PUSH1 0x20 DUP3 DUP5 SUB SLT ISZERO PUSH2 0x215B JUMPI PUSH0 DUP1 REVERT JUMPDEST PUSH2 0x2164 DUP3 PUSH2 0x2130 JUMP JUMPDEST SWAP4 SWAP3 POP POP POP JUMP JUMPDEST PUSH0 DUP1 PUSH0 PUSH1 0x60 DUP5 DUP7 SUB SLT ISZERO PUSH2 0x217D JUMPI PUSH0 DUP1 REVERT JUMPDEST POP POP DUP2 CALLDATALOAD SWAP4 PUSH1 0x20 DUP4 ADD CALLDATALOAD SWAP4 POP PUSH1 0x40 SWAP1 SWAP3 ADD CALLDATALOAD SWAP2 SWAP1 POP JUMP JUMPDEST PUSH1 0x80 DUP2 ADD PUSH2 0x21A2 DUP3 DUP8 PUSH2 0x1DD9 JUMP JUMPDEST DUP5 PUSH1 0x20 DUP4 ADD MSTORE DUP4 PUSH1 0x40 DUP4 ADD MSTORE DUP3 PUSH1 0x60 DUP4 ADD MSTORE SWAP6 SWAP5 POP POP POP POP POP JUMP JUMPDEST PUSH0 DUP1 PUSH1 0x40 DUP4 DUP6 SUB SLT ISZERO PUSH2 0x21CE JUMPI PUSH0 DUP1 REVERT JUMPDEST DUP3 CALLDATALOAD SWAP2 POP PUSH2 0x21DE PUSH1 0x20 DUP5 ADD PUSH2 0x2130 JUMP JUMPDEST SWAP1 POP SWAP3 POP SWAP3 SWAP1 POP JUMP JUMPDEST PUSH0 DUP1 PUSH0 PUSH1 0x60 DUP5 DUP7 SUB SLT ISZERO PUSH2 0x21F9 JUMPI PUSH0 DUP1 REVERT JUMPDEST DUP4 CALLDATALOAD SWAP3 POP PUSH1 0x20 DUP5 ADD CALLDATALOAD SWAP2 POP PUSH2 0x2210 PUSH1 0x40 DUP6 ADD PUSH2 0x2130 JUMP JUMPDEST SWAP1 POP SWAP3 POP SWAP3 POP SWAP3 JUMP JUMPDEST DUP1 PUSH0 JUMPDEST PUSH1 0x2 DUP2 LT ISZERO PUSH2 0x223B JUMPI DUP2 MLOAD DUP5 MSTORE PUSH1 0x20 SWAP4 DUP5 ADD SWAP4 SWAP1 SWAP2 ADD SWAP1 PUSH1 0x1 ADD PUSH2 0x221C JUMP JUMPDEST POP POP POP POP JUMP JUMPDEST PUSH2 0x224C DUP3 DUP3 MLOAD PUSH2 0x2219 JUMP JUMPDEST PUSH1 0x20 DUP2 ADD MLOAD PUSH2 0x225E PUSH1 0x40 DUP5 ADD DUP3 PUSH2 0x2219 JUMP JUMPDEST POP POP POP JUMP JUMPDEST DUP4 MLOAD DUP2 MSTORE PUSH1 0x20 DUP1 DUP6 ADD MLOAD SWAP1 DUP3 ADD MSTORE PUSH2 0x100 DUP2 ADD PUSH2 0x2283 PUSH1 0x40 DUP4 ADD DUP6 PUSH2 0x2241 JUMP JUMPDEST DUP3 MLOAD PUSH1 0xC0 DUP4 ADD MSTORE PUSH1 0x20 DUP4 ADD MLOAD PUSH1 0xE0 DUP4 ADD MSTORE SWAP5 SWAP4 POP POP POP POP JUMP JUMPDEST PUSH0 DUP1 PUSH1 0x40 DUP4 DUP6 SUB SLT ISZERO PUSH2 0x22AD JUMPI PUSH0 DUP1 REVERT JUMPDEST DUP3 MLOAD PUSH1 0x5 DUP2 LT PUSH2 0x22BB JUMPI PUSH0 DUP1 REVERT JUMPDEST PUSH1 0x20 DUP5 ADD MLOAD SWAP1 SWAP3 POP PUSH2 0x1E70 DUP2 PUSH2 0x1E3D JUMP JUMPDEST PUSH1 0x20 DUP1 DUP3 MSTORE PUSH1 0x2F SWAP1 DUP3 ADD MSTORE PUSH32 0x4F6E6C792074686520496E7370656374696F6E204167656E742063616E207275 PUSH1 0x40 DUP3 ADD MSTORE PUSH15 0x37103A3434B990333AB731BA34B7B7 PUSH1 0x89 SHL PUSH1 0x60 DUP3 ADD MSTORE PUSH1 0x80 ADD SWAP1 JUMP JUMPDEST PUSH1 0x20 DUP1 DUP3 MSTORE PUSH1 0x11 SWAP1 DUP3 ADD MSTORE PUSH17 0x125B9D985B1A590814995C1BDC9D081251 PUSH1 0x7A SHL PUSH1 0x40 DUP3 ADD MSTORE PUSH1 0x60 ADD SWAP1 JUMP JUMPDEST DUP2 MLOAD DUP1 MLOAD DUP3 MSTORE PUSH1 0x20 SWAP1 DUP2 ADD MLOAD SWAP1 DUP3 ADD MSTORE PUSH2 0x100 DUP2 ADD PUSH1 0x20 DUP4 ADD MLOAD PUSH2 0x236D PUSH1 0x40 DUP5 ADD DUP3 PUSH2 0x2241 JUMP JUMPDEST POP PUSH1 0x40 SWAP3 SWAP1 SWAP3 ADD MLOAD DUP1 MLOAD PUSH1 0xC0 DUP4 ADD MSTORE PUSH1 0x20 ADD MLOAD PUSH1 0xE0 SWAP1 SWAP2 ADD MSTORE SWAP1 JUMP JUMPDEST PUSH0 PUSH1 0x20 DUP3 DUP5 SUB SLT ISZERO PUSH2 0x2399 JUMPI PUSH0 DUP1 REVERT JUMPDEST DUP2 MLOAD PUSH2 0x2164 DUP2 PUSH2 0x1E3D JUMP JUMPDEST PUSH1 0x20 DUP1 DUP3 MSTORE PUSH1 0x2D SWAP1 DUP3 ADD MSTORE PUSH32 0x4F6E6C7920746865204368696C6420477561726469616E2063616E2072756E20 PUSH1 0x40 DUP3 ADD MSTORE PUSH13 0x3A3434B990333AB731BA34B7B7 PUSH1 0x99 SHL PUSH1 0x60 DUP3 ADD MSTORE PUSH1 0x80 ADD SWAP1 JUMP JUMPDEST PUSH1 0x20 DUP1 DUP3 MSTORE PUSH1 0x3E SWAP1 DUP3 ADD MSTORE PUSH32 0x4F6E6C79207468652061737369676E656420477561726469616E20746F207468 PUSH1 0x40 DUP3 ADD MSTORE PUSH32 0x6973206368696C642063616E2072756E20746869732066756E6374696F6E0000 PUSH1 0x60 DUP3 ADD MSTORE PUSH1 0x80 ADD SWAP1 JUMP JUMPDEST PUSH1 0x20 DUP1 DUP3 MSTORE PUSH1 0x10 SWAP1 DUP3 ADD MSTORE PUSH16 0x125B9D985B1A590810DA1A5B19081251 PUSH1 0x82 SHL PUSH1 0x40 DUP3 ADD MSTORE PUSH1 0x60 ADD SWAP1 JUMP JUMPDEST PUSH4 0x4E487B71 PUSH1 0xE0 SHL PUSH0 MSTORE PUSH1 0x11 PUSH1 0x4 MSTORE PUSH1 0x24 PUSH0 REVERT JUMPDEST PUSH0 PUSH1 0x1 DUP3 ADD PUSH2 0x249D JUMPI PUSH2 0x249D PUSH2 0x2478 JUMP JUMPDEST POP PUSH1 0x1 ADD SWAP1 JUMP JUMPDEST DUP1 MLOAD PUSH1 0x20 DUP1 DUP4 ADD MLOAD SWAP2 SWAP1 DUP2 LT ISZERO PUSH2 0x79B JUMPI PUSH0 NOT PUSH1 0x20 SWAP2 SWAP1 SWAP2 SUB PUSH1 0x3 SHL SHL AND SWAP2 SWAP1 POP JUMP JUMPDEST DUP1 DUP3 ADD DUP1 DUP3 GT ISZERO PUSH2 0x24DA JUMPI PUSH2 0x24DA PUSH2 0x2478 JUMP JUMPDEST SWAP3 SWAP2 POP POP JUMP JUMPDEST PUSH1 0x20 DUP1 DUP3 MSTORE PUSH1 0x33 SWAP1 DUP3 ADD MSTORE PUSH32 0x4F6E6C792074686520726567756C61746F727920617574686F72697479206361 PUSH1 0x40 DUP3 ADD MSTORE PUSH19 0x3710393AB7103A3434B990333AB731BA34B7B7 PUSH1 0x69 SHL PUSH1 0x60 DUP3 ADD MSTORE PUSH1 0x80 ADD SWAP1 JUMP JUMPDEST DUP1 DUP3 MUL DUP2 ISZERO DUP3 DUP3 DIV DUP5 EQ OR PUSH2 0x24DA JUMPI PUSH2 0x24DA PUSH2 0x2478 JUMP INVALID LOG2 PUSH5 0x6970667358 0x22 SLT KECCAK256 0x25 0xF9 CALLDATASIZE 0xCB 0xC9 0xEE 0xD 0xF 0xB6 BALANCE PUSH16 0x3EFA966611900B455D0729F86003BE89 DUP10 PUSH4 0xF8E5364 PUSH20 0x6F6C634300081500330000000000000000000000 "
		},
		"gasEstimates": {
			"creation": {
				"codeDepositCost": "1920000",
				"executionCost": "infinite",
				"totalCost": "infinite"
			},
			"external": {
				"Registration()": "2423",
				"Verifier()": "2381",
				"accessControl(((uint256,uint256),(uint256[2],uint256[2]),(uint256,uint256)))": "infinite",
				"accessWhitelist(address)": "2661",
				"assignGuardian(uint256,uint256,address)": "infinite",
				"child2ReportMapping(uint256)": "2479",
				"childCount()": "2339",
				"childData(uint256,uint256)": "13373",
				"childRemediationData(uint256)": "13353",
				"completeRemediation(uint256,uint256)": "infinite",
				"getChildData(uint256,uint256)": "infinite",
				"getChildStatus(uint256,uint256)": "infinite",
				"getViolationReport(uint256)": "infinite",
				"reportChildrenCount(uint256)": "2524",
				"reportCount()": "2340",
				"reportProof(uint256)": "infinite",
				"revokeAccess(uint256,address)": "infinite",
				"startRemediation(uint256,uint256,uint256)": "infinite",
				"storeChildData(bytes32,uint256,bytes1,uint256)": "infinite",
				"submitViolationReport(string,uint256)": "infinite",
				"updateVerifier(address)": "infinite",
				"verifyViolationReport(uint256,bool)": "infinite",
				"violationReports(uint256)": "11106"
			}
		},
		"methodIdentifiers": {
			"Registration()": "e8a37919",
			"Verifier()": "53ca8115",
			"accessControl(((uint256,uint256),(uint256[2],uint256[2]),(uint256,uint256)))": "2ccc8392",
			"accessWhitelist(address)": "a0619d4a",
			"assignGuardian(uint256,uint256,address)": "eff5cfae",
			"child2ReportMapping(uint256)": "b05efaab",
			"childCount()": "8bc3bbc0",
			"childData(uint256,uint256)": "12f1a83a",
			"childRemediationData(uint256)": "2b76ea9c",
			"completeRemediation(uint256,uint256)": "739f48a6",
			"getChildData(uint256,uint256)": "84e2395d",
			"getChildStatus(uint256,uint256)": "a1dc99b4",
			"getViolationReport(uint256)": "636d0262",
			"reportChildrenCount(uint256)": "6388bafc",
			"reportCount()": "185c6f84",
			"reportProof(uint256)": "f8b4d690",
			"revokeAccess(uint256,address)": "d9a5ec1b",
			"startRemediation(uint256,uint256,uint256)": "992cc022",
			"storeChildData(bytes32,uint256,bytes1,uint256)": "832de71e",
			"submitViolationReport(string,uint256)": "8fe2d950",
			"updateVerifier(address)": "97fc007c",
			"verifyViolationReport(uint256,bool)": "28c10330",
			"violationReports(uint256)": "3835a119"
		}
	},
	"abi": [
		{
			"inputs": [
				{
					"internalType": "address",
					"name": "_registration",
					"type": "address"
				},
				{
					"internalType": "address",
					"name": "_verifier",
					"type": "address"
				}
			],
			"stateMutability": "nonpayable",
			"type": "constructor"
		},
		{
			"anonymous": false,
			"inputs": [
				{
					"indexed": false,
					"internalType": "address",
					"name": "regulatoryAuthority",
					"type": "address"
				},
				{
					"indexed": false,
					"internalType": "address",
					"name": "dataAnalyst",
					"type": "address"
				},
				{
					"indexed": false,
					"internalType": "uint256",
					"name": "date",
					"type": "uint256"
				}
			],
			"name": "AccessRevoked",
			"type": "event"
		},
		{
			"anonymous": false,
			"inputs": [
				{
					"indexed": false,
					"internalType": "uint256",
					"name": "childId",
					"type": "uint256"
				},
				{
					"indexed": false,
					"internalType": "bytes32",
					"name": "hashedName",
					"type": "bytes32"
				},
				{
					"indexed": false,
					"internalType": "uint256",
					"name": "age",
					"type": "uint256"
				},
				{
					"indexed": false,
					"internalType": "bytes1",
					"name": "gender",
					"type": "bytes1"
				},
				{
					"indexed": false,
					"internalType": "uint256",
					"name": "reportId",
					"type": "uint256"
				}
			],
			"name": "ChildDataStored",
			"type": "event"
		},
		{
			"anonymous": false,
			"inputs": [
				{
					"indexed": false,
					"internalType": "uint256",
					"name": "childId",
					"type": "uint256"
				},
				{
					"indexed": false,
					"internalType": "uint256",
					"name": "reportId",
					"type": "uint256"
				},
				{
					"indexed": false,
					"internalType": "address",
					"name": "guardian",
					"type": "address"
				}
			],
			"name": "GuardianAssigned",
			"type": "event"
		},
		{
			"anonymous": false,
			"inputs": [
				{
					"indexed": true,
					"internalType": "uint256",
					"name": "reportCount",
					"type": "uint256"
				},
				{
					"indexed": false,
					"internalType": "address",
					"name": "reporter",
					"type": "address"
				},
				{
					"indexed": false,
					"internalType": "uint256",
					"name": "date",
					"type": "uint256"
				},
				{
					"indexed": false,
					"internalType": "bytes32",
					"name": "reportDetails",
					"type": "bytes32"
				}
			],
			"name": "NewViolationReport",
			"type": "event"
		},
		{
			"anonymous": false,
			"inputs": [
				{
					"indexed": false,
					"internalType": "uint256",
					"name": "childId",
					"type": "uint256"
				},
				{
					"indexed": false,
					"internalType": "uint256",
					"name": "remediationCompletionDate",
					"type": "uint256"
				}
			],
			"name": "RemediationCompleted",
			"type": "event"
		},
		{
			"anonymous": false,
			"inputs": [
				{
					"indexed": false,
					"internalType": "uint256",
					"name": "childId",
					"type": "uint256"
				},
				{
					"indexed": false,
					"internalType": "uint256",
					"name": "remediationStartDate",
					"type": "uint256"
				},
				{
					"indexed": false,
					"internalType": "uint256",
					"name": "remediationCompletionDate",
					"type": "uint256"
				}
			],
			"name": "RemediationStarted",
			"type": "event"
		},
		{
			"anonymous": false,
			"inputs": [
				{
					"indexed": true,
					"internalType": "uint256",
					"name": "reportCount",
					"type": "uint256"
				},
				{
					"indexed": false,
					"internalType": "address",
					"name": "inspector",
					"type": "address"
				},
				{
					"indexed": false,
					"internalType": "bool",
					"name": "isVerified",
					"type": "bool"
				},
				{
					"indexed": false,
					"internalType": "uint256",
					"name": "verificationDate",
					"type": "uint256"
				}
			],
			"name": "ViolationReportVerification",
			"type": "event"
		},
		{
			"anonymous": false,
			"inputs": [
				{
					"indexed": false,
					"internalType": "address",
					"name": "DataAnalyst",
					"type": "address"
				},
				{
					"indexed": false,
					"internalType": "uint256",
					"name": "Date",
					"type": "uint256"
				}
			],
			"name": "Whitelisted",
			"type": "event"
		},
		{
			"inputs": [],
			"name": "Registration",
			"outputs": [
				{
					"internalType": "contract IRegistration",
					"name": "",
					"type": "address"
				}
			],
			"stateMutability": "view",
			"type": "function"
		},
		{
			"inputs": [],
			"name": "Verifier",
			"outputs": [
				{
					"internalType": "contract IVerifier",
					"name": "",
					"type": "address"
				}
			],
			"stateMutability": "view",
			"type": "function"
		},
		{
			"inputs": [
				{
					"components": [
						{
							"components": [
								{
									"internalType": "uint256",
									"name": "X",
									"type": "uint256"
								},
								{
									"internalType": "uint256",
									"name": "Y",
									"type": "uint256"
								}
							],
							"internalType": "struct Pairing.G1Point",
							"name": "a",
							"type": "tuple"
						},
						{
							"components": [
								{
									"internalType": "uint256[2]",
									"name": "X",
									"type": "uint256[2]"
								},
								{
									"internalType": "uint256[2]",
									"name": "Y",
									"type": "uint256[2]"
								}
							],
							"internalType": "struct Pairing.G2Point",
							"name": "b",
							"type": "tuple"
						},
						{
							"components": [
								{
									"internalType": "uint256",
									"name": "X",
									"type": "uint256"
								},
								{
									"internalType": "uint256",
									"name": "Y",
									"type": "uint256"
								}
							],
							"internalType": "struct Pairing.G1Point",
							"name": "c",
							"type": "tuple"
						}
					],
					"internalType": "struct IVerifier.Proof",
					"name": "proof",
					"type": "tuple"
				}
			],
			"name": "accessControl",
			"outputs": [
				{
					"internalType": "bool",
					"name": "",
					"type": "bool"
				}
			],
			"stateMutability": "nonpayable",
			"type": "function"
		},
		{
			"inputs": [
				{
					"internalType": "address",
					"name": "",
					"type": "address"
				}
			],
			"name": "accessWhitelist",
			"outputs": [
				{
					"internalType": "bool",
					"name": "",
					"type": "bool"
				}
			],
			"stateMutability": "view",
			"type": "function"
		},
		{
			"inputs": [
				{
					"internalType": "uint256",
					"name": "_violationReportId",
					"type": "uint256"
				},
				{
					"internalType": "uint256",
					"name": "_childId",
					"type": "uint256"
				},
				{
					"internalType": "address",
					"name": "_guardian",
					"type": "address"
				}
			],
			"name": "assignGuardian",
			"outputs": [],
			"stateMutability": "nonpayable",
			"type": "function"
		},
		{
			"inputs": [
				{
					"internalType": "uint256",
					"name": "",
					"type": "uint256"
				}
			],
			"name": "child2ReportMapping",
			"outputs": [
				{
					"internalType": "uint256",
					"name": "",
					"type": "uint256"
				}
			],
			"stateMutability": "view",
			"type": "function"
		},
		{
			"inputs": [],
			"name": "childCount",
			"outputs": [
				{
					"internalType": "uint256",
					"name": "",
					"type": "uint256"
				}
			],
			"stateMutability": "view",
			"type": "function"
		},
		{
			"inputs": [
				{
					"internalType": "uint256",
					"name": "",
					"type": "uint256"
				},
				{
					"internalType": "uint256",
					"name": "",
					"type": "uint256"
				}
			],
			"name": "childData",
			"outputs": [
				{
					"internalType": "uint256",
					"name": "childId",
					"type": "uint256"
				},
				{
					"internalType": "bytes32",
					"name": "hashedName",
					"type": "bytes32"
				},
				{
					"internalType": "uint256",
					"name": "age",
					"type": "uint256"
				},
				{
					"internalType": "bytes1",
					"name": "gender",
					"type": "bytes1"
				},
				{
					"internalType": "uint256",
					"name": "violationReportId",
					"type": "uint256"
				},
				{
					"internalType": "enum ChildLabourDataManagement.ChildStatus",
					"name": "status",
					"type": "uint8"
				}
			],
			"stateMutability": "view",
			"type": "function"
		},
		{
			"inputs": [
				{
					"internalType": "uint256",
					"name": "",
					"type": "uint256"
				}
			],
			"name": "childRemediationData",
			"outputs": [
				{
					"internalType": "address",
					"name": "guardian",
					"type": "address"
				},
				{
					"internalType": "uint256",
					"name": "childId",
					"type": "uint256"
				},
				{
					"internalType": "uint256",
					"name": "remediationStart",
					"type": "uint256"
				},
				{
					"internalType": "uint256",
					"name": "remediationCompletion",
					"type": "uint256"
				},
				{
					"internalType": "uint256",
					"name": "lastUpdated",
					"type": "uint256"
				},
				{
					"internalType": "enum ChildLabourDataManagement.ChildStatus",
					"name": "status",
					"type": "uint8"
				}
			],
			"stateMutability": "view",
			"type": "function"
		},
		{
			"inputs": [
				{
					"internalType": "uint256",
					"name": "_violationReportId",
					"type": "uint256"
				},
				{
					"internalType": "uint256",
					"name": "_childId",
					"type": "uint256"
				}
			],
			"name": "completeRemediation",
			"outputs": [],
			"stateMutability": "nonpayable",
			"type": "function"
		},
		{
			"inputs": [
				{
					"internalType": "uint256",
					"name": "_violationReportId",
					"type": "uint256"
				},
				{
					"internalType": "uint256",
					"name": "_childId",
					"type": "uint256"
				}
			],
			"name": "getChildData",
			"outputs": [
				{
					"internalType": "bytes32",
					"name": "hashedName",
					"type": "bytes32"
				},
				{
					"internalType": "uint256",
					"name": "age",
					"type": "uint256"
				},
				{
					"internalType": "bytes1",
					"name": "gender",
					"type": "bytes1"
				},
				{
					"internalType": "bytes32",
					"name": "reportipfshash",
					"type": "bytes32"
				}
			],
			"stateMutability": "nonpayable",
			"type": "function"
		},
		{
			"inputs": [
				{
					"internalType": "uint256",
					"name": "_violationReportId",
					"type": "uint256"
				},
				{
					"internalType": "uint256",
					"name": "_childId",
					"type": "uint256"
				}
			],
			"name": "getChildStatus",
			"outputs": [
				{
					"internalType": "enum ChildLabourDataManagement.ChildStatus",
					"name": "",
					"type": "uint8"
				},
				{
					"internalType": "uint256",
					"name": "",
					"type": "uint256"
				},
				{
					"internalType": "uint256",
					"name": "",
					"type": "uint256"
				},
				{
					"internalType": "uint256",
					"name": "",
					"type": "uint256"
				}
			],
			"stateMutability": "nonpayable",
			"type": "function"
		},
		{
			"inputs": [
				{
					"internalType": "uint256",
					"name": "_violationReportId",
					"type": "uint256"
				}
			],
			"name": "getViolationReport",
			"outputs": [
				{
					"internalType": "address",
					"name": "reporter",
					"type": "address"
				},
				{
					"internalType": "uint256",
					"name": "date",
					"type": "uint256"
				},
				{
					"internalType": "bytes32",
					"name": "reportDetails",
					"type": "bytes32"
				}
			],
			"stateMutability": "nonpayable",
			"type": "function"
		},
		{
			"inputs": [
				{
					"internalType": "uint256",
					"name": "",
					"type": "uint256"
				}
			],
			"name": "reportChildrenCount",
			"outputs": [
				{
					"internalType": "uint256",
					"name": "",
					"type": "uint256"
				}
			],
			"stateMutability": "view",
			"type": "function"
		},
		{
			"inputs": [],
			"name": "reportCount",
			"outputs": [
				{
					"internalType": "uint256",
					"name": "",
					"type": "uint256"
				}
			],
			"stateMutability": "view",
			"type": "function"
		},
		{
			"inputs": [
				{
					"internalType": "uint256",
					"name": "",
					"type": "uint256"
				}
			],
			"name": "reportProof",
			"outputs": [
				{
					"components": [
						{
							"internalType": "uint256",
							"name": "X",
							"type": "uint256"
						},
						{
							"internalType": "uint256",
							"name": "Y",
							"type": "uint256"
						}
					],
					"internalType": "struct Pairing.G1Point",
					"name": "a",
					"type": "tuple"
				},
				{
					"components": [
						{
							"internalType": "uint256[2]",
							"name": "X",
							"type": "uint256[2]"
						},
						{
							"internalType": "uint256[2]",
							"name": "Y",
							"type": "uint256[2]"
						}
					],
					"internalType": "struct Pairing.G2Point",
					"name": "b",
					"type": "tuple"
				},
				{
					"components": [
						{
							"internalType": "uint256",
							"name": "X",
							"type": "uint256"
						},
						{
							"internalType": "uint256",
							"name": "Y",
							"type": "uint256"
						}
					],
					"internalType": "struct Pairing.G1Point",
					"name": "c",
					"type": "tuple"
				}
			],
			"stateMutability": "view",
			"type": "function"
		},
		{
			"inputs": [
				{
					"internalType": "uint256",
					"name": "",
					"type": "uint256"
				},
				{
					"internalType": "address",
					"name": "_user",
					"type": "address"
				}
			],
			"name": "revokeAccess",
			"outputs": [],
			"stateMutability": "nonpayable",
			"type": "function"
		},
		{
			"inputs": [
				{
					"internalType": "uint256",
					"name": "_violationReportId",
					"type": "uint256"
				},
				{
					"internalType": "uint256",
					"name": "_childId",
					"type": "uint256"
				},
				{
					"internalType": "uint256",
					"name": "_daysToRemediate",
					"type": "uint256"
				}
			],
			"name": "startRemediation",
			"outputs": [],
			"stateMutability": "nonpayable",
			"type": "function"
		},
		{
			"inputs": [
				{
					"internalType": "bytes32",
					"name": "_hashedName",
					"type": "bytes32"
				},
				{
					"internalType": "uint256",
					"name": "_age",
					"type": "uint256"
				},
				{
					"internalType": "bytes1",
					"name": "_gender",
					"type": "bytes1"
				},
				{
					"internalType": "uint256",
					"name": "_violationReportId",
					"type": "uint256"
				}
			],
			"name": "storeChildData",
			"outputs": [],
			"stateMutability": "nonpayable",
			"type": "function"
		},
		{
			"inputs": [
				{
					"internalType": "string",
					"name": "_reportIPFSHash",
					"type": "string"
				},
				{
					"internalType": "uint256",
					"name": "_spottedChildrenNumber",
					"type": "uint256"
				}
			],
			"name": "submitViolationReport",
			"outputs": [],
			"stateMutability": "nonpayable",
			"type": "function"
		},
		{
			"inputs": [
				{
					"internalType": "address",
					"name": "_verifier",
					"type": "address"
				}
			],
			"name": "updateVerifier",
			"outputs": [],
			"stateMutability": "nonpayable",
			"type": "function"
		},
		{
			"inputs": [
				{
					"internalType": "uint256",
					"name": "_violationReportId",
					"type": "uint256"
				},
				{
					"internalType": "bool",
					"name": "_decision",
					"type": "bool"
				}
			],
			"name": "verifyViolationReport",
			"outputs": [],
			"stateMutability": "nonpayable",
			"type": "function"
		},
		{
			"inputs": [
				{
					"internalType": "uint256",
					"name": "",
					"type": "uint256"
				}
			],
			"name": "violationReports",
			"outputs": [
				{
					"internalType": "address",
					"name": "reporter",
					"type": "address"
				},
				{
					"internalType": "uint256",
					"name": "timestamp",
					"type": "uint256"
				},
				{
					"internalType": "uint256",
					"name": "spottedChildrenNumber",
					"type": "uint256"
				},
				{
					"internalType": "bytes32",
					"name": "ipfsHash",
					"type": "bytes32"
				},
				{
					"internalType": "bool",
					"name": "isInspected",
					"type": "bool"
				},
				{
					"internalType": "bool",
					"name": "isVerified",
					"type": "bool"
				}
			],
			"stateMutability": "view",
			"type": "function"
		}
	]
}