{
	"data": {
		"bytecode": {
			"linkReferences": {},
			"object": "608060405234801561000f575f80fd5b50610de28061001d5f395ff3fe608060405234801561000f575f80fd5b5060043610610029575f3560e01c8063f6af03111461002d575b5f80fd5b61004061003b366004610c70565b610054565b604051901515815260200160405180910390f35b604080515f8082526020820190925261006d8184610084565b5f0361007c5750600192915050565b505f92915050565b5f7f30644e72e131a029b85045b68181585d2833e84879b9709143e1f593f0000001816100af610202565b9050806080015151855160016100c59190610d24565b146100ce575f80fd5b604080518082019091525f808252602082018190525b865181101561017a578387828151811061010057610100610d37565b602002602001015110610111575f80fd5b61016682610161856080015184600161012a9190610d24565b8151811061013a5761013a610d37565b60200260200101518a858151811061015457610154610d37565b6020026020010151610523565b61057e565b91508061017281610d4b565b9150506100e4565b506101a28183608001515f8151811061019557610195610d37565b602002602001015161057e565b90506101e5855f015186602001516101b9846105d2565b85604001516101cb8a604001516105d2565b606088015188516101db906105d2565b896020015161066e565b6101f557600193505050506101fc565b5f93505050505b92915050565b61020a610acb565b6040805180820182527f206d960593d941bf781f3b6e3f95916f6520377bff96299cd16ba8d8ef9120b581527f29a95be0f241b789a1fe8cdcf9c7e3f3d4aa637c5dcb0382f88285f6582adade6020808301919091529083528151608080820184527f251a596db059ea83f20caa9d1b4374816cca7f5f9c9c390f909d7f434686a58f8285019081527f291f5a2ff34731a219db79627796becab5d92e4ad89249ae03b39b65737d1983606080850191909152908352845180860186527f2d509c0da4ab56f26890d29d0cdd6f5a4a9cedf0aa81f06e8487617918947eea81527f2204201ec00a2d0da8b4cb010c79f4ebcecbf9707e6f4f551e4d1f862073dac3818601528385015285840192909252835180820185527f1dd14e44f2b02a66b5e29b44aa92bf941419d625f4616fc2a95e77fd5811dadb8186019081527f26a61cc4785a135211c384bd63d8f0a31af7a4cde00f3e9988e5443c87952b34828501528152845180860186527f15aabbe70630d13fe6b322ab27d8324a46fab2e9198377f9c6cd34667277453481527f1554660dda2fa742dea97963e3fd288334955bcbbce2f7a49a5954bd3420039a818601528185015285850152835190810184527f2d836df4b09b09bc96a308a8457129bd716ac8996628901ba014777e38b91d368185019081527f204672d7224748a862be81d235d059a0d0b61cd8e9ba31e0b7a54b0884a28b1b828401528152835180850185527f19437a9cdfd12b7d453b5193141d0cfbbdf41cd30a886d7a0d92b34c5e2324d581527f1e49c1f10b587d76b876e8ff64d69e3a22ad9704d67d53ca05b5a5706d339d3d81850152818401529084015281516001808252818401909352919082015b604080518082019091525f808252602082015281526020019060019003908161048457505060808201908152604080518082019091527f0ba3aaceace761acc25977784cffe381c89288ee0c978c0c256b93cd7c2f552f81527f06bd36158541f776b681ec199087fcb24d44e92330b055c7e7ebd5f9edcb7d686020820152905180515f9061051557610515610d37565b602002602001018190525090565b604080518082019091525f808252602082015261053e610b1b565b8351815260208085015190820152604081018390525f60608360808460076107d05a03fa9050808061056c57fe5b5080610576575f80fd5b505092915050565b604080518082019091525f8082526020820152610599610b39565b8351815260208085015181830152835160408301528301516060808301919091525f908360c08460066107d05a03fa9050808061056c57fe5b604080518082019091525f808252602082015281517f30644e72e131a029b85045b68181585d97816a916871ca8d3c208c16d87cfd479015801561061857506020830151155b15610637575050604080518082019091525f8082526020820152919050565b6040518060400160405280845f0151815260200182856020015161065b9190610d63565b6106659084610d82565b90529392505050565b60408051600480825260a082019092525f91829190816020015b604080518082019091525f808252602082015281526020019060019003908161068857505060408051600480825260a082019092529192505f9190602082015b6106d0610b57565b8152602001906001900390816106c85790505090508a825f815181106106f8576106f8610d37565b6020026020010181905250888260018151811061071757610717610d37565b6020026020010181905250868260028151811061073657610736610d37565b6020026020010181905250848260038151811061075557610755610d37565b602002602001018190525089815f8151811061077357610773610d37565b6020026020010181905250878160018151811061079257610792610d37565b602002602001018190525085816002815181106107b1576107b1610d37565b602002602001018190525083816003815181106107d0576107d0610d37565b60200260200101819052506107e582826107f4565b9b9a5050505050505050505050565b5f8151835114610802575f80fd5b82515f610810826006610d95565b90505f8167ffffffffffffffff81111561082c5761082c610bb8565b604051908082528060200260200182016040528015610855578160200160208202803683370190505b5090505f5b83811015610a8c5786818151811061087457610874610d37565b60200260200101515f01518282600661088d9190610d95565b610897905f610d24565b815181106108a7576108a7610d37565b6020026020010181815250508681815181106108c5576108c5610d37565b602002602001015160200151828260066108df9190610d95565b6108ea906001610d24565b815181106108fa576108fa610d37565b60200260200101818152505085818151811061091857610918610d37565b60209081029190910181015151015182610933836006610d95565b61093e906002610d24565b8151811061094e5761094e610d37565b60200260200101818152505085818151811061096c5761096c610d37565b6020908102919091010151515182610985836006610d95565b610990906003610d24565b815181106109a0576109a0610d37565b6020026020010181815250508581815181106109be576109be610d37565b6020026020010151602001516001600281106109dc576109dc610d37565b6020020151826109ed836006610d95565b6109f8906004610d24565b81518110610a0857610a08610d37565b602002602001018181525050858181518110610a2657610a26610d37565b6020026020010151602001515f60028110610a4357610a43610d37565b602002015182610a54836006610d95565b610a5f906005610d24565b81518110610a6f57610a6f610d37565b602090810291909101015280610a8481610d4b565b91505061085a565b50610a95610b7c565b5f602082602086026020860160086107d05a03fa90508080610ab357fe5b5080610abd575f80fd5b505115159695505050505050565b6040805160e081019091525f60a0820181815260c0830191909152815260208101610af4610b57565b8152602001610b01610b57565b8152602001610b0e610b57565b8152602001606081525090565b60405180606001604052806003906020820280368337509192915050565b60405180608001604052806004906020820280368337509192915050565b6040518060400160405280610b6a610b9a565b8152602001610b77610b9a565b905290565b60405180602001604052806001906020820280368337509192915050565b60405180604001604052806002906020820280368337509192915050565b634e487b7160e01b5f52604160045260245ffd5b6040805190810167ffffffffffffffff81118282101715610bef57610bef610bb8565b60405290565b5f60408284031215610c05575f80fd5b610c0d610bcc565b9050813581526020820135602082015292915050565b5f82601f830112610c32575f80fd5b610c3a610bcc565b806040840185811115610c4b575f80fd5b845b81811015610c65578035845260209384019301610c4d565b509095945050505050565b5f818303610100811215610c82575f80fd5b6040516060810181811067ffffffffffffffff82111715610ca557610ca5610bb8565b604052610cb28585610bf5565b81526080603f1983011215610cc5575f80fd5b610ccd610bcc565b9150610cdc8560408601610c23565b8252610ceb8560808601610c23565b6020830152816020820152610d038560c08601610bf5565b6040820152949350505050565b634e487b7160e01b5f52601160045260245ffd5b808201808211156101fc576101fc610d10565b634e487b7160e01b5f52603260045260245ffd5b5f60018201610d5c57610d5c610d10565b5060010190565b5f82610d7d57634e487b7160e01b5f52601260045260245ffd5b500690565b818103818111156101fc576101fc610d10565b80820281158282048414176101fc576101fc610d1056fea2646970667358221220ce3de0c8d209067dae980ba59cfce886f90506db99e7c6be4bb4203239864d9f64736f6c63430008150033",
			"opcodes": "PUSH1 0x80 PUSH1 0x40 MSTORE CALLVALUE DUP1 ISZERO PUSH2 0xF JUMPI PUSH0 DUP1 REVERT JUMPDEST POP PUSH2 0xDE2 DUP1 PUSH2 0x1D PUSH0 CODECOPY PUSH0 RETURN INVALID PUSH1 0x80 PUSH1 0x40 MSTORE CALLVALUE DUP1 ISZERO PUSH2 0xF JUMPI PUSH0 DUP1 REVERT JUMPDEST POP PUSH1 0x4 CALLDATASIZE LT PUSH2 0x29 JUMPI PUSH0 CALLDATALOAD PUSH1 0xE0 SHR DUP1 PUSH4 0xF6AF0311 EQ PUSH2 0x2D JUMPI JUMPDEST PUSH0 DUP1 REVERT JUMPDEST PUSH2 0x40 PUSH2 0x3B CALLDATASIZE PUSH1 0x4 PUSH2 0xC70 JUMP JUMPDEST PUSH2 0x54 JUMP JUMPDEST PUSH1 0x40 MLOAD SWAP1 ISZERO ISZERO DUP2 MSTORE PUSH1 0x20 ADD PUSH1 0x40 MLOAD DUP1 SWAP2 SUB SWAP1 RETURN JUMPDEST PUSH1 0x40 DUP1 MLOAD PUSH0 DUP1 DUP3 MSTORE PUSH1 0x20 DUP3 ADD SWAP1 SWAP3 MSTORE PUSH2 0x6D DUP2 DUP5 PUSH2 0x84 JUMP JUMPDEST PUSH0 SUB PUSH2 0x7C JUMPI POP PUSH1 0x1 SWAP3 SWAP2 POP POP JUMP JUMPDEST POP PUSH0 SWAP3 SWAP2 POP POP JUMP JUMPDEST PUSH0 PUSH32 0x30644E72E131A029B85045B68181585D2833E84879B9709143E1F593F0000001 DUP2 PUSH2 0xAF PUSH2 0x202 JUMP JUMPDEST SWAP1 POP DUP1 PUSH1 0x80 ADD MLOAD MLOAD DUP6 MLOAD PUSH1 0x1 PUSH2 0xC5 SWAP2 SWAP1 PUSH2 0xD24 JUMP JUMPDEST EQ PUSH2 0xCE JUMPI PUSH0 DUP1 REVERT JUMPDEST PUSH1 0x40 DUP1 MLOAD DUP1 DUP3 ADD SWAP1 SWAP2 MSTORE PUSH0 DUP1 DUP3 MSTORE PUSH1 0x20 DUP3 ADD DUP2 SWAP1 MSTORE JUMPDEST DUP7 MLOAD DUP2 LT ISZERO PUSH2 0x17A JUMPI DUP4 DUP8 DUP3 DUP2 MLOAD DUP2 LT PUSH2 0x100 JUMPI PUSH2 0x100 PUSH2 0xD37 JUMP JUMPDEST PUSH1 0x20 MUL PUSH1 0x20 ADD ADD MLOAD LT PUSH2 0x111 JUMPI PUSH0 DUP1 REVERT JUMPDEST PUSH2 0x166 DUP3 PUSH2 0x161 DUP6 PUSH1 0x80 ADD MLOAD DUP5 PUSH1 0x1 PUSH2 0x12A SWAP2 SWAP1 PUSH2 0xD24 JUMP JUMPDEST DUP2 MLOAD DUP2 LT PUSH2 0x13A JUMPI PUSH2 0x13A PUSH2 0xD37 JUMP JUMPDEST PUSH1 0x20 MUL PUSH1 0x20 ADD ADD MLOAD DUP11 DUP6 DUP2 MLOAD DUP2 LT PUSH2 0x154 JUMPI PUSH2 0x154 PUSH2 0xD37 JUMP JUMPDEST PUSH1 0x20 MUL PUSH1 0x20 ADD ADD MLOAD PUSH2 0x523 JUMP JUMPDEST PUSH2 0x57E JUMP JUMPDEST SWAP2 POP DUP1 PUSH2 0x172 DUP2 PUSH2 0xD4B JUMP JUMPDEST SWAP2 POP POP PUSH2 0xE4 JUMP JUMPDEST POP PUSH2 0x1A2 DUP2 DUP4 PUSH1 0x80 ADD MLOAD PUSH0 DUP2 MLOAD DUP2 LT PUSH2 0x195 JUMPI PUSH2 0x195 PUSH2 0xD37 JUMP JUMPDEST PUSH1 0x20 MUL PUSH1 0x20 ADD ADD MLOAD PUSH2 0x57E JUMP JUMPDEST SWAP1 POP PUSH2 0x1E5 DUP6 PUSH0 ADD MLOAD DUP7 PUSH1 0x20 ADD MLOAD PUSH2 0x1B9 DUP5 PUSH2 0x5D2 JUMP JUMPDEST DUP6 PUSH1 0x40 ADD MLOAD PUSH2 0x1CB DUP11 PUSH1 0x40 ADD MLOAD PUSH2 0x5D2 JUMP JUMPDEST PUSH1 0x60 DUP9 ADD MLOAD DUP9 MLOAD PUSH2 0x1DB SWAP1 PUSH2 0x5D2 JUMP JUMPDEST DUP10 PUSH1 0x20 ADD MLOAD PUSH2 0x66E JUMP JUMPDEST PUSH2 0x1F5 JUMPI PUSH1 0x1 SWAP4 POP POP POP POP PUSH2 0x1FC JUMP JUMPDEST PUSH0 SWAP4 POP POP POP POP JUMPDEST SWAP3 SWAP2 POP POP JUMP JUMPDEST PUSH2 0x20A PUSH2 0xACB JUMP JUMPDEST PUSH1 0x40 DUP1 MLOAD DUP1 DUP3 ADD DUP3 MSTORE PUSH32 0x206D960593D941BF781F3B6E3F95916F6520377BFF96299CD16BA8D8EF9120B5 DUP2 MSTORE PUSH32 0x29A95BE0F241B789A1FE8CDCF9C7E3F3D4AA637C5DCB0382F88285F6582ADADE PUSH1 0x20 DUP1 DUP4 ADD SWAP2 SWAP1 SWAP2 MSTORE SWAP1 DUP4 MSTORE DUP2 MLOAD PUSH1 0x80 DUP1 DUP3 ADD DUP5 MSTORE PUSH32 0x251A596DB059EA83F20CAA9D1B4374816CCA7F5F9C9C390F909D7F434686A58F DUP3 DUP6 ADD SWAP1 DUP2 MSTORE PUSH32 0x291F5A2FF34731A219DB79627796BECAB5D92E4AD89249AE03B39B65737D1983 PUSH1 0x60 DUP1 DUP6 ADD SWAP2 SWAP1 SWAP2 MSTORE SWAP1 DUP4 MSTORE DUP5 MLOAD DUP1 DUP7 ADD DUP7 MSTORE PUSH32 0x2D509C0DA4AB56F26890D29D0CDD6F5A4A9CEDF0AA81F06E8487617918947EEA DUP2 MSTORE PUSH32 0x2204201EC00A2D0DA8B4CB010C79F4EBCECBF9707E6F4F551E4D1F862073DAC3 DUP2 DUP7 ADD MSTORE DUP4 DUP6 ADD MSTORE DUP6 DUP5 ADD SWAP3 SWAP1 SWAP3 MSTORE DUP4 MLOAD DUP1 DUP3 ADD DUP6 MSTORE PUSH32 0x1DD14E44F2B02A66B5E29B44AA92BF941419D625F4616FC2A95E77FD5811DADB DUP2 DUP7 ADD SWAP1 DUP2 MSTORE PUSH32 0x26A61CC4785A135211C384BD63D8F0A31AF7A4CDE00F3E9988E5443C87952B34 DUP3 DUP6 ADD MSTORE DUP2 MSTORE DUP5 MLOAD DUP1 DUP7 ADD DUP7 MSTORE PUSH32 0x15AABBE70630D13FE6B322AB27D8324A46FAB2E9198377F9C6CD346672774534 DUP2 MSTORE PUSH32 0x1554660DDA2FA742DEA97963E3FD288334955BCBBCE2F7A49A5954BD3420039A DUP2 DUP7 ADD MSTORE DUP2 DUP6 ADD MSTORE DUP6 DUP6 ADD MSTORE DUP4 MLOAD SWAP1 DUP2 ADD DUP5 MSTORE PUSH32 0x2D836DF4B09B09BC96A308A8457129BD716AC8996628901BA014777E38B91D36 DUP2 DUP6 ADD SWAP1 DUP2 MSTORE PUSH32 0x204672D7224748A862BE81D235D059A0D0B61CD8E9BA31E0B7A54B0884A28B1B DUP3 DUP5 ADD MSTORE DUP2 MSTORE DUP4 MLOAD DUP1 DUP6 ADD DUP6 MSTORE PUSH32 0x19437A9CDFD12B7D453B5193141D0CFBBDF41CD30A886D7A0D92B34C5E2324D5 DUP2 MSTORE PUSH32 0x1E49C1F10B587D76B876E8FF64D69E3A22AD9704D67D53CA05B5A5706D339D3D DUP2 DUP6 ADD MSTORE DUP2 DUP5 ADD MSTORE SWAP1 DUP5 ADD MSTORE DUP2 MLOAD PUSH1 0x1 DUP1 DUP3 MSTORE DUP2 DUP5 ADD SWAP1 SWAP4 MSTORE SWAP2 SWAP1 DUP3 ADD JUMPDEST PUSH1 0x40 DUP1 MLOAD DUP1 DUP3 ADD SWAP1 SWAP2 MSTORE PUSH0 DUP1 DUP3 MSTORE PUSH1 0x20 DUP3 ADD MSTORE DUP2 MSTORE PUSH1 0x20 ADD SWAP1 PUSH1 0x1 SWAP1 SUB SWAP1 DUP2 PUSH2 0x484 JUMPI POP POP PUSH1 0x80 DUP3 ADD SWAP1 DUP2 MSTORE PUSH1 0x40 DUP1 MLOAD DUP1 DUP3 ADD SWAP1 SWAP2 MSTORE PUSH32 0xBA3AACEACE761ACC25977784CFFE381C89288EE0C978C0C256B93CD7C2F552F DUP2 MSTORE PUSH32 0x6BD36158541F776B681EC199087FCB24D44E92330B055C7E7EBD5F9EDCB7D68 PUSH1 0x20 DUP3 ADD MSTORE SWAP1 MLOAD DUP1 MLOAD PUSH0 SWAP1 PUSH2 0x515 JUMPI PUSH2 0x515 PUSH2 0xD37 JUMP JUMPDEST PUSH1 0x20 MUL PUSH1 0x20 ADD ADD DUP2 SWAP1 MSTORE POP SWAP1 JUMP JUMPDEST PUSH1 0x40 DUP1 MLOAD DUP1 DUP3 ADD SWAP1 SWAP2 MSTORE PUSH0 DUP1 DUP3 MSTORE PUSH1 0x20 DUP3 ADD MSTORE PUSH2 0x53E PUSH2 0xB1B JUMP JUMPDEST DUP4 MLOAD DUP2 MSTORE PUSH1 0x20 DUP1 DUP6 ADD MLOAD SWAP1 DUP3 ADD MSTORE PUSH1 0x40 DUP2 ADD DUP4 SWAP1 MSTORE PUSH0 PUSH1 0x60 DUP4 PUSH1 0x80 DUP5 PUSH1 0x7 PUSH2 0x7D0 GAS SUB STATICCALL SWAP1 POP DUP1 DUP1 PUSH2 0x56C JUMPI INVALID JUMPDEST POP DUP1 PUSH2 0x576 JUMPI PUSH0 DUP1 REVERT JUMPDEST POP POP SWAP3 SWAP2 POP POP JUMP JUMPDEST PUSH1 0x40 DUP1 MLOAD DUP1 DUP3 ADD SWAP1 SWAP2 MSTORE PUSH0 DUP1 DUP3 MSTORE PUSH1 0x20 DUP3 ADD MSTORE PUSH2 0x599 PUSH2 0xB39 JUMP JUMPDEST DUP4 MLOAD DUP2 MSTORE PUSH1 0x20 DUP1 DUP6 ADD MLOAD DUP2 DUP4 ADD MSTORE DUP4 MLOAD PUSH1 0x40 DUP4 ADD MSTORE DUP4 ADD MLOAD PUSH1 0x60 DUP1 DUP4 ADD SWAP2 SWAP1 SWAP2 MSTORE PUSH0 SWAP1 DUP4 PUSH1 0xC0 DUP5 PUSH1 0x6 PUSH2 0x7D0 GAS SUB STATICCALL SWAP1 POP DUP1 DUP1 PUSH2 0x56C JUMPI INVALID JUMPDEST PUSH1 0x40 DUP1 MLOAD DUP1 DUP3 ADD SWAP1 SWAP2 MSTORE PUSH0 DUP1 DUP3 MSTORE PUSH1 0x20 DUP3 ADD MSTORE DUP2 MLOAD PUSH32 0x30644E72E131A029B85045B68181585D97816A916871CA8D3C208C16D87CFD47 SWAP1 ISZERO DUP1 ISZERO PUSH2 0x618 JUMPI POP PUSH1 0x20 DUP4 ADD MLOAD ISZERO JUMPDEST ISZERO PUSH2 0x637 JUMPI POP POP PUSH1 0x40 DUP1 MLOAD DUP1 DUP3 ADD SWAP1 SWAP2 MSTORE PUSH0 DUP1 DUP3 MSTORE PUSH1 0x20 DUP3 ADD MSTORE SWAP2 SWAP1 POP JUMP JUMPDEST PUSH1 0x40 MLOAD DUP1 PUSH1 0x40 ADD PUSH1 0x40 MSTORE DUP1 DUP5 PUSH0 ADD MLOAD DUP2 MSTORE PUSH1 0x20 ADD DUP3 DUP6 PUSH1 0x20 ADD MLOAD PUSH2 0x65B SWAP2 SWAP1 PUSH2 0xD63 JUMP JUMPDEST PUSH2 0x665 SWAP1 DUP5 PUSH2 0xD82 JUMP JUMPDEST SWAP1 MSTORE SWAP4 SWAP3 POP POP POP JUMP JUMPDEST PUSH1 0x40 DUP1 MLOAD PUSH1 0x4 DUP1 DUP3 MSTORE PUSH1 0xA0 DUP3 ADD SWAP1 SWAP3 MSTORE PUSH0 SWAP2 DUP3 SWAP2 SWAP1 DUP2 PUSH1 0x20 ADD JUMPDEST PUSH1 0x40 DUP1 MLOAD DUP1 DUP3 ADD SWAP1 SWAP2 MSTORE PUSH0 DUP1 DUP3 MSTORE PUSH1 0x20 DUP3 ADD MSTORE DUP2 MSTORE PUSH1 0x20 ADD SWAP1 PUSH1 0x1 SWAP1 SUB SWAP1 DUP2 PUSH2 0x688 JUMPI POP POP PUSH1 0x40 DUP1 MLOAD PUSH1 0x4 DUP1 DUP3 MSTORE PUSH1 0xA0 DUP3 ADD SWAP1 SWAP3 MSTORE SWAP2 SWAP3 POP PUSH0 SWAP2 SWAP1 PUSH1 0x20 DUP3 ADD JUMPDEST PUSH2 0x6D0 PUSH2 0xB57 JUMP JUMPDEST DUP2 MSTORE PUSH1 0x20 ADD SWAP1 PUSH1 0x1 SWAP1 SUB SWAP1 DUP2 PUSH2 0x6C8 JUMPI SWAP1 POP POP SWAP1 POP DUP11 DUP3 PUSH0 DUP2 MLOAD DUP2 LT PUSH2 0x6F8 JUMPI PUSH2 0x6F8 PUSH2 0xD37 JUMP JUMPDEST PUSH1 0x20 MUL PUSH1 0x20 ADD ADD DUP2 SWAP1 MSTORE POP DUP9 DUP3 PUSH1 0x1 DUP2 MLOAD DUP2 LT PUSH2 0x717 JUMPI PUSH2 0x717 PUSH2 0xD37 JUMP JUMPDEST PUSH1 0x20 MUL PUSH1 0x20 ADD ADD DUP2 SWAP1 MSTORE POP DUP7 DUP3 PUSH1 0x2 DUP2 MLOAD DUP2 LT PUSH2 0x736 JUMPI PUSH2 0x736 PUSH2 0xD37 JUMP JUMPDEST PUSH1 0x20 MUL PUSH1 0x20 ADD ADD DUP2 SWAP1 MSTORE POP DUP5 DUP3 PUSH1 0x3 DUP2 MLOAD DUP2 LT PUSH2 0x755 JUMPI PUSH2 0x755 PUSH2 0xD37 JUMP JUMPDEST PUSH1 0x20 MUL PUSH1 0x20 ADD ADD DUP2 SWAP1 MSTORE POP DUP10 DUP2 PUSH0 DUP2 MLOAD DUP2 LT PUSH2 0x773 JUMPI PUSH2 0x773 PUSH2 0xD37 JUMP JUMPDEST PUSH1 0x20 MUL PUSH1 0x20 ADD ADD DUP2 SWAP1 MSTORE POP DUP8 DUP2 PUSH1 0x1 DUP2 MLOAD DUP2 LT PUSH2 0x792 JUMPI PUSH2 0x792 PUSH2 0xD37 JUMP JUMPDEST PUSH1 0x20 MUL PUSH1 0x20 ADD ADD DUP2 SWAP1 MSTORE POP DUP6 DUP2 PUSH1 0x2 DUP2 MLOAD DUP2 LT PUSH2 0x7B1 JUMPI PUSH2 0x7B1 PUSH2 0xD37 JUMP JUMPDEST PUSH1 0x20 MUL PUSH1 0x20 ADD ADD DUP2 SWAP1 MSTORE POP DUP4 DUP2 PUSH1 0x3 DUP2 MLOAD DUP2 LT PUSH2 0x7D0 JUMPI PUSH2 0x7D0 PUSH2 0xD37 JUMP JUMPDEST PUSH1 0x20 MUL PUSH1 0x20 ADD ADD DUP2 SWAP1 MSTORE POP PUSH2 0x7E5 DUP3 DUP3 PUSH2 0x7F4 JUMP JUMPDEST SWAP12 SWAP11 POP POP POP POP POP POP POP POP POP POP POP JUMP JUMPDEST PUSH0 DUP2 MLOAD DUP4 MLOAD EQ PUSH2 0x802 JUMPI PUSH0 DUP1 REVERT JUMPDEST DUP3 MLOAD PUSH0 PUSH2 0x810 DUP3 PUSH1 0x6 PUSH2 0xD95 JUMP JUMPDEST SWAP1 POP PUSH0 DUP2 PUSH8 0xFFFFFFFFFFFFFFFF DUP2 GT ISZERO PUSH2 0x82C JUMPI PUSH2 0x82C PUSH2 0xBB8 JUMP JUMPDEST PUSH1 0x40 MLOAD SWAP1 DUP1 DUP3 MSTORE DUP1 PUSH1 0x20 MUL PUSH1 0x20 ADD DUP3 ADD PUSH1 0x40 MSTORE DUP1 ISZERO PUSH2 0x855 JUMPI DUP2 PUSH1 0x20 ADD PUSH1 0x20 DUP3 MUL DUP1 CALLDATASIZE DUP4 CALLDATACOPY ADD SWAP1 POP JUMPDEST POP SWAP1 POP PUSH0 JUMPDEST DUP4 DUP2 LT ISZERO PUSH2 0xA8C JUMPI DUP7 DUP2 DUP2 MLOAD DUP2 LT PUSH2 0x874 JUMPI PUSH2 0x874 PUSH2 0xD37 JUMP JUMPDEST PUSH1 0x20 MUL PUSH1 0x20 ADD ADD MLOAD PUSH0 ADD MLOAD DUP3 DUP3 PUSH1 0x6 PUSH2 0x88D SWAP2 SWAP1 PUSH2 0xD95 JUMP JUMPDEST PUSH2 0x897 SWAP1 PUSH0 PUSH2 0xD24 JUMP JUMPDEST DUP2 MLOAD DUP2 LT PUSH2 0x8A7 JUMPI PUSH2 0x8A7 PUSH2 0xD37 JUMP JUMPDEST PUSH1 0x20 MUL PUSH1 0x20 ADD ADD DUP2 DUP2 MSTORE POP POP DUP7 DUP2 DUP2 MLOAD DUP2 LT PUSH2 0x8C5 JUMPI PUSH2 0x8C5 PUSH2 0xD37 JUMP JUMPDEST PUSH1 0x20 MUL PUSH1 0x20 ADD ADD MLOAD PUSH1 0x20 ADD MLOAD DUP3 DUP3 PUSH1 0x6 PUSH2 0x8DF SWAP2 SWAP1 PUSH2 0xD95 JUMP JUMPDEST PUSH2 0x8EA SWAP1 PUSH1 0x1 PUSH2 0xD24 JUMP JUMPDEST DUP2 MLOAD DUP2 LT PUSH2 0x8FA JUMPI PUSH2 0x8FA PUSH2 0xD37 JUMP JUMPDEST PUSH1 0x20 MUL PUSH1 0x20 ADD ADD DUP2 DUP2 MSTORE POP POP DUP6 DUP2 DUP2 MLOAD DUP2 LT PUSH2 0x918 JUMPI PUSH2 0x918 PUSH2 0xD37 JUMP JUMPDEST PUSH1 0x20 SWAP1 DUP2 MUL SWAP2 SWAP1 SWAP2 ADD DUP2 ADD MLOAD MLOAD ADD MLOAD DUP3 PUSH2 0x933 DUP4 PUSH1 0x6 PUSH2 0xD95 JUMP JUMPDEST PUSH2 0x93E SWAP1 PUSH1 0x2 PUSH2 0xD24 JUMP JUMPDEST DUP2 MLOAD DUP2 LT PUSH2 0x94E JUMPI PUSH2 0x94E PUSH2 0xD37 JUMP JUMPDEST PUSH1 0x20 MUL PUSH1 0x20 ADD ADD DUP2 DUP2 MSTORE POP POP DUP6 DUP2 DUP2 MLOAD DUP2 LT PUSH2 0x96C JUMPI PUSH2 0x96C PUSH2 0xD37 JUMP JUMPDEST PUSH1 0x20 SWAP1 DUP2 MUL SWAP2 SWAP1 SWAP2 ADD ADD MLOAD MLOAD MLOAD DUP3 PUSH2 0x985 DUP4 PUSH1 0x6 PUSH2 0xD95 JUMP JUMPDEST PUSH2 0x990 SWAP1 PUSH1 0x3 PUSH2 0xD24 JUMP JUMPDEST DUP2 MLOAD DUP2 LT PUSH2 0x9A0 JUMPI PUSH2 0x9A0 PUSH2 0xD37 JUMP JUMPDEST PUSH1 0x20 MUL PUSH1 0x20 ADD ADD DUP2 DUP2 MSTORE POP POP DUP6 DUP2 DUP2 MLOAD DUP2 LT PUSH2 0x9BE JUMPI PUSH2 0x9BE PUSH2 0xD37 JUMP JUMPDEST PUSH1 0x20 MUL PUSH1 0x20 ADD ADD MLOAD PUSH1 0x20 ADD MLOAD PUSH1 0x1 PUSH1 0x2 DUP2 LT PUSH2 0x9DC JUMPI PUSH2 0x9DC PUSH2 0xD37 JUMP JUMPDEST PUSH1 0x20 MUL ADD MLOAD DUP3 PUSH2 0x9ED DUP4 PUSH1 0x6 PUSH2 0xD95 JUMP JUMPDEST PUSH2 0x9F8 SWAP1 PUSH1 0x4 PUSH2 0xD24 JUMP JUMPDEST DUP2 MLOAD DUP2 LT PUSH2 0xA08 JUMPI PUSH2 0xA08 PUSH2 0xD37 JUMP JUMPDEST PUSH1 0x20 MUL PUSH1 0x20 ADD ADD DUP2 DUP2 MSTORE POP POP DUP6 DUP2 DUP2 MLOAD DUP2 LT PUSH2 0xA26 JUMPI PUSH2 0xA26 PUSH2 0xD37 JUMP JUMPDEST PUSH1 0x20 MUL PUSH1 0x20 ADD ADD MLOAD PUSH1 0x20 ADD MLOAD PUSH0 PUSH1 0x2 DUP2 LT PUSH2 0xA43 JUMPI PUSH2 0xA43 PUSH2 0xD37 JUMP JUMPDEST PUSH1 0x20 MUL ADD MLOAD DUP3 PUSH2 0xA54 DUP4 PUSH1 0x6 PUSH2 0xD95 JUMP JUMPDEST PUSH2 0xA5F SWAP1 PUSH1 0x5 PUSH2 0xD24 JUMP JUMPDEST DUP2 MLOAD DUP2 LT PUSH2 0xA6F JUMPI PUSH2 0xA6F PUSH2 0xD37 JUMP JUMPDEST PUSH1 0x20 SWAP1 DUP2 MUL SWAP2 SWAP1 SWAP2 ADD ADD MSTORE DUP1 PUSH2 0xA84 DUP2 PUSH2 0xD4B JUMP JUMPDEST SWAP2 POP POP PUSH2 0x85A JUMP JUMPDEST POP PUSH2 0xA95 PUSH2 0xB7C JUMP JUMPDEST PUSH0 PUSH1 0x20 DUP3 PUSH1 0x20 DUP7 MUL PUSH1 0x20 DUP7 ADD PUSH1 0x8 PUSH2 0x7D0 GAS SUB STATICCALL SWAP1 POP DUP1 DUP1 PUSH2 0xAB3 JUMPI INVALID JUMPDEST POP DUP1 PUSH2 0xABD JUMPI PUSH0 DUP1 REVERT JUMPDEST POP MLOAD ISZERO ISZERO SWAP7 SWAP6 POP POP POP POP POP POP JUMP JUMPDEST PUSH1 0x40 DUP1 MLOAD PUSH1 0xE0 DUP2 ADD SWAP1 SWAP2 MSTORE PUSH0 PUSH1 0xA0 DUP3 ADD DUP2 DUP2 MSTORE PUSH1 0xC0 DUP4 ADD SWAP2 SWAP1 SWAP2 MSTORE DUP2 MSTORE PUSH1 0x20 DUP2 ADD PUSH2 0xAF4 PUSH2 0xB57 JUMP JUMPDEST DUP2 MSTORE PUSH1 0x20 ADD PUSH2 0xB01 PUSH2 0xB57 JUMP JUMPDEST DUP2 MSTORE PUSH1 0x20 ADD PUSH2 0xB0E PUSH2 0xB57 JUMP JUMPDEST DUP2 MSTORE PUSH1 0x20 ADD PUSH1 0x60 DUP2 MSTORE POP SWAP1 JUMP JUMPDEST PUSH1 0x40 MLOAD DUP1 PUSH1 0x60 ADD PUSH1 0x40 MSTORE DUP1 PUSH1 0x3 SWAP1 PUSH1 0x20 DUP3 MUL DUP1 CALLDATASIZE DUP4 CALLDATACOPY POP SWAP2 SWAP3 SWAP2 POP POP JUMP JUMPDEST PUSH1 0x40 MLOAD DUP1 PUSH1 0x80 ADD PUSH1 0x40 MSTORE DUP1 PUSH1 0x4 SWAP1 PUSH1 0x20 DUP3 MUL DUP1 CALLDATASIZE DUP4 CALLDATACOPY POP SWAP2 SWAP3 SWAP2 POP POP JUMP JUMPDEST PUSH1 0x40 MLOAD DUP1 PUSH1 0x40 ADD PUSH1 0x40 MSTORE DUP1 PUSH2 0xB6A PUSH2 0xB9A JUMP JUMPDEST DUP2 MSTORE PUSH1 0x20 ADD PUSH2 0xB77 PUSH2 0xB9A JUMP JUMPDEST SWAP1 MSTORE SWAP1 JUMP JUMPDEST PUSH1 0x40 MLOAD DUP1 PUSH1 0x20 ADD PUSH1 0x40 MSTORE DUP1 PUSH1 0x1 SWAP1 PUSH1 0x20 DUP3 MUL DUP1 CALLDATASIZE DUP4 CALLDATACOPY POP SWAP2 SWAP3 SWAP2 POP POP JUMP JUMPDEST PUSH1 0x40 MLOAD DUP1 PUSH1 0x40 ADD PUSH1 0x40 MSTORE DUP1 PUSH1 0x2 SWAP1 PUSH1 0x20 DUP3 MUL DUP1 CALLDATASIZE DUP4 CALLDATACOPY POP SWAP2 SWAP3 SWAP2 POP POP JUMP JUMPDEST PUSH4 0x4E487B71 PUSH1 0xE0 SHL PUSH0 MSTORE PUSH1 0x41 PUSH1 0x4 MSTORE PUSH1 0x24 PUSH0 REVERT JUMPDEST PUSH1 0x40 DUP1 MLOAD SWAP1 DUP2 ADD PUSH8 0xFFFFFFFFFFFFFFFF DUP2 GT DUP3 DUP3 LT OR ISZERO PUSH2 0xBEF JUMPI PUSH2 0xBEF PUSH2 0xBB8 JUMP JUMPDEST PUSH1 0x40 MSTORE SWAP1 JUMP JUMPDEST PUSH0 PUSH1 0x40 DUP3 DUP5 SUB SLT ISZERO PUSH2 0xC05 JUMPI PUSH0 DUP1 REVERT JUMPDEST PUSH2 0xC0D PUSH2 0xBCC JUMP JUMPDEST SWAP1 POP DUP2 CALLDATALOAD DUP2 MSTORE PUSH1 0x20 DUP3 ADD CALLDATALOAD PUSH1 0x20 DUP3 ADD MSTORE SWAP3 SWAP2 POP POP JUMP JUMPDEST PUSH0 DUP3 PUSH1 0x1F DUP4 ADD SLT PUSH2 0xC32 JUMPI PUSH0 DUP1 REVERT JUMPDEST PUSH2 0xC3A PUSH2 0xBCC JUMP JUMPDEST DUP1 PUSH1 0x40 DUP5 ADD DUP6 DUP2 GT ISZERO PUSH2 0xC4B JUMPI PUSH0 DUP1 REVERT JUMPDEST DUP5 JUMPDEST DUP2 DUP2 LT ISZERO PUSH2 0xC65 JUMPI DUP1 CALLDATALOAD DUP5 MSTORE PUSH1 0x20 SWAP4 DUP5 ADD SWAP4 ADD PUSH2 0xC4D JUMP JUMPDEST POP SWAP1 SWAP6 SWAP5 POP POP POP POP POP JUMP JUMPDEST PUSH0 DUP2 DUP4 SUB PUSH2 0x100 DUP2 SLT ISZERO PUSH2 0xC82 JUMPI PUSH0 DUP1 REVERT JUMPDEST PUSH1 0x40 MLOAD PUSH1 0x60 DUP2 ADD DUP2 DUP2 LT PUSH8 0xFFFFFFFFFFFFFFFF DUP3 GT OR ISZERO PUSH2 0xCA5 JUMPI PUSH2 0xCA5 PUSH2 0xBB8 JUMP JUMPDEST PUSH1 0x40 MSTORE PUSH2 0xCB2 DUP6 DUP6 PUSH2 0xBF5 JUMP JUMPDEST DUP2 MSTORE PUSH1 0x80 PUSH1 0x3F NOT DUP4 ADD SLT ISZERO PUSH2 0xCC5 JUMPI PUSH0 DUP1 REVERT JUMPDEST PUSH2 0xCCD PUSH2 0xBCC JUMP JUMPDEST SWAP2 POP PUSH2 0xCDC DUP6 PUSH1 0x40 DUP7 ADD PUSH2 0xC23 JUMP JUMPDEST DUP3 MSTORE PUSH2 0xCEB DUP6 PUSH1 0x80 DUP7 ADD PUSH2 0xC23 JUMP JUMPDEST PUSH1 0x20 DUP4 ADD MSTORE DUP2 PUSH1 0x20 DUP3 ADD MSTORE PUSH2 0xD03 DUP6 PUSH1 0xC0 DUP7 ADD PUSH2 0xBF5 JUMP JUMPDEST PUSH1 0x40 DUP3 ADD MSTORE SWAP5 SWAP4 POP POP POP POP JUMP JUMPDEST PUSH4 0x4E487B71 PUSH1 0xE0 SHL PUSH0 MSTORE PUSH1 0x11 PUSH1 0x4 MSTORE PUSH1 0x24 PUSH0 REVERT JUMPDEST DUP1 DUP3 ADD DUP1 DUP3 GT ISZERO PUSH2 0x1FC JUMPI PUSH2 0x1FC PUSH2 0xD10 JUMP JUMPDEST PUSH4 0x4E487B71 PUSH1 0xE0 SHL PUSH0 MSTORE PUSH1 0x32 PUSH1 0x4 MSTORE PUSH1 0x24 PUSH0 REVERT JUMPDEST PUSH0 PUSH1 0x1 DUP3 ADD PUSH2 0xD5C JUMPI PUSH2 0xD5C PUSH2 0xD10 JUMP JUMPDEST POP PUSH1 0x1 ADD SWAP1 JUMP JUMPDEST PUSH0 DUP3 PUSH2 0xD7D JUMPI PUSH4 0x4E487B71 PUSH1 0xE0 SHL PUSH0 MSTORE PUSH1 0x12 PUSH1 0x4 MSTORE PUSH1 0x24 PUSH0 REVERT JUMPDEST POP MOD SWAP1 JUMP JUMPDEST DUP2 DUP2 SUB DUP2 DUP2 GT ISZERO PUSH2 0x1FC JUMPI PUSH2 0x1FC PUSH2 0xD10 JUMP JUMPDEST DUP1 DUP3 MUL DUP2 ISZERO DUP3 DUP3 DIV DUP5 EQ OR PUSH2 0x1FC JUMPI PUSH2 0x1FC PUSH2 0xD10 JUMP INVALID LOG2 PUSH5 0x6970667358 0x22 SLT KECCAK256 0xCE RETURNDATASIZE 0xE0 0xC8 0xD2 MULMOD MOD PUSH30 0xAE980BA59CFCE886F90506DB99E7C6BE4BB4203239864D9F64736F6C6343 STOP ADDMOD ISZERO STOP CALLER "
		},
		"gasEstimates": {
			"creation": {
				"codeDepositCost": "710800",
				"executionCost": "745",
				"totalCost": "711545"
			},
			"external": {
				"verifyTx(((uint256,uint256),(uint256[2],uint256[2]),(uint256,uint256)))": "infinite"
			},
			"internal": {
				"verify(uint256[] memory,struct Verifier.Proof memory)": "infinite",
				"verifyingKey()": "infinite"
			}
		},
		"methodIdentifiers": {
			"verifyTx(((uint256,uint256),(uint256[2],uint256[2]),(uint256,uint256)))": "f6af0311"
		}
	},
	"abi": [
		{
			"inputs": [
				{
					"components": [
						{
							"components": [
								{
									"internalType": "uint256",
									"name": "X",
									"type": "uint256"
								},
								{
									"internalType": "uint256",
									"name": "Y",
									"type": "uint256"
								}
							],
							"internalType": "struct Pairing.G1Point",
							"name": "a",
							"type": "tuple"
						},
						{
							"components": [
								{
									"internalType": "uint256[2]",
									"name": "X",
									"type": "uint256[2]"
								},
								{
									"internalType": "uint256[2]",
									"name": "Y",
									"type": "uint256[2]"
								}
							],
							"internalType": "struct Pairing.G2Point",
							"name": "b",
							"type": "tuple"
						},
						{
							"components": [
								{
									"internalType": "uint256",
									"name": "X",
									"type": "uint256"
								},
								{
									"internalType": "uint256",
									"name": "Y",
									"type": "uint256"
								}
							],
							"internalType": "struct Pairing.G1Point",
							"name": "c",
							"type": "tuple"
						}
					],
					"internalType": "struct Verifier.Proof",
					"name": "proof",
					"type": "tuple"
				}
			],
			"name": "verifyTx",
			"outputs": [
				{
					"internalType": "bool",
					"name": "r",
					"type": "bool"
				}
			],
			"stateMutability": "view",
			"type": "function"
		}
	]
}