{
	"data": {
		"bytecode": {
			"linkReferences": {},
			"object": "608060405234801561000f575f80fd5b506112b38061001d5f395ff3fe608060405234801561000f575f80fd5b5060043610610029575f3560e01c8063f6af03111461002d575b5f80fd5b61004760048036038101906100429190611079565b61005d565b60405161005491906110bf565b60405180910390f35b5f805f67ffffffffffffffff81111561007957610078610e1c565b5b6040519080825280602002602001820160405280156100a75781602001602082028036833780820191505090505b5090505f6100b582856100ce565b036100c45760019150506100c9565b5f9150505b919050565b5f807f30644e72e131a029b85045b68181585d2833e84879b9709143e1f593f000000190505f6100fc610259565b9050806080015151600186516101129190611105565b1461011b575f80fd5b5f60405180604001604052805f81526020015f81525090505f5b86518110156101cf578387828151811061015257610151611138565b5b602002602001015110610163575f80fd5b6101ba826101b5856080015160018561017c9190611105565b8151811061018d5761018c611138565b5b60200260200101518a85815181106101a8576101a7611138565b5b60200260200101516105e3565b610680565b915080806101c790611165565b915050610135565b506101f88183608001515f815181106101eb576101ea611138565b5b6020026020010151610680565b905061023c855f0151866020015161020f84610742565b85604001516102218a60400151610742565b8760600151610232895f0151610742565b89602001516107e0565b61024c5760019350505050610253565b5f93505050505b92915050565b610261610cee565b60405180604001604052807f206d960593d941bf781f3b6e3f95916f6520377bff96299cd16ba8d8ef9120b581526020017f29a95be0f241b789a1fe8cdcf9c7e3f3d4aa637c5dcb0382f88285f6582adade815250815f0181905250604051806040016040528060405180604001604052807f251a596db059ea83f20caa9d1b4374816cca7f5f9c9c390f909d7f434686a58f81526020017f291f5a2ff34731a219db79627796becab5d92e4ad89249ae03b39b65737d1983815250815260200160405180604001604052807f2d509c0da4ab56f26890d29d0cdd6f5a4a9cedf0aa81f06e8487617918947eea81526020017f2204201ec00a2d0da8b4cb010c79f4ebcecbf9707e6f4f551e4d1f862073dac38152508152508160200181905250604051806040016040528060405180604001604052807f1dd14e44f2b02a66b5e29b44aa92bf941419d625f4616fc2a95e77fd5811dadb81526020017f26a61cc4785a135211c384bd63d8f0a31af7a4cde00f3e9988e5443c87952b34815250815260200160405180604001604052807f15aabbe70630d13fe6b322ab27d8324a46fab2e9198377f9c6cd34667277453481526020017f1554660dda2fa742dea97963e3fd288334955bcbbce2f7a49a5954bd3420039a8152508152508160400181905250604051806040016040528060405180604001604052807f2d836df4b09b09bc96a308a8457129bd716ac8996628901ba014777e38b91d3681526020017f204672d7224748a862be81d235d059a0d0b61cd8e9ba31e0b7a54b0884a28b1b815250815260200160405180604001604052807f19437a9cdfd12b7d453b5193141d0cfbbdf41cd30a886d7a0d92b34c5e2324d581526020017f1e49c1f10b587d76b876e8ff64d69e3a22ad9704d67d53ca05b5a5706d339d3d8152508152508160600181905250600167ffffffffffffffff81111561052757610526610e1c565b5b60405190808252806020026020018201604052801561056057816020015b61054d610d35565b8152602001906001900390816105455790505b50816080018190525060405180604001604052807f0ba3aaceace761acc25977784cffe381c89288ee0c978c0c256b93cd7c2f552f81526020017f06bd36158541f776b681ec199087fcb24d44e92330b055c7e7ebd5f9edcb7d6881525081608001515f815181106105d5576105d4611138565b5b602002602001018190525090565b6105eb610d35565b6105f3610d4d565b835f0151815f6003811061060a57610609611138565b5b60200201818152505083602001518160016003811061062c5761062b611138565b5b602002018181525050828160026003811061064a57610649611138565b5b6020020181815250505f60608360808460076107d05a03fa9050805f810361066e57fe5b5080610678575f80fd5b505092915050565b610688610d35565b610690610d6f565b835f0151815f600481106106a7576106a6611138565b5b6020020181815250508360200151816001600481106106c9576106c8611138565b5b602002018181525050825f0151816002600481106106ea576106e9611138565b5b60200201818152505082602001518160036004811061070c5761070b611138565b5b6020020181815250505f60608360c08460066107d05a03fa9050805f810361073057fe5b508061073a575f80fd5b505092915050565b61074a610d35565b5f7f30644e72e131a029b85045b68181585d97816a916871ca8d3c208c16d87cfd4790505f835f015114801561078357505f8360200151145b156107a55760405180604001604052805f81526020015f8152509150506107db565b6040518060400160405280845f015181526020018285602001516107c991906111d9565b836107d49190611209565b8152509150505b919050565b5f80600467ffffffffffffffff8111156107fd576107fc610e1c565b5b60405190808252806020026020018201604052801561083657816020015b610823610d35565b81526020019060019003908161081b5790505b5090505f600467ffffffffffffffff81111561085557610854610e1c565b5b60405190808252806020026020018201604052801561088e57816020015b61087b610d91565b8152602001906001900390816108735790505b5090508a825f815181106108a5576108a4611138565b5b602002602001018190525088826001815181106108c5576108c4611138565b5b602002602001018190525086826002815181106108e5576108e4611138565b5b6020026020010181905250848260038151811061090557610904611138565b5b602002602001018190525089815f8151811061092457610923611138565b5b6020026020010181905250878160018151811061094457610943611138565b5b6020026020010181905250858160028151811061096457610963611138565b5b6020026020010181905250838160038151811061098457610983611138565b5b602002602001018190525061099982826109a9565b9250505098975050505050505050565b5f81518351146109b7575f80fd5b5f835190505f6006826109ca919061123c565b90505f8167ffffffffffffffff8111156109e7576109e6610e1c565b5b604051908082528060200260200182016040528015610a155781602001602082028036833780820191505090505b5090505f5b83811015610c9357868181518110610a3557610a34611138565b5b60200260200101515f0151825f600684610a4f919061123c565b610a599190611105565b81518110610a6a57610a69611138565b5b602002602001018181525050868181518110610a8957610a88611138565b5b602002602001015160200151826001600684610aa5919061123c565b610aaf9190611105565b81518110610ac057610abf611138565b5b602002602001018181525050858181518110610adf57610ade611138565b5b60200260200101515f0151600160028110610afd57610afc611138565b5b6020020151826002600684610b12919061123c565b610b1c9190611105565b81518110610b2d57610b2c611138565b5b602002602001018181525050858181518110610b4c57610b4b611138565b5b60200260200101515f01515f60028110610b6957610b68611138565b5b6020020151826003600684610b7e919061123c565b610b889190611105565b81518110610b9957610b98611138565b5b602002602001018181525050858181518110610bb857610bb7611138565b5b602002602001015160200151600160028110610bd757610bd6611138565b5b6020020151826004600684610bec919061123c565b610bf69190611105565b81518110610c0757610c06611138565b5b602002602001018181525050858181518110610c2657610c25611138565b5b6020026020010151602001515f60028110610c4457610c43611138565b5b6020020151826005600684610c59919061123c565b610c639190611105565b81518110610c7457610c73611138565b5b6020026020010181815250508080610c8b90611165565b915050610a1a565b50610c9c610db7565b5f602082602086026020860160086107d05a03fa9050805f8103610cbc57fe5b5080610cc6575f80fd5b5f825f60018110610cda57610cd9611138565b5b602002015114159550505050505092915050565b6040518060a00160405280610d01610d35565b8152602001610d0e610d91565b8152602001610d1b610d91565b8152602001610d28610d91565b8152602001606081525090565b60405180604001604052805f81526020015f81525090565b6040518060600160405280600390602082028036833780820191505090505090565b6040518060800160405280600490602082028036833780820191505090505090565b6040518060400160405280610da4610dd9565b8152602001610db1610dd9565b81525090565b6040518060200160405280600190602082028036833780820191505090505090565b6040518060400160405280600290602082028036833780820191505090505090565b5f604051905090565b5f80fd5b5f80fd5b5f601f19601f8301169050919050565b7f4e487b71000000000000000000000000000000000000000000000000000000005f52604160045260245ffd5b610e5282610e0c565b810181811067ffffffffffffffff82111715610e7157610e70610e1c565b5b80604052505050565b5f610e83610dfb565b9050610e8f8282610e49565b919050565b5f819050919050565b610ea681610e94565b8114610eb0575f80fd5b50565b5f81359050610ec181610e9d565b92915050565b5f60408284031215610edc57610edb610e08565b5b610ee66040610e7a565b90505f610ef584828501610eb3565b5f830152506020610f0884828501610eb3565b60208301525092915050565b5f80fd5b5f67ffffffffffffffff821115610f3257610f31610e1c565b5b602082029050919050565b5f80fd5b5f610f53610f4e84610f18565b610e7a565b90508060208402830185811115610f6d57610f6c610f3d565b5b835b81811015610f965780610f828882610eb3565b845260208401935050602081019050610f6f565b5050509392505050565b5f82601f830112610fb457610fb3610f14565b5b6002610fc1848285610f41565b91505092915050565b5f60808284031215610fdf57610fde610e08565b5b610fe96040610e7a565b90505f610ff884828501610fa0565b5f83015250604061100b84828501610fa0565b60208301525092915050565b5f610100828403121561102d5761102c610e08565b5b6110376060610e7a565b90505f61104684828501610ec7565b5f83015250604061105984828501610fca565b60208301525060c061106d84828501610ec7565b60408301525092915050565b5f610100828403121561108f5761108e610e04565b5b5f61109c84828501611017565b91505092915050565b5f8115159050919050565b6110b9816110a5565b82525050565b5f6020820190506110d25f8301846110b0565b92915050565b7f4e487b71000000000000000000000000000000000000000000000000000000005f52601160045260245ffd5b5f61110f82610e94565b915061111a83610e94565b9250828201905080821115611132576111316110d8565b5b92915050565b7f4e487b71000000000000000000000000000000000000000000000000000000005f52603260045260245ffd5b5f61116f82610e94565b91507fffffffffffffffffffffffffffffffffffffffffffffffffffffffffffffffff82036111a1576111a06110d8565b5b600182019050919050565b7f4e487b71000000000000000000000000000000000000000000000000000000005f52601260045260245ffd5b5f6111e382610e94565b91506111ee83610e94565b9250826111fe576111fd6111ac565b5b828206905092915050565b5f61121382610e94565b915061121e83610e94565b9250828203905081811115611236576112356110d8565b5b92915050565b5f61124682610e94565b915061125183610e94565b925082820261125f81610e94565b91508282048414831517611276576112756110d8565b5b509291505056fea2646970667358221220985a0571d86672978749830e64d4ab1f8a02536d96abaaae80082ac6deb5887264736f6c63430008150033",
			"opcodes": "PUSH1 0x80 PUSH1 0x40 MSTORE CALLVALUE DUP1 ISZERO PUSH2 0xF JUMPI PUSH0 DUP1 REVERT JUMPDEST POP PUSH2 0x12B3 DUP1 PUSH2 0x1D PUSH0 CODECOPY PUSH0 RETURN INVALID PUSH1 0x80 PUSH1 0x40 MSTORE CALLVALUE DUP1 ISZERO PUSH2 0xF JUMPI PUSH0 DUP1 REVERT JUMPDEST POP PUSH1 0x4 CALLDATASIZE LT PUSH2 0x29 JUMPI PUSH0 CALLDATALOAD PUSH1 0xE0 SHR DUP1 PUSH4 0xF6AF0311 EQ PUSH2 0x2D JUMPI JUMPDEST PUSH0 DUP1 REVERT JUMPDEST PUSH2 0x47 PUSH1 0x4 DUP1 CALLDATASIZE SUB DUP2 ADD SWAP1 PUSH2 0x42 SWAP2 SWAP1 PUSH2 0x1079 JUMP JUMPDEST PUSH2 0x5D JUMP JUMPDEST PUSH1 0x40 MLOAD PUSH2 0x54 SWAP2 SWAP1 PUSH2 0x10BF JUMP JUMPDEST PUSH1 0x40 MLOAD DUP1 SWAP2 SUB SWAP1 RETURN JUMPDEST PUSH0 DUP1 PUSH0 PUSH8 0xFFFFFFFFFFFFFFFF DUP2 GT ISZERO PUSH2 0x79 JUMPI PUSH2 0x78 PUSH2 0xE1C JUMP JUMPDEST JUMPDEST PUSH1 0x40 MLOAD SWAP1 DUP1 DUP3 MSTORE DUP1 PUSH1 0x20 MUL PUSH1 0x20 ADD DUP3 ADD PUSH1 0x40 MSTORE DUP1 ISZERO PUSH2 0xA7 JUMPI DUP2 PUSH1 0x20 ADD PUSH1 0x20 DUP3 MUL DUP1 CALLDATASIZE DUP4 CALLDATACOPY DUP1 DUP3 ADD SWAP2 POP POP SWAP1 POP JUMPDEST POP SWAP1 POP PUSH0 PUSH2 0xB5 DUP3 DUP6 PUSH2 0xCE JUMP JUMPDEST SUB PUSH2 0xC4 JUMPI PUSH1 0x1 SWAP2 POP POP PUSH2 0xC9 JUMP JUMPDEST PUSH0 SWAP2 POP POP JUMPDEST SWAP2 SWAP1 POP JUMP JUMPDEST PUSH0 DUP1 PUSH32 0x30644E72E131A029B85045B68181585D2833E84879B9709143E1F593F0000001 SWAP1 POP PUSH0 PUSH2 0xFC PUSH2 0x259 JUMP JUMPDEST SWAP1 POP DUP1 PUSH1 0x80 ADD MLOAD MLOAD PUSH1 0x1 DUP7 MLOAD PUSH2 0x112 SWAP2 SWAP1 PUSH2 0x1105 JUMP JUMPDEST EQ PUSH2 0x11B JUMPI PUSH0 DUP1 REVERT JUMPDEST PUSH0 PUSH1 0x40 MLOAD DUP1 PUSH1 0x40 ADD PUSH1 0x40 MSTORE DUP1 PUSH0 DUP2 MSTORE PUSH1 0x20 ADD PUSH0 DUP2 MSTORE POP SWAP1 POP PUSH0 JUMPDEST DUP7 MLOAD DUP2 LT ISZERO PUSH2 0x1CF JUMPI DUP4 DUP8 DUP3 DUP2 MLOAD DUP2 LT PUSH2 0x152 JUMPI PUSH2 0x151 PUSH2 0x1138 JUMP JUMPDEST JUMPDEST PUSH1 0x20 MUL PUSH1 0x20 ADD ADD MLOAD LT PUSH2 0x163 JUMPI PUSH0 DUP1 REVERT JUMPDEST PUSH2 0x1BA DUP3 PUSH2 0x1B5 DUP6 PUSH1 0x80 ADD MLOAD PUSH1 0x1 DUP6 PUSH2 0x17C SWAP2 SWAP1 PUSH2 0x1105 JUMP JUMPDEST DUP2 MLOAD DUP2 LT PUSH2 0x18D JUMPI PUSH2 0x18C PUSH2 0x1138 JUMP JUMPDEST JUMPDEST PUSH1 0x20 MUL PUSH1 0x20 ADD ADD MLOAD DUP11 DUP6 DUP2 MLOAD DUP2 LT PUSH2 0x1A8 JUMPI PUSH2 0x1A7 PUSH2 0x1138 JUMP JUMPDEST JUMPDEST PUSH1 0x20 MUL PUSH1 0x20 ADD ADD MLOAD PUSH2 0x5E3 JUMP JUMPDEST PUSH2 0x680 JUMP JUMPDEST SWAP2 POP DUP1 DUP1 PUSH2 0x1C7 SWAP1 PUSH2 0x1165 JUMP JUMPDEST SWAP2 POP POP PUSH2 0x135 JUMP JUMPDEST POP PUSH2 0x1F8 DUP2 DUP4 PUSH1 0x80 ADD MLOAD PUSH0 DUP2 MLOAD DUP2 LT PUSH2 0x1EB JUMPI PUSH2 0x1EA PUSH2 0x1138 JUMP JUMPDEST JUMPDEST PUSH1 0x20 MUL PUSH1 0x20 ADD ADD MLOAD PUSH2 0x680 JUMP JUMPDEST SWAP1 POP PUSH2 0x23C DUP6 PUSH0 ADD MLOAD DUP7 PUSH1 0x20 ADD MLOAD PUSH2 0x20F DUP5 PUSH2 0x742 JUMP JUMPDEST DUP6 PUSH1 0x40 ADD MLOAD PUSH2 0x221 DUP11 PUSH1 0x40 ADD MLOAD PUSH2 0x742 JUMP JUMPDEST DUP8 PUSH1 0x60 ADD MLOAD PUSH2 0x232 DUP10 PUSH0 ADD MLOAD PUSH2 0x742 JUMP JUMPDEST DUP10 PUSH1 0x20 ADD MLOAD PUSH2 0x7E0 JUMP JUMPDEST PUSH2 0x24C JUMPI PUSH1 0x1 SWAP4 POP POP POP POP PUSH2 0x253 JUMP JUMPDEST PUSH0 SWAP4 POP POP POP POP JUMPDEST SWAP3 SWAP2 POP POP JUMP JUMPDEST PUSH2 0x261 PUSH2 0xCEE JUMP JUMPDEST PUSH1 0x40 MLOAD DUP1 PUSH1 0x40 ADD PUSH1 0x40 MSTORE DUP1 PUSH32 0x206D960593D941BF781F3B6E3F95916F6520377BFF96299CD16BA8D8EF9120B5 DUP2 MSTORE PUSH1 0x20 ADD PUSH32 0x29A95BE0F241B789A1FE8CDCF9C7E3F3D4AA637C5DCB0382F88285F6582ADADE DUP2 MSTORE POP DUP2 PUSH0 ADD DUP2 SWAP1 MSTORE POP PUSH1 0x40 MLOAD DUP1 PUSH1 0x40 ADD PUSH1 0x40 MSTORE DUP1 PUSH1 0x40 MLOAD DUP1 PUSH1 0x40 ADD PUSH1 0x40 MSTORE DUP1 PUSH32 0x251A596DB059EA83F20CAA9D1B4374816CCA7F5F9C9C390F909D7F434686A58F DUP2 MSTORE PUSH1 0x20 ADD PUSH32 0x291F5A2FF34731A219DB79627796BECAB5D92E4AD89249AE03B39B65737D1983 DUP2 MSTORE POP DUP2 MSTORE PUSH1 0x20 ADD PUSH1 0x40 MLOAD DUP1 PUSH1 0x40 ADD PUSH1 0x40 MSTORE DUP1 PUSH32 0x2D509C0DA4AB56F26890D29D0CDD6F5A4A9CEDF0AA81F06E8487617918947EEA DUP2 MSTORE PUSH1 0x20 ADD PUSH32 0x2204201EC00A2D0DA8B4CB010C79F4EBCECBF9707E6F4F551E4D1F862073DAC3 DUP2 MSTORE POP DUP2 MSTORE POP DUP2 PUSH1 0x20 ADD DUP2 SWAP1 MSTORE POP PUSH1 0x40 MLOAD DUP1 PUSH1 0x40 ADD PUSH1 0x40 MSTORE DUP1 PUSH1 0x40 MLOAD DUP1 PUSH1 0x40 ADD PUSH1 0x40 MSTORE DUP1 PUSH32 0x1DD14E44F2B02A66B5E29B44AA92BF941419D625F4616FC2A95E77FD5811DADB DUP2 MSTORE PUSH1 0x20 ADD PUSH32 0x26A61CC4785A135211C384BD63D8F0A31AF7A4CDE00F3E9988E5443C87952B34 DUP2 MSTORE POP DUP2 MSTORE PUSH1 0x20 ADD PUSH1 0x40 MLOAD DUP1 PUSH1 0x40 ADD PUSH1 0x40 MSTORE DUP1 PUSH32 0x15AABBE70630D13FE6B322AB27D8324A46FAB2E9198377F9C6CD346672774534 DUP2 MSTORE PUSH1 0x20 ADD PUSH32 0x1554660DDA2FA742DEA97963E3FD288334955BCBBCE2F7A49A5954BD3420039A DUP2 MSTORE POP DUP2 MSTORE POP DUP2 PUSH1 0x40 ADD DUP2 SWAP1 MSTORE POP PUSH1 0x40 MLOAD DUP1 PUSH1 0x40 ADD PUSH1 0x40 MSTORE DUP1 PUSH1 0x40 MLOAD DUP1 PUSH1 0x40 ADD PUSH1 0x40 MSTORE DUP1 PUSH32 0x2D836DF4B09B09BC96A308A8457129BD716AC8996628901BA014777E38B91D36 DUP2 MSTORE PUSH1 0x20 ADD PUSH32 0x204672D7224748A862BE81D235D059A0D0B61CD8E9BA31E0B7A54B0884A28B1B DUP2 MSTORE POP DUP2 MSTORE PUSH1 0x20 ADD PUSH1 0x40 MLOAD DUP1 PUSH1 0x40 ADD PUSH1 0x40 MSTORE DUP1 PUSH32 0x19437A9CDFD12B7D453B5193141D0CFBBDF41CD30A886D7A0D92B34C5E2324D5 DUP2 MSTORE PUSH1 0x20 ADD PUSH32 0x1E49C1F10B587D76B876E8FF64D69E3A22AD9704D67D53CA05B5A5706D339D3D DUP2 MSTORE POP DUP2 MSTORE POP DUP2 PUSH1 0x60 ADD DUP2 SWAP1 MSTORE POP PUSH1 0x1 PUSH8 0xFFFFFFFFFFFFFFFF DUP2 GT ISZERO PUSH2 0x527 JUMPI PUSH2 0x526 PUSH2 0xE1C JUMP JUMPDEST JUMPDEST PUSH1 0x40 MLOAD SWAP1 DUP1 DUP3 MSTORE DUP1 PUSH1 0x20 MUL PUSH1 0x20 ADD DUP3 ADD PUSH1 0x40 MSTORE DUP1 ISZERO PUSH2 0x560 JUMPI DUP2 PUSH1 0x20 ADD JUMPDEST PUSH2 0x54D PUSH2 0xD35 JUMP JUMPDEST DUP2 MSTORE PUSH1 0x20 ADD SWAP1 PUSH1 0x1 SWAP1 SUB SWAP1 DUP2 PUSH2 0x545 JUMPI SWAP1 POP JUMPDEST POP DUP2 PUSH1 0x80 ADD DUP2 SWAP1 MSTORE POP PUSH1 0x40 MLOAD DUP1 PUSH1 0x40 ADD PUSH1 0x40 MSTORE DUP1 PUSH32 0xBA3AACEACE761ACC25977784CFFE381C89288EE0C978C0C256B93CD7C2F552F DUP2 MSTORE PUSH1 0x20 ADD PUSH32 0x6BD36158541F776B681EC199087FCB24D44E92330B055C7E7EBD5F9EDCB7D68 DUP2 MSTORE POP DUP2 PUSH1 0x80 ADD MLOAD PUSH0 DUP2 MLOAD DUP2 LT PUSH2 0x5D5 JUMPI PUSH2 0x5D4 PUSH2 0x1138 JUMP JUMPDEST JUMPDEST PUSH1 0x20 MUL PUSH1 0x20 ADD ADD DUP2 SWAP1 MSTORE POP SWAP1 JUMP JUMPDEST PUSH2 0x5EB PUSH2 0xD35 JUMP JUMPDEST PUSH2 0x5F3 PUSH2 0xD4D JUMP JUMPDEST DUP4 PUSH0 ADD MLOAD DUP2 PUSH0 PUSH1 0x3 DUP2 LT PUSH2 0x60A JUMPI PUSH2 0x609 PUSH2 0x1138 JUMP JUMPDEST JUMPDEST PUSH1 0x20 MUL ADD DUP2 DUP2 MSTORE POP POP DUP4 PUSH1 0x20 ADD MLOAD DUP2 PUSH1 0x1 PUSH1 0x3 DUP2 LT PUSH2 0x62C JUMPI PUSH2 0x62B PUSH2 0x1138 JUMP JUMPDEST JUMPDEST PUSH1 0x20 MUL ADD DUP2 DUP2 MSTORE POP POP DUP3 DUP2 PUSH1 0x2 PUSH1 0x3 DUP2 LT PUSH2 0x64A JUMPI PUSH2 0x649 PUSH2 0x1138 JUMP JUMPDEST JUMPDEST PUSH1 0x20 MUL ADD DUP2 DUP2 MSTORE POP POP PUSH0 PUSH1 0x60 DUP4 PUSH1 0x80 DUP5 PUSH1 0x7 PUSH2 0x7D0 GAS SUB STATICCALL SWAP1 POP DUP1 PUSH0 DUP2 SUB PUSH2 0x66E JUMPI INVALID JUMPDEST POP DUP1 PUSH2 0x678 JUMPI PUSH0 DUP1 REVERT JUMPDEST POP POP SWAP3 SWAP2 POP POP JUMP JUMPDEST PUSH2 0x688 PUSH2 0xD35 JUMP JUMPDEST PUSH2 0x690 PUSH2 0xD6F JUMP JUMPDEST DUP4 PUSH0 ADD MLOAD DUP2 PUSH0 PUSH1 0x4 DUP2 LT PUSH2 0x6A7 JUMPI PUSH2 0x6A6 PUSH2 0x1138 JUMP JUMPDEST JUMPDEST PUSH1 0x20 MUL ADD DUP2 DUP2 MSTORE POP POP DUP4 PUSH1 0x20 ADD MLOAD DUP2 PUSH1 0x1 PUSH1 0x4 DUP2 LT PUSH2 0x6C9 JUMPI PUSH2 0x6C8 PUSH2 0x1138 JUMP JUMPDEST JUMPDEST PUSH1 0x20 MUL ADD DUP2 DUP2 MSTORE POP POP DUP3 PUSH0 ADD MLOAD DUP2 PUSH1 0x2 PUSH1 0x4 DUP2 LT PUSH2 0x6EA JUMPI PUSH2 0x6E9 PUSH2 0x1138 JUMP JUMPDEST JUMPDEST PUSH1 0x20 MUL ADD DUP2 DUP2 MSTORE POP POP DUP3 PUSH1 0x20 ADD MLOAD DUP2 PUSH1 0x3 PUSH1 0x4 DUP2 LT PUSH2 0x70C JUMPI PUSH2 0x70B PUSH2 0x1138 JUMP JUMPDEST JUMPDEST PUSH1 0x20 MUL ADD DUP2 DUP2 MSTORE POP POP PUSH0 PUSH1 0x60 DUP4 PUSH1 0xC0 DUP5 PUSH1 0x6 PUSH2 0x7D0 GAS SUB STATICCALL SWAP1 POP DUP1 PUSH0 DUP2 SUB PUSH2 0x730 JUMPI INVALID JUMPDEST POP DUP1 PUSH2 0x73A JUMPI PUSH0 DUP1 REVERT JUMPDEST POP POP SWAP3 SWAP2 POP POP JUMP JUMPDEST PUSH2 0x74A PUSH2 0xD35 JUMP JUMPDEST PUSH0 PUSH32 0x30644E72E131A029B85045B68181585D97816A916871CA8D3C208C16D87CFD47 SWAP1 POP PUSH0 DUP4 PUSH0 ADD MLOAD EQ DUP1 ISZERO PUSH2 0x783 JUMPI POP PUSH0 DUP4 PUSH1 0x20 ADD MLOAD EQ JUMPDEST ISZERO PUSH2 0x7A5 JUMPI PUSH1 0x40 MLOAD DUP1 PUSH1 0x40 ADD PUSH1 0x40 MSTORE DUP1 PUSH0 DUP2 MSTORE PUSH1 0x20 ADD PUSH0 DUP2 MSTORE POP SWAP2 POP POP PUSH2 0x7DB JUMP JUMPDEST PUSH1 0x40 MLOAD DUP1 PUSH1 0x40 ADD PUSH1 0x40 MSTORE DUP1 DUP5 PUSH0 ADD MLOAD DUP2 MSTORE PUSH1 0x20 ADD DUP3 DUP6 PUSH1 0x20 ADD MLOAD PUSH2 0x7C9 SWAP2 SWAP1 PUSH2 0x11D9 JUMP JUMPDEST DUP4 PUSH2 0x7D4 SWAP2 SWAP1 PUSH2 0x1209 JUMP JUMPDEST DUP2 MSTORE POP SWAP2 POP POP JUMPDEST SWAP2 SWAP1 POP JUMP JUMPDEST PUSH0 DUP1 PUSH1 0x4 PUSH8 0xFFFFFFFFFFFFFFFF DUP2 GT ISZERO PUSH2 0x7FD JUMPI PUSH2 0x7FC PUSH2 0xE1C JUMP JUMPDEST JUMPDEST PUSH1 0x40 MLOAD SWAP1 DUP1 DUP3 MSTORE DUP1 PUSH1 0x20 MUL PUSH1 0x20 ADD DUP3 ADD PUSH1 0x40 MSTORE DUP1 ISZERO PUSH2 0x836 JUMPI DUP2 PUSH1 0x20 ADD JUMPDEST PUSH2 0x823 PUSH2 0xD35 JUMP JUMPDEST DUP2 MSTORE PUSH1 0x20 ADD SWAP1 PUSH1 0x1 SWAP1 SUB SWAP1 DUP2 PUSH2 0x81B JUMPI SWAP1 POP JUMPDEST POP SWAP1 POP PUSH0 PUSH1 0x4 PUSH8 0xFFFFFFFFFFFFFFFF DUP2 GT ISZERO PUSH2 0x855 JUMPI PUSH2 0x854 PUSH2 0xE1C JUMP JUMPDEST JUMPDEST PUSH1 0x40 MLOAD SWAP1 DUP1 DUP3 MSTORE DUP1 PUSH1 0x20 MUL PUSH1 0x20 ADD DUP3 ADD PUSH1 0x40 MSTORE DUP1 ISZERO PUSH2 0x88E JUMPI DUP2 PUSH1 0x20 ADD JUMPDEST PUSH2 0x87B PUSH2 0xD91 JUMP JUMPDEST DUP2 MSTORE PUSH1 0x20 ADD SWAP1 PUSH1 0x1 SWAP1 SUB SWAP1 DUP2 PUSH2 0x873 JUMPI SWAP1 POP JUMPDEST POP SWAP1 POP DUP11 DUP3 PUSH0 DUP2 MLOAD DUP2 LT PUSH2 0x8A5 JUMPI PUSH2 0x8A4 PUSH2 0x1138 JUMP JUMPDEST JUMPDEST PUSH1 0x20 MUL PUSH1 0x20 ADD ADD DUP2 SWAP1 MSTORE POP DUP9 DUP3 PUSH1 0x1 DUP2 MLOAD DUP2 LT PUSH2 0x8C5 JUMPI PUSH2 0x8C4 PUSH2 0x1138 JUMP JUMPDEST JUMPDEST PUSH1 0x20 MUL PUSH1 0x20 ADD ADD DUP2 SWAP1 MSTORE POP DUP7 DUP3 PUSH1 0x2 DUP2 MLOAD DUP2 LT PUSH2 0x8E5 JUMPI PUSH2 0x8E4 PUSH2 0x1138 JUMP JUMPDEST JUMPDEST PUSH1 0x20 MUL PUSH1 0x20 ADD ADD DUP2 SWAP1 MSTORE POP DUP5 DUP3 PUSH1 0x3 DUP2 MLOAD DUP2 LT PUSH2 0x905 JUMPI PUSH2 0x904 PUSH2 0x1138 JUMP JUMPDEST JUMPDEST PUSH1 0x20 MUL PUSH1 0x20 ADD ADD DUP2 SWAP1 MSTORE POP DUP10 DUP2 PUSH0 DUP2 MLOAD DUP2 LT PUSH2 0x924 JUMPI PUSH2 0x923 PUSH2 0x1138 JUMP JUMPDEST JUMPDEST PUSH1 0x20 MUL PUSH1 0x20 ADD ADD DUP2 SWAP1 MSTORE POP DUP8 DUP2 PUSH1 0x1 DUP2 MLOAD DUP2 LT PUSH2 0x944 JUMPI PUSH2 0x943 PUSH2 0x1138 JUMP JUMPDEST JUMPDEST PUSH1 0x20 MUL PUSH1 0x20 ADD ADD DUP2 SWAP1 MSTORE POP DUP6 DUP2 PUSH1 0x2 DUP2 MLOAD DUP2 LT PUSH2 0x964 JUMPI PUSH2 0x963 PUSH2 0x1138 JUMP JUMPDEST JUMPDEST PUSH1 0x20 MUL PUSH1 0x20 ADD ADD DUP2 SWAP1 MSTORE POP DUP4 DUP2 PUSH1 0x3 DUP2 MLOAD DUP2 LT PUSH2 0x984 JUMPI PUSH2 0x983 PUSH2 0x1138 JUMP JUMPDEST JUMPDEST PUSH1 0x20 MUL PUSH1 0x20 ADD ADD DUP2 SWAP1 MSTORE POP PUSH2 0x999 DUP3 DUP3 PUSH2 0x9A9 JUMP JUMPDEST SWAP3 POP POP POP SWAP9 SWAP8 POP POP POP POP POP POP POP POP JUMP JUMPDEST PUSH0 DUP2 MLOAD DUP4 MLOAD EQ PUSH2 0x9B7 JUMPI PUSH0 DUP1 REVERT JUMPDEST PUSH0 DUP4 MLOAD SWAP1 POP PUSH0 PUSH1 0x6 DUP3 PUSH2 0x9CA SWAP2 SWAP1 PUSH2 0x123C JUMP JUMPDEST SWAP1 POP PUSH0 DUP2 PUSH8 0xFFFFFFFFFFFFFFFF DUP2 GT ISZERO PUSH2 0x9E7 JUMPI PUSH2 0x9E6 PUSH2 0xE1C JUMP JUMPDEST JUMPDEST PUSH1 0x40 MLOAD SWAP1 DUP1 DUP3 MSTORE DUP1 PUSH1 0x20 MUL PUSH1 0x20 ADD DUP3 ADD PUSH1 0x40 MSTORE DUP1 ISZERO PUSH2 0xA15 JUMPI DUP2 PUSH1 0x20 ADD PUSH1 0x20 DUP3 MUL DUP1 CALLDATASIZE DUP4 CALLDATACOPY DUP1 DUP3 ADD SWAP2 POP POP SWAP1 POP JUMPDEST POP SWAP1 POP PUSH0 JUMPDEST DUP4 DUP2 LT ISZERO PUSH2 0xC93 JUMPI DUP7 DUP2 DUP2 MLOAD DUP2 LT PUSH2 0xA35 JUMPI PUSH2 0xA34 PUSH2 0x1138 JUMP JUMPDEST JUMPDEST PUSH1 0x20 MUL PUSH1 0x20 ADD ADD MLOAD PUSH0 ADD MLOAD DUP3 PUSH0 PUSH1 0x6 DUP5 PUSH2 0xA4F SWAP2 SWAP1 PUSH2 0x123C JUMP JUMPDEST PUSH2 0xA59 SWAP2 SWAP1 PUSH2 0x1105 JUMP JUMPDEST DUP2 MLOAD DUP2 LT PUSH2 0xA6A JUMPI PUSH2 0xA69 PUSH2 0x1138 JUMP JUMPDEST JUMPDEST PUSH1 0x20 MUL PUSH1 0x20 ADD ADD DUP2 DUP2 MSTORE POP POP DUP7 DUP2 DUP2 MLOAD DUP2 LT PUSH2 0xA89 JUMPI PUSH2 0xA88 PUSH2 0x1138 JUMP JUMPDEST JUMPDEST PUSH1 0x20 MUL PUSH1 0x20 ADD ADD MLOAD PUSH1 0x20 ADD MLOAD DUP3 PUSH1 0x1 PUSH1 0x6 DUP5 PUSH2 0xAA5 SWAP2 SWAP1 PUSH2 0x123C JUMP JUMPDEST PUSH2 0xAAF SWAP2 SWAP1 PUSH2 0x1105 JUMP JUMPDEST DUP2 MLOAD DUP2 LT PUSH2 0xAC0 JUMPI PUSH2 0xABF PUSH2 0x1138 JUMP JUMPDEST JUMPDEST PUSH1 0x20 MUL PUSH1 0x20 ADD ADD DUP2 DUP2 MSTORE POP POP DUP6 DUP2 DUP2 MLOAD DUP2 LT PUSH2 0xADF JUMPI PUSH2 0xADE PUSH2 0x1138 JUMP JUMPDEST JUMPDEST PUSH1 0x20 MUL PUSH1 0x20 ADD ADD MLOAD PUSH0 ADD MLOAD PUSH1 0x1 PUSH1 0x2 DUP2 LT PUSH2 0xAFD JUMPI PUSH2 0xAFC PUSH2 0x1138 JUMP JUMPDEST JUMPDEST PUSH1 0x20 MUL ADD MLOAD DUP3 PUSH1 0x2 PUSH1 0x6 DUP5 PUSH2 0xB12 SWAP2 SWAP1 PUSH2 0x123C JUMP JUMPDEST PUSH2 0xB1C SWAP2 SWAP1 PUSH2 0x1105 JUMP JUMPDEST DUP2 MLOAD DUP2 LT PUSH2 0xB2D JUMPI PUSH2 0xB2C PUSH2 0x1138 JUMP JUMPDEST JUMPDEST PUSH1 0x20 MUL PUSH1 0x20 ADD ADD DUP2 DUP2 MSTORE POP POP DUP6 DUP2 DUP2 MLOAD DUP2 LT PUSH2 0xB4C JUMPI PUSH2 0xB4B PUSH2 0x1138 JUMP JUMPDEST JUMPDEST PUSH1 0x20 MUL PUSH1 0x20 ADD ADD MLOAD PUSH0 ADD MLOAD PUSH0 PUSH1 0x2 DUP2 LT PUSH2 0xB69 JUMPI PUSH2 0xB68 PUSH2 0x1138 JUMP JUMPDEST JUMPDEST PUSH1 0x20 MUL ADD MLOAD DUP3 PUSH1 0x3 PUSH1 0x6 DUP5 PUSH2 0xB7E SWAP2 SWAP1 PUSH2 0x123C JUMP JUMPDEST PUSH2 0xB88 SWAP2 SWAP1 PUSH2 0x1105 JUMP JUMPDEST DUP2 MLOAD DUP2 LT PUSH2 0xB99 JUMPI PUSH2 0xB98 PUSH2 0x1138 JUMP JUMPDEST JUMPDEST PUSH1 0x20 MUL PUSH1 0x20 ADD ADD DUP2 DUP2 MSTORE POP POP DUP6 DUP2 DUP2 MLOAD DUP2 LT PUSH2 0xBB8 JUMPI PUSH2 0xBB7 PUSH2 0x1138 JUMP JUMPDEST JUMPDEST PUSH1 0x20 MUL PUSH1 0x20 ADD ADD MLOAD PUSH1 0x20 ADD MLOAD PUSH1 0x1 PUSH1 0x2 DUP2 LT PUSH2 0xBD7 JUMPI PUSH2 0xBD6 PUSH2 0x1138 JUMP JUMPDEST JUMPDEST PUSH1 0x20 MUL ADD MLOAD DUP3 PUSH1 0x4 PUSH1 0x6 DUP5 PUSH2 0xBEC SWAP2 SWAP1 PUSH2 0x123C JUMP JUMPDEST PUSH2 0xBF6 SWAP2 SWAP1 PUSH2 0x1105 JUMP JUMPDEST DUP2 MLOAD DUP2 LT PUSH2 0xC07 JUMPI PUSH2 0xC06 PUSH2 0x1138 JUMP JUMPDEST JUMPDEST PUSH1 0x20 MUL PUSH1 0x20 ADD ADD DUP2 DUP2 MSTORE POP POP DUP6 DUP2 DUP2 MLOAD DUP2 LT PUSH2 0xC26 JUMPI PUSH2 0xC25 PUSH2 0x1138 JUMP JUMPDEST JUMPDEST PUSH1 0x20 MUL PUSH1 0x20 ADD ADD MLOAD PUSH1 0x20 ADD MLOAD PUSH0 PUSH1 0x2 DUP2 LT PUSH2 0xC44 JUMPI PUSH2 0xC43 PUSH2 0x1138 JUMP JUMPDEST JUMPDEST PUSH1 0x20 MUL ADD MLOAD DUP3 PUSH1 0x5 PUSH1 0x6 DUP5 PUSH2 0xC59 SWAP2 SWAP1 PUSH2 0x123C JUMP JUMPDEST PUSH2 0xC63 SWAP2 SWAP1 PUSH2 0x1105 JUMP JUMPDEST DUP2 MLOAD DUP2 LT PUSH2 0xC74 JUMPI PUSH2 0xC73 PUSH2 0x1138 JUMP JUMPDEST JUMPDEST PUSH1 0x20 MUL PUSH1 0x20 ADD ADD DUP2 DUP2 MSTORE POP POP DUP1 DUP1 PUSH2 0xC8B SWAP1 PUSH2 0x1165 JUMP JUMPDEST SWAP2 POP POP PUSH2 0xA1A JUMP JUMPDEST POP PUSH2 0xC9C PUSH2 0xDB7 JUMP JUMPDEST PUSH0 PUSH1 0x20 DUP3 PUSH1 0x20 DUP7 MUL PUSH1 0x20 DUP7 ADD PUSH1 0x8 PUSH2 0x7D0 GAS SUB STATICCALL SWAP1 POP DUP1 PUSH0 DUP2 SUB PUSH2 0xCBC JUMPI INVALID JUMPDEST POP DUP1 PUSH2 0xCC6 JUMPI PUSH0 DUP1 REVERT JUMPDEST PUSH0 DUP3 PUSH0 PUSH1 0x1 DUP2 LT PUSH2 0xCDA JUMPI PUSH2 0xCD9 PUSH2 0x1138 JUMP JUMPDEST JUMPDEST PUSH1 0x20 MUL ADD MLOAD EQ ISZERO SWAP6 POP POP POP POP POP POP SWAP3 SWAP2 POP POP JUMP JUMPDEST PUSH1 0x40 MLOAD DUP1 PUSH1 0xA0 ADD PUSH1 0x40 MSTORE DUP1 PUSH2 0xD01 PUSH2 0xD35 JUMP JUMPDEST DUP2 MSTORE PUSH1 0x20 ADD PUSH2 0xD0E PUSH2 0xD91 JUMP JUMPDEST DUP2 MSTORE PUSH1 0x20 ADD PUSH2 0xD1B PUSH2 0xD91 JUMP JUMPDEST DUP2 MSTORE PUSH1 0x20 ADD PUSH2 0xD28 PUSH2 0xD91 JUMP JUMPDEST DUP2 MSTORE PUSH1 0x20 ADD PUSH1 0x60 DUP2 MSTORE POP SWAP1 JUMP JUMPDEST PUSH1 0x40 MLOAD DUP1 PUSH1 0x40 ADD PUSH1 0x40 MSTORE DUP1 PUSH0 DUP2 MSTORE PUSH1 0x20 ADD PUSH0 DUP2 MSTORE POP SWAP1 JUMP JUMPDEST PUSH1 0x40 MLOAD DUP1 PUSH1 0x60 ADD PUSH1 0x40 MSTORE DUP1 PUSH1 0x3 SWAP1 PUSH1 0x20 DUP3 MUL DUP1 CALLDATASIZE DUP4 CALLDATACOPY DUP1 DUP3 ADD SWAP2 POP POP SWAP1 POP POP SWAP1 JUMP JUMPDEST PUSH1 0x40 MLOAD DUP1 PUSH1 0x80 ADD PUSH1 0x40 MSTORE DUP1 PUSH1 0x4 SWAP1 PUSH1 0x20 DUP3 MUL DUP1 CALLDATASIZE DUP4 CALLDATACOPY DUP1 DUP3 ADD SWAP2 POP POP SWAP1 POP POP SWAP1 JUMP JUMPDEST PUSH1 0x40 MLOAD DUP1 PUSH1 0x40 ADD PUSH1 0x40 MSTORE DUP1 PUSH2 0xDA4 PUSH2 0xDD9 JUMP JUMPDEST DUP2 MSTORE PUSH1 0x20 ADD PUSH2 0xDB1 PUSH2 0xDD9 JUMP JUMPDEST DUP2 MSTORE POP SWAP1 JUMP JUMPDEST PUSH1 0x40 MLOAD DUP1 PUSH1 0x20 ADD PUSH1 0x40 MSTORE DUP1 PUSH1 0x1 SWAP1 PUSH1 0x20 DUP3 MUL DUP1 CALLDATASIZE DUP4 CALLDATACOPY DUP1 DUP3 ADD SWAP2 POP POP SWAP1 POP POP SWAP1 JUMP JUMPDEST PUSH1 0x40 MLOAD DUP1 PUSH1 0x40 ADD PUSH1 0x40 MSTORE DUP1 PUSH1 0x2 SWAP1 PUSH1 0x20 DUP3 MUL DUP1 CALLDATASIZE DUP4 CALLDATACOPY DUP1 DUP3 ADD SWAP2 POP POP SWAP1 POP POP SWAP1 JUMP JUMPDEST PUSH0 PUSH1 0x40 MLOAD SWAP1 POP SWAP1 JUMP JUMPDEST PUSH0 DUP1 REVERT JUMPDEST PUSH0 DUP1 REVERT JUMPDEST PUSH0 PUSH1 0x1F NOT PUSH1 0x1F DUP4 ADD AND SWAP1 POP SWAP2 SWAP1 POP JUMP JUMPDEST PUSH32 0x4E487B7100000000000000000000000000000000000000000000000000000000 PUSH0 MSTORE PUSH1 0x41 PUSH1 0x4 MSTORE PUSH1 0x24 PUSH0 REVERT JUMPDEST PUSH2 0xE52 DUP3 PUSH2 0xE0C JUMP JUMPDEST DUP2 ADD DUP2 DUP2 LT PUSH8 0xFFFFFFFFFFFFFFFF DUP3 GT OR ISZERO PUSH2 0xE71 JUMPI PUSH2 0xE70 PUSH2 0xE1C JUMP JUMPDEST JUMPDEST DUP1 PUSH1 0x40 MSTORE POP POP POP JUMP JUMPDEST PUSH0 PUSH2 0xE83 PUSH2 0xDFB JUMP JUMPDEST SWAP1 POP PUSH2 0xE8F DUP3 DUP3 PUSH2 0xE49 JUMP JUMPDEST SWAP2 SWAP1 POP JUMP JUMPDEST PUSH0 DUP2 SWAP1 POP SWAP2 SWAP1 POP JUMP JUMPDEST PUSH2 0xEA6 DUP2 PUSH2 0xE94 JUMP JUMPDEST DUP2 EQ PUSH2 0xEB0 JUMPI PUSH0 DUP1 REVERT JUMPDEST POP JUMP JUMPDEST PUSH0 DUP2 CALLDATALOAD SWAP1 POP PUSH2 0xEC1 DUP2 PUSH2 0xE9D JUMP JUMPDEST SWAP3 SWAP2 POP POP JUMP JUMPDEST PUSH0 PUSH1 0x40 DUP3 DUP5 SUB SLT ISZERO PUSH2 0xEDC JUMPI PUSH2 0xEDB PUSH2 0xE08 JUMP JUMPDEST JUMPDEST PUSH2 0xEE6 PUSH1 0x40 PUSH2 0xE7A JUMP JUMPDEST SWAP1 POP PUSH0 PUSH2 0xEF5 DUP5 DUP3 DUP6 ADD PUSH2 0xEB3 JUMP JUMPDEST PUSH0 DUP4 ADD MSTORE POP PUSH1 0x20 PUSH2 0xF08 DUP5 DUP3 DUP6 ADD PUSH2 0xEB3 JUMP JUMPDEST PUSH1 0x20 DUP4 ADD MSTORE POP SWAP3 SWAP2 POP POP JUMP JUMPDEST PUSH0 DUP1 REVERT JUMPDEST PUSH0 PUSH8 0xFFFFFFFFFFFFFFFF DUP3 GT ISZERO PUSH2 0xF32 JUMPI PUSH2 0xF31 PUSH2 0xE1C JUMP JUMPDEST JUMPDEST PUSH1 0x20 DUP3 MUL SWAP1 POP SWAP2 SWAP1 POP JUMP JUMPDEST PUSH0 DUP1 REVERT JUMPDEST PUSH0 PUSH2 0xF53 PUSH2 0xF4E DUP5 PUSH2 0xF18 JUMP JUMPDEST PUSH2 0xE7A JUMP JUMPDEST SWAP1 POP DUP1 PUSH1 0x20 DUP5 MUL DUP4 ADD DUP6 DUP2 GT ISZERO PUSH2 0xF6D JUMPI PUSH2 0xF6C PUSH2 0xF3D JUMP JUMPDEST JUMPDEST DUP4 JUMPDEST DUP2 DUP2 LT ISZERO PUSH2 0xF96 JUMPI DUP1 PUSH2 0xF82 DUP9 DUP3 PUSH2 0xEB3 JUMP JUMPDEST DUP5 MSTORE PUSH1 0x20 DUP5 ADD SWAP4 POP POP PUSH1 0x20 DUP2 ADD SWAP1 POP PUSH2 0xF6F JUMP JUMPDEST POP POP POP SWAP4 SWAP3 POP POP POP JUMP JUMPDEST PUSH0 DUP3 PUSH1 0x1F DUP4 ADD SLT PUSH2 0xFB4 JUMPI PUSH2 0xFB3 PUSH2 0xF14 JUMP JUMPDEST JUMPDEST PUSH1 0x2 PUSH2 0xFC1 DUP5 DUP3 DUP6 PUSH2 0xF41 JUMP JUMPDEST SWAP2 POP POP SWAP3 SWAP2 POP POP JUMP JUMPDEST PUSH0 PUSH1 0x80 DUP3 DUP5 SUB SLT ISZERO PUSH2 0xFDF JUMPI PUSH2 0xFDE PUSH2 0xE08 JUMP JUMPDEST JUMPDEST PUSH2 0xFE9 PUSH1 0x40 PUSH2 0xE7A JUMP JUMPDEST SWAP1 POP PUSH0 PUSH2 0xFF8 DUP5 DUP3 DUP6 ADD PUSH2 0xFA0 JUMP JUMPDEST PUSH0 DUP4 ADD MSTORE POP PUSH1 0x40 PUSH2 0x100B DUP5 DUP3 DUP6 ADD PUSH2 0xFA0 JUMP JUMPDEST PUSH1 0x20 DUP4 ADD MSTORE POP SWAP3 SWAP2 POP POP JUMP JUMPDEST PUSH0 PUSH2 0x100 DUP3 DUP5 SUB SLT ISZERO PUSH2 0x102D JUMPI PUSH2 0x102C PUSH2 0xE08 JUMP JUMPDEST JUMPDEST PUSH2 0x1037 PUSH1 0x60 PUSH2 0xE7A JUMP JUMPDEST SWAP1 POP PUSH0 PUSH2 0x1046 DUP5 DUP3 DUP6 ADD PUSH2 0xEC7 JUMP JUMPDEST PUSH0 DUP4 ADD MSTORE POP PUSH1 0x40 PUSH2 0x1059 DUP5 DUP3 DUP6 ADD PUSH2 0xFCA JUMP JUMPDEST PUSH1 0x20 DUP4 ADD MSTORE POP PUSH1 0xC0 PUSH2 0x106D DUP5 DUP3 DUP6 ADD PUSH2 0xEC7 JUMP JUMPDEST PUSH1 0x40 DUP4 ADD MSTORE POP SWAP3 SWAP2 POP POP JUMP JUMPDEST PUSH0 PUSH2 0x100 DUP3 DUP5 SUB SLT ISZERO PUSH2 0x108F JUMPI PUSH2 0x108E PUSH2 0xE04 JUMP JUMPDEST JUMPDEST PUSH0 PUSH2 0x109C DUP5 DUP3 DUP6 ADD PUSH2 0x1017 JUMP JUMPDEST SWAP2 POP POP SWAP3 SWAP2 POP POP JUMP JUMPDEST PUSH0 DUP2 ISZERO ISZERO SWAP1 POP SWAP2 SWAP1 POP JUMP JUMPDEST PUSH2 0x10B9 DUP2 PUSH2 0x10A5 JUMP JUMPDEST DUP3 MSTORE POP POP JUMP JUMPDEST PUSH0 PUSH1 0x20 DUP3 ADD SWAP1 POP PUSH2 0x10D2 PUSH0 DUP4 ADD DUP5 PUSH2 0x10B0 JUMP JUMPDEST SWAP3 SWAP2 POP POP JUMP JUMPDEST PUSH32 0x4E487B7100000000000000000000000000000000000000000000000000000000 PUSH0 MSTORE PUSH1 0x11 PUSH1 0x4 MSTORE PUSH1 0x24 PUSH0 REVERT JUMPDEST PUSH0 PUSH2 0x110F DUP3 PUSH2 0xE94 JUMP JUMPDEST SWAP2 POP PUSH2 0x111A DUP4 PUSH2 0xE94 JUMP JUMPDEST SWAP3 POP DUP3 DUP3 ADD SWAP1 POP DUP1 DUP3 GT ISZERO PUSH2 0x1132 JUMPI PUSH2 0x1131 PUSH2 0x10D8 JUMP JUMPDEST JUMPDEST SWAP3 SWAP2 POP POP JUMP JUMPDEST PUSH32 0x4E487B7100000000000000000000000000000000000000000000000000000000 PUSH0 MSTORE PUSH1 0x32 PUSH1 0x4 MSTORE PUSH1 0x24 PUSH0 REVERT JUMPDEST PUSH0 PUSH2 0x116F DUP3 PUSH2 0xE94 JUMP JUMPDEST SWAP2 POP PUSH32 0xFFFFFFFFFFFFFFFFFFFFFFFFFFFFFFFFFFFFFFFFFFFFFFFFFFFFFFFFFFFFFFFF DUP3 SUB PUSH2 0x11A1 JUMPI PUSH2 0x11A0 PUSH2 0x10D8 JUMP JUMPDEST JUMPDEST PUSH1 0x1 DUP3 ADD SWAP1 POP SWAP2 SWAP1 POP JUMP JUMPDEST PUSH32 0x4E487B7100000000000000000000000000000000000000000000000000000000 PUSH0 MSTORE PUSH1 0x12 PUSH1 0x4 MSTORE PUSH1 0x24 PUSH0 REVERT JUMPDEST PUSH0 PUSH2 0x11E3 DUP3 PUSH2 0xE94 JUMP JUMPDEST SWAP2 POP PUSH2 0x11EE DUP4 PUSH2 0xE94 JUMP JUMPDEST SWAP3 POP DUP3 PUSH2 0x11FE JUMPI PUSH2 0x11FD PUSH2 0x11AC JUMP JUMPDEST JUMPDEST DUP3 DUP3 MOD SWAP1 POP SWAP3 SWAP2 POP POP JUMP JUMPDEST PUSH0 PUSH2 0x1213 DUP3 PUSH2 0xE94 JUMP JUMPDEST SWAP2 POP PUSH2 0x121E DUP4 PUSH2 0xE94 JUMP JUMPDEST SWAP3 POP DUP3 DUP3 SUB SWAP1 POP DUP2 DUP2 GT ISZERO PUSH2 0x1236 JUMPI PUSH2 0x1235 PUSH2 0x10D8 JUMP JUMPDEST JUMPDEST SWAP3 SWAP2 POP POP JUMP JUMPDEST PUSH0 PUSH2 0x1246 DUP3 PUSH2 0xE94 JUMP JUMPDEST SWAP2 POP PUSH2 0x1251 DUP4 PUSH2 0xE94 JUMP JUMPDEST SWAP3 POP DUP3 DUP3 MUL PUSH2 0x125F DUP2 PUSH2 0xE94 JUMP JUMPDEST SWAP2 POP DUP3 DUP3 DIV DUP5 EQ DUP4 ISZERO OR PUSH2 0x1276 JUMPI PUSH2 0x1275 PUSH2 0x10D8 JUMP JUMPDEST JUMPDEST POP SWAP3 SWAP2 POP POP JUMP INVALID LOG2 PUSH5 0x6970667358 0x22 SLT KECCAK256 SWAP9 GAS SDIV PUSH18 0xD86672978749830E64D4AB1F8A02536D96AB 0xAA 0xAE DUP1 ADDMOD 0x2A 0xC6 0xDE 0xB5 DUP9 PUSH19 0x64736F6C634300081500330000000000000000 "
		},
		"gasEstimates": {
			"creation": {
				"codeDepositCost": "957400",
				"executionCost": "992",
				"totalCost": "958392"
			},
			"external": {
				"verifyTx(((uint256,uint256),(uint256[2],uint256[2]),(uint256,uint256)))": "infinite"
			},
			"internal": {
				"verify(uint256[] memory,struct Verifier.Proof memory)": "infinite",
				"verifyingKey()": "infinite"
			}
		},
		"methodIdentifiers": {
			"verifyTx(((uint256,uint256),(uint256[2],uint256[2]),(uint256,uint256)))": "f6af0311"
		}
	},
	"abi": [
		{
			"inputs": [
				{
					"components": [
						{
							"components": [
								{
									"internalType": "uint256",
									"name": "X",
									"type": "uint256"
								},
								{
									"internalType": "uint256",
									"name": "Y",
									"type": "uint256"
								}
							],
							"internalType": "struct Pairing.G1Point",
							"name": "a",
							"type": "tuple"
						},
						{
							"components": [
								{
									"internalType": "uint256[2]",
									"name": "X",
									"type": "uint256[2]"
								},
								{
									"internalType": "uint256[2]",
									"name": "Y",
									"type": "uint256[2]"
								}
							],
							"internalType": "struct Pairing.G2Point",
							"name": "b",
							"type": "tuple"
						},
						{
							"components": [
								{
									"internalType": "uint256",
									"name": "X",
									"type": "uint256"
								},
								{
									"internalType": "uint256",
									"name": "Y",
									"type": "uint256"
								}
							],
							"internalType": "struct Pairing.G1Point",
							"name": "c",
							"type": "tuple"
						}
					],
					"internalType": "struct Verifier.Proof",
					"name": "proof",
					"type": "tuple"
				}
			],
			"name": "verifyTx",
			"outputs": [
				{
					"internalType": "bool",
					"name": "r",
					"type": "bool"
				}
			],
			"stateMutability": "view",
			"type": "function"
		}
	]
}