{
	"ChildLabourManagement.sol": {
		"ChildLabourManagement": {
			"abi": [
				{
					"inputs": [
						{
							"internalType": "address",
							"name": "_registration",
							"type": "address"
						},
						{
							"internalType": "address",
							"name": "_verifier",
							"type": "address"
						}
					],
					"stateMutability": "nonpayable",
					"type": "constructor"
				},
				{
					"anonymous": false,
					"inputs": [
						{
							"indexed": false,
							"internalType": "address",
							"name": "regulatoryAuthority",
							"type": "address"
						},
						{
							"indexed": false,
							"internalType": "address",
							"name": "dataAnalyst",
							"type": "address"
						},
						{
							"indexed": false,
							"internalType": "uint256",
							"name": "date",
							"type": "uint256"
						}
					],
					"name": "AccessRevoked",
					"type": "event"
				},
				{
					"anonymous": false,
					"inputs": [
						{
							"indexed": false,
							"internalType": "uint256",
							"name": "childId",
							"type": "uint256"
						},
						{
							"indexed": false,
							"internalType": "bytes32",
							"name": "hashedName",
							"type": "bytes32"
						},
						{
							"indexed": false,
							"internalType": "uint256",
							"name": "age",
							"type": "uint256"
						},
						{
							"indexed": false,
							"internalType": "bytes1",
							"name": "gender",
							"type": "bytes1"
						},
						{
							"indexed": false,
							"internalType": "uint256",
							"name": "reportId",
							"type": "uint256"
						}
					],
					"name": "ChildDataStored",
					"type": "event"
				},
				{
					"anonymous": false,
					"inputs": [
						{
							"indexed": false,
							"internalType": "uint256",
							"name": "childId",
							"type": "uint256"
						},
						{
							"indexed": false,
							"internalType": "uint256",
							"name": "reportId",
							"type": "uint256"
						},
						{
							"indexed": false,
							"internalType": "address",
							"name": "guardian",
							"type": "address"
						}
					],
					"name": "GuardianAssigned",
					"type": "event"
				},
				{
					"anonymous": false,
					"inputs": [
						{
							"indexed": true,
							"internalType": "uint256",
							"name": "reportCount",
							"type": "uint256"
						},
						{
							"indexed": false,
							"internalType": "address",
							"name": "reporter",
							"type": "address"
						},
						{
							"indexed": false,
							"internalType": "uint256",
							"name": "date",
							"type": "uint256"
						},
						{
							"indexed": false,
							"internalType": "bytes32",
							"name": "reportDetails",
							"type": "bytes32"
						}
					],
					"name": "NewViolationReport",
					"type": "event"
				},
				{
					"anonymous": false,
					"inputs": [
						{
							"indexed": false,
							"internalType": "uint256",
							"name": "childId",
							"type": "uint256"
						},
						{
							"indexed": false,
							"internalType": "uint256",
							"name": "remediationCompletionDate",
							"type": "uint256"
						}
					],
					"name": "RemediationCompleted",
					"type": "event"
				},
				{
					"anonymous": false,
					"inputs": [
						{
							"indexed": false,
							"internalType": "uint256",
							"name": "childId",
							"type": "uint256"
						},
						{
							"indexed": false,
							"internalType": "uint256",
							"name": "remediationStartDate",
							"type": "uint256"
						},
						{
							"indexed": false,
							"internalType": "uint256",
							"name": "remediationCompletionDate",
							"type": "uint256"
						}
					],
					"name": "RemediationStarted",
					"type": "event"
				},
				{
					"anonymous": false,
					"inputs": [
						{
							"indexed": true,
							"internalType": "uint256",
							"name": "reportCount",
							"type": "uint256"
						},
						{
							"indexed": false,
							"internalType": "address",
							"name": "inspector",
							"type": "address"
						},
						{
							"indexed": false,
							"internalType": "bool",
							"name": "isVerified",
							"type": "bool"
						},
						{
							"indexed": false,
							"internalType": "uint256",
							"name": "verificationDate",
							"type": "uint256"
						}
					],
					"name": "ViolationReportVerification",
					"type": "event"
				},
				{
					"anonymous": false,
					"inputs": [
						{
							"indexed": false,
							"internalType": "address",
							"name": "DataAnalyst",
							"type": "address"
						},
						{
							"indexed": false,
							"internalType": "uint256",
							"name": "Date",
							"type": "uint256"
						}
					],
					"name": "Whitelisted",
					"type": "event"
				},
				{
					"inputs": [],
					"name": "Registration",
					"outputs": [
						{
							"internalType": "contract IRegistration",
							"name": "",
							"type": "address"
						}
					],
					"stateMutability": "view",
					"type": "function"
				},
				{
					"inputs": [],
					"name": "Verifier",
					"outputs": [
						{
							"internalType": "contract IVerifier",
							"name": "",
							"type": "address"
						}
					],
					"stateMutability": "view",
					"type": "function"
				},
				{
					"inputs": [
						{
							"components": [
								{
									"components": [
										{
											"internalType": "uint256",
											"name": "X",
											"type": "uint256"
										},
										{
											"internalType": "uint256",
											"name": "Y",
											"type": "uint256"
										}
									],
									"internalType": "struct Pairing.G1Point",
									"name": "a",
									"type": "tuple"
								},
								{
									"components": [
										{
											"internalType": "uint256[2]",
											"name": "X",
											"type": "uint256[2]"
										},
										{
											"internalType": "uint256[2]",
											"name": "Y",
											"type": "uint256[2]"
										}
									],
									"internalType": "struct Pairing.G2Point",
									"name": "b",
									"type": "tuple"
								},
								{
									"components": [
										{
											"internalType": "uint256",
											"name": "X",
											"type": "uint256"
										},
										{
											"internalType": "uint256",
											"name": "Y",
											"type": "uint256"
										}
									],
									"internalType": "struct Pairing.G1Point",
									"name": "c",
									"type": "tuple"
								}
							],
							"internalType": "struct IVerifier.Proof",
							"name": "proof",
							"type": "tuple"
						}
					],
					"name": "accessControl",
					"outputs": [
						{
							"internalType": "bool",
							"name": "",
							"type": "bool"
						}
					],
					"stateMutability": "nonpayable",
					"type": "function"
				},
				{
					"inputs": [
						{
							"internalType": "address",
							"name": "",
							"type": "address"
						}
					],
					"name": "accessWhitelist",
					"outputs": [
						{
							"internalType": "bool",
							"name": "",
							"type": "bool"
						}
					],
					"stateMutability": "view",
					"type": "function"
				},
				{
					"inputs": [
						{
							"internalType": "uint256",
							"name": "_violationReportId",
							"type": "uint256"
						},
						{
							"internalType": "uint256",
							"name": "_childId",
							"type": "uint256"
						},
						{
							"internalType": "address",
							"name": "_guardian",
							"type": "address"
						}
					],
					"name": "assignGuardian",
					"outputs": [],
					"stateMutability": "nonpayable",
					"type": "function"
				},
				{
					"inputs": [
						{
							"internalType": "uint256",
							"name": "",
							"type": "uint256"
						}
					],
					"name": "child2ReportMapping",
					"outputs": [
						{
							"internalType": "uint256",
							"name": "",
							"type": "uint256"
						}
					],
					"stateMutability": "view",
					"type": "function"
				},
				{
					"inputs": [],
					"name": "childCount",
					"outputs": [
						{
							"internalType": "uint256",
							"name": "",
							"type": "uint256"
						}
					],
					"stateMutability": "view",
					"type": "function"
				},
				{
					"inputs": [
						{
							"internalType": "uint256",
							"name": "",
							"type": "uint256"
						},
						{
							"internalType": "uint256",
							"name": "",
							"type": "uint256"
						}
					],
					"name": "childData",
					"outputs": [
						{
							"internalType": "uint256",
							"name": "childId",
							"type": "uint256"
						},
						{
							"internalType": "bytes32",
							"name": "hashedName",
							"type": "bytes32"
						},
						{
							"internalType": "uint256",
							"name": "age",
							"type": "uint256"
						},
						{
							"internalType": "bytes1",
							"name": "gender",
							"type": "bytes1"
						},
						{
							"internalType": "uint256",
							"name": "violationReportId",
							"type": "uint256"
						},
						{
							"internalType": "enum ChildLabourManagement.ChildStatus",
							"name": "status",
							"type": "uint8"
						}
					],
					"stateMutability": "view",
					"type": "function"
				},
				{
					"inputs": [
						{
							"internalType": "uint256",
							"name": "",
							"type": "uint256"
						}
					],
					"name": "childRemediationData",
					"outputs": [
						{
							"internalType": "address",
							"name": "guardian",
							"type": "address"
						},
						{
							"internalType": "uint256",
							"name": "childId",
							"type": "uint256"
						},
						{
							"internalType": "uint256",
							"name": "remediationStart",
							"type": "uint256"
						},
						{
							"internalType": "uint256",
							"name": "remediationCompletion",
							"type": "uint256"
						},
						{
							"internalType": "uint256",
							"name": "lastUpdated",
							"type": "uint256"
						},
						{
							"internalType": "enum ChildLabourManagement.ChildStatus",
							"name": "status",
							"type": "uint8"
						}
					],
					"stateMutability": "view",
					"type": "function"
				},
				{
					"inputs": [
						{
							"internalType": "uint256",
							"name": "_violationReportId",
							"type": "uint256"
						},
						{
							"internalType": "uint256",
							"name": "_childId",
							"type": "uint256"
						}
					],
					"name": "completeRemediation",
					"outputs": [],
					"stateMutability": "nonpayable",
					"type": "function"
				},
				{
					"inputs": [
						{
							"internalType": "uint256",
							"name": "_violationReportId",
							"type": "uint256"
						},
						{
							"internalType": "uint256",
							"name": "_childId",
							"type": "uint256"
						}
					],
					"name": "getChildData",
					"outputs": [
						{
							"internalType": "bytes32",
							"name": "hashedName",
							"type": "bytes32"
						},
						{
							"internalType": "uint256",
							"name": "age",
							"type": "uint256"
						},
						{
							"internalType": "bytes1",
							"name": "gender",
							"type": "bytes1"
						},
						{
							"internalType": "bytes32",
							"name": "reportipfshash",
							"type": "bytes32"
						}
					],
					"stateMutability": "nonpayable",
					"type": "function"
				},
				{
					"inputs": [
						{
							"internalType": "uint256",
							"name": "_violationReportId",
							"type": "uint256"
						},
						{
							"internalType": "uint256",
							"name": "_childId",
							"type": "uint256"
						}
					],
					"name": "getChildStatus",
					"outputs": [
						{
							"internalType": "enum ChildLabourManagement.ChildStatus",
							"name": "",
							"type": "uint8"
						},
						{
							"internalType": "uint256",
							"name": "",
							"type": "uint256"
						},
						{
							"internalType": "uint256",
							"name": "",
							"type": "uint256"
						},
						{
							"internalType": "uint256",
							"name": "",
							"type": "uint256"
						}
					],
					"stateMutability": "nonpayable",
					"type": "function"
				},
				{
					"inputs": [
						{
							"internalType": "uint256",
							"name": "_violationReportId",
							"type": "uint256"
						}
					],
					"name": "getViolationReport",
					"outputs": [
						{
							"internalType": "address",
							"name": "reporter",
							"type": "address"
						},
						{
							"internalType": "uint256",
							"name": "date",
							"type": "uint256"
						},
						{
							"internalType": "bytes32",
							"name": "reportDetails",
							"type": "bytes32"
						}
					],
					"stateMutability": "nonpayable",
					"type": "function"
				},
				{
					"inputs": [
						{
							"internalType": "uint256",
							"name": "",
							"type": "uint256"
						}
					],
					"name": "reportChildrenCount",
					"outputs": [
						{
							"internalType": "uint256",
							"name": "",
							"type": "uint256"
						}
					],
					"stateMutability": "view",
					"type": "function"
				},
				{
					"inputs": [],
					"name": "reportCount",
					"outputs": [
						{
							"internalType": "uint256",
							"name": "",
							"type": "uint256"
						}
					],
					"stateMutability": "view",
					"type": "function"
				},
				{
					"inputs": [
						{
							"internalType": "uint256",
							"name": "",
							"type": "uint256"
						}
					],
					"name": "reportProof",
					"outputs": [
						{
							"components": [
								{
									"internalType": "uint256",
									"name": "X",
									"type": "uint256"
								},
								{
									"internalType": "uint256",
									"name": "Y",
									"type": "uint256"
								}
							],
							"internalType": "struct Pairing.G1Point",
							"name": "a",
							"type": "tuple"
						},
						{
							"components": [
								{
									"internalType": "uint256[2]",
									"name": "X",
									"type": "uint256[2]"
								},
								{
									"internalType": "uint256[2]",
									"name": "Y",
									"type": "uint256[2]"
								}
							],
							"internalType": "struct Pairing.G2Point",
							"name": "b",
							"type": "tuple"
						},
						{
							"components": [
								{
									"internalType": "uint256",
									"name": "X",
									"type": "uint256"
								},
								{
									"internalType": "uint256",
									"name": "Y",
									"type": "uint256"
								}
							],
							"internalType": "struct Pairing.G1Point",
							"name": "c",
							"type": "tuple"
						}
					],
					"stateMutability": "view",
					"type": "function"
				},
				{
					"inputs": [
						{
							"internalType": "uint256",
							"name": "",
							"type": "uint256"
						},
						{
							"internalType": "address",
							"name": "_user",
							"type": "address"
						}
					],
					"name": "revokeAccess",
					"outputs": [],
					"stateMutability": "nonpayable",
					"type": "function"
				},
				{
					"inputs": [
						{
							"internalType": "uint256",
							"name": "_violationReportId",
							"type": "uint256"
						},
						{
							"internalType": "uint256",
							"name": "_childId",
							"type": "uint256"
						},
						{
							"internalType": "uint256",
							"name": "_daysToRemediate",
							"type": "uint256"
						}
					],
					"name": "startRemediation",
					"outputs": [],
					"stateMutability": "nonpayable",
					"type": "function"
				},
				{
					"inputs": [
						{
							"internalType": "bytes32",
							"name": "_hashedName",
							"type": "bytes32"
						},
						{
							"internalType": "uint256",
							"name": "_age",
							"type": "uint256"
						},
						{
							"internalType": "bytes1",
							"name": "_gender",
							"type": "bytes1"
						},
						{
							"internalType": "uint256",
							"name": "_violationReportId",
							"type": "uint256"
						}
					],
					"name": "storeChildData",
					"outputs": [],
					"stateMutability": "nonpayable",
					"type": "function"
				},
				{
					"inputs": [
						{
							"internalType": "string",
							"name": "_reportIPFSHash",
							"type": "string"
						},
						{
							"internalType": "uint256",
							"name": "_spottedChildrenNumber",
							"type": "uint256"
						}
					],
					"name": "submitViolationReport",
					"outputs": [],
					"stateMutability": "nonpayable",
					"type": "function"
				},
				{
					"inputs": [
						{
							"internalType": "address",
							"name": "_verifier",
							"type": "address"
						}
					],
					"name": "updateVerifier",
					"outputs": [],
					"stateMutability": "nonpayable",
					"type": "function"
				},
				{
					"inputs": [
						{
							"internalType": "uint256",
							"name": "_violationReportId",
							"type": "uint256"
						},
						{
							"internalType": "bool",
							"name": "_decision",
							"type": "bool"
						}
					],
					"name": "verifyViolationReport",
					"outputs": [],
					"stateMutability": "nonpayable",
					"type": "function"
				},
				{
					"inputs": [
						{
							"internalType": "uint256",
							"name": "",
							"type": "uint256"
						}
					],
					"name": "violationReports",
					"outputs": [
						{
							"internalType": "address",
							"name": "reporter",
							"type": "address"
						},
						{
							"internalType": "uint256",
							"name": "timestamp",
							"type": "uint256"
						},
						{
							"internalType": "uint256",
							"name": "spottedChildrenNumber",
							"type": "uint256"
						},
						{
							"internalType": "bytes32",
							"name": "ipfsHash",
							"type": "bytes32"
						},
						{
							"internalType": "bool",
							"name": "isInspected",
							"type": "bool"
						},
						{
							"internalType": "bool",
							"name": "isVerified",
							"type": "bool"
						}
					],
					"stateMutability": "view",
					"type": "function"
				}
			],
			"devdoc": {
				"kind": "dev",
				"methods": {},
				"version": 1
			},
			"evm": {
				"assembly": "    /* \"ChildLabourManagement.sol\":5800:18185  contract ChildLabourManagement{... */\n  mstore(0x40, 0x80)\n    /* \"ChildLabourManagement.sol\":7671:7879  constructor(address _registration, address _verifier){... */\n  callvalue\n  dup1\n  iszero\n  tag_1\n  jumpi\n  0x00\n  dup1\n  revert\ntag_1:\n  pop\n  mload(0x40)\n  sub(codesize, bytecodeSize)\n  dup1\n  bytecodeSize\n  dup4\n  codecopy\n  dup2\n  add\n  0x40\n  dup2\n  swap1\n  mstore\n  tag_2\n  swap2\n  tag_3\n  jump\t// in\ntag_2:\n    /* \"ChildLabourManagement.sol\":7735:7747  Registration */\n  0x00\n    /* \"ChildLabourManagement.sol\":7735:7778  Registration = IRegistration(_registration) */\n  dup1\n  sload\n  sub(shl(0xa0, 0x01), 0x01)\n  swap4\n  dup5\n  and\n  not(sub(shl(0xa0, 0x01), 0x01))\n  swap2\n  dup3\n  and\n  or\n  dup3\n  sstore\n  0x01\n    /* \"ChildLabourManagement.sol\":7789:7820  Verifier = IVerifier(_verifier) */\n  dup1\n  sload\n  swap4\n  swap1\n  swap5\n  and\n  swap3\n  and\n  swap2\n  swap1\n  swap2\n  or\n  swap1\n  swap2\n  sstore\n    /* \"ChildLabourManagement.sol\":7831:7842  reportCount */\n  0x02\n    /* \"ChildLabourManagement.sol\":7831:7846  reportCount = 0 */\n  dup2\n  swap1\n  sstore\n    /* \"ChildLabourManagement.sol\":7857:7867  childCount */\n  0x03\n    /* \"ChildLabourManagement.sol\":7857:7871  childCount = 0 */\n  sstore\n    /* \"ChildLabourManagement.sol\":5800:18185  contract ChildLabourManagement{... */\n  jump(tag_8)\n    /* \"#utility.yul\":14:191   */\ntag_7:\n    /* \"#utility.yul\":93:106   */\n  dup1\n  mload\n  sub(shl(0xa0, 0x01), 0x01)\n    /* \"#utility.yul\":135:166   */\n  dup2\n  and\n    /* \"#utility.yul\":125:167   */\n  dup2\n  eq\n    /* \"#utility.yul\":115:185   */\n  tag_10\n  jumpi\n    /* \"#utility.yul\":181:182   */\n  0x00\n    /* \"#utility.yul\":178:179   */\n  dup1\n    /* \"#utility.yul\":171:183   */\n  revert\n    /* \"#utility.yul\":115:185   */\ntag_10:\n    /* \"#utility.yul\":14:191   */\n  swap2\n  swap1\n  pop\n  jump\t// out\n    /* \"#utility.yul\":196:489   */\ntag_3:\n    /* \"#utility.yul\":275:281   */\n  0x00\n    /* \"#utility.yul\":283:289   */\n  dup1\n    /* \"#utility.yul\":336:338   */\n  0x40\n    /* \"#utility.yul\":324:333   */\n  dup4\n    /* \"#utility.yul\":315:322   */\n  dup6\n    /* \"#utility.yul\":311:334   */\n  sub\n    /* \"#utility.yul\":307:339   */\n  slt\n    /* \"#utility.yul\":304:356   */\n  iszero\n  tag_12\n  jumpi\n    /* \"#utility.yul\":352:353   */\n  0x00\n    /* \"#utility.yul\":349:350   */\n  dup1\n    /* \"#utility.yul\":342:354   */\n  revert\n    /* \"#utility.yul\":304:356   */\ntag_12:\n    /* \"#utility.yul\":375:415   */\n  tag_13\n    /* \"#utility.yul\":405:414   */\n  dup4\n    /* \"#utility.yul\":375:415   */\n  tag_7\n  jump\t// in\ntag_13:\n    /* \"#utility.yul\":365:415   */\n  swap2\n  pop\n    /* \"#utility.yul\":434:483   */\n  tag_14\n    /* \"#utility.yul\":479:481   */\n  0x20\n    /* \"#utility.yul\":468:477   */\n  dup5\n    /* \"#utility.yul\":464:482   */\n  add\n    /* \"#utility.yul\":434:483   */\n  tag_7\n  jump\t// in\ntag_14:\n    /* \"#utility.yul\":424:483   */\n  swap1\n  pop\n    /* \"#utility.yul\":196:489   */\n  swap3\n  pop\n  swap3\n  swap1\n  pop\n  jump\t// out\ntag_8:\n    /* \"ChildLabourManagement.sol\":5800:18185  contract ChildLabourManagement{... */\n  dataSize(sub_0)\n  dup1\n  dataOffset(sub_0)\n  0x00\n  codecopy\n  0x00\n  return\nstop\n\nsub_0: assembly {\n        /* \"ChildLabourManagement.sol\":5800:18185  contract ChildLabourManagement{... */\n      mstore(0x40, 0x80)\n      callvalue\n      dup1\n      iszero\n      tag_1\n      jumpi\n      0x00\n      dup1\n      revert\n    tag_1:\n      pop\n      jumpi(tag_2, lt(calldatasize, 0x04))\n      shr(0xe0, calldataload(0x00))\n      dup1\n      0x84e2395d\n      gt\n      tag_26\n      jumpi\n      dup1\n      0xa1dc99b4\n      gt\n      tag_27\n      jumpi\n      dup1\n      0xa1dc99b4\n      eq\n      tag_20\n      jumpi\n      dup1\n      0xb05efaab\n      eq\n      tag_21\n      jumpi\n      dup1\n      0xd9a5ec1b\n      eq\n      tag_22\n      jumpi\n      dup1\n      0xe8a37919\n      eq\n      tag_23\n      jumpi\n      dup1\n      0xeff5cfae\n      eq\n      tag_24\n      jumpi\n      dup1\n      0xf8b4d690\n      eq\n      tag_25\n      jumpi\n      0x00\n      dup1\n      revert\n    tag_27:\n      dup1\n      0x84e2395d\n      eq\n      tag_14\n      jumpi\n      dup1\n      0x8bc3bbc0\n      eq\n      tag_15\n      jumpi\n      dup1\n      0x8fe2d950\n      eq\n      tag_16\n      jumpi\n      dup1\n      0x97fc007c\n      eq\n      tag_17\n      jumpi\n      dup1\n      0x992cc022\n      eq\n      tag_18\n      jumpi\n      dup1\n      0xa0619d4a\n      eq\n      tag_19\n      jumpi\n      0x00\n      dup1\n      revert\n    tag_26:\n      dup1\n      0x3835a119\n      gt\n      tag_28\n      jumpi\n      dup1\n      0x3835a119\n      eq\n      tag_8\n      jumpi\n      dup1\n      0x53ca8115\n      eq\n      tag_9\n      jumpi\n      dup1\n      0x636d0262\n      eq\n      tag_10\n      jumpi\n      dup1\n      0x6388bafc\n      eq\n      tag_11\n      jumpi\n      dup1\n      0x739f48a6\n      eq\n      tag_12\n      jumpi\n      dup1\n      0x832de71e\n      eq\n      tag_13\n      jumpi\n      0x00\n      dup1\n      revert\n    tag_28:\n      dup1\n      0x12f1a83a\n      eq\n      tag_3\n      jumpi\n      dup1\n      0x185c6f84\n      eq\n      tag_4\n      jumpi\n      dup1\n      0x28c10330\n      eq\n      tag_5\n      jumpi\n      dup1\n      0x2b76ea9c\n      eq\n      tag_6\n      jumpi\n      dup1\n      0x2ccc8392\n      eq\n      tag_7\n      jumpi\n    tag_2:\n      0x00\n      dup1\n      revert\n        /* \"ChildLabourManagement.sol\":7066:7132  mapping(uint256 => mapping(uint256 => ChildData)) public childData */\n    tag_3:\n      tag_29\n      tag_30\n      calldatasize\n      0x04\n      tag_31\n      jump\t// in\n    tag_30:\n      0x06\n      0x20\n      swap1\n      dup2\n      mstore\n      0x00\n      swap3\n      dup4\n      mstore\n      0x40\n      dup1\n      dup5\n      keccak256\n      swap1\n      swap2\n      mstore\n      swap1\n      dup3\n      mstore\n      swap1\n      keccak256\n      dup1\n      sload\n      0x01\n      dup3\n      add\n      sload\n      0x02\n      dup4\n      add\n      sload\n      0x03\n      dup5\n      add\n      sload\n      0x04\n      dup6\n      add\n      sload\n      0x05\n      swap1\n      swap6\n      add\n      sload\n      swap4\n      swap5\n      swap3\n      swap4\n      swap2\n      swap3\n      0xf8\n      swap2\n      swap1\n      swap2\n      shl\n      swap2\n      0xff\n      and\n      dup7\n      jump\n    tag_29:\n      mload(0x40)\n      tag_33\n      swap7\n      swap6\n      swap5\n      swap4\n      swap3\n      swap2\n      swap1\n      tag_34\n      jump\t// in\n    tag_33:\n      mload(0x40)\n      dup1\n      swap2\n      sub\n      swap1\n      return\n        /* \"ChildLabourManagement.sol\":5945:5971  uint256 public reportCount */\n    tag_4:\n      tag_35\n      sload(0x02)\n      dup2\n      jump\n    tag_35:\n      mload(0x40)\n        /* \"#utility.yul\":1381:1406   */\n      swap1\n      dup2\n      mstore\n        /* \"#utility.yul\":1369:1371   */\n      0x20\n        /* \"#utility.yul\":1354:1372   */\n      add\n        /* \"ChildLabourManagement.sol\":5945:5971  uint256 public reportCount */\n      tag_33\n        /* \"#utility.yul\":1235:1412   */\n      jump\n        /* \"ChildLabourManagement.sol\":11647:12209  function verifyViolationReport(uint256 _violationReportId, bool _decision) public onlyInspectionAgent{... */\n    tag_5:\n      tag_39\n      tag_40\n      calldatasize\n      0x04\n      tag_41\n      jump\t// in\n    tag_40:\n      tag_42\n      jump\t// in\n    tag_39:\n      stop\n        /* \"ChildLabourManagement.sol\":7287:7351  mapping(uint256 => ChildRemediation) public childRemediationData */\n    tag_6:\n      tag_43\n      tag_44\n      calldatasize\n      0x04\n      tag_45\n      jump\t// in\n    tag_44:\n      mstore(0x20, 0x08)\n      0x00\n      swap1\n      dup2\n      mstore\n      0x40\n      swap1\n      keccak256\n      dup1\n      sload\n      0x01\n      dup3\n      add\n      sload\n      0x02\n      dup4\n      add\n      sload\n      0x03\n      dup5\n      add\n      sload\n      0x04\n      dup6\n      add\n      sload\n      0x05\n      swap1\n      swap6\n      add\n      sload\n      sub(shl(0xa0, 0x01), 0x01)\n      swap1\n      swap5\n      and\n      swap5\n      swap3\n      swap4\n      swap2\n      swap3\n      swap1\n      swap2\n      0xff\n      and\n      dup7\n      jump\n    tag_43:\n      mload(0x40)\n      tag_33\n      swap7\n      swap6\n      swap5\n      swap4\n      swap3\n      swap2\n      swap1\n      tag_48\n      jump\t// in\n        /* \"ChildLabourManagement.sol\":17357:17695  function accessControl(IVerifier.Proof memory proof) public returns(bool) {... */\n    tag_7:\n      tag_49\n      tag_50\n      calldatasize\n      0x04\n      tag_51\n      jump\t// in\n    tag_50:\n      tag_52\n      jump\t// in\n    tag_49:\n      mload(0x40)\n        /* \"#utility.yul\":5137:5151   */\n      swap1\n      iszero\n        /* \"#utility.yul\":5130:5152   */\n      iszero\n        /* \"#utility.yul\":5112:5153   */\n      dup2\n      mstore\n        /* \"#utility.yul\":5100:5102   */\n      0x20\n        /* \"#utility.yul\":5085:5103   */\n      add\n        /* \"ChildLabourManagement.sol\":17357:17695  function accessControl(IVerifier.Proof memory proof) public returns(bool) {... */\n      tag_33\n        /* \"#utility.yul\":4972:5159   */\n      jump\n        /* \"ChildLabourManagement.sol\":6800:6859  mapping(uint256 => ViolationReport) public violationReports */\n    tag_8:\n      tag_55\n      tag_56\n      calldatasize\n      0x04\n      tag_45\n      jump\t// in\n    tag_56:\n      0x04\n      0x20\n      dup2\n      swap1\n      mstore\n      0x00\n      swap2\n      dup3\n      mstore\n      0x40\n      swap1\n      swap2\n      keccak256\n      dup1\n      sload\n      0x01\n      dup3\n      add\n      sload\n      0x02\n      dup4\n      add\n      sload\n      0x03\n      dup5\n      add\n      sload\n      swap4\n      swap1\n      swap5\n      add\n      sload\n      sub(shl(0xa0, 0x01), 0x01)\n      swap1\n      swap3\n      and\n      swap4\n      swap1\n      swap3\n      swap1\n      swap2\n      0xff\n      dup1\n      dup3\n      and\n      swap2\n      0x0100\n      swap1\n      div\n      and\n      dup7\n      jump\n    tag_55:\n      0x40\n      dup1\n      mload\n      sub(shl(0xa0, 0x01), 0x01)\n        /* \"#utility.yul\":5457:5489   */\n      swap1\n      swap8\n      and\n        /* \"#utility.yul\":5439:5490   */\n      dup8\n      mstore\n        /* \"#utility.yul\":5521:5523   */\n      0x20\n        /* \"#utility.yul\":5506:5524   */\n      dup8\n      add\n        /* \"#utility.yul\":5499:5533   */\n      swap6\n      swap1\n      swap6\n      mstore\n        /* \"#utility.yul\":5549:5567   */\n      swap4\n      dup6\n      add\n        /* \"#utility.yul\":5542:5576   */\n      swap3\n      swap1\n      swap3\n      mstore\n        /* \"#utility.yul\":5607:5609   */\n      0x60\n        /* \"#utility.yul\":5592:5610   */\n      dup5\n      add\n        /* \"#utility.yul\":5585:5619   */\n      mstore\n        /* \"#utility.yul\":5663:5677   */\n      iszero\n        /* \"#utility.yul\":5656:5678   */\n      iszero\n        /* \"#utility.yul\":5650:5653   */\n      0x80\n        /* \"#utility.yul\":5635:5654   */\n      dup4\n      add\n        /* \"#utility.yul\":5628:5679   */\n      mstore\n        /* \"#utility.yul\":5723:5737   */\n      iszero\n        /* \"#utility.yul\":5716:5738   */\n      iszero\n        /* \"#utility.yul\":5477:5480   */\n      0xa0\n        /* \"#utility.yul\":5695:5714   */\n      dup3\n      add\n        /* \"#utility.yul\":5688:5739   */\n      mstore\n        /* \"#utility.yul\":5426:5429   */\n      0xc0\n        /* \"#utility.yul\":5411:5430   */\n      add\n        /* \"ChildLabourManagement.sol\":6800:6859  mapping(uint256 => ViolationReport) public violationReports */\n      tag_33\n        /* \"#utility.yul\":5164:5745   */\n      jump\n        /* \"ChildLabourManagement.sol\":5913:5938  IVerifier public Verifier */\n    tag_9:\n      sload(0x01)\n      tag_60\n      swap1\n      sub(shl(0xa0, 0x01), 0x01)\n      and\n      dup2\n      jump\n    tag_60:\n      mload(0x40)\n      sub(shl(0xa0, 0x01), 0x01)\n        /* \"#utility.yul\":5931:5963   */\n      swap1\n      swap2\n      and\n        /* \"#utility.yul\":5913:5964   */\n      dup2\n      mstore\n        /* \"#utility.yul\":5901:5903   */\n      0x20\n        /* \"#utility.yul\":5886:5904   */\n      add\n        /* \"ChildLabourManagement.sol\":5913:5938  IVerifier public Verifier */\n      tag_33\n        /* \"#utility.yul\":5750:5970   */\n      jump\n        /* \"ChildLabourManagement.sol\":11237:11639  function getViolationReport(uint256 _violationReportId) public onlyInspectionAgent returns(address reporter, uint256 date, bytes32 reportDetails){... */\n    tag_10:\n      tag_64\n      tag_65\n      calldatasize\n      0x04\n      tag_45\n      jump\t// in\n    tag_65:\n      tag_66\n      jump\t// in\n    tag_64:\n      0x40\n      dup1\n      mload\n      sub(shl(0xa0, 0x01), 0x01)\n        /* \"#utility.yul\":6195:6227   */\n      swap1\n      swap5\n      and\n        /* \"#utility.yul\":6177:6228   */\n      dup5\n      mstore\n        /* \"#utility.yul\":6259:6261   */\n      0x20\n        /* \"#utility.yul\":6244:6262   */\n      dup5\n      add\n        /* \"#utility.yul\":6237:6271   */\n      swap3\n      swap1\n      swap3\n      mstore\n        /* \"#utility.yul\":6287:6305   */\n      swap1\n      dup3\n      add\n        /* \"#utility.yul\":6280:6314   */\n      mstore\n        /* \"#utility.yul\":6165:6167   */\n      0x60\n        /* \"#utility.yul\":6150:6168   */\n      add\n        /* \"ChildLabourManagement.sol\":11237:11639  function getViolationReport(uint256 _violationReportId) public onlyInspectionAgent returns(address reporter, uint256 date, bytes32 reportDetails){... */\n      tag_33\n        /* \"#utility.yul\":5975:6320   */\n      jump\n        /* \"ChildLabourManagement.sol\":7173:7227  mapping(uint256 => uint256) public reportChildrenCount */\n    tag_11:\n      tag_35\n      tag_70\n      calldatasize\n      0x04\n      tag_45\n      jump\t// in\n    tag_70:\n      mstore(0x20, 0x07)\n      0x00\n      swap1\n      dup2\n      mstore\n      0x40\n      swap1\n      keccak256\n      sload\n      dup2\n      jump\n        /* \"ChildLabourManagement.sol\":15766:16523  function completeRemediation(uint256 _violationReportId, uint256 _childId) public onlyGuardian(_childId){... */\n    tag_12:\n      tag_39\n      tag_74\n      calldatasize\n      0x04\n      tag_31\n      jump\t// in\n    tag_74:\n      tag_75\n      jump\t// in\n        /* \"ChildLabourManagement.sol\":12321:13241  function storeChildData(bytes32 _hashedName, uint256 _age, bytes1 _gender, uint256 _violationReportId) public onlyInspectionAgent{... */\n    tag_13:\n      tag_39\n      tag_77\n      calldatasize\n      0x04\n      tag_78\n      jump\t// in\n    tag_77:\n      tag_79\n      jump\t// in\n        /* \"ChildLabourManagement.sol\":13249:13867  function getChildData(uint256 _violationReportId, uint256 _childId) public onlyDataAnalyst returns(bytes32 hashedName, uint256 age, bytes1 gender, bytes32 reportipfshash){... */\n    tag_14:\n      tag_80\n      tag_81\n      calldatasize\n      0x04\n      tag_31\n      jump\t// in\n    tag_81:\n      tag_82\n      jump\t// in\n    tag_80:\n      mload(0x40)\n      tag_33\n      swap5\n      swap4\n      swap3\n      swap2\n      swap1\n        /* \"#utility.yul\":7043:7068   */\n      swap4\n      dup5\n      mstore\n        /* \"#utility.yul\":7099:7101   */\n      0x20\n        /* \"#utility.yul\":7084:7102   */\n      dup5\n      add\n        /* \"#utility.yul\":7077:7111   */\n      swap3\n      swap1\n      swap3\n      mstore\n      not(sub(shl(0xf8, 0x01), 0x01))\n        /* \"#utility.yul\":7147:7173   */\n      and\n        /* \"#utility.yul\":7142:7144   */\n      0x40\n        /* \"#utility.yul\":7127:7145   */\n      dup4\n      add\n        /* \"#utility.yul\":7120:7174   */\n      mstore\n        /* \"#utility.yul\":7205:7207   */\n      0x60\n        /* \"#utility.yul\":7190:7208   */\n      dup3\n      add\n        /* \"#utility.yul\":7183:7217   */\n      mstore\n        /* \"#utility.yul\":7030:7033   */\n      0x80\n        /* \"#utility.yul\":7015:7034   */\n      add\n      swap1\n        /* \"#utility.yul\":6814:7223   */\n      jump\n        /* \"ChildLabourManagement.sol\":5978:6003  uint256 public childCount */\n    tag_15:\n      tag_35\n      sload(0x03)\n      dup2\n      jump\n        /* \"ChildLabourManagement.sol\":10524:11001  function submitViolationReport(string memory _reportIPFSHash, uint256 _spottedChildrenNumber) public onlywhistleBlowers{... */\n    tag_16:\n      tag_39\n      tag_89\n      calldatasize\n      0x04\n      tag_90\n      jump\t// in\n    tag_89:\n      tag_91\n      jump\t// in\n        /* \"ChildLabourManagement.sol\":18057:18180  function updateVerifier(address _verifier) public onlyRegulatoryAuthority{... */\n    tag_17:\n      tag_39\n      tag_93\n      calldatasize\n      0x04\n      tag_94\n      jump\t// in\n    tag_93:\n      tag_95\n      jump\t// in\n        /* \"ChildLabourManagement.sol\":14763:15758  function startRemediation(uint256 _violationReportId, uint256 _childId, uint256 _daysToRemediate) public onlyGuardian(_childId) {... */\n    tag_18:\n      tag_39\n      tag_97\n      calldatasize\n      0x04\n      tag_98\n      jump\t// in\n    tag_97:\n      tag_99\n      jump\t// in\n        /* \"ChildLabourManagement.sol\":7485:7532  mapping(address => bool) public accessWhitelist */\n    tag_19:\n      tag_49\n      tag_101\n      calldatasize\n      0x04\n      tag_94\n      jump\t// in\n    tag_101:\n      mstore(0x20, 0x09)\n      0x00\n      swap1\n      dup2\n      mstore\n      0x40\n      swap1\n      keccak256\n      sload\n      0xff\n      and\n      dup2\n      jump\n        /* \"ChildLabourManagement.sol\":16531:17122  function getChildStatus(uint256 _violationReportId, uint256 _childId) public onlyRegulatoryAuthority returns(ChildStatus, uint256, uint256, uint256){... */\n    tag_20:\n      tag_104\n      tag_105\n      calldatasize\n      0x04\n      tag_31\n      jump\t// in\n    tag_105:\n      tag_106\n      jump\t// in\n    tag_104:\n      mload(0x40)\n      tag_33\n      swap5\n      swap4\n      swap3\n      swap2\n      swap1\n      tag_108\n      jump\t// in\n        /* \"ChildLabourManagement.sol\":6897:6951  mapping(uint256 => uint256) public child2ReportMapping */\n    tag_21:\n      tag_35\n      tag_110\n      calldatasize\n      0x04\n      tag_45\n      jump\t// in\n    tag_110:\n      mstore(0x20, 0x05)\n      0x00\n      swap1\n      dup2\n      mstore\n      0x40\n      swap1\n      keccak256\n      sload\n      dup2\n      jump\n        /* \"ChildLabourManagement.sol\":17772:17964  function revokeAccess(uint256 , address _user) public onlyRegulatoryAuthority {... */\n    tag_22:\n      tag_39\n      tag_114\n      calldatasize\n      0x04\n      tag_115\n      jump\t// in\n    tag_114:\n      tag_116\n      jump\t// in\n        /* \"ChildLabourManagement.sol\":5873:5906  IRegistration public Registration */\n    tag_23:\n      sload(0x00)\n      tag_60\n      swap1\n      sub(shl(0xa0, 0x01), 0x01)\n      and\n      dup2\n      jump\n        /* \"ChildLabourManagement.sol\":13875:14693  function assignGuardian(uint256 _violationReportId, uint256 _childId, address _guardian) public onlyRegulatoryAuthority{... */\n    tag_24:\n      tag_39\n      tag_122\n      calldatasize\n      0x04\n      tag_123\n      jump\t// in\n    tag_122:\n      tag_124\n      jump\t// in\n        /* \"ChildLabourManagement.sol\":7577:7631  mapping(uint256 => IVerifier.Proof) public reportProof */\n    tag_25:\n      tag_125\n      tag_126\n      calldatasize\n      0x04\n      tag_45\n      jump\t// in\n    tag_126:\n      tag_127\n      jump\t// in\n    tag_125:\n      mload(0x40)\n      tag_33\n      swap4\n      swap3\n      swap2\n      swap1\n      tag_129\n      jump\t// in\n        /* \"ChildLabourManagement.sol\":11647:12209  function verifyViolationReport(uint256 _violationReportId, bool _decision) public onlyInspectionAgent{... */\n    tag_42:\n        /* \"ChildLabourManagement.sol\":8567:8602  IRegistration.EntityType entitytype */\n      0x00\n        /* \"ChildLabourManagement.sol\":8625:8637  Registration */\n      dup1\n      sload\n        /* \"ChildLabourManagement.sol\":8625:8659  Registration.getEntity(msg.sender) */\n      mload(0x40)\n      shl(0xe2, 0x1d6253a3)\n      dup2\n      mstore\n        /* \"ChildLabourManagement.sol\":8648:8658  msg.sender */\n      caller\n        /* \"ChildLabourManagement.sol\":8625:8659  Registration.getEntity(msg.sender) */\n      0x04\n      dup3\n      add\n        /* \"#utility.yul\":5913:5964   */\n      mstore\n        /* \"ChildLabourManagement.sol\":8567:8602  IRegistration.EntityType entitytype */\n      dup3\n      swap2\n      sub(shl(0xa0, 0x01), 0x01)\n        /* \"ChildLabourManagement.sol\":8625:8637  Registration */\n      and\n      swap1\n        /* \"ChildLabourManagement.sol\":8625:8647  Registration.getEntity */\n      0x75894e8c\n      swap1\n        /* \"#utility.yul\":5886:5904   */\n      0x24\n      add\n        /* \"ChildLabourManagement.sol\":8625:8659  Registration.getEntity(msg.sender) */\n      0x40\n      dup1\n      mload\n      dup1\n      dup4\n      sub\n      dup2\n      0x00\n      dup8\n      gas\n      call\n      iszero\n      dup1\n      iszero\n      tag_134\n      jumpi\n      returndatasize\n      0x00\n      dup1\n      returndatacopy\n      revert(0x00, returndatasize)\n    tag_134:\n      pop\n      pop\n      pop\n      pop\n      mload(0x40)\n      returndatasize\n      not(0x1f)\n      0x1f\n      dup3\n      add\n      and\n      dup3\n      add\n      dup1\n      0x40\n      mstore\n      pop\n      dup2\n      add\n      swap1\n      tag_135\n      swap2\n      swap1\n      tag_136\n      jump\t// in\n    tag_135:\n        /* \"ChildLabourManagement.sol\":8566:8659  (IRegistration.EntityType entitytype, bool isRegistered) = Registration.getEntity(msg.sender) */\n      swap1\n      swap3\n      pop\n      swap1\n      pop\n        /* \"ChildLabourManagement.sol\":8692:8732  IRegistration.EntityType.InspectionAgent */\n      0x02\n        /* \"ChildLabourManagement.sol\":8678:8688  entitytype */\n      dup3\n        /* \"ChildLabourManagement.sol\":8678:8732  entitytype == IRegistration.EntityType.InspectionAgent */\n      0x04\n      dup2\n      gt\n      iszero\n      tag_141\n      jumpi\n      tag_141\n      tag_139\n      jump\t// in\n    tag_141:\n      eq\n        /* \"ChildLabourManagement.sol\":8678:8748  entitytype == IRegistration.EntityType.InspectionAgent && isRegistered */\n      dup1\n      iszero\n      tag_142\n      jumpi\n      pop\n        /* \"ChildLabourManagement.sol\":8736:8748  isRegistered */\n      dup1\n        /* \"ChildLabourManagement.sol\":8678:8748  entitytype == IRegistration.EntityType.InspectionAgent && isRegistered */\n    tag_142:\n        /* \"ChildLabourManagement.sol\":8670:8800  require(entitytype == IRegistration.EntityType.InspectionAgent && isRegistered, \"Only the Inspection Agent can run this function\") */\n      tag_143\n      jumpi\n      mload(0x40)\n      shl(0xe5, 0x461bcd)\n      dup2\n      mstore\n      0x04\n      add\n      tag_144\n      swap1\n      tag_145\n      jump\t// in\n    tag_144:\n      mload(0x40)\n      dup1\n      swap2\n      sub\n      swap1\n      revert\n    tag_143:\n        /* \"ChildLabourManagement.sol\":11789:11790  1 */\n      0x01\n        /* \"ChildLabourManagement.sol\":11767:11785  _violationReportId */\n      dup5\n        /* \"ChildLabourManagement.sol\":11767:11790  _violationReportId >= 1 */\n      lt\n      iszero\n        /* \"ChildLabourManagement.sol\":11767:11827  _violationReportId >= 1 && _violationReportId <= reportCount */\n      dup1\n      iszero\n      tag_147\n      jumpi\n      pop\n        /* \"ChildLabourManagement.sol\":11816:11827  reportCount */\n      sload(0x02)\n        /* \"ChildLabourManagement.sol\":11794:11812  _violationReportId */\n      dup5\n        /* \"ChildLabourManagement.sol\":11794:11827  _violationReportId <= reportCount */\n      gt\n      iszero\n        /* \"ChildLabourManagement.sol\":11767:11827  _violationReportId >= 1 && _violationReportId <= reportCount */\n    tag_147:\n        /* \"ChildLabourManagement.sol\":11759:11849  require(_violationReportId >= 1 && _violationReportId <= reportCount, \"Invalid Report ID\") */\n      tag_148\n      jumpi\n      mload(0x40)\n      shl(0xe5, 0x461bcd)\n      dup2\n      mstore\n      0x04\n      add\n      tag_144\n      swap1\n      tag_150\n      jump\t// in\n    tag_148:\n        /* \"ChildLabourManagement.sol\":11869:11905  violationReports[_violationReportId] */\n      0x00\n      dup5\n      dup2\n      mstore\n        /* \"ChildLabourManagement.sol\":11869:11885  violationReports */\n      0x04\n        /* \"ChildLabourManagement.sol\":11869:11905  violationReports[_violationReportId] */\n      0x20\n      dup2\n      swap1\n      mstore\n      0x40\n      swap1\n      swap2\n      keccak256\n        /* \"ChildLabourManagement.sol\":11869:11917  violationReports[_violationReportId].isInspected */\n      add\n      sload\n      0xff\n      and\n        /* \"ChildLabourManagement.sol\":11868:11917  !violationReports[_violationReportId].isInspected */\n      iszero\n        /* \"ChildLabourManagement.sol\":11860:11960  require(!violationReports[_violationReportId].isInspected, \"This report has already been inspected\") */\n      tag_151\n      jumpi\n      mload(0x40)\n      shl(0xe5, 0x461bcd)\n      dup2\n      mstore\n        /* \"#utility.yul\":12812:12814   */\n      0x20\n        /* \"ChildLabourManagement.sol\":11860:11960  require(!violationReports[_violationReportId].isInspected, \"This report has already been inspected\") */\n      0x04\n      dup3\n      add\n        /* \"#utility.yul\":12794:12815   */\n      mstore\n        /* \"#utility.yul\":12851:12853   */\n      0x26\n        /* \"#utility.yul\":12831:12849   */\n      0x24\n      dup3\n      add\n        /* \"#utility.yul\":12824:12854   */\n      mstore\n        /* \"#utility.yul\":12890:12924   */\n      0x54686973207265706f72742068617320616c7265616479206265656e20696e73\n        /* \"#utility.yul\":12870:12888   */\n      0x44\n      dup3\n      add\n        /* \"#utility.yul\":12863:12925   */\n      mstore\n      shl(0xd2, 0x1c1958dd1959)\n        /* \"#utility.yul\":12941:12959   */\n      0x64\n      dup3\n      add\n        /* \"#utility.yul\":12934:12970   */\n      mstore\n        /* \"#utility.yul\":12987:13006   */\n      0x84\n      add\n        /* \"ChildLabourManagement.sol\":11860:11960  require(!violationReports[_violationReportId].isInspected, \"This report has already been inspected\") */\n      tag_144\n        /* \"#utility.yul\":12610:13012   */\n      jump\n        /* \"ChildLabourManagement.sol\":11860:11960  require(!violationReports[_violationReportId].isInspected, \"This report has already been inspected\") */\n    tag_151:\n        /* \"ChildLabourManagement.sol\":11971:12007  violationReports[_violationReportId] */\n      0x00\n      dup5\n      dup2\n      mstore\n        /* \"ChildLabourManagement.sol\":11971:11987  violationReports */\n      0x04\n        /* \"ChildLabourManagement.sol\":11971:12007  violationReports[_violationReportId] */\n      0x20\n      dup2\n      swap1\n      mstore\n      0x40\n      swap2\n      dup3\n      swap1\n      keccak256\n        /* \"ChildLabourManagement.sol\":11971:12019  violationReports[_violationReportId].isInspected */\n      add\n        /* \"ChildLabourManagement.sol\":11971:12026  violationReports[_violationReportId].isInspected = true */\n      dup1\n      sload\n        /* \"ChildLabourManagement.sol\":12037:12096  violationReports[_violationReportId].isVerified = _decision */\n      dup6\n      iszero\n      iszero\n        /* \"ChildLabourManagement.sol\":11971:12026  violationReports[_violationReportId].isInspected = true */\n      0x0100\n        /* \"ChildLabourManagement.sol\":12037:12096  violationReports[_violationReportId].isVerified = _decision */\n      mul\n      not(0xffff)\n      swap1\n      swap2\n      and\n      or\n        /* \"ChildLabourManagement.sol\":12022:12026  true */\n      0x01\n        /* \"ChildLabourManagement.sol\":12037:12096  violationReports[_violationReportId].isVerified = _decision */\n      or\n      swap1\n      sstore\n        /* \"ChildLabourManagement.sol\":12114:12201  ViolationReportVerification(_violationReportId, msg.sender, _decision, block.timestamp) */\n      mload\n        /* \"ChildLabourManagement.sol\":11988:12006  _violationReportId */\n      dup5\n      swap1\n        /* \"ChildLabourManagement.sol\":12114:12201  ViolationReportVerification(_violationReportId, msg.sender, _decision, block.timestamp) */\n      0x5e672278b5a4ce7f1deaeb816f60398e65c2401c6f90928e8344510d7fa92755\n      swap1\n      tag_154\n      swap1\n        /* \"ChildLabourManagement.sol\":12162:12172  msg.sender */\n      caller\n      swap1\n        /* \"ChildLabourManagement.sol\":12087:12096  _decision */\n      dup8\n      swap1\n        /* \"ChildLabourManagement.sol\":12185:12200  block.timestamp */\n      timestamp\n      swap1\n      sub(shl(0xa0, 0x01), 0x01)\n        /* \"#utility.yul\":13231:13263   */\n      swap4\n      swap1\n      swap4\n      and\n        /* \"#utility.yul\":13213:13264   */\n      dup4\n      mstore\n        /* \"#utility.yul\":13307:13321   */\n      swap1\n      iszero\n        /* \"#utility.yul\":13300:13322   */\n      iszero\n        /* \"#utility.yul\":13295:13297   */\n      0x20\n        /* \"#utility.yul\":13280:13298   */\n      dup4\n      add\n        /* \"#utility.yul\":13273:13323   */\n      mstore\n        /* \"#utility.yul\":13354:13356   */\n      0x40\n        /* \"#utility.yul\":13339:13357   */\n      dup3\n      add\n        /* \"#utility.yul\":13332:13366   */\n      mstore\n        /* \"#utility.yul\":13201:13203   */\n      0x60\n        /* \"#utility.yul\":13186:13204   */\n      add\n      swap1\n        /* \"#utility.yul\":13017:13372   */\n      jump\n        /* \"ChildLabourManagement.sol\":12114:12201  ViolationReportVerification(_violationReportId, msg.sender, _decision, block.timestamp) */\n    tag_154:\n      mload(0x40)\n      dup1\n      swap2\n      sub\n      swap1\n      log2\n        /* \"ChildLabourManagement.sol\":8555:8820  {... */\n      pop\n      pop\n        /* \"ChildLabourManagement.sol\":11647:12209  function verifyViolationReport(uint256 _violationReportId, bool _decision) public onlyInspectionAgent{... */\n      pop\n      pop\n      jump\t// out\n        /* \"ChildLabourManagement.sol\":17357:17695  function accessControl(IVerifier.Proof memory proof) public returns(bool) {... */\n    tag_52:\n        /* \"ChildLabourManagement.sol\":17453:17461  Verifier */\n      sload(0x01)\n        /* \"ChildLabourManagement.sol\":17453:17477  Verifier.verifyTx(proof) */\n      mload(0x40)\n      shl(0xe0, 0xf6af0311)\n      dup2\n      mstore\n        /* \"ChildLabourManagement.sol\":17425:17429  bool */\n      0x00\n      swap2\n      dup3\n      swap2\n      sub(shl(0xa0, 0x01), 0x01)\n        /* \"ChildLabourManagement.sol\":17453:17461  Verifier */\n      swap1\n      swap2\n      and\n      swap1\n        /* \"ChildLabourManagement.sol\":17453:17470  Verifier.verifyTx */\n      0xf6af0311\n      swap1\n        /* \"ChildLabourManagement.sol\":17453:17477  Verifier.verifyTx(proof) */\n      tag_157\n      swap1\n        /* \"ChildLabourManagement.sol\":17471:17476  proof */\n      dup7\n      swap1\n        /* \"ChildLabourManagement.sol\":17453:17477  Verifier.verifyTx(proof) */\n      0x04\n      add\n      tag_158\n      jump\t// in\n    tag_157:\n      0x20\n      mload(0x40)\n      dup1\n      dup4\n      sub\n      dup2\n      dup7\n      gas\n      staticcall\n      iszero\n      dup1\n      iszero\n      tag_160\n      jumpi\n      returndatasize\n      0x00\n      dup1\n      returndatacopy\n      revert(0x00, returndatasize)\n    tag_160:\n      pop\n      pop\n      pop\n      pop\n      mload(0x40)\n      returndatasize\n      not(0x1f)\n      0x1f\n      dup3\n      add\n      and\n      dup3\n      add\n      dup1\n      0x40\n      mstore\n      pop\n      dup2\n      add\n      swap1\n      tag_161\n      swap2\n      swap1\n      tag_162\n      jump\t// in\n    tag_161:\n        /* \"ChildLabourManagement.sol\":17444:17477  bool r = Verifier.verifyTx(proof) */\n      swap1\n      pop\n        /* \"ChildLabourManagement.sol\":17494:17495  r */\n      dup1\n        /* \"ChildLabourManagement.sol\":17490:17688  if (r){... */\n      iszero\n      tag_163\n      jumpi\n        /* \"ChildLabourManagement.sol\":17527:17537  msg.sender */\n      caller\n        /* \"ChildLabourManagement.sol\":17511:17538  accessWhitelist[msg.sender] */\n      0x00\n      dup2\n      dup2\n      mstore\n        /* \"ChildLabourManagement.sol\":17511:17526  accessWhitelist */\n      0x09\n        /* \"ChildLabourManagement.sol\":17511:17538  accessWhitelist[msg.sender] */\n      0x20\n      swap1\n      dup2\n      mstore\n      0x40\n      swap2\n      dup3\n      swap1\n      keccak256\n        /* \"ChildLabourManagement.sol\":17511:17545  accessWhitelist[msg.sender] = true */\n      dup1\n      sload\n      not(0xff)\n      and\n        /* \"ChildLabourManagement.sol\":17541:17545  true */\n      0x01\n        /* \"ChildLabourManagement.sol\":17511:17545  accessWhitelist[msg.sender] = true */\n      or\n      swap1\n      sstore\n        /* \"ChildLabourManagement.sol\":17565:17605  Whitelisted(msg.sender, block.timestamp) */\n      dup2\n      mload\n        /* \"#utility.yul\":14304:14355   */\n      swap3\n      dup4\n      mstore\n        /* \"ChildLabourManagement.sol\":17589:17604  block.timestamp */\n      timestamp\n        /* \"#utility.yul\":14371:14389   */\n      swap1\n      dup4\n      add\n        /* \"#utility.yul\":14364:14398   */\n      mstore\n        /* \"ChildLabourManagement.sol\":17565:17605  Whitelisted(msg.sender, block.timestamp) */\n      0x6ea640312e182de387819fbeb13be00db3171a445412852248559054871c4199\n      swap2\n        /* \"#utility.yul\":14277:14295   */\n      add\n        /* \"ChildLabourManagement.sol\":17565:17605  Whitelisted(msg.sender, block.timestamp) */\n      mload(0x40)\n      dup1\n      swap2\n      sub\n      swap1\n      log1\n      pop\n        /* \"ChildLabourManagement.sol\":17627:17631  true */\n      0x01\n      swap3\n        /* \"ChildLabourManagement.sol\":17357:17695  function accessControl(IVerifier.Proof memory proof) public returns(bool) {... */\n      swap2\n      pop\n      pop\n      jump\t// out\n        /* \"ChildLabourManagement.sol\":17490:17688  if (r){... */\n    tag_163:\n      pop\n        /* \"ChildLabourManagement.sol\":17671:17676  false */\n      0x00\n      swap3\n        /* \"ChildLabourManagement.sol\":17357:17695  function accessControl(IVerifier.Proof memory proof) public returns(bool) {... */\n      swap2\n      pop\n      pop\n      jump\t// out\n        /* \"ChildLabourManagement.sol\":17490:17688  if (r){... */\n    tag_166:\n        /* \"ChildLabourManagement.sol\":17431:17695  {... */\n      pop\n        /* \"ChildLabourManagement.sol\":17357:17695  function accessControl(IVerifier.Proof memory proof) public returns(bool) {... */\n      swap2\n      swap1\n      pop\n      jump\t// out\n        /* \"ChildLabourManagement.sol\":11237:11639  function getViolationReport(uint256 _violationReportId) public onlyInspectionAgent returns(address reporter, uint256 date, bytes32 reportDetails){... */\n    tag_66:\n        /* \"ChildLabourManagement.sol\":11328:11344  address reporter */\n      0x00\n        /* \"ChildLabourManagement.sol\":8625:8637  Registration */\n      dup1\n      sload\n        /* \"ChildLabourManagement.sol\":8625:8659  Registration.getEntity(msg.sender) */\n      mload(0x40)\n      shl(0xe2, 0x1d6253a3)\n      dup2\n      mstore\n        /* \"ChildLabourManagement.sol\":8648:8658  msg.sender */\n      caller\n        /* \"ChildLabourManagement.sol\":8625:8659  Registration.getEntity(msg.sender) */\n      0x04\n      dup3\n      add\n        /* \"#utility.yul\":5913:5964   */\n      mstore\n        /* \"ChildLabourManagement.sol\":11328:11344  address reporter */\n      dup3\n      swap2\n      dup3\n      swap2\n      dup3\n      swap2\n      dup3\n      swap2\n      sub(shl(0xa0, 0x01), 0x01)\n        /* \"ChildLabourManagement.sol\":8625:8637  Registration */\n      swap1\n      swap2\n      and\n      swap1\n        /* \"ChildLabourManagement.sol\":8625:8647  Registration.getEntity */\n      0x75894e8c\n      swap1\n        /* \"#utility.yul\":5886:5904   */\n      0x24\n      add\n        /* \"ChildLabourManagement.sol\":8625:8659  Registration.getEntity(msg.sender) */\n      0x40\n      dup1\n      mload\n      dup1\n      dup4\n      sub\n      dup2\n      0x00\n      dup8\n      gas\n      call\n      iszero\n      dup1\n      iszero\n      tag_170\n      jumpi\n      returndatasize\n      0x00\n      dup1\n      returndatacopy\n      revert(0x00, returndatasize)\n    tag_170:\n      pop\n      pop\n      pop\n      pop\n      mload(0x40)\n      returndatasize\n      not(0x1f)\n      0x1f\n      dup3\n      add\n      and\n      dup3\n      add\n      dup1\n      0x40\n      mstore\n      pop\n      dup2\n      add\n      swap1\n      tag_171\n      swap2\n      swap1\n      tag_136\n      jump\t// in\n    tag_171:\n        /* \"ChildLabourManagement.sol\":8566:8659  (IRegistration.EntityType entitytype, bool isRegistered) = Registration.getEntity(msg.sender) */\n      swap1\n      swap3\n      pop\n      swap1\n      pop\n        /* \"ChildLabourManagement.sol\":8692:8732  IRegistration.EntityType.InspectionAgent */\n      0x02\n        /* \"ChildLabourManagement.sol\":8678:8688  entitytype */\n      dup3\n        /* \"ChildLabourManagement.sol\":8678:8732  entitytype == IRegistration.EntityType.InspectionAgent */\n      0x04\n      dup2\n      gt\n      iszero\n      tag_175\n      jumpi\n      tag_175\n      tag_139\n      jump\t// in\n    tag_175:\n      eq\n        /* \"ChildLabourManagement.sol\":8678:8748  entitytype == IRegistration.EntityType.InspectionAgent && isRegistered */\n      dup1\n      iszero\n      tag_176\n      jumpi\n      pop\n        /* \"ChildLabourManagement.sol\":8736:8748  isRegistered */\n      dup1\n        /* \"ChildLabourManagement.sol\":8678:8748  entitytype == IRegistration.EntityType.InspectionAgent && isRegistered */\n    tag_176:\n        /* \"ChildLabourManagement.sol\":8670:8800  require(entitytype == IRegistration.EntityType.InspectionAgent && isRegistered, \"Only the Inspection Agent can run this function\") */\n      tag_177\n      jumpi\n      mload(0x40)\n      shl(0xe5, 0x461bcd)\n      dup2\n      mstore\n      0x04\n      add\n      tag_144\n      swap1\n      tag_145\n      jump\t// in\n    tag_177:\n        /* \"ChildLabourManagement.sol\":11423:11424  1 */\n      0x01\n        /* \"ChildLabourManagement.sol\":11401:11419  _violationReportId */\n      dup7\n        /* \"ChildLabourManagement.sol\":11401:11424  _violationReportId >= 1 */\n      lt\n      iszero\n        /* \"ChildLabourManagement.sol\":11401:11461  _violationReportId >= 1 && _violationReportId <= reportCount */\n      dup1\n      iszero\n      tag_180\n      jumpi\n      pop\n        /* \"ChildLabourManagement.sol\":11450:11461  reportCount */\n      sload(0x02)\n        /* \"ChildLabourManagement.sol\":11428:11446  _violationReportId */\n      dup7\n        /* \"ChildLabourManagement.sol\":11428:11461  _violationReportId <= reportCount */\n      gt\n      iszero\n        /* \"ChildLabourManagement.sol\":11401:11461  _violationReportId >= 1 && _violationReportId <= reportCount */\n    tag_180:\n        /* \"ChildLabourManagement.sol\":11393:11483  require(_violationReportId >= 1 && _violationReportId <= reportCount, \"Invalid Report ID\") */\n      tag_181\n      jumpi\n      mload(0x40)\n      shl(0xe5, 0x461bcd)\n      dup2\n      mstore\n      0x04\n      add\n      tag_144\n      swap1\n      tag_150\n      jump\t// in\n    tag_181:\n      pop\n      pop\n      pop\n        /* \"ChildLabourManagement.sol\":11494:11523  ViolationReport memory report */\n      0x00\n        /* \"ChildLabourManagement.sol\":11526:11562  violationReports[_violationReportId] */\n      swap3\n      dup4\n      mstore\n      pop\n      pop\n        /* \"ChildLabourManagement.sol\":11526:11542  violationReports */\n      0x04\n        /* \"ChildLabourManagement.sol\":11526:11562  violationReports[_violationReportId] */\n      0x20\n      dup2\n      dup2\n      mstore\n      0x40\n      swap3\n      dup4\n      swap1\n      keccak256\n        /* \"ChildLabourManagement.sol\":11494:11562  ViolationReport memory report = violationReports[_violationReportId] */\n      dup4\n      mload\n      0xc0\n      dup2\n      add\n      dup6\n      mstore\n      dup2\n      sload\n      sub(shl(0xa0, 0x01), 0x01)\n      and\n      dup1\n      dup3\n      mstore\n      0x01\n      dup4\n      add\n      sload\n      swap4\n      dup3\n      add\n      dup5\n      swap1\n      mstore\n      0x02\n      dup4\n      add\n      sload\n      swap6\n      dup3\n      add\n      swap6\n      swap1\n      swap6\n      mstore\n      0x03\n      dup3\n      add\n      sload\n      0x60\n      dup3\n      add\n      dup2\n      swap1\n      mstore\n      swap2\n      swap1\n      swap4\n      add\n      sload\n      0xff\n      dup1\n      dup3\n      and\n      iszero\n      iszero\n      0x80\n      dup7\n      add\n      mstore\n      0x0100\n      swap1\n      swap2\n      div\n      and\n      iszero\n      iszero\n      0xa0\n      swap1\n      swap4\n      add\n      swap3\n      swap1\n      swap3\n      mstore\n      swap2\n      swap3\n        /* \"ChildLabourManagement.sol\":11237:11639  function getViolationReport(uint256 _violationReportId) public onlyInspectionAgent returns(address reporter, uint256 date, bytes32 reportDetails){... */\n      jump\t// out\n        /* \"ChildLabourManagement.sol\":15766:16523  function completeRemediation(uint256 _violationReportId, uint256 _childId) public onlyGuardian(_childId){... */\n    tag_75:\n        /* \"ChildLabourManagement.sol\":9168:9203  IRegistration.EntityType entitytype */\n      0x00\n        /* \"ChildLabourManagement.sol\":9226:9238  Registration */\n      dup1\n      sload\n        /* \"ChildLabourManagement.sol\":9226:9260  Registration.getEntity(msg.sender) */\n      mload(0x40)\n      shl(0xe2, 0x1d6253a3)\n      dup2\n      mstore\n        /* \"ChildLabourManagement.sol\":9249:9259  msg.sender */\n      caller\n        /* \"ChildLabourManagement.sol\":9226:9260  Registration.getEntity(msg.sender) */\n      0x04\n      dup3\n      add\n        /* \"#utility.yul\":5913:5964   */\n      mstore\n        /* \"ChildLabourManagement.sol\":15861:15869  _childId */\n      dup4\n      swap3\n        /* \"ChildLabourManagement.sol\":9168:9203  IRegistration.EntityType entitytype */\n      swap2\n      dup3\n      swap2\n      sub(shl(0xa0, 0x01), 0x01)\n        /* \"ChildLabourManagement.sol\":9226:9238  Registration */\n      swap1\n      swap2\n      and\n      swap1\n        /* \"ChildLabourManagement.sol\":9226:9248  Registration.getEntity */\n      0x75894e8c\n      swap1\n        /* \"#utility.yul\":5886:5904   */\n      0x24\n      add\n        /* \"ChildLabourManagement.sol\":9226:9260  Registration.getEntity(msg.sender) */\n      0x40\n      dup1\n      mload\n      dup1\n      dup4\n      sub\n      dup2\n      0x00\n      dup8\n      gas\n      call\n      iszero\n      dup1\n      iszero\n      tag_186\n      jumpi\n      returndatasize\n      0x00\n      dup1\n      returndatacopy\n      revert(0x00, returndatasize)\n    tag_186:\n      pop\n      pop\n      pop\n      pop\n      mload(0x40)\n      returndatasize\n      not(0x1f)\n      0x1f\n      dup3\n      add\n      and\n      dup3\n      add\n      dup1\n      0x40\n      mstore\n      pop\n      dup2\n      add\n      swap1\n      tag_187\n      swap2\n      swap1\n      tag_136\n      jump\t// in\n    tag_187:\n        /* \"ChildLabourManagement.sol\":9167:9260  (IRegistration.EntityType entitytype, bool isRegistered) = Registration.getEntity(msg.sender) */\n      swap1\n      swap3\n      pop\n      swap1\n      pop\n        /* \"ChildLabourManagement.sol\":9293:9326  IRegistration.EntityType.Guardian */\n      0x04\n        /* \"ChildLabourManagement.sol\":9279:9289  entitytype */\n      dup3\n        /* \"ChildLabourManagement.sol\":9279:9326  entitytype == IRegistration.EntityType.Guardian */\n      0x04\n      dup2\n      gt\n      iszero\n      tag_191\n      jumpi\n      tag_191\n      tag_139\n      jump\t// in\n    tag_191:\n      eq\n        /* \"ChildLabourManagement.sol\":9279:9342  entitytype == IRegistration.EntityType.Guardian && isRegistered */\n      dup1\n      iszero\n      tag_192\n      jumpi\n      pop\n        /* \"ChildLabourManagement.sol\":9330:9342  isRegistered */\n      dup1\n        /* \"ChildLabourManagement.sol\":9279:9342  entitytype == IRegistration.EntityType.Guardian && isRegistered */\n    tag_192:\n        /* \"ChildLabourManagement.sol\":9271:9392  require(entitytype == IRegistration.EntityType.Guardian && isRegistered, \"Only the Child Guardian can run this function\") */\n      tag_193\n      jumpi\n      mload(0x40)\n      shl(0xe5, 0x461bcd)\n      dup2\n      mstore\n      0x04\n      add\n      tag_144\n      swap1\n      tag_195\n      jump\t// in\n    tag_193:\n        /* \"ChildLabourManagement.sol\":9411:9441  childRemediationData[_childId] */\n      0x00\n      dup4\n      dup2\n      mstore\n        /* \"ChildLabourManagement.sol\":9411:9431  childRemediationData */\n      0x08\n        /* \"ChildLabourManagement.sol\":9411:9441  childRemediationData[_childId] */\n      0x20\n      mstore\n      0x40\n      swap1\n      keccak256\n        /* \"ChildLabourManagement.sol\":9411:9450  childRemediationData[_childId].guardian */\n      sload\n      sub(shl(0xa0, 0x01), 0x01)\n      and\n        /* \"ChildLabourManagement.sol\":9454:9464  msg.sender */\n      caller\n        /* \"ChildLabourManagement.sol\":9411:9464  childRemediationData[_childId].guardian == msg.sender */\n      eq\n        /* \"ChildLabourManagement.sol\":9403:9531  require(childRemediationData[_childId].guardian == msg.sender, \"Only the assigned Guardian to this child can run this function\") */\n      tag_196\n      jumpi\n      mload(0x40)\n      shl(0xe5, 0x461bcd)\n      dup2\n      mstore\n      0x04\n      add\n      tag_144\n      swap1\n      tag_198\n      jump\t// in\n    tag_196:\n        /* \"ChildLabourManagement.sol\":15881:15920  ChildRemediation memory remediationdata */\n      0x00\n        /* \"ChildLabourManagement.sol\":15923:15953  childRemediationData[_childId] */\n      dup5\n      dup2\n      mstore\n        /* \"ChildLabourManagement.sol\":15923:15943  childRemediationData */\n      0x08\n        /* \"ChildLabourManagement.sol\":15923:15953  childRemediationData[_childId] */\n      0x20\n      swap1\n      dup2\n      mstore\n      0x40\n      dup1\n      dup4\n      keccak256\n        /* \"ChildLabourManagement.sol\":15881:15953  ChildRemediation memory remediationdata = childRemediationData[_childId] */\n      dup2\n      mload\n      0xc0\n      dup2\n      add\n      dup4\n      mstore\n      dup2\n      sload\n      sub(shl(0xa0, 0x01), 0x01)\n      and\n      dup2\n      mstore\n      0x01\n      dup3\n      add\n      sload\n      swap4\n      dup2\n      add\n      swap4\n      swap1\n      swap4\n      mstore\n      0x02\n      dup2\n      add\n      sload\n      swap2\n      dup4\n      add\n      swap2\n      swap1\n      swap2\n      mstore\n      0x03\n      dup1\n      dup3\n      add\n      sload\n      0x60\n      dup5\n      add\n      mstore\n      0x04\n      dup3\n      add\n      sload\n      0x80\n      dup5\n      add\n      mstore\n      0x05\n      dup3\n      add\n      sload\n      0xa0\n      dup5\n      add\n      swap2\n      0xff\n      swap1\n      swap2\n      and\n      swap1\n      dup2\n      gt\n      iszero\n      tag_201\n      jumpi\n      tag_201\n      tag_139\n      jump\t// in\n    tag_201:\n      0x03\n      dup2\n      gt\n      iszero\n      tag_203\n      jumpi\n      tag_203\n      tag_139\n      jump\t// in\n    tag_203:\n      swap1\n      mstore\n      pop\n      swap1\n      pop\n        /* \"ChildLabourManagement.sol\":15984:15985  1 */\n      0x01\n        /* \"ChildLabourManagement.sol\":15972:15985  _childId >= 1 */\n      dup6\n      lt\n      dup1\n      iszero\n      swap1\n        /* \"ChildLabourManagement.sol\":15972:16040  _childId >= 1 && _childId <= reportChildrenCount[_violationReportId] */\n      tag_204\n      jumpi\n      pop\n        /* \"ChildLabourManagement.sol\":16001:16040  reportChildrenCount[_violationReportId] */\n      0x00\n      dup7\n      dup2\n      mstore\n        /* \"ChildLabourManagement.sol\":16001:16020  reportChildrenCount */\n      0x07\n        /* \"ChildLabourManagement.sol\":16001:16040  reportChildrenCount[_violationReportId] */\n      0x20\n      mstore\n      0x40\n      swap1\n      keccak256\n      sload\n        /* \"ChildLabourManagement.sol\":15989:16040  _childId <= reportChildrenCount[_violationReportId] */\n      dup6\n      gt\n      iszero\n        /* \"ChildLabourManagement.sol\":15972:16040  _childId >= 1 && _childId <= reportChildrenCount[_violationReportId] */\n    tag_204:\n        /* \"ChildLabourManagement.sol\":15964:16061  require(_childId >= 1 && _childId <= reportChildrenCount[_violationReportId], \"Invalid Child ID\") */\n      tag_205\n      jumpi\n      mload(0x40)\n      shl(0xe5, 0x461bcd)\n      dup2\n      mstore\n      0x04\n      add\n      tag_144\n      swap1\n      tag_207\n      jump\t// in\n    tag_205:\n        /* \"ChildLabourManagement.sol\":16106:16131  ChildStatus.InRemediation */\n      0x02\n        /* \"ChildLabourManagement.sol\":16080:16095  remediationdata */\n      dup2\n        /* \"ChildLabourManagement.sol\":16080:16102  remediationdata.status */\n      0xa0\n      add\n      mload\n        /* \"ChildLabourManagement.sol\":16080:16131  remediationdata.status == ChildStatus.InRemediation */\n      0x03\n      dup2\n      gt\n      iszero\n      tag_211\n      jumpi\n      tag_211\n      tag_139\n      jump\t// in\n    tag_211:\n      eq\n        /* \"ChildLabourManagement.sol\":16072:16178  require(remediationdata.status == ChildStatus.InRemediation, \"This child is not currently in remediation\") */\n      tag_212\n      jumpi\n      mload(0x40)\n      shl(0xe5, 0x461bcd)\n      dup2\n      mstore\n        /* \"#utility.yul\":15801:15803   */\n      0x20\n        /* \"ChildLabourManagement.sol\":16072:16178  require(remediationdata.status == ChildStatus.InRemediation, \"This child is not currently in remediation\") */\n      0x04\n      dup3\n      add\n        /* \"#utility.yul\":15783:15804   */\n      mstore\n        /* \"#utility.yul\":15840:15842   */\n      0x2a\n        /* \"#utility.yul\":15820:15838   */\n      0x24\n      dup3\n      add\n        /* \"#utility.yul\":15813:15843   */\n      mstore\n        /* \"#utility.yul\":15879:15913   */\n      0x54686973206368696c64206973206e6f742063757272656e746c7920696e2072\n        /* \"#utility.yul\":15859:15877   */\n      0x44\n      dup3\n      add\n        /* \"#utility.yul\":15852:15914   */\n      mstore\n      shl(0xb1, 0x32b6b2b234b0ba34b7b7)\n        /* \"#utility.yul\":15930:15948   */\n      0x64\n      dup3\n      add\n        /* \"#utility.yul\":15923:15963   */\n      mstore\n        /* \"#utility.yul\":15980:15999   */\n      0x84\n      add\n        /* \"ChildLabourManagement.sol\":16072:16178  require(remediationdata.status == ChildStatus.InRemediation, \"This child is not currently in remediation\") */\n      tag_144\n        /* \"#utility.yul\":15599:16005   */\n      jump\n        /* \"ChildLabourManagement.sol\":16072:16178  require(remediationdata.status == ChildStatus.InRemediation, \"This child is not currently in remediation\") */\n    tag_212:\n        /* \"ChildLabourManagement.sol\":16216:16231  remediationdata */\n      dup1\n        /* \"ChildLabourManagement.sol\":16216:16253  remediationdata.remediationCompletion */\n      0x60\n      add\n      mload\n        /* \"ChildLabourManagement.sol\":16197:16212  block.timestamp */\n      timestamp\n        /* \"ChildLabourManagement.sol\":16197:16253  block.timestamp >= remediationdata.remediationCompletion */\n      lt\n      iszero\n        /* \"ChildLabourManagement.sol\":16189:16303  require(block.timestamp >= remediationdata.remediationCompletion, \"The time window for remediation is still open\") */\n      tag_215\n      jumpi\n      mload(0x40)\n      shl(0xe5, 0x461bcd)\n      dup2\n      mstore\n        /* \"#utility.yul\":16212:16214   */\n      0x20\n        /* \"ChildLabourManagement.sol\":16189:16303  require(block.timestamp >= remediationdata.remediationCompletion, \"The time window for remediation is still open\") */\n      0x04\n      dup3\n      add\n        /* \"#utility.yul\":16194:16215   */\n      mstore\n        /* \"#utility.yul\":16251:16253   */\n      0x2d\n        /* \"#utility.yul\":16231:16249   */\n      0x24\n      dup3\n      add\n        /* \"#utility.yul\":16224:16254   */\n      mstore\n        /* \"#utility.yul\":16290:16324   */\n      0x5468652074696d652077696e646f7720666f722072656d6564696174696f6e20\n        /* \"#utility.yul\":16270:16288   */\n      0x44\n      dup3\n      add\n        /* \"#utility.yul\":16263:16325   */\n      mstore\n      shl(0x99, 0x34b99039ba34b6361037b832b7)\n        /* \"#utility.yul\":16341:16359   */\n      0x64\n      dup3\n      add\n        /* \"#utility.yul\":16334:16377   */\n      mstore\n        /* \"#utility.yul\":16394:16413   */\n      0x84\n      add\n        /* \"ChildLabourManagement.sol\":16189:16303  require(block.timestamp >= remediationdata.remediationCompletion, \"The time window for remediation is still open\") */\n      tag_144\n        /* \"#utility.yul\":16010:16419   */\n      jump\n        /* \"ChildLabourManagement.sol\":16189:16303  require(block.timestamp >= remediationdata.remediationCompletion, \"The time window for remediation is still open\") */\n    tag_215:\n        /* \"ChildLabourManagement.sol\":16316:16346  childRemediationData[_childId] */\n      0x00\n      dup6\n      dup2\n      mstore\n        /* \"ChildLabourManagement.sol\":16316:16336  childRemediationData */\n      0x08\n        /* \"ChildLabourManagement.sol\":16316:16346  childRemediationData[_childId] */\n      0x20\n      swap1\n      dup2\n      mstore\n      0x40\n      swap2\n      dup3\n      swap1\n      keccak256\n        /* \"ChildLabourManagement.sol\":16316:16353  childRemediationData[_childId].status */\n      0x05\n      dup2\n      add\n        /* \"ChildLabourManagement.sol\":16316:16379  childRemediationData[_childId].status = ChildStatus.TakenCareOf */\n      dup1\n      sload\n      not(0xff)\n      and\n        /* \"ChildLabourManagement.sol\":16356:16379  ChildStatus.TakenCareOf */\n      0x03\n        /* \"ChildLabourManagement.sol\":16316:16379  childRemediationData[_childId].status = ChildStatus.TakenCareOf */\n      or\n      swap1\n      sstore\n        /* \"ChildLabourManagement.sol\":16435:16450  block.timestamp */\n      timestamp\n        /* \"ChildLabourManagement.sol\":16390:16432  childRemediationData[_childId].lastUpdated */\n      0x04\n      swap1\n      swap2\n      add\n        /* \"ChildLabourManagement.sol\":16390:16450  childRemediationData[_childId].lastUpdated = block.timestamp */\n      dup2\n      swap1\n      sstore\n        /* \"ChildLabourManagement.sol\":16468:16515  RemediationCompleted(_childId, block.timestamp) */\n      dup3\n      mload\n        /* \"#utility.yul\":16598:16623   */\n      dup9\n      dup2\n      mstore\n        /* \"#utility.yul\":16639:16657   */\n      swap2\n      dup3\n      add\n        /* \"#utility.yul\":16632:16666   */\n      mstore\n        /* \"ChildLabourManagement.sol\":16468:16515  RemediationCompleted(_childId, block.timestamp) */\n      0x20bdfc4aed336b176d0d9fcc339a80e25301f17464e264fb2ef18960418b20ca\n      swap2\n        /* \"#utility.yul\":16571:16589   */\n      add\n        /* \"ChildLabourManagement.sol\":16468:16515  RemediationCompleted(_childId, block.timestamp) */\n    tag_220:\n      mload(0x40)\n      dup1\n      swap2\n      sub\n      swap1\n      log1\n        /* \"ChildLabourManagement.sol\":15870:16523  {... */\n      pop\n        /* \"ChildLabourManagement.sol\":9156:9551  {... */\n      pop\n      pop\n        /* \"ChildLabourManagement.sol\":15766:16523  function completeRemediation(uint256 _violationReportId, uint256 _childId) public onlyGuardian(_childId){... */\n      pop\n      pop\n      pop\n      jump\t// out\n        /* \"ChildLabourManagement.sol\":12321:13241  function storeChildData(bytes32 _hashedName, uint256 _age, bytes1 _gender, uint256 _violationReportId) public onlyInspectionAgent{... */\n    tag_79:\n        /* \"ChildLabourManagement.sol\":8567:8602  IRegistration.EntityType entitytype */\n      0x00\n        /* \"ChildLabourManagement.sol\":8625:8637  Registration */\n      dup1\n      sload\n        /* \"ChildLabourManagement.sol\":8625:8659  Registration.getEntity(msg.sender) */\n      mload(0x40)\n      shl(0xe2, 0x1d6253a3)\n      dup2\n      mstore\n        /* \"ChildLabourManagement.sol\":8648:8658  msg.sender */\n      caller\n        /* \"ChildLabourManagement.sol\":8625:8659  Registration.getEntity(msg.sender) */\n      0x04\n      dup3\n      add\n        /* \"#utility.yul\":5913:5964   */\n      mstore\n        /* \"ChildLabourManagement.sol\":8567:8602  IRegistration.EntityType entitytype */\n      dup3\n      swap2\n      sub(shl(0xa0, 0x01), 0x01)\n        /* \"ChildLabourManagement.sol\":8625:8637  Registration */\n      and\n      swap1\n        /* \"ChildLabourManagement.sol\":8625:8647  Registration.getEntity */\n      0x75894e8c\n      swap1\n        /* \"#utility.yul\":5886:5904   */\n      0x24\n      add\n        /* \"ChildLabourManagement.sol\":8625:8659  Registration.getEntity(msg.sender) */\n      0x40\n      dup1\n      mload\n      dup1\n      dup4\n      sub\n      dup2\n      0x00\n      dup8\n      gas\n      call\n      iszero\n      dup1\n      iszero\n      tag_225\n      jumpi\n      returndatasize\n      0x00\n      dup1\n      returndatacopy\n      revert(0x00, returndatasize)\n    tag_225:\n      pop\n      pop\n      pop\n      pop\n      mload(0x40)\n      returndatasize\n      not(0x1f)\n      0x1f\n      dup3\n      add\n      and\n      dup3\n      add\n      dup1\n      0x40\n      mstore\n      pop\n      dup2\n      add\n      swap1\n      tag_226\n      swap2\n      swap1\n      tag_136\n      jump\t// in\n    tag_226:\n        /* \"ChildLabourManagement.sol\":8566:8659  (IRegistration.EntityType entitytype, bool isRegistered) = Registration.getEntity(msg.sender) */\n      swap1\n      swap3\n      pop\n      swap1\n      pop\n        /* \"ChildLabourManagement.sol\":8692:8732  IRegistration.EntityType.InspectionAgent */\n      0x02\n        /* \"ChildLabourManagement.sol\":8678:8688  entitytype */\n      dup3\n        /* \"ChildLabourManagement.sol\":8678:8732  entitytype == IRegistration.EntityType.InspectionAgent */\n      0x04\n      dup2\n      gt\n      iszero\n      tag_230\n      jumpi\n      tag_230\n      tag_139\n      jump\t// in\n    tag_230:\n      eq\n        /* \"ChildLabourManagement.sol\":8678:8748  entitytype == IRegistration.EntityType.InspectionAgent && isRegistered */\n      dup1\n      iszero\n      tag_231\n      jumpi\n      pop\n        /* \"ChildLabourManagement.sol\":8736:8748  isRegistered */\n      dup1\n        /* \"ChildLabourManagement.sol\":8678:8748  entitytype == IRegistration.EntityType.InspectionAgent && isRegistered */\n    tag_231:\n        /* \"ChildLabourManagement.sol\":8670:8800  require(entitytype == IRegistration.EntityType.InspectionAgent && isRegistered, \"Only the Inspection Agent can run this function\") */\n      tag_232\n      jumpi\n      mload(0x40)\n      shl(0xe5, 0x461bcd)\n      dup2\n      mstore\n      0x04\n      add\n      tag_144\n      swap1\n      tag_145\n      jump\t// in\n    tag_232:\n        /* \"ChildLabourManagement.sol\":12469:12480  _hashedName */\n      dup6\n        /* \"ChildLabourManagement.sol\":12461:12518  require(_hashedName != bytes32(0), \"Invalid hashed name\") */\n      tag_235\n      jumpi\n      mload(0x40)\n      shl(0xe5, 0x461bcd)\n      dup2\n      mstore\n        /* \"#utility.yul\":16879:16881   */\n      0x20\n        /* \"ChildLabourManagement.sol\":12461:12518  require(_hashedName != bytes32(0), \"Invalid hashed name\") */\n      0x04\n      dup3\n      add\n        /* \"#utility.yul\":16861:16882   */\n      mstore\n        /* \"#utility.yul\":16918:16920   */\n      0x13\n        /* \"#utility.yul\":16898:16916   */\n      0x24\n      dup3\n      add\n        /* \"#utility.yul\":16891:16921   */\n      mstore\n      shl(0x68, 0x496e76616c696420686173686564206e616d65)\n        /* \"#utility.yul\":16937:16955   */\n      0x44\n      dup3\n      add\n        /* \"#utility.yul\":16930:16979   */\n      mstore\n        /* \"#utility.yul\":16996:17014   */\n      0x64\n      add\n        /* \"ChildLabourManagement.sol\":12461:12518  require(_hashedName != bytes32(0), \"Invalid hashed name\") */\n      tag_144\n        /* \"#utility.yul\":16677:17020   */\n      jump\n        /* \"ChildLabourManagement.sol\":12461:12518  require(_hashedName != bytes32(0), \"Invalid hashed name\") */\n    tag_235:\n        /* \"ChildLabourManagement.sol\":12544:12545  0 */\n      0x00\n        /* \"ChildLabourManagement.sol\":12537:12541  _age */\n      dup6\n        /* \"ChildLabourManagement.sol\":12537:12545  _age > 0 */\n      gt\n        /* \"ChildLabourManagement.sol\":12529:12562  require(_age > 0 , \"Invalid Age\") */\n      tag_238\n      jumpi\n      mload(0x40)\n      shl(0xe5, 0x461bcd)\n      dup2\n      mstore\n        /* \"#utility.yul\":17227:17229   */\n      0x20\n        /* \"ChildLabourManagement.sol\":12529:12562  require(_age > 0 , \"Invalid Age\") */\n      0x04\n      dup3\n      add\n        /* \"#utility.yul\":17209:17230   */\n      mstore\n        /* \"#utility.yul\":17266:17268   */\n      0x0b\n        /* \"#utility.yul\":17246:17264   */\n      0x24\n      dup3\n      add\n        /* \"#utility.yul\":17239:17269   */\n      mstore\n      shl(0xa8, 0x496e76616c696420416765)\n        /* \"#utility.yul\":17285:17303   */\n      0x44\n      dup3\n      add\n        /* \"#utility.yul\":17278:17319   */\n      mstore\n        /* \"#utility.yul\":17336:17354   */\n      0x64\n      add\n        /* \"ChildLabourManagement.sol\":12529:12562  require(_age > 0 , \"Invalid Age\") */\n      tag_144\n        /* \"#utility.yul\":17025:17360   */\n      jump\n        /* \"ChildLabourManagement.sol\":12529:12562  require(_age > 0 , \"Invalid Age\") */\n    tag_238:\n      shl(0xf8, 0x4d)\n      not(sub(shl(0xf8, 0x01), 0x01))\n        /* \"ChildLabourManagement.sol\":12581:12603  bytes1(_gender) == \"M\" */\n      dup6\n      and\n      eq\n      dup1\n        /* \"ChildLabourManagement.sol\":12581:12629  bytes1(_gender) == \"M\" || bytes1(_gender) == \"F\" */\n      tag_241\n      jumpi\n      pop\n      shl(0xf9, 0x23)\n      not(sub(shl(0xf8, 0x01), 0x01))\n        /* \"ChildLabourManagement.sol\":12607:12629  bytes1(_gender) == \"F\" */\n      dup6\n      and\n      eq\n        /* \"ChildLabourManagement.sol\":12581:12629  bytes1(_gender) == \"M\" || bytes1(_gender) == \"F\" */\n    tag_241:\n        /* \"ChildLabourManagement.sol\":12573:12648  require(bytes1(_gender) == \"M\" || bytes1(_gender) == \"F\", \"Invalid Gender\") */\n      tag_242\n      jumpi\n      mload(0x40)\n      shl(0xe5, 0x461bcd)\n      dup2\n      mstore\n        /* \"#utility.yul\":17567:17569   */\n      0x20\n        /* \"ChildLabourManagement.sol\":12573:12648  require(bytes1(_gender) == \"M\" || bytes1(_gender) == \"F\", \"Invalid Gender\") */\n      0x04\n      dup3\n      add\n        /* \"#utility.yul\":17549:17570   */\n      mstore\n        /* \"#utility.yul\":17606:17608   */\n      0x0e\n        /* \"#utility.yul\":17586:17604   */\n      0x24\n      dup3\n      add\n        /* \"#utility.yul\":17579:17609   */\n      mstore\n      shl(0x91, 0x24b73b30b634b21023b2b73232b9)\n        /* \"#utility.yul\":17625:17643   */\n      0x44\n      dup3\n      add\n        /* \"#utility.yul\":17618:17662   */\n      mstore\n        /* \"#utility.yul\":17679:17697   */\n      0x64\n      add\n        /* \"ChildLabourManagement.sol\":12573:12648  require(bytes1(_gender) == \"M\" || bytes1(_gender) == \"F\", \"Invalid Gender\") */\n      tag_144\n        /* \"#utility.yul\":17365:17703   */\n      jump\n        /* \"ChildLabourManagement.sol\":12573:12648  require(bytes1(_gender) == \"M\" || bytes1(_gender) == \"F\", \"Invalid Gender\") */\n    tag_242:\n        /* \"ChildLabourManagement.sol\":12689:12690  1 */\n      0x01\n        /* \"ChildLabourManagement.sol\":12667:12685  _violationReportId */\n      dup4\n        /* \"ChildLabourManagement.sol\":12667:12690  _violationReportId >= 1 */\n      lt\n      iszero\n        /* \"ChildLabourManagement.sol\":12667:12727  _violationReportId >= 1 && _violationReportId <= reportCount */\n      dup1\n      iszero\n      tag_245\n      jumpi\n      pop\n        /* \"ChildLabourManagement.sol\":12716:12727  reportCount */\n      sload(0x02)\n        /* \"ChildLabourManagement.sol\":12694:12712  _violationReportId */\n      dup4\n        /* \"ChildLabourManagement.sol\":12694:12727  _violationReportId <= reportCount */\n      gt\n      iszero\n        /* \"ChildLabourManagement.sol\":12667:12727  _violationReportId >= 1 && _violationReportId <= reportCount */\n    tag_245:\n        /* \"ChildLabourManagement.sol\":12659:12749  require(_violationReportId >= 1 && _violationReportId <= reportCount, \"Invalid Report ID\") */\n      tag_246\n      jumpi\n      mload(0x40)\n      shl(0xe5, 0x461bcd)\n      dup2\n      mstore\n      0x04\n      add\n      tag_144\n      swap1\n      tag_150\n      jump\t// in\n    tag_246:\n        /* \"ChildLabourManagement.sol\":12762:12801  reportChildrenCount[_violationReportId] */\n      0x00\n      dup4\n      dup2\n      mstore\n        /* \"ChildLabourManagement.sol\":12762:12781  reportChildrenCount */\n      0x07\n        /* \"ChildLabourManagement.sol\":12762:12801  reportChildrenCount[_violationReportId] */\n      0x20\n      mstore\n      0x40\n      dup2\n      keccak256\n        /* \"ChildLabourManagement.sol\":12762:12804  reportChildrenCount[_violationReportId] ++ */\n      dup1\n      sload\n      swap2\n      tag_248\n      dup4\n      tag_249\n      jump\t// in\n    tag_248:\n      swap1\n      swap2\n      sstore\n      pop\n      pop\n        /* \"ChildLabourManagement.sol\":12888:13007  ChildData(reportChildrenCount[_violationReportId], _hashedName, _age, _gender, _violationReportId, ChildStatus.Spotted) */\n      0x40\n      dup1\n      mload\n      0xc0\n      dup2\n      add\n      dup3\n      mstore\n      0x00\n        /* \"ChildLabourManagement.sol\":12898:12937  reportChildrenCount[_violationReportId] */\n      dup6\n      dup2\n      mstore\n        /* \"ChildLabourManagement.sol\":12898:12917  reportChildrenCount */\n      0x07\n        /* \"ChildLabourManagement.sol\":12898:12937  reportChildrenCount[_violationReportId] */\n      0x20\n      swap1\n      dup2\n      mstore\n      dup4\n      dup3\n      keccak256\n      sload\n        /* \"ChildLabourManagement.sol\":12888:13007  ChildData(reportChildrenCount[_violationReportId], _hashedName, _age, _gender, _violationReportId, ChildStatus.Spotted) */\n      dup1\n      dup5\n      mstore\n      dup2\n      dup5\n      add\n      dup12\n      dup2\n      mstore\n      dup5\n      dup7\n      add\n      dup12\n      dup2\n      mstore\n      not(sub(shl(0xf8, 0x01), 0x01))\n      dup12\n      and\n      0x60\n      dup8\n      add\n      swap1\n      dup2\n      mstore\n      0x80\n      dup8\n      add\n      dup12\n      dup2\n      mstore\n      0xa0\n      dup9\n      add\n      dup8\n      dup2\n      mstore\n        /* \"ChildLabourManagement.sol\":12815:12844  childData[_violationReportId] */\n      dup13\n      dup9\n      mstore\n        /* \"ChildLabourManagement.sol\":12815:12824  childData */\n      0x06\n        /* \"ChildLabourManagement.sol\":12815:12844  childData[_violationReportId] */\n      dup8\n      mstore\n      dup10\n      dup9\n      keccak256\n        /* \"ChildLabourManagement.sol\":12815:12885  childData[_violationReportId][reportChildrenCount[_violationReportId]] */\n      swap6\n      dup9\n      mstore\n      swap5\n      swap1\n      swap6\n      mstore\n      swap7\n      swap1\n      swap5\n      keccak256\n        /* \"ChildLabourManagement.sol\":12815:13007  childData[_violationReportId][reportChildrenCount[_violationReportId]] = ChildData(reportChildrenCount[_violationReportId], _hashedName, _age, _gender, _violationReportId, ChildStatus.Spotted) */\n      dup6\n      mload\n      dup2\n      sstore\n      swap1\n      mload\n      0x01\n      dup1\n      dup4\n      add\n      swap2\n      swap1\n      swap2\n      sstore\n      swap4\n      mload\n      0x02\n      dup3\n      add\n      sstore\n      swap5\n      mload\n      0x03\n      dup1\n      dup8\n      add\n      dup1\n      sload\n      0xf8\n      swap4\n      swap1\n      swap4\n      shr\n      not(0xff)\n      swap4\n      dup5\n      and\n      or\n      swap1\n      sstore\n      swap3\n      mload\n      0x04\n      dup8\n      add\n      sstore\n      swap1\n      mload\n      0x05\n      dup7\n      add\n      dup1\n      sload\n        /* \"ChildLabourManagement.sol\":12888:13007  ChildData(reportChildrenCount[_violationReportId], _hashedName, _age, _gender, _violationReportId, ChildStatus.Spotted) */\n      swap6\n      swap7\n        /* \"ChildLabourManagement.sol\":12815:12885  childData[_violationReportId][reportChildrenCount[_violationReportId]] */\n      swap6\n        /* \"ChildLabourManagement.sol\":12815:13007  childData[_violationReportId][reportChildrenCount[_violationReportId]] = ChildData(reportChildrenCount[_violationReportId], _hashedName, _age, _gender, _violationReportId, ChildStatus.Spotted) */\n      swap2\n      swap5\n      swap1\n      swap4\n      swap2\n      swap1\n      swap3\n      and\n      swap2\n      swap1\n      dup5\n      swap1\n      dup2\n      gt\n      iszero\n      tag_253\n      jumpi\n      tag_253\n      tag_139\n      jump\t// in\n    tag_253:\n      mul\n      or\n      swap1\n      sstore\n      pop\n      pop\n      pop\n        /* \"ChildLabourManagement.sol\":13030:13090  child2ReportMapping[reportChildrenCount[_violationReportId]] */\n      0x00\n        /* \"ChildLabourManagement.sol\":13050:13089  reportChildrenCount[_violationReportId] */\n      dup4\n      dup2\n      mstore\n        /* \"ChildLabourManagement.sol\":13050:13069  reportChildrenCount */\n      0x07\n        /* \"ChildLabourManagement.sol\":13050:13089  reportChildrenCount[_violationReportId] */\n      0x20\n      dup2\n      dup2\n      mstore\n      0x40\n      dup1\n      dup5\n      keccak256\n      dup1\n      sload\n        /* \"ChildLabourManagement.sol\":13030:13090  child2ReportMapping[reportChildrenCount[_violationReportId]] */\n      dup6\n      mstore\n        /* \"ChildLabourManagement.sol\":13030:13049  child2ReportMapping */\n      0x05\n        /* \"ChildLabourManagement.sol\":13030:13090  child2ReportMapping[reportChildrenCount[_violationReportId]] */\n      dup4\n      mstore\n      dup2\n      dup6\n      keccak256\n        /* \"ChildLabourManagement.sol\":13030:13111  child2ReportMapping[reportChildrenCount[_violationReportId]] = _violationReportId */\n      dup9\n      swap1\n      sstore\n        /* \"ChildLabourManagement.sol\":13145:13184  reportChildrenCount[_violationReportId] */\n      swap4\n      dup8\n      swap1\n      mstore\n      swap2\n      dup2\n      mstore\n      swap2\n      sload\n        /* \"ChildLabourManagement.sol\":13129:13233  ChildDataStored(reportChildrenCount[_violationReportId], _hashedName, _age, _gender, _violationReportId) */\n      dup2\n      mload\n        /* \"#utility.yul\":18237:18262   */\n      swap1\n      dup2\n      mstore\n        /* \"#utility.yul\":18278:18296   */\n      swap2\n      dup3\n      add\n        /* \"#utility.yul\":18271:18305   */\n      dup9\n      swap1\n      mstore\n        /* \"#utility.yul\":18321:18339   */\n      dup2\n      add\n        /* \"#utility.yul\":18314:18348   */\n      dup7\n      swap1\n      mstore\n      not(sub(shl(0xf8, 0x01), 0x01))\n        /* \"#utility.yul\":18384:18410   */\n      dup6\n      and\n        /* \"#utility.yul\":18379:18381   */\n      0x60\n        /* \"#utility.yul\":18364:18382   */\n      dup3\n      add\n        /* \"#utility.yul\":18357:18411   */\n      mstore\n        /* \"#utility.yul\":18442:18445   */\n      0x80\n        /* \"#utility.yul\":18427:18446   */\n      dup2\n      add\n        /* \"#utility.yul\":18420:18455   */\n      dup5\n      swap1\n      mstore\n        /* \"ChildLabourManagement.sol\":13129:13233  ChildDataStored(reportChildrenCount[_violationReportId], _hashedName, _age, _gender, _violationReportId) */\n      0x8f6937edcd05ce1c1912e225ec700cb996d92333e3b1631ce16e703fc6b8e77a\n      swap1\n        /* \"#utility.yul\":18224:18227   */\n      0xa0\n        /* \"#utility.yul\":18209:18228   */\n      add\n        /* \"ChildLabourManagement.sol\":13129:13233  ChildDataStored(reportChildrenCount[_violationReportId], _hashedName, _age, _gender, _violationReportId) */\n      tag_220\n        /* \"#utility.yul\":17980:18461   */\n      jump\n        /* \"ChildLabourManagement.sol\":13249:13867  function getChildData(uint256 _violationReportId, uint256 _childId) public onlyDataAnalyst returns(bytes32 hashedName, uint256 age, bytes1 gender, bytes32 reportipfshash){... */\n    tag_82:\n        /* \"ChildLabourManagement.sol\":13348:13366  bytes32 hashedName */\n      0x00\n        /* \"ChildLabourManagement.sol\":8922:8934  Registration */\n      dup1\n      sload\n        /* \"ChildLabourManagement.sol\":8922:8956  Registration.getEntity(msg.sender) */\n      mload(0x40)\n      shl(0xe2, 0x1d6253a3)\n      dup2\n      mstore\n        /* \"ChildLabourManagement.sol\":8945:8955  msg.sender */\n      caller\n        /* \"ChildLabourManagement.sol\":8922:8956  Registration.getEntity(msg.sender) */\n      0x04\n      dup3\n      add\n        /* \"#utility.yul\":5913:5964   */\n      mstore\n        /* \"ChildLabourManagement.sol\":13348:13366  bytes32 hashedName */\n      dup3\n      swap2\n      dup3\n      swap2\n      dup3\n      swap2\n      dup3\n      swap2\n      dup3\n      swap2\n      sub(shl(0xa0, 0x01), 0x01)\n        /* \"ChildLabourManagement.sol\":8922:8934  Registration */\n      and\n      swap1\n        /* \"ChildLabourManagement.sol\":8922:8944  Registration.getEntity */\n      0x75894e8c\n      swap1\n        /* \"#utility.yul\":5886:5904   */\n      0x24\n      add\n        /* \"ChildLabourManagement.sol\":8922:8956  Registration.getEntity(msg.sender) */\n      0x40\n      dup1\n      mload\n      dup1\n      dup4\n      sub\n      dup2\n      0x00\n      dup8\n      gas\n      call\n      iszero\n      dup1\n      iszero\n      tag_259\n      jumpi\n      returndatasize\n      0x00\n      dup1\n      returndatacopy\n      revert(0x00, returndatasize)\n    tag_259:\n      pop\n      pop\n      pop\n      pop\n      mload(0x40)\n      returndatasize\n      not(0x1f)\n      0x1f\n      dup3\n      add\n      and\n      dup3\n      add\n      dup1\n      0x40\n      mstore\n      pop\n      dup2\n      add\n      swap1\n      tag_260\n      swap2\n      swap1\n      tag_136\n      jump\t// in\n    tag_260:\n        /* \"ChildLabourManagement.sol\":8863:8956  (IRegistration.EntityType entitytype, bool isRegistered) = Registration.getEntity(msg.sender) */\n      swap1\n      swap3\n      pop\n      swap1\n      pop\n        /* \"ChildLabourManagement.sol\":8989:9025  IRegistration.EntityType.DataAnalyst */\n      0x03\n        /* \"ChildLabourManagement.sol\":8975:8985  entitytype */\n      dup3\n        /* \"ChildLabourManagement.sol\":8975:9025  entitytype == IRegistration.EntityType.DataAnalyst */\n      0x04\n      dup2\n      gt\n      iszero\n      tag_264\n      jumpi\n      tag_264\n      tag_139\n      jump\t// in\n    tag_264:\n      eq\n        /* \"ChildLabourManagement.sol\":8975:9041  entitytype == IRegistration.EntityType.DataAnalyst && isRegistered */\n      dup1\n      iszero\n      tag_265\n      jumpi\n      pop\n        /* \"ChildLabourManagement.sol\":9029:9041  isRegistered */\n      dup1\n        /* \"ChildLabourManagement.sol\":8975:9041  entitytype == IRegistration.EntityType.DataAnalyst && isRegistered */\n    tag_265:\n        /* \"ChildLabourManagement.sol\":8967:9089  require(entitytype == IRegistration.EntityType.DataAnalyst && isRegistered, \"Only the Data Analyst can run this function\") */\n      tag_266\n      jumpi\n      mload(0x40)\n      shl(0xe5, 0x461bcd)\n      dup2\n      mstore\n        /* \"#utility.yul\":18668:18670   */\n      0x20\n        /* \"ChildLabourManagement.sol\":8967:9089  require(entitytype == IRegistration.EntityType.DataAnalyst && isRegistered, \"Only the Data Analyst can run this function\") */\n      0x04\n      dup3\n      add\n        /* \"#utility.yul\":18650:18671   */\n      mstore\n        /* \"#utility.yul\":18707:18709   */\n      0x2b\n        /* \"#utility.yul\":18687:18705   */\n      0x24\n      dup3\n      add\n        /* \"#utility.yul\":18680:18710   */\n      mstore\n        /* \"#utility.yul\":18746:18780   */\n      0x4f6e6c7920746865204461746120416e616c7973742063616e2072756e207468\n        /* \"#utility.yul\":18726:18744   */\n      0x44\n      dup3\n      add\n        /* \"#utility.yul\":18719:18781   */\n      mstore\n      shl(0xa9, 0x34b990333ab731ba34b7b7)\n        /* \"#utility.yul\":18797:18815   */\n      0x64\n      dup3\n      add\n        /* \"#utility.yul\":18790:18831   */\n      mstore\n        /* \"#utility.yul\":18848:18867   */\n      0x84\n      add\n        /* \"ChildLabourManagement.sol\":8967:9089  require(entitytype == IRegistration.EntityType.DataAnalyst && isRegistered, \"Only the Data Analyst can run this function\") */\n      tag_144\n        /* \"#utility.yul\":18466:18873   */\n      jump\n        /* \"ChildLabourManagement.sol\":8967:9089  require(entitytype == IRegistration.EntityType.DataAnalyst && isRegistered, \"Only the Data Analyst can run this function\") */\n    tag_266:\n        /* \"ChildLabourManagement.sol\":13460:13461  1 */\n      0x01\n        /* \"ChildLabourManagement.sol\":13438:13456  _violationReportId */\n      dup9\n        /* \"ChildLabourManagement.sol\":13438:13461  _violationReportId >= 1 */\n      lt\n      iszero\n        /* \"ChildLabourManagement.sol\":13438:13498  _violationReportId >= 1 && _violationReportId <= reportCount */\n      dup1\n      iszero\n      tag_270\n      jumpi\n      pop\n        /* \"ChildLabourManagement.sol\":13487:13498  reportCount */\n      sload(0x02)\n        /* \"ChildLabourManagement.sol\":13465:13483  _violationReportId */\n      dup9\n        /* \"ChildLabourManagement.sol\":13465:13498  _violationReportId <= reportCount */\n      gt\n      iszero\n        /* \"ChildLabourManagement.sol\":13438:13498  _violationReportId >= 1 && _violationReportId <= reportCount */\n    tag_270:\n        /* \"ChildLabourManagement.sol\":13430:13520  require(_violationReportId >= 1 && _violationReportId <= reportCount, \"Invalid Report ID\") */\n      tag_271\n      jumpi\n      mload(0x40)\n      shl(0xe5, 0x461bcd)\n      dup2\n      mstore\n      0x04\n      add\n      tag_144\n      swap1\n      tag_150\n      jump\t// in\n    tag_271:\n        /* \"ChildLabourManagement.sol\":13551:13552  1 */\n      0x01\n        /* \"ChildLabourManagement.sol\":13539:13547  _childId */\n      dup8\n        /* \"ChildLabourManagement.sol\":13539:13552  _childId >= 1 */\n      lt\n      iszero\n        /* \"ChildLabourManagement.sol\":13539:13607  _childId >= 1 && _childId <= reportChildrenCount[_violationReportId] */\n      dup1\n      iszero\n      tag_273\n      jumpi\n      pop\n        /* \"ChildLabourManagement.sol\":13568:13607  reportChildrenCount[_violationReportId] */\n      0x00\n      dup9\n      dup2\n      mstore\n        /* \"ChildLabourManagement.sol\":13568:13587  reportChildrenCount */\n      0x07\n        /* \"ChildLabourManagement.sol\":13568:13607  reportChildrenCount[_violationReportId] */\n      0x20\n      mstore\n      0x40\n      swap1\n      keccak256\n      sload\n        /* \"ChildLabourManagement.sol\":13556:13607  _childId <= reportChildrenCount[_violationReportId] */\n      dup8\n      gt\n      iszero\n        /* \"ChildLabourManagement.sol\":13539:13607  _childId >= 1 && _childId <= reportChildrenCount[_violationReportId] */\n    tag_273:\n        /* \"ChildLabourManagement.sol\":13531:13628  require(_childId >= 1 && _childId <= reportChildrenCount[_violationReportId], \"Invalid Child ID\") */\n      tag_274\n      jumpi\n      mload(0x40)\n      shl(0xe5, 0x461bcd)\n      dup2\n      mstore\n      0x04\n      add\n      tag_144\n      swap1\n      tag_207\n      jump\t// in\n    tag_274:\n        /* \"ChildLabourManagement.sol\":13639:13660  ChildData memory data */\n      0x00\n        /* \"ChildLabourManagement.sol\":13663:13692  childData[_violationReportId] */\n      dup9\n      dup2\n      mstore\n        /* \"ChildLabourManagement.sol\":13663:13672  childData */\n      0x06\n        /* \"ChildLabourManagement.sol\":13663:13692  childData[_violationReportId] */\n      0x20\n      swap1\n      dup2\n      mstore\n      0x40\n      dup1\n      dup4\n      keccak256\n        /* \"ChildLabourManagement.sol\":13663:13702  childData[_violationReportId][_childId] */\n      dup11\n      dup5\n      mstore\n      dup3\n      mstore\n      dup1\n      dup4\n      keccak256\n        /* \"ChildLabourManagement.sol\":13639:13702  ChildData memory data = childData[_violationReportId][_childId] */\n      dup2\n      mload\n      0xc0\n      dup2\n      add\n      dup4\n      mstore\n      dup2\n      sload\n      dup2\n      mstore\n      0x01\n      dup3\n      add\n      sload\n      swap4\n      dup2\n      add\n      swap4\n      swap1\n      swap4\n      mstore\n      0x02\n      dup2\n      add\n      sload\n      swap2\n      dup4\n      add\n      swap2\n      swap1\n      swap2\n      mstore\n      0x03\n      dup1\n      dup3\n      add\n      sload\n      0xf8\n      shl\n      not(sub(shl(0xf8, 0x01), 0x01))\n      and\n      0x60\n      dup5\n      add\n      mstore\n      0x04\n      dup3\n      add\n      sload\n      0x80\n      dup5\n      add\n      mstore\n      0x05\n      dup3\n      add\n      sload\n      0xa0\n      dup5\n      add\n      swap2\n      0xff\n      swap1\n      swap2\n      and\n      swap1\n      dup2\n      gt\n      iszero\n      tag_277\n      jumpi\n      tag_277\n      tag_139\n      jump\t// in\n    tag_277:\n      0x03\n      dup2\n      gt\n      iszero\n      tag_279\n      jumpi\n      tag_279\n      tag_139\n      jump\t// in\n    tag_279:\n      swap1\n      mstore\n      pop\n        /* \"ChildLabourManagement.sol\":13713:13742  ViolationReport memory report */\n      0x00\n        /* \"ChildLabourManagement.sol\":13745:13781  violationReports[_violationReportId] */\n      swap10\n      dup11\n      mstore\n        /* \"ChildLabourManagement.sol\":13745:13761  violationReports */\n      0x04\n        /* \"ChildLabourManagement.sol\":13745:13781  violationReports[_violationReportId] */\n      0x20\n      dup2\n      dup2\n      mstore\n      0x40\n      swap12\n      dup13\n      swap1\n      keccak256\n        /* \"ChildLabourManagement.sol\":13713:13781  ViolationReport memory report = violationReports[_violationReportId] */\n      dup13\n      mload\n      0xc0\n      dup2\n      add\n      dup15\n      mstore\n      dup2\n      sload\n      sub(shl(0xa0, 0x01), 0x01)\n      and\n      dup2\n      mstore\n      0x01\n      dup3\n      add\n      sload\n      dup2\n      dup5\n      add\n      mstore\n      0x02\n      dup3\n      add\n      sload\n      dup2\n      dup16\n      add\n      mstore\n      0x03\n      dup3\n      add\n      sload\n      0x60\n      dup1\n      dup4\n      add\n      dup3\n      swap1\n      mstore\n      swap3\n      swap1\n      swap5\n      add\n      sload\n      0xff\n      dup1\n      dup3\n      and\n      iszero\n      iszero\n      0x80\n      dup5\n      add\n      mstore\n      0x0100\n      swap1\n      swap2\n      div\n      and\n      iszero\n      iszero\n      0xa0\n      swap1\n      swap2\n      add\n      mstore\n        /* \"ChildLabourManagement.sol\":13803:13818  data.hashedName */\n      swap1\n      dup4\n      add\n      mload\n        /* \"ChildLabourManagement.sol\":13820:13828  data.age */\n      swap12\n      dup4\n      add\n      mload\n        /* \"ChildLabourManagement.sol\":13830:13841  data.gender */\n      swap3\n      add\n      mload\n        /* \"ChildLabourManagement.sol\":13803:13818  data.hashedName */\n      swap11\n      swap12\n        /* \"ChildLabourManagement.sol\":13820:13828  data.age */\n      swap2\n      swap11\n        /* \"ChildLabourManagement.sol\":13830:13841  data.gender */\n      swap10\n      pop\n        /* \"ChildLabourManagement.sol\":13713:13781  ViolationReport memory report = violationReports[_violationReportId] */\n      swap8\n      pop\n        /* \"ChildLabourManagement.sol\":13249:13867  function getChildData(uint256 _violationReportId, uint256 _childId) public onlyDataAnalyst returns(bytes32 hashedName, uint256 age, bytes1 gender, bytes32 reportipfshash){... */\n      swap6\n      pop\n      pop\n      pop\n      pop\n      pop\n      pop\n      jump\t// out\n        /* \"ChildLabourManagement.sol\":10524:11001  function submitViolationReport(string memory _reportIPFSHash, uint256 _spottedChildrenNumber) public onlywhistleBlowers{... */\n    tag_91:\n        /* \"ChildLabourManagement.sol\":8268:8303  IRegistration.EntityType entitytype */\n      0x00\n        /* \"ChildLabourManagement.sol\":8326:8338  Registration */\n      dup1\n      sload\n        /* \"ChildLabourManagement.sol\":8326:8360  Registration.getEntity(msg.sender) */\n      mload(0x40)\n      shl(0xe2, 0x1d6253a3)\n      dup2\n      mstore\n        /* \"ChildLabourManagement.sol\":8349:8359  msg.sender */\n      caller\n        /* \"ChildLabourManagement.sol\":8326:8360  Registration.getEntity(msg.sender) */\n      0x04\n      dup3\n      add\n        /* \"#utility.yul\":5913:5964   */\n      mstore\n        /* \"ChildLabourManagement.sol\":8268:8303  IRegistration.EntityType entitytype */\n      dup3\n      swap2\n      sub(shl(0xa0, 0x01), 0x01)\n        /* \"ChildLabourManagement.sol\":8326:8338  Registration */\n      and\n      swap1\n        /* \"ChildLabourManagement.sol\":8326:8348  Registration.getEntity */\n      0x75894e8c\n      swap1\n        /* \"#utility.yul\":5886:5904   */\n      0x24\n      add\n        /* \"ChildLabourManagement.sol\":8326:8360  Registration.getEntity(msg.sender) */\n      0x40\n      dup1\n      mload\n      dup1\n      dup4\n      sub\n      dup2\n      0x00\n      dup8\n      gas\n      call\n      iszero\n      dup1\n      iszero\n      tag_283\n      jumpi\n      returndatasize\n      0x00\n      dup1\n      returndatacopy\n      revert(0x00, returndatasize)\n    tag_283:\n      pop\n      pop\n      pop\n      pop\n      mload(0x40)\n      returndatasize\n      not(0x1f)\n      0x1f\n      dup3\n      add\n      and\n      dup3\n      add\n      dup1\n      0x40\n      mstore\n      pop\n      dup2\n      add\n      swap1\n      tag_284\n      swap2\n      swap1\n      tag_136\n      jump\t// in\n    tag_284:\n        /* \"ChildLabourManagement.sol\":8267:8360  (IRegistration.EntityType entitytype, bool isRegistered) = Registration.getEntity(msg.sender) */\n      swap1\n      swap3\n      pop\n      swap1\n      pop\n        /* \"ChildLabourManagement.sol\":8393:8432  IRegistration.EntityType.whistleBlowers */\n      0x01\n        /* \"ChildLabourManagement.sol\":8379:8389  entitytype */\n      dup3\n        /* \"ChildLabourManagement.sol\":8379:8432  entitytype == IRegistration.EntityType.whistleBlowers */\n      0x04\n      dup2\n      gt\n      iszero\n      tag_288\n      jumpi\n      tag_288\n      tag_139\n      jump\t// in\n    tag_288:\n      eq\n        /* \"ChildLabourManagement.sol\":8379:8448  entitytype == IRegistration.EntityType.whistleBlowers && isRegistered */\n      dup1\n      iszero\n      tag_289\n      jumpi\n      pop\n        /* \"ChildLabourManagement.sol\":8436:8448  isRegistered */\n      dup1\n        /* \"ChildLabourManagement.sol\":8379:8448  entitytype == IRegistration.EntityType.whistleBlowers && isRegistered */\n    tag_289:\n        /* \"ChildLabourManagement.sol\":8371:8499  require(entitytype == IRegistration.EntityType.whistleBlowers && isRegistered, \"Only the Liaison Officer can run this function\") */\n      tag_290\n      jumpi\n      mload(0x40)\n      shl(0xe5, 0x461bcd)\n      dup2\n      mstore\n        /* \"#utility.yul\":19080:19082   */\n      0x20\n        /* \"ChildLabourManagement.sol\":8371:8499  require(entitytype == IRegistration.EntityType.whistleBlowers && isRegistered, \"Only the Liaison Officer can run this function\") */\n      0x04\n      dup3\n      add\n        /* \"#utility.yul\":19062:19083   */\n      mstore\n        /* \"#utility.yul\":19119:19121   */\n      0x2e\n        /* \"#utility.yul\":19099:19117   */\n      0x24\n      dup3\n      add\n        /* \"#utility.yul\":19092:19122   */\n      mstore\n        /* \"#utility.yul\":19158:19192   */\n      0x4f6e6c7920746865204c696169736f6e204f6666696365722063616e2072756e\n        /* \"#utility.yul\":19138:19156   */\n      0x44\n      dup3\n      add\n        /* \"#utility.yul\":19131:19193   */\n      mstore\n      shl(0x91, 0x103a3434b990333ab731ba34b7b7)\n        /* \"#utility.yul\":19209:19227   */\n      0x64\n      dup3\n      add\n        /* \"#utility.yul\":19202:19246   */\n      mstore\n        /* \"#utility.yul\":19263:19282   */\n      0x84\n      add\n        /* \"ChildLabourManagement.sol\":8371:8499  require(entitytype == IRegistration.EntityType.whistleBlowers && isRegistered, \"Only the Liaison Officer can run this function\") */\n      tag_144\n        /* \"#utility.yul\":18878:19288   */\n      jump\n        /* \"ChildLabourManagement.sol\":8371:8499  require(entitytype == IRegistration.EntityType.whistleBlowers && isRegistered, \"Only the Liaison Officer can run this function\") */\n    tag_290:\n        /* \"ChildLabourManagement.sol\":10664:10675  reportCount */\n      0x02\n        /* \"ChildLabourManagement.sol\":10664:10677  reportCount++ */\n      dup1\n      sload\n      swap1\n        /* \"ChildLabourManagement.sol\":10664:10675  reportCount */\n      0x00\n        /* \"ChildLabourManagement.sol\":10664:10677  reportCount++ */\n      tag_294\n      dup4\n      tag_249\n      jump\t// in\n    tag_294:\n      swap1\n      swap2\n      sstore\n      pop\n      pop\n        /* \"ChildLabourManagement.sol\":10720:10835  ViolationReport(msg.sender, block.timestamp, _spottedChildrenNumber, bytes32(bytes(_reportIPFSHash)), false, false) */\n      0x40\n      dup1\n      mload\n      0xc0\n      dup2\n      add\n      dup3\n      mstore\n        /* \"ChildLabourManagement.sol\":10736:10746  msg.sender */\n      caller\n        /* \"ChildLabourManagement.sol\":10720:10835  ViolationReport(msg.sender, block.timestamp, _spottedChildrenNumber, bytes32(bytes(_reportIPFSHash)), false, false) */\n      dup2\n      mstore\n        /* \"ChildLabourManagement.sol\":10748:10763  block.timestamp */\n      timestamp\n        /* \"ChildLabourManagement.sol\":10720:10835  ViolationReport(msg.sender, block.timestamp, _spottedChildrenNumber, bytes32(bytes(_reportIPFSHash)), false, false) */\n      0x20\n      dup3\n      add\n      mstore\n      swap1\n      dup2\n      add\n      dup5\n      swap1\n      mstore\n      0x60\n      dup2\n      add\n        /* \"ChildLabourManagement.sol\":10789:10820  bytes32(bytes(_reportIPFSHash)) */\n      tag_295\n        /* \"ChildLabourManagement.sol\":10803:10818  _reportIPFSHash */\n      dup7\n        /* \"ChildLabourManagement.sol\":10789:10820  bytes32(bytes(_reportIPFSHash)) */\n      tag_296\n      jump\t// in\n    tag_295:\n        /* \"ChildLabourManagement.sol\":10720:10835  ViolationReport(msg.sender, block.timestamp, _spottedChildrenNumber, bytes32(bytes(_reportIPFSHash)), false, false) */\n      dup2\n      mstore\n        /* \"ChildLabourManagement.sol\":10822:10827  false */\n      0x00\n        /* \"ChildLabourManagement.sol\":10720:10835  ViolationReport(msg.sender, block.timestamp, _spottedChildrenNumber, bytes32(bytes(_reportIPFSHash)), false, false) */\n      0x20\n      dup1\n      dup4\n      add\n      dup3\n      swap1\n      mstore\n      0x40\n      swap3\n      dup4\n      add\n      dup3\n      swap1\n      mstore\n        /* \"ChildLabourManagement.sol\":10705:10716  reportCount */\n      0x02\n      dup1\n      sload\n        /* \"ChildLabourManagement.sol\":10688:10717  violationReports[reportCount] */\n      dup4\n      mstore\n        /* \"ChildLabourManagement.sol\":10688:10704  violationReports */\n      0x04\n        /* \"ChildLabourManagement.sol\":10688:10717  violationReports[reportCount] */\n      dup1\n      dup4\n      mstore\n      dup5\n      dup5\n      keccak256\n        /* \"ChildLabourManagement.sol\":10688:10835  violationReports[reportCount] = ViolationReport(msg.sender, block.timestamp, _spottedChildrenNumber, bytes32(bytes(_reportIPFSHash)), false, false) */\n      dup7\n      mload\n      dup2\n      sload\n      sub(shl(0xa0, 0x01), 0x01)\n      swap1\n      swap2\n      and\n      not(sub(shl(0xa0, 0x01), 0x01))\n      swap1\n      swap2\n      and\n      or\n      dup2\n      sstore\n      swap3\n      dup7\n      add\n      mload\n        /* \"ChildLabourManagement.sol\":10720:10835  ViolationReport(msg.sender, block.timestamp, _spottedChildrenNumber, bytes32(bytes(_reportIPFSHash)), false, false) */\n      0x01\n        /* \"ChildLabourManagement.sol\":10688:10835  violationReports[reportCount] = ViolationReport(msg.sender, block.timestamp, _spottedChildrenNumber, bytes32(bytes(_reportIPFSHash)), false, false) */\n      dup5\n      add\n      sstore\n      swap4\n      dup6\n      add\n      mload\n      swap1\n      dup3\n      add\n      sstore\n      0x60\n      dup5\n      add\n      mload\n      0x03\n      dup1\n      dup4\n      add\n      swap2\n      swap1\n      swap2\n      sstore\n      0x80\n      dup6\n      add\n      mload\n      swap2\n      swap1\n      swap4\n      add\n      dup1\n      sload\n      0xa0\n      swap1\n      swap6\n      add\n      mload\n      iszero\n      iszero\n      0x0100\n      mul\n      not(0xff00)\n      swap3\n      iszero\n      iszero\n      swap3\n      swap1\n      swap3\n      and\n      not(0xffff)\n      swap1\n      swap6\n      and\n      swap5\n      swap1\n      swap5\n      or\n      or\n      swap1\n      swap3\n      sstore\n        /* \"ChildLabourManagement.sol\":10846:10882  childCount += _spottedChildrenNumber */\n      dup1\n      sload\n        /* \"ChildLabourManagement.sol\":10860:10882  _spottedChildrenNumber */\n      dup6\n      swap3\n        /* \"ChildLabourManagement.sol\":10822:10827  false */\n      swap1\n        /* \"ChildLabourManagement.sol\":10846:10882  childCount += _spottedChildrenNumber */\n      tag_297\n      swap1\n        /* \"ChildLabourManagement.sol\":10860:10882  _spottedChildrenNumber */\n      dup5\n      swap1\n        /* \"ChildLabourManagement.sol\":10846:10882  childCount += _spottedChildrenNumber */\n      tag_298\n      jump\t// in\n    tag_297:\n      swap1\n      swap2\n      sstore\n      pop\n      pop\n        /* \"ChildLabourManagement.sol\":10919:10930  reportCount */\n      sload(0x02)\n        /* \"ChildLabourManagement.sol\":10900:10993  NewViolationReport(reportCount, msg.sender, block.timestamp, bytes32(bytes(_reportIPFSHash))) */\n      0x681f3195132986285e497b66d82a1d87dee04fe482a1e74020677b543e3f7c40\n        /* \"ChildLabourManagement.sol\":10932:10942  msg.sender */\n      caller\n        /* \"ChildLabourManagement.sol\":10944:10959  block.timestamp */\n      timestamp\n        /* \"ChildLabourManagement.sol\":10961:10992  bytes32(bytes(_reportIPFSHash)) */\n      tag_299\n        /* \"ChildLabourManagement.sol\":10975:10990  _reportIPFSHash */\n      dup9\n        /* \"ChildLabourManagement.sol\":10961:10992  bytes32(bytes(_reportIPFSHash)) */\n      tag_296\n      jump\t// in\n    tag_299:\n        /* \"ChildLabourManagement.sol\":10900:10993  NewViolationReport(reportCount, msg.sender, block.timestamp, bytes32(bytes(_reportIPFSHash))) */\n      0x40\n      dup1\n      mload\n      sub(shl(0xa0, 0x01), 0x01)\n        /* \"#utility.yul\":6195:6227   */\n      swap1\n      swap5\n      and\n        /* \"#utility.yul\":6177:6228   */\n      dup5\n      mstore\n        /* \"#utility.yul\":6259:6261   */\n      0x20\n        /* \"#utility.yul\":6244:6262   */\n      dup5\n      add\n        /* \"#utility.yul\":6237:6271   */\n      swap3\n      swap1\n      swap3\n      mstore\n        /* \"#utility.yul\":6287:6305   */\n      swap1\n      dup3\n      add\n        /* \"#utility.yul\":6280:6314   */\n      mstore\n        /* \"#utility.yul\":6165:6167   */\n      0x60\n        /* \"#utility.yul\":6150:6168   */\n      add\n        /* \"ChildLabourManagement.sol\":10900:10993  NewViolationReport(reportCount, msg.sender, block.timestamp, bytes32(bytes(_reportIPFSHash))) */\n      tag_154\n        /* \"#utility.yul\":5975:6320   */\n      jump\n        /* \"ChildLabourManagement.sol\":18057:18180  function updateVerifier(address _verifier) public onlyRegulatoryAuthority{... */\n    tag_95:\n        /* \"ChildLabourManagement.sol\":7960:7995  IRegistration.EntityType entitytype */\n      0x00\n        /* \"ChildLabourManagement.sol\":8018:8030  Registration */\n      dup1\n      sload\n        /* \"ChildLabourManagement.sol\":8018:8052  Registration.getEntity(msg.sender) */\n      mload(0x40)\n      shl(0xe2, 0x1d6253a3)\n      dup2\n      mstore\n        /* \"ChildLabourManagement.sol\":8041:8051  msg.sender */\n      caller\n        /* \"ChildLabourManagement.sol\":8018:8052  Registration.getEntity(msg.sender) */\n      0x04\n      dup3\n      add\n        /* \"#utility.yul\":5913:5964   */\n      mstore\n        /* \"ChildLabourManagement.sol\":7960:7995  IRegistration.EntityType entitytype */\n      dup3\n      swap2\n      sub(shl(0xa0, 0x01), 0x01)\n        /* \"ChildLabourManagement.sol\":8018:8030  Registration */\n      and\n      swap1\n        /* \"ChildLabourManagement.sol\":8018:8040  Registration.getEntity */\n      0x75894e8c\n      swap1\n        /* \"#utility.yul\":5886:5904   */\n      0x24\n      add\n        /* \"ChildLabourManagement.sol\":8018:8052  Registration.getEntity(msg.sender) */\n      0x40\n      dup1\n      mload\n      dup1\n      dup4\n      sub\n      dup2\n      0x00\n      dup8\n      gas\n      call\n      iszero\n      dup1\n      iszero\n      tag_304\n      jumpi\n      returndatasize\n      0x00\n      dup1\n      returndatacopy\n      revert(0x00, returndatasize)\n    tag_304:\n      pop\n      pop\n      pop\n      pop\n      mload(0x40)\n      returndatasize\n      not(0x1f)\n      0x1f\n      dup3\n      add\n      and\n      dup3\n      add\n      dup1\n      0x40\n      mstore\n      pop\n      dup2\n      add\n      swap1\n      tag_305\n      swap2\n      swap1\n      tag_136\n      jump\t// in\n    tag_305:\n        /* \"ChildLabourManagement.sol\":7959:8052  (IRegistration.EntityType entitytype, bool isRegistered) = Registration.getEntity(msg.sender) */\n      swap1\n      swap3\n      pop\n      swap1\n      pop\n        /* \"ChildLabourManagement.sol\":8085:8129  IRegistration.EntityType.RegulatoryAuthority */\n      0x00\n        /* \"ChildLabourManagement.sol\":8071:8081  entitytype */\n      dup3\n        /* \"ChildLabourManagement.sol\":8071:8129  entitytype == IRegistration.EntityType.RegulatoryAuthority */\n      0x04\n      dup2\n      gt\n      iszero\n      tag_309\n      jumpi\n      tag_309\n      tag_139\n      jump\t// in\n    tag_309:\n      eq\n        /* \"ChildLabourManagement.sol\":8071:8145  entitytype == IRegistration.EntityType.RegulatoryAuthority && isRegistered */\n      dup1\n      iszero\n      tag_310\n      jumpi\n      pop\n        /* \"ChildLabourManagement.sol\":8133:8145  isRegistered */\n      dup1\n        /* \"ChildLabourManagement.sol\":8071:8145  entitytype == IRegistration.EntityType.RegulatoryAuthority && isRegistered */\n    tag_310:\n        /* \"ChildLabourManagement.sol\":8063:8201  require(entitytype == IRegistration.EntityType.RegulatoryAuthority && isRegistered, \"Only the regulatory authority can run this function\") */\n      tag_311\n      jumpi\n      mload(0x40)\n      shl(0xe5, 0x461bcd)\n      dup2\n      mstore\n      0x04\n      add\n      tag_144\n      swap1\n      tag_313\n      jump\t// in\n    tag_311:\n      pop\n      pop\n        /* \"ChildLabourManagement.sol\":18141:18149  Verifier */\n      0x01\n        /* \"ChildLabourManagement.sol\":18141:18172  Verifier = IVerifier(_verifier) */\n      dup1\n      sload\n      not(sub(shl(0xa0, 0x01), 0x01))\n      and\n      sub(shl(0xa0, 0x01), 0x01)\n      swap3\n      swap1\n      swap3\n      and\n      swap2\n      swap1\n      swap2\n      or\n      swap1\n      sstore\n        /* \"ChildLabourManagement.sol\":18057:18180  function updateVerifier(address _verifier) public onlyRegulatoryAuthority{... */\n      jump\t// out\n        /* \"ChildLabourManagement.sol\":14763:15758  function startRemediation(uint256 _violationReportId, uint256 _childId, uint256 _daysToRemediate) public onlyGuardian(_childId) {... */\n    tag_99:\n        /* \"ChildLabourManagement.sol\":9168:9203  IRegistration.EntityType entitytype */\n      0x00\n        /* \"ChildLabourManagement.sol\":9226:9238  Registration */\n      dup1\n      sload\n        /* \"ChildLabourManagement.sol\":9226:9260  Registration.getEntity(msg.sender) */\n      mload(0x40)\n      shl(0xe2, 0x1d6253a3)\n      dup2\n      mstore\n        /* \"ChildLabourManagement.sol\":9249:9259  msg.sender */\n      caller\n        /* \"ChildLabourManagement.sol\":9226:9260  Registration.getEntity(msg.sender) */\n      0x04\n      dup3\n      add\n        /* \"#utility.yul\":5913:5964   */\n      mstore\n        /* \"ChildLabourManagement.sol\":14881:14889  _childId */\n      dup5\n      swap3\n        /* \"ChildLabourManagement.sol\":9168:9203  IRegistration.EntityType entitytype */\n      swap2\n      dup3\n      swap2\n      sub(shl(0xa0, 0x01), 0x01)\n        /* \"ChildLabourManagement.sol\":9226:9238  Registration */\n      swap1\n      swap2\n      and\n      swap1\n        /* \"ChildLabourManagement.sol\":9226:9248  Registration.getEntity */\n      0x75894e8c\n      swap1\n        /* \"#utility.yul\":5886:5904   */\n      0x24\n      add\n        /* \"ChildLabourManagement.sol\":9226:9260  Registration.getEntity(msg.sender) */\n      0x40\n      dup1\n      mload\n      dup1\n      dup4\n      sub\n      dup2\n      0x00\n      dup8\n      gas\n      call\n      iszero\n      dup1\n      iszero\n      tag_318\n      jumpi\n      returndatasize\n      0x00\n      dup1\n      returndatacopy\n      revert(0x00, returndatasize)\n    tag_318:\n      pop\n      pop\n      pop\n      pop\n      mload(0x40)\n      returndatasize\n      not(0x1f)\n      0x1f\n      dup3\n      add\n      and\n      dup3\n      add\n      dup1\n      0x40\n      mstore\n      pop\n      dup2\n      add\n      swap1\n      tag_319\n      swap2\n      swap1\n      tag_136\n      jump\t// in\n    tag_319:\n        /* \"ChildLabourManagement.sol\":9167:9260  (IRegistration.EntityType entitytype, bool isRegistered) = Registration.getEntity(msg.sender) */\n      swap1\n      swap3\n      pop\n      swap1\n      pop\n        /* \"ChildLabourManagement.sol\":9293:9326  IRegistration.EntityType.Guardian */\n      0x04\n        /* \"ChildLabourManagement.sol\":9279:9289  entitytype */\n      dup3\n        /* \"ChildLabourManagement.sol\":9279:9326  entitytype == IRegistration.EntityType.Guardian */\n      0x04\n      dup2\n      gt\n      iszero\n      tag_323\n      jumpi\n      tag_323\n      tag_139\n      jump\t// in\n    tag_323:\n      eq\n        /* \"ChildLabourManagement.sol\":9279:9342  entitytype == IRegistration.EntityType.Guardian && isRegistered */\n      dup1\n      iszero\n      tag_324\n      jumpi\n      pop\n        /* \"ChildLabourManagement.sol\":9330:9342  isRegistered */\n      dup1\n        /* \"ChildLabourManagement.sol\":9279:9342  entitytype == IRegistration.EntityType.Guardian && isRegistered */\n    tag_324:\n        /* \"ChildLabourManagement.sol\":9271:9392  require(entitytype == IRegistration.EntityType.Guardian && isRegistered, \"Only the Child Guardian can run this function\") */\n      tag_325\n      jumpi\n      mload(0x40)\n      shl(0xe5, 0x461bcd)\n      dup2\n      mstore\n      0x04\n      add\n      tag_144\n      swap1\n      tag_195\n      jump\t// in\n    tag_325:\n        /* \"ChildLabourManagement.sol\":9411:9441  childRemediationData[_childId] */\n      0x00\n      dup4\n      dup2\n      mstore\n        /* \"ChildLabourManagement.sol\":9411:9431  childRemediationData */\n      0x08\n        /* \"ChildLabourManagement.sol\":9411:9441  childRemediationData[_childId] */\n      0x20\n      mstore\n      0x40\n      swap1\n      keccak256\n        /* \"ChildLabourManagement.sol\":9411:9450  childRemediationData[_childId].guardian */\n      sload\n      sub(shl(0xa0, 0x01), 0x01)\n      and\n        /* \"ChildLabourManagement.sol\":9454:9464  msg.sender */\n      caller\n        /* \"ChildLabourManagement.sol\":9411:9464  childRemediationData[_childId].guardian == msg.sender */\n      eq\n        /* \"ChildLabourManagement.sol\":9403:9531  require(childRemediationData[_childId].guardian == msg.sender, \"Only the assigned Guardian to this child can run this function\") */\n      tag_327\n      jumpi\n      mload(0x40)\n      shl(0xe5, 0x461bcd)\n      dup2\n      mstore\n      0x04\n      add\n      tag_144\n      swap1\n      tag_198\n      jump\t// in\n    tag_327:\n        /* \"ChildLabourManagement.sol\":14902:14941  ChildRemediation memory remediationdata */\n      0x00\n        /* \"ChildLabourManagement.sol\":14944:14974  childRemediationData[_childId] */\n      dup6\n      dup2\n      mstore\n        /* \"ChildLabourManagement.sol\":14944:14964  childRemediationData */\n      0x08\n        /* \"ChildLabourManagement.sol\":14944:14974  childRemediationData[_childId] */\n      0x20\n      swap1\n      dup2\n      mstore\n      0x40\n      dup1\n      dup4\n      keccak256\n        /* \"ChildLabourManagement.sol\":14902:14974  ChildRemediation memory remediationdata = childRemediationData[_childId] */\n      dup2\n      mload\n      0xc0\n      dup2\n      add\n      dup4\n      mstore\n      dup2\n      sload\n      sub(shl(0xa0, 0x01), 0x01)\n      and\n      dup2\n      mstore\n      0x01\n      dup3\n      add\n      sload\n      swap4\n      dup2\n      add\n      swap4\n      swap1\n      swap4\n      mstore\n      0x02\n      dup2\n      add\n      sload\n      swap2\n      dup4\n      add\n      swap2\n      swap1\n      swap2\n      mstore\n      0x03\n      dup1\n      dup3\n      add\n      sload\n      0x60\n      dup5\n      add\n      mstore\n      0x04\n      dup3\n      add\n      sload\n      0x80\n      dup5\n      add\n      mstore\n      0x05\n      dup3\n      add\n      sload\n      0xa0\n      dup5\n      add\n      swap2\n      0xff\n      swap1\n      swap2\n      and\n      swap1\n      dup2\n      gt\n      iszero\n      tag_331\n      jumpi\n      tag_331\n      tag_139\n      jump\t// in\n    tag_331:\n      0x03\n      dup2\n      gt\n      iszero\n      tag_333\n      jumpi\n      tag_333\n      tag_139\n      jump\t// in\n    tag_333:\n      swap1\n      mstore\n      pop\n      swap1\n      pop\n        /* \"ChildLabourManagement.sol\":15015:15016  1 */\n      0x01\n        /* \"ChildLabourManagement.sol\":14993:15016  _violationReportId >= 1 */\n      dup8\n      lt\n      dup1\n      iszero\n      swap1\n        /* \"ChildLabourManagement.sol\":14993:15053  _violationReportId >= 1 && _violationReportId <= reportCount */\n      tag_334\n      jumpi\n      pop\n        /* \"ChildLabourManagement.sol\":15042:15053  reportCount */\n      sload(0x02)\n        /* \"ChildLabourManagement.sol\":15020:15038  _violationReportId */\n      dup8\n        /* \"ChildLabourManagement.sol\":15020:15053  _violationReportId <= reportCount */\n      gt\n      iszero\n        /* \"ChildLabourManagement.sol\":14993:15053  _violationReportId >= 1 && _violationReportId <= reportCount */\n    tag_334:\n        /* \"ChildLabourManagement.sol\":14985:15075  require(_violationReportId >= 1 && _violationReportId <= reportCount, \"Invalid Report ID\") */\n      tag_335\n      jumpi\n      mload(0x40)\n      shl(0xe5, 0x461bcd)\n      dup2\n      mstore\n      0x04\n      add\n      tag_144\n      swap1\n      tag_150\n      jump\t// in\n    tag_335:\n        /* \"ChildLabourManagement.sol\":15106:15107  1 */\n      0x01\n        /* \"ChildLabourManagement.sol\":15094:15102  _childId */\n      dup7\n        /* \"ChildLabourManagement.sol\":15094:15107  _childId >= 1 */\n      lt\n      iszero\n        /* \"ChildLabourManagement.sol\":15094:15162  _childId >= 1 && _childId <= reportChildrenCount[_violationReportId] */\n      dup1\n      iszero\n      tag_337\n      jumpi\n      pop\n        /* \"ChildLabourManagement.sol\":15123:15162  reportChildrenCount[_violationReportId] */\n      0x00\n      dup8\n      dup2\n      mstore\n        /* \"ChildLabourManagement.sol\":15123:15142  reportChildrenCount */\n      0x07\n        /* \"ChildLabourManagement.sol\":15123:15162  reportChildrenCount[_violationReportId] */\n      0x20\n      mstore\n      0x40\n      swap1\n      keccak256\n      sload\n        /* \"ChildLabourManagement.sol\":15111:15162  _childId <= reportChildrenCount[_violationReportId] */\n      dup7\n      gt\n      iszero\n        /* \"ChildLabourManagement.sol\":15094:15162  _childId >= 1 && _childId <= reportChildrenCount[_violationReportId] */\n    tag_337:\n        /* \"ChildLabourManagement.sol\":15086:15183  require(_childId >= 1 && _childId <= reportChildrenCount[_violationReportId], \"Invalid Child ID\") */\n      tag_338\n      jumpi\n      mload(0x40)\n      shl(0xe5, 0x461bcd)\n      dup2\n      mstore\n      0x04\n      add\n      tag_144\n      swap1\n      tag_207\n      jump\t// in\n    tag_338:\n        /* \"ChildLabourManagement.sol\":15228:15256  ChildStatus.GuardianAssigned */\n      0x01\n        /* \"ChildLabourManagement.sol\":15202:15217  remediationdata */\n      dup2\n        /* \"ChildLabourManagement.sol\":15202:15224  remediationdata.status */\n      0xa0\n      add\n      mload\n        /* \"ChildLabourManagement.sol\":15202:15256  remediationdata.status == ChildStatus.GuardianAssigned */\n      0x03\n      dup2\n      gt\n      iszero\n      tag_343\n      jumpi\n      tag_343\n      tag_139\n      jump\t// in\n    tag_343:\n      eq\n        /* \"ChildLabourManagement.sol\":15194:15300  require(remediationdata.status == ChildStatus.GuardianAssigned, \"This child is not ready for remediation\") */\n      tag_344\n      jumpi\n      mload(0x40)\n      shl(0xe5, 0x461bcd)\n      dup2\n      mstore\n        /* \"#utility.yul\":20347:20349   */\n      0x20\n        /* \"ChildLabourManagement.sol\":15194:15300  require(remediationdata.status == ChildStatus.GuardianAssigned, \"This child is not ready for remediation\") */\n      0x04\n      dup3\n      add\n        /* \"#utility.yul\":20329:20350   */\n      mstore\n        /* \"#utility.yul\":20386:20388   */\n      0x27\n        /* \"#utility.yul\":20366:20384   */\n      0x24\n      dup3\n      add\n        /* \"#utility.yul\":20359:20389   */\n      mstore\n        /* \"#utility.yul\":20425:20459   */\n      0x54686973206368696c64206973206e6f7420726561647920666f722072656d65\n        /* \"#utility.yul\":20405:20423   */\n      0x44\n      dup3\n      add\n        /* \"#utility.yul\":20398:20460   */\n      mstore\n      shl(0xc9, 0x3234b0ba34b7b7)\n        /* \"#utility.yul\":20476:20494   */\n      0x64\n      dup3\n      add\n        /* \"#utility.yul\":20469:20506   */\n      mstore\n        /* \"#utility.yul\":20523:20542   */\n      0x84\n      add\n        /* \"ChildLabourManagement.sol\":15194:15300  require(remediationdata.status == ChildStatus.GuardianAssigned, \"This child is not ready for remediation\") */\n      tag_144\n        /* \"#utility.yul\":20145:20548   */\n      jump\n        /* \"ChildLabourManagement.sol\":15194:15300  require(remediationdata.status == ChildStatus.GuardianAssigned, \"This child is not ready for remediation\") */\n    tag_344:\n        /* \"ChildLabourManagement.sol\":15313:15343  childRemediationData[_childId] */\n      0x00\n      dup7\n      dup2\n      mstore\n        /* \"ChildLabourManagement.sol\":15313:15333  childRemediationData */\n      0x08\n        /* \"ChildLabourManagement.sol\":15313:15343  childRemediationData[_childId] */\n      0x20\n      mstore\n      0x40\n      swap1\n      keccak256\n        /* \"ChildLabourManagement.sol\":15313:15350  childRemediationData[_childId].status */\n      0x05\n      dup2\n      add\n        /* \"ChildLabourManagement.sol\":15313:15378  childRemediationData[_childId].status = ChildStatus.InRemediation */\n      dup1\n      sload\n      not(0xff)\n      and\n        /* \"ChildLabourManagement.sol\":15353:15378  ChildStatus.InRemediation */\n      0x02\n        /* \"ChildLabourManagement.sol\":15313:15378  childRemediationData[_childId].status = ChildStatus.InRemediation */\n      swap1\n      dup2\n      or\n      swap1\n      swap2\n      sstore\n        /* \"ChildLabourManagement.sol\":15439:15454  block.timestamp */\n      timestamp\n        /* \"ChildLabourManagement.sol\":15389:15436  childRemediationData[_childId].remediationStart */\n      swap2\n      add\n        /* \"ChildLabourManagement.sol\":15389:15454  childRemediationData[_childId].remediationStart = block.timestamp */\n      sstore\n        /* \"ChildLabourManagement.sol\":15538:15566  _daysToRemediate * 1 seconds */\n      tag_349\n        /* \"ChildLabourManagement.sol\":15538:15554  _daysToRemediate */\n      dup6\n        /* \"ChildLabourManagement.sol\":15313:15378  childRemediationData[_childId].status = ChildStatus.InRemediation */\n      0x01\n        /* \"ChildLabourManagement.sol\":15538:15566  _daysToRemediate * 1 seconds */\n      tag_350\n      jump\t// in\n    tag_349:\n        /* \"ChildLabourManagement.sol\":15520:15566  block.timestamp + _daysToRemediate * 1 seconds */\n      tag_351\n      swap1\n        /* \"ChildLabourManagement.sol\":15520:15535  block.timestamp */\n      timestamp\n        /* \"ChildLabourManagement.sol\":15520:15566  block.timestamp + _daysToRemediate * 1 seconds */\n      tag_298\n      jump\t// in\n    tag_351:\n        /* \"ChildLabourManagement.sol\":15465:15495  childRemediationData[_childId] */\n      0x00\n      dup8\n      dup2\n      mstore\n        /* \"ChildLabourManagement.sol\":15465:15485  childRemediationData */\n      0x08\n        /* \"ChildLabourManagement.sol\":15465:15495  childRemediationData[_childId] */\n      0x20\n      mstore\n      0x40\n      swap1\n      keccak256\n        /* \"ChildLabourManagement.sol\":15465:15517  childRemediationData[_childId].remediationCompletion */\n      0x03\n      dup2\n      add\n        /* \"ChildLabourManagement.sol\":15465:15566  childRemediationData[_childId].remediationCompletion = block.timestamp + _daysToRemediate * 1 seconds */\n      swap2\n      swap1\n      swap2\n      sstore\n        /* \"ChildLabourManagement.sol\":15622:15637  block.timestamp */\n      timestamp\n        /* \"ChildLabourManagement.sol\":15577:15619  childRemediationData[_childId].lastUpdated */\n      0x04\n      swap1\n      swap2\n      add\n        /* \"ChildLabourManagement.sol\":15577:15637  childRemediationData[_childId].lastUpdated = block.timestamp */\n      dup2\n      swap1\n      sstore\n        /* \"ChildLabourManagement.sol\":15655:15750  RemediationStarted(_childId, block.timestamp, (block.timestamp + _daysToRemediate * 1 seconds)) */\n      0xe8c0a5c01ea0a1da185a4990b289aa6b4dc5fd0d2b3d68be0bb0b32ebde6a2a5\n      swap1\n        /* \"ChildLabourManagement.sol\":15486:15494  _childId */\n      dup8\n      swap1\n        /* \"ChildLabourManagement.sol\":15720:15748  _daysToRemediate * 1 seconds */\n      tag_352\n        /* \"ChildLabourManagement.sol\":15720:15736  _daysToRemediate */\n      dup9\n        /* \"ChildLabourManagement.sol\":15739:15748  1 seconds */\n      0x01\n        /* \"ChildLabourManagement.sol\":15720:15748  _daysToRemediate * 1 seconds */\n      tag_350\n      jump\t// in\n    tag_352:\n        /* \"ChildLabourManagement.sol\":15702:15748  block.timestamp + _daysToRemediate * 1 seconds */\n      tag_353\n      swap1\n        /* \"ChildLabourManagement.sol\":15702:15717  block.timestamp */\n      timestamp\n        /* \"ChildLabourManagement.sol\":15702:15748  block.timestamp + _daysToRemediate * 1 seconds */\n      tag_298\n      jump\t// in\n    tag_353:\n        /* \"ChildLabourManagement.sol\":15655:15750  RemediationStarted(_childId, block.timestamp, (block.timestamp + _daysToRemediate * 1 seconds)) */\n      0x40\n      dup1\n      mload\n        /* \"#utility.yul\":20928:20953   */\n      swap4\n      dup5\n      mstore\n        /* \"#utility.yul\":20984:20986   */\n      0x20\n        /* \"#utility.yul\":20969:20987   */\n      dup5\n      add\n        /* \"#utility.yul\":20962:20996   */\n      swap3\n      swap1\n      swap3\n      mstore\n        /* \"#utility.yul\":21012:21030   */\n      swap1\n      dup3\n      add\n        /* \"#utility.yul\":21005:21039   */\n      mstore\n        /* \"#utility.yul\":20916:20918   */\n      0x60\n        /* \"#utility.yul\":20901:20919   */\n      add\n        /* \"ChildLabourManagement.sol\":15655:15750  RemediationStarted(_childId, block.timestamp, (block.timestamp + _daysToRemediate * 1 seconds)) */\n      mload(0x40)\n      dup1\n      swap2\n      sub\n      swap1\n      log1\n        /* \"ChildLabourManagement.sol\":14891:15758  {... */\n      pop\n        /* \"ChildLabourManagement.sol\":9156:9551  {... */\n      pop\n      pop\n        /* \"ChildLabourManagement.sol\":14763:15758  function startRemediation(uint256 _violationReportId, uint256 _childId, uint256 _daysToRemediate) public onlyGuardian(_childId) {... */\n      pop\n      pop\n      pop\n      pop\n      jump\t// out\n        /* \"ChildLabourManagement.sol\":16531:17122  function getChildStatus(uint256 _violationReportId, uint256 _childId) public onlyRegulatoryAuthority returns(ChildStatus, uint256, uint256, uint256){... */\n    tag_106:\n        /* \"ChildLabourManagement.sol\":16640:16651  ChildStatus */\n      0x00\n        /* \"ChildLabourManagement.sol\":8018:8030  Registration */\n      dup1\n      sload\n        /* \"ChildLabourManagement.sol\":8018:8052  Registration.getEntity(msg.sender) */\n      mload(0x40)\n      shl(0xe2, 0x1d6253a3)\n      dup2\n      mstore\n        /* \"ChildLabourManagement.sol\":8041:8051  msg.sender */\n      caller\n        /* \"ChildLabourManagement.sol\":8018:8052  Registration.getEntity(msg.sender) */\n      0x04\n      dup3\n      add\n        /* \"#utility.yul\":5913:5964   */\n      mstore\n        /* \"ChildLabourManagement.sol\":16640:16651  ChildStatus */\n      dup3\n      swap2\n      dup3\n      swap2\n      dup3\n      swap2\n      dup3\n      swap2\n      dup3\n      swap2\n      sub(shl(0xa0, 0x01), 0x01)\n        /* \"ChildLabourManagement.sol\":8018:8030  Registration */\n      and\n      swap1\n        /* \"ChildLabourManagement.sol\":8018:8040  Registration.getEntity */\n      0x75894e8c\n      swap1\n        /* \"#utility.yul\":5886:5904   */\n      0x24\n      add\n        /* \"ChildLabourManagement.sol\":8018:8052  Registration.getEntity(msg.sender) */\n      0x40\n      dup1\n      mload\n      dup1\n      dup4\n      sub\n      dup2\n      0x00\n      dup8\n      gas\n      call\n      iszero\n      dup1\n      iszero\n      tag_359\n      jumpi\n      returndatasize\n      0x00\n      dup1\n      returndatacopy\n      revert(0x00, returndatasize)\n    tag_359:\n      pop\n      pop\n      pop\n      pop\n      mload(0x40)\n      returndatasize\n      not(0x1f)\n      0x1f\n      dup3\n      add\n      and\n      dup3\n      add\n      dup1\n      0x40\n      mstore\n      pop\n      dup2\n      add\n      swap1\n      tag_360\n      swap2\n      swap1\n      tag_136\n      jump\t// in\n    tag_360:\n        /* \"ChildLabourManagement.sol\":7959:8052  (IRegistration.EntityType entitytype, bool isRegistered) = Registration.getEntity(msg.sender) */\n      swap1\n      swap3\n      pop\n      swap1\n      pop\n        /* \"ChildLabourManagement.sol\":8085:8129  IRegistration.EntityType.RegulatoryAuthority */\n      0x00\n        /* \"ChildLabourManagement.sol\":8071:8081  entitytype */\n      dup3\n        /* \"ChildLabourManagement.sol\":8071:8129  entitytype == IRegistration.EntityType.RegulatoryAuthority */\n      0x04\n      dup2\n      gt\n      iszero\n      tag_364\n      jumpi\n      tag_364\n      tag_139\n      jump\t// in\n    tag_364:\n      eq\n        /* \"ChildLabourManagement.sol\":8071:8145  entitytype == IRegistration.EntityType.RegulatoryAuthority && isRegistered */\n      dup1\n      iszero\n      tag_365\n      jumpi\n      pop\n        /* \"ChildLabourManagement.sol\":8133:8145  isRegistered */\n      dup1\n        /* \"ChildLabourManagement.sol\":8071:8145  entitytype == IRegistration.EntityType.RegulatoryAuthority && isRegistered */\n    tag_365:\n        /* \"ChildLabourManagement.sol\":8063:8201  require(entitytype == IRegistration.EntityType.RegulatoryAuthority && isRegistered, \"Only the regulatory authority can run this function\") */\n      tag_366\n      jumpi\n      mload(0x40)\n      shl(0xe5, 0x461bcd)\n      dup2\n      mstore\n      0x04\n      add\n      tag_144\n      swap1\n      tag_313\n      jump\t// in\n    tag_366:\n        /* \"ChildLabourManagement.sol\":16690:16729  ChildRemediation memory remediationdata */\n      0x00\n        /* \"ChildLabourManagement.sol\":16732:16762  childRemediationData[_childId] */\n      dup8\n      dup2\n      mstore\n        /* \"ChildLabourManagement.sol\":16732:16752  childRemediationData */\n      0x08\n        /* \"ChildLabourManagement.sol\":16732:16762  childRemediationData[_childId] */\n      0x20\n      swap1\n      dup2\n      mstore\n      0x40\n      dup1\n      dup4\n      keccak256\n        /* \"ChildLabourManagement.sol\":16690:16762  ChildRemediation memory remediationdata = childRemediationData[_childId] */\n      dup2\n      mload\n      0xc0\n      dup2\n      add\n      dup4\n      mstore\n      dup2\n      sload\n      sub(shl(0xa0, 0x01), 0x01)\n      and\n      dup2\n      mstore\n      0x01\n      dup3\n      add\n      sload\n      swap4\n      dup2\n      add\n      swap4\n      swap1\n      swap4\n      mstore\n      0x02\n      dup2\n      add\n      sload\n      swap2\n      dup4\n      add\n      swap2\n      swap1\n      swap2\n      mstore\n      0x03\n      dup1\n      dup3\n      add\n      sload\n      0x60\n      dup5\n      add\n      mstore\n      0x04\n      dup3\n      add\n      sload\n      0x80\n      dup5\n      add\n      mstore\n      0x05\n      dup3\n      add\n      sload\n      0xa0\n      dup5\n      add\n      swap2\n      0xff\n      swap1\n      swap2\n      and\n      swap1\n      dup2\n      gt\n      iszero\n      tag_370\n      jumpi\n      tag_370\n      tag_139\n      jump\t// in\n    tag_370:\n      0x03\n      dup2\n      gt\n      iszero\n      tag_372\n      jumpi\n      tag_372\n      tag_139\n      jump\t// in\n    tag_372:\n      swap1\n      mstore\n      pop\n      swap1\n      pop\n        /* \"ChildLabourManagement.sol\":16803:16804  1 */\n      0x01\n        /* \"ChildLabourManagement.sol\":16781:16804  _violationReportId >= 1 */\n      dup10\n      lt\n      dup1\n      iszero\n      swap1\n        /* \"ChildLabourManagement.sol\":16781:16841  _violationReportId >= 1 && _violationReportId <= reportCount */\n      tag_373\n      jumpi\n      pop\n        /* \"ChildLabourManagement.sol\":16830:16841  reportCount */\n      sload(0x02)\n        /* \"ChildLabourManagement.sol\":16808:16826  _violationReportId */\n      dup10\n        /* \"ChildLabourManagement.sol\":16808:16841  _violationReportId <= reportCount */\n      gt\n      iszero\n        /* \"ChildLabourManagement.sol\":16781:16841  _violationReportId >= 1 && _violationReportId <= reportCount */\n    tag_373:\n        /* \"ChildLabourManagement.sol\":16773:16863  require(_violationReportId >= 1 && _violationReportId <= reportCount, \"Invalid Report ID\") */\n      tag_374\n      jumpi\n      mload(0x40)\n      shl(0xe5, 0x461bcd)\n      dup2\n      mstore\n      0x04\n      add\n      tag_144\n      swap1\n      tag_150\n      jump\t// in\n    tag_374:\n        /* \"ChildLabourManagement.sol\":16894:16895  1 */\n      0x01\n        /* \"ChildLabourManagement.sol\":16882:16890  _childId */\n      dup9\n        /* \"ChildLabourManagement.sol\":16882:16895  _childId >= 1 */\n      lt\n      iszero\n        /* \"ChildLabourManagement.sol\":16882:16950  _childId >= 1 && _childId <= reportChildrenCount[_violationReportId] */\n      dup1\n      iszero\n      tag_376\n      jumpi\n      pop\n        /* \"ChildLabourManagement.sol\":16911:16950  reportChildrenCount[_violationReportId] */\n      0x00\n      dup10\n      dup2\n      mstore\n        /* \"ChildLabourManagement.sol\":16911:16930  reportChildrenCount */\n      0x07\n        /* \"ChildLabourManagement.sol\":16911:16950  reportChildrenCount[_violationReportId] */\n      0x20\n      mstore\n      0x40\n      swap1\n      keccak256\n      sload\n        /* \"ChildLabourManagement.sol\":16899:16950  _childId <= reportChildrenCount[_violationReportId] */\n      dup9\n      gt\n      iszero\n        /* \"ChildLabourManagement.sol\":16882:16950  _childId >= 1 && _childId <= reportChildrenCount[_violationReportId] */\n    tag_376:\n        /* \"ChildLabourManagement.sol\":16874:16971  require(_childId >= 1 && _childId <= reportChildrenCount[_violationReportId], \"Invalid Child ID\") */\n      tag_377\n      jumpi\n      mload(0x40)\n      shl(0xe5, 0x461bcd)\n      dup2\n      mstore\n      0x04\n      add\n      tag_144\n      swap1\n      tag_207\n      jump\t// in\n    tag_377:\n        /* \"ChildLabourManagement.sol\":16989:17011  remediationdata.status */\n      0xa0\n      dup2\n      add\n      mload\n        /* \"ChildLabourManagement.sol\":17013:17040  remediationdata.lastUpdated */\n      0x80\n      dup3\n      add\n      mload\n        /* \"ChildLabourManagement.sol\":17042:17074  remediationdata.remediationStart */\n      0x40\n      dup4\n      add\n      mload\n        /* \"ChildLabourManagement.sol\":17076:17113  remediationdata.remediationCompletion */\n      0x60\n      swap1\n      swap4\n      add\n      mload\n        /* \"ChildLabourManagement.sol\":16989:17011  remediationdata.status */\n      swap2\n      swap12\n        /* \"ChildLabourManagement.sol\":17013:17040  remediationdata.lastUpdated */\n      swap1\n      swap11\n      pop\n        /* \"ChildLabourManagement.sol\":17042:17074  remediationdata.remediationStart */\n      swap2\n      swap9\n      pop\n        /* \"ChildLabourManagement.sol\":17076:17113  remediationdata.remediationCompletion */\n      swap7\n      pop\n        /* \"ChildLabourManagement.sol\":16531:17122  function getChildStatus(uint256 _violationReportId, uint256 _childId) public onlyRegulatoryAuthority returns(ChildStatus, uint256, uint256, uint256){... */\n      swap5\n      pop\n      pop\n      pop\n      pop\n      pop\n      jump\t// out\n        /* \"ChildLabourManagement.sol\":17772:17964  function revokeAccess(uint256 , address _user) public onlyRegulatoryAuthority {... */\n    tag_116:\n        /* \"ChildLabourManagement.sol\":7960:7995  IRegistration.EntityType entitytype */\n      0x00\n        /* \"ChildLabourManagement.sol\":8018:8030  Registration */\n      dup1\n      sload\n        /* \"ChildLabourManagement.sol\":8018:8052  Registration.getEntity(msg.sender) */\n      mload(0x40)\n      shl(0xe2, 0x1d6253a3)\n      dup2\n      mstore\n        /* \"ChildLabourManagement.sol\":8041:8051  msg.sender */\n      caller\n        /* \"ChildLabourManagement.sol\":8018:8052  Registration.getEntity(msg.sender) */\n      0x04\n      dup3\n      add\n        /* \"#utility.yul\":5913:5964   */\n      mstore\n        /* \"ChildLabourManagement.sol\":7960:7995  IRegistration.EntityType entitytype */\n      dup3\n      swap2\n      sub(shl(0xa0, 0x01), 0x01)\n        /* \"ChildLabourManagement.sol\":8018:8030  Registration */\n      and\n      swap1\n        /* \"ChildLabourManagement.sol\":8018:8040  Registration.getEntity */\n      0x75894e8c\n      swap1\n        /* \"#utility.yul\":5886:5904   */\n      0x24\n      add\n        /* \"ChildLabourManagement.sol\":8018:8052  Registration.getEntity(msg.sender) */\n      0x40\n      dup1\n      mload\n      dup1\n      dup4\n      sub\n      dup2\n      0x00\n      dup8\n      gas\n      call\n      iszero\n      dup1\n      iszero\n      tag_382\n      jumpi\n      returndatasize\n      0x00\n      dup1\n      returndatacopy\n      revert(0x00, returndatasize)\n    tag_382:\n      pop\n      pop\n      pop\n      pop\n      mload(0x40)\n      returndatasize\n      not(0x1f)\n      0x1f\n      dup3\n      add\n      and\n      dup3\n      add\n      dup1\n      0x40\n      mstore\n      pop\n      dup2\n      add\n      swap1\n      tag_383\n      swap2\n      swap1\n      tag_136\n      jump\t// in\n    tag_383:\n        /* \"ChildLabourManagement.sol\":7959:8052  (IRegistration.EntityType entitytype, bool isRegistered) = Registration.getEntity(msg.sender) */\n      swap1\n      swap3\n      pop\n      swap1\n      pop\n        /* \"ChildLabourManagement.sol\":8085:8129  IRegistration.EntityType.RegulatoryAuthority */\n      0x00\n        /* \"ChildLabourManagement.sol\":8071:8081  entitytype */\n      dup3\n        /* \"ChildLabourManagement.sol\":8071:8129  entitytype == IRegistration.EntityType.RegulatoryAuthority */\n      0x04\n      dup2\n      gt\n      iszero\n      tag_387\n      jumpi\n      tag_387\n      tag_139\n      jump\t// in\n    tag_387:\n      eq\n        /* \"ChildLabourManagement.sol\":8071:8145  entitytype == IRegistration.EntityType.RegulatoryAuthority && isRegistered */\n      dup1\n      iszero\n      tag_388\n      jumpi\n      pop\n        /* \"ChildLabourManagement.sol\":8133:8145  isRegistered */\n      dup1\n        /* \"ChildLabourManagement.sol\":8071:8145  entitytype == IRegistration.EntityType.RegulatoryAuthority && isRegistered */\n    tag_388:\n        /* \"ChildLabourManagement.sol\":8063:8201  require(entitytype == IRegistration.EntityType.RegulatoryAuthority && isRegistered, \"Only the regulatory authority can run this function\") */\n      tag_389\n      jumpi\n      mload(0x40)\n      shl(0xe5, 0x461bcd)\n      dup2\n      mstore\n      0x04\n      add\n      tag_144\n      swap1\n      tag_313\n      jump\t// in\n    tag_389:\n      sub(shl(0xa0, 0x01), 0x01)\n        /* \"ChildLabourManagement.sol\":17861:17883  accessWhitelist[_user] */\n      dup4\n      and\n        /* \"ChildLabourManagement.sol\":17886:17891  false */\n      0x00\n        /* \"ChildLabourManagement.sol\":17861:17883  accessWhitelist[_user] */\n      dup2\n      dup2\n      mstore\n        /* \"ChildLabourManagement.sol\":17861:17876  accessWhitelist */\n      0x09\n        /* \"ChildLabourManagement.sol\":17861:17883  accessWhitelist[_user] */\n      0x20\n      swap1\n      dup2\n      mstore\n      0x40\n      swap2\n      dup3\n      swap1\n      keccak256\n        /* \"ChildLabourManagement.sol\":17861:17891  accessWhitelist[_user] = false */\n      dup1\n      sload\n      not(0xff)\n      and\n      swap1\n      sstore\n        /* \"ChildLabourManagement.sol\":17907:17956  AccessRevoked(msg.sender, _user, block.timestamp) */\n      dup2\n      mload\n        /* \"ChildLabourManagement.sol\":17921:17931  msg.sender */\n      caller\n        /* \"#utility.yul\":21290:21324   */\n      dup2\n      mstore\n        /* \"#utility.yul\":21340:21358   */\n      swap1\n      dup2\n      add\n        /* \"#utility.yul\":21333:21376   */\n      swap3\n      swap1\n      swap3\n      mstore\n        /* \"ChildLabourManagement.sol\":17940:17955  block.timestamp */\n      timestamp\n        /* \"#utility.yul\":21392:21410   */\n      dup3\n      dup3\n      add\n        /* \"#utility.yul\":21385:21419   */\n      mstore\n        /* \"ChildLabourManagement.sol\":17907:17956  AccessRevoked(msg.sender, _user, block.timestamp) */\n      mload\n      0x6f6a404ffd2cea4713256a4fd9ce99c8cf8cf32d85c2bb8061d1603ff57d50c3\n      swap2\n      dup2\n      swap1\n      sub\n        /* \"#utility.yul\":21240:21242   */\n      0x60\n        /* \"ChildLabourManagement.sol\":17907:17956  AccessRevoked(msg.sender, _user, block.timestamp) */\n      add\n      swap1\n      log1\n        /* \"ChildLabourManagement.sol\":7948:8221  {... */\n      pop\n      pop\n        /* \"ChildLabourManagement.sol\":17772:17964  function revokeAccess(uint256 , address _user) public onlyRegulatoryAuthority {... */\n      pop\n      pop\n      jump\t// out\n        /* \"ChildLabourManagement.sol\":13875:14693  function assignGuardian(uint256 _violationReportId, uint256 _childId, address _guardian) public onlyRegulatoryAuthority{... */\n    tag_124:\n        /* \"ChildLabourManagement.sol\":7960:7995  IRegistration.EntityType entitytype */\n      0x00\n        /* \"ChildLabourManagement.sol\":8018:8030  Registration */\n      dup1\n      sload\n        /* \"ChildLabourManagement.sol\":8018:8052  Registration.getEntity(msg.sender) */\n      mload(0x40)\n      shl(0xe2, 0x1d6253a3)\n      dup2\n      mstore\n        /* \"ChildLabourManagement.sol\":8041:8051  msg.sender */\n      caller\n        /* \"ChildLabourManagement.sol\":8018:8052  Registration.getEntity(msg.sender) */\n      0x04\n      dup3\n      add\n        /* \"#utility.yul\":5913:5964   */\n      mstore\n        /* \"ChildLabourManagement.sol\":7960:7995  IRegistration.EntityType entitytype */\n      dup3\n      swap2\n      sub(shl(0xa0, 0x01), 0x01)\n        /* \"ChildLabourManagement.sol\":8018:8030  Registration */\n      and\n      swap1\n        /* \"ChildLabourManagement.sol\":8018:8040  Registration.getEntity */\n      0x75894e8c\n      swap1\n        /* \"#utility.yul\":5886:5904   */\n      0x24\n      add\n        /* \"ChildLabourManagement.sol\":8018:8052  Registration.getEntity(msg.sender) */\n      0x40\n      dup1\n      mload\n      dup1\n      dup4\n      sub\n      dup2\n      0x00\n      dup8\n      gas\n      call\n      iszero\n      dup1\n      iszero\n      tag_397\n      jumpi\n      returndatasize\n      0x00\n      dup1\n      returndatacopy\n      revert(0x00, returndatasize)\n    tag_397:\n      pop\n      pop\n      pop\n      pop\n      mload(0x40)\n      returndatasize\n      not(0x1f)\n      0x1f\n      dup3\n      add\n      and\n      dup3\n      add\n      dup1\n      0x40\n      mstore\n      pop\n      dup2\n      add\n      swap1\n      tag_398\n      swap2\n      swap1\n      tag_136\n      jump\t// in\n    tag_398:\n        /* \"ChildLabourManagement.sol\":7959:8052  (IRegistration.EntityType entitytype, bool isRegistered) = Registration.getEntity(msg.sender) */\n      swap1\n      swap3\n      pop\n      swap1\n      pop\n        /* \"ChildLabourManagement.sol\":8085:8129  IRegistration.EntityType.RegulatoryAuthority */\n      0x00\n        /* \"ChildLabourManagement.sol\":8071:8081  entitytype */\n      dup3\n        /* \"ChildLabourManagement.sol\":8071:8129  entitytype == IRegistration.EntityType.RegulatoryAuthority */\n      0x04\n      dup2\n      gt\n      iszero\n      tag_402\n      jumpi\n      tag_402\n      tag_139\n      jump\t// in\n    tag_402:\n      eq\n        /* \"ChildLabourManagement.sol\":8071:8145  entitytype == IRegistration.EntityType.RegulatoryAuthority && isRegistered */\n      dup1\n      iszero\n      tag_403\n      jumpi\n      pop\n        /* \"ChildLabourManagement.sol\":8133:8145  isRegistered */\n      dup1\n        /* \"ChildLabourManagement.sol\":8071:8145  entitytype == IRegistration.EntityType.RegulatoryAuthority && isRegistered */\n    tag_403:\n        /* \"ChildLabourManagement.sol\":8063:8201  require(entitytype == IRegistration.EntityType.RegulatoryAuthority && isRegistered, \"Only the regulatory authority can run this function\") */\n      tag_404\n      jumpi\n      mload(0x40)\n      shl(0xe5, 0x461bcd)\n      dup2\n      mstore\n      0x04\n      add\n      tag_144\n      swap1\n      tag_313\n      jump\t// in\n    tag_404:\n        /* \"ChildLabourManagement.sol\":14005:14026  ChildData memory data */\n      0x00\n        /* \"ChildLabourManagement.sol\":14029:14058  childData[_violationReportId] */\n      dup6\n      dup2\n      mstore\n        /* \"ChildLabourManagement.sol\":14029:14038  childData */\n      0x06\n        /* \"ChildLabourManagement.sol\":14029:14058  childData[_violationReportId] */\n      0x20\n      swap1\n      dup2\n      mstore\n      0x40\n      dup1\n      dup4\n      keccak256\n        /* \"ChildLabourManagement.sol\":14029:14068  childData[_violationReportId][_childId] */\n      dup8\n      dup5\n      mstore\n      dup3\n      mstore\n      dup1\n      dup4\n      keccak256\n        /* \"ChildLabourManagement.sol\":14005:14068  ChildData memory data = childData[_violationReportId][_childId] */\n      dup2\n      mload\n      0xc0\n      dup2\n      add\n      dup4\n      mstore\n      dup2\n      sload\n      dup2\n      mstore\n      0x01\n      dup3\n      add\n      sload\n      swap4\n      dup2\n      add\n      swap4\n      swap1\n      swap4\n      mstore\n      0x02\n      dup2\n      add\n      sload\n      swap2\n      dup4\n      add\n      swap2\n      swap1\n      swap2\n      mstore\n      0x03\n      dup1\n      dup3\n      add\n      sload\n      0xf8\n      shl\n      not(sub(shl(0xf8, 0x01), 0x01))\n      and\n      0x60\n      dup5\n      add\n      mstore\n      0x04\n      dup3\n      add\n      sload\n      0x80\n      dup5\n      add\n      mstore\n      0x05\n      dup3\n      add\n      sload\n      0xa0\n      dup5\n      add\n      swap2\n      0xff\n      swap1\n      swap2\n      and\n      swap1\n      dup2\n      gt\n      iszero\n      tag_408\n      jumpi\n      tag_408\n      tag_139\n      jump\t// in\n    tag_408:\n      0x03\n      dup2\n      gt\n      iszero\n      tag_410\n      jumpi\n      tag_410\n      tag_139\n      jump\t// in\n    tag_410:\n      swap1\n      mstore\n      pop\n      swap1\n      pop\n        /* \"ChildLabourManagement.sol\":14102:14121  ChildStatus.Spotted */\n      0x00\n        /* \"ChildLabourManagement.sol\":14087:14091  data */\n      dup2\n        /* \"ChildLabourManagement.sol\":14087:14098  data.status */\n      0xa0\n      add\n      mload\n        /* \"ChildLabourManagement.sol\":14087:14121  data.status == ChildStatus.Spotted */\n      0x03\n      dup2\n      gt\n      iszero\n      tag_414\n      jumpi\n      tag_414\n      tag_139\n      jump\t// in\n    tag_414:\n      eq\n        /* \"ChildLabourManagement.sol\":14079:14194  require(data.status == ChildStatus.Spotted, \"This child Id does not exist or has already been assigned a guardian\") */\n      tag_415\n      jumpi\n      mload(0x40)\n      shl(0xe5, 0x461bcd)\n      dup2\n      mstore\n        /* \"#utility.yul\":21632:21634   */\n      0x20\n        /* \"ChildLabourManagement.sol\":14079:14194  require(data.status == ChildStatus.Spotted, \"This child Id does not exist or has already been assigned a guardian\") */\n      0x04\n      dup3\n      add\n        /* \"#utility.yul\":21614:21635   */\n      mstore\n        /* \"#utility.yul\":21671:21673   */\n      0x44\n        /* \"#utility.yul\":21651:21669   */\n      0x24\n      dup3\n      add\n        /* \"#utility.yul\":21644:21674   */\n      dup2\n      swap1\n      mstore\n        /* \"#utility.yul\":21710:21744   */\n      0x54686973206368696c6420496420646f6573206e6f74206578697374206f7220\n        /* \"#utility.yul\":21690:21708   */\n      swap1\n      dup3\n      add\n        /* \"#utility.yul\":21683:21745   */\n      mstore\n        /* \"#utility.yul\":21781:21815   */\n      0x68617320616c7265616479206265656e2061737369676e656420612067756172\n        /* \"#utility.yul\":21761:21779   */\n      0x64\n      dup3\n      add\n        /* \"#utility.yul\":21754:21816   */\n      mstore\n      shl(0xe1, 0x3234b0b7)\n        /* \"#utility.yul\":21832:21851   */\n      0x84\n      dup3\n      add\n        /* \"#utility.yul\":21825:21860   */\n      mstore\n        /* \"#utility.yul\":21877:21896   */\n      0xa4\n      add\n        /* \"ChildLabourManagement.sol\":14079:14194  require(data.status == ChildStatus.Spotted, \"This child Id does not exist or has already been assigned a guardian\") */\n      tag_144\n        /* \"#utility.yul\":21430:21902   */\n      jump\n        /* \"ChildLabourManagement.sol\":14079:14194  require(data.status == ChildStatus.Spotted, \"This child Id does not exist or has already been assigned a guardian\") */\n    tag_415:\n        /* \"ChildLabourManagement.sol\":14235:14236  1 */\n      0x01\n        /* \"ChildLabourManagement.sol\":14213:14231  _violationReportId */\n      dup7\n        /* \"ChildLabourManagement.sol\":14213:14236  _violationReportId >= 1 */\n      lt\n      iszero\n        /* \"ChildLabourManagement.sol\":14213:14273  _violationReportId >= 1 && _violationReportId <= reportCount */\n      dup1\n      iszero\n      tag_418\n      jumpi\n      pop\n        /* \"ChildLabourManagement.sol\":14262:14273  reportCount */\n      sload(0x02)\n        /* \"ChildLabourManagement.sol\":14240:14258  _violationReportId */\n      dup7\n        /* \"ChildLabourManagement.sol\":14240:14273  _violationReportId <= reportCount */\n      gt\n      iszero\n        /* \"ChildLabourManagement.sol\":14213:14273  _violationReportId >= 1 && _violationReportId <= reportCount */\n    tag_418:\n        /* \"ChildLabourManagement.sol\":14205:14295  require(_violationReportId >= 1 && _violationReportId <= reportCount, \"Invalid Report ID\") */\n      tag_419\n      jumpi\n      mload(0x40)\n      shl(0xe5, 0x461bcd)\n      dup2\n      mstore\n      0x04\n      add\n      tag_144\n      swap1\n      tag_150\n      jump\t// in\n    tag_419:\n        /* \"ChildLabourManagement.sol\":14326:14327  1 */\n      0x01\n        /* \"ChildLabourManagement.sol\":14314:14322  _childId */\n      dup6\n        /* \"ChildLabourManagement.sol\":14314:14327  _childId >= 1 */\n      lt\n      iszero\n        /* \"ChildLabourManagement.sol\":14314:14382  _childId >= 1 && _childId <= reportChildrenCount[_violationReportId] */\n      dup1\n      iszero\n      tag_421\n      jumpi\n      pop\n        /* \"ChildLabourManagement.sol\":14343:14382  reportChildrenCount[_violationReportId] */\n      0x00\n      dup7\n      dup2\n      mstore\n        /* \"ChildLabourManagement.sol\":14343:14362  reportChildrenCount */\n      0x07\n        /* \"ChildLabourManagement.sol\":14343:14382  reportChildrenCount[_violationReportId] */\n      0x20\n      mstore\n      0x40\n      swap1\n      keccak256\n      sload\n        /* \"ChildLabourManagement.sol\":14331:14382  _childId <= reportChildrenCount[_violationReportId] */\n      dup6\n      gt\n      iszero\n        /* \"ChildLabourManagement.sol\":14314:14382  _childId >= 1 && _childId <= reportChildrenCount[_violationReportId] */\n    tag_421:\n        /* \"ChildLabourManagement.sol\":14306:14403  require(_childId >= 1 && _childId <= reportChildrenCount[_violationReportId], \"Invalid Child ID\") */\n      tag_422\n      jumpi\n      mload(0x40)\n      shl(0xe5, 0x461bcd)\n      dup2\n      mstore\n      0x04\n      add\n      tag_144\n      swap1\n      tag_207\n      jump\t// in\n    tag_422:\n        /* \"ChildLabourManagement.sol\":14418:14448  childRemediationData[_childId] */\n      0x00\n      dup6\n      dup2\n      mstore\n        /* \"ChildLabourManagement.sol\":14418:14438  childRemediationData */\n      0x08\n        /* \"ChildLabourManagement.sol\":14418:14448  childRemediationData[_childId] */\n      0x20\n      mstore\n      0x40\n      swap1\n      keccak256\n        /* \"ChildLabourManagement.sol\":14418:14469  childRemediationData[_childId].guardian = _guardian */\n      dup1\n      sload\n      not(sub(shl(0xa0, 0x01), 0x01))\n      and\n      sub(shl(0xa0, 0x01), 0x01)\n      dup7\n      and\n      or\n      dup2\n      sstore\n      0x01\n        /* \"ChildLabourManagement.sol\":14480:14518  childRemediationData[_childId].childId */\n      dup1\n      dup3\n      add\n        /* \"ChildLabourManagement.sol\":14480:14529  childRemediationData[_childId].childId = _childId */\n      dup8\n      swap1\n      sstore\n        /* \"ChildLabourManagement.sol\":14540:14577  childRemediationData[_childId].status */\n      0x05\n      swap1\n      swap2\n      add\n        /* \"ChildLabourManagement.sol\":14540:14608  childRemediationData[_childId].status = ChildStatus.GuardianAssigned */\n      dup1\n      sload\n      not(0xff)\n      and\n      dup3\n      dup1\n      mul\n      or\n      swap1\n      sstore\n      pop\n        /* \"ChildLabourManagement.sol\":14626:14683  GuardianAssigned(_childId, _violationReportId, _guardian) */\n      0x40\n      dup1\n      mload\n        /* \"#utility.yul\":22109:22134   */\n      dup7\n      dup2\n      mstore\n        /* \"#utility.yul\":22165:22167   */\n      0x20\n        /* \"#utility.yul\":22150:22168   */\n      dup2\n      add\n        /* \"#utility.yul\":22143:22177   */\n      dup9\n      swap1\n      mstore\n      sub(shl(0xa0, 0x01), 0x01)\n        /* \"#utility.yul\":22213:22245   */\n      dup7\n      and\n        /* \"#utility.yul\":22193:22211   */\n      swap2\n      dup2\n      add\n        /* \"#utility.yul\":22186:22246   */\n      swap2\n      swap1\n      swap2\n      mstore\n        /* \"ChildLabourManagement.sol\":14626:14683  GuardianAssigned(_childId, _violationReportId, _guardian) */\n      0xe1a03807ff7b7d8ac4c42cf3fe3905d10b2b30935d18974726482db3bf232e36\n      swap1\n        /* \"#utility.yul\":22097:22099   */\n      0x60\n        /* \"#utility.yul\":22082:22100   */\n      add\n        /* \"ChildLabourManagement.sol\":14626:14683  GuardianAssigned(_childId, _violationReportId, _guardian) */\n      tag_220\n        /* \"#utility.yul\":21907:22252   */\n      jump\n        /* \"ChildLabourManagement.sol\":7577:7631  mapping(uint256 => IVerifier.Proof) public reportProof */\n    tag_127:\n      0x0a\n      0x20\n      swap1\n      dup2\n      mstore\n      0x00\n      swap2\n      dup3\n      mstore\n      0x40\n      swap2\n      dup3\n      swap1\n      keccak256\n      dup3\n      mload\n      dup1\n      dup5\n      add\n      dup5\n      mstore\n      dup2\n      sload\n      dup2\n      mstore\n      0x01\n      dup3\n      add\n      sload\n      swap3\n      dup2\n      add\n      swap3\n      swap1\n      swap3\n      mstore\n      dup3\n      mload\n      0x80\n      dup2\n      add\n      dup1\n      dup6\n      mstore\n      swap3\n      swap4\n      swap2\n      swap3\n      swap1\n      swap2\n      0x02\n      dup1\n      dup6\n      add\n      swap3\n      dup5\n      swap3\n      dup4\n      add\n      swap2\n      dup5\n      swap2\n      dup3\n      dup5\n    tag_429:\n      dup2\n      sload\n      dup2\n      mstore\n      0x20\n      add\n      swap1\n      0x01\n      add\n      swap1\n      dup1\n      dup4\n      gt\n      tag_429\n      jumpi\n      pop\n      pop\n      pop\n      swap2\n      dup4\n      mstore\n      pop\n      pop\n      0x40\n      dup1\n      mload\n      dup1\n      dup3\n      add\n      swap2\n      dup3\n      swap1\n      mstore\n      0x20\n      swap1\n      swap3\n      add\n      swap2\n      swap1\n      0x02\n      dup5\n      dup2\n      add\n      swap2\n      dup3\n      dup5\n    tag_431:\n      dup2\n      sload\n      dup2\n      mstore\n      0x20\n      add\n      swap1\n      0x01\n      add\n      swap1\n      dup1\n      dup4\n      gt\n      tag_431\n      jumpi\n      pop\n      pop\n      pop\n      swap2\n      swap1\n      swap3\n      mstore\n      pop\n      pop\n      0x40\n      dup1\n      mload\n      dup1\n      dup3\n      add\n      swap1\n      swap2\n      mstore\n      0x06\n      dup5\n      add\n      sload\n      dup2\n      mstore\n      0x07\n      swap1\n      swap4\n      add\n      sload\n      0x20\n      dup5\n      add\n      mstore\n      pop\n      swap1\n      dup4\n      jump\t// out\n        /* \"#utility.yul\":14:262   */\n    tag_31:\n        /* \"#utility.yul\":82:88   */\n      0x00\n        /* \"#utility.yul\":90:96   */\n      dup1\n        /* \"#utility.yul\":143:145   */\n      0x40\n        /* \"#utility.yul\":131:140   */\n      dup4\n        /* \"#utility.yul\":122:129   */\n      dup6\n        /* \"#utility.yul\":118:141   */\n      sub\n        /* \"#utility.yul\":114:146   */\n      slt\n        /* \"#utility.yul\":111:163   */\n      iszero\n      tag_446\n      jumpi\n        /* \"#utility.yul\":159:160   */\n      0x00\n        /* \"#utility.yul\":156:157   */\n      dup1\n        /* \"#utility.yul\":149:161   */\n      revert\n        /* \"#utility.yul\":111:163   */\n    tag_446:\n      pop\n      pop\n        /* \"#utility.yul\":182:205   */\n      dup1\n      calldataload\n      swap3\n        /* \"#utility.yul\":252:254   */\n      0x20\n        /* \"#utility.yul\":237:255   */\n      swap1\n      swap2\n      add\n        /* \"#utility.yul\":224:256   */\n      calldataload\n      swap2\n      pop\n        /* \"#utility.yul\":14:262   */\n      jump\t// out\n        /* \"#utility.yul\":267:394   */\n    tag_139:\n        /* \"#utility.yul\":328:338   */\n      0x4e487b71\n        /* \"#utility.yul\":323:326   */\n      0xe0\n        /* \"#utility.yul\":319:339   */\n      shl\n        /* \"#utility.yul\":316:317   */\n      0x00\n        /* \"#utility.yul\":309:340   */\n      mstore\n        /* \"#utility.yul\":359:363   */\n      0x21\n        /* \"#utility.yul\":356:357   */\n      0x04\n        /* \"#utility.yul\":349:364   */\n      mstore\n        /* \"#utility.yul\":383:387   */\n      0x24\n        /* \"#utility.yul\":380:381   */\n      0x00\n        /* \"#utility.yul\":373:388   */\n      revert\n        /* \"#utility.yul\":399:638   */\n    tag_432:\n        /* \"#utility.yul\":482:483   */\n      0x04\n        /* \"#utility.yul\":475:480   */\n      dup2\n        /* \"#utility.yul\":472:484   */\n      lt\n        /* \"#utility.yul\":462:605   */\n      tag_449\n      jumpi\n        /* \"#utility.yul\":527:537   */\n      0x4e487b71\n        /* \"#utility.yul\":522:525   */\n      0xe0\n        /* \"#utility.yul\":518:538   */\n      shl\n        /* \"#utility.yul\":515:516   */\n      0x00\n        /* \"#utility.yul\":508:539   */\n      mstore\n        /* \"#utility.yul\":562:566   */\n      0x21\n        /* \"#utility.yul\":559:560   */\n      0x04\n        /* \"#utility.yul\":552:567   */\n      mstore\n        /* \"#utility.yul\":590:594   */\n      0x24\n        /* \"#utility.yul\":587:588   */\n      0x00\n        /* \"#utility.yul\":580:595   */\n      revert\n        /* \"#utility.yul\":462:605   */\n    tag_449:\n        /* \"#utility.yul\":614:632   */\n      swap1\n      mstore\n        /* \"#utility.yul\":399:638   */\n      jump\t// out\n        /* \"#utility.yul\":643:1230   */\n    tag_34:\n        /* \"#utility.yul\":941:966   */\n      dup7\n      dup2\n      mstore\n        /* \"#utility.yul\":997:999   */\n      0x20\n        /* \"#utility.yul\":982:1000   */\n      dup2\n      add\n        /* \"#utility.yul\":975:1009   */\n      dup7\n      swap1\n      mstore\n        /* \"#utility.yul\":1040:1042   */\n      0x40\n        /* \"#utility.yul\":1025:1043   */\n      dup2\n      add\n        /* \"#utility.yul\":1018:1052   */\n      dup6\n      swap1\n      mstore\n      not(sub(shl(0xf8, 0x01), 0x01))\n        /* \"#utility.yul\":1088:1114   */\n      dup5\n      and\n        /* \"#utility.yul\":1083:1085   */\n      0x60\n        /* \"#utility.yul\":1068:1086   */\n      dup3\n      add\n        /* \"#utility.yul\":1061:1115   */\n      mstore\n        /* \"#utility.yul\":1146:1149   */\n      0x80\n        /* \"#utility.yul\":1131:1150   */\n      dup2\n      add\n        /* \"#utility.yul\":1124:1159   */\n      dup4\n      swap1\n      mstore\n        /* \"#utility.yul\":928:931   */\n      0xc0\n        /* \"#utility.yul\":913:932   */\n      dup2\n      add\n        /* \"#utility.yul\":1168:1224   */\n      tag_451\n        /* \"#utility.yul\":1219:1222   */\n      0xa0\n        /* \"#utility.yul\":1204:1223   */\n      dup4\n      add\n        /* \"#utility.yul\":1196:1202   */\n      dup5\n        /* \"#utility.yul\":1168:1224   */\n      tag_432\n      jump\t// in\n    tag_451:\n        /* \"#utility.yul\":643:1230   */\n      swap8\n      swap7\n      pop\n      pop\n      pop\n      pop\n      pop\n      pop\n      pop\n      jump\t// out\n        /* \"#utility.yul\":1417:1535   */\n    tag_433:\n        /* \"#utility.yul\":1503:1508   */\n      dup1\n        /* \"#utility.yul\":1496:1509   */\n      iszero\n        /* \"#utility.yul\":1489:1510   */\n      iszero\n        /* \"#utility.yul\":1482:1487   */\n      dup2\n        /* \"#utility.yul\":1479:1511   */\n      eq\n        /* \"#utility.yul\":1469:1529   */\n      tag_454\n      jumpi\n        /* \"#utility.yul\":1525:1526   */\n      0x00\n        /* \"#utility.yul\":1522:1523   */\n      dup1\n        /* \"#utility.yul\":1515:1527   */\n      revert\n        /* \"#utility.yul\":1469:1529   */\n    tag_454:\n        /* \"#utility.yul\":1417:1535   */\n      pop\n      jump\t// out\n        /* \"#utility.yul\":1540:1849   */\n    tag_41:\n        /* \"#utility.yul\":1605:1611   */\n      0x00\n        /* \"#utility.yul\":1613:1619   */\n      dup1\n        /* \"#utility.yul\":1666:1668   */\n      0x40\n        /* \"#utility.yul\":1654:1663   */\n      dup4\n        /* \"#utility.yul\":1645:1652   */\n      dup6\n        /* \"#utility.yul\":1641:1664   */\n      sub\n        /* \"#utility.yul\":1637:1669   */\n      slt\n        /* \"#utility.yul\":1634:1686   */\n      iszero\n      tag_456\n      jumpi\n        /* \"#utility.yul\":1682:1683   */\n      0x00\n        /* \"#utility.yul\":1679:1680   */\n      dup1\n        /* \"#utility.yul\":1672:1684   */\n      revert\n        /* \"#utility.yul\":1634:1686   */\n    tag_456:\n        /* \"#utility.yul\":1718:1727   */\n      dup3\n        /* \"#utility.yul\":1705:1728   */\n      calldataload\n        /* \"#utility.yul\":1695:1728   */\n      swap2\n      pop\n        /* \"#utility.yul\":1778:1780   */\n      0x20\n        /* \"#utility.yul\":1767:1776   */\n      dup4\n        /* \"#utility.yul\":1763:1781   */\n      add\n        /* \"#utility.yul\":1750:1782   */\n      calldataload\n        /* \"#utility.yul\":1791:1819   */\n      tag_457\n        /* \"#utility.yul\":1813:1818   */\n      dup2\n        /* \"#utility.yul\":1791:1819   */\n      tag_433\n      jump\t// in\n    tag_457:\n        /* \"#utility.yul\":1838:1843   */\n      dup1\n        /* \"#utility.yul\":1828:1843   */\n      swap2\n      pop\n      pop\n        /* \"#utility.yul\":1540:1849   */\n      swap3\n      pop\n      swap3\n      swap1\n      pop\n      jump\t// out\n        /* \"#utility.yul\":1854:2034   */\n    tag_45:\n        /* \"#utility.yul\":1913:1919   */\n      0x00\n        /* \"#utility.yul\":1966:1968   */\n      0x20\n        /* \"#utility.yul\":1954:1963   */\n      dup3\n        /* \"#utility.yul\":1945:1952   */\n      dup5\n        /* \"#utility.yul\":1941:1964   */\n      sub\n        /* \"#utility.yul\":1937:1969   */\n      slt\n        /* \"#utility.yul\":1934:1986   */\n      iszero\n      tag_459\n      jumpi\n        /* \"#utility.yul\":1982:1983   */\n      0x00\n        /* \"#utility.yul\":1979:1980   */\n      dup1\n        /* \"#utility.yul\":1972:1984   */\n      revert\n        /* \"#utility.yul\":1934:1986   */\n    tag_459:\n      pop\n        /* \"#utility.yul\":2005:2028   */\n      calldataload\n      swap2\n        /* \"#utility.yul\":1854:2034   */\n      swap1\n      pop\n      jump\t// out\n        /* \"#utility.yul\":2039:2634   */\n    tag_48:\n      sub(shl(0xa0, 0x01), 0x01)\n        /* \"#utility.yul\":2357:2389   */\n      dup8\n      and\n        /* \"#utility.yul\":2339:2390   */\n      dup2\n      mstore\n        /* \"#utility.yul\":2421:2423   */\n      0x20\n        /* \"#utility.yul\":2406:2424   */\n      dup2\n      add\n        /* \"#utility.yul\":2399:2433   */\n      dup7\n      swap1\n      mstore\n        /* \"#utility.yul\":2464:2466   */\n      0x40\n        /* \"#utility.yul\":2449:2467   */\n      dup2\n      add\n        /* \"#utility.yul\":2442:2476   */\n      dup6\n      swap1\n      mstore\n        /* \"#utility.yul\":2507:2509   */\n      0x60\n        /* \"#utility.yul\":2492:2510   */\n      dup2\n      add\n        /* \"#utility.yul\":2485:2519   */\n      dup5\n      swap1\n      mstore\n        /* \"#utility.yul\":2550:2553   */\n      0x80\n        /* \"#utility.yul\":2535:2554   */\n      dup2\n      add\n        /* \"#utility.yul\":2528:2563   */\n      dup4\n      swap1\n      mstore\n        /* \"#utility.yul\":2326:2329   */\n      0xc0\n        /* \"#utility.yul\":2311:2330   */\n      dup2\n      add\n        /* \"#utility.yul\":2572:2628   */\n      tag_451\n        /* \"#utility.yul\":2377:2380   */\n      0xa0\n        /* \"#utility.yul\":2608:2627   */\n      dup4\n      add\n        /* \"#utility.yul\":2600:2606   */\n      dup5\n        /* \"#utility.yul\":2572:2628   */\n      tag_432\n      jump\t// in\n        /* \"#utility.yul\":2639:2766   */\n    tag_434:\n        /* \"#utility.yul\":2700:2710   */\n      0x4e487b71\n        /* \"#utility.yul\":2695:2698   */\n      0xe0\n        /* \"#utility.yul\":2691:2711   */\n      shl\n        /* \"#utility.yul\":2688:2689   */\n      0x00\n        /* \"#utility.yul\":2681:2712   */\n      mstore\n        /* \"#utility.yul\":2731:2735   */\n      0x41\n        /* \"#utility.yul\":2728:2729   */\n      0x04\n        /* \"#utility.yul\":2721:2736   */\n      mstore\n        /* \"#utility.yul\":2755:2759   */\n      0x24\n        /* \"#utility.yul\":2752:2753   */\n      0x00\n        /* \"#utility.yul\":2745:2760   */\n      revert\n        /* \"#utility.yul\":2771:3028   */\n    tag_435:\n        /* \"#utility.yul\":2843:2847   */\n      0x40\n        /* \"#utility.yul\":2837:2848   */\n      dup1\n      mload\n      swap1\n        /* \"#utility.yul\":2875:2892   */\n      dup2\n      add\n        /* \"#utility.yul\":2922:2940   */\n      0xffffffffffffffff\n        /* \"#utility.yul\":2907:2941   */\n      dup2\n      gt\n        /* \"#utility.yul\":2943:2965   */\n      dup3\n      dup3\n      lt\n        /* \"#utility.yul\":2904:2966   */\n      or\n        /* \"#utility.yul\":2901:2989   */\n      iszero\n      tag_465\n      jumpi\n        /* \"#utility.yul\":2969:2987   */\n      tag_465\n      tag_434\n      jump\t// in\n    tag_465:\n        /* \"#utility.yul\":3005:3009   */\n      0x40\n        /* \"#utility.yul\":2998:3022   */\n      mstore\n        /* \"#utility.yul\":2771:3028   */\n      swap1\n      jump\t// out\n        /* \"#utility.yul\":3033:3308   */\n    tag_436:\n        /* \"#utility.yul\":3104:3106   */\n      0x40\n        /* \"#utility.yul\":3098:3107   */\n      mload\n        /* \"#utility.yul\":3169:3171   */\n      0x1f\n        /* \"#utility.yul\":3150:3163   */\n      dup3\n      add\n      not(0x1f)\n        /* \"#utility.yul\":3146:3173   */\n      and\n        /* \"#utility.yul\":3134:3174   */\n      dup2\n      add\n        /* \"#utility.yul\":3204:3222   */\n      0xffffffffffffffff\n        /* \"#utility.yul\":3189:3223   */\n      dup2\n      gt\n        /* \"#utility.yul\":3225:3247   */\n      dup3\n      dup3\n      lt\n        /* \"#utility.yul\":3186:3248   */\n      or\n        /* \"#utility.yul\":3183:3271   */\n      iszero\n      tag_468\n      jumpi\n        /* \"#utility.yul\":3251:3269   */\n      tag_468\n      tag_434\n      jump\t// in\n    tag_468:\n        /* \"#utility.yul\":3287:3289   */\n      0x40\n        /* \"#utility.yul\":3280:3302   */\n      mstore\n        /* \"#utility.yul\":3033:3308   */\n      swap2\n      swap1\n      pop\n      jump\t// out\n        /* \"#utility.yul\":3313:3595   */\n    tag_437:\n        /* \"#utility.yul\":3367:3372   */\n      0x00\n        /* \"#utility.yul\":3415:3419   */\n      0x40\n        /* \"#utility.yul\":3403:3412   */\n      dup3\n        /* \"#utility.yul\":3398:3401   */\n      dup5\n        /* \"#utility.yul\":3394:3413   */\n      sub\n        /* \"#utility.yul\":3390:3420   */\n      slt\n        /* \"#utility.yul\":3387:3437   */\n      iszero\n      tag_470\n      jumpi\n        /* \"#utility.yul\":3433:3434   */\n      0x00\n        /* \"#utility.yul\":3430:3431   */\n      dup1\n        /* \"#utility.yul\":3423:3435   */\n      revert\n        /* \"#utility.yul\":3387:3437   */\n    tag_470:\n        /* \"#utility.yul\":3455:3477   */\n      tag_471\n      tag_435\n      jump\t// in\n    tag_471:\n        /* \"#utility.yul\":3446:3477   */\n      swap1\n      pop\n        /* \"#utility.yul\":3513:3522   */\n      dup2\n        /* \"#utility.yul\":3500:3523   */\n      calldataload\n        /* \"#utility.yul\":3493:3498   */\n      dup2\n        /* \"#utility.yul\":3486:3524   */\n      mstore\n        /* \"#utility.yul\":3584:3586   */\n      0x20\n        /* \"#utility.yul\":3573:3582   */\n      dup3\n        /* \"#utility.yul\":3569:3587   */\n      add\n        /* \"#utility.yul\":3556:3588   */\n      calldataload\n        /* \"#utility.yul\":3551:3553   */\n      0x20\n        /* \"#utility.yul\":3544:3549   */\n      dup3\n        /* \"#utility.yul\":3540:3554   */\n      add\n        /* \"#utility.yul\":3533:3589   */\n      mstore\n        /* \"#utility.yul\":3313:3595   */\n      swap3\n      swap2\n      pop\n      pop\n      jump\t// out\n        /* \"#utility.yul\":3600:4084   */\n    tag_438:\n        /* \"#utility.yul\":3650:3655   */\n      0x00\n        /* \"#utility.yul\":3703:3706   */\n      dup3\n        /* \"#utility.yul\":3696:3700   */\n      0x1f\n        /* \"#utility.yul\":3688:3694   */\n      dup4\n        /* \"#utility.yul\":3684:3701   */\n      add\n        /* \"#utility.yul\":3680:3707   */\n      slt\n        /* \"#utility.yul\":3670:3725   */\n      tag_473\n      jumpi\n        /* \"#utility.yul\":3721:3722   */\n      0x00\n        /* \"#utility.yul\":3718:3719   */\n      dup1\n        /* \"#utility.yul\":3711:3723   */\n      revert\n        /* \"#utility.yul\":3670:3725   */\n    tag_473:\n        /* \"#utility.yul\":3745:3767   */\n      tag_474\n      tag_435\n      jump\t// in\n    tag_474:\n        /* \"#utility.yul\":3789:3792   */\n      dup1\n        /* \"#utility.yul\":3827:3829   */\n      0x40\n        /* \"#utility.yul\":3819:3825   */\n      dup5\n        /* \"#utility.yul\":3815:3830   */\n      add\n        /* \"#utility.yul\":3853:3856   */\n      dup6\n        /* \"#utility.yul\":3845:3851   */\n      dup2\n        /* \"#utility.yul\":3842:3857   */\n      gt\n        /* \"#utility.yul\":3839:3874   */\n      iszero\n      tag_475\n      jumpi\n        /* \"#utility.yul\":3870:3871   */\n      0x00\n        /* \"#utility.yul\":3867:3868   */\n      dup1\n        /* \"#utility.yul\":3860:3872   */\n      revert\n        /* \"#utility.yul\":3839:3874   */\n    tag_475:\n        /* \"#utility.yul\":3894:3900   */\n      dup5\n        /* \"#utility.yul\":3909:4055   */\n    tag_476:\n        /* \"#utility.yul\":3925:3931   */\n      dup2\n        /* \"#utility.yul\":3920:3923   */\n      dup2\n        /* \"#utility.yul\":3917:3932   */\n      lt\n        /* \"#utility.yul\":3909:4055   */\n      iszero\n      tag_478\n      jumpi\n        /* \"#utility.yul\":3993:4010   */\n      dup1\n      calldataload\n        /* \"#utility.yul\":3981:4011   */\n      dup5\n      mstore\n        /* \"#utility.yul\":4040:4044   */\n      0x20\n        /* \"#utility.yul\":4031:4045   */\n      swap4\n      dup5\n      add\n      swap4\n        /* \"#utility.yul\":3942:3956   */\n      add\n        /* \"#utility.yul\":3909:4055   */\n      jump(tag_476)\n    tag_478:\n      pop\n        /* \"#utility.yul\":4073:4078   */\n      swap1\n      swap6\n        /* \"#utility.yul\":3600:4084   */\n      swap5\n      pop\n      pop\n      pop\n      pop\n      pop\n      jump\t// out\n        /* \"#utility.yul\":4089:4967   */\n    tag_51:\n        /* \"#utility.yul\":4170:4176   */\n      0x00\n        /* \"#utility.yul\":4214:4223   */\n      dup2\n        /* \"#utility.yul\":4205:4212   */\n      dup4\n        /* \"#utility.yul\":4201:4224   */\n      sub\n        /* \"#utility.yul\":4244:4247   */\n      0x0100\n        /* \"#utility.yul\":4240:4242   */\n      dup2\n        /* \"#utility.yul\":4236:4248   */\n      slt\n        /* \"#utility.yul\":4233:4265   */\n      iszero\n      tag_480\n      jumpi\n        /* \"#utility.yul\":4261:4262   */\n      0x00\n        /* \"#utility.yul\":4258:4259   */\n      dup1\n        /* \"#utility.yul\":4251:4263   */\n      revert\n        /* \"#utility.yul\":4233:4265   */\n    tag_480:\n        /* \"#utility.yul\":4294:4296   */\n      0x40\n        /* \"#utility.yul\":4288:4297   */\n      mload\n        /* \"#utility.yul\":4336:4340   */\n      0x60\n        /* \"#utility.yul\":4328:4334   */\n      dup2\n        /* \"#utility.yul\":4324:4341   */\n      add\n        /* \"#utility.yul\":4407:4413   */\n      dup2\n        /* \"#utility.yul\":4395:4405   */\n      dup2\n        /* \"#utility.yul\":4392:4414   */\n      lt\n        /* \"#utility.yul\":4371:4389   */\n      0xffffffffffffffff\n        /* \"#utility.yul\":4359:4369   */\n      dup3\n        /* \"#utility.yul\":4356:4390   */\n      gt\n        /* \"#utility.yul\":4353:4415   */\n      or\n        /* \"#utility.yul\":4350:4438   */\n      iszero\n      tag_482\n      jumpi\n        /* \"#utility.yul\":4418:4436   */\n      tag_482\n      tag_434\n      jump\t// in\n    tag_482:\n        /* \"#utility.yul\":4454:4456   */\n      0x40\n        /* \"#utility.yul\":4447:4469   */\n      mstore\n        /* \"#utility.yul\":4493:4538   */\n      tag_483\n        /* \"#utility.yul\":4530:4537   */\n      dup6\n        /* \"#utility.yul\":4519:4528   */\n      dup6\n        /* \"#utility.yul\":4493:4538   */\n      tag_437\n      jump\t// in\n    tag_483:\n        /* \"#utility.yul\":4478:4539   */\n      dup2\n      mstore\n        /* \"#utility.yul\":4573:4577   */\n      0x80\n      not(0x3f)\n        /* \"#utility.yul\":4555:4571   */\n      dup4\n      add\n        /* \"#utility.yul\":4551:4578   */\n      slt\n        /* \"#utility.yul\":4548:4595   */\n      iszero\n      tag_484\n      jumpi\n        /* \"#utility.yul\":4591:4592   */\n      0x00\n        /* \"#utility.yul\":4588:4589   */\n      dup1\n        /* \"#utility.yul\":4581:4593   */\n      revert\n        /* \"#utility.yul\":4548:4595   */\n    tag_484:\n        /* \"#utility.yul\":4617:4639   */\n      tag_485\n      tag_435\n      jump\t// in\n    tag_485:\n        /* \"#utility.yul\":4604:4639   */\n      swap2\n      pop\n        /* \"#utility.yul\":4662:4715   */\n      tag_486\n        /* \"#utility.yul\":4707:4714   */\n      dup6\n        /* \"#utility.yul\":4702:4704   */\n      0x40\n        /* \"#utility.yul\":4691:4700   */\n      dup7\n        /* \"#utility.yul\":4687:4705   */\n      add\n        /* \"#utility.yul\":4662:4715   */\n      tag_438\n      jump\t// in\n    tag_486:\n        /* \"#utility.yul\":4655:4660   */\n      dup3\n        /* \"#utility.yul\":4648:4716   */\n      mstore\n        /* \"#utility.yul\":4750:4805   */\n      tag_487\n        /* \"#utility.yul\":4797:4804   */\n      dup6\n        /* \"#utility.yul\":4790:4794   */\n      0x80\n        /* \"#utility.yul\":4779:4788   */\n      dup7\n        /* \"#utility.yul\":4775:4795   */\n      add\n        /* \"#utility.yul\":4750:4805   */\n      tag_438\n      jump\t// in\n    tag_487:\n        /* \"#utility.yul\":4743:4747   */\n      0x20\n        /* \"#utility.yul\":4736:4741   */\n      dup4\n        /* \"#utility.yul\":4732:4748   */\n      add\n        /* \"#utility.yul\":4725:4806   */\n      mstore\n        /* \"#utility.yul\":4841:4846   */\n      dup2\n        /* \"#utility.yul\":4834:4838   */\n      0x20\n        /* \"#utility.yul\":4826:4832   */\n      dup3\n        /* \"#utility.yul\":4822:4839   */\n      add\n        /* \"#utility.yul\":4815:4847   */\n      mstore\n        /* \"#utility.yul\":4880:4935   */\n      tag_488\n        /* \"#utility.yul\":4927:4934   */\n      dup6\n        /* \"#utility.yul\":4921:4924   */\n      0xc0\n        /* \"#utility.yul\":4910:4919   */\n      dup7\n        /* \"#utility.yul\":4906:4925   */\n      add\n        /* \"#utility.yul\":4880:4935   */\n      tag_437\n      jump\t// in\n    tag_488:\n        /* \"#utility.yul\":4875:4877   */\n      0x40\n        /* \"#utility.yul\":4863:4878   */\n      dup3\n      add\n        /* \"#utility.yul\":4856:4936   */\n      mstore\n        /* \"#utility.yul\":4867:4873   */\n      swap5\n        /* \"#utility.yul\":4089:4967   */\n      swap4\n      pop\n      pop\n      pop\n      pop\n      jump\t// out\n        /* \"#utility.yul\":6325:6809   */\n    tag_78:\n        /* \"#utility.yul\":6410:6416   */\n      0x00\n        /* \"#utility.yul\":6418:6424   */\n      dup1\n        /* \"#utility.yul\":6426:6432   */\n      0x00\n        /* \"#utility.yul\":6434:6440   */\n      dup1\n        /* \"#utility.yul\":6487:6490   */\n      0x80\n        /* \"#utility.yul\":6475:6484   */\n      dup6\n        /* \"#utility.yul\":6466:6473   */\n      dup8\n        /* \"#utility.yul\":6462:6485   */\n      sub\n        /* \"#utility.yul\":6458:6491   */\n      slt\n        /* \"#utility.yul\":6455:6508   */\n      iszero\n      tag_494\n      jumpi\n        /* \"#utility.yul\":6504:6505   */\n      0x00\n        /* \"#utility.yul\":6501:6502   */\n      dup1\n        /* \"#utility.yul\":6494:6506   */\n      revert\n        /* \"#utility.yul\":6455:6508   */\n    tag_494:\n        /* \"#utility.yul\":6527:6550   */\n      dup5\n      calldataload\n      swap4\n      pop\n        /* \"#utility.yul\":6597:6599   */\n      0x20\n        /* \"#utility.yul\":6582:6600   */\n      dup6\n      add\n        /* \"#utility.yul\":6569:6601   */\n      calldataload\n      swap3\n      pop\n        /* \"#utility.yul\":6651:6653   */\n      0x40\n        /* \"#utility.yul\":6636:6654   */\n      dup6\n      add\n        /* \"#utility.yul\":6623:6655   */\n      calldataload\n      not(sub(shl(0xf8, 0x01), 0x01))\n        /* \"#utility.yul\":6684:6709   */\n      dup2\n      and\n        /* \"#utility.yul\":6674:6710   */\n      dup2\n      eq\n        /* \"#utility.yul\":6664:6728   */\n      tag_495\n      jumpi\n        /* \"#utility.yul\":6724:6725   */\n      0x00\n        /* \"#utility.yul\":6721:6722   */\n      dup1\n        /* \"#utility.yul\":6714:6726   */\n      revert\n        /* \"#utility.yul\":6664:6728   */\n    tag_495:\n        /* \"#utility.yul\":6325:6809   */\n      swap4\n      swap7\n      swap3\n      swap6\n      pop\n        /* \"#utility.yul\":6747:6752   */\n      swap3\n      swap4\n        /* \"#utility.yul\":6799:6801   */\n      0x60\n        /* \"#utility.yul\":6784:6802   */\n      add\n        /* \"#utility.yul\":6771:6803   */\n      calldataload\n      swap3\n      pop\n      pop\n        /* \"#utility.yul\":6325:6809   */\n      jump\t// out\n        /* \"#utility.yul\":7228:8062   */\n    tag_90:\n        /* \"#utility.yul\":7306:7312   */\n      0x00\n        /* \"#utility.yul\":7314:7320   */\n      dup1\n        /* \"#utility.yul\":7367:7369   */\n      0x40\n        /* \"#utility.yul\":7355:7364   */\n      dup4\n        /* \"#utility.yul\":7346:7353   */\n      dup6\n        /* \"#utility.yul\":7342:7365   */\n      sub\n        /* \"#utility.yul\":7338:7370   */\n      slt\n        /* \"#utility.yul\":7335:7387   */\n      iszero\n      tag_498\n      jumpi\n        /* \"#utility.yul\":7383:7384   */\n      0x00\n        /* \"#utility.yul\":7380:7381   */\n      dup1\n        /* \"#utility.yul\":7373:7385   */\n      revert\n        /* \"#utility.yul\":7335:7387   */\n    tag_498:\n        /* \"#utility.yul\":7423:7432   */\n      dup3\n        /* \"#utility.yul\":7410:7433   */\n      calldataload\n        /* \"#utility.yul\":7452:7470   */\n      0xffffffffffffffff\n        /* \"#utility.yul\":7493:7495   */\n      dup1\n        /* \"#utility.yul\":7485:7491   */\n      dup3\n        /* \"#utility.yul\":7482:7496   */\n      gt\n        /* \"#utility.yul\":7479:7513   */\n      iszero\n      tag_499\n      jumpi\n        /* \"#utility.yul\":7509:7510   */\n      0x00\n        /* \"#utility.yul\":7506:7507   */\n      dup1\n        /* \"#utility.yul\":7499:7511   */\n      revert\n        /* \"#utility.yul\":7479:7513   */\n    tag_499:\n        /* \"#utility.yul\":7547:7553   */\n      dup2\n        /* \"#utility.yul\":7536:7545   */\n      dup6\n        /* \"#utility.yul\":7532:7554   */\n      add\n        /* \"#utility.yul\":7522:7554   */\n      swap2\n      pop\n        /* \"#utility.yul\":7592:7599   */\n      dup6\n        /* \"#utility.yul\":7585:7589   */\n      0x1f\n        /* \"#utility.yul\":7581:7583   */\n      dup4\n        /* \"#utility.yul\":7577:7590   */\n      add\n        /* \"#utility.yul\":7573:7600   */\n      slt\n        /* \"#utility.yul\":7563:7618   */\n      tag_500\n      jumpi\n        /* \"#utility.yul\":7614:7615   */\n      0x00\n        /* \"#utility.yul\":7611:7612   */\n      dup1\n        /* \"#utility.yul\":7604:7616   */\n      revert\n        /* \"#utility.yul\":7563:7618   */\n    tag_500:\n        /* \"#utility.yul\":7650:7652   */\n      dup2\n        /* \"#utility.yul\":7637:7653   */\n      calldataload\n        /* \"#utility.yul\":7672:7676   */\n      0x20\n        /* \"#utility.yul\":7695:7697   */\n      dup3\n        /* \"#utility.yul\":7691:7693   */\n      dup3\n        /* \"#utility.yul\":7688:7698   */\n      gt\n        /* \"#utility.yul\":7685:7721   */\n      iszero\n      tag_502\n      jumpi\n        /* \"#utility.yul\":7701:7719   */\n      tag_502\n      tag_434\n      jump\t// in\n    tag_502:\n        /* \"#utility.yul\":7743:7796   */\n      tag_503\n        /* \"#utility.yul\":7786:7788   */\n      0x1f\n        /* \"#utility.yul\":7767:7780   */\n      dup4\n      add\n      not(0x1f)\n        /* \"#utility.yul\":7763:7790   */\n      and\n        /* \"#utility.yul\":7759:7795   */\n      dup3\n      add\n        /* \"#utility.yul\":7743:7796   */\n      tag_436\n      jump\t// in\n    tag_503:\n        /* \"#utility.yul\":7730:7796   */\n      swap3\n      pop\n        /* \"#utility.yul\":7819:7821   */\n      dup2\n        /* \"#utility.yul\":7812:7817   */\n      dup4\n        /* \"#utility.yul\":7805:7822   */\n      mstore\n        /* \"#utility.yul\":7859:7866   */\n      dup8\n        /* \"#utility.yul\":7854:7856   */\n      dup2\n        /* \"#utility.yul\":7849:7851   */\n      dup4\n        /* \"#utility.yul\":7845:7847   */\n      dup7\n        /* \"#utility.yul\":7841:7852   */\n      add\n        /* \"#utility.yul\":7837:7857   */\n      add\n        /* \"#utility.yul\":7834:7867   */\n      gt\n        /* \"#utility.yul\":7831:7884   */\n      iszero\n      tag_504\n      jumpi\n        /* \"#utility.yul\":7880:7881   */\n      0x00\n        /* \"#utility.yul\":7877:7878   */\n      dup1\n        /* \"#utility.yul\":7870:7882   */\n      revert\n        /* \"#utility.yul\":7831:7884   */\n    tag_504:\n        /* \"#utility.yul\":7935:7937   */\n      dup2\n        /* \"#utility.yul\":7930:7932   */\n      dup2\n        /* \"#utility.yul\":7926:7928   */\n      dup6\n        /* \"#utility.yul\":7922:7933   */\n      add\n        /* \"#utility.yul\":7917:7919   */\n      dup3\n        /* \"#utility.yul\":7910:7915   */\n      dup6\n        /* \"#utility.yul\":7906:7920   */\n      add\n        /* \"#utility.yul\":7893:7938   */\n      calldatacopy\n        /* \"#utility.yul\":7979:7980   */\n      0x00\n        /* \"#utility.yul\":7958:7972   */\n      swap2\n      dup4\n      add\n        /* \"#utility.yul\":7954:7977   */\n      dup2\n      add\n        /* \"#utility.yul\":7947:7981   */\n      swap2\n      swap1\n      swap2\n      mstore\n        /* \"#utility.yul\":7962:7967   */\n      swap1\n      swap7\n        /* \"#utility.yul\":8037:8055   */\n      swap5\n      add\n        /* \"#utility.yul\":8024:8056   */\n      calldataload\n      swap5\n      pop\n      pop\n      pop\n      pop\n        /* \"#utility.yul\":7228:8062   */\n      jump\t// out\n        /* \"#utility.yul\":8067:8240   */\n    tag_439:\n        /* \"#utility.yul\":8135:8155   */\n      dup1\n      calldataload\n      sub(shl(0xa0, 0x01), 0x01)\n        /* \"#utility.yul\":8184:8215   */\n      dup2\n      and\n        /* \"#utility.yul\":8174:8216   */\n      dup2\n      eq\n        /* \"#utility.yul\":8164:8234   */\n      tag_506\n      jumpi\n        /* \"#utility.yul\":8230:8231   */\n      0x00\n        /* \"#utility.yul\":8227:8228   */\n      dup1\n        /* \"#utility.yul\":8220:8232   */\n      revert\n        /* \"#utility.yul\":8164:8234   */\n    tag_506:\n        /* \"#utility.yul\":8067:8240   */\n      swap2\n      swap1\n      pop\n      jump\t// out\n        /* \"#utility.yul\":8245:8431   */\n    tag_94:\n        /* \"#utility.yul\":8304:8310   */\n      0x00\n        /* \"#utility.yul\":8357:8359   */\n      0x20\n        /* \"#utility.yul\":8345:8354   */\n      dup3\n        /* \"#utility.yul\":8336:8343   */\n      dup5\n        /* \"#utility.yul\":8332:8355   */\n      sub\n        /* \"#utility.yul\":8328:8360   */\n      slt\n        /* \"#utility.yul\":8325:8377   */\n      iszero\n      tag_508\n      jumpi\n        /* \"#utility.yul\":8373:8374   */\n      0x00\n        /* \"#utility.yul\":8370:8371   */\n      dup1\n        /* \"#utility.yul\":8363:8375   */\n      revert\n        /* \"#utility.yul\":8325:8377   */\n    tag_508:\n        /* \"#utility.yul\":8396:8425   */\n      tag_509\n        /* \"#utility.yul\":8415:8424   */\n      dup3\n        /* \"#utility.yul\":8396:8425   */\n      tag_439\n      jump\t// in\n    tag_509:\n        /* \"#utility.yul\":8386:8425   */\n      swap4\n        /* \"#utility.yul\":8245:8431   */\n      swap3\n      pop\n      pop\n      pop\n      jump\t// out\n        /* \"#utility.yul\":8436:8752   */\n    tag_98:\n        /* \"#utility.yul\":8513:8519   */\n      0x00\n        /* \"#utility.yul\":8521:8527   */\n      dup1\n        /* \"#utility.yul\":8529:8535   */\n      0x00\n        /* \"#utility.yul\":8582:8584   */\n      0x60\n        /* \"#utility.yul\":8570:8579   */\n      dup5\n        /* \"#utility.yul\":8561:8568   */\n      dup7\n        /* \"#utility.yul\":8557:8580   */\n      sub\n        /* \"#utility.yul\":8553:8585   */\n      slt\n        /* \"#utility.yul\":8550:8602   */\n      iszero\n      tag_511\n      jumpi\n        /* \"#utility.yul\":8598:8599   */\n      0x00\n        /* \"#utility.yul\":8595:8596   */\n      dup1\n        /* \"#utility.yul\":8588:8600   */\n      revert\n        /* \"#utility.yul\":8550:8602   */\n    tag_511:\n      pop\n      pop\n        /* \"#utility.yul\":8621:8644   */\n      dup2\n      calldataload\n      swap4\n        /* \"#utility.yul\":8691:8693   */\n      0x20\n        /* \"#utility.yul\":8676:8694   */\n      dup4\n      add\n        /* \"#utility.yul\":8663:8695   */\n      calldataload\n      swap4\n      pop\n        /* \"#utility.yul\":8742:8744   */\n      0x40\n        /* \"#utility.yul\":8727:8745   */\n      swap1\n      swap3\n      add\n        /* \"#utility.yul\":8714:8746   */\n      calldataload\n      swap2\n        /* \"#utility.yul\":8436:8752   */\n      swap1\n      pop\n      jump\t// out\n        /* \"#utility.yul\":8757:9182   */\n    tag_108:\n        /* \"#utility.yul\":8988:8991   */\n      0x80\n        /* \"#utility.yul\":8973:8992   */\n      dup2\n      add\n        /* \"#utility.yul\":9001:9047   */\n      tag_513\n        /* \"#utility.yul\":8977:8986   */\n      dup3\n        /* \"#utility.yul\":9029:9035   */\n      dup8\n        /* \"#utility.yul\":9001:9047   */\n      tag_432\n      jump\t// in\n    tag_513:\n        /* \"#utility.yul\":9083:9089   */\n      dup5\n        /* \"#utility.yul\":9078:9080   */\n      0x20\n        /* \"#utility.yul\":9067:9076   */\n      dup4\n        /* \"#utility.yul\":9063:9081   */\n      add\n        /* \"#utility.yul\":9056:9090   */\n      mstore\n        /* \"#utility.yul\":9126:9132   */\n      dup4\n        /* \"#utility.yul\":9121:9123   */\n      0x40\n        /* \"#utility.yul\":9110:9119   */\n      dup4\n        /* \"#utility.yul\":9106:9124   */\n      add\n        /* \"#utility.yul\":9099:9133   */\n      mstore\n        /* \"#utility.yul\":9169:9175   */\n      dup3\n        /* \"#utility.yul\":9164:9166   */\n      0x60\n        /* \"#utility.yul\":9153:9162   */\n      dup4\n        /* \"#utility.yul\":9149:9167   */\n      add\n        /* \"#utility.yul\":9142:9176   */\n      mstore\n        /* \"#utility.yul\":8757:9182   */\n      swap6\n      swap5\n      pop\n      pop\n      pop\n      pop\n      pop\n      jump\t// out\n        /* \"#utility.yul\":9187:9441   */\n    tag_115:\n        /* \"#utility.yul\":9255:9261   */\n      0x00\n        /* \"#utility.yul\":9263:9269   */\n      dup1\n        /* \"#utility.yul\":9316:9318   */\n      0x40\n        /* \"#utility.yul\":9304:9313   */\n      dup4\n        /* \"#utility.yul\":9295:9302   */\n      dup6\n        /* \"#utility.yul\":9291:9314   */\n      sub\n        /* \"#utility.yul\":9287:9319   */\n      slt\n        /* \"#utility.yul\":9284:9336   */\n      iszero\n      tag_515\n      jumpi\n        /* \"#utility.yul\":9332:9333   */\n      0x00\n        /* \"#utility.yul\":9329:9330   */\n      dup1\n        /* \"#utility.yul\":9322:9334   */\n      revert\n        /* \"#utility.yul\":9284:9336   */\n    tag_515:\n        /* \"#utility.yul\":9368:9377   */\n      dup3\n        /* \"#utility.yul\":9355:9378   */\n      calldataload\n        /* \"#utility.yul\":9345:9378   */\n      swap2\n      pop\n        /* \"#utility.yul\":9397:9435   */\n      tag_516\n        /* \"#utility.yul\":9431:9433   */\n      0x20\n        /* \"#utility.yul\":9420:9429   */\n      dup5\n        /* \"#utility.yul\":9416:9434   */\n      add\n        /* \"#utility.yul\":9397:9435   */\n      tag_439\n      jump\t// in\n    tag_516:\n        /* \"#utility.yul\":9387:9435   */\n      swap1\n      pop\n        /* \"#utility.yul\":9187:9441   */\n      swap3\n      pop\n      swap3\n      swap1\n      pop\n      jump\t// out\n        /* \"#utility.yul\":9675:9997   */\n    tag_123:\n        /* \"#utility.yul\":9752:9758   */\n      0x00\n        /* \"#utility.yul\":9760:9766   */\n      dup1\n        /* \"#utility.yul\":9768:9774   */\n      0x00\n        /* \"#utility.yul\":9821:9823   */\n      0x60\n        /* \"#utility.yul\":9809:9818   */\n      dup5\n        /* \"#utility.yul\":9800:9807   */\n      dup7\n        /* \"#utility.yul\":9796:9819   */\n      sub\n        /* \"#utility.yul\":9792:9824   */\n      slt\n        /* \"#utility.yul\":9789:9841   */\n      iszero\n      tag_519\n      jumpi\n        /* \"#utility.yul\":9837:9838   */\n      0x00\n        /* \"#utility.yul\":9834:9835   */\n      dup1\n        /* \"#utility.yul\":9827:9839   */\n      revert\n        /* \"#utility.yul\":9789:9841   */\n    tag_519:\n        /* \"#utility.yul\":9873:9882   */\n      dup4\n        /* \"#utility.yul\":9860:9883   */\n      calldataload\n        /* \"#utility.yul\":9850:9883   */\n      swap3\n      pop\n        /* \"#utility.yul\":9930:9932   */\n      0x20\n        /* \"#utility.yul\":9919:9928   */\n      dup5\n        /* \"#utility.yul\":9915:9933   */\n      add\n        /* \"#utility.yul\":9902:9934   */\n      calldataload\n        /* \"#utility.yul\":9892:9934   */\n      swap2\n      pop\n        /* \"#utility.yul\":9953:9991   */\n      tag_520\n        /* \"#utility.yul\":9987:9989   */\n      0x40\n        /* \"#utility.yul\":9976:9985   */\n      dup6\n        /* \"#utility.yul\":9972:9990   */\n      add\n        /* \"#utility.yul\":9953:9991   */\n      tag_439\n      jump\t// in\n    tag_520:\n        /* \"#utility.yul\":9943:9991   */\n      swap1\n      pop\n        /* \"#utility.yul\":9675:9997   */\n      swap3\n      pop\n      swap3\n      pop\n      swap3\n      jump\t// out\n        /* \"#utility.yul\":10155:10481   */\n    tag_441:\n        /* \"#utility.yul\":10248:10253   */\n      dup1\n        /* \"#utility.yul\":10271:10272   */\n      0x00\n        /* \"#utility.yul\":10281:10475   */\n    tag_523:\n        /* \"#utility.yul\":10295:10299   */\n      0x02\n        /* \"#utility.yul\":10292:10293   */\n      dup2\n        /* \"#utility.yul\":10289:10300   */\n      lt\n        /* \"#utility.yul\":10281:10475   */\n      iszero\n      tag_525\n      jumpi\n        /* \"#utility.yul\":10354:10367   */\n      dup2\n      mload\n        /* \"#utility.yul\":10342:10368   */\n      dup5\n      mstore\n        /* \"#utility.yul\":10391:10395   */\n      0x20\n        /* \"#utility.yul\":10415:10427   */\n      swap4\n      dup5\n      add\n      swap4\n        /* \"#utility.yul\":10450:10465   */\n      swap1\n      swap2\n      add\n      swap1\n        /* \"#utility.yul\":10315:10316   */\n      0x01\n        /* \"#utility.yul\":10308:10317   */\n      add\n        /* \"#utility.yul\":10281:10475   */\n      jump(tag_523)\n    tag_525:\n        /* \"#utility.yul\":10285:10288   */\n      pop\n      pop\n        /* \"#utility.yul\":10155:10481   */\n      pop\n      pop\n      jump\t// out\n        /* \"#utility.yul\":10486:10711   */\n    tag_442:\n        /* \"#utility.yul\":10547:10590   */\n      tag_527\n        /* \"#utility.yul\":10586:10589   */\n      dup3\n        /* \"#utility.yul\":10578:10583   */\n      dup3\n        /* \"#utility.yul\":10572:10584   */\n      mload\n        /* \"#utility.yul\":10547:10590   */\n      tag_441\n      jump\t// in\n    tag_527:\n        /* \"#utility.yul\":10636:10640   */\n      0x20\n        /* \"#utility.yul\":10629:10634   */\n      dup2\n        /* \"#utility.yul\":10625:10641   */\n      add\n        /* \"#utility.yul\":10619:10642   */\n      mload\n        /* \"#utility.yul\":10651:10705   */\n      tag_528\n        /* \"#utility.yul\":10699:10703   */\n      0x40\n        /* \"#utility.yul\":10694:10697   */\n      dup5\n        /* \"#utility.yul\":10690:10704   */\n      add\n        /* \"#utility.yul\":10676:10688   */\n      dup3\n        /* \"#utility.yul\":10651:10705   */\n      tag_441\n      jump\t// in\n    tag_528:\n      pop\n        /* \"#utility.yul\":10486:10711   */\n      pop\n      pop\n      jump\t// out\n        /* \"#utility.yul\":10716:11228   */\n    tag_129:\n        /* \"#utility.yul\":10075:10087   */\n      dup4\n      mload\n        /* \"#utility.yul\":10063:10088   */\n      dup2\n      mstore\n        /* \"#utility.yul\":10137:10141   */\n      0x20\n        /* \"#utility.yul\":10126:10142   */\n      dup1\n      dup6\n      add\n        /* \"#utility.yul\":10120:10143   */\n      mload\n        /* \"#utility.yul\":10104:10118   */\n      swap1\n      dup3\n      add\n        /* \"#utility.yul\":10097:10144   */\n      mstore\n        /* \"#utility.yul\":11040:11043   */\n      0x0100\n        /* \"#utility.yul\":11025:11044   */\n      dup2\n      add\n        /* \"#utility.yul\":11106:11159   */\n      tag_531\n        /* \"#utility.yul\":11155:11157   */\n      0x40\n        /* \"#utility.yul\":11144:11153   */\n      dup4\n        /* \"#utility.yul\":11140:11158   */\n      add\n        /* \"#utility.yul\":11132:11138   */\n      dup6\n        /* \"#utility.yul\":11106:11159   */\n      tag_442\n      jump\t// in\n    tag_531:\n        /* \"#utility.yul\":10075:10087   */\n      dup3\n      mload\n        /* \"#utility.yul\":11217:11220   */\n      0xc0\n        /* \"#utility.yul\":11202:11221   */\n      dup4\n      add\n        /* \"#utility.yul\":10063:10088   */\n      mstore\n        /* \"#utility.yul\":10137:10141   */\n      0x20\n        /* \"#utility.yul\":10126:10142   */\n      dup4\n      add\n        /* \"#utility.yul\":10120:10143   */\n      mload\n        /* \"#utility.yul\":10104:10118   */\n      0xe0\n      dup4\n      add\n        /* \"#utility.yul\":10097:10144   */\n      mstore\n        /* \"#utility.yul\":10716:11228   */\n      swap5\n      swap4\n      pop\n      pop\n      pop\n      pop\n      jump\t// out\n        /* \"#utility.yul\":11441:11843   */\n    tag_136:\n        /* \"#utility.yul\":11531:11537   */\n      0x00\n        /* \"#utility.yul\":11539:11545   */\n      dup1\n        /* \"#utility.yul\":11592:11594   */\n      0x40\n        /* \"#utility.yul\":11580:11589   */\n      dup4\n        /* \"#utility.yul\":11571:11578   */\n      dup6\n        /* \"#utility.yul\":11567:11590   */\n      sub\n        /* \"#utility.yul\":11563:11595   */\n      slt\n        /* \"#utility.yul\":11560:11612   */\n      iszero\n      tag_535\n      jumpi\n        /* \"#utility.yul\":11608:11609   */\n      0x00\n        /* \"#utility.yul\":11605:11606   */\n      dup1\n        /* \"#utility.yul\":11598:11610   */\n      revert\n        /* \"#utility.yul\":11560:11612   */\n    tag_535:\n        /* \"#utility.yul\":11640:11649   */\n      dup3\n        /* \"#utility.yul\":11634:11650   */\n      mload\n        /* \"#utility.yul\":11679:11680   */\n      0x05\n        /* \"#utility.yul\":11672:11677   */\n      dup2\n        /* \"#utility.yul\":11669:11681   */\n      lt\n        /* \"#utility.yul\":11659:11699   */\n      tag_536\n      jumpi\n        /* \"#utility.yul\":11695:11696   */\n      0x00\n        /* \"#utility.yul\":11692:11693   */\n      dup1\n        /* \"#utility.yul\":11685:11697   */\n      revert\n        /* \"#utility.yul\":11659:11699   */\n    tag_536:\n        /* \"#utility.yul\":11768:11770   */\n      0x20\n        /* \"#utility.yul\":11753:11771   */\n      dup5\n      add\n        /* \"#utility.yul\":11747:11772   */\n      mload\n        /* \"#utility.yul\":11718:11723   */\n      swap1\n      swap3\n      pop\n        /* \"#utility.yul\":11781:11811   */\n      tag_457\n        /* \"#utility.yul\":11747:11772   */\n      dup2\n        /* \"#utility.yul\":11781:11811   */\n      tag_433\n      jump\t// in\n        /* \"#utility.yul\":11848:12259   */\n    tag_145:\n        /* \"#utility.yul\":12050:12052   */\n      0x20\n        /* \"#utility.yul\":12032:12053   */\n      dup1\n      dup3\n      mstore\n        /* \"#utility.yul\":12089:12091   */\n      0x2f\n        /* \"#utility.yul\":12069:12087   */\n      swap1\n      dup3\n      add\n        /* \"#utility.yul\":12062:12092   */\n      mstore\n        /* \"#utility.yul\":12128:12162   */\n      0x4f6e6c792074686520496e7370656374696f6e204167656e742063616e207275\n        /* \"#utility.yul\":12123:12125   */\n      0x40\n        /* \"#utility.yul\":12108:12126   */\n      dup3\n      add\n        /* \"#utility.yul\":12101:12163   */\n      mstore\n      shl(0x89, 0x37103a3434b990333ab731ba34b7b7)\n        /* \"#utility.yul\":12194:12196   */\n      0x60\n        /* \"#utility.yul\":12179:12197   */\n      dup3\n      add\n        /* \"#utility.yul\":12172:12217   */\n      mstore\n        /* \"#utility.yul\":12249:12252   */\n      0x80\n        /* \"#utility.yul\":12234:12253   */\n      add\n      swap1\n        /* \"#utility.yul\":11848:12259   */\n      jump\t// out\n        /* \"#utility.yul\":12264:12605   */\n    tag_150:\n        /* \"#utility.yul\":12466:12468   */\n      0x20\n        /* \"#utility.yul\":12448:12469   */\n      dup1\n      dup3\n      mstore\n        /* \"#utility.yul\":12505:12507   */\n      0x11\n        /* \"#utility.yul\":12485:12503   */\n      swap1\n      dup3\n      add\n        /* \"#utility.yul\":12478:12508   */\n      mstore\n      shl(0x7a, 0x125b9d985b1a590814995c1bdc9d081251)\n        /* \"#utility.yul\":12539:12541   */\n      0x40\n        /* \"#utility.yul\":12524:12542   */\n      dup3\n      add\n        /* \"#utility.yul\":12517:12564   */\n      mstore\n        /* \"#utility.yul\":12596:12598   */\n      0x60\n        /* \"#utility.yul\":12581:12599   */\n      add\n      swap1\n        /* \"#utility.yul\":12264:12605   */\n      jump\t// out\n        /* \"#utility.yul\":13377:13875   */\n    tag_158:\n        /* \"#utility.yul\":13594:13607   */\n      dup2\n      mload\n        /* \"#utility.yul\":10075:10087   */\n      dup1\n      mload\n        /* \"#utility.yul\":10063:10088   */\n      dup3\n      mstore\n        /* \"#utility.yul\":10137:10141   */\n      0x20\n        /* \"#utility.yul\":10126:10142   */\n      swap1\n      dup2\n      add\n        /* \"#utility.yul\":10120:10143   */\n      mload\n        /* \"#utility.yul\":10104:10118   */\n      swap1\n      dup3\n      add\n        /* \"#utility.yul\":10097:10144   */\n      mstore\n        /* \"#utility.yul\":13555:13558   */\n      0x0100\n        /* \"#utility.yul\":13540:13559   */\n      dup2\n      add\n        /* \"#utility.yul\":13666:13670   */\n      0x20\n        /* \"#utility.yul\":13658:13664   */\n      dup4\n        /* \"#utility.yul\":13654:13671   */\n      add\n        /* \"#utility.yul\":13648:13672   */\n      mload\n        /* \"#utility.yul\":13681:13742   */\n      tag_544\n        /* \"#utility.yul\":13736:13740   */\n      0x40\n        /* \"#utility.yul\":13725:13734   */\n      dup5\n        /* \"#utility.yul\":13721:13741   */\n      add\n        /* \"#utility.yul\":13707:13719   */\n      dup3\n        /* \"#utility.yul\":13681:13742   */\n      tag_442\n      jump\t// in\n    tag_544:\n      pop\n        /* \"#utility.yul\":13791:13795   */\n      0x40\n        /* \"#utility.yul\":13779:13796   */\n      swap3\n      swap1\n      swap3\n      add\n        /* \"#utility.yul\":13773:13797   */\n      mload\n        /* \"#utility.yul\":10075:10087   */\n      dup1\n      mload\n        /* \"#utility.yul\":13863:13867   */\n      0xc0\n        /* \"#utility.yul\":13848:13868   */\n      dup4\n      add\n        /* \"#utility.yul\":10063:10088   */\n      mstore\n        /* \"#utility.yul\":10137:10141   */\n      0x20\n        /* \"#utility.yul\":10126:10142   */\n      add\n        /* \"#utility.yul\":10120:10143   */\n      mload\n        /* \"#utility.yul\":10104:10118   */\n      0xe0\n      swap1\n      swap2\n      add\n        /* \"#utility.yul\":10097:10144   */\n      mstore\n        /* \"#utility.yul\":13377:13875   */\n      swap1\n      jump\t// out\n        /* \"#utility.yul\":13880:14125   */\n    tag_162:\n        /* \"#utility.yul\":13947:13953   */\n      0x00\n        /* \"#utility.yul\":14000:14002   */\n      0x20\n        /* \"#utility.yul\":13988:13997   */\n      dup3\n        /* \"#utility.yul\":13979:13986   */\n      dup5\n        /* \"#utility.yul\":13975:13998   */\n      sub\n        /* \"#utility.yul\":13971:14003   */\n      slt\n        /* \"#utility.yul\":13968:14020   */\n      iszero\n      tag_547\n      jumpi\n        /* \"#utility.yul\":14016:14017   */\n      0x00\n        /* \"#utility.yul\":14013:14014   */\n      dup1\n        /* \"#utility.yul\":14006:14018   */\n      revert\n        /* \"#utility.yul\":13968:14020   */\n    tag_547:\n        /* \"#utility.yul\":14048:14057   */\n      dup2\n        /* \"#utility.yul\":14042:14058   */\n      mload\n        /* \"#utility.yul\":14067:14095   */\n      tag_509\n        /* \"#utility.yul\":14089:14094   */\n      dup2\n        /* \"#utility.yul\":14067:14095   */\n      tag_433\n      jump\t// in\n        /* \"#utility.yul\":14409:14818   */\n    tag_195:\n        /* \"#utility.yul\":14611:14613   */\n      0x20\n        /* \"#utility.yul\":14593:14614   */\n      dup1\n      dup3\n      mstore\n        /* \"#utility.yul\":14650:14652   */\n      0x2d\n        /* \"#utility.yul\":14630:14648   */\n      swap1\n      dup3\n      add\n        /* \"#utility.yul\":14623:14653   */\n      mstore\n        /* \"#utility.yul\":14689:14723   */\n      0x4f6e6c7920746865204368696c6420477561726469616e2063616e2072756e20\n        /* \"#utility.yul\":14684:14686   */\n      0x40\n        /* \"#utility.yul\":14669:14687   */\n      dup3\n      add\n        /* \"#utility.yul\":14662:14724   */\n      mstore\n      shl(0x99, 0x3a3434b990333ab731ba34b7b7)\n        /* \"#utility.yul\":14755:14757   */\n      0x60\n        /* \"#utility.yul\":14740:14758   */\n      dup3\n      add\n        /* \"#utility.yul\":14733:14776   */\n      mstore\n        /* \"#utility.yul\":14808:14811   */\n      0x80\n        /* \"#utility.yul\":14793:14812   */\n      add\n      swap1\n        /* \"#utility.yul\":14409:14818   */\n      jump\t// out\n        /* \"#utility.yul\":14823:15249   */\n    tag_198:\n        /* \"#utility.yul\":15025:15027   */\n      0x20\n        /* \"#utility.yul\":15007:15028   */\n      dup1\n      dup3\n      mstore\n        /* \"#utility.yul\":15064:15066   */\n      0x3e\n        /* \"#utility.yul\":15044:15062   */\n      swap1\n      dup3\n      add\n        /* \"#utility.yul\":15037:15067   */\n      mstore\n        /* \"#utility.yul\":15103:15137   */\n      0x4f6e6c79207468652061737369676e656420477561726469616e20746f207468\n        /* \"#utility.yul\":15098:15100   */\n      0x40\n        /* \"#utility.yul\":15083:15101   */\n      dup3\n      add\n        /* \"#utility.yul\":15076:15138   */\n      mstore\n        /* \"#utility.yul\":15174:15206   */\n      0x6973206368696c642063616e2072756e20746869732066756e6374696f6e0000\n        /* \"#utility.yul\":15169:15171   */\n      0x60\n        /* \"#utility.yul\":15154:15172   */\n      dup3\n      add\n        /* \"#utility.yul\":15147:15207   */\n      mstore\n        /* \"#utility.yul\":15239:15242   */\n      0x80\n        /* \"#utility.yul\":15224:15243   */\n      add\n      swap1\n        /* \"#utility.yul\":14823:15249   */\n      jump\t// out\n        /* \"#utility.yul\":15254:15594   */\n    tag_207:\n        /* \"#utility.yul\":15456:15458   */\n      0x20\n        /* \"#utility.yul\":15438:15459   */\n      dup1\n      dup3\n      mstore\n        /* \"#utility.yul\":15495:15497   */\n      0x10\n        /* \"#utility.yul\":15475:15493   */\n      swap1\n      dup3\n      add\n        /* \"#utility.yul\":15468:15498   */\n      mstore\n      shl(0x82, 0x125b9d985b1a590810da1a5b19081251)\n        /* \"#utility.yul\":15529:15531   */\n      0x40\n        /* \"#utility.yul\":15514:15532   */\n      dup3\n      add\n        /* \"#utility.yul\":15507:15553   */\n      mstore\n        /* \"#utility.yul\":15585:15587   */\n      0x60\n        /* \"#utility.yul\":15570:15588   */\n      add\n      swap1\n        /* \"#utility.yul\":15254:15594   */\n      jump\t// out\n        /* \"#utility.yul\":17708:17835   */\n    tag_443:\n        /* \"#utility.yul\":17769:17779   */\n      0x4e487b71\n        /* \"#utility.yul\":17764:17767   */\n      0xe0\n        /* \"#utility.yul\":17760:17780   */\n      shl\n        /* \"#utility.yul\":17757:17758   */\n      0x00\n        /* \"#utility.yul\":17750:17781   */\n      mstore\n        /* \"#utility.yul\":17800:17804   */\n      0x11\n        /* \"#utility.yul\":17797:17798   */\n      0x04\n        /* \"#utility.yul\":17790:17805   */\n      mstore\n        /* \"#utility.yul\":17824:17828   */\n      0x24\n        /* \"#utility.yul\":17821:17822   */\n      0x00\n        /* \"#utility.yul\":17814:17829   */\n      revert\n        /* \"#utility.yul\":17840:17975   */\n    tag_249:\n        /* \"#utility.yul\":17879:17882   */\n      0x00\n        /* \"#utility.yul\":17900:17917   */\n      0x01\n      dup3\n      add\n        /* \"#utility.yul\":17897:17940   */\n      tag_562\n      jumpi\n        /* \"#utility.yul\":17920:17938   */\n      tag_562\n      tag_443\n      jump\t// in\n    tag_562:\n      pop\n        /* \"#utility.yul\":17967:17968   */\n      0x01\n        /* \"#utility.yul\":17956:17969   */\n      add\n      swap1\n        /* \"#utility.yul\":17840:17975   */\n      jump\t// out\n        /* \"#utility.yul\":19293:19590   */\n    tag_296:\n        /* \"#utility.yul\":19411:19423   */\n      dup1\n      mload\n        /* \"#utility.yul\":19458:19462   */\n      0x20\n        /* \"#utility.yul\":19447:19463   */\n      dup1\n      dup4\n      add\n        /* \"#utility.yul\":19441:19464   */\n      mload\n      swap2\n        /* \"#utility.yul\":19411:19423   */\n      swap1\n        /* \"#utility.yul\":19476:19492   */\n      dup2\n      lt\n        /* \"#utility.yul\":19473:19584   */\n      iszero\n      tag_166\n      jumpi\n      not(0x00)\n        /* \"#utility.yul\":19550:19554   */\n      0x20\n        /* \"#utility.yul\":19546:19563   */\n      swap2\n      swap1\n      swap2\n      sub\n        /* \"#utility.yul\":19543:19544   */\n      0x03\n        /* \"#utility.yul\":19539:19564   */\n      shl\n        /* \"#utility.yul\":19535:19573   */\n      shl\n        /* \"#utility.yul\":19524:19574   */\n      and\n      swap2\n        /* \"#utility.yul\":19293:19590   */\n      swap1\n      pop\n      jump\t// out\n        /* \"#utility.yul\":19595:19720   */\n    tag_298:\n        /* \"#utility.yul\":19660:19669   */\n      dup1\n      dup3\n      add\n        /* \"#utility.yul\":19681:19691   */\n      dup1\n      dup3\n      gt\n        /* \"#utility.yul\":19678:19714   */\n      iszero\n      tag_570\n      jumpi\n        /* \"#utility.yul\":19694:19712   */\n      tag_570\n      tag_443\n      jump\t// in\n    tag_570:\n        /* \"#utility.yul\":19595:19720   */\n      swap3\n      swap2\n      pop\n      pop\n      jump\t// out\n        /* \"#utility.yul\":19725:20140   */\n    tag_313:\n        /* \"#utility.yul\":19927:19929   */\n      0x20\n        /* \"#utility.yul\":19909:19930   */\n      dup1\n      dup3\n      mstore\n        /* \"#utility.yul\":19966:19968   */\n      0x33\n        /* \"#utility.yul\":19946:19964   */\n      swap1\n      dup3\n      add\n        /* \"#utility.yul\":19939:19969   */\n      mstore\n        /* \"#utility.yul\":20005:20039   */\n      0x4f6e6c792074686520726567756c61746f727920617574686f72697479206361\n        /* \"#utility.yul\":20000:20002   */\n      0x40\n        /* \"#utility.yul\":19985:20003   */\n      dup3\n      add\n        /* \"#utility.yul\":19978:20040   */\n      mstore\n      shl(0x69, 0x3710393ab7103a3434b990333ab731ba34b7b7)\n        /* \"#utility.yul\":20071:20073   */\n      0x60\n        /* \"#utility.yul\":20056:20074   */\n      dup3\n      add\n        /* \"#utility.yul\":20049:20098   */\n      mstore\n        /* \"#utility.yul\":20130:20133   */\n      0x80\n        /* \"#utility.yul\":20115:20134   */\n      add\n      swap1\n        /* \"#utility.yul\":19725:20140   */\n      jump\t// out\n        /* \"#utility.yul\":20553:20721   */\n    tag_350:\n        /* \"#utility.yul\":20626:20635   */\n      dup1\n      dup3\n      mul\n        /* \"#utility.yul\":20657:20666   */\n      dup2\n      iszero\n        /* \"#utility.yul\":20674:20689   */\n      dup3\n      dup3\n      div\n        /* \"#utility.yul\":20668:20690   */\n      dup5\n      eq\n        /* \"#utility.yul\":20654:20691   */\n      or\n        /* \"#utility.yul\":20644:20715   */\n      tag_570\n      jumpi\n        /* \"#utility.yul\":20695:20713   */\n      tag_570\n      tag_443\n      jump\t// in\n\n    auxdata: 0xa2646970667358221220fdc47de12be3396883addf108656f58f447f6f16e08d6eceee8ca4274f8ffc9064736f6c63430008150033\n}\n",
				"bytecode": {
					"linkReferences": {},
					"object": "608060405234801562000010575f80fd5b506040516200264f3803806200264f83398101604081905262000033916200008b565b5f80546001600160a01b039384166001600160a01b031991821617825560018054939094169216919091179091556002819055600355620000c1565b80516001600160a01b038116811462000086575f80fd5b919050565b5f80604083850312156200009d575f80fd5b620000a8836200006f565b9150620000b8602084016200006f565b90509250929050565b61258080620000cf5f395ff3fe608060405234801561000f575f80fd5b5060043610610148575f3560e01c806384e2395d116100bf578063a1dc99b411610079578063a1dc99b414610449578063b05efaab1461046c578063d9a5ec1b1461048b578063e8a379191461049e578063eff5cfae146104b0578063f8b4d690146104c3575f80fd5b806384e2395d146103a25780638bc3bbc0146103e55780638fe2d950146103ee57806397fc007c14610401578063992cc02214610414578063a0619d4a14610427575f80fd5b80633835a119116101105780633835a1191461026c57806353ca8115146102fa578063636d0262146103255780636388bafc1461035d578063739f48a61461037c578063832de71e1461038f575f80fd5b806312f1a83a1461014c578063185c6f84146101bc57806328c10330146101d35780632b76ea9c146101e85780632ccc839214610249575b5f80fd5b6101a161015a366004611da5565b600660209081525f928352604080842090915290825290208054600182015460028301546003840154600485015460059095015493949293919260f89190911b9160ff1686565b6040516101b396959493929190611df9565b60405180910390f35b6101c560025481565b6040519081526020016101b3565b6101e66101e1366004611e4d565b6104e5565b005b6102376101f6366004611e7b565b60086020525f90815260409020805460018201546002830154600384015460048501546005909501546001600160a01b039094169492939192909160ff1686565b6040516101b396959493929190611e92565b61025c610257366004611fb4565b6106bd565b60405190151581526020016101b3565b6102bf61027a366004611e7b565b600460208190525f9182526040909120805460018201546002830154600384015493909401546001600160a01b03909216939092909160ff8082169161010090041686565b604080516001600160a01b039097168752602087019590955293850192909252606084015215156080830152151560a082015260c0016101b3565b60015461030d906001600160a01b031681565b6040516001600160a01b0390911681526020016101b3565b610338610333366004611e7b565b6107a1565b604080516001600160a01b0390941684526020840192909252908201526060016101b3565b6101c561036b366004611e7b565b60076020525f908152604090205481565b6101e661038a366004611da5565b6108f7565b6101e661039d366004612054565b610be3565b6103b56103b0366004611da5565b610ef6565b6040516101b3949392919093845260208401929092526001600160f81b0319166040830152606082015260800190565b6101c560035481565b6101e66103fc36600461209c565b611166565b6101e661040f36600461214b565b611388565b6101e661042236600461216b565b611454565b61025c61043536600461214b565b60096020525f908152604090205460ff1681565b61045c610457366004611da5565b611752565b6040516101b39493929190612194565b6101c561047a366004611e7b565b60056020525f908152604090205481565b6101e66104993660046121bd565b611919565b5f5461030d906001600160a01b031681565b6101e66104be3660046121e7565b611a26565b6104d66104d1366004611e7b565b611ceb565b6040516101b393929190612263565b5f8054604051631d6253a360e21b815233600482015282916001600160a01b0316906375894e8c9060240160408051808303815f875af115801561052b573d5f803e3d5ffd5b505050506040513d601f19601f8201168201806040525081019061054f919061229c565b9092509050600282600481111561056857610568611dc5565b1480156105725750805b6105975760405162461bcd60e51b815260040161058e906122cc565b60405180910390fd5b600184101580156105aa57506002548411155b6105c65760405162461bcd60e51b815260040161058e9061231b565b5f848152600460208190526040909120015460ff16156106375760405162461bcd60e51b815260206004820152602660248201527f54686973207265706f72742068617320616c7265616479206265656e20696e736044820152651c1958dd195960d21b606482015260840161058e565b5f848152600460208190526040918290200180548515156101000261ffff199091161760011790555184907f5e672278b5a4ce7f1deaeb816f60398e65c2401c6f90928e8344510d7fa92755906106af903390879042906001600160a01b039390931683529015156020830152604082015260600190565b60405180910390a250505050565b60015460405163f6af031160e01b81525f9182916001600160a01b039091169063f6af0311906106f1908690600401612346565b602060405180830381865afa15801561070c573d5f803e3d5ffd5b505050506040513d601f19601f820116820180604052508101906107309190612389565b9050801561079357335f81815260096020908152604091829020805460ff19166001179055815192835242908301527f6ea640312e182de387819fbeb13be00db3171a445412852248559054871c4199910160405180910390a150600192915050565b505f92915050565b50919050565b5f8054604051631d6253a360e21b815233600482015282918291829182916001600160a01b03909116906375894e8c9060240160408051808303815f875af11580156107ef573d5f803e3d5ffd5b505050506040513d601f19601f82011682018060405250810190610813919061229c565b9092509050600282600481111561082c5761082c611dc5565b1480156108365750805b6108525760405162461bcd60e51b815260040161058e906122cc565b6001861015801561086557506002548611155b6108815760405162461bcd60e51b815260040161058e9061231b565b5050505f928352505060046020818152604092839020835160c08101855281546001600160a01b03168082526001830154938201849052600283015495820195909552600382015460608201819052919093015460ff8082161515608086015261010090910416151560a0909301929092529192565b5f8054604051631d6253a360e21b815233600482015283929182916001600160a01b03909116906375894e8c9060240160408051808303815f875af1158015610942573d5f803e3d5ffd5b505050506040513d601f19601f82011682018060405250810190610966919061229c565b9092509050600482600481111561097f5761097f611dc5565b1480156109895750805b6109a55760405162461bcd60e51b815260040161058e906123a4565b5f838152600860205260409020546001600160a01b031633146109da5760405162461bcd60e51b815260040161058e906123f1565b5f848152600860209081526040808320815160c08101835281546001600160a01b03168152600182015493810193909352600281015491830191909152600380820154606084015260048201546080840152600582015460a084019160ff90911690811115610a4b57610a4b611dc5565b6003811115610a5c57610a5c611dc5565b905250905060018510801590610a7f57505f868152600760205260409020548511155b610a9b5760405162461bcd60e51b815260040161058e9061244e565b60028160a001516003811115610ab357610ab3611dc5565b14610b135760405162461bcd60e51b815260206004820152602a60248201527f54686973206368696c64206973206e6f742063757272656e746c7920696e207260448201526932b6b2b234b0ba34b7b760b11b606482015260840161058e565b8060600151421015610b7d5760405162461bcd60e51b815260206004820152602d60248201527f5468652074696d652077696e646f7720666f722072656d6564696174696f6e2060448201526c34b99039ba34b6361037b832b760991b606482015260840161058e565b5f8581526008602090815260409182902060058101805460ff191660031790554260049091018190558251888152918201527f20bdfc4aed336b176d0d9fcc339a80e25301f17464e264fb2ef18960418b20ca91015b60405180910390a1505050505050565b5f8054604051631d6253a360e21b815233600482015282916001600160a01b0316906375894e8c9060240160408051808303815f875af1158015610c29573d5f803e3d5ffd5b505050506040513d601f19601f82011682018060405250810190610c4d919061229c565b90925090506002826004811115610c6657610c66611dc5565b148015610c705750805b610c8c5760405162461bcd60e51b815260040161058e906122cc565b85610ccf5760405162461bcd60e51b8152602060048201526013602482015272496e76616c696420686173686564206e616d6560681b604482015260640161058e565b5f8511610d0c5760405162461bcd60e51b815260206004820152600b60248201526a496e76616c69642041676560a81b604482015260640161058e565b604d60f81b6001600160f81b031985161480610d355750602360f91b6001600160f81b03198516145b610d725760405162461bcd60e51b815260206004820152600e60248201526d24b73b30b634b21023b2b73232b960911b604482015260640161058e565b60018310158015610d8557506002548311155b610da15760405162461bcd60e51b815260040161058e9061231b565b5f838152600760205260408120805491610dba8361248c565b90915550506040805160c0810182525f85815260076020908152838220548084528184018b81528486018b81526001600160f81b03198b1660608701908152608087018b815260a088018781528c88526006875289882095885294909552969094208551815590516001808301919091559351600282015594516003808701805460f89390931c60ff19938416179055925160048701559051600586018054959695919490939190921691908490811115610e7757610e77611dc5565b021790555050505f8381526007602081815260408084208054855260058352818520889055938790529181529154815190815291820188905281018690526001600160f81b031985166060820152608081018490527f8f6937edcd05ce1c1912e225ec700cb996d92333e3b1631ce16e703fc6b8e77a9060a001610bd3565b5f8054604051631d6253a360e21b8152336004820152829182918291829182916001600160a01b0316906375894e8c9060240160408051808303815f875af1158015610f44573d5f803e3d5ffd5b505050506040513d601f19601f82011682018060405250810190610f68919061229c565b90925090506003826004811115610f8157610f81611dc5565b148015610f8b5750805b610feb5760405162461bcd60e51b815260206004820152602b60248201527f4f6e6c7920746865204461746120416e616c7973742063616e2072756e20746860448201526a34b990333ab731ba34b7b760a91b606482015260840161058e565b60018810158015610ffe57506002548811155b61101a5760405162461bcd60e51b815260040161058e9061231b565b6001871015801561103857505f888152600760205260409020548711155b6110545760405162461bcd60e51b815260040161058e9061244e565b5f8881526006602090815260408083208a84528252808320815160c0810183528154815260018201549381019390935260028101549183019190915260038082015460f81b6001600160f81b031916606084015260048201546080840152600582015460a084019160ff909116908111156110d1576110d1611dc5565b60038111156110e2576110e2611dc5565b9052505f998a526004602081815260409b8c90208c5160c081018e5281546001600160a01b031681526001820154818401526002820154818f015260038201546060808301829052929094015460ff8082161515608084015261010090910416151560a090910152908301519b8301519201519a9b919a9950975095505050505050565b5f8054604051631d6253a360e21b815233600482015282916001600160a01b0316906375894e8c9060240160408051808303815f875af11580156111ac573d5f803e3d5ffd5b505050506040513d601f19601f820116820180604052508101906111d0919061229c565b909250905060018260048111156111e9576111e9611dc5565b1480156111f35750805b6112565760405162461bcd60e51b815260206004820152602e60248201527f4f6e6c7920746865204c696169736f6e204f6666696365722063616e2072756e60448201526d103a3434b990333ab731ba34b7b760911b606482015260840161058e565b60028054905f6112658361248c565b90915550506040805160c08101825233815242602082015290810184905260608101611290866124a4565b81525f602080830182905260409283018290526002805483526004808352848420865181546001600160a01b039091166001600160a01b031990911617815592860151600184015593850151908201556060840151600380830191909155608085015191909301805460a09095015115156101000261ff00199215159290921661ffff199095169490941717909255805485929061132f9084906124c7565b90915550506002547f681f3195132986285e497b66d82a1d87dee04fe482a1e74020677b543e3f7c403342611363886124a4565b604080516001600160a01b0390941684526020840192909252908201526060016106af565b5f8054604051631d6253a360e21b815233600482015282916001600160a01b0316906375894e8c9060240160408051808303815f875af11580156113ce573d5f803e3d5ffd5b505050506040513d601f19601f820116820180604052508101906113f2919061229c565b90925090505f82600481111561140a5761140a611dc5565b1480156114145750805b6114305760405162461bcd60e51b815260040161058e906124e0565b5050600180546001600160a01b0319166001600160a01b0392909216919091179055565b5f8054604051631d6253a360e21b815233600482015284929182916001600160a01b03909116906375894e8c9060240160408051808303815f875af115801561149f573d5f803e3d5ffd5b505050506040513d601f19601f820116820180604052508101906114c3919061229c565b909250905060048260048111156114dc576114dc611dc5565b1480156114e65750805b6115025760405162461bcd60e51b815260040161058e906123a4565b5f838152600860205260409020546001600160a01b031633146115375760405162461bcd60e51b815260040161058e906123f1565b5f858152600860209081526040808320815160c08101835281546001600160a01b03168152600182015493810193909352600281015491830191909152600380820154606084015260048201546080840152600582015460a084019160ff909116908111156115a8576115a8611dc5565b60038111156115b9576115b9611dc5565b9052509050600187108015906115d157506002548711155b6115ed5760405162461bcd60e51b815260040161058e9061231b565b6001861015801561160b57505f878152600760205260409020548611155b6116275760405162461bcd60e51b815260040161058e9061244e565b60018160a00151600381111561163f5761163f611dc5565b1461169c5760405162461bcd60e51b815260206004820152602760248201527f54686973206368696c64206973206e6f7420726561647920666f722072656d656044820152663234b0ba34b7b760c91b606482015260840161058e565b5f86815260086020526040902060058101805460ff19166002908117909155429101556116ca856001612533565b6116d490426124c7565b5f87815260086020526040902060038101919091554260049091018190557fe8c0a5c01ea0a1da185a4990b289aa6b4dc5fd0d2b3d68be0bb0b32ebde6a2a5908790611721886001612533565b61172b90426124c7565b6040805193845260208401929092529082015260600160405180910390a150505050505050565b5f8054604051631d6253a360e21b8152336004820152829182918291829182916001600160a01b0316906375894e8c9060240160408051808303815f875af11580156117a0573d5f803e3d5ffd5b505050506040513d601f19601f820116820180604052508101906117c4919061229c565b90925090505f8260048111156117dc576117dc611dc5565b1480156117e65750805b6118025760405162461bcd60e51b815260040161058e906124e0565b5f878152600860209081526040808320815160c08101835281546001600160a01b03168152600182015493810193909352600281015491830191909152600380820154606084015260048201546080840152600582015460a084019160ff9091169081111561187357611873611dc5565b600381111561188457611884611dc5565b90525090506001891080159061189c57506002548911155b6118b85760405162461bcd60e51b815260040161058e9061231b565b600188101580156118d657505f898152600760205260409020548811155b6118f25760405162461bcd60e51b815260040161058e9061244e565b60a081015160808201516040830151606090930151919b909a509198509650945050505050565b5f8054604051631d6253a360e21b815233600482015282916001600160a01b0316906375894e8c9060240160408051808303815f875af115801561195f573d5f803e3d5ffd5b505050506040513d601f19601f82011682018060405250810190611983919061229c565b90925090505f82600481111561199b5761199b611dc5565b1480156119a55750805b6119c15760405162461bcd60e51b815260040161058e906124e0565b6001600160a01b0383165f81815260096020908152604091829020805460ff191690558151338152908101929092524282820152517f6f6a404ffd2cea4713256a4fd9ce99c8cf8cf32d85c2bb8061d1603ff57d50c39181900360600190a150505050565b5f8054604051631d6253a360e21b815233600482015282916001600160a01b0316906375894e8c9060240160408051808303815f875af1158015611a6c573d5f803e3d5ffd5b505050506040513d601f19601f82011682018060405250810190611a90919061229c565b90925090505f826004811115611aa857611aa8611dc5565b148015611ab25750805b611ace5760405162461bcd60e51b815260040161058e906124e0565b5f8581526006602090815260408083208784528252808320815160c0810183528154815260018201549381019390935260028101549183019190915260038082015460f81b6001600160f81b031916606084015260048201546080840152600582015460a084019160ff90911690811115611b4b57611b4b611dc5565b6003811115611b5c57611b5c611dc5565b90525090505f8160a001516003811115611b7857611b78611dc5565b14611bf95760405162461bcd60e51b8152602060048201526044602482018190527f54686973206368696c6420496420646f6573206e6f74206578697374206f7220908201527f68617320616c7265616479206265656e2061737369676e6564206120677561726064820152633234b0b760e11b608482015260a40161058e565b60018610158015611c0c57506002548611155b611c285760405162461bcd60e51b815260040161058e9061231b565b60018510158015611c4657505f868152600760205260409020548511155b611c625760405162461bcd60e51b815260040161058e9061244e565b5f85815260086020526040902080546001600160a01b0319166001600160a01b03861617815560018082018790556005909101805460ff19168280021790555060408051868152602081018890526001600160a01b038616918101919091527fe1a03807ff7b7d8ac4c42cf3fe3905d10b2b30935d18974726482db3bf232e3690606001610bd3565b600a60209081525f91825260409182902082518084018452815481526001820154928101929092528251608081018085529293919290916002808501928492830191849182845b815481526020019060010190808311611d3257505050918352505060408051808201918290526020909201919060028481019182845b815481526020019060010190808311611d685750505091909252505060408051808201909152600684015481526007909301546020840152509083565b5f8060408385031215611db6575f80fd5b50508035926020909101359150565b634e487b7160e01b5f52602160045260245ffd5b60048110611df557634e487b7160e01b5f52602160045260245ffd5b9052565b86815260208101869052604081018590526001600160f81b0319841660608201526080810183905260c08101611e3260a0830184611dd9565b979650505050505050565b8015158114611e4a575f80fd5b50565b5f8060408385031215611e5e575f80fd5b823591506020830135611e7081611e3d565b809150509250929050565b5f60208284031215611e8b575f80fd5b5035919050565b6001600160a01b03871681526020810186905260408101859052606081018490526080810183905260c08101611e3260a0830184611dd9565b634e487b7160e01b5f52604160045260245ffd5b6040805190810167ffffffffffffffff81118282101715611f0257611f02611ecb565b60405290565b604051601f8201601f1916810167ffffffffffffffff81118282101715611f3157611f31611ecb565b604052919050565b5f60408284031215611f49575f80fd5b611f51611edf565b9050813581526020820135602082015292915050565b5f82601f830112611f76575f80fd5b611f7e611edf565b806040840185811115611f8f575f80fd5b845b81811015611fa9578035845260209384019301611f91565b509095945050505050565b5f818303610100811215611fc6575f80fd5b6040516060810181811067ffffffffffffffff82111715611fe957611fe9611ecb565b604052611ff68585611f39565b81526080603f1983011215612009575f80fd5b612011611edf565b91506120208560408601611f67565b825261202f8560808601611f67565b60208301528160208201526120478560c08601611f39565b6040820152949350505050565b5f805f8060808587031215612067575f80fd5b843593506020850135925060408501356001600160f81b03198116811461208c575f80fd5b9396929550929360600135925050565b5f80604083850312156120ad575f80fd5b823567ffffffffffffffff808211156120c4575f80fd5b818501915085601f8301126120d7575f80fd5b81356020828211156120eb576120eb611ecb565b6120fd601f8301601f19168201611f08565b92508183528781838601011115612112575f80fd5b81818501828501375f91830181019190915290969401359450505050565b80356001600160a01b0381168114612146575f80fd5b919050565b5f6020828403121561215b575f80fd5b61216482612130565b9392505050565b5f805f6060848603121561217d575f80fd5b505081359360208301359350604090920135919050565b608081016121a28287611dd9565b84602083015283604083015282606083015295945050505050565b5f80604083850312156121ce575f80fd5b823591506121de60208401612130565b90509250929050565b5f805f606084860312156121f9575f80fd5b833592506020840135915061221060408501612130565b90509250925092565b805f5b600281101561223b57815184526020938401939091019060010161221c565b50505050565b61224c828251612219565b602081015161225e6040840182612219565b505050565b835181526020808501519082015261010081016122836040830185612241565b825160c0830152602083015160e0830152949350505050565b5f80604083850312156122ad575f80fd5b8251600581106122bb575f80fd5b6020840151909250611e7081611e3d565b6020808252602f908201527f4f6e6c792074686520496e7370656374696f6e204167656e742063616e20727560408201526e37103a3434b990333ab731ba34b7b760891b606082015260800190565b602080825260119082015270125b9d985b1a590814995c1bdc9d081251607a1b604082015260600190565b815180518252602090810151908201526101008101602083015161236d6040840182612241565b5060409290920151805160c08301526020015160e09091015290565b5f60208284031215612399575f80fd5b815161216481611e3d565b6020808252602d908201527f4f6e6c7920746865204368696c6420477561726469616e2063616e2072756e2060408201526c3a3434b990333ab731ba34b7b760991b606082015260800190565b6020808252603e908201527f4f6e6c79207468652061737369676e656420477561726469616e20746f20746860408201527f6973206368696c642063616e2072756e20746869732066756e6374696f6e0000606082015260800190565b60208082526010908201526f125b9d985b1a590810da1a5b1908125160821b604082015260600190565b634e487b7160e01b5f52601160045260245ffd5b5f6001820161249d5761249d612478565b5060010190565b8051602080830151919081101561079b575f1960209190910360031b1b16919050565b808201808211156124da576124da612478565b92915050565b60208082526033908201527f4f6e6c792074686520726567756c61746f727920617574686f726974792063616040820152723710393ab7103a3434b990333ab731ba34b7b760691b606082015260800190565b80820281158282048414176124da576124da61247856fea2646970667358221220fdc47de12be3396883addf108656f58f447f6f16e08d6eceee8ca4274f8ffc9064736f6c63430008150033",
					"opcodes": "PUSH1 0x80 PUSH1 0x40 MSTORE CALLVALUE DUP1 ISZERO PUSH3 0x10 JUMPI PUSH0 DUP1 REVERT JUMPDEST POP PUSH1 0x40 MLOAD PUSH3 0x264F CODESIZE SUB DUP1 PUSH3 0x264F DUP4 CODECOPY DUP2 ADD PUSH1 0x40 DUP2 SWAP1 MSTORE PUSH3 0x33 SWAP2 PUSH3 0x8B JUMP JUMPDEST PUSH0 DUP1 SLOAD PUSH1 0x1 PUSH1 0x1 PUSH1 0xA0 SHL SUB SWAP4 DUP5 AND PUSH1 0x1 PUSH1 0x1 PUSH1 0xA0 SHL SUB NOT SWAP2 DUP3 AND OR DUP3 SSTORE PUSH1 0x1 DUP1 SLOAD SWAP4 SWAP1 SWAP5 AND SWAP3 AND SWAP2 SWAP1 SWAP2 OR SWAP1 SWAP2 SSTORE PUSH1 0x2 DUP2 SWAP1 SSTORE PUSH1 0x3 SSTORE PUSH3 0xC1 JUMP JUMPDEST DUP1 MLOAD PUSH1 0x1 PUSH1 0x1 PUSH1 0xA0 SHL SUB DUP2 AND DUP2 EQ PUSH3 0x86 JUMPI PUSH0 DUP1 REVERT JUMPDEST SWAP2 SWAP1 POP JUMP JUMPDEST PUSH0 DUP1 PUSH1 0x40 DUP4 DUP6 SUB SLT ISZERO PUSH3 0x9D JUMPI PUSH0 DUP1 REVERT JUMPDEST PUSH3 0xA8 DUP4 PUSH3 0x6F JUMP JUMPDEST SWAP2 POP PUSH3 0xB8 PUSH1 0x20 DUP5 ADD PUSH3 0x6F JUMP JUMPDEST SWAP1 POP SWAP3 POP SWAP3 SWAP1 POP JUMP JUMPDEST PUSH2 0x2580 DUP1 PUSH3 0xCF PUSH0 CODECOPY PUSH0 RETURN INVALID PUSH1 0x80 PUSH1 0x40 MSTORE CALLVALUE DUP1 ISZERO PUSH2 0xF JUMPI PUSH0 DUP1 REVERT JUMPDEST POP PUSH1 0x4 CALLDATASIZE LT PUSH2 0x148 JUMPI PUSH0 CALLDATALOAD PUSH1 0xE0 SHR DUP1 PUSH4 0x84E2395D GT PUSH2 0xBF JUMPI DUP1 PUSH4 0xA1DC99B4 GT PUSH2 0x79 JUMPI DUP1 PUSH4 0xA1DC99B4 EQ PUSH2 0x449 JUMPI DUP1 PUSH4 0xB05EFAAB EQ PUSH2 0x46C JUMPI DUP1 PUSH4 0xD9A5EC1B EQ PUSH2 0x48B JUMPI DUP1 PUSH4 0xE8A37919 EQ PUSH2 0x49E JUMPI DUP1 PUSH4 0xEFF5CFAE EQ PUSH2 0x4B0 JUMPI DUP1 PUSH4 0xF8B4D690 EQ PUSH2 0x4C3 JUMPI PUSH0 DUP1 REVERT JUMPDEST DUP1 PUSH4 0x84E2395D EQ PUSH2 0x3A2 JUMPI DUP1 PUSH4 0x8BC3BBC0 EQ PUSH2 0x3E5 JUMPI DUP1 PUSH4 0x8FE2D950 EQ PUSH2 0x3EE JUMPI DUP1 PUSH4 0x97FC007C EQ PUSH2 0x401 JUMPI DUP1 PUSH4 0x992CC022 EQ PUSH2 0x414 JUMPI DUP1 PUSH4 0xA0619D4A EQ PUSH2 0x427 JUMPI PUSH0 DUP1 REVERT JUMPDEST DUP1 PUSH4 0x3835A119 GT PUSH2 0x110 JUMPI DUP1 PUSH4 0x3835A119 EQ PUSH2 0x26C JUMPI DUP1 PUSH4 0x53CA8115 EQ PUSH2 0x2FA JUMPI DUP1 PUSH4 0x636D0262 EQ PUSH2 0x325 JUMPI DUP1 PUSH4 0x6388BAFC EQ PUSH2 0x35D JUMPI DUP1 PUSH4 0x739F48A6 EQ PUSH2 0x37C JUMPI DUP1 PUSH4 0x832DE71E EQ PUSH2 0x38F JUMPI PUSH0 DUP1 REVERT JUMPDEST DUP1 PUSH4 0x12F1A83A EQ PUSH2 0x14C JUMPI DUP1 PUSH4 0x185C6F84 EQ PUSH2 0x1BC JUMPI DUP1 PUSH4 0x28C10330 EQ PUSH2 0x1D3 JUMPI DUP1 PUSH4 0x2B76EA9C EQ PUSH2 0x1E8 JUMPI DUP1 PUSH4 0x2CCC8392 EQ PUSH2 0x249 JUMPI JUMPDEST PUSH0 DUP1 REVERT JUMPDEST PUSH2 0x1A1 PUSH2 0x15A CALLDATASIZE PUSH1 0x4 PUSH2 0x1DA5 JUMP JUMPDEST PUSH1 0x6 PUSH1 0x20 SWAP1 DUP2 MSTORE PUSH0 SWAP3 DUP4 MSTORE PUSH1 0x40 DUP1 DUP5 KECCAK256 SWAP1 SWAP2 MSTORE SWAP1 DUP3 MSTORE SWAP1 KECCAK256 DUP1 SLOAD PUSH1 0x1 DUP3 ADD SLOAD PUSH1 0x2 DUP4 ADD SLOAD PUSH1 0x3 DUP5 ADD SLOAD PUSH1 0x4 DUP6 ADD SLOAD PUSH1 0x5 SWAP1 SWAP6 ADD SLOAD SWAP4 SWAP5 SWAP3 SWAP4 SWAP2 SWAP3 PUSH1 0xF8 SWAP2 SWAP1 SWAP2 SHL SWAP2 PUSH1 0xFF AND DUP7 JUMP JUMPDEST PUSH1 0x40 MLOAD PUSH2 0x1B3 SWAP7 SWAP6 SWAP5 SWAP4 SWAP3 SWAP2 SWAP1 PUSH2 0x1DF9 JUMP JUMPDEST PUSH1 0x40 MLOAD DUP1 SWAP2 SUB SWAP1 RETURN JUMPDEST PUSH2 0x1C5 PUSH1 0x2 SLOAD DUP2 JUMP JUMPDEST PUSH1 0x40 MLOAD SWAP1 DUP2 MSTORE PUSH1 0x20 ADD PUSH2 0x1B3 JUMP JUMPDEST PUSH2 0x1E6 PUSH2 0x1E1 CALLDATASIZE PUSH1 0x4 PUSH2 0x1E4D JUMP JUMPDEST PUSH2 0x4E5 JUMP JUMPDEST STOP JUMPDEST PUSH2 0x237 PUSH2 0x1F6 CALLDATASIZE PUSH1 0x4 PUSH2 0x1E7B JUMP JUMPDEST PUSH1 0x8 PUSH1 0x20 MSTORE PUSH0 SWAP1 DUP2 MSTORE PUSH1 0x40 SWAP1 KECCAK256 DUP1 SLOAD PUSH1 0x1 DUP3 ADD SLOAD PUSH1 0x2 DUP4 ADD SLOAD PUSH1 0x3 DUP5 ADD SLOAD PUSH1 0x4 DUP6 ADD SLOAD PUSH1 0x5 SWAP1 SWAP6 ADD SLOAD PUSH1 0x1 PUSH1 0x1 PUSH1 0xA0 SHL SUB SWAP1 SWAP5 AND SWAP5 SWAP3 SWAP4 SWAP2 SWAP3 SWAP1 SWAP2 PUSH1 0xFF AND DUP7 JUMP JUMPDEST PUSH1 0x40 MLOAD PUSH2 0x1B3 SWAP7 SWAP6 SWAP5 SWAP4 SWAP3 SWAP2 SWAP1 PUSH2 0x1E92 JUMP JUMPDEST PUSH2 0x25C PUSH2 0x257 CALLDATASIZE PUSH1 0x4 PUSH2 0x1FB4 JUMP JUMPDEST PUSH2 0x6BD JUMP JUMPDEST PUSH1 0x40 MLOAD SWAP1 ISZERO ISZERO DUP2 MSTORE PUSH1 0x20 ADD PUSH2 0x1B3 JUMP JUMPDEST PUSH2 0x2BF PUSH2 0x27A CALLDATASIZE PUSH1 0x4 PUSH2 0x1E7B JUMP JUMPDEST PUSH1 0x4 PUSH1 0x20 DUP2 SWAP1 MSTORE PUSH0 SWAP2 DUP3 MSTORE PUSH1 0x40 SWAP1 SWAP2 KECCAK256 DUP1 SLOAD PUSH1 0x1 DUP3 ADD SLOAD PUSH1 0x2 DUP4 ADD SLOAD PUSH1 0x3 DUP5 ADD SLOAD SWAP4 SWAP1 SWAP5 ADD SLOAD PUSH1 0x1 PUSH1 0x1 PUSH1 0xA0 SHL SUB SWAP1 SWAP3 AND SWAP4 SWAP1 SWAP3 SWAP1 SWAP2 PUSH1 0xFF DUP1 DUP3 AND SWAP2 PUSH2 0x100 SWAP1 DIV AND DUP7 JUMP JUMPDEST PUSH1 0x40 DUP1 MLOAD PUSH1 0x1 PUSH1 0x1 PUSH1 0xA0 SHL SUB SWAP1 SWAP8 AND DUP8 MSTORE PUSH1 0x20 DUP8 ADD SWAP6 SWAP1 SWAP6 MSTORE SWAP4 DUP6 ADD SWAP3 SWAP1 SWAP3 MSTORE PUSH1 0x60 DUP5 ADD MSTORE ISZERO ISZERO PUSH1 0x80 DUP4 ADD MSTORE ISZERO ISZERO PUSH1 0xA0 DUP3 ADD MSTORE PUSH1 0xC0 ADD PUSH2 0x1B3 JUMP JUMPDEST PUSH1 0x1 SLOAD PUSH2 0x30D SWAP1 PUSH1 0x1 PUSH1 0x1 PUSH1 0xA0 SHL SUB AND DUP2 JUMP JUMPDEST PUSH1 0x40 MLOAD PUSH1 0x1 PUSH1 0x1 PUSH1 0xA0 SHL SUB SWAP1 SWAP2 AND DUP2 MSTORE PUSH1 0x20 ADD PUSH2 0x1B3 JUMP JUMPDEST PUSH2 0x338 PUSH2 0x333 CALLDATASIZE PUSH1 0x4 PUSH2 0x1E7B JUMP JUMPDEST PUSH2 0x7A1 JUMP JUMPDEST PUSH1 0x40 DUP1 MLOAD PUSH1 0x1 PUSH1 0x1 PUSH1 0xA0 SHL SUB SWAP1 SWAP5 AND DUP5 MSTORE PUSH1 0x20 DUP5 ADD SWAP3 SWAP1 SWAP3 MSTORE SWAP1 DUP3 ADD MSTORE PUSH1 0x60 ADD PUSH2 0x1B3 JUMP JUMPDEST PUSH2 0x1C5 PUSH2 0x36B CALLDATASIZE PUSH1 0x4 PUSH2 0x1E7B JUMP JUMPDEST PUSH1 0x7 PUSH1 0x20 MSTORE PUSH0 SWAP1 DUP2 MSTORE PUSH1 0x40 SWAP1 KECCAK256 SLOAD DUP2 JUMP JUMPDEST PUSH2 0x1E6 PUSH2 0x38A CALLDATASIZE PUSH1 0x4 PUSH2 0x1DA5 JUMP JUMPDEST PUSH2 0x8F7 JUMP JUMPDEST PUSH2 0x1E6 PUSH2 0x39D CALLDATASIZE PUSH1 0x4 PUSH2 0x2054 JUMP JUMPDEST PUSH2 0xBE3 JUMP JUMPDEST PUSH2 0x3B5 PUSH2 0x3B0 CALLDATASIZE PUSH1 0x4 PUSH2 0x1DA5 JUMP JUMPDEST PUSH2 0xEF6 JUMP JUMPDEST PUSH1 0x40 MLOAD PUSH2 0x1B3 SWAP5 SWAP4 SWAP3 SWAP2 SWAP1 SWAP4 DUP5 MSTORE PUSH1 0x20 DUP5 ADD SWAP3 SWAP1 SWAP3 MSTORE PUSH1 0x1 PUSH1 0x1 PUSH1 0xF8 SHL SUB NOT AND PUSH1 0x40 DUP4 ADD MSTORE PUSH1 0x60 DUP3 ADD MSTORE PUSH1 0x80 ADD SWAP1 JUMP JUMPDEST PUSH2 0x1C5 PUSH1 0x3 SLOAD DUP2 JUMP JUMPDEST PUSH2 0x1E6 PUSH2 0x3FC CALLDATASIZE PUSH1 0x4 PUSH2 0x209C JUMP JUMPDEST PUSH2 0x1166 JUMP JUMPDEST PUSH2 0x1E6 PUSH2 0x40F CALLDATASIZE PUSH1 0x4 PUSH2 0x214B JUMP JUMPDEST PUSH2 0x1388 JUMP JUMPDEST PUSH2 0x1E6 PUSH2 0x422 CALLDATASIZE PUSH1 0x4 PUSH2 0x216B JUMP JUMPDEST PUSH2 0x1454 JUMP JUMPDEST PUSH2 0x25C PUSH2 0x435 CALLDATASIZE PUSH1 0x4 PUSH2 0x214B JUMP JUMPDEST PUSH1 0x9 PUSH1 0x20 MSTORE PUSH0 SWAP1 DUP2 MSTORE PUSH1 0x40 SWAP1 KECCAK256 SLOAD PUSH1 0xFF AND DUP2 JUMP JUMPDEST PUSH2 0x45C PUSH2 0x457 CALLDATASIZE PUSH1 0x4 PUSH2 0x1DA5 JUMP JUMPDEST PUSH2 0x1752 JUMP JUMPDEST PUSH1 0x40 MLOAD PUSH2 0x1B3 SWAP5 SWAP4 SWAP3 SWAP2 SWAP1 PUSH2 0x2194 JUMP JUMPDEST PUSH2 0x1C5 PUSH2 0x47A CALLDATASIZE PUSH1 0x4 PUSH2 0x1E7B JUMP JUMPDEST PUSH1 0x5 PUSH1 0x20 MSTORE PUSH0 SWAP1 DUP2 MSTORE PUSH1 0x40 SWAP1 KECCAK256 SLOAD DUP2 JUMP JUMPDEST PUSH2 0x1E6 PUSH2 0x499 CALLDATASIZE PUSH1 0x4 PUSH2 0x21BD JUMP JUMPDEST PUSH2 0x1919 JUMP JUMPDEST PUSH0 SLOAD PUSH2 0x30D SWAP1 PUSH1 0x1 PUSH1 0x1 PUSH1 0xA0 SHL SUB AND DUP2 JUMP JUMPDEST PUSH2 0x1E6 PUSH2 0x4BE CALLDATASIZE PUSH1 0x4 PUSH2 0x21E7 JUMP JUMPDEST PUSH2 0x1A26 JUMP JUMPDEST PUSH2 0x4D6 PUSH2 0x4D1 CALLDATASIZE PUSH1 0x4 PUSH2 0x1E7B JUMP JUMPDEST PUSH2 0x1CEB JUMP JUMPDEST PUSH1 0x40 MLOAD PUSH2 0x1B3 SWAP4 SWAP3 SWAP2 SWAP1 PUSH2 0x2263 JUMP JUMPDEST PUSH0 DUP1 SLOAD PUSH1 0x40 MLOAD PUSH4 0x1D6253A3 PUSH1 0xE2 SHL DUP2 MSTORE CALLER PUSH1 0x4 DUP3 ADD MSTORE DUP3 SWAP2 PUSH1 0x1 PUSH1 0x1 PUSH1 0xA0 SHL SUB AND SWAP1 PUSH4 0x75894E8C SWAP1 PUSH1 0x24 ADD PUSH1 0x40 DUP1 MLOAD DUP1 DUP4 SUB DUP2 PUSH0 DUP8 GAS CALL ISZERO DUP1 ISZERO PUSH2 0x52B JUMPI RETURNDATASIZE PUSH0 DUP1 RETURNDATACOPY RETURNDATASIZE PUSH0 REVERT JUMPDEST POP POP POP POP PUSH1 0x40 MLOAD RETURNDATASIZE PUSH1 0x1F NOT PUSH1 0x1F DUP3 ADD AND DUP3 ADD DUP1 PUSH1 0x40 MSTORE POP DUP2 ADD SWAP1 PUSH2 0x54F SWAP2 SWAP1 PUSH2 0x229C JUMP JUMPDEST SWAP1 SWAP3 POP SWAP1 POP PUSH1 0x2 DUP3 PUSH1 0x4 DUP2 GT ISZERO PUSH2 0x568 JUMPI PUSH2 0x568 PUSH2 0x1DC5 JUMP JUMPDEST EQ DUP1 ISZERO PUSH2 0x572 JUMPI POP DUP1 JUMPDEST PUSH2 0x597 JUMPI PUSH1 0x40 MLOAD PUSH3 0x461BCD PUSH1 0xE5 SHL DUP2 MSTORE PUSH1 0x4 ADD PUSH2 0x58E SWAP1 PUSH2 0x22CC JUMP JUMPDEST PUSH1 0x40 MLOAD DUP1 SWAP2 SUB SWAP1 REVERT JUMPDEST PUSH1 0x1 DUP5 LT ISZERO DUP1 ISZERO PUSH2 0x5AA JUMPI POP PUSH1 0x2 SLOAD DUP5 GT ISZERO JUMPDEST PUSH2 0x5C6 JUMPI PUSH1 0x40 MLOAD PUSH3 0x461BCD PUSH1 0xE5 SHL DUP2 MSTORE PUSH1 0x4 ADD PUSH2 0x58E SWAP1 PUSH2 0x231B JUMP JUMPDEST PUSH0 DUP5 DUP2 MSTORE PUSH1 0x4 PUSH1 0x20 DUP2 SWAP1 MSTORE PUSH1 0x40 SWAP1 SWAP2 KECCAK256 ADD SLOAD PUSH1 0xFF AND ISZERO PUSH2 0x637 JUMPI PUSH1 0x40 MLOAD PUSH3 0x461BCD PUSH1 0xE5 SHL DUP2 MSTORE PUSH1 0x20 PUSH1 0x4 DUP3 ADD MSTORE PUSH1 0x26 PUSH1 0x24 DUP3 ADD MSTORE PUSH32 0x54686973207265706F72742068617320616C7265616479206265656E20696E73 PUSH1 0x44 DUP3 ADD MSTORE PUSH6 0x1C1958DD1959 PUSH1 0xD2 SHL PUSH1 0x64 DUP3 ADD MSTORE PUSH1 0x84 ADD PUSH2 0x58E JUMP JUMPDEST PUSH0 DUP5 DUP2 MSTORE PUSH1 0x4 PUSH1 0x20 DUP2 SWAP1 MSTORE PUSH1 0x40 SWAP2 DUP3 SWAP1 KECCAK256 ADD DUP1 SLOAD DUP6 ISZERO ISZERO PUSH2 0x100 MUL PUSH2 0xFFFF NOT SWAP1 SWAP2 AND OR PUSH1 0x1 OR SWAP1 SSTORE MLOAD DUP5 SWAP1 PUSH32 0x5E672278B5A4CE7F1DEAEB816F60398E65C2401C6F90928E8344510D7FA92755 SWAP1 PUSH2 0x6AF SWAP1 CALLER SWAP1 DUP8 SWAP1 TIMESTAMP SWAP1 PUSH1 0x1 PUSH1 0x1 PUSH1 0xA0 SHL SUB SWAP4 SWAP1 SWAP4 AND DUP4 MSTORE SWAP1 ISZERO ISZERO PUSH1 0x20 DUP4 ADD MSTORE PUSH1 0x40 DUP3 ADD MSTORE PUSH1 0x60 ADD SWAP1 JUMP JUMPDEST PUSH1 0x40 MLOAD DUP1 SWAP2 SUB SWAP1 LOG2 POP POP POP POP JUMP JUMPDEST PUSH1 0x1 SLOAD PUSH1 0x40 MLOAD PUSH4 0xF6AF0311 PUSH1 0xE0 SHL DUP2 MSTORE PUSH0 SWAP2 DUP3 SWAP2 PUSH1 0x1 PUSH1 0x1 PUSH1 0xA0 SHL SUB SWAP1 SWAP2 AND SWAP1 PUSH4 0xF6AF0311 SWAP1 PUSH2 0x6F1 SWAP1 DUP7 SWAP1 PUSH1 0x4 ADD PUSH2 0x2346 JUMP JUMPDEST PUSH1 0x20 PUSH1 0x40 MLOAD DUP1 DUP4 SUB DUP2 DUP7 GAS STATICCALL ISZERO DUP1 ISZERO PUSH2 0x70C JUMPI RETURNDATASIZE PUSH0 DUP1 RETURNDATACOPY RETURNDATASIZE PUSH0 REVERT JUMPDEST POP POP POP POP PUSH1 0x40 MLOAD RETURNDATASIZE PUSH1 0x1F NOT PUSH1 0x1F DUP3 ADD AND DUP3 ADD DUP1 PUSH1 0x40 MSTORE POP DUP2 ADD SWAP1 PUSH2 0x730 SWAP2 SWAP1 PUSH2 0x2389 JUMP JUMPDEST SWAP1 POP DUP1 ISZERO PUSH2 0x793 JUMPI CALLER PUSH0 DUP2 DUP2 MSTORE PUSH1 0x9 PUSH1 0x20 SWAP1 DUP2 MSTORE PUSH1 0x40 SWAP2 DUP3 SWAP1 KECCAK256 DUP1 SLOAD PUSH1 0xFF NOT AND PUSH1 0x1 OR SWAP1 SSTORE DUP2 MLOAD SWAP3 DUP4 MSTORE TIMESTAMP SWAP1 DUP4 ADD MSTORE PUSH32 0x6EA640312E182DE387819FBEB13BE00DB3171A445412852248559054871C4199 SWAP2 ADD PUSH1 0x40 MLOAD DUP1 SWAP2 SUB SWAP1 LOG1 POP PUSH1 0x1 SWAP3 SWAP2 POP POP JUMP JUMPDEST POP PUSH0 SWAP3 SWAP2 POP POP JUMP JUMPDEST POP SWAP2 SWAP1 POP JUMP JUMPDEST PUSH0 DUP1 SLOAD PUSH1 0x40 MLOAD PUSH4 0x1D6253A3 PUSH1 0xE2 SHL DUP2 MSTORE CALLER PUSH1 0x4 DUP3 ADD MSTORE DUP3 SWAP2 DUP3 SWAP2 DUP3 SWAP2 DUP3 SWAP2 PUSH1 0x1 PUSH1 0x1 PUSH1 0xA0 SHL SUB SWAP1 SWAP2 AND SWAP1 PUSH4 0x75894E8C SWAP1 PUSH1 0x24 ADD PUSH1 0x40 DUP1 MLOAD DUP1 DUP4 SUB DUP2 PUSH0 DUP8 GAS CALL ISZERO DUP1 ISZERO PUSH2 0x7EF JUMPI RETURNDATASIZE PUSH0 DUP1 RETURNDATACOPY RETURNDATASIZE PUSH0 REVERT JUMPDEST POP POP POP POP PUSH1 0x40 MLOAD RETURNDATASIZE PUSH1 0x1F NOT PUSH1 0x1F DUP3 ADD AND DUP3 ADD DUP1 PUSH1 0x40 MSTORE POP DUP2 ADD SWAP1 PUSH2 0x813 SWAP2 SWAP1 PUSH2 0x229C JUMP JUMPDEST SWAP1 SWAP3 POP SWAP1 POP PUSH1 0x2 DUP3 PUSH1 0x4 DUP2 GT ISZERO PUSH2 0x82C JUMPI PUSH2 0x82C PUSH2 0x1DC5 JUMP JUMPDEST EQ DUP1 ISZERO PUSH2 0x836 JUMPI POP DUP1 JUMPDEST PUSH2 0x852 JUMPI PUSH1 0x40 MLOAD PUSH3 0x461BCD PUSH1 0xE5 SHL DUP2 MSTORE PUSH1 0x4 ADD PUSH2 0x58E SWAP1 PUSH2 0x22CC JUMP JUMPDEST PUSH1 0x1 DUP7 LT ISZERO DUP1 ISZERO PUSH2 0x865 JUMPI POP PUSH1 0x2 SLOAD DUP7 GT ISZERO JUMPDEST PUSH2 0x881 JUMPI PUSH1 0x40 MLOAD PUSH3 0x461BCD PUSH1 0xE5 SHL DUP2 MSTORE PUSH1 0x4 ADD PUSH2 0x58E SWAP1 PUSH2 0x231B JUMP JUMPDEST POP POP POP PUSH0 SWAP3 DUP4 MSTORE POP POP PUSH1 0x4 PUSH1 0x20 DUP2 DUP2 MSTORE PUSH1 0x40 SWAP3 DUP4 SWAP1 KECCAK256 DUP4 MLOAD PUSH1 0xC0 DUP2 ADD DUP6 MSTORE DUP2 SLOAD PUSH1 0x1 PUSH1 0x1 PUSH1 0xA0 SHL SUB AND DUP1 DUP3 MSTORE PUSH1 0x1 DUP4 ADD SLOAD SWAP4 DUP3 ADD DUP5 SWAP1 MSTORE PUSH1 0x2 DUP4 ADD SLOAD SWAP6 DUP3 ADD SWAP6 SWAP1 SWAP6 MSTORE PUSH1 0x3 DUP3 ADD SLOAD PUSH1 0x60 DUP3 ADD DUP2 SWAP1 MSTORE SWAP2 SWAP1 SWAP4 ADD SLOAD PUSH1 0xFF DUP1 DUP3 AND ISZERO ISZERO PUSH1 0x80 DUP7 ADD MSTORE PUSH2 0x100 SWAP1 SWAP2 DIV AND ISZERO ISZERO PUSH1 0xA0 SWAP1 SWAP4 ADD SWAP3 SWAP1 SWAP3 MSTORE SWAP2 SWAP3 JUMP JUMPDEST PUSH0 DUP1 SLOAD PUSH1 0x40 MLOAD PUSH4 0x1D6253A3 PUSH1 0xE2 SHL DUP2 MSTORE CALLER PUSH1 0x4 DUP3 ADD MSTORE DUP4 SWAP3 SWAP2 DUP3 SWAP2 PUSH1 0x1 PUSH1 0x1 PUSH1 0xA0 SHL SUB SWAP1 SWAP2 AND SWAP1 PUSH4 0x75894E8C SWAP1 PUSH1 0x24 ADD PUSH1 0x40 DUP1 MLOAD DUP1 DUP4 SUB DUP2 PUSH0 DUP8 GAS CALL ISZERO DUP1 ISZERO PUSH2 0x942 JUMPI RETURNDATASIZE PUSH0 DUP1 RETURNDATACOPY RETURNDATASIZE PUSH0 REVERT JUMPDEST POP POP POP POP PUSH1 0x40 MLOAD RETURNDATASIZE PUSH1 0x1F NOT PUSH1 0x1F DUP3 ADD AND DUP3 ADD DUP1 PUSH1 0x40 MSTORE POP DUP2 ADD SWAP1 PUSH2 0x966 SWAP2 SWAP1 PUSH2 0x229C JUMP JUMPDEST SWAP1 SWAP3 POP SWAP1 POP PUSH1 0x4 DUP3 PUSH1 0x4 DUP2 GT ISZERO PUSH2 0x97F JUMPI PUSH2 0x97F PUSH2 0x1DC5 JUMP JUMPDEST EQ DUP1 ISZERO PUSH2 0x989 JUMPI POP DUP1 JUMPDEST PUSH2 0x9A5 JUMPI PUSH1 0x40 MLOAD PUSH3 0x461BCD PUSH1 0xE5 SHL DUP2 MSTORE PUSH1 0x4 ADD PUSH2 0x58E SWAP1 PUSH2 0x23A4 JUMP JUMPDEST PUSH0 DUP4 DUP2 MSTORE PUSH1 0x8 PUSH1 0x20 MSTORE PUSH1 0x40 SWAP1 KECCAK256 SLOAD PUSH1 0x1 PUSH1 0x1 PUSH1 0xA0 SHL SUB AND CALLER EQ PUSH2 0x9DA JUMPI PUSH1 0x40 MLOAD PUSH3 0x461BCD PUSH1 0xE5 SHL DUP2 MSTORE PUSH1 0x4 ADD PUSH2 0x58E SWAP1 PUSH2 0x23F1 JUMP JUMPDEST PUSH0 DUP5 DUP2 MSTORE PUSH1 0x8 PUSH1 0x20 SWAP1 DUP2 MSTORE PUSH1 0x40 DUP1 DUP4 KECCAK256 DUP2 MLOAD PUSH1 0xC0 DUP2 ADD DUP4 MSTORE DUP2 SLOAD PUSH1 0x1 PUSH1 0x1 PUSH1 0xA0 SHL SUB AND DUP2 MSTORE PUSH1 0x1 DUP3 ADD SLOAD SWAP4 DUP2 ADD SWAP4 SWAP1 SWAP4 MSTORE PUSH1 0x2 DUP2 ADD SLOAD SWAP2 DUP4 ADD SWAP2 SWAP1 SWAP2 MSTORE PUSH1 0x3 DUP1 DUP3 ADD SLOAD PUSH1 0x60 DUP5 ADD MSTORE PUSH1 0x4 DUP3 ADD SLOAD PUSH1 0x80 DUP5 ADD MSTORE PUSH1 0x5 DUP3 ADD SLOAD PUSH1 0xA0 DUP5 ADD SWAP2 PUSH1 0xFF SWAP1 SWAP2 AND SWAP1 DUP2 GT ISZERO PUSH2 0xA4B JUMPI PUSH2 0xA4B PUSH2 0x1DC5 JUMP JUMPDEST PUSH1 0x3 DUP2 GT ISZERO PUSH2 0xA5C JUMPI PUSH2 0xA5C PUSH2 0x1DC5 JUMP JUMPDEST SWAP1 MSTORE POP SWAP1 POP PUSH1 0x1 DUP6 LT DUP1 ISZERO SWAP1 PUSH2 0xA7F JUMPI POP PUSH0 DUP7 DUP2 MSTORE PUSH1 0x7 PUSH1 0x20 MSTORE PUSH1 0x40 SWAP1 KECCAK256 SLOAD DUP6 GT ISZERO JUMPDEST PUSH2 0xA9B JUMPI PUSH1 0x40 MLOAD PUSH3 0x461BCD PUSH1 0xE5 SHL DUP2 MSTORE PUSH1 0x4 ADD PUSH2 0x58E SWAP1 PUSH2 0x244E JUMP JUMPDEST PUSH1 0x2 DUP2 PUSH1 0xA0 ADD MLOAD PUSH1 0x3 DUP2 GT ISZERO PUSH2 0xAB3 JUMPI PUSH2 0xAB3 PUSH2 0x1DC5 JUMP JUMPDEST EQ PUSH2 0xB13 JUMPI PUSH1 0x40 MLOAD PUSH3 0x461BCD PUSH1 0xE5 SHL DUP2 MSTORE PUSH1 0x20 PUSH1 0x4 DUP3 ADD MSTORE PUSH1 0x2A PUSH1 0x24 DUP3 ADD MSTORE PUSH32 0x54686973206368696C64206973206E6F742063757272656E746C7920696E2072 PUSH1 0x44 DUP3 ADD MSTORE PUSH10 0x32B6B2B234B0BA34B7B7 PUSH1 0xB1 SHL PUSH1 0x64 DUP3 ADD MSTORE PUSH1 0x84 ADD PUSH2 0x58E JUMP JUMPDEST DUP1 PUSH1 0x60 ADD MLOAD TIMESTAMP LT ISZERO PUSH2 0xB7D JUMPI PUSH1 0x40 MLOAD PUSH3 0x461BCD PUSH1 0xE5 SHL DUP2 MSTORE PUSH1 0x20 PUSH1 0x4 DUP3 ADD MSTORE PUSH1 0x2D PUSH1 0x24 DUP3 ADD MSTORE PUSH32 0x5468652074696D652077696E646F7720666F722072656D6564696174696F6E20 PUSH1 0x44 DUP3 ADD MSTORE PUSH13 0x34B99039BA34B6361037B832B7 PUSH1 0x99 SHL PUSH1 0x64 DUP3 ADD MSTORE PUSH1 0x84 ADD PUSH2 0x58E JUMP JUMPDEST PUSH0 DUP6 DUP2 MSTORE PUSH1 0x8 PUSH1 0x20 SWAP1 DUP2 MSTORE PUSH1 0x40 SWAP2 DUP3 SWAP1 KECCAK256 PUSH1 0x5 DUP2 ADD DUP1 SLOAD PUSH1 0xFF NOT AND PUSH1 0x3 OR SWAP1 SSTORE TIMESTAMP PUSH1 0x4 SWAP1 SWAP2 ADD DUP2 SWAP1 SSTORE DUP3 MLOAD DUP9 DUP2 MSTORE SWAP2 DUP3 ADD MSTORE PUSH32 0x20BDFC4AED336B176D0D9FCC339A80E25301F17464E264FB2EF18960418B20CA SWAP2 ADD JUMPDEST PUSH1 0x40 MLOAD DUP1 SWAP2 SUB SWAP1 LOG1 POP POP POP POP POP POP JUMP JUMPDEST PUSH0 DUP1 SLOAD PUSH1 0x40 MLOAD PUSH4 0x1D6253A3 PUSH1 0xE2 SHL DUP2 MSTORE CALLER PUSH1 0x4 DUP3 ADD MSTORE DUP3 SWAP2 PUSH1 0x1 PUSH1 0x1 PUSH1 0xA0 SHL SUB AND SWAP1 PUSH4 0x75894E8C SWAP1 PUSH1 0x24 ADD PUSH1 0x40 DUP1 MLOAD DUP1 DUP4 SUB DUP2 PUSH0 DUP8 GAS CALL ISZERO DUP1 ISZERO PUSH2 0xC29 JUMPI RETURNDATASIZE PUSH0 DUP1 RETURNDATACOPY RETURNDATASIZE PUSH0 REVERT JUMPDEST POP POP POP POP PUSH1 0x40 MLOAD RETURNDATASIZE PUSH1 0x1F NOT PUSH1 0x1F DUP3 ADD AND DUP3 ADD DUP1 PUSH1 0x40 MSTORE POP DUP2 ADD SWAP1 PUSH2 0xC4D SWAP2 SWAP1 PUSH2 0x229C JUMP JUMPDEST SWAP1 SWAP3 POP SWAP1 POP PUSH1 0x2 DUP3 PUSH1 0x4 DUP2 GT ISZERO PUSH2 0xC66 JUMPI PUSH2 0xC66 PUSH2 0x1DC5 JUMP JUMPDEST EQ DUP1 ISZERO PUSH2 0xC70 JUMPI POP DUP1 JUMPDEST PUSH2 0xC8C JUMPI PUSH1 0x40 MLOAD PUSH3 0x461BCD PUSH1 0xE5 SHL DUP2 MSTORE PUSH1 0x4 ADD PUSH2 0x58E SWAP1 PUSH2 0x22CC JUMP JUMPDEST DUP6 PUSH2 0xCCF JUMPI PUSH1 0x40 MLOAD PUSH3 0x461BCD PUSH1 0xE5 SHL DUP2 MSTORE PUSH1 0x20 PUSH1 0x4 DUP3 ADD MSTORE PUSH1 0x13 PUSH1 0x24 DUP3 ADD MSTORE PUSH19 0x496E76616C696420686173686564206E616D65 PUSH1 0x68 SHL PUSH1 0x44 DUP3 ADD MSTORE PUSH1 0x64 ADD PUSH2 0x58E JUMP JUMPDEST PUSH0 DUP6 GT PUSH2 0xD0C JUMPI PUSH1 0x40 MLOAD PUSH3 0x461BCD PUSH1 0xE5 SHL DUP2 MSTORE PUSH1 0x20 PUSH1 0x4 DUP3 ADD MSTORE PUSH1 0xB PUSH1 0x24 DUP3 ADD MSTORE PUSH11 0x496E76616C696420416765 PUSH1 0xA8 SHL PUSH1 0x44 DUP3 ADD MSTORE PUSH1 0x64 ADD PUSH2 0x58E JUMP JUMPDEST PUSH1 0x4D PUSH1 0xF8 SHL PUSH1 0x1 PUSH1 0x1 PUSH1 0xF8 SHL SUB NOT DUP6 AND EQ DUP1 PUSH2 0xD35 JUMPI POP PUSH1 0x23 PUSH1 0xF9 SHL PUSH1 0x1 PUSH1 0x1 PUSH1 0xF8 SHL SUB NOT DUP6 AND EQ JUMPDEST PUSH2 0xD72 JUMPI PUSH1 0x40 MLOAD PUSH3 0x461BCD PUSH1 0xE5 SHL DUP2 MSTORE PUSH1 0x20 PUSH1 0x4 DUP3 ADD MSTORE PUSH1 0xE PUSH1 0x24 DUP3 ADD MSTORE PUSH14 0x24B73B30B634B21023B2B73232B9 PUSH1 0x91 SHL PUSH1 0x44 DUP3 ADD MSTORE PUSH1 0x64 ADD PUSH2 0x58E JUMP JUMPDEST PUSH1 0x1 DUP4 LT ISZERO DUP1 ISZERO PUSH2 0xD85 JUMPI POP PUSH1 0x2 SLOAD DUP4 GT ISZERO JUMPDEST PUSH2 0xDA1 JUMPI PUSH1 0x40 MLOAD PUSH3 0x461BCD PUSH1 0xE5 SHL DUP2 MSTORE PUSH1 0x4 ADD PUSH2 0x58E SWAP1 PUSH2 0x231B JUMP JUMPDEST PUSH0 DUP4 DUP2 MSTORE PUSH1 0x7 PUSH1 0x20 MSTORE PUSH1 0x40 DUP2 KECCAK256 DUP1 SLOAD SWAP2 PUSH2 0xDBA DUP4 PUSH2 0x248C JUMP JUMPDEST SWAP1 SWAP2 SSTORE POP POP PUSH1 0x40 DUP1 MLOAD PUSH1 0xC0 DUP2 ADD DUP3 MSTORE PUSH0 DUP6 DUP2 MSTORE PUSH1 0x7 PUSH1 0x20 SWAP1 DUP2 MSTORE DUP4 DUP3 KECCAK256 SLOAD DUP1 DUP5 MSTORE DUP2 DUP5 ADD DUP12 DUP2 MSTORE DUP5 DUP7 ADD DUP12 DUP2 MSTORE PUSH1 0x1 PUSH1 0x1 PUSH1 0xF8 SHL SUB NOT DUP12 AND PUSH1 0x60 DUP8 ADD SWAP1 DUP2 MSTORE PUSH1 0x80 DUP8 ADD DUP12 DUP2 MSTORE PUSH1 0xA0 DUP9 ADD DUP8 DUP2 MSTORE DUP13 DUP9 MSTORE PUSH1 0x6 DUP8 MSTORE DUP10 DUP9 KECCAK256 SWAP6 DUP9 MSTORE SWAP5 SWAP1 SWAP6 MSTORE SWAP7 SWAP1 SWAP5 KECCAK256 DUP6 MLOAD DUP2 SSTORE SWAP1 MLOAD PUSH1 0x1 DUP1 DUP4 ADD SWAP2 SWAP1 SWAP2 SSTORE SWAP4 MLOAD PUSH1 0x2 DUP3 ADD SSTORE SWAP5 MLOAD PUSH1 0x3 DUP1 DUP8 ADD DUP1 SLOAD PUSH1 0xF8 SWAP4 SWAP1 SWAP4 SHR PUSH1 0xFF NOT SWAP4 DUP5 AND OR SWAP1 SSTORE SWAP3 MLOAD PUSH1 0x4 DUP8 ADD SSTORE SWAP1 MLOAD PUSH1 0x5 DUP7 ADD DUP1 SLOAD SWAP6 SWAP7 SWAP6 SWAP2 SWAP5 SWAP1 SWAP4 SWAP2 SWAP1 SWAP3 AND SWAP2 SWAP1 DUP5 SWAP1 DUP2 GT ISZERO PUSH2 0xE77 JUMPI PUSH2 0xE77 PUSH2 0x1DC5 JUMP JUMPDEST MUL OR SWAP1 SSTORE POP POP POP PUSH0 DUP4 DUP2 MSTORE PUSH1 0x7 PUSH1 0x20 DUP2 DUP2 MSTORE PUSH1 0x40 DUP1 DUP5 KECCAK256 DUP1 SLOAD DUP6 MSTORE PUSH1 0x5 DUP4 MSTORE DUP2 DUP6 KECCAK256 DUP9 SWAP1 SSTORE SWAP4 DUP8 SWAP1 MSTORE SWAP2 DUP2 MSTORE SWAP2 SLOAD DUP2 MLOAD SWAP1 DUP2 MSTORE SWAP2 DUP3 ADD DUP9 SWAP1 MSTORE DUP2 ADD DUP7 SWAP1 MSTORE PUSH1 0x1 PUSH1 0x1 PUSH1 0xF8 SHL SUB NOT DUP6 AND PUSH1 0x60 DUP3 ADD MSTORE PUSH1 0x80 DUP2 ADD DUP5 SWAP1 MSTORE PUSH32 0x8F6937EDCD05CE1C1912E225EC700CB996D92333E3B1631CE16E703FC6B8E77A SWAP1 PUSH1 0xA0 ADD PUSH2 0xBD3 JUMP JUMPDEST PUSH0 DUP1 SLOAD PUSH1 0x40 MLOAD PUSH4 0x1D6253A3 PUSH1 0xE2 SHL DUP2 MSTORE CALLER PUSH1 0x4 DUP3 ADD MSTORE DUP3 SWAP2 DUP3 SWAP2 DUP3 SWAP2 DUP3 SWAP2 DUP3 SWAP2 PUSH1 0x1 PUSH1 0x1 PUSH1 0xA0 SHL SUB AND SWAP1 PUSH4 0x75894E8C SWAP1 PUSH1 0x24 ADD PUSH1 0x40 DUP1 MLOAD DUP1 DUP4 SUB DUP2 PUSH0 DUP8 GAS CALL ISZERO DUP1 ISZERO PUSH2 0xF44 JUMPI RETURNDATASIZE PUSH0 DUP1 RETURNDATACOPY RETURNDATASIZE PUSH0 REVERT JUMPDEST POP POP POP POP PUSH1 0x40 MLOAD RETURNDATASIZE PUSH1 0x1F NOT PUSH1 0x1F DUP3 ADD AND DUP3 ADD DUP1 PUSH1 0x40 MSTORE POP DUP2 ADD SWAP1 PUSH2 0xF68 SWAP2 SWAP1 PUSH2 0x229C JUMP JUMPDEST SWAP1 SWAP3 POP SWAP1 POP PUSH1 0x3 DUP3 PUSH1 0x4 DUP2 GT ISZERO PUSH2 0xF81 JUMPI PUSH2 0xF81 PUSH2 0x1DC5 JUMP JUMPDEST EQ DUP1 ISZERO PUSH2 0xF8B JUMPI POP DUP1 JUMPDEST PUSH2 0xFEB JUMPI PUSH1 0x40 MLOAD PUSH3 0x461BCD PUSH1 0xE5 SHL DUP2 MSTORE PUSH1 0x20 PUSH1 0x4 DUP3 ADD MSTORE PUSH1 0x2B PUSH1 0x24 DUP3 ADD MSTORE PUSH32 0x4F6E6C7920746865204461746120416E616C7973742063616E2072756E207468 PUSH1 0x44 DUP3 ADD MSTORE PUSH11 0x34B990333AB731BA34B7B7 PUSH1 0xA9 SHL PUSH1 0x64 DUP3 ADD MSTORE PUSH1 0x84 ADD PUSH2 0x58E JUMP JUMPDEST PUSH1 0x1 DUP9 LT ISZERO DUP1 ISZERO PUSH2 0xFFE JUMPI POP PUSH1 0x2 SLOAD DUP9 GT ISZERO JUMPDEST PUSH2 0x101A JUMPI PUSH1 0x40 MLOAD PUSH3 0x461BCD PUSH1 0xE5 SHL DUP2 MSTORE PUSH1 0x4 ADD PUSH2 0x58E SWAP1 PUSH2 0x231B JUMP JUMPDEST PUSH1 0x1 DUP8 LT ISZERO DUP1 ISZERO PUSH2 0x1038 JUMPI POP PUSH0 DUP9 DUP2 MSTORE PUSH1 0x7 PUSH1 0x20 MSTORE PUSH1 0x40 SWAP1 KECCAK256 SLOAD DUP8 GT ISZERO JUMPDEST PUSH2 0x1054 JUMPI PUSH1 0x40 MLOAD PUSH3 0x461BCD PUSH1 0xE5 SHL DUP2 MSTORE PUSH1 0x4 ADD PUSH2 0x58E SWAP1 PUSH2 0x244E JUMP JUMPDEST PUSH0 DUP9 DUP2 MSTORE PUSH1 0x6 PUSH1 0x20 SWAP1 DUP2 MSTORE PUSH1 0x40 DUP1 DUP4 KECCAK256 DUP11 DUP5 MSTORE DUP3 MSTORE DUP1 DUP4 KECCAK256 DUP2 MLOAD PUSH1 0xC0 DUP2 ADD DUP4 MSTORE DUP2 SLOAD DUP2 MSTORE PUSH1 0x1 DUP3 ADD SLOAD SWAP4 DUP2 ADD SWAP4 SWAP1 SWAP4 MSTORE PUSH1 0x2 DUP2 ADD SLOAD SWAP2 DUP4 ADD SWAP2 SWAP1 SWAP2 MSTORE PUSH1 0x3 DUP1 DUP3 ADD SLOAD PUSH1 0xF8 SHL PUSH1 0x1 PUSH1 0x1 PUSH1 0xF8 SHL SUB NOT AND PUSH1 0x60 DUP5 ADD MSTORE PUSH1 0x4 DUP3 ADD SLOAD PUSH1 0x80 DUP5 ADD MSTORE PUSH1 0x5 DUP3 ADD SLOAD PUSH1 0xA0 DUP5 ADD SWAP2 PUSH1 0xFF SWAP1 SWAP2 AND SWAP1 DUP2 GT ISZERO PUSH2 0x10D1 JUMPI PUSH2 0x10D1 PUSH2 0x1DC5 JUMP JUMPDEST PUSH1 0x3 DUP2 GT ISZERO PUSH2 0x10E2 JUMPI PUSH2 0x10E2 PUSH2 0x1DC5 JUMP JUMPDEST SWAP1 MSTORE POP PUSH0 SWAP10 DUP11 MSTORE PUSH1 0x4 PUSH1 0x20 DUP2 DUP2 MSTORE PUSH1 0x40 SWAP12 DUP13 SWAP1 KECCAK256 DUP13 MLOAD PUSH1 0xC0 DUP2 ADD DUP15 MSTORE DUP2 SLOAD PUSH1 0x1 PUSH1 0x1 PUSH1 0xA0 SHL SUB AND DUP2 MSTORE PUSH1 0x1 DUP3 ADD SLOAD DUP2 DUP5 ADD MSTORE PUSH1 0x2 DUP3 ADD SLOAD DUP2 DUP16 ADD MSTORE PUSH1 0x3 DUP3 ADD SLOAD PUSH1 0x60 DUP1 DUP4 ADD DUP3 SWAP1 MSTORE SWAP3 SWAP1 SWAP5 ADD SLOAD PUSH1 0xFF DUP1 DUP3 AND ISZERO ISZERO PUSH1 0x80 DUP5 ADD MSTORE PUSH2 0x100 SWAP1 SWAP2 DIV AND ISZERO ISZERO PUSH1 0xA0 SWAP1 SWAP2 ADD MSTORE SWAP1 DUP4 ADD MLOAD SWAP12 DUP4 ADD MLOAD SWAP3 ADD MLOAD SWAP11 SWAP12 SWAP2 SWAP11 SWAP10 POP SWAP8 POP SWAP6 POP POP POP POP POP POP JUMP JUMPDEST PUSH0 DUP1 SLOAD PUSH1 0x40 MLOAD PUSH4 0x1D6253A3 PUSH1 0xE2 SHL DUP2 MSTORE CALLER PUSH1 0x4 DUP3 ADD MSTORE DUP3 SWAP2 PUSH1 0x1 PUSH1 0x1 PUSH1 0xA0 SHL SUB AND SWAP1 PUSH4 0x75894E8C SWAP1 PUSH1 0x24 ADD PUSH1 0x40 DUP1 MLOAD DUP1 DUP4 SUB DUP2 PUSH0 DUP8 GAS CALL ISZERO DUP1 ISZERO PUSH2 0x11AC JUMPI RETURNDATASIZE PUSH0 DUP1 RETURNDATACOPY RETURNDATASIZE PUSH0 REVERT JUMPDEST POP POP POP POP PUSH1 0x40 MLOAD RETURNDATASIZE PUSH1 0x1F NOT PUSH1 0x1F DUP3 ADD AND DUP3 ADD DUP1 PUSH1 0x40 MSTORE POP DUP2 ADD SWAP1 PUSH2 0x11D0 SWAP2 SWAP1 PUSH2 0x229C JUMP JUMPDEST SWAP1 SWAP3 POP SWAP1 POP PUSH1 0x1 DUP3 PUSH1 0x4 DUP2 GT ISZERO PUSH2 0x11E9 JUMPI PUSH2 0x11E9 PUSH2 0x1DC5 JUMP JUMPDEST EQ DUP1 ISZERO PUSH2 0x11F3 JUMPI POP DUP1 JUMPDEST PUSH2 0x1256 JUMPI PUSH1 0x40 MLOAD PUSH3 0x461BCD PUSH1 0xE5 SHL DUP2 MSTORE PUSH1 0x20 PUSH1 0x4 DUP3 ADD MSTORE PUSH1 0x2E PUSH1 0x24 DUP3 ADD MSTORE PUSH32 0x4F6E6C7920746865204C696169736F6E204F6666696365722063616E2072756E PUSH1 0x44 DUP3 ADD MSTORE PUSH14 0x103A3434B990333AB731BA34B7B7 PUSH1 0x91 SHL PUSH1 0x64 DUP3 ADD MSTORE PUSH1 0x84 ADD PUSH2 0x58E JUMP JUMPDEST PUSH1 0x2 DUP1 SLOAD SWAP1 PUSH0 PUSH2 0x1265 DUP4 PUSH2 0x248C JUMP JUMPDEST SWAP1 SWAP2 SSTORE POP POP PUSH1 0x40 DUP1 MLOAD PUSH1 0xC0 DUP2 ADD DUP3 MSTORE CALLER DUP2 MSTORE TIMESTAMP PUSH1 0x20 DUP3 ADD MSTORE SWAP1 DUP2 ADD DUP5 SWAP1 MSTORE PUSH1 0x60 DUP2 ADD PUSH2 0x1290 DUP7 PUSH2 0x24A4 JUMP JUMPDEST DUP2 MSTORE PUSH0 PUSH1 0x20 DUP1 DUP4 ADD DUP3 SWAP1 MSTORE PUSH1 0x40 SWAP3 DUP4 ADD DUP3 SWAP1 MSTORE PUSH1 0x2 DUP1 SLOAD DUP4 MSTORE PUSH1 0x4 DUP1 DUP4 MSTORE DUP5 DUP5 KECCAK256 DUP7 MLOAD DUP2 SLOAD PUSH1 0x1 PUSH1 0x1 PUSH1 0xA0 SHL SUB SWAP1 SWAP2 AND PUSH1 0x1 PUSH1 0x1 PUSH1 0xA0 SHL SUB NOT SWAP1 SWAP2 AND OR DUP2 SSTORE SWAP3 DUP7 ADD MLOAD PUSH1 0x1 DUP5 ADD SSTORE SWAP4 DUP6 ADD MLOAD SWAP1 DUP3 ADD SSTORE PUSH1 0x60 DUP5 ADD MLOAD PUSH1 0x3 DUP1 DUP4 ADD SWAP2 SWAP1 SWAP2 SSTORE PUSH1 0x80 DUP6 ADD MLOAD SWAP2 SWAP1 SWAP4 ADD DUP1 SLOAD PUSH1 0xA0 SWAP1 SWAP6 ADD MLOAD ISZERO ISZERO PUSH2 0x100 MUL PUSH2 0xFF00 NOT SWAP3 ISZERO ISZERO SWAP3 SWAP1 SWAP3 AND PUSH2 0xFFFF NOT SWAP1 SWAP6 AND SWAP5 SWAP1 SWAP5 OR OR SWAP1 SWAP3 SSTORE DUP1 SLOAD DUP6 SWAP3 SWAP1 PUSH2 0x132F SWAP1 DUP5 SWAP1 PUSH2 0x24C7 JUMP JUMPDEST SWAP1 SWAP2 SSTORE POP POP PUSH1 0x2 SLOAD PUSH32 0x681F3195132986285E497B66D82A1D87DEE04FE482A1E74020677B543E3F7C40 CALLER TIMESTAMP PUSH2 0x1363 DUP9 PUSH2 0x24A4 JUMP JUMPDEST PUSH1 0x40 DUP1 MLOAD PUSH1 0x1 PUSH1 0x1 PUSH1 0xA0 SHL SUB SWAP1 SWAP5 AND DUP5 MSTORE PUSH1 0x20 DUP5 ADD SWAP3 SWAP1 SWAP3 MSTORE SWAP1 DUP3 ADD MSTORE PUSH1 0x60 ADD PUSH2 0x6AF JUMP JUMPDEST PUSH0 DUP1 SLOAD PUSH1 0x40 MLOAD PUSH4 0x1D6253A3 PUSH1 0xE2 SHL DUP2 MSTORE CALLER PUSH1 0x4 DUP3 ADD MSTORE DUP3 SWAP2 PUSH1 0x1 PUSH1 0x1 PUSH1 0xA0 SHL SUB AND SWAP1 PUSH4 0x75894E8C SWAP1 PUSH1 0x24 ADD PUSH1 0x40 DUP1 MLOAD DUP1 DUP4 SUB DUP2 PUSH0 DUP8 GAS CALL ISZERO DUP1 ISZERO PUSH2 0x13CE JUMPI RETURNDATASIZE PUSH0 DUP1 RETURNDATACOPY RETURNDATASIZE PUSH0 REVERT JUMPDEST POP POP POP POP PUSH1 0x40 MLOAD RETURNDATASIZE PUSH1 0x1F NOT PUSH1 0x1F DUP3 ADD AND DUP3 ADD DUP1 PUSH1 0x40 MSTORE POP DUP2 ADD SWAP1 PUSH2 0x13F2 SWAP2 SWAP1 PUSH2 0x229C JUMP JUMPDEST SWAP1 SWAP3 POP SWAP1 POP PUSH0 DUP3 PUSH1 0x4 DUP2 GT ISZERO PUSH2 0x140A JUMPI PUSH2 0x140A PUSH2 0x1DC5 JUMP JUMPDEST EQ DUP1 ISZERO PUSH2 0x1414 JUMPI POP DUP1 JUMPDEST PUSH2 0x1430 JUMPI PUSH1 0x40 MLOAD PUSH3 0x461BCD PUSH1 0xE5 SHL DUP2 MSTORE PUSH1 0x4 ADD PUSH2 0x58E SWAP1 PUSH2 0x24E0 JUMP JUMPDEST POP POP PUSH1 0x1 DUP1 SLOAD PUSH1 0x1 PUSH1 0x1 PUSH1 0xA0 SHL SUB NOT AND PUSH1 0x1 PUSH1 0x1 PUSH1 0xA0 SHL SUB SWAP3 SWAP1 SWAP3 AND SWAP2 SWAP1 SWAP2 OR SWAP1 SSTORE JUMP JUMPDEST PUSH0 DUP1 SLOAD PUSH1 0x40 MLOAD PUSH4 0x1D6253A3 PUSH1 0xE2 SHL DUP2 MSTORE CALLER PUSH1 0x4 DUP3 ADD MSTORE DUP5 SWAP3 SWAP2 DUP3 SWAP2 PUSH1 0x1 PUSH1 0x1 PUSH1 0xA0 SHL SUB SWAP1 SWAP2 AND SWAP1 PUSH4 0x75894E8C SWAP1 PUSH1 0x24 ADD PUSH1 0x40 DUP1 MLOAD DUP1 DUP4 SUB DUP2 PUSH0 DUP8 GAS CALL ISZERO DUP1 ISZERO PUSH2 0x149F JUMPI RETURNDATASIZE PUSH0 DUP1 RETURNDATACOPY RETURNDATASIZE PUSH0 REVERT JUMPDEST POP POP POP POP PUSH1 0x40 MLOAD RETURNDATASIZE PUSH1 0x1F NOT PUSH1 0x1F DUP3 ADD AND DUP3 ADD DUP1 PUSH1 0x40 MSTORE POP DUP2 ADD SWAP1 PUSH2 0x14C3 SWAP2 SWAP1 PUSH2 0x229C JUMP JUMPDEST SWAP1 SWAP3 POP SWAP1 POP PUSH1 0x4 DUP3 PUSH1 0x4 DUP2 GT ISZERO PUSH2 0x14DC JUMPI PUSH2 0x14DC PUSH2 0x1DC5 JUMP JUMPDEST EQ DUP1 ISZERO PUSH2 0x14E6 JUMPI POP DUP1 JUMPDEST PUSH2 0x1502 JUMPI PUSH1 0x40 MLOAD PUSH3 0x461BCD PUSH1 0xE5 SHL DUP2 MSTORE PUSH1 0x4 ADD PUSH2 0x58E SWAP1 PUSH2 0x23A4 JUMP JUMPDEST PUSH0 DUP4 DUP2 MSTORE PUSH1 0x8 PUSH1 0x20 MSTORE PUSH1 0x40 SWAP1 KECCAK256 SLOAD PUSH1 0x1 PUSH1 0x1 PUSH1 0xA0 SHL SUB AND CALLER EQ PUSH2 0x1537 JUMPI PUSH1 0x40 MLOAD PUSH3 0x461BCD PUSH1 0xE5 SHL DUP2 MSTORE PUSH1 0x4 ADD PUSH2 0x58E SWAP1 PUSH2 0x23F1 JUMP JUMPDEST PUSH0 DUP6 DUP2 MSTORE PUSH1 0x8 PUSH1 0x20 SWAP1 DUP2 MSTORE PUSH1 0x40 DUP1 DUP4 KECCAK256 DUP2 MLOAD PUSH1 0xC0 DUP2 ADD DUP4 MSTORE DUP2 SLOAD PUSH1 0x1 PUSH1 0x1 PUSH1 0xA0 SHL SUB AND DUP2 MSTORE PUSH1 0x1 DUP3 ADD SLOAD SWAP4 DUP2 ADD SWAP4 SWAP1 SWAP4 MSTORE PUSH1 0x2 DUP2 ADD SLOAD SWAP2 DUP4 ADD SWAP2 SWAP1 SWAP2 MSTORE PUSH1 0x3 DUP1 DUP3 ADD SLOAD PUSH1 0x60 DUP5 ADD MSTORE PUSH1 0x4 DUP3 ADD SLOAD PUSH1 0x80 DUP5 ADD MSTORE PUSH1 0x5 DUP3 ADD SLOAD PUSH1 0xA0 DUP5 ADD SWAP2 PUSH1 0xFF SWAP1 SWAP2 AND SWAP1 DUP2 GT ISZERO PUSH2 0x15A8 JUMPI PUSH2 0x15A8 PUSH2 0x1DC5 JUMP JUMPDEST PUSH1 0x3 DUP2 GT ISZERO PUSH2 0x15B9 JUMPI PUSH2 0x15B9 PUSH2 0x1DC5 JUMP JUMPDEST SWAP1 MSTORE POP SWAP1 POP PUSH1 0x1 DUP8 LT DUP1 ISZERO SWAP1 PUSH2 0x15D1 JUMPI POP PUSH1 0x2 SLOAD DUP8 GT ISZERO JUMPDEST PUSH2 0x15ED JUMPI PUSH1 0x40 MLOAD PUSH3 0x461BCD PUSH1 0xE5 SHL DUP2 MSTORE PUSH1 0x4 ADD PUSH2 0x58E SWAP1 PUSH2 0x231B JUMP JUMPDEST PUSH1 0x1 DUP7 LT ISZERO DUP1 ISZERO PUSH2 0x160B JUMPI POP PUSH0 DUP8 DUP2 MSTORE PUSH1 0x7 PUSH1 0x20 MSTORE PUSH1 0x40 SWAP1 KECCAK256 SLOAD DUP7 GT ISZERO JUMPDEST PUSH2 0x1627 JUMPI PUSH1 0x40 MLOAD PUSH3 0x461BCD PUSH1 0xE5 SHL DUP2 MSTORE PUSH1 0x4 ADD PUSH2 0x58E SWAP1 PUSH2 0x244E JUMP JUMPDEST PUSH1 0x1 DUP2 PUSH1 0xA0 ADD MLOAD PUSH1 0x3 DUP2 GT ISZERO PUSH2 0x163F JUMPI PUSH2 0x163F PUSH2 0x1DC5 JUMP JUMPDEST EQ PUSH2 0x169C JUMPI PUSH1 0x40 MLOAD PUSH3 0x461BCD PUSH1 0xE5 SHL DUP2 MSTORE PUSH1 0x20 PUSH1 0x4 DUP3 ADD MSTORE PUSH1 0x27 PUSH1 0x24 DUP3 ADD MSTORE PUSH32 0x54686973206368696C64206973206E6F7420726561647920666F722072656D65 PUSH1 0x44 DUP3 ADD MSTORE PUSH7 0x3234B0BA34B7B7 PUSH1 0xC9 SHL PUSH1 0x64 DUP3 ADD MSTORE PUSH1 0x84 ADD PUSH2 0x58E JUMP JUMPDEST PUSH0 DUP7 DUP2 MSTORE PUSH1 0x8 PUSH1 0x20 MSTORE PUSH1 0x40 SWAP1 KECCAK256 PUSH1 0x5 DUP2 ADD DUP1 SLOAD PUSH1 0xFF NOT AND PUSH1 0x2 SWAP1 DUP2 OR SWAP1 SWAP2 SSTORE TIMESTAMP SWAP2 ADD SSTORE PUSH2 0x16CA DUP6 PUSH1 0x1 PUSH2 0x2533 JUMP JUMPDEST PUSH2 0x16D4 SWAP1 TIMESTAMP PUSH2 0x24C7 JUMP JUMPDEST PUSH0 DUP8 DUP2 MSTORE PUSH1 0x8 PUSH1 0x20 MSTORE PUSH1 0x40 SWAP1 KECCAK256 PUSH1 0x3 DUP2 ADD SWAP2 SWAP1 SWAP2 SSTORE TIMESTAMP PUSH1 0x4 SWAP1 SWAP2 ADD DUP2 SWAP1 SSTORE PUSH32 0xE8C0A5C01EA0A1DA185A4990B289AA6B4DC5FD0D2B3D68BE0BB0B32EBDE6A2A5 SWAP1 DUP8 SWAP1 PUSH2 0x1721 DUP9 PUSH1 0x1 PUSH2 0x2533 JUMP JUMPDEST PUSH2 0x172B SWAP1 TIMESTAMP PUSH2 0x24C7 JUMP JUMPDEST PUSH1 0x40 DUP1 MLOAD SWAP4 DUP5 MSTORE PUSH1 0x20 DUP5 ADD SWAP3 SWAP1 SWAP3 MSTORE SWAP1 DUP3 ADD MSTORE PUSH1 0x60 ADD PUSH1 0x40 MLOAD DUP1 SWAP2 SUB SWAP1 LOG1 POP POP POP POP POP POP POP JUMP JUMPDEST PUSH0 DUP1 SLOAD PUSH1 0x40 MLOAD PUSH4 0x1D6253A3 PUSH1 0xE2 SHL DUP2 MSTORE CALLER PUSH1 0x4 DUP3 ADD MSTORE DUP3 SWAP2 DUP3 SWAP2 DUP3 SWAP2 DUP3 SWAP2 DUP3 SWAP2 PUSH1 0x1 PUSH1 0x1 PUSH1 0xA0 SHL SUB AND SWAP1 PUSH4 0x75894E8C SWAP1 PUSH1 0x24 ADD PUSH1 0x40 DUP1 MLOAD DUP1 DUP4 SUB DUP2 PUSH0 DUP8 GAS CALL ISZERO DUP1 ISZERO PUSH2 0x17A0 JUMPI RETURNDATASIZE PUSH0 DUP1 RETURNDATACOPY RETURNDATASIZE PUSH0 REVERT JUMPDEST POP POP POP POP PUSH1 0x40 MLOAD RETURNDATASIZE PUSH1 0x1F NOT PUSH1 0x1F DUP3 ADD AND DUP3 ADD DUP1 PUSH1 0x40 MSTORE POP DUP2 ADD SWAP1 PUSH2 0x17C4 SWAP2 SWAP1 PUSH2 0x229C JUMP JUMPDEST SWAP1 SWAP3 POP SWAP1 POP PUSH0 DUP3 PUSH1 0x4 DUP2 GT ISZERO PUSH2 0x17DC JUMPI PUSH2 0x17DC PUSH2 0x1DC5 JUMP JUMPDEST EQ DUP1 ISZERO PUSH2 0x17E6 JUMPI POP DUP1 JUMPDEST PUSH2 0x1802 JUMPI PUSH1 0x40 MLOAD PUSH3 0x461BCD PUSH1 0xE5 SHL DUP2 MSTORE PUSH1 0x4 ADD PUSH2 0x58E SWAP1 PUSH2 0x24E0 JUMP JUMPDEST PUSH0 DUP8 DUP2 MSTORE PUSH1 0x8 PUSH1 0x20 SWAP1 DUP2 MSTORE PUSH1 0x40 DUP1 DUP4 KECCAK256 DUP2 MLOAD PUSH1 0xC0 DUP2 ADD DUP4 MSTORE DUP2 SLOAD PUSH1 0x1 PUSH1 0x1 PUSH1 0xA0 SHL SUB AND DUP2 MSTORE PUSH1 0x1 DUP3 ADD SLOAD SWAP4 DUP2 ADD SWAP4 SWAP1 SWAP4 MSTORE PUSH1 0x2 DUP2 ADD SLOAD SWAP2 DUP4 ADD SWAP2 SWAP1 SWAP2 MSTORE PUSH1 0x3 DUP1 DUP3 ADD SLOAD PUSH1 0x60 DUP5 ADD MSTORE PUSH1 0x4 DUP3 ADD SLOAD PUSH1 0x80 DUP5 ADD MSTORE PUSH1 0x5 DUP3 ADD SLOAD PUSH1 0xA0 DUP5 ADD SWAP2 PUSH1 0xFF SWAP1 SWAP2 AND SWAP1 DUP2 GT ISZERO PUSH2 0x1873 JUMPI PUSH2 0x1873 PUSH2 0x1DC5 JUMP JUMPDEST PUSH1 0x3 DUP2 GT ISZERO PUSH2 0x1884 JUMPI PUSH2 0x1884 PUSH2 0x1DC5 JUMP JUMPDEST SWAP1 MSTORE POP SWAP1 POP PUSH1 0x1 DUP10 LT DUP1 ISZERO SWAP1 PUSH2 0x189C JUMPI POP PUSH1 0x2 SLOAD DUP10 GT ISZERO JUMPDEST PUSH2 0x18B8 JUMPI PUSH1 0x40 MLOAD PUSH3 0x461BCD PUSH1 0xE5 SHL DUP2 MSTORE PUSH1 0x4 ADD PUSH2 0x58E SWAP1 PUSH2 0x231B JUMP JUMPDEST PUSH1 0x1 DUP9 LT ISZERO DUP1 ISZERO PUSH2 0x18D6 JUMPI POP PUSH0 DUP10 DUP2 MSTORE PUSH1 0x7 PUSH1 0x20 MSTORE PUSH1 0x40 SWAP1 KECCAK256 SLOAD DUP9 GT ISZERO JUMPDEST PUSH2 0x18F2 JUMPI PUSH1 0x40 MLOAD PUSH3 0x461BCD PUSH1 0xE5 SHL DUP2 MSTORE PUSH1 0x4 ADD PUSH2 0x58E SWAP1 PUSH2 0x244E JUMP JUMPDEST PUSH1 0xA0 DUP2 ADD MLOAD PUSH1 0x80 DUP3 ADD MLOAD PUSH1 0x40 DUP4 ADD MLOAD PUSH1 0x60 SWAP1 SWAP4 ADD MLOAD SWAP2 SWAP12 SWAP1 SWAP11 POP SWAP2 SWAP9 POP SWAP7 POP SWAP5 POP POP POP POP POP JUMP JUMPDEST PUSH0 DUP1 SLOAD PUSH1 0x40 MLOAD PUSH4 0x1D6253A3 PUSH1 0xE2 SHL DUP2 MSTORE CALLER PUSH1 0x4 DUP3 ADD MSTORE DUP3 SWAP2 PUSH1 0x1 PUSH1 0x1 PUSH1 0xA0 SHL SUB AND SWAP1 PUSH4 0x75894E8C SWAP1 PUSH1 0x24 ADD PUSH1 0x40 DUP1 MLOAD DUP1 DUP4 SUB DUP2 PUSH0 DUP8 GAS CALL ISZERO DUP1 ISZERO PUSH2 0x195F JUMPI RETURNDATASIZE PUSH0 DUP1 RETURNDATACOPY RETURNDATASIZE PUSH0 REVERT JUMPDEST POP POP POP POP PUSH1 0x40 MLOAD RETURNDATASIZE PUSH1 0x1F NOT PUSH1 0x1F DUP3 ADD AND DUP3 ADD DUP1 PUSH1 0x40 MSTORE POP DUP2 ADD SWAP1 PUSH2 0x1983 SWAP2 SWAP1 PUSH2 0x229C JUMP JUMPDEST SWAP1 SWAP3 POP SWAP1 POP PUSH0 DUP3 PUSH1 0x4 DUP2 GT ISZERO PUSH2 0x199B JUMPI PUSH2 0x199B PUSH2 0x1DC5 JUMP JUMPDEST EQ DUP1 ISZERO PUSH2 0x19A5 JUMPI POP DUP1 JUMPDEST PUSH2 0x19C1 JUMPI PUSH1 0x40 MLOAD PUSH3 0x461BCD PUSH1 0xE5 SHL DUP2 MSTORE PUSH1 0x4 ADD PUSH2 0x58E SWAP1 PUSH2 0x24E0 JUMP JUMPDEST PUSH1 0x1 PUSH1 0x1 PUSH1 0xA0 SHL SUB DUP4 AND PUSH0 DUP2 DUP2 MSTORE PUSH1 0x9 PUSH1 0x20 SWAP1 DUP2 MSTORE PUSH1 0x40 SWAP2 DUP3 SWAP1 KECCAK256 DUP1 SLOAD PUSH1 0xFF NOT AND SWAP1 SSTORE DUP2 MLOAD CALLER DUP2 MSTORE SWAP1 DUP2 ADD SWAP3 SWAP1 SWAP3 MSTORE TIMESTAMP DUP3 DUP3 ADD MSTORE MLOAD PUSH32 0x6F6A404FFD2CEA4713256A4FD9CE99C8CF8CF32D85C2BB8061D1603FF57D50C3 SWAP2 DUP2 SWAP1 SUB PUSH1 0x60 ADD SWAP1 LOG1 POP POP POP POP JUMP JUMPDEST PUSH0 DUP1 SLOAD PUSH1 0x40 MLOAD PUSH4 0x1D6253A3 PUSH1 0xE2 SHL DUP2 MSTORE CALLER PUSH1 0x4 DUP3 ADD MSTORE DUP3 SWAP2 PUSH1 0x1 PUSH1 0x1 PUSH1 0xA0 SHL SUB AND SWAP1 PUSH4 0x75894E8C SWAP1 PUSH1 0x24 ADD PUSH1 0x40 DUP1 MLOAD DUP1 DUP4 SUB DUP2 PUSH0 DUP8 GAS CALL ISZERO DUP1 ISZERO PUSH2 0x1A6C JUMPI RETURNDATASIZE PUSH0 DUP1 RETURNDATACOPY RETURNDATASIZE PUSH0 REVERT JUMPDEST POP POP POP POP PUSH1 0x40 MLOAD RETURNDATASIZE PUSH1 0x1F NOT PUSH1 0x1F DUP3 ADD AND DUP3 ADD DUP1 PUSH1 0x40 MSTORE POP DUP2 ADD SWAP1 PUSH2 0x1A90 SWAP2 SWAP1 PUSH2 0x229C JUMP JUMPDEST SWAP1 SWAP3 POP SWAP1 POP PUSH0 DUP3 PUSH1 0x4 DUP2 GT ISZERO PUSH2 0x1AA8 JUMPI PUSH2 0x1AA8 PUSH2 0x1DC5 JUMP JUMPDEST EQ DUP1 ISZERO PUSH2 0x1AB2 JUMPI POP DUP1 JUMPDEST PUSH2 0x1ACE JUMPI PUSH1 0x40 MLOAD PUSH3 0x461BCD PUSH1 0xE5 SHL DUP2 MSTORE PUSH1 0x4 ADD PUSH2 0x58E SWAP1 PUSH2 0x24E0 JUMP JUMPDEST PUSH0 DUP6 DUP2 MSTORE PUSH1 0x6 PUSH1 0x20 SWAP1 DUP2 MSTORE PUSH1 0x40 DUP1 DUP4 KECCAK256 DUP8 DUP5 MSTORE DUP3 MSTORE DUP1 DUP4 KECCAK256 DUP2 MLOAD PUSH1 0xC0 DUP2 ADD DUP4 MSTORE DUP2 SLOAD DUP2 MSTORE PUSH1 0x1 DUP3 ADD SLOAD SWAP4 DUP2 ADD SWAP4 SWAP1 SWAP4 MSTORE PUSH1 0x2 DUP2 ADD SLOAD SWAP2 DUP4 ADD SWAP2 SWAP1 SWAP2 MSTORE PUSH1 0x3 DUP1 DUP3 ADD SLOAD PUSH1 0xF8 SHL PUSH1 0x1 PUSH1 0x1 PUSH1 0xF8 SHL SUB NOT AND PUSH1 0x60 DUP5 ADD MSTORE PUSH1 0x4 DUP3 ADD SLOAD PUSH1 0x80 DUP5 ADD MSTORE PUSH1 0x5 DUP3 ADD SLOAD PUSH1 0xA0 DUP5 ADD SWAP2 PUSH1 0xFF SWAP1 SWAP2 AND SWAP1 DUP2 GT ISZERO PUSH2 0x1B4B JUMPI PUSH2 0x1B4B PUSH2 0x1DC5 JUMP JUMPDEST PUSH1 0x3 DUP2 GT ISZERO PUSH2 0x1B5C JUMPI PUSH2 0x1B5C PUSH2 0x1DC5 JUMP JUMPDEST SWAP1 MSTORE POP SWAP1 POP PUSH0 DUP2 PUSH1 0xA0 ADD MLOAD PUSH1 0x3 DUP2 GT ISZERO PUSH2 0x1B78 JUMPI PUSH2 0x1B78 PUSH2 0x1DC5 JUMP JUMPDEST EQ PUSH2 0x1BF9 JUMPI PUSH1 0x40 MLOAD PUSH3 0x461BCD PUSH1 0xE5 SHL DUP2 MSTORE PUSH1 0x20 PUSH1 0x4 DUP3 ADD MSTORE PUSH1 0x44 PUSH1 0x24 DUP3 ADD DUP2 SWAP1 MSTORE PUSH32 0x54686973206368696C6420496420646F6573206E6F74206578697374206F7220 SWAP1 DUP3 ADD MSTORE PUSH32 0x68617320616C7265616479206265656E2061737369676E656420612067756172 PUSH1 0x64 DUP3 ADD MSTORE PUSH4 0x3234B0B7 PUSH1 0xE1 SHL PUSH1 0x84 DUP3 ADD MSTORE PUSH1 0xA4 ADD PUSH2 0x58E JUMP JUMPDEST PUSH1 0x1 DUP7 LT ISZERO DUP1 ISZERO PUSH2 0x1C0C JUMPI POP PUSH1 0x2 SLOAD DUP7 GT ISZERO JUMPDEST PUSH2 0x1C28 JUMPI PUSH1 0x40 MLOAD PUSH3 0x461BCD PUSH1 0xE5 SHL DUP2 MSTORE PUSH1 0x4 ADD PUSH2 0x58E SWAP1 PUSH2 0x231B JUMP JUMPDEST PUSH1 0x1 DUP6 LT ISZERO DUP1 ISZERO PUSH2 0x1C46 JUMPI POP PUSH0 DUP7 DUP2 MSTORE PUSH1 0x7 PUSH1 0x20 MSTORE PUSH1 0x40 SWAP1 KECCAK256 SLOAD DUP6 GT ISZERO JUMPDEST PUSH2 0x1C62 JUMPI PUSH1 0x40 MLOAD PUSH3 0x461BCD PUSH1 0xE5 SHL DUP2 MSTORE PUSH1 0x4 ADD PUSH2 0x58E SWAP1 PUSH2 0x244E JUMP JUMPDEST PUSH0 DUP6 DUP2 MSTORE PUSH1 0x8 PUSH1 0x20 MSTORE PUSH1 0x40 SWAP1 KECCAK256 DUP1 SLOAD PUSH1 0x1 PUSH1 0x1 PUSH1 0xA0 SHL SUB NOT AND PUSH1 0x1 PUSH1 0x1 PUSH1 0xA0 SHL SUB DUP7 AND OR DUP2 SSTORE PUSH1 0x1 DUP1 DUP3 ADD DUP8 SWAP1 SSTORE PUSH1 0x5 SWAP1 SWAP2 ADD DUP1 SLOAD PUSH1 0xFF NOT AND DUP3 DUP1 MUL OR SWAP1 SSTORE POP PUSH1 0x40 DUP1 MLOAD DUP7 DUP2 MSTORE PUSH1 0x20 DUP2 ADD DUP9 SWAP1 MSTORE PUSH1 0x1 PUSH1 0x1 PUSH1 0xA0 SHL SUB DUP7 AND SWAP2 DUP2 ADD SWAP2 SWAP1 SWAP2 MSTORE PUSH32 0xE1A03807FF7B7D8AC4C42CF3FE3905D10B2B30935D18974726482DB3BF232E36 SWAP1 PUSH1 0x60 ADD PUSH2 0xBD3 JUMP JUMPDEST PUSH1 0xA PUSH1 0x20 SWAP1 DUP2 MSTORE PUSH0 SWAP2 DUP3 MSTORE PUSH1 0x40 SWAP2 DUP3 SWAP1 KECCAK256 DUP3 MLOAD DUP1 DUP5 ADD DUP5 MSTORE DUP2 SLOAD DUP2 MSTORE PUSH1 0x1 DUP3 ADD SLOAD SWAP3 DUP2 ADD SWAP3 SWAP1 SWAP3 MSTORE DUP3 MLOAD PUSH1 0x80 DUP2 ADD DUP1 DUP6 MSTORE SWAP3 SWAP4 SWAP2 SWAP3 SWAP1 SWAP2 PUSH1 0x2 DUP1 DUP6 ADD SWAP3 DUP5 SWAP3 DUP4 ADD SWAP2 DUP5 SWAP2 DUP3 DUP5 JUMPDEST DUP2 SLOAD DUP2 MSTORE PUSH1 0x20 ADD SWAP1 PUSH1 0x1 ADD SWAP1 DUP1 DUP4 GT PUSH2 0x1D32 JUMPI POP POP POP SWAP2 DUP4 MSTORE POP POP PUSH1 0x40 DUP1 MLOAD DUP1 DUP3 ADD SWAP2 DUP3 SWAP1 MSTORE PUSH1 0x20 SWAP1 SWAP3 ADD SWAP2 SWAP1 PUSH1 0x2 DUP5 DUP2 ADD SWAP2 DUP3 DUP5 JUMPDEST DUP2 SLOAD DUP2 MSTORE PUSH1 0x20 ADD SWAP1 PUSH1 0x1 ADD SWAP1 DUP1 DUP4 GT PUSH2 0x1D68 JUMPI POP POP POP SWAP2 SWAP1 SWAP3 MSTORE POP POP PUSH1 0x40 DUP1 MLOAD DUP1 DUP3 ADD SWAP1 SWAP2 MSTORE PUSH1 0x6 DUP5 ADD SLOAD DUP2 MSTORE PUSH1 0x7 SWAP1 SWAP4 ADD SLOAD PUSH1 0x20 DUP5 ADD MSTORE POP SWAP1 DUP4 JUMP JUMPDEST PUSH0 DUP1 PUSH1 0x40 DUP4 DUP6 SUB SLT ISZERO PUSH2 0x1DB6 JUMPI PUSH0 DUP1 REVERT JUMPDEST POP POP DUP1 CALLDATALOAD SWAP3 PUSH1 0x20 SWAP1 SWAP2 ADD CALLDATALOAD SWAP2 POP JUMP JUMPDEST PUSH4 0x4E487B71 PUSH1 0xE0 SHL PUSH0 MSTORE PUSH1 0x21 PUSH1 0x4 MSTORE PUSH1 0x24 PUSH0 REVERT JUMPDEST PUSH1 0x4 DUP2 LT PUSH2 0x1DF5 JUMPI PUSH4 0x4E487B71 PUSH1 0xE0 SHL PUSH0 MSTORE PUSH1 0x21 PUSH1 0x4 MSTORE PUSH1 0x24 PUSH0 REVERT JUMPDEST SWAP1 MSTORE JUMP JUMPDEST DUP7 DUP2 MSTORE PUSH1 0x20 DUP2 ADD DUP7 SWAP1 MSTORE PUSH1 0x40 DUP2 ADD DUP6 SWAP1 MSTORE PUSH1 0x1 PUSH1 0x1 PUSH1 0xF8 SHL SUB NOT DUP5 AND PUSH1 0x60 DUP3 ADD MSTORE PUSH1 0x80 DUP2 ADD DUP4 SWAP1 MSTORE PUSH1 0xC0 DUP2 ADD PUSH2 0x1E32 PUSH1 0xA0 DUP4 ADD DUP5 PUSH2 0x1DD9 JUMP JUMPDEST SWAP8 SWAP7 POP POP POP POP POP POP POP JUMP JUMPDEST DUP1 ISZERO ISZERO DUP2 EQ PUSH2 0x1E4A JUMPI PUSH0 DUP1 REVERT JUMPDEST POP JUMP JUMPDEST PUSH0 DUP1 PUSH1 0x40 DUP4 DUP6 SUB SLT ISZERO PUSH2 0x1E5E JUMPI PUSH0 DUP1 REVERT JUMPDEST DUP3 CALLDATALOAD SWAP2 POP PUSH1 0x20 DUP4 ADD CALLDATALOAD PUSH2 0x1E70 DUP2 PUSH2 0x1E3D JUMP JUMPDEST DUP1 SWAP2 POP POP SWAP3 POP SWAP3 SWAP1 POP JUMP JUMPDEST PUSH0 PUSH1 0x20 DUP3 DUP5 SUB SLT ISZERO PUSH2 0x1E8B JUMPI PUSH0 DUP1 REVERT JUMPDEST POP CALLDATALOAD SWAP2 SWAP1 POP JUMP JUMPDEST PUSH1 0x1 PUSH1 0x1 PUSH1 0xA0 SHL SUB DUP8 AND DUP2 MSTORE PUSH1 0x20 DUP2 ADD DUP7 SWAP1 MSTORE PUSH1 0x40 DUP2 ADD DUP6 SWAP1 MSTORE PUSH1 0x60 DUP2 ADD DUP5 SWAP1 MSTORE PUSH1 0x80 DUP2 ADD DUP4 SWAP1 MSTORE PUSH1 0xC0 DUP2 ADD PUSH2 0x1E32 PUSH1 0xA0 DUP4 ADD DUP5 PUSH2 0x1DD9 JUMP JUMPDEST PUSH4 0x4E487B71 PUSH1 0xE0 SHL PUSH0 MSTORE PUSH1 0x41 PUSH1 0x4 MSTORE PUSH1 0x24 PUSH0 REVERT JUMPDEST PUSH1 0x40 DUP1 MLOAD SWAP1 DUP2 ADD PUSH8 0xFFFFFFFFFFFFFFFF DUP2 GT DUP3 DUP3 LT OR ISZERO PUSH2 0x1F02 JUMPI PUSH2 0x1F02 PUSH2 0x1ECB JUMP JUMPDEST PUSH1 0x40 MSTORE SWAP1 JUMP JUMPDEST PUSH1 0x40 MLOAD PUSH1 0x1F DUP3 ADD PUSH1 0x1F NOT AND DUP2 ADD PUSH8 0xFFFFFFFFFFFFFFFF DUP2 GT DUP3 DUP3 LT OR ISZERO PUSH2 0x1F31 JUMPI PUSH2 0x1F31 PUSH2 0x1ECB JUMP JUMPDEST PUSH1 0x40 MSTORE SWAP2 SWAP1 POP JUMP JUMPDEST PUSH0 PUSH1 0x40 DUP3 DUP5 SUB SLT ISZERO PUSH2 0x1F49 JUMPI PUSH0 DUP1 REVERT JUMPDEST PUSH2 0x1F51 PUSH2 0x1EDF JUMP JUMPDEST SWAP1 POP DUP2 CALLDATALOAD DUP2 MSTORE PUSH1 0x20 DUP3 ADD CALLDATALOAD PUSH1 0x20 DUP3 ADD MSTORE SWAP3 SWAP2 POP POP JUMP JUMPDEST PUSH0 DUP3 PUSH1 0x1F DUP4 ADD SLT PUSH2 0x1F76 JUMPI PUSH0 DUP1 REVERT JUMPDEST PUSH2 0x1F7E PUSH2 0x1EDF JUMP JUMPDEST DUP1 PUSH1 0x40 DUP5 ADD DUP6 DUP2 GT ISZERO PUSH2 0x1F8F JUMPI PUSH0 DUP1 REVERT JUMPDEST DUP5 JUMPDEST DUP2 DUP2 LT ISZERO PUSH2 0x1FA9 JUMPI DUP1 CALLDATALOAD DUP5 MSTORE PUSH1 0x20 SWAP4 DUP5 ADD SWAP4 ADD PUSH2 0x1F91 JUMP JUMPDEST POP SWAP1 SWAP6 SWAP5 POP POP POP POP POP JUMP JUMPDEST PUSH0 DUP2 DUP4 SUB PUSH2 0x100 DUP2 SLT ISZERO PUSH2 0x1FC6 JUMPI PUSH0 DUP1 REVERT JUMPDEST PUSH1 0x40 MLOAD PUSH1 0x60 DUP2 ADD DUP2 DUP2 LT PUSH8 0xFFFFFFFFFFFFFFFF DUP3 GT OR ISZERO PUSH2 0x1FE9 JUMPI PUSH2 0x1FE9 PUSH2 0x1ECB JUMP JUMPDEST PUSH1 0x40 MSTORE PUSH2 0x1FF6 DUP6 DUP6 PUSH2 0x1F39 JUMP JUMPDEST DUP2 MSTORE PUSH1 0x80 PUSH1 0x3F NOT DUP4 ADD SLT ISZERO PUSH2 0x2009 JUMPI PUSH0 DUP1 REVERT JUMPDEST PUSH2 0x2011 PUSH2 0x1EDF JUMP JUMPDEST SWAP2 POP PUSH2 0x2020 DUP6 PUSH1 0x40 DUP7 ADD PUSH2 0x1F67 JUMP JUMPDEST DUP3 MSTORE PUSH2 0x202F DUP6 PUSH1 0x80 DUP7 ADD PUSH2 0x1F67 JUMP JUMPDEST PUSH1 0x20 DUP4 ADD MSTORE DUP2 PUSH1 0x20 DUP3 ADD MSTORE PUSH2 0x2047 DUP6 PUSH1 0xC0 DUP7 ADD PUSH2 0x1F39 JUMP JUMPDEST PUSH1 0x40 DUP3 ADD MSTORE SWAP5 SWAP4 POP POP POP POP JUMP JUMPDEST PUSH0 DUP1 PUSH0 DUP1 PUSH1 0x80 DUP6 DUP8 SUB SLT ISZERO PUSH2 0x2067 JUMPI PUSH0 DUP1 REVERT JUMPDEST DUP5 CALLDATALOAD SWAP4 POP PUSH1 0x20 DUP6 ADD CALLDATALOAD SWAP3 POP PUSH1 0x40 DUP6 ADD CALLDATALOAD PUSH1 0x1 PUSH1 0x1 PUSH1 0xF8 SHL SUB NOT DUP2 AND DUP2 EQ PUSH2 0x208C JUMPI PUSH0 DUP1 REVERT JUMPDEST SWAP4 SWAP7 SWAP3 SWAP6 POP SWAP3 SWAP4 PUSH1 0x60 ADD CALLDATALOAD SWAP3 POP POP JUMP JUMPDEST PUSH0 DUP1 PUSH1 0x40 DUP4 DUP6 SUB SLT ISZERO PUSH2 0x20AD JUMPI PUSH0 DUP1 REVERT JUMPDEST DUP3 CALLDATALOAD PUSH8 0xFFFFFFFFFFFFFFFF DUP1 DUP3 GT ISZERO PUSH2 0x20C4 JUMPI PUSH0 DUP1 REVERT JUMPDEST DUP2 DUP6 ADD SWAP2 POP DUP6 PUSH1 0x1F DUP4 ADD SLT PUSH2 0x20D7 JUMPI PUSH0 DUP1 REVERT JUMPDEST DUP2 CALLDATALOAD PUSH1 0x20 DUP3 DUP3 GT ISZERO PUSH2 0x20EB JUMPI PUSH2 0x20EB PUSH2 0x1ECB JUMP JUMPDEST PUSH2 0x20FD PUSH1 0x1F DUP4 ADD PUSH1 0x1F NOT AND DUP3 ADD PUSH2 0x1F08 JUMP JUMPDEST SWAP3 POP DUP2 DUP4 MSTORE DUP8 DUP2 DUP4 DUP7 ADD ADD GT ISZERO PUSH2 0x2112 JUMPI PUSH0 DUP1 REVERT JUMPDEST DUP2 DUP2 DUP6 ADD DUP3 DUP6 ADD CALLDATACOPY PUSH0 SWAP2 DUP4 ADD DUP2 ADD SWAP2 SWAP1 SWAP2 MSTORE SWAP1 SWAP7 SWAP5 ADD CALLDATALOAD SWAP5 POP POP POP POP JUMP JUMPDEST DUP1 CALLDATALOAD PUSH1 0x1 PUSH1 0x1 PUSH1 0xA0 SHL SUB DUP2 AND DUP2 EQ PUSH2 0x2146 JUMPI PUSH0 DUP1 REVERT JUMPDEST SWAP2 SWAP1 POP JUMP JUMPDEST PUSH0 PUSH1 0x20 DUP3 DUP5 SUB SLT ISZERO PUSH2 0x215B JUMPI PUSH0 DUP1 REVERT JUMPDEST PUSH2 0x2164 DUP3 PUSH2 0x2130 JUMP JUMPDEST SWAP4 SWAP3 POP POP POP JUMP JUMPDEST PUSH0 DUP1 PUSH0 PUSH1 0x60 DUP5 DUP7 SUB SLT ISZERO PUSH2 0x217D JUMPI PUSH0 DUP1 REVERT JUMPDEST POP POP DUP2 CALLDATALOAD SWAP4 PUSH1 0x20 DUP4 ADD CALLDATALOAD SWAP4 POP PUSH1 0x40 SWAP1 SWAP3 ADD CALLDATALOAD SWAP2 SWAP1 POP JUMP JUMPDEST PUSH1 0x80 DUP2 ADD PUSH2 0x21A2 DUP3 DUP8 PUSH2 0x1DD9 JUMP JUMPDEST DUP5 PUSH1 0x20 DUP4 ADD MSTORE DUP4 PUSH1 0x40 DUP4 ADD MSTORE DUP3 PUSH1 0x60 DUP4 ADD MSTORE SWAP6 SWAP5 POP POP POP POP POP JUMP JUMPDEST PUSH0 DUP1 PUSH1 0x40 DUP4 DUP6 SUB SLT ISZERO PUSH2 0x21CE JUMPI PUSH0 DUP1 REVERT JUMPDEST DUP3 CALLDATALOAD SWAP2 POP PUSH2 0x21DE PUSH1 0x20 DUP5 ADD PUSH2 0x2130 JUMP JUMPDEST SWAP1 POP SWAP3 POP SWAP3 SWAP1 POP JUMP JUMPDEST PUSH0 DUP1 PUSH0 PUSH1 0x60 DUP5 DUP7 SUB SLT ISZERO PUSH2 0x21F9 JUMPI PUSH0 DUP1 REVERT JUMPDEST DUP4 CALLDATALOAD SWAP3 POP PUSH1 0x20 DUP5 ADD CALLDATALOAD SWAP2 POP PUSH2 0x2210 PUSH1 0x40 DUP6 ADD PUSH2 0x2130 JUMP JUMPDEST SWAP1 POP SWAP3 POP SWAP3 POP SWAP3 JUMP JUMPDEST DUP1 PUSH0 JUMPDEST PUSH1 0x2 DUP2 LT ISZERO PUSH2 0x223B JUMPI DUP2 MLOAD DUP5 MSTORE PUSH1 0x20 SWAP4 DUP5 ADD SWAP4 SWAP1 SWAP2 ADD SWAP1 PUSH1 0x1 ADD PUSH2 0x221C JUMP JUMPDEST POP POP POP POP JUMP JUMPDEST PUSH2 0x224C DUP3 DUP3 MLOAD PUSH2 0x2219 JUMP JUMPDEST PUSH1 0x20 DUP2 ADD MLOAD PUSH2 0x225E PUSH1 0x40 DUP5 ADD DUP3 PUSH2 0x2219 JUMP JUMPDEST POP POP POP JUMP JUMPDEST DUP4 MLOAD DUP2 MSTORE PUSH1 0x20 DUP1 DUP6 ADD MLOAD SWAP1 DUP3 ADD MSTORE PUSH2 0x100 DUP2 ADD PUSH2 0x2283 PUSH1 0x40 DUP4 ADD DUP6 PUSH2 0x2241 JUMP JUMPDEST DUP3 MLOAD PUSH1 0xC0 DUP4 ADD MSTORE PUSH1 0x20 DUP4 ADD MLOAD PUSH1 0xE0 DUP4 ADD MSTORE SWAP5 SWAP4 POP POP POP POP JUMP JUMPDEST PUSH0 DUP1 PUSH1 0x40 DUP4 DUP6 SUB SLT ISZERO PUSH2 0x22AD JUMPI PUSH0 DUP1 REVERT JUMPDEST DUP3 MLOAD PUSH1 0x5 DUP2 LT PUSH2 0x22BB JUMPI PUSH0 DUP1 REVERT JUMPDEST PUSH1 0x20 DUP5 ADD MLOAD SWAP1 SWAP3 POP PUSH2 0x1E70 DUP2 PUSH2 0x1E3D JUMP JUMPDEST PUSH1 0x20 DUP1 DUP3 MSTORE PUSH1 0x2F SWAP1 DUP3 ADD MSTORE PUSH32 0x4F6E6C792074686520496E7370656374696F6E204167656E742063616E207275 PUSH1 0x40 DUP3 ADD MSTORE PUSH15 0x37103A3434B990333AB731BA34B7B7 PUSH1 0x89 SHL PUSH1 0x60 DUP3 ADD MSTORE PUSH1 0x80 ADD SWAP1 JUMP JUMPDEST PUSH1 0x20 DUP1 DUP3 MSTORE PUSH1 0x11 SWAP1 DUP3 ADD MSTORE PUSH17 0x125B9D985B1A590814995C1BDC9D081251 PUSH1 0x7A SHL PUSH1 0x40 DUP3 ADD MSTORE PUSH1 0x60 ADD SWAP1 JUMP JUMPDEST DUP2 MLOAD DUP1 MLOAD DUP3 MSTORE PUSH1 0x20 SWAP1 DUP2 ADD MLOAD SWAP1 DUP3 ADD MSTORE PUSH2 0x100 DUP2 ADD PUSH1 0x20 DUP4 ADD MLOAD PUSH2 0x236D PUSH1 0x40 DUP5 ADD DUP3 PUSH2 0x2241 JUMP JUMPDEST POP PUSH1 0x40 SWAP3 SWAP1 SWAP3 ADD MLOAD DUP1 MLOAD PUSH1 0xC0 DUP4 ADD MSTORE PUSH1 0x20 ADD MLOAD PUSH1 0xE0 SWAP1 SWAP2 ADD MSTORE SWAP1 JUMP JUMPDEST PUSH0 PUSH1 0x20 DUP3 DUP5 SUB SLT ISZERO PUSH2 0x2399 JUMPI PUSH0 DUP1 REVERT JUMPDEST DUP2 MLOAD PUSH2 0x2164 DUP2 PUSH2 0x1E3D JUMP JUMPDEST PUSH1 0x20 DUP1 DUP3 MSTORE PUSH1 0x2D SWAP1 DUP3 ADD MSTORE PUSH32 0x4F6E6C7920746865204368696C6420477561726469616E2063616E2072756E20 PUSH1 0x40 DUP3 ADD MSTORE PUSH13 0x3A3434B990333AB731BA34B7B7 PUSH1 0x99 SHL PUSH1 0x60 DUP3 ADD MSTORE PUSH1 0x80 ADD SWAP1 JUMP JUMPDEST PUSH1 0x20 DUP1 DUP3 MSTORE PUSH1 0x3E SWAP1 DUP3 ADD MSTORE PUSH32 0x4F6E6C79207468652061737369676E656420477561726469616E20746F207468 PUSH1 0x40 DUP3 ADD MSTORE PUSH32 0x6973206368696C642063616E2072756E20746869732066756E6374696F6E0000 PUSH1 0x60 DUP3 ADD MSTORE PUSH1 0x80 ADD SWAP1 JUMP JUMPDEST PUSH1 0x20 DUP1 DUP3 MSTORE PUSH1 0x10 SWAP1 DUP3 ADD MSTORE PUSH16 0x125B9D985B1A590810DA1A5B19081251 PUSH1 0x82 SHL PUSH1 0x40 DUP3 ADD MSTORE PUSH1 0x60 ADD SWAP1 JUMP JUMPDEST PUSH4 0x4E487B71 PUSH1 0xE0 SHL PUSH0 MSTORE PUSH1 0x11 PUSH1 0x4 MSTORE PUSH1 0x24 PUSH0 REVERT JUMPDEST PUSH0 PUSH1 0x1 DUP3 ADD PUSH2 0x249D JUMPI PUSH2 0x249D PUSH2 0x2478 JUMP JUMPDEST POP PUSH1 0x1 ADD SWAP1 JUMP JUMPDEST DUP1 MLOAD PUSH1 0x20 DUP1 DUP4 ADD MLOAD SWAP2 SWAP1 DUP2 LT ISZERO PUSH2 0x79B JUMPI PUSH0 NOT PUSH1 0x20 SWAP2 SWAP1 SWAP2 SUB PUSH1 0x3 SHL SHL AND SWAP2 SWAP1 POP JUMP JUMPDEST DUP1 DUP3 ADD DUP1 DUP3 GT ISZERO PUSH2 0x24DA JUMPI PUSH2 0x24DA PUSH2 0x2478 JUMP JUMPDEST SWAP3 SWAP2 POP POP JUMP JUMPDEST PUSH1 0x20 DUP1 DUP3 MSTORE PUSH1 0x33 SWAP1 DUP3 ADD MSTORE PUSH32 0x4F6E6C792074686520726567756C61746F727920617574686F72697479206361 PUSH1 0x40 DUP3 ADD MSTORE PUSH19 0x3710393AB7103A3434B990333AB731BA34B7B7 PUSH1 0x69 SHL PUSH1 0x60 DUP3 ADD MSTORE PUSH1 0x80 ADD SWAP1 JUMP JUMPDEST DUP1 DUP3 MUL DUP2 ISZERO DUP3 DUP3 DIV DUP5 EQ OR PUSH2 0x24DA JUMPI PUSH2 0x24DA PUSH2 0x2478 JUMP INVALID LOG2 PUSH5 0x6970667358 0x22 SLT KECCAK256 REVERT 0xC4 PUSH30 0xE12BE3396883ADDF108656F58F447F6F16E08D6ECEEE8CA4274F8FFC9064 PUSH20 0x6F6C634300081500330000000000000000000000 "
				},
				"gasEstimates": {
					"creation": {
						"codeDepositCost": "1920000",
						"executionCost": "infinite",
						"totalCost": "infinite"
					},
					"external": {
						"Registration()": "2423",
						"Verifier()": "2381",
						"accessControl(((uint256,uint256),(uint256[2],uint256[2]),(uint256,uint256)))": "infinite",
						"accessWhitelist(address)": "2661",
						"assignGuardian(uint256,uint256,address)": "infinite",
						"child2ReportMapping(uint256)": "2479",
						"childCount()": "2339",
						"childData(uint256,uint256)": "13373",
						"childRemediationData(uint256)": "13353",
						"completeRemediation(uint256,uint256)": "infinite",
						"getChildData(uint256,uint256)": "infinite",
						"getChildStatus(uint256,uint256)": "infinite",
						"getViolationReport(uint256)": "infinite",
						"reportChildrenCount(uint256)": "2524",
						"reportCount()": "2340",
						"reportProof(uint256)": "infinite",
						"revokeAccess(uint256,address)": "infinite",
						"startRemediation(uint256,uint256,uint256)": "infinite",
						"storeChildData(bytes32,uint256,bytes1,uint256)": "infinite",
						"submitViolationReport(string,uint256)": "infinite",
						"updateVerifier(address)": "infinite",
						"verifyViolationReport(uint256,bool)": "infinite",
						"violationReports(uint256)": "11106"
					}
				},
				"methodIdentifiers": {
					"Registration()": "e8a37919",
					"Verifier()": "53ca8115",
					"accessControl(((uint256,uint256),(uint256[2],uint256[2]),(uint256,uint256)))": "2ccc8392",
					"accessWhitelist(address)": "a0619d4a",
					"assignGuardian(uint256,uint256,address)": "eff5cfae",
					"child2ReportMapping(uint256)": "b05efaab",
					"childCount()": "8bc3bbc0",
					"childData(uint256,uint256)": "12f1a83a",
					"childRemediationData(uint256)": "2b76ea9c",
					"completeRemediation(uint256,uint256)": "739f48a6",
					"getChildData(uint256,uint256)": "84e2395d",
					"getChildStatus(uint256,uint256)": "a1dc99b4",
					"getViolationReport(uint256)": "636d0262",
					"reportChildrenCount(uint256)": "6388bafc",
					"reportCount()": "185c6f84",
					"reportProof(uint256)": "f8b4d690",
					"revokeAccess(uint256,address)": "d9a5ec1b",
					"startRemediation(uint256,uint256,uint256)": "992cc022",
					"storeChildData(bytes32,uint256,bytes1,uint256)": "832de71e",
					"submitViolationReport(string,uint256)": "8fe2d950",
					"updateVerifier(address)": "97fc007c",
					"verifyViolationReport(uint256,bool)": "28c10330",
					"violationReports(uint256)": "3835a119"
				}
			},
			"storageLayout": {
				"storage": [
					{
						"astId": 666,
						"contract": "ChildLabourManagement.sol:ChildLabourManagement",
						"label": "Registration",
						"offset": 0,
						"slot": "0",
						"type": "t_contract(IRegistration)644"
					},
					{
						"astId": 669,
						"contract": "ChildLabourManagement.sol:ChildLabourManagement",
						"label": "Verifier",
						"offset": 0,
						"slot": "1",
						"type": "t_contract(IVerifier)663"
					},
					{
						"astId": 671,
						"contract": "ChildLabourManagement.sol:ChildLabourManagement",
						"label": "reportCount",
						"offset": 0,
						"slot": "2",
						"type": "t_uint256"
					},
					{
						"astId": 673,
						"contract": "ChildLabourManagement.sol:ChildLabourManagement",
						"label": "childCount",
						"offset": 0,
						"slot": "3",
						"type": "t_uint256"
					},
					{
						"astId": 724,
						"contract": "ChildLabourManagement.sol:ChildLabourManagement",
						"label": "violationReports",
						"offset": 0,
						"slot": "4",
						"type": "t_mapping(t_uint256,t_struct(ViolationReport)691_storage)"
					},
					{
						"astId": 728,
						"contract": "ChildLabourManagement.sol:ChildLabourManagement",
						"label": "child2ReportMapping",
						"offset": 0,
						"slot": "5",
						"type": "t_mapping(t_uint256,t_uint256)"
					},
					{
						"astId": 735,
						"contract": "ChildLabourManagement.sol:ChildLabourManagement",
						"label": "childData",
						"offset": 0,
						"slot": "6",
						"type": "t_mapping(t_uint256,t_mapping(t_uint256,t_struct(ChildData)705_storage))"
					},
					{
						"astId": 739,
						"contract": "ChildLabourManagement.sol:ChildLabourManagement",
						"label": "reportChildrenCount",
						"offset": 0,
						"slot": "7",
						"type": "t_mapping(t_uint256,t_uint256)"
					},
					{
						"astId": 744,
						"contract": "ChildLabourManagement.sol:ChildLabourManagement",
						"label": "childRemediationData",
						"offset": 0,
						"slot": "8",
						"type": "t_mapping(t_uint256,t_struct(ChildRemediation)719_storage)"
					},
					{
						"astId": 748,
						"contract": "ChildLabourManagement.sol:ChildLabourManagement",
						"label": "accessWhitelist",
						"offset": 0,
						"slot": "9",
						"type": "t_mapping(t_address,t_bool)"
					},
					{
						"astId": 753,
						"contract": "ChildLabourManagement.sol:ChildLabourManagement",
						"label": "reportProof",
						"offset": 0,
						"slot": "10",
						"type": "t_mapping(t_uint256,t_struct(Proof)654_storage)"
					}
				],
				"types": {
					"t_address": {
						"encoding": "inplace",
						"label": "address",
						"numberOfBytes": "20"
					},
					"t_array(t_uint256)2_storage": {
						"base": "t_uint256",
						"encoding": "inplace",
						"label": "uint256[2]",
						"numberOfBytes": "64"
					},
					"t_bool": {
						"encoding": "inplace",
						"label": "bool",
						"numberOfBytes": "1"
					},
					"t_bytes1": {
						"encoding": "inplace",
						"label": "bytes1",
						"numberOfBytes": "1"
					},
					"t_bytes32": {
						"encoding": "inplace",
						"label": "bytes32",
						"numberOfBytes": "32"
					},
					"t_contract(IRegistration)644": {
						"encoding": "inplace",
						"label": "contract IRegistration",
						"numberOfBytes": "20"
					},
					"t_contract(IVerifier)663": {
						"encoding": "inplace",
						"label": "contract IVerifier",
						"numberOfBytes": "20"
					},
					"t_enum(ChildStatus)678": {
						"encoding": "inplace",
						"label": "enum ChildLabourManagement.ChildStatus",
						"numberOfBytes": "1"
					},
					"t_mapping(t_address,t_bool)": {
						"encoding": "mapping",
						"key": "t_address",
						"label": "mapping(address => bool)",
						"numberOfBytes": "32",
						"value": "t_bool"
					},
					"t_mapping(t_uint256,t_mapping(t_uint256,t_struct(ChildData)705_storage))": {
						"encoding": "mapping",
						"key": "t_uint256",
						"label": "mapping(uint256 => mapping(uint256 => struct ChildLabourManagement.ChildData))",
						"numberOfBytes": "32",
						"value": "t_mapping(t_uint256,t_struct(ChildData)705_storage)"
					},
					"t_mapping(t_uint256,t_struct(ChildData)705_storage)": {
						"encoding": "mapping",
						"key": "t_uint256",
						"label": "mapping(uint256 => struct ChildLabourManagement.ChildData)",
						"numberOfBytes": "32",
						"value": "t_struct(ChildData)705_storage"
					},
					"t_mapping(t_uint256,t_struct(ChildRemediation)719_storage)": {
						"encoding": "mapping",
						"key": "t_uint256",
						"label": "mapping(uint256 => struct ChildLabourManagement.ChildRemediation)",
						"numberOfBytes": "32",
						"value": "t_struct(ChildRemediation)719_storage"
					},
					"t_mapping(t_uint256,t_struct(Proof)654_storage)": {
						"encoding": "mapping",
						"key": "t_uint256",
						"label": "mapping(uint256 => struct IVerifier.Proof)",
						"numberOfBytes": "32",
						"value": "t_struct(Proof)654_storage"
					},
					"t_mapping(t_uint256,t_struct(ViolationReport)691_storage)": {
						"encoding": "mapping",
						"key": "t_uint256",
						"label": "mapping(uint256 => struct ChildLabourManagement.ViolationReport)",
						"numberOfBytes": "32",
						"value": "t_struct(ViolationReport)691_storage"
					},
					"t_mapping(t_uint256,t_uint256)": {
						"encoding": "mapping",
						"key": "t_uint256",
						"label": "mapping(uint256 => uint256)",
						"numberOfBytes": "32",
						"value": "t_uint256"
					},
					"t_struct(ChildData)705_storage": {
						"encoding": "inplace",
						"label": "struct ChildLabourManagement.ChildData",
						"members": [
							{
								"astId": 693,
								"contract": "ChildLabourManagement.sol:ChildLabourManagement",
								"label": "childId",
								"offset": 0,
								"slot": "0",
								"type": "t_uint256"
							},
							{
								"astId": 695,
								"contract": "ChildLabourManagement.sol:ChildLabourManagement",
								"label": "hashedName",
								"offset": 0,
								"slot": "1",
								"type": "t_bytes32"
							},
							{
								"astId": 697,
								"contract": "ChildLabourManagement.sol:ChildLabourManagement",
								"label": "age",
								"offset": 0,
								"slot": "2",
								"type": "t_uint256"
							},
							{
								"astId": 699,
								"contract": "ChildLabourManagement.sol:ChildLabourManagement",
								"label": "gender",
								"offset": 0,
								"slot": "3",
								"type": "t_bytes1"
							},
							{
								"astId": 701,
								"contract": "ChildLabourManagement.sol:ChildLabourManagement",
								"label": "violationReportId",
								"offset": 0,
								"slot": "4",
								"type": "t_uint256"
							},
							{
								"astId": 704,
								"contract": "ChildLabourManagement.sol:ChildLabourManagement",
								"label": "status",
								"offset": 0,
								"slot": "5",
								"type": "t_enum(ChildStatus)678"
							}
						],
						"numberOfBytes": "192"
					},
					"t_struct(ChildRemediation)719_storage": {
						"encoding": "inplace",
						"label": "struct ChildLabourManagement.ChildRemediation",
						"members": [
							{
								"astId": 707,
								"contract": "ChildLabourManagement.sol:ChildLabourManagement",
								"label": "guardian",
								"offset": 0,
								"slot": "0",
								"type": "t_address"
							},
							{
								"astId": 709,
								"contract": "ChildLabourManagement.sol:ChildLabourManagement",
								"label": "childId",
								"offset": 0,
								"slot": "1",
								"type": "t_uint256"
							},
							{
								"astId": 711,
								"contract": "ChildLabourManagement.sol:ChildLabourManagement",
								"label": "remediationStart",
								"offset": 0,
								"slot": "2",
								"type": "t_uint256"
							},
							{
								"astId": 713,
								"contract": "ChildLabourManagement.sol:ChildLabourManagement",
								"label": "remediationCompletion",
								"offset": 0,
								"slot": "3",
								"type": "t_uint256"
							},
							{
								"astId": 715,
								"contract": "ChildLabourManagement.sol:ChildLabourManagement",
								"label": "lastUpdated",
								"offset": 0,
								"slot": "4",
								"type": "t_uint256"
							},
							{
								"astId": 718,
								"contract": "ChildLabourManagement.sol:ChildLabourManagement",
								"label": "status",
								"offset": 0,
								"slot": "5",
								"type": "t_enum(ChildStatus)678"
							}
						],
						"numberOfBytes": "192"
					},
					"t_struct(G1Point)5_storage": {
						"encoding": "inplace",
						"label": "struct Pairing.G1Point",
						"members": [
							{
								"astId": 2,
								"contract": "ChildLabourManagement.sol:ChildLabourManagement",
								"label": "X",
								"offset": 0,
								"slot": "0",
								"type": "t_uint256"
							},
							{
								"astId": 4,
								"contract": "ChildLabourManagement.sol:ChildLabourManagement",
								"label": "Y",
								"offset": 0,
								"slot": "1",
								"type": "t_uint256"
							}
						],
						"numberOfBytes": "64"
					},
					"t_struct(G2Point)14_storage": {
						"encoding": "inplace",
						"label": "struct Pairing.G2Point",
						"members": [
							{
								"astId": 9,
								"contract": "ChildLabourManagement.sol:ChildLabourManagement",
								"label": "X",
								"offset": 0,
								"slot": "0",
								"type": "t_array(t_uint256)2_storage"
							},
							{
								"astId": 13,
								"contract": "ChildLabourManagement.sol:ChildLabourManagement",
								"label": "Y",
								"offset": 0,
								"slot": "2",
								"type": "t_array(t_uint256)2_storage"
							}
						],
						"numberOfBytes": "128"
					},
					"t_struct(Proof)654_storage": {
						"encoding": "inplace",
						"label": "struct IVerifier.Proof",
						"members": [
							{
								"astId": 647,
								"contract": "ChildLabourManagement.sol:ChildLabourManagement",
								"label": "a",
								"offset": 0,
								"slot": "0",
								"type": "t_struct(G1Point)5_storage"
							},
							{
								"astId": 650,
								"contract": "ChildLabourManagement.sol:ChildLabourManagement",
								"label": "b",
								"offset": 0,
								"slot": "2",
								"type": "t_struct(G2Point)14_storage"
							},
							{
								"astId": 653,
								"contract": "ChildLabourManagement.sol:ChildLabourManagement",
								"label": "c",
								"offset": 0,
								"slot": "6",
								"type": "t_struct(G1Point)5_storage"
							}
						],
						"numberOfBytes": "256"
					},
					"t_struct(ViolationReport)691_storage": {
						"encoding": "inplace",
						"label": "struct ChildLabourManagement.ViolationReport",
						"members": [
							{
								"astId": 680,
								"contract": "ChildLabourManagement.sol:ChildLabourManagement",
								"label": "reporter",
								"offset": 0,
								"slot": "0",
								"type": "t_address"
							},
							{
								"astId": 682,
								"contract": "ChildLabourManagement.sol:ChildLabourManagement",
								"label": "timestamp",
								"offset": 0,
								"slot": "1",
								"type": "t_uint256"
							},
							{
								"astId": 684,
								"contract": "ChildLabourManagement.sol:ChildLabourManagement",
								"label": "spottedChildrenNumber",
								"offset": 0,
								"slot": "2",
								"type": "t_uint256"
							},
							{
								"astId": 686,
								"contract": "ChildLabourManagement.sol:ChildLabourManagement",
								"label": "ipfsHash",
								"offset": 0,
								"slot": "3",
								"type": "t_bytes32"
							},
							{
								"astId": 688,
								"contract": "ChildLabourManagement.sol:ChildLabourManagement",
								"label": "isInspected",
								"offset": 0,
								"slot": "4",
								"type": "t_bool"
							},
							{
								"astId": 690,
								"contract": "ChildLabourManagement.sol:ChildLabourManagement",
								"label": "isVerified",
								"offset": 1,
								"slot": "4",
								"type": "t_bool"
							}
						],
						"numberOfBytes": "160"
					},
					"t_uint256": {
						"encoding": "inplace",
						"label": "uint256",
						"numberOfBytes": "32"
					}
				}
			},
			"userdoc": {
				"kind": "user",
				"methods": {},
				"version": 1
			}
		}
	}
}