{
	"verifier.sol": {
		"Verifier": {
			"abi": [
				{
					"inputs": [
						{
							"components": [
								{
									"components": [
										{
											"internalType": "uint256",
											"name": "X",
											"type": "uint256"
										},
										{
											"internalType": "uint256",
											"name": "Y",
											"type": "uint256"
										}
									],
									"internalType": "struct Pairing.G1Point",
									"name": "a",
									"type": "tuple"
								},
								{
									"components": [
										{
											"internalType": "uint256[2]",
											"name": "X",
											"type": "uint256[2]"
										},
										{
											"internalType": "uint256[2]",
											"name": "Y",
											"type": "uint256[2]"
										}
									],
									"internalType": "struct Pairing.G2Point",
									"name": "b",
									"type": "tuple"
								},
								{
									"components": [
										{
											"internalType": "uint256",
											"name": "X",
											"type": "uint256"
										},
										{
											"internalType": "uint256",
											"name": "Y",
											"type": "uint256"
										}
									],
									"internalType": "struct Pairing.G1Point",
									"name": "c",
									"type": "tuple"
								}
							],
							"internalType": "struct Verifier.Proof",
							"name": "proof",
							"type": "tuple"
						}
					],
					"name": "verifyTx",
					"outputs": [
						{
							"internalType": "bool",
							"name": "r",
							"type": "bool"
						}
					],
					"stateMutability": "view",
					"type": "function"
				}
			],
			"devdoc": {
				"kind": "dev",
				"methods": {},
				"version": 1
			},
			"evm": {
				"assembly": "    /* \"verifier.sol\":6236:9354  contract Verifier {... */\n  mstore(0x40, 0x80)\n  callvalue\n  dup1\n  iszero\n  tag_1\n  jumpi\n  0x00\n  dup1\n  revert\ntag_1:\n  pop\n  dataSize(sub_0)\n  dup1\n  dataOffset(sub_0)\n  0x00\n  codecopy\n  0x00\n  return\nstop\n\nsub_0: assembly {\n        /* \"verifier.sol\":6236:9354  contract Verifier {... */\n      mstore(0x40, 0x80)\n      callvalue\n      dup1\n      iszero\n      tag_1\n      jumpi\n      0x00\n      dup1\n      revert\n    tag_1:\n      pop\n      jumpi(tag_2, lt(calldatasize, 0x04))\n      shr(0xe0, calldataload(0x00))\n      dup1\n      0xf6af0311\n      eq\n      tag_3\n      jumpi\n    tag_2:\n      0x00\n      dup1\n      revert\n        /* \"verifier.sol\":9071:9352  function verifyTx(... */\n    tag_3:\n      tag_4\n      0x04\n      dup1\n      calldatasize\n      sub\n      dup2\n      add\n      swap1\n      tag_5\n      swap2\n      swap1\n      tag_6\n      jump\t// in\n    tag_5:\n      tag_7\n      jump\t// in\n    tag_4:\n      mload(0x40)\n      tag_8\n      swap2\n      swap1\n      tag_9\n      jump\t// in\n    tag_8:\n      mload(0x40)\n      dup1\n      swap2\n      sub\n      swap1\n      return\n    tag_7:\n        /* \"verifier.sol\":9152:9158  bool r */\n      0x00\n        /* \"verifier.sol\":9170:9195  uint[] memory inputValues */\n      dup1\n        /* \"verifier.sol\":9209:9210  0 */\n      0x00\n        /* \"verifier.sol\":9198:9211  new uint[](0) */\n      0xffffffffffffffff\n      dup2\n      gt\n      iszero\n      tag_11\n      jumpi\n      tag_12\n      tag_13\n      jump\t// in\n    tag_12:\n    tag_11:\n      mload(0x40)\n      swap1\n      dup1\n      dup3\n      mstore\n      dup1\n      0x20\n      mul\n      0x20\n      add\n      dup3\n      add\n      0x40\n      mstore\n      dup1\n      iszero\n      tag_14\n      jumpi\n      dup2\n      0x20\n      add\n      0x20\n      dup3\n      mul\n      dup1\n      calldatasize\n      dup4\n      calldatacopy\n      dup1\n      dup3\n      add\n      swap2\n      pop\n      pop\n      swap1\n      pop\n    tag_14:\n      pop\n        /* \"verifier.sol\":9170:9211  uint[] memory inputValues = new uint[](0) */\n      swap1\n      pop\n        /* \"verifier.sol\":9264:9265  0 */\n      0x00\n        /* \"verifier.sol\":9234:9260  verify(inputValues, proof) */\n      tag_15\n        /* \"verifier.sol\":9241:9252  inputValues */\n      dup3\n        /* \"verifier.sol\":9254:9259  proof */\n      dup6\n        /* \"verifier.sol\":9234:9240  verify */\n      tag_16\n        /* \"verifier.sol\":9234:9260  verify(inputValues, proof) */\n      jump\t// in\n    tag_15:\n        /* \"verifier.sol\":9234:9265  verify(inputValues, proof) == 0 */\n      sub\n        /* \"verifier.sol\":9230:9346  if (verify(inputValues, proof) == 0) {... */\n      tag_17\n      jumpi\n        /* \"verifier.sol\":9288:9292  true */\n      0x01\n        /* \"verifier.sol\":9281:9292  return true */\n      swap2\n      pop\n      pop\n      jump(tag_10)\n        /* \"verifier.sol\":9230:9346  if (verify(inputValues, proof) == 0) {... */\n    tag_17:\n        /* \"verifier.sol\":9330:9335  false */\n      0x00\n        /* \"verifier.sol\":9323:9335  return false */\n      swap2\n      pop\n      pop\n        /* \"verifier.sol\":9071:9352  function verifyTx(... */\n    tag_10:\n      swap2\n      swap1\n      pop\n      jump\t// out\n        /* \"verifier.sol\":8145:9066  function verify(uint[] memory input, Proof memory proof) internal view returns (uint) {... */\n    tag_16:\n        /* \"verifier.sol\":8225:8229  uint */\n      0x00\n        /* \"verifier.sol\":8241:8267  uint256 snark_scalar_field */\n      dup1\n        /* \"verifier.sol\":8270:8347  21888242871839275222246405745257275088548364400416034343698204186575808495617 */\n      0x30644e72e131a029b85045b68181585d2833e84879b9709143e1f593f0000001\n        /* \"verifier.sol\":8241:8347  uint256 snark_scalar_field = 21888242871839275222246405745257275088548364400416034343698204186575808495617 */\n      swap1\n      pop\n        /* \"verifier.sol\":8357:8379  VerifyingKey memory vk */\n      0x00\n        /* \"verifier.sol\":8382:8396  verifyingKey() */\n      tag_20\n        /* \"verifier.sol\":8382:8394  verifyingKey */\n      tag_21\n        /* \"verifier.sol\":8382:8396  verifyingKey() */\n      jump\t// in\n    tag_20:\n        /* \"verifier.sol\":8357:8396  VerifyingKey memory vk = verifyingKey() */\n      swap1\n      pop\n        /* \"verifier.sol\":8434:8436  vk */\n      dup1\n        /* \"verifier.sol\":8434:8446  vk.gamma_abc */\n      0x80\n      add\n      mload\n        /* \"verifier.sol\":8434:8453  vk.gamma_abc.length */\n      mload\n        /* \"verifier.sol\":8429:8430  1 */\n      0x01\n        /* \"verifier.sol\":8414:8419  input */\n      dup7\n        /* \"verifier.sol\":8414:8426  input.length */\n      mload\n        /* \"verifier.sol\":8414:8430  input.length + 1 */\n      tag_22\n      swap2\n      swap1\n      tag_23\n      jump\t// in\n    tag_22:\n        /* \"verifier.sol\":8414:8453  input.length + 1 == vk.gamma_abc.length */\n      eq\n        /* \"verifier.sol\":8406:8454  require(input.length + 1 == vk.gamma_abc.length) */\n      tag_24\n      jumpi\n      0x00\n      dup1\n      revert\n    tag_24:\n        /* \"verifier.sol\":8511:8538  Pairing.G1Point memory vk_x */\n      0x00\n        /* \"verifier.sol\":8541:8562  Pairing.G1Point(0, 0) */\n      mload(0x40)\n      dup1\n      0x40\n      add\n      0x40\n      mstore\n      dup1\n        /* \"verifier.sol\":8557:8558  0 */\n      0x00\n        /* \"verifier.sol\":8541:8562  Pairing.G1Point(0, 0) */\n      dup2\n      mstore\n      0x20\n      add\n        /* \"verifier.sol\":8560:8561  0 */\n      0x00\n        /* \"verifier.sol\":8541:8562  Pairing.G1Point(0, 0) */\n      dup2\n      mstore\n      pop\n        /* \"verifier.sol\":8511:8562  Pairing.G1Point memory vk_x = Pairing.G1Point(0, 0) */\n      swap1\n      pop\n        /* \"verifier.sol\":8577:8583  uint i */\n      0x00\n        /* \"verifier.sol\":8572:8769  for (uint i = 0; i < input.length; i++) {... */\n    tag_25:\n        /* \"verifier.sol\":8593:8598  input */\n      dup7\n        /* \"verifier.sol\":8593:8605  input.length */\n      mload\n        /* \"verifier.sol\":8589:8590  i */\n      dup2\n        /* \"verifier.sol\":8589:8605  i < input.length */\n      lt\n        /* \"verifier.sol\":8572:8769  for (uint i = 0; i < input.length; i++) {... */\n      iszero\n      tag_26\n      jumpi\n        /* \"verifier.sol\":8645:8663  snark_scalar_field */\n      dup4\n        /* \"verifier.sol\":8634:8639  input */\n      dup8\n        /* \"verifier.sol\":8640:8641  i */\n      dup3\n        /* \"verifier.sol\":8634:8642  input[i] */\n      dup2\n      mload\n      dup2\n      lt\n      tag_28\n      jumpi\n      tag_29\n      tag_30\n      jump\t// in\n    tag_29:\n    tag_28:\n      0x20\n      mul\n      0x20\n      add\n      add\n      mload\n        /* \"verifier.sol\":8634:8663  input[i] < snark_scalar_field */\n      lt\n        /* \"verifier.sol\":8626:8664  require(input[i] < snark_scalar_field) */\n      tag_31\n      jumpi\n      0x00\n      dup1\n      revert\n    tag_31:\n        /* \"verifier.sol\":8685:8758  Pairing.addition(vk_x, Pairing.scalar_mul(vk.gamma_abc[i + 1], input[i])) */\n      tag_32\n        /* \"verifier.sol\":8702:8706  vk_x */\n      dup3\n        /* \"verifier.sol\":8708:8757  Pairing.scalar_mul(vk.gamma_abc[i + 1], input[i]) */\n      tag_33\n        /* \"verifier.sol\":8727:8729  vk */\n      dup6\n        /* \"verifier.sol\":8727:8739  vk.gamma_abc */\n      0x80\n      add\n      mload\n        /* \"verifier.sol\":8744:8745  1 */\n      0x01\n        /* \"verifier.sol\":8740:8741  i */\n      dup6\n        /* \"verifier.sol\":8740:8745  i + 1 */\n      tag_34\n      swap2\n      swap1\n      tag_23\n      jump\t// in\n    tag_34:\n        /* \"verifier.sol\":8727:8746  vk.gamma_abc[i + 1] */\n      dup2\n      mload\n      dup2\n      lt\n      tag_35\n      jumpi\n      tag_36\n      tag_30\n      jump\t// in\n    tag_36:\n    tag_35:\n      0x20\n      mul\n      0x20\n      add\n      add\n      mload\n        /* \"verifier.sol\":8748:8753  input */\n      dup11\n        /* \"verifier.sol\":8754:8755  i */\n      dup6\n        /* \"verifier.sol\":8748:8756  input[i] */\n      dup2\n      mload\n      dup2\n      lt\n      tag_37\n      jumpi\n      tag_38\n      tag_30\n      jump\t// in\n    tag_38:\n    tag_37:\n      0x20\n      mul\n      0x20\n      add\n      add\n      mload\n        /* \"verifier.sol\":8708:8726  Pairing.scalar_mul */\n      tag_39\n        /* \"verifier.sol\":8708:8757  Pairing.scalar_mul(vk.gamma_abc[i + 1], input[i]) */\n      jump\t// in\n    tag_33:\n        /* \"verifier.sol\":8685:8701  Pairing.addition */\n      tag_40\n        /* \"verifier.sol\":8685:8758  Pairing.addition(vk_x, Pairing.scalar_mul(vk.gamma_abc[i + 1], input[i])) */\n      jump\t// in\n    tag_32:\n        /* \"verifier.sol\":8678:8758  vk_x = Pairing.addition(vk_x, Pairing.scalar_mul(vk.gamma_abc[i + 1], input[i])) */\n      swap2\n      pop\n        /* \"verifier.sol\":8607:8610  i++ */\n      dup1\n      dup1\n      tag_41\n      swap1\n      tag_42\n      jump\t// in\n    tag_41:\n      swap2\n      pop\n      pop\n        /* \"verifier.sol\":8572:8769  for (uint i = 0; i < input.length; i++) {... */\n      jump(tag_25)\n    tag_26:\n      pop\n        /* \"verifier.sol\":8785:8824  Pairing.addition(vk_x, vk.gamma_abc[0]) */\n      tag_43\n        /* \"verifier.sol\":8802:8806  vk_x */\n      dup2\n        /* \"verifier.sol\":8808:8810  vk */\n      dup4\n        /* \"verifier.sol\":8808:8820  vk.gamma_abc */\n      0x80\n      add\n      mload\n        /* \"verifier.sol\":8821:8822  0 */\n      0x00\n        /* \"verifier.sol\":8808:8823  vk.gamma_abc[0] */\n      dup2\n      mload\n      dup2\n      lt\n      tag_44\n      jumpi\n      tag_45\n      tag_30\n      jump\t// in\n    tag_45:\n    tag_44:\n      0x20\n      mul\n      0x20\n      add\n      add\n      mload\n        /* \"verifier.sol\":8785:8801  Pairing.addition */\n      tag_40\n        /* \"verifier.sol\":8785:8824  Pairing.addition(vk_x, vk.gamma_abc[0]) */\n      jump\t// in\n    tag_43:\n        /* \"verifier.sol\":8778:8824  vk_x = Pairing.addition(vk_x, vk.gamma_abc[0]) */\n      swap1\n      pop\n        /* \"verifier.sol\":8838:9031  Pairing.pairingProd4(... */\n      tag_46\n        /* \"verifier.sol\":8873:8878  proof */\n      dup6\n        /* \"verifier.sol\":8873:8880  proof.a */\n      0x00\n      add\n      mload\n        /* \"verifier.sol\":8882:8887  proof */\n      dup7\n        /* \"verifier.sol\":8882:8889  proof.b */\n      0x20\n      add\n      mload\n        /* \"verifier.sol\":8904:8924  Pairing.negate(vk_x) */\n      tag_47\n        /* \"verifier.sol\":8919:8923  vk_x */\n      dup5\n        /* \"verifier.sol\":8904:8918  Pairing.negate */\n      tag_48\n        /* \"verifier.sol\":8904:8924  Pairing.negate(vk_x) */\n      jump\t// in\n    tag_47:\n        /* \"verifier.sol\":8926:8928  vk */\n      dup6\n        /* \"verifier.sol\":8926:8934  vk.gamma */\n      0x40\n      add\n      mload\n        /* \"verifier.sol\":8949:8972  Pairing.negate(proof.c) */\n      tag_49\n        /* \"verifier.sol\":8964:8969  proof */\n      dup11\n        /* \"verifier.sol\":8964:8971  proof.c */\n      0x40\n      add\n      mload\n        /* \"verifier.sol\":8949:8963  Pairing.negate */\n      tag_48\n        /* \"verifier.sol\":8949:8972  Pairing.negate(proof.c) */\n      jump\t// in\n    tag_49:\n        /* \"verifier.sol\":8974:8976  vk */\n      dup8\n        /* \"verifier.sol\":8974:8982  vk.delta */\n      0x60\n      add\n      mload\n        /* \"verifier.sol\":8997:9021  Pairing.negate(vk.alpha) */\n      tag_50\n        /* \"verifier.sol\":9012:9014  vk */\n      dup10\n        /* \"verifier.sol\":9012:9020  vk.alpha */\n      0x00\n      add\n      mload\n        /* \"verifier.sol\":8997:9011  Pairing.negate */\n      tag_48\n        /* \"verifier.sol\":8997:9021  Pairing.negate(vk.alpha) */\n      jump\t// in\n    tag_50:\n        /* \"verifier.sol\":9023:9025  vk */\n      dup10\n        /* \"verifier.sol\":9023:9030  vk.beta */\n      0x20\n      add\n      mload\n        /* \"verifier.sol\":8838:8858  Pairing.pairingProd4 */\n      tag_51\n        /* \"verifier.sol\":8838:9031  Pairing.pairingProd4(... */\n      jump\t// in\n    tag_46:\n        /* \"verifier.sol\":8834:9041  if(!Pairing.pairingProd4(... */\n      tag_52\n      jumpi\n        /* \"verifier.sol\":9040:9041  1 */\n      0x01\n        /* \"verifier.sol\":9033:9041  return 1 */\n      swap4\n      pop\n      pop\n      pop\n      pop\n      jump(tag_19)\n        /* \"verifier.sol\":8834:9041  if(!Pairing.pairingProd4(... */\n    tag_52:\n        /* \"verifier.sol\":9058:9059  0 */\n      0x00\n        /* \"verifier.sol\":9051:9059  return 0 */\n      swap4\n      pop\n      pop\n      pop\n      pop\n        /* \"verifier.sol\":8145:9066  function verify(uint[] memory input, Proof memory proof) internal view returns (uint) {... */\n    tag_19:\n      swap3\n      swap2\n      pop\n      pop\n      jump\t// out\n        /* \"verifier.sol\":6583:8140  function verifyingKey() pure internal returns (VerifyingKey memory vk) {... */\n    tag_21:\n        /* \"verifier.sol\":6630:6652  VerifyingKey memory vk */\n      tag_53\n      tag_54\n      jump\t// in\n    tag_53:\n        /* \"verifier.sol\":6675:6844  Pairing.G1Point(uint256(0x206d960593d941bf781f3b6e3f95916f6520377bff96299cd16ba8d8ef9120b5), uint256(0x29a95be0f241b789a1fe8cdcf9c7e3f3d4aa637c5dcb0382f88285f6582adade)) */\n      mload(0x40)\n      dup1\n      0x40\n      add\n      0x40\n      mstore\n      dup1\n        /* \"verifier.sol\":6699:6765  0x206d960593d941bf781f3b6e3f95916f6520377bff96299cd16ba8d8ef9120b5 */\n      0x206d960593d941bf781f3b6e3f95916f6520377bff96299cd16ba8d8ef9120b5\n        /* \"verifier.sol\":6675:6844  Pairing.G1Point(uint256(0x206d960593d941bf781f3b6e3f95916f6520377bff96299cd16ba8d8ef9120b5), uint256(0x29a95be0f241b789a1fe8cdcf9c7e3f3d4aa637c5dcb0382f88285f6582adade)) */\n      dup2\n      mstore\n      0x20\n      add\n        /* \"verifier.sol\":6776:6842  0x29a95be0f241b789a1fe8cdcf9c7e3f3d4aa637c5dcb0382f88285f6582adade */\n      0x29a95be0f241b789a1fe8cdcf9c7e3f3d4aa637c5dcb0382f88285f6582adade\n        /* \"verifier.sol\":6675:6844  Pairing.G1Point(uint256(0x206d960593d941bf781f3b6e3f95916f6520377bff96299cd16ba8d8ef9120b5), uint256(0x29a95be0f241b789a1fe8cdcf9c7e3f3d4aa637c5dcb0382f88285f6582adade)) */\n      dup2\n      mstore\n      pop\n        /* \"verifier.sol\":6664:6666  vk */\n      dup2\n        /* \"verifier.sol\":6664:6672  vk.alpha */\n      0x00\n      add\n        /* \"verifier.sol\":6664:6844  vk.alpha = Pairing.G1Point(uint256(0x206d960593d941bf781f3b6e3f95916f6520377bff96299cd16ba8d8ef9120b5), uint256(0x29a95be0f241b789a1fe8cdcf9c7e3f3d4aa637c5dcb0382f88285f6582adade)) */\n      dup2\n      swap1\n      mstore\n      pop\n        /* \"verifier.sol\":6864:7191  Pairing.G2Point([uint256(0x251a596db059ea83f20caa9d1b4374816cca7f5f9c9c390f909d7f434686a58f), uint256(0x291f5a2ff34731a219db79627796becab5d92e4ad89249ae03b39b65737d1983)], [uint256(0x2d509c0da4ab56f26890d29d0cdd6f5a4a9cedf0aa81f06e8487617918947eea), uint256(0x2204201ec00a2d0da8b4cb010c79f4ebcecbf9707e6f4f551e4d1f862073dac3)]) */\n      mload(0x40)\n      dup1\n      0x40\n      add\n      0x40\n      mstore\n      dup1\n      mload(0x40)\n      dup1\n      0x40\n      add\n      0x40\n      mstore\n      dup1\n        /* \"verifier.sol\":6889:6955  0x251a596db059ea83f20caa9d1b4374816cca7f5f9c9c390f909d7f434686a58f */\n      0x251a596db059ea83f20caa9d1b4374816cca7f5f9c9c390f909d7f434686a58f\n        /* \"verifier.sol\":6864:7191  Pairing.G2Point([uint256(0x251a596db059ea83f20caa9d1b4374816cca7f5f9c9c390f909d7f434686a58f), uint256(0x291f5a2ff34731a219db79627796becab5d92e4ad89249ae03b39b65737d1983)], [uint256(0x2d509c0da4ab56f26890d29d0cdd6f5a4a9cedf0aa81f06e8487617918947eea), uint256(0x2204201ec00a2d0da8b4cb010c79f4ebcecbf9707e6f4f551e4d1f862073dac3)]) */\n      dup2\n      mstore\n      0x20\n      add\n        /* \"verifier.sol\":6966:7032  0x291f5a2ff34731a219db79627796becab5d92e4ad89249ae03b39b65737d1983 */\n      0x291f5a2ff34731a219db79627796becab5d92e4ad89249ae03b39b65737d1983\n        /* \"verifier.sol\":6864:7191  Pairing.G2Point([uint256(0x251a596db059ea83f20caa9d1b4374816cca7f5f9c9c390f909d7f434686a58f), uint256(0x291f5a2ff34731a219db79627796becab5d92e4ad89249ae03b39b65737d1983)], [uint256(0x2d509c0da4ab56f26890d29d0cdd6f5a4a9cedf0aa81f06e8487617918947eea), uint256(0x2204201ec00a2d0da8b4cb010c79f4ebcecbf9707e6f4f551e4d1f862073dac3)]) */\n      dup2\n      mstore\n      pop\n      dup2\n      mstore\n      0x20\n      add\n      mload(0x40)\n      dup1\n      0x40\n      add\n      0x40\n      mstore\n      dup1\n        /* \"verifier.sol\":7045:7111  0x2d509c0da4ab56f26890d29d0cdd6f5a4a9cedf0aa81f06e8487617918947eea */\n      0x2d509c0da4ab56f26890d29d0cdd6f5a4a9cedf0aa81f06e8487617918947eea\n        /* \"verifier.sol\":6864:7191  Pairing.G2Point([uint256(0x251a596db059ea83f20caa9d1b4374816cca7f5f9c9c390f909d7f434686a58f), uint256(0x291f5a2ff34731a219db79627796becab5d92e4ad89249ae03b39b65737d1983)], [uint256(0x2d509c0da4ab56f26890d29d0cdd6f5a4a9cedf0aa81f06e8487617918947eea), uint256(0x2204201ec00a2d0da8b4cb010c79f4ebcecbf9707e6f4f551e4d1f862073dac3)]) */\n      dup2\n      mstore\n      0x20\n      add\n        /* \"verifier.sol\":7122:7188  0x2204201ec00a2d0da8b4cb010c79f4ebcecbf9707e6f4f551e4d1f862073dac3 */\n      0x2204201ec00a2d0da8b4cb010c79f4ebcecbf9707e6f4f551e4d1f862073dac3\n        /* \"verifier.sol\":6864:7191  Pairing.G2Point([uint256(0x251a596db059ea83f20caa9d1b4374816cca7f5f9c9c390f909d7f434686a58f), uint256(0x291f5a2ff34731a219db79627796becab5d92e4ad89249ae03b39b65737d1983)], [uint256(0x2d509c0da4ab56f26890d29d0cdd6f5a4a9cedf0aa81f06e8487617918947eea), uint256(0x2204201ec00a2d0da8b4cb010c79f4ebcecbf9707e6f4f551e4d1f862073dac3)]) */\n      dup2\n      mstore\n      pop\n      dup2\n      mstore\n      pop\n        /* \"verifier.sol\":6854:6856  vk */\n      dup2\n        /* \"verifier.sol\":6854:6861  vk.beta */\n      0x20\n      add\n        /* \"verifier.sol\":6854:7191  vk.beta = Pairing.G2Point([uint256(0x251a596db059ea83f20caa9d1b4374816cca7f5f9c9c390f909d7f434686a58f), uint256(0x291f5a2ff34731a219db79627796becab5d92e4ad89249ae03b39b65737d1983)], [uint256(0x2d509c0da4ab56f26890d29d0cdd6f5a4a9cedf0aa81f06e8487617918947eea), uint256(0x2204201ec00a2d0da8b4cb010c79f4ebcecbf9707e6f4f551e4d1f862073dac3)]) */\n      dup2\n      swap1\n      mstore\n      pop\n        /* \"verifier.sol\":7212:7539  Pairing.G2Point([uint256(0x1dd14e44f2b02a66b5e29b44aa92bf941419d625f4616fc2a95e77fd5811dadb), uint256(0x26a61cc4785a135211c384bd63d8f0a31af7a4cde00f3e9988e5443c87952b34)], [uint256(0x15aabbe70630d13fe6b322ab27d8324a46fab2e9198377f9c6cd346672774534), uint256(0x1554660dda2fa742dea97963e3fd288334955bcbbce2f7a49a5954bd3420039a)]) */\n      mload(0x40)\n      dup1\n      0x40\n      add\n      0x40\n      mstore\n      dup1\n      mload(0x40)\n      dup1\n      0x40\n      add\n      0x40\n      mstore\n      dup1\n        /* \"verifier.sol\":7237:7303  0x1dd14e44f2b02a66b5e29b44aa92bf941419d625f4616fc2a95e77fd5811dadb */\n      0x1dd14e44f2b02a66b5e29b44aa92bf941419d625f4616fc2a95e77fd5811dadb\n        /* \"verifier.sol\":7212:7539  Pairing.G2Point([uint256(0x1dd14e44f2b02a66b5e29b44aa92bf941419d625f4616fc2a95e77fd5811dadb), uint256(0x26a61cc4785a135211c384bd63d8f0a31af7a4cde00f3e9988e5443c87952b34)], [uint256(0x15aabbe70630d13fe6b322ab27d8324a46fab2e9198377f9c6cd346672774534), uint256(0x1554660dda2fa742dea97963e3fd288334955bcbbce2f7a49a5954bd3420039a)]) */\n      dup2\n      mstore\n      0x20\n      add\n        /* \"verifier.sol\":7314:7380  0x26a61cc4785a135211c384bd63d8f0a31af7a4cde00f3e9988e5443c87952b34 */\n      0x26a61cc4785a135211c384bd63d8f0a31af7a4cde00f3e9988e5443c87952b34\n        /* \"verifier.sol\":7212:7539  Pairing.G2Point([uint256(0x1dd14e44f2b02a66b5e29b44aa92bf941419d625f4616fc2a95e77fd5811dadb), uint256(0x26a61cc4785a135211c384bd63d8f0a31af7a4cde00f3e9988e5443c87952b34)], [uint256(0x15aabbe70630d13fe6b322ab27d8324a46fab2e9198377f9c6cd346672774534), uint256(0x1554660dda2fa742dea97963e3fd288334955bcbbce2f7a49a5954bd3420039a)]) */\n      dup2\n      mstore\n      pop\n      dup2\n      mstore\n      0x20\n      add\n      mload(0x40)\n      dup1\n      0x40\n      add\n      0x40\n      mstore\n      dup1\n        /* \"verifier.sol\":7393:7459  0x15aabbe70630d13fe6b322ab27d8324a46fab2e9198377f9c6cd346672774534 */\n      0x15aabbe70630d13fe6b322ab27d8324a46fab2e9198377f9c6cd346672774534\n        /* \"verifier.sol\":7212:7539  Pairing.G2Point([uint256(0x1dd14e44f2b02a66b5e29b44aa92bf941419d625f4616fc2a95e77fd5811dadb), uint256(0x26a61cc4785a135211c384bd63d8f0a31af7a4cde00f3e9988e5443c87952b34)], [uint256(0x15aabbe70630d13fe6b322ab27d8324a46fab2e9198377f9c6cd346672774534), uint256(0x1554660dda2fa742dea97963e3fd288334955bcbbce2f7a49a5954bd3420039a)]) */\n      dup2\n      mstore\n      0x20\n      add\n        /* \"verifier.sol\":7470:7536  0x1554660dda2fa742dea97963e3fd288334955bcbbce2f7a49a5954bd3420039a */\n      0x1554660dda2fa742dea97963e3fd288334955bcbbce2f7a49a5954bd3420039a\n        /* \"verifier.sol\":7212:7539  Pairing.G2Point([uint256(0x1dd14e44f2b02a66b5e29b44aa92bf941419d625f4616fc2a95e77fd5811dadb), uint256(0x26a61cc4785a135211c384bd63d8f0a31af7a4cde00f3e9988e5443c87952b34)], [uint256(0x15aabbe70630d13fe6b322ab27d8324a46fab2e9198377f9c6cd346672774534), uint256(0x1554660dda2fa742dea97963e3fd288334955bcbbce2f7a49a5954bd3420039a)]) */\n      dup2\n      mstore\n      pop\n      dup2\n      mstore\n      pop\n        /* \"verifier.sol\":7201:7203  vk */\n      dup2\n        /* \"verifier.sol\":7201:7209  vk.gamma */\n      0x40\n      add\n        /* \"verifier.sol\":7201:7539  vk.gamma = Pairing.G2Point([uint256(0x1dd14e44f2b02a66b5e29b44aa92bf941419d625f4616fc2a95e77fd5811dadb), uint256(0x26a61cc4785a135211c384bd63d8f0a31af7a4cde00f3e9988e5443c87952b34)], [uint256(0x15aabbe70630d13fe6b322ab27d8324a46fab2e9198377f9c6cd346672774534), uint256(0x1554660dda2fa742dea97963e3fd288334955bcbbce2f7a49a5954bd3420039a)]) */\n      dup2\n      swap1\n      mstore\n      pop\n        /* \"verifier.sol\":7560:7887  Pairing.G2Point([uint256(0x2d836df4b09b09bc96a308a8457129bd716ac8996628901ba014777e38b91d36), uint256(0x204672d7224748a862be81d235d059a0d0b61cd8e9ba31e0b7a54b0884a28b1b)], [uint256(0x19437a9cdfd12b7d453b5193141d0cfbbdf41cd30a886d7a0d92b34c5e2324d5), uint256(0x1e49c1f10b587d76b876e8ff64d69e3a22ad9704d67d53ca05b5a5706d339d3d)]) */\n      mload(0x40)\n      dup1\n      0x40\n      add\n      0x40\n      mstore\n      dup1\n      mload(0x40)\n      dup1\n      0x40\n      add\n      0x40\n      mstore\n      dup1\n        /* \"verifier.sol\":7585:7651  0x2d836df4b09b09bc96a308a8457129bd716ac8996628901ba014777e38b91d36 */\n      0x2d836df4b09b09bc96a308a8457129bd716ac8996628901ba014777e38b91d36\n        /* \"verifier.sol\":7560:7887  Pairing.G2Point([uint256(0x2d836df4b09b09bc96a308a8457129bd716ac8996628901ba014777e38b91d36), uint256(0x204672d7224748a862be81d235d059a0d0b61cd8e9ba31e0b7a54b0884a28b1b)], [uint256(0x19437a9cdfd12b7d453b5193141d0cfbbdf41cd30a886d7a0d92b34c5e2324d5), uint256(0x1e49c1f10b587d76b876e8ff64d69e3a22ad9704d67d53ca05b5a5706d339d3d)]) */\n      dup2\n      mstore\n      0x20\n      add\n        /* \"verifier.sol\":7662:7728  0x204672d7224748a862be81d235d059a0d0b61cd8e9ba31e0b7a54b0884a28b1b */\n      0x204672d7224748a862be81d235d059a0d0b61cd8e9ba31e0b7a54b0884a28b1b\n        /* \"verifier.sol\":7560:7887  Pairing.G2Point([uint256(0x2d836df4b09b09bc96a308a8457129bd716ac8996628901ba014777e38b91d36), uint256(0x204672d7224748a862be81d235d059a0d0b61cd8e9ba31e0b7a54b0884a28b1b)], [uint256(0x19437a9cdfd12b7d453b5193141d0cfbbdf41cd30a886d7a0d92b34c5e2324d5), uint256(0x1e49c1f10b587d76b876e8ff64d69e3a22ad9704d67d53ca05b5a5706d339d3d)]) */\n      dup2\n      mstore\n      pop\n      dup2\n      mstore\n      0x20\n      add\n      mload(0x40)\n      dup1\n      0x40\n      add\n      0x40\n      mstore\n      dup1\n        /* \"verifier.sol\":7741:7807  0x19437a9cdfd12b7d453b5193141d0cfbbdf41cd30a886d7a0d92b34c5e2324d5 */\n      0x19437a9cdfd12b7d453b5193141d0cfbbdf41cd30a886d7a0d92b34c5e2324d5\n        /* \"verifier.sol\":7560:7887  Pairing.G2Point([uint256(0x2d836df4b09b09bc96a308a8457129bd716ac8996628901ba014777e38b91d36), uint256(0x204672d7224748a862be81d235d059a0d0b61cd8e9ba31e0b7a54b0884a28b1b)], [uint256(0x19437a9cdfd12b7d453b5193141d0cfbbdf41cd30a886d7a0d92b34c5e2324d5), uint256(0x1e49c1f10b587d76b876e8ff64d69e3a22ad9704d67d53ca05b5a5706d339d3d)]) */\n      dup2\n      mstore\n      0x20\n      add\n        /* \"verifier.sol\":7818:7884  0x1e49c1f10b587d76b876e8ff64d69e3a22ad9704d67d53ca05b5a5706d339d3d */\n      0x1e49c1f10b587d76b876e8ff64d69e3a22ad9704d67d53ca05b5a5706d339d3d\n        /* \"verifier.sol\":7560:7887  Pairing.G2Point([uint256(0x2d836df4b09b09bc96a308a8457129bd716ac8996628901ba014777e38b91d36), uint256(0x204672d7224748a862be81d235d059a0d0b61cd8e9ba31e0b7a54b0884a28b1b)], [uint256(0x19437a9cdfd12b7d453b5193141d0cfbbdf41cd30a886d7a0d92b34c5e2324d5), uint256(0x1e49c1f10b587d76b876e8ff64d69e3a22ad9704d67d53ca05b5a5706d339d3d)]) */\n      dup2\n      mstore\n      pop\n      dup2\n      mstore\n      pop\n        /* \"verifier.sol\":7549:7551  vk */\n      dup2\n        /* \"verifier.sol\":7549:7557  vk.delta */\n      0x60\n      add\n        /* \"verifier.sol\":7549:7887  vk.delta = Pairing.G2Point([uint256(0x2d836df4b09b09bc96a308a8457129bd716ac8996628901ba014777e38b91d36), uint256(0x204672d7224748a862be81d235d059a0d0b61cd8e9ba31e0b7a54b0884a28b1b)], [uint256(0x19437a9cdfd12b7d453b5193141d0cfbbdf41cd30a886d7a0d92b34c5e2324d5), uint256(0x1e49c1f10b587d76b876e8ff64d69e3a22ad9704d67d53ca05b5a5706d339d3d)]) */\n      dup2\n      swap1\n      mstore\n      pop\n        /* \"verifier.sol\":7934:7935  1 */\n      0x01\n        /* \"verifier.sol\":7912:7936  new Pairing.G1Point[](1) */\n      0xffffffffffffffff\n      dup2\n      gt\n      iszero\n      tag_56\n      jumpi\n      tag_57\n      tag_13\n      jump\t// in\n    tag_57:\n    tag_56:\n      mload(0x40)\n      swap1\n      dup1\n      dup3\n      mstore\n      dup1\n      0x20\n      mul\n      0x20\n      add\n      dup3\n      add\n      0x40\n      mstore\n      dup1\n      iszero\n      tag_58\n      jumpi\n      dup2\n      0x20\n      add\n    tag_59:\n      tag_60\n      tag_61\n      jump\t// in\n    tag_60:\n      dup2\n      mstore\n      0x20\n      add\n      swap1\n      0x01\n      swap1\n      sub\n      swap1\n      dup2\n      tag_59\n      jumpi\n      swap1\n      pop\n    tag_58:\n      pop\n        /* \"verifier.sol\":7897:7899  vk */\n      dup2\n        /* \"verifier.sol\":7897:7909  vk.gamma_abc */\n      0x80\n      add\n        /* \"verifier.sol\":7897:7936  vk.gamma_abc = new Pairing.G1Point[](1) */\n      dup2\n      swap1\n      mstore\n      pop\n        /* \"verifier.sol\":7964:8133  Pairing.G1Point(uint256(0x0ba3aaceace761acc25977784cffe381c89288ee0c978c0c256b93cd7c2f552f), uint256(0x06bd36158541f776b681ec199087fcb24d44e92330b055c7e7ebd5f9edcb7d68)) */\n      mload(0x40)\n      dup1\n      0x40\n      add\n      0x40\n      mstore\n      dup1\n        /* \"verifier.sol\":7988:8054  0x0ba3aaceace761acc25977784cffe381c89288ee0c978c0c256b93cd7c2f552f */\n      0x0ba3aaceace761acc25977784cffe381c89288ee0c978c0c256b93cd7c2f552f\n        /* \"verifier.sol\":7964:8133  Pairing.G1Point(uint256(0x0ba3aaceace761acc25977784cffe381c89288ee0c978c0c256b93cd7c2f552f), uint256(0x06bd36158541f776b681ec199087fcb24d44e92330b055c7e7ebd5f9edcb7d68)) */\n      dup2\n      mstore\n      0x20\n      add\n        /* \"verifier.sol\":8065:8131  0x06bd36158541f776b681ec199087fcb24d44e92330b055c7e7ebd5f9edcb7d68 */\n      0x06bd36158541f776b681ec199087fcb24d44e92330b055c7e7ebd5f9edcb7d68\n        /* \"verifier.sol\":7964:8133  Pairing.G1Point(uint256(0x0ba3aaceace761acc25977784cffe381c89288ee0c978c0c256b93cd7c2f552f), uint256(0x06bd36158541f776b681ec199087fcb24d44e92330b055c7e7ebd5f9edcb7d68)) */\n      dup2\n      mstore\n      pop\n        /* \"verifier.sol\":7946:7948  vk */\n      dup2\n        /* \"verifier.sol\":7946:7958  vk.gamma_abc */\n      0x80\n      add\n      mload\n        /* \"verifier.sol\":7959:7960  0 */\n      0x00\n        /* \"verifier.sol\":7946:7961  vk.gamma_abc[0] */\n      dup2\n      mload\n      dup2\n      lt\n      tag_62\n      jumpi\n      tag_63\n      tag_30\n      jump\t// in\n    tag_63:\n    tag_62:\n      0x20\n      mul\n      0x20\n      add\n      add\n        /* \"verifier.sol\":7946:8133  vk.gamma_abc[0] = Pairing.G1Point(uint256(0x0ba3aaceace761acc25977784cffe381c89288ee0c978c0c256b93cd7c2f552f), uint256(0x06bd36158541f776b681ec199087fcb24d44e92330b055c7e7ebd5f9edcb7d68)) */\n      dup2\n      swap1\n      mstore\n      pop\n        /* \"verifier.sol\":6583:8140  function verifyingKey() pure internal returns (VerifyingKey memory vk) {... */\n      swap1\n      jump\t// out\n        /* \"verifier.sol\":3084:3538  function scalar_mul(G1Point memory p, uint s) internal view returns (G1Point memory r) {... */\n    tag_39:\n        /* \"verifier.sol\":3153:3169  G1Point memory r */\n      tag_64\n      tag_61\n      jump\t// in\n    tag_64:\n        /* \"verifier.sol\":3181:3201  uint[3] memory input */\n      tag_66\n      tag_67\n      jump\t// in\n    tag_66:\n        /* \"verifier.sol\":3222:3223  p */\n      dup4\n        /* \"verifier.sol\":3222:3225  p.X */\n      0x00\n      add\n      mload\n        /* \"verifier.sol\":3211:3216  input */\n      dup2\n        /* \"verifier.sol\":3217:3218  0 */\n      0x00\n        /* \"verifier.sol\":3211:3219  input[0] */\n      0x03\n      dup2\n      lt\n      tag_68\n      jumpi\n      tag_69\n      tag_30\n      jump\t// in\n    tag_69:\n    tag_68:\n      0x20\n      mul\n      add\n        /* \"verifier.sol\":3211:3225  input[0] = p.X */\n      dup2\n      dup2\n      mstore\n      pop\n      pop\n        /* \"verifier.sol\":3246:3247  p */\n      dup4\n        /* \"verifier.sol\":3246:3249  p.Y */\n      0x20\n      add\n      mload\n        /* \"verifier.sol\":3235:3240  input */\n      dup2\n        /* \"verifier.sol\":3241:3242  1 */\n      0x01\n        /* \"verifier.sol\":3235:3243  input[1] */\n      0x03\n      dup2\n      lt\n      tag_70\n      jumpi\n      tag_71\n      tag_30\n      jump\t// in\n    tag_71:\n    tag_70:\n      0x20\n      mul\n      add\n        /* \"verifier.sol\":3235:3249  input[1] = p.Y */\n      dup2\n      dup2\n      mstore\n      pop\n      pop\n        /* \"verifier.sol\":3270:3271  s */\n      dup3\n        /* \"verifier.sol\":3259:3264  input */\n      dup2\n        /* \"verifier.sol\":3265:3266  2 */\n      0x02\n        /* \"verifier.sol\":3259:3267  input[2] */\n      0x03\n      dup2\n      lt\n      tag_72\n      jumpi\n      tag_73\n      tag_30\n      jump\t// in\n    tag_73:\n    tag_72:\n      0x20\n      mul\n      add\n        /* \"verifier.sol\":3259:3271  input[2] = s */\n      dup2\n      dup2\n      mstore\n      pop\n      pop\n        /* \"verifier.sol\":3281:3293  bool success */\n      0x00\n        /* \"verifier.sol\":3385:3389  0x60 */\n      0x60\n        /* \"verifier.sol\":3382:3383  r */\n      dup4\n        /* \"verifier.sol\":3376:3380  0x80 */\n      0x80\n        /* \"verifier.sol\":3369:3374  input */\n      dup5\n        /* \"verifier.sol\":3366:3367  7 */\n      0x07\n        /* \"verifier.sol\":3359:3363  2000 */\n      0x07d0\n        /* \"verifier.sol\":3352:3357  gas() */\n      gas\n        /* \"verifier.sol\":3348:3364  sub(gas(), 2000) */\n      sub\n        /* \"verifier.sol\":3337:3390  staticcall(sub(gas(), 2000), 7, input, 0x80, r, 0x60) */\n      staticcall\n        /* \"verifier.sol\":3326:3390  success := staticcall(sub(gas(), 2000), 7, input, 0x80, r, 0x60) */\n      swap1\n      pop\n        /* \"verifier.sol\":3467:3474  success */\n      dup1\n        /* \"verifier.sol\":3480:3481  0 */\n      0x00\n        /* \"verifier.sol\":3475:3495  case 0 { invalid() } */\n      dup2\n      sub\n        /* \"verifier.sol\":3460:3495  switch success case 0 { invalid() } */\n      tag_74\n        /* \"verifier.sol\":3475:3495  case 0 { invalid() } */\n      jumpi\n        /* \"verifier.sol\":3484:3493  invalid() */\n      invalid\n        /* \"verifier.sol\":3460:3495  switch success case 0 { invalid() } */\n    tag_74:\n      pop\n        /* \"verifier.sol\":3523:3530  success */\n      dup1\n        /* \"verifier.sol\":3514:3531  require (success) */\n      tag_76\n      jumpi\n      0x00\n      dup1\n      revert\n    tag_76:\n        /* \"verifier.sol\":3171:3538  {... */\n      pop\n      pop\n        /* \"verifier.sol\":3084:3538  function scalar_mul(G1Point memory p, uint s) internal view returns (G1Point memory r) {... */\n      swap3\n      swap2\n      pop\n      pop\n      jump\t// out\n        /* \"verifier.sol\":2434:2927  function addition(G1Point memory p1, G1Point memory p2) internal view returns (G1Point memory r) {... */\n    tag_40:\n        /* \"verifier.sol\":2513:2529  G1Point memory r */\n      tag_77\n      tag_61\n      jump\t// in\n    tag_77:\n        /* \"verifier.sol\":2541:2561  uint[4] memory input */\n      tag_79\n      tag_80\n      jump\t// in\n    tag_79:\n        /* \"verifier.sol\":2582:2584  p1 */\n      dup4\n        /* \"verifier.sol\":2582:2586  p1.X */\n      0x00\n      add\n      mload\n        /* \"verifier.sol\":2571:2576  input */\n      dup2\n        /* \"verifier.sol\":2577:2578  0 */\n      0x00\n        /* \"verifier.sol\":2571:2579  input[0] */\n      0x04\n      dup2\n      lt\n      tag_81\n      jumpi\n      tag_82\n      tag_30\n      jump\t// in\n    tag_82:\n    tag_81:\n      0x20\n      mul\n      add\n        /* \"verifier.sol\":2571:2586  input[0] = p1.X */\n      dup2\n      dup2\n      mstore\n      pop\n      pop\n        /* \"verifier.sol\":2607:2609  p1 */\n      dup4\n        /* \"verifier.sol\":2607:2611  p1.Y */\n      0x20\n      add\n      mload\n        /* \"verifier.sol\":2596:2601  input */\n      dup2\n        /* \"verifier.sol\":2602:2603  1 */\n      0x01\n        /* \"verifier.sol\":2596:2604  input[1] */\n      0x04\n      dup2\n      lt\n      tag_83\n      jumpi\n      tag_84\n      tag_30\n      jump\t// in\n    tag_84:\n    tag_83:\n      0x20\n      mul\n      add\n        /* \"verifier.sol\":2596:2611  input[1] = p1.Y */\n      dup2\n      dup2\n      mstore\n      pop\n      pop\n        /* \"verifier.sol\":2632:2634  p2 */\n      dup3\n        /* \"verifier.sol\":2632:2636  p2.X */\n      0x00\n      add\n      mload\n        /* \"verifier.sol\":2621:2626  input */\n      dup2\n        /* \"verifier.sol\":2627:2628  2 */\n      0x02\n        /* \"verifier.sol\":2621:2629  input[2] */\n      0x04\n      dup2\n      lt\n      tag_85\n      jumpi\n      tag_86\n      tag_30\n      jump\t// in\n    tag_86:\n    tag_85:\n      0x20\n      mul\n      add\n        /* \"verifier.sol\":2621:2636  input[2] = p2.X */\n      dup2\n      dup2\n      mstore\n      pop\n      pop\n        /* \"verifier.sol\":2657:2659  p2 */\n      dup3\n        /* \"verifier.sol\":2657:2661  p2.Y */\n      0x20\n      add\n      mload\n        /* \"verifier.sol\":2646:2651  input */\n      dup2\n        /* \"verifier.sol\":2652:2653  3 */\n      0x03\n        /* \"verifier.sol\":2646:2654  input[3] */\n      0x04\n      dup2\n      lt\n      tag_87\n      jumpi\n      tag_88\n      tag_30\n      jump\t// in\n    tag_88:\n    tag_87:\n      0x20\n      mul\n      add\n        /* \"verifier.sol\":2646:2661  input[3] = p2.Y */\n      dup2\n      dup2\n      mstore\n      pop\n      pop\n        /* \"verifier.sol\":2671:2683  bool success */\n      0x00\n        /* \"verifier.sol\":2775:2779  0x60 */\n      0x60\n        /* \"verifier.sol\":2772:2773  r */\n      dup4\n        /* \"verifier.sol\":2766:2770  0xc0 */\n      0xc0\n        /* \"verifier.sol\":2759:2764  input */\n      dup5\n        /* \"verifier.sol\":2756:2757  6 */\n      0x06\n        /* \"verifier.sol\":2749:2753  2000 */\n      0x07d0\n        /* \"verifier.sol\":2742:2747  gas() */\n      gas\n        /* \"verifier.sol\":2738:2754  sub(gas(), 2000) */\n      sub\n        /* \"verifier.sol\":2727:2780  staticcall(sub(gas(), 2000), 6, input, 0xc0, r, 0x60) */\n      staticcall\n        /* \"verifier.sol\":2716:2780  success := staticcall(sub(gas(), 2000), 6, input, 0xc0, r, 0x60) */\n      swap1\n      pop\n        /* \"verifier.sol\":2857:2864  success */\n      dup1\n        /* \"verifier.sol\":2870:2871  0 */\n      0x00\n        /* \"verifier.sol\":2865:2885  case 0 { invalid() } */\n      dup2\n      sub\n        /* \"verifier.sol\":2850:2885  switch success case 0 { invalid() } */\n      tag_89\n        /* \"verifier.sol\":2865:2885  case 0 { invalid() } */\n      jumpi\n        /* \"verifier.sol\":2874:2883  invalid() */\n      invalid\n        /* \"verifier.sol\":2850:2885  switch success case 0 { invalid() } */\n    tag_89:\n      pop\n        /* \"verifier.sol\":2912:2919  success */\n      dup1\n        /* \"verifier.sol\":2904:2920  require(success) */\n      tag_91\n      jumpi\n      0x00\n      dup1\n      revert\n    tag_91:\n        /* \"verifier.sol\":2531:2927  {... */\n      pop\n      pop\n        /* \"verifier.sol\":2434:2927  function addition(G1Point memory p1, G1Point memory p2) internal view returns (G1Point memory r) {... */\n      swap3\n      swap2\n      pop\n      pop\n      jump\t// out\n        /* \"verifier.sol\":2043:2383  function negate(G1Point memory p) pure internal returns (G1Point memory) {... */\n    tag_48:\n        /* \"verifier.sol\":2100:2114  G1Point memory */\n      tag_92\n      tag_61\n      jump\t// in\n    tag_92:\n        /* \"verifier.sol\":2178:2184  uint q */\n      0x00\n        /* \"verifier.sol\":2187:2264  21888242871839275222246405745257275088696311157297823662689037894645226208583 */\n      0x30644e72e131a029b85045b68181585d97816a916871ca8d3c208c16d87cfd47\n        /* \"verifier.sol\":2178:2264  uint q = 21888242871839275222246405745257275088696311157297823662689037894645226208583 */\n      swap1\n      pop\n        /* \"verifier.sol\":2285:2286  0 */\n      0x00\n        /* \"verifier.sol\":2278:2279  p */\n      dup4\n        /* \"verifier.sol\":2278:2281  p.X */\n      0x00\n      add\n      mload\n        /* \"verifier.sol\":2278:2286  p.X == 0 */\n      eq\n        /* \"verifier.sol\":2278:2298  p.X == 0 && p.Y == 0 */\n      dup1\n      iszero\n      tag_94\n      jumpi\n      pop\n        /* \"verifier.sol\":2297:2298  0 */\n      0x00\n        /* \"verifier.sol\":2290:2291  p */\n      dup4\n        /* \"verifier.sol\":2290:2293  p.Y */\n      0x20\n      add\n      mload\n        /* \"verifier.sol\":2290:2298  p.Y == 0 */\n      eq\n        /* \"verifier.sol\":2278:2298  p.X == 0 && p.Y == 0 */\n    tag_94:\n        /* \"verifier.sol\":2274:2332  if (p.X == 0 && p.Y == 0)... */\n      iszero\n      tag_95\n      jumpi\n        /* \"verifier.sol\":2319:2332  G1Point(0, 0) */\n      mload(0x40)\n      dup1\n      0x40\n      add\n      0x40\n      mstore\n      dup1\n        /* \"verifier.sol\":2327:2328  0 */\n      0x00\n        /* \"verifier.sol\":2319:2332  G1Point(0, 0) */\n      dup2\n      mstore\n      0x20\n      add\n        /* \"verifier.sol\":2330:2331  0 */\n      0x00\n        /* \"verifier.sol\":2319:2332  G1Point(0, 0) */\n      dup2\n      mstore\n      pop\n        /* \"verifier.sol\":2312:2332  return G1Point(0, 0) */\n      swap2\n      pop\n      pop\n      jump(tag_93)\n        /* \"verifier.sol\":2274:2332  if (p.X == 0 && p.Y == 0)... */\n    tag_95:\n        /* \"verifier.sol\":2349:2376  G1Point(p.X, q - (p.Y % q)) */\n      mload(0x40)\n      dup1\n      0x40\n      add\n      0x40\n      mstore\n      dup1\n        /* \"verifier.sol\":2357:2358  p */\n      dup5\n        /* \"verifier.sol\":2357:2360  p.X */\n      0x00\n      add\n      mload\n        /* \"verifier.sol\":2349:2376  G1Point(p.X, q - (p.Y % q)) */\n      dup2\n      mstore\n      0x20\n      add\n        /* \"verifier.sol\":2373:2374  q */\n      dup3\n        /* \"verifier.sol\":2367:2368  p */\n      dup6\n        /* \"verifier.sol\":2367:2370  p.Y */\n      0x20\n      add\n      mload\n        /* \"verifier.sol\":2367:2374  p.Y % q */\n      tag_96\n      swap2\n      swap1\n      tag_97\n      jump\t// in\n    tag_96:\n        /* \"verifier.sol\":2362:2363  q */\n      dup4\n        /* \"verifier.sol\":2362:2375  q - (p.Y % q) */\n      tag_98\n      swap2\n      swap1\n      tag_99\n      jump\t// in\n    tag_98:\n        /* \"verifier.sol\":2349:2376  G1Point(p.X, q - (p.Y % q)) */\n      dup2\n      mstore\n      pop\n        /* \"verifier.sol\":2342:2376  return G1Point(p.X, q - (p.Y % q)) */\n      swap2\n      pop\n      pop\n        /* \"verifier.sol\":2043:2383  function negate(G1Point memory p) pure internal returns (G1Point memory) {... */\n    tag_93:\n      swap2\n      swap1\n      pop\n      jump\t// out\n        /* \"verifier.sol\":5680:6232  function pairingProd4(... */\n    tag_51:\n        /* \"verifier.sol\":5931:5935  bool */\n      0x00\n        /* \"verifier.sol\":5947:5966  G1Point[] memory p1 */\n      dup1\n        /* \"verifier.sol\":5983:5984  4 */\n      0x04\n        /* \"verifier.sol\":5969:5985  new G1Point[](4) */\n      0xffffffffffffffff\n      dup2\n      gt\n      iszero\n      tag_101\n      jumpi\n      tag_102\n      tag_13\n      jump\t// in\n    tag_102:\n    tag_101:\n      mload(0x40)\n      swap1\n      dup1\n      dup3\n      mstore\n      dup1\n      0x20\n      mul\n      0x20\n      add\n      dup3\n      add\n      0x40\n      mstore\n      dup1\n      iszero\n      tag_103\n      jumpi\n      dup2\n      0x20\n      add\n    tag_104:\n      tag_105\n      tag_61\n      jump\t// in\n    tag_105:\n      dup2\n      mstore\n      0x20\n      add\n      swap1\n      0x01\n      swap1\n      sub\n      swap1\n      dup2\n      tag_104\n      jumpi\n      swap1\n      pop\n    tag_103:\n      pop\n        /* \"verifier.sol\":5947:5985  G1Point[] memory p1 = new G1Point[](4) */\n      swap1\n      pop\n        /* \"verifier.sol\":5995:6014  G2Point[] memory p2 */\n      0x00\n        /* \"verifier.sol\":6031:6032  4 */\n      0x04\n        /* \"verifier.sol\":6017:6033  new G2Point[](4) */\n      0xffffffffffffffff\n      dup2\n      gt\n      iszero\n      tag_106\n      jumpi\n      tag_107\n      tag_13\n      jump\t// in\n    tag_107:\n    tag_106:\n      mload(0x40)\n      swap1\n      dup1\n      dup3\n      mstore\n      dup1\n      0x20\n      mul\n      0x20\n      add\n      dup3\n      add\n      0x40\n      mstore\n      dup1\n      iszero\n      tag_108\n      jumpi\n      dup2\n      0x20\n      add\n    tag_109:\n      tag_110\n      tag_111\n      jump\t// in\n    tag_110:\n      dup2\n      mstore\n      0x20\n      add\n      swap1\n      0x01\n      swap1\n      sub\n      swap1\n      dup2\n      tag_109\n      jumpi\n      swap1\n      pop\n    tag_108:\n      pop\n        /* \"verifier.sol\":5995:6033  G2Point[] memory p2 = new G2Point[](4) */\n      swap1\n      pop\n        /* \"verifier.sol\":6051:6053  a1 */\n      dup11\n        /* \"verifier.sol\":6043:6045  p1 */\n      dup3\n        /* \"verifier.sol\":6046:6047  0 */\n      0x00\n        /* \"verifier.sol\":6043:6048  p1[0] */\n      dup2\n      mload\n      dup2\n      lt\n      tag_112\n      jumpi\n      tag_113\n      tag_30\n      jump\t// in\n    tag_113:\n    tag_112:\n      0x20\n      mul\n      0x20\n      add\n      add\n        /* \"verifier.sol\":6043:6053  p1[0] = a1 */\n      dup2\n      swap1\n      mstore\n      pop\n        /* \"verifier.sol\":6071:6073  b1 */\n      dup9\n        /* \"verifier.sol\":6063:6065  p1 */\n      dup3\n        /* \"verifier.sol\":6066:6067  1 */\n      0x01\n        /* \"verifier.sol\":6063:6068  p1[1] */\n      dup2\n      mload\n      dup2\n      lt\n      tag_114\n      jumpi\n      tag_115\n      tag_30\n      jump\t// in\n    tag_115:\n    tag_114:\n      0x20\n      mul\n      0x20\n      add\n      add\n        /* \"verifier.sol\":6063:6073  p1[1] = b1 */\n      dup2\n      swap1\n      mstore\n      pop\n        /* \"verifier.sol\":6091:6093  c1 */\n      dup7\n        /* \"verifier.sol\":6083:6085  p1 */\n      dup3\n        /* \"verifier.sol\":6086:6087  2 */\n      0x02\n        /* \"verifier.sol\":6083:6088  p1[2] */\n      dup2\n      mload\n      dup2\n      lt\n      tag_116\n      jumpi\n      tag_117\n      tag_30\n      jump\t// in\n    tag_117:\n    tag_116:\n      0x20\n      mul\n      0x20\n      add\n      add\n        /* \"verifier.sol\":6083:6093  p1[2] = c1 */\n      dup2\n      swap1\n      mstore\n      pop\n        /* \"verifier.sol\":6111:6113  d1 */\n      dup5\n        /* \"verifier.sol\":6103:6105  p1 */\n      dup3\n        /* \"verifier.sol\":6106:6107  3 */\n      0x03\n        /* \"verifier.sol\":6103:6108  p1[3] */\n      dup2\n      mload\n      dup2\n      lt\n      tag_118\n      jumpi\n      tag_119\n      tag_30\n      jump\t// in\n    tag_119:\n    tag_118:\n      0x20\n      mul\n      0x20\n      add\n      add\n        /* \"verifier.sol\":6103:6113  p1[3] = d1 */\n      dup2\n      swap1\n      mstore\n      pop\n        /* \"verifier.sol\":6131:6133  a2 */\n      dup10\n        /* \"verifier.sol\":6123:6125  p2 */\n      dup2\n        /* \"verifier.sol\":6126:6127  0 */\n      0x00\n        /* \"verifier.sol\":6123:6128  p2[0] */\n      dup2\n      mload\n      dup2\n      lt\n      tag_120\n      jumpi\n      tag_121\n      tag_30\n      jump\t// in\n    tag_121:\n    tag_120:\n      0x20\n      mul\n      0x20\n      add\n      add\n        /* \"verifier.sol\":6123:6133  p2[0] = a2 */\n      dup2\n      swap1\n      mstore\n      pop\n        /* \"verifier.sol\":6151:6153  b2 */\n      dup8\n        /* \"verifier.sol\":6143:6145  p2 */\n      dup2\n        /* \"verifier.sol\":6146:6147  1 */\n      0x01\n        /* \"verifier.sol\":6143:6148  p2[1] */\n      dup2\n      mload\n      dup2\n      lt\n      tag_122\n      jumpi\n      tag_123\n      tag_30\n      jump\t// in\n    tag_123:\n    tag_122:\n      0x20\n      mul\n      0x20\n      add\n      add\n        /* \"verifier.sol\":6143:6153  p2[1] = b2 */\n      dup2\n      swap1\n      mstore\n      pop\n        /* \"verifier.sol\":6171:6173  c2 */\n      dup6\n        /* \"verifier.sol\":6163:6165  p2 */\n      dup2\n        /* \"verifier.sol\":6166:6167  2 */\n      0x02\n        /* \"verifier.sol\":6163:6168  p2[2] */\n      dup2\n      mload\n      dup2\n      lt\n      tag_124\n      jumpi\n      tag_125\n      tag_30\n      jump\t// in\n    tag_125:\n    tag_124:\n      0x20\n      mul\n      0x20\n      add\n      add\n        /* \"verifier.sol\":6163:6173  p2[2] = c2 */\n      dup2\n      swap1\n      mstore\n      pop\n        /* \"verifier.sol\":6191:6193  d2 */\n      dup4\n        /* \"verifier.sol\":6183:6185  p2 */\n      dup2\n        /* \"verifier.sol\":6186:6187  3 */\n      0x03\n        /* \"verifier.sol\":6183:6188  p2[3] */\n      dup2\n      mload\n      dup2\n      lt\n      tag_126\n      jumpi\n      tag_127\n      tag_30\n      jump\t// in\n    tag_127:\n    tag_126:\n      0x20\n      mul\n      0x20\n      add\n      add\n        /* \"verifier.sol\":6183:6193  p2[3] = d2 */\n      dup2\n      swap1\n      mstore\n      pop\n        /* \"verifier.sol\":6210:6225  pairing(p1, p2) */\n      tag_128\n        /* \"verifier.sol\":6218:6220  p1 */\n      dup3\n        /* \"verifier.sol\":6222:6224  p2 */\n      dup3\n        /* \"verifier.sol\":6210:6217  pairing */\n      tag_129\n        /* \"verifier.sol\":6210:6225  pairing(p1, p2) */\n      jump\t// in\n    tag_128:\n        /* \"verifier.sol\":6203:6225  return pairing(p1, p2) */\n      swap3\n      pop\n      pop\n      pop\n        /* \"verifier.sol\":5680:6232  function pairingProd4(... */\n      swap9\n      swap8\n      pop\n      pop\n      pop\n      pop\n      pop\n      pop\n      pop\n      pop\n      jump\t// out\n        /* \"verifier.sol\":3749:4672  function pairing(G1Point[] memory p1, G2Point[] memory p2) internal view returns (bool) {... */\n    tag_129:\n        /* \"verifier.sol\":3831:3835  bool */\n      0x00\n        /* \"verifier.sol\":3868:3870  p2 */\n      dup2\n        /* \"verifier.sol\":3868:3877  p2.length */\n      mload\n        /* \"verifier.sol\":3855:3857  p1 */\n      dup4\n        /* \"verifier.sol\":3855:3864  p1.length */\n      mload\n        /* \"verifier.sol\":3855:3877  p1.length == p2.length */\n      eq\n        /* \"verifier.sol\":3847:3878  require(p1.length == p2.length) */\n      tag_131\n      jumpi\n      0x00\n      dup1\n      revert\n    tag_131:\n        /* \"verifier.sol\":3888:3901  uint elements */\n      0x00\n        /* \"verifier.sol\":3904:3906  p1 */\n      dup4\n        /* \"verifier.sol\":3904:3913  p1.length */\n      mload\n        /* \"verifier.sol\":3888:3913  uint elements = p1.length */\n      swap1\n      pop\n        /* \"verifier.sol\":3923:3937  uint inputSize */\n      0x00\n        /* \"verifier.sol\":3951:3952  6 */\n      0x06\n        /* \"verifier.sol\":3940:3948  elements */\n      dup3\n        /* \"verifier.sol\":3940:3952  elements * 6 */\n      tag_132\n      swap2\n      swap1\n      tag_133\n      jump\t// in\n    tag_132:\n        /* \"verifier.sol\":3923:3952  uint inputSize = elements * 6 */\n      swap1\n      pop\n        /* \"verifier.sol\":3962:3981  uint[] memory input */\n      0x00\n        /* \"verifier.sol\":3995:4004  inputSize */\n      dup2\n        /* \"verifier.sol\":3984:4005  new uint[](inputSize) */\n      0xffffffffffffffff\n      dup2\n      gt\n      iszero\n      tag_134\n      jumpi\n      tag_135\n      tag_13\n      jump\t// in\n    tag_135:\n    tag_134:\n      mload(0x40)\n      swap1\n      dup1\n      dup3\n      mstore\n      dup1\n      0x20\n      mul\n      0x20\n      add\n      dup3\n      add\n      0x40\n      mstore\n      dup1\n      iszero\n      tag_136\n      jumpi\n      dup2\n      0x20\n      add\n      0x20\n      dup3\n      mul\n      dup1\n      calldatasize\n      dup4\n      calldatacopy\n      dup1\n      dup3\n      add\n      swap2\n      pop\n      pop\n      swap1\n      pop\n    tag_136:\n      pop\n        /* \"verifier.sol\":3962:4005  uint[] memory input = new uint[](inputSize) */\n      swap1\n      pop\n        /* \"verifier.sol\":4020:4026  uint i */\n      0x00\n        /* \"verifier.sol\":4015:4322  for (uint i = 0; i < elements; i++)... */\n    tag_137:\n        /* \"verifier.sol\":4036:4044  elements */\n      dup4\n        /* \"verifier.sol\":4032:4033  i */\n      dup2\n        /* \"verifier.sol\":4032:4044  i < elements */\n      lt\n        /* \"verifier.sol\":4015:4322  for (uint i = 0; i < elements; i++)... */\n      iszero\n      tag_138\n      jumpi\n        /* \"verifier.sol\":4092:4094  p1 */\n      dup7\n        /* \"verifier.sol\":4095:4096  i */\n      dup2\n        /* \"verifier.sol\":4092:4097  p1[i] */\n      dup2\n      mload\n      dup2\n      lt\n      tag_140\n      jumpi\n      tag_141\n      tag_30\n      jump\t// in\n    tag_141:\n    tag_140:\n      0x20\n      mul\n      0x20\n      add\n      add\n      mload\n        /* \"verifier.sol\":4092:4099  p1[i].X */\n      0x00\n      add\n      mload\n        /* \"verifier.sol\":4073:4078  input */\n      dup3\n        /* \"verifier.sol\":4087:4088  0 */\n      0x00\n        /* \"verifier.sol\":4083:4084  6 */\n      0x06\n        /* \"verifier.sol\":4079:4080  i */\n      dup5\n        /* \"verifier.sol\":4079:4084  i * 6 */\n      tag_142\n      swap2\n      swap1\n      tag_133\n      jump\t// in\n    tag_142:\n        /* \"verifier.sol\":4079:4088  i * 6 + 0 */\n      tag_143\n      swap2\n      swap1\n      tag_23\n      jump\t// in\n    tag_143:\n        /* \"verifier.sol\":4073:4089  input[i * 6 + 0] */\n      dup2\n      mload\n      dup2\n      lt\n      tag_144\n      jumpi\n      tag_145\n      tag_30\n      jump\t// in\n    tag_145:\n    tag_144:\n      0x20\n      mul\n      0x20\n      add\n      add\n        /* \"verifier.sol\":4073:4099  input[i * 6 + 0] = p1[i].X */\n      dup2\n      dup2\n      mstore\n      pop\n      pop\n        /* \"verifier.sol\":4132:4134  p1 */\n      dup7\n        /* \"verifier.sol\":4135:4136  i */\n      dup2\n        /* \"verifier.sol\":4132:4137  p1[i] */\n      dup2\n      mload\n      dup2\n      lt\n      tag_146\n      jumpi\n      tag_147\n      tag_30\n      jump\t// in\n    tag_147:\n    tag_146:\n      0x20\n      mul\n      0x20\n      add\n      add\n      mload\n        /* \"verifier.sol\":4132:4139  p1[i].Y */\n      0x20\n      add\n      mload\n        /* \"verifier.sol\":4113:4118  input */\n      dup3\n        /* \"verifier.sol\":4127:4128  1 */\n      0x01\n        /* \"verifier.sol\":4123:4124  6 */\n      0x06\n        /* \"verifier.sol\":4119:4120  i */\n      dup5\n        /* \"verifier.sol\":4119:4124  i * 6 */\n      tag_148\n      swap2\n      swap1\n      tag_133\n      jump\t// in\n    tag_148:\n        /* \"verifier.sol\":4119:4128  i * 6 + 1 */\n      tag_149\n      swap2\n      swap1\n      tag_23\n      jump\t// in\n    tag_149:\n        /* \"verifier.sol\":4113:4129  input[i * 6 + 1] */\n      dup2\n      mload\n      dup2\n      lt\n      tag_150\n      jumpi\n      tag_151\n      tag_30\n      jump\t// in\n    tag_151:\n    tag_150:\n      0x20\n      mul\n      0x20\n      add\n      add\n        /* \"verifier.sol\":4113:4139  input[i * 6 + 1] = p1[i].Y */\n      dup2\n      dup2\n      mstore\n      pop\n      pop\n        /* \"verifier.sol\":4172:4174  p2 */\n      dup6\n        /* \"verifier.sol\":4175:4176  i */\n      dup2\n        /* \"verifier.sol\":4172:4177  p2[i] */\n      dup2\n      mload\n      dup2\n      lt\n      tag_152\n      jumpi\n      tag_153\n      tag_30\n      jump\t// in\n    tag_153:\n    tag_152:\n      0x20\n      mul\n      0x20\n      add\n      add\n      mload\n        /* \"verifier.sol\":4172:4179  p2[i].X */\n      0x00\n      add\n      mload\n        /* \"verifier.sol\":4180:4181  1 */\n      0x01\n        /* \"verifier.sol\":4172:4182  p2[i].X[1] */\n      0x02\n      dup2\n      lt\n      tag_154\n      jumpi\n      tag_155\n      tag_30\n      jump\t// in\n    tag_155:\n    tag_154:\n      0x20\n      mul\n      add\n      mload\n        /* \"verifier.sol\":4153:4158  input */\n      dup3\n        /* \"verifier.sol\":4167:4168  2 */\n      0x02\n        /* \"verifier.sol\":4163:4164  6 */\n      0x06\n        /* \"verifier.sol\":4159:4160  i */\n      dup5\n        /* \"verifier.sol\":4159:4164  i * 6 */\n      tag_156\n      swap2\n      swap1\n      tag_133\n      jump\t// in\n    tag_156:\n        /* \"verifier.sol\":4159:4168  i * 6 + 2 */\n      tag_157\n      swap2\n      swap1\n      tag_23\n      jump\t// in\n    tag_157:\n        /* \"verifier.sol\":4153:4169  input[i * 6 + 2] */\n      dup2\n      mload\n      dup2\n      lt\n      tag_158\n      jumpi\n      tag_159\n      tag_30\n      jump\t// in\n    tag_159:\n    tag_158:\n      0x20\n      mul\n      0x20\n      add\n      add\n        /* \"verifier.sol\":4153:4182  input[i * 6 + 2] = p2[i].X[1] */\n      dup2\n      dup2\n      mstore\n      pop\n      pop\n        /* \"verifier.sol\":4215:4217  p2 */\n      dup6\n        /* \"verifier.sol\":4218:4219  i */\n      dup2\n        /* \"verifier.sol\":4215:4220  p2[i] */\n      dup2\n      mload\n      dup2\n      lt\n      tag_160\n      jumpi\n      tag_161\n      tag_30\n      jump\t// in\n    tag_161:\n    tag_160:\n      0x20\n      mul\n      0x20\n      add\n      add\n      mload\n        /* \"verifier.sol\":4215:4222  p2[i].X */\n      0x00\n      add\n      mload\n        /* \"verifier.sol\":4223:4224  0 */\n      0x00\n        /* \"verifier.sol\":4215:4225  p2[i].X[0] */\n      0x02\n      dup2\n      lt\n      tag_162\n      jumpi\n      tag_163\n      tag_30\n      jump\t// in\n    tag_163:\n    tag_162:\n      0x20\n      mul\n      add\n      mload\n        /* \"verifier.sol\":4196:4201  input */\n      dup3\n        /* \"verifier.sol\":4210:4211  3 */\n      0x03\n        /* \"verifier.sol\":4206:4207  6 */\n      0x06\n        /* \"verifier.sol\":4202:4203  i */\n      dup5\n        /* \"verifier.sol\":4202:4207  i * 6 */\n      tag_164\n      swap2\n      swap1\n      tag_133\n      jump\t// in\n    tag_164:\n        /* \"verifier.sol\":4202:4211  i * 6 + 3 */\n      tag_165\n      swap2\n      swap1\n      tag_23\n      jump\t// in\n    tag_165:\n        /* \"verifier.sol\":4196:4212  input[i * 6 + 3] */\n      dup2\n      mload\n      dup2\n      lt\n      tag_166\n      jumpi\n      tag_167\n      tag_30\n      jump\t// in\n    tag_167:\n    tag_166:\n      0x20\n      mul\n      0x20\n      add\n      add\n        /* \"verifier.sol\":4196:4225  input[i * 6 + 3] = p2[i].X[0] */\n      dup2\n      dup2\n      mstore\n      pop\n      pop\n        /* \"verifier.sol\":4258:4260  p2 */\n      dup6\n        /* \"verifier.sol\":4261:4262  i */\n      dup2\n        /* \"verifier.sol\":4258:4263  p2[i] */\n      dup2\n      mload\n      dup2\n      lt\n      tag_168\n      jumpi\n      tag_169\n      tag_30\n      jump\t// in\n    tag_169:\n    tag_168:\n      0x20\n      mul\n      0x20\n      add\n      add\n      mload\n        /* \"verifier.sol\":4258:4265  p2[i].Y */\n      0x20\n      add\n      mload\n        /* \"verifier.sol\":4266:4267  1 */\n      0x01\n        /* \"verifier.sol\":4258:4268  p2[i].Y[1] */\n      0x02\n      dup2\n      lt\n      tag_170\n      jumpi\n      tag_171\n      tag_30\n      jump\t// in\n    tag_171:\n    tag_170:\n      0x20\n      mul\n      add\n      mload\n        /* \"verifier.sol\":4239:4244  input */\n      dup3\n        /* \"verifier.sol\":4253:4254  4 */\n      0x04\n        /* \"verifier.sol\":4249:4250  6 */\n      0x06\n        /* \"verifier.sol\":4245:4246  i */\n      dup5\n        /* \"verifier.sol\":4245:4250  i * 6 */\n      tag_172\n      swap2\n      swap1\n      tag_133\n      jump\t// in\n    tag_172:\n        /* \"verifier.sol\":4245:4254  i * 6 + 4 */\n      tag_173\n      swap2\n      swap1\n      tag_23\n      jump\t// in\n    tag_173:\n        /* \"verifier.sol\":4239:4255  input[i * 6 + 4] */\n      dup2\n      mload\n      dup2\n      lt\n      tag_174\n      jumpi\n      tag_175\n      tag_30\n      jump\t// in\n    tag_175:\n    tag_174:\n      0x20\n      mul\n      0x20\n      add\n      add\n        /* \"verifier.sol\":4239:4268  input[i * 6 + 4] = p2[i].Y[1] */\n      dup2\n      dup2\n      mstore\n      pop\n      pop\n        /* \"verifier.sol\":4301:4303  p2 */\n      dup6\n        /* \"verifier.sol\":4304:4305  i */\n      dup2\n        /* \"verifier.sol\":4301:4306  p2[i] */\n      dup2\n      mload\n      dup2\n      lt\n      tag_176\n      jumpi\n      tag_177\n      tag_30\n      jump\t// in\n    tag_177:\n    tag_176:\n      0x20\n      mul\n      0x20\n      add\n      add\n      mload\n        /* \"verifier.sol\":4301:4308  p2[i].Y */\n      0x20\n      add\n      mload\n        /* \"verifier.sol\":4309:4310  0 */\n      0x00\n        /* \"verifier.sol\":4301:4311  p2[i].Y[0] */\n      0x02\n      dup2\n      lt\n      tag_178\n      jumpi\n      tag_179\n      tag_30\n      jump\t// in\n    tag_179:\n    tag_178:\n      0x20\n      mul\n      add\n      mload\n        /* \"verifier.sol\":4282:4287  input */\n      dup3\n        /* \"verifier.sol\":4296:4297  5 */\n      0x05\n        /* \"verifier.sol\":4292:4293  6 */\n      0x06\n        /* \"verifier.sol\":4288:4289  i */\n      dup5\n        /* \"verifier.sol\":4288:4293  i * 6 */\n      tag_180\n      swap2\n      swap1\n      tag_133\n      jump\t// in\n    tag_180:\n        /* \"verifier.sol\":4288:4297  i * 6 + 5 */\n      tag_181\n      swap2\n      swap1\n      tag_23\n      jump\t// in\n    tag_181:\n        /* \"verifier.sol\":4282:4298  input[i * 6 + 5] */\n      dup2\n      mload\n      dup2\n      lt\n      tag_182\n      jumpi\n      tag_183\n      tag_30\n      jump\t// in\n    tag_183:\n    tag_182:\n      0x20\n      mul\n      0x20\n      add\n      add\n        /* \"verifier.sol\":4282:4311  input[i * 6 + 5] = p2[i].Y[0] */\n      dup2\n      dup2\n      mstore\n      pop\n      pop\n        /* \"verifier.sol\":4046:4049  i++ */\n      dup1\n      dup1\n      tag_184\n      swap1\n      tag_42\n      jump\t// in\n    tag_184:\n      swap2\n      pop\n      pop\n        /* \"verifier.sol\":4015:4322  for (uint i = 0; i < elements; i++)... */\n      jump(tag_137)\n    tag_138:\n      pop\n        /* \"verifier.sol\":4331:4349  uint[1] memory out */\n      tag_185\n      tag_186\n      jump\t// in\n    tag_185:\n        /* \"verifier.sol\":4359:4371  bool success */\n      0x00\n        /* \"verifier.sol\":4492:4496  0x20 */\n      0x20\n        /* \"verifier.sol\":4487:4490  out */\n      dup3\n        /* \"verifier.sol\":4480:4484  0x20 */\n      0x20\n        /* \"verifier.sol\":4469:4478  inputSize */\n      dup7\n        /* \"verifier.sol\":4465:4485  mul(inputSize, 0x20) */\n      mul\n        /* \"verifier.sol\":4458:4462  0x20 */\n      0x20\n        /* \"verifier.sol\":4451:4456  input */\n      dup7\n        /* \"verifier.sol\":4447:4463  add(input, 0x20) */\n      add\n        /* \"verifier.sol\":4444:4445  8 */\n      0x08\n        /* \"verifier.sol\":4437:4441  2000 */\n      0x07d0\n        /* \"verifier.sol\":4430:4435  gas() */\n      gas\n        /* \"verifier.sol\":4426:4442  sub(gas(), 2000) */\n      sub\n        /* \"verifier.sol\":4415:4497  staticcall(sub(gas(), 2000), 8, add(input, 0x20), mul(inputSize, 0x20), out, 0x20) */\n      staticcall\n        /* \"verifier.sol\":4404:4497  success := staticcall(sub(gas(), 2000), 8, add(input, 0x20), mul(inputSize, 0x20), out, 0x20) */\n      swap1\n      pop\n        /* \"verifier.sol\":4574:4581  success */\n      dup1\n        /* \"verifier.sol\":4587:4588  0 */\n      0x00\n        /* \"verifier.sol\":4582:4602  case 0 { invalid() } */\n      dup2\n      sub\n        /* \"verifier.sol\":4567:4602  switch success case 0 { invalid() } */\n      tag_187\n        /* \"verifier.sol\":4582:4602  case 0 { invalid() } */\n      jumpi\n        /* \"verifier.sol\":4591:4600  invalid() */\n      invalid\n        /* \"verifier.sol\":4567:4602  switch success case 0 { invalid() } */\n    tag_187:\n      pop\n        /* \"verifier.sol\":4629:4636  success */\n      dup1\n        /* \"verifier.sol\":4621:4637  require(success) */\n      tag_189\n      jumpi\n      0x00\n      dup1\n      revert\n    tag_189:\n        /* \"verifier.sol\":4664:4665  0 */\n      0x00\n        /* \"verifier.sol\":4654:4657  out */\n      dup3\n        /* \"verifier.sol\":4658:4659  0 */\n      0x00\n        /* \"verifier.sol\":4654:4660  out[0] */\n      0x01\n      dup2\n      lt\n      tag_190\n      jumpi\n      tag_191\n      tag_30\n      jump\t// in\n    tag_191:\n    tag_190:\n      0x20\n      mul\n      add\n      mload\n        /* \"verifier.sol\":4654:4665  out[0] != 0 */\n      eq\n      iszero\n        /* \"verifier.sol\":4647:4665  return out[0] != 0 */\n      swap6\n      pop\n      pop\n      pop\n      pop\n      pop\n      pop\n        /* \"verifier.sol\":3749:4672  function pairing(G1Point[] memory p1, G2Point[] memory p2) internal view returns (bool) {... */\n      swap3\n      swap2\n      pop\n      pop\n      jump\t// out\n    tag_54:\n      mload(0x40)\n      dup1\n      0xa0\n      add\n      0x40\n      mstore\n      dup1\n      tag_192\n      tag_61\n      jump\t// in\n    tag_192:\n      dup2\n      mstore\n      0x20\n      add\n      tag_193\n      tag_111\n      jump\t// in\n    tag_193:\n      dup2\n      mstore\n      0x20\n      add\n      tag_194\n      tag_111\n      jump\t// in\n    tag_194:\n      dup2\n      mstore\n      0x20\n      add\n      tag_195\n      tag_111\n      jump\t// in\n    tag_195:\n      dup2\n      mstore\n      0x20\n      add\n      0x60\n      dup2\n      mstore\n      pop\n      swap1\n      jump\t// out\n    tag_61:\n      mload(0x40)\n      dup1\n      0x40\n      add\n      0x40\n      mstore\n      dup1\n      0x00\n      dup2\n      mstore\n      0x20\n      add\n      0x00\n      dup2\n      mstore\n      pop\n      swap1\n      jump\t// out\n    tag_67:\n      mload(0x40)\n      dup1\n      0x60\n      add\n      0x40\n      mstore\n      dup1\n      0x03\n      swap1\n      0x20\n      dup3\n      mul\n      dup1\n      calldatasize\n      dup4\n      calldatacopy\n      dup1\n      dup3\n      add\n      swap2\n      pop\n      pop\n      swap1\n      pop\n      pop\n      swap1\n      jump\t// out\n    tag_80:\n      mload(0x40)\n      dup1\n      0x80\n      add\n      0x40\n      mstore\n      dup1\n      0x04\n      swap1\n      0x20\n      dup3\n      mul\n      dup1\n      calldatasize\n      dup4\n      calldatacopy\n      dup1\n      dup3\n      add\n      swap2\n      pop\n      pop\n      swap1\n      pop\n      pop\n      swap1\n      jump\t// out\n    tag_111:\n      mload(0x40)\n      dup1\n      0x40\n      add\n      0x40\n      mstore\n      dup1\n      tag_196\n      tag_197\n      jump\t// in\n    tag_196:\n      dup2\n      mstore\n      0x20\n      add\n      tag_198\n      tag_197\n      jump\t// in\n    tag_198:\n      dup2\n      mstore\n      pop\n      swap1\n      jump\t// out\n    tag_186:\n      mload(0x40)\n      dup1\n      0x20\n      add\n      0x40\n      mstore\n      dup1\n      0x01\n      swap1\n      0x20\n      dup3\n      mul\n      dup1\n      calldatasize\n      dup4\n      calldatacopy\n      dup1\n      dup3\n      add\n      swap2\n      pop\n      pop\n      swap1\n      pop\n      pop\n      swap1\n      jump\t// out\n    tag_197:\n      mload(0x40)\n      dup1\n      0x40\n      add\n      0x40\n      mstore\n      dup1\n      0x02\n      swap1\n      0x20\n      dup3\n      mul\n      dup1\n      calldatasize\n      dup4\n      calldatacopy\n      dup1\n      dup3\n      add\n      swap2\n      pop\n      pop\n      swap1\n      pop\n      pop\n      swap1\n      jump\t// out\n        /* \"#utility.yul\":7:82   */\n    tag_199:\n        /* \"#utility.yul\":40:46   */\n      0x00\n        /* \"#utility.yul\":73:75   */\n      0x40\n        /* \"#utility.yul\":67:76   */\n      mload\n        /* \"#utility.yul\":57:76   */\n      swap1\n      pop\n        /* \"#utility.yul\":7:82   */\n      swap1\n      jump\t// out\n        /* \"#utility.yul\":88:205   */\n    tag_200:\n        /* \"#utility.yul\":197:198   */\n      0x00\n        /* \"#utility.yul\":194:195   */\n      dup1\n        /* \"#utility.yul\":187:199   */\n      revert\n        /* \"#utility.yul\":334:451   */\n    tag_202:\n        /* \"#utility.yul\":443:444   */\n      0x00\n        /* \"#utility.yul\":440:441   */\n      dup1\n        /* \"#utility.yul\":433:445   */\n      revert\n        /* \"#utility.yul\":457:559   */\n    tag_203:\n        /* \"#utility.yul\":498:504   */\n      0x00\n        /* \"#utility.yul\":549:551   */\n      0x1f\n        /* \"#utility.yul\":545:552   */\n      not\n        /* \"#utility.yul\":540:542   */\n      0x1f\n        /* \"#utility.yul\":533:538   */\n      dup4\n        /* \"#utility.yul\":529:543   */\n      add\n        /* \"#utility.yul\":525:553   */\n      and\n        /* \"#utility.yul\":515:553   */\n      swap1\n      pop\n        /* \"#utility.yul\":457:559   */\n      swap2\n      swap1\n      pop\n      jump\t// out\n        /* \"#utility.yul\":565:745   */\n    tag_13:\n        /* \"#utility.yul\":613:690   */\n      0x4e487b7100000000000000000000000000000000000000000000000000000000\n        /* \"#utility.yul\":610:611   */\n      0x00\n        /* \"#utility.yul\":603:691   */\n      mstore\n        /* \"#utility.yul\":710:714   */\n      0x41\n        /* \"#utility.yul\":707:708   */\n      0x04\n        /* \"#utility.yul\":700:715   */\n      mstore\n        /* \"#utility.yul\":734:738   */\n      0x24\n        /* \"#utility.yul\":731:732   */\n      0x00\n        /* \"#utility.yul\":724:739   */\n      revert\n        /* \"#utility.yul\":751:1032   */\n    tag_204:\n        /* \"#utility.yul\":834:861   */\n      tag_230\n        /* \"#utility.yul\":856:860   */\n      dup3\n        /* \"#utility.yul\":834:861   */\n      tag_203\n      jump\t// in\n    tag_230:\n        /* \"#utility.yul\":826:832   */\n      dup2\n        /* \"#utility.yul\":822:862   */\n      add\n        /* \"#utility.yul\":964:970   */\n      dup2\n        /* \"#utility.yul\":952:962   */\n      dup2\n        /* \"#utility.yul\":949:971   */\n      lt\n        /* \"#utility.yul\":928:946   */\n      0xffffffffffffffff\n        /* \"#utility.yul\":916:926   */\n      dup3\n        /* \"#utility.yul\":913:947   */\n      gt\n        /* \"#utility.yul\":910:972   */\n      or\n        /* \"#utility.yul\":907:995   */\n      iszero\n      tag_231\n      jumpi\n        /* \"#utility.yul\":975:993   */\n      tag_232\n      tag_13\n      jump\t// in\n    tag_232:\n        /* \"#utility.yul\":907:995   */\n    tag_231:\n        /* \"#utility.yul\":1015:1025   */\n      dup1\n        /* \"#utility.yul\":1011:1013   */\n      0x40\n        /* \"#utility.yul\":1004:1026   */\n      mstore\n        /* \"#utility.yul\":794:1032   */\n      pop\n        /* \"#utility.yul\":751:1032   */\n      pop\n      pop\n      jump\t// out\n        /* \"#utility.yul\":1038:1167   */\n    tag_205:\n        /* \"#utility.yul\":1072:1078   */\n      0x00\n        /* \"#utility.yul\":1099:1119   */\n      tag_234\n      tag_199\n      jump\t// in\n    tag_234:\n        /* \"#utility.yul\":1089:1119   */\n      swap1\n      pop\n        /* \"#utility.yul\":1128:1161   */\n      tag_235\n        /* \"#utility.yul\":1156:1160   */\n      dup3\n        /* \"#utility.yul\":1148:1154   */\n      dup3\n        /* \"#utility.yul\":1128:1161   */\n      tag_204\n      jump\t// in\n    tag_235:\n        /* \"#utility.yul\":1038:1167   */\n      swap2\n      swap1\n      pop\n      jump\t// out\n        /* \"#utility.yul\":1296:1373   */\n    tag_207:\n        /* \"#utility.yul\":1333:1340   */\n      0x00\n        /* \"#utility.yul\":1362:1367   */\n      dup2\n        /* \"#utility.yul\":1351:1367   */\n      swap1\n      pop\n        /* \"#utility.yul\":1296:1373   */\n      swap2\n      swap1\n      pop\n      jump\t// out\n        /* \"#utility.yul\":1379:1501   */\n    tag_208:\n        /* \"#utility.yul\":1452:1476   */\n      tag_239\n        /* \"#utility.yul\":1470:1475   */\n      dup2\n        /* \"#utility.yul\":1452:1476   */\n      tag_207\n      jump\t// in\n    tag_239:\n        /* \"#utility.yul\":1445:1450   */\n      dup2\n        /* \"#utility.yul\":1442:1477   */\n      eq\n        /* \"#utility.yul\":1432:1495   */\n      tag_240\n      jumpi\n        /* \"#utility.yul\":1491:1492   */\n      0x00\n        /* \"#utility.yul\":1488:1489   */\n      dup1\n        /* \"#utility.yul\":1481:1493   */\n      revert\n        /* \"#utility.yul\":1432:1495   */\n    tag_240:\n        /* \"#utility.yul\":1379:1501   */\n      pop\n      jump\t// out\n        /* \"#utility.yul\":1507:1646   */\n    tag_209:\n        /* \"#utility.yul\":1553:1558   */\n      0x00\n        /* \"#utility.yul\":1591:1597   */\n      dup2\n        /* \"#utility.yul\":1578:1598   */\n      calldataload\n        /* \"#utility.yul\":1569:1598   */\n      swap1\n      pop\n        /* \"#utility.yul\":1607:1640   */\n      tag_242\n        /* \"#utility.yul\":1634:1639   */\n      dup2\n        /* \"#utility.yul\":1607:1640   */\n      tag_208\n      jump\t// in\n    tag_242:\n        /* \"#utility.yul\":1507:1646   */\n      swap3\n      swap2\n      pop\n      pop\n      jump\t// out\n        /* \"#utility.yul\":1682:2247   */\n    tag_210:\n        /* \"#utility.yul\":1753:1758   */\n      0x00\n        /* \"#utility.yul\":1797:1801   */\n      0x40\n        /* \"#utility.yul\":1785:1794   */\n      dup3\n        /* \"#utility.yul\":1780:1783   */\n      dup5\n        /* \"#utility.yul\":1776:1795   */\n      sub\n        /* \"#utility.yul\":1772:1802   */\n      slt\n        /* \"#utility.yul\":1769:1886   */\n      iszero\n      tag_244\n      jumpi\n        /* \"#utility.yul\":1805:1884   */\n      tag_245\n      tag_202\n      jump\t// in\n    tag_245:\n        /* \"#utility.yul\":1769:1886   */\n    tag_244:\n        /* \"#utility.yul\":1904:1925   */\n      tag_246\n        /* \"#utility.yul\":1920:1924   */\n      0x40\n        /* \"#utility.yul\":1904:1925   */\n      tag_205\n      jump\t// in\n    tag_246:\n        /* \"#utility.yul\":1895:1925   */\n      swap1\n      pop\n        /* \"#utility.yul\":1981:1982   */\n      0x00\n        /* \"#utility.yul\":2021:2070   */\n      tag_247\n        /* \"#utility.yul\":2066:2069   */\n      dup5\n        /* \"#utility.yul\":2057:2063   */\n      dup3\n        /* \"#utility.yul\":2046:2055   */\n      dup6\n        /* \"#utility.yul\":2042:2064   */\n      add\n        /* \"#utility.yul\":2021:2070   */\n      tag_209\n      jump\t// in\n    tag_247:\n        /* \"#utility.yul\":2014:2018   */\n      0x00\n        /* \"#utility.yul\":2007:2012   */\n      dup4\n        /* \"#utility.yul\":2003:2019   */\n      add\n        /* \"#utility.yul\":1996:2071   */\n      mstore\n        /* \"#utility.yul\":1935:2082   */\n      pop\n        /* \"#utility.yul\":2138:2140   */\n      0x20\n        /* \"#utility.yul\":2179:2228   */\n      tag_248\n        /* \"#utility.yul\":2224:2227   */\n      dup5\n        /* \"#utility.yul\":2215:2221   */\n      dup3\n        /* \"#utility.yul\":2204:2213   */\n      dup6\n        /* \"#utility.yul\":2200:2222   */\n      add\n        /* \"#utility.yul\":2179:2228   */\n      tag_209\n      jump\t// in\n    tag_248:\n        /* \"#utility.yul\":2172:2176   */\n      0x20\n        /* \"#utility.yul\":2165:2170   */\n      dup4\n        /* \"#utility.yul\":2161:2177   */\n      add\n        /* \"#utility.yul\":2154:2229   */\n      mstore\n        /* \"#utility.yul\":2092:2240   */\n      pop\n        /* \"#utility.yul\":1682:2247   */\n      swap3\n      swap2\n      pop\n      pop\n      jump\t// out\n        /* \"#utility.yul\":2253:2370   */\n    tag_211:\n        /* \"#utility.yul\":2362:2363   */\n      0x00\n        /* \"#utility.yul\":2359:2360   */\n      dup1\n        /* \"#utility.yul\":2352:2364   */\n      revert\n        /* \"#utility.yul\":2376:2625   */\n    tag_212:\n        /* \"#utility.yul\":2451:2455   */\n      0x00\n        /* \"#utility.yul\":2541:2559   */\n      0xffffffffffffffff\n        /* \"#utility.yul\":2533:2539   */\n      dup3\n        /* \"#utility.yul\":2530:2560   */\n      gt\n        /* \"#utility.yul\":2527:2583   */\n      iszero\n      tag_251\n      jumpi\n        /* \"#utility.yul\":2563:2581   */\n      tag_252\n      tag_13\n      jump\t// in\n    tag_252:\n        /* \"#utility.yul\":2527:2583   */\n    tag_251:\n        /* \"#utility.yul\":2613:2617   */\n      0x20\n        /* \"#utility.yul\":2605:2611   */\n      dup3\n        /* \"#utility.yul\":2601:2618   */\n      mul\n        /* \"#utility.yul\":2593:2618   */\n      swap1\n      pop\n        /* \"#utility.yul\":2376:2625   */\n      swap2\n      swap1\n      pop\n      jump\t// out\n        /* \"#utility.yul\":2631:2748   */\n    tag_213:\n        /* \"#utility.yul\":2740:2741   */\n      0x00\n        /* \"#utility.yul\":2737:2738   */\n      dup1\n        /* \"#utility.yul\":2730:2742   */\n      revert\n        /* \"#utility.yul\":2772:3415   */\n    tag_214:\n        /* \"#utility.yul\":2866:2871   */\n      0x00\n        /* \"#utility.yul\":2891:2970   */\n      tag_255\n        /* \"#utility.yul\":2907:2969   */\n      tag_256\n        /* \"#utility.yul\":2962:2968   */\n      dup5\n        /* \"#utility.yul\":2907:2969   */\n      tag_212\n      jump\t// in\n    tag_256:\n        /* \"#utility.yul\":2891:2970   */\n      tag_205\n      jump\t// in\n    tag_255:\n        /* \"#utility.yul\":2882:2970   */\n      swap1\n      pop\n        /* \"#utility.yul\":2990:2995   */\n      dup1\n        /* \"#utility.yul\":3043:3047   */\n      0x20\n        /* \"#utility.yul\":3035:3041   */\n      dup5\n        /* \"#utility.yul\":3031:3048   */\n      mul\n        /* \"#utility.yul\":3023:3029   */\n      dup4\n        /* \"#utility.yul\":3019:3049   */\n      add\n        /* \"#utility.yul\":3072:3075   */\n      dup6\n        /* \"#utility.yul\":3064:3070   */\n      dup2\n        /* \"#utility.yul\":3061:3076   */\n      gt\n        /* \"#utility.yul\":3058:3180   */\n      iszero\n      tag_257\n      jumpi\n        /* \"#utility.yul\":3091:3170   */\n      tag_258\n      tag_213\n      jump\t// in\n    tag_258:\n        /* \"#utility.yul\":3058:3180   */\n    tag_257:\n        /* \"#utility.yul\":3206:3212   */\n      dup4\n        /* \"#utility.yul\":3189:3409   */\n    tag_259:\n        /* \"#utility.yul\":3223:3229   */\n      dup2\n        /* \"#utility.yul\":3218:3221   */\n      dup2\n        /* \"#utility.yul\":3215:3230   */\n      lt\n        /* \"#utility.yul\":3189:3409   */\n      iszero\n      tag_261\n      jumpi\n        /* \"#utility.yul\":3298:3301   */\n      dup1\n        /* \"#utility.yul\":3327:3364   */\n      tag_262\n        /* \"#utility.yul\":3360:3363   */\n      dup9\n        /* \"#utility.yul\":3348:3358   */\n      dup3\n        /* \"#utility.yul\":3327:3364   */\n      tag_209\n      jump\t// in\n    tag_262:\n        /* \"#utility.yul\":3322:3325   */\n      dup5\n        /* \"#utility.yul\":3315:3365   */\n      mstore\n        /* \"#utility.yul\":3394:3398   */\n      0x20\n        /* \"#utility.yul\":3389:3392   */\n      dup5\n        /* \"#utility.yul\":3385:3399   */\n      add\n        /* \"#utility.yul\":3378:3399   */\n      swap4\n      pop\n        /* \"#utility.yul\":3265:3409   */\n      pop\n        /* \"#utility.yul\":3249:3253   */\n      0x20\n        /* \"#utility.yul\":3244:3247   */\n      dup2\n        /* \"#utility.yul\":3240:3254   */\n      add\n        /* \"#utility.yul\":3233:3254   */\n      swap1\n      pop\n        /* \"#utility.yul\":3189:3409   */\n      jump(tag_259)\n    tag_261:\n        /* \"#utility.yul\":3193:3214   */\n      pop\n        /* \"#utility.yul\":2872:3415   */\n      pop\n      pop\n        /* \"#utility.yul\":2772:3415   */\n      swap4\n      swap3\n      pop\n      pop\n      pop\n      jump\t// out\n        /* \"#utility.yul\":3439:3778   */\n    tag_215:\n        /* \"#utility.yul\":3508:3513   */\n      0x00\n        /* \"#utility.yul\":3557:3560   */\n      dup3\n        /* \"#utility.yul\":3550:3554   */\n      0x1f\n        /* \"#utility.yul\":3542:3548   */\n      dup4\n        /* \"#utility.yul\":3538:3555   */\n      add\n        /* \"#utility.yul\":3534:3561   */\n      slt\n        /* \"#utility.yul\":3524:3646   */\n      tag_264\n      jumpi\n        /* \"#utility.yul\":3565:3644   */\n      tag_265\n      tag_211\n      jump\t// in\n    tag_265:\n        /* \"#utility.yul\":3524:3646   */\n    tag_264:\n        /* \"#utility.yul\":3669:3673   */\n      0x02\n        /* \"#utility.yul\":3691:3772   */\n      tag_266\n        /* \"#utility.yul\":3768:3771   */\n      dup5\n        /* \"#utility.yul\":3760:3766   */\n      dup3\n        /* \"#utility.yul\":3752:3758   */\n      dup6\n        /* \"#utility.yul\":3691:3772   */\n      tag_214\n      jump\t// in\n    tag_266:\n        /* \"#utility.yul\":3682:3772   */\n      swap2\n      pop\n        /* \"#utility.yul\":3514:3778   */\n      pop\n        /* \"#utility.yul\":3439:3778   */\n      swap3\n      swap2\n      pop\n      pop\n      jump\t// out\n        /* \"#utility.yul\":3814:4426   */\n    tag_216:\n        /* \"#utility.yul\":3886:3891   */\n      0x00\n        /* \"#utility.yul\":3930:3934   */\n      0x80\n        /* \"#utility.yul\":3918:3927   */\n      dup3\n        /* \"#utility.yul\":3913:3916   */\n      dup5\n        /* \"#utility.yul\":3909:3928   */\n      sub\n        /* \"#utility.yul\":3905:3935   */\n      slt\n        /* \"#utility.yul\":3902:4019   */\n      iszero\n      tag_268\n      jumpi\n        /* \"#utility.yul\":3938:4017   */\n      tag_269\n      tag_202\n      jump\t// in\n    tag_269:\n        /* \"#utility.yul\":3902:4019   */\n    tag_268:\n        /* \"#utility.yul\":4037:4058   */\n      tag_270\n        /* \"#utility.yul\":4053:4057   */\n      0x40\n        /* \"#utility.yul\":4037:4058   */\n      tag_205\n      jump\t// in\n    tag_270:\n        /* \"#utility.yul\":4028:4058   */\n      swap1\n      pop\n        /* \"#utility.yul\":4114:4115   */\n      0x00\n        /* \"#utility.yul\":4154:4226   */\n      tag_271\n        /* \"#utility.yul\":4222:4225   */\n      dup5\n        /* \"#utility.yul\":4213:4219   */\n      dup3\n        /* \"#utility.yul\":4202:4211   */\n      dup6\n        /* \"#utility.yul\":4198:4220   */\n      add\n        /* \"#utility.yul\":4154:4226   */\n      tag_215\n      jump\t// in\n    tag_271:\n        /* \"#utility.yul\":4147:4151   */\n      0x00\n        /* \"#utility.yul\":4140:4145   */\n      dup4\n        /* \"#utility.yul\":4136:4152   */\n      add\n        /* \"#utility.yul\":4129:4227   */\n      mstore\n        /* \"#utility.yul\":4068:4238   */\n      pop\n        /* \"#utility.yul\":4294:4296   */\n      0x40\n        /* \"#utility.yul\":4335:4407   */\n      tag_272\n        /* \"#utility.yul\":4403:4406   */\n      dup5\n        /* \"#utility.yul\":4394:4400   */\n      dup3\n        /* \"#utility.yul\":4383:4392   */\n      dup6\n        /* \"#utility.yul\":4379:4401   */\n      add\n        /* \"#utility.yul\":4335:4407   */\n      tag_215\n      jump\t// in\n    tag_272:\n        /* \"#utility.yul\":4328:4332   */\n      0x20\n        /* \"#utility.yul\":4321:4326   */\n      dup4\n        /* \"#utility.yul\":4317:4333   */\n      add\n        /* \"#utility.yul\":4310:4408   */\n      mstore\n        /* \"#utility.yul\":4248:4419   */\n      pop\n        /* \"#utility.yul\":3814:4426   */\n      swap3\n      swap2\n      pop\n      pop\n      jump\t// out\n        /* \"#utility.yul\":4461:5254   */\n    tag_217:\n        /* \"#utility.yul\":4532:4537   */\n      0x00\n        /* \"#utility.yul\":4576:4582   */\n      0x0100\n        /* \"#utility.yul\":4564:4573   */\n      dup3\n        /* \"#utility.yul\":4559:4562   */\n      dup5\n        /* \"#utility.yul\":4555:4574   */\n      sub\n        /* \"#utility.yul\":4551:4583   */\n      slt\n        /* \"#utility.yul\":4548:4667   */\n      iszero\n      tag_274\n      jumpi\n        /* \"#utility.yul\":4586:4665   */\n      tag_275\n      tag_202\n      jump\t// in\n    tag_275:\n        /* \"#utility.yul\":4548:4667   */\n    tag_274:\n        /* \"#utility.yul\":4685:4706   */\n      tag_276\n        /* \"#utility.yul\":4701:4705   */\n      0x60\n        /* \"#utility.yul\":4685:4706   */\n      tag_205\n      jump\t// in\n    tag_276:\n        /* \"#utility.yul\":4676:4706   */\n      swap1\n      pop\n        /* \"#utility.yul\":4762:4763   */\n      0x00\n        /* \"#utility.yul\":4802:4873   */\n      tag_277\n        /* \"#utility.yul\":4869:4872   */\n      dup5\n        /* \"#utility.yul\":4860:4866   */\n      dup3\n        /* \"#utility.yul\":4849:4858   */\n      dup6\n        /* \"#utility.yul\":4845:4867   */\n      add\n        /* \"#utility.yul\":4802:4873   */\n      tag_210\n      jump\t// in\n    tag_277:\n        /* \"#utility.yul\":4795:4799   */\n      0x00\n        /* \"#utility.yul\":4788:4793   */\n      dup4\n        /* \"#utility.yul\":4784:4800   */\n      add\n        /* \"#utility.yul\":4777:4874   */\n      mstore\n        /* \"#utility.yul\":4716:4885   */\n      pop\n        /* \"#utility.yul\":4941:4943   */\n      0x40\n        /* \"#utility.yul\":4982:5054   */\n      tag_278\n        /* \"#utility.yul\":5050:5053   */\n      dup5\n        /* \"#utility.yul\":5041:5047   */\n      dup3\n        /* \"#utility.yul\":5030:5039   */\n      dup6\n        /* \"#utility.yul\":5026:5048   */\n      add\n        /* \"#utility.yul\":4982:5054   */\n      tag_216\n      jump\t// in\n    tag_278:\n        /* \"#utility.yul\":4975:4979   */\n      0x20\n        /* \"#utility.yul\":4968:4973   */\n      dup4\n        /* \"#utility.yul\":4964:4980   */\n      add\n        /* \"#utility.yul\":4957:5055   */\n      mstore\n        /* \"#utility.yul\":4895:5066   */\n      pop\n        /* \"#utility.yul\":5122:5125   */\n      0xc0\n        /* \"#utility.yul\":5164:5235   */\n      tag_279\n        /* \"#utility.yul\":5231:5234   */\n      dup5\n        /* \"#utility.yul\":5222:5228   */\n      dup3\n        /* \"#utility.yul\":5211:5220   */\n      dup6\n        /* \"#utility.yul\":5207:5229   */\n      add\n        /* \"#utility.yul\":5164:5235   */\n      tag_210\n      jump\t// in\n    tag_279:\n        /* \"#utility.yul\":5157:5161   */\n      0x40\n        /* \"#utility.yul\":5150:5155   */\n      dup4\n        /* \"#utility.yul\":5146:5162   */\n      add\n        /* \"#utility.yul\":5139:5236   */\n      mstore\n        /* \"#utility.yul\":5076:5247   */\n      pop\n        /* \"#utility.yul\":4461:5254   */\n      swap3\n      swap2\n      pop\n      pop\n      jump\t// out\n        /* \"#utility.yul\":5260:5634   */\n    tag_6:\n        /* \"#utility.yul\":5341:5347   */\n      0x00\n        /* \"#utility.yul\":5390:5393   */\n      0x0100\n        /* \"#utility.yul\":5378:5387   */\n      dup3\n        /* \"#utility.yul\":5369:5376   */\n      dup5\n        /* \"#utility.yul\":5365:5388   */\n      sub\n        /* \"#utility.yul\":5361:5394   */\n      slt\n        /* \"#utility.yul\":5358:5478   */\n      iszero\n      tag_281\n      jumpi\n        /* \"#utility.yul\":5397:5476   */\n      tag_282\n      tag_200\n      jump\t// in\n    tag_282:\n        /* \"#utility.yul\":5358:5478   */\n    tag_281:\n        /* \"#utility.yul\":5517:5518   */\n      0x00\n        /* \"#utility.yul\":5542:5617   */\n      tag_283\n        /* \"#utility.yul\":5609:5616   */\n      dup5\n        /* \"#utility.yul\":5600:5606   */\n      dup3\n        /* \"#utility.yul\":5589:5598   */\n      dup6\n        /* \"#utility.yul\":5585:5607   */\n      add\n        /* \"#utility.yul\":5542:5617   */\n      tag_217\n      jump\t// in\n    tag_283:\n        /* \"#utility.yul\":5532:5617   */\n      swap2\n      pop\n        /* \"#utility.yul\":5488:5627   */\n      pop\n        /* \"#utility.yul\":5260:5634   */\n      swap3\n      swap2\n      pop\n      pop\n      jump\t// out\n        /* \"#utility.yul\":5640:5730   */\n    tag_218:\n        /* \"#utility.yul\":5674:5681   */\n      0x00\n        /* \"#utility.yul\":5717:5722   */\n      dup2\n        /* \"#utility.yul\":5710:5723   */\n      iszero\n        /* \"#utility.yul\":5703:5724   */\n      iszero\n        /* \"#utility.yul\":5692:5724   */\n      swap1\n      pop\n        /* \"#utility.yul\":5640:5730   */\n      swap2\n      swap1\n      pop\n      jump\t// out\n        /* \"#utility.yul\":5736:5845   */\n    tag_219:\n        /* \"#utility.yul\":5817:5838   */\n      tag_286\n        /* \"#utility.yul\":5832:5837   */\n      dup2\n        /* \"#utility.yul\":5817:5838   */\n      tag_218\n      jump\t// in\n    tag_286:\n        /* \"#utility.yul\":5812:5815   */\n      dup3\n        /* \"#utility.yul\":5805:5839   */\n      mstore\n        /* \"#utility.yul\":5736:5845   */\n      pop\n      pop\n      jump\t// out\n        /* \"#utility.yul\":5851:6061   */\n    tag_9:\n        /* \"#utility.yul\":5938:5942   */\n      0x00\n        /* \"#utility.yul\":5976:5978   */\n      0x20\n        /* \"#utility.yul\":5965:5974   */\n      dup3\n        /* \"#utility.yul\":5961:5979   */\n      add\n        /* \"#utility.yul\":5953:5979   */\n      swap1\n      pop\n        /* \"#utility.yul\":5989:6054   */\n      tag_288\n        /* \"#utility.yul\":6051:6052   */\n      0x00\n        /* \"#utility.yul\":6040:6049   */\n      dup4\n        /* \"#utility.yul\":6036:6053   */\n      add\n        /* \"#utility.yul\":6027:6033   */\n      dup5\n        /* \"#utility.yul\":5989:6054   */\n      tag_219\n      jump\t// in\n    tag_288:\n        /* \"#utility.yul\":5851:6061   */\n      swap3\n      swap2\n      pop\n      pop\n      jump\t// out\n        /* \"#utility.yul\":6067:6247   */\n    tag_220:\n        /* \"#utility.yul\":6115:6192   */\n      0x4e487b7100000000000000000000000000000000000000000000000000000000\n        /* \"#utility.yul\":6112:6113   */\n      0x00\n        /* \"#utility.yul\":6105:6193   */\n      mstore\n        /* \"#utility.yul\":6212:6216   */\n      0x11\n        /* \"#utility.yul\":6209:6210   */\n      0x04\n        /* \"#utility.yul\":6202:6217   */\n      mstore\n        /* \"#utility.yul\":6236:6240   */\n      0x24\n        /* \"#utility.yul\":6233:6234   */\n      0x00\n        /* \"#utility.yul\":6226:6241   */\n      revert\n        /* \"#utility.yul\":6253:6444   */\n    tag_23:\n        /* \"#utility.yul\":6293:6296   */\n      0x00\n        /* \"#utility.yul\":6312:6332   */\n      tag_291\n        /* \"#utility.yul\":6330:6331   */\n      dup3\n        /* \"#utility.yul\":6312:6332   */\n      tag_207\n      jump\t// in\n    tag_291:\n        /* \"#utility.yul\":6307:6332   */\n      swap2\n      pop\n        /* \"#utility.yul\":6346:6366   */\n      tag_292\n        /* \"#utility.yul\":6364:6365   */\n      dup4\n        /* \"#utility.yul\":6346:6366   */\n      tag_207\n      jump\t// in\n    tag_292:\n        /* \"#utility.yul\":6341:6366   */\n      swap3\n      pop\n        /* \"#utility.yul\":6389:6390   */\n      dup3\n        /* \"#utility.yul\":6386:6387   */\n      dup3\n        /* \"#utility.yul\":6382:6391   */\n      add\n        /* \"#utility.yul\":6375:6391   */\n      swap1\n      pop\n        /* \"#utility.yul\":6410:6413   */\n      dup1\n        /* \"#utility.yul\":6407:6408   */\n      dup3\n        /* \"#utility.yul\":6404:6414   */\n      gt\n        /* \"#utility.yul\":6401:6437   */\n      iszero\n      tag_293\n      jumpi\n        /* \"#utility.yul\":6417:6435   */\n      tag_294\n      tag_220\n      jump\t// in\n    tag_294:\n        /* \"#utility.yul\":6401:6437   */\n    tag_293:\n        /* \"#utility.yul\":6253:6444   */\n      swap3\n      swap2\n      pop\n      pop\n      jump\t// out\n        /* \"#utility.yul\":6450:6630   */\n    tag_30:\n        /* \"#utility.yul\":6498:6575   */\n      0x4e487b7100000000000000000000000000000000000000000000000000000000\n        /* \"#utility.yul\":6495:6496   */\n      0x00\n        /* \"#utility.yul\":6488:6576   */\n      mstore\n        /* \"#utility.yul\":6595:6599   */\n      0x32\n        /* \"#utility.yul\":6592:6593   */\n      0x04\n        /* \"#utility.yul\":6585:6600   */\n      mstore\n        /* \"#utility.yul\":6619:6623   */\n      0x24\n        /* \"#utility.yul\":6616:6617   */\n      0x00\n        /* \"#utility.yul\":6609:6624   */\n      revert\n        /* \"#utility.yul\":6636:6869   */\n    tag_42:\n        /* \"#utility.yul\":6675:6678   */\n      0x00\n        /* \"#utility.yul\":6698:6722   */\n      tag_297\n        /* \"#utility.yul\":6716:6721   */\n      dup3\n        /* \"#utility.yul\":6698:6722   */\n      tag_207\n      jump\t// in\n    tag_297:\n        /* \"#utility.yul\":6689:6722   */\n      swap2\n      pop\n        /* \"#utility.yul\":6744:6810   */\n      0xffffffffffffffffffffffffffffffffffffffffffffffffffffffffffffffff\n        /* \"#utility.yul\":6737:6742   */\n      dup3\n        /* \"#utility.yul\":6734:6811   */\n      sub\n        /* \"#utility.yul\":6731:6834   */\n      tag_298\n      jumpi\n        /* \"#utility.yul\":6814:6832   */\n      tag_299\n      tag_220\n      jump\t// in\n    tag_299:\n        /* \"#utility.yul\":6731:6834   */\n    tag_298:\n        /* \"#utility.yul\":6861:6862   */\n      0x01\n        /* \"#utility.yul\":6854:6859   */\n      dup3\n        /* \"#utility.yul\":6850:6863   */\n      add\n        /* \"#utility.yul\":6843:6863   */\n      swap1\n      pop\n        /* \"#utility.yul\":6636:6869   */\n      swap2\n      swap1\n      pop\n      jump\t// out\n        /* \"#utility.yul\":6875:7055   */\n    tag_221:\n        /* \"#utility.yul\":6923:7000   */\n      0x4e487b7100000000000000000000000000000000000000000000000000000000\n        /* \"#utility.yul\":6920:6921   */\n      0x00\n        /* \"#utility.yul\":6913:7001   */\n      mstore\n        /* \"#utility.yul\":7020:7024   */\n      0x12\n        /* \"#utility.yul\":7017:7018   */\n      0x04\n        /* \"#utility.yul\":7010:7025   */\n      mstore\n        /* \"#utility.yul\":7044:7048   */\n      0x24\n        /* \"#utility.yul\":7041:7042   */\n      0x00\n        /* \"#utility.yul\":7034:7049   */\n      revert\n        /* \"#utility.yul\":7061:7237   */\n    tag_97:\n        /* \"#utility.yul\":7093:7094   */\n      0x00\n        /* \"#utility.yul\":7110:7130   */\n      tag_302\n        /* \"#utility.yul\":7128:7129   */\n      dup3\n        /* \"#utility.yul\":7110:7130   */\n      tag_207\n      jump\t// in\n    tag_302:\n        /* \"#utility.yul\":7105:7130   */\n      swap2\n      pop\n        /* \"#utility.yul\":7144:7164   */\n      tag_303\n        /* \"#utility.yul\":7162:7163   */\n      dup4\n        /* \"#utility.yul\":7144:7164   */\n      tag_207\n      jump\t// in\n    tag_303:\n        /* \"#utility.yul\":7139:7164   */\n      swap3\n      pop\n        /* \"#utility.yul\":7183:7184   */\n      dup3\n        /* \"#utility.yul\":7173:7208   */\n      tag_304\n      jumpi\n        /* \"#utility.yul\":7188:7206   */\n      tag_305\n      tag_221\n      jump\t// in\n    tag_305:\n        /* \"#utility.yul\":7173:7208   */\n    tag_304:\n        /* \"#utility.yul\":7229:7230   */\n      dup3\n        /* \"#utility.yul\":7226:7227   */\n      dup3\n        /* \"#utility.yul\":7222:7231   */\n      mod\n        /* \"#utility.yul\":7217:7231   */\n      swap1\n      pop\n        /* \"#utility.yul\":7061:7237   */\n      swap3\n      swap2\n      pop\n      pop\n      jump\t// out\n        /* \"#utility.yul\":7243:7437   */\n    tag_99:\n        /* \"#utility.yul\":7283:7287   */\n      0x00\n        /* \"#utility.yul\":7303:7323   */\n      tag_307\n        /* \"#utility.yul\":7321:7322   */\n      dup3\n        /* \"#utility.yul\":7303:7323   */\n      tag_207\n      jump\t// in\n    tag_307:\n        /* \"#utility.yul\":7298:7323   */\n      swap2\n      pop\n        /* \"#utility.yul\":7337:7357   */\n      tag_308\n        /* \"#utility.yul\":7355:7356   */\n      dup4\n        /* \"#utility.yul\":7337:7357   */\n      tag_207\n      jump\t// in\n    tag_308:\n        /* \"#utility.yul\":7332:7357   */\n      swap3\n      pop\n        /* \"#utility.yul\":7381:7382   */\n      dup3\n        /* \"#utility.yul\":7378:7379   */\n      dup3\n        /* \"#utility.yul\":7374:7383   */\n      sub\n        /* \"#utility.yul\":7366:7383   */\n      swap1\n      pop\n        /* \"#utility.yul\":7405:7406   */\n      dup2\n        /* \"#utility.yul\":7399:7403   */\n      dup2\n        /* \"#utility.yul\":7396:7407   */\n      gt\n        /* \"#utility.yul\":7393:7430   */\n      iszero\n      tag_309\n      jumpi\n        /* \"#utility.yul\":7410:7428   */\n      tag_310\n      tag_220\n      jump\t// in\n    tag_310:\n        /* \"#utility.yul\":7393:7430   */\n    tag_309:\n        /* \"#utility.yul\":7243:7437   */\n      swap3\n      swap2\n      pop\n      pop\n      jump\t// out\n        /* \"#utility.yul\":7443:7853   */\n    tag_133:\n        /* \"#utility.yul\":7483:7490   */\n      0x00\n        /* \"#utility.yul\":7506:7526   */\n      tag_312\n        /* \"#utility.yul\":7524:7525   */\n      dup3\n        /* \"#utility.yul\":7506:7526   */\n      tag_207\n      jump\t// in\n    tag_312:\n        /* \"#utility.yul\":7501:7526   */\n      swap2\n      pop\n        /* \"#utility.yul\":7540:7560   */\n      tag_313\n        /* \"#utility.yul\":7558:7559   */\n      dup4\n        /* \"#utility.yul\":7540:7560   */\n      tag_207\n      jump\t// in\n    tag_313:\n        /* \"#utility.yul\":7535:7560   */\n      swap3\n      pop\n        /* \"#utility.yul\":7595:7596   */\n      dup3\n        /* \"#utility.yul\":7592:7593   */\n      dup3\n        /* \"#utility.yul\":7588:7597   */\n      mul\n        /* \"#utility.yul\":7617:7647   */\n      tag_314\n        /* \"#utility.yul\":7635:7646   */\n      dup2\n        /* \"#utility.yul\":7617:7647   */\n      tag_207\n      jump\t// in\n    tag_314:\n        /* \"#utility.yul\":7606:7647   */\n      swap2\n      pop\n        /* \"#utility.yul\":7796:7797   */\n      dup3\n        /* \"#utility.yul\":7787:7794   */\n      dup3\n        /* \"#utility.yul\":7783:7798   */\n      div\n        /* \"#utility.yul\":7780:7781   */\n      dup5\n        /* \"#utility.yul\":7777:7799   */\n      eq\n        /* \"#utility.yul\":7757:7758   */\n      dup4\n        /* \"#utility.yul\":7750:7759   */\n      iszero\n        /* \"#utility.yul\":7730:7813   */\n      or\n        /* \"#utility.yul\":7707:7846   */\n      tag_315\n      jumpi\n        /* \"#utility.yul\":7826:7844   */\n      tag_316\n      tag_220\n      jump\t// in\n    tag_316:\n        /* \"#utility.yul\":7707:7846   */\n    tag_315:\n        /* \"#utility.yul\":7491:7853   */\n      pop\n        /* \"#utility.yul\":7443:7853   */\n      swap3\n      swap2\n      pop\n      pop\n      jump\t// out\n\n    auxdata: 0xa2646970667358221220985a0571d86672978749830e64d4ab1f8a02536d96abaaae80082ac6deb5887264736f6c63430008150033\n}\n",
				"bytecode": {
					"linkReferences": {},
					"object": "608060405234801561000f575f80fd5b506112b38061001d5f395ff3fe608060405234801561000f575f80fd5b5060043610610029575f3560e01c8063f6af03111461002d575b5f80fd5b61004760048036038101906100429190611079565b61005d565b60405161005491906110bf565b60405180910390f35b5f805f67ffffffffffffffff81111561007957610078610e1c565b5b6040519080825280602002602001820160405280156100a75781602001602082028036833780820191505090505b5090505f6100b582856100ce565b036100c45760019150506100c9565b5f9150505b919050565b5f807f30644e72e131a029b85045b68181585d2833e84879b9709143e1f593f000000190505f6100fc610259565b9050806080015151600186516101129190611105565b1461011b575f80fd5b5f60405180604001604052805f81526020015f81525090505f5b86518110156101cf578387828151811061015257610151611138565b5b602002602001015110610163575f80fd5b6101ba826101b5856080015160018561017c9190611105565b8151811061018d5761018c611138565b5b60200260200101518a85815181106101a8576101a7611138565b5b60200260200101516105e3565b610680565b915080806101c790611165565b915050610135565b506101f88183608001515f815181106101eb576101ea611138565b5b6020026020010151610680565b905061023c855f0151866020015161020f84610742565b85604001516102218a60400151610742565b8760600151610232895f0151610742565b89602001516107e0565b61024c5760019350505050610253565b5f93505050505b92915050565b610261610cee565b60405180604001604052807f206d960593d941bf781f3b6e3f95916f6520377bff96299cd16ba8d8ef9120b581526020017f29a95be0f241b789a1fe8cdcf9c7e3f3d4aa637c5dcb0382f88285f6582adade815250815f0181905250604051806040016040528060405180604001604052807f251a596db059ea83f20caa9d1b4374816cca7f5f9c9c390f909d7f434686a58f81526020017f291f5a2ff34731a219db79627796becab5d92e4ad89249ae03b39b65737d1983815250815260200160405180604001604052807f2d509c0da4ab56f26890d29d0cdd6f5a4a9cedf0aa81f06e8487617918947eea81526020017f2204201ec00a2d0da8b4cb010c79f4ebcecbf9707e6f4f551e4d1f862073dac38152508152508160200181905250604051806040016040528060405180604001604052807f1dd14e44f2b02a66b5e29b44aa92bf941419d625f4616fc2a95e77fd5811dadb81526020017f26a61cc4785a135211c384bd63d8f0a31af7a4cde00f3e9988e5443c87952b34815250815260200160405180604001604052807f15aabbe70630d13fe6b322ab27d8324a46fab2e9198377f9c6cd34667277453481526020017f1554660dda2fa742dea97963e3fd288334955bcbbce2f7a49a5954bd3420039a8152508152508160400181905250604051806040016040528060405180604001604052807f2d836df4b09b09bc96a308a8457129bd716ac8996628901ba014777e38b91d3681526020017f204672d7224748a862be81d235d059a0d0b61cd8e9ba31e0b7a54b0884a28b1b815250815260200160405180604001604052807f19437a9cdfd12b7d453b5193141d0cfbbdf41cd30a886d7a0d92b34c5e2324d581526020017f1e49c1f10b587d76b876e8ff64d69e3a22ad9704d67d53ca05b5a5706d339d3d8152508152508160600181905250600167ffffffffffffffff81111561052757610526610e1c565b5b60405190808252806020026020018201604052801561056057816020015b61054d610d35565b8152602001906001900390816105455790505b50816080018190525060405180604001604052807f0ba3aaceace761acc25977784cffe381c89288ee0c978c0c256b93cd7c2f552f81526020017f06bd36158541f776b681ec199087fcb24d44e92330b055c7e7ebd5f9edcb7d6881525081608001515f815181106105d5576105d4611138565b5b602002602001018190525090565b6105eb610d35565b6105f3610d4d565b835f0151815f6003811061060a57610609611138565b5b60200201818152505083602001518160016003811061062c5761062b611138565b5b602002018181525050828160026003811061064a57610649611138565b5b6020020181815250505f60608360808460076107d05a03fa9050805f810361066e57fe5b5080610678575f80fd5b505092915050565b610688610d35565b610690610d6f565b835f0151815f600481106106a7576106a6611138565b5b6020020181815250508360200151816001600481106106c9576106c8611138565b5b602002018181525050825f0151816002600481106106ea576106e9611138565b5b60200201818152505082602001518160036004811061070c5761070b611138565b5b6020020181815250505f60608360c08460066107d05a03fa9050805f810361073057fe5b508061073a575f80fd5b505092915050565b61074a610d35565b5f7f30644e72e131a029b85045b68181585d97816a916871ca8d3c208c16d87cfd4790505f835f015114801561078357505f8360200151145b156107a55760405180604001604052805f81526020015f8152509150506107db565b6040518060400160405280845f015181526020018285602001516107c991906111d9565b836107d49190611209565b8152509150505b919050565b5f80600467ffffffffffffffff8111156107fd576107fc610e1c565b5b60405190808252806020026020018201604052801561083657816020015b610823610d35565b81526020019060019003908161081b5790505b5090505f600467ffffffffffffffff81111561085557610854610e1c565b5b60405190808252806020026020018201604052801561088e57816020015b61087b610d91565b8152602001906001900390816108735790505b5090508a825f815181106108a5576108a4611138565b5b602002602001018190525088826001815181106108c5576108c4611138565b5b602002602001018190525086826002815181106108e5576108e4611138565b5b6020026020010181905250848260038151811061090557610904611138565b5b602002602001018190525089815f8151811061092457610923611138565b5b6020026020010181905250878160018151811061094457610943611138565b5b6020026020010181905250858160028151811061096457610963611138565b5b6020026020010181905250838160038151811061098457610983611138565b5b602002602001018190525061099982826109a9565b9250505098975050505050505050565b5f81518351146109b7575f80fd5b5f835190505f6006826109ca919061123c565b90505f8167ffffffffffffffff8111156109e7576109e6610e1c565b5b604051908082528060200260200182016040528015610a155781602001602082028036833780820191505090505b5090505f5b83811015610c9357868181518110610a3557610a34611138565b5b60200260200101515f0151825f600684610a4f919061123c565b610a599190611105565b81518110610a6a57610a69611138565b5b602002602001018181525050868181518110610a8957610a88611138565b5b602002602001015160200151826001600684610aa5919061123c565b610aaf9190611105565b81518110610ac057610abf611138565b5b602002602001018181525050858181518110610adf57610ade611138565b5b60200260200101515f0151600160028110610afd57610afc611138565b5b6020020151826002600684610b12919061123c565b610b1c9190611105565b81518110610b2d57610b2c611138565b5b602002602001018181525050858181518110610b4c57610b4b611138565b5b60200260200101515f01515f60028110610b6957610b68611138565b5b6020020151826003600684610b7e919061123c565b610b889190611105565b81518110610b9957610b98611138565b5b602002602001018181525050858181518110610bb857610bb7611138565b5b602002602001015160200151600160028110610bd757610bd6611138565b5b6020020151826004600684610bec919061123c565b610bf69190611105565b81518110610c0757610c06611138565b5b602002602001018181525050858181518110610c2657610c25611138565b5b6020026020010151602001515f60028110610c4457610c43611138565b5b6020020151826005600684610c59919061123c565b610c639190611105565b81518110610c7457610c73611138565b5b6020026020010181815250508080610c8b90611165565b915050610a1a565b50610c9c610db7565b5f602082602086026020860160086107d05a03fa9050805f8103610cbc57fe5b5080610cc6575f80fd5b5f825f60018110610cda57610cd9611138565b5b602002015114159550505050505092915050565b6040518060a00160405280610d01610d35565b8152602001610d0e610d91565b8152602001610d1b610d91565b8152602001610d28610d91565b8152602001606081525090565b60405180604001604052805f81526020015f81525090565b6040518060600160405280600390602082028036833780820191505090505090565b6040518060800160405280600490602082028036833780820191505090505090565b6040518060400160405280610da4610dd9565b8152602001610db1610dd9565b81525090565b6040518060200160405280600190602082028036833780820191505090505090565b6040518060400160405280600290602082028036833780820191505090505090565b5f604051905090565b5f80fd5b5f80fd5b5f601f19601f8301169050919050565b7f4e487b71000000000000000000000000000000000000000000000000000000005f52604160045260245ffd5b610e5282610e0c565b810181811067ffffffffffffffff82111715610e7157610e70610e1c565b5b80604052505050565b5f610e83610dfb565b9050610e8f8282610e49565b919050565b5f819050919050565b610ea681610e94565b8114610eb0575f80fd5b50565b5f81359050610ec181610e9d565b92915050565b5f60408284031215610edc57610edb610e08565b5b610ee66040610e7a565b90505f610ef584828501610eb3565b5f830152506020610f0884828501610eb3565b60208301525092915050565b5f80fd5b5f67ffffffffffffffff821115610f3257610f31610e1c565b5b602082029050919050565b5f80fd5b5f610f53610f4e84610f18565b610e7a565b90508060208402830185811115610f6d57610f6c610f3d565b5b835b81811015610f965780610f828882610eb3565b845260208401935050602081019050610f6f565b5050509392505050565b5f82601f830112610fb457610fb3610f14565b5b6002610fc1848285610f41565b91505092915050565b5f60808284031215610fdf57610fde610e08565b5b610fe96040610e7a565b90505f610ff884828501610fa0565b5f83015250604061100b84828501610fa0565b60208301525092915050565b5f610100828403121561102d5761102c610e08565b5b6110376060610e7a565b90505f61104684828501610ec7565b5f83015250604061105984828501610fca565b60208301525060c061106d84828501610ec7565b60408301525092915050565b5f610100828403121561108f5761108e610e04565b5b5f61109c84828501611017565b91505092915050565b5f8115159050919050565b6110b9816110a5565b82525050565b5f6020820190506110d25f8301846110b0565b92915050565b7f4e487b71000000000000000000000000000000000000000000000000000000005f52601160045260245ffd5b5f61110f82610e94565b915061111a83610e94565b9250828201905080821115611132576111316110d8565b5b92915050565b7f4e487b71000000000000000000000000000000000000000000000000000000005f52603260045260245ffd5b5f61116f82610e94565b91507fffffffffffffffffffffffffffffffffffffffffffffffffffffffffffffffff82036111a1576111a06110d8565b5b600182019050919050565b7f4e487b71000000000000000000000000000000000000000000000000000000005f52601260045260245ffd5b5f6111e382610e94565b91506111ee83610e94565b9250826111fe576111fd6111ac565b5b828206905092915050565b5f61121382610e94565b915061121e83610e94565b9250828203905081811115611236576112356110d8565b5b92915050565b5f61124682610e94565b915061125183610e94565b925082820261125f81610e94565b91508282048414831517611276576112756110d8565b5b509291505056fea2646970667358221220985a0571d86672978749830e64d4ab1f8a02536d96abaaae80082ac6deb5887264736f6c63430008150033",
					"opcodes": "PUSH1 0x80 PUSH1 0x40 MSTORE CALLVALUE DUP1 ISZERO PUSH2 0xF JUMPI PUSH0 DUP1 REVERT JUMPDEST POP PUSH2 0x12B3 DUP1 PUSH2 0x1D PUSH0 CODECOPY PUSH0 RETURN INVALID PUSH1 0x80 PUSH1 0x40 MSTORE CALLVALUE DUP1 ISZERO PUSH2 0xF JUMPI PUSH0 DUP1 REVERT JUMPDEST POP PUSH1 0x4 CALLDATASIZE LT PUSH2 0x29 JUMPI PUSH0 CALLDATALOAD PUSH1 0xE0 SHR DUP1 PUSH4 0xF6AF0311 EQ PUSH2 0x2D JUMPI JUMPDEST PUSH0 DUP1 REVERT JUMPDEST PUSH2 0x47 PUSH1 0x4 DUP1 CALLDATASIZE SUB DUP2 ADD SWAP1 PUSH2 0x42 SWAP2 SWAP1 PUSH2 0x1079 JUMP JUMPDEST PUSH2 0x5D JUMP JUMPDEST PUSH1 0x40 MLOAD PUSH2 0x54 SWAP2 SWAP1 PUSH2 0x10BF JUMP JUMPDEST PUSH1 0x40 MLOAD DUP1 SWAP2 SUB SWAP1 RETURN JUMPDEST PUSH0 DUP1 PUSH0 PUSH8 0xFFFFFFFFFFFFFFFF DUP2 GT ISZERO PUSH2 0x79 JUMPI PUSH2 0x78 PUSH2 0xE1C JUMP JUMPDEST JUMPDEST PUSH1 0x40 MLOAD SWAP1 DUP1 DUP3 MSTORE DUP1 PUSH1 0x20 MUL PUSH1 0x20 ADD DUP3 ADD PUSH1 0x40 MSTORE DUP1 ISZERO PUSH2 0xA7 JUMPI DUP2 PUSH1 0x20 ADD PUSH1 0x20 DUP3 MUL DUP1 CALLDATASIZE DUP4 CALLDATACOPY DUP1 DUP3 ADD SWAP2 POP POP SWAP1 POP JUMPDEST POP SWAP1 POP PUSH0 PUSH2 0xB5 DUP3 DUP6 PUSH2 0xCE JUMP JUMPDEST SUB PUSH2 0xC4 JUMPI PUSH1 0x1 SWAP2 POP POP PUSH2 0xC9 JUMP JUMPDEST PUSH0 SWAP2 POP POP JUMPDEST SWAP2 SWAP1 POP JUMP JUMPDEST PUSH0 DUP1 PUSH32 0x30644E72E131A029B85045B68181585D2833E84879B9709143E1F593F0000001 SWAP1 POP PUSH0 PUSH2 0xFC PUSH2 0x259 JUMP JUMPDEST SWAP1 POP DUP1 PUSH1 0x80 ADD MLOAD MLOAD PUSH1 0x1 DUP7 MLOAD PUSH2 0x112 SWAP2 SWAP1 PUSH2 0x1105 JUMP JUMPDEST EQ PUSH2 0x11B JUMPI PUSH0 DUP1 REVERT JUMPDEST PUSH0 PUSH1 0x40 MLOAD DUP1 PUSH1 0x40 ADD PUSH1 0x40 MSTORE DUP1 PUSH0 DUP2 MSTORE PUSH1 0x20 ADD PUSH0 DUP2 MSTORE POP SWAP1 POP PUSH0 JUMPDEST DUP7 MLOAD DUP2 LT ISZERO PUSH2 0x1CF JUMPI DUP4 DUP8 DUP3 DUP2 MLOAD DUP2 LT PUSH2 0x152 JUMPI PUSH2 0x151 PUSH2 0x1138 JUMP JUMPDEST JUMPDEST PUSH1 0x20 MUL PUSH1 0x20 ADD ADD MLOAD LT PUSH2 0x163 JUMPI PUSH0 DUP1 REVERT JUMPDEST PUSH2 0x1BA DUP3 PUSH2 0x1B5 DUP6 PUSH1 0x80 ADD MLOAD PUSH1 0x1 DUP6 PUSH2 0x17C SWAP2 SWAP1 PUSH2 0x1105 JUMP JUMPDEST DUP2 MLOAD DUP2 LT PUSH2 0x18D JUMPI PUSH2 0x18C PUSH2 0x1138 JUMP JUMPDEST JUMPDEST PUSH1 0x20 MUL PUSH1 0x20 ADD ADD MLOAD DUP11 DUP6 DUP2 MLOAD DUP2 LT PUSH2 0x1A8 JUMPI PUSH2 0x1A7 PUSH2 0x1138 JUMP JUMPDEST JUMPDEST PUSH1 0x20 MUL PUSH1 0x20 ADD ADD MLOAD PUSH2 0x5E3 JUMP JUMPDEST PUSH2 0x680 JUMP JUMPDEST SWAP2 POP DUP1 DUP1 PUSH2 0x1C7 SWAP1 PUSH2 0x1165 JUMP JUMPDEST SWAP2 POP POP PUSH2 0x135 JUMP JUMPDEST POP PUSH2 0x1F8 DUP2 DUP4 PUSH1 0x80 ADD MLOAD PUSH0 DUP2 MLOAD DUP2 LT PUSH2 0x1EB JUMPI PUSH2 0x1EA PUSH2 0x1138 JUMP JUMPDEST JUMPDEST PUSH1 0x20 MUL PUSH1 0x20 ADD ADD MLOAD PUSH2 0x680 JUMP JUMPDEST SWAP1 POP PUSH2 0x23C DUP6 PUSH0 ADD MLOAD DUP7 PUSH1 0x20 ADD MLOAD PUSH2 0x20F DUP5 PUSH2 0x742 JUMP JUMPDEST DUP6 PUSH1 0x40 ADD MLOAD PUSH2 0x221 DUP11 PUSH1 0x40 ADD MLOAD PUSH2 0x742 JUMP JUMPDEST DUP8 PUSH1 0x60 ADD MLOAD PUSH2 0x232 DUP10 PUSH0 ADD MLOAD PUSH2 0x742 JUMP JUMPDEST DUP10 PUSH1 0x20 ADD MLOAD PUSH2 0x7E0 JUMP JUMPDEST PUSH2 0x24C JUMPI PUSH1 0x1 SWAP4 POP POP POP POP PUSH2 0x253 JUMP JUMPDEST PUSH0 SWAP4 POP POP POP POP JUMPDEST SWAP3 SWAP2 POP POP JUMP JUMPDEST PUSH2 0x261 PUSH2 0xCEE JUMP JUMPDEST PUSH1 0x40 MLOAD DUP1 PUSH1 0x40 ADD PUSH1 0x40 MSTORE DUP1 PUSH32 0x206D960593D941BF781F3B6E3F95916F6520377BFF96299CD16BA8D8EF9120B5 DUP2 MSTORE PUSH1 0x20 ADD PUSH32 0x29A95BE0F241B789A1FE8CDCF9C7E3F3D4AA637C5DCB0382F88285F6582ADADE DUP2 MSTORE POP DUP2 PUSH0 ADD DUP2 SWAP1 MSTORE POP PUSH1 0x40 MLOAD DUP1 PUSH1 0x40 ADD PUSH1 0x40 MSTORE DUP1 PUSH1 0x40 MLOAD DUP1 PUSH1 0x40 ADD PUSH1 0x40 MSTORE DUP1 PUSH32 0x251A596DB059EA83F20CAA9D1B4374816CCA7F5F9C9C390F909D7F434686A58F DUP2 MSTORE PUSH1 0x20 ADD PUSH32 0x291F5A2FF34731A219DB79627796BECAB5D92E4AD89249AE03B39B65737D1983 DUP2 MSTORE POP DUP2 MSTORE PUSH1 0x20 ADD PUSH1 0x40 MLOAD DUP1 PUSH1 0x40 ADD PUSH1 0x40 MSTORE DUP1 PUSH32 0x2D509C0DA4AB56F26890D29D0CDD6F5A4A9CEDF0AA81F06E8487617918947EEA DUP2 MSTORE PUSH1 0x20 ADD PUSH32 0x2204201EC00A2D0DA8B4CB010C79F4EBCECBF9707E6F4F551E4D1F862073DAC3 DUP2 MSTORE POP DUP2 MSTORE POP DUP2 PUSH1 0x20 ADD DUP2 SWAP1 MSTORE POP PUSH1 0x40 MLOAD DUP1 PUSH1 0x40 ADD PUSH1 0x40 MSTORE DUP1 PUSH1 0x40 MLOAD DUP1 PUSH1 0x40 ADD PUSH1 0x40 MSTORE DUP1 PUSH32 0x1DD14E44F2B02A66B5E29B44AA92BF941419D625F4616FC2A95E77FD5811DADB DUP2 MSTORE PUSH1 0x20 ADD PUSH32 0x26A61CC4785A135211C384BD63D8F0A31AF7A4CDE00F3E9988E5443C87952B34 DUP2 MSTORE POP DUP2 MSTORE PUSH1 0x20 ADD PUSH1 0x40 MLOAD DUP1 PUSH1 0x40 ADD PUSH1 0x40 MSTORE DUP1 PUSH32 0x15AABBE70630D13FE6B322AB27D8324A46FAB2E9198377F9C6CD346672774534 DUP2 MSTORE PUSH1 0x20 ADD PUSH32 0x1554660DDA2FA742DEA97963E3FD288334955BCBBCE2F7A49A5954BD3420039A DUP2 MSTORE POP DUP2 MSTORE POP DUP2 PUSH1 0x40 ADD DUP2 SWAP1 MSTORE POP PUSH1 0x40 MLOAD DUP1 PUSH1 0x40 ADD PUSH1 0x40 MSTORE DUP1 PUSH1 0x40 MLOAD DUP1 PUSH1 0x40 ADD PUSH1 0x40 MSTORE DUP1 PUSH32 0x2D836DF4B09B09BC96A308A8457129BD716AC8996628901BA014777E38B91D36 DUP2 MSTORE PUSH1 0x20 ADD PUSH32 0x204672D7224748A862BE81D235D059A0D0B61CD8E9BA31E0B7A54B0884A28B1B DUP2 MSTORE POP DUP2 MSTORE PUSH1 0x20 ADD PUSH1 0x40 MLOAD DUP1 PUSH1 0x40 ADD PUSH1 0x40 MSTORE DUP1 PUSH32 0x19437A9CDFD12B7D453B5193141D0CFBBDF41CD30A886D7A0D92B34C5E2324D5 DUP2 MSTORE PUSH1 0x20 ADD PUSH32 0x1E49C1F10B587D76B876E8FF64D69E3A22AD9704D67D53CA05B5A5706D339D3D DUP2 MSTORE POP DUP2 MSTORE POP DUP2 PUSH1 0x60 ADD DUP2 SWAP1 MSTORE POP PUSH1 0x1 PUSH8 0xFFFFFFFFFFFFFFFF DUP2 GT ISZERO PUSH2 0x527 JUMPI PUSH2 0x526 PUSH2 0xE1C JUMP JUMPDEST JUMPDEST PUSH1 0x40 MLOAD SWAP1 DUP1 DUP3 MSTORE DUP1 PUSH1 0x20 MUL PUSH1 0x20 ADD DUP3 ADD PUSH1 0x40 MSTORE DUP1 ISZERO PUSH2 0x560 JUMPI DUP2 PUSH1 0x20 ADD JUMPDEST PUSH2 0x54D PUSH2 0xD35 JUMP JUMPDEST DUP2 MSTORE PUSH1 0x20 ADD SWAP1 PUSH1 0x1 SWAP1 SUB SWAP1 DUP2 PUSH2 0x545 JUMPI SWAP1 POP JUMPDEST POP DUP2 PUSH1 0x80 ADD DUP2 SWAP1 MSTORE POP PUSH1 0x40 MLOAD DUP1 PUSH1 0x40 ADD PUSH1 0x40 MSTORE DUP1 PUSH32 0xBA3AACEACE761ACC25977784CFFE381C89288EE0C978C0C256B93CD7C2F552F DUP2 MSTORE PUSH1 0x20 ADD PUSH32 0x6BD36158541F776B681EC199087FCB24D44E92330B055C7E7EBD5F9EDCB7D68 DUP2 MSTORE POP DUP2 PUSH1 0x80 ADD MLOAD PUSH0 DUP2 MLOAD DUP2 LT PUSH2 0x5D5 JUMPI PUSH2 0x5D4 PUSH2 0x1138 JUMP JUMPDEST JUMPDEST PUSH1 0x20 MUL PUSH1 0x20 ADD ADD DUP2 SWAP1 MSTORE POP SWAP1 JUMP JUMPDEST PUSH2 0x5EB PUSH2 0xD35 JUMP JUMPDEST PUSH2 0x5F3 PUSH2 0xD4D JUMP JUMPDEST DUP4 PUSH0 ADD MLOAD DUP2 PUSH0 PUSH1 0x3 DUP2 LT PUSH2 0x60A JUMPI PUSH2 0x609 PUSH2 0x1138 JUMP JUMPDEST JUMPDEST PUSH1 0x20 MUL ADD DUP2 DUP2 MSTORE POP POP DUP4 PUSH1 0x20 ADD MLOAD DUP2 PUSH1 0x1 PUSH1 0x3 DUP2 LT PUSH2 0x62C JUMPI PUSH2 0x62B PUSH2 0x1138 JUMP JUMPDEST JUMPDEST PUSH1 0x20 MUL ADD DUP2 DUP2 MSTORE POP POP DUP3 DUP2 PUSH1 0x2 PUSH1 0x3 DUP2 LT PUSH2 0x64A JUMPI PUSH2 0x649 PUSH2 0x1138 JUMP JUMPDEST JUMPDEST PUSH1 0x20 MUL ADD DUP2 DUP2 MSTORE POP POP PUSH0 PUSH1 0x60 DUP4 PUSH1 0x80 DUP5 PUSH1 0x7 PUSH2 0x7D0 GAS SUB STATICCALL SWAP1 POP DUP1 PUSH0 DUP2 SUB PUSH2 0x66E JUMPI INVALID JUMPDEST POP DUP1 PUSH2 0x678 JUMPI PUSH0 DUP1 REVERT JUMPDEST POP POP SWAP3 SWAP2 POP POP JUMP JUMPDEST PUSH2 0x688 PUSH2 0xD35 JUMP JUMPDEST PUSH2 0x690 PUSH2 0xD6F JUMP JUMPDEST DUP4 PUSH0 ADD MLOAD DUP2 PUSH0 PUSH1 0x4 DUP2 LT PUSH2 0x6A7 JUMPI PUSH2 0x6A6 PUSH2 0x1138 JUMP JUMPDEST JUMPDEST PUSH1 0x20 MUL ADD DUP2 DUP2 MSTORE POP POP DUP4 PUSH1 0x20 ADD MLOAD DUP2 PUSH1 0x1 PUSH1 0x4 DUP2 LT PUSH2 0x6C9 JUMPI PUSH2 0x6C8 PUSH2 0x1138 JUMP JUMPDEST JUMPDEST PUSH1 0x20 MUL ADD DUP2 DUP2 MSTORE POP POP DUP3 PUSH0 ADD MLOAD DUP2 PUSH1 0x2 PUSH1 0x4 DUP2 LT PUSH2 0x6EA JUMPI PUSH2 0x6E9 PUSH2 0x1138 JUMP JUMPDEST JUMPDEST PUSH1 0x20 MUL ADD DUP2 DUP2 MSTORE POP POP DUP3 PUSH1 0x20 ADD MLOAD DUP2 PUSH1 0x3 PUSH1 0x4 DUP2 LT PUSH2 0x70C JUMPI PUSH2 0x70B PUSH2 0x1138 JUMP JUMPDEST JUMPDEST PUSH1 0x20 MUL ADD DUP2 DUP2 MSTORE POP POP PUSH0 PUSH1 0x60 DUP4 PUSH1 0xC0 DUP5 PUSH1 0x6 PUSH2 0x7D0 GAS SUB STATICCALL SWAP1 POP DUP1 PUSH0 DUP2 SUB PUSH2 0x730 JUMPI INVALID JUMPDEST POP DUP1 PUSH2 0x73A JUMPI PUSH0 DUP1 REVERT JUMPDEST POP POP SWAP3 SWAP2 POP POP JUMP JUMPDEST PUSH2 0x74A PUSH2 0xD35 JUMP JUMPDEST PUSH0 PUSH32 0x30644E72E131A029B85045B68181585D97816A916871CA8D3C208C16D87CFD47 SWAP1 POP PUSH0 DUP4 PUSH0 ADD MLOAD EQ DUP1 ISZERO PUSH2 0x783 JUMPI POP PUSH0 DUP4 PUSH1 0x20 ADD MLOAD EQ JUMPDEST ISZERO PUSH2 0x7A5 JUMPI PUSH1 0x40 MLOAD DUP1 PUSH1 0x40 ADD PUSH1 0x40 MSTORE DUP1 PUSH0 DUP2 MSTORE PUSH1 0x20 ADD PUSH0 DUP2 MSTORE POP SWAP2 POP POP PUSH2 0x7DB JUMP JUMPDEST PUSH1 0x40 MLOAD DUP1 PUSH1 0x40 ADD PUSH1 0x40 MSTORE DUP1 DUP5 PUSH0 ADD MLOAD DUP2 MSTORE PUSH1 0x20 ADD DUP3 DUP6 PUSH1 0x20 ADD MLOAD PUSH2 0x7C9 SWAP2 SWAP1 PUSH2 0x11D9 JUMP JUMPDEST DUP4 PUSH2 0x7D4 SWAP2 SWAP1 PUSH2 0x1209 JUMP JUMPDEST DUP2 MSTORE POP SWAP2 POP POP JUMPDEST SWAP2 SWAP1 POP JUMP JUMPDEST PUSH0 DUP1 PUSH1 0x4 PUSH8 0xFFFFFFFFFFFFFFFF DUP2 GT ISZERO PUSH2 0x7FD JUMPI PUSH2 0x7FC PUSH2 0xE1C JUMP JUMPDEST JUMPDEST PUSH1 0x40 MLOAD SWAP1 DUP1 DUP3 MSTORE DUP1 PUSH1 0x20 MUL PUSH1 0x20 ADD DUP3 ADD PUSH1 0x40 MSTORE DUP1 ISZERO PUSH2 0x836 JUMPI DUP2 PUSH1 0x20 ADD JUMPDEST PUSH2 0x823 PUSH2 0xD35 JUMP JUMPDEST DUP2 MSTORE PUSH1 0x20 ADD SWAP1 PUSH1 0x1 SWAP1 SUB SWAP1 DUP2 PUSH2 0x81B JUMPI SWAP1 POP JUMPDEST POP SWAP1 POP PUSH0 PUSH1 0x4 PUSH8 0xFFFFFFFFFFFFFFFF DUP2 GT ISZERO PUSH2 0x855 JUMPI PUSH2 0x854 PUSH2 0xE1C JUMP JUMPDEST JUMPDEST PUSH1 0x40 MLOAD SWAP1 DUP1 DUP3 MSTORE DUP1 PUSH1 0x20 MUL PUSH1 0x20 ADD DUP3 ADD PUSH1 0x40 MSTORE DUP1 ISZERO PUSH2 0x88E JUMPI DUP2 PUSH1 0x20 ADD JUMPDEST PUSH2 0x87B PUSH2 0xD91 JUMP JUMPDEST DUP2 MSTORE PUSH1 0x20 ADD SWAP1 PUSH1 0x1 SWAP1 SUB SWAP1 DUP2 PUSH2 0x873 JUMPI SWAP1 POP JUMPDEST POP SWAP1 POP DUP11 DUP3 PUSH0 DUP2 MLOAD DUP2 LT PUSH2 0x8A5 JUMPI PUSH2 0x8A4 PUSH2 0x1138 JUMP JUMPDEST JUMPDEST PUSH1 0x20 MUL PUSH1 0x20 ADD ADD DUP2 SWAP1 MSTORE POP DUP9 DUP3 PUSH1 0x1 DUP2 MLOAD DUP2 LT PUSH2 0x8C5 JUMPI PUSH2 0x8C4 PUSH2 0x1138 JUMP JUMPDEST JUMPDEST PUSH1 0x20 MUL PUSH1 0x20 ADD ADD DUP2 SWAP1 MSTORE POP DUP7 DUP3 PUSH1 0x2 DUP2 MLOAD DUP2 LT PUSH2 0x8E5 JUMPI PUSH2 0x8E4 PUSH2 0x1138 JUMP JUMPDEST JUMPDEST PUSH1 0x20 MUL PUSH1 0x20 ADD ADD DUP2 SWAP1 MSTORE POP DUP5 DUP3 PUSH1 0x3 DUP2 MLOAD DUP2 LT PUSH2 0x905 JUMPI PUSH2 0x904 PUSH2 0x1138 JUMP JUMPDEST JUMPDEST PUSH1 0x20 MUL PUSH1 0x20 ADD ADD DUP2 SWAP1 MSTORE POP DUP10 DUP2 PUSH0 DUP2 MLOAD DUP2 LT PUSH2 0x924 JUMPI PUSH2 0x923 PUSH2 0x1138 JUMP JUMPDEST JUMPDEST PUSH1 0x20 MUL PUSH1 0x20 ADD ADD DUP2 SWAP1 MSTORE POP DUP8 DUP2 PUSH1 0x1 DUP2 MLOAD DUP2 LT PUSH2 0x944 JUMPI PUSH2 0x943 PUSH2 0x1138 JUMP JUMPDEST JUMPDEST PUSH1 0x20 MUL PUSH1 0x20 ADD ADD DUP2 SWAP1 MSTORE POP DUP6 DUP2 PUSH1 0x2 DUP2 MLOAD DUP2 LT PUSH2 0x964 JUMPI PUSH2 0x963 PUSH2 0x1138 JUMP JUMPDEST JUMPDEST PUSH1 0x20 MUL PUSH1 0x20 ADD ADD DUP2 SWAP1 MSTORE POP DUP4 DUP2 PUSH1 0x3 DUP2 MLOAD DUP2 LT PUSH2 0x984 JUMPI PUSH2 0x983 PUSH2 0x1138 JUMP JUMPDEST JUMPDEST PUSH1 0x20 MUL PUSH1 0x20 ADD ADD DUP2 SWAP1 MSTORE POP PUSH2 0x999 DUP3 DUP3 PUSH2 0x9A9 JUMP JUMPDEST SWAP3 POP POP POP SWAP9 SWAP8 POP POP POP POP POP POP POP POP JUMP JUMPDEST PUSH0 DUP2 MLOAD DUP4 MLOAD EQ PUSH2 0x9B7 JUMPI PUSH0 DUP1 REVERT JUMPDEST PUSH0 DUP4 MLOAD SWAP1 POP PUSH0 PUSH1 0x6 DUP3 PUSH2 0x9CA SWAP2 SWAP1 PUSH2 0x123C JUMP JUMPDEST SWAP1 POP PUSH0 DUP2 PUSH8 0xFFFFFFFFFFFFFFFF DUP2 GT ISZERO PUSH2 0x9E7 JUMPI PUSH2 0x9E6 PUSH2 0xE1C JUMP JUMPDEST JUMPDEST PUSH1 0x40 MLOAD SWAP1 DUP1 DUP3 MSTORE DUP1 PUSH1 0x20 MUL PUSH1 0x20 ADD DUP3 ADD PUSH1 0x40 MSTORE DUP1 ISZERO PUSH2 0xA15 JUMPI DUP2 PUSH1 0x20 ADD PUSH1 0x20 DUP3 MUL DUP1 CALLDATASIZE DUP4 CALLDATACOPY DUP1 DUP3 ADD SWAP2 POP POP SWAP1 POP JUMPDEST POP SWAP1 POP PUSH0 JUMPDEST DUP4 DUP2 LT ISZERO PUSH2 0xC93 JUMPI DUP7 DUP2 DUP2 MLOAD DUP2 LT PUSH2 0xA35 JUMPI PUSH2 0xA34 PUSH2 0x1138 JUMP JUMPDEST JUMPDEST PUSH1 0x20 MUL PUSH1 0x20 ADD ADD MLOAD PUSH0 ADD MLOAD DUP3 PUSH0 PUSH1 0x6 DUP5 PUSH2 0xA4F SWAP2 SWAP1 PUSH2 0x123C JUMP JUMPDEST PUSH2 0xA59 SWAP2 SWAP1 PUSH2 0x1105 JUMP JUMPDEST DUP2 MLOAD DUP2 LT PUSH2 0xA6A JUMPI PUSH2 0xA69 PUSH2 0x1138 JUMP JUMPDEST JUMPDEST PUSH1 0x20 MUL PUSH1 0x20 ADD ADD DUP2 DUP2 MSTORE POP POP DUP7 DUP2 DUP2 MLOAD DUP2 LT PUSH2 0xA89 JUMPI PUSH2 0xA88 PUSH2 0x1138 JUMP JUMPDEST JUMPDEST PUSH1 0x20 MUL PUSH1 0x20 ADD ADD MLOAD PUSH1 0x20 ADD MLOAD DUP3 PUSH1 0x1 PUSH1 0x6 DUP5 PUSH2 0xAA5 SWAP2 SWAP1 PUSH2 0x123C JUMP JUMPDEST PUSH2 0xAAF SWAP2 SWAP1 PUSH2 0x1105 JUMP JUMPDEST DUP2 MLOAD DUP2 LT PUSH2 0xAC0 JUMPI PUSH2 0xABF PUSH2 0x1138 JUMP JUMPDEST JUMPDEST PUSH1 0x20 MUL PUSH1 0x20 ADD ADD DUP2 DUP2 MSTORE POP POP DUP6 DUP2 DUP2 MLOAD DUP2 LT PUSH2 0xADF JUMPI PUSH2 0xADE PUSH2 0x1138 JUMP JUMPDEST JUMPDEST PUSH1 0x20 MUL PUSH1 0x20 ADD ADD MLOAD PUSH0 ADD MLOAD PUSH1 0x1 PUSH1 0x2 DUP2 LT PUSH2 0xAFD JUMPI PUSH2 0xAFC PUSH2 0x1138 JUMP JUMPDEST JUMPDEST PUSH1 0x20 MUL ADD MLOAD DUP3 PUSH1 0x2 PUSH1 0x6 DUP5 PUSH2 0xB12 SWAP2 SWAP1 PUSH2 0x123C JUMP JUMPDEST PUSH2 0xB1C SWAP2 SWAP1 PUSH2 0x1105 JUMP JUMPDEST DUP2 MLOAD DUP2 LT PUSH2 0xB2D JUMPI PUSH2 0xB2C PUSH2 0x1138 JUMP JUMPDEST JUMPDEST PUSH1 0x20 MUL PUSH1 0x20 ADD ADD DUP2 DUP2 MSTORE POP POP DUP6 DUP2 DUP2 MLOAD DUP2 LT PUSH2 0xB4C JUMPI PUSH2 0xB4B PUSH2 0x1138 JUMP JUMPDEST JUMPDEST PUSH1 0x20 MUL PUSH1 0x20 ADD ADD MLOAD PUSH0 ADD MLOAD PUSH0 PUSH1 0x2 DUP2 LT PUSH2 0xB69 JUMPI PUSH2 0xB68 PUSH2 0x1138 JUMP JUMPDEST JUMPDEST PUSH1 0x20 MUL ADD MLOAD DUP3 PUSH1 0x3 PUSH1 0x6 DUP5 PUSH2 0xB7E SWAP2 SWAP1 PUSH2 0x123C JUMP JUMPDEST PUSH2 0xB88 SWAP2 SWAP1 PUSH2 0x1105 JUMP JUMPDEST DUP2 MLOAD DUP2 LT PUSH2 0xB99 JUMPI PUSH2 0xB98 PUSH2 0x1138 JUMP JUMPDEST JUMPDEST PUSH1 0x20 MUL PUSH1 0x20 ADD ADD DUP2 DUP2 MSTORE POP POP DUP6 DUP2 DUP2 MLOAD DUP2 LT PUSH2 0xBB8 JUMPI PUSH2 0xBB7 PUSH2 0x1138 JUMP JUMPDEST JUMPDEST PUSH1 0x20 MUL PUSH1 0x20 ADD ADD MLOAD PUSH1 0x20 ADD MLOAD PUSH1 0x1 PUSH1 0x2 DUP2 LT PUSH2 0xBD7 JUMPI PUSH2 0xBD6 PUSH2 0x1138 JUMP JUMPDEST JUMPDEST PUSH1 0x20 MUL ADD MLOAD DUP3 PUSH1 0x4 PUSH1 0x6 DUP5 PUSH2 0xBEC SWAP2 SWAP1 PUSH2 0x123C JUMP JUMPDEST PUSH2 0xBF6 SWAP2 SWAP1 PUSH2 0x1105 JUMP JUMPDEST DUP2 MLOAD DUP2 LT PUSH2 0xC07 JUMPI PUSH2 0xC06 PUSH2 0x1138 JUMP JUMPDEST JUMPDEST PUSH1 0x20 MUL PUSH1 0x20 ADD ADD DUP2 DUP2 MSTORE POP POP DUP6 DUP2 DUP2 MLOAD DUP2 LT PUSH2 0xC26 JUMPI PUSH2 0xC25 PUSH2 0x1138 JUMP JUMPDEST JUMPDEST PUSH1 0x20 MUL PUSH1 0x20 ADD ADD MLOAD PUSH1 0x20 ADD MLOAD PUSH0 PUSH1 0x2 DUP2 LT PUSH2 0xC44 JUMPI PUSH2 0xC43 PUSH2 0x1138 JUMP JUMPDEST JUMPDEST PUSH1 0x20 MUL ADD MLOAD DUP3 PUSH1 0x5 PUSH1 0x6 DUP5 PUSH2 0xC59 SWAP2 SWAP1 PUSH2 0x123C JUMP JUMPDEST PUSH2 0xC63 SWAP2 SWAP1 PUSH2 0x1105 JUMP JUMPDEST DUP2 MLOAD DUP2 LT PUSH2 0xC74 JUMPI PUSH2 0xC73 PUSH2 0x1138 JUMP JUMPDEST JUMPDEST PUSH1 0x20 MUL PUSH1 0x20 ADD ADD DUP2 DUP2 MSTORE POP POP DUP1 DUP1 PUSH2 0xC8B SWAP1 PUSH2 0x1165 JUMP JUMPDEST SWAP2 POP POP PUSH2 0xA1A JUMP JUMPDEST POP PUSH2 0xC9C PUSH2 0xDB7 JUMP JUMPDEST PUSH0 PUSH1 0x20 DUP3 PUSH1 0x20 DUP7 MUL PUSH1 0x20 DUP7 ADD PUSH1 0x8 PUSH2 0x7D0 GAS SUB STATICCALL SWAP1 POP DUP1 PUSH0 DUP2 SUB PUSH2 0xCBC JUMPI INVALID JUMPDEST POP DUP1 PUSH2 0xCC6 JUMPI PUSH0 DUP1 REVERT JUMPDEST PUSH0 DUP3 PUSH0 PUSH1 0x1 DUP2 LT PUSH2 0xCDA JUMPI PUSH2 0xCD9 PUSH2 0x1138 JUMP JUMPDEST JUMPDEST PUSH1 0x20 MUL ADD MLOAD EQ ISZERO SWAP6 POP POP POP POP POP POP SWAP3 SWAP2 POP POP JUMP JUMPDEST PUSH1 0x40 MLOAD DUP1 PUSH1 0xA0 ADD PUSH1 0x40 MSTORE DUP1 PUSH2 0xD01 PUSH2 0xD35 JUMP JUMPDEST DUP2 MSTORE PUSH1 0x20 ADD PUSH2 0xD0E PUSH2 0xD91 JUMP JUMPDEST DUP2 MSTORE PUSH1 0x20 ADD PUSH2 0xD1B PUSH2 0xD91 JUMP JUMPDEST DUP2 MSTORE PUSH1 0x20 ADD PUSH2 0xD28 PUSH2 0xD91 JUMP JUMPDEST DUP2 MSTORE PUSH1 0x20 ADD PUSH1 0x60 DUP2 MSTORE POP SWAP1 JUMP JUMPDEST PUSH1 0x40 MLOAD DUP1 PUSH1 0x40 ADD PUSH1 0x40 MSTORE DUP1 PUSH0 DUP2 MSTORE PUSH1 0x20 ADD PUSH0 DUP2 MSTORE POP SWAP1 JUMP JUMPDEST PUSH1 0x40 MLOAD DUP1 PUSH1 0x60 ADD PUSH1 0x40 MSTORE DUP1 PUSH1 0x3 SWAP1 PUSH1 0x20 DUP3 MUL DUP1 CALLDATASIZE DUP4 CALLDATACOPY DUP1 DUP3 ADD SWAP2 POP POP SWAP1 POP POP SWAP1 JUMP JUMPDEST PUSH1 0x40 MLOAD DUP1 PUSH1 0x80 ADD PUSH1 0x40 MSTORE DUP1 PUSH1 0x4 SWAP1 PUSH1 0x20 DUP3 MUL DUP1 CALLDATASIZE DUP4 CALLDATACOPY DUP1 DUP3 ADD SWAP2 POP POP SWAP1 POP POP SWAP1 JUMP JUMPDEST PUSH1 0x40 MLOAD DUP1 PUSH1 0x40 ADD PUSH1 0x40 MSTORE DUP1 PUSH2 0xDA4 PUSH2 0xDD9 JUMP JUMPDEST DUP2 MSTORE PUSH1 0x20 ADD PUSH2 0xDB1 PUSH2 0xDD9 JUMP JUMPDEST DUP2 MSTORE POP SWAP1 JUMP JUMPDEST PUSH1 0x40 MLOAD DUP1 PUSH1 0x20 ADD PUSH1 0x40 MSTORE DUP1 PUSH1 0x1 SWAP1 PUSH1 0x20 DUP3 MUL DUP1 CALLDATASIZE DUP4 CALLDATACOPY DUP1 DUP3 ADD SWAP2 POP POP SWAP1 POP POP SWAP1 JUMP JUMPDEST PUSH1 0x40 MLOAD DUP1 PUSH1 0x40 ADD PUSH1 0x40 MSTORE DUP1 PUSH1 0x2 SWAP1 PUSH1 0x20 DUP3 MUL DUP1 CALLDATASIZE DUP4 CALLDATACOPY DUP1 DUP3 ADD SWAP2 POP POP SWAP1 POP POP SWAP1 JUMP JUMPDEST PUSH0 PUSH1 0x40 MLOAD SWAP1 POP SWAP1 JUMP JUMPDEST PUSH0 DUP1 REVERT JUMPDEST PUSH0 DUP1 REVERT JUMPDEST PUSH0 PUSH1 0x1F NOT PUSH1 0x1F DUP4 ADD AND SWAP1 POP SWAP2 SWAP1 POP JUMP JUMPDEST PUSH32 0x4E487B7100000000000000000000000000000000000000000000000000000000 PUSH0 MSTORE PUSH1 0x41 PUSH1 0x4 MSTORE PUSH1 0x24 PUSH0 REVERT JUMPDEST PUSH2 0xE52 DUP3 PUSH2 0xE0C JUMP JUMPDEST DUP2 ADD DUP2 DUP2 LT PUSH8 0xFFFFFFFFFFFFFFFF DUP3 GT OR ISZERO PUSH2 0xE71 JUMPI PUSH2 0xE70 PUSH2 0xE1C JUMP JUMPDEST JUMPDEST DUP1 PUSH1 0x40 MSTORE POP POP POP JUMP JUMPDEST PUSH0 PUSH2 0xE83 PUSH2 0xDFB JUMP JUMPDEST SWAP1 POP PUSH2 0xE8F DUP3 DUP3 PUSH2 0xE49 JUMP JUMPDEST SWAP2 SWAP1 POP JUMP JUMPDEST PUSH0 DUP2 SWAP1 POP SWAP2 SWAP1 POP JUMP JUMPDEST PUSH2 0xEA6 DUP2 PUSH2 0xE94 JUMP JUMPDEST DUP2 EQ PUSH2 0xEB0 JUMPI PUSH0 DUP1 REVERT JUMPDEST POP JUMP JUMPDEST PUSH0 DUP2 CALLDATALOAD SWAP1 POP PUSH2 0xEC1 DUP2 PUSH2 0xE9D JUMP JUMPDEST SWAP3 SWAP2 POP POP JUMP JUMPDEST PUSH0 PUSH1 0x40 DUP3 DUP5 SUB SLT ISZERO PUSH2 0xEDC JUMPI PUSH2 0xEDB PUSH2 0xE08 JUMP JUMPDEST JUMPDEST PUSH2 0xEE6 PUSH1 0x40 PUSH2 0xE7A JUMP JUMPDEST SWAP1 POP PUSH0 PUSH2 0xEF5 DUP5 DUP3 DUP6 ADD PUSH2 0xEB3 JUMP JUMPDEST PUSH0 DUP4 ADD MSTORE POP PUSH1 0x20 PUSH2 0xF08 DUP5 DUP3 DUP6 ADD PUSH2 0xEB3 JUMP JUMPDEST PUSH1 0x20 DUP4 ADD MSTORE POP SWAP3 SWAP2 POP POP JUMP JUMPDEST PUSH0 DUP1 REVERT JUMPDEST PUSH0 PUSH8 0xFFFFFFFFFFFFFFFF DUP3 GT ISZERO PUSH2 0xF32 JUMPI PUSH2 0xF31 PUSH2 0xE1C JUMP JUMPDEST JUMPDEST PUSH1 0x20 DUP3 MUL SWAP1 POP SWAP2 SWAP1 POP JUMP JUMPDEST PUSH0 DUP1 REVERT JUMPDEST PUSH0 PUSH2 0xF53 PUSH2 0xF4E DUP5 PUSH2 0xF18 JUMP JUMPDEST PUSH2 0xE7A JUMP JUMPDEST SWAP1 POP DUP1 PUSH1 0x20 DUP5 MUL DUP4 ADD DUP6 DUP2 GT ISZERO PUSH2 0xF6D JUMPI PUSH2 0xF6C PUSH2 0xF3D JUMP JUMPDEST JUMPDEST DUP4 JUMPDEST DUP2 DUP2 LT ISZERO PUSH2 0xF96 JUMPI DUP1 PUSH2 0xF82 DUP9 DUP3 PUSH2 0xEB3 JUMP JUMPDEST DUP5 MSTORE PUSH1 0x20 DUP5 ADD SWAP4 POP POP PUSH1 0x20 DUP2 ADD SWAP1 POP PUSH2 0xF6F JUMP JUMPDEST POP POP POP SWAP4 SWAP3 POP POP POP JUMP JUMPDEST PUSH0 DUP3 PUSH1 0x1F DUP4 ADD SLT PUSH2 0xFB4 JUMPI PUSH2 0xFB3 PUSH2 0xF14 JUMP JUMPDEST JUMPDEST PUSH1 0x2 PUSH2 0xFC1 DUP5 DUP3 DUP6 PUSH2 0xF41 JUMP JUMPDEST SWAP2 POP POP SWAP3 SWAP2 POP POP JUMP JUMPDEST PUSH0 PUSH1 0x80 DUP3 DUP5 SUB SLT ISZERO PUSH2 0xFDF JUMPI PUSH2 0xFDE PUSH2 0xE08 JUMP JUMPDEST JUMPDEST PUSH2 0xFE9 PUSH1 0x40 PUSH2 0xE7A JUMP JUMPDEST SWAP1 POP PUSH0 PUSH2 0xFF8 DUP5 DUP3 DUP6 ADD PUSH2 0xFA0 JUMP JUMPDEST PUSH0 DUP4 ADD MSTORE POP PUSH1 0x40 PUSH2 0x100B DUP5 DUP3 DUP6 ADD PUSH2 0xFA0 JUMP JUMPDEST PUSH1 0x20 DUP4 ADD MSTORE POP SWAP3 SWAP2 POP POP JUMP JUMPDEST PUSH0 PUSH2 0x100 DUP3 DUP5 SUB SLT ISZERO PUSH2 0x102D JUMPI PUSH2 0x102C PUSH2 0xE08 JUMP JUMPDEST JUMPDEST PUSH2 0x1037 PUSH1 0x60 PUSH2 0xE7A JUMP JUMPDEST SWAP1 POP PUSH0 PUSH2 0x1046 DUP5 DUP3 DUP6 ADD PUSH2 0xEC7 JUMP JUMPDEST PUSH0 DUP4 ADD MSTORE POP PUSH1 0x40 PUSH2 0x1059 DUP5 DUP3 DUP6 ADD PUSH2 0xFCA JUMP JUMPDEST PUSH1 0x20 DUP4 ADD MSTORE POP PUSH1 0xC0 PUSH2 0x106D DUP5 DUP3 DUP6 ADD PUSH2 0xEC7 JUMP JUMPDEST PUSH1 0x40 DUP4 ADD MSTORE POP SWAP3 SWAP2 POP POP JUMP JUMPDEST PUSH0 PUSH2 0x100 DUP3 DUP5 SUB SLT ISZERO PUSH2 0x108F JUMPI PUSH2 0x108E PUSH2 0xE04 JUMP JUMPDEST JUMPDEST PUSH0 PUSH2 0x109C DUP5 DUP3 DUP6 ADD PUSH2 0x1017 JUMP JUMPDEST SWAP2 POP POP SWAP3 SWAP2 POP POP JUMP JUMPDEST PUSH0 DUP2 ISZERO ISZERO SWAP1 POP SWAP2 SWAP1 POP JUMP JUMPDEST PUSH2 0x10B9 DUP2 PUSH2 0x10A5 JUMP JUMPDEST DUP3 MSTORE POP POP JUMP JUMPDEST PUSH0 PUSH1 0x20 DUP3 ADD SWAP1 POP PUSH2 0x10D2 PUSH0 DUP4 ADD DUP5 PUSH2 0x10B0 JUMP JUMPDEST SWAP3 SWAP2 POP POP JUMP JUMPDEST PUSH32 0x4E487B7100000000000000000000000000000000000000000000000000000000 PUSH0 MSTORE PUSH1 0x11 PUSH1 0x4 MSTORE PUSH1 0x24 PUSH0 REVERT JUMPDEST PUSH0 PUSH2 0x110F DUP3 PUSH2 0xE94 JUMP JUMPDEST SWAP2 POP PUSH2 0x111A DUP4 PUSH2 0xE94 JUMP JUMPDEST SWAP3 POP DUP3 DUP3 ADD SWAP1 POP DUP1 DUP3 GT ISZERO PUSH2 0x1132 JUMPI PUSH2 0x1131 PUSH2 0x10D8 JUMP JUMPDEST JUMPDEST SWAP3 SWAP2 POP POP JUMP JUMPDEST PUSH32 0x4E487B7100000000000000000000000000000000000000000000000000000000 PUSH0 MSTORE PUSH1 0x32 PUSH1 0x4 MSTORE PUSH1 0x24 PUSH0 REVERT JUMPDEST PUSH0 PUSH2 0x116F DUP3 PUSH2 0xE94 JUMP JUMPDEST SWAP2 POP PUSH32 0xFFFFFFFFFFFFFFFFFFFFFFFFFFFFFFFFFFFFFFFFFFFFFFFFFFFFFFFFFFFFFFFF DUP3 SUB PUSH2 0x11A1 JUMPI PUSH2 0x11A0 PUSH2 0x10D8 JUMP JUMPDEST JUMPDEST PUSH1 0x1 DUP3 ADD SWAP1 POP SWAP2 SWAP1 POP JUMP JUMPDEST PUSH32 0x4E487B7100000000000000000000000000000000000000000000000000000000 PUSH0 MSTORE PUSH1 0x12 PUSH1 0x4 MSTORE PUSH1 0x24 PUSH0 REVERT JUMPDEST PUSH0 PUSH2 0x11E3 DUP3 PUSH2 0xE94 JUMP JUMPDEST SWAP2 POP PUSH2 0x11EE DUP4 PUSH2 0xE94 JUMP JUMPDEST SWAP3 POP DUP3 PUSH2 0x11FE JUMPI PUSH2 0x11FD PUSH2 0x11AC JUMP JUMPDEST JUMPDEST DUP3 DUP3 MOD SWAP1 POP SWAP3 SWAP2 POP POP JUMP JUMPDEST PUSH0 PUSH2 0x1213 DUP3 PUSH2 0xE94 JUMP JUMPDEST SWAP2 POP PUSH2 0x121E DUP4 PUSH2 0xE94 JUMP JUMPDEST SWAP3 POP DUP3 DUP3 SUB SWAP1 POP DUP2 DUP2 GT ISZERO PUSH2 0x1236 JUMPI PUSH2 0x1235 PUSH2 0x10D8 JUMP JUMPDEST JUMPDEST SWAP3 SWAP2 POP POP JUMP JUMPDEST PUSH0 PUSH2 0x1246 DUP3 PUSH2 0xE94 JUMP JUMPDEST SWAP2 POP PUSH2 0x1251 DUP4 PUSH2 0xE94 JUMP JUMPDEST SWAP3 POP DUP3 DUP3 MUL PUSH2 0x125F DUP2 PUSH2 0xE94 JUMP JUMPDEST SWAP2 POP DUP3 DUP3 DIV DUP5 EQ DUP4 ISZERO OR PUSH2 0x1276 JUMPI PUSH2 0x1275 PUSH2 0x10D8 JUMP JUMPDEST JUMPDEST POP SWAP3 SWAP2 POP POP JUMP INVALID LOG2 PUSH5 0x6970667358 0x22 SLT KECCAK256 SWAP9 GAS SDIV PUSH18 0xD86672978749830E64D4AB1F8A02536D96AB 0xAA 0xAE DUP1 ADDMOD 0x2A 0xC6 0xDE 0xB5 DUP9 PUSH19 0x64736F6C634300081500330000000000000000 "
				},
				"gasEstimates": {
					"creation": {
						"codeDepositCost": "957400",
						"executionCost": "992",
						"totalCost": "958392"
					},
					"external": {
						"verifyTx(((uint256,uint256),(uint256[2],uint256[2]),(uint256,uint256)))": "infinite"
					},
					"internal": {
						"verify(uint256[] memory,struct Verifier.Proof memory)": "infinite",
						"verifyingKey()": "infinite"
					}
				},
				"methodIdentifiers": {
					"verifyTx(((uint256,uint256),(uint256[2],uint256[2]),(uint256,uint256)))": "f6af0311"
				}
			},
			"storageLayout": {
				"storage": [],
				"types": null
			},
			"userdoc": {
				"kind": "user",
				"methods": {},
				"version": 1
			}
		}
	}
}