{
	"Registration.sol": {
		"Registration": {
			"abi": [
				{
					"inputs": [],
					"stateMutability": "nonpayable",
					"type": "constructor"
				},
				{
					"anonymous": false,
					"inputs": [
						{
							"indexed": true,
							"internalType": "address",
							"name": "entityAddress",
							"type": "address"
						},
						{
							"indexed": false,
							"internalType": "enum Registration.EntityType",
							"name": "entityType",
							"type": "uint8"
						}
					],
					"name": "EntityRegistered",
					"type": "event"
				},
				{
					"inputs": [
						{
							"internalType": "address",
							"name": "",
							"type": "address"
						}
					],
					"name": "entities",
					"outputs": [
						{
							"internalType": "enum Registration.EntityType",
							"name": "entityType",
							"type": "uint8"
						},
						{
							"internalType": "bool",
							"name": "isRegistered",
							"type": "bool"
						}
					],
					"stateMutability": "view",
					"type": "function"
				},
				{
					"inputs": [
						{
							"internalType": "address",
							"name": "_entityAddress",
							"type": "address"
						}
					],
					"name": "getEntity",
					"outputs": [
						{
							"internalType": "enum Registration.EntityType",
							"name": "",
							"type": "uint8"
						},
						{
							"internalType": "bool",
							"name": "",
							"type": "bool"
						}
					],
					"stateMutability": "view",
					"type": "function"
				},
				{
					"inputs": [
						{
							"internalType": "address",
							"name": "_entityAddress",
							"type": "address"
						},
						{
							"internalType": "enum Registration.EntityType",
							"name": "_entityType",
							"type": "uint8"
						}
					],
					"name": "registerEntity",
					"outputs": [],
					"stateMutability": "nonpayable",
					"type": "function"
				},
				{
					"inputs": [
						{
							"internalType": "address",
							"name": "_entityAddress",
							"type": "address"
						}
					],
					"name": "removeEntity",
					"outputs": [],
					"stateMutability": "nonpayable",
					"type": "function"
				}
			],
			"devdoc": {
				"kind": "dev",
				"methods": {},
				"version": 1
			},
			"evm": {
				"assembly": "    /* \"Registration.sol\":70:1913  contract Registration {... */\n  mstore(0x40, 0x80)\n    /* \"Registration.sol\":640:962  constructor() {... */\n  callvalue\n  dup1\n  iszero\n  tag_1\n  jumpi\n  0x00\n  dup1\n  revert\ntag_1:\n  pop\n    /* \"Registration.sol\":759:868  Entity({... */\n  0x40\n  dup1\n  mload\n  dup1\n  dup3\n  add\n  dup3\n  mstore\n    /* \"Registration.sol\":793:823  EntityType.RegulatoryAuthority */\n  0x01\n    /* \"Registration.sol\":759:868  Entity({... */\n  dup1\n  dup3\n  mstore\n  0x20\n  dup1\n  dup4\n  add\n  dup3\n  swap1\n  mstore\n    /* \"Registration.sol\":745:755  msg.sender */\n  caller\n  0x00\n    /* \"Registration.sol\":736:756  entities[msg.sender] */\n  swap1\n  dup2\n  mstore\n  swap1\n  dup2\n  swap1\n  mstore\n  swap3\n  swap1\n  swap3\n  keccak256\n    /* \"Registration.sol\":736:868  entities[msg.sender] = Entity({... */\n  dup2\n  mload\n  dup2\n  sload\n    /* \"Registration.sol\":759:868  Entity({... */\n  swap3\n  swap4\n    /* \"Registration.sol\":736:756  entities[msg.sender] */\n  swap2\n  swap3\n    /* \"Registration.sol\":736:868  entities[msg.sender] = Entity({... */\n  swap1\n  swap2\n    /* \"Registration.sol\":736:756  entities[msg.sender] */\n  dup4\n  swap2\n  not(0xff)\n    /* \"Registration.sol\":736:868  entities[msg.sender] = Entity({... */\n  and\n  swap1\n  dup4\n  0x06\n  dup2\n  gt\n  iszero\n  tag_8\n  jumpi\n  tag_8\n  tag_6\n  jump\t// in\ntag_8:\n  mul\n  or\n  swap1\n  sstore\n  pop\n  0x20\n  swap2\n  swap1\n  swap2\n  add\n  mload\n  dup2\n  sload\n  swap1\n  iszero\n  iszero\n  0x0100\n  mul\n  not(0xff00)\n  swap1\n  swap2\n  and\n  or\n  swap1\n  sstore\n    /* \"Registration.sol\":894:954  EntityRegistered(msg.sender, EntityType.RegulatoryAuthority) */\n  mload(0x40)\n    /* \"Registration.sol\":911:921  msg.sender */\n  caller\n  swap1\n    /* \"Registration.sol\":894:954  EntityRegistered(msg.sender, EntityType.RegulatoryAuthority) */\n  0xdc983e356096ea4440682aebfc76b2938cbf9cae52431ff53c2b1144a53de7e5\n  swap1\n  tag_9\n  swap1\n    /* \"Registration.sol\":736:868  entities[msg.sender] = Entity({... */\n  0x01\n  swap1\n    /* \"Registration.sol\":894:954  EntityRegistered(msg.sender, EntityType.RegulatoryAuthority) */\n  tag_10\n  jump\t// in\ntag_9:\n  mload(0x40)\n  dup1\n  swap2\n  sub\n  swap1\n  log2\n    /* \"Registration.sol\":70:1913  contract Registration {... */\n  jump(tag_12)\n    /* \"#utility.yul\":14:141   */\ntag_6:\n    /* \"#utility.yul\":75:85   */\n  0x4e487b71\n    /* \"#utility.yul\":70:73   */\n  0xe0\n    /* \"#utility.yul\":66:86   */\n  shl\n    /* \"#utility.yul\":63:64   */\n  0x00\n    /* \"#utility.yul\":56:87   */\n  mstore\n    /* \"#utility.yul\":106:110   */\n  0x21\n    /* \"#utility.yul\":103:104   */\n  0x04\n    /* \"#utility.yul\":96:111   */\n  mstore\n    /* \"#utility.yul\":130:134   */\n  0x24\n    /* \"#utility.yul\":127:128   */\n  0x00\n    /* \"#utility.yul\":120:135   */\n  revert\n    /* \"#utility.yul\":146:486   */\ntag_10:\n    /* \"#utility.yul\":290:292   */\n  0x20\n    /* \"#utility.yul\":275:293   */\n  dup2\n  add\n    /* \"#utility.yul\":323:324   */\n  0x07\n    /* \"#utility.yul\":312:325   */\n  dup4\n  lt\n    /* \"#utility.yul\":302:446   */\n  tag_15\n  jumpi\n    /* \"#utility.yul\":368:378   */\n  0x4e487b71\n    /* \"#utility.yul\":363:366   */\n  0xe0\n    /* \"#utility.yul\":359:379   */\n  shl\n    /* \"#utility.yul\":356:357   */\n  0x00\n    /* \"#utility.yul\":349:380   */\n  mstore\n    /* \"#utility.yul\":403:407   */\n  0x21\n    /* \"#utility.yul\":400:401   */\n  0x04\n    /* \"#utility.yul\":393:408   */\n  mstore\n    /* \"#utility.yul\":431:435   */\n  0x24\n    /* \"#utility.yul\":428:429   */\n  0x00\n    /* \"#utility.yul\":421:436   */\n  revert\n    /* \"#utility.yul\":302:446   */\ntag_15:\n    /* \"#utility.yul\":455:480   */\n  swap2\n  swap1\n  mstore\n    /* \"#utility.yul\":146:486   */\n  swap1\n  jump\t// out\ntag_12:\n    /* \"Registration.sol\":70:1913  contract Registration {... */\n  dataSize(sub_0)\n  dup1\n  dataOffset(sub_0)\n  0x00\n  codecopy\n  0x00\n  return\nstop\n\nsub_0: assembly {\n        /* \"Registration.sol\":70:1913  contract Registration {... */\n      mstore(0x40, 0x80)\n      callvalue\n      dup1\n      iszero\n      tag_1\n      jumpi\n      0x00\n      dup1\n      revert\n    tag_1:\n      pop\n      jumpi(tag_2, lt(calldatasize, 0x04))\n      shr(0xe0, calldataload(0x00))\n      dup1\n      0x1d8ee48a\n      eq\n      tag_3\n      jumpi\n      dup1\n      0x75894e8c\n      eq\n      tag_4\n      jumpi\n      dup1\n      0xa81c2940\n      eq\n      tag_5\n      jumpi\n      dup1\n      0xdd182996\n      eq\n      tag_6\n      jumpi\n    tag_2:\n      0x00\n      dup1\n      revert\n        /* \"Registration.sol\":310:352  mapping(address => Entity) public entities */\n    tag_3:\n      tag_7\n      tag_8\n      calldatasize\n      0x04\n      tag_9\n      jump\t// in\n    tag_8:\n      0x00\n      0x20\n      dup2\n      swap1\n      mstore\n      swap1\n      dup2\n      mstore\n      0x40\n      swap1\n      keccak256\n      sload\n      0xff\n      dup1\n      dup3\n      and\n      swap2\n      0x0100\n      swap1\n      div\n      and\n      dup3\n      jump\n    tag_7:\n      mload(0x40)\n      tag_11\n      swap3\n      swap2\n      swap1\n      tag_12\n      jump\t// in\n    tag_11:\n      mload(0x40)\n      dup1\n      swap2\n      sub\n      swap1\n      return\n        /* \"Registration.sol\":1699:1906  function getEntity(address _entityAddress) public view returns (EntityType, bool) {... */\n    tag_4:\n      tag_7\n      tag_14\n      calldatasize\n      0x04\n      tag_9\n      jump\t// in\n    tag_14:\n      sub(shl(0xa0, 0x01), 0x01)\n        /* \"Registration.sol\":1816:1840  entities[_entityAddress] */\n      and\n        /* \"Registration.sol\":1763:1773  EntityType */\n      0x00\n        /* \"Registration.sol\":1816:1840  entities[_entityAddress] */\n      swap1\n      dup2\n      mstore\n      0x20\n      dup2\n      swap1\n      mstore\n      0x40\n      swap1\n      keccak256\n        /* \"Registration.sol\":1859:1876  entity.entityType */\n      sload\n      0xff\n      dup1\n      dup3\n      and\n      swap3\n      0x0100\n        /* \"Registration.sol\":1878:1897  entity.isRegistered */\n      swap1\n      swap3\n      div\n      and\n      swap1\n        /* \"Registration.sol\":1699:1906  function getEntity(address _entityAddress) public view returns (EntityType, bool) {... */\n      jump\n        /* \"Registration.sol\":970:1457  function registerEntity(address _entityAddress, EntityType _entityType) external onlyEntity(EntityType.RegulatoryAuthority) {... */\n    tag_5:\n      tag_17\n      tag_18\n      calldatasize\n      0x04\n      tag_19\n      jump\t// in\n    tag_18:\n      tag_20\n      jump\t// in\n    tag_17:\n      stop\n        /* \"Registration.sol\":1465:1691  function  removeEntity(address _entityAddress) external onlyEntity(EntityType.RegulatoryAuthority) {... */\n    tag_6:\n      tag_17\n      tag_22\n      calldatasize\n      0x04\n      tag_9\n      jump\t// in\n    tag_22:\n      tag_23\n      jump\t// in\n        /* \"Registration.sol\":970:1457  function registerEntity(address _entityAddress, EntityType _entityType) external onlyEntity(EntityType.RegulatoryAuthority) {... */\n    tag_20:\n        /* \"Registration.sol\":1062:1092  EntityType.RegulatoryAuthority */\n      0x01\n      dup1\n        /* \"Registration.sol\":518:528  msg.sender */\n      caller\n        /* \"Registration.sol\":509:517  entities */\n      0x00\n        /* \"Registration.sol\":509:529  entities[msg.sender] */\n      swap1\n      dup2\n      mstore\n      0x20\n      dup2\n      swap1\n      mstore\n      0x40\n      swap1\n      keccak256\n        /* \"Registration.sol\":509:540  entities[msg.sender].entityType */\n      sload\n      0xff\n      and\n        /* \"Registration.sol\":509:555  entities[msg.sender].entityType == _entityType */\n      0x06\n      dup2\n      gt\n      iszero\n      tag_30\n      jumpi\n      tag_30\n      tag_28\n      jump\t// in\n    tag_30:\n      eq\n        /* \"Registration.sol\":501:606  require(entities[msg.sender].entityType == _entityType, \"Only authorized entity can perform this action\") */\n      tag_31\n      jumpi\n      mload(0x40)\n      shl(0xe5, 0x461bcd)\n      dup2\n      mstore\n      0x04\n      add\n      tag_32\n      swap1\n      tag_33\n      jump\t// in\n    tag_32:\n      mload(0x40)\n      dup1\n      swap2\n      sub\n      swap1\n      revert\n    tag_31:\n      sub(shl(0xa0, 0x01), 0x01)\n        /* \"Registration.sol\":1113:1141  _entityAddress != address(0) */\n      dup4\n      and\n        /* \"Registration.sol\":1105:1168  require(_entityAddress != address(0), \"Invalid entity address\") */\n      tag_35\n      jumpi\n      mload(0x40)\n      shl(0xe5, 0x461bcd)\n      dup2\n      mstore\n        /* \"#utility.yul\":2015:2017   */\n      0x20\n        /* \"Registration.sol\":1105:1168  require(_entityAddress != address(0), \"Invalid entity address\") */\n      0x04\n      dup3\n      add\n        /* \"#utility.yul\":1997:2018   */\n      mstore\n        /* \"#utility.yul\":2054:2056   */\n      0x16\n        /* \"#utility.yul\":2034:2052   */\n      0x24\n      dup3\n      add\n        /* \"#utility.yul\":2027:2057   */\n      mstore\n      shl(0x50, 0x496e76616c696420656e746974792061646472657373)\n        /* \"#utility.yul\":2073:2091   */\n      0x44\n      dup3\n      add\n        /* \"#utility.yul\":2066:2118   */\n      mstore\n        /* \"#utility.yul\":2135:2153   */\n      0x64\n      add\n        /* \"Registration.sol\":1105:1168  require(_entityAddress != address(0), \"Invalid entity address\") */\n      tag_32\n        /* \"#utility.yul\":1813:2159   */\n      jump\n        /* \"Registration.sol\":1105:1168  require(_entityAddress != address(0), \"Invalid entity address\") */\n    tag_35:\n      sub(shl(0xa0, 0x01), 0x01)\n        /* \"Registration.sol\":1188:1212  entities[_entityAddress] */\n      dup4\n      and\n        /* \"Registration.sol\":1188:1196  entities */\n      0x00\n        /* \"Registration.sol\":1188:1212  entities[_entityAddress] */\n      swap1\n      dup2\n      mstore\n      0x20\n      dup2\n      swap1\n      mstore\n      0x40\n      swap1\n      keccak256\n        /* \"Registration.sol\":1188:1225  entities[_entityAddress].isRegistered */\n      sload\n      0x0100\n      swap1\n      div\n      0xff\n      and\n        /* \"Registration.sol\":1187:1225  !entities[_entityAddress].isRegistered */\n      iszero\n        /* \"Registration.sol\":1179:1269  require(!entities[_entityAddress].isRegistered, \"This entity has already been registered\") */\n      tag_38\n      jumpi\n      mload(0x40)\n      shl(0xe5, 0x461bcd)\n      dup2\n      mstore\n        /* \"#utility.yul\":2366:2368   */\n      0x20\n        /* \"Registration.sol\":1179:1269  require(!entities[_entityAddress].isRegistered, \"This entity has already been registered\") */\n      0x04\n      dup3\n      add\n        /* \"#utility.yul\":2348:2369   */\n      mstore\n        /* \"#utility.yul\":2405:2407   */\n      0x27\n        /* \"#utility.yul\":2385:2403   */\n      0x24\n      dup3\n      add\n        /* \"#utility.yul\":2378:2408   */\n      mstore\n        /* \"#utility.yul\":2444:2478   */\n      0x5468697320656e746974792068617320616c7265616479206265656e20726567\n        /* \"#utility.yul\":2424:2442   */\n      0x44\n      dup3\n      add\n        /* \"#utility.yul\":2417:2479   */\n      mstore\n      shl(0xca, 0x1a5cdd195c9959)\n        /* \"#utility.yul\":2495:2513   */\n      0x64\n      dup3\n      add\n        /* \"#utility.yul\":2488:2525   */\n      mstore\n        /* \"#utility.yul\":2542:2561   */\n      0x84\n      add\n        /* \"Registration.sol\":1179:1269  require(!entities[_entityAddress].isRegistered, \"This entity has already been registered\") */\n      tag_32\n        /* \"#utility.yul\":2164:2567   */\n      jump\n        /* \"Registration.sol\":1179:1269  require(!entities[_entityAddress].isRegistered, \"This entity has already been registered\") */\n    tag_38:\n      sub(shl(0xa0, 0x01), 0x01)\n        /* \"Registration.sol\":1282:1306  entities[_entityAddress] */\n      dup4\n      and\n        /* \"Registration.sol\":1282:1290  entities */\n      0x00\n        /* \"Registration.sol\":1282:1306  entities[_entityAddress] */\n      swap1\n      dup2\n      mstore\n      0x20\n      dup2\n      swap1\n      mstore\n      0x40\n      swap1\n      keccak256\n        /* \"Registration.sol\":1282:1331  entities[_entityAddress].entityType = _entityType */\n      dup1\n      sload\n        /* \"Registration.sol\":1320:1331  _entityType */\n      dup4\n      swap2\n        /* \"Registration.sol\":1282:1306  entities[_entityAddress] */\n      swap1\n      not(0xff)\n        /* \"Registration.sol\":1282:1331  entities[_entityAddress].entityType = _entityType */\n      and\n      0x01\n        /* \"Registration.sol\":1320:1331  _entityType */\n      dup4\n        /* \"Registration.sol\":1282:1331  entities[_entityAddress].entityType = _entityType */\n      0x06\n      dup2\n      gt\n      iszero\n      tag_42\n      jumpi\n      tag_42\n      tag_28\n      jump\t// in\n    tag_42:\n      mul\n      or\n      swap1\n      sstore\n      pop\n      sub(shl(0xa0, 0x01), 0x01)\n        /* \"Registration.sol\":1342:1366  entities[_entityAddress] */\n      dup4\n      and\n        /* \"Registration.sol\":1342:1350  entities */\n      0x00\n        /* \"Registration.sol\":1342:1366  entities[_entityAddress] */\n      dup2\n      dup2\n      mstore\n      0x20\n      dup2\n      swap1\n      mstore\n      0x40\n      swap1\n      dup2\n      swap1\n      keccak256\n        /* \"Registration.sol\":1342:1386  entities[_entityAddress].isRegistered = true */\n      dup1\n      sload\n      not(0xff00)\n      and\n      0x0100\n      or\n      swap1\n      sstore\n        /* \"Registration.sol\":1404:1449  EntityRegistered(_entityAddress, _entityType) */\n      mload\n      0xdc983e356096ea4440682aebfc76b2938cbf9cae52431ff53c2b1144a53de7e5\n      swap1\n      tag_43\n      swap1\n        /* \"Registration.sol\":1437:1448  _entityType */\n      dup6\n      swap1\n        /* \"Registration.sol\":1404:1449  EntityRegistered(_entityAddress, _entityType) */\n      tag_44\n      jump\t// in\n    tag_43:\n      mload(0x40)\n      dup1\n      swap2\n      sub\n      swap1\n      log2\n        /* \"Registration.sol\":970:1457  function registerEntity(address _entityAddress, EntityType _entityType) external onlyEntity(EntityType.RegulatoryAuthority) {... */\n      pop\n      pop\n      pop\n      jump\t// out\n        /* \"Registration.sol\":1465:1691  function  removeEntity(address _entityAddress) external onlyEntity(EntityType.RegulatoryAuthority) {... */\n    tag_23:\n        /* \"Registration.sol\":1532:1562  EntityType.RegulatoryAuthority */\n      0x01\n      dup1\n        /* \"Registration.sol\":518:528  msg.sender */\n      caller\n        /* \"Registration.sol\":509:517  entities */\n      0x00\n        /* \"Registration.sol\":509:529  entities[msg.sender] */\n      swap1\n      dup2\n      mstore\n      0x20\n      dup2\n      swap1\n      mstore\n      0x40\n      swap1\n      keccak256\n        /* \"Registration.sol\":509:540  entities[msg.sender].entityType */\n      sload\n      0xff\n      and\n        /* \"Registration.sol\":509:555  entities[msg.sender].entityType == _entityType */\n      0x06\n      dup2\n      gt\n      iszero\n      tag_49\n      jumpi\n      tag_49\n      tag_28\n      jump\t// in\n    tag_49:\n      eq\n        /* \"Registration.sol\":501:606  require(entities[msg.sender].entityType == _entityType, \"Only authorized entity can perform this action\") */\n      tag_50\n      jumpi\n      mload(0x40)\n      shl(0xe5, 0x461bcd)\n      dup2\n      mstore\n      0x04\n      add\n      tag_32\n      swap1\n      tag_33\n      jump\t// in\n    tag_50:\n      sub(shl(0xa0, 0x01), 0x01)\n        /* \"Registration.sol\":1583:1611  _entityAddress != address(0) */\n      dup3\n      and\n        /* \"Registration.sol\":1575:1638  require(_entityAddress != address(0), \"Invalid entity address\") */\n      tag_53\n      jumpi\n      mload(0x40)\n      shl(0xe5, 0x461bcd)\n      dup2\n      mstore\n        /* \"#utility.yul\":2015:2017   */\n      0x20\n        /* \"Registration.sol\":1575:1638  require(_entityAddress != address(0), \"Invalid entity address\") */\n      0x04\n      dup3\n      add\n        /* \"#utility.yul\":1997:2018   */\n      mstore\n        /* \"#utility.yul\":2054:2056   */\n      0x16\n        /* \"#utility.yul\":2034:2052   */\n      0x24\n      dup3\n      add\n        /* \"#utility.yul\":2027:2057   */\n      mstore\n      shl(0x50, 0x496e76616c696420656e746974792061646472657373)\n        /* \"#utility.yul\":2073:2091   */\n      0x44\n      dup3\n      add\n        /* \"#utility.yul\":2066:2118   */\n      mstore\n        /* \"#utility.yul\":2135:2153   */\n      0x64\n      add\n        /* \"Registration.sol\":1575:1638  require(_entityAddress != address(0), \"Invalid entity address\") */\n      tag_32\n        /* \"#utility.yul\":1813:2159   */\n      jump\n        /* \"Registration.sol\":1575:1638  require(_entityAddress != address(0), \"Invalid entity address\") */\n    tag_53:\n      pop\n      sub(shl(0xa0, 0x01), 0x01)\n        /* \"Registration.sol\":1658:1682  entities[_entityAddress] */\n      and\n        /* \"Registration.sol\":1658:1666  entities */\n      0x00\n        /* \"Registration.sol\":1658:1682  entities[_entityAddress] */\n      swap1\n      dup2\n      mstore\n      0x20\n      dup2\n      swap1\n      mstore\n      0x40\n      swap1\n      keccak256\n        /* \"Registration.sol\":1651:1683  delete(entities[_entityAddress]) */\n      dup1\n      sload\n      not(0xffff)\n      and\n      swap1\n      sstore\n        /* \"Registration.sol\":1465:1691  function  removeEntity(address _entityAddress) external onlyEntity(EntityType.RegulatoryAuthority) {... */\n      jump\t// out\n        /* \"#utility.yul\":14:187   */\n    tag_55:\n        /* \"#utility.yul\":82:102   */\n      dup1\n      calldataload\n      sub(shl(0xa0, 0x01), 0x01)\n        /* \"#utility.yul\":131:162   */\n      dup2\n      and\n        /* \"#utility.yul\":121:163   */\n      dup2\n      eq\n        /* \"#utility.yul\":111:181   */\n      tag_59\n      jumpi\n        /* \"#utility.yul\":177:178   */\n      0x00\n        /* \"#utility.yul\":174:175   */\n      dup1\n        /* \"#utility.yul\":167:179   */\n      revert\n        /* \"#utility.yul\":111:181   */\n    tag_59:\n        /* \"#utility.yul\":14:187   */\n      swap2\n      swap1\n      pop\n      jump\t// out\n        /* \"#utility.yul\":192:378   */\n    tag_9:\n        /* \"#utility.yul\":251:257   */\n      0x00\n        /* \"#utility.yul\":304:306   */\n      0x20\n        /* \"#utility.yul\":292:301   */\n      dup3\n        /* \"#utility.yul\":283:290   */\n      dup5\n        /* \"#utility.yul\":279:302   */\n      sub\n        /* \"#utility.yul\":275:307   */\n      slt\n        /* \"#utility.yul\":272:324   */\n      iszero\n      tag_61\n      jumpi\n        /* \"#utility.yul\":320:321   */\n      0x00\n        /* \"#utility.yul\":317:318   */\n      dup1\n        /* \"#utility.yul\":310:322   */\n      revert\n        /* \"#utility.yul\":272:324   */\n    tag_61:\n        /* \"#utility.yul\":343:372   */\n      tag_62\n        /* \"#utility.yul\":362:371   */\n      dup3\n        /* \"#utility.yul\":343:372   */\n      tag_55\n      jump\t// in\n    tag_62:\n        /* \"#utility.yul\":333:372   */\n      swap4\n        /* \"#utility.yul\":192:378   */\n      swap3\n      pop\n      pop\n      pop\n      jump\t// out\n        /* \"#utility.yul\":383:510   */\n    tag_28:\n        /* \"#utility.yul\":444:454   */\n      0x4e487b71\n        /* \"#utility.yul\":439:442   */\n      0xe0\n        /* \"#utility.yul\":435:455   */\n      shl\n        /* \"#utility.yul\":432:433   */\n      0x00\n        /* \"#utility.yul\":425:456   */\n      mstore\n        /* \"#utility.yul\":475:479   */\n      0x21\n        /* \"#utility.yul\":472:473   */\n      0x04\n        /* \"#utility.yul\":465:480   */\n      mstore\n        /* \"#utility.yul\":499:503   */\n      0x24\n        /* \"#utility.yul\":496:497   */\n      0x00\n        /* \"#utility.yul\":489:504   */\n      revert\n        /* \"#utility.yul\":515:753   */\n    tag_56:\n        /* \"#utility.yul\":597:598   */\n      0x07\n        /* \"#utility.yul\":590:595   */\n      dup2\n        /* \"#utility.yul\":587:599   */\n      lt\n        /* \"#utility.yul\":577:720   */\n      tag_65\n      jumpi\n        /* \"#utility.yul\":642:652   */\n      0x4e487b71\n        /* \"#utility.yul\":637:640   */\n      0xe0\n        /* \"#utility.yul\":633:653   */\n      shl\n        /* \"#utility.yul\":630:631   */\n      0x00\n        /* \"#utility.yul\":623:654   */\n      mstore\n        /* \"#utility.yul\":677:681   */\n      0x21\n        /* \"#utility.yul\":674:675   */\n      0x04\n        /* \"#utility.yul\":667:682   */\n      mstore\n        /* \"#utility.yul\":705:709   */\n      0x24\n        /* \"#utility.yul\":702:703   */\n      0x00\n        /* \"#utility.yul\":695:710   */\n      revert\n        /* \"#utility.yul\":577:720   */\n    tag_65:\n        /* \"#utility.yul\":729:747   */\n      swap1\n      mstore\n        /* \"#utility.yul\":515:753   */\n      jump\t// out\n        /* \"#utility.yul\":758:1046   */\n    tag_12:\n        /* \"#utility.yul\":924:926   */\n      0x40\n        /* \"#utility.yul\":909:927   */\n      dup2\n      add\n        /* \"#utility.yul\":936:981   */\n      tag_67\n        /* \"#utility.yul\":913:922   */\n      dup3\n        /* \"#utility.yul\":963:969   */\n      dup6\n        /* \"#utility.yul\":936:981   */\n      tag_56\n      jump\t// in\n    tag_67:\n        /* \"#utility.yul\":1031:1037   */\n      dup3\n        /* \"#utility.yul\":1024:1038   */\n      iszero\n        /* \"#utility.yul\":1017:1039   */\n      iszero\n        /* \"#utility.yul\":1012:1014   */\n      0x20\n        /* \"#utility.yul\":1001:1010   */\n      dup4\n        /* \"#utility.yul\":997:1015   */\n      add\n        /* \"#utility.yul\":990:1040   */\n      mstore\n        /* \"#utility.yul\":758:1046   */\n      swap4\n      swap3\n      pop\n      pop\n      pop\n      jump\t// out\n        /* \"#utility.yul\":1051:1393   */\n    tag_19:\n        /* \"#utility.yul\":1131:1137   */\n      0x00\n        /* \"#utility.yul\":1139:1145   */\n      dup1\n        /* \"#utility.yul\":1192:1194   */\n      0x40\n        /* \"#utility.yul\":1180:1189   */\n      dup4\n        /* \"#utility.yul\":1171:1178   */\n      dup6\n        /* \"#utility.yul\":1167:1190   */\n      sub\n        /* \"#utility.yul\":1163:1195   */\n      slt\n        /* \"#utility.yul\":1160:1212   */\n      iszero\n      tag_69\n      jumpi\n        /* \"#utility.yul\":1208:1209   */\n      0x00\n        /* \"#utility.yul\":1205:1206   */\n      dup1\n        /* \"#utility.yul\":1198:1210   */\n      revert\n        /* \"#utility.yul\":1160:1212   */\n    tag_69:\n        /* \"#utility.yul\":1231:1260   */\n      tag_70\n        /* \"#utility.yul\":1250:1259   */\n      dup4\n        /* \"#utility.yul\":1231:1260   */\n      tag_55\n      jump\t// in\n    tag_70:\n        /* \"#utility.yul\":1221:1260   */\n      swap2\n      pop\n        /* \"#utility.yul\":1310:1312   */\n      0x20\n        /* \"#utility.yul\":1299:1308   */\n      dup4\n        /* \"#utility.yul\":1295:1313   */\n      add\n        /* \"#utility.yul\":1282:1314   */\n      calldataload\n        /* \"#utility.yul\":1343:1344   */\n      0x07\n        /* \"#utility.yul\":1336:1341   */\n      dup2\n        /* \"#utility.yul\":1333:1345   */\n      lt\n        /* \"#utility.yul\":1323:1363   */\n      tag_71\n      jumpi\n        /* \"#utility.yul\":1359:1360   */\n      0x00\n        /* \"#utility.yul\":1356:1357   */\n      dup1\n        /* \"#utility.yul\":1349:1361   */\n      revert\n        /* \"#utility.yul\":1323:1363   */\n    tag_71:\n        /* \"#utility.yul\":1382:1387   */\n      dup1\n        /* \"#utility.yul\":1372:1387   */\n      swap2\n      pop\n      pop\n        /* \"#utility.yul\":1051:1393   */\n      swap3\n      pop\n      swap3\n      swap1\n      pop\n      jump\t// out\n        /* \"#utility.yul\":1398:1808   */\n    tag_33:\n        /* \"#utility.yul\":1600:1602   */\n      0x20\n        /* \"#utility.yul\":1582:1603   */\n      dup1\n      dup3\n      mstore\n        /* \"#utility.yul\":1639:1641   */\n      0x2e\n        /* \"#utility.yul\":1619:1637   */\n      swap1\n      dup3\n      add\n        /* \"#utility.yul\":1612:1642   */\n      mstore\n        /* \"#utility.yul\":1678:1712   */\n      0x4f6e6c7920617574686f72697a656420656e746974792063616e20706572666f\n        /* \"#utility.yul\":1673:1675   */\n      0x40\n        /* \"#utility.yul\":1658:1676   */\n      dup3\n      add\n        /* \"#utility.yul\":1651:1713   */\n      mstore\n      shl(0x91, 0x3936903a3434b99030b1ba34b7b7)\n        /* \"#utility.yul\":1744:1746   */\n      0x60\n        /* \"#utility.yul\":1729:1747   */\n      dup3\n      add\n        /* \"#utility.yul\":1722:1766   */\n      mstore\n        /* \"#utility.yul\":1798:1801   */\n      0x80\n        /* \"#utility.yul\":1783:1802   */\n      add\n      swap1\n        /* \"#utility.yul\":1398:1808   */\n      jump\t// out\n        /* \"#utility.yul\":2572:2779   */\n    tag_44:\n        /* \"#utility.yul\":2716:2718   */\n      0x20\n        /* \"#utility.yul\":2701:2719   */\n      dup2\n      add\n        /* \"#utility.yul\":2728:2773   */\n      tag_76\n        /* \"#utility.yul\":2705:2714   */\n      dup3\n        /* \"#utility.yul\":2755:2761   */\n      dup5\n        /* \"#utility.yul\":2728:2773   */\n      tag_56\n      jump\t// in\n    tag_76:\n        /* \"#utility.yul\":2572:2779   */\n      swap3\n      swap2\n      pop\n      pop\n      jump\t// out\n\n    auxdata: 0xa2646970667358221220916d938aabc609b41fb4fab0422ff3c8a5299f9b6ad0cee63912f3af16b137f864736f6c63430008150033\n}\n",
				"bytecode": {
					"linkReferences": {},
					"object": "608060405234801561000f575f80fd5b5060408051808201825260018082526020808301829052335f908152908190529290922081518154929391929091839160ff191690836006811115610056576100566100b5565b02179055506020919091015181549015156101000261ff001990911617905560405133907fdc983e356096ea4440682aebfc76b2938cbf9cae52431ff53c2b1144a53de7e5906100a8906001906100c9565b60405180910390a26100ef565b634e487b7160e01b5f52602160045260245ffd5b60208101600783106100e957634e487b7160e01b5f52602160045260245ffd5b91905290565b6104af806100fc5f395ff3fe608060405234801561000f575f80fd5b506004361061004a575f3560e01c80631d8ee48a1461004e57806375894e8c14610090578063a81c2940146100c5578063dd182996146100da575b5f80fd5b61007961005c36600461036e565b5f6020819052908152604090205460ff8082169161010090041682565b6040516100879291906103c2565b60405180910390f35b61007961009e36600461036e565b6001600160a01b03165f9081526020819052604090205460ff808216926101009092041690565b6100d86100d33660046103df565b6100ed565b005b6100d86100e836600461036e565b61029f565b600180335f9081526020819052604090205460ff1660068111156101135761011361038e565b146101395760405162461bcd60e51b815260040161013090610417565b60405180910390fd5b6001600160a01b0383166101885760405162461bcd60e51b8152602060048201526016602482015275496e76616c696420656e74697479206164647265737360501b6044820152606401610130565b6001600160a01b0383165f90815260208190526040902054610100900460ff16156102055760405162461bcd60e51b815260206004820152602760248201527f5468697320656e746974792068617320616c7265616479206265656e207265676044820152661a5cdd195c995960ca1b6064820152608401610130565b6001600160a01b0383165f908152602081905260409020805483919060ff191660018360068111156102395761023961038e565b02179055506001600160a01b0383165f8181526020819052604090819020805461ff001916610100179055517fdc983e356096ea4440682aebfc76b2938cbf9cae52431ff53c2b1144a53de7e590610292908590610465565b60405180910390a2505050565b600180335f9081526020819052604090205460ff1660068111156102c5576102c561038e565b146102e25760405162461bcd60e51b815260040161013090610417565b6001600160a01b0382166103315760405162461bcd60e51b8152602060048201526016602482015275496e76616c696420656e74697479206164647265737360501b6044820152606401610130565b506001600160a01b03165f908152602081905260409020805461ffff19169055565b80356001600160a01b0381168114610369575f80fd5b919050565b5f6020828403121561037e575f80fd5b61038782610353565b9392505050565b634e487b7160e01b5f52602160045260245ffd5b600781106103be57634e487b7160e01b5f52602160045260245ffd5b9052565b604081016103d082856103a2565b82151560208301529392505050565b5f80604083850312156103f0575f80fd5b6103f983610353565b915060208301356007811061040c575f80fd5b809150509250929050565b6020808252602e908201527f4f6e6c7920617574686f72697a656420656e746974792063616e20706572666f60408201526d3936903a3434b99030b1ba34b7b760911b606082015260800190565b6020810161047382846103a2565b9291505056fea2646970667358221220916d938aabc609b41fb4fab0422ff3c8a5299f9b6ad0cee63912f3af16b137f864736f6c63430008150033",
					"opcodes": "PUSH1 0x80 PUSH1 0x40 MSTORE CALLVALUE DUP1 ISZERO PUSH2 0xF JUMPI PUSH0 DUP1 REVERT JUMPDEST POP PUSH1 0x40 DUP1 MLOAD DUP1 DUP3 ADD DUP3 MSTORE PUSH1 0x1 DUP1 DUP3 MSTORE PUSH1 0x20 DUP1 DUP4 ADD DUP3 SWAP1 MSTORE CALLER PUSH0 SWAP1 DUP2 MSTORE SWAP1 DUP2 SWAP1 MSTORE SWAP3 SWAP1 SWAP3 KECCAK256 DUP2 MLOAD DUP2 SLOAD SWAP3 SWAP4 SWAP2 SWAP3 SWAP1 SWAP2 DUP4 SWAP2 PUSH1 0xFF NOT AND SWAP1 DUP4 PUSH1 0x6 DUP2 GT ISZERO PUSH2 0x56 JUMPI PUSH2 0x56 PUSH2 0xB5 JUMP JUMPDEST MUL OR SWAP1 SSTORE POP PUSH1 0x20 SWAP2 SWAP1 SWAP2 ADD MLOAD DUP2 SLOAD SWAP1 ISZERO ISZERO PUSH2 0x100 MUL PUSH2 0xFF00 NOT SWAP1 SWAP2 AND OR SWAP1 SSTORE PUSH1 0x40 MLOAD CALLER SWAP1 PUSH32 0xDC983E356096EA4440682AEBFC76B2938CBF9CAE52431FF53C2B1144A53DE7E5 SWAP1 PUSH2 0xA8 SWAP1 PUSH1 0x1 SWAP1 PUSH2 0xC9 JUMP JUMPDEST PUSH1 0x40 MLOAD DUP1 SWAP2 SUB SWAP1 LOG2 PUSH2 0xEF JUMP JUMPDEST PUSH4 0x4E487B71 PUSH1 0xE0 SHL PUSH0 MSTORE PUSH1 0x21 PUSH1 0x4 MSTORE PUSH1 0x24 PUSH0 REVERT JUMPDEST PUSH1 0x20 DUP2 ADD PUSH1 0x7 DUP4 LT PUSH2 0xE9 JUMPI PUSH4 0x4E487B71 PUSH1 0xE0 SHL PUSH0 MSTORE PUSH1 0x21 PUSH1 0x4 MSTORE PUSH1 0x24 PUSH0 REVERT JUMPDEST SWAP2 SWAP1 MSTORE SWAP1 JUMP JUMPDEST PUSH2 0x4AF DUP1 PUSH2 0xFC PUSH0 CODECOPY PUSH0 RETURN INVALID PUSH1 0x80 PUSH1 0x40 MSTORE CALLVALUE DUP1 ISZERO PUSH2 0xF JUMPI PUSH0 DUP1 REVERT JUMPDEST POP PUSH1 0x4 CALLDATASIZE LT PUSH2 0x4A JUMPI PUSH0 CALLDATALOAD PUSH1 0xE0 SHR DUP1 PUSH4 0x1D8EE48A EQ PUSH2 0x4E JUMPI DUP1 PUSH4 0x75894E8C EQ PUSH2 0x90 JUMPI DUP1 PUSH4 0xA81C2940 EQ PUSH2 0xC5 JUMPI DUP1 PUSH4 0xDD182996 EQ PUSH2 0xDA JUMPI JUMPDEST PUSH0 DUP1 REVERT JUMPDEST PUSH2 0x79 PUSH2 0x5C CALLDATASIZE PUSH1 0x4 PUSH2 0x36E JUMP JUMPDEST PUSH0 PUSH1 0x20 DUP2 SWAP1 MSTORE SWAP1 DUP2 MSTORE PUSH1 0x40 SWAP1 KECCAK256 SLOAD PUSH1 0xFF DUP1 DUP3 AND SWAP2 PUSH2 0x100 SWAP1 DIV AND DUP3 JUMP JUMPDEST PUSH1 0x40 MLOAD PUSH2 0x87 SWAP3 SWAP2 SWAP1 PUSH2 0x3C2 JUMP JUMPDEST PUSH1 0x40 MLOAD DUP1 SWAP2 SUB SWAP1 RETURN JUMPDEST PUSH2 0x79 PUSH2 0x9E CALLDATASIZE PUSH1 0x4 PUSH2 0x36E JUMP JUMPDEST PUSH1 0x1 PUSH1 0x1 PUSH1 0xA0 SHL SUB AND PUSH0 SWAP1 DUP2 MSTORE PUSH1 0x20 DUP2 SWAP1 MSTORE PUSH1 0x40 SWAP1 KECCAK256 SLOAD PUSH1 0xFF DUP1 DUP3 AND SWAP3 PUSH2 0x100 SWAP1 SWAP3 DIV AND SWAP1 JUMP JUMPDEST PUSH2 0xD8 PUSH2 0xD3 CALLDATASIZE PUSH1 0x4 PUSH2 0x3DF JUMP JUMPDEST PUSH2 0xED JUMP JUMPDEST STOP JUMPDEST PUSH2 0xD8 PUSH2 0xE8 CALLDATASIZE PUSH1 0x4 PUSH2 0x36E JUMP JUMPDEST PUSH2 0x29F JUMP JUMPDEST PUSH1 0x1 DUP1 CALLER PUSH0 SWAP1 DUP2 MSTORE PUSH1 0x20 DUP2 SWAP1 MSTORE PUSH1 0x40 SWAP1 KECCAK256 SLOAD PUSH1 0xFF AND PUSH1 0x6 DUP2 GT ISZERO PUSH2 0x113 JUMPI PUSH2 0x113 PUSH2 0x38E JUMP JUMPDEST EQ PUSH2 0x139 JUMPI PUSH1 0x40 MLOAD PUSH3 0x461BCD PUSH1 0xE5 SHL DUP2 MSTORE PUSH1 0x4 ADD PUSH2 0x130 SWAP1 PUSH2 0x417 JUMP JUMPDEST PUSH1 0x40 MLOAD DUP1 SWAP2 SUB SWAP1 REVERT JUMPDEST PUSH1 0x1 PUSH1 0x1 PUSH1 0xA0 SHL SUB DUP4 AND PUSH2 0x188 JUMPI PUSH1 0x40 MLOAD PUSH3 0x461BCD PUSH1 0xE5 SHL DUP2 MSTORE PUSH1 0x20 PUSH1 0x4 DUP3 ADD MSTORE PUSH1 0x16 PUSH1 0x24 DUP3 ADD MSTORE PUSH22 0x496E76616C696420656E746974792061646472657373 PUSH1 0x50 SHL PUSH1 0x44 DUP3 ADD MSTORE PUSH1 0x64 ADD PUSH2 0x130 JUMP JUMPDEST PUSH1 0x1 PUSH1 0x1 PUSH1 0xA0 SHL SUB DUP4 AND PUSH0 SWAP1 DUP2 MSTORE PUSH1 0x20 DUP2 SWAP1 MSTORE PUSH1 0x40 SWAP1 KECCAK256 SLOAD PUSH2 0x100 SWAP1 DIV PUSH1 0xFF AND ISZERO PUSH2 0x205 JUMPI PUSH1 0x40 MLOAD PUSH3 0x461BCD PUSH1 0xE5 SHL DUP2 MSTORE PUSH1 0x20 PUSH1 0x4 DUP3 ADD MSTORE PUSH1 0x27 PUSH1 0x24 DUP3 ADD MSTORE PUSH32 0x5468697320656E746974792068617320616C7265616479206265656E20726567 PUSH1 0x44 DUP3 ADD MSTORE PUSH7 0x1A5CDD195C9959 PUSH1 0xCA SHL PUSH1 0x64 DUP3 ADD MSTORE PUSH1 0x84 ADD PUSH2 0x130 JUMP JUMPDEST PUSH1 0x1 PUSH1 0x1 PUSH1 0xA0 SHL SUB DUP4 AND PUSH0 SWAP1 DUP2 MSTORE PUSH1 0x20 DUP2 SWAP1 MSTORE PUSH1 0x40 SWAP1 KECCAK256 DUP1 SLOAD DUP4 SWAP2 SWAP1 PUSH1 0xFF NOT AND PUSH1 0x1 DUP4 PUSH1 0x6 DUP2 GT ISZERO PUSH2 0x239 JUMPI PUSH2 0x239 PUSH2 0x38E JUMP JUMPDEST MUL OR SWAP1 SSTORE POP PUSH1 0x1 PUSH1 0x1 PUSH1 0xA0 SHL SUB DUP4 AND PUSH0 DUP2 DUP2 MSTORE PUSH1 0x20 DUP2 SWAP1 MSTORE PUSH1 0x40 SWAP1 DUP2 SWAP1 KECCAK256 DUP1 SLOAD PUSH2 0xFF00 NOT AND PUSH2 0x100 OR SWAP1 SSTORE MLOAD PUSH32 0xDC983E356096EA4440682AEBFC76B2938CBF9CAE52431FF53C2B1144A53DE7E5 SWAP1 PUSH2 0x292 SWAP1 DUP6 SWAP1 PUSH2 0x465 JUMP JUMPDEST PUSH1 0x40 MLOAD DUP1 SWAP2 SUB SWAP1 LOG2 POP POP POP JUMP JUMPDEST PUSH1 0x1 DUP1 CALLER PUSH0 SWAP1 DUP2 MSTORE PUSH1 0x20 DUP2 SWAP1 MSTORE PUSH1 0x40 SWAP1 KECCAK256 SLOAD PUSH1 0xFF AND PUSH1 0x6 DUP2 GT ISZERO PUSH2 0x2C5 JUMPI PUSH2 0x2C5 PUSH2 0x38E JUMP JUMPDEST EQ PUSH2 0x2E2 JUMPI PUSH1 0x40 MLOAD PUSH3 0x461BCD PUSH1 0xE5 SHL DUP2 MSTORE PUSH1 0x4 ADD PUSH2 0x130 SWAP1 PUSH2 0x417 JUMP JUMPDEST PUSH1 0x1 PUSH1 0x1 PUSH1 0xA0 SHL SUB DUP3 AND PUSH2 0x331 JUMPI PUSH1 0x40 MLOAD PUSH3 0x461BCD PUSH1 0xE5 SHL DUP2 MSTORE PUSH1 0x20 PUSH1 0x4 DUP3 ADD MSTORE PUSH1 0x16 PUSH1 0x24 DUP3 ADD MSTORE PUSH22 0x496E76616C696420656E746974792061646472657373 PUSH1 0x50 SHL PUSH1 0x44 DUP3 ADD MSTORE PUSH1 0x64 ADD PUSH2 0x130 JUMP JUMPDEST POP PUSH1 0x1 PUSH1 0x1 PUSH1 0xA0 SHL SUB AND PUSH0 SWAP1 DUP2 MSTORE PUSH1 0x20 DUP2 SWAP1 MSTORE PUSH1 0x40 SWAP1 KECCAK256 DUP1 SLOAD PUSH2 0xFFFF NOT AND SWAP1 SSTORE JUMP JUMPDEST DUP1 CALLDATALOAD PUSH1 0x1 PUSH1 0x1 PUSH1 0xA0 SHL SUB DUP2 AND DUP2 EQ PUSH2 0x369 JUMPI PUSH0 DUP1 REVERT JUMPDEST SWAP2 SWAP1 POP JUMP JUMPDEST PUSH0 PUSH1 0x20 DUP3 DUP5 SUB SLT ISZERO PUSH2 0x37E JUMPI PUSH0 DUP1 REVERT JUMPDEST PUSH2 0x387 DUP3 PUSH2 0x353 JUMP JUMPDEST SWAP4 SWAP3 POP POP POP JUMP JUMPDEST PUSH4 0x4E487B71 PUSH1 0xE0 SHL PUSH0 MSTORE PUSH1 0x21 PUSH1 0x4 MSTORE PUSH1 0x24 PUSH0 REVERT JUMPDEST PUSH1 0x7 DUP2 LT PUSH2 0x3BE JUMPI PUSH4 0x4E487B71 PUSH1 0xE0 SHL PUSH0 MSTORE PUSH1 0x21 PUSH1 0x4 MSTORE PUSH1 0x24 PUSH0 REVERT JUMPDEST SWAP1 MSTORE JUMP JUMPDEST PUSH1 0x40 DUP2 ADD PUSH2 0x3D0 DUP3 DUP6 PUSH2 0x3A2 JUMP JUMPDEST DUP3 ISZERO ISZERO PUSH1 0x20 DUP4 ADD MSTORE SWAP4 SWAP3 POP POP POP JUMP JUMPDEST PUSH0 DUP1 PUSH1 0x40 DUP4 DUP6 SUB SLT ISZERO PUSH2 0x3F0 JUMPI PUSH0 DUP1 REVERT JUMPDEST PUSH2 0x3F9 DUP4 PUSH2 0x353 JUMP JUMPDEST SWAP2 POP PUSH1 0x20 DUP4 ADD CALLDATALOAD PUSH1 0x7 DUP2 LT PUSH2 0x40C JUMPI PUSH0 DUP1 REVERT JUMPDEST DUP1 SWAP2 POP POP SWAP3 POP SWAP3 SWAP1 POP JUMP JUMPDEST PUSH1 0x20 DUP1 DUP3 MSTORE PUSH1 0x2E SWAP1 DUP3 ADD MSTORE PUSH32 0x4F6E6C7920617574686F72697A656420656E746974792063616E20706572666F PUSH1 0x40 DUP3 ADD MSTORE PUSH14 0x3936903A3434B99030B1BA34B7B7 PUSH1 0x91 SHL PUSH1 0x60 DUP3 ADD MSTORE PUSH1 0x80 ADD SWAP1 JUMP JUMPDEST PUSH1 0x20 DUP2 ADD PUSH2 0x473 DUP3 DUP5 PUSH2 0x3A2 JUMP JUMPDEST SWAP3 SWAP2 POP POP JUMP INVALID LOG2 PUSH5 0x6970667358 0x22 SLT KECCAK256 SWAP2 PUSH14 0x938AABC609B41FB4FAB0422FF3C8 0xA5 0x29 SWAP16 SWAP12 PUSH11 0xD0CEE63912F3AF16B137F8 PUSH5 0x736F6C6343 STOP ADDMOD ISZERO STOP CALLER "
				},
				"gasEstimates": {
					"creation": {
						"codeDepositCost": "239800",
						"executionCost": "50463",
						"totalCost": "290263"
					},
					"external": {
						"entities(address)": "2636",
						"getEntity(address)": "2679",
						"registerEntity(address,uint8)": "55073",
						"removeEntity(address)": "26913"
					}
				},
				"methodIdentifiers": {
					"entities(address)": "1d8ee48a",
					"getEntity(address)": "75894e8c",
					"registerEntity(address,uint8)": "a81c2940",
					"removeEntity(address)": "dd182996"
				}
			},
			"storageLayout": {
				"storage": [
					{
						"astId": 20,
						"contract": "Registration.sol:Registration",
						"label": "entities",
						"offset": 0,
						"slot": "0",
						"type": "t_mapping(t_address,t_struct(Entity)15_storage)"
					}
				],
				"types": {
					"t_address": {
						"encoding": "inplace",
						"label": "address",
						"numberOfBytes": "20"
					},
					"t_bool": {
						"encoding": "inplace",
						"label": "bool",
						"numberOfBytes": "1"
					},
					"t_enum(EntityType)9": {
						"encoding": "inplace",
						"label": "enum Registration.EntityType",
						"numberOfBytes": "1"
					},
					"t_mapping(t_address,t_struct(Entity)15_storage)": {
						"encoding": "mapping",
						"key": "t_address",
						"label": "mapping(address => struct Registration.Entity)",
						"numberOfBytes": "32",
						"value": "t_struct(Entity)15_storage"
					},
					"t_struct(Entity)15_storage": {
						"encoding": "inplace",
						"label": "struct Registration.Entity",
						"members": [
							{
								"astId": 12,
								"contract": "Registration.sol:Registration",
								"label": "entityType",
								"offset": 0,
								"slot": "0",
								"type": "t_enum(EntityType)9"
							},
							{
								"astId": 14,
								"contract": "Registration.sol:Registration",
								"label": "isRegistered",
								"offset": 1,
								"slot": "0",
								"type": "t_bool"
							}
						],
						"numberOfBytes": "32"
					}
				}
			},
			"userdoc": {
				"kind": "user",
				"methods": {},
				"version": 1
			}
		}
	}
}