{
	"bytes32tostring.sol": {
		"Bytes32ToStringExample": {
			"abi": [
				{
					"inputs": [
						{
							"internalType": "bytes32",
							"name": "data",
							"type": "bytes32"
						}
					],
					"name": "bytes32ToString",
					"outputs": [
						{
							"internalType": "string",
							"name": "",
							"type": "string"
						}
					],
					"stateMutability": "pure",
					"type": "function"
				},
				{
					"inputs": [
						{
							"internalType": "string",
							"name": "data",
							"type": "string"
						}
					],
					"name": "stringToBytes",
					"outputs": [
						{
							"internalType": "bytes",
							"name": "",
							"type": "bytes"
						}
					],
					"stateMutability": "pure",
					"type": "function"
				}
			],
			"devdoc": {
				"kind": "dev",
				"methods": {},
				"version": 1
			},
			"evm": {
				"assembly": "    /* \"bytes32tostring.sol\":62:493  contract Bytes32ToStringExample {... */\n  mstore(0x40, 0x80)\n  callvalue\n  dup1\n  iszero\n  tag_1\n  jumpi\n  0x00\n  dup1\n  revert\ntag_1:\n  pop\n  dataSize(sub_0)\n  dup1\n  dataOffset(sub_0)\n  0x00\n  codecopy\n  0x00\n  return\nstop\n\nsub_0: assembly {\n        /* \"bytes32tostring.sol\":62:493  contract Bytes32ToStringExample {... */\n      mstore(0x40, 0x80)\n      callvalue\n      dup1\n      iszero\n      tag_1\n      jumpi\n      0x00\n      dup1\n      revert\n    tag_1:\n      pop\n      jumpi(tag_2, lt(calldatasize, 0x04))\n      shr(0xe0, calldataload(0x00))\n      dup1\n      0x9201de55\n      eq\n      tag_3\n      jumpi\n      dup1\n      0xe106fb4b\n      eq\n      tag_4\n      jumpi\n    tag_2:\n      0x00\n      dup1\n      revert\n        /* \"bytes32tostring.sol\":101:363  function bytes32ToString(bytes32 data) public pure returns (string memory) {... */\n    tag_3:\n      tag_5\n      tag_6\n      calldatasize\n      0x04\n      tag_7\n      jump\t// in\n    tag_6:\n      tag_8\n      jump\t// in\n    tag_5:\n      mload(0x40)\n      tag_9\n      swap2\n      swap1\n      tag_10\n      jump\t// in\n    tag_9:\n      mload(0x40)\n      dup1\n      swap2\n      sub\n      swap1\n      return\n        /* \"bytes32tostring.sol\":375:490  function stringToBytes(string memory data) public pure returns (bytes memory) {... */\n    tag_4:\n      tag_5\n      tag_12\n      calldatasize\n      0x04\n      tag_13\n      jump\t// in\n    tag_12:\n        /* \"bytes32tostring.sol\":477:481  data */\n      swap1\n        /* \"bytes32tostring.sol\":375:490  function stringToBytes(string memory data) public pure returns (bytes memory) {... */\n      jump\n        /* \"bytes32tostring.sol\":101:363  function bytes32ToString(bytes32 data) public pure returns (string memory) {... */\n    tag_8:\n        /* \"bytes32tostring.sol\":213:226  new bytes(32) */\n      0x40\n      dup1\n      mload\n        /* \"bytes32tostring.sol\":223:225  32 */\n      0x20\n        /* \"bytes32tostring.sol\":213:226  new bytes(32) */\n      dup1\n      dup3\n      mstore\n      dup2\n      dup4\n      add\n      swap1\n      swap3\n      mstore\n        /* \"bytes32tostring.sol\":161:174  string memory */\n      0x60\n      swap2\n        /* \"bytes32tostring.sol\":187:210  bytes memory bytesArray */\n      0x00\n      swap2\n        /* \"bytes32tostring.sol\":213:226  new bytes(32) */\n      swap1\n      0x20\n      dup3\n      add\n      dup2\n      dup1\n      calldatasize\n      dup4\n      calldatacopy\n      add\n      swap1\n      pop\n      pop\n        /* \"bytes32tostring.sol\":187:226  bytes memory bytesArray = new bytes(32) */\n      swap1\n      pop\n        /* \"bytes32tostring.sol\":242:251  uint256 i */\n      0x00\n        /* \"bytes32tostring.sol\":237:320  for (uint256 i = 0; i < 32; i++) {... */\n    tag_22:\n        /* \"bytes32tostring.sol\":261:263  32 */\n      0x20\n        /* \"bytes32tostring.sol\":257:258  i */\n      dup2\n        /* \"bytes32tostring.sol\":257:263  i < 32 */\n      lt\n        /* \"bytes32tostring.sol\":237:320  for (uint256 i = 0; i < 32; i++) {... */\n      iszero\n      tag_23\n      jumpi\n        /* \"bytes32tostring.sol\":301:305  data */\n      dup4\n        /* \"bytes32tostring.sol\":306:307  i */\n      dup2\n        /* \"bytes32tostring.sol\":301:308  data[i] */\n      0x20\n      dup2\n      lt\n      tag_26\n      jumpi\n      tag_26\n      tag_27\n      jump\t// in\n    tag_26:\n      byte\n      0xf8\n      shl\n        /* \"bytes32tostring.sol\":285:295  bytesArray */\n      dup3\n        /* \"bytes32tostring.sol\":296:297  i */\n      dup3\n        /* \"bytes32tostring.sol\":285:298  bytesArray[i] */\n      dup2\n      mload\n      dup2\n      lt\n      tag_29\n      jumpi\n      tag_29\n      tag_27\n      jump\t// in\n    tag_29:\n      0x20\n      add\n      add\n        /* \"bytes32tostring.sol\":285:308  bytesArray[i] = data[i] */\n      swap1\n      not(sub(shl(0xf8, 0x01), 0x01))\n      and\n      swap1\n      dup2\n      0x00\n      byte\n      swap1\n      mstore8\n      pop\n        /* \"bytes32tostring.sol\":265:268  i++ */\n      dup1\n      tag_30\n      dup2\n      tag_31\n      jump\t// in\n    tag_30:\n      swap2\n      pop\n      pop\n        /* \"bytes32tostring.sol\":237:320  for (uint256 i = 0; i < 32; i++) {... */\n      jump(tag_22)\n    tag_23:\n      pop\n        /* \"bytes32tostring.sol\":344:354  bytesArray */\n      swap3\n        /* \"bytes32tostring.sol\":101:363  function bytes32ToString(bytes32 data) public pure returns (string memory) {... */\n      swap2\n      pop\n      pop\n      jump\t// out\n        /* \"#utility.yul\":14:194   */\n    tag_7:\n        /* \"#utility.yul\":73:79   */\n      0x00\n        /* \"#utility.yul\":126:128   */\n      0x20\n        /* \"#utility.yul\":114:123   */\n      dup3\n        /* \"#utility.yul\":105:112   */\n      dup5\n        /* \"#utility.yul\":101:124   */\n      sub\n        /* \"#utility.yul\":97:129   */\n      slt\n        /* \"#utility.yul\":94:146   */\n      iszero\n      tag_36\n      jumpi\n        /* \"#utility.yul\":142:143   */\n      0x00\n        /* \"#utility.yul\":139:140   */\n      dup1\n        /* \"#utility.yul\":132:144   */\n      revert\n        /* \"#utility.yul\":94:146   */\n    tag_36:\n      pop\n        /* \"#utility.yul\":165:188   */\n      calldataload\n      swap2\n        /* \"#utility.yul\":14:194   */\n      swap1\n      pop\n      jump\t// out\n        /* \"#utility.yul\":199:622   */\n    tag_33:\n        /* \"#utility.yul\":241:244   */\n      0x00\n        /* \"#utility.yul\":279:284   */\n      dup2\n        /* \"#utility.yul\":273:285   */\n      mload\n        /* \"#utility.yul\":306:312   */\n      dup1\n        /* \"#utility.yul\":301:304   */\n      dup5\n        /* \"#utility.yul\":294:313   */\n      mstore\n        /* \"#utility.yul\":331:332   */\n      0x00\n        /* \"#utility.yul\":341:503   */\n    tag_38:\n        /* \"#utility.yul\":355:361   */\n      dup2\n        /* \"#utility.yul\":352:353   */\n      dup2\n        /* \"#utility.yul\":349:362   */\n      lt\n        /* \"#utility.yul\":341:503   */\n      iszero\n      tag_40\n      jumpi\n        /* \"#utility.yul\":417:421   */\n      0x20\n        /* \"#utility.yul\":473:486   */\n      dup2\n      dup6\n      add\n        /* \"#utility.yul\":469:491   */\n      dup2\n      add\n        /* \"#utility.yul\":463:492   */\n      mload\n        /* \"#utility.yul\":445:456   */\n      dup7\n      dup4\n      add\n        /* \"#utility.yul\":441:461   */\n      dup3\n      add\n        /* \"#utility.yul\":434:493   */\n      mstore\n        /* \"#utility.yul\":370:382   */\n      add\n        /* \"#utility.yul\":341:503   */\n      jump(tag_38)\n    tag_40:\n        /* \"#utility.yul\":345:348   */\n      pop\n        /* \"#utility.yul\":548:549   */\n      0x00\n        /* \"#utility.yul\":541:545   */\n      0x20\n        /* \"#utility.yul\":532:538   */\n      dup3\n        /* \"#utility.yul\":527:530   */\n      dup7\n        /* \"#utility.yul\":523:539   */\n      add\n        /* \"#utility.yul\":519:546   */\n      add\n        /* \"#utility.yul\":512:550   */\n      mstore\n        /* \"#utility.yul\":611:615   */\n      0x20\n        /* \"#utility.yul\":604:606   */\n      0x1f\n        /* \"#utility.yul\":600:607   */\n      not\n        /* \"#utility.yul\":595:597   */\n      0x1f\n        /* \"#utility.yul\":587:593   */\n      dup4\n        /* \"#utility.yul\":583:598   */\n      add\n        /* \"#utility.yul\":579:608   */\n      and\n        /* \"#utility.yul\":574:577   */\n      dup6\n        /* \"#utility.yul\":570:609   */\n      add\n        /* \"#utility.yul\":566:616   */\n      add\n        /* \"#utility.yul\":559:616   */\n      swap2\n      pop\n      pop\n        /* \"#utility.yul\":199:622   */\n      swap3\n      swap2\n      pop\n      pop\n      jump\t// out\n        /* \"#utility.yul\":627:847   */\n    tag_10:\n        /* \"#utility.yul\":776:778   */\n      0x20\n        /* \"#utility.yul\":765:774   */\n      dup2\n        /* \"#utility.yul\":758:779   */\n      mstore\n        /* \"#utility.yul\":739:743   */\n      0x00\n        /* \"#utility.yul\":796:841   */\n      tag_42\n        /* \"#utility.yul\":837:839   */\n      0x20\n        /* \"#utility.yul\":826:835   */\n      dup4\n        /* \"#utility.yul\":822:840   */\n      add\n        /* \"#utility.yul\":814:820   */\n      dup5\n        /* \"#utility.yul\":796:841   */\n      tag_33\n      jump\t// in\n    tag_42:\n        /* \"#utility.yul\":788:841   */\n      swap4\n        /* \"#utility.yul\":627:847   */\n      swap3\n      pop\n      pop\n      pop\n      jump\t// out\n        /* \"#utility.yul\":852:979   */\n    tag_20:\n        /* \"#utility.yul\":913:923   */\n      0x4e487b71\n        /* \"#utility.yul\":908:911   */\n      0xe0\n        /* \"#utility.yul\":904:924   */\n      shl\n        /* \"#utility.yul\":901:902   */\n      0x00\n        /* \"#utility.yul\":894:925   */\n      mstore\n        /* \"#utility.yul\":944:948   */\n      0x41\n        /* \"#utility.yul\":941:942   */\n      0x04\n        /* \"#utility.yul\":934:949   */\n      mstore\n        /* \"#utility.yul\":968:972   */\n      0x24\n        /* \"#utility.yul\":965:966   */\n      0x00\n        /* \"#utility.yul\":958:973   */\n      revert\n        /* \"#utility.yul\":984:1906   */\n    tag_13:\n        /* \"#utility.yul\":1053:1059   */\n      0x00\n        /* \"#utility.yul\":1106:1108   */\n      0x20\n        /* \"#utility.yul\":1094:1103   */\n      dup3\n        /* \"#utility.yul\":1085:1092   */\n      dup5\n        /* \"#utility.yul\":1081:1104   */\n      sub\n        /* \"#utility.yul\":1077:1109   */\n      slt\n        /* \"#utility.yul\":1074:1126   */\n      iszero\n      tag_45\n      jumpi\n        /* \"#utility.yul\":1122:1123   */\n      0x00\n        /* \"#utility.yul\":1119:1120   */\n      dup1\n        /* \"#utility.yul\":1112:1124   */\n      revert\n        /* \"#utility.yul\":1074:1126   */\n    tag_45:\n        /* \"#utility.yul\":1162:1171   */\n      dup2\n        /* \"#utility.yul\":1149:1172   */\n      calldataload\n        /* \"#utility.yul\":1191:1209   */\n      0xffffffffffffffff\n        /* \"#utility.yul\":1232:1234   */\n      dup1\n        /* \"#utility.yul\":1224:1230   */\n      dup3\n        /* \"#utility.yul\":1221:1235   */\n      gt\n        /* \"#utility.yul\":1218:1252   */\n      iszero\n      tag_46\n      jumpi\n        /* \"#utility.yul\":1248:1249   */\n      0x00\n        /* \"#utility.yul\":1245:1246   */\n      dup1\n        /* \"#utility.yul\":1238:1250   */\n      revert\n        /* \"#utility.yul\":1218:1252   */\n    tag_46:\n        /* \"#utility.yul\":1286:1292   */\n      dup2\n        /* \"#utility.yul\":1275:1284   */\n      dup5\n        /* \"#utility.yul\":1271:1293   */\n      add\n        /* \"#utility.yul\":1261:1293   */\n      swap2\n      pop\n        /* \"#utility.yul\":1331:1338   */\n      dup5\n        /* \"#utility.yul\":1324:1328   */\n      0x1f\n        /* \"#utility.yul\":1320:1322   */\n      dup4\n        /* \"#utility.yul\":1316:1329   */\n      add\n        /* \"#utility.yul\":1312:1339   */\n      slt\n        /* \"#utility.yul\":1302:1357   */\n      tag_47\n      jumpi\n        /* \"#utility.yul\":1353:1354   */\n      0x00\n        /* \"#utility.yul\":1350:1351   */\n      dup1\n        /* \"#utility.yul\":1343:1355   */\n      revert\n        /* \"#utility.yul\":1302:1357   */\n    tag_47:\n        /* \"#utility.yul\":1389:1391   */\n      dup2\n        /* \"#utility.yul\":1376:1392   */\n      calldataload\n        /* \"#utility.yul\":1411:1413   */\n      dup2\n        /* \"#utility.yul\":1407:1409   */\n      dup2\n        /* \"#utility.yul\":1404:1414   */\n      gt\n        /* \"#utility.yul\":1401:1437   */\n      iszero\n      tag_49\n      jumpi\n        /* \"#utility.yul\":1417:1435   */\n      tag_49\n      tag_20\n      jump\t// in\n    tag_49:\n        /* \"#utility.yul\":1492:1494   */\n      0x40\n        /* \"#utility.yul\":1486:1495   */\n      mload\n        /* \"#utility.yul\":1460:1462   */\n      0x1f\n        /* \"#utility.yul\":1546:1559   */\n      dup3\n      add\n      not(0x1f)\n        /* \"#utility.yul\":1542:1564   */\n      swap1\n      dup2\n      and\n        /* \"#utility.yul\":1566:1568   */\n      0x3f\n        /* \"#utility.yul\":1538:1569   */\n      add\n        /* \"#utility.yul\":1534:1574   */\n      and\n        /* \"#utility.yul\":1522:1575   */\n      dup2\n      add\n      swap1\n        /* \"#utility.yul\":1590:1608   */\n      dup4\n      dup3\n      gt\n        /* \"#utility.yul\":1610:1632   */\n      dup2\n      dup4\n      lt\n        /* \"#utility.yul\":1587:1633   */\n      or\n        /* \"#utility.yul\":1584:1656   */\n      iszero\n      tag_51\n      jumpi\n        /* \"#utility.yul\":1636:1654   */\n      tag_51\n      tag_20\n      jump\t// in\n    tag_51:\n        /* \"#utility.yul\":1676:1686   */\n      dup2\n        /* \"#utility.yul\":1672:1674   */\n      0x40\n        /* \"#utility.yul\":1665:1687   */\n      mstore\n        /* \"#utility.yul\":1711:1713   */\n      dup3\n        /* \"#utility.yul\":1703:1709   */\n      dup2\n        /* \"#utility.yul\":1696:1714   */\n      mstore\n        /* \"#utility.yul\":1751:1758   */\n      dup8\n        /* \"#utility.yul\":1746:1748   */\n      0x20\n        /* \"#utility.yul\":1741:1743   */\n      dup5\n        /* \"#utility.yul\":1737:1739   */\n      dup8\n        /* \"#utility.yul\":1733:1744   */\n      add\n        /* \"#utility.yul\":1729:1749   */\n      add\n        /* \"#utility.yul\":1726:1759   */\n      gt\n        /* \"#utility.yul\":1723:1776   */\n      iszero\n      tag_52\n      jumpi\n        /* \"#utility.yul\":1772:1773   */\n      0x00\n        /* \"#utility.yul\":1769:1770   */\n      dup1\n        /* \"#utility.yul\":1762:1774   */\n      revert\n        /* \"#utility.yul\":1723:1776   */\n    tag_52:\n        /* \"#utility.yul\":1828:1830   */\n      dup3\n        /* \"#utility.yul\":1823:1825   */\n      0x20\n        /* \"#utility.yul\":1819:1821   */\n      dup7\n        /* \"#utility.yul\":1815:1826   */\n      add\n        /* \"#utility.yul\":1810:1812   */\n      0x20\n        /* \"#utility.yul\":1802:1808   */\n      dup4\n        /* \"#utility.yul\":1798:1813   */\n      add\n        /* \"#utility.yul\":1785:1831   */\n      calldatacopy\n        /* \"#utility.yul\":1873:1874   */\n      0x00\n        /* \"#utility.yul\":1851:1866   */\n      swap3\n      dup2\n      add\n        /* \"#utility.yul\":1868:1870   */\n      0x20\n        /* \"#utility.yul\":1847:1871   */\n      add\n        /* \"#utility.yul\":1840:1875   */\n      swap3\n      swap1\n      swap3\n      mstore\n      pop\n        /* \"#utility.yul\":1855:1861   */\n      swap6\n        /* \"#utility.yul\":984:1906   */\n      swap5\n      pop\n      pop\n      pop\n      pop\n      pop\n      jump\t// out\n        /* \"#utility.yul\":2134:2261   */\n    tag_27:\n        /* \"#utility.yul\":2195:2205   */\n      0x4e487b71\n        /* \"#utility.yul\":2190:2193   */\n      0xe0\n        /* \"#utility.yul\":2186:2206   */\n      shl\n        /* \"#utility.yul\":2183:2184   */\n      0x00\n        /* \"#utility.yul\":2176:2207   */\n      mstore\n        /* \"#utility.yul\":2226:2230   */\n      0x32\n        /* \"#utility.yul\":2223:2224   */\n      0x04\n        /* \"#utility.yul\":2216:2231   */\n      mstore\n        /* \"#utility.yul\":2250:2254   */\n      0x24\n        /* \"#utility.yul\":2247:2248   */\n      0x00\n        /* \"#utility.yul\":2240:2255   */\n      revert\n        /* \"#utility.yul\":2266:2498   */\n    tag_31:\n        /* \"#utility.yul\":2305:2308   */\n      0x00\n        /* \"#utility.yul\":2326:2343   */\n      0x01\n      dup3\n      add\n        /* \"#utility.yul\":2323:2463   */\n      tag_57\n      jumpi\n        /* \"#utility.yul\":2385:2395   */\n      0x4e487b71\n        /* \"#utility.yul\":2380:2383   */\n      0xe0\n        /* \"#utility.yul\":2376:2396   */\n      shl\n        /* \"#utility.yul\":2373:2374   */\n      0x00\n        /* \"#utility.yul\":2366:2397   */\n      mstore\n        /* \"#utility.yul\":2420:2424   */\n      0x11\n        /* \"#utility.yul\":2417:2418   */\n      0x04\n        /* \"#utility.yul\":2410:2425   */\n      mstore\n        /* \"#utility.yul\":2448:2452   */\n      0x24\n        /* \"#utility.yul\":2445:2446   */\n      0x00\n        /* \"#utility.yul\":2438:2453   */\n      revert\n        /* \"#utility.yul\":2323:2463   */\n    tag_57:\n      pop\n        /* \"#utility.yul\":2490:2491   */\n      0x01\n        /* \"#utility.yul\":2479:2492   */\n      add\n      swap1\n        /* \"#utility.yul\":2266:2498   */\n      jump\t// out\n\n    auxdata: 0xa2646970667358221220049ab9d4d263de48580cf569c2bbea5e4143cf90c55dc48bb78954aeb70a4d1964736f6c63430008150033\n}\n",
				"bytecode": {
					"linkReferences": {},
					"object": "608060405234801561000f575f80fd5b506102988061001d5f395ff3fe608060405234801561000f575f80fd5b5060043610610034575f3560e01c80639201de5514610038578063e106fb4b14610061575b5f80fd5b61004b6100463660046100f8565b610072565b6040516100589190610152565b60405180910390f35b61004b61006f36600461017f565b90565b6040805160208082528183019092526060915f91906020820181803683370190505090505f5b60208110156100f1578381602081106100b3576100b361022a565b1a60f81b8282815181106100c9576100c961022a565b60200101906001600160f81b03191690815f1a905350806100e98161023e565b915050610098565b5092915050565b5f60208284031215610108575f80fd5b5035919050565b5f81518084525f5b8181101561013357602081850181015186830182015201610117565b505f602082860101526020601f19601f83011685010191505092915050565b602081525f610164602083018461010f565b9392505050565b634e487b7160e01b5f52604160045260245ffd5b5f6020828403121561018f575f80fd5b813567ffffffffffffffff808211156101a6575f80fd5b818401915084601f8301126101b9575f80fd5b8135818111156101cb576101cb61016b565b604051601f8201601f19908116603f011681019083821181831017156101f3576101f361016b565b8160405282815287602084870101111561020b575f80fd5b826020860160208301375f928101602001929092525095945050505050565b634e487b7160e01b5f52603260045260245ffd5b5f6001820161025b57634e487b7160e01b5f52601160045260245ffd5b506001019056fea2646970667358221220049ab9d4d263de48580cf569c2bbea5e4143cf90c55dc48bb78954aeb70a4d1964736f6c63430008150033",
					"opcodes": "PUSH1 0x80 PUSH1 0x40 MSTORE CALLVALUE DUP1 ISZERO PUSH2 0xF JUMPI PUSH0 DUP1 REVERT JUMPDEST POP PUSH2 0x298 DUP1 PUSH2 0x1D PUSH0 CODECOPY PUSH0 RETURN INVALID PUSH1 0x80 PUSH1 0x40 MSTORE CALLVALUE DUP1 ISZERO PUSH2 0xF JUMPI PUSH0 DUP1 REVERT JUMPDEST POP PUSH1 0x4 CALLDATASIZE LT PUSH2 0x34 JUMPI PUSH0 CALLDATALOAD PUSH1 0xE0 SHR DUP1 PUSH4 0x9201DE55 EQ PUSH2 0x38 JUMPI DUP1 PUSH4 0xE106FB4B EQ PUSH2 0x61 JUMPI JUMPDEST PUSH0 DUP1 REVERT JUMPDEST PUSH2 0x4B PUSH2 0x46 CALLDATASIZE PUSH1 0x4 PUSH2 0xF8 JUMP JUMPDEST PUSH2 0x72 JUMP JUMPDEST PUSH1 0x40 MLOAD PUSH2 0x58 SWAP2 SWAP1 PUSH2 0x152 JUMP JUMPDEST PUSH1 0x40 MLOAD DUP1 SWAP2 SUB SWAP1 RETURN JUMPDEST PUSH2 0x4B PUSH2 0x6F CALLDATASIZE PUSH1 0x4 PUSH2 0x17F JUMP JUMPDEST SWAP1 JUMP JUMPDEST PUSH1 0x40 DUP1 MLOAD PUSH1 0x20 DUP1 DUP3 MSTORE DUP2 DUP4 ADD SWAP1 SWAP3 MSTORE PUSH1 0x60 SWAP2 PUSH0 SWAP2 SWAP1 PUSH1 0x20 DUP3 ADD DUP2 DUP1 CALLDATASIZE DUP4 CALLDATACOPY ADD SWAP1 POP POP SWAP1 POP PUSH0 JUMPDEST PUSH1 0x20 DUP2 LT ISZERO PUSH2 0xF1 JUMPI DUP4 DUP2 PUSH1 0x20 DUP2 LT PUSH2 0xB3 JUMPI PUSH2 0xB3 PUSH2 0x22A JUMP JUMPDEST BYTE PUSH1 0xF8 SHL DUP3 DUP3 DUP2 MLOAD DUP2 LT PUSH2 0xC9 JUMPI PUSH2 0xC9 PUSH2 0x22A JUMP JUMPDEST PUSH1 0x20 ADD ADD SWAP1 PUSH1 0x1 PUSH1 0x1 PUSH1 0xF8 SHL SUB NOT AND SWAP1 DUP2 PUSH0 BYTE SWAP1 MSTORE8 POP DUP1 PUSH2 0xE9 DUP2 PUSH2 0x23E JUMP JUMPDEST SWAP2 POP POP PUSH2 0x98 JUMP JUMPDEST POP SWAP3 SWAP2 POP POP JUMP JUMPDEST PUSH0 PUSH1 0x20 DUP3 DUP5 SUB SLT ISZERO PUSH2 0x108 JUMPI PUSH0 DUP1 REVERT JUMPDEST POP CALLDATALOAD SWAP2 SWAP1 POP JUMP JUMPDEST PUSH0 DUP2 MLOAD DUP1 DUP5 MSTORE PUSH0 JUMPDEST DUP2 DUP2 LT ISZERO PUSH2 0x133 JUMPI PUSH1 0x20 DUP2 DUP6 ADD DUP2 ADD MLOAD DUP7 DUP4 ADD DUP3 ADD MSTORE ADD PUSH2 0x117 JUMP JUMPDEST POP PUSH0 PUSH1 0x20 DUP3 DUP7 ADD ADD MSTORE PUSH1 0x20 PUSH1 0x1F NOT PUSH1 0x1F DUP4 ADD AND DUP6 ADD ADD SWAP2 POP POP SWAP3 SWAP2 POP POP JUMP JUMPDEST PUSH1 0x20 DUP2 MSTORE PUSH0 PUSH2 0x164 PUSH1 0x20 DUP4 ADD DUP5 PUSH2 0x10F JUMP JUMPDEST SWAP4 SWAP3 POP POP POP JUMP JUMPDEST PUSH4 0x4E487B71 PUSH1 0xE0 SHL PUSH0 MSTORE PUSH1 0x41 PUSH1 0x4 MSTORE PUSH1 0x24 PUSH0 REVERT JUMPDEST PUSH0 PUSH1 0x20 DUP3 DUP5 SUB SLT ISZERO PUSH2 0x18F JUMPI PUSH0 DUP1 REVERT JUMPDEST DUP2 CALLDATALOAD PUSH8 0xFFFFFFFFFFFFFFFF DUP1 DUP3 GT ISZERO PUSH2 0x1A6 JUMPI PUSH0 DUP1 REVERT JUMPDEST DUP2 DUP5 ADD SWAP2 POP DUP5 PUSH1 0x1F DUP4 ADD SLT PUSH2 0x1B9 JUMPI PUSH0 DUP1 REVERT JUMPDEST DUP2 CALLDATALOAD DUP2 DUP2 GT ISZERO PUSH2 0x1CB JUMPI PUSH2 0x1CB PUSH2 0x16B JUMP JUMPDEST PUSH1 0x40 MLOAD PUSH1 0x1F DUP3 ADD PUSH1 0x1F NOT SWAP1 DUP2 AND PUSH1 0x3F ADD AND DUP2 ADD SWAP1 DUP4 DUP3 GT DUP2 DUP4 LT OR ISZERO PUSH2 0x1F3 JUMPI PUSH2 0x1F3 PUSH2 0x16B JUMP JUMPDEST DUP2 PUSH1 0x40 MSTORE DUP3 DUP2 MSTORE DUP8 PUSH1 0x20 DUP5 DUP8 ADD ADD GT ISZERO PUSH2 0x20B JUMPI PUSH0 DUP1 REVERT JUMPDEST DUP3 PUSH1 0x20 DUP7 ADD PUSH1 0x20 DUP4 ADD CALLDATACOPY PUSH0 SWAP3 DUP2 ADD PUSH1 0x20 ADD SWAP3 SWAP1 SWAP3 MSTORE POP SWAP6 SWAP5 POP POP POP POP POP JUMP JUMPDEST PUSH4 0x4E487B71 PUSH1 0xE0 SHL PUSH0 MSTORE PUSH1 0x32 PUSH1 0x4 MSTORE PUSH1 0x24 PUSH0 REVERT JUMPDEST PUSH0 PUSH1 0x1 DUP3 ADD PUSH2 0x25B JUMPI PUSH4 0x4E487B71 PUSH1 0xE0 SHL PUSH0 MSTORE PUSH1 0x11 PUSH1 0x4 MSTORE PUSH1 0x24 PUSH0 REVERT JUMPDEST POP PUSH1 0x1 ADD SWAP1 JUMP INVALID LOG2 PUSH5 0x6970667358 0x22 SLT KECCAK256 DIV SWAP11 0xB9 0xD4 0xD2 PUSH4 0xDE48580C CREATE2 PUSH10 0xC2BBEA5E4143CF90C55D 0xC4 DUP12 0xB7 DUP10 SLOAD 0xAE 0xB7 EXP 0x4D NOT PUSH5 0x736F6C6343 STOP ADDMOD ISZERO STOP CALLER "
				},
				"gasEstimates": {
					"creation": {
						"codeDepositCost": "132800",
						"executionCost": "175",
						"totalCost": "132975"
					},
					"external": {
						"bytes32ToString(bytes32)": "infinite",
						"stringToBytes(string)": "infinite"
					}
				},
				"methodIdentifiers": {
					"bytes32ToString(bytes32)": "9201de55",
					"stringToBytes(string)": "e106fb4b"
				}
			},
			"storageLayout": {
				"storage": [],
				"types": null
			},
			"userdoc": {
				"kind": "user",
				"methods": {},
				"version": 1
			}
		}
	}
}