{
	"ChildLabourDataManagement.sol": {
		"ChildLabourDataManagement": {
			"abi": [
				{
					"inputs": [
						{
							"internalType": "address",
							"name": "_registration",
							"type": "address"
						},
						{
							"internalType": "address",
							"name": "_verifier",
							"type": "address"
						}
					],
					"stateMutability": "nonpayable",
					"type": "constructor"
				},
				{
					"anonymous": false,
					"inputs": [
						{
							"indexed": false,
							"internalType": "address",
							"name": "regulatoryAuthority",
							"type": "address"
						},
						{
							"indexed": false,
							"internalType": "address",
							"name": "entity",
							"type": "address"
						},
						{
							"indexed": false,
							"internalType": "uint256",
							"name": "date",
							"type": "uint256"
						}
					],
					"name": "AccessRevoked",
					"type": "event"
				},
				{
					"anonymous": false,
					"inputs": [
						{
							"indexed": false,
							"internalType": "uint256",
							"name": "childId",
							"type": "uint256"
						},
						{
							"indexed": false,
							"internalType": "bytes32",
							"name": "hashedName",
							"type": "bytes32"
						},
						{
							"indexed": false,
							"internalType": "uint256",
							"name": "age",
							"type": "uint256"
						},
						{
							"indexed": false,
							"internalType": "bytes1",
							"name": "gender",
							"type": "bytes1"
						},
						{
							"indexed": false,
							"internalType": "uint256",
							"name": "reportId",
							"type": "uint256"
						}
					],
					"name": "ChildDataStored",
					"type": "event"
				},
				{
					"anonymous": false,
					"inputs": [
						{
							"indexed": false,
							"internalType": "uint256",
							"name": "childId",
							"type": "uint256"
						},
						{
							"indexed": false,
							"internalType": "uint256",
							"name": "reportId",
							"type": "uint256"
						},
						{
							"indexed": false,
							"internalType": "address",
							"name": "guardian",
							"type": "address"
						}
					],
					"name": "GuardianAssigned",
					"type": "event"
				},
				{
					"anonymous": false,
					"inputs": [
						{
							"indexed": true,
							"internalType": "uint256",
							"name": "reportCount",
							"type": "uint256"
						},
						{
							"indexed": false,
							"internalType": "address",
							"name": "reporter",
							"type": "address"
						},
						{
							"indexed": false,
							"internalType": "uint256",
							"name": "date",
							"type": "uint256"
						},
						{
							"indexed": false,
							"internalType": "bytes32",
							"name": "reportDetails",
							"type": "bytes32"
						}
					],
					"name": "NewViolationReport",
					"type": "event"
				},
				{
					"anonymous": false,
					"inputs": [
						{
							"indexed": false,
							"internalType": "uint256",
							"name": "violationReportId",
							"type": "uint256"
						},
						{
							"indexed": false,
							"internalType": "uint256",
							"name": "childId",
							"type": "uint256"
						},
						{
							"indexed": false,
							"internalType": "uint256",
							"name": "remediationCompletionDate",
							"type": "uint256"
						}
					],
					"name": "RemediationCompleted",
					"type": "event"
				},
				{
					"anonymous": false,
					"inputs": [
						{
							"indexed": false,
							"internalType": "uint256",
							"name": "violationReportId",
							"type": "uint256"
						},
						{
							"indexed": false,
							"internalType": "uint256",
							"name": "childId",
							"type": "uint256"
						},
						{
							"indexed": false,
							"internalType": "uint256",
							"name": "remediationStartDate",
							"type": "uint256"
						},
						{
							"indexed": false,
							"internalType": "uint256",
							"name": "remediationCompletionDate",
							"type": "uint256"
						}
					],
					"name": "RemediationStarted",
					"type": "event"
				},
				{
					"anonymous": false,
					"inputs": [
						{
							"indexed": false,
							"internalType": "uint256",
							"name": "violationReportId",
							"type": "uint256"
						},
						{
							"indexed": false,
							"internalType": "uint256",
							"name": "childId",
							"type": "uint256"
						},
						{
							"indexed": false,
							"internalType": "uint256",
							"name": "remediationUpdatedate",
							"type": "uint256"
						},
						{
							"indexed": false,
							"internalType": "bytes32",
							"name": "reportUpdate",
							"type": "bytes32"
						}
					],
					"name": "RemediationUpdate",
					"type": "event"
				},
				{
					"anonymous": false,
					"inputs": [
						{
							"indexed": false,
							"internalType": "address",
							"name": "regulatoryAuthority",
							"type": "address"
						},
						{
							"indexed": false,
							"internalType": "address",
							"name": "verifierSC",
							"type": "address"
						},
						{
							"indexed": false,
							"internalType": "uint256",
							"name": "date",
							"type": "uint256"
						}
					],
					"name": "VerifierUpdated",
					"type": "event"
				},
				{
					"anonymous": false,
					"inputs": [
						{
							"indexed": true,
							"internalType": "uint256",
							"name": "reportCount",
							"type": "uint256"
						},
						{
							"indexed": false,
							"internalType": "address",
							"name": "inspector",
							"type": "address"
						},
						{
							"indexed": false,
							"internalType": "bool",
							"name": "isVerified",
							"type": "bool"
						},
						{
							"indexed": false,
							"internalType": "uint256",
							"name": "verificationDate",
							"type": "uint256"
						}
					],
					"name": "ViolationReportVerification",
					"type": "event"
				},
				{
					"anonymous": false,
					"inputs": [
						{
							"indexed": false,
							"internalType": "address",
							"name": "user",
							"type": "address"
						},
						{
							"indexed": false,
							"internalType": "uint256",
							"name": "Date",
							"type": "uint256"
						}
					],
					"name": "Whitelisted",
					"type": "event"
				},
				{
					"inputs": [],
					"name": "Registration",
					"outputs": [
						{
							"internalType": "contract IRegistration",
							"name": "",
							"type": "address"
						}
					],
					"stateMutability": "view",
					"type": "function"
				},
				{
					"inputs": [],
					"name": "Verifier",
					"outputs": [
						{
							"internalType": "contract IVerifier",
							"name": "",
							"type": "address"
						}
					],
					"stateMutability": "view",
					"type": "function"
				},
				{
					"inputs": [
						{
							"internalType": "address",
							"name": "",
							"type": "address"
						}
					],
					"name": "accessWhitelist",
					"outputs": [
						{
							"internalType": "bool",
							"name": "",
							"type": "bool"
						}
					],
					"stateMutability": "view",
					"type": "function"
				},
				{
					"inputs": [
						{
							"internalType": "uint256",
							"name": "_violationReportId",
							"type": "uint256"
						},
						{
							"internalType": "uint256",
							"name": "_childId",
							"type": "uint256"
						},
						{
							"internalType": "address",
							"name": "_guardian",
							"type": "address"
						}
					],
					"name": "assignGuardian",
					"outputs": [],
					"stateMutability": "nonpayable",
					"type": "function"
				},
				{
					"inputs": [
						{
							"internalType": "uint256",
							"name": "",
							"type": "uint256"
						}
					],
					"name": "child2ReportMapping",
					"outputs": [
						{
							"internalType": "uint256",
							"name": "",
							"type": "uint256"
						}
					],
					"stateMutability": "view",
					"type": "function"
				},
				{
					"inputs": [],
					"name": "childCount",
					"outputs": [
						{
							"internalType": "uint256",
							"name": "",
							"type": "uint256"
						}
					],
					"stateMutability": "view",
					"type": "function"
				},
				{
					"inputs": [
						{
							"internalType": "uint256",
							"name": "",
							"type": "uint256"
						},
						{
							"internalType": "uint256",
							"name": "",
							"type": "uint256"
						}
					],
					"name": "childData",
					"outputs": [
						{
							"internalType": "uint256",
							"name": "childId",
							"type": "uint256"
						},
						{
							"internalType": "bytes32",
							"name": "hashedName",
							"type": "bytes32"
						},
						{
							"internalType": "uint256",
							"name": "age",
							"type": "uint256"
						},
						{
							"internalType": "bytes1",
							"name": "gender",
							"type": "bytes1"
						},
						{
							"internalType": "uint256",
							"name": "violationReportId",
							"type": "uint256"
						},
						{
							"internalType": "enum ChildLabourDataManagement.ChildStatus",
							"name": "status",
							"type": "uint8"
						}
					],
					"stateMutability": "view",
					"type": "function"
				},
				{
					"inputs": [
						{
							"internalType": "uint256",
							"name": "",
							"type": "uint256"
						}
					],
					"name": "childRemediationData",
					"outputs": [
						{
							"internalType": "address",
							"name": "guardian",
							"type": "address"
						},
						{
							"internalType": "uint256",
							"name": "childId",
							"type": "uint256"
						},
						{
							"internalType": "uint256",
							"name": "remediationStart",
							"type": "uint256"
						},
						{
							"internalType": "uint256",
							"name": "remediationCompletion",
							"type": "uint256"
						},
						{
							"internalType": "uint256",
							"name": "lastUpdated",
							"type": "uint256"
						},
						{
							"internalType": "bytes32",
							"name": "updateReport",
							"type": "bytes32"
						},
						{
							"internalType": "enum ChildLabourDataManagement.ChildStatus",
							"name": "status",
							"type": "uint8"
						}
					],
					"stateMutability": "view",
					"type": "function"
				},
				{
					"inputs": [
						{
							"internalType": "uint256",
							"name": "_violationReportId",
							"type": "uint256"
						},
						{
							"internalType": "uint256",
							"name": "_childId",
							"type": "uint256"
						}
					],
					"name": "completeRemediation",
					"outputs": [],
					"stateMutability": "nonpayable",
					"type": "function"
				},
				{
					"inputs": [
						{
							"internalType": "uint256",
							"name": "_violationReportId",
							"type": "uint256"
						},
						{
							"internalType": "uint256",
							"name": "_childId",
							"type": "uint256"
						}
					],
					"name": "getChildData",
					"outputs": [
						{
							"internalType": "bytes32",
							"name": "hashedName",
							"type": "bytes32"
						},
						{
							"internalType": "uint256",
							"name": "age",
							"type": "uint256"
						},
						{
							"internalType": "bytes1",
							"name": "gender",
							"type": "bytes1"
						},
						{
							"internalType": "bytes32",
							"name": "reportipfshash",
							"type": "bytes32"
						}
					],
					"stateMutability": "nonpayable",
					"type": "function"
				},
				{
					"inputs": [
						{
							"internalType": "uint256",
							"name": "_violationReportId",
							"type": "uint256"
						},
						{
							"internalType": "uint256",
							"name": "_childId",
							"type": "uint256"
						}
					],
					"name": "getChildStatus",
					"outputs": [
						{
							"internalType": "enum ChildLabourDataManagement.ChildStatus",
							"name": "",
							"type": "uint8"
						},
						{
							"internalType": "uint256",
							"name": "",
							"type": "uint256"
						},
						{
							"internalType": "uint256",
							"name": "",
							"type": "uint256"
						},
						{
							"internalType": "uint256",
							"name": "",
							"type": "uint256"
						}
					],
					"stateMutability": "nonpayable",
					"type": "function"
				},
				{
					"inputs": [
						{
							"internalType": "uint256",
							"name": "_violationReportId",
							"type": "uint256"
						}
					],
					"name": "getViolationReport",
					"outputs": [
						{
							"internalType": "address",
							"name": "reporter",
							"type": "address"
						},
						{
							"internalType": "uint256",
							"name": "date",
							"type": "uint256"
						},
						{
							"internalType": "bytes32",
							"name": "reportDetails",
							"type": "bytes32"
						}
					],
					"stateMutability": "nonpayable",
					"type": "function"
				},
				{
					"inputs": [
						{
							"internalType": "address",
							"name": "_user",
							"type": "address"
						}
					],
					"name": "grantAccess",
					"outputs": [],
					"stateMutability": "nonpayable",
					"type": "function"
				},
				{
					"inputs": [
						{
							"internalType": "uint256",
							"name": "_violationReportId",
							"type": "uint256"
						},
						{
							"internalType": "uint256",
							"name": "_childId",
							"type": "uint256"
						},
						{
							"internalType": "string",
							"name": "_updateReport",
							"type": "string"
						}
					],
					"name": "remediationUpdate",
					"outputs": [],
					"stateMutability": "nonpayable",
					"type": "function"
				},
				{
					"inputs": [
						{
							"internalType": "uint256",
							"name": "",
							"type": "uint256"
						}
					],
					"name": "reportChildrenCount",
					"outputs": [
						{
							"internalType": "uint256",
							"name": "",
							"type": "uint256"
						}
					],
					"stateMutability": "view",
					"type": "function"
				},
				{
					"inputs": [],
					"name": "reportCount",
					"outputs": [
						{
							"internalType": "uint256",
							"name": "",
							"type": "uint256"
						}
					],
					"stateMutability": "view",
					"type": "function"
				},
				{
					"inputs": [
						{
							"internalType": "uint256",
							"name": "",
							"type": "uint256"
						}
					],
					"name": "reportProof",
					"outputs": [
						{
							"components": [
								{
									"internalType": "uint256",
									"name": "X",
									"type": "uint256"
								},
								{
									"internalType": "uint256",
									"name": "Y",
									"type": "uint256"
								}
							],
							"internalType": "struct Pairing.G1Point",
							"name": "a",
							"type": "tuple"
						},
						{
							"components": [
								{
									"internalType": "uint256[2]",
									"name": "X",
									"type": "uint256[2]"
								},
								{
									"internalType": "uint256[2]",
									"name": "Y",
									"type": "uint256[2]"
								}
							],
							"internalType": "struct Pairing.G2Point",
							"name": "b",
							"type": "tuple"
						},
						{
							"components": [
								{
									"internalType": "uint256",
									"name": "X",
									"type": "uint256"
								},
								{
									"internalType": "uint256",
									"name": "Y",
									"type": "uint256"
								}
							],
							"internalType": "struct Pairing.G1Point",
							"name": "c",
							"type": "tuple"
						}
					],
					"stateMutability": "view",
					"type": "function"
				},
				{
					"inputs": [
						{
							"internalType": "address",
							"name": "_user",
							"type": "address"
						}
					],
					"name": "revokeAccess",
					"outputs": [],
					"stateMutability": "nonpayable",
					"type": "function"
				},
				{
					"inputs": [
						{
							"internalType": "uint256",
							"name": "_violationReportId",
							"type": "uint256"
						},
						{
							"internalType": "uint256",
							"name": "_childId",
							"type": "uint256"
						},
						{
							"internalType": "uint256",
							"name": "_daysToRemediate",
							"type": "uint256"
						}
					],
					"name": "startRemediation",
					"outputs": [],
					"stateMutability": "nonpayable",
					"type": "function"
				},
				{
					"inputs": [
						{
							"internalType": "bytes32",
							"name": "_hashedName",
							"type": "bytes32"
						},
						{
							"internalType": "uint256",
							"name": "_age",
							"type": "uint256"
						},
						{
							"internalType": "bytes1",
							"name": "_gender",
							"type": "bytes1"
						},
						{
							"internalType": "uint256",
							"name": "_violationReportId",
							"type": "uint256"
						}
					],
					"name": "storeChildData",
					"outputs": [],
					"stateMutability": "nonpayable",
					"type": "function"
				},
				{
					"inputs": [
						{
							"internalType": "string",
							"name": "_reportIPFSHash",
							"type": "string"
						},
						{
							"internalType": "uint256",
							"name": "_spottedChildrenNumber",
							"type": "uint256"
						}
					],
					"name": "submitViolationReport",
					"outputs": [],
					"stateMutability": "nonpayable",
					"type": "function"
				},
				{
					"inputs": [
						{
							"internalType": "address",
							"name": "_verifier",
							"type": "address"
						}
					],
					"name": "updateVerifier",
					"outputs": [],
					"stateMutability": "nonpayable",
					"type": "function"
				},
				{
					"inputs": [
						{
							"internalType": "uint256",
							"name": "_violationReportId",
							"type": "uint256"
						},
						{
							"internalType": "bool",
							"name": "_decision",
							"type": "bool"
						}
					],
					"name": "verifyViolationReport",
					"outputs": [],
					"stateMutability": "nonpayable",
					"type": "function"
				},
				{
					"inputs": [
						{
							"internalType": "uint256",
							"name": "",
							"type": "uint256"
						}
					],
					"name": "violationReports",
					"outputs": [
						{
							"internalType": "address",
							"name": "reporter",
							"type": "address"
						},
						{
							"internalType": "uint256",
							"name": "timestamp",
							"type": "uint256"
						},
						{
							"internalType": "uint256",
							"name": "spottedChildrenNumber",
							"type": "uint256"
						},
						{
							"internalType": "bytes32",
							"name": "ipfsHash",
							"type": "bytes32"
						},
						{
							"internalType": "bool",
							"name": "isInspected",
							"type": "bool"
						},
						{
							"internalType": "bool",
							"name": "isVerified",
							"type": "bool"
						}
					],
					"stateMutability": "view",
					"type": "function"
				}
			],
			"devdoc": {
				"kind": "dev",
				"methods": {},
				"version": 1
			},
			"evm": {
				"assembly": "    /* \"ChildLabourDataManagement.sol\":5826:20401  contract ChildLabourDataManagement{... */\n  mstore(0x40, 0x80)\n    /* \"ChildLabourDataManagement.sol\":7732:7940  constructor(address _registration, address _verifier){... */\n  callvalue\n  dup1\n  iszero\n  tag_1\n  jumpi\n  0x00\n  dup1\n  revert\ntag_1:\n  pop\n  mload(0x40)\n  sub(codesize, bytecodeSize)\n  dup1\n  bytecodeSize\n  dup4\n  codecopy\n  dup2\n  add\n  0x40\n  dup2\n  swap1\n  mstore\n  tag_2\n  swap2\n  tag_3\n  jump\t// in\ntag_2:\n    /* \"ChildLabourDataManagement.sol\":7796:7808  Registration */\n  0x00\n    /* \"ChildLabourDataManagement.sol\":7796:7839  Registration = IRegistration(_registration) */\n  dup1\n  sload\n  sub(shl(0xa0, 0x01), 0x01)\n  swap4\n  dup5\n  and\n  not(sub(shl(0xa0, 0x01), 0x01))\n  swap2\n  dup3\n  and\n  or\n  dup3\n  sstore\n  0x01\n    /* \"ChildLabourDataManagement.sol\":7850:7881  Verifier = IVerifier(_verifier) */\n  dup1\n  sload\n  swap4\n  swap1\n  swap5\n  and\n  swap3\n  and\n  swap2\n  swap1\n  swap2\n  or\n  swap1\n  swap2\n  sstore\n    /* \"ChildLabourDataManagement.sol\":7892:7903  reportCount */\n  0x02\n    /* \"ChildLabourDataManagement.sol\":7892:7907  reportCount = 0 */\n  dup2\n  swap1\n  sstore\n    /* \"ChildLabourDataManagement.sol\":7918:7928  childCount */\n  0x03\n    /* \"ChildLabourDataManagement.sol\":7918:7932  childCount = 0 */\n  sstore\n    /* \"ChildLabourDataManagement.sol\":5826:20401  contract ChildLabourDataManagement{... */\n  jump(tag_8)\n    /* \"#utility.yul\":14:191   */\ntag_7:\n    /* \"#utility.yul\":93:106   */\n  dup1\n  mload\n  sub(shl(0xa0, 0x01), 0x01)\n    /* \"#utility.yul\":135:166   */\n  dup2\n  and\n    /* \"#utility.yul\":125:167   */\n  dup2\n  eq\n    /* \"#utility.yul\":115:185   */\n  tag_10\n  jumpi\n    /* \"#utility.yul\":181:182   */\n  0x00\n    /* \"#utility.yul\":178:179   */\n  dup1\n    /* \"#utility.yul\":171:183   */\n  revert\n    /* \"#utility.yul\":115:185   */\ntag_10:\n    /* \"#utility.yul\":14:191   */\n  swap2\n  swap1\n  pop\n  jump\t// out\n    /* \"#utility.yul\":196:489   */\ntag_3:\n    /* \"#utility.yul\":275:281   */\n  0x00\n    /* \"#utility.yul\":283:289   */\n  dup1\n    /* \"#utility.yul\":336:338   */\n  0x40\n    /* \"#utility.yul\":324:333   */\n  dup4\n    /* \"#utility.yul\":315:322   */\n  dup6\n    /* \"#utility.yul\":311:334   */\n  sub\n    /* \"#utility.yul\":307:339   */\n  slt\n    /* \"#utility.yul\":304:356   */\n  iszero\n  tag_12\n  jumpi\n    /* \"#utility.yul\":352:353   */\n  0x00\n    /* \"#utility.yul\":349:350   */\n  dup1\n    /* \"#utility.yul\":342:354   */\n  revert\n    /* \"#utility.yul\":304:356   */\ntag_12:\n    /* \"#utility.yul\":375:415   */\n  tag_13\n    /* \"#utility.yul\":405:414   */\n  dup4\n    /* \"#utility.yul\":375:415   */\n  tag_7\n  jump\t// in\ntag_13:\n    /* \"#utility.yul\":365:415   */\n  swap2\n  pop\n    /* \"#utility.yul\":434:483   */\n  tag_14\n    /* \"#utility.yul\":479:481   */\n  0x20\n    /* \"#utility.yul\":468:477   */\n  dup5\n    /* \"#utility.yul\":464:482   */\n  add\n    /* \"#utility.yul\":434:483   */\n  tag_7\n  jump\t// in\ntag_14:\n    /* \"#utility.yul\":424:483   */\n  swap1\n  pop\n    /* \"#utility.yul\":196:489   */\n  swap3\n  pop\n  swap3\n  swap1\n  pop\n  jump\t// out\ntag_8:\n    /* \"ChildLabourDataManagement.sol\":5826:20401  contract ChildLabourDataManagement{... */\n  dataSize(sub_0)\n  dup1\n  dataOffset(sub_0)\n  0x00\n  codecopy\n  0x00\n  return\nstop\n\nsub_0: assembly {\n        /* \"ChildLabourDataManagement.sol\":5826:20401  contract ChildLabourDataManagement{... */\n      mstore(0x40, 0x80)\n      callvalue\n      dup1\n      iszero\n      tag_1\n      jumpi\n      0x00\n      dup1\n      revert\n    tag_1:\n      pop\n      jumpi(tag_2, lt(calldatasize, 0x04))\n      shr(0xe0, calldataload(0x00))\n      dup1\n      0x85e68531\n      gt\n      tag_27\n      jumpi\n      dup1\n      0xa1dc99b4\n      gt\n      tag_28\n      jumpi\n      dup1\n      0xa1dc99b4\n      eq\n      tag_21\n      jumpi\n      dup1\n      0xb05efaab\n      eq\n      tag_22\n      jumpi\n      dup1\n      0xe60e5ee2\n      eq\n      tag_23\n      jumpi\n      dup1\n      0xe8a37919\n      eq\n      tag_24\n      jumpi\n      dup1\n      0xeff5cfae\n      eq\n      tag_25\n      jumpi\n      dup1\n      0xf8b4d690\n      eq\n      tag_26\n      jumpi\n      0x00\n      dup1\n      revert\n    tag_28:\n      dup1\n      0x85e68531\n      eq\n      tag_15\n      jumpi\n      dup1\n      0x8bc3bbc0\n      eq\n      tag_16\n      jumpi\n      dup1\n      0x8fe2d950\n      eq\n      tag_17\n      jumpi\n      dup1\n      0x97fc007c\n      eq\n      tag_18\n      jumpi\n      dup1\n      0x992cc022\n      eq\n      tag_19\n      jumpi\n      dup1\n      0xa0619d4a\n      eq\n      tag_20\n      jumpi\n      0x00\n      dup1\n      revert\n    tag_27:\n      dup1\n      0x53ca8115\n      gt\n      tag_29\n      jumpi\n      dup1\n      0x53ca8115\n      eq\n      tag_9\n      jumpi\n      dup1\n      0x636d0262\n      eq\n      tag_10\n      jumpi\n      dup1\n      0x6388bafc\n      eq\n      tag_11\n      jumpi\n      dup1\n      0x739f48a6\n      eq\n      tag_12\n      jumpi\n      dup1\n      0x832de71e\n      eq\n      tag_13\n      jumpi\n      dup1\n      0x84e2395d\n      eq\n      tag_14\n      jumpi\n      0x00\n      dup1\n      revert\n    tag_29:\n      dup1\n      0x0ae5e739\n      eq\n      tag_3\n      jumpi\n      dup1\n      0x12f1a83a\n      eq\n      tag_4\n      jumpi\n      dup1\n      0x185c6f84\n      eq\n      tag_5\n      jumpi\n      dup1\n      0x28c10330\n      eq\n      tag_6\n      jumpi\n      dup1\n      0x2b76ea9c\n      eq\n      tag_7\n      jumpi\n      dup1\n      0x3835a119\n      eq\n      tag_8\n      jumpi\n    tag_2:\n      0x00\n      dup1\n      revert\n        /* \"ChildLabourDataManagement.sol\":19684:19849  function grantAccess(address _user) public onlyOracle {... */\n    tag_3:\n      tag_30\n      tag_31\n      calldatasize\n      0x04\n      tag_32\n      jump\t// in\n    tag_31:\n      tag_33\n      jump\t// in\n    tag_30:\n      stop\n        /* \"ChildLabourDataManagement.sol\":7127:7193  mapping(uint256 => mapping(uint256 => ChildData)) public childData */\n    tag_4:\n      tag_34\n      tag_35\n      calldatasize\n      0x04\n      tag_36\n      jump\t// in\n    tag_35:\n      0x06\n      0x20\n      swap1\n      dup2\n      mstore\n      0x00\n      swap3\n      dup4\n      mstore\n      0x40\n      dup1\n      dup5\n      keccak256\n      swap1\n      swap2\n      mstore\n      swap1\n      dup3\n      mstore\n      swap1\n      keccak256\n      dup1\n      sload\n      0x01\n      dup3\n      add\n      sload\n      0x02\n      dup4\n      add\n      sload\n      0x03\n      dup5\n      add\n      sload\n      0x04\n      dup6\n      add\n      sload\n      0x05\n      swap1\n      swap6\n      add\n      sload\n      swap4\n      swap5\n      swap3\n      swap4\n      swap2\n      swap3\n      0xf8\n      swap2\n      swap1\n      swap2\n      shl\n      swap2\n      0xff\n      and\n      dup7\n      jump\n    tag_34:\n      mload(0x40)\n      tag_38\n      swap7\n      swap6\n      swap5\n      swap4\n      swap3\n      swap2\n      swap1\n      tag_39\n      jump\t// in\n    tag_38:\n      mload(0x40)\n      dup1\n      swap2\n      sub\n      swap1\n      return\n        /* \"ChildLabourDataManagement.sol\":5975:6001  uint256 public reportCount */\n    tag_5:\n      tag_40\n      sload(0x02)\n      dup2\n      jump\n    tag_40:\n      mload(0x40)\n        /* \"#utility.yul\":1750:1775   */\n      swap1\n      dup2\n      mstore\n        /* \"#utility.yul\":1738:1740   */\n      0x20\n        /* \"#utility.yul\":1723:1741   */\n      add\n        /* \"ChildLabourDataManagement.sol\":5975:6001  uint256 public reportCount */\n      tag_38\n        /* \"#utility.yul\":1604:1781   */\n      jump\n        /* \"ChildLabourDataManagement.sol\":12265:12827  function verifyViolationReport(uint256 _violationReportId, bool _decision) public onlyInspectionAgent{... */\n    tag_6:\n      tag_30\n      tag_45\n      calldatasize\n      0x04\n      tag_46\n      jump\t// in\n    tag_45:\n      tag_47\n      jump\t// in\n        /* \"ChildLabourDataManagement.sol\":7348:7412  mapping(uint256 => ChildRemediation) public childRemediationData */\n    tag_7:\n      tag_48\n      tag_49\n      calldatasize\n      0x04\n      tag_50\n      jump\t// in\n    tag_49:\n      mstore(0x20, 0x08)\n      0x00\n      swap1\n      dup2\n      mstore\n      0x40\n      swap1\n      keccak256\n      dup1\n      sload\n      0x01\n      dup3\n      add\n      sload\n      0x02\n      dup4\n      add\n      sload\n      0x03\n      dup5\n      add\n      sload\n      0x04\n      dup6\n      add\n      sload\n      0x05\n      dup7\n      add\n      sload\n      0x06\n      swap1\n      swap7\n      add\n      sload\n      sub(shl(0xa0, 0x01), 0x01)\n      swap1\n      swap6\n      and\n      swap6\n      swap4\n      swap5\n      swap3\n      swap4\n      swap2\n      swap3\n      swap1\n      swap2\n      swap1\n      0xff\n      and\n      dup8\n      jump\n    tag_48:\n      mload(0x40)\n      tag_38\n      swap8\n      swap7\n      swap6\n      swap5\n      swap4\n      swap3\n      swap2\n      swap1\n      tag_53\n      jump\t// in\n        /* \"ChildLabourDataManagement.sol\":6861:6920  mapping(uint256 => ViolationReport) public violationReports */\n    tag_8:\n      tag_54\n      tag_55\n      calldatasize\n      0x04\n      tag_50\n      jump\t// in\n    tag_55:\n      0x04\n      0x20\n      dup2\n      swap1\n      mstore\n      0x00\n      swap2\n      dup3\n      mstore\n      0x40\n      swap1\n      swap2\n      keccak256\n      dup1\n      sload\n      0x01\n      dup3\n      add\n      sload\n      0x02\n      dup4\n      add\n      sload\n      0x03\n      dup5\n      add\n      sload\n      swap4\n      swap1\n      swap5\n      add\n      sload\n      sub(shl(0xa0, 0x01), 0x01)\n      swap1\n      swap3\n      and\n      swap4\n      swap1\n      swap3\n      swap1\n      swap2\n      0xff\n      dup1\n      dup3\n      and\n      swap2\n      0x0100\n      swap1\n      div\n      and\n      dup7\n      jump\n    tag_54:\n      0x40\n      dup1\n      mload\n      sub(shl(0xa0, 0x01), 0x01)\n        /* \"#utility.yul\":3373:3405   */\n      swap1\n      swap8\n      and\n        /* \"#utility.yul\":3355:3406   */\n      dup8\n      mstore\n        /* \"#utility.yul\":3437:3439   */\n      0x20\n        /* \"#utility.yul\":3422:3440   */\n      dup8\n      add\n        /* \"#utility.yul\":3415:3449   */\n      swap6\n      swap1\n      swap6\n      mstore\n        /* \"#utility.yul\":3465:3483   */\n      swap4\n      dup6\n      add\n        /* \"#utility.yul\":3458:3492   */\n      swap3\n      swap1\n      swap3\n      mstore\n        /* \"#utility.yul\":3523:3525   */\n      0x60\n        /* \"#utility.yul\":3508:3526   */\n      dup5\n      add\n        /* \"#utility.yul\":3501:3535   */\n      mstore\n        /* \"#utility.yul\":3579:3593   */\n      iszero\n        /* \"#utility.yul\":3572:3594   */\n      iszero\n        /* \"#utility.yul\":3566:3569   */\n      0x80\n        /* \"#utility.yul\":3551:3570   */\n      dup4\n      add\n        /* \"#utility.yul\":3544:3595   */\n      mstore\n        /* \"#utility.yul\":3639:3653   */\n      iszero\n        /* \"#utility.yul\":3632:3654   */\n      iszero\n        /* \"#utility.yul\":3393:3396   */\n      0xa0\n        /* \"#utility.yul\":3611:3630   */\n      dup3\n      add\n        /* \"#utility.yul\":3604:3655   */\n      mstore\n        /* \"#utility.yul\":3342:3345   */\n      0xc0\n        /* \"#utility.yul\":3327:3346   */\n      add\n        /* \"ChildLabourDataManagement.sol\":6861:6920  mapping(uint256 => ViolationReport) public violationReports */\n      tag_38\n        /* \"#utility.yul\":3080:3661   */\n      jump\n        /* \"ChildLabourDataManagement.sol\":5943:5968  IVerifier public Verifier */\n    tag_9:\n      sload(0x01)\n      tag_59\n      swap1\n      sub(shl(0xa0, 0x01), 0x01)\n      and\n      dup2\n      jump\n    tag_59:\n      mload(0x40)\n      sub(shl(0xa0, 0x01), 0x01)\n        /* \"#utility.yul\":3847:3879   */\n      swap1\n      swap2\n      and\n        /* \"#utility.yul\":3829:3880   */\n      dup2\n      mstore\n        /* \"#utility.yul\":3817:3819   */\n      0x20\n        /* \"#utility.yul\":3802:3820   */\n      add\n        /* \"ChildLabourDataManagement.sol\":5943:5968  IVerifier public Verifier */\n      tag_38\n        /* \"#utility.yul\":3666:3886   */\n      jump\n        /* \"ChildLabourDataManagement.sol\":11855:12257  function getViolationReport(uint256 _violationReportId) public onlyInspectionAgent returns(address reporter, uint256 date, bytes32 reportDetails){... */\n    tag_10:\n      tag_63\n      tag_64\n      calldatasize\n      0x04\n      tag_50\n      jump\t// in\n    tag_64:\n      tag_65\n      jump\t// in\n    tag_63:\n      0x40\n      dup1\n      mload\n      sub(shl(0xa0, 0x01), 0x01)\n        /* \"#utility.yul\":4111:4143   */\n      swap1\n      swap5\n      and\n        /* \"#utility.yul\":4093:4144   */\n      dup5\n      mstore\n        /* \"#utility.yul\":4175:4177   */\n      0x20\n        /* \"#utility.yul\":4160:4178   */\n      dup5\n      add\n        /* \"#utility.yul\":4153:4187   */\n      swap3\n      swap1\n      swap3\n      mstore\n        /* \"#utility.yul\":4203:4221   */\n      swap1\n      dup3\n      add\n        /* \"#utility.yul\":4196:4230   */\n      mstore\n        /* \"#utility.yul\":4081:4083   */\n      0x60\n        /* \"#utility.yul\":4066:4084   */\n      add\n        /* \"ChildLabourDataManagement.sol\":11855:12257  function getViolationReport(uint256 _violationReportId) public onlyInspectionAgent returns(address reporter, uint256 date, bytes32 reportDetails){... */\n      tag_38\n        /* \"#utility.yul\":3891:4236   */\n      jump\n        /* \"ChildLabourDataManagement.sol\":7234:7288  mapping(uint256 => uint256) public reportChildrenCount */\n    tag_11:\n      tag_40\n      tag_69\n      calldatasize\n      0x04\n      tag_50\n      jump\t// in\n    tag_69:\n      mstore(0x20, 0x07)\n      0x00\n      swap1\n      dup2\n      mstore\n      0x40\n      swap1\n      keccak256\n      sload\n      dup2\n      jump\n        /* \"ChildLabourDataManagement.sol\":18073:18850  function completeRemediation(uint256 _violationReportId, uint256 _childId) public onlyGuardian(_childId){... */\n    tag_12:\n      tag_30\n      tag_73\n      calldatasize\n      0x04\n      tag_36\n      jump\t// in\n    tag_73:\n      tag_74\n      jump\t// in\n        /* \"ChildLabourDataManagement.sol\":12939:14056  function storeChildData(bytes32 _hashedName, uint256 _age, bytes1 _gender, uint256 _violationReportId) public onlyInspectionAgent{... */\n    tag_13:\n      tag_30\n      tag_76\n      calldatasize\n      0x04\n      tag_77\n      jump\t// in\n    tag_76:\n      tag_78\n      jump\t// in\n        /* \"ChildLabourDataManagement.sol\":14064:15128  function getChildData(uint256 _violationReportId, uint256 _childId) public returns(bytes32 hashedName, uint256 age, bytes1 gender, bytes32 reportipfshash){... */\n    tag_14:\n      tag_79\n      tag_80\n      calldatasize\n      0x04\n      tag_36\n      jump\t// in\n    tag_80:\n      tag_81\n      jump\t// in\n    tag_79:\n      mload(0x40)\n      tag_38\n      swap5\n      swap4\n      swap3\n      swap2\n      swap1\n        /* \"#utility.yul\":4959:4984   */\n      swap4\n      dup5\n      mstore\n        /* \"#utility.yul\":5015:5017   */\n      0x20\n        /* \"#utility.yul\":5000:5018   */\n      dup5\n      add\n        /* \"#utility.yul\":4993:5027   */\n      swap3\n      swap1\n      swap3\n      mstore\n      not(sub(shl(0xf8, 0x01), 0x01))\n        /* \"#utility.yul\":5063:5089   */\n      and\n        /* \"#utility.yul\":5058:5060   */\n      0x40\n        /* \"#utility.yul\":5043:5061   */\n      dup4\n      add\n        /* \"#utility.yul\":5036:5090   */\n      mstore\n        /* \"#utility.yul\":5121:5123   */\n      0x60\n        /* \"#utility.yul\":5106:5124   */\n      dup3\n      add\n        /* \"#utility.yul\":5099:5133   */\n      mstore\n        /* \"#utility.yul\":4946:4949   */\n      0x80\n        /* \"#utility.yul\":4931:4950   */\n      add\n      swap1\n        /* \"#utility.yul\":4730:5139   */\n      jump\n        /* \"ChildLabourDataManagement.sol\":19926:20109  function revokeAccess( address _user) public onlyRegulatoryAuthority {... */\n    tag_15:\n      tag_30\n      tag_85\n      calldatasize\n      0x04\n      tag_32\n      jump\t// in\n    tag_85:\n      tag_86\n      jump\t// in\n        /* \"ChildLabourDataManagement.sol\":6008:6033  uint256 public childCount */\n    tag_16:\n      tag_40\n      sload(0x03)\n      dup2\n      jump\n        /* \"ChildLabourDataManagement.sol\":11136:11613  function submitViolationReport(string memory _reportIPFSHash, uint256 _spottedChildrenNumber) public onlywhistleBlowers{... */\n    tag_17:\n      tag_30\n      tag_91\n      calldatasize\n      0x04\n      tag_92\n      jump\t// in\n    tag_91:\n      tag_93\n      jump\t// in\n        /* \"ChildLabourDataManagement.sol\":20202:20396  function updateVerifier(address _verifier) public onlyRegulatoryAuthority{... */\n    tag_18:\n      tag_30\n      tag_95\n      calldatasize\n      0x04\n      tag_32\n      jump\t// in\n    tag_95:\n      tag_96\n      jump\t// in\n        /* \"ChildLabourDataManagement.sol\":16222:17237  function startRemediation(uint256 _violationReportId, uint256 _childId, uint256 _daysToRemediate) public onlyGuardian(_childId) {... */\n    tag_19:\n      tag_30\n      tag_98\n      calldatasize\n      0x04\n      tag_99\n      jump\t// in\n    tag_98:\n      tag_100\n      jump\t// in\n        /* \"ChildLabourDataManagement.sol\":7546:7593  mapping(address => bool) public accessWhitelist */\n    tag_20:\n      tag_101\n      tag_102\n      calldatasize\n      0x04\n      tag_32\n      jump\t// in\n    tag_102:\n      mstore(0x20, 0x09)\n      0x00\n      swap1\n      dup2\n      mstore\n      0x40\n      swap1\n      keccak256\n      sload\n      0xff\n      and\n      dup2\n      jump\n    tag_101:\n      mload(0x40)\n        /* \"#utility.yul\":6881:6895   */\n      swap1\n      iszero\n        /* \"#utility.yul\":6874:6896   */\n      iszero\n        /* \"#utility.yul\":6856:6897   */\n      dup2\n      mstore\n        /* \"#utility.yul\":6844:6846   */\n      0x20\n        /* \"#utility.yul\":6829:6847   */\n      add\n        /* \"ChildLabourDataManagement.sol\":7546:7593  mapping(address => bool) public accessWhitelist */\n      tag_38\n        /* \"#utility.yul\":6716:6903   */\n      jump\n        /* \"ChildLabourDataManagement.sol\":18858:19449  function getChildStatus(uint256 _violationReportId, uint256 _childId) public onlyRegulatoryAuthority returns(ChildStatus, uint256, uint256, uint256){... */\n    tag_21:\n      tag_106\n      tag_107\n      calldatasize\n      0x04\n      tag_36\n      jump\t// in\n    tag_107:\n      tag_108\n      jump\t// in\n    tag_106:\n      mload(0x40)\n      tag_38\n      swap5\n      swap4\n      swap3\n      swap2\n      swap1\n      tag_110\n      jump\t// in\n        /* \"ChildLabourDataManagement.sol\":6958:7012  mapping(uint256 => uint256) public child2ReportMapping */\n    tag_22:\n      tag_40\n      tag_112\n      calldatasize\n      0x04\n      tag_50\n      jump\t// in\n    tag_112:\n      mstore(0x20, 0x05)\n      0x00\n      swap1\n      dup2\n      mstore\n      0x40\n      swap1\n      keccak256\n      sload\n      dup2\n      jump\n        /* \"ChildLabourDataManagement.sol\":17245:18065  function remediationUpdate(uint256 _violationReportId, uint256 _childId, string memory _updateReport) public onlyGuardian(_childId){... */\n    tag_23:\n      tag_30\n      tag_116\n      calldatasize\n      0x04\n      tag_117\n      jump\t// in\n    tag_116:\n      tag_118\n      jump\t// in\n        /* \"ChildLabourDataManagement.sol\":5903:5936  IRegistration public Registration */\n    tag_24:\n      sload(0x00)\n      tag_59\n      swap1\n      sub(shl(0xa0, 0x01), 0x01)\n      and\n      dup2\n      jump\n        /* \"ChildLabourDataManagement.sol\":15136:16152  function assignGuardian(uint256 _violationReportId, uint256 _childId, address _guardian) public onlyRegulatoryAuthority{... */\n    tag_25:\n      tag_30\n      tag_124\n      calldatasize\n      0x04\n      tag_125\n      jump\t// in\n    tag_124:\n      tag_126\n      jump\t// in\n        /* \"ChildLabourDataManagement.sol\":7638:7692  mapping(uint256 => IVerifier.Proof) public reportProof */\n    tag_26:\n      tag_127\n      tag_128\n      calldatasize\n      0x04\n      tag_50\n      jump\t// in\n    tag_128:\n      tag_129\n      jump\t// in\n    tag_127:\n      mload(0x40)\n      tag_38\n      swap4\n      swap3\n      swap2\n      swap1\n      tag_131\n      jump\t// in\n        /* \"ChildLabourDataManagement.sol\":19684:19849  function grantAccess(address _user) public onlyOracle {... */\n    tag_33:\n        /* \"ChildLabourDataManagement.sol\":9658:9693  IRegistration.EntityType entitytype */\n      0x00\n        /* \"ChildLabourDataManagement.sol\":9716:9728  Registration */\n      dup1\n      sload\n        /* \"ChildLabourDataManagement.sol\":9716:9750  Registration.getEntity(msg.sender) */\n      mload(0x40)\n      shl(0xe2, 0x1d6253a3)\n      dup2\n      mstore\n        /* \"ChildLabourDataManagement.sol\":9739:9749  msg.sender */\n      caller\n        /* \"ChildLabourDataManagement.sol\":9716:9750  Registration.getEntity(msg.sender) */\n      0x04\n      dup3\n      add\n        /* \"#utility.yul\":3829:3880   */\n      mstore\n        /* \"ChildLabourDataManagement.sol\":9658:9693  IRegistration.EntityType entitytype */\n      dup3\n      swap2\n      sub(shl(0xa0, 0x01), 0x01)\n        /* \"ChildLabourDataManagement.sol\":9716:9728  Registration */\n      and\n      swap1\n        /* \"ChildLabourDataManagement.sol\":9716:9738  Registration.getEntity */\n      0x75894e8c\n      swap1\n        /* \"#utility.yul\":3802:3820   */\n      0x24\n      add\n        /* \"ChildLabourDataManagement.sol\":9716:9750  Registration.getEntity(msg.sender) */\n      0x40\n      dup1\n      mload\n      dup1\n      dup4\n      sub\n      dup2\n      0x00\n      dup8\n      gas\n      call\n      iszero\n      dup1\n      iszero\n      tag_136\n      jumpi\n      returndatasize\n      0x00\n      dup1\n      returndatacopy\n      revert(0x00, returndatasize)\n    tag_136:\n      pop\n      pop\n      pop\n      pop\n      mload(0x40)\n      returndatasize\n      not(0x1f)\n      0x1f\n      dup3\n      add\n      and\n      dup3\n      add\n      dup1\n      0x40\n      mstore\n      pop\n      dup2\n      add\n      swap1\n      tag_137\n      swap2\n      swap1\n      tag_138\n      jump\t// in\n    tag_137:\n        /* \"ChildLabourDataManagement.sol\":9657:9750  (IRegistration.EntityType entitytype, bool isRegistered) = Registration.getEntity(msg.sender) */\n      swap1\n      swap3\n      pop\n      swap1\n      pop\n        /* \"ChildLabourDataManagement.sol\":9783:9814  IRegistration.EntityType.Oracle */\n      0x06\n        /* \"ChildLabourDataManagement.sol\":9769:9779  entitytype */\n      dup3\n        /* \"ChildLabourDataManagement.sol\":9769:9814  entitytype == IRegistration.EntityType.Oracle */\n      0x06\n      dup2\n      gt\n      iszero\n      tag_143\n      jumpi\n      tag_143\n      tag_141\n      jump\t// in\n    tag_143:\n      eq\n        /* \"ChildLabourDataManagement.sol\":9769:9830  entitytype == IRegistration.EntityType.Oracle && isRegistered */\n      dup1\n      iszero\n      tag_144\n      jumpi\n      pop\n        /* \"ChildLabourDataManagement.sol\":9818:9830  isRegistered */\n      dup1\n        /* \"ChildLabourDataManagement.sol\":9769:9830  entitytype == IRegistration.EntityType.Oracle && isRegistered */\n    tag_144:\n        /* \"ChildLabourDataManagement.sol\":9761:9883  require(entitytype == IRegistration.EntityType.Oracle && isRegistered, \"Only the Blockchain Oracle can run this function\") */\n      tag_145\n      jumpi\n      mload(0x40)\n      shl(0xe5, 0x461bcd)\n      dup2\n      mstore\n        /* \"#utility.yul\":10302:10304   */\n      0x20\n        /* \"ChildLabourDataManagement.sol\":9761:9883  require(entitytype == IRegistration.EntityType.Oracle && isRegistered, \"Only the Blockchain Oracle can run this function\") */\n      0x04\n      dup3\n      add\n        /* \"#utility.yul\":10284:10305   */\n      mstore\n        /* \"#utility.yul\":10341:10343   */\n      0x30\n        /* \"#utility.yul\":10321:10339   */\n      0x24\n      dup3\n      add\n        /* \"#utility.yul\":10314:10344   */\n      mstore\n        /* \"#utility.yul\":10380:10414   */\n      0x4f6e6c792074686520426c6f636b636861696e204f7261636c652063616e2072\n        /* \"#utility.yul\":10360:10378   */\n      0x44\n      dup3\n      add\n        /* \"#utility.yul\":10353:10415   */\n      mstore\n      shl(0x81, 0x3ab7103a3434b990333ab731ba34b7b7)\n        /* \"#utility.yul\":10431:10449   */\n      0x64\n      dup3\n      add\n        /* \"#utility.yul\":10424:10470   */\n      mstore\n        /* \"#utility.yul\":10487:10506   */\n      0x84\n      add\n        /* \"ChildLabourDataManagement.sol\":9761:9883  require(entitytype == IRegistration.EntityType.Oracle && isRegistered, \"Only the Blockchain Oracle can run this function\") */\n    tag_146:\n      mload(0x40)\n      dup1\n      swap2\n      sub\n      swap1\n      revert\n    tag_145:\n      sub(shl(0xa0, 0x01), 0x01)\n        /* \"ChildLabourDataManagement.sol\":19755:19777  accessWhitelist[_user] */\n      dup4\n      and\n      0x00\n      dup2\n      dup2\n      mstore\n        /* \"ChildLabourDataManagement.sol\":19755:19770  accessWhitelist */\n      0x09\n        /* \"ChildLabourDataManagement.sol\":19755:19777  accessWhitelist[_user] */\n      0x20\n      swap1\n      dup2\n      mstore\n      0x40\n      swap2\n      dup3\n      swap1\n      keccak256\n        /* \"ChildLabourDataManagement.sol\":19755:19784  accessWhitelist[_user] = true */\n      dup1\n      sload\n      not(0xff)\n      and\n        /* \"ChildLabourDataManagement.sol\":19780:19784  true */\n      0x01\n        /* \"ChildLabourDataManagement.sol\":19755:19784  accessWhitelist[_user] = true */\n      or\n      swap1\n      sstore\n        /* \"ChildLabourDataManagement.sol\":19804:19839  Whitelisted(_user, block.timestamp) */\n      dup2\n      mload\n        /* \"#utility.yul\":10691:10742   */\n      swap3\n      dup4\n      mstore\n        /* \"ChildLabourDataManagement.sol\":19823:19838  block.timestamp */\n      timestamp\n        /* \"#utility.yul\":10758:10776   */\n      swap1\n      dup4\n      add\n        /* \"#utility.yul\":10751:10785   */\n      mstore\n        /* \"ChildLabourDataManagement.sol\":19804:19839  Whitelisted(_user, block.timestamp) */\n      0x6ea640312e182de387819fbeb13be00db3171a445412852248559054871c4199\n      swap2\n        /* \"#utility.yul\":10664:10682   */\n      add\n        /* \"ChildLabourDataManagement.sol\":19804:19839  Whitelisted(_user, block.timestamp) */\n    tag_149:\n      mload(0x40)\n      dup1\n      swap2\n      sub\n      swap1\n      log1\n        /* \"ChildLabourDataManagement.sol\":9646:9903  {... */\n      pop\n      pop\n        /* \"ChildLabourDataManagement.sol\":19684:19849  function grantAccess(address _user) public onlyOracle {... */\n      pop\n      jump\t// out\n        /* \"ChildLabourDataManagement.sol\":12265:12827  function verifyViolationReport(uint256 _violationReportId, bool _decision) public onlyInspectionAgent{... */\n    tag_47:\n        /* \"ChildLabourDataManagement.sol\":8635:8670  IRegistration.EntityType entitytype */\n      0x00\n        /* \"ChildLabourDataManagement.sol\":8693:8705  Registration */\n      dup1\n      sload\n        /* \"ChildLabourDataManagement.sol\":8693:8727  Registration.getEntity(msg.sender) */\n      mload(0x40)\n      shl(0xe2, 0x1d6253a3)\n      dup2\n      mstore\n        /* \"ChildLabourDataManagement.sol\":8716:8726  msg.sender */\n      caller\n        /* \"ChildLabourDataManagement.sol\":8693:8727  Registration.getEntity(msg.sender) */\n      0x04\n      dup3\n      add\n        /* \"#utility.yul\":3829:3880   */\n      mstore\n        /* \"ChildLabourDataManagement.sol\":8635:8670  IRegistration.EntityType entitytype */\n      dup3\n      swap2\n      sub(shl(0xa0, 0x01), 0x01)\n        /* \"ChildLabourDataManagement.sol\":8693:8705  Registration */\n      and\n      swap1\n        /* \"ChildLabourDataManagement.sol\":8693:8715  Registration.getEntity */\n      0x75894e8c\n      swap1\n        /* \"#utility.yul\":3802:3820   */\n      0x24\n      add\n        /* \"ChildLabourDataManagement.sol\":8693:8727  Registration.getEntity(msg.sender) */\n      0x40\n      dup1\n      mload\n      dup1\n      dup4\n      sub\n      dup2\n      0x00\n      dup8\n      gas\n      call\n      iszero\n      dup1\n      iszero\n      tag_154\n      jumpi\n      returndatasize\n      0x00\n      dup1\n      returndatacopy\n      revert(0x00, returndatasize)\n    tag_154:\n      pop\n      pop\n      pop\n      pop\n      mload(0x40)\n      returndatasize\n      not(0x1f)\n      0x1f\n      dup3\n      add\n      and\n      dup3\n      add\n      dup1\n      0x40\n      mstore\n      pop\n      dup2\n      add\n      swap1\n      tag_155\n      swap2\n      swap1\n      tag_138\n      jump\t// in\n    tag_155:\n        /* \"ChildLabourDataManagement.sol\":8634:8727  (IRegistration.EntityType entitytype, bool isRegistered) = Registration.getEntity(msg.sender) */\n      swap1\n      swap3\n      pop\n      swap1\n      pop\n        /* \"ChildLabourDataManagement.sol\":8760:8800  IRegistration.EntityType.InspectionAgent */\n      0x03\n        /* \"ChildLabourDataManagement.sol\":8746:8756  entitytype */\n      dup3\n        /* \"ChildLabourDataManagement.sol\":8746:8800  entitytype == IRegistration.EntityType.InspectionAgent */\n      0x06\n      dup2\n      gt\n      iszero\n      tag_159\n      jumpi\n      tag_159\n      tag_141\n      jump\t// in\n    tag_159:\n      eq\n        /* \"ChildLabourDataManagement.sol\":8746:8816  entitytype == IRegistration.EntityType.InspectionAgent && isRegistered */\n      dup1\n      iszero\n      tag_160\n      jumpi\n      pop\n        /* \"ChildLabourDataManagement.sol\":8804:8816  isRegistered */\n      dup1\n        /* \"ChildLabourDataManagement.sol\":8746:8816  entitytype == IRegistration.EntityType.InspectionAgent && isRegistered */\n    tag_160:\n        /* \"ChildLabourDataManagement.sol\":8738:8868  require(entitytype == IRegistration.EntityType.InspectionAgent && isRegistered, \"Only the Inspection Agent can run this function\") */\n      tag_161\n      jumpi\n      mload(0x40)\n      shl(0xe5, 0x461bcd)\n      dup2\n      mstore\n      0x04\n      add\n      tag_146\n      swap1\n      tag_163\n      jump\t// in\n    tag_161:\n        /* \"ChildLabourDataManagement.sol\":12407:12408  1 */\n      0x01\n        /* \"ChildLabourDataManagement.sol\":12385:12403  _violationReportId */\n      dup5\n        /* \"ChildLabourDataManagement.sol\":12385:12408  _violationReportId >= 1 */\n      lt\n      iszero\n        /* \"ChildLabourDataManagement.sol\":12385:12445  _violationReportId >= 1 && _violationReportId <= reportCount */\n      dup1\n      iszero\n      tag_165\n      jumpi\n      pop\n        /* \"ChildLabourDataManagement.sol\":12434:12445  reportCount */\n      sload(0x02)\n        /* \"ChildLabourDataManagement.sol\":12412:12430  _violationReportId */\n      dup5\n        /* \"ChildLabourDataManagement.sol\":12412:12445  _violationReportId <= reportCount */\n      gt\n      iszero\n        /* \"ChildLabourDataManagement.sol\":12385:12445  _violationReportId >= 1 && _violationReportId <= reportCount */\n    tag_165:\n        /* \"ChildLabourDataManagement.sol\":12377:12467  require(_violationReportId >= 1 && _violationReportId <= reportCount, \"Invalid Report ID\") */\n      tag_166\n      jumpi\n      mload(0x40)\n      shl(0xe5, 0x461bcd)\n      dup2\n      mstore\n      0x04\n      add\n      tag_146\n      swap1\n      tag_168\n      jump\t// in\n    tag_166:\n        /* \"ChildLabourDataManagement.sol\":12487:12523  violationReports[_violationReportId] */\n      0x00\n      dup5\n      dup2\n      mstore\n        /* \"ChildLabourDataManagement.sol\":12487:12503  violationReports */\n      0x04\n        /* \"ChildLabourDataManagement.sol\":12487:12523  violationReports[_violationReportId] */\n      0x20\n      dup2\n      swap1\n      mstore\n      0x40\n      swap1\n      swap2\n      keccak256\n        /* \"ChildLabourDataManagement.sol\":12487:12535  violationReports[_violationReportId].isInspected */\n      add\n      sload\n      0xff\n      and\n        /* \"ChildLabourDataManagement.sol\":12486:12535  !violationReports[_violationReportId].isInspected */\n      iszero\n        /* \"ChildLabourDataManagement.sol\":12478:12578  require(!violationReports[_violationReportId].isInspected, \"This report has already been inspected\") */\n      tag_169\n      jumpi\n      mload(0x40)\n      shl(0xe5, 0x461bcd)\n      dup2\n      mstore\n        /* \"#utility.yul\":11760:11762   */\n      0x20\n        /* \"ChildLabourDataManagement.sol\":12478:12578  require(!violationReports[_violationReportId].isInspected, \"This report has already been inspected\") */\n      0x04\n      dup3\n      add\n        /* \"#utility.yul\":11742:11763   */\n      mstore\n        /* \"#utility.yul\":11799:11801   */\n      0x26\n        /* \"#utility.yul\":11779:11797   */\n      0x24\n      dup3\n      add\n        /* \"#utility.yul\":11772:11802   */\n      mstore\n        /* \"#utility.yul\":11838:11872   */\n      0x54686973207265706f72742068617320616c7265616479206265656e20696e73\n        /* \"#utility.yul\":11818:11836   */\n      0x44\n      dup3\n      add\n        /* \"#utility.yul\":11811:11873   */\n      mstore\n      shl(0xd2, 0x1c1958dd1959)\n        /* \"#utility.yul\":11889:11907   */\n      0x64\n      dup3\n      add\n        /* \"#utility.yul\":11882:11918   */\n      mstore\n        /* \"#utility.yul\":11935:11954   */\n      0x84\n      add\n        /* \"ChildLabourDataManagement.sol\":12478:12578  require(!violationReports[_violationReportId].isInspected, \"This report has already been inspected\") */\n      tag_146\n        /* \"#utility.yul\":11558:11960   */\n      jump\n        /* \"ChildLabourDataManagement.sol\":12478:12578  require(!violationReports[_violationReportId].isInspected, \"This report has already been inspected\") */\n    tag_169:\n        /* \"ChildLabourDataManagement.sol\":12589:12625  violationReports[_violationReportId] */\n      0x00\n      dup5\n      dup2\n      mstore\n        /* \"ChildLabourDataManagement.sol\":12589:12605  violationReports */\n      0x04\n        /* \"ChildLabourDataManagement.sol\":12589:12625  violationReports[_violationReportId] */\n      0x20\n      dup2\n      swap1\n      mstore\n      0x40\n      swap2\n      dup3\n      swap1\n      keccak256\n        /* \"ChildLabourDataManagement.sol\":12589:12637  violationReports[_violationReportId].isInspected */\n      add\n        /* \"ChildLabourDataManagement.sol\":12589:12644  violationReports[_violationReportId].isInspected = true */\n      dup1\n      sload\n        /* \"ChildLabourDataManagement.sol\":12655:12714  violationReports[_violationReportId].isVerified = _decision */\n      dup6\n      iszero\n      iszero\n        /* \"ChildLabourDataManagement.sol\":12589:12644  violationReports[_violationReportId].isInspected = true */\n      0x0100\n        /* \"ChildLabourDataManagement.sol\":12655:12714  violationReports[_violationReportId].isVerified = _decision */\n      mul\n      not(0xffff)\n      swap1\n      swap2\n      and\n      or\n        /* \"ChildLabourDataManagement.sol\":12640:12644  true */\n      0x01\n        /* \"ChildLabourDataManagement.sol\":12655:12714  violationReports[_violationReportId].isVerified = _decision */\n      or\n      swap1\n      sstore\n        /* \"ChildLabourDataManagement.sol\":12732:12819  ViolationReportVerification(_violationReportId, msg.sender, _decision, block.timestamp) */\n      mload\n        /* \"ChildLabourDataManagement.sol\":12606:12624  _violationReportId */\n      dup5\n      swap1\n        /* \"ChildLabourDataManagement.sol\":12732:12819  ViolationReportVerification(_violationReportId, msg.sender, _decision, block.timestamp) */\n      0x5e672278b5a4ce7f1deaeb816f60398e65c2401c6f90928e8344510d7fa92755\n      swap1\n      tag_172\n      swap1\n        /* \"ChildLabourDataManagement.sol\":12780:12790  msg.sender */\n      caller\n      swap1\n        /* \"ChildLabourDataManagement.sol\":12705:12714  _decision */\n      dup8\n      swap1\n        /* \"ChildLabourDataManagement.sol\":12803:12818  block.timestamp */\n      timestamp\n      swap1\n      sub(shl(0xa0, 0x01), 0x01)\n        /* \"#utility.yul\":12179:12211   */\n      swap4\n      swap1\n      swap4\n      and\n        /* \"#utility.yul\":12161:12212   */\n      dup4\n      mstore\n        /* \"#utility.yul\":12255:12269   */\n      swap1\n      iszero\n        /* \"#utility.yul\":12248:12270   */\n      iszero\n        /* \"#utility.yul\":12243:12245   */\n      0x20\n        /* \"#utility.yul\":12228:12246   */\n      dup4\n      add\n        /* \"#utility.yul\":12221:12271   */\n      mstore\n        /* \"#utility.yul\":12302:12304   */\n      0x40\n        /* \"#utility.yul\":12287:12305   */\n      dup3\n      add\n        /* \"#utility.yul\":12280:12314   */\n      mstore\n        /* \"#utility.yul\":12149:12151   */\n      0x60\n        /* \"#utility.yul\":12134:12152   */\n      add\n      swap1\n        /* \"#utility.yul\":11965:12320   */\n      jump\n        /* \"ChildLabourDataManagement.sol\":12732:12819  ViolationReportVerification(_violationReportId, msg.sender, _decision, block.timestamp) */\n    tag_172:\n      mload(0x40)\n      dup1\n      swap2\n      sub\n      swap1\n      log2\n        /* \"ChildLabourDataManagement.sol\":8623:8888  {... */\n      pop\n      pop\n        /* \"ChildLabourDataManagement.sol\":12265:12827  function verifyViolationReport(uint256 _violationReportId, bool _decision) public onlyInspectionAgent{... */\n      pop\n      pop\n      jump\t// out\n        /* \"ChildLabourDataManagement.sol\":11855:12257  function getViolationReport(uint256 _violationReportId) public onlyInspectionAgent returns(address reporter, uint256 date, bytes32 reportDetails){... */\n    tag_65:\n        /* \"ChildLabourDataManagement.sol\":11946:11962  address reporter */\n      0x00\n        /* \"ChildLabourDataManagement.sol\":8693:8705  Registration */\n      dup1\n      sload\n        /* \"ChildLabourDataManagement.sol\":8693:8727  Registration.getEntity(msg.sender) */\n      mload(0x40)\n      shl(0xe2, 0x1d6253a3)\n      dup2\n      mstore\n        /* \"ChildLabourDataManagement.sol\":8716:8726  msg.sender */\n      caller\n        /* \"ChildLabourDataManagement.sol\":8693:8727  Registration.getEntity(msg.sender) */\n      0x04\n      dup3\n      add\n        /* \"#utility.yul\":3829:3880   */\n      mstore\n        /* \"ChildLabourDataManagement.sol\":11946:11962  address reporter */\n      dup3\n      swap2\n      dup3\n      swap2\n      dup3\n      swap2\n      dup3\n      swap2\n      sub(shl(0xa0, 0x01), 0x01)\n        /* \"ChildLabourDataManagement.sol\":8693:8705  Registration */\n      swap1\n      swap2\n      and\n      swap1\n        /* \"ChildLabourDataManagement.sol\":8693:8715  Registration.getEntity */\n      0x75894e8c\n      swap1\n        /* \"#utility.yul\":3802:3820   */\n      0x24\n      add\n        /* \"ChildLabourDataManagement.sol\":8693:8727  Registration.getEntity(msg.sender) */\n      0x40\n      dup1\n      mload\n      dup1\n      dup4\n      sub\n      dup2\n      0x00\n      dup8\n      gas\n      call\n      iszero\n      dup1\n      iszero\n      tag_177\n      jumpi\n      returndatasize\n      0x00\n      dup1\n      returndatacopy\n      revert(0x00, returndatasize)\n    tag_177:\n      pop\n      pop\n      pop\n      pop\n      mload(0x40)\n      returndatasize\n      not(0x1f)\n      0x1f\n      dup3\n      add\n      and\n      dup3\n      add\n      dup1\n      0x40\n      mstore\n      pop\n      dup2\n      add\n      swap1\n      tag_178\n      swap2\n      swap1\n      tag_138\n      jump\t// in\n    tag_178:\n        /* \"ChildLabourDataManagement.sol\":8634:8727  (IRegistration.EntityType entitytype, bool isRegistered) = Registration.getEntity(msg.sender) */\n      swap1\n      swap3\n      pop\n      swap1\n      pop\n        /* \"ChildLabourDataManagement.sol\":8760:8800  IRegistration.EntityType.InspectionAgent */\n      0x03\n        /* \"ChildLabourDataManagement.sol\":8746:8756  entitytype */\n      dup3\n        /* \"ChildLabourDataManagement.sol\":8746:8800  entitytype == IRegistration.EntityType.InspectionAgent */\n      0x06\n      dup2\n      gt\n      iszero\n      tag_182\n      jumpi\n      tag_182\n      tag_141\n      jump\t// in\n    tag_182:\n      eq\n        /* \"ChildLabourDataManagement.sol\":8746:8816  entitytype == IRegistration.EntityType.InspectionAgent && isRegistered */\n      dup1\n      iszero\n      tag_183\n      jumpi\n      pop\n        /* \"ChildLabourDataManagement.sol\":8804:8816  isRegistered */\n      dup1\n        /* \"ChildLabourDataManagement.sol\":8746:8816  entitytype == IRegistration.EntityType.InspectionAgent && isRegistered */\n    tag_183:\n        /* \"ChildLabourDataManagement.sol\":8738:8868  require(entitytype == IRegistration.EntityType.InspectionAgent && isRegistered, \"Only the Inspection Agent can run this function\") */\n      tag_184\n      jumpi\n      mload(0x40)\n      shl(0xe5, 0x461bcd)\n      dup2\n      mstore\n      0x04\n      add\n      tag_146\n      swap1\n      tag_163\n      jump\t// in\n    tag_184:\n        /* \"ChildLabourDataManagement.sol\":12041:12042  1 */\n      0x01\n        /* \"ChildLabourDataManagement.sol\":12019:12037  _violationReportId */\n      dup7\n        /* \"ChildLabourDataManagement.sol\":12019:12042  _violationReportId >= 1 */\n      lt\n      iszero\n        /* \"ChildLabourDataManagement.sol\":12019:12079  _violationReportId >= 1 && _violationReportId <= reportCount */\n      dup1\n      iszero\n      tag_187\n      jumpi\n      pop\n        /* \"ChildLabourDataManagement.sol\":12068:12079  reportCount */\n      sload(0x02)\n        /* \"ChildLabourDataManagement.sol\":12046:12064  _violationReportId */\n      dup7\n        /* \"ChildLabourDataManagement.sol\":12046:12079  _violationReportId <= reportCount */\n      gt\n      iszero\n        /* \"ChildLabourDataManagement.sol\":12019:12079  _violationReportId >= 1 && _violationReportId <= reportCount */\n    tag_187:\n        /* \"ChildLabourDataManagement.sol\":12011:12101  require(_violationReportId >= 1 && _violationReportId <= reportCount, \"Invalid Report ID\") */\n      tag_188\n      jumpi\n      mload(0x40)\n      shl(0xe5, 0x461bcd)\n      dup2\n      mstore\n      0x04\n      add\n      tag_146\n      swap1\n      tag_168\n      jump\t// in\n    tag_188:\n      pop\n      pop\n      pop\n        /* \"ChildLabourDataManagement.sol\":12112:12141  ViolationReport memory report */\n      0x00\n        /* \"ChildLabourDataManagement.sol\":12144:12180  violationReports[_violationReportId] */\n      swap3\n      dup4\n      mstore\n      pop\n      pop\n        /* \"ChildLabourDataManagement.sol\":12144:12160  violationReports */\n      0x04\n        /* \"ChildLabourDataManagement.sol\":12144:12180  violationReports[_violationReportId] */\n      0x20\n      dup2\n      dup2\n      mstore\n      0x40\n      swap3\n      dup4\n      swap1\n      keccak256\n        /* \"ChildLabourDataManagement.sol\":12112:12180  ViolationReport memory report = violationReports[_violationReportId] */\n      dup4\n      mload\n      0xc0\n      dup2\n      add\n      dup6\n      mstore\n      dup2\n      sload\n      sub(shl(0xa0, 0x01), 0x01)\n      and\n      dup1\n      dup3\n      mstore\n      0x01\n      dup4\n      add\n      sload\n      swap4\n      dup3\n      add\n      dup5\n      swap1\n      mstore\n      0x02\n      dup4\n      add\n      sload\n      swap6\n      dup3\n      add\n      swap6\n      swap1\n      swap6\n      mstore\n      0x03\n      dup3\n      add\n      sload\n      0x60\n      dup3\n      add\n      dup2\n      swap1\n      mstore\n      swap2\n      swap1\n      swap4\n      add\n      sload\n      0xff\n      dup1\n      dup3\n      and\n      iszero\n      iszero\n      0x80\n      dup7\n      add\n      mstore\n      0x0100\n      swap1\n      swap2\n      div\n      and\n      iszero\n      iszero\n      0xa0\n      swap1\n      swap4\n      add\n      swap3\n      swap1\n      swap3\n      mstore\n      swap2\n      swap3\n        /* \"ChildLabourDataManagement.sol\":11855:12257  function getViolationReport(uint256 _violationReportId) public onlyInspectionAgent returns(address reporter, uint256 date, bytes32 reportDetails){... */\n      jump\t// out\n        /* \"ChildLabourDataManagement.sol\":18073:18850  function completeRemediation(uint256 _violationReportId, uint256 _childId) public onlyGuardian(_childId){... */\n    tag_74:\n        /* \"ChildLabourDataManagement.sol\":9236:9271  IRegistration.EntityType entitytype */\n      0x00\n        /* \"ChildLabourDataManagement.sol\":9294:9306  Registration */\n      dup1\n      sload\n        /* \"ChildLabourDataManagement.sol\":9294:9328  Registration.getEntity(msg.sender) */\n      mload(0x40)\n      shl(0xe2, 0x1d6253a3)\n      dup2\n      mstore\n        /* \"ChildLabourDataManagement.sol\":9317:9327  msg.sender */\n      caller\n        /* \"ChildLabourDataManagement.sol\":9294:9328  Registration.getEntity(msg.sender) */\n      0x04\n      dup3\n      add\n        /* \"#utility.yul\":3829:3880   */\n      mstore\n        /* \"ChildLabourDataManagement.sol\":18168:18176  _childId */\n      dup4\n      swap3\n        /* \"ChildLabourDataManagement.sol\":9236:9271  IRegistration.EntityType entitytype */\n      swap2\n      dup3\n      swap2\n      sub(shl(0xa0, 0x01), 0x01)\n        /* \"ChildLabourDataManagement.sol\":9294:9306  Registration */\n      swap1\n      swap2\n      and\n      swap1\n        /* \"ChildLabourDataManagement.sol\":9294:9316  Registration.getEntity */\n      0x75894e8c\n      swap1\n        /* \"#utility.yul\":3802:3820   */\n      0x24\n      add\n        /* \"ChildLabourDataManagement.sol\":9294:9328  Registration.getEntity(msg.sender) */\n      0x40\n      dup1\n      mload\n      dup1\n      dup4\n      sub\n      dup2\n      0x00\n      dup8\n      gas\n      call\n      iszero\n      dup1\n      iszero\n      tag_193\n      jumpi\n      returndatasize\n      0x00\n      dup1\n      returndatacopy\n      revert(0x00, returndatasize)\n    tag_193:\n      pop\n      pop\n      pop\n      pop\n      mload(0x40)\n      returndatasize\n      not(0x1f)\n      0x1f\n      dup3\n      add\n      and\n      dup3\n      add\n      dup1\n      0x40\n      mstore\n      pop\n      dup2\n      add\n      swap1\n      tag_194\n      swap2\n      swap1\n      tag_138\n      jump\t// in\n    tag_194:\n        /* \"ChildLabourDataManagement.sol\":9235:9328  (IRegistration.EntityType entitytype, bool isRegistered) = Registration.getEntity(msg.sender) */\n      swap1\n      swap3\n      pop\n      swap1\n      pop\n        /* \"ChildLabourDataManagement.sol\":9361:9394  IRegistration.EntityType.Guardian */\n      0x05\n        /* \"ChildLabourDataManagement.sol\":9347:9357  entitytype */\n      dup3\n        /* \"ChildLabourDataManagement.sol\":9347:9394  entitytype == IRegistration.EntityType.Guardian */\n      0x06\n      dup2\n      gt\n      iszero\n      tag_198\n      jumpi\n      tag_198\n      tag_141\n      jump\t// in\n    tag_198:\n      eq\n        /* \"ChildLabourDataManagement.sol\":9347:9410  entitytype == IRegistration.EntityType.Guardian && isRegistered */\n      dup1\n      iszero\n      tag_199\n      jumpi\n      pop\n        /* \"ChildLabourDataManagement.sol\":9398:9410  isRegistered */\n      dup1\n        /* \"ChildLabourDataManagement.sol\":9347:9410  entitytype == IRegistration.EntityType.Guardian && isRegistered */\n    tag_199:\n        /* \"ChildLabourDataManagement.sol\":9339:9460  require(entitytype == IRegistration.EntityType.Guardian && isRegistered, \"Only the Child Guardian can run this function\") */\n      tag_200\n      jumpi\n      mload(0x40)\n      shl(0xe5, 0x461bcd)\n      dup2\n      mstore\n      0x04\n      add\n      tag_146\n      swap1\n      tag_202\n      jump\t// in\n    tag_200:\n        /* \"ChildLabourDataManagement.sol\":9479:9509  childRemediationData[_childId] */\n      0x00\n      dup4\n      dup2\n      mstore\n        /* \"ChildLabourDataManagement.sol\":9479:9499  childRemediationData */\n      0x08\n        /* \"ChildLabourDataManagement.sol\":9479:9509  childRemediationData[_childId] */\n      0x20\n      mstore\n      0x40\n      swap1\n      keccak256\n        /* \"ChildLabourDataManagement.sol\":9479:9518  childRemediationData[_childId].guardian */\n      sload\n      sub(shl(0xa0, 0x01), 0x01)\n      and\n        /* \"ChildLabourDataManagement.sol\":9522:9532  msg.sender */\n      caller\n        /* \"ChildLabourDataManagement.sol\":9479:9532  childRemediationData[_childId].guardian == msg.sender */\n      eq\n        /* \"ChildLabourDataManagement.sol\":9471:9599  require(childRemediationData[_childId].guardian == msg.sender, \"Only the assigned Guardian to this child can run this function\") */\n      tag_203\n      jumpi\n      mload(0x40)\n      shl(0xe5, 0x461bcd)\n      dup2\n      mstore\n      0x04\n      add\n      tag_146\n      swap1\n      tag_205\n      jump\t// in\n    tag_203:\n        /* \"ChildLabourDataManagement.sol\":18188:18227  ChildRemediation memory remediationdata */\n      0x00\n        /* \"ChildLabourDataManagement.sol\":18230:18260  childRemediationData[_childId] */\n      dup5\n      dup2\n      mstore\n        /* \"ChildLabourDataManagement.sol\":18230:18250  childRemediationData */\n      0x08\n        /* \"ChildLabourDataManagement.sol\":18230:18260  childRemediationData[_childId] */\n      0x20\n      swap1\n      dup2\n      mstore\n      0x40\n      dup1\n      dup4\n      keccak256\n        /* \"ChildLabourDataManagement.sol\":18188:18260  ChildRemediation memory remediationdata = childRemediationData[_childId] */\n      dup2\n      mload\n      0xe0\n      dup2\n      add\n      dup4\n      mstore\n      dup2\n      sload\n      sub(shl(0xa0, 0x01), 0x01)\n      and\n      dup2\n      mstore\n      0x01\n      dup3\n      add\n      sload\n      swap4\n      dup2\n      add\n      swap4\n      swap1\n      swap4\n      mstore\n      0x02\n      dup2\n      add\n      sload\n      swap2\n      dup4\n      add\n      swap2\n      swap1\n      swap2\n      mstore\n      0x03\n      dup1\n      dup3\n      add\n      sload\n      0x60\n      dup5\n      add\n      mstore\n      0x04\n      dup3\n      add\n      sload\n      0x80\n      dup5\n      add\n      mstore\n      0x05\n      dup3\n      add\n      sload\n      0xa0\n      dup5\n      add\n      mstore\n      0x06\n      dup3\n      add\n      sload\n      0xc0\n      dup5\n      add\n      swap2\n      0xff\n      swap1\n      swap2\n      and\n      swap1\n      dup2\n      gt\n      iszero\n      tag_208\n      jumpi\n      tag_208\n      tag_141\n      jump\t// in\n    tag_208:\n      0x03\n      dup2\n      gt\n      iszero\n      tag_210\n      jumpi\n      tag_210\n      tag_141\n      jump\t// in\n    tag_210:\n      swap1\n      mstore\n      pop\n      swap1\n      pop\n        /* \"ChildLabourDataManagement.sol\":18291:18292  1 */\n      0x01\n        /* \"ChildLabourDataManagement.sol\":18279:18292  _childId >= 1 */\n      dup6\n      lt\n      dup1\n      iszero\n      swap1\n        /* \"ChildLabourDataManagement.sol\":18279:18347  _childId >= 1 && _childId <= reportChildrenCount[_violationReportId] */\n      tag_211\n      jumpi\n      pop\n        /* \"ChildLabourDataManagement.sol\":18308:18347  reportChildrenCount[_violationReportId] */\n      0x00\n      dup7\n      dup2\n      mstore\n        /* \"ChildLabourDataManagement.sol\":18308:18327  reportChildrenCount */\n      0x07\n        /* \"ChildLabourDataManagement.sol\":18308:18347  reportChildrenCount[_violationReportId] */\n      0x20\n      mstore\n      0x40\n      swap1\n      keccak256\n      sload\n        /* \"ChildLabourDataManagement.sol\":18296:18347  _childId <= reportChildrenCount[_violationReportId] */\n      dup6\n      gt\n      iszero\n        /* \"ChildLabourDataManagement.sol\":18279:18347  _childId >= 1 && _childId <= reportChildrenCount[_violationReportId] */\n    tag_211:\n        /* \"ChildLabourDataManagement.sol\":18271:18368  require(_childId >= 1 && _childId <= reportChildrenCount[_violationReportId], \"Invalid Child ID\") */\n      tag_212\n      jumpi\n      mload(0x40)\n      shl(0xe5, 0x461bcd)\n      dup2\n      mstore\n      0x04\n      add\n      tag_146\n      swap1\n      tag_214\n      jump\t// in\n    tag_212:\n        /* \"ChildLabourDataManagement.sol\":18413:18438  ChildStatus.InRemediation */\n      0x02\n        /* \"ChildLabourDataManagement.sol\":18387:18402  remediationdata */\n      dup2\n        /* \"ChildLabourDataManagement.sol\":18387:18409  remediationdata.status */\n      0xc0\n      add\n      mload\n        /* \"ChildLabourDataManagement.sol\":18387:18438  remediationdata.status == ChildStatus.InRemediation */\n      0x03\n      dup2\n      gt\n      iszero\n      tag_218\n      jumpi\n      tag_218\n      tag_141\n      jump\t// in\n    tag_218:\n      eq\n        /* \"ChildLabourDataManagement.sol\":18379:18485  require(remediationdata.status == ChildStatus.InRemediation, \"This child is not currently in remediation\") */\n      tag_219\n      jumpi\n      mload(0x40)\n      shl(0xe5, 0x461bcd)\n      dup2\n      mstore\n      0x04\n      add\n      tag_146\n      swap1\n      tag_221\n      jump\t// in\n    tag_219:\n        /* \"ChildLabourDataManagement.sol\":18523:18538  remediationdata */\n      dup1\n        /* \"ChildLabourDataManagement.sol\":18523:18560  remediationdata.remediationCompletion */\n      0x60\n      add\n      mload\n        /* \"ChildLabourDataManagement.sol\":18504:18519  block.timestamp */\n      timestamp\n        /* \"ChildLabourDataManagement.sol\":18504:18560  block.timestamp >= remediationdata.remediationCompletion */\n      lt\n      iszero\n        /* \"ChildLabourDataManagement.sol\":18496:18610  require(block.timestamp >= remediationdata.remediationCompletion, \"The time window for remediation is still open\") */\n      tag_222\n      jumpi\n      mload(0x40)\n      shl(0xe5, 0x461bcd)\n      dup2\n      mstore\n        /* \"#utility.yul\":14128:14130   */\n      0x20\n        /* \"ChildLabourDataManagement.sol\":18496:18610  require(block.timestamp >= remediationdata.remediationCompletion, \"The time window for remediation is still open\") */\n      0x04\n      dup3\n      add\n        /* \"#utility.yul\":14110:14131   */\n      mstore\n        /* \"#utility.yul\":14167:14169   */\n      0x2d\n        /* \"#utility.yul\":14147:14165   */\n      0x24\n      dup3\n      add\n        /* \"#utility.yul\":14140:14170   */\n      mstore\n        /* \"#utility.yul\":14206:14240   */\n      0x5468652074696d652077696e646f7720666f722072656d6564696174696f6e20\n        /* \"#utility.yul\":14186:14204   */\n      0x44\n      dup3\n      add\n        /* \"#utility.yul\":14179:14241   */\n      mstore\n      shl(0x99, 0x34b99039ba34b6361037b832b7)\n        /* \"#utility.yul\":14257:14275   */\n      0x64\n      dup3\n      add\n        /* \"#utility.yul\":14250:14293   */\n      mstore\n        /* \"#utility.yul\":14310:14329   */\n      0x84\n      add\n        /* \"ChildLabourDataManagement.sol\":18496:18610  require(block.timestamp >= remediationdata.remediationCompletion, \"The time window for remediation is still open\") */\n      tag_146\n        /* \"#utility.yul\":13926:14335   */\n      jump\n        /* \"ChildLabourDataManagement.sol\":18496:18610  require(block.timestamp >= remediationdata.remediationCompletion, \"The time window for remediation is still open\") */\n    tag_222:\n        /* \"ChildLabourDataManagement.sol\":18623:18653  childRemediationData[_childId] */\n      0x00\n      dup6\n      dup2\n      mstore\n        /* \"ChildLabourDataManagement.sol\":18623:18643  childRemediationData */\n      0x08\n        /* \"ChildLabourDataManagement.sol\":18623:18653  childRemediationData[_childId] */\n      0x20\n      swap1\n      dup2\n      mstore\n      0x40\n      swap2\n      dup3\n      swap1\n      keccak256\n        /* \"ChildLabourDataManagement.sol\":18623:18660  childRemediationData[_childId].status */\n      0x06\n      dup2\n      add\n        /* \"ChildLabourDataManagement.sol\":18623:18686  childRemediationData[_childId].status = ChildStatus.TakenCareOf */\n      dup1\n      sload\n      not(0xff)\n      and\n        /* \"ChildLabourDataManagement.sol\":18663:18686  ChildStatus.TakenCareOf */\n      0x03\n        /* \"ChildLabourDataManagement.sol\":18623:18686  childRemediationData[_childId].status = ChildStatus.TakenCareOf */\n      or\n      swap1\n      sstore\n        /* \"ChildLabourDataManagement.sol\":18742:18757  block.timestamp */\n      timestamp\n        /* \"ChildLabourDataManagement.sol\":18697:18739  childRemediationData[_childId].lastUpdated */\n      0x04\n      swap1\n      swap2\n      add\n        /* \"ChildLabourDataManagement.sol\":18697:18757  childRemediationData[_childId].lastUpdated = block.timestamp */\n      dup2\n      swap1\n      sstore\n        /* \"ChildLabourDataManagement.sol\":18775:18842  RemediationCompleted(_violationReportId, _childId, block.timestamp) */\n      dup3\n      mload\n        /* \"#utility.yul\":14542:14567   */\n      dup10\n      dup2\n      mstore\n        /* \"#utility.yul\":14583:14601   */\n      swap2\n      dup3\n      add\n        /* \"#utility.yul\":14576:14610   */\n      dup9\n      swap1\n      mstore\n        /* \"#utility.yul\":14626:14644   */\n      dup2\n      dup4\n      add\n        /* \"#utility.yul\":14619:14653   */\n      mstore\n        /* \"ChildLabourDataManagement.sol\":18775:18842  RemediationCompleted(_violationReportId, _childId, block.timestamp) */\n      swap1\n      mload\n      0xf0759b1c58f2eb04b7275484184a141f88fedeb54c9a6a48b4e7d9d332edb1a7\n      swap2\n        /* \"#utility.yul\":14530:14532   */\n      0x60\n        /* \"ChildLabourDataManagement.sol\":18775:18842  RemediationCompleted(_violationReportId, _childId, block.timestamp) */\n      swap1\n      dup3\n      swap1\n      sub\n      add\n      swap1\n      log1\n        /* \"ChildLabourDataManagement.sol\":18177:18850  {... */\n      pop\n        /* \"ChildLabourDataManagement.sol\":9224:9619  {... */\n      pop\n      pop\n        /* \"ChildLabourDataManagement.sol\":18073:18850  function completeRemediation(uint256 _violationReportId, uint256 _childId) public onlyGuardian(_childId){... */\n      pop\n      pop\n      pop\n      jump\t// out\n        /* \"ChildLabourDataManagement.sol\":12939:14056  function storeChildData(bytes32 _hashedName, uint256 _age, bytes1 _gender, uint256 _violationReportId) public onlyInspectionAgent{... */\n    tag_78:\n        /* \"ChildLabourDataManagement.sol\":8635:8670  IRegistration.EntityType entitytype */\n      0x00\n        /* \"ChildLabourDataManagement.sol\":8693:8705  Registration */\n      dup1\n      sload\n        /* \"ChildLabourDataManagement.sol\":8693:8727  Registration.getEntity(msg.sender) */\n      mload(0x40)\n      shl(0xe2, 0x1d6253a3)\n      dup2\n      mstore\n        /* \"ChildLabourDataManagement.sol\":8716:8726  msg.sender */\n      caller\n        /* \"ChildLabourDataManagement.sol\":8693:8727  Registration.getEntity(msg.sender) */\n      0x04\n      dup3\n      add\n        /* \"#utility.yul\":3829:3880   */\n      mstore\n        /* \"ChildLabourDataManagement.sol\":8635:8670  IRegistration.EntityType entitytype */\n      dup3\n      swap2\n      sub(shl(0xa0, 0x01), 0x01)\n        /* \"ChildLabourDataManagement.sol\":8693:8705  Registration */\n      and\n      swap1\n        /* \"ChildLabourDataManagement.sol\":8693:8715  Registration.getEntity */\n      0x75894e8c\n      swap1\n        /* \"#utility.yul\":3802:3820   */\n      0x24\n      add\n        /* \"ChildLabourDataManagement.sol\":8693:8727  Registration.getEntity(msg.sender) */\n      0x40\n      dup1\n      mload\n      dup1\n      dup4\n      sub\n      dup2\n      0x00\n      dup8\n      gas\n      call\n      iszero\n      dup1\n      iszero\n      tag_232\n      jumpi\n      returndatasize\n      0x00\n      dup1\n      returndatacopy\n      revert(0x00, returndatasize)\n    tag_232:\n      pop\n      pop\n      pop\n      pop\n      mload(0x40)\n      returndatasize\n      not(0x1f)\n      0x1f\n      dup3\n      add\n      and\n      dup3\n      add\n      dup1\n      0x40\n      mstore\n      pop\n      dup2\n      add\n      swap1\n      tag_233\n      swap2\n      swap1\n      tag_138\n      jump\t// in\n    tag_233:\n        /* \"ChildLabourDataManagement.sol\":8634:8727  (IRegistration.EntityType entitytype, bool isRegistered) = Registration.getEntity(msg.sender) */\n      swap1\n      swap3\n      pop\n      swap1\n      pop\n        /* \"ChildLabourDataManagement.sol\":8760:8800  IRegistration.EntityType.InspectionAgent */\n      0x03\n        /* \"ChildLabourDataManagement.sol\":8746:8756  entitytype */\n      dup3\n        /* \"ChildLabourDataManagement.sol\":8746:8800  entitytype == IRegistration.EntityType.InspectionAgent */\n      0x06\n      dup2\n      gt\n      iszero\n      tag_237\n      jumpi\n      tag_237\n      tag_141\n      jump\t// in\n    tag_237:\n      eq\n        /* \"ChildLabourDataManagement.sol\":8746:8816  entitytype == IRegistration.EntityType.InspectionAgent && isRegistered */\n      dup1\n      iszero\n      tag_238\n      jumpi\n      pop\n        /* \"ChildLabourDataManagement.sol\":8804:8816  isRegistered */\n      dup1\n        /* \"ChildLabourDataManagement.sol\":8746:8816  entitytype == IRegistration.EntityType.InspectionAgent && isRegistered */\n    tag_238:\n        /* \"ChildLabourDataManagement.sol\":8738:8868  require(entitytype == IRegistration.EntityType.InspectionAgent && isRegistered, \"Only the Inspection Agent can run this function\") */\n      tag_239\n      jumpi\n      mload(0x40)\n      shl(0xe5, 0x461bcd)\n      dup2\n      mstore\n      0x04\n      add\n      tag_146\n      swap1\n      tag_163\n      jump\t// in\n    tag_239:\n        /* \"ChildLabourDataManagement.sol\":13079:13108  ViolationReport memory report */\n      0x00\n        /* \"ChildLabourDataManagement.sol\":13111:13147  violationReports[_violationReportId] */\n      dup4\n      dup2\n      mstore\n        /* \"ChildLabourDataManagement.sol\":13111:13127  violationReports */\n      0x04\n        /* \"ChildLabourDataManagement.sol\":13111:13147  violationReports[_violationReportId] */\n      0x20\n      dup2\n      dup2\n      mstore\n      0x40\n      swap3\n      dup4\n      swap1\n      keccak256\n        /* \"ChildLabourDataManagement.sol\":13079:13147  ViolationReport memory report = violationReports[_violationReportId] */\n      dup4\n      mload\n      0xc0\n      dup2\n      add\n      dup6\n      mstore\n      dup2\n      sload\n      sub(shl(0xa0, 0x01), 0x01)\n      and\n      dup2\n      mstore\n      0x01\n      dup3\n      add\n      sload\n      swap3\n      dup2\n      add\n      swap3\n      swap1\n      swap3\n      mstore\n      0x02\n      dup2\n      add\n      sload\n      swap4\n      dup3\n      add\n      swap4\n      swap1\n      swap4\n      mstore\n      0x03\n      dup4\n      add\n      sload\n      0x60\n      dup3\n      add\n      mstore\n      swap2\n      add\n      sload\n      0xff\n      dup1\n      dup3\n      and\n      iszero\n      iszero\n      0x80\n      dup5\n      add\n      mstore\n      0x0100\n      swap1\n      swap2\n      div\n      and\n      iszero\n      iszero\n      0xa0\n      dup3\n      add\n      mstore\n        /* \"ChildLabourDataManagement.sol\":13166:13177  _hashedName */\n      dup7\n        /* \"ChildLabourDataManagement.sol\":13158:13215  require(_hashedName != bytes32(0), \"Invalid hashed name\") */\n      tag_242\n      jumpi\n      mload(0x40)\n      shl(0xe5, 0x461bcd)\n      dup2\n      mstore\n        /* \"#utility.yul\":14866:14868   */\n      0x20\n        /* \"ChildLabourDataManagement.sol\":13158:13215  require(_hashedName != bytes32(0), \"Invalid hashed name\") */\n      0x04\n      dup3\n      add\n        /* \"#utility.yul\":14848:14869   */\n      mstore\n        /* \"#utility.yul\":14905:14907   */\n      0x13\n        /* \"#utility.yul\":14885:14903   */\n      0x24\n      dup3\n      add\n        /* \"#utility.yul\":14878:14908   */\n      mstore\n      shl(0x68, 0x496e76616c696420686173686564206e616d65)\n        /* \"#utility.yul\":14924:14942   */\n      0x44\n      dup3\n      add\n        /* \"#utility.yul\":14917:14966   */\n      mstore\n        /* \"#utility.yul\":14983:15001   */\n      0x64\n      add\n        /* \"ChildLabourDataManagement.sol\":13158:13215  require(_hashedName != bytes32(0), \"Invalid hashed name\") */\n      tag_146\n        /* \"#utility.yul\":14664:15007   */\n      jump\n        /* \"ChildLabourDataManagement.sol\":13158:13215  require(_hashedName != bytes32(0), \"Invalid hashed name\") */\n    tag_242:\n        /* \"ChildLabourDataManagement.sol\":13241:13242  0 */\n      0x00\n        /* \"ChildLabourDataManagement.sol\":13234:13238  _age */\n      dup7\n        /* \"ChildLabourDataManagement.sol\":13234:13242  _age > 0 */\n      gt\n        /* \"ChildLabourDataManagement.sol\":13226:13259  require(_age > 0 , \"Invalid Age\") */\n      tag_245\n      jumpi\n      mload(0x40)\n      shl(0xe5, 0x461bcd)\n      dup2\n      mstore\n        /* \"#utility.yul\":15214:15216   */\n      0x20\n        /* \"ChildLabourDataManagement.sol\":13226:13259  require(_age > 0 , \"Invalid Age\") */\n      0x04\n      dup3\n      add\n        /* \"#utility.yul\":15196:15217   */\n      mstore\n        /* \"#utility.yul\":15253:15255   */\n      0x0b\n        /* \"#utility.yul\":15233:15251   */\n      0x24\n      dup3\n      add\n        /* \"#utility.yul\":15226:15256   */\n      mstore\n      shl(0xa8, 0x496e76616c696420416765)\n        /* \"#utility.yul\":15272:15290   */\n      0x44\n      dup3\n      add\n        /* \"#utility.yul\":15265:15306   */\n      mstore\n        /* \"#utility.yul\":15323:15341   */\n      0x64\n      add\n        /* \"ChildLabourDataManagement.sol\":13226:13259  require(_age > 0 , \"Invalid Age\") */\n      tag_146\n        /* \"#utility.yul\":15012:15347   */\n      jump\n        /* \"ChildLabourDataManagement.sol\":13226:13259  require(_age > 0 , \"Invalid Age\") */\n    tag_245:\n      shl(0xf8, 0x4d)\n      not(sub(shl(0xf8, 0x01), 0x01))\n        /* \"ChildLabourDataManagement.sol\":13278:13300  bytes1(_gender) == \"M\" */\n      dup7\n      and\n      eq\n      dup1\n        /* \"ChildLabourDataManagement.sol\":13278:13326  bytes1(_gender) == \"M\" || bytes1(_gender) == \"F\" */\n      tag_248\n      jumpi\n      pop\n      shl(0xf9, 0x23)\n      not(sub(shl(0xf8, 0x01), 0x01))\n        /* \"ChildLabourDataManagement.sol\":13304:13326  bytes1(_gender) == \"F\" */\n      dup7\n      and\n      eq\n        /* \"ChildLabourDataManagement.sol\":13278:13326  bytes1(_gender) == \"M\" || bytes1(_gender) == \"F\" */\n    tag_248:\n        /* \"ChildLabourDataManagement.sol\":13270:13345  require(bytes1(_gender) == \"M\" || bytes1(_gender) == \"F\", \"Invalid Gender\") */\n      tag_249\n      jumpi\n      mload(0x40)\n      shl(0xe5, 0x461bcd)\n      dup2\n      mstore\n        /* \"#utility.yul\":15554:15556   */\n      0x20\n        /* \"ChildLabourDataManagement.sol\":13270:13345  require(bytes1(_gender) == \"M\" || bytes1(_gender) == \"F\", \"Invalid Gender\") */\n      0x04\n      dup3\n      add\n        /* \"#utility.yul\":15536:15557   */\n      mstore\n        /* \"#utility.yul\":15593:15595   */\n      0x0e\n        /* \"#utility.yul\":15573:15591   */\n      0x24\n      dup3\n      add\n        /* \"#utility.yul\":15566:15596   */\n      mstore\n      shl(0x91, 0x24b73b30b634b21023b2b73232b9)\n        /* \"#utility.yul\":15612:15630   */\n      0x44\n      dup3\n      add\n        /* \"#utility.yul\":15605:15649   */\n      mstore\n        /* \"#utility.yul\":15666:15684   */\n      0x64\n      add\n        /* \"ChildLabourDataManagement.sol\":13270:13345  require(bytes1(_gender) == \"M\" || bytes1(_gender) == \"F\", \"Invalid Gender\") */\n      tag_146\n        /* \"#utility.yul\":15352:15690   */\n      jump\n        /* \"ChildLabourDataManagement.sol\":13270:13345  require(bytes1(_gender) == \"M\" || bytes1(_gender) == \"F\", \"Invalid Gender\") */\n    tag_249:\n        /* \"ChildLabourDataManagement.sol\":13386:13387  1 */\n      0x01\n        /* \"ChildLabourDataManagement.sol\":13364:13382  _violationReportId */\n      dup5\n        /* \"ChildLabourDataManagement.sol\":13364:13387  _violationReportId >= 1 */\n      lt\n      iszero\n        /* \"ChildLabourDataManagement.sol\":13364:13424  _violationReportId >= 1 && _violationReportId <= reportCount */\n      dup1\n      iszero\n      tag_252\n      jumpi\n      pop\n        /* \"ChildLabourDataManagement.sol\":13413:13424  reportCount */\n      sload(0x02)\n        /* \"ChildLabourDataManagement.sol\":13391:13409  _violationReportId */\n      dup5\n        /* \"ChildLabourDataManagement.sol\":13391:13424  _violationReportId <= reportCount */\n      gt\n      iszero\n        /* \"ChildLabourDataManagement.sol\":13364:13424  _violationReportId >= 1 && _violationReportId <= reportCount */\n    tag_252:\n        /* \"ChildLabourDataManagement.sol\":13356:13446  require(_violationReportId >= 1 && _violationReportId <= reportCount, \"Invalid Report ID\") */\n      tag_253\n      jumpi\n      mload(0x40)\n      shl(0xe5, 0x461bcd)\n      dup2\n      mstore\n      0x04\n      add\n      tag_146\n      swap1\n      tag_168\n      jump\t// in\n    tag_253:\n        /* \"ChildLabourDataManagement.sol\":13465:13471  report */\n      dup1\n        /* \"ChildLabourDataManagement.sol\":13465:13482  report.isVerified */\n      0xa0\n      add\n      mload\n        /* \"ChildLabourDataManagement.sol\":13457:13564  require(report.isVerified, \"Cannot store child data because the violation report Id has not been verified\") */\n      tag_255\n      jumpi\n      mload(0x40)\n      shl(0xe5, 0x461bcd)\n      dup2\n      mstore\n        /* \"#utility.yul\":15897:15899   */\n      0x20\n        /* \"ChildLabourDataManagement.sol\":13457:13564  require(report.isVerified, \"Cannot store child data because the violation report Id has not been verified\") */\n      0x04\n      dup3\n      add\n        /* \"#utility.yul\":15879:15900   */\n      mstore\n        /* \"#utility.yul\":15936:15938   */\n      0x4d\n        /* \"#utility.yul\":15916:15934   */\n      0x24\n      dup3\n      add\n        /* \"#utility.yul\":15909:15939   */\n      mstore\n        /* \"#utility.yul\":15975:16009   */\n      0x43616e6e6f742073746f7265206368696c642064617461206265636175736520\n        /* \"#utility.yul\":15955:15973   */\n      0x44\n      dup3\n      add\n        /* \"#utility.yul\":15948:16010   */\n      mstore\n        /* \"#utility.yul\":16046:16080   */\n      0x7468652076696f6c6174696f6e207265706f727420496420686173206e6f7420\n        /* \"#utility.yul\":16026:16044   */\n      0x64\n      dup3\n      add\n        /* \"#utility.yul\":16019:16081   */\n      mstore\n      shl(0x9a, 0x1899595b881d995c9a599a5959)\n        /* \"#utility.yul\":16097:16116   */\n      0x84\n      dup3\n      add\n        /* \"#utility.yul\":16090:16134   */\n      mstore\n        /* \"#utility.yul\":16151:16170   */\n      0xa4\n      add\n        /* \"ChildLabourDataManagement.sol\":13457:13564  require(report.isVerified, \"Cannot store child data because the violation report Id has not been verified\") */\n      tag_146\n        /* \"#utility.yul\":15695:16176   */\n      jump\n        /* \"ChildLabourDataManagement.sol\":13457:13564  require(report.isVerified, \"Cannot store child data because the violation report Id has not been verified\") */\n    tag_255:\n        /* \"ChildLabourDataManagement.sol\":13577:13616  reportChildrenCount[_violationReportId] */\n      0x00\n      dup5\n      dup2\n      mstore\n        /* \"ChildLabourDataManagement.sol\":13577:13596  reportChildrenCount */\n      0x07\n        /* \"ChildLabourDataManagement.sol\":13577:13616  reportChildrenCount[_violationReportId] */\n      0x20\n      mstore\n      0x40\n      dup2\n      keccak256\n        /* \"ChildLabourDataManagement.sol\":13577:13619  reportChildrenCount[_violationReportId] ++ */\n      dup1\n      sload\n      swap2\n      tag_258\n      dup4\n      tag_259\n      jump\t// in\n    tag_258:\n      swap1\n      swap2\n      sstore\n      pop\n      pop\n        /* \"ChildLabourDataManagement.sol\":13703:13822  ChildData(reportChildrenCount[_violationReportId], _hashedName, _age, _gender, _violationReportId, ChildStatus.Spotted) */\n      0x40\n      dup1\n      mload\n      0xc0\n      dup2\n      add\n      dup3\n      mstore\n      0x00\n        /* \"ChildLabourDataManagement.sol\":13713:13752  reportChildrenCount[_violationReportId] */\n      dup7\n      dup2\n      mstore\n        /* \"ChildLabourDataManagement.sol\":13713:13732  reportChildrenCount */\n      0x07\n        /* \"ChildLabourDataManagement.sol\":13713:13752  reportChildrenCount[_violationReportId] */\n      0x20\n      swap1\n      dup2\n      mstore\n      dup4\n      dup3\n      keccak256\n      sload\n        /* \"ChildLabourDataManagement.sol\":13703:13822  ChildData(reportChildrenCount[_violationReportId], _hashedName, _age, _gender, _violationReportId, ChildStatus.Spotted) */\n      dup1\n      dup5\n      mstore\n      dup2\n      dup5\n      add\n      dup13\n      dup2\n      mstore\n      dup5\n      dup7\n      add\n      dup13\n      dup2\n      mstore\n      not(sub(shl(0xf8, 0x01), 0x01))\n      dup13\n      and\n      0x60\n      dup8\n      add\n      swap1\n      dup2\n      mstore\n      0x80\n      dup8\n      add\n      dup13\n      dup2\n      mstore\n      0xa0\n      dup9\n      add\n      dup8\n      dup2\n      mstore\n        /* \"ChildLabourDataManagement.sol\":13630:13659  childData[_violationReportId] */\n      dup14\n      dup9\n      mstore\n        /* \"ChildLabourDataManagement.sol\":13630:13639  childData */\n      0x06\n        /* \"ChildLabourDataManagement.sol\":13630:13659  childData[_violationReportId] */\n      dup8\n      mstore\n      dup10\n      dup9\n      keccak256\n        /* \"ChildLabourDataManagement.sol\":13630:13700  childData[_violationReportId][reportChildrenCount[_violationReportId]] */\n      swap6\n      dup9\n      mstore\n      swap5\n      swap1\n      swap6\n      mstore\n      swap7\n      swap1\n      swap5\n      keccak256\n        /* \"ChildLabourDataManagement.sol\":13630:13822  childData[_violationReportId][reportChildrenCount[_violationReportId]] = ChildData(reportChildrenCount[_violationReportId], _hashedName, _age, _gender, _violationReportId, ChildStatus.Spotted) */\n      dup6\n      mload\n      dup2\n      sstore\n      swap1\n      mload\n      0x01\n      dup1\n      dup4\n      add\n      swap2\n      swap1\n      swap2\n      sstore\n      swap4\n      mload\n      0x02\n      dup3\n      add\n      sstore\n      swap5\n      mload\n      0x03\n      dup1\n      dup8\n      add\n      dup1\n      sload\n      0xf8\n      swap4\n      swap1\n      swap4\n      shr\n      not(0xff)\n      swap4\n      dup5\n      and\n      or\n      swap1\n      sstore\n      swap3\n      mload\n      0x04\n      dup8\n      add\n      sstore\n      swap1\n      mload\n      0x05\n      dup7\n      add\n      dup1\n      sload\n        /* \"ChildLabourDataManagement.sol\":13703:13822  ChildData(reportChildrenCount[_violationReportId], _hashedName, _age, _gender, _violationReportId, ChildStatus.Spotted) */\n      swap6\n      swap7\n        /* \"ChildLabourDataManagement.sol\":13630:13700  childData[_violationReportId][reportChildrenCount[_violationReportId]] */\n      swap6\n        /* \"ChildLabourDataManagement.sol\":13630:13822  childData[_violationReportId][reportChildrenCount[_violationReportId]] = ChildData(reportChildrenCount[_violationReportId], _hashedName, _age, _gender, _violationReportId, ChildStatus.Spotted) */\n      swap2\n      swap5\n      swap1\n      swap4\n      swap2\n      swap1\n      swap3\n      and\n      swap2\n      swap1\n      dup5\n      swap1\n      dup2\n      gt\n      iszero\n      tag_263\n      jumpi\n      tag_263\n      tag_141\n      jump\t// in\n    tag_263:\n      mul\n      or\n      swap1\n      sstore\n      pop\n      pop\n      pop\n        /* \"ChildLabourDataManagement.sol\":13845:13905  child2ReportMapping[reportChildrenCount[_violationReportId]] */\n      0x00\n        /* \"ChildLabourDataManagement.sol\":13865:13904  reportChildrenCount[_violationReportId] */\n      dup5\n      dup2\n      mstore\n        /* \"ChildLabourDataManagement.sol\":13865:13884  reportChildrenCount */\n      0x07\n        /* \"ChildLabourDataManagement.sol\":13865:13904  reportChildrenCount[_violationReportId] */\n      0x20\n      dup2\n      dup2\n      mstore\n      0x40\n      dup1\n      dup5\n      keccak256\n      dup1\n      sload\n        /* \"ChildLabourDataManagement.sol\":13845:13905  child2ReportMapping[reportChildrenCount[_violationReportId]] */\n      dup6\n      mstore\n        /* \"ChildLabourDataManagement.sol\":13845:13864  child2ReportMapping */\n      0x05\n        /* \"ChildLabourDataManagement.sol\":13845:13905  child2ReportMapping[reportChildrenCount[_violationReportId]] */\n      dup4\n      mstore\n      dup2\n      dup6\n      keccak256\n        /* \"ChildLabourDataManagement.sol\":13845:13926  child2ReportMapping[reportChildrenCount[_violationReportId]] = _violationReportId */\n      dup10\n      swap1\n      sstore\n        /* \"ChildLabourDataManagement.sol\":13960:13999  reportChildrenCount[_violationReportId] */\n      swap4\n      dup9\n      swap1\n      mstore\n      swap2\n      dup2\n      mstore\n      swap2\n      sload\n        /* \"ChildLabourDataManagement.sol\":13944:14048  ChildDataStored(reportChildrenCount[_violationReportId], _hashedName, _age, _gender, _violationReportId) */\n      dup2\n      mload\n        /* \"#utility.yul\":16710:16735   */\n      swap1\n      dup2\n      mstore\n        /* \"#utility.yul\":16751:16769   */\n      swap2\n      dup3\n      add\n        /* \"#utility.yul\":16744:16778   */\n      dup10\n      swap1\n      mstore\n        /* \"#utility.yul\":16794:16812   */\n      dup2\n      add\n        /* \"#utility.yul\":16787:16821   */\n      dup8\n      swap1\n      mstore\n      not(sub(shl(0xf8, 0x01), 0x01))\n        /* \"#utility.yul\":16857:16883   */\n      dup7\n      and\n        /* \"#utility.yul\":16852:16854   */\n      0x60\n        /* \"#utility.yul\":16837:16855   */\n      dup3\n      add\n        /* \"#utility.yul\":16830:16884   */\n      mstore\n        /* \"#utility.yul\":16915:16918   */\n      0x80\n        /* \"#utility.yul\":16900:16919   */\n      dup2\n      add\n        /* \"#utility.yul\":16893:16928   */\n      dup6\n      swap1\n      mstore\n        /* \"ChildLabourDataManagement.sol\":13944:14048  ChildDataStored(reportChildrenCount[_violationReportId], _hashedName, _age, _gender, _violationReportId) */\n      0x8f6937edcd05ce1c1912e225ec700cb996d92333e3b1631ce16e703fc6b8e77a\n      swap1\n        /* \"#utility.yul\":16697:16700   */\n      0xa0\n        /* \"#utility.yul\":16682:16701   */\n      add\n        /* \"ChildLabourDataManagement.sol\":13944:14048  ChildDataStored(reportChildrenCount[_violationReportId], _hashedName, _age, _gender, _violationReportId) */\n    tag_264:\n      mload(0x40)\n      dup1\n      swap2\n      sub\n      swap1\n      log1\n        /* \"ChildLabourDataManagement.sol\":13068:14056  {... */\n      pop\n        /* \"ChildLabourDataManagement.sol\":8623:8888  {... */\n      pop\n      pop\n        /* \"ChildLabourDataManagement.sol\":12939:14056  function storeChildData(bytes32 _hashedName, uint256 _age, bytes1 _gender, uint256 _violationReportId) public onlyInspectionAgent{... */\n      pop\n      pop\n      pop\n      pop\n      jump\t// out\n        /* \"ChildLabourDataManagement.sol\":14064:15128  function getChildData(uint256 _violationReportId, uint256 _childId) public returns(bytes32 hashedName, uint256 age, bytes1 gender, bytes32 reportipfshash){... */\n    tag_81:\n        /* \"ChildLabourDataManagement.sol\":14147:14165  bytes32 hashedName */\n      0x00\n        /* \"ChildLabourDataManagement.sol\":14288:14300  Registration */\n      dup1\n      sload\n        /* \"ChildLabourDataManagement.sol\":14288:14322  Registration.getEntity(msg.sender) */\n      mload(0x40)\n      shl(0xe2, 0x1d6253a3)\n      dup2\n      mstore\n        /* \"ChildLabourDataManagement.sol\":14311:14321  msg.sender */\n      caller\n        /* \"ChildLabourDataManagement.sol\":14288:14322  Registration.getEntity(msg.sender) */\n      0x04\n      dup3\n      add\n        /* \"#utility.yul\":3829:3880   */\n      mstore\n        /* \"ChildLabourDataManagement.sol\":14147:14165  bytes32 hashedName */\n      dup3\n      swap2\n      dup3\n      swap2\n      dup3\n      swap2\n      dup3\n      swap2\n      dup3\n      swap2\n      sub(shl(0xa0, 0x01), 0x01)\n        /* \"ChildLabourDataManagement.sol\":14288:14300  Registration */\n      and\n      swap1\n        /* \"ChildLabourDataManagement.sol\":14288:14310  Registration.getEntity */\n      0x75894e8c\n      swap1\n        /* \"#utility.yul\":3802:3820   */\n      0x24\n      add\n        /* \"ChildLabourDataManagement.sol\":14288:14322  Registration.getEntity(msg.sender) */\n      0x40\n      dup1\n      mload\n      dup1\n      dup4\n      sub\n      dup2\n      0x00\n      dup8\n      gas\n      call\n      iszero\n      dup1\n      iszero\n      tag_269\n      jumpi\n      returndatasize\n      0x00\n      dup1\n      returndatacopy\n      revert(0x00, returndatasize)\n    tag_269:\n      pop\n      pop\n      pop\n      pop\n      mload(0x40)\n      returndatasize\n      not(0x1f)\n      0x1f\n      dup3\n      add\n      and\n      dup3\n      add\n      dup1\n      0x40\n      mstore\n      pop\n      dup2\n      add\n      swap1\n      tag_270\n      swap2\n      swap1\n      tag_138\n      jump\t// in\n    tag_270:\n        /* \"ChildLabourDataManagement.sol\":14333:14354  ChildData memory data */\n      0x00\n        /* \"ChildLabourDataManagement.sol\":14357:14386  childData[_violationReportId] */\n      dup11\n      dup2\n      mstore\n        /* \"ChildLabourDataManagement.sol\":14357:14366  childData */\n      0x06\n        /* \"ChildLabourDataManagement.sol\":14357:14386  childData[_violationReportId] */\n      0x20\n      swap1\n      dup2\n      mstore\n      0x40\n      dup1\n      dup4\n      keccak256\n        /* \"ChildLabourDataManagement.sol\":14357:14396  childData[_violationReportId][_childId] */\n      dup13\n      dup5\n      mstore\n      dup3\n      mstore\n      dup1\n      dup4\n      keccak256\n        /* \"ChildLabourDataManagement.sol\":14333:14396  ChildData memory data = childData[_violationReportId][_childId] */\n      dup2\n      mload\n      0xc0\n      dup2\n      add\n      dup4\n      mstore\n      dup2\n      sload\n      dup2\n      mstore\n      0x01\n      dup3\n      add\n      sload\n      swap4\n      dup2\n      add\n      swap4\n      swap1\n      swap4\n      mstore\n      0x02\n      dup2\n      add\n      sload\n      swap2\n      dup4\n      add\n      swap2\n      swap1\n      swap2\n      mstore\n      0x03\n      dup1\n      dup3\n      add\n      sload\n      0xf8\n      shl\n      not(sub(shl(0xf8, 0x01), 0x01))\n      and\n      0x60\n      dup5\n      add\n      mstore\n      0x04\n      dup3\n      add\n      sload\n      0x80\n      dup5\n      add\n      mstore\n      0x05\n      dup3\n      add\n      sload\n        /* \"ChildLabourDataManagement.sol\":14229:14322  (IRegistration.EntityType entitytype, bool isRegistered) = Registration.getEntity(msg.sender) */\n      swap6\n      swap8\n      pop\n      swap4\n      swap6\n      pop\n        /* \"ChildLabourDataManagement.sol\":14333:14354  ChildData memory data */\n      swap2\n      swap4\n        /* \"ChildLabourDataManagement.sol\":14333:14396  ChildData memory data = childData[_violationReportId][_childId] */\n      swap1\n      swap3\n      0xa0\n      dup5\n      add\n      swap2\n      0xff\n      and\n      swap1\n      dup2\n      gt\n      iszero\n      tag_272\n      jumpi\n      tag_272\n      tag_141\n      jump\t// in\n    tag_272:\n      0x03\n      dup2\n      gt\n      iszero\n      tag_274\n      jumpi\n      tag_274\n      tag_141\n      jump\t// in\n    tag_274:\n      swap1\n      mstore\n      pop\n        /* \"ChildLabourDataManagement.sol\":14407:14436  ViolationReport memory report */\n      0x00\n        /* \"ChildLabourDataManagement.sol\":14439:14475  violationReports[_violationReportId] */\n      dup11\n      dup2\n      mstore\n        /* \"ChildLabourDataManagement.sol\":14439:14455  violationReports */\n      0x04\n        /* \"ChildLabourDataManagement.sol\":14439:14475  violationReports[_violationReportId] */\n      0x20\n      dup2\n      dup2\n      mstore\n      0x40\n      swap3\n      dup4\n      swap1\n      keccak256\n        /* \"ChildLabourDataManagement.sol\":14407:14475  ViolationReport memory report = violationReports[_violationReportId] */\n      dup4\n      mload\n      0xc0\n      dup2\n      add\n      dup6\n      mstore\n      dup2\n      sload\n      sub(shl(0xa0, 0x01), 0x01)\n      and\n      dup2\n      mstore\n      0x01\n      dup3\n      add\n      sload\n      swap3\n      dup2\n      add\n      swap3\n      swap1\n      swap3\n      mstore\n      0x02\n      dup2\n      add\n      sload\n      swap4\n      dup3\n      add\n      swap4\n      swap1\n      swap4\n      mstore\n      0x03\n      dup4\n      add\n      sload\n      0x60\n      dup3\n      add\n      mstore\n      swap2\n      dup2\n      add\n      sload\n      0xff\n      dup1\n      dup3\n      and\n      iszero\n      iszero\n      0x80\n      dup6\n      add\n      mstore\n      0x0100\n      swap1\n      swap2\n      div\n      and\n      iszero\n      iszero\n      0xa0\n      dup4\n      add\n      mstore\n        /* \"ChildLabourDataManagement.sol\":14333:14396  ChildData memory data = childData[_violationReportId][_childId] */\n      swap2\n      swap3\n      pop\n        /* \"ChildLabourDataManagement.sol\":14407:14475  ViolationReport memory report = violationReports[_violationReportId] */\n      swap1\n        /* \"ChildLabourDataManagement.sol\":14494:14504  entitytype */\n      dup5\n        /* \"ChildLabourDataManagement.sol\":14494:14544  entitytype == IRegistration.EntityType.DataAnalyst */\n      0x06\n      dup2\n      gt\n      iszero\n      tag_278\n      jumpi\n      tag_278\n      tag_141\n      jump\t// in\n    tag_278:\n      eq\n        /* \"ChildLabourDataManagement.sol\":14494:14560  entitytype == IRegistration.EntityType.DataAnalyst && isRegistered */\n      dup1\n      iszero\n      tag_279\n      jumpi\n      pop\n        /* \"ChildLabourDataManagement.sol\":14548:14560  isRegistered */\n      dup3\n        /* \"ChildLabourDataManagement.sol\":14494:14560  entitytype == IRegistration.EntityType.DataAnalyst && isRegistered */\n    tag_279:\n        /* \"ChildLabourDataManagement.sol\":14494:14638  entitytype == IRegistration.EntityType.DataAnalyst && isRegistered || entitytype == IRegistration.EntityType.RegulatoryAuthority && isRegistered */\n      dup1\n      tag_285\n      jumpi\n      pop\n        /* \"ChildLabourDataManagement.sol\":14578:14622  IRegistration.EntityType.RegulatoryAuthority */\n      0x01\n        /* \"ChildLabourDataManagement.sol\":14564:14574  entitytype */\n      dup5\n        /* \"ChildLabourDataManagement.sol\":14564:14622  entitytype == IRegistration.EntityType.RegulatoryAuthority */\n      0x06\n      dup2\n      gt\n      iszero\n      tag_284\n      jumpi\n      tag_284\n      tag_141\n      jump\t// in\n    tag_284:\n      eq\n        /* \"ChildLabourDataManagement.sol\":14564:14638  entitytype == IRegistration.EntityType.RegulatoryAuthority && isRegistered */\n      dup1\n      iszero\n      tag_285\n      jumpi\n      pop\n        /* \"ChildLabourDataManagement.sol\":14626:14638  isRegistered */\n      dup3\n        /* \"ChildLabourDataManagement.sol\":14564:14638  entitytype == IRegistration.EntityType.RegulatoryAuthority && isRegistered */\n    tag_285:\n        /* \"ChildLabourDataManagement.sol\":14486:14712  require(entitytype == IRegistration.EntityType.DataAnalyst && isRegistered || entitytype == IRegistration.EntityType.RegulatoryAuthority && isRegistered, \"Only the Regulatory Authority and Data Analysts can run this function\") */\n      tag_286\n      jumpi\n      mload(0x40)\n      shl(0xe5, 0x461bcd)\n      dup2\n      mstore\n        /* \"#utility.yul\":17141:17143   */\n      0x20\n        /* \"ChildLabourDataManagement.sol\":14486:14712  require(entitytype == IRegistration.EntityType.DataAnalyst && isRegistered || entitytype == IRegistration.EntityType.RegulatoryAuthority && isRegistered, \"Only the Regulatory Authority and Data Analysts can run this function\") */\n      0x04\n      dup3\n      add\n        /* \"#utility.yul\":17123:17144   */\n      mstore\n        /* \"#utility.yul\":17180:17182   */\n      0x45\n        /* \"#utility.yul\":17160:17178   */\n      0x24\n      dup3\n      add\n        /* \"#utility.yul\":17153:17183   */\n      mstore\n        /* \"#utility.yul\":17219:17253   */\n      0x4f6e6c792074686520526567756c61746f727920417574686f7269747920616e\n        /* \"#utility.yul\":17199:17217   */\n      0x44\n      dup3\n      add\n        /* \"#utility.yul\":17192:17254   */\n      mstore\n        /* \"#utility.yul\":17290:17324   */\n      0x64204461746120416e616c797374732063616e2072756e20746869732066756e\n        /* \"#utility.yul\":17270:17288   */\n      0x64\n      dup3\n      add\n        /* \"#utility.yul\":17263:17325   */\n      mstore\n      shl(0xd9, 0x31ba34b7b7)\n        /* \"#utility.yul\":17341:17360   */\n      0x84\n      dup3\n      add\n        /* \"#utility.yul\":17334:17370   */\n      mstore\n        /* \"#utility.yul\":17387:17406   */\n      0xa4\n      add\n        /* \"ChildLabourDataManagement.sol\":14486:14712  require(entitytype == IRegistration.EntityType.DataAnalyst && isRegistered || entitytype == IRegistration.EntityType.RegulatoryAuthority && isRegistered, \"Only the Regulatory Authority and Data Analysts can run this function\") */\n      tag_146\n        /* \"#utility.yul\":16939:17412   */\n      jump\n        /* \"ChildLabourDataManagement.sol\":14486:14712  require(entitytype == IRegistration.EntityType.DataAnalyst && isRegistered || entitytype == IRegistration.EntityType.RegulatoryAuthority && isRegistered, \"Only the Regulatory Authority and Data Analysts can run this function\") */\n    tag_286:\n        /* \"ChildLabourDataManagement.sol\":14753:14754  1 */\n      0x01\n        /* \"ChildLabourDataManagement.sol\":14731:14749  _violationReportId */\n      dup11\n        /* \"ChildLabourDataManagement.sol\":14731:14754  _violationReportId >= 1 */\n      lt\n      iszero\n        /* \"ChildLabourDataManagement.sol\":14731:14791  _violationReportId >= 1 && _violationReportId <= reportCount */\n      dup1\n      iszero\n      tag_289\n      jumpi\n      pop\n        /* \"ChildLabourDataManagement.sol\":14780:14791  reportCount */\n      sload(0x02)\n        /* \"ChildLabourDataManagement.sol\":14758:14776  _violationReportId */\n      dup11\n        /* \"ChildLabourDataManagement.sol\":14758:14791  _violationReportId <= reportCount */\n      gt\n      iszero\n        /* \"ChildLabourDataManagement.sol\":14731:14791  _violationReportId >= 1 && _violationReportId <= reportCount */\n    tag_289:\n        /* \"ChildLabourDataManagement.sol\":14723:14813  require(_violationReportId >= 1 && _violationReportId <= reportCount, \"Invalid Report ID\") */\n      tag_290\n      jumpi\n      mload(0x40)\n      shl(0xe5, 0x461bcd)\n      dup2\n      mstore\n      0x04\n      add\n      tag_146\n      swap1\n      tag_168\n      jump\t// in\n    tag_290:\n        /* \"ChildLabourDataManagement.sol\":14844:14845  1 */\n      0x01\n        /* \"ChildLabourDataManagement.sol\":14832:14840  _childId */\n      dup10\n        /* \"ChildLabourDataManagement.sol\":14832:14845  _childId >= 1 */\n      lt\n      iszero\n        /* \"ChildLabourDataManagement.sol\":14832:14900  _childId >= 1 && _childId <= reportChildrenCount[_violationReportId] */\n      dup1\n      iszero\n      tag_292\n      jumpi\n      pop\n        /* \"ChildLabourDataManagement.sol\":14861:14900  reportChildrenCount[_violationReportId] */\n      0x00\n      dup11\n      dup2\n      mstore\n        /* \"ChildLabourDataManagement.sol\":14861:14880  reportChildrenCount */\n      0x07\n        /* \"ChildLabourDataManagement.sol\":14861:14900  reportChildrenCount[_violationReportId] */\n      0x20\n      mstore\n      0x40\n      swap1\n      keccak256\n      sload\n        /* \"ChildLabourDataManagement.sol\":14849:14900  _childId <= reportChildrenCount[_violationReportId] */\n      dup10\n      gt\n      iszero\n        /* \"ChildLabourDataManagement.sol\":14832:14900  _childId >= 1 && _childId <= reportChildrenCount[_violationReportId] */\n    tag_292:\n        /* \"ChildLabourDataManagement.sol\":14824:14921  require(_childId >= 1 && _childId <= reportChildrenCount[_violationReportId], \"Invalid Child ID\") */\n      tag_293\n      jumpi\n      mload(0x40)\n      shl(0xe5, 0x461bcd)\n      dup2\n      mstore\n      0x04\n      add\n      tag_146\n      swap1\n      tag_214\n      jump\t// in\n    tag_293:\n        /* \"ChildLabourDataManagement.sol\":14940:14946  report */\n      dup1\n        /* \"ChildLabourDataManagement.sol\":14940:14957  report.isVerified */\n      0xa0\n      add\n      mload\n        /* \"ChildLabourDataManagement.sol\":14932:15042  require(report.isVerified, \"Cannot retrieve child data because the violation report Id has not been verified\") */\n      tag_295\n      jumpi\n      mload(0x40)\n      shl(0xe5, 0x461bcd)\n      dup2\n      mstore\n        /* \"#utility.yul\":17619:17621   */\n      0x20\n        /* \"ChildLabourDataManagement.sol\":14932:15042  require(report.isVerified, \"Cannot retrieve child data because the violation report Id has not been verified\") */\n      0x04\n      dup3\n      add\n        /* \"#utility.yul\":17601:17622   */\n      mstore\n        /* \"#utility.yul\":17658:17660   */\n      0x50\n        /* \"#utility.yul\":17638:17656   */\n      0x24\n      dup3\n      add\n        /* \"#utility.yul\":17631:17661   */\n      mstore\n        /* \"#utility.yul\":17697:17731   */\n      0x43616e6e6f74207265747269657665206368696c642064617461206265636175\n        /* \"#utility.yul\":17677:17695   */\n      0x44\n      dup3\n      add\n        /* \"#utility.yul\":17670:17732   */\n      mstore\n        /* \"#utility.yul\":17768:17802   */\n      0x7365207468652076696f6c6174696f6e207265706f727420496420686173206e\n        /* \"#utility.yul\":17748:17766   */\n      0x64\n      dup3\n      add\n        /* \"#utility.yul\":17741:17803   */\n      mstore\n      shl(0x82, 0x1bdd081899595b881d995c9a599a5959)\n        /* \"#utility.yul\":17819:17838   */\n      0x84\n      dup3\n      add\n        /* \"#utility.yul\":17812:17859   */\n      mstore\n        /* \"#utility.yul\":17876:17895   */\n      0xa4\n      add\n        /* \"ChildLabourDataManagement.sol\":14932:15042  require(report.isVerified, \"Cannot retrieve child data because the violation report Id has not been verified\") */\n      tag_146\n        /* \"#utility.yul\":17417:17901   */\n      jump\n        /* \"ChildLabourDataManagement.sol\":14932:15042  require(report.isVerified, \"Cannot retrieve child data because the violation report Id has not been verified\") */\n    tag_295:\n        /* \"ChildLabourDataManagement.sol\":15064:15079  data.hashedName */\n      0x20\n      dup3\n      add\n      mload\n        /* \"ChildLabourDataManagement.sol\":15081:15089  data.age */\n      0x40\n      dup4\n      add\n      mload\n        /* \"ChildLabourDataManagement.sol\":15091:15102  data.gender */\n      0x60\n      swap4\n      dup5\n      add\n      mload\n        /* \"ChildLabourDataManagement.sol\":15104:15119  report.ipfsHash */\n      swap3\n      swap1\n      swap4\n      add\n      mload\n        /* \"ChildLabourDataManagement.sol\":15064:15079  data.hashedName */\n      swap1\n      swap12\n        /* \"ChildLabourDataManagement.sol\":15081:15089  data.age */\n      swap3\n      swap11\n      pop\n        /* \"ChildLabourDataManagement.sol\":15091:15102  data.gender */\n      swap1\n      swap9\n      pop\n        /* \"ChildLabourDataManagement.sol\":15104:15119  report.ipfsHash */\n      swap7\n      pop\n        /* \"ChildLabourDataManagement.sol\":14064:15128  function getChildData(uint256 _violationReportId, uint256 _childId) public returns(bytes32 hashedName, uint256 age, bytes1 gender, bytes32 reportipfshash){... */\n      swap5\n      pop\n      pop\n      pop\n      pop\n      pop\n      jump\t// out\n        /* \"ChildLabourDataManagement.sol\":19926:20109  function revokeAccess( address _user) public onlyRegulatoryAuthority {... */\n    tag_86:\n        /* \"ChildLabourDataManagement.sol\":8021:8056  IRegistration.EntityType entitytype */\n      0x00\n        /* \"ChildLabourDataManagement.sol\":8079:8091  Registration */\n      dup1\n      sload\n        /* \"ChildLabourDataManagement.sol\":8079:8113  Registration.getEntity(msg.sender) */\n      mload(0x40)\n      shl(0xe2, 0x1d6253a3)\n      dup2\n      mstore\n        /* \"ChildLabourDataManagement.sol\":8102:8112  msg.sender */\n      caller\n        /* \"ChildLabourDataManagement.sol\":8079:8113  Registration.getEntity(msg.sender) */\n      0x04\n      dup3\n      add\n        /* \"#utility.yul\":3829:3880   */\n      mstore\n        /* \"ChildLabourDataManagement.sol\":8021:8056  IRegistration.EntityType entitytype */\n      dup3\n      swap2\n      sub(shl(0xa0, 0x01), 0x01)\n        /* \"ChildLabourDataManagement.sol\":8079:8091  Registration */\n      and\n      swap1\n        /* \"ChildLabourDataManagement.sol\":8079:8101  Registration.getEntity */\n      0x75894e8c\n      swap1\n        /* \"#utility.yul\":3802:3820   */\n      0x24\n      add\n        /* \"ChildLabourDataManagement.sol\":8079:8113  Registration.getEntity(msg.sender) */\n      0x40\n      dup1\n      mload\n      dup1\n      dup4\n      sub\n      dup2\n      0x00\n      dup8\n      gas\n      call\n      iszero\n      dup1\n      iszero\n      tag_301\n      jumpi\n      returndatasize\n      0x00\n      dup1\n      returndatacopy\n      revert(0x00, returndatasize)\n    tag_301:\n      pop\n      pop\n      pop\n      pop\n      mload(0x40)\n      returndatasize\n      not(0x1f)\n      0x1f\n      dup3\n      add\n      and\n      dup3\n      add\n      dup1\n      0x40\n      mstore\n      pop\n      dup2\n      add\n      swap1\n      tag_302\n      swap2\n      swap1\n      tag_138\n      jump\t// in\n    tag_302:\n        /* \"ChildLabourDataManagement.sol\":8020:8113  (IRegistration.EntityType entitytype, bool isRegistered) = Registration.getEntity(msg.sender) */\n      swap1\n      swap3\n      pop\n      swap1\n      pop\n        /* \"ChildLabourDataManagement.sol\":8146:8190  IRegistration.EntityType.RegulatoryAuthority */\n      0x01\n        /* \"ChildLabourDataManagement.sol\":8132:8142  entitytype */\n      dup3\n        /* \"ChildLabourDataManagement.sol\":8132:8190  entitytype == IRegistration.EntityType.RegulatoryAuthority */\n      0x06\n      dup2\n      gt\n      iszero\n      tag_306\n      jumpi\n      tag_306\n      tag_141\n      jump\t// in\n    tag_306:\n      eq\n        /* \"ChildLabourDataManagement.sol\":8132:8206  entitytype == IRegistration.EntityType.RegulatoryAuthority && isRegistered */\n      dup1\n      iszero\n      tag_307\n      jumpi\n      pop\n        /* \"ChildLabourDataManagement.sol\":8194:8206  isRegistered */\n      dup1\n        /* \"ChildLabourDataManagement.sol\":8132:8206  entitytype == IRegistration.EntityType.RegulatoryAuthority && isRegistered */\n    tag_307:\n        /* \"ChildLabourDataManagement.sol\":8124:8262  require(entitytype == IRegistration.EntityType.RegulatoryAuthority && isRegistered, \"Only the regulatory authority can run this function\") */\n      tag_308\n      jumpi\n      mload(0x40)\n      shl(0xe5, 0x461bcd)\n      dup2\n      mstore\n      0x04\n      add\n      tag_146\n      swap1\n      tag_310\n      jump\t// in\n    tag_308:\n      sub(shl(0xa0, 0x01), 0x01)\n        /* \"ChildLabourDataManagement.sol\":20006:20028  accessWhitelist[_user] */\n      dup4\n      and\n        /* \"ChildLabourDataManagement.sol\":20031:20036  false */\n      0x00\n        /* \"ChildLabourDataManagement.sol\":20006:20028  accessWhitelist[_user] */\n      dup2\n      dup2\n      mstore\n        /* \"ChildLabourDataManagement.sol\":20006:20021  accessWhitelist */\n      0x09\n        /* \"ChildLabourDataManagement.sol\":20006:20028  accessWhitelist[_user] */\n      0x20\n      swap1\n      dup2\n      mstore\n      0x40\n      swap2\n      dup3\n      swap1\n      keccak256\n        /* \"ChildLabourDataManagement.sol\":20006:20036  accessWhitelist[_user] = false */\n      dup1\n      sload\n      not(0xff)\n      and\n      swap1\n      sstore\n        /* \"ChildLabourDataManagement.sol\":20052:20101  AccessRevoked(msg.sender, _user, block.timestamp) */\n      dup2\n      mload\n        /* \"ChildLabourDataManagement.sol\":20066:20076  msg.sender */\n      caller\n        /* \"#utility.yul\":18566:18600   */\n      dup2\n      mstore\n        /* \"#utility.yul\":18616:18634   */\n      swap1\n      dup2\n      add\n        /* \"#utility.yul\":18609:18652   */\n      swap3\n      swap1\n      swap3\n      mstore\n        /* \"ChildLabourDataManagement.sol\":20085:20100  block.timestamp */\n      timestamp\n        /* \"#utility.yul\":18668:18686   */\n      swap1\n      dup3\n      add\n        /* \"#utility.yul\":18661:18695   */\n      mstore\n        /* \"ChildLabourDataManagement.sol\":20052:20101  AccessRevoked(msg.sender, _user, block.timestamp) */\n      0x6f6a404ffd2cea4713256a4fd9ce99c8cf8cf32d85c2bb8061d1603ff57d50c3\n      swap1\n        /* \"#utility.yul\":18516:18518   */\n      0x60\n        /* \"#utility.yul\":18501:18519   */\n      add\n        /* \"ChildLabourDataManagement.sol\":20052:20101  AccessRevoked(msg.sender, _user, block.timestamp) */\n      tag_149\n        /* \"#utility.yul\":18326:18701   */\n      jump\n        /* \"ChildLabourDataManagement.sol\":11136:11613  function submitViolationReport(string memory _reportIPFSHash, uint256 _spottedChildrenNumber) public onlywhistleBlowers{... */\n    tag_93:\n        /* \"ChildLabourDataManagement.sol\":8329:8364  IRegistration.EntityType entitytype */\n      0x00\n        /* \"ChildLabourDataManagement.sol\":8387:8399  Registration */\n      dup1\n      sload\n        /* \"ChildLabourDataManagement.sol\":8387:8421  Registration.getEntity(msg.sender) */\n      mload(0x40)\n      shl(0xe2, 0x1d6253a3)\n      dup2\n      mstore\n        /* \"ChildLabourDataManagement.sol\":8410:8420  msg.sender */\n      caller\n        /* \"ChildLabourDataManagement.sol\":8387:8421  Registration.getEntity(msg.sender) */\n      0x04\n      dup3\n      add\n        /* \"#utility.yul\":3829:3880   */\n      mstore\n        /* \"ChildLabourDataManagement.sol\":8329:8364  IRegistration.EntityType entitytype */\n      dup3\n      swap2\n      sub(shl(0xa0, 0x01), 0x01)\n        /* \"ChildLabourDataManagement.sol\":8387:8399  Registration */\n      and\n      swap1\n        /* \"ChildLabourDataManagement.sol\":8387:8409  Registration.getEntity */\n      0x75894e8c\n      swap1\n        /* \"#utility.yul\":3802:3820   */\n      0x24\n      add\n        /* \"ChildLabourDataManagement.sol\":8387:8421  Registration.getEntity(msg.sender) */\n      0x40\n      dup1\n      mload\n      dup1\n      dup4\n      sub\n      dup2\n      0x00\n      dup8\n      gas\n      call\n      iszero\n      dup1\n      iszero\n      tag_317\n      jumpi\n      returndatasize\n      0x00\n      dup1\n      returndatacopy\n      revert(0x00, returndatasize)\n    tag_317:\n      pop\n      pop\n      pop\n      pop\n      mload(0x40)\n      returndatasize\n      not(0x1f)\n      0x1f\n      dup3\n      add\n      and\n      dup3\n      add\n      dup1\n      0x40\n      mstore\n      pop\n      dup2\n      add\n      swap1\n      tag_318\n      swap2\n      swap1\n      tag_138\n      jump\t// in\n    tag_318:\n        /* \"ChildLabourDataManagement.sol\":8328:8421  (IRegistration.EntityType entitytype, bool isRegistered) = Registration.getEntity(msg.sender) */\n      swap1\n      swap3\n      pop\n      swap1\n      pop\n        /* \"ChildLabourDataManagement.sol\":8454:8493  IRegistration.EntityType.whistleBlowers */\n      0x02\n        /* \"ChildLabourDataManagement.sol\":8440:8450  entitytype */\n      dup3\n        /* \"ChildLabourDataManagement.sol\":8440:8493  entitytype == IRegistration.EntityType.whistleBlowers */\n      0x06\n      dup2\n      gt\n      iszero\n      tag_322\n      jumpi\n      tag_322\n      tag_141\n      jump\t// in\n    tag_322:\n      eq\n        /* \"ChildLabourDataManagement.sol\":8440:8509  entitytype == IRegistration.EntityType.whistleBlowers && isRegistered */\n      dup1\n      iszero\n      tag_323\n      jumpi\n      pop\n        /* \"ChildLabourDataManagement.sol\":8497:8509  isRegistered */\n      dup1\n        /* \"ChildLabourDataManagement.sol\":8440:8509  entitytype == IRegistration.EntityType.whistleBlowers && isRegistered */\n    tag_323:\n        /* \"ChildLabourDataManagement.sol\":8432:8567  require(entitytype == IRegistration.EntityType.whistleBlowers && isRegistered, \"Only a registered whistleblower can run this function\") */\n      tag_324\n      jumpi\n      mload(0x40)\n      shl(0xe5, 0x461bcd)\n      dup2\n      mstore\n        /* \"#utility.yul\":18908:18910   */\n      0x20\n        /* \"ChildLabourDataManagement.sol\":8432:8567  require(entitytype == IRegistration.EntityType.whistleBlowers && isRegistered, \"Only a registered whistleblower can run this function\") */\n      0x04\n      dup3\n      add\n        /* \"#utility.yul\":18890:18911   */\n      mstore\n        /* \"#utility.yul\":18947:18949   */\n      0x35\n        /* \"#utility.yul\":18927:18945   */\n      0x24\n      dup3\n      add\n        /* \"#utility.yul\":18920:18950   */\n      mstore\n        /* \"#utility.yul\":18986:19020   */\n      0x4f6e6c79206120726567697374657265642077686973746c65626c6f77657220\n        /* \"#utility.yul\":18966:18984   */\n      0x44\n      dup3\n      add\n        /* \"#utility.yul\":18959:19021   */\n      mstore\n      shl(0x59, 0x31b0b710393ab7103a3434b990333ab731ba34b7b7)\n        /* \"#utility.yul\":19037:19055   */\n      0x64\n      dup3\n      add\n        /* \"#utility.yul\":19030:19081   */\n      mstore\n        /* \"#utility.yul\":19098:19117   */\n      0x84\n      add\n        /* \"ChildLabourDataManagement.sol\":8432:8567  require(entitytype == IRegistration.EntityType.whistleBlowers && isRegistered, \"Only a registered whistleblower can run this function\") */\n      tag_146\n        /* \"#utility.yul\":18706:19123   */\n      jump\n        /* \"ChildLabourDataManagement.sol\":8432:8567  require(entitytype == IRegistration.EntityType.whistleBlowers && isRegistered, \"Only a registered whistleblower can run this function\") */\n    tag_324:\n        /* \"ChildLabourDataManagement.sol\":11276:11287  reportCount */\n      0x02\n        /* \"ChildLabourDataManagement.sol\":11276:11289  reportCount++ */\n      dup1\n      sload\n      swap1\n        /* \"ChildLabourDataManagement.sol\":11276:11287  reportCount */\n      0x00\n        /* \"ChildLabourDataManagement.sol\":11276:11289  reportCount++ */\n      tag_328\n      dup4\n      tag_259\n      jump\t// in\n    tag_328:\n      swap1\n      swap2\n      sstore\n      pop\n      pop\n        /* \"ChildLabourDataManagement.sol\":11332:11447  ViolationReport(msg.sender, block.timestamp, _spottedChildrenNumber, bytes32(bytes(_reportIPFSHash)), false, false) */\n      0x40\n      dup1\n      mload\n      0xc0\n      dup2\n      add\n      dup3\n      mstore\n        /* \"ChildLabourDataManagement.sol\":11348:11358  msg.sender */\n      caller\n        /* \"ChildLabourDataManagement.sol\":11332:11447  ViolationReport(msg.sender, block.timestamp, _spottedChildrenNumber, bytes32(bytes(_reportIPFSHash)), false, false) */\n      dup2\n      mstore\n        /* \"ChildLabourDataManagement.sol\":11360:11375  block.timestamp */\n      timestamp\n        /* \"ChildLabourDataManagement.sol\":11332:11447  ViolationReport(msg.sender, block.timestamp, _spottedChildrenNumber, bytes32(bytes(_reportIPFSHash)), false, false) */\n      0x20\n      dup3\n      add\n      mstore\n      swap1\n      dup2\n      add\n      dup5\n      swap1\n      mstore\n      0x60\n      dup2\n      add\n        /* \"ChildLabourDataManagement.sol\":11401:11432  bytes32(bytes(_reportIPFSHash)) */\n      tag_329\n        /* \"ChildLabourDataManagement.sol\":11415:11430  _reportIPFSHash */\n      dup7\n        /* \"ChildLabourDataManagement.sol\":11401:11432  bytes32(bytes(_reportIPFSHash)) */\n      tag_330\n      jump\t// in\n    tag_329:\n        /* \"ChildLabourDataManagement.sol\":11332:11447  ViolationReport(msg.sender, block.timestamp, _spottedChildrenNumber, bytes32(bytes(_reportIPFSHash)), false, false) */\n      dup2\n      mstore\n        /* \"ChildLabourDataManagement.sol\":11434:11439  false */\n      0x00\n        /* \"ChildLabourDataManagement.sol\":11332:11447  ViolationReport(msg.sender, block.timestamp, _spottedChildrenNumber, bytes32(bytes(_reportIPFSHash)), false, false) */\n      0x20\n      dup1\n      dup4\n      add\n      dup3\n      swap1\n      mstore\n      0x40\n      swap3\n      dup4\n      add\n      dup3\n      swap1\n      mstore\n        /* \"ChildLabourDataManagement.sol\":11317:11328  reportCount */\n      0x02\n      dup1\n      sload\n        /* \"ChildLabourDataManagement.sol\":11300:11329  violationReports[reportCount] */\n      dup4\n      mstore\n        /* \"ChildLabourDataManagement.sol\":11300:11316  violationReports */\n      0x04\n        /* \"ChildLabourDataManagement.sol\":11300:11329  violationReports[reportCount] */\n      dup1\n      dup4\n      mstore\n      dup5\n      dup5\n      keccak256\n        /* \"ChildLabourDataManagement.sol\":11300:11447  violationReports[reportCount] = ViolationReport(msg.sender, block.timestamp, _spottedChildrenNumber, bytes32(bytes(_reportIPFSHash)), false, false) */\n      dup7\n      mload\n      dup2\n      sload\n      sub(shl(0xa0, 0x01), 0x01)\n      swap1\n      swap2\n      and\n      not(sub(shl(0xa0, 0x01), 0x01))\n      swap1\n      swap2\n      and\n      or\n      dup2\n      sstore\n      swap3\n      dup7\n      add\n      mload\n        /* \"ChildLabourDataManagement.sol\":11332:11447  ViolationReport(msg.sender, block.timestamp, _spottedChildrenNumber, bytes32(bytes(_reportIPFSHash)), false, false) */\n      0x01\n        /* \"ChildLabourDataManagement.sol\":11300:11447  violationReports[reportCount] = ViolationReport(msg.sender, block.timestamp, _spottedChildrenNumber, bytes32(bytes(_reportIPFSHash)), false, false) */\n      dup5\n      add\n      sstore\n      swap4\n      dup6\n      add\n      mload\n      swap1\n      dup3\n      add\n      sstore\n      0x60\n      dup5\n      add\n      mload\n      0x03\n      dup1\n      dup4\n      add\n      swap2\n      swap1\n      swap2\n      sstore\n      0x80\n      dup6\n      add\n      mload\n      swap2\n      swap1\n      swap4\n      add\n      dup1\n      sload\n      0xa0\n      swap1\n      swap6\n      add\n      mload\n      iszero\n      iszero\n      0x0100\n      mul\n      not(0xff00)\n      swap3\n      iszero\n      iszero\n      swap3\n      swap1\n      swap3\n      and\n      not(0xffff)\n      swap1\n      swap6\n      and\n      swap5\n      swap1\n      swap5\n      or\n      or\n      swap1\n      swap3\n      sstore\n        /* \"ChildLabourDataManagement.sol\":11458:11494  childCount += _spottedChildrenNumber */\n      dup1\n      sload\n        /* \"ChildLabourDataManagement.sol\":11472:11494  _spottedChildrenNumber */\n      dup6\n      swap3\n        /* \"ChildLabourDataManagement.sol\":11434:11439  false */\n      swap1\n        /* \"ChildLabourDataManagement.sol\":11458:11494  childCount += _spottedChildrenNumber */\n      tag_331\n      swap1\n        /* \"ChildLabourDataManagement.sol\":11472:11494  _spottedChildrenNumber */\n      dup5\n      swap1\n        /* \"ChildLabourDataManagement.sol\":11458:11494  childCount += _spottedChildrenNumber */\n      tag_332\n      jump\t// in\n    tag_331:\n      swap1\n      swap2\n      sstore\n      pop\n      pop\n        /* \"ChildLabourDataManagement.sol\":11531:11542  reportCount */\n      sload(0x02)\n        /* \"ChildLabourDataManagement.sol\":11512:11605  NewViolationReport(reportCount, msg.sender, block.timestamp, bytes32(bytes(_reportIPFSHash))) */\n      0x681f3195132986285e497b66d82a1d87dee04fe482a1e74020677b543e3f7c40\n        /* \"ChildLabourDataManagement.sol\":11544:11554  msg.sender */\n      caller\n        /* \"ChildLabourDataManagement.sol\":11556:11571  block.timestamp */\n      timestamp\n        /* \"ChildLabourDataManagement.sol\":11573:11604  bytes32(bytes(_reportIPFSHash)) */\n      tag_333\n        /* \"ChildLabourDataManagement.sol\":11587:11602  _reportIPFSHash */\n      dup9\n        /* \"ChildLabourDataManagement.sol\":11573:11604  bytes32(bytes(_reportIPFSHash)) */\n      tag_330\n      jump\t// in\n    tag_333:\n        /* \"ChildLabourDataManagement.sol\":11512:11605  NewViolationReport(reportCount, msg.sender, block.timestamp, bytes32(bytes(_reportIPFSHash))) */\n      0x40\n      dup1\n      mload\n      sub(shl(0xa0, 0x01), 0x01)\n        /* \"#utility.yul\":4111:4143   */\n      swap1\n      swap5\n      and\n        /* \"#utility.yul\":4093:4144   */\n      dup5\n      mstore\n        /* \"#utility.yul\":4175:4177   */\n      0x20\n        /* \"#utility.yul\":4160:4178   */\n      dup5\n      add\n        /* \"#utility.yul\":4153:4187   */\n      swap3\n      swap1\n      swap3\n      mstore\n        /* \"#utility.yul\":4203:4221   */\n      swap1\n      dup3\n      add\n        /* \"#utility.yul\":4196:4230   */\n      mstore\n        /* \"#utility.yul\":4081:4083   */\n      0x60\n        /* \"#utility.yul\":4066:4084   */\n      add\n        /* \"ChildLabourDataManagement.sol\":11512:11605  NewViolationReport(reportCount, msg.sender, block.timestamp, bytes32(bytes(_reportIPFSHash))) */\n      tag_172\n        /* \"#utility.yul\":3891:4236   */\n      jump\n        /* \"ChildLabourDataManagement.sol\":20202:20396  function updateVerifier(address _verifier) public onlyRegulatoryAuthority{... */\n    tag_96:\n        /* \"ChildLabourDataManagement.sol\":8021:8056  IRegistration.EntityType entitytype */\n      0x00\n        /* \"ChildLabourDataManagement.sol\":8079:8091  Registration */\n      dup1\n      sload\n        /* \"ChildLabourDataManagement.sol\":8079:8113  Registration.getEntity(msg.sender) */\n      mload(0x40)\n      shl(0xe2, 0x1d6253a3)\n      dup2\n      mstore\n        /* \"ChildLabourDataManagement.sol\":8102:8112  msg.sender */\n      caller\n        /* \"ChildLabourDataManagement.sol\":8079:8113  Registration.getEntity(msg.sender) */\n      0x04\n      dup3\n      add\n        /* \"#utility.yul\":3829:3880   */\n      mstore\n        /* \"ChildLabourDataManagement.sol\":8021:8056  IRegistration.EntityType entitytype */\n      dup3\n      swap2\n      sub(shl(0xa0, 0x01), 0x01)\n        /* \"ChildLabourDataManagement.sol\":8079:8091  Registration */\n      and\n      swap1\n        /* \"ChildLabourDataManagement.sol\":8079:8101  Registration.getEntity */\n      0x75894e8c\n      swap1\n        /* \"#utility.yul\":3802:3820   */\n      0x24\n      add\n        /* \"ChildLabourDataManagement.sol\":8079:8113  Registration.getEntity(msg.sender) */\n      0x40\n      dup1\n      mload\n      dup1\n      dup4\n      sub\n      dup2\n      0x00\n      dup8\n      gas\n      call\n      iszero\n      dup1\n      iszero\n      tag_338\n      jumpi\n      returndatasize\n      0x00\n      dup1\n      returndatacopy\n      revert(0x00, returndatasize)\n    tag_338:\n      pop\n      pop\n      pop\n      pop\n      mload(0x40)\n      returndatasize\n      not(0x1f)\n      0x1f\n      dup3\n      add\n      and\n      dup3\n      add\n      dup1\n      0x40\n      mstore\n      pop\n      dup2\n      add\n      swap1\n      tag_339\n      swap2\n      swap1\n      tag_138\n      jump\t// in\n    tag_339:\n        /* \"ChildLabourDataManagement.sol\":8020:8113  (IRegistration.EntityType entitytype, bool isRegistered) = Registration.getEntity(msg.sender) */\n      swap1\n      swap3\n      pop\n      swap1\n      pop\n        /* \"ChildLabourDataManagement.sol\":8146:8190  IRegistration.EntityType.RegulatoryAuthority */\n      0x01\n        /* \"ChildLabourDataManagement.sol\":8132:8142  entitytype */\n      dup3\n        /* \"ChildLabourDataManagement.sol\":8132:8190  entitytype == IRegistration.EntityType.RegulatoryAuthority */\n      0x06\n      dup2\n      gt\n      iszero\n      tag_343\n      jumpi\n      tag_343\n      tag_141\n      jump\t// in\n    tag_343:\n      eq\n        /* \"ChildLabourDataManagement.sol\":8132:8206  entitytype == IRegistration.EntityType.RegulatoryAuthority && isRegistered */\n      dup1\n      iszero\n      tag_344\n      jumpi\n      pop\n        /* \"ChildLabourDataManagement.sol\":8194:8206  isRegistered */\n      dup1\n        /* \"ChildLabourDataManagement.sol\":8132:8206  entitytype == IRegistration.EntityType.RegulatoryAuthority && isRegistered */\n    tag_344:\n        /* \"ChildLabourDataManagement.sol\":8124:8262  require(entitytype == IRegistration.EntityType.RegulatoryAuthority && isRegistered, \"Only the regulatory authority can run this function\") */\n      tag_345\n      jumpi\n      mload(0x40)\n      shl(0xe5, 0x461bcd)\n      dup2\n      mstore\n      0x04\n      add\n      tag_146\n      swap1\n      tag_310\n      jump\t// in\n    tag_345:\n        /* \"ChildLabourDataManagement.sol\":20286:20294  Verifier */\n      0x01\n        /* \"ChildLabourDataManagement.sol\":20286:20317  Verifier = IVerifier(_verifier) */\n      dup1\n      sload\n      not(sub(shl(0xa0, 0x01), 0x01))\n      and\n      sub(shl(0xa0, 0x01), 0x01)\n      dup6\n      and\n      swap1\n      dup2\n      or\n      swap1\n      swap2\n      sstore\n        /* \"ChildLabourDataManagement.sol\":20333:20388  VerifierUpdated(msg.sender, _verifier, block.timestamp) */\n      0x40\n      dup1\n      mload\n        /* \"ChildLabourDataManagement.sol\":20349:20359  msg.sender */\n      caller\n        /* \"#utility.yul\":18566:18600   */\n      dup2\n      mstore\n        /* \"#utility.yul\":18631:18633   */\n      0x20\n        /* \"#utility.yul\":18616:18634   */\n      dup2\n      add\n        /* \"#utility.yul\":18609:18652   */\n      swap3\n      swap1\n      swap3\n      mstore\n        /* \"ChildLabourDataManagement.sol\":20372:20387  block.timestamp */\n      timestamp\n        /* \"#utility.yul\":18668:18686   */\n      swap1\n      dup3\n      add\n        /* \"#utility.yul\":18661:18695   */\n      mstore\n        /* \"ChildLabourDataManagement.sol\":20333:20388  VerifierUpdated(msg.sender, _verifier, block.timestamp) */\n      0xd64ae07f3ddea489022b7c3651c0b93cc96296695feac84461061dfa1f34c0cb\n      swap1\n        /* \"#utility.yul\":18516:18518   */\n      0x60\n        /* \"#utility.yul\":18501:18519   */\n      add\n        /* \"ChildLabourDataManagement.sol\":20333:20388  VerifierUpdated(msg.sender, _verifier, block.timestamp) */\n      tag_149\n        /* \"#utility.yul\":18326:18701   */\n      jump\n        /* \"ChildLabourDataManagement.sol\":16222:17237  function startRemediation(uint256 _violationReportId, uint256 _childId, uint256 _daysToRemediate) public onlyGuardian(_childId) {... */\n    tag_100:\n        /* \"ChildLabourDataManagement.sol\":9236:9271  IRegistration.EntityType entitytype */\n      0x00\n        /* \"ChildLabourDataManagement.sol\":9294:9306  Registration */\n      dup1\n      sload\n        /* \"ChildLabourDataManagement.sol\":9294:9328  Registration.getEntity(msg.sender) */\n      mload(0x40)\n      shl(0xe2, 0x1d6253a3)\n      dup2\n      mstore\n        /* \"ChildLabourDataManagement.sol\":9317:9327  msg.sender */\n      caller\n        /* \"ChildLabourDataManagement.sol\":9294:9328  Registration.getEntity(msg.sender) */\n      0x04\n      dup3\n      add\n        /* \"#utility.yul\":3829:3880   */\n      mstore\n        /* \"ChildLabourDataManagement.sol\":16340:16348  _childId */\n      dup5\n      swap3\n        /* \"ChildLabourDataManagement.sol\":9236:9271  IRegistration.EntityType entitytype */\n      swap2\n      dup3\n      swap2\n      sub(shl(0xa0, 0x01), 0x01)\n        /* \"ChildLabourDataManagement.sol\":9294:9306  Registration */\n      swap1\n      swap2\n      and\n      swap1\n        /* \"ChildLabourDataManagement.sol\":9294:9316  Registration.getEntity */\n      0x75894e8c\n      swap1\n        /* \"#utility.yul\":3802:3820   */\n      0x24\n      add\n        /* \"ChildLabourDataManagement.sol\":9294:9328  Registration.getEntity(msg.sender) */\n      0x40\n      dup1\n      mload\n      dup1\n      dup4\n      sub\n      dup2\n      0x00\n      dup8\n      gas\n      call\n      iszero\n      dup1\n      iszero\n      tag_352\n      jumpi\n      returndatasize\n      0x00\n      dup1\n      returndatacopy\n      revert(0x00, returndatasize)\n    tag_352:\n      pop\n      pop\n      pop\n      pop\n      mload(0x40)\n      returndatasize\n      not(0x1f)\n      0x1f\n      dup3\n      add\n      and\n      dup3\n      add\n      dup1\n      0x40\n      mstore\n      pop\n      dup2\n      add\n      swap1\n      tag_353\n      swap2\n      swap1\n      tag_138\n      jump\t// in\n    tag_353:\n        /* \"ChildLabourDataManagement.sol\":9235:9328  (IRegistration.EntityType entitytype, bool isRegistered) = Registration.getEntity(msg.sender) */\n      swap1\n      swap3\n      pop\n      swap1\n      pop\n        /* \"ChildLabourDataManagement.sol\":9361:9394  IRegistration.EntityType.Guardian */\n      0x05\n        /* \"ChildLabourDataManagement.sol\":9347:9357  entitytype */\n      dup3\n        /* \"ChildLabourDataManagement.sol\":9347:9394  entitytype == IRegistration.EntityType.Guardian */\n      0x06\n      dup2\n      gt\n      iszero\n      tag_357\n      jumpi\n      tag_357\n      tag_141\n      jump\t// in\n    tag_357:\n      eq\n        /* \"ChildLabourDataManagement.sol\":9347:9410  entitytype == IRegistration.EntityType.Guardian && isRegistered */\n      dup1\n      iszero\n      tag_358\n      jumpi\n      pop\n        /* \"ChildLabourDataManagement.sol\":9398:9410  isRegistered */\n      dup1\n        /* \"ChildLabourDataManagement.sol\":9347:9410  entitytype == IRegistration.EntityType.Guardian && isRegistered */\n    tag_358:\n        /* \"ChildLabourDataManagement.sol\":9339:9460  require(entitytype == IRegistration.EntityType.Guardian && isRegistered, \"Only the Child Guardian can run this function\") */\n      tag_359\n      jumpi\n      mload(0x40)\n      shl(0xe5, 0x461bcd)\n      dup2\n      mstore\n      0x04\n      add\n      tag_146\n      swap1\n      tag_202\n      jump\t// in\n    tag_359:\n        /* \"ChildLabourDataManagement.sol\":9479:9509  childRemediationData[_childId] */\n      0x00\n      dup4\n      dup2\n      mstore\n        /* \"ChildLabourDataManagement.sol\":9479:9499  childRemediationData */\n      0x08\n        /* \"ChildLabourDataManagement.sol\":9479:9509  childRemediationData[_childId] */\n      0x20\n      mstore\n      0x40\n      swap1\n      keccak256\n        /* \"ChildLabourDataManagement.sol\":9479:9518  childRemediationData[_childId].guardian */\n      sload\n      sub(shl(0xa0, 0x01), 0x01)\n      and\n        /* \"ChildLabourDataManagement.sol\":9522:9532  msg.sender */\n      caller\n        /* \"ChildLabourDataManagement.sol\":9479:9532  childRemediationData[_childId].guardian == msg.sender */\n      eq\n        /* \"ChildLabourDataManagement.sol\":9471:9599  require(childRemediationData[_childId].guardian == msg.sender, \"Only the assigned Guardian to this child can run this function\") */\n      tag_361\n      jumpi\n      mload(0x40)\n      shl(0xe5, 0x461bcd)\n      dup2\n      mstore\n      0x04\n      add\n      tag_146\n      swap1\n      tag_205\n      jump\t// in\n    tag_361:\n        /* \"ChildLabourDataManagement.sol\":16361:16400  ChildRemediation memory remediationdata */\n      0x00\n        /* \"ChildLabourDataManagement.sol\":16403:16433  childRemediationData[_childId] */\n      dup6\n      dup2\n      mstore\n        /* \"ChildLabourDataManagement.sol\":16403:16423  childRemediationData */\n      0x08\n        /* \"ChildLabourDataManagement.sol\":16403:16433  childRemediationData[_childId] */\n      0x20\n      swap1\n      dup2\n      mstore\n      0x40\n      dup1\n      dup4\n      keccak256\n        /* \"ChildLabourDataManagement.sol\":16361:16433  ChildRemediation memory remediationdata = childRemediationData[_childId] */\n      dup2\n      mload\n      0xe0\n      dup2\n      add\n      dup4\n      mstore\n      dup2\n      sload\n      sub(shl(0xa0, 0x01), 0x01)\n      and\n      dup2\n      mstore\n      0x01\n      dup3\n      add\n      sload\n      swap4\n      dup2\n      add\n      swap4\n      swap1\n      swap4\n      mstore\n      0x02\n      dup2\n      add\n      sload\n      swap2\n      dup4\n      add\n      swap2\n      swap1\n      swap2\n      mstore\n      0x03\n      dup1\n      dup3\n      add\n      sload\n      0x60\n      dup5\n      add\n      mstore\n      0x04\n      dup3\n      add\n      sload\n      0x80\n      dup5\n      add\n      mstore\n      0x05\n      dup3\n      add\n      sload\n      0xa0\n      dup5\n      add\n      mstore\n      0x06\n      dup3\n      add\n      sload\n      0xc0\n      dup5\n      add\n      swap2\n      0xff\n      swap1\n      swap2\n      and\n      swap1\n      dup2\n      gt\n      iszero\n      tag_365\n      jumpi\n      tag_365\n      tag_141\n      jump\t// in\n    tag_365:\n      0x03\n      dup2\n      gt\n      iszero\n      tag_367\n      jumpi\n      tag_367\n      tag_141\n      jump\t// in\n    tag_367:\n      swap1\n      mstore\n      pop\n      swap1\n      pop\n        /* \"ChildLabourDataManagement.sol\":16474:16475  1 */\n      0x01\n        /* \"ChildLabourDataManagement.sol\":16452:16475  _violationReportId >= 1 */\n      dup8\n      lt\n      dup1\n      iszero\n      swap1\n        /* \"ChildLabourDataManagement.sol\":16452:16512  _violationReportId >= 1 && _violationReportId <= reportCount */\n      tag_368\n      jumpi\n      pop\n        /* \"ChildLabourDataManagement.sol\":16501:16512  reportCount */\n      sload(0x02)\n        /* \"ChildLabourDataManagement.sol\":16479:16497  _violationReportId */\n      dup8\n        /* \"ChildLabourDataManagement.sol\":16479:16512  _violationReportId <= reportCount */\n      gt\n      iszero\n        /* \"ChildLabourDataManagement.sol\":16452:16512  _violationReportId >= 1 && _violationReportId <= reportCount */\n    tag_368:\n        /* \"ChildLabourDataManagement.sol\":16444:16534  require(_violationReportId >= 1 && _violationReportId <= reportCount, \"Invalid Report ID\") */\n      tag_369\n      jumpi\n      mload(0x40)\n      shl(0xe5, 0x461bcd)\n      dup2\n      mstore\n      0x04\n      add\n      tag_146\n      swap1\n      tag_168\n      jump\t// in\n    tag_369:\n        /* \"ChildLabourDataManagement.sol\":16565:16566  1 */\n      0x01\n        /* \"ChildLabourDataManagement.sol\":16553:16561  _childId */\n      dup7\n        /* \"ChildLabourDataManagement.sol\":16553:16566  _childId >= 1 */\n      lt\n      iszero\n        /* \"ChildLabourDataManagement.sol\":16553:16621  _childId >= 1 && _childId <= reportChildrenCount[_violationReportId] */\n      dup1\n      iszero\n      tag_371\n      jumpi\n      pop\n        /* \"ChildLabourDataManagement.sol\":16582:16621  reportChildrenCount[_violationReportId] */\n      0x00\n      dup8\n      dup2\n      mstore\n        /* \"ChildLabourDataManagement.sol\":16582:16601  reportChildrenCount */\n      0x07\n        /* \"ChildLabourDataManagement.sol\":16582:16621  reportChildrenCount[_violationReportId] */\n      0x20\n      mstore\n      0x40\n      swap1\n      keccak256\n      sload\n        /* \"ChildLabourDataManagement.sol\":16570:16621  _childId <= reportChildrenCount[_violationReportId] */\n      dup7\n      gt\n      iszero\n        /* \"ChildLabourDataManagement.sol\":16553:16621  _childId >= 1 && _childId <= reportChildrenCount[_violationReportId] */\n    tag_371:\n        /* \"ChildLabourDataManagement.sol\":16545:16642  require(_childId >= 1 && _childId <= reportChildrenCount[_violationReportId], \"Invalid Child ID\") */\n      tag_372\n      jumpi\n      mload(0x40)\n      shl(0xe5, 0x461bcd)\n      dup2\n      mstore\n      0x04\n      add\n      tag_146\n      swap1\n      tag_214\n      jump\t// in\n    tag_372:\n        /* \"ChildLabourDataManagement.sol\":16687:16715  ChildStatus.GuardianAssigned */\n      0x01\n        /* \"ChildLabourDataManagement.sol\":16661:16676  remediationdata */\n      dup2\n        /* \"ChildLabourDataManagement.sol\":16661:16683  remediationdata.status */\n      0xc0\n      add\n      mload\n        /* \"ChildLabourDataManagement.sol\":16661:16715  remediationdata.status == ChildStatus.GuardianAssigned */\n      0x03\n      dup2\n      gt\n      iszero\n      tag_377\n      jumpi\n      tag_377\n      tag_141\n      jump\t// in\n    tag_377:\n      eq\n        /* \"ChildLabourDataManagement.sol\":16653:16759  require(remediationdata.status == ChildStatus.GuardianAssigned, \"This child is not ready for remediation\") */\n      tag_378\n      jumpi\n      mload(0x40)\n      shl(0xe5, 0x461bcd)\n      dup2\n      mstore\n        /* \"#utility.yul\":19762:19764   */\n      0x20\n        /* \"ChildLabourDataManagement.sol\":16653:16759  require(remediationdata.status == ChildStatus.GuardianAssigned, \"This child is not ready for remediation\") */\n      0x04\n      dup3\n      add\n        /* \"#utility.yul\":19744:19765   */\n      mstore\n        /* \"#utility.yul\":19801:19803   */\n      0x27\n        /* \"#utility.yul\":19781:19799   */\n      0x24\n      dup3\n      add\n        /* \"#utility.yul\":19774:19804   */\n      mstore\n        /* \"#utility.yul\":19840:19874   */\n      0x54686973206368696c64206973206e6f7420726561647920666f722072656d65\n        /* \"#utility.yul\":19820:19838   */\n      0x44\n      dup3\n      add\n        /* \"#utility.yul\":19813:19875   */\n      mstore\n      shl(0xc9, 0x3234b0ba34b7b7)\n        /* \"#utility.yul\":19891:19909   */\n      0x64\n      dup3\n      add\n        /* \"#utility.yul\":19884:19921   */\n      mstore\n        /* \"#utility.yul\":19938:19957   */\n      0x84\n      add\n        /* \"ChildLabourDataManagement.sol\":16653:16759  require(remediationdata.status == ChildStatus.GuardianAssigned, \"This child is not ready for remediation\") */\n      tag_146\n        /* \"#utility.yul\":19560:19963   */\n      jump\n        /* \"ChildLabourDataManagement.sol\":16653:16759  require(remediationdata.status == ChildStatus.GuardianAssigned, \"This child is not ready for remediation\") */\n    tag_378:\n        /* \"ChildLabourDataManagement.sol\":16772:16802  childRemediationData[_childId] */\n      0x00\n      dup7\n      dup2\n      mstore\n        /* \"ChildLabourDataManagement.sol\":16772:16792  childRemediationData */\n      0x08\n        /* \"ChildLabourDataManagement.sol\":16772:16802  childRemediationData[_childId] */\n      0x20\n      mstore\n      0x40\n      swap1\n      keccak256\n        /* \"ChildLabourDataManagement.sol\":16772:16809  childRemediationData[_childId].status */\n      0x06\n      dup2\n      add\n        /* \"ChildLabourDataManagement.sol\":16772:16837  childRemediationData[_childId].status = ChildStatus.InRemediation */\n      dup1\n      sload\n      not(0xff)\n      and\n        /* \"ChildLabourDataManagement.sol\":16812:16837  ChildStatus.InRemediation */\n      0x02\n        /* \"ChildLabourDataManagement.sol\":16772:16837  childRemediationData[_childId].status = ChildStatus.InRemediation */\n      swap1\n      dup2\n      or\n      swap1\n      swap2\n      sstore\n        /* \"ChildLabourDataManagement.sol\":16898:16913  block.timestamp */\n      timestamp\n        /* \"ChildLabourDataManagement.sol\":16848:16895  childRemediationData[_childId].remediationStart */\n      swap2\n      add\n        /* \"ChildLabourDataManagement.sol\":16848:16913  childRemediationData[_childId].remediationStart = block.timestamp */\n      sstore\n        /* \"ChildLabourDataManagement.sol\":16997:17025  _daysToRemediate * 1 seconds */\n      tag_383\n        /* \"ChildLabourDataManagement.sol\":16997:17013  _daysToRemediate */\n      dup6\n        /* \"ChildLabourDataManagement.sol\":16772:16837  childRemediationData[_childId].status = ChildStatus.InRemediation */\n      0x01\n        /* \"ChildLabourDataManagement.sol\":16997:17025  _daysToRemediate * 1 seconds */\n      tag_384\n      jump\t// in\n    tag_383:\n        /* \"ChildLabourDataManagement.sol\":16979:17025  block.timestamp + _daysToRemediate * 1 seconds */\n      tag_385\n      swap1\n        /* \"ChildLabourDataManagement.sol\":16979:16994  block.timestamp */\n      timestamp\n        /* \"ChildLabourDataManagement.sol\":16979:17025  block.timestamp + _daysToRemediate * 1 seconds */\n      tag_332\n      jump\t// in\n    tag_385:\n        /* \"ChildLabourDataManagement.sol\":16924:16954  childRemediationData[_childId] */\n      0x00\n      dup8\n      dup2\n      mstore\n        /* \"ChildLabourDataManagement.sol\":16924:16944  childRemediationData */\n      0x08\n        /* \"ChildLabourDataManagement.sol\":16924:16954  childRemediationData[_childId] */\n      0x20\n      mstore\n      0x40\n      swap1\n      keccak256\n        /* \"ChildLabourDataManagement.sol\":16924:16976  childRemediationData[_childId].remediationCompletion */\n      0x03\n      dup2\n      add\n        /* \"ChildLabourDataManagement.sol\":16924:17025  childRemediationData[_childId].remediationCompletion = block.timestamp + _daysToRemediate * 1 seconds */\n      swap2\n      swap1\n      swap2\n      sstore\n        /* \"ChildLabourDataManagement.sol\":17081:17096  block.timestamp */\n      timestamp\n        /* \"ChildLabourDataManagement.sol\":17036:17078  childRemediationData[_childId].lastUpdated */\n      0x04\n      swap1\n      swap2\n      add\n        /* \"ChildLabourDataManagement.sol\":17036:17096  childRemediationData[_childId].lastUpdated = block.timestamp */\n      dup2\n      swap1\n      sstore\n        /* \"ChildLabourDataManagement.sol\":17114:17229  RemediationStarted(_violationReportId, _childId, block.timestamp, (block.timestamp + _daysToRemediate * 1 seconds)) */\n      0x29dc036766d8e77f495b0b42f18a239419af9f8dd528d84e1251663aa6da16c9\n      swap1\n        /* \"ChildLabourDataManagement.sol\":17133:17151  _violationReportId */\n      dup9\n      swap1\n        /* \"ChildLabourDataManagement.sol\":16945:16953  _childId */\n      dup9\n      swap1\n        /* \"ChildLabourDataManagement.sol\":17199:17227  _daysToRemediate * 1 seconds */\n      tag_386\n        /* \"ChildLabourDataManagement.sol\":17199:17215  _daysToRemediate */\n      dup10\n        /* \"ChildLabourDataManagement.sol\":17218:17227  1 seconds */\n      0x01\n        /* \"ChildLabourDataManagement.sol\":17199:17227  _daysToRemediate * 1 seconds */\n      tag_384\n      jump\t// in\n    tag_386:\n        /* \"ChildLabourDataManagement.sol\":17181:17227  block.timestamp + _daysToRemediate * 1 seconds */\n      tag_387\n      swap1\n        /* \"ChildLabourDataManagement.sol\":17181:17196  block.timestamp */\n      timestamp\n        /* \"ChildLabourDataManagement.sol\":17181:17227  block.timestamp + _daysToRemediate * 1 seconds */\n      tag_332\n      jump\t// in\n    tag_387:\n        /* \"ChildLabourDataManagement.sol\":17114:17229  RemediationStarted(_violationReportId, _childId, block.timestamp, (block.timestamp + _daysToRemediate * 1 seconds)) */\n      0x40\n      dup1\n      mload\n        /* \"#utility.yul\":20372:20397   */\n      swap5\n      dup6\n      mstore\n        /* \"#utility.yul\":20428:20430   */\n      0x20\n        /* \"#utility.yul\":20413:20431   */\n      dup6\n      add\n        /* \"#utility.yul\":20406:20440   */\n      swap4\n      swap1\n      swap4\n      mstore\n        /* \"#utility.yul\":20456:20474   */\n      swap2\n      dup4\n      add\n        /* \"#utility.yul\":20449:20483   */\n      mstore\n        /* \"#utility.yul\":20514:20516   */\n      0x60\n        /* \"#utility.yul\":20499:20517   */\n      dup3\n      add\n        /* \"#utility.yul\":20492:20526   */\n      mstore\n        /* \"#utility.yul\":20359:20362   */\n      0x80\n        /* \"#utility.yul\":20344:20363   */\n      add\n        /* \"ChildLabourDataManagement.sol\":17114:17229  RemediationStarted(_violationReportId, _childId, block.timestamp, (block.timestamp + _daysToRemediate * 1 seconds)) */\n      tag_264\n        /* \"#utility.yul\":20141:20532   */\n      jump\n        /* \"ChildLabourDataManagement.sol\":18858:19449  function getChildStatus(uint256 _violationReportId, uint256 _childId) public onlyRegulatoryAuthority returns(ChildStatus, uint256, uint256, uint256){... */\n    tag_108:\n        /* \"ChildLabourDataManagement.sol\":18967:18978  ChildStatus */\n      0x00\n        /* \"ChildLabourDataManagement.sol\":8079:8091  Registration */\n      dup1\n      sload\n        /* \"ChildLabourDataManagement.sol\":8079:8113  Registration.getEntity(msg.sender) */\n      mload(0x40)\n      shl(0xe2, 0x1d6253a3)\n      dup2\n      mstore\n        /* \"ChildLabourDataManagement.sol\":8102:8112  msg.sender */\n      caller\n        /* \"ChildLabourDataManagement.sol\":8079:8113  Registration.getEntity(msg.sender) */\n      0x04\n      dup3\n      add\n        /* \"#utility.yul\":3829:3880   */\n      mstore\n        /* \"ChildLabourDataManagement.sol\":18967:18978  ChildStatus */\n      dup3\n      swap2\n      dup3\n      swap2\n      dup3\n      swap2\n      dup3\n      swap2\n      dup3\n      swap2\n      sub(shl(0xa0, 0x01), 0x01)\n        /* \"ChildLabourDataManagement.sol\":8079:8091  Registration */\n      and\n      swap1\n        /* \"ChildLabourDataManagement.sol\":8079:8101  Registration.getEntity */\n      0x75894e8c\n      swap1\n        /* \"#utility.yul\":3802:3820   */\n      0x24\n      add\n        /* \"ChildLabourDataManagement.sol\":8079:8113  Registration.getEntity(msg.sender) */\n      0x40\n      dup1\n      mload\n      dup1\n      dup4\n      sub\n      dup2\n      0x00\n      dup8\n      gas\n      call\n      iszero\n      dup1\n      iszero\n      tag_393\n      jumpi\n      returndatasize\n      0x00\n      dup1\n      returndatacopy\n      revert(0x00, returndatasize)\n    tag_393:\n      pop\n      pop\n      pop\n      pop\n      mload(0x40)\n      returndatasize\n      not(0x1f)\n      0x1f\n      dup3\n      add\n      and\n      dup3\n      add\n      dup1\n      0x40\n      mstore\n      pop\n      dup2\n      add\n      swap1\n      tag_394\n      swap2\n      swap1\n      tag_138\n      jump\t// in\n    tag_394:\n        /* \"ChildLabourDataManagement.sol\":8020:8113  (IRegistration.EntityType entitytype, bool isRegistered) = Registration.getEntity(msg.sender) */\n      swap1\n      swap3\n      pop\n      swap1\n      pop\n        /* \"ChildLabourDataManagement.sol\":8146:8190  IRegistration.EntityType.RegulatoryAuthority */\n      0x01\n        /* \"ChildLabourDataManagement.sol\":8132:8142  entitytype */\n      dup3\n        /* \"ChildLabourDataManagement.sol\":8132:8190  entitytype == IRegistration.EntityType.RegulatoryAuthority */\n      0x06\n      dup2\n      gt\n      iszero\n      tag_398\n      jumpi\n      tag_398\n      tag_141\n      jump\t// in\n    tag_398:\n      eq\n        /* \"ChildLabourDataManagement.sol\":8132:8206  entitytype == IRegistration.EntityType.RegulatoryAuthority && isRegistered */\n      dup1\n      iszero\n      tag_399\n      jumpi\n      pop\n        /* \"ChildLabourDataManagement.sol\":8194:8206  isRegistered */\n      dup1\n        /* \"ChildLabourDataManagement.sol\":8132:8206  entitytype == IRegistration.EntityType.RegulatoryAuthority && isRegistered */\n    tag_399:\n        /* \"ChildLabourDataManagement.sol\":8124:8262  require(entitytype == IRegistration.EntityType.RegulatoryAuthority && isRegistered, \"Only the regulatory authority can run this function\") */\n      tag_400\n      jumpi\n      mload(0x40)\n      shl(0xe5, 0x461bcd)\n      dup2\n      mstore\n      0x04\n      add\n      tag_146\n      swap1\n      tag_310\n      jump\t// in\n    tag_400:\n        /* \"ChildLabourDataManagement.sol\":19017:19056  ChildRemediation memory remediationdata */\n      0x00\n        /* \"ChildLabourDataManagement.sol\":19059:19089  childRemediationData[_childId] */\n      dup8\n      dup2\n      mstore\n        /* \"ChildLabourDataManagement.sol\":19059:19079  childRemediationData */\n      0x08\n        /* \"ChildLabourDataManagement.sol\":19059:19089  childRemediationData[_childId] */\n      0x20\n      swap1\n      dup2\n      mstore\n      0x40\n      dup1\n      dup4\n      keccak256\n        /* \"ChildLabourDataManagement.sol\":19017:19089  ChildRemediation memory remediationdata = childRemediationData[_childId] */\n      dup2\n      mload\n      0xe0\n      dup2\n      add\n      dup4\n      mstore\n      dup2\n      sload\n      sub(shl(0xa0, 0x01), 0x01)\n      and\n      dup2\n      mstore\n      0x01\n      dup3\n      add\n      sload\n      swap4\n      dup2\n      add\n      swap4\n      swap1\n      swap4\n      mstore\n      0x02\n      dup2\n      add\n      sload\n      swap2\n      dup4\n      add\n      swap2\n      swap1\n      swap2\n      mstore\n      0x03\n      dup1\n      dup3\n      add\n      sload\n      0x60\n      dup5\n      add\n      mstore\n      0x04\n      dup3\n      add\n      sload\n      0x80\n      dup5\n      add\n      mstore\n      0x05\n      dup3\n      add\n      sload\n      0xa0\n      dup5\n      add\n      mstore\n      0x06\n      dup3\n      add\n      sload\n      0xc0\n      dup5\n      add\n      swap2\n      0xff\n      swap1\n      swap2\n      and\n      swap1\n      dup2\n      gt\n      iszero\n      tag_404\n      jumpi\n      tag_404\n      tag_141\n      jump\t// in\n    tag_404:\n      0x03\n      dup2\n      gt\n      iszero\n      tag_406\n      jumpi\n      tag_406\n      tag_141\n      jump\t// in\n    tag_406:\n      swap1\n      mstore\n      pop\n      swap1\n      pop\n        /* \"ChildLabourDataManagement.sol\":19130:19131  1 */\n      0x01\n        /* \"ChildLabourDataManagement.sol\":19108:19131  _violationReportId >= 1 */\n      dup10\n      lt\n      dup1\n      iszero\n      swap1\n        /* \"ChildLabourDataManagement.sol\":19108:19168  _violationReportId >= 1 && _violationReportId <= reportCount */\n      tag_407\n      jumpi\n      pop\n        /* \"ChildLabourDataManagement.sol\":19157:19168  reportCount */\n      sload(0x02)\n        /* \"ChildLabourDataManagement.sol\":19135:19153  _violationReportId */\n      dup10\n        /* \"ChildLabourDataManagement.sol\":19135:19168  _violationReportId <= reportCount */\n      gt\n      iszero\n        /* \"ChildLabourDataManagement.sol\":19108:19168  _violationReportId >= 1 && _violationReportId <= reportCount */\n    tag_407:\n        /* \"ChildLabourDataManagement.sol\":19100:19190  require(_violationReportId >= 1 && _violationReportId <= reportCount, \"Invalid Report ID\") */\n      tag_408\n      jumpi\n      mload(0x40)\n      shl(0xe5, 0x461bcd)\n      dup2\n      mstore\n      0x04\n      add\n      tag_146\n      swap1\n      tag_168\n      jump\t// in\n    tag_408:\n        /* \"ChildLabourDataManagement.sol\":19221:19222  1 */\n      0x01\n        /* \"ChildLabourDataManagement.sol\":19209:19217  _childId */\n      dup9\n        /* \"ChildLabourDataManagement.sol\":19209:19222  _childId >= 1 */\n      lt\n      iszero\n        /* \"ChildLabourDataManagement.sol\":19209:19277  _childId >= 1 && _childId <= reportChildrenCount[_violationReportId] */\n      dup1\n      iszero\n      tag_410\n      jumpi\n      pop\n        /* \"ChildLabourDataManagement.sol\":19238:19277  reportChildrenCount[_violationReportId] */\n      0x00\n      dup10\n      dup2\n      mstore\n        /* \"ChildLabourDataManagement.sol\":19238:19257  reportChildrenCount */\n      0x07\n        /* \"ChildLabourDataManagement.sol\":19238:19277  reportChildrenCount[_violationReportId] */\n      0x20\n      mstore\n      0x40\n      swap1\n      keccak256\n      sload\n        /* \"ChildLabourDataManagement.sol\":19226:19277  _childId <= reportChildrenCount[_violationReportId] */\n      dup9\n      gt\n      iszero\n        /* \"ChildLabourDataManagement.sol\":19209:19277  _childId >= 1 && _childId <= reportChildrenCount[_violationReportId] */\n    tag_410:\n        /* \"ChildLabourDataManagement.sol\":19201:19298  require(_childId >= 1 && _childId <= reportChildrenCount[_violationReportId], \"Invalid Child ID\") */\n      tag_411\n      jumpi\n      mload(0x40)\n      shl(0xe5, 0x461bcd)\n      dup2\n      mstore\n      0x04\n      add\n      tag_146\n      swap1\n      tag_214\n      jump\t// in\n    tag_411:\n        /* \"ChildLabourDataManagement.sol\":19316:19338  remediationdata.status */\n      0xc0\n      dup2\n      add\n      mload\n        /* \"ChildLabourDataManagement.sol\":19340:19367  remediationdata.lastUpdated */\n      0x80\n      dup3\n      add\n      mload\n        /* \"ChildLabourDataManagement.sol\":19369:19401  remediationdata.remediationStart */\n      0x40\n      dup4\n      add\n      mload\n        /* \"ChildLabourDataManagement.sol\":19403:19440  remediationdata.remediationCompletion */\n      0x60\n      swap1\n      swap4\n      add\n      mload\n        /* \"ChildLabourDataManagement.sol\":19316:19338  remediationdata.status */\n      swap2\n      swap12\n        /* \"ChildLabourDataManagement.sol\":19340:19367  remediationdata.lastUpdated */\n      swap1\n      swap11\n      pop\n        /* \"ChildLabourDataManagement.sol\":19369:19401  remediationdata.remediationStart */\n      swap2\n      swap9\n      pop\n        /* \"ChildLabourDataManagement.sol\":19403:19440  remediationdata.remediationCompletion */\n      swap7\n      pop\n        /* \"ChildLabourDataManagement.sol\":18858:19449  function getChildStatus(uint256 _violationReportId, uint256 _childId) public onlyRegulatoryAuthority returns(ChildStatus, uint256, uint256, uint256){... */\n      swap5\n      pop\n      pop\n      pop\n      pop\n      pop\n      jump\t// out\n        /* \"ChildLabourDataManagement.sol\":17245:18065  function remediationUpdate(uint256 _violationReportId, uint256 _childId, string memory _updateReport) public onlyGuardian(_childId){... */\n    tag_118:\n        /* \"ChildLabourDataManagement.sol\":9236:9271  IRegistration.EntityType entitytype */\n      0x00\n        /* \"ChildLabourDataManagement.sol\":9294:9306  Registration */\n      dup1\n      sload\n        /* \"ChildLabourDataManagement.sol\":9294:9328  Registration.getEntity(msg.sender) */\n      mload(0x40)\n      shl(0xe2, 0x1d6253a3)\n      dup2\n      mstore\n        /* \"ChildLabourDataManagement.sol\":9317:9327  msg.sender */\n      caller\n        /* \"ChildLabourDataManagement.sol\":9294:9328  Registration.getEntity(msg.sender) */\n      0x04\n      dup3\n      add\n        /* \"#utility.yul\":3829:3880   */\n      mstore\n        /* \"ChildLabourDataManagement.sol\":17367:17375  _childId */\n      dup5\n      swap3\n        /* \"ChildLabourDataManagement.sol\":9236:9271  IRegistration.EntityType entitytype */\n      swap2\n      dup3\n      swap2\n      sub(shl(0xa0, 0x01), 0x01)\n        /* \"ChildLabourDataManagement.sol\":9294:9306  Registration */\n      swap1\n      swap2\n      and\n      swap1\n        /* \"ChildLabourDataManagement.sol\":9294:9316  Registration.getEntity */\n      0x75894e8c\n      swap1\n        /* \"#utility.yul\":3802:3820   */\n      0x24\n      add\n        /* \"ChildLabourDataManagement.sol\":9294:9328  Registration.getEntity(msg.sender) */\n      0x40\n      dup1\n      mload\n      dup1\n      dup4\n      sub\n      dup2\n      0x00\n      dup8\n      gas\n      call\n      iszero\n      dup1\n      iszero\n      tag_416\n      jumpi\n      returndatasize\n      0x00\n      dup1\n      returndatacopy\n      revert(0x00, returndatasize)\n    tag_416:\n      pop\n      pop\n      pop\n      pop\n      mload(0x40)\n      returndatasize\n      not(0x1f)\n      0x1f\n      dup3\n      add\n      and\n      dup3\n      add\n      dup1\n      0x40\n      mstore\n      pop\n      dup2\n      add\n      swap1\n      tag_417\n      swap2\n      swap1\n      tag_138\n      jump\t// in\n    tag_417:\n        /* \"ChildLabourDataManagement.sol\":9235:9328  (IRegistration.EntityType entitytype, bool isRegistered) = Registration.getEntity(msg.sender) */\n      swap1\n      swap3\n      pop\n      swap1\n      pop\n        /* \"ChildLabourDataManagement.sol\":9361:9394  IRegistration.EntityType.Guardian */\n      0x05\n        /* \"ChildLabourDataManagement.sol\":9347:9357  entitytype */\n      dup3\n        /* \"ChildLabourDataManagement.sol\":9347:9394  entitytype == IRegistration.EntityType.Guardian */\n      0x06\n      dup2\n      gt\n      iszero\n      tag_421\n      jumpi\n      tag_421\n      tag_141\n      jump\t// in\n    tag_421:\n      eq\n        /* \"ChildLabourDataManagement.sol\":9347:9410  entitytype == IRegistration.EntityType.Guardian && isRegistered */\n      dup1\n      iszero\n      tag_422\n      jumpi\n      pop\n        /* \"ChildLabourDataManagement.sol\":9398:9410  isRegistered */\n      dup1\n        /* \"ChildLabourDataManagement.sol\":9347:9410  entitytype == IRegistration.EntityType.Guardian && isRegistered */\n    tag_422:\n        /* \"ChildLabourDataManagement.sol\":9339:9460  require(entitytype == IRegistration.EntityType.Guardian && isRegistered, \"Only the Child Guardian can run this function\") */\n      tag_423\n      jumpi\n      mload(0x40)\n      shl(0xe5, 0x461bcd)\n      dup2\n      mstore\n      0x04\n      add\n      tag_146\n      swap1\n      tag_202\n      jump\t// in\n    tag_423:\n        /* \"ChildLabourDataManagement.sol\":9479:9509  childRemediationData[_childId] */\n      0x00\n      dup4\n      dup2\n      mstore\n        /* \"ChildLabourDataManagement.sol\":9479:9499  childRemediationData */\n      0x08\n        /* \"ChildLabourDataManagement.sol\":9479:9509  childRemediationData[_childId] */\n      0x20\n      mstore\n      0x40\n      swap1\n      keccak256\n        /* \"ChildLabourDataManagement.sol\":9479:9518  childRemediationData[_childId].guardian */\n      sload\n      sub(shl(0xa0, 0x01), 0x01)\n      and\n        /* \"ChildLabourDataManagement.sol\":9522:9532  msg.sender */\n      caller\n        /* \"ChildLabourDataManagement.sol\":9479:9532  childRemediationData[_childId].guardian == msg.sender */\n      eq\n        /* \"ChildLabourDataManagement.sol\":9471:9599  require(childRemediationData[_childId].guardian == msg.sender, \"Only the assigned Guardian to this child can run this function\") */\n      tag_425\n      jumpi\n      mload(0x40)\n      shl(0xe5, 0x461bcd)\n      dup2\n      mstore\n      0x04\n      add\n      tag_146\n      swap1\n      tag_205\n      jump\t// in\n    tag_425:\n        /* \"ChildLabourDataManagement.sol\":17387:17426  ChildRemediation memory remediationdata */\n      0x00\n        /* \"ChildLabourDataManagement.sol\":17429:17459  childRemediationData[_childId] */\n      dup6\n      dup2\n      mstore\n        /* \"ChildLabourDataManagement.sol\":17429:17449  childRemediationData */\n      0x08\n        /* \"ChildLabourDataManagement.sol\":17429:17459  childRemediationData[_childId] */\n      0x20\n      swap1\n      dup2\n      mstore\n      0x40\n      dup1\n      dup4\n      keccak256\n        /* \"ChildLabourDataManagement.sol\":17387:17459  ChildRemediation memory remediationdata = childRemediationData[_childId] */\n      dup2\n      mload\n      0xe0\n      dup2\n      add\n      dup4\n      mstore\n      dup2\n      sload\n      sub(shl(0xa0, 0x01), 0x01)\n      and\n      dup2\n      mstore\n      0x01\n      dup3\n      add\n      sload\n      swap4\n      dup2\n      add\n      swap4\n      swap1\n      swap4\n      mstore\n      0x02\n      dup2\n      add\n      sload\n      swap2\n      dup4\n      add\n      swap2\n      swap1\n      swap2\n      mstore\n      0x03\n      dup1\n      dup3\n      add\n      sload\n      0x60\n      dup5\n      add\n      mstore\n      0x04\n      dup3\n      add\n      sload\n      0x80\n      dup5\n      add\n      mstore\n      0x05\n      dup3\n      add\n      sload\n      0xa0\n      dup5\n      add\n      mstore\n      0x06\n      dup3\n      add\n      sload\n      0xc0\n      dup5\n      add\n      swap2\n      0xff\n      swap1\n      swap2\n      and\n      swap1\n      dup2\n      gt\n      iszero\n      tag_429\n      jumpi\n      tag_429\n      tag_141\n      jump\t// in\n    tag_429:\n      0x03\n      dup2\n      gt\n      iszero\n      tag_431\n      jumpi\n      tag_431\n      tag_141\n      jump\t// in\n    tag_431:\n      swap1\n      mstore\n      pop\n      swap1\n      pop\n        /* \"ChildLabourDataManagement.sol\":17500:17501  1 */\n      0x01\n        /* \"ChildLabourDataManagement.sol\":17478:17501  _violationReportId >= 1 */\n      dup8\n      lt\n      dup1\n      iszero\n      swap1\n        /* \"ChildLabourDataManagement.sol\":17478:17538  _violationReportId >= 1 && _violationReportId <= reportCount */\n      tag_432\n      jumpi\n      pop\n        /* \"ChildLabourDataManagement.sol\":17527:17538  reportCount */\n      sload(0x02)\n        /* \"ChildLabourDataManagement.sol\":17505:17523  _violationReportId */\n      dup8\n        /* \"ChildLabourDataManagement.sol\":17505:17538  _violationReportId <= reportCount */\n      gt\n      iszero\n        /* \"ChildLabourDataManagement.sol\":17478:17538  _violationReportId >= 1 && _violationReportId <= reportCount */\n    tag_432:\n        /* \"ChildLabourDataManagement.sol\":17470:17560  require(_violationReportId >= 1 && _violationReportId <= reportCount, \"Invalid Report ID\") */\n      tag_433\n      jumpi\n      mload(0x40)\n      shl(0xe5, 0x461bcd)\n      dup2\n      mstore\n      0x04\n      add\n      tag_146\n      swap1\n      tag_168\n      jump\t// in\n    tag_433:\n        /* \"ChildLabourDataManagement.sol\":17591:17592  1 */\n      0x01\n        /* \"ChildLabourDataManagement.sol\":17579:17587  _childId */\n      dup7\n        /* \"ChildLabourDataManagement.sol\":17579:17592  _childId >= 1 */\n      lt\n      iszero\n        /* \"ChildLabourDataManagement.sol\":17579:17647  _childId >= 1 && _childId <= reportChildrenCount[_violationReportId] */\n      dup1\n      iszero\n      tag_435\n      jumpi\n      pop\n        /* \"ChildLabourDataManagement.sol\":17608:17647  reportChildrenCount[_violationReportId] */\n      0x00\n      dup8\n      dup2\n      mstore\n        /* \"ChildLabourDataManagement.sol\":17608:17627  reportChildrenCount */\n      0x07\n        /* \"ChildLabourDataManagement.sol\":17608:17647  reportChildrenCount[_violationReportId] */\n      0x20\n      mstore\n      0x40\n      swap1\n      keccak256\n      sload\n        /* \"ChildLabourDataManagement.sol\":17596:17647  _childId <= reportChildrenCount[_violationReportId] */\n      dup7\n      gt\n      iszero\n        /* \"ChildLabourDataManagement.sol\":17579:17647  _childId >= 1 && _childId <= reportChildrenCount[_violationReportId] */\n    tag_435:\n        /* \"ChildLabourDataManagement.sol\":17571:17668  require(_childId >= 1 && _childId <= reportChildrenCount[_violationReportId], \"Invalid Child ID\") */\n      tag_436\n      jumpi\n      mload(0x40)\n      shl(0xe5, 0x461bcd)\n      dup2\n      mstore\n      0x04\n      add\n      tag_146\n      swap1\n      tag_214\n      jump\t// in\n    tag_436:\n        /* \"ChildLabourDataManagement.sol\":17713:17738  ChildStatus.InRemediation */\n      0x02\n        /* \"ChildLabourDataManagement.sol\":17687:17702  remediationdata */\n      dup2\n        /* \"ChildLabourDataManagement.sol\":17687:17709  remediationdata.status */\n      0xc0\n      add\n      mload\n        /* \"ChildLabourDataManagement.sol\":17687:17738  remediationdata.status == ChildStatus.InRemediation */\n      0x03\n      dup2\n      gt\n      iszero\n      tag_441\n      jumpi\n      tag_441\n      tag_141\n      jump\t// in\n    tag_441:\n      eq\n        /* \"ChildLabourDataManagement.sol\":17679:17785  require(remediationdata.status == ChildStatus.InRemediation, \"This child is not currently in remediation\") */\n      tag_442\n      jumpi\n      mload(0x40)\n      shl(0xe5, 0x461bcd)\n      dup2\n      mstore\n      0x04\n      add\n      tag_146\n      swap1\n      tag_221\n      jump\t// in\n    tag_442:\n        /* \"ChildLabourDataManagement.sol\":17844:17873  bytes32(bytes(_updateReport)) */\n      tag_444\n        /* \"ChildLabourDataManagement.sol\":17858:17871  _updateReport */\n      dup6\n        /* \"ChildLabourDataManagement.sol\":17844:17873  bytes32(bytes(_updateReport)) */\n      tag_330\n      jump\t// in\n    tag_444:\n        /* \"ChildLabourDataManagement.sol\":17798:17828  childRemediationData[_childId] */\n      0x00\n      dup8\n      dup2\n      mstore\n        /* \"ChildLabourDataManagement.sol\":17798:17818  childRemediationData */\n      0x08\n        /* \"ChildLabourDataManagement.sol\":17798:17828  childRemediationData[_childId] */\n      0x20\n      mstore\n      0x40\n      swap1\n      keccak256\n        /* \"ChildLabourDataManagement.sol\":17798:17841  childRemediationData[_childId].updateReport */\n      0x05\n      dup2\n      add\n        /* \"ChildLabourDataManagement.sol\":17798:17873  childRemediationData[_childId].updateReport = bytes32(bytes(_updateReport)) */\n      swap2\n      swap1\n      swap2\n      sstore\n        /* \"ChildLabourDataManagement.sol\":17929:17944  block.timestamp */\n      timestamp\n        /* \"ChildLabourDataManagement.sol\":17884:17926  childRemediationData[_childId].lastUpdated */\n      0x04\n      swap1\n      swap2\n      add\n        /* \"ChildLabourDataManagement.sol\":17884:17944  childRemediationData[_childId].lastUpdated = block.timestamp */\n      dup2\n      swap1\n      sstore\n        /* \"ChildLabourDataManagement.sol\":17960:18055  RemediationUpdate(_violationReportId, _childId, block.timestamp, bytes32(bytes(_updateReport))) */\n      0xde2669f070bfb51d280ef42c92c59e3f20bbeef765e99cab94cd673cc2bf0f2f\n      swap1\n        /* \"ChildLabourDataManagement.sol\":17978:17996  _violationReportId */\n      dup9\n      swap1\n        /* \"ChildLabourDataManagement.sol\":17819:17827  _childId */\n      dup9\n      swap1\n        /* \"ChildLabourDataManagement.sol\":18025:18054  bytes32(bytes(_updateReport)) */\n      tag_387\n        /* \"ChildLabourDataManagement.sol\":18039:18052  _updateReport */\n      dup10\n        /* \"ChildLabourDataManagement.sol\":18025:18054  bytes32(bytes(_updateReport)) */\n      tag_330\n      jump\t// in\n        /* \"ChildLabourDataManagement.sol\":15136:16152  function assignGuardian(uint256 _violationReportId, uint256 _childId, address _guardian) public onlyRegulatoryAuthority{... */\n    tag_126:\n        /* \"ChildLabourDataManagement.sol\":8021:8056  IRegistration.EntityType entitytype */\n      0x00\n        /* \"ChildLabourDataManagement.sol\":8079:8091  Registration */\n      dup1\n      sload\n        /* \"ChildLabourDataManagement.sol\":8079:8113  Registration.getEntity(msg.sender) */\n      mload(0x40)\n      shl(0xe2, 0x1d6253a3)\n      dup2\n      mstore\n        /* \"ChildLabourDataManagement.sol\":8102:8112  msg.sender */\n      caller\n        /* \"ChildLabourDataManagement.sol\":8079:8113  Registration.getEntity(msg.sender) */\n      0x04\n      dup3\n      add\n        /* \"#utility.yul\":3829:3880   */\n      mstore\n        /* \"ChildLabourDataManagement.sol\":8021:8056  IRegistration.EntityType entitytype */\n      dup3\n      swap2\n      sub(shl(0xa0, 0x01), 0x01)\n        /* \"ChildLabourDataManagement.sol\":8079:8091  Registration */\n      and\n      swap1\n        /* \"ChildLabourDataManagement.sol\":8079:8101  Registration.getEntity */\n      0x75894e8c\n      swap1\n        /* \"#utility.yul\":3802:3820   */\n      0x24\n      add\n        /* \"ChildLabourDataManagement.sol\":8079:8113  Registration.getEntity(msg.sender) */\n      0x40\n      dup1\n      mload\n      dup1\n      dup4\n      sub\n      dup2\n      0x00\n      dup8\n      gas\n      call\n      iszero\n      dup1\n      iszero\n      tag_451\n      jumpi\n      returndatasize\n      0x00\n      dup1\n      returndatacopy\n      revert(0x00, returndatasize)\n    tag_451:\n      pop\n      pop\n      pop\n      pop\n      mload(0x40)\n      returndatasize\n      not(0x1f)\n      0x1f\n      dup3\n      add\n      and\n      dup3\n      add\n      dup1\n      0x40\n      mstore\n      pop\n      dup2\n      add\n      swap1\n      tag_452\n      swap2\n      swap1\n      tag_138\n      jump\t// in\n    tag_452:\n        /* \"ChildLabourDataManagement.sol\":8020:8113  (IRegistration.EntityType entitytype, bool isRegistered) = Registration.getEntity(msg.sender) */\n      swap1\n      swap3\n      pop\n      swap1\n      pop\n        /* \"ChildLabourDataManagement.sol\":8146:8190  IRegistration.EntityType.RegulatoryAuthority */\n      0x01\n        /* \"ChildLabourDataManagement.sol\":8132:8142  entitytype */\n      dup3\n        /* \"ChildLabourDataManagement.sol\":8132:8190  entitytype == IRegistration.EntityType.RegulatoryAuthority */\n      0x06\n      dup2\n      gt\n      iszero\n      tag_456\n      jumpi\n      tag_456\n      tag_141\n      jump\t// in\n    tag_456:\n      eq\n        /* \"ChildLabourDataManagement.sol\":8132:8206  entitytype == IRegistration.EntityType.RegulatoryAuthority && isRegistered */\n      dup1\n      iszero\n      tag_457\n      jumpi\n      pop\n        /* \"ChildLabourDataManagement.sol\":8194:8206  isRegistered */\n      dup1\n        /* \"ChildLabourDataManagement.sol\":8132:8206  entitytype == IRegistration.EntityType.RegulatoryAuthority && isRegistered */\n    tag_457:\n        /* \"ChildLabourDataManagement.sol\":8124:8262  require(entitytype == IRegistration.EntityType.RegulatoryAuthority && isRegistered, \"Only the regulatory authority can run this function\") */\n      tag_458\n      jumpi\n      mload(0x40)\n      shl(0xe5, 0x461bcd)\n      dup2\n      mstore\n      0x04\n      add\n      tag_146\n      swap1\n      tag_310\n      jump\t// in\n    tag_458:\n        /* \"ChildLabourDataManagement.sol\":15266:15287  ChildData memory data */\n      0x00\n        /* \"ChildLabourDataManagement.sol\":15290:15319  childData[_violationReportId] */\n      dup6\n      dup2\n      mstore\n        /* \"ChildLabourDataManagement.sol\":15290:15299  childData */\n      0x06\n        /* \"ChildLabourDataManagement.sol\":15290:15319  childData[_violationReportId] */\n      0x20\n      swap1\n      dup2\n      mstore\n      0x40\n      dup1\n      dup4\n      keccak256\n        /* \"ChildLabourDataManagement.sol\":15290:15329  childData[_violationReportId][_childId] */\n      dup8\n      dup5\n      mstore\n      dup3\n      mstore\n      dup1\n      dup4\n      keccak256\n        /* \"ChildLabourDataManagement.sol\":15266:15329  ChildData memory data = childData[_violationReportId][_childId] */\n      dup2\n      mload\n      0xc0\n      dup2\n      add\n      dup4\n      mstore\n      dup2\n      sload\n      dup2\n      mstore\n      0x01\n      dup3\n      add\n      sload\n      swap4\n      dup2\n      add\n      swap4\n      swap1\n      swap4\n      mstore\n      0x02\n      dup2\n      add\n      sload\n      swap2\n      dup4\n      add\n      swap2\n      swap1\n      swap2\n      mstore\n      0x03\n      dup1\n      dup3\n      add\n      sload\n      0xf8\n      shl\n      not(sub(shl(0xf8, 0x01), 0x01))\n      and\n      0x60\n      dup5\n      add\n      mstore\n      0x04\n      dup3\n      add\n      sload\n      0x80\n      dup5\n      add\n      mstore\n      0x05\n      dup3\n      add\n      sload\n      0xa0\n      dup5\n      add\n      swap2\n      0xff\n      swap1\n      swap2\n      and\n      swap1\n      dup2\n      gt\n      iszero\n      tag_462\n      jumpi\n      tag_462\n      tag_141\n      jump\t// in\n    tag_462:\n      0x03\n      dup2\n      gt\n      iszero\n      tag_464\n      jumpi\n      tag_464\n      tag_141\n      jump\t// in\n    tag_464:\n      swap1\n      mstore\n      pop\n        /* \"ChildLabourDataManagement.sol\":15340:15369  ViolationReport memory report */\n      0x00\n        /* \"ChildLabourDataManagement.sol\":15372:15408  violationReports[_violationReportId] */\n      dup8\n      dup2\n      mstore\n        /* \"ChildLabourDataManagement.sol\":15372:15388  violationReports */\n      0x04\n        /* \"ChildLabourDataManagement.sol\":15372:15408  violationReports[_violationReportId] */\n      0x20\n      dup2\n      dup2\n      mstore\n      0x40\n      dup1\n      dup5\n      keccak256\n        /* \"ChildLabourDataManagement.sol\":15340:15408  ViolationReport memory report = violationReports[_violationReportId] */\n      dup2\n      mload\n      0xc0\n      dup2\n      add\n      dup4\n      mstore\n      dup2\n      sload\n      sub(shl(0xa0, 0x01), 0x01)\n      and\n      dup2\n      mstore\n      0x01\n      dup3\n      add\n      sload\n      swap4\n      dup2\n      add\n      swap4\n      swap1\n      swap4\n      mstore\n      0x02\n      dup2\n      add\n      sload\n      swap2\n      dup4\n      add\n      swap2\n      swap1\n      swap2\n      mstore\n      0x03\n      dup2\n      add\n      sload\n      0x60\n      dup4\n      add\n      mstore\n      swap1\n      swap2\n      add\n      sload\n      0xff\n      dup1\n      dup3\n      and\n      iszero\n      iszero\n      0x80\n      dup5\n      add\n      mstore\n      0x0100\n      swap1\n      swap2\n      div\n      and\n      iszero\n      iszero\n      0xa0\n      dup3\n      add\n      mstore\n        /* \"ChildLabourDataManagement.sol\":15266:15329  ChildData memory data = childData[_violationReportId][_childId] */\n      swap2\n      swap3\n      pop\n        /* \"ChildLabourDataManagement.sol\":15427:15431  data */\n      dup3\n        /* \"ChildLabourDataManagement.sol\":15427:15438  data.status */\n      0xa0\n      add\n      mload\n        /* \"ChildLabourDataManagement.sol\":15427:15461  data.status == ChildStatus.Spotted */\n      0x03\n      dup2\n      gt\n      iszero\n      tag_468\n      jumpi\n      tag_468\n      tag_141\n      jump\t// in\n    tag_468:\n      eq\n        /* \"ChildLabourDataManagement.sol\":15419:15534  require(data.status == ChildStatus.Spotted, \"This child Id does not exist or has already been assigned a guardian\") */\n      tag_469\n      jumpi\n      mload(0x40)\n      shl(0xe5, 0x461bcd)\n      dup2\n      mstore\n        /* \"#utility.yul\":21135:21137   */\n      0x20\n        /* \"ChildLabourDataManagement.sol\":15419:15534  require(data.status == ChildStatus.Spotted, \"This child Id does not exist or has already been assigned a guardian\") */\n      0x04\n      dup3\n      add\n        /* \"#utility.yul\":21117:21138   */\n      mstore\n        /* \"#utility.yul\":21174:21176   */\n      0x44\n        /* \"#utility.yul\":21154:21172   */\n      0x24\n      dup3\n      add\n        /* \"#utility.yul\":21147:21177   */\n      dup2\n      swap1\n      mstore\n        /* \"#utility.yul\":21213:21247   */\n      0x54686973206368696c6420496420646f6573206e6f74206578697374206f7220\n        /* \"#utility.yul\":21193:21211   */\n      swap1\n      dup3\n      add\n        /* \"#utility.yul\":21186:21248   */\n      mstore\n        /* \"#utility.yul\":21284:21318   */\n      0x68617320616c7265616479206265656e2061737369676e656420612067756172\n        /* \"#utility.yul\":21264:21282   */\n      0x64\n      dup3\n      add\n        /* \"#utility.yul\":21257:21319   */\n      mstore\n      shl(0xe1, 0x3234b0b7)\n        /* \"#utility.yul\":21335:21354   */\n      0x84\n      dup3\n      add\n        /* \"#utility.yul\":21328:21363   */\n      mstore\n        /* \"#utility.yul\":21380:21399   */\n      0xa4\n      add\n        /* \"ChildLabourDataManagement.sol\":15419:15534  require(data.status == ChildStatus.Spotted, \"This child Id does not exist or has already been assigned a guardian\") */\n      tag_146\n        /* \"#utility.yul\":20933:21405   */\n      jump\n        /* \"ChildLabourDataManagement.sol\":15419:15534  require(data.status == ChildStatus.Spotted, \"This child Id does not exist or has already been assigned a guardian\") */\n    tag_469:\n        /* \"ChildLabourDataManagement.sol\":15575:15576  1 */\n      0x01\n        /* \"ChildLabourDataManagement.sol\":15553:15571  _violationReportId */\n      dup8\n        /* \"ChildLabourDataManagement.sol\":15553:15576  _violationReportId >= 1 */\n      lt\n      iszero\n        /* \"ChildLabourDataManagement.sol\":15553:15613  _violationReportId >= 1 && _violationReportId <= reportCount */\n      dup1\n      iszero\n      tag_472\n      jumpi\n      pop\n        /* \"ChildLabourDataManagement.sol\":15602:15613  reportCount */\n      sload(0x02)\n        /* \"ChildLabourDataManagement.sol\":15580:15598  _violationReportId */\n      dup8\n        /* \"ChildLabourDataManagement.sol\":15580:15613  _violationReportId <= reportCount */\n      gt\n      iszero\n        /* \"ChildLabourDataManagement.sol\":15553:15613  _violationReportId >= 1 && _violationReportId <= reportCount */\n    tag_472:\n        /* \"ChildLabourDataManagement.sol\":15545:15635  require(_violationReportId >= 1 && _violationReportId <= reportCount, \"Invalid Report ID\") */\n      tag_473\n      jumpi\n      mload(0x40)\n      shl(0xe5, 0x461bcd)\n      dup2\n      mstore\n      0x04\n      add\n      tag_146\n      swap1\n      tag_168\n      jump\t// in\n    tag_473:\n        /* \"ChildLabourDataManagement.sol\":15666:15667  1 */\n      0x01\n        /* \"ChildLabourDataManagement.sol\":15654:15662  _childId */\n      dup7\n        /* \"ChildLabourDataManagement.sol\":15654:15667  _childId >= 1 */\n      lt\n      iszero\n        /* \"ChildLabourDataManagement.sol\":15654:15722  _childId >= 1 && _childId <= reportChildrenCount[_violationReportId] */\n      dup1\n      iszero\n      tag_475\n      jumpi\n      pop\n        /* \"ChildLabourDataManagement.sol\":15683:15722  reportChildrenCount[_violationReportId] */\n      0x00\n      dup8\n      dup2\n      mstore\n        /* \"ChildLabourDataManagement.sol\":15683:15702  reportChildrenCount */\n      0x07\n        /* \"ChildLabourDataManagement.sol\":15683:15722  reportChildrenCount[_violationReportId] */\n      0x20\n      mstore\n      0x40\n      swap1\n      keccak256\n      sload\n        /* \"ChildLabourDataManagement.sol\":15671:15722  _childId <= reportChildrenCount[_violationReportId] */\n      dup7\n      gt\n      iszero\n        /* \"ChildLabourDataManagement.sol\":15654:15722  _childId >= 1 && _childId <= reportChildrenCount[_violationReportId] */\n    tag_475:\n        /* \"ChildLabourDataManagement.sol\":15646:15743  require(_childId >= 1 && _childId <= reportChildrenCount[_violationReportId], \"Invalid Child ID\") */\n      tag_476\n      jumpi\n      mload(0x40)\n      shl(0xe5, 0x461bcd)\n      dup2\n      mstore\n      0x04\n      add\n      tag_146\n      swap1\n      tag_214\n      jump\t// in\n    tag_476:\n        /* \"ChildLabourDataManagement.sol\":15762:15768  report */\n      dup1\n        /* \"ChildLabourDataManagement.sol\":15762:15779  report.isVerified */\n      0xa0\n      add\n      mload\n        /* \"ChildLabourDataManagement.sol\":15754:15862  require(report.isVerified, \"Cannot assign a guardian because the violation report Id has not been verified\") */\n      tag_478\n      jumpi\n      mload(0x40)\n      shl(0xe5, 0x461bcd)\n      dup2\n      mstore\n        /* \"#utility.yul\":21612:21614   */\n      0x20\n        /* \"ChildLabourDataManagement.sol\":15754:15862  require(report.isVerified, \"Cannot assign a guardian because the violation report Id has not been verified\") */\n      0x04\n      dup3\n      add\n        /* \"#utility.yul\":21594:21615   */\n      mstore\n        /* \"#utility.yul\":21651:21653   */\n      0x4e\n        /* \"#utility.yul\":21631:21649   */\n      0x24\n      dup3\n      add\n        /* \"#utility.yul\":21624:21654   */\n      mstore\n        /* \"#utility.yul\":21690:21724   */\n      0x43616e6e6f742061737369676e206120677561726469616e2062656361757365\n        /* \"#utility.yul\":21670:21688   */\n      0x44\n      dup3\n      add\n        /* \"#utility.yul\":21663:21725   */\n      mstore\n        /* \"#utility.yul\":21761:21795   */\n      0x207468652076696f6c6174696f6e207265706f727420496420686173206e6f74\n        /* \"#utility.yul\":21741:21759   */\n      0x64\n      dup3\n      add\n        /* \"#utility.yul\":21734:21796   */\n      mstore\n      shl(0x92, 0x081899595b881d995c9a599a5959)\n        /* \"#utility.yul\":21812:21831   */\n      0x84\n      dup3\n      add\n        /* \"#utility.yul\":21805:21850   */\n      mstore\n        /* \"#utility.yul\":21867:21886   */\n      0xa4\n      add\n        /* \"ChildLabourDataManagement.sol\":15754:15862  require(report.isVerified, \"Cannot assign a guardian because the violation report Id has not been verified\") */\n      tag_146\n        /* \"#utility.yul\":21410:21892   */\n      jump\n        /* \"ChildLabourDataManagement.sol\":15754:15862  require(report.isVerified, \"Cannot assign a guardian because the violation report Id has not been verified\") */\n    tag_478:\n        /* \"ChildLabourDataManagement.sol\":15877:15907  childRemediationData[_childId] */\n      0x00\n      dup7\n      dup2\n      mstore\n        /* \"ChildLabourDataManagement.sol\":15877:15897  childRemediationData */\n      0x08\n        /* \"ChildLabourDataManagement.sol\":15877:15907  childRemediationData[_childId] */\n      0x20\n      mstore\n      0x40\n      swap1\n      keccak256\n        /* \"ChildLabourDataManagement.sol\":15877:15928  childRemediationData[_childId].guardian = _guardian */\n      dup1\n      sload\n      not(sub(shl(0xa0, 0x01), 0x01))\n      and\n      sub(shl(0xa0, 0x01), 0x01)\n      dup8\n      and\n      or\n      dup2\n      sstore\n      0x01\n        /* \"ChildLabourDataManagement.sol\":15939:15977  childRemediationData[_childId].childId */\n      dup1\n      dup3\n      add\n        /* \"ChildLabourDataManagement.sol\":15939:15988  childRemediationData[_childId].childId = _childId */\n      dup9\n      swap1\n      sstore\n        /* \"ChildLabourDataManagement.sol\":15999:16036  childRemediationData[_childId].status */\n      0x06\n      swap1\n      swap2\n      add\n        /* \"ChildLabourDataManagement.sol\":15999:16067  childRemediationData[_childId].status = ChildStatus.GuardianAssigned */\n      dup1\n      sload\n      not(0xff)\n      and\n      dup3\n      dup1\n      mul\n      or\n      swap1\n      sstore\n      pop\n        /* \"ChildLabourDataManagement.sol\":16085:16142  GuardianAssigned(_childId, _violationReportId, _guardian) */\n      0x40\n      dup1\n      mload\n        /* \"#utility.yul\":22099:22124   */\n      dup8\n      dup2\n      mstore\n        /* \"#utility.yul\":22155:22157   */\n      0x20\n        /* \"#utility.yul\":22140:22158   */\n      dup2\n      add\n        /* \"#utility.yul\":22133:22167   */\n      dup10\n      swap1\n      mstore\n      sub(shl(0xa0, 0x01), 0x01)\n        /* \"#utility.yul\":22203:22235   */\n      dup8\n      and\n        /* \"#utility.yul\":22183:22201   */\n      swap2\n      dup2\n      add\n        /* \"#utility.yul\":22176:22236   */\n      swap2\n      swap1\n      swap2\n      mstore\n        /* \"ChildLabourDataManagement.sol\":16085:16142  GuardianAssigned(_childId, _violationReportId, _guardian) */\n      0xe1a03807ff7b7d8ac4c42cf3fe3905d10b2b30935d18974726482db3bf232e36\n      swap1\n        /* \"#utility.yul\":22087:22089   */\n      0x60\n        /* \"#utility.yul\":22072:22090   */\n      add\n        /* \"ChildLabourDataManagement.sol\":16085:16142  GuardianAssigned(_childId, _violationReportId, _guardian) */\n      tag_264\n        /* \"#utility.yul\":21897:22242   */\n      jump\n        /* \"ChildLabourDataManagement.sol\":7638:7692  mapping(uint256 => IVerifier.Proof) public reportProof */\n    tag_129:\n      0x0a\n      0x20\n      swap1\n      dup2\n      mstore\n      0x00\n      swap2\n      dup3\n      mstore\n      0x40\n      swap2\n      dup3\n      swap1\n      keccak256\n      dup3\n      mload\n      dup1\n      dup5\n      add\n      dup5\n      mstore\n      dup2\n      sload\n      dup2\n      mstore\n      0x01\n      dup3\n      add\n      sload\n      swap3\n      dup2\n      add\n      swap3\n      swap1\n      swap3\n      mstore\n      dup3\n      mload\n      0x80\n      dup2\n      add\n      dup1\n      dup6\n      mstore\n      swap3\n      swap4\n      swap2\n      swap3\n      swap1\n      swap2\n      0x02\n      dup1\n      dup6\n      add\n      swap3\n      dup5\n      swap3\n      dup4\n      add\n      swap2\n      dup5\n      swap2\n      dup3\n      dup5\n    tag_486:\n      dup2\n      sload\n      dup2\n      mstore\n      0x20\n      add\n      swap1\n      0x01\n      add\n      swap1\n      dup1\n      dup4\n      gt\n      tag_486\n      jumpi\n      pop\n      pop\n      pop\n      swap2\n      dup4\n      mstore\n      pop\n      pop\n      0x40\n      dup1\n      mload\n      dup1\n      dup3\n      add\n      swap2\n      dup3\n      swap1\n      mstore\n      0x20\n      swap1\n      swap3\n      add\n      swap2\n      swap1\n      0x02\n      dup5\n      dup2\n      add\n      swap2\n      dup3\n      dup5\n    tag_488:\n      dup2\n      sload\n      dup2\n      mstore\n      0x20\n      add\n      swap1\n      0x01\n      add\n      swap1\n      dup1\n      dup4\n      gt\n      tag_488\n      jumpi\n      pop\n      pop\n      pop\n      swap2\n      swap1\n      swap3\n      mstore\n      pop\n      pop\n      0x40\n      dup1\n      mload\n      dup1\n      dup3\n      add\n      swap1\n      swap2\n      mstore\n      0x06\n      dup5\n      add\n      sload\n      dup2\n      mstore\n      0x07\n      swap1\n      swap4\n      add\n      sload\n      0x20\n      dup5\n      add\n      mstore\n      pop\n      swap1\n      dup4\n      jump\t// out\n        /* \"#utility.yul\":14:187   */\n    tag_489:\n        /* \"#utility.yul\":82:102   */\n      dup1\n      calldataload\n      sub(shl(0xa0, 0x01), 0x01)\n        /* \"#utility.yul\":131:162   */\n      dup2\n      and\n        /* \"#utility.yul\":121:163   */\n      dup2\n      eq\n        /* \"#utility.yul\":111:181   */\n      tag_499\n      jumpi\n        /* \"#utility.yul\":177:178   */\n      0x00\n        /* \"#utility.yul\":174:175   */\n      dup1\n        /* \"#utility.yul\":167:179   */\n      revert\n        /* \"#utility.yul\":111:181   */\n    tag_499:\n        /* \"#utility.yul\":14:187   */\n      swap2\n      swap1\n      pop\n      jump\t// out\n        /* \"#utility.yul\":192:378   */\n    tag_32:\n        /* \"#utility.yul\":251:257   */\n      0x00\n        /* \"#utility.yul\":304:306   */\n      0x20\n        /* \"#utility.yul\":292:301   */\n      dup3\n        /* \"#utility.yul\":283:290   */\n      dup5\n        /* \"#utility.yul\":279:302   */\n      sub\n        /* \"#utility.yul\":275:307   */\n      slt\n        /* \"#utility.yul\":272:324   */\n      iszero\n      tag_501\n      jumpi\n        /* \"#utility.yul\":320:321   */\n      0x00\n        /* \"#utility.yul\":317:318   */\n      dup1\n        /* \"#utility.yul\":310:322   */\n      revert\n        /* \"#utility.yul\":272:324   */\n    tag_501:\n        /* \"#utility.yul\":343:372   */\n      tag_502\n        /* \"#utility.yul\":362:371   */\n      dup3\n        /* \"#utility.yul\":343:372   */\n      tag_489\n      jump\t// in\n    tag_502:\n        /* \"#utility.yul\":333:372   */\n      swap4\n        /* \"#utility.yul\":192:378   */\n      swap3\n      pop\n      pop\n      pop\n      jump\t// out\n        /* \"#utility.yul\":383:631   */\n    tag_36:\n        /* \"#utility.yul\":451:457   */\n      0x00\n        /* \"#utility.yul\":459:465   */\n      dup1\n        /* \"#utility.yul\":512:514   */\n      0x40\n        /* \"#utility.yul\":500:509   */\n      dup4\n        /* \"#utility.yul\":491:498   */\n      dup6\n        /* \"#utility.yul\":487:510   */\n      sub\n        /* \"#utility.yul\":483:515   */\n      slt\n        /* \"#utility.yul\":480:532   */\n      iszero\n      tag_504\n      jumpi\n        /* \"#utility.yul\":528:529   */\n      0x00\n        /* \"#utility.yul\":525:526   */\n      dup1\n        /* \"#utility.yul\":518:530   */\n      revert\n        /* \"#utility.yul\":480:532   */\n    tag_504:\n      pop\n      pop\n        /* \"#utility.yul\":551:574   */\n      dup1\n      calldataload\n      swap3\n        /* \"#utility.yul\":621:623   */\n      0x20\n        /* \"#utility.yul\":606:624   */\n      swap1\n      swap2\n      add\n        /* \"#utility.yul\":593:625   */\n      calldataload\n      swap2\n      pop\n        /* \"#utility.yul\":383:631   */\n      jump\t// out\n        /* \"#utility.yul\":636:763   */\n    tag_141:\n        /* \"#utility.yul\":697:707   */\n      0x4e487b71\n        /* \"#utility.yul\":692:695   */\n      0xe0\n        /* \"#utility.yul\":688:708   */\n      shl\n        /* \"#utility.yul\":685:686   */\n      0x00\n        /* \"#utility.yul\":678:709   */\n      mstore\n        /* \"#utility.yul\":728:732   */\n      0x21\n        /* \"#utility.yul\":725:726   */\n      0x04\n        /* \"#utility.yul\":718:733   */\n      mstore\n        /* \"#utility.yul\":752:756   */\n      0x24\n        /* \"#utility.yul\":749:750   */\n      0x00\n        /* \"#utility.yul\":742:757   */\n      revert\n        /* \"#utility.yul\":768:1007   */\n    tag_490:\n        /* \"#utility.yul\":851:852   */\n      0x04\n        /* \"#utility.yul\":844:849   */\n      dup2\n        /* \"#utility.yul\":841:853   */\n      lt\n        /* \"#utility.yul\":831:974   */\n      tag_507\n      jumpi\n        /* \"#utility.yul\":896:906   */\n      0x4e487b71\n        /* \"#utility.yul\":891:894   */\n      0xe0\n        /* \"#utility.yul\":887:907   */\n      shl\n        /* \"#utility.yul\":884:885   */\n      0x00\n        /* \"#utility.yul\":877:908   */\n      mstore\n        /* \"#utility.yul\":931:935   */\n      0x21\n        /* \"#utility.yul\":928:929   */\n      0x04\n        /* \"#utility.yul\":921:936   */\n      mstore\n        /* \"#utility.yul\":959:963   */\n      0x24\n        /* \"#utility.yul\":956:957   */\n      0x00\n        /* \"#utility.yul\":949:964   */\n      revert\n        /* \"#utility.yul\":831:974   */\n    tag_507:\n        /* \"#utility.yul\":983:1001   */\n      swap1\n      mstore\n        /* \"#utility.yul\":768:1007   */\n      jump\t// out\n        /* \"#utility.yul\":1012:1599   */\n    tag_39:\n        /* \"#utility.yul\":1310:1335   */\n      dup7\n      dup2\n      mstore\n        /* \"#utility.yul\":1366:1368   */\n      0x20\n        /* \"#utility.yul\":1351:1369   */\n      dup2\n      add\n        /* \"#utility.yul\":1344:1378   */\n      dup7\n      swap1\n      mstore\n        /* \"#utility.yul\":1409:1411   */\n      0x40\n        /* \"#utility.yul\":1394:1412   */\n      dup2\n      add\n        /* \"#utility.yul\":1387:1421   */\n      dup6\n      swap1\n      mstore\n      not(sub(shl(0xf8, 0x01), 0x01))\n        /* \"#utility.yul\":1457:1483   */\n      dup5\n      and\n        /* \"#utility.yul\":1452:1454   */\n      0x60\n        /* \"#utility.yul\":1437:1455   */\n      dup3\n      add\n        /* \"#utility.yul\":1430:1484   */\n      mstore\n        /* \"#utility.yul\":1515:1518   */\n      0x80\n        /* \"#utility.yul\":1500:1519   */\n      dup2\n      add\n        /* \"#utility.yul\":1493:1528   */\n      dup4\n      swap1\n      mstore\n        /* \"#utility.yul\":1297:1300   */\n      0xc0\n        /* \"#utility.yul\":1282:1301   */\n      dup2\n      add\n        /* \"#utility.yul\":1537:1593   */\n      tag_509\n        /* \"#utility.yul\":1588:1591   */\n      0xa0\n        /* \"#utility.yul\":1573:1592   */\n      dup4\n      add\n        /* \"#utility.yul\":1565:1571   */\n      dup5\n        /* \"#utility.yul\":1537:1593   */\n      tag_490\n      jump\t// in\n    tag_509:\n        /* \"#utility.yul\":1012:1599   */\n      swap8\n      swap7\n      pop\n      pop\n      pop\n      pop\n      pop\n      pop\n      pop\n      jump\t// out\n        /* \"#utility.yul\":1786:1904   */\n    tag_491:\n        /* \"#utility.yul\":1872:1877   */\n      dup1\n        /* \"#utility.yul\":1865:1878   */\n      iszero\n        /* \"#utility.yul\":1858:1879   */\n      iszero\n        /* \"#utility.yul\":1851:1856   */\n      dup2\n        /* \"#utility.yul\":1848:1880   */\n      eq\n        /* \"#utility.yul\":1838:1898   */\n      tag_512\n      jumpi\n        /* \"#utility.yul\":1894:1895   */\n      0x00\n        /* \"#utility.yul\":1891:1892   */\n      dup1\n        /* \"#utility.yul\":1884:1896   */\n      revert\n        /* \"#utility.yul\":1838:1898   */\n    tag_512:\n        /* \"#utility.yul\":1786:1904   */\n      pop\n      jump\t// out\n        /* \"#utility.yul\":1909:2218   */\n    tag_46:\n        /* \"#utility.yul\":1974:1980   */\n      0x00\n        /* \"#utility.yul\":1982:1988   */\n      dup1\n        /* \"#utility.yul\":2035:2037   */\n      0x40\n        /* \"#utility.yul\":2023:2032   */\n      dup4\n        /* \"#utility.yul\":2014:2021   */\n      dup6\n        /* \"#utility.yul\":2010:2033   */\n      sub\n        /* \"#utility.yul\":2006:2038   */\n      slt\n        /* \"#utility.yul\":2003:2055   */\n      iszero\n      tag_514\n      jumpi\n        /* \"#utility.yul\":2051:2052   */\n      0x00\n        /* \"#utility.yul\":2048:2049   */\n      dup1\n        /* \"#utility.yul\":2041:2053   */\n      revert\n        /* \"#utility.yul\":2003:2055   */\n    tag_514:\n        /* \"#utility.yul\":2087:2096   */\n      dup3\n        /* \"#utility.yul\":2074:2097   */\n      calldataload\n        /* \"#utility.yul\":2064:2097   */\n      swap2\n      pop\n        /* \"#utility.yul\":2147:2149   */\n      0x20\n        /* \"#utility.yul\":2136:2145   */\n      dup4\n        /* \"#utility.yul\":2132:2150   */\n      add\n        /* \"#utility.yul\":2119:2151   */\n      calldataload\n        /* \"#utility.yul\":2160:2188   */\n      tag_515\n        /* \"#utility.yul\":2182:2187   */\n      dup2\n        /* \"#utility.yul\":2160:2188   */\n      tag_491\n      jump\t// in\n    tag_515:\n        /* \"#utility.yul\":2207:2212   */\n      dup1\n        /* \"#utility.yul\":2197:2212   */\n      swap2\n      pop\n      pop\n        /* \"#utility.yul\":1909:2218   */\n      swap3\n      pop\n      swap3\n      swap1\n      pop\n      jump\t// out\n        /* \"#utility.yul\":2223:2403   */\n    tag_50:\n        /* \"#utility.yul\":2282:2288   */\n      0x00\n        /* \"#utility.yul\":2335:2337   */\n      0x20\n        /* \"#utility.yul\":2323:2332   */\n      dup3\n        /* \"#utility.yul\":2314:2321   */\n      dup5\n        /* \"#utility.yul\":2310:2333   */\n      sub\n        /* \"#utility.yul\":2306:2338   */\n      slt\n        /* \"#utility.yul\":2303:2355   */\n      iszero\n      tag_517\n      jumpi\n        /* \"#utility.yul\":2351:2352   */\n      0x00\n        /* \"#utility.yul\":2348:2349   */\n      dup1\n        /* \"#utility.yul\":2341:2353   */\n      revert\n        /* \"#utility.yul\":2303:2355   */\n    tag_517:\n      pop\n        /* \"#utility.yul\":2374:2397   */\n      calldataload\n      swap2\n        /* \"#utility.yul\":2223:2403   */\n      swap1\n      pop\n      jump\t// out\n        /* \"#utility.yul\":2408:3075   */\n    tag_53:\n      sub(shl(0xa0, 0x01), 0x01)\n        /* \"#utility.yul\":2754:2786   */\n      dup9\n      and\n        /* \"#utility.yul\":2736:2787   */\n      dup2\n      mstore\n        /* \"#utility.yul\":2818:2820   */\n      0x20\n        /* \"#utility.yul\":2803:2821   */\n      dup2\n      add\n        /* \"#utility.yul\":2796:2830   */\n      dup8\n      swap1\n      mstore\n        /* \"#utility.yul\":2861:2863   */\n      0x40\n        /* \"#utility.yul\":2846:2864   */\n      dup2\n      add\n        /* \"#utility.yul\":2839:2873   */\n      dup7\n      swap1\n      mstore\n        /* \"#utility.yul\":2904:2906   */\n      0x60\n        /* \"#utility.yul\":2889:2907   */\n      dup2\n      add\n        /* \"#utility.yul\":2882:2916   */\n      dup6\n      swap1\n      mstore\n        /* \"#utility.yul\":2947:2950   */\n      0x80\n        /* \"#utility.yul\":2932:2951   */\n      dup2\n      add\n        /* \"#utility.yul\":2925:2960   */\n      dup5\n      swap1\n      mstore\n        /* \"#utility.yul\":2774:2777   */\n      0xa0\n        /* \"#utility.yul\":2976:2995   */\n      dup2\n      add\n        /* \"#utility.yul\":2969:3004   */\n      dup4\n      swap1\n      mstore\n        /* \"#utility.yul\":2723:2726   */\n      0xe0\n        /* \"#utility.yul\":2708:2727   */\n      dup2\n      add\n        /* \"#utility.yul\":3013:3069   */\n      tag_519\n        /* \"#utility.yul\":3064:3067   */\n      0xc0\n        /* \"#utility.yul\":3049:3068   */\n      dup4\n      add\n        /* \"#utility.yul\":3041:3047   */\n      dup5\n        /* \"#utility.yul\":3013:3069   */\n      tag_490\n      jump\t// in\n    tag_519:\n        /* \"#utility.yul\":2408:3075   */\n      swap9\n      swap8\n      pop\n      pop\n      pop\n      pop\n      pop\n      pop\n      pop\n      pop\n      jump\t// out\n        /* \"#utility.yul\":4241:4725   */\n    tag_77:\n        /* \"#utility.yul\":4326:4332   */\n      0x00\n        /* \"#utility.yul\":4334:4340   */\n      dup1\n        /* \"#utility.yul\":4342:4348   */\n      0x00\n        /* \"#utility.yul\":4350:4356   */\n      dup1\n        /* \"#utility.yul\":4403:4406   */\n      0x80\n        /* \"#utility.yul\":4391:4400   */\n      dup6\n        /* \"#utility.yul\":4382:4389   */\n      dup8\n        /* \"#utility.yul\":4378:4401   */\n      sub\n        /* \"#utility.yul\":4374:4407   */\n      slt\n        /* \"#utility.yul\":4371:4424   */\n      iszero\n      tag_524\n      jumpi\n        /* \"#utility.yul\":4420:4421   */\n      0x00\n        /* \"#utility.yul\":4417:4418   */\n      dup1\n        /* \"#utility.yul\":4410:4422   */\n      revert\n        /* \"#utility.yul\":4371:4424   */\n    tag_524:\n        /* \"#utility.yul\":4443:4466   */\n      dup5\n      calldataload\n      swap4\n      pop\n        /* \"#utility.yul\":4513:4515   */\n      0x20\n        /* \"#utility.yul\":4498:4516   */\n      dup6\n      add\n        /* \"#utility.yul\":4485:4517   */\n      calldataload\n      swap3\n      pop\n        /* \"#utility.yul\":4567:4569   */\n      0x40\n        /* \"#utility.yul\":4552:4570   */\n      dup6\n      add\n        /* \"#utility.yul\":4539:4571   */\n      calldataload\n      not(sub(shl(0xf8, 0x01), 0x01))\n        /* \"#utility.yul\":4600:4625   */\n      dup2\n      and\n        /* \"#utility.yul\":4590:4626   */\n      dup2\n      eq\n        /* \"#utility.yul\":4580:4644   */\n      tag_525\n      jumpi\n        /* \"#utility.yul\":4640:4641   */\n      0x00\n        /* \"#utility.yul\":4637:4638   */\n      dup1\n        /* \"#utility.yul\":4630:4642   */\n      revert\n        /* \"#utility.yul\":4580:4644   */\n    tag_525:\n        /* \"#utility.yul\":4241:4725   */\n      swap4\n      swap7\n      swap3\n      swap6\n      pop\n        /* \"#utility.yul\":4663:4668   */\n      swap3\n      swap4\n        /* \"#utility.yul\":4715:4717   */\n      0x60\n        /* \"#utility.yul\":4700:4718   */\n      add\n        /* \"#utility.yul\":4687:4719   */\n      calldataload\n      swap3\n      pop\n      pop\n        /* \"#utility.yul\":4241:4725   */\n      jump\t// out\n        /* \"#utility.yul\":5144:5271   */\n    tag_492:\n        /* \"#utility.yul\":5205:5215   */\n      0x4e487b71\n        /* \"#utility.yul\":5200:5203   */\n      0xe0\n        /* \"#utility.yul\":5196:5216   */\n      shl\n        /* \"#utility.yul\":5193:5194   */\n      0x00\n        /* \"#utility.yul\":5186:5217   */\n      mstore\n        /* \"#utility.yul\":5236:5240   */\n      0x41\n        /* \"#utility.yul\":5233:5234   */\n      0x04\n        /* \"#utility.yul\":5226:5241   */\n      mstore\n        /* \"#utility.yul\":5260:5264   */\n      0x24\n        /* \"#utility.yul\":5257:5258   */\n      0x00\n        /* \"#utility.yul\":5250:5265   */\n      revert\n        /* \"#utility.yul\":5276:5995   */\n    tag_493:\n        /* \"#utility.yul\":5319:5324   */\n      0x00\n        /* \"#utility.yul\":5372:5375   */\n      dup3\n        /* \"#utility.yul\":5365:5369   */\n      0x1f\n        /* \"#utility.yul\":5357:5363   */\n      dup4\n        /* \"#utility.yul\":5353:5370   */\n      add\n        /* \"#utility.yul\":5349:5376   */\n      slt\n        /* \"#utility.yul\":5339:5394   */\n      tag_529\n      jumpi\n        /* \"#utility.yul\":5390:5391   */\n      0x00\n        /* \"#utility.yul\":5387:5388   */\n      dup1\n        /* \"#utility.yul\":5380:5392   */\n      revert\n        /* \"#utility.yul\":5339:5394   */\n    tag_529:\n        /* \"#utility.yul\":5426:5432   */\n      dup2\n        /* \"#utility.yul\":5413:5433   */\n      calldataload\n        /* \"#utility.yul\":5452:5470   */\n      0xffffffffffffffff\n        /* \"#utility.yul\":5489:5491   */\n      dup1\n        /* \"#utility.yul\":5485:5487   */\n      dup3\n        /* \"#utility.yul\":5482:5492   */\n      gt\n        /* \"#utility.yul\":5479:5515   */\n      iszero\n      tag_531\n      jumpi\n        /* \"#utility.yul\":5495:5513   */\n      tag_531\n      tag_492\n      jump\t// in\n    tag_531:\n        /* \"#utility.yul\":5570:5572   */\n      0x40\n        /* \"#utility.yul\":5564:5573   */\n      mload\n        /* \"#utility.yul\":5538:5540   */\n      0x1f\n        /* \"#utility.yul\":5624:5637   */\n      dup4\n      add\n      not(0x1f)\n        /* \"#utility.yul\":5620:5642   */\n      swap1\n      dup2\n      and\n        /* \"#utility.yul\":5644:5646   */\n      0x3f\n        /* \"#utility.yul\":5616:5647   */\n      add\n        /* \"#utility.yul\":5612:5652   */\n      and\n        /* \"#utility.yul\":5600:5653   */\n      dup2\n      add\n      swap1\n        /* \"#utility.yul\":5668:5686   */\n      dup3\n      dup3\n      gt\n        /* \"#utility.yul\":5688:5710   */\n      dup2\n      dup4\n      lt\n        /* \"#utility.yul\":5665:5711   */\n      or\n        /* \"#utility.yul\":5662:5734   */\n      iszero\n      tag_533\n      jumpi\n        /* \"#utility.yul\":5714:5732   */\n      tag_533\n      tag_492\n      jump\t// in\n    tag_533:\n        /* \"#utility.yul\":5754:5764   */\n      dup2\n        /* \"#utility.yul\":5750:5752   */\n      0x40\n        /* \"#utility.yul\":5743:5765   */\n      mstore\n        /* \"#utility.yul\":5789:5791   */\n      dup4\n        /* \"#utility.yul\":5781:5787   */\n      dup2\n        /* \"#utility.yul\":5774:5792   */\n      mstore\n        /* \"#utility.yul\":5835:5838   */\n      dup7\n        /* \"#utility.yul\":5828:5832   */\n      0x20\n        /* \"#utility.yul\":5823:5825   */\n      dup6\n        /* \"#utility.yul\":5815:5821   */\n      dup9\n        /* \"#utility.yul\":5811:5826   */\n      add\n        /* \"#utility.yul\":5807:5833   */\n      add\n        /* \"#utility.yul\":5804:5839   */\n      gt\n        /* \"#utility.yul\":5801:5856   */\n      iszero\n      tag_534\n      jumpi\n        /* \"#utility.yul\":5852:5853   */\n      0x00\n        /* \"#utility.yul\":5849:5850   */\n      dup1\n        /* \"#utility.yul\":5842:5854   */\n      revert\n        /* \"#utility.yul\":5801:5856   */\n    tag_534:\n        /* \"#utility.yul\":5916:5918   */\n      dup4\n        /* \"#utility.yul\":5909:5913   */\n      0x20\n        /* \"#utility.yul\":5901:5907   */\n      dup8\n        /* \"#utility.yul\":5897:5914   */\n      add\n        /* \"#utility.yul\":5890:5894   */\n      0x20\n        /* \"#utility.yul\":5882:5888   */\n      dup4\n        /* \"#utility.yul\":5878:5895   */\n      add\n        /* \"#utility.yul\":5865:5919   */\n      calldatacopy\n        /* \"#utility.yul\":5963:5964   */\n      0x00\n        /* \"#utility.yul\":5956:5960   */\n      0x20\n        /* \"#utility.yul\":5951:5953   */\n      dup6\n        /* \"#utility.yul\":5943:5949   */\n      dup4\n        /* \"#utility.yul\":5939:5954   */\n      add\n        /* \"#utility.yul\":5935:5961   */\n      add\n        /* \"#utility.yul\":5928:5965   */\n      mstore\n        /* \"#utility.yul\":5983:5989   */\n      dup1\n        /* \"#utility.yul\":5974:5989   */\n      swap5\n      pop\n      pop\n      pop\n      pop\n      pop\n        /* \"#utility.yul\":5276:5995   */\n      swap3\n      swap2\n      pop\n      pop\n      jump\t// out\n        /* \"#utility.yul\":6000:6390   */\n    tag_92:\n        /* \"#utility.yul\":6078:6084   */\n      0x00\n        /* \"#utility.yul\":6086:6092   */\n      dup1\n        /* \"#utility.yul\":6139:6141   */\n      0x40\n        /* \"#utility.yul\":6127:6136   */\n      dup4\n        /* \"#utility.yul\":6118:6125   */\n      dup6\n        /* \"#utility.yul\":6114:6137   */\n      sub\n        /* \"#utility.yul\":6110:6142   */\n      slt\n        /* \"#utility.yul\":6107:6159   */\n      iszero\n      tag_536\n      jumpi\n        /* \"#utility.yul\":6155:6156   */\n      0x00\n        /* \"#utility.yul\":6152:6153   */\n      dup1\n        /* \"#utility.yul\":6145:6157   */\n      revert\n        /* \"#utility.yul\":6107:6159   */\n    tag_536:\n        /* \"#utility.yul\":6195:6204   */\n      dup3\n        /* \"#utility.yul\":6182:6205   */\n      calldataload\n        /* \"#utility.yul\":6228:6246   */\n      0xffffffffffffffff\n        /* \"#utility.yul\":6220:6226   */\n      dup2\n        /* \"#utility.yul\":6217:6247   */\n      gt\n        /* \"#utility.yul\":6214:6264   */\n      iszero\n      tag_537\n      jumpi\n        /* \"#utility.yul\":6260:6261   */\n      0x00\n        /* \"#utility.yul\":6257:6258   */\n      dup1\n        /* \"#utility.yul\":6250:6262   */\n      revert\n        /* \"#utility.yul\":6214:6264   */\n    tag_537:\n        /* \"#utility.yul\":6283:6333   */\n      tag_538\n        /* \"#utility.yul\":6325:6332   */\n      dup6\n        /* \"#utility.yul\":6316:6322   */\n      dup3\n        /* \"#utility.yul\":6305:6314   */\n      dup7\n        /* \"#utility.yul\":6301:6323   */\n      add\n        /* \"#utility.yul\":6283:6333   */\n      tag_493\n      jump\t// in\n    tag_538:\n        /* \"#utility.yul\":6273:6333   */\n      swap6\n        /* \"#utility.yul\":6380:6382   */\n      0x20\n        /* \"#utility.yul\":6365:6383   */\n      swap5\n      swap1\n      swap5\n      add\n        /* \"#utility.yul\":6352:6384   */\n      calldataload\n      swap5\n      pop\n      pop\n      pop\n      pop\n        /* \"#utility.yul\":6000:6390   */\n      jump\t// out\n        /* \"#utility.yul\":6395:6711   */\n    tag_99:\n        /* \"#utility.yul\":6472:6478   */\n      0x00\n        /* \"#utility.yul\":6480:6486   */\n      dup1\n        /* \"#utility.yul\":6488:6494   */\n      0x00\n        /* \"#utility.yul\":6541:6543   */\n      0x60\n        /* \"#utility.yul\":6529:6538   */\n      dup5\n        /* \"#utility.yul\":6520:6527   */\n      dup7\n        /* \"#utility.yul\":6516:6539   */\n      sub\n        /* \"#utility.yul\":6512:6544   */\n      slt\n        /* \"#utility.yul\":6509:6561   */\n      iszero\n      tag_540\n      jumpi\n        /* \"#utility.yul\":6557:6558   */\n      0x00\n        /* \"#utility.yul\":6554:6555   */\n      dup1\n        /* \"#utility.yul\":6547:6559   */\n      revert\n        /* \"#utility.yul\":6509:6561   */\n    tag_540:\n      pop\n      pop\n        /* \"#utility.yul\":6580:6603   */\n      dup2\n      calldataload\n      swap4\n        /* \"#utility.yul\":6650:6652   */\n      0x20\n        /* \"#utility.yul\":6635:6653   */\n      dup4\n      add\n        /* \"#utility.yul\":6622:6654   */\n      calldataload\n      swap4\n      pop\n        /* \"#utility.yul\":6701:6703   */\n      0x40\n        /* \"#utility.yul\":6686:6704   */\n      swap1\n      swap3\n      add\n        /* \"#utility.yul\":6673:6705   */\n      calldataload\n      swap2\n        /* \"#utility.yul\":6395:6711   */\n      swap1\n      pop\n      jump\t// out\n        /* \"#utility.yul\":6908:7333   */\n    tag_110:\n        /* \"#utility.yul\":7139:7142   */\n      0x80\n        /* \"#utility.yul\":7124:7143   */\n      dup2\n      add\n        /* \"#utility.yul\":7152:7198   */\n      tag_543\n        /* \"#utility.yul\":7128:7137   */\n      dup3\n        /* \"#utility.yul\":7180:7186   */\n      dup8\n        /* \"#utility.yul\":7152:7198   */\n      tag_490\n      jump\t// in\n    tag_543:\n        /* \"#utility.yul\":7234:7240   */\n      dup5\n        /* \"#utility.yul\":7229:7231   */\n      0x20\n        /* \"#utility.yul\":7218:7227   */\n      dup4\n        /* \"#utility.yul\":7214:7232   */\n      add\n        /* \"#utility.yul\":7207:7241   */\n      mstore\n        /* \"#utility.yul\":7277:7283   */\n      dup4\n        /* \"#utility.yul\":7272:7274   */\n      0x40\n        /* \"#utility.yul\":7261:7270   */\n      dup4\n        /* \"#utility.yul\":7257:7275   */\n      add\n        /* \"#utility.yul\":7250:7284   */\n      mstore\n        /* \"#utility.yul\":7320:7326   */\n      dup3\n        /* \"#utility.yul\":7315:7317   */\n      0x60\n        /* \"#utility.yul\":7304:7313   */\n      dup4\n        /* \"#utility.yul\":7300:7318   */\n      add\n        /* \"#utility.yul\":7293:7327   */\n      mstore\n        /* \"#utility.yul\":6908:7333   */\n      swap6\n      swap5\n      pop\n      pop\n      pop\n      pop\n      pop\n      jump\t// out\n        /* \"#utility.yul\":7338:7796   */\n    tag_117:\n        /* \"#utility.yul\":7425:7431   */\n      0x00\n        /* \"#utility.yul\":7433:7439   */\n      dup1\n        /* \"#utility.yul\":7441:7447   */\n      0x00\n        /* \"#utility.yul\":7494:7496   */\n      0x60\n        /* \"#utility.yul\":7482:7491   */\n      dup5\n        /* \"#utility.yul\":7473:7480   */\n      dup7\n        /* \"#utility.yul\":7469:7492   */\n      sub\n        /* \"#utility.yul\":7465:7497   */\n      slt\n        /* \"#utility.yul\":7462:7514   */\n      iszero\n      tag_545\n      jumpi\n        /* \"#utility.yul\":7510:7511   */\n      0x00\n        /* \"#utility.yul\":7507:7508   */\n      dup1\n        /* \"#utility.yul\":7500:7512   */\n      revert\n        /* \"#utility.yul\":7462:7514   */\n    tag_545:\n        /* \"#utility.yul\":7546:7555   */\n      dup4\n        /* \"#utility.yul\":7533:7556   */\n      calldataload\n        /* \"#utility.yul\":7523:7556   */\n      swap3\n      pop\n        /* \"#utility.yul\":7603:7605   */\n      0x20\n        /* \"#utility.yul\":7592:7601   */\n      dup5\n        /* \"#utility.yul\":7588:7606   */\n      add\n        /* \"#utility.yul\":7575:7607   */\n      calldataload\n        /* \"#utility.yul\":7565:7607   */\n      swap2\n      pop\n        /* \"#utility.yul\":7658:7660   */\n      0x40\n        /* \"#utility.yul\":7647:7656   */\n      dup5\n        /* \"#utility.yul\":7643:7661   */\n      add\n        /* \"#utility.yul\":7630:7662   */\n      calldataload\n        /* \"#utility.yul\":7685:7703   */\n      0xffffffffffffffff\n        /* \"#utility.yul\":7677:7683   */\n      dup2\n        /* \"#utility.yul\":7674:7704   */\n      gt\n        /* \"#utility.yul\":7671:7721   */\n      iszero\n      tag_546\n      jumpi\n        /* \"#utility.yul\":7717:7718   */\n      0x00\n        /* \"#utility.yul\":7714:7715   */\n      dup1\n        /* \"#utility.yul\":7707:7719   */\n      revert\n        /* \"#utility.yul\":7671:7721   */\n    tag_546:\n        /* \"#utility.yul\":7740:7790   */\n      tag_547\n        /* \"#utility.yul\":7782:7789   */\n      dup7\n        /* \"#utility.yul\":7773:7779   */\n      dup3\n        /* \"#utility.yul\":7762:7771   */\n      dup8\n        /* \"#utility.yul\":7758:7780   */\n      add\n        /* \"#utility.yul\":7740:7790   */\n      tag_493\n      jump\t// in\n    tag_547:\n        /* \"#utility.yul\":7730:7790   */\n      swap2\n      pop\n      pop\n        /* \"#utility.yul\":7338:7796   */\n      swap3\n      pop\n      swap3\n      pop\n      swap3\n      jump\t// out\n        /* \"#utility.yul\":8030:8352   */\n    tag_125:\n        /* \"#utility.yul\":8107:8113   */\n      0x00\n        /* \"#utility.yul\":8115:8121   */\n      dup1\n        /* \"#utility.yul\":8123:8129   */\n      0x00\n        /* \"#utility.yul\":8176:8178   */\n      0x60\n        /* \"#utility.yul\":8164:8173   */\n      dup5\n        /* \"#utility.yul\":8155:8162   */\n      dup7\n        /* \"#utility.yul\":8151:8174   */\n      sub\n        /* \"#utility.yul\":8147:8179   */\n      slt\n        /* \"#utility.yul\":8144:8196   */\n      iszero\n      tag_550\n      jumpi\n        /* \"#utility.yul\":8192:8193   */\n      0x00\n        /* \"#utility.yul\":8189:8190   */\n      dup1\n        /* \"#utility.yul\":8182:8194   */\n      revert\n        /* \"#utility.yul\":8144:8196   */\n    tag_550:\n        /* \"#utility.yul\":8228:8237   */\n      dup4\n        /* \"#utility.yul\":8215:8238   */\n      calldataload\n        /* \"#utility.yul\":8205:8238   */\n      swap3\n      pop\n        /* \"#utility.yul\":8285:8287   */\n      0x20\n        /* \"#utility.yul\":8274:8283   */\n      dup5\n        /* \"#utility.yul\":8270:8288   */\n      add\n        /* \"#utility.yul\":8257:8289   */\n      calldataload\n        /* \"#utility.yul\":8247:8289   */\n      swap2\n      pop\n        /* \"#utility.yul\":8308:8346   */\n      tag_551\n        /* \"#utility.yul\":8342:8344   */\n      0x40\n        /* \"#utility.yul\":8331:8340   */\n      dup6\n        /* \"#utility.yul\":8327:8345   */\n      add\n        /* \"#utility.yul\":8308:8346   */\n      tag_489\n      jump\t// in\n    tag_551:\n        /* \"#utility.yul\":8298:8346   */\n      swap1\n      pop\n        /* \"#utility.yul\":8030:8352   */\n      swap3\n      pop\n      swap3\n      pop\n      swap3\n      jump\t// out\n        /* \"#utility.yul\":8510:8836   */\n    tag_495:\n        /* \"#utility.yul\":8603:8608   */\n      dup1\n        /* \"#utility.yul\":8626:8627   */\n      0x00\n        /* \"#utility.yul\":8636:8830   */\n    tag_554:\n        /* \"#utility.yul\":8650:8654   */\n      0x02\n        /* \"#utility.yul\":8647:8648   */\n      dup2\n        /* \"#utility.yul\":8644:8655   */\n      lt\n        /* \"#utility.yul\":8636:8830   */\n      iszero\n      tag_556\n      jumpi\n        /* \"#utility.yul\":8709:8722   */\n      dup2\n      mload\n        /* \"#utility.yul\":8697:8723   */\n      dup5\n      mstore\n        /* \"#utility.yul\":8746:8750   */\n      0x20\n        /* \"#utility.yul\":8770:8782   */\n      swap4\n      dup5\n      add\n      swap4\n        /* \"#utility.yul\":8805:8820   */\n      swap1\n      swap2\n      add\n      swap1\n        /* \"#utility.yul\":8670:8671   */\n      0x01\n        /* \"#utility.yul\":8663:8672   */\n      add\n        /* \"#utility.yul\":8636:8830   */\n      jump(tag_554)\n    tag_556:\n        /* \"#utility.yul\":8640:8643   */\n      pop\n      pop\n        /* \"#utility.yul\":8510:8836   */\n      pop\n      pop\n      jump\t// out\n        /* \"#utility.yul\":8841:9480   */\n    tag_131:\n        /* \"#utility.yul\":8430:8442   */\n      dup4\n      mload\n        /* \"#utility.yul\":8418:8443   */\n      dup2\n      mstore\n        /* \"#utility.yul\":8492:8496   */\n      0x20\n        /* \"#utility.yul\":8481:8497   */\n      dup1\n      dup6\n      add\n        /* \"#utility.yul\":8475:8498   */\n      mload\n        /* \"#utility.yul\":8459:8473   */\n      swap1\n      dup3\n      add\n        /* \"#utility.yul\":8452:8499   */\n      mstore\n        /* \"#utility.yul\":9165:9168   */\n      0x0100\n        /* \"#utility.yul\":9150:9169   */\n      dup2\n      add\n        /* \"#utility.yul\":9231:9290   */\n      tag_559\n        /* \"#utility.yul\":9286:9288   */\n      0x40\n        /* \"#utility.yul\":9275:9284   */\n      dup4\n        /* \"#utility.yul\":9271:9289   */\n      add\n        /* \"#utility.yul\":9262:9268   */\n      dup6\n        /* \"#utility.yul\":9256:9269   */\n      mload\n        /* \"#utility.yul\":9231:9290   */\n      tag_495\n      jump\t// in\n    tag_559:\n        /* \"#utility.yul\":9337:9341   */\n      0x20\n        /* \"#utility.yul\":9329:9335   */\n      dup5\n        /* \"#utility.yul\":9325:9342   */\n      add\n        /* \"#utility.yul\":9319:9343   */\n      mload\n        /* \"#utility.yul\":9352:9411   */\n      tag_560\n        /* \"#utility.yul\":9406:9409   */\n      0x80\n        /* \"#utility.yul\":9395:9404   */\n      dup5\n        /* \"#utility.yul\":9391:9410   */\n      add\n        /* \"#utility.yul\":9377:9389   */\n      dup3\n        /* \"#utility.yul\":9352:9411   */\n      tag_495\n      jump\t// in\n    tag_560:\n      pop\n        /* \"#utility.yul\":8430:8442   */\n      dup3\n      mload\n        /* \"#utility.yul\":9469:9472   */\n      0xc0\n        /* \"#utility.yul\":9454:9473   */\n      dup4\n      add\n        /* \"#utility.yul\":8418:8443   */\n      mstore\n        /* \"#utility.yul\":8492:8496   */\n      0x20\n        /* \"#utility.yul\":8481:8497   */\n      dup4\n      add\n        /* \"#utility.yul\":8475:8498   */\n      mload\n        /* \"#utility.yul\":8459:8473   */\n      0xe0\n      dup4\n      add\n        /* \"#utility.yul\":8452:8499   */\n      mstore\n        /* \"#utility.yul\":8841:9480   */\n      swap5\n      swap4\n      pop\n      pop\n      pop\n      pop\n      jump\t// out\n        /* \"#utility.yul\":9693:10095   */\n    tag_138:\n        /* \"#utility.yul\":9783:9789   */\n      0x00\n        /* \"#utility.yul\":9791:9797   */\n      dup1\n        /* \"#utility.yul\":9844:9846   */\n      0x40\n        /* \"#utility.yul\":9832:9841   */\n      dup4\n        /* \"#utility.yul\":9823:9830   */\n      dup6\n        /* \"#utility.yul\":9819:9842   */\n      sub\n        /* \"#utility.yul\":9815:9847   */\n      slt\n        /* \"#utility.yul\":9812:9864   */\n      iszero\n      tag_564\n      jumpi\n        /* \"#utility.yul\":9860:9861   */\n      0x00\n        /* \"#utility.yul\":9857:9858   */\n      dup1\n        /* \"#utility.yul\":9850:9862   */\n      revert\n        /* \"#utility.yul\":9812:9864   */\n    tag_564:\n        /* \"#utility.yul\":9892:9901   */\n      dup3\n        /* \"#utility.yul\":9886:9902   */\n      mload\n        /* \"#utility.yul\":9931:9932   */\n      0x07\n        /* \"#utility.yul\":9924:9929   */\n      dup2\n        /* \"#utility.yul\":9921:9933   */\n      lt\n        /* \"#utility.yul\":9911:9951   */\n      tag_565\n      jumpi\n        /* \"#utility.yul\":9947:9948   */\n      0x00\n        /* \"#utility.yul\":9944:9945   */\n      dup1\n        /* \"#utility.yul\":9937:9949   */\n      revert\n        /* \"#utility.yul\":9911:9951   */\n    tag_565:\n        /* \"#utility.yul\":10020:10022   */\n      0x20\n        /* \"#utility.yul\":10005:10023   */\n      dup5\n      add\n        /* \"#utility.yul\":9999:10024   */\n      mload\n        /* \"#utility.yul\":9970:9975   */\n      swap1\n      swap3\n      pop\n        /* \"#utility.yul\":10033:10063   */\n      tag_515\n        /* \"#utility.yul\":9999:10024   */\n      dup2\n        /* \"#utility.yul\":10033:10063   */\n      tag_491\n      jump\t// in\n        /* \"#utility.yul\":10796:11207   */\n    tag_163:\n        /* \"#utility.yul\":10998:11000   */\n      0x20\n        /* \"#utility.yul\":10980:11001   */\n      dup1\n      dup3\n      mstore\n        /* \"#utility.yul\":11037:11039   */\n      0x2f\n        /* \"#utility.yul\":11017:11035   */\n      swap1\n      dup3\n      add\n        /* \"#utility.yul\":11010:11040   */\n      mstore\n        /* \"#utility.yul\":11076:11110   */\n      0x4f6e6c792074686520496e7370656374696f6e204167656e742063616e207275\n        /* \"#utility.yul\":11071:11073   */\n      0x40\n        /* \"#utility.yul\":11056:11074   */\n      dup3\n      add\n        /* \"#utility.yul\":11049:11111   */\n      mstore\n      shl(0x89, 0x37103a3434b990333ab731ba34b7b7)\n        /* \"#utility.yul\":11142:11144   */\n      0x60\n        /* \"#utility.yul\":11127:11145   */\n      dup3\n      add\n        /* \"#utility.yul\":11120:11165   */\n      mstore\n        /* \"#utility.yul\":11197:11200   */\n      0x80\n        /* \"#utility.yul\":11182:11201   */\n      add\n      swap1\n        /* \"#utility.yul\":10796:11207   */\n      jump\t// out\n        /* \"#utility.yul\":11212:11553   */\n    tag_168:\n        /* \"#utility.yul\":11414:11416   */\n      0x20\n        /* \"#utility.yul\":11396:11417   */\n      dup1\n      dup3\n      mstore\n        /* \"#utility.yul\":11453:11455   */\n      0x11\n        /* \"#utility.yul\":11433:11451   */\n      swap1\n      dup3\n      add\n        /* \"#utility.yul\":11426:11456   */\n      mstore\n      shl(0x7a, 0x125b9d985b1a590814995c1bdc9d081251)\n        /* \"#utility.yul\":11487:11489   */\n      0x40\n        /* \"#utility.yul\":11472:11490   */\n      dup3\n      add\n        /* \"#utility.yul\":11465:11512   */\n      mstore\n        /* \"#utility.yul\":11544:11546   */\n      0x60\n        /* \"#utility.yul\":11529:11547   */\n      add\n      swap1\n        /* \"#utility.yul\":11212:11553   */\n      jump\t// out\n        /* \"#utility.yul\":12325:12734   */\n    tag_202:\n        /* \"#utility.yul\":12527:12529   */\n      0x20\n        /* \"#utility.yul\":12509:12530   */\n      dup1\n      dup3\n      mstore\n        /* \"#utility.yul\":12566:12568   */\n      0x2d\n        /* \"#utility.yul\":12546:12564   */\n      swap1\n      dup3\n      add\n        /* \"#utility.yul\":12539:12569   */\n      mstore\n        /* \"#utility.yul\":12605:12639   */\n      0x4f6e6c7920746865204368696c6420477561726469616e2063616e2072756e20\n        /* \"#utility.yul\":12600:12602   */\n      0x40\n        /* \"#utility.yul\":12585:12603   */\n      dup3\n      add\n        /* \"#utility.yul\":12578:12640   */\n      mstore\n      shl(0x99, 0x3a3434b990333ab731ba34b7b7)\n        /* \"#utility.yul\":12671:12673   */\n      0x60\n        /* \"#utility.yul\":12656:12674   */\n      dup3\n      add\n        /* \"#utility.yul\":12649:12692   */\n      mstore\n        /* \"#utility.yul\":12724:12727   */\n      0x80\n        /* \"#utility.yul\":12709:12728   */\n      add\n      swap1\n        /* \"#utility.yul\":12325:12734   */\n      jump\t// out\n        /* \"#utility.yul\":12739:13165   */\n    tag_205:\n        /* \"#utility.yul\":12941:12943   */\n      0x20\n        /* \"#utility.yul\":12923:12944   */\n      dup1\n      dup3\n      mstore\n        /* \"#utility.yul\":12980:12982   */\n      0x3e\n        /* \"#utility.yul\":12960:12978   */\n      swap1\n      dup3\n      add\n        /* \"#utility.yul\":12953:12983   */\n      mstore\n        /* \"#utility.yul\":13019:13053   */\n      0x4f6e6c79207468652061737369676e656420477561726469616e20746f207468\n        /* \"#utility.yul\":13014:13016   */\n      0x40\n        /* \"#utility.yul\":12999:13017   */\n      dup3\n      add\n        /* \"#utility.yul\":12992:13054   */\n      mstore\n        /* \"#utility.yul\":13090:13122   */\n      0x6973206368696c642063616e2072756e20746869732066756e6374696f6e0000\n        /* \"#utility.yul\":13085:13087   */\n      0x60\n        /* \"#utility.yul\":13070:13088   */\n      dup3\n      add\n        /* \"#utility.yul\":13063:13123   */\n      mstore\n        /* \"#utility.yul\":13155:13158   */\n      0x80\n        /* \"#utility.yul\":13140:13159   */\n      add\n      swap1\n        /* \"#utility.yul\":12739:13165   */\n      jump\t// out\n        /* \"#utility.yul\":13170:13510   */\n    tag_214:\n        /* \"#utility.yul\":13372:13374   */\n      0x20\n        /* \"#utility.yul\":13354:13375   */\n      dup1\n      dup3\n      mstore\n        /* \"#utility.yul\":13411:13413   */\n      0x10\n        /* \"#utility.yul\":13391:13409   */\n      swap1\n      dup3\n      add\n        /* \"#utility.yul\":13384:13414   */\n      mstore\n      shl(0x82, 0x125b9d985b1a590810da1a5b19081251)\n        /* \"#utility.yul\":13445:13447   */\n      0x40\n        /* \"#utility.yul\":13430:13448   */\n      dup3\n      add\n        /* \"#utility.yul\":13423:13469   */\n      mstore\n        /* \"#utility.yul\":13501:13503   */\n      0x60\n        /* \"#utility.yul\":13486:13504   */\n      add\n      swap1\n        /* \"#utility.yul\":13170:13510   */\n      jump\t// out\n        /* \"#utility.yul\":13515:13921   */\n    tag_221:\n        /* \"#utility.yul\":13717:13719   */\n      0x20\n        /* \"#utility.yul\":13699:13720   */\n      dup1\n      dup3\n      mstore\n        /* \"#utility.yul\":13756:13758   */\n      0x2a\n        /* \"#utility.yul\":13736:13754   */\n      swap1\n      dup3\n      add\n        /* \"#utility.yul\":13729:13759   */\n      mstore\n        /* \"#utility.yul\":13795:13829   */\n      0x54686973206368696c64206973206e6f742063757272656e746c7920696e2072\n        /* \"#utility.yul\":13790:13792   */\n      0x40\n        /* \"#utility.yul\":13775:13793   */\n      dup3\n      add\n        /* \"#utility.yul\":13768:13830   */\n      mstore\n      shl(0xb1, 0x32b6b2b234b0ba34b7b7)\n        /* \"#utility.yul\":13861:13863   */\n      0x60\n        /* \"#utility.yul\":13846:13864   */\n      dup3\n      add\n        /* \"#utility.yul\":13839:13879   */\n      mstore\n        /* \"#utility.yul\":13911:13914   */\n      0x80\n        /* \"#utility.yul\":13896:13915   */\n      add\n      swap1\n        /* \"#utility.yul\":13515:13921   */\n      jump\t// out\n        /* \"#utility.yul\":16181:16308   */\n    tag_496:\n        /* \"#utility.yul\":16242:16252   */\n      0x4e487b71\n        /* \"#utility.yul\":16237:16240   */\n      0xe0\n        /* \"#utility.yul\":16233:16253   */\n      shl\n        /* \"#utility.yul\":16230:16231   */\n      0x00\n        /* \"#utility.yul\":16223:16254   */\n      mstore\n        /* \"#utility.yul\":16273:16277   */\n      0x11\n        /* \"#utility.yul\":16270:16271   */\n      0x04\n        /* \"#utility.yul\":16263:16278   */\n      mstore\n        /* \"#utility.yul\":16297:16301   */\n      0x24\n        /* \"#utility.yul\":16294:16295   */\n      0x00\n        /* \"#utility.yul\":16287:16302   */\n      revert\n        /* \"#utility.yul\":16313:16448   */\n    tag_259:\n        /* \"#utility.yul\":16352:16355   */\n      0x00\n        /* \"#utility.yul\":16373:16390   */\n      0x01\n      dup3\n      add\n        /* \"#utility.yul\":16370:16413   */\n      tag_586\n      jumpi\n        /* \"#utility.yul\":16393:16411   */\n      tag_586\n      tag_496\n      jump\t// in\n    tag_586:\n      pop\n        /* \"#utility.yul\":16440:16441   */\n      0x01\n        /* \"#utility.yul\":16429:16442   */\n      add\n      swap1\n        /* \"#utility.yul\":16313:16448   */\n      jump\t// out\n        /* \"#utility.yul\":17906:18321   */\n    tag_310:\n        /* \"#utility.yul\":18108:18110   */\n      0x20\n        /* \"#utility.yul\":18090:18111   */\n      dup1\n      dup3\n      mstore\n        /* \"#utility.yul\":18147:18149   */\n      0x33\n        /* \"#utility.yul\":18127:18145   */\n      swap1\n      dup3\n      add\n        /* \"#utility.yul\":18120:18150   */\n      mstore\n        /* \"#utility.yul\":18186:18220   */\n      0x4f6e6c792074686520726567756c61746f727920617574686f72697479206361\n        /* \"#utility.yul\":18181:18183   */\n      0x40\n        /* \"#utility.yul\":18166:18184   */\n      dup3\n      add\n        /* \"#utility.yul\":18159:18221   */\n      mstore\n      shl(0x69, 0x3710393ab7103a3434b990333ab731ba34b7b7)\n        /* \"#utility.yul\":18252:18254   */\n      0x60\n        /* \"#utility.yul\":18237:18255   */\n      dup3\n      add\n        /* \"#utility.yul\":18230:18279   */\n      mstore\n        /* \"#utility.yul\":18311:18314   */\n      0x80\n        /* \"#utility.yul\":18296:18315   */\n      add\n      swap1\n        /* \"#utility.yul\":17906:18321   */\n      jump\t// out\n        /* \"#utility.yul\":19128:19425   */\n    tag_330:\n        /* \"#utility.yul\":19246:19258   */\n      dup1\n      mload\n        /* \"#utility.yul\":19293:19297   */\n      0x20\n        /* \"#utility.yul\":19282:19298   */\n      dup1\n      dup4\n      add\n        /* \"#utility.yul\":19276:19299   */\n      mload\n      swap2\n        /* \"#utility.yul\":19246:19258   */\n      swap1\n        /* \"#utility.yul\":19311:19327   */\n      dup2\n      lt\n        /* \"#utility.yul\":19308:19419   */\n      iszero\n      tag_594\n      jumpi\n        /* \"#utility.yul\":19405:19406   */\n      0x00\n        /* \"#utility.yul\":19401:19407   */\n      not\n        /* \"#utility.yul\":19391:19397   */\n      dup2\n        /* \"#utility.yul\":19385:19389   */\n      0x20\n        /* \"#utility.yul\":19381:19398   */\n      sub\n        /* \"#utility.yul\":19378:19379   */\n      0x03\n        /* \"#utility.yul\":19374:19399   */\n      shl\n        /* \"#utility.yul\":19370:19408   */\n      shl\n        /* \"#utility.yul\":19363:19368   */\n      dup3\n        /* \"#utility.yul\":19359:19409   */\n      and\n        /* \"#utility.yul\":19350:19409   */\n      swap2\n      pop\n        /* \"#utility.yul\":19308:19419   */\n    tag_594:\n      pop\n        /* \"#utility.yul\":19128:19425   */\n      swap2\n      swap1\n      pop\n      jump\t// out\n        /* \"#utility.yul\":19430:19555   */\n    tag_332:\n        /* \"#utility.yul\":19495:19504   */\n      dup1\n      dup3\n      add\n        /* \"#utility.yul\":19516:19526   */\n      dup1\n      dup3\n      gt\n        /* \"#utility.yul\":19513:19549   */\n      iszero\n      tag_597\n      jumpi\n        /* \"#utility.yul\":19529:19547   */\n      tag_597\n      tag_496\n      jump\t// in\n    tag_597:\n        /* \"#utility.yul\":19430:19555   */\n      swap3\n      swap2\n      pop\n      pop\n      jump\t// out\n        /* \"#utility.yul\":19968:20136   */\n    tag_384:\n        /* \"#utility.yul\":20041:20050   */\n      dup1\n      dup3\n      mul\n        /* \"#utility.yul\":20072:20081   */\n      dup2\n      iszero\n        /* \"#utility.yul\":20089:20104   */\n      dup3\n      dup3\n      div\n        /* \"#utility.yul\":20083:20105   */\n      dup5\n      eq\n        /* \"#utility.yul\":20069:20106   */\n      or\n        /* \"#utility.yul\":20059:20130   */\n      tag_597\n      jumpi\n        /* \"#utility.yul\":20110:20128   */\n      tag_597\n      tag_496\n      jump\t// in\n\n    auxdata: 0xa26469706673582212200d5297b420bc187e6c445d9227477ea984fb5a16113583c2d5a6ea4885cf140364736f6c63430008150033\n}\n",
				"bytecode": {
					"linkReferences": {},
					"object": "608060405234801562000010575f80fd5b5060405162002b1138038062002b1183398101604081905262000033916200008b565b5f80546001600160a01b039384166001600160a01b031991821617825560018054939094169216919091179091556002819055600355620000c1565b80516001600160a01b038116811462000086575f80fd5b919050565b5f80604083850312156200009d575f80fd5b620000a8836200006f565b9150620000b8602084016200006f565b90509250929050565b612a4280620000cf5f395ff3fe608060405234801561000f575f80fd5b5060043610610153575f3560e01c806385e68531116100bf578063a1dc99b411610079578063a1dc99b414610470578063b05efaab14610493578063e60e5ee2146104b2578063e8a37919146104c5578063eff5cfae146104d7578063f8b4d690146104ea575f80fd5b806385e68531146103e95780638bc3bbc0146103fc5780638fe2d9501461040557806397fc007c14610418578063992cc0221461042b578063a0619d4a1461043e575f80fd5b806353ca81151161011057806353ca8115146102fe578063636d0262146103295780636388bafc14610361578063739f48a614610380578063832de71e1461039357806384e2395d146103a6575f80fd5b80630ae5e7391461015757806312f1a83a1461016c578063185c6f84146101dc57806328c10330146101f35780632b76ea9c146102065780633835a11914610270575b5f80fd5b61016a6101653660046123aa565b61050c565b005b6101c161017a3660046123ca565b600660209081525f928352604080842090915290825290208054600182015460028301546003840154600485015460059095015493949293919260f89190911b9160ff1686565b6040516101d39695949392919061241e565b60405180910390f35b6101e560025481565b6040519081526020016101d3565b61016a610201366004612472565b610664565b61025d6102143660046124a0565b60086020525f908152604090208054600182015460028301546003840154600485015460058601546006909601546001600160a01b039095169593949293919290919060ff1687565b6040516101d397969594939291906124b7565b6102c361027e3660046124a0565b600460208190525f9182526040909120805460018201546002830154600384015493909401546001600160a01b03909216939092909160ff8082169161010090041686565b604080516001600160a01b039097168752602087019590955293850192909252606084015215156080830152151560a082015260c0016101d3565b600154610311906001600160a01b031681565b6040516001600160a01b0390911681526020016101d3565b61033c6103373660046124a0565b610833565b604080516001600160a01b0390941684526020840192909252908201526060016101d3565b6101e561036f3660046124a0565b60076020525f908152604090205481565b61016a61038e3660046123ca565b610989565b61016a6103a1366004612503565b610c43565b6103b96103b43660046123ca565b611055565b6040516101d3949392919093845260208401929092526001600160f81b0319166040830152606082015260800190565b61016a6103f73660046123aa565b6113aa565b6101e560035481565b61016a6104133660046125e8565b6114b1565b61016a6104263660046123aa565b6116da565b61016a61043936600461262a565b6117df565b61046061044c3660046123aa565b60096020525f908152604090205460ff1681565b60405190151581526020016101d3565b61048361047e3660046123ca565b611ae2565b6040516101d39493929190612653565b6101e56104a13660046124a0565b60056020525f908152604090205481565b61016a6104c036600461267c565b611cb4565b5f54610311906001600160a01b031681565b61016a6104e53660046126c8565b611f1c565b6104fd6104f83660046124a0565b6122d5565b6040516101d393929190612722565b5f8054604051631d6253a360e21b815233600482015282916001600160a01b0316906375894e8c9060240160408051808303815f875af1158015610552573d5f803e3d5ffd5b505050506040513d601f19601f82011682018060405250810190610576919061276f565b9092509050600682600681111561058f5761058f6123ea565b1480156105995750805b6106035760405162461bcd60e51b815260206004820152603060248201527f4f6e6c792074686520426c6f636b636861696e204f7261636c652063616e207260448201526f3ab7103a3434b990333ab731ba34b7b760811b60648201526084015b60405180910390fd5b6001600160a01b0383165f81815260096020908152604091829020805460ff19166001179055815192835242908301527f6ea640312e182de387819fbeb13be00db3171a445412852248559054871c419991015b60405180910390a1505050565b5f8054604051631d6253a360e21b815233600482015282916001600160a01b0316906375894e8c9060240160408051808303815f875af11580156106aa573d5f803e3d5ffd5b505050506040513d601f19601f820116820180604052508101906106ce919061276f565b909250905060038260068111156106e7576106e76123ea565b1480156106f15750805b61070d5760405162461bcd60e51b81526004016105fa9061279f565b6001841015801561072057506002548411155b61073c5760405162461bcd60e51b81526004016105fa906127ee565b5f848152600460208190526040909120015460ff16156107ad5760405162461bcd60e51b815260206004820152602660248201527f54686973207265706f72742068617320616c7265616479206265656e20696e736044820152651c1958dd195960d21b60648201526084016105fa565b5f848152600460208190526040918290200180548515156101000261ffff199091161760011790555184907f5e672278b5a4ce7f1deaeb816f60398e65c2401c6f90928e8344510d7fa9275590610825903390879042906001600160a01b039390931683529015156020830152604082015260600190565b60405180910390a250505050565b5f8054604051631d6253a360e21b815233600482015282918291829182916001600160a01b03909116906375894e8c9060240160408051808303815f875af1158015610881573d5f803e3d5ffd5b505050506040513d601f19601f820116820180604052508101906108a5919061276f565b909250905060038260068111156108be576108be6123ea565b1480156108c85750805b6108e45760405162461bcd60e51b81526004016105fa9061279f565b600186101580156108f757506002548611155b6109135760405162461bcd60e51b81526004016105fa906127ee565b5050505f928352505060046020818152604092839020835160c08101855281546001600160a01b03168082526001830154938201849052600283015495820195909552600382015460608201819052919093015460ff8082161515608086015261010090910416151560a0909301929092529192565b5f8054604051631d6253a360e21b815233600482015283929182916001600160a01b03909116906375894e8c9060240160408051808303815f875af11580156109d4573d5f803e3d5ffd5b505050506040513d601f19601f820116820180604052508101906109f8919061276f565b90925090506005826006811115610a1157610a116123ea565b148015610a1b5750805b610a375760405162461bcd60e51b81526004016105fa90612819565b5f838152600860205260409020546001600160a01b03163314610a6c5760405162461bcd60e51b81526004016105fa90612866565b5f848152600860209081526040808320815160e08101835281546001600160a01b03168152600182015493810193909352600281015491830191909152600380820154606084015260048201546080840152600582015460a0840152600682015460c084019160ff90911690811115610ae757610ae76123ea565b6003811115610af857610af86123ea565b905250905060018510801590610b1b57505f868152600760205260409020548511155b610b375760405162461bcd60e51b81526004016105fa906128c3565b60028160c001516003811115610b4f57610b4f6123ea565b14610b6c5760405162461bcd60e51b81526004016105fa906128ed565b8060600151421015610bd65760405162461bcd60e51b815260206004820152602d60248201527f5468652074696d652077696e646f7720666f722072656d6564696174696f6e2060448201526c34b99039ba34b6361037b832b760991b60648201526084016105fa565b5f8581526008602090815260409182902060068101805460ff1916600317905542600490910181905582518981529182018890528183015290517ff0759b1c58f2eb04b7275484184a141f88fedeb54c9a6a48b4e7d9d332edb1a7916060908290030190a1505050505050565b5f8054604051631d6253a360e21b815233600482015282916001600160a01b0316906375894e8c9060240160408051808303815f875af1158015610c89573d5f803e3d5ffd5b505050506040513d601f19601f82011682018060405250810190610cad919061276f565b90925090506003826006811115610cc657610cc66123ea565b148015610cd05750805b610cec5760405162461bcd60e51b81526004016105fa9061279f565b5f83815260046020818152604092839020835160c08101855281546001600160a01b031681526001820154928101929092526002810154938201939093526003830154606082015291015460ff8082161515608084015261010090910416151560a082015286610d945760405162461bcd60e51b8152602060048201526013602482015272496e76616c696420686173686564206e616d6560681b60448201526064016105fa565b5f8611610dd15760405162461bcd60e51b815260206004820152600b60248201526a496e76616c69642041676560a81b60448201526064016105fa565b604d60f81b6001600160f81b031986161480610dfa5750602360f91b6001600160f81b03198616145b610e375760405162461bcd60e51b815260206004820152600e60248201526d24b73b30b634b21023b2b73232b960911b60448201526064016105fa565b60018410158015610e4a57506002548411155b610e665760405162461bcd60e51b81526004016105fa906127ee565b8060a00151610ef35760405162461bcd60e51b815260206004820152604d60248201527f43616e6e6f742073746f7265206368696c64206461746120626563617573652060448201527f7468652076696f6c6174696f6e207265706f727420496420686173206e6f742060648201526c1899595b881d995c9a599a5959609a1b608482015260a4016105fa565b5f848152600760205260408120805491610f0c8361294b565b90915550506040805160c0810182525f86815260076020908152838220548084528184018c81528486018c81526001600160f81b03198c1660608701908152608087018c815260a088018781528d88526006875289882095885294909552969094208551815590516001808301919091559351600282015594516003808701805460f89390931c60ff19938416179055925160048701559051600586018054959695919490939190921691908490811115610fc957610fc96123ea565b021790555050505f8481526007602081815260408084208054855260058352818520899055938890529181529154815190815291820189905281018790526001600160f81b031986166060820152608081018590527f8f6937edcd05ce1c1912e225ec700cb996d92333e3b1631ce16e703fc6b8e77a9060a0015b60405180910390a150505050505050565b5f8054604051631d6253a360e21b8152336004820152829182918291829182916001600160a01b0316906375894e8c9060240160408051808303815f875af11580156110a3573d5f803e3d5ffd5b505050506040513d601f19601f820116820180604052508101906110c7919061276f565b5f8a81526006602090815260408083208c84528252808320815160c0810183528154815260018201549381019390935260028101549183019190915260038082015460f81b6001600160f81b03191660608401526004820154608084015260058201549597509395509193909260a084019160ff169081111561114c5761114c6123ea565b600381111561115d5761115d6123ea565b9052505f8a815260046020818152604092839020835160c08101855281546001600160a01b03168152600182015492810192909252600281015493820193909352600383015460608201529181015460ff8082161515608085015261010090910416151560a0830152919250908460068111156111dc576111dc6123ea565b1480156111e65750825b8061120a57506001846006811115611200576112006123ea565b14801561120a5750825b61128a5760405162461bcd60e51b815260206004820152604560248201527f4f6e6c792074686520526567756c61746f727920417574686f7269747920616e60448201527f64204461746120416e616c797374732063616e2072756e20746869732066756e60648201526431ba34b7b760d91b608482015260a4016105fa565b60018a1015801561129d57506002548a11155b6112b95760405162461bcd60e51b81526004016105fa906127ee565b600189101580156112d757505f8a8152600760205260409020548911155b6112f35760405162461bcd60e51b81526004016105fa906128c3565b8060a001516113835760405162461bcd60e51b815260206004820152605060248201527f43616e6e6f74207265747269657665206368696c64206461746120626563617560448201527f7365207468652076696f6c6174696f6e207265706f727420496420686173206e60648201526f1bdd081899595b881d995c9a599a595960821b608482015260a4016105fa565b602082015160408301516060938401519290930151909b929a509098509650945050505050565b5f8054604051631d6253a360e21b815233600482015282916001600160a01b0316906375894e8c9060240160408051808303815f875af11580156113f0573d5f803e3d5ffd5b505050506040513d601f19601f82011682018060405250810190611414919061276f565b9092509050600182600681111561142d5761142d6123ea565b1480156114375750805b6114535760405162461bcd60e51b81526004016105fa90612963565b6001600160a01b0383165f81815260096020908152604091829020805460ff1916905581513381529081019290925242908201527f6f6a404ffd2cea4713256a4fd9ce99c8cf8cf32d85c2bb8061d1603ff57d50c390606001610657565b5f8054604051631d6253a360e21b815233600482015282916001600160a01b0316906375894e8c9060240160408051808303815f875af11580156114f7573d5f803e3d5ffd5b505050506040513d601f19601f8201168201806040525081019061151b919061276f565b90925090506002826006811115611534576115346123ea565b14801561153e5750805b6115a85760405162461bcd60e51b815260206004820152603560248201527f4f6e6c79206120726567697374657265642077686973746c65626c6f7765722060448201527431b0b710393ab7103a3434b990333ab731ba34b7b760591b60648201526084016105fa565b60028054905f6115b78361294b565b90915550506040805160c081018252338152426020820152908101849052606081016115e2866129b6565b81525f602080830182905260409283018290526002805483526004808352848420865181546001600160a01b039091166001600160a01b031990911617815592860151600184015593850151908201556060840151600380830191909155608085015191909301805460a09095015115156101000261ff00199215159290921661ffff19909516949094171790925580548592906116819084906129dc565b90915550506002547f681f3195132986285e497b66d82a1d87dee04fe482a1e74020677b543e3f7c4033426116b5886129b6565b604080516001600160a01b039094168452602084019290925290820152606001610825565b5f8054604051631d6253a360e21b815233600482015282916001600160a01b0316906375894e8c9060240160408051808303815f875af1158015611720573d5f803e3d5ffd5b505050506040513d601f19601f82011682018060405250810190611744919061276f565b9092509050600182600681111561175d5761175d6123ea565b1480156117675750805b6117835760405162461bcd60e51b81526004016105fa90612963565b600180546001600160a01b0319166001600160a01b03851690811790915560408051338152602081019290925242908201527fd64ae07f3ddea489022b7c3651c0b93cc96296695feac84461061dfa1f34c0cb90606001610657565b5f8054604051631d6253a360e21b815233600482015284929182916001600160a01b03909116906375894e8c9060240160408051808303815f875af115801561182a573d5f803e3d5ffd5b505050506040513d601f19601f8201168201806040525081019061184e919061276f565b90925090506005826006811115611867576118676123ea565b1480156118715750805b61188d5760405162461bcd60e51b81526004016105fa90612819565b5f838152600860205260409020546001600160a01b031633146118c25760405162461bcd60e51b81526004016105fa90612866565b5f858152600860209081526040808320815160e08101835281546001600160a01b03168152600182015493810193909352600281015491830191909152600380820154606084015260048201546080840152600582015460a0840152600682015460c084019160ff9091169081111561193d5761193d6123ea565b600381111561194e5761194e6123ea565b90525090506001871080159061196657506002548711155b6119825760405162461bcd60e51b81526004016105fa906127ee565b600186101580156119a057505f878152600760205260409020548611155b6119bc5760405162461bcd60e51b81526004016105fa906128c3565b60018160c0015160038111156119d4576119d46123ea565b14611a315760405162461bcd60e51b815260206004820152602760248201527f54686973206368696c64206973206e6f7420726561647920666f722072656d656044820152663234b0ba34b7b760c91b60648201526084016105fa565b5f86815260086020526040902060068101805460ff1916600290811790915542910155611a5f8560016129f5565b611a6990426129dc565b5f87815260086020526040902060038101919091554260049091018190557f29dc036766d8e77f495b0b42f18a239419af9f8dd528d84e1251663aa6da16c99088908890611ab88960016129f5565b611ac290426129dc565b604080519485526020850193909352918301526060820152608001611044565b5f8054604051631d6253a360e21b8152336004820152829182918291829182916001600160a01b0316906375894e8c9060240160408051808303815f875af1158015611b30573d5f803e3d5ffd5b505050506040513d601f19601f82011682018060405250810190611b54919061276f565b90925090506001826006811115611b6d57611b6d6123ea565b148015611b775750805b611b935760405162461bcd60e51b81526004016105fa90612963565b5f878152600860209081526040808320815160e08101835281546001600160a01b03168152600182015493810193909352600281015491830191909152600380820154606084015260048201546080840152600582015460a0840152600682015460c084019160ff90911690811115611c0e57611c0e6123ea565b6003811115611c1f57611c1f6123ea565b905250905060018910801590611c3757506002548911155b611c535760405162461bcd60e51b81526004016105fa906127ee565b60018810158015611c7157505f898152600760205260409020548811155b611c8d5760405162461bcd60e51b81526004016105fa906128c3565b60c081015160808201516040830151606090930151919b909a509198509650945050505050565b5f8054604051631d6253a360e21b815233600482015284929182916001600160a01b03909116906375894e8c9060240160408051808303815f875af1158015611cff573d5f803e3d5ffd5b505050506040513d601f19601f82011682018060405250810190611d23919061276f565b90925090506005826006811115611d3c57611d3c6123ea565b148015611d465750805b611d625760405162461bcd60e51b81526004016105fa90612819565b5f838152600860205260409020546001600160a01b03163314611d975760405162461bcd60e51b81526004016105fa90612866565b5f858152600860209081526040808320815160e08101835281546001600160a01b03168152600182015493810193909352600281015491830191909152600380820154606084015260048201546080840152600582015460a0840152600682015460c084019160ff90911690811115611e1257611e126123ea565b6003811115611e2357611e236123ea565b905250905060018710801590611e3b57506002548711155b611e575760405162461bcd60e51b81526004016105fa906127ee565b60018610158015611e7557505f878152600760205260409020548611155b611e915760405162461bcd60e51b81526004016105fa906128c3565b60028160c001516003811115611ea957611ea96123ea565b14611ec65760405162461bcd60e51b81526004016105fa906128ed565b611ecf856129b6565b5f87815260086020526040902060058101919091554260049091018190557fde2669f070bfb51d280ef42c92c59e3f20bbeef765e99cab94cd673cc2bf0f2f9088908890611ac2896129b6565b5f8054604051631d6253a360e21b815233600482015282916001600160a01b0316906375894e8c9060240160408051808303815f875af1158015611f62573d5f803e3d5ffd5b505050506040513d601f19601f82011682018060405250810190611f86919061276f565b90925090506001826006811115611f9f57611f9f6123ea565b148015611fa95750805b611fc55760405162461bcd60e51b81526004016105fa90612963565b5f8581526006602090815260408083208784528252808320815160c0810183528154815260018201549381019390935260028101549183019190915260038082015460f81b6001600160f81b031916606084015260048201546080840152600582015460a084019160ff90911690811115612042576120426123ea565b6003811115612053576120536123ea565b9052505f878152600460208181526040808420815160c08101835281546001600160a01b03168152600182015493810193909352600281015491830191909152600381015460608301529091015460ff8082161515608084015261010090910416151560a08201529192508260a0015160038111156120d4576120d46123ea565b146121555760405162461bcd60e51b8152602060048201526044602482018190527f54686973206368696c6420496420646f6573206e6f74206578697374206f7220908201527f68617320616c7265616479206265656e2061737369676e6564206120677561726064820152633234b0b760e11b608482015260a4016105fa565b6001871015801561216857506002548711155b6121845760405162461bcd60e51b81526004016105fa906127ee565b600186101580156121a257505f878152600760205260409020548611155b6121be5760405162461bcd60e51b81526004016105fa906128c3565b8060a0015161224c5760405162461bcd60e51b815260206004820152604e60248201527f43616e6e6f742061737369676e206120677561726469616e206265636175736560448201527f207468652076696f6c6174696f6e207265706f727420496420686173206e6f7460648201526d081899595b881d995c9a599a595960921b608482015260a4016105fa565b5f86815260086020526040902080546001600160a01b0319166001600160a01b03871617815560018082018890556006909101805460ff19168280021790555060408051878152602081018990526001600160a01b038716918101919091527fe1a03807ff7b7d8ac4c42cf3fe3905d10b2b30935d18974726482db3bf232e3690606001611044565b600a60209081525f91825260409182902082518084018452815481526001820154928101929092528251608081018085529293919290916002808501928492830191849182845b81548152602001906001019080831161231c57505050918352505060408051808201918290526020909201919060028481019182845b8154815260200190600101908083116123525750505091909252505060408051808201909152600684015481526007909301546020840152509083565b80356001600160a01b03811681146123a5575f80fd5b919050565b5f602082840312156123ba575f80fd5b6123c38261238f565b9392505050565b5f80604083850312156123db575f80fd5b50508035926020909101359150565b634e487b7160e01b5f52602160045260245ffd5b6004811061241a57634e487b7160e01b5f52602160045260245ffd5b9052565b86815260208101869052604081018590526001600160f81b0319841660608201526080810183905260c0810161245760a08301846123fe565b979650505050505050565b801515811461246f575f80fd5b50565b5f8060408385031215612483575f80fd5b82359150602083013561249581612462565b809150509250929050565b5f602082840312156124b0575f80fd5b5035919050565b6001600160a01b03881681526020810187905260408101869052606081018590526080810184905260a0810183905260e081016124f760c08301846123fe565b98975050505050505050565b5f805f8060808587031215612516575f80fd5b843593506020850135925060408501356001600160f81b03198116811461253b575f80fd5b9396929550929360600135925050565b634e487b7160e01b5f52604160045260245ffd5b5f82601f83011261256e575f80fd5b813567ffffffffffffffff808211156125895761258961254b565b604051601f8301601f19908116603f011681019082821181831017156125b1576125b161254b565b816040528381528660208588010111156125c9575f80fd5b836020870160208301375f602085830101528094505050505092915050565b5f80604083850312156125f9575f80fd5b823567ffffffffffffffff81111561260f575f80fd5b61261b8582860161255f565b95602094909401359450505050565b5f805f6060848603121561263c575f80fd5b505081359360208301359350604090920135919050565b6080810161266182876123fe565b84602083015283604083015282606083015295945050505050565b5f805f6060848603121561268e575f80fd5b8335925060208401359150604084013567ffffffffffffffff8111156126b2575f80fd5b6126be8682870161255f565b9150509250925092565b5f805f606084860312156126da575f80fd5b83359250602084013591506126f16040850161238f565b90509250925092565b805f5b600281101561271c5781518452602093840193909101906001016126fd565b50505050565b835181526020808501519082015261010081016127436040830185516126fa565b602084015161275560808401826126fa565b50825160c0830152602083015160e0830152949350505050565b5f8060408385031215612780575f80fd5b82516007811061278e575f80fd5b602084015190925061249581612462565b6020808252602f908201527f4f6e6c792074686520496e7370656374696f6e204167656e742063616e20727560408201526e37103a3434b990333ab731ba34b7b760891b606082015260800190565b602080825260119082015270125b9d985b1a590814995c1bdc9d081251607a1b604082015260600190565b6020808252602d908201527f4f6e6c7920746865204368696c6420477561726469616e2063616e2072756e2060408201526c3a3434b990333ab731ba34b7b760991b606082015260800190565b6020808252603e908201527f4f6e6c79207468652061737369676e656420477561726469616e20746f20746860408201527f6973206368696c642063616e2072756e20746869732066756e6374696f6e0000606082015260800190565b60208082526010908201526f125b9d985b1a590810da1a5b1908125160821b604082015260600190565b6020808252602a908201527f54686973206368696c64206973206e6f742063757272656e746c7920696e207260408201526932b6b2b234b0ba34b7b760b11b606082015260800190565b634e487b7160e01b5f52601160045260245ffd5b5f6001820161295c5761295c612937565b5060010190565b60208082526033908201527f4f6e6c792074686520726567756c61746f727920617574686f726974792063616040820152723710393ab7103a3434b990333ab731ba34b7b760691b606082015260800190565b805160208083015191908110156129d6575f198160200360031b1b821691505b50919050565b808201808211156129ef576129ef612937565b92915050565b80820281158282048414176129ef576129ef61293756fea26469706673582212200d5297b420bc187e6c445d9227477ea984fb5a16113583c2d5a6ea4885cf140364736f6c63430008150033",
					"opcodes": "PUSH1 0x80 PUSH1 0x40 MSTORE CALLVALUE DUP1 ISZERO PUSH3 0x10 JUMPI PUSH0 DUP1 REVERT JUMPDEST POP PUSH1 0x40 MLOAD PUSH3 0x2B11 CODESIZE SUB DUP1 PUSH3 0x2B11 DUP4 CODECOPY DUP2 ADD PUSH1 0x40 DUP2 SWAP1 MSTORE PUSH3 0x33 SWAP2 PUSH3 0x8B JUMP JUMPDEST PUSH0 DUP1 SLOAD PUSH1 0x1 PUSH1 0x1 PUSH1 0xA0 SHL SUB SWAP4 DUP5 AND PUSH1 0x1 PUSH1 0x1 PUSH1 0xA0 SHL SUB NOT SWAP2 DUP3 AND OR DUP3 SSTORE PUSH1 0x1 DUP1 SLOAD SWAP4 SWAP1 SWAP5 AND SWAP3 AND SWAP2 SWAP1 SWAP2 OR SWAP1 SWAP2 SSTORE PUSH1 0x2 DUP2 SWAP1 SSTORE PUSH1 0x3 SSTORE PUSH3 0xC1 JUMP JUMPDEST DUP1 MLOAD PUSH1 0x1 PUSH1 0x1 PUSH1 0xA0 SHL SUB DUP2 AND DUP2 EQ PUSH3 0x86 JUMPI PUSH0 DUP1 REVERT JUMPDEST SWAP2 SWAP1 POP JUMP JUMPDEST PUSH0 DUP1 PUSH1 0x40 DUP4 DUP6 SUB SLT ISZERO PUSH3 0x9D JUMPI PUSH0 DUP1 REVERT JUMPDEST PUSH3 0xA8 DUP4 PUSH3 0x6F JUMP JUMPDEST SWAP2 POP PUSH3 0xB8 PUSH1 0x20 DUP5 ADD PUSH3 0x6F JUMP JUMPDEST SWAP1 POP SWAP3 POP SWAP3 SWAP1 POP JUMP JUMPDEST PUSH2 0x2A42 DUP1 PUSH3 0xCF PUSH0 CODECOPY PUSH0 RETURN INVALID PUSH1 0x80 PUSH1 0x40 MSTORE CALLVALUE DUP1 ISZERO PUSH2 0xF JUMPI PUSH0 DUP1 REVERT JUMPDEST POP PUSH1 0x4 CALLDATASIZE LT PUSH2 0x153 JUMPI PUSH0 CALLDATALOAD PUSH1 0xE0 SHR DUP1 PUSH4 0x85E68531 GT PUSH2 0xBF JUMPI DUP1 PUSH4 0xA1DC99B4 GT PUSH2 0x79 JUMPI DUP1 PUSH4 0xA1DC99B4 EQ PUSH2 0x470 JUMPI DUP1 PUSH4 0xB05EFAAB EQ PUSH2 0x493 JUMPI DUP1 PUSH4 0xE60E5EE2 EQ PUSH2 0x4B2 JUMPI DUP1 PUSH4 0xE8A37919 EQ PUSH2 0x4C5 JUMPI DUP1 PUSH4 0xEFF5CFAE EQ PUSH2 0x4D7 JUMPI DUP1 PUSH4 0xF8B4D690 EQ PUSH2 0x4EA JUMPI PUSH0 DUP1 REVERT JUMPDEST DUP1 PUSH4 0x85E68531 EQ PUSH2 0x3E9 JUMPI DUP1 PUSH4 0x8BC3BBC0 EQ PUSH2 0x3FC JUMPI DUP1 PUSH4 0x8FE2D950 EQ PUSH2 0x405 JUMPI DUP1 PUSH4 0x97FC007C EQ PUSH2 0x418 JUMPI DUP1 PUSH4 0x992CC022 EQ PUSH2 0x42B JUMPI DUP1 PUSH4 0xA0619D4A EQ PUSH2 0x43E JUMPI PUSH0 DUP1 REVERT JUMPDEST DUP1 PUSH4 0x53CA8115 GT PUSH2 0x110 JUMPI DUP1 PUSH4 0x53CA8115 EQ PUSH2 0x2FE JUMPI DUP1 PUSH4 0x636D0262 EQ PUSH2 0x329 JUMPI DUP1 PUSH4 0x6388BAFC EQ PUSH2 0x361 JUMPI DUP1 PUSH4 0x739F48A6 EQ PUSH2 0x380 JUMPI DUP1 PUSH4 0x832DE71E EQ PUSH2 0x393 JUMPI DUP1 PUSH4 0x84E2395D EQ PUSH2 0x3A6 JUMPI PUSH0 DUP1 REVERT JUMPDEST DUP1 PUSH4 0xAE5E739 EQ PUSH2 0x157 JUMPI DUP1 PUSH4 0x12F1A83A EQ PUSH2 0x16C JUMPI DUP1 PUSH4 0x185C6F84 EQ PUSH2 0x1DC JUMPI DUP1 PUSH4 0x28C10330 EQ PUSH2 0x1F3 JUMPI DUP1 PUSH4 0x2B76EA9C EQ PUSH2 0x206 JUMPI DUP1 PUSH4 0x3835A119 EQ PUSH2 0x270 JUMPI JUMPDEST PUSH0 DUP1 REVERT JUMPDEST PUSH2 0x16A PUSH2 0x165 CALLDATASIZE PUSH1 0x4 PUSH2 0x23AA JUMP JUMPDEST PUSH2 0x50C JUMP JUMPDEST STOP JUMPDEST PUSH2 0x1C1 PUSH2 0x17A CALLDATASIZE PUSH1 0x4 PUSH2 0x23CA JUMP JUMPDEST PUSH1 0x6 PUSH1 0x20 SWAP1 DUP2 MSTORE PUSH0 SWAP3 DUP4 MSTORE PUSH1 0x40 DUP1 DUP5 KECCAK256 SWAP1 SWAP2 MSTORE SWAP1 DUP3 MSTORE SWAP1 KECCAK256 DUP1 SLOAD PUSH1 0x1 DUP3 ADD SLOAD PUSH1 0x2 DUP4 ADD SLOAD PUSH1 0x3 DUP5 ADD SLOAD PUSH1 0x4 DUP6 ADD SLOAD PUSH1 0x5 SWAP1 SWAP6 ADD SLOAD SWAP4 SWAP5 SWAP3 SWAP4 SWAP2 SWAP3 PUSH1 0xF8 SWAP2 SWAP1 SWAP2 SHL SWAP2 PUSH1 0xFF AND DUP7 JUMP JUMPDEST PUSH1 0x40 MLOAD PUSH2 0x1D3 SWAP7 SWAP6 SWAP5 SWAP4 SWAP3 SWAP2 SWAP1 PUSH2 0x241E JUMP JUMPDEST PUSH1 0x40 MLOAD DUP1 SWAP2 SUB SWAP1 RETURN JUMPDEST PUSH2 0x1E5 PUSH1 0x2 SLOAD DUP2 JUMP JUMPDEST PUSH1 0x40 MLOAD SWAP1 DUP2 MSTORE PUSH1 0x20 ADD PUSH2 0x1D3 JUMP JUMPDEST PUSH2 0x16A PUSH2 0x201 CALLDATASIZE PUSH1 0x4 PUSH2 0x2472 JUMP JUMPDEST PUSH2 0x664 JUMP JUMPDEST PUSH2 0x25D PUSH2 0x214 CALLDATASIZE PUSH1 0x4 PUSH2 0x24A0 JUMP JUMPDEST PUSH1 0x8 PUSH1 0x20 MSTORE PUSH0 SWAP1 DUP2 MSTORE PUSH1 0x40 SWAP1 KECCAK256 DUP1 SLOAD PUSH1 0x1 DUP3 ADD SLOAD PUSH1 0x2 DUP4 ADD SLOAD PUSH1 0x3 DUP5 ADD SLOAD PUSH1 0x4 DUP6 ADD SLOAD PUSH1 0x5 DUP7 ADD SLOAD PUSH1 0x6 SWAP1 SWAP7 ADD SLOAD PUSH1 0x1 PUSH1 0x1 PUSH1 0xA0 SHL SUB SWAP1 SWAP6 AND SWAP6 SWAP4 SWAP5 SWAP3 SWAP4 SWAP2 SWAP3 SWAP1 SWAP2 SWAP1 PUSH1 0xFF AND DUP8 JUMP JUMPDEST PUSH1 0x40 MLOAD PUSH2 0x1D3 SWAP8 SWAP7 SWAP6 SWAP5 SWAP4 SWAP3 SWAP2 SWAP1 PUSH2 0x24B7 JUMP JUMPDEST PUSH2 0x2C3 PUSH2 0x27E CALLDATASIZE PUSH1 0x4 PUSH2 0x24A0 JUMP JUMPDEST PUSH1 0x4 PUSH1 0x20 DUP2 SWAP1 MSTORE PUSH0 SWAP2 DUP3 MSTORE PUSH1 0x40 SWAP1 SWAP2 KECCAK256 DUP1 SLOAD PUSH1 0x1 DUP3 ADD SLOAD PUSH1 0x2 DUP4 ADD SLOAD PUSH1 0x3 DUP5 ADD SLOAD SWAP4 SWAP1 SWAP5 ADD SLOAD PUSH1 0x1 PUSH1 0x1 PUSH1 0xA0 SHL SUB SWAP1 SWAP3 AND SWAP4 SWAP1 SWAP3 SWAP1 SWAP2 PUSH1 0xFF DUP1 DUP3 AND SWAP2 PUSH2 0x100 SWAP1 DIV AND DUP7 JUMP JUMPDEST PUSH1 0x40 DUP1 MLOAD PUSH1 0x1 PUSH1 0x1 PUSH1 0xA0 SHL SUB SWAP1 SWAP8 AND DUP8 MSTORE PUSH1 0x20 DUP8 ADD SWAP6 SWAP1 SWAP6 MSTORE SWAP4 DUP6 ADD SWAP3 SWAP1 SWAP3 MSTORE PUSH1 0x60 DUP5 ADD MSTORE ISZERO ISZERO PUSH1 0x80 DUP4 ADD MSTORE ISZERO ISZERO PUSH1 0xA0 DUP3 ADD MSTORE PUSH1 0xC0 ADD PUSH2 0x1D3 JUMP JUMPDEST PUSH1 0x1 SLOAD PUSH2 0x311 SWAP1 PUSH1 0x1 PUSH1 0x1 PUSH1 0xA0 SHL SUB AND DUP2 JUMP JUMPDEST PUSH1 0x40 MLOAD PUSH1 0x1 PUSH1 0x1 PUSH1 0xA0 SHL SUB SWAP1 SWAP2 AND DUP2 MSTORE PUSH1 0x20 ADD PUSH2 0x1D3 JUMP JUMPDEST PUSH2 0x33C PUSH2 0x337 CALLDATASIZE PUSH1 0x4 PUSH2 0x24A0 JUMP JUMPDEST PUSH2 0x833 JUMP JUMPDEST PUSH1 0x40 DUP1 MLOAD PUSH1 0x1 PUSH1 0x1 PUSH1 0xA0 SHL SUB SWAP1 SWAP5 AND DUP5 MSTORE PUSH1 0x20 DUP5 ADD SWAP3 SWAP1 SWAP3 MSTORE SWAP1 DUP3 ADD MSTORE PUSH1 0x60 ADD PUSH2 0x1D3 JUMP JUMPDEST PUSH2 0x1E5 PUSH2 0x36F CALLDATASIZE PUSH1 0x4 PUSH2 0x24A0 JUMP JUMPDEST PUSH1 0x7 PUSH1 0x20 MSTORE PUSH0 SWAP1 DUP2 MSTORE PUSH1 0x40 SWAP1 KECCAK256 SLOAD DUP2 JUMP JUMPDEST PUSH2 0x16A PUSH2 0x38E CALLDATASIZE PUSH1 0x4 PUSH2 0x23CA JUMP JUMPDEST PUSH2 0x989 JUMP JUMPDEST PUSH2 0x16A PUSH2 0x3A1 CALLDATASIZE PUSH1 0x4 PUSH2 0x2503 JUMP JUMPDEST PUSH2 0xC43 JUMP JUMPDEST PUSH2 0x3B9 PUSH2 0x3B4 CALLDATASIZE PUSH1 0x4 PUSH2 0x23CA JUMP JUMPDEST PUSH2 0x1055 JUMP JUMPDEST PUSH1 0x40 MLOAD PUSH2 0x1D3 SWAP5 SWAP4 SWAP3 SWAP2 SWAP1 SWAP4 DUP5 MSTORE PUSH1 0x20 DUP5 ADD SWAP3 SWAP1 SWAP3 MSTORE PUSH1 0x1 PUSH1 0x1 PUSH1 0xF8 SHL SUB NOT AND PUSH1 0x40 DUP4 ADD MSTORE PUSH1 0x60 DUP3 ADD MSTORE PUSH1 0x80 ADD SWAP1 JUMP JUMPDEST PUSH2 0x16A PUSH2 0x3F7 CALLDATASIZE PUSH1 0x4 PUSH2 0x23AA JUMP JUMPDEST PUSH2 0x13AA JUMP JUMPDEST PUSH2 0x1E5 PUSH1 0x3 SLOAD DUP2 JUMP JUMPDEST PUSH2 0x16A PUSH2 0x413 CALLDATASIZE PUSH1 0x4 PUSH2 0x25E8 JUMP JUMPDEST PUSH2 0x14B1 JUMP JUMPDEST PUSH2 0x16A PUSH2 0x426 CALLDATASIZE PUSH1 0x4 PUSH2 0x23AA JUMP JUMPDEST PUSH2 0x16DA JUMP JUMPDEST PUSH2 0x16A PUSH2 0x439 CALLDATASIZE PUSH1 0x4 PUSH2 0x262A JUMP JUMPDEST PUSH2 0x17DF JUMP JUMPDEST PUSH2 0x460 PUSH2 0x44C CALLDATASIZE PUSH1 0x4 PUSH2 0x23AA JUMP JUMPDEST PUSH1 0x9 PUSH1 0x20 MSTORE PUSH0 SWAP1 DUP2 MSTORE PUSH1 0x40 SWAP1 KECCAK256 SLOAD PUSH1 0xFF AND DUP2 JUMP JUMPDEST PUSH1 0x40 MLOAD SWAP1 ISZERO ISZERO DUP2 MSTORE PUSH1 0x20 ADD PUSH2 0x1D3 JUMP JUMPDEST PUSH2 0x483 PUSH2 0x47E CALLDATASIZE PUSH1 0x4 PUSH2 0x23CA JUMP JUMPDEST PUSH2 0x1AE2 JUMP JUMPDEST PUSH1 0x40 MLOAD PUSH2 0x1D3 SWAP5 SWAP4 SWAP3 SWAP2 SWAP1 PUSH2 0x2653 JUMP JUMPDEST PUSH2 0x1E5 PUSH2 0x4A1 CALLDATASIZE PUSH1 0x4 PUSH2 0x24A0 JUMP JUMPDEST PUSH1 0x5 PUSH1 0x20 MSTORE PUSH0 SWAP1 DUP2 MSTORE PUSH1 0x40 SWAP1 KECCAK256 SLOAD DUP2 JUMP JUMPDEST PUSH2 0x16A PUSH2 0x4C0 CALLDATASIZE PUSH1 0x4 PUSH2 0x267C JUMP JUMPDEST PUSH2 0x1CB4 JUMP JUMPDEST PUSH0 SLOAD PUSH2 0x311 SWAP1 PUSH1 0x1 PUSH1 0x1 PUSH1 0xA0 SHL SUB AND DUP2 JUMP JUMPDEST PUSH2 0x16A PUSH2 0x4E5 CALLDATASIZE PUSH1 0x4 PUSH2 0x26C8 JUMP JUMPDEST PUSH2 0x1F1C JUMP JUMPDEST PUSH2 0x4FD PUSH2 0x4F8 CALLDATASIZE PUSH1 0x4 PUSH2 0x24A0 JUMP JUMPDEST PUSH2 0x22D5 JUMP JUMPDEST PUSH1 0x40 MLOAD PUSH2 0x1D3 SWAP4 SWAP3 SWAP2 SWAP1 PUSH2 0x2722 JUMP JUMPDEST PUSH0 DUP1 SLOAD PUSH1 0x40 MLOAD PUSH4 0x1D6253A3 PUSH1 0xE2 SHL DUP2 MSTORE CALLER PUSH1 0x4 DUP3 ADD MSTORE DUP3 SWAP2 PUSH1 0x1 PUSH1 0x1 PUSH1 0xA0 SHL SUB AND SWAP1 PUSH4 0x75894E8C SWAP1 PUSH1 0x24 ADD PUSH1 0x40 DUP1 MLOAD DUP1 DUP4 SUB DUP2 PUSH0 DUP8 GAS CALL ISZERO DUP1 ISZERO PUSH2 0x552 JUMPI RETURNDATASIZE PUSH0 DUP1 RETURNDATACOPY RETURNDATASIZE PUSH0 REVERT JUMPDEST POP POP POP POP PUSH1 0x40 MLOAD RETURNDATASIZE PUSH1 0x1F NOT PUSH1 0x1F DUP3 ADD AND DUP3 ADD DUP1 PUSH1 0x40 MSTORE POP DUP2 ADD SWAP1 PUSH2 0x576 SWAP2 SWAP1 PUSH2 0x276F JUMP JUMPDEST SWAP1 SWAP3 POP SWAP1 POP PUSH1 0x6 DUP3 PUSH1 0x6 DUP2 GT ISZERO PUSH2 0x58F JUMPI PUSH2 0x58F PUSH2 0x23EA JUMP JUMPDEST EQ DUP1 ISZERO PUSH2 0x599 JUMPI POP DUP1 JUMPDEST PUSH2 0x603 JUMPI PUSH1 0x40 MLOAD PUSH3 0x461BCD PUSH1 0xE5 SHL DUP2 MSTORE PUSH1 0x20 PUSH1 0x4 DUP3 ADD MSTORE PUSH1 0x30 PUSH1 0x24 DUP3 ADD MSTORE PUSH32 0x4F6E6C792074686520426C6F636B636861696E204F7261636C652063616E2072 PUSH1 0x44 DUP3 ADD MSTORE PUSH16 0x3AB7103A3434B990333AB731BA34B7B7 PUSH1 0x81 SHL PUSH1 0x64 DUP3 ADD MSTORE PUSH1 0x84 ADD JUMPDEST PUSH1 0x40 MLOAD DUP1 SWAP2 SUB SWAP1 REVERT JUMPDEST PUSH1 0x1 PUSH1 0x1 PUSH1 0xA0 SHL SUB DUP4 AND PUSH0 DUP2 DUP2 MSTORE PUSH1 0x9 PUSH1 0x20 SWAP1 DUP2 MSTORE PUSH1 0x40 SWAP2 DUP3 SWAP1 KECCAK256 DUP1 SLOAD PUSH1 0xFF NOT AND PUSH1 0x1 OR SWAP1 SSTORE DUP2 MLOAD SWAP3 DUP4 MSTORE TIMESTAMP SWAP1 DUP4 ADD MSTORE PUSH32 0x6EA640312E182DE387819FBEB13BE00DB3171A445412852248559054871C4199 SWAP2 ADD JUMPDEST PUSH1 0x40 MLOAD DUP1 SWAP2 SUB SWAP1 LOG1 POP POP POP JUMP JUMPDEST PUSH0 DUP1 SLOAD PUSH1 0x40 MLOAD PUSH4 0x1D6253A3 PUSH1 0xE2 SHL DUP2 MSTORE CALLER PUSH1 0x4 DUP3 ADD MSTORE DUP3 SWAP2 PUSH1 0x1 PUSH1 0x1 PUSH1 0xA0 SHL SUB AND SWAP1 PUSH4 0x75894E8C SWAP1 PUSH1 0x24 ADD PUSH1 0x40 DUP1 MLOAD DUP1 DUP4 SUB DUP2 PUSH0 DUP8 GAS CALL ISZERO DUP1 ISZERO PUSH2 0x6AA JUMPI RETURNDATASIZE PUSH0 DUP1 RETURNDATACOPY RETURNDATASIZE PUSH0 REVERT JUMPDEST POP POP POP POP PUSH1 0x40 MLOAD RETURNDATASIZE PUSH1 0x1F NOT PUSH1 0x1F DUP3 ADD AND DUP3 ADD DUP1 PUSH1 0x40 MSTORE POP DUP2 ADD SWAP1 PUSH2 0x6CE SWAP2 SWAP1 PUSH2 0x276F JUMP JUMPDEST SWAP1 SWAP3 POP SWAP1 POP PUSH1 0x3 DUP3 PUSH1 0x6 DUP2 GT ISZERO PUSH2 0x6E7 JUMPI PUSH2 0x6E7 PUSH2 0x23EA JUMP JUMPDEST EQ DUP1 ISZERO PUSH2 0x6F1 JUMPI POP DUP1 JUMPDEST PUSH2 0x70D JUMPI PUSH1 0x40 MLOAD PUSH3 0x461BCD PUSH1 0xE5 SHL DUP2 MSTORE PUSH1 0x4 ADD PUSH2 0x5FA SWAP1 PUSH2 0x279F JUMP JUMPDEST PUSH1 0x1 DUP5 LT ISZERO DUP1 ISZERO PUSH2 0x720 JUMPI POP PUSH1 0x2 SLOAD DUP5 GT ISZERO JUMPDEST PUSH2 0x73C JUMPI PUSH1 0x40 MLOAD PUSH3 0x461BCD PUSH1 0xE5 SHL DUP2 MSTORE PUSH1 0x4 ADD PUSH2 0x5FA SWAP1 PUSH2 0x27EE JUMP JUMPDEST PUSH0 DUP5 DUP2 MSTORE PUSH1 0x4 PUSH1 0x20 DUP2 SWAP1 MSTORE PUSH1 0x40 SWAP1 SWAP2 KECCAK256 ADD SLOAD PUSH1 0xFF AND ISZERO PUSH2 0x7AD JUMPI PUSH1 0x40 MLOAD PUSH3 0x461BCD PUSH1 0xE5 SHL DUP2 MSTORE PUSH1 0x20 PUSH1 0x4 DUP3 ADD MSTORE PUSH1 0x26 PUSH1 0x24 DUP3 ADD MSTORE PUSH32 0x54686973207265706F72742068617320616C7265616479206265656E20696E73 PUSH1 0x44 DUP3 ADD MSTORE PUSH6 0x1C1958DD1959 PUSH1 0xD2 SHL PUSH1 0x64 DUP3 ADD MSTORE PUSH1 0x84 ADD PUSH2 0x5FA JUMP JUMPDEST PUSH0 DUP5 DUP2 MSTORE PUSH1 0x4 PUSH1 0x20 DUP2 SWAP1 MSTORE PUSH1 0x40 SWAP2 DUP3 SWAP1 KECCAK256 ADD DUP1 SLOAD DUP6 ISZERO ISZERO PUSH2 0x100 MUL PUSH2 0xFFFF NOT SWAP1 SWAP2 AND OR PUSH1 0x1 OR SWAP1 SSTORE MLOAD DUP5 SWAP1 PUSH32 0x5E672278B5A4CE7F1DEAEB816F60398E65C2401C6F90928E8344510D7FA92755 SWAP1 PUSH2 0x825 SWAP1 CALLER SWAP1 DUP8 SWAP1 TIMESTAMP SWAP1 PUSH1 0x1 PUSH1 0x1 PUSH1 0xA0 SHL SUB SWAP4 SWAP1 SWAP4 AND DUP4 MSTORE SWAP1 ISZERO ISZERO PUSH1 0x20 DUP4 ADD MSTORE PUSH1 0x40 DUP3 ADD MSTORE PUSH1 0x60 ADD SWAP1 JUMP JUMPDEST PUSH1 0x40 MLOAD DUP1 SWAP2 SUB SWAP1 LOG2 POP POP POP POP JUMP JUMPDEST PUSH0 DUP1 SLOAD PUSH1 0x40 MLOAD PUSH4 0x1D6253A3 PUSH1 0xE2 SHL DUP2 MSTORE CALLER PUSH1 0x4 DUP3 ADD MSTORE DUP3 SWAP2 DUP3 SWAP2 DUP3 SWAP2 DUP3 SWAP2 PUSH1 0x1 PUSH1 0x1 PUSH1 0xA0 SHL SUB SWAP1 SWAP2 AND SWAP1 PUSH4 0x75894E8C SWAP1 PUSH1 0x24 ADD PUSH1 0x40 DUP1 MLOAD DUP1 DUP4 SUB DUP2 PUSH0 DUP8 GAS CALL ISZERO DUP1 ISZERO PUSH2 0x881 JUMPI RETURNDATASIZE PUSH0 DUP1 RETURNDATACOPY RETURNDATASIZE PUSH0 REVERT JUMPDEST POP POP POP POP PUSH1 0x40 MLOAD RETURNDATASIZE PUSH1 0x1F NOT PUSH1 0x1F DUP3 ADD AND DUP3 ADD DUP1 PUSH1 0x40 MSTORE POP DUP2 ADD SWAP1 PUSH2 0x8A5 SWAP2 SWAP1 PUSH2 0x276F JUMP JUMPDEST SWAP1 SWAP3 POP SWAP1 POP PUSH1 0x3 DUP3 PUSH1 0x6 DUP2 GT ISZERO PUSH2 0x8BE JUMPI PUSH2 0x8BE PUSH2 0x23EA JUMP JUMPDEST EQ DUP1 ISZERO PUSH2 0x8C8 JUMPI POP DUP1 JUMPDEST PUSH2 0x8E4 JUMPI PUSH1 0x40 MLOAD PUSH3 0x461BCD PUSH1 0xE5 SHL DUP2 MSTORE PUSH1 0x4 ADD PUSH2 0x5FA SWAP1 PUSH2 0x279F JUMP JUMPDEST PUSH1 0x1 DUP7 LT ISZERO DUP1 ISZERO PUSH2 0x8F7 JUMPI POP PUSH1 0x2 SLOAD DUP7 GT ISZERO JUMPDEST PUSH2 0x913 JUMPI PUSH1 0x40 MLOAD PUSH3 0x461BCD PUSH1 0xE5 SHL DUP2 MSTORE PUSH1 0x4 ADD PUSH2 0x5FA SWAP1 PUSH2 0x27EE JUMP JUMPDEST POP POP POP PUSH0 SWAP3 DUP4 MSTORE POP POP PUSH1 0x4 PUSH1 0x20 DUP2 DUP2 MSTORE PUSH1 0x40 SWAP3 DUP4 SWAP1 KECCAK256 DUP4 MLOAD PUSH1 0xC0 DUP2 ADD DUP6 MSTORE DUP2 SLOAD PUSH1 0x1 PUSH1 0x1 PUSH1 0xA0 SHL SUB AND DUP1 DUP3 MSTORE PUSH1 0x1 DUP4 ADD SLOAD SWAP4 DUP3 ADD DUP5 SWAP1 MSTORE PUSH1 0x2 DUP4 ADD SLOAD SWAP6 DUP3 ADD SWAP6 SWAP1 SWAP6 MSTORE PUSH1 0x3 DUP3 ADD SLOAD PUSH1 0x60 DUP3 ADD DUP2 SWAP1 MSTORE SWAP2 SWAP1 SWAP4 ADD SLOAD PUSH1 0xFF DUP1 DUP3 AND ISZERO ISZERO PUSH1 0x80 DUP7 ADD MSTORE PUSH2 0x100 SWAP1 SWAP2 DIV AND ISZERO ISZERO PUSH1 0xA0 SWAP1 SWAP4 ADD SWAP3 SWAP1 SWAP3 MSTORE SWAP2 SWAP3 JUMP JUMPDEST PUSH0 DUP1 SLOAD PUSH1 0x40 MLOAD PUSH4 0x1D6253A3 PUSH1 0xE2 SHL DUP2 MSTORE CALLER PUSH1 0x4 DUP3 ADD MSTORE DUP4 SWAP3 SWAP2 DUP3 SWAP2 PUSH1 0x1 PUSH1 0x1 PUSH1 0xA0 SHL SUB SWAP1 SWAP2 AND SWAP1 PUSH4 0x75894E8C SWAP1 PUSH1 0x24 ADD PUSH1 0x40 DUP1 MLOAD DUP1 DUP4 SUB DUP2 PUSH0 DUP8 GAS CALL ISZERO DUP1 ISZERO PUSH2 0x9D4 JUMPI RETURNDATASIZE PUSH0 DUP1 RETURNDATACOPY RETURNDATASIZE PUSH0 REVERT JUMPDEST POP POP POP POP PUSH1 0x40 MLOAD RETURNDATASIZE PUSH1 0x1F NOT PUSH1 0x1F DUP3 ADD AND DUP3 ADD DUP1 PUSH1 0x40 MSTORE POP DUP2 ADD SWAP1 PUSH2 0x9F8 SWAP2 SWAP1 PUSH2 0x276F JUMP JUMPDEST SWAP1 SWAP3 POP SWAP1 POP PUSH1 0x5 DUP3 PUSH1 0x6 DUP2 GT ISZERO PUSH2 0xA11 JUMPI PUSH2 0xA11 PUSH2 0x23EA JUMP JUMPDEST EQ DUP1 ISZERO PUSH2 0xA1B JUMPI POP DUP1 JUMPDEST PUSH2 0xA37 JUMPI PUSH1 0x40 MLOAD PUSH3 0x461BCD PUSH1 0xE5 SHL DUP2 MSTORE PUSH1 0x4 ADD PUSH2 0x5FA SWAP1 PUSH2 0x2819 JUMP JUMPDEST PUSH0 DUP4 DUP2 MSTORE PUSH1 0x8 PUSH1 0x20 MSTORE PUSH1 0x40 SWAP1 KECCAK256 SLOAD PUSH1 0x1 PUSH1 0x1 PUSH1 0xA0 SHL SUB AND CALLER EQ PUSH2 0xA6C JUMPI PUSH1 0x40 MLOAD PUSH3 0x461BCD PUSH1 0xE5 SHL DUP2 MSTORE PUSH1 0x4 ADD PUSH2 0x5FA SWAP1 PUSH2 0x2866 JUMP JUMPDEST PUSH0 DUP5 DUP2 MSTORE PUSH1 0x8 PUSH1 0x20 SWAP1 DUP2 MSTORE PUSH1 0x40 DUP1 DUP4 KECCAK256 DUP2 MLOAD PUSH1 0xE0 DUP2 ADD DUP4 MSTORE DUP2 SLOAD PUSH1 0x1 PUSH1 0x1 PUSH1 0xA0 SHL SUB AND DUP2 MSTORE PUSH1 0x1 DUP3 ADD SLOAD SWAP4 DUP2 ADD SWAP4 SWAP1 SWAP4 MSTORE PUSH1 0x2 DUP2 ADD SLOAD SWAP2 DUP4 ADD SWAP2 SWAP1 SWAP2 MSTORE PUSH1 0x3 DUP1 DUP3 ADD SLOAD PUSH1 0x60 DUP5 ADD MSTORE PUSH1 0x4 DUP3 ADD SLOAD PUSH1 0x80 DUP5 ADD MSTORE PUSH1 0x5 DUP3 ADD SLOAD PUSH1 0xA0 DUP5 ADD MSTORE PUSH1 0x6 DUP3 ADD SLOAD PUSH1 0xC0 DUP5 ADD SWAP2 PUSH1 0xFF SWAP1 SWAP2 AND SWAP1 DUP2 GT ISZERO PUSH2 0xAE7 JUMPI PUSH2 0xAE7 PUSH2 0x23EA JUMP JUMPDEST PUSH1 0x3 DUP2 GT ISZERO PUSH2 0xAF8 JUMPI PUSH2 0xAF8 PUSH2 0x23EA JUMP JUMPDEST SWAP1 MSTORE POP SWAP1 POP PUSH1 0x1 DUP6 LT DUP1 ISZERO SWAP1 PUSH2 0xB1B JUMPI POP PUSH0 DUP7 DUP2 MSTORE PUSH1 0x7 PUSH1 0x20 MSTORE PUSH1 0x40 SWAP1 KECCAK256 SLOAD DUP6 GT ISZERO JUMPDEST PUSH2 0xB37 JUMPI PUSH1 0x40 MLOAD PUSH3 0x461BCD PUSH1 0xE5 SHL DUP2 MSTORE PUSH1 0x4 ADD PUSH2 0x5FA SWAP1 PUSH2 0x28C3 JUMP JUMPDEST PUSH1 0x2 DUP2 PUSH1 0xC0 ADD MLOAD PUSH1 0x3 DUP2 GT ISZERO PUSH2 0xB4F JUMPI PUSH2 0xB4F PUSH2 0x23EA JUMP JUMPDEST EQ PUSH2 0xB6C JUMPI PUSH1 0x40 MLOAD PUSH3 0x461BCD PUSH1 0xE5 SHL DUP2 MSTORE PUSH1 0x4 ADD PUSH2 0x5FA SWAP1 PUSH2 0x28ED JUMP JUMPDEST DUP1 PUSH1 0x60 ADD MLOAD TIMESTAMP LT ISZERO PUSH2 0xBD6 JUMPI PUSH1 0x40 MLOAD PUSH3 0x461BCD PUSH1 0xE5 SHL DUP2 MSTORE PUSH1 0x20 PUSH1 0x4 DUP3 ADD MSTORE PUSH1 0x2D PUSH1 0x24 DUP3 ADD MSTORE PUSH32 0x5468652074696D652077696E646F7720666F722072656D6564696174696F6E20 PUSH1 0x44 DUP3 ADD MSTORE PUSH13 0x34B99039BA34B6361037B832B7 PUSH1 0x99 SHL PUSH1 0x64 DUP3 ADD MSTORE PUSH1 0x84 ADD PUSH2 0x5FA JUMP JUMPDEST PUSH0 DUP6 DUP2 MSTORE PUSH1 0x8 PUSH1 0x20 SWAP1 DUP2 MSTORE PUSH1 0x40 SWAP2 DUP3 SWAP1 KECCAK256 PUSH1 0x6 DUP2 ADD DUP1 SLOAD PUSH1 0xFF NOT AND PUSH1 0x3 OR SWAP1 SSTORE TIMESTAMP PUSH1 0x4 SWAP1 SWAP2 ADD DUP2 SWAP1 SSTORE DUP3 MLOAD DUP10 DUP2 MSTORE SWAP2 DUP3 ADD DUP9 SWAP1 MSTORE DUP2 DUP4 ADD MSTORE SWAP1 MLOAD PUSH32 0xF0759B1C58F2EB04B7275484184A141F88FEDEB54C9A6A48B4E7D9D332EDB1A7 SWAP2 PUSH1 0x60 SWAP1 DUP3 SWAP1 SUB ADD SWAP1 LOG1 POP POP POP POP POP POP JUMP JUMPDEST PUSH0 DUP1 SLOAD PUSH1 0x40 MLOAD PUSH4 0x1D6253A3 PUSH1 0xE2 SHL DUP2 MSTORE CALLER PUSH1 0x4 DUP3 ADD MSTORE DUP3 SWAP2 PUSH1 0x1 PUSH1 0x1 PUSH1 0xA0 SHL SUB AND SWAP1 PUSH4 0x75894E8C SWAP1 PUSH1 0x24 ADD PUSH1 0x40 DUP1 MLOAD DUP1 DUP4 SUB DUP2 PUSH0 DUP8 GAS CALL ISZERO DUP1 ISZERO PUSH2 0xC89 JUMPI RETURNDATASIZE PUSH0 DUP1 RETURNDATACOPY RETURNDATASIZE PUSH0 REVERT JUMPDEST POP POP POP POP PUSH1 0x40 MLOAD RETURNDATASIZE PUSH1 0x1F NOT PUSH1 0x1F DUP3 ADD AND DUP3 ADD DUP1 PUSH1 0x40 MSTORE POP DUP2 ADD SWAP1 PUSH2 0xCAD SWAP2 SWAP1 PUSH2 0x276F JUMP JUMPDEST SWAP1 SWAP3 POP SWAP1 POP PUSH1 0x3 DUP3 PUSH1 0x6 DUP2 GT ISZERO PUSH2 0xCC6 JUMPI PUSH2 0xCC6 PUSH2 0x23EA JUMP JUMPDEST EQ DUP1 ISZERO PUSH2 0xCD0 JUMPI POP DUP1 JUMPDEST PUSH2 0xCEC JUMPI PUSH1 0x40 MLOAD PUSH3 0x461BCD PUSH1 0xE5 SHL DUP2 MSTORE PUSH1 0x4 ADD PUSH2 0x5FA SWAP1 PUSH2 0x279F JUMP JUMPDEST PUSH0 DUP4 DUP2 MSTORE PUSH1 0x4 PUSH1 0x20 DUP2 DUP2 MSTORE PUSH1 0x40 SWAP3 DUP4 SWAP1 KECCAK256 DUP4 MLOAD PUSH1 0xC0 DUP2 ADD DUP6 MSTORE DUP2 SLOAD PUSH1 0x1 PUSH1 0x1 PUSH1 0xA0 SHL SUB AND DUP2 MSTORE PUSH1 0x1 DUP3 ADD SLOAD SWAP3 DUP2 ADD SWAP3 SWAP1 SWAP3 MSTORE PUSH1 0x2 DUP2 ADD SLOAD SWAP4 DUP3 ADD SWAP4 SWAP1 SWAP4 MSTORE PUSH1 0x3 DUP4 ADD SLOAD PUSH1 0x60 DUP3 ADD MSTORE SWAP2 ADD SLOAD PUSH1 0xFF DUP1 DUP3 AND ISZERO ISZERO PUSH1 0x80 DUP5 ADD MSTORE PUSH2 0x100 SWAP1 SWAP2 DIV AND ISZERO ISZERO PUSH1 0xA0 DUP3 ADD MSTORE DUP7 PUSH2 0xD94 JUMPI PUSH1 0x40 MLOAD PUSH3 0x461BCD PUSH1 0xE5 SHL DUP2 MSTORE PUSH1 0x20 PUSH1 0x4 DUP3 ADD MSTORE PUSH1 0x13 PUSH1 0x24 DUP3 ADD MSTORE PUSH19 0x496E76616C696420686173686564206E616D65 PUSH1 0x68 SHL PUSH1 0x44 DUP3 ADD MSTORE PUSH1 0x64 ADD PUSH2 0x5FA JUMP JUMPDEST PUSH0 DUP7 GT PUSH2 0xDD1 JUMPI PUSH1 0x40 MLOAD PUSH3 0x461BCD PUSH1 0xE5 SHL DUP2 MSTORE PUSH1 0x20 PUSH1 0x4 DUP3 ADD MSTORE PUSH1 0xB PUSH1 0x24 DUP3 ADD MSTORE PUSH11 0x496E76616C696420416765 PUSH1 0xA8 SHL PUSH1 0x44 DUP3 ADD MSTORE PUSH1 0x64 ADD PUSH2 0x5FA JUMP JUMPDEST PUSH1 0x4D PUSH1 0xF8 SHL PUSH1 0x1 PUSH1 0x1 PUSH1 0xF8 SHL SUB NOT DUP7 AND EQ DUP1 PUSH2 0xDFA JUMPI POP PUSH1 0x23 PUSH1 0xF9 SHL PUSH1 0x1 PUSH1 0x1 PUSH1 0xF8 SHL SUB NOT DUP7 AND EQ JUMPDEST PUSH2 0xE37 JUMPI PUSH1 0x40 MLOAD PUSH3 0x461BCD PUSH1 0xE5 SHL DUP2 MSTORE PUSH1 0x20 PUSH1 0x4 DUP3 ADD MSTORE PUSH1 0xE PUSH1 0x24 DUP3 ADD MSTORE PUSH14 0x24B73B30B634B21023B2B73232B9 PUSH1 0x91 SHL PUSH1 0x44 DUP3 ADD MSTORE PUSH1 0x64 ADD PUSH2 0x5FA JUMP JUMPDEST PUSH1 0x1 DUP5 LT ISZERO DUP1 ISZERO PUSH2 0xE4A JUMPI POP PUSH1 0x2 SLOAD DUP5 GT ISZERO JUMPDEST PUSH2 0xE66 JUMPI PUSH1 0x40 MLOAD PUSH3 0x461BCD PUSH1 0xE5 SHL DUP2 MSTORE PUSH1 0x4 ADD PUSH2 0x5FA SWAP1 PUSH2 0x27EE JUMP JUMPDEST DUP1 PUSH1 0xA0 ADD MLOAD PUSH2 0xEF3 JUMPI PUSH1 0x40 MLOAD PUSH3 0x461BCD PUSH1 0xE5 SHL DUP2 MSTORE PUSH1 0x20 PUSH1 0x4 DUP3 ADD MSTORE PUSH1 0x4D PUSH1 0x24 DUP3 ADD MSTORE PUSH32 0x43616E6E6F742073746F7265206368696C642064617461206265636175736520 PUSH1 0x44 DUP3 ADD MSTORE PUSH32 0x7468652076696F6C6174696F6E207265706F727420496420686173206E6F7420 PUSH1 0x64 DUP3 ADD MSTORE PUSH13 0x1899595B881D995C9A599A5959 PUSH1 0x9A SHL PUSH1 0x84 DUP3 ADD MSTORE PUSH1 0xA4 ADD PUSH2 0x5FA JUMP JUMPDEST PUSH0 DUP5 DUP2 MSTORE PUSH1 0x7 PUSH1 0x20 MSTORE PUSH1 0x40 DUP2 KECCAK256 DUP1 SLOAD SWAP2 PUSH2 0xF0C DUP4 PUSH2 0x294B JUMP JUMPDEST SWAP1 SWAP2 SSTORE POP POP PUSH1 0x40 DUP1 MLOAD PUSH1 0xC0 DUP2 ADD DUP3 MSTORE PUSH0 DUP7 DUP2 MSTORE PUSH1 0x7 PUSH1 0x20 SWAP1 DUP2 MSTORE DUP4 DUP3 KECCAK256 SLOAD DUP1 DUP5 MSTORE DUP2 DUP5 ADD DUP13 DUP2 MSTORE DUP5 DUP7 ADD DUP13 DUP2 MSTORE PUSH1 0x1 PUSH1 0x1 PUSH1 0xF8 SHL SUB NOT DUP13 AND PUSH1 0x60 DUP8 ADD SWAP1 DUP2 MSTORE PUSH1 0x80 DUP8 ADD DUP13 DUP2 MSTORE PUSH1 0xA0 DUP9 ADD DUP8 DUP2 MSTORE DUP14 DUP9 MSTORE PUSH1 0x6 DUP8 MSTORE DUP10 DUP9 KECCAK256 SWAP6 DUP9 MSTORE SWAP5 SWAP1 SWAP6 MSTORE SWAP7 SWAP1 SWAP5 KECCAK256 DUP6 MLOAD DUP2 SSTORE SWAP1 MLOAD PUSH1 0x1 DUP1 DUP4 ADD SWAP2 SWAP1 SWAP2 SSTORE SWAP4 MLOAD PUSH1 0x2 DUP3 ADD SSTORE SWAP5 MLOAD PUSH1 0x3 DUP1 DUP8 ADD DUP1 SLOAD PUSH1 0xF8 SWAP4 SWAP1 SWAP4 SHR PUSH1 0xFF NOT SWAP4 DUP5 AND OR SWAP1 SSTORE SWAP3 MLOAD PUSH1 0x4 DUP8 ADD SSTORE SWAP1 MLOAD PUSH1 0x5 DUP7 ADD DUP1 SLOAD SWAP6 SWAP7 SWAP6 SWAP2 SWAP5 SWAP1 SWAP4 SWAP2 SWAP1 SWAP3 AND SWAP2 SWAP1 DUP5 SWAP1 DUP2 GT ISZERO PUSH2 0xFC9 JUMPI PUSH2 0xFC9 PUSH2 0x23EA JUMP JUMPDEST MUL OR SWAP1 SSTORE POP POP POP PUSH0 DUP5 DUP2 MSTORE PUSH1 0x7 PUSH1 0x20 DUP2 DUP2 MSTORE PUSH1 0x40 DUP1 DUP5 KECCAK256 DUP1 SLOAD DUP6 MSTORE PUSH1 0x5 DUP4 MSTORE DUP2 DUP6 KECCAK256 DUP10 SWAP1 SSTORE SWAP4 DUP9 SWAP1 MSTORE SWAP2 DUP2 MSTORE SWAP2 SLOAD DUP2 MLOAD SWAP1 DUP2 MSTORE SWAP2 DUP3 ADD DUP10 SWAP1 MSTORE DUP2 ADD DUP8 SWAP1 MSTORE PUSH1 0x1 PUSH1 0x1 PUSH1 0xF8 SHL SUB NOT DUP7 AND PUSH1 0x60 DUP3 ADD MSTORE PUSH1 0x80 DUP2 ADD DUP6 SWAP1 MSTORE PUSH32 0x8F6937EDCD05CE1C1912E225EC700CB996D92333E3B1631CE16E703FC6B8E77A SWAP1 PUSH1 0xA0 ADD JUMPDEST PUSH1 0x40 MLOAD DUP1 SWAP2 SUB SWAP1 LOG1 POP POP POP POP POP POP POP JUMP JUMPDEST PUSH0 DUP1 SLOAD PUSH1 0x40 MLOAD PUSH4 0x1D6253A3 PUSH1 0xE2 SHL DUP2 MSTORE CALLER PUSH1 0x4 DUP3 ADD MSTORE DUP3 SWAP2 DUP3 SWAP2 DUP3 SWAP2 DUP3 SWAP2 DUP3 SWAP2 PUSH1 0x1 PUSH1 0x1 PUSH1 0xA0 SHL SUB AND SWAP1 PUSH4 0x75894E8C SWAP1 PUSH1 0x24 ADD PUSH1 0x40 DUP1 MLOAD DUP1 DUP4 SUB DUP2 PUSH0 DUP8 GAS CALL ISZERO DUP1 ISZERO PUSH2 0x10A3 JUMPI RETURNDATASIZE PUSH0 DUP1 RETURNDATACOPY RETURNDATASIZE PUSH0 REVERT JUMPDEST POP POP POP POP PUSH1 0x40 MLOAD RETURNDATASIZE PUSH1 0x1F NOT PUSH1 0x1F DUP3 ADD AND DUP3 ADD DUP1 PUSH1 0x40 MSTORE POP DUP2 ADD SWAP1 PUSH2 0x10C7 SWAP2 SWAP1 PUSH2 0x276F JUMP JUMPDEST PUSH0 DUP11 DUP2 MSTORE PUSH1 0x6 PUSH1 0x20 SWAP1 DUP2 MSTORE PUSH1 0x40 DUP1 DUP4 KECCAK256 DUP13 DUP5 MSTORE DUP3 MSTORE DUP1 DUP4 KECCAK256 DUP2 MLOAD PUSH1 0xC0 DUP2 ADD DUP4 MSTORE DUP2 SLOAD DUP2 MSTORE PUSH1 0x1 DUP3 ADD SLOAD SWAP4 DUP2 ADD SWAP4 SWAP1 SWAP4 MSTORE PUSH1 0x2 DUP2 ADD SLOAD SWAP2 DUP4 ADD SWAP2 SWAP1 SWAP2 MSTORE PUSH1 0x3 DUP1 DUP3 ADD SLOAD PUSH1 0xF8 SHL PUSH1 0x1 PUSH1 0x1 PUSH1 0xF8 SHL SUB NOT AND PUSH1 0x60 DUP5 ADD MSTORE PUSH1 0x4 DUP3 ADD SLOAD PUSH1 0x80 DUP5 ADD MSTORE PUSH1 0x5 DUP3 ADD SLOAD SWAP6 SWAP8 POP SWAP4 SWAP6 POP SWAP2 SWAP4 SWAP1 SWAP3 PUSH1 0xA0 DUP5 ADD SWAP2 PUSH1 0xFF AND SWAP1 DUP2 GT ISZERO PUSH2 0x114C JUMPI PUSH2 0x114C PUSH2 0x23EA JUMP JUMPDEST PUSH1 0x3 DUP2 GT ISZERO PUSH2 0x115D JUMPI PUSH2 0x115D PUSH2 0x23EA JUMP JUMPDEST SWAP1 MSTORE POP PUSH0 DUP11 DUP2 MSTORE PUSH1 0x4 PUSH1 0x20 DUP2 DUP2 MSTORE PUSH1 0x40 SWAP3 DUP4 SWAP1 KECCAK256 DUP4 MLOAD PUSH1 0xC0 DUP2 ADD DUP6 MSTORE DUP2 SLOAD PUSH1 0x1 PUSH1 0x1 PUSH1 0xA0 SHL SUB AND DUP2 MSTORE PUSH1 0x1 DUP3 ADD SLOAD SWAP3 DUP2 ADD SWAP3 SWAP1 SWAP3 MSTORE PUSH1 0x2 DUP2 ADD SLOAD SWAP4 DUP3 ADD SWAP4 SWAP1 SWAP4 MSTORE PUSH1 0x3 DUP4 ADD SLOAD PUSH1 0x60 DUP3 ADD MSTORE SWAP2 DUP2 ADD SLOAD PUSH1 0xFF DUP1 DUP3 AND ISZERO ISZERO PUSH1 0x80 DUP6 ADD MSTORE PUSH2 0x100 SWAP1 SWAP2 DIV AND ISZERO ISZERO PUSH1 0xA0 DUP4 ADD MSTORE SWAP2 SWAP3 POP SWAP1 DUP5 PUSH1 0x6 DUP2 GT ISZERO PUSH2 0x11DC JUMPI PUSH2 0x11DC PUSH2 0x23EA JUMP JUMPDEST EQ DUP1 ISZERO PUSH2 0x11E6 JUMPI POP DUP3 JUMPDEST DUP1 PUSH2 0x120A JUMPI POP PUSH1 0x1 DUP5 PUSH1 0x6 DUP2 GT ISZERO PUSH2 0x1200 JUMPI PUSH2 0x1200 PUSH2 0x23EA JUMP JUMPDEST EQ DUP1 ISZERO PUSH2 0x120A JUMPI POP DUP3 JUMPDEST PUSH2 0x128A JUMPI PUSH1 0x40 MLOAD PUSH3 0x461BCD PUSH1 0xE5 SHL DUP2 MSTORE PUSH1 0x20 PUSH1 0x4 DUP3 ADD MSTORE PUSH1 0x45 PUSH1 0x24 DUP3 ADD MSTORE PUSH32 0x4F6E6C792074686520526567756C61746F727920417574686F7269747920616E PUSH1 0x44 DUP3 ADD MSTORE PUSH32 0x64204461746120416E616C797374732063616E2072756E20746869732066756E PUSH1 0x64 DUP3 ADD MSTORE PUSH5 0x31BA34B7B7 PUSH1 0xD9 SHL PUSH1 0x84 DUP3 ADD MSTORE PUSH1 0xA4 ADD PUSH2 0x5FA JUMP JUMPDEST PUSH1 0x1 DUP11 LT ISZERO DUP1 ISZERO PUSH2 0x129D JUMPI POP PUSH1 0x2 SLOAD DUP11 GT ISZERO JUMPDEST PUSH2 0x12B9 JUMPI PUSH1 0x40 MLOAD PUSH3 0x461BCD PUSH1 0xE5 SHL DUP2 MSTORE PUSH1 0x4 ADD PUSH2 0x5FA SWAP1 PUSH2 0x27EE JUMP JUMPDEST PUSH1 0x1 DUP10 LT ISZERO DUP1 ISZERO PUSH2 0x12D7 JUMPI POP PUSH0 DUP11 DUP2 MSTORE PUSH1 0x7 PUSH1 0x20 MSTORE PUSH1 0x40 SWAP1 KECCAK256 SLOAD DUP10 GT ISZERO JUMPDEST PUSH2 0x12F3 JUMPI PUSH1 0x40 MLOAD PUSH3 0x461BCD PUSH1 0xE5 SHL DUP2 MSTORE PUSH1 0x4 ADD PUSH2 0x5FA SWAP1 PUSH2 0x28C3 JUMP JUMPDEST DUP1 PUSH1 0xA0 ADD MLOAD PUSH2 0x1383 JUMPI PUSH1 0x40 MLOAD PUSH3 0x461BCD PUSH1 0xE5 SHL DUP2 MSTORE PUSH1 0x20 PUSH1 0x4 DUP3 ADD MSTORE PUSH1 0x50 PUSH1 0x24 DUP3 ADD MSTORE PUSH32 0x43616E6E6F74207265747269657665206368696C642064617461206265636175 PUSH1 0x44 DUP3 ADD MSTORE PUSH32 0x7365207468652076696F6C6174696F6E207265706F727420496420686173206E PUSH1 0x64 DUP3 ADD MSTORE PUSH16 0x1BDD081899595B881D995C9A599A5959 PUSH1 0x82 SHL PUSH1 0x84 DUP3 ADD MSTORE PUSH1 0xA4 ADD PUSH2 0x5FA JUMP JUMPDEST PUSH1 0x20 DUP3 ADD MLOAD PUSH1 0x40 DUP4 ADD MLOAD PUSH1 0x60 SWAP4 DUP5 ADD MLOAD SWAP3 SWAP1 SWAP4 ADD MLOAD SWAP1 SWAP12 SWAP3 SWAP11 POP SWAP1 SWAP9 POP SWAP7 POP SWAP5 POP POP POP POP POP JUMP JUMPDEST PUSH0 DUP1 SLOAD PUSH1 0x40 MLOAD PUSH4 0x1D6253A3 PUSH1 0xE2 SHL DUP2 MSTORE CALLER PUSH1 0x4 DUP3 ADD MSTORE DUP3 SWAP2 PUSH1 0x1 PUSH1 0x1 PUSH1 0xA0 SHL SUB AND SWAP1 PUSH4 0x75894E8C SWAP1 PUSH1 0x24 ADD PUSH1 0x40 DUP1 MLOAD DUP1 DUP4 SUB DUP2 PUSH0 DUP8 GAS CALL ISZERO DUP1 ISZERO PUSH2 0x13F0 JUMPI RETURNDATASIZE PUSH0 DUP1 RETURNDATACOPY RETURNDATASIZE PUSH0 REVERT JUMPDEST POP POP POP POP PUSH1 0x40 MLOAD RETURNDATASIZE PUSH1 0x1F NOT PUSH1 0x1F DUP3 ADD AND DUP3 ADD DUP1 PUSH1 0x40 MSTORE POP DUP2 ADD SWAP1 PUSH2 0x1414 SWAP2 SWAP1 PUSH2 0x276F JUMP JUMPDEST SWAP1 SWAP3 POP SWAP1 POP PUSH1 0x1 DUP3 PUSH1 0x6 DUP2 GT ISZERO PUSH2 0x142D JUMPI PUSH2 0x142D PUSH2 0x23EA JUMP JUMPDEST EQ DUP1 ISZERO PUSH2 0x1437 JUMPI POP DUP1 JUMPDEST PUSH2 0x1453 JUMPI PUSH1 0x40 MLOAD PUSH3 0x461BCD PUSH1 0xE5 SHL DUP2 MSTORE PUSH1 0x4 ADD PUSH2 0x5FA SWAP1 PUSH2 0x2963 JUMP JUMPDEST PUSH1 0x1 PUSH1 0x1 PUSH1 0xA0 SHL SUB DUP4 AND PUSH0 DUP2 DUP2 MSTORE PUSH1 0x9 PUSH1 0x20 SWAP1 DUP2 MSTORE PUSH1 0x40 SWAP2 DUP3 SWAP1 KECCAK256 DUP1 SLOAD PUSH1 0xFF NOT AND SWAP1 SSTORE DUP2 MLOAD CALLER DUP2 MSTORE SWAP1 DUP2 ADD SWAP3 SWAP1 SWAP3 MSTORE TIMESTAMP SWAP1 DUP3 ADD MSTORE PUSH32 0x6F6A404FFD2CEA4713256A4FD9CE99C8CF8CF32D85C2BB8061D1603FF57D50C3 SWAP1 PUSH1 0x60 ADD PUSH2 0x657 JUMP JUMPDEST PUSH0 DUP1 SLOAD PUSH1 0x40 MLOAD PUSH4 0x1D6253A3 PUSH1 0xE2 SHL DUP2 MSTORE CALLER PUSH1 0x4 DUP3 ADD MSTORE DUP3 SWAP2 PUSH1 0x1 PUSH1 0x1 PUSH1 0xA0 SHL SUB AND SWAP1 PUSH4 0x75894E8C SWAP1 PUSH1 0x24 ADD PUSH1 0x40 DUP1 MLOAD DUP1 DUP4 SUB DUP2 PUSH0 DUP8 GAS CALL ISZERO DUP1 ISZERO PUSH2 0x14F7 JUMPI RETURNDATASIZE PUSH0 DUP1 RETURNDATACOPY RETURNDATASIZE PUSH0 REVERT JUMPDEST POP POP POP POP PUSH1 0x40 MLOAD RETURNDATASIZE PUSH1 0x1F NOT PUSH1 0x1F DUP3 ADD AND DUP3 ADD DUP1 PUSH1 0x40 MSTORE POP DUP2 ADD SWAP1 PUSH2 0x151B SWAP2 SWAP1 PUSH2 0x276F JUMP JUMPDEST SWAP1 SWAP3 POP SWAP1 POP PUSH1 0x2 DUP3 PUSH1 0x6 DUP2 GT ISZERO PUSH2 0x1534 JUMPI PUSH2 0x1534 PUSH2 0x23EA JUMP JUMPDEST EQ DUP1 ISZERO PUSH2 0x153E JUMPI POP DUP1 JUMPDEST PUSH2 0x15A8 JUMPI PUSH1 0x40 MLOAD PUSH3 0x461BCD PUSH1 0xE5 SHL DUP2 MSTORE PUSH1 0x20 PUSH1 0x4 DUP3 ADD MSTORE PUSH1 0x35 PUSH1 0x24 DUP3 ADD MSTORE PUSH32 0x4F6E6C79206120726567697374657265642077686973746C65626C6F77657220 PUSH1 0x44 DUP3 ADD MSTORE PUSH21 0x31B0B710393AB7103A3434B990333AB731BA34B7B7 PUSH1 0x59 SHL PUSH1 0x64 DUP3 ADD MSTORE PUSH1 0x84 ADD PUSH2 0x5FA JUMP JUMPDEST PUSH1 0x2 DUP1 SLOAD SWAP1 PUSH0 PUSH2 0x15B7 DUP4 PUSH2 0x294B JUMP JUMPDEST SWAP1 SWAP2 SSTORE POP POP PUSH1 0x40 DUP1 MLOAD PUSH1 0xC0 DUP2 ADD DUP3 MSTORE CALLER DUP2 MSTORE TIMESTAMP PUSH1 0x20 DUP3 ADD MSTORE SWAP1 DUP2 ADD DUP5 SWAP1 MSTORE PUSH1 0x60 DUP2 ADD PUSH2 0x15E2 DUP7 PUSH2 0x29B6 JUMP JUMPDEST DUP2 MSTORE PUSH0 PUSH1 0x20 DUP1 DUP4 ADD DUP3 SWAP1 MSTORE PUSH1 0x40 SWAP3 DUP4 ADD DUP3 SWAP1 MSTORE PUSH1 0x2 DUP1 SLOAD DUP4 MSTORE PUSH1 0x4 DUP1 DUP4 MSTORE DUP5 DUP5 KECCAK256 DUP7 MLOAD DUP2 SLOAD PUSH1 0x1 PUSH1 0x1 PUSH1 0xA0 SHL SUB SWAP1 SWAP2 AND PUSH1 0x1 PUSH1 0x1 PUSH1 0xA0 SHL SUB NOT SWAP1 SWAP2 AND OR DUP2 SSTORE SWAP3 DUP7 ADD MLOAD PUSH1 0x1 DUP5 ADD SSTORE SWAP4 DUP6 ADD MLOAD SWAP1 DUP3 ADD SSTORE PUSH1 0x60 DUP5 ADD MLOAD PUSH1 0x3 DUP1 DUP4 ADD SWAP2 SWAP1 SWAP2 SSTORE PUSH1 0x80 DUP6 ADD MLOAD SWAP2 SWAP1 SWAP4 ADD DUP1 SLOAD PUSH1 0xA0 SWAP1 SWAP6 ADD MLOAD ISZERO ISZERO PUSH2 0x100 MUL PUSH2 0xFF00 NOT SWAP3 ISZERO ISZERO SWAP3 SWAP1 SWAP3 AND PUSH2 0xFFFF NOT SWAP1 SWAP6 AND SWAP5 SWAP1 SWAP5 OR OR SWAP1 SWAP3 SSTORE DUP1 SLOAD DUP6 SWAP3 SWAP1 PUSH2 0x1681 SWAP1 DUP5 SWAP1 PUSH2 0x29DC JUMP JUMPDEST SWAP1 SWAP2 SSTORE POP POP PUSH1 0x2 SLOAD PUSH32 0x681F3195132986285E497B66D82A1D87DEE04FE482A1E74020677B543E3F7C40 CALLER TIMESTAMP PUSH2 0x16B5 DUP9 PUSH2 0x29B6 JUMP JUMPDEST PUSH1 0x40 DUP1 MLOAD PUSH1 0x1 PUSH1 0x1 PUSH1 0xA0 SHL SUB SWAP1 SWAP5 AND DUP5 MSTORE PUSH1 0x20 DUP5 ADD SWAP3 SWAP1 SWAP3 MSTORE SWAP1 DUP3 ADD MSTORE PUSH1 0x60 ADD PUSH2 0x825 JUMP JUMPDEST PUSH0 DUP1 SLOAD PUSH1 0x40 MLOAD PUSH4 0x1D6253A3 PUSH1 0xE2 SHL DUP2 MSTORE CALLER PUSH1 0x4 DUP3 ADD MSTORE DUP3 SWAP2 PUSH1 0x1 PUSH1 0x1 PUSH1 0xA0 SHL SUB AND SWAP1 PUSH4 0x75894E8C SWAP1 PUSH1 0x24 ADD PUSH1 0x40 DUP1 MLOAD DUP1 DUP4 SUB DUP2 PUSH0 DUP8 GAS CALL ISZERO DUP1 ISZERO PUSH2 0x1720 JUMPI RETURNDATASIZE PUSH0 DUP1 RETURNDATACOPY RETURNDATASIZE PUSH0 REVERT JUMPDEST POP POP POP POP PUSH1 0x40 MLOAD RETURNDATASIZE PUSH1 0x1F NOT PUSH1 0x1F DUP3 ADD AND DUP3 ADD DUP1 PUSH1 0x40 MSTORE POP DUP2 ADD SWAP1 PUSH2 0x1744 SWAP2 SWAP1 PUSH2 0x276F JUMP JUMPDEST SWAP1 SWAP3 POP SWAP1 POP PUSH1 0x1 DUP3 PUSH1 0x6 DUP2 GT ISZERO PUSH2 0x175D JUMPI PUSH2 0x175D PUSH2 0x23EA JUMP JUMPDEST EQ DUP1 ISZERO PUSH2 0x1767 JUMPI POP DUP1 JUMPDEST PUSH2 0x1783 JUMPI PUSH1 0x40 MLOAD PUSH3 0x461BCD PUSH1 0xE5 SHL DUP2 MSTORE PUSH1 0x4 ADD PUSH2 0x5FA SWAP1 PUSH2 0x2963 JUMP JUMPDEST PUSH1 0x1 DUP1 SLOAD PUSH1 0x1 PUSH1 0x1 PUSH1 0xA0 SHL SUB NOT AND PUSH1 0x1 PUSH1 0x1 PUSH1 0xA0 SHL SUB DUP6 AND SWAP1 DUP2 OR SWAP1 SWAP2 SSTORE PUSH1 0x40 DUP1 MLOAD CALLER DUP2 MSTORE PUSH1 0x20 DUP2 ADD SWAP3 SWAP1 SWAP3 MSTORE TIMESTAMP SWAP1 DUP3 ADD MSTORE PUSH32 0xD64AE07F3DDEA489022B7C3651C0B93CC96296695FEAC84461061DFA1F34C0CB SWAP1 PUSH1 0x60 ADD PUSH2 0x657 JUMP JUMPDEST PUSH0 DUP1 SLOAD PUSH1 0x40 MLOAD PUSH4 0x1D6253A3 PUSH1 0xE2 SHL DUP2 MSTORE CALLER PUSH1 0x4 DUP3 ADD MSTORE DUP5 SWAP3 SWAP2 DUP3 SWAP2 PUSH1 0x1 PUSH1 0x1 PUSH1 0xA0 SHL SUB SWAP1 SWAP2 AND SWAP1 PUSH4 0x75894E8C SWAP1 PUSH1 0x24 ADD PUSH1 0x40 DUP1 MLOAD DUP1 DUP4 SUB DUP2 PUSH0 DUP8 GAS CALL ISZERO DUP1 ISZERO PUSH2 0x182A JUMPI RETURNDATASIZE PUSH0 DUP1 RETURNDATACOPY RETURNDATASIZE PUSH0 REVERT JUMPDEST POP POP POP POP PUSH1 0x40 MLOAD RETURNDATASIZE PUSH1 0x1F NOT PUSH1 0x1F DUP3 ADD AND DUP3 ADD DUP1 PUSH1 0x40 MSTORE POP DUP2 ADD SWAP1 PUSH2 0x184E SWAP2 SWAP1 PUSH2 0x276F JUMP JUMPDEST SWAP1 SWAP3 POP SWAP1 POP PUSH1 0x5 DUP3 PUSH1 0x6 DUP2 GT ISZERO PUSH2 0x1867 JUMPI PUSH2 0x1867 PUSH2 0x23EA JUMP JUMPDEST EQ DUP1 ISZERO PUSH2 0x1871 JUMPI POP DUP1 JUMPDEST PUSH2 0x188D JUMPI PUSH1 0x40 MLOAD PUSH3 0x461BCD PUSH1 0xE5 SHL DUP2 MSTORE PUSH1 0x4 ADD PUSH2 0x5FA SWAP1 PUSH2 0x2819 JUMP JUMPDEST PUSH0 DUP4 DUP2 MSTORE PUSH1 0x8 PUSH1 0x20 MSTORE PUSH1 0x40 SWAP1 KECCAK256 SLOAD PUSH1 0x1 PUSH1 0x1 PUSH1 0xA0 SHL SUB AND CALLER EQ PUSH2 0x18C2 JUMPI PUSH1 0x40 MLOAD PUSH3 0x461BCD PUSH1 0xE5 SHL DUP2 MSTORE PUSH1 0x4 ADD PUSH2 0x5FA SWAP1 PUSH2 0x2866 JUMP JUMPDEST PUSH0 DUP6 DUP2 MSTORE PUSH1 0x8 PUSH1 0x20 SWAP1 DUP2 MSTORE PUSH1 0x40 DUP1 DUP4 KECCAK256 DUP2 MLOAD PUSH1 0xE0 DUP2 ADD DUP4 MSTORE DUP2 SLOAD PUSH1 0x1 PUSH1 0x1 PUSH1 0xA0 SHL SUB AND DUP2 MSTORE PUSH1 0x1 DUP3 ADD SLOAD SWAP4 DUP2 ADD SWAP4 SWAP1 SWAP4 MSTORE PUSH1 0x2 DUP2 ADD SLOAD SWAP2 DUP4 ADD SWAP2 SWAP1 SWAP2 MSTORE PUSH1 0x3 DUP1 DUP3 ADD SLOAD PUSH1 0x60 DUP5 ADD MSTORE PUSH1 0x4 DUP3 ADD SLOAD PUSH1 0x80 DUP5 ADD MSTORE PUSH1 0x5 DUP3 ADD SLOAD PUSH1 0xA0 DUP5 ADD MSTORE PUSH1 0x6 DUP3 ADD SLOAD PUSH1 0xC0 DUP5 ADD SWAP2 PUSH1 0xFF SWAP1 SWAP2 AND SWAP1 DUP2 GT ISZERO PUSH2 0x193D JUMPI PUSH2 0x193D PUSH2 0x23EA JUMP JUMPDEST PUSH1 0x3 DUP2 GT ISZERO PUSH2 0x194E JUMPI PUSH2 0x194E PUSH2 0x23EA JUMP JUMPDEST SWAP1 MSTORE POP SWAP1 POP PUSH1 0x1 DUP8 LT DUP1 ISZERO SWAP1 PUSH2 0x1966 JUMPI POP PUSH1 0x2 SLOAD DUP8 GT ISZERO JUMPDEST PUSH2 0x1982 JUMPI PUSH1 0x40 MLOAD PUSH3 0x461BCD PUSH1 0xE5 SHL DUP2 MSTORE PUSH1 0x4 ADD PUSH2 0x5FA SWAP1 PUSH2 0x27EE JUMP JUMPDEST PUSH1 0x1 DUP7 LT ISZERO DUP1 ISZERO PUSH2 0x19A0 JUMPI POP PUSH0 DUP8 DUP2 MSTORE PUSH1 0x7 PUSH1 0x20 MSTORE PUSH1 0x40 SWAP1 KECCAK256 SLOAD DUP7 GT ISZERO JUMPDEST PUSH2 0x19BC JUMPI PUSH1 0x40 MLOAD PUSH3 0x461BCD PUSH1 0xE5 SHL DUP2 MSTORE PUSH1 0x4 ADD PUSH2 0x5FA SWAP1 PUSH2 0x28C3 JUMP JUMPDEST PUSH1 0x1 DUP2 PUSH1 0xC0 ADD MLOAD PUSH1 0x3 DUP2 GT ISZERO PUSH2 0x19D4 JUMPI PUSH2 0x19D4 PUSH2 0x23EA JUMP JUMPDEST EQ PUSH2 0x1A31 JUMPI PUSH1 0x40 MLOAD PUSH3 0x461BCD PUSH1 0xE5 SHL DUP2 MSTORE PUSH1 0x20 PUSH1 0x4 DUP3 ADD MSTORE PUSH1 0x27 PUSH1 0x24 DUP3 ADD MSTORE PUSH32 0x54686973206368696C64206973206E6F7420726561647920666F722072656D65 PUSH1 0x44 DUP3 ADD MSTORE PUSH7 0x3234B0BA34B7B7 PUSH1 0xC9 SHL PUSH1 0x64 DUP3 ADD MSTORE PUSH1 0x84 ADD PUSH2 0x5FA JUMP JUMPDEST PUSH0 DUP7 DUP2 MSTORE PUSH1 0x8 PUSH1 0x20 MSTORE PUSH1 0x40 SWAP1 KECCAK256 PUSH1 0x6 DUP2 ADD DUP1 SLOAD PUSH1 0xFF NOT AND PUSH1 0x2 SWAP1 DUP2 OR SWAP1 SWAP2 SSTORE TIMESTAMP SWAP2 ADD SSTORE PUSH2 0x1A5F DUP6 PUSH1 0x1 PUSH2 0x29F5 JUMP JUMPDEST PUSH2 0x1A69 SWAP1 TIMESTAMP PUSH2 0x29DC JUMP JUMPDEST PUSH0 DUP8 DUP2 MSTORE PUSH1 0x8 PUSH1 0x20 MSTORE PUSH1 0x40 SWAP1 KECCAK256 PUSH1 0x3 DUP2 ADD SWAP2 SWAP1 SWAP2 SSTORE TIMESTAMP PUSH1 0x4 SWAP1 SWAP2 ADD DUP2 SWAP1 SSTORE PUSH32 0x29DC036766D8E77F495B0B42F18A239419AF9F8DD528D84E1251663AA6DA16C9 SWAP1 DUP9 SWAP1 DUP9 SWAP1 PUSH2 0x1AB8 DUP10 PUSH1 0x1 PUSH2 0x29F5 JUMP JUMPDEST PUSH2 0x1AC2 SWAP1 TIMESTAMP PUSH2 0x29DC JUMP JUMPDEST PUSH1 0x40 DUP1 MLOAD SWAP5 DUP6 MSTORE PUSH1 0x20 DUP6 ADD SWAP4 SWAP1 SWAP4 MSTORE SWAP2 DUP4 ADD MSTORE PUSH1 0x60 DUP3 ADD MSTORE PUSH1 0x80 ADD PUSH2 0x1044 JUMP JUMPDEST PUSH0 DUP1 SLOAD PUSH1 0x40 MLOAD PUSH4 0x1D6253A3 PUSH1 0xE2 SHL DUP2 MSTORE CALLER PUSH1 0x4 DUP3 ADD MSTORE DUP3 SWAP2 DUP3 SWAP2 DUP3 SWAP2 DUP3 SWAP2 DUP3 SWAP2 PUSH1 0x1 PUSH1 0x1 PUSH1 0xA0 SHL SUB AND SWAP1 PUSH4 0x75894E8C SWAP1 PUSH1 0x24 ADD PUSH1 0x40 DUP1 MLOAD DUP1 DUP4 SUB DUP2 PUSH0 DUP8 GAS CALL ISZERO DUP1 ISZERO PUSH2 0x1B30 JUMPI RETURNDATASIZE PUSH0 DUP1 RETURNDATACOPY RETURNDATASIZE PUSH0 REVERT JUMPDEST POP POP POP POP PUSH1 0x40 MLOAD RETURNDATASIZE PUSH1 0x1F NOT PUSH1 0x1F DUP3 ADD AND DUP3 ADD DUP1 PUSH1 0x40 MSTORE POP DUP2 ADD SWAP1 PUSH2 0x1B54 SWAP2 SWAP1 PUSH2 0x276F JUMP JUMPDEST SWAP1 SWAP3 POP SWAP1 POP PUSH1 0x1 DUP3 PUSH1 0x6 DUP2 GT ISZERO PUSH2 0x1B6D JUMPI PUSH2 0x1B6D PUSH2 0x23EA JUMP JUMPDEST EQ DUP1 ISZERO PUSH2 0x1B77 JUMPI POP DUP1 JUMPDEST PUSH2 0x1B93 JUMPI PUSH1 0x40 MLOAD PUSH3 0x461BCD PUSH1 0xE5 SHL DUP2 MSTORE PUSH1 0x4 ADD PUSH2 0x5FA SWAP1 PUSH2 0x2963 JUMP JUMPDEST PUSH0 DUP8 DUP2 MSTORE PUSH1 0x8 PUSH1 0x20 SWAP1 DUP2 MSTORE PUSH1 0x40 DUP1 DUP4 KECCAK256 DUP2 MLOAD PUSH1 0xE0 DUP2 ADD DUP4 MSTORE DUP2 SLOAD PUSH1 0x1 PUSH1 0x1 PUSH1 0xA0 SHL SUB AND DUP2 MSTORE PUSH1 0x1 DUP3 ADD SLOAD SWAP4 DUP2 ADD SWAP4 SWAP1 SWAP4 MSTORE PUSH1 0x2 DUP2 ADD SLOAD SWAP2 DUP4 ADD SWAP2 SWAP1 SWAP2 MSTORE PUSH1 0x3 DUP1 DUP3 ADD SLOAD PUSH1 0x60 DUP5 ADD MSTORE PUSH1 0x4 DUP3 ADD SLOAD PUSH1 0x80 DUP5 ADD MSTORE PUSH1 0x5 DUP3 ADD SLOAD PUSH1 0xA0 DUP5 ADD MSTORE PUSH1 0x6 DUP3 ADD SLOAD PUSH1 0xC0 DUP5 ADD SWAP2 PUSH1 0xFF SWAP1 SWAP2 AND SWAP1 DUP2 GT ISZERO PUSH2 0x1C0E JUMPI PUSH2 0x1C0E PUSH2 0x23EA JUMP JUMPDEST PUSH1 0x3 DUP2 GT ISZERO PUSH2 0x1C1F JUMPI PUSH2 0x1C1F PUSH2 0x23EA JUMP JUMPDEST SWAP1 MSTORE POP SWAP1 POP PUSH1 0x1 DUP10 LT DUP1 ISZERO SWAP1 PUSH2 0x1C37 JUMPI POP PUSH1 0x2 SLOAD DUP10 GT ISZERO JUMPDEST PUSH2 0x1C53 JUMPI PUSH1 0x40 MLOAD PUSH3 0x461BCD PUSH1 0xE5 SHL DUP2 MSTORE PUSH1 0x4 ADD PUSH2 0x5FA SWAP1 PUSH2 0x27EE JUMP JUMPDEST PUSH1 0x1 DUP9 LT ISZERO DUP1 ISZERO PUSH2 0x1C71 JUMPI POP PUSH0 DUP10 DUP2 MSTORE PUSH1 0x7 PUSH1 0x20 MSTORE PUSH1 0x40 SWAP1 KECCAK256 SLOAD DUP9 GT ISZERO JUMPDEST PUSH2 0x1C8D JUMPI PUSH1 0x40 MLOAD PUSH3 0x461BCD PUSH1 0xE5 SHL DUP2 MSTORE PUSH1 0x4 ADD PUSH2 0x5FA SWAP1 PUSH2 0x28C3 JUMP JUMPDEST PUSH1 0xC0 DUP2 ADD MLOAD PUSH1 0x80 DUP3 ADD MLOAD PUSH1 0x40 DUP4 ADD MLOAD PUSH1 0x60 SWAP1 SWAP4 ADD MLOAD SWAP2 SWAP12 SWAP1 SWAP11 POP SWAP2 SWAP9 POP SWAP7 POP SWAP5 POP POP POP POP POP JUMP JUMPDEST PUSH0 DUP1 SLOAD PUSH1 0x40 MLOAD PUSH4 0x1D6253A3 PUSH1 0xE2 SHL DUP2 MSTORE CALLER PUSH1 0x4 DUP3 ADD MSTORE DUP5 SWAP3 SWAP2 DUP3 SWAP2 PUSH1 0x1 PUSH1 0x1 PUSH1 0xA0 SHL SUB SWAP1 SWAP2 AND SWAP1 PUSH4 0x75894E8C SWAP1 PUSH1 0x24 ADD PUSH1 0x40 DUP1 MLOAD DUP1 DUP4 SUB DUP2 PUSH0 DUP8 GAS CALL ISZERO DUP1 ISZERO PUSH2 0x1CFF JUMPI RETURNDATASIZE PUSH0 DUP1 RETURNDATACOPY RETURNDATASIZE PUSH0 REVERT JUMPDEST POP POP POP POP PUSH1 0x40 MLOAD RETURNDATASIZE PUSH1 0x1F NOT PUSH1 0x1F DUP3 ADD AND DUP3 ADD DUP1 PUSH1 0x40 MSTORE POP DUP2 ADD SWAP1 PUSH2 0x1D23 SWAP2 SWAP1 PUSH2 0x276F JUMP JUMPDEST SWAP1 SWAP3 POP SWAP1 POP PUSH1 0x5 DUP3 PUSH1 0x6 DUP2 GT ISZERO PUSH2 0x1D3C JUMPI PUSH2 0x1D3C PUSH2 0x23EA JUMP JUMPDEST EQ DUP1 ISZERO PUSH2 0x1D46 JUMPI POP DUP1 JUMPDEST PUSH2 0x1D62 JUMPI PUSH1 0x40 MLOAD PUSH3 0x461BCD PUSH1 0xE5 SHL DUP2 MSTORE PUSH1 0x4 ADD PUSH2 0x5FA SWAP1 PUSH2 0x2819 JUMP JUMPDEST PUSH0 DUP4 DUP2 MSTORE PUSH1 0x8 PUSH1 0x20 MSTORE PUSH1 0x40 SWAP1 KECCAK256 SLOAD PUSH1 0x1 PUSH1 0x1 PUSH1 0xA0 SHL SUB AND CALLER EQ PUSH2 0x1D97 JUMPI PUSH1 0x40 MLOAD PUSH3 0x461BCD PUSH1 0xE5 SHL DUP2 MSTORE PUSH1 0x4 ADD PUSH2 0x5FA SWAP1 PUSH2 0x2866 JUMP JUMPDEST PUSH0 DUP6 DUP2 MSTORE PUSH1 0x8 PUSH1 0x20 SWAP1 DUP2 MSTORE PUSH1 0x40 DUP1 DUP4 KECCAK256 DUP2 MLOAD PUSH1 0xE0 DUP2 ADD DUP4 MSTORE DUP2 SLOAD PUSH1 0x1 PUSH1 0x1 PUSH1 0xA0 SHL SUB AND DUP2 MSTORE PUSH1 0x1 DUP3 ADD SLOAD SWAP4 DUP2 ADD SWAP4 SWAP1 SWAP4 MSTORE PUSH1 0x2 DUP2 ADD SLOAD SWAP2 DUP4 ADD SWAP2 SWAP1 SWAP2 MSTORE PUSH1 0x3 DUP1 DUP3 ADD SLOAD PUSH1 0x60 DUP5 ADD MSTORE PUSH1 0x4 DUP3 ADD SLOAD PUSH1 0x80 DUP5 ADD MSTORE PUSH1 0x5 DUP3 ADD SLOAD PUSH1 0xA0 DUP5 ADD MSTORE PUSH1 0x6 DUP3 ADD SLOAD PUSH1 0xC0 DUP5 ADD SWAP2 PUSH1 0xFF SWAP1 SWAP2 AND SWAP1 DUP2 GT ISZERO PUSH2 0x1E12 JUMPI PUSH2 0x1E12 PUSH2 0x23EA JUMP JUMPDEST PUSH1 0x3 DUP2 GT ISZERO PUSH2 0x1E23 JUMPI PUSH2 0x1E23 PUSH2 0x23EA JUMP JUMPDEST SWAP1 MSTORE POP SWAP1 POP PUSH1 0x1 DUP8 LT DUP1 ISZERO SWAP1 PUSH2 0x1E3B JUMPI POP PUSH1 0x2 SLOAD DUP8 GT ISZERO JUMPDEST PUSH2 0x1E57 JUMPI PUSH1 0x40 MLOAD PUSH3 0x461BCD PUSH1 0xE5 SHL DUP2 MSTORE PUSH1 0x4 ADD PUSH2 0x5FA SWAP1 PUSH2 0x27EE JUMP JUMPDEST PUSH1 0x1 DUP7 LT ISZERO DUP1 ISZERO PUSH2 0x1E75 JUMPI POP PUSH0 DUP8 DUP2 MSTORE PUSH1 0x7 PUSH1 0x20 MSTORE PUSH1 0x40 SWAP1 KECCAK256 SLOAD DUP7 GT ISZERO JUMPDEST PUSH2 0x1E91 JUMPI PUSH1 0x40 MLOAD PUSH3 0x461BCD PUSH1 0xE5 SHL DUP2 MSTORE PUSH1 0x4 ADD PUSH2 0x5FA SWAP1 PUSH2 0x28C3 JUMP JUMPDEST PUSH1 0x2 DUP2 PUSH1 0xC0 ADD MLOAD PUSH1 0x3 DUP2 GT ISZERO PUSH2 0x1EA9 JUMPI PUSH2 0x1EA9 PUSH2 0x23EA JUMP JUMPDEST EQ PUSH2 0x1EC6 JUMPI PUSH1 0x40 MLOAD PUSH3 0x461BCD PUSH1 0xE5 SHL DUP2 MSTORE PUSH1 0x4 ADD PUSH2 0x5FA SWAP1 PUSH2 0x28ED JUMP JUMPDEST PUSH2 0x1ECF DUP6 PUSH2 0x29B6 JUMP JUMPDEST PUSH0 DUP8 DUP2 MSTORE PUSH1 0x8 PUSH1 0x20 MSTORE PUSH1 0x40 SWAP1 KECCAK256 PUSH1 0x5 DUP2 ADD SWAP2 SWAP1 SWAP2 SSTORE TIMESTAMP PUSH1 0x4 SWAP1 SWAP2 ADD DUP2 SWAP1 SSTORE PUSH32 0xDE2669F070BFB51D280EF42C92C59E3F20BBEEF765E99CAB94CD673CC2BF0F2F SWAP1 DUP9 SWAP1 DUP9 SWAP1 PUSH2 0x1AC2 DUP10 PUSH2 0x29B6 JUMP JUMPDEST PUSH0 DUP1 SLOAD PUSH1 0x40 MLOAD PUSH4 0x1D6253A3 PUSH1 0xE2 SHL DUP2 MSTORE CALLER PUSH1 0x4 DUP3 ADD MSTORE DUP3 SWAP2 PUSH1 0x1 PUSH1 0x1 PUSH1 0xA0 SHL SUB AND SWAP1 PUSH4 0x75894E8C SWAP1 PUSH1 0x24 ADD PUSH1 0x40 DUP1 MLOAD DUP1 DUP4 SUB DUP2 PUSH0 DUP8 GAS CALL ISZERO DUP1 ISZERO PUSH2 0x1F62 JUMPI RETURNDATASIZE PUSH0 DUP1 RETURNDATACOPY RETURNDATASIZE PUSH0 REVERT JUMPDEST POP POP POP POP PUSH1 0x40 MLOAD RETURNDATASIZE PUSH1 0x1F NOT PUSH1 0x1F DUP3 ADD AND DUP3 ADD DUP1 PUSH1 0x40 MSTORE POP DUP2 ADD SWAP1 PUSH2 0x1F86 SWAP2 SWAP1 PUSH2 0x276F JUMP JUMPDEST SWAP1 SWAP3 POP SWAP1 POP PUSH1 0x1 DUP3 PUSH1 0x6 DUP2 GT ISZERO PUSH2 0x1F9F JUMPI PUSH2 0x1F9F PUSH2 0x23EA JUMP JUMPDEST EQ DUP1 ISZERO PUSH2 0x1FA9 JUMPI POP DUP1 JUMPDEST PUSH2 0x1FC5 JUMPI PUSH1 0x40 MLOAD PUSH3 0x461BCD PUSH1 0xE5 SHL DUP2 MSTORE PUSH1 0x4 ADD PUSH2 0x5FA SWAP1 PUSH2 0x2963 JUMP JUMPDEST PUSH0 DUP6 DUP2 MSTORE PUSH1 0x6 PUSH1 0x20 SWAP1 DUP2 MSTORE PUSH1 0x40 DUP1 DUP4 KECCAK256 DUP8 DUP5 MSTORE DUP3 MSTORE DUP1 DUP4 KECCAK256 DUP2 MLOAD PUSH1 0xC0 DUP2 ADD DUP4 MSTORE DUP2 SLOAD DUP2 MSTORE PUSH1 0x1 DUP3 ADD SLOAD SWAP4 DUP2 ADD SWAP4 SWAP1 SWAP4 MSTORE PUSH1 0x2 DUP2 ADD SLOAD SWAP2 DUP4 ADD SWAP2 SWAP1 SWAP2 MSTORE PUSH1 0x3 DUP1 DUP3 ADD SLOAD PUSH1 0xF8 SHL PUSH1 0x1 PUSH1 0x1 PUSH1 0xF8 SHL SUB NOT AND PUSH1 0x60 DUP5 ADD MSTORE PUSH1 0x4 DUP3 ADD SLOAD PUSH1 0x80 DUP5 ADD MSTORE PUSH1 0x5 DUP3 ADD SLOAD PUSH1 0xA0 DUP5 ADD SWAP2 PUSH1 0xFF SWAP1 SWAP2 AND SWAP1 DUP2 GT ISZERO PUSH2 0x2042 JUMPI PUSH2 0x2042 PUSH2 0x23EA JUMP JUMPDEST PUSH1 0x3 DUP2 GT ISZERO PUSH2 0x2053 JUMPI PUSH2 0x2053 PUSH2 0x23EA JUMP JUMPDEST SWAP1 MSTORE POP PUSH0 DUP8 DUP2 MSTORE PUSH1 0x4 PUSH1 0x20 DUP2 DUP2 MSTORE PUSH1 0x40 DUP1 DUP5 KECCAK256 DUP2 MLOAD PUSH1 0xC0 DUP2 ADD DUP4 MSTORE DUP2 SLOAD PUSH1 0x1 PUSH1 0x1 PUSH1 0xA0 SHL SUB AND DUP2 MSTORE PUSH1 0x1 DUP3 ADD SLOAD SWAP4 DUP2 ADD SWAP4 SWAP1 SWAP4 MSTORE PUSH1 0x2 DUP2 ADD SLOAD SWAP2 DUP4 ADD SWAP2 SWAP1 SWAP2 MSTORE PUSH1 0x3 DUP2 ADD SLOAD PUSH1 0x60 DUP4 ADD MSTORE SWAP1 SWAP2 ADD SLOAD PUSH1 0xFF DUP1 DUP3 AND ISZERO ISZERO PUSH1 0x80 DUP5 ADD MSTORE PUSH2 0x100 SWAP1 SWAP2 DIV AND ISZERO ISZERO PUSH1 0xA0 DUP3 ADD MSTORE SWAP2 SWAP3 POP DUP3 PUSH1 0xA0 ADD MLOAD PUSH1 0x3 DUP2 GT ISZERO PUSH2 0x20D4 JUMPI PUSH2 0x20D4 PUSH2 0x23EA JUMP JUMPDEST EQ PUSH2 0x2155 JUMPI PUSH1 0x40 MLOAD PUSH3 0x461BCD PUSH1 0xE5 SHL DUP2 MSTORE PUSH1 0x20 PUSH1 0x4 DUP3 ADD MSTORE PUSH1 0x44 PUSH1 0x24 DUP3 ADD DUP2 SWAP1 MSTORE PUSH32 0x54686973206368696C6420496420646F6573206E6F74206578697374206F7220 SWAP1 DUP3 ADD MSTORE PUSH32 0x68617320616C7265616479206265656E2061737369676E656420612067756172 PUSH1 0x64 DUP3 ADD MSTORE PUSH4 0x3234B0B7 PUSH1 0xE1 SHL PUSH1 0x84 DUP3 ADD MSTORE PUSH1 0xA4 ADD PUSH2 0x5FA JUMP JUMPDEST PUSH1 0x1 DUP8 LT ISZERO DUP1 ISZERO PUSH2 0x2168 JUMPI POP PUSH1 0x2 SLOAD DUP8 GT ISZERO JUMPDEST PUSH2 0x2184 JUMPI PUSH1 0x40 MLOAD PUSH3 0x461BCD PUSH1 0xE5 SHL DUP2 MSTORE PUSH1 0x4 ADD PUSH2 0x5FA SWAP1 PUSH2 0x27EE JUMP JUMPDEST PUSH1 0x1 DUP7 LT ISZERO DUP1 ISZERO PUSH2 0x21A2 JUMPI POP PUSH0 DUP8 DUP2 MSTORE PUSH1 0x7 PUSH1 0x20 MSTORE PUSH1 0x40 SWAP1 KECCAK256 SLOAD DUP7 GT ISZERO JUMPDEST PUSH2 0x21BE JUMPI PUSH1 0x40 MLOAD PUSH3 0x461BCD PUSH1 0xE5 SHL DUP2 MSTORE PUSH1 0x4 ADD PUSH2 0x5FA SWAP1 PUSH2 0x28C3 JUMP JUMPDEST DUP1 PUSH1 0xA0 ADD MLOAD PUSH2 0x224C JUMPI PUSH1 0x40 MLOAD PUSH3 0x461BCD PUSH1 0xE5 SHL DUP2 MSTORE PUSH1 0x20 PUSH1 0x4 DUP3 ADD MSTORE PUSH1 0x4E PUSH1 0x24 DUP3 ADD MSTORE PUSH32 0x43616E6E6F742061737369676E206120677561726469616E2062656361757365 PUSH1 0x44 DUP3 ADD MSTORE PUSH32 0x207468652076696F6C6174696F6E207265706F727420496420686173206E6F74 PUSH1 0x64 DUP3 ADD MSTORE PUSH14 0x81899595B881D995C9A599A5959 PUSH1 0x92 SHL PUSH1 0x84 DUP3 ADD MSTORE PUSH1 0xA4 ADD PUSH2 0x5FA JUMP JUMPDEST PUSH0 DUP7 DUP2 MSTORE PUSH1 0x8 PUSH1 0x20 MSTORE PUSH1 0x40 SWAP1 KECCAK256 DUP1 SLOAD PUSH1 0x1 PUSH1 0x1 PUSH1 0xA0 SHL SUB NOT AND PUSH1 0x1 PUSH1 0x1 PUSH1 0xA0 SHL SUB DUP8 AND OR DUP2 SSTORE PUSH1 0x1 DUP1 DUP3 ADD DUP9 SWAP1 SSTORE PUSH1 0x6 SWAP1 SWAP2 ADD DUP1 SLOAD PUSH1 0xFF NOT AND DUP3 DUP1 MUL OR SWAP1 SSTORE POP PUSH1 0x40 DUP1 MLOAD DUP8 DUP2 MSTORE PUSH1 0x20 DUP2 ADD DUP10 SWAP1 MSTORE PUSH1 0x1 PUSH1 0x1 PUSH1 0xA0 SHL SUB DUP8 AND SWAP2 DUP2 ADD SWAP2 SWAP1 SWAP2 MSTORE PUSH32 0xE1A03807FF7B7D8AC4C42CF3FE3905D10B2B30935D18974726482DB3BF232E36 SWAP1 PUSH1 0x60 ADD PUSH2 0x1044 JUMP JUMPDEST PUSH1 0xA PUSH1 0x20 SWAP1 DUP2 MSTORE PUSH0 SWAP2 DUP3 MSTORE PUSH1 0x40 SWAP2 DUP3 SWAP1 KECCAK256 DUP3 MLOAD DUP1 DUP5 ADD DUP5 MSTORE DUP2 SLOAD DUP2 MSTORE PUSH1 0x1 DUP3 ADD SLOAD SWAP3 DUP2 ADD SWAP3 SWAP1 SWAP3 MSTORE DUP3 MLOAD PUSH1 0x80 DUP2 ADD DUP1 DUP6 MSTORE SWAP3 SWAP4 SWAP2 SWAP3 SWAP1 SWAP2 PUSH1 0x2 DUP1 DUP6 ADD SWAP3 DUP5 SWAP3 DUP4 ADD SWAP2 DUP5 SWAP2 DUP3 DUP5 JUMPDEST DUP2 SLOAD DUP2 MSTORE PUSH1 0x20 ADD SWAP1 PUSH1 0x1 ADD SWAP1 DUP1 DUP4 GT PUSH2 0x231C JUMPI POP POP POP SWAP2 DUP4 MSTORE POP POP PUSH1 0x40 DUP1 MLOAD DUP1 DUP3 ADD SWAP2 DUP3 SWAP1 MSTORE PUSH1 0x20 SWAP1 SWAP3 ADD SWAP2 SWAP1 PUSH1 0x2 DUP5 DUP2 ADD SWAP2 DUP3 DUP5 JUMPDEST DUP2 SLOAD DUP2 MSTORE PUSH1 0x20 ADD SWAP1 PUSH1 0x1 ADD SWAP1 DUP1 DUP4 GT PUSH2 0x2352 JUMPI POP POP POP SWAP2 SWAP1 SWAP3 MSTORE POP POP PUSH1 0x40 DUP1 MLOAD DUP1 DUP3 ADD SWAP1 SWAP2 MSTORE PUSH1 0x6 DUP5 ADD SLOAD DUP2 MSTORE PUSH1 0x7 SWAP1 SWAP4 ADD SLOAD PUSH1 0x20 DUP5 ADD MSTORE POP SWAP1 DUP4 JUMP JUMPDEST DUP1 CALLDATALOAD PUSH1 0x1 PUSH1 0x1 PUSH1 0xA0 SHL SUB DUP2 AND DUP2 EQ PUSH2 0x23A5 JUMPI PUSH0 DUP1 REVERT JUMPDEST SWAP2 SWAP1 POP JUMP JUMPDEST PUSH0 PUSH1 0x20 DUP3 DUP5 SUB SLT ISZERO PUSH2 0x23BA JUMPI PUSH0 DUP1 REVERT JUMPDEST PUSH2 0x23C3 DUP3 PUSH2 0x238F JUMP JUMPDEST SWAP4 SWAP3 POP POP POP JUMP JUMPDEST PUSH0 DUP1 PUSH1 0x40 DUP4 DUP6 SUB SLT ISZERO PUSH2 0x23DB JUMPI PUSH0 DUP1 REVERT JUMPDEST POP POP DUP1 CALLDATALOAD SWAP3 PUSH1 0x20 SWAP1 SWAP2 ADD CALLDATALOAD SWAP2 POP JUMP JUMPDEST PUSH4 0x4E487B71 PUSH1 0xE0 SHL PUSH0 MSTORE PUSH1 0x21 PUSH1 0x4 MSTORE PUSH1 0x24 PUSH0 REVERT JUMPDEST PUSH1 0x4 DUP2 LT PUSH2 0x241A JUMPI PUSH4 0x4E487B71 PUSH1 0xE0 SHL PUSH0 MSTORE PUSH1 0x21 PUSH1 0x4 MSTORE PUSH1 0x24 PUSH0 REVERT JUMPDEST SWAP1 MSTORE JUMP JUMPDEST DUP7 DUP2 MSTORE PUSH1 0x20 DUP2 ADD DUP7 SWAP1 MSTORE PUSH1 0x40 DUP2 ADD DUP6 SWAP1 MSTORE PUSH1 0x1 PUSH1 0x1 PUSH1 0xF8 SHL SUB NOT DUP5 AND PUSH1 0x60 DUP3 ADD MSTORE PUSH1 0x80 DUP2 ADD DUP4 SWAP1 MSTORE PUSH1 0xC0 DUP2 ADD PUSH2 0x2457 PUSH1 0xA0 DUP4 ADD DUP5 PUSH2 0x23FE JUMP JUMPDEST SWAP8 SWAP7 POP POP POP POP POP POP POP JUMP JUMPDEST DUP1 ISZERO ISZERO DUP2 EQ PUSH2 0x246F JUMPI PUSH0 DUP1 REVERT JUMPDEST POP JUMP JUMPDEST PUSH0 DUP1 PUSH1 0x40 DUP4 DUP6 SUB SLT ISZERO PUSH2 0x2483 JUMPI PUSH0 DUP1 REVERT JUMPDEST DUP3 CALLDATALOAD SWAP2 POP PUSH1 0x20 DUP4 ADD CALLDATALOAD PUSH2 0x2495 DUP2 PUSH2 0x2462 JUMP JUMPDEST DUP1 SWAP2 POP POP SWAP3 POP SWAP3 SWAP1 POP JUMP JUMPDEST PUSH0 PUSH1 0x20 DUP3 DUP5 SUB SLT ISZERO PUSH2 0x24B0 JUMPI PUSH0 DUP1 REVERT JUMPDEST POP CALLDATALOAD SWAP2 SWAP1 POP JUMP JUMPDEST PUSH1 0x1 PUSH1 0x1 PUSH1 0xA0 SHL SUB DUP9 AND DUP2 MSTORE PUSH1 0x20 DUP2 ADD DUP8 SWAP1 MSTORE PUSH1 0x40 DUP2 ADD DUP7 SWAP1 MSTORE PUSH1 0x60 DUP2 ADD DUP6 SWAP1 MSTORE PUSH1 0x80 DUP2 ADD DUP5 SWAP1 MSTORE PUSH1 0xA0 DUP2 ADD DUP4 SWAP1 MSTORE PUSH1 0xE0 DUP2 ADD PUSH2 0x24F7 PUSH1 0xC0 DUP4 ADD DUP5 PUSH2 0x23FE JUMP JUMPDEST SWAP9 SWAP8 POP POP POP POP POP POP POP POP JUMP JUMPDEST PUSH0 DUP1 PUSH0 DUP1 PUSH1 0x80 DUP6 DUP8 SUB SLT ISZERO PUSH2 0x2516 JUMPI PUSH0 DUP1 REVERT JUMPDEST DUP5 CALLDATALOAD SWAP4 POP PUSH1 0x20 DUP6 ADD CALLDATALOAD SWAP3 POP PUSH1 0x40 DUP6 ADD CALLDATALOAD PUSH1 0x1 PUSH1 0x1 PUSH1 0xF8 SHL SUB NOT DUP2 AND DUP2 EQ PUSH2 0x253B JUMPI PUSH0 DUP1 REVERT JUMPDEST SWAP4 SWAP7 SWAP3 SWAP6 POP SWAP3 SWAP4 PUSH1 0x60 ADD CALLDATALOAD SWAP3 POP POP JUMP JUMPDEST PUSH4 0x4E487B71 PUSH1 0xE0 SHL PUSH0 MSTORE PUSH1 0x41 PUSH1 0x4 MSTORE PUSH1 0x24 PUSH0 REVERT JUMPDEST PUSH0 DUP3 PUSH1 0x1F DUP4 ADD SLT PUSH2 0x256E JUMPI PUSH0 DUP1 REVERT JUMPDEST DUP2 CALLDATALOAD PUSH8 0xFFFFFFFFFFFFFFFF DUP1 DUP3 GT ISZERO PUSH2 0x2589 JUMPI PUSH2 0x2589 PUSH2 0x254B JUMP JUMPDEST PUSH1 0x40 MLOAD PUSH1 0x1F DUP4 ADD PUSH1 0x1F NOT SWAP1 DUP2 AND PUSH1 0x3F ADD AND DUP2 ADD SWAP1 DUP3 DUP3 GT DUP2 DUP4 LT OR ISZERO PUSH2 0x25B1 JUMPI PUSH2 0x25B1 PUSH2 0x254B JUMP JUMPDEST DUP2 PUSH1 0x40 MSTORE DUP4 DUP2 MSTORE DUP7 PUSH1 0x20 DUP6 DUP9 ADD ADD GT ISZERO PUSH2 0x25C9 JUMPI PUSH0 DUP1 REVERT JUMPDEST DUP4 PUSH1 0x20 DUP8 ADD PUSH1 0x20 DUP4 ADD CALLDATACOPY PUSH0 PUSH1 0x20 DUP6 DUP4 ADD ADD MSTORE DUP1 SWAP5 POP POP POP POP POP SWAP3 SWAP2 POP POP JUMP JUMPDEST PUSH0 DUP1 PUSH1 0x40 DUP4 DUP6 SUB SLT ISZERO PUSH2 0x25F9 JUMPI PUSH0 DUP1 REVERT JUMPDEST DUP3 CALLDATALOAD PUSH8 0xFFFFFFFFFFFFFFFF DUP2 GT ISZERO PUSH2 0x260F JUMPI PUSH0 DUP1 REVERT JUMPDEST PUSH2 0x261B DUP6 DUP3 DUP7 ADD PUSH2 0x255F JUMP JUMPDEST SWAP6 PUSH1 0x20 SWAP5 SWAP1 SWAP5 ADD CALLDATALOAD SWAP5 POP POP POP POP JUMP JUMPDEST PUSH0 DUP1 PUSH0 PUSH1 0x60 DUP5 DUP7 SUB SLT ISZERO PUSH2 0x263C JUMPI PUSH0 DUP1 REVERT JUMPDEST POP POP DUP2 CALLDATALOAD SWAP4 PUSH1 0x20 DUP4 ADD CALLDATALOAD SWAP4 POP PUSH1 0x40 SWAP1 SWAP3 ADD CALLDATALOAD SWAP2 SWAP1 POP JUMP JUMPDEST PUSH1 0x80 DUP2 ADD PUSH2 0x2661 DUP3 DUP8 PUSH2 0x23FE JUMP JUMPDEST DUP5 PUSH1 0x20 DUP4 ADD MSTORE DUP4 PUSH1 0x40 DUP4 ADD MSTORE DUP3 PUSH1 0x60 DUP4 ADD MSTORE SWAP6 SWAP5 POP POP POP POP POP JUMP JUMPDEST PUSH0 DUP1 PUSH0 PUSH1 0x60 DUP5 DUP7 SUB SLT ISZERO PUSH2 0x268E JUMPI PUSH0 DUP1 REVERT JUMPDEST DUP4 CALLDATALOAD SWAP3 POP PUSH1 0x20 DUP5 ADD CALLDATALOAD SWAP2 POP PUSH1 0x40 DUP5 ADD CALLDATALOAD PUSH8 0xFFFFFFFFFFFFFFFF DUP2 GT ISZERO PUSH2 0x26B2 JUMPI PUSH0 DUP1 REVERT JUMPDEST PUSH2 0x26BE DUP7 DUP3 DUP8 ADD PUSH2 0x255F JUMP JUMPDEST SWAP2 POP POP SWAP3 POP SWAP3 POP SWAP3 JUMP JUMPDEST PUSH0 DUP1 PUSH0 PUSH1 0x60 DUP5 DUP7 SUB SLT ISZERO PUSH2 0x26DA JUMPI PUSH0 DUP1 REVERT JUMPDEST DUP4 CALLDATALOAD SWAP3 POP PUSH1 0x20 DUP5 ADD CALLDATALOAD SWAP2 POP PUSH2 0x26F1 PUSH1 0x40 DUP6 ADD PUSH2 0x238F JUMP JUMPDEST SWAP1 POP SWAP3 POP SWAP3 POP SWAP3 JUMP JUMPDEST DUP1 PUSH0 JUMPDEST PUSH1 0x2 DUP2 LT ISZERO PUSH2 0x271C JUMPI DUP2 MLOAD DUP5 MSTORE PUSH1 0x20 SWAP4 DUP5 ADD SWAP4 SWAP1 SWAP2 ADD SWAP1 PUSH1 0x1 ADD PUSH2 0x26FD JUMP JUMPDEST POP POP POP POP JUMP JUMPDEST DUP4 MLOAD DUP2 MSTORE PUSH1 0x20 DUP1 DUP6 ADD MLOAD SWAP1 DUP3 ADD MSTORE PUSH2 0x100 DUP2 ADD PUSH2 0x2743 PUSH1 0x40 DUP4 ADD DUP6 MLOAD PUSH2 0x26FA JUMP JUMPDEST PUSH1 0x20 DUP5 ADD MLOAD PUSH2 0x2755 PUSH1 0x80 DUP5 ADD DUP3 PUSH2 0x26FA JUMP JUMPDEST POP DUP3 MLOAD PUSH1 0xC0 DUP4 ADD MSTORE PUSH1 0x20 DUP4 ADD MLOAD PUSH1 0xE0 DUP4 ADD MSTORE SWAP5 SWAP4 POP POP POP POP JUMP JUMPDEST PUSH0 DUP1 PUSH1 0x40 DUP4 DUP6 SUB SLT ISZERO PUSH2 0x2780 JUMPI PUSH0 DUP1 REVERT JUMPDEST DUP3 MLOAD PUSH1 0x7 DUP2 LT PUSH2 0x278E JUMPI PUSH0 DUP1 REVERT JUMPDEST PUSH1 0x20 DUP5 ADD MLOAD SWAP1 SWAP3 POP PUSH2 0x2495 DUP2 PUSH2 0x2462 JUMP JUMPDEST PUSH1 0x20 DUP1 DUP3 MSTORE PUSH1 0x2F SWAP1 DUP3 ADD MSTORE PUSH32 0x4F6E6C792074686520496E7370656374696F6E204167656E742063616E207275 PUSH1 0x40 DUP3 ADD MSTORE PUSH15 0x37103A3434B990333AB731BA34B7B7 PUSH1 0x89 SHL PUSH1 0x60 DUP3 ADD MSTORE PUSH1 0x80 ADD SWAP1 JUMP JUMPDEST PUSH1 0x20 DUP1 DUP3 MSTORE PUSH1 0x11 SWAP1 DUP3 ADD MSTORE PUSH17 0x125B9D985B1A590814995C1BDC9D081251 PUSH1 0x7A SHL PUSH1 0x40 DUP3 ADD MSTORE PUSH1 0x60 ADD SWAP1 JUMP JUMPDEST PUSH1 0x20 DUP1 DUP3 MSTORE PUSH1 0x2D SWAP1 DUP3 ADD MSTORE PUSH32 0x4F6E6C7920746865204368696C6420477561726469616E2063616E2072756E20 PUSH1 0x40 DUP3 ADD MSTORE PUSH13 0x3A3434B990333AB731BA34B7B7 PUSH1 0x99 SHL PUSH1 0x60 DUP3 ADD MSTORE PUSH1 0x80 ADD SWAP1 JUMP JUMPDEST PUSH1 0x20 DUP1 DUP3 MSTORE PUSH1 0x3E SWAP1 DUP3 ADD MSTORE PUSH32 0x4F6E6C79207468652061737369676E656420477561726469616E20746F207468 PUSH1 0x40 DUP3 ADD MSTORE PUSH32 0x6973206368696C642063616E2072756E20746869732066756E6374696F6E0000 PUSH1 0x60 DUP3 ADD MSTORE PUSH1 0x80 ADD SWAP1 JUMP JUMPDEST PUSH1 0x20 DUP1 DUP3 MSTORE PUSH1 0x10 SWAP1 DUP3 ADD MSTORE PUSH16 0x125B9D985B1A590810DA1A5B19081251 PUSH1 0x82 SHL PUSH1 0x40 DUP3 ADD MSTORE PUSH1 0x60 ADD SWAP1 JUMP JUMPDEST PUSH1 0x20 DUP1 DUP3 MSTORE PUSH1 0x2A SWAP1 DUP3 ADD MSTORE PUSH32 0x54686973206368696C64206973206E6F742063757272656E746C7920696E2072 PUSH1 0x40 DUP3 ADD MSTORE PUSH10 0x32B6B2B234B0BA34B7B7 PUSH1 0xB1 SHL PUSH1 0x60 DUP3 ADD MSTORE PUSH1 0x80 ADD SWAP1 JUMP JUMPDEST PUSH4 0x4E487B71 PUSH1 0xE0 SHL PUSH0 MSTORE PUSH1 0x11 PUSH1 0x4 MSTORE PUSH1 0x24 PUSH0 REVERT JUMPDEST PUSH0 PUSH1 0x1 DUP3 ADD PUSH2 0x295C JUMPI PUSH2 0x295C PUSH2 0x2937 JUMP JUMPDEST POP PUSH1 0x1 ADD SWAP1 JUMP JUMPDEST PUSH1 0x20 DUP1 DUP3 MSTORE PUSH1 0x33 SWAP1 DUP3 ADD MSTORE PUSH32 0x4F6E6C792074686520726567756C61746F727920617574686F72697479206361 PUSH1 0x40 DUP3 ADD MSTORE PUSH19 0x3710393AB7103A3434B990333AB731BA34B7B7 PUSH1 0x69 SHL PUSH1 0x60 DUP3 ADD MSTORE PUSH1 0x80 ADD SWAP1 JUMP JUMPDEST DUP1 MLOAD PUSH1 0x20 DUP1 DUP4 ADD MLOAD SWAP2 SWAP1 DUP2 LT ISZERO PUSH2 0x29D6 JUMPI PUSH0 NOT DUP2 PUSH1 0x20 SUB PUSH1 0x3 SHL SHL DUP3 AND SWAP2 POP JUMPDEST POP SWAP2 SWAP1 POP JUMP JUMPDEST DUP1 DUP3 ADD DUP1 DUP3 GT ISZERO PUSH2 0x29EF JUMPI PUSH2 0x29EF PUSH2 0x2937 JUMP JUMPDEST SWAP3 SWAP2 POP POP JUMP JUMPDEST DUP1 DUP3 MUL DUP2 ISZERO DUP3 DUP3 DIV DUP5 EQ OR PUSH2 0x29EF JUMPI PUSH2 0x29EF PUSH2 0x2937 JUMP INVALID LOG2 PUSH5 0x6970667358 0x22 SLT KECCAK256 0xD MSTORE SWAP8 0xB4 KECCAK256 0xBC XOR PUSH31 0x6C445D9227477EA984FB5A16113583C2D5A6EA4885CF140364736F6C634300 ADDMOD ISZERO STOP CALLER "
				},
				"gasEstimates": {
					"creation": {
						"codeDepositCost": "2163600",
						"executionCost": "infinite",
						"totalCost": "infinite"
					},
					"external": {
						"Registration()": "2423",
						"Verifier()": "2359",
						"accessWhitelist(address)": "2661",
						"assignGuardian(uint256,uint256,address)": "infinite",
						"child2ReportMapping(uint256)": "2479",
						"childCount()": "2339",
						"childData(uint256,uint256)": "13395",
						"childRemediationData(uint256)": "15519",
						"completeRemediation(uint256,uint256)": "infinite",
						"getChildData(uint256,uint256)": "infinite",
						"getChildStatus(uint256,uint256)": "infinite",
						"getViolationReport(uint256)": "infinite",
						"grantAccess(address)": "infinite",
						"remediationUpdate(uint256,uint256,string)": "infinite",
						"reportChildrenCount(uint256)": "2502",
						"reportCount()": "2362",
						"reportProof(uint256)": "infinite",
						"revokeAccess(address)": "infinite",
						"startRemediation(uint256,uint256,uint256)": "infinite",
						"storeChildData(bytes32,uint256,bytes1,uint256)": "infinite",
						"submitViolationReport(string,uint256)": "infinite",
						"updateVerifier(address)": "infinite",
						"verifyViolationReport(uint256,bool)": "infinite",
						"violationReports(uint256)": "11217"
					}
				},
				"methodIdentifiers": {
					"Registration()": "e8a37919",
					"Verifier()": "53ca8115",
					"accessWhitelist(address)": "a0619d4a",
					"assignGuardian(uint256,uint256,address)": "eff5cfae",
					"child2ReportMapping(uint256)": "b05efaab",
					"childCount()": "8bc3bbc0",
					"childData(uint256,uint256)": "12f1a83a",
					"childRemediationData(uint256)": "2b76ea9c",
					"completeRemediation(uint256,uint256)": "739f48a6",
					"getChildData(uint256,uint256)": "84e2395d",
					"getChildStatus(uint256,uint256)": "a1dc99b4",
					"getViolationReport(uint256)": "636d0262",
					"grantAccess(address)": "0ae5e739",
					"remediationUpdate(uint256,uint256,string)": "e60e5ee2",
					"reportChildrenCount(uint256)": "6388bafc",
					"reportCount()": "185c6f84",
					"reportProof(uint256)": "f8b4d690",
					"revokeAccess(address)": "85e68531",
					"startRemediation(uint256,uint256,uint256)": "992cc022",
					"storeChildData(bytes32,uint256,bytes1,uint256)": "832de71e",
					"submitViolationReport(string,uint256)": "8fe2d950",
					"updateVerifier(address)": "97fc007c",
					"verifyViolationReport(uint256,bool)": "28c10330",
					"violationReports(uint256)": "3835a119"
				}
			},
			"storageLayout": {
				"storage": [
					{
						"astId": 668,
						"contract": "ChildLabourDataManagement.sol:ChildLabourDataManagement",
						"label": "Registration",
						"offset": 0,
						"slot": "0",
						"type": "t_contract(IRegistration)646"
					},
					{
						"astId": 671,
						"contract": "ChildLabourDataManagement.sol:ChildLabourDataManagement",
						"label": "Verifier",
						"offset": 0,
						"slot": "1",
						"type": "t_contract(IVerifier)665"
					},
					{
						"astId": 673,
						"contract": "ChildLabourDataManagement.sol:ChildLabourDataManagement",
						"label": "reportCount",
						"offset": 0,
						"slot": "2",
						"type": "t_uint256"
					},
					{
						"astId": 675,
						"contract": "ChildLabourDataManagement.sol:ChildLabourDataManagement",
						"label": "childCount",
						"offset": 0,
						"slot": "3",
						"type": "t_uint256"
					},
					{
						"astId": 728,
						"contract": "ChildLabourDataManagement.sol:ChildLabourDataManagement",
						"label": "violationReports",
						"offset": 0,
						"slot": "4",
						"type": "t_mapping(t_uint256,t_struct(ViolationReport)693_storage)"
					},
					{
						"astId": 732,
						"contract": "ChildLabourDataManagement.sol:ChildLabourDataManagement",
						"label": "child2ReportMapping",
						"offset": 0,
						"slot": "5",
						"type": "t_mapping(t_uint256,t_uint256)"
					},
					{
						"astId": 739,
						"contract": "ChildLabourDataManagement.sol:ChildLabourDataManagement",
						"label": "childData",
						"offset": 0,
						"slot": "6",
						"type": "t_mapping(t_uint256,t_mapping(t_uint256,t_struct(ChildData)707_storage))"
					},
					{
						"astId": 743,
						"contract": "ChildLabourDataManagement.sol:ChildLabourDataManagement",
						"label": "reportChildrenCount",
						"offset": 0,
						"slot": "7",
						"type": "t_mapping(t_uint256,t_uint256)"
					},
					{
						"astId": 748,
						"contract": "ChildLabourDataManagement.sol:ChildLabourDataManagement",
						"label": "childRemediationData",
						"offset": 0,
						"slot": "8",
						"type": "t_mapping(t_uint256,t_struct(ChildRemediation)723_storage)"
					},
					{
						"astId": 752,
						"contract": "ChildLabourDataManagement.sol:ChildLabourDataManagement",
						"label": "accessWhitelist",
						"offset": 0,
						"slot": "9",
						"type": "t_mapping(t_address,t_bool)"
					},
					{
						"astId": 757,
						"contract": "ChildLabourDataManagement.sol:ChildLabourDataManagement",
						"label": "reportProof",
						"offset": 0,
						"slot": "10",
						"type": "t_mapping(t_uint256,t_struct(Proof)656_storage)"
					}
				],
				"types": {
					"t_address": {
						"encoding": "inplace",
						"label": "address",
						"numberOfBytes": "20"
					},
					"t_array(t_uint256)2_storage": {
						"base": "t_uint256",
						"encoding": "inplace",
						"label": "uint256[2]",
						"numberOfBytes": "64"
					},
					"t_bool": {
						"encoding": "inplace",
						"label": "bool",
						"numberOfBytes": "1"
					},
					"t_bytes1": {
						"encoding": "inplace",
						"label": "bytes1",
						"numberOfBytes": "1"
					},
					"t_bytes32": {
						"encoding": "inplace",
						"label": "bytes32",
						"numberOfBytes": "32"
					},
					"t_contract(IRegistration)646": {
						"encoding": "inplace",
						"label": "contract IRegistration",
						"numberOfBytes": "20"
					},
					"t_contract(IVerifier)665": {
						"encoding": "inplace",
						"label": "contract IVerifier",
						"numberOfBytes": "20"
					},
					"t_enum(ChildStatus)680": {
						"encoding": "inplace",
						"label": "enum ChildLabourDataManagement.ChildStatus",
						"numberOfBytes": "1"
					},
					"t_mapping(t_address,t_bool)": {
						"encoding": "mapping",
						"key": "t_address",
						"label": "mapping(address => bool)",
						"numberOfBytes": "32",
						"value": "t_bool"
					},
					"t_mapping(t_uint256,t_mapping(t_uint256,t_struct(ChildData)707_storage))": {
						"encoding": "mapping",
						"key": "t_uint256",
						"label": "mapping(uint256 => mapping(uint256 => struct ChildLabourDataManagement.ChildData))",
						"numberOfBytes": "32",
						"value": "t_mapping(t_uint256,t_struct(ChildData)707_storage)"
					},
					"t_mapping(t_uint256,t_struct(ChildData)707_storage)": {
						"encoding": "mapping",
						"key": "t_uint256",
						"label": "mapping(uint256 => struct ChildLabourDataManagement.ChildData)",
						"numberOfBytes": "32",
						"value": "t_struct(ChildData)707_storage"
					},
					"t_mapping(t_uint256,t_struct(ChildRemediation)723_storage)": {
						"encoding": "mapping",
						"key": "t_uint256",
						"label": "mapping(uint256 => struct ChildLabourDataManagement.ChildRemediation)",
						"numberOfBytes": "32",
						"value": "t_struct(ChildRemediation)723_storage"
					},
					"t_mapping(t_uint256,t_struct(Proof)656_storage)": {
						"encoding": "mapping",
						"key": "t_uint256",
						"label": "mapping(uint256 => struct IVerifier.Proof)",
						"numberOfBytes": "32",
						"value": "t_struct(Proof)656_storage"
					},
					"t_mapping(t_uint256,t_struct(ViolationReport)693_storage)": {
						"encoding": "mapping",
						"key": "t_uint256",
						"label": "mapping(uint256 => struct ChildLabourDataManagement.ViolationReport)",
						"numberOfBytes": "32",
						"value": "t_struct(ViolationReport)693_storage"
					},
					"t_mapping(t_uint256,t_uint256)": {
						"encoding": "mapping",
						"key": "t_uint256",
						"label": "mapping(uint256 => uint256)",
						"numberOfBytes": "32",
						"value": "t_uint256"
					},
					"t_struct(ChildData)707_storage": {
						"encoding": "inplace",
						"label": "struct ChildLabourDataManagement.ChildData",
						"members": [
							{
								"astId": 695,
								"contract": "ChildLabourDataManagement.sol:ChildLabourDataManagement",
								"label": "childId",
								"offset": 0,
								"slot": "0",
								"type": "t_uint256"
							},
							{
								"astId": 697,
								"contract": "ChildLabourDataManagement.sol:ChildLabourDataManagement",
								"label": "hashedName",
								"offset": 0,
								"slot": "1",
								"type": "t_bytes32"
							},
							{
								"astId": 699,
								"contract": "ChildLabourDataManagement.sol:ChildLabourDataManagement",
								"label": "age",
								"offset": 0,
								"slot": "2",
								"type": "t_uint256"
							},
							{
								"astId": 701,
								"contract": "ChildLabourDataManagement.sol:ChildLabourDataManagement",
								"label": "gender",
								"offset": 0,
								"slot": "3",
								"type": "t_bytes1"
							},
							{
								"astId": 703,
								"contract": "ChildLabourDataManagement.sol:ChildLabourDataManagement",
								"label": "violationReportId",
								"offset": 0,
								"slot": "4",
								"type": "t_uint256"
							},
							{
								"astId": 706,
								"contract": "ChildLabourDataManagement.sol:ChildLabourDataManagement",
								"label": "status",
								"offset": 0,
								"slot": "5",
								"type": "t_enum(ChildStatus)680"
							}
						],
						"numberOfBytes": "192"
					},
					"t_struct(ChildRemediation)723_storage": {
						"encoding": "inplace",
						"label": "struct ChildLabourDataManagement.ChildRemediation",
						"members": [
							{
								"astId": 709,
								"contract": "ChildLabourDataManagement.sol:ChildLabourDataManagement",
								"label": "guardian",
								"offset": 0,
								"slot": "0",
								"type": "t_address"
							},
							{
								"astId": 711,
								"contract": "ChildLabourDataManagement.sol:ChildLabourDataManagement",
								"label": "childId",
								"offset": 0,
								"slot": "1",
								"type": "t_uint256"
							},
							{
								"astId": 713,
								"contract": "ChildLabourDataManagement.sol:ChildLabourDataManagement",
								"label": "remediationStart",
								"offset": 0,
								"slot": "2",
								"type": "t_uint256"
							},
							{
								"astId": 715,
								"contract": "ChildLabourDataManagement.sol:ChildLabourDataManagement",
								"label": "remediationCompletion",
								"offset": 0,
								"slot": "3",
								"type": "t_uint256"
							},
							{
								"astId": 717,
								"contract": "ChildLabourDataManagement.sol:ChildLabourDataManagement",
								"label": "lastUpdated",
								"offset": 0,
								"slot": "4",
								"type": "t_uint256"
							},
							{
								"astId": 719,
								"contract": "ChildLabourDataManagement.sol:ChildLabourDataManagement",
								"label": "updateReport",
								"offset": 0,
								"slot": "5",
								"type": "t_bytes32"
							},
							{
								"astId": 722,
								"contract": "ChildLabourDataManagement.sol:ChildLabourDataManagement",
								"label": "status",
								"offset": 0,
								"slot": "6",
								"type": "t_enum(ChildStatus)680"
							}
						],
						"numberOfBytes": "224"
					},
					"t_struct(G1Point)5_storage": {
						"encoding": "inplace",
						"label": "struct Pairing.G1Point",
						"members": [
							{
								"astId": 2,
								"contract": "ChildLabourDataManagement.sol:ChildLabourDataManagement",
								"label": "X",
								"offset": 0,
								"slot": "0",
								"type": "t_uint256"
							},
							{
								"astId": 4,
								"contract": "ChildLabourDataManagement.sol:ChildLabourDataManagement",
								"label": "Y",
								"offset": 0,
								"slot": "1",
								"type": "t_uint256"
							}
						],
						"numberOfBytes": "64"
					},
					"t_struct(G2Point)14_storage": {
						"encoding": "inplace",
						"label": "struct Pairing.G2Point",
						"members": [
							{
								"astId": 9,
								"contract": "ChildLabourDataManagement.sol:ChildLabourDataManagement",
								"label": "X",
								"offset": 0,
								"slot": "0",
								"type": "t_array(t_uint256)2_storage"
							},
							{
								"astId": 13,
								"contract": "ChildLabourDataManagement.sol:ChildLabourDataManagement",
								"label": "Y",
								"offset": 0,
								"slot": "2",
								"type": "t_array(t_uint256)2_storage"
							}
						],
						"numberOfBytes": "128"
					},
					"t_struct(Proof)656_storage": {
						"encoding": "inplace",
						"label": "struct IVerifier.Proof",
						"members": [
							{
								"astId": 649,
								"contract": "ChildLabourDataManagement.sol:ChildLabourDataManagement",
								"label": "a",
								"offset": 0,
								"slot": "0",
								"type": "t_struct(G1Point)5_storage"
							},
							{
								"astId": 652,
								"contract": "ChildLabourDataManagement.sol:ChildLabourDataManagement",
								"label": "b",
								"offset": 0,
								"slot": "2",
								"type": "t_struct(G2Point)14_storage"
							},
							{
								"astId": 655,
								"contract": "ChildLabourDataManagement.sol:ChildLabourDataManagement",
								"label": "c",
								"offset": 0,
								"slot": "6",
								"type": "t_struct(G1Point)5_storage"
							}
						],
						"numberOfBytes": "256"
					},
					"t_struct(ViolationReport)693_storage": {
						"encoding": "inplace",
						"label": "struct ChildLabourDataManagement.ViolationReport",
						"members": [
							{
								"astId": 682,
								"contract": "ChildLabourDataManagement.sol:ChildLabourDataManagement",
								"label": "reporter",
								"offset": 0,
								"slot": "0",
								"type": "t_address"
							},
							{
								"astId": 684,
								"contract": "ChildLabourDataManagement.sol:ChildLabourDataManagement",
								"label": "timestamp",
								"offset": 0,
								"slot": "1",
								"type": "t_uint256"
							},
							{
								"astId": 686,
								"contract": "ChildLabourDataManagement.sol:ChildLabourDataManagement",
								"label": "spottedChildrenNumber",
								"offset": 0,
								"slot": "2",
								"type": "t_uint256"
							},
							{
								"astId": 688,
								"contract": "ChildLabourDataManagement.sol:ChildLabourDataManagement",
								"label": "ipfsHash",
								"offset": 0,
								"slot": "3",
								"type": "t_bytes32"
							},
							{
								"astId": 690,
								"contract": "ChildLabourDataManagement.sol:ChildLabourDataManagement",
								"label": "isInspected",
								"offset": 0,
								"slot": "4",
								"type": "t_bool"
							},
							{
								"astId": 692,
								"contract": "ChildLabourDataManagement.sol:ChildLabourDataManagement",
								"label": "isVerified",
								"offset": 1,
								"slot": "4",
								"type": "t_bool"
							}
						],
						"numberOfBytes": "160"
					},
					"t_uint256": {
						"encoding": "inplace",
						"label": "uint256",
						"numberOfBytes": "32"
					}
				}
			},
			"userdoc": {
				"kind": "user",
				"methods": {},
				"version": 1
			}
		}
	}
}