{
	"verifier.sol": {
		"Verifier": {
			"abi": [
				{
					"inputs": [
						{
							"components": [
								{
									"components": [
										{
											"internalType": "uint256",
											"name": "X",
											"type": "uint256"
										},
										{
											"internalType": "uint256",
											"name": "Y",
											"type": "uint256"
										}
									],
									"internalType": "struct Pairing.G1Point",
									"name": "a",
									"type": "tuple"
								},
								{
									"components": [
										{
											"internalType": "uint256[2]",
											"name": "X",
											"type": "uint256[2]"
										},
										{
											"internalType": "uint256[2]",
											"name": "Y",
											"type": "uint256[2]"
										}
									],
									"internalType": "struct Pairing.G2Point",
									"name": "b",
									"type": "tuple"
								},
								{
									"components": [
										{
											"internalType": "uint256",
											"name": "X",
											"type": "uint256"
										},
										{
											"internalType": "uint256",
											"name": "Y",
											"type": "uint256"
										}
									],
									"internalType": "struct Pairing.G1Point",
									"name": "c",
									"type": "tuple"
								}
							],
							"internalType": "struct Verifier.Proof",
							"name": "proof",
							"type": "tuple"
						}
					],
					"name": "verifyTx",
					"outputs": [
						{
							"internalType": "bool",
							"name": "r",
							"type": "bool"
						}
					],
					"stateMutability": "view",
					"type": "function"
				}
			],
			"devdoc": {
				"kind": "dev",
				"methods": {},
				"version": 1
			},
			"evm": {
				"assembly": "    /* \"verifier.sol\":6236:9354  contract Verifier {... */\n  mstore(0x40, 0x80)\n  callvalue\n  dup1\n  iszero\n  tag_1\n  jumpi\n  0x00\n  dup1\n  revert\ntag_1:\n  pop\n  dataSize(sub_0)\n  dup1\n  dataOffset(sub_0)\n  0x00\n  codecopy\n  0x00\n  return\nstop\n\nsub_0: assembly {\n        /* \"verifier.sol\":6236:9354  contract Verifier {... */\n      mstore(0x40, 0x80)\n      callvalue\n      dup1\n      iszero\n      tag_1\n      jumpi\n      0x00\n      dup1\n      revert\n    tag_1:\n      pop\n      jumpi(tag_2, lt(calldatasize, 0x04))\n      shr(0xe0, calldataload(0x00))\n      dup1\n      0xf6af0311\n      eq\n      tag_3\n      jumpi\n    tag_2:\n      0x00\n      dup1\n      revert\n        /* \"verifier.sol\":9071:9352  function verifyTx(... */\n    tag_3:\n      tag_4\n      tag_5\n      calldatasize\n      0x04\n      tag_6\n      jump\t// in\n    tag_5:\n      tag_7\n      jump\t// in\n    tag_4:\n      mload(0x40)\n        /* \"#utility.yul\":2212:2226   */\n      swap1\n      iszero\n        /* \"#utility.yul\":2205:2227   */\n      iszero\n        /* \"#utility.yul\":2187:2228   */\n      dup2\n      mstore\n        /* \"#utility.yul\":2175:2177   */\n      0x20\n        /* \"#utility.yul\":2160:2178   */\n      add\n        /* \"verifier.sol\":9071:9352  function verifyTx(... */\n      mload(0x40)\n      dup1\n      swap2\n      sub\n      swap1\n      return\n    tag_7:\n        /* \"verifier.sol\":9198:9211  new uint[](0) */\n      0x40\n      dup1\n      mload\n        /* \"verifier.sol\":9152:9158  bool r */\n      0x00\n        /* \"verifier.sol\":9198:9211  new uint[](0) */\n      dup1\n      dup3\n      mstore\n      0x20\n      dup3\n      add\n      swap1\n      swap3\n      mstore\n        /* \"verifier.sol\":9234:9260  verify(inputValues, proof) */\n      tag_15\n        /* \"verifier.sol\":9241:9252  inputValues */\n      dup2\n        /* \"verifier.sol\":9254:9259  proof */\n      dup5\n        /* \"verifier.sol\":9234:9240  verify */\n      tag_16\n        /* \"verifier.sol\":9234:9260  verify(inputValues, proof) */\n      jump\t// in\n    tag_15:\n        /* \"verifier.sol\":9264:9265  0 */\n      0x00\n        /* \"verifier.sol\":9234:9265  verify(inputValues, proof) == 0 */\n      sub\n        /* \"verifier.sol\":9230:9346  if (verify(inputValues, proof) == 0) {... */\n      tag_17\n      jumpi\n      pop\n        /* \"verifier.sol\":9288:9292  true */\n      0x01\n      swap3\n        /* \"verifier.sol\":9071:9352  function verifyTx(... */\n      swap2\n      pop\n      pop\n      jump\t// out\n        /* \"verifier.sol\":9230:9346  if (verify(inputValues, proof) == 0) {... */\n    tag_17:\n      pop\n        /* \"verifier.sol\":9330:9335  false */\n      0x00\n      swap3\n        /* \"verifier.sol\":9071:9352  function verifyTx(... */\n      swap2\n      pop\n      pop\n      jump\t// out\n        /* \"verifier.sol\":8145:9066  function verify(uint[] memory input, Proof memory proof) internal view returns (uint) {... */\n    tag_16:\n        /* \"verifier.sol\":8225:8229  uint */\n      0x00\n        /* \"verifier.sol\":8270:8347  21888242871839275222246405745257275088548364400416034343698204186575808495617 */\n      0x30644e72e131a029b85045b68181585d2833e84879b9709143e1f593f0000001\n        /* \"verifier.sol\":8225:8229  uint */\n      dup2\n        /* \"verifier.sol\":8382:8396  verifyingKey() */\n      tag_20\n        /* \"verifier.sol\":8382:8394  verifyingKey */\n      tag_21\n        /* \"verifier.sol\":8382:8396  verifyingKey() */\n      jump\t// in\n    tag_20:\n        /* \"verifier.sol\":8357:8396  VerifyingKey memory vk = verifyingKey() */\n      swap1\n      pop\n        /* \"verifier.sol\":8434:8436  vk */\n      dup1\n        /* \"verifier.sol\":8434:8446  vk.gamma_abc */\n      0x80\n      add\n      mload\n        /* \"verifier.sol\":8434:8453  vk.gamma_abc.length */\n      mload\n        /* \"verifier.sol\":8414:8419  input */\n      dup6\n        /* \"verifier.sol\":8414:8426  input.length */\n      mload\n        /* \"verifier.sol\":8429:8430  1 */\n      0x01\n        /* \"verifier.sol\":8414:8430  input.length + 1 */\n      tag_22\n      swap2\n      swap1\n      tag_23\n      jump\t// in\n    tag_22:\n        /* \"verifier.sol\":8414:8453  input.length + 1 == vk.gamma_abc.length */\n      eq\n        /* \"verifier.sol\":8406:8454  require(input.length + 1 == vk.gamma_abc.length) */\n      tag_24\n      jumpi\n      0x00\n      dup1\n      revert\n    tag_24:\n        /* \"verifier.sol\":8541:8562  Pairing.G1Point(0, 0) */\n      0x40\n      dup1\n      mload\n      dup1\n      dup3\n      add\n      swap1\n      swap2\n      mstore\n        /* \"verifier.sol\":8511:8538  Pairing.G1Point memory vk_x */\n      0x00\n        /* \"verifier.sol\":8541:8562  Pairing.G1Point(0, 0) */\n      dup1\n      dup3\n      mstore\n      0x20\n      dup3\n      add\n      dup2\n      swap1\n      mstore\n        /* \"verifier.sol\":8572:8769  for (uint i = 0; i < input.length; i++) {... */\n    tag_25:\n        /* \"verifier.sol\":8593:8598  input */\n      dup7\n        /* \"verifier.sol\":8593:8605  input.length */\n      mload\n        /* \"verifier.sol\":8589:8590  i */\n      dup2\n        /* \"verifier.sol\":8589:8605  i < input.length */\n      lt\n        /* \"verifier.sol\":8572:8769  for (uint i = 0; i < input.length; i++) {... */\n      iszero\n      tag_26\n      jumpi\n        /* \"verifier.sol\":8645:8663  snark_scalar_field */\n      dup4\n        /* \"verifier.sol\":8634:8639  input */\n      dup8\n        /* \"verifier.sol\":8640:8641  i */\n      dup3\n        /* \"verifier.sol\":8634:8642  input[i] */\n      dup2\n      mload\n      dup2\n      lt\n      tag_29\n      jumpi\n      tag_29\n      tag_30\n      jump\t// in\n    tag_29:\n      0x20\n      mul\n      0x20\n      add\n      add\n      mload\n        /* \"verifier.sol\":8634:8663  input[i] < snark_scalar_field */\n      lt\n        /* \"verifier.sol\":8626:8664  require(input[i] < snark_scalar_field) */\n      tag_31\n      jumpi\n      0x00\n      dup1\n      revert\n    tag_31:\n        /* \"verifier.sol\":8685:8758  Pairing.addition(vk_x, Pairing.scalar_mul(vk.gamma_abc[i + 1], input[i])) */\n      tag_32\n        /* \"verifier.sol\":8702:8706  vk_x */\n      dup3\n        /* \"verifier.sol\":8708:8757  Pairing.scalar_mul(vk.gamma_abc[i + 1], input[i]) */\n      tag_33\n        /* \"verifier.sol\":8727:8729  vk */\n      dup6\n        /* \"verifier.sol\":8727:8739  vk.gamma_abc */\n      0x80\n      add\n      mload\n        /* \"verifier.sol\":8740:8741  i */\n      dup5\n        /* \"verifier.sol\":8744:8745  1 */\n      0x01\n        /* \"verifier.sol\":8740:8745  i + 1 */\n      tag_34\n      swap2\n      swap1\n      tag_23\n      jump\t// in\n    tag_34:\n        /* \"verifier.sol\":8727:8746  vk.gamma_abc[i + 1] */\n      dup2\n      mload\n      dup2\n      lt\n      tag_36\n      jumpi\n      tag_36\n      tag_30\n      jump\t// in\n    tag_36:\n      0x20\n      mul\n      0x20\n      add\n      add\n      mload\n        /* \"verifier.sol\":8748:8753  input */\n      dup11\n        /* \"verifier.sol\":8754:8755  i */\n      dup6\n        /* \"verifier.sol\":8748:8756  input[i] */\n      dup2\n      mload\n      dup2\n      lt\n      tag_38\n      jumpi\n      tag_38\n      tag_30\n      jump\t// in\n    tag_38:\n      0x20\n      mul\n      0x20\n      add\n      add\n      mload\n        /* \"verifier.sol\":8708:8726  Pairing.scalar_mul */\n      tag_39\n        /* \"verifier.sol\":8708:8757  Pairing.scalar_mul(vk.gamma_abc[i + 1], input[i]) */\n      jump\t// in\n    tag_33:\n        /* \"verifier.sol\":8685:8701  Pairing.addition */\n      tag_40\n        /* \"verifier.sol\":8685:8758  Pairing.addition(vk_x, Pairing.scalar_mul(vk.gamma_abc[i + 1], input[i])) */\n      jump\t// in\n    tag_32:\n        /* \"verifier.sol\":8678:8758  vk_x = Pairing.addition(vk_x, Pairing.scalar_mul(vk.gamma_abc[i + 1], input[i])) */\n      swap2\n      pop\n        /* \"verifier.sol\":8607:8610  i++ */\n      dup1\n      tag_41\n      dup2\n      tag_42\n      jump\t// in\n    tag_41:\n      swap2\n      pop\n      pop\n        /* \"verifier.sol\":8572:8769  for (uint i = 0; i < input.length; i++) {... */\n      jump(tag_25)\n    tag_26:\n      pop\n        /* \"verifier.sol\":8785:8824  Pairing.addition(vk_x, vk.gamma_abc[0]) */\n      tag_43\n        /* \"verifier.sol\":8802:8806  vk_x */\n      dup2\n        /* \"verifier.sol\":8808:8810  vk */\n      dup4\n        /* \"verifier.sol\":8808:8820  vk.gamma_abc */\n      0x80\n      add\n      mload\n        /* \"verifier.sol\":8821:8822  0 */\n      0x00\n        /* \"verifier.sol\":8808:8823  vk.gamma_abc[0] */\n      dup2\n      mload\n      dup2\n      lt\n      tag_45\n      jumpi\n      tag_45\n      tag_30\n      jump\t// in\n    tag_45:\n      0x20\n      mul\n      0x20\n      add\n      add\n      mload\n        /* \"verifier.sol\":8785:8801  Pairing.addition */\n      tag_40\n        /* \"verifier.sol\":8785:8824  Pairing.addition(vk_x, vk.gamma_abc[0]) */\n      jump\t// in\n    tag_43:\n        /* \"verifier.sol\":8778:8824  vk_x = Pairing.addition(vk_x, vk.gamma_abc[0]) */\n      swap1\n      pop\n        /* \"verifier.sol\":8838:9031  Pairing.pairingProd4(... */\n      tag_46\n        /* \"verifier.sol\":8873:8878  proof */\n      dup6\n        /* \"verifier.sol\":8873:8880  proof.a */\n      0x00\n      add\n      mload\n        /* \"verifier.sol\":8882:8887  proof */\n      dup7\n        /* \"verifier.sol\":8882:8889  proof.b */\n      0x20\n      add\n      mload\n        /* \"verifier.sol\":8904:8924  Pairing.negate(vk_x) */\n      tag_47\n        /* \"verifier.sol\":8919:8923  vk_x */\n      dup5\n        /* \"verifier.sol\":8904:8918  Pairing.negate */\n      tag_48\n        /* \"verifier.sol\":8904:8924  Pairing.negate(vk_x) */\n      jump\t// in\n    tag_47:\n        /* \"verifier.sol\":8926:8928  vk */\n      dup6\n        /* \"verifier.sol\":8926:8934  vk.gamma */\n      0x40\n      add\n      mload\n        /* \"verifier.sol\":8949:8972  Pairing.negate(proof.c) */\n      tag_49\n        /* \"verifier.sol\":8964:8969  proof */\n      dup11\n        /* \"verifier.sol\":8964:8971  proof.c */\n      0x40\n      add\n      mload\n        /* \"verifier.sol\":8949:8963  Pairing.negate */\n      tag_48\n        /* \"verifier.sol\":8949:8972  Pairing.negate(proof.c) */\n      jump\t// in\n    tag_49:\n        /* \"verifier.sol\":8974:8982  vk.delta */\n      0x60\n      dup9\n      add\n      mload\n        /* \"verifier.sol\":9012:9020  vk.alpha */\n      dup9\n      mload\n        /* \"verifier.sol\":8997:9021  Pairing.negate(vk.alpha) */\n      tag_50\n      swap1\n        /* \"verifier.sol\":8997:9011  Pairing.negate */\n      tag_48\n        /* \"verifier.sol\":8997:9021  Pairing.negate(vk.alpha) */\n      jump\t// in\n    tag_50:\n        /* \"verifier.sol\":9023:9025  vk */\n      dup10\n        /* \"verifier.sol\":9023:9030  vk.beta */\n      0x20\n      add\n      mload\n        /* \"verifier.sol\":8838:8858  Pairing.pairingProd4 */\n      tag_51\n        /* \"verifier.sol\":8838:9031  Pairing.pairingProd4(... */\n      jump\t// in\n    tag_46:\n        /* \"verifier.sol\":8834:9041  if(!Pairing.pairingProd4(... */\n      tag_52\n      jumpi\n        /* \"verifier.sol\":9040:9041  1 */\n      0x01\n        /* \"verifier.sol\":9033:9041  return 1 */\n      swap4\n      pop\n      pop\n      pop\n      pop\n      jump(tag_19)\n        /* \"verifier.sol\":8834:9041  if(!Pairing.pairingProd4(... */\n    tag_52:\n        /* \"verifier.sol\":9058:9059  0 */\n      0x00\n        /* \"verifier.sol\":9051:9059  return 0 */\n      swap4\n      pop\n      pop\n      pop\n      pop\n        /* \"verifier.sol\":8145:9066  function verify(uint[] memory input, Proof memory proof) internal view returns (uint) {... */\n    tag_19:\n      swap3\n      swap2\n      pop\n      pop\n      jump\t// out\n        /* \"verifier.sol\":6583:8140  function verifyingKey() pure internal returns (VerifyingKey memory vk) {... */\n    tag_21:\n        /* \"verifier.sol\":6630:6652  VerifyingKey memory vk */\n      tag_53\n      tag_54\n      jump\t// in\n    tag_53:\n        /* \"verifier.sol\":6675:6844  Pairing.G1Point(uint256(0x206d960593d941bf781f3b6e3f95916f6520377bff96299cd16ba8d8ef9120b5), uint256(0x29a95be0f241b789a1fe8cdcf9c7e3f3d4aa637c5dcb0382f88285f6582adade)) */\n      0x40\n      dup1\n      mload\n      dup1\n      dup3\n      add\n      dup3\n      mstore\n        /* \"verifier.sol\":6699:6765  0x206d960593d941bf781f3b6e3f95916f6520377bff96299cd16ba8d8ef9120b5 */\n      0x206d960593d941bf781f3b6e3f95916f6520377bff96299cd16ba8d8ef9120b5\n        /* \"verifier.sol\":6675:6844  Pairing.G1Point(uint256(0x206d960593d941bf781f3b6e3f95916f6520377bff96299cd16ba8d8ef9120b5), uint256(0x29a95be0f241b789a1fe8cdcf9c7e3f3d4aa637c5dcb0382f88285f6582adade)) */\n      dup2\n      mstore\n        /* \"verifier.sol\":6776:6842  0x29a95be0f241b789a1fe8cdcf9c7e3f3d4aa637c5dcb0382f88285f6582adade */\n      0x29a95be0f241b789a1fe8cdcf9c7e3f3d4aa637c5dcb0382f88285f6582adade\n        /* \"verifier.sol\":6675:6844  Pairing.G1Point(uint256(0x206d960593d941bf781f3b6e3f95916f6520377bff96299cd16ba8d8ef9120b5), uint256(0x29a95be0f241b789a1fe8cdcf9c7e3f3d4aa637c5dcb0382f88285f6582adade)) */\n      0x20\n      dup1\n      dup4\n      add\n      swap2\n      swap1\n      swap2\n      mstore\n        /* \"verifier.sol\":6664:6844  vk.alpha = Pairing.G1Point(uint256(0x206d960593d941bf781f3b6e3f95916f6520377bff96299cd16ba8d8ef9120b5), uint256(0x29a95be0f241b789a1fe8cdcf9c7e3f3d4aa637c5dcb0382f88285f6582adade)) */\n      swap1\n      dup4\n      mstore\n        /* \"verifier.sol\":6864:7191  Pairing.G2Point([uint256(0x251a596db059ea83f20caa9d1b4374816cca7f5f9c9c390f909d7f434686a58f), uint256(0x291f5a2ff34731a219db79627796becab5d92e4ad89249ae03b39b65737d1983)], [uint256(0x2d509c0da4ab56f26890d29d0cdd6f5a4a9cedf0aa81f06e8487617918947eea), uint256(0x2204201ec00a2d0da8b4cb010c79f4ebcecbf9707e6f4f551e4d1f862073dac3)]) */\n      dup2\n      mload\n      0x80\n      dup1\n      dup3\n      add\n      dup5\n      mstore\n        /* \"verifier.sol\":6889:6955  0x251a596db059ea83f20caa9d1b4374816cca7f5f9c9c390f909d7f434686a58f */\n      0x251a596db059ea83f20caa9d1b4374816cca7f5f9c9c390f909d7f434686a58f\n        /* \"verifier.sol\":6864:7191  Pairing.G2Point([uint256(0x251a596db059ea83f20caa9d1b4374816cca7f5f9c9c390f909d7f434686a58f), uint256(0x291f5a2ff34731a219db79627796becab5d92e4ad89249ae03b39b65737d1983)], [uint256(0x2d509c0da4ab56f26890d29d0cdd6f5a4a9cedf0aa81f06e8487617918947eea), uint256(0x2204201ec00a2d0da8b4cb010c79f4ebcecbf9707e6f4f551e4d1f862073dac3)]) */\n      dup3\n      dup6\n      add\n      swap1\n      dup2\n      mstore\n        /* \"verifier.sol\":6966:7032  0x291f5a2ff34731a219db79627796becab5d92e4ad89249ae03b39b65737d1983 */\n      0x291f5a2ff34731a219db79627796becab5d92e4ad89249ae03b39b65737d1983\n        /* \"verifier.sol\":6864:7191  Pairing.G2Point([uint256(0x251a596db059ea83f20caa9d1b4374816cca7f5f9c9c390f909d7f434686a58f), uint256(0x291f5a2ff34731a219db79627796becab5d92e4ad89249ae03b39b65737d1983)], [uint256(0x2d509c0da4ab56f26890d29d0cdd6f5a4a9cedf0aa81f06e8487617918947eea), uint256(0x2204201ec00a2d0da8b4cb010c79f4ebcecbf9707e6f4f551e4d1f862073dac3)]) */\n      0x60\n      dup1\n      dup6\n      add\n      swap2\n      swap1\n      swap2\n      mstore\n      swap1\n      dup4\n      mstore\n      dup5\n      mload\n      dup1\n      dup7\n      add\n      dup7\n      mstore\n        /* \"verifier.sol\":7045:7111  0x2d509c0da4ab56f26890d29d0cdd6f5a4a9cedf0aa81f06e8487617918947eea */\n      0x2d509c0da4ab56f26890d29d0cdd6f5a4a9cedf0aa81f06e8487617918947eea\n        /* \"verifier.sol\":6864:7191  Pairing.G2Point([uint256(0x251a596db059ea83f20caa9d1b4374816cca7f5f9c9c390f909d7f434686a58f), uint256(0x291f5a2ff34731a219db79627796becab5d92e4ad89249ae03b39b65737d1983)], [uint256(0x2d509c0da4ab56f26890d29d0cdd6f5a4a9cedf0aa81f06e8487617918947eea), uint256(0x2204201ec00a2d0da8b4cb010c79f4ebcecbf9707e6f4f551e4d1f862073dac3)]) */\n      dup2\n      mstore\n        /* \"verifier.sol\":7122:7188  0x2204201ec00a2d0da8b4cb010c79f4ebcecbf9707e6f4f551e4d1f862073dac3 */\n      0x2204201ec00a2d0da8b4cb010c79f4ebcecbf9707e6f4f551e4d1f862073dac3\n        /* \"verifier.sol\":6864:7191  Pairing.G2Point([uint256(0x251a596db059ea83f20caa9d1b4374816cca7f5f9c9c390f909d7f434686a58f), uint256(0x291f5a2ff34731a219db79627796becab5d92e4ad89249ae03b39b65737d1983)], [uint256(0x2d509c0da4ab56f26890d29d0cdd6f5a4a9cedf0aa81f06e8487617918947eea), uint256(0x2204201ec00a2d0da8b4cb010c79f4ebcecbf9707e6f4f551e4d1f862073dac3)]) */\n      dup2\n      dup7\n      add\n      mstore\n      dup4\n      dup6\n      add\n      mstore\n        /* \"verifier.sol\":6854:6861  vk.beta */\n      dup6\n      dup5\n      add\n        /* \"verifier.sol\":6854:7191  vk.beta = Pairing.G2Point([uint256(0x251a596db059ea83f20caa9d1b4374816cca7f5f9c9c390f909d7f434686a58f), uint256(0x291f5a2ff34731a219db79627796becab5d92e4ad89249ae03b39b65737d1983)], [uint256(0x2d509c0da4ab56f26890d29d0cdd6f5a4a9cedf0aa81f06e8487617918947eea), uint256(0x2204201ec00a2d0da8b4cb010c79f4ebcecbf9707e6f4f551e4d1f862073dac3)]) */\n      swap3\n      swap1\n      swap3\n      mstore\n        /* \"verifier.sol\":7212:7539  Pairing.G2Point([uint256(0x1dd14e44f2b02a66b5e29b44aa92bf941419d625f4616fc2a95e77fd5811dadb), uint256(0x26a61cc4785a135211c384bd63d8f0a31af7a4cde00f3e9988e5443c87952b34)], [uint256(0x15aabbe70630d13fe6b322ab27d8324a46fab2e9198377f9c6cd346672774534), uint256(0x1554660dda2fa742dea97963e3fd288334955bcbbce2f7a49a5954bd3420039a)]) */\n      dup4\n      mload\n      dup1\n      dup3\n      add\n      dup6\n      mstore\n        /* \"verifier.sol\":7237:7303  0x1dd14e44f2b02a66b5e29b44aa92bf941419d625f4616fc2a95e77fd5811dadb */\n      0x1dd14e44f2b02a66b5e29b44aa92bf941419d625f4616fc2a95e77fd5811dadb\n        /* \"verifier.sol\":7212:7539  Pairing.G2Point([uint256(0x1dd14e44f2b02a66b5e29b44aa92bf941419d625f4616fc2a95e77fd5811dadb), uint256(0x26a61cc4785a135211c384bd63d8f0a31af7a4cde00f3e9988e5443c87952b34)], [uint256(0x15aabbe70630d13fe6b322ab27d8324a46fab2e9198377f9c6cd346672774534), uint256(0x1554660dda2fa742dea97963e3fd288334955bcbbce2f7a49a5954bd3420039a)]) */\n      dup2\n      dup7\n      add\n      swap1\n      dup2\n      mstore\n        /* \"verifier.sol\":7314:7380  0x26a61cc4785a135211c384bd63d8f0a31af7a4cde00f3e9988e5443c87952b34 */\n      0x26a61cc4785a135211c384bd63d8f0a31af7a4cde00f3e9988e5443c87952b34\n        /* \"verifier.sol\":7212:7539  Pairing.G2Point([uint256(0x1dd14e44f2b02a66b5e29b44aa92bf941419d625f4616fc2a95e77fd5811dadb), uint256(0x26a61cc4785a135211c384bd63d8f0a31af7a4cde00f3e9988e5443c87952b34)], [uint256(0x15aabbe70630d13fe6b322ab27d8324a46fab2e9198377f9c6cd346672774534), uint256(0x1554660dda2fa742dea97963e3fd288334955bcbbce2f7a49a5954bd3420039a)]) */\n      dup3\n      dup6\n      add\n      mstore\n      dup2\n      mstore\n      dup5\n      mload\n      dup1\n      dup7\n      add\n      dup7\n      mstore\n        /* \"verifier.sol\":7393:7459  0x15aabbe70630d13fe6b322ab27d8324a46fab2e9198377f9c6cd346672774534 */\n      0x15aabbe70630d13fe6b322ab27d8324a46fab2e9198377f9c6cd346672774534\n        /* \"verifier.sol\":7212:7539  Pairing.G2Point([uint256(0x1dd14e44f2b02a66b5e29b44aa92bf941419d625f4616fc2a95e77fd5811dadb), uint256(0x26a61cc4785a135211c384bd63d8f0a31af7a4cde00f3e9988e5443c87952b34)], [uint256(0x15aabbe70630d13fe6b322ab27d8324a46fab2e9198377f9c6cd346672774534), uint256(0x1554660dda2fa742dea97963e3fd288334955bcbbce2f7a49a5954bd3420039a)]) */\n      dup2\n      mstore\n        /* \"verifier.sol\":7470:7536  0x1554660dda2fa742dea97963e3fd288334955bcbbce2f7a49a5954bd3420039a */\n      0x1554660dda2fa742dea97963e3fd288334955bcbbce2f7a49a5954bd3420039a\n        /* \"verifier.sol\":7212:7539  Pairing.G2Point([uint256(0x1dd14e44f2b02a66b5e29b44aa92bf941419d625f4616fc2a95e77fd5811dadb), uint256(0x26a61cc4785a135211c384bd63d8f0a31af7a4cde00f3e9988e5443c87952b34)], [uint256(0x15aabbe70630d13fe6b322ab27d8324a46fab2e9198377f9c6cd346672774534), uint256(0x1554660dda2fa742dea97963e3fd288334955bcbbce2f7a49a5954bd3420039a)]) */\n      dup2\n      dup7\n      add\n      mstore\n      dup2\n      dup6\n      add\n      mstore\n        /* \"verifier.sol\":7201:7209  vk.gamma */\n      dup6\n      dup6\n      add\n        /* \"verifier.sol\":7201:7539  vk.gamma = Pairing.G2Point([uint256(0x1dd14e44f2b02a66b5e29b44aa92bf941419d625f4616fc2a95e77fd5811dadb), uint256(0x26a61cc4785a135211c384bd63d8f0a31af7a4cde00f3e9988e5443c87952b34)], [uint256(0x15aabbe70630d13fe6b322ab27d8324a46fab2e9198377f9c6cd346672774534), uint256(0x1554660dda2fa742dea97963e3fd288334955bcbbce2f7a49a5954bd3420039a)]) */\n      mstore\n        /* \"verifier.sol\":7560:7887  Pairing.G2Point([uint256(0x2d836df4b09b09bc96a308a8457129bd716ac8996628901ba014777e38b91d36), uint256(0x204672d7224748a862be81d235d059a0d0b61cd8e9ba31e0b7a54b0884a28b1b)], [uint256(0x19437a9cdfd12b7d453b5193141d0cfbbdf41cd30a886d7a0d92b34c5e2324d5), uint256(0x1e49c1f10b587d76b876e8ff64d69e3a22ad9704d67d53ca05b5a5706d339d3d)]) */\n      dup4\n      mload\n      swap1\n      dup2\n      add\n      dup5\n      mstore\n        /* \"verifier.sol\":7585:7651  0x2d836df4b09b09bc96a308a8457129bd716ac8996628901ba014777e38b91d36 */\n      0x2d836df4b09b09bc96a308a8457129bd716ac8996628901ba014777e38b91d36\n        /* \"verifier.sol\":7560:7887  Pairing.G2Point([uint256(0x2d836df4b09b09bc96a308a8457129bd716ac8996628901ba014777e38b91d36), uint256(0x204672d7224748a862be81d235d059a0d0b61cd8e9ba31e0b7a54b0884a28b1b)], [uint256(0x19437a9cdfd12b7d453b5193141d0cfbbdf41cd30a886d7a0d92b34c5e2324d5), uint256(0x1e49c1f10b587d76b876e8ff64d69e3a22ad9704d67d53ca05b5a5706d339d3d)]) */\n      dup2\n      dup6\n      add\n      swap1\n      dup2\n      mstore\n        /* \"verifier.sol\":7662:7728  0x204672d7224748a862be81d235d059a0d0b61cd8e9ba31e0b7a54b0884a28b1b */\n      0x204672d7224748a862be81d235d059a0d0b61cd8e9ba31e0b7a54b0884a28b1b\n        /* \"verifier.sol\":7560:7887  Pairing.G2Point([uint256(0x2d836df4b09b09bc96a308a8457129bd716ac8996628901ba014777e38b91d36), uint256(0x204672d7224748a862be81d235d059a0d0b61cd8e9ba31e0b7a54b0884a28b1b)], [uint256(0x19437a9cdfd12b7d453b5193141d0cfbbdf41cd30a886d7a0d92b34c5e2324d5), uint256(0x1e49c1f10b587d76b876e8ff64d69e3a22ad9704d67d53ca05b5a5706d339d3d)]) */\n      dup3\n      dup5\n      add\n      mstore\n      dup2\n      mstore\n      dup4\n      mload\n      dup1\n      dup6\n      add\n      dup6\n      mstore\n        /* \"verifier.sol\":7741:7807  0x19437a9cdfd12b7d453b5193141d0cfbbdf41cd30a886d7a0d92b34c5e2324d5 */\n      0x19437a9cdfd12b7d453b5193141d0cfbbdf41cd30a886d7a0d92b34c5e2324d5\n        /* \"verifier.sol\":7560:7887  Pairing.G2Point([uint256(0x2d836df4b09b09bc96a308a8457129bd716ac8996628901ba014777e38b91d36), uint256(0x204672d7224748a862be81d235d059a0d0b61cd8e9ba31e0b7a54b0884a28b1b)], [uint256(0x19437a9cdfd12b7d453b5193141d0cfbbdf41cd30a886d7a0d92b34c5e2324d5), uint256(0x1e49c1f10b587d76b876e8ff64d69e3a22ad9704d67d53ca05b5a5706d339d3d)]) */\n      dup2\n      mstore\n        /* \"verifier.sol\":7818:7884  0x1e49c1f10b587d76b876e8ff64d69e3a22ad9704d67d53ca05b5a5706d339d3d */\n      0x1e49c1f10b587d76b876e8ff64d69e3a22ad9704d67d53ca05b5a5706d339d3d\n        /* \"verifier.sol\":7560:7887  Pairing.G2Point([uint256(0x2d836df4b09b09bc96a308a8457129bd716ac8996628901ba014777e38b91d36), uint256(0x204672d7224748a862be81d235d059a0d0b61cd8e9ba31e0b7a54b0884a28b1b)], [uint256(0x19437a9cdfd12b7d453b5193141d0cfbbdf41cd30a886d7a0d92b34c5e2324d5), uint256(0x1e49c1f10b587d76b876e8ff64d69e3a22ad9704d67d53ca05b5a5706d339d3d)]) */\n      dup2\n      dup6\n      add\n      mstore\n      dup2\n      dup5\n      add\n      mstore\n        /* \"verifier.sol\":7549:7557  vk.delta */\n      swap1\n      dup5\n      add\n        /* \"verifier.sol\":7549:7887  vk.delta = Pairing.G2Point([uint256(0x2d836df4b09b09bc96a308a8457129bd716ac8996628901ba014777e38b91d36), uint256(0x204672d7224748a862be81d235d059a0d0b61cd8e9ba31e0b7a54b0884a28b1b)], [uint256(0x19437a9cdfd12b7d453b5193141d0cfbbdf41cd30a886d7a0d92b34c5e2324d5), uint256(0x1e49c1f10b587d76b876e8ff64d69e3a22ad9704d67d53ca05b5a5706d339d3d)]) */\n      mstore\n        /* \"verifier.sol\":7912:7936  new Pairing.G1Point[](1) */\n      dup2\n      mload\n        /* \"verifier.sol\":7934:7935  1 */\n      0x01\n        /* \"verifier.sol\":7912:7936  new Pairing.G1Point[](1) */\n      dup1\n      dup3\n      mstore\n      dup2\n      dup5\n      add\n      swap1\n      swap4\n      mstore\n      swap2\n        /* \"verifier.sol\":7934:7935  1 */\n      swap1\n        /* \"verifier.sol\":7912:7936  new Pairing.G1Point[](1) */\n      dup3\n      add\n    tag_59:\n      0x40\n      dup1\n      mload\n      dup1\n      dup3\n      add\n      swap1\n      swap2\n      mstore\n      0x00\n      dup1\n      dup3\n      mstore\n      0x20\n      dup3\n      add\n      mstore\n      dup2\n      mstore\n      0x20\n      add\n      swap1\n      0x01\n      swap1\n      sub\n      swap1\n      dup2\n      tag_59\n      jumpi\n      pop\n      pop\n        /* \"verifier.sol\":7897:7909  vk.gamma_abc */\n      0x80\n      dup3\n      add\n        /* \"verifier.sol\":7897:7936  vk.gamma_abc = new Pairing.G1Point[](1) */\n      swap1\n      dup2\n      mstore\n        /* \"verifier.sol\":7964:8133  Pairing.G1Point(uint256(0x0ba3aaceace761acc25977784cffe381c89288ee0c978c0c256b93cd7c2f552f), uint256(0x06bd36158541f776b681ec199087fcb24d44e92330b055c7e7ebd5f9edcb7d68)) */\n      0x40\n      dup1\n      mload\n      dup1\n      dup3\n      add\n      swap1\n      swap2\n      mstore\n        /* \"verifier.sol\":7988:8054  0x0ba3aaceace761acc25977784cffe381c89288ee0c978c0c256b93cd7c2f552f */\n      0x0ba3aaceace761acc25977784cffe381c89288ee0c978c0c256b93cd7c2f552f\n        /* \"verifier.sol\":7964:8133  Pairing.G1Point(uint256(0x0ba3aaceace761acc25977784cffe381c89288ee0c978c0c256b93cd7c2f552f), uint256(0x06bd36158541f776b681ec199087fcb24d44e92330b055c7e7ebd5f9edcb7d68)) */\n      dup2\n      mstore\n        /* \"verifier.sol\":8065:8131  0x06bd36158541f776b681ec199087fcb24d44e92330b055c7e7ebd5f9edcb7d68 */\n      0x06bd36158541f776b681ec199087fcb24d44e92330b055c7e7ebd5f9edcb7d68\n        /* \"verifier.sol\":7964:8133  Pairing.G1Point(uint256(0x0ba3aaceace761acc25977784cffe381c89288ee0c978c0c256b93cd7c2f552f), uint256(0x06bd36158541f776b681ec199087fcb24d44e92330b055c7e7ebd5f9edcb7d68)) */\n      0x20\n      dup3\n      add\n      mstore\n        /* \"verifier.sol\":7946:7958  vk.gamma_abc */\n      swap1\n      mload\n        /* \"verifier.sol\":7946:7961  vk.gamma_abc[0] */\n      dup1\n      mload\n      0x00\n      swap1\n      tag_63\n      jumpi\n      tag_63\n      tag_30\n      jump\t// in\n    tag_63:\n      0x20\n      mul\n      0x20\n      add\n      add\n        /* \"verifier.sol\":7946:8133  vk.gamma_abc[0] = Pairing.G1Point(uint256(0x0ba3aaceace761acc25977784cffe381c89288ee0c978c0c256b93cd7c2f552f), uint256(0x06bd36158541f776b681ec199087fcb24d44e92330b055c7e7ebd5f9edcb7d68)) */\n      dup2\n      swap1\n      mstore\n      pop\n        /* \"verifier.sol\":6583:8140  function verifyingKey() pure internal returns (VerifyingKey memory vk) {... */\n      swap1\n      jump\t// out\n        /* \"verifier.sol\":3084:3538  function scalar_mul(G1Point memory p, uint s) internal view returns (G1Point memory r) {... */\n    tag_39:\n      0x40\n      dup1\n      mload\n      dup1\n      dup3\n      add\n      swap1\n      swap2\n      mstore\n      0x00\n      dup1\n      dup3\n      mstore\n      0x20\n      dup3\n      add\n      mstore\n        /* \"verifier.sol\":3181:3201  uint[3] memory input */\n      tag_66\n      tag_67\n      jump\t// in\n    tag_66:\n        /* \"verifier.sol\":3222:3225  p.X */\n      dup4\n      mload\n        /* \"verifier.sol\":3211:3225  input[0] = p.X */\n      dup2\n      mstore\n        /* \"verifier.sol\":3211:3219  input[0] */\n      0x20\n        /* \"verifier.sol\":3246:3249  p.Y */\n      dup1\n      dup6\n      add\n      mload\n        /* \"verifier.sol\":3235:3243  input[1] */\n      swap1\n      dup3\n      add\n        /* \"verifier.sol\":3235:3249  input[1] = p.Y */\n      mstore\n        /* \"verifier.sol\":3259:3267  input[2] */\n      0x40\n      dup2\n      add\n        /* \"verifier.sol\":3259:3271  input[2] = s */\n      dup4\n      swap1\n      mstore\n      0x00\n        /* \"verifier.sol\":3385:3389  0x60 */\n      0x60\n        /* \"verifier.sol\":3382:3383  r */\n      dup4\n        /* \"verifier.sol\":3376:3380  0x80 */\n      0x80\n        /* \"verifier.sol\":3211:3225  input[0] = p.X */\n      dup5\n        /* \"verifier.sol\":3366:3367  7 */\n      0x07\n        /* \"verifier.sol\":3359:3363  2000 */\n      0x07d0\n        /* \"verifier.sol\":3352:3357  gas() */\n      gas\n        /* \"verifier.sol\":3348:3364  sub(gas(), 2000) */\n      sub\n        /* \"verifier.sol\":3337:3390  staticcall(sub(gas(), 2000), 7, input, 0x80, r, 0x60) */\n      staticcall\n        /* \"verifier.sol\":3326:3390  success := staticcall(sub(gas(), 2000), 7, input, 0x80, r, 0x60) */\n      swap1\n      pop\n      dup1\n      dup1\n        /* \"verifier.sol\":3460:3495  switch success case 0 { invalid() } */\n      tag_74\n        /* \"verifier.sol\":3475:3495  case 0 { invalid() } */\n      jumpi\n        /* \"verifier.sol\":3484:3493  invalid() */\n      invalid\n        /* \"verifier.sol\":3460:3495  switch success case 0 { invalid() } */\n    tag_74:\n      pop\n        /* \"verifier.sol\":3523:3530  success */\n      dup1\n        /* \"verifier.sol\":3514:3531  require (success) */\n      tag_76\n      jumpi\n      0x00\n      dup1\n      revert\n    tag_76:\n        /* \"verifier.sol\":3171:3538  {... */\n      pop\n      pop\n        /* \"verifier.sol\":3084:3538  function scalar_mul(G1Point memory p, uint s) internal view returns (G1Point memory r) {... */\n      swap3\n      swap2\n      pop\n      pop\n      jump\t// out\n        /* \"verifier.sol\":2434:2927  function addition(G1Point memory p1, G1Point memory p2) internal view returns (G1Point memory r) {... */\n    tag_40:\n      0x40\n      dup1\n      mload\n      dup1\n      dup3\n      add\n      swap1\n      swap2\n      mstore\n      0x00\n      dup1\n      dup3\n      mstore\n      0x20\n      dup3\n      add\n      mstore\n        /* \"verifier.sol\":2541:2561  uint[4] memory input */\n      tag_79\n      tag_80\n      jump\t// in\n    tag_79:\n        /* \"verifier.sol\":2582:2586  p1.X */\n      dup4\n      mload\n        /* \"verifier.sol\":2571:2586  input[0] = p1.X */\n      dup2\n      mstore\n        /* \"verifier.sol\":2571:2579  input[0] */\n      0x20\n        /* \"verifier.sol\":2607:2611  p1.Y */\n      dup1\n      dup6\n      add\n      mload\n        /* \"verifier.sol\":2596:2604  input[1] */\n      dup2\n      dup4\n      add\n        /* \"verifier.sol\":2596:2611  input[1] = p1.Y */\n      mstore\n        /* \"verifier.sol\":2632:2636  p2.X */\n      dup4\n      mload\n        /* \"verifier.sol\":2621:2629  input[2] */\n      0x40\n      dup4\n      add\n        /* \"verifier.sol\":2621:2636  input[2] = p2.X */\n      mstore\n        /* \"verifier.sol\":2657:2661  p2.Y */\n      dup4\n      add\n      mload\n        /* \"verifier.sol\":2646:2654  input[3] */\n      0x60\n      dup1\n      dup4\n      add\n        /* \"verifier.sol\":2646:2661  input[3] = p2.Y */\n      swap2\n      swap1\n      swap2\n      mstore\n      0x00\n      swap1\n        /* \"verifier.sol\":2772:2773  r */\n      dup4\n        /* \"verifier.sol\":2766:2770  0xc0 */\n      0xc0\n        /* \"verifier.sol\":2571:2586  input[0] = p1.X */\n      dup5\n        /* \"verifier.sol\":2756:2757  6 */\n      0x06\n        /* \"verifier.sol\":2749:2753  2000 */\n      0x07d0\n        /* \"verifier.sol\":2742:2747  gas() */\n      gas\n        /* \"verifier.sol\":2738:2754  sub(gas(), 2000) */\n      sub\n        /* \"verifier.sol\":2727:2780  staticcall(sub(gas(), 2000), 6, input, 0xc0, r, 0x60) */\n      staticcall\n        /* \"verifier.sol\":2716:2780  success := staticcall(sub(gas(), 2000), 6, input, 0xc0, r, 0x60) */\n      swap1\n      pop\n      dup1\n      dup1\n        /* \"verifier.sol\":2850:2885  switch success case 0 { invalid() } */\n      tag_74\n        /* \"verifier.sol\":2865:2885  case 0 { invalid() } */\n      jumpi\n        /* \"verifier.sol\":2874:2883  invalid() */\n      invalid\n        /* \"verifier.sol\":2043:2383  function negate(G1Point memory p) pure internal returns (G1Point memory) {... */\n    tag_48:\n      0x40\n      dup1\n      mload\n      dup1\n      dup3\n      add\n      swap1\n      swap2\n      mstore\n      0x00\n      dup1\n      dup3\n      mstore\n      0x20\n      dup3\n      add\n      mstore\n        /* \"verifier.sol\":2278:2281  p.X */\n      dup2\n      mload\n        /* \"verifier.sol\":2187:2264  21888242871839275222246405745257275088696311157297823662689037894645226208583 */\n      0x30644e72e131a029b85045b68181585d97816a916871ca8d3c208c16d87cfd47\n      swap1\n        /* \"verifier.sol\":2278:2286  p.X == 0 */\n      iszero\n        /* \"verifier.sol\":2278:2298  p.X == 0 && p.Y == 0 */\n      dup1\n      iszero\n      tag_94\n      jumpi\n      pop\n        /* \"verifier.sol\":2290:2293  p.Y */\n      0x20\n      dup4\n      add\n      mload\n        /* \"verifier.sol\":2290:2298  p.Y == 0 */\n      iszero\n        /* \"verifier.sol\":2278:2298  p.X == 0 && p.Y == 0 */\n    tag_94:\n        /* \"verifier.sol\":2274:2332  if (p.X == 0 && p.Y == 0)... */\n      iszero\n      tag_95\n      jumpi\n      pop\n      pop\n        /* \"verifier.sol\":2319:2332  G1Point(0, 0) */\n      0x40\n      dup1\n      mload\n      dup1\n      dup3\n      add\n      swap1\n      swap2\n      mstore\n      0x00\n      dup1\n      dup3\n      mstore\n      0x20\n      dup3\n      add\n      mstore\n      swap2\n        /* \"verifier.sol\":2043:2383  function negate(G1Point memory p) pure internal returns (G1Point memory) {... */\n      swap1\n      pop\n      jump\t// out\n        /* \"verifier.sol\":2274:2332  if (p.X == 0 && p.Y == 0)... */\n    tag_95:\n        /* \"verifier.sol\":2349:2376  G1Point(p.X, q - (p.Y % q)) */\n      mload(0x40)\n      dup1\n      0x40\n      add\n      0x40\n      mstore\n      dup1\n        /* \"verifier.sol\":2357:2358  p */\n      dup5\n        /* \"verifier.sol\":2357:2360  p.X */\n      0x00\n      add\n      mload\n        /* \"verifier.sol\":2349:2376  G1Point(p.X, q - (p.Y % q)) */\n      dup2\n      mstore\n      0x20\n      add\n        /* \"verifier.sol\":2373:2374  q */\n      dup3\n        /* \"verifier.sol\":2367:2368  p */\n      dup6\n        /* \"verifier.sol\":2367:2370  p.Y */\n      0x20\n      add\n      mload\n        /* \"verifier.sol\":2367:2374  p.Y % q */\n      tag_96\n      swap2\n      swap1\n      tag_97\n      jump\t// in\n    tag_96:\n        /* \"verifier.sol\":2362:2375  q - (p.Y % q) */\n      tag_98\n      swap1\n        /* \"verifier.sol\":2362:2363  q */\n      dup5\n        /* \"verifier.sol\":2362:2375  q - (p.Y % q) */\n      tag_99\n      jump\t// in\n    tag_98:\n        /* \"verifier.sol\":2349:2376  G1Point(p.X, q - (p.Y % q)) */\n      swap1\n      mstore\n        /* \"verifier.sol\":2342:2376  return G1Point(p.X, q - (p.Y % q)) */\n      swap4\n        /* \"verifier.sol\":2043:2383  function negate(G1Point memory p) pure internal returns (G1Point memory) {... */\n      swap3\n      pop\n      pop\n      pop\n      jump\t// out\n        /* \"verifier.sol\":5680:6232  function pairingProd4(... */\n    tag_51:\n        /* \"verifier.sol\":5969:5985  new G1Point[](4) */\n      0x40\n      dup1\n      mload\n        /* \"verifier.sol\":5983:5984  4 */\n      0x04\n        /* \"verifier.sol\":5969:5985  new G1Point[](4) */\n      dup1\n      dup3\n      mstore\n      0xa0\n      dup3\n      add\n      swap1\n      swap3\n      mstore\n        /* \"verifier.sol\":5931:5935  bool */\n      0x00\n      swap2\n      dup3\n      swap2\n        /* \"verifier.sol\":5969:5985  new G1Point[](4) */\n      swap1\n      dup2\n      0x20\n      add\n    tag_104:\n      0x40\n      dup1\n      mload\n      dup1\n      dup3\n      add\n      swap1\n      swap2\n      mstore\n      0x00\n      dup1\n      dup3\n      mstore\n      0x20\n      dup3\n      add\n      mstore\n      dup2\n      mstore\n      0x20\n      add\n      swap1\n      0x01\n      swap1\n      sub\n      swap1\n      dup2\n      tag_104\n      jumpi\n      pop\n      pop\n        /* \"verifier.sol\":6017:6033  new G2Point[](4) */\n      0x40\n      dup1\n      mload\n        /* \"verifier.sol\":6031:6032  4 */\n      0x04\n        /* \"verifier.sol\":6017:6033  new G2Point[](4) */\n      dup1\n      dup3\n      mstore\n      0xa0\n      dup3\n      add\n      swap1\n      swap3\n      mstore\n        /* \"verifier.sol\":5947:5985  G1Point[] memory p1 = new G1Point[](4) */\n      swap2\n      swap3\n      pop\n        /* \"verifier.sol\":5995:6014  G2Point[] memory p2 */\n      0x00\n      swap2\n        /* \"verifier.sol\":6017:6033  new G2Point[](4) */\n      swap1\n      0x20\n      dup3\n      add\n    tag_109:\n      tag_110\n      tag_111\n      jump\t// in\n    tag_110:\n      dup2\n      mstore\n      0x20\n      add\n      swap1\n      0x01\n      swap1\n      sub\n      swap1\n      dup2\n      tag_109\n      jumpi\n      swap1\n      pop\n      pop\n        /* \"verifier.sol\":5995:6033  G2Point[] memory p2 = new G2Point[](4) */\n      swap1\n      pop\n        /* \"verifier.sol\":6051:6053  a1 */\n      dup11\n        /* \"verifier.sol\":6043:6045  p1 */\n      dup3\n        /* \"verifier.sol\":6046:6047  0 */\n      0x00\n        /* \"verifier.sol\":6043:6048  p1[0] */\n      dup2\n      mload\n      dup2\n      lt\n      tag_113\n      jumpi\n      tag_113\n      tag_30\n      jump\t// in\n    tag_113:\n      0x20\n      mul\n      0x20\n      add\n      add\n        /* \"verifier.sol\":6043:6053  p1[0] = a1 */\n      dup2\n      swap1\n      mstore\n      pop\n        /* \"verifier.sol\":6071:6073  b1 */\n      dup9\n        /* \"verifier.sol\":6063:6065  p1 */\n      dup3\n        /* \"verifier.sol\":6066:6067  1 */\n      0x01\n        /* \"verifier.sol\":6063:6068  p1[1] */\n      dup2\n      mload\n      dup2\n      lt\n      tag_115\n      jumpi\n      tag_115\n      tag_30\n      jump\t// in\n    tag_115:\n      0x20\n      mul\n      0x20\n      add\n      add\n        /* \"verifier.sol\":6063:6073  p1[1] = b1 */\n      dup2\n      swap1\n      mstore\n      pop\n        /* \"verifier.sol\":6091:6093  c1 */\n      dup7\n        /* \"verifier.sol\":6083:6085  p1 */\n      dup3\n        /* \"verifier.sol\":6086:6087  2 */\n      0x02\n        /* \"verifier.sol\":6083:6088  p1[2] */\n      dup2\n      mload\n      dup2\n      lt\n      tag_117\n      jumpi\n      tag_117\n      tag_30\n      jump\t// in\n    tag_117:\n      0x20\n      mul\n      0x20\n      add\n      add\n        /* \"verifier.sol\":6083:6093  p1[2] = c1 */\n      dup2\n      swap1\n      mstore\n      pop\n        /* \"verifier.sol\":6111:6113  d1 */\n      dup5\n        /* \"verifier.sol\":6103:6105  p1 */\n      dup3\n        /* \"verifier.sol\":6106:6107  3 */\n      0x03\n        /* \"verifier.sol\":6103:6108  p1[3] */\n      dup2\n      mload\n      dup2\n      lt\n      tag_119\n      jumpi\n      tag_119\n      tag_30\n      jump\t// in\n    tag_119:\n      0x20\n      mul\n      0x20\n      add\n      add\n        /* \"verifier.sol\":6103:6113  p1[3] = d1 */\n      dup2\n      swap1\n      mstore\n      pop\n        /* \"verifier.sol\":6131:6133  a2 */\n      dup10\n        /* \"verifier.sol\":6123:6125  p2 */\n      dup2\n        /* \"verifier.sol\":6126:6127  0 */\n      0x00\n        /* \"verifier.sol\":6123:6128  p2[0] */\n      dup2\n      mload\n      dup2\n      lt\n      tag_121\n      jumpi\n      tag_121\n      tag_30\n      jump\t// in\n    tag_121:\n      0x20\n      mul\n      0x20\n      add\n      add\n        /* \"verifier.sol\":6123:6133  p2[0] = a2 */\n      dup2\n      swap1\n      mstore\n      pop\n        /* \"verifier.sol\":6151:6153  b2 */\n      dup8\n        /* \"verifier.sol\":6143:6145  p2 */\n      dup2\n        /* \"verifier.sol\":6146:6147  1 */\n      0x01\n        /* \"verifier.sol\":6143:6148  p2[1] */\n      dup2\n      mload\n      dup2\n      lt\n      tag_123\n      jumpi\n      tag_123\n      tag_30\n      jump\t// in\n    tag_123:\n      0x20\n      mul\n      0x20\n      add\n      add\n        /* \"verifier.sol\":6143:6153  p2[1] = b2 */\n      dup2\n      swap1\n      mstore\n      pop\n        /* \"verifier.sol\":6171:6173  c2 */\n      dup6\n        /* \"verifier.sol\":6163:6165  p2 */\n      dup2\n        /* \"verifier.sol\":6166:6167  2 */\n      0x02\n        /* \"verifier.sol\":6163:6168  p2[2] */\n      dup2\n      mload\n      dup2\n      lt\n      tag_125\n      jumpi\n      tag_125\n      tag_30\n      jump\t// in\n    tag_125:\n      0x20\n      mul\n      0x20\n      add\n      add\n        /* \"verifier.sol\":6163:6173  p2[2] = c2 */\n      dup2\n      swap1\n      mstore\n      pop\n        /* \"verifier.sol\":6191:6193  d2 */\n      dup4\n        /* \"verifier.sol\":6183:6185  p2 */\n      dup2\n        /* \"verifier.sol\":6186:6187  3 */\n      0x03\n        /* \"verifier.sol\":6183:6188  p2[3] */\n      dup2\n      mload\n      dup2\n      lt\n      tag_127\n      jumpi\n      tag_127\n      tag_30\n      jump\t// in\n    tag_127:\n      0x20\n      mul\n      0x20\n      add\n      add\n        /* \"verifier.sol\":6183:6193  p2[3] = d2 */\n      dup2\n      swap1\n      mstore\n      pop\n        /* \"verifier.sol\":6210:6225  pairing(p1, p2) */\n      tag_128\n        /* \"verifier.sol\":6218:6220  p1 */\n      dup3\n        /* \"verifier.sol\":6222:6224  p2 */\n      dup3\n        /* \"verifier.sol\":6210:6217  pairing */\n      tag_129\n        /* \"verifier.sol\":6210:6225  pairing(p1, p2) */\n      jump\t// in\n    tag_128:\n        /* \"verifier.sol\":6203:6225  return pairing(p1, p2) */\n      swap12\n        /* \"verifier.sol\":5680:6232  function pairingProd4(... */\n      swap11\n      pop\n      pop\n      pop\n      pop\n      pop\n      pop\n      pop\n      pop\n      pop\n      pop\n      pop\n      jump\t// out\n        /* \"verifier.sol\":3749:4672  function pairing(G1Point[] memory p1, G2Point[] memory p2) internal view returns (bool) {... */\n    tag_129:\n        /* \"verifier.sol\":3831:3835  bool */\n      0x00\n        /* \"verifier.sol\":3868:3870  p2 */\n      dup2\n        /* \"verifier.sol\":3868:3877  p2.length */\n      mload\n        /* \"verifier.sol\":3855:3857  p1 */\n      dup4\n        /* \"verifier.sol\":3855:3864  p1.length */\n      mload\n        /* \"verifier.sol\":3855:3877  p1.length == p2.length */\n      eq\n        /* \"verifier.sol\":3847:3878  require(p1.length == p2.length) */\n      tag_131\n      jumpi\n      0x00\n      dup1\n      revert\n    tag_131:\n        /* \"verifier.sol\":3904:3913  p1.length */\n      dup3\n      mload\n        /* \"verifier.sol\":3888:3901  uint elements */\n      0x00\n        /* \"verifier.sol\":3940:3952  elements * 6 */\n      tag_132\n        /* \"verifier.sol\":3904:3913  p1.length */\n      dup3\n        /* \"verifier.sol\":3951:3952  6 */\n      0x06\n        /* \"verifier.sol\":3940:3952  elements * 6 */\n      tag_133\n      jump\t// in\n    tag_132:\n        /* \"verifier.sol\":3923:3952  uint inputSize = elements * 6 */\n      swap1\n      pop\n        /* \"verifier.sol\":3962:3981  uint[] memory input */\n      0x00\n        /* \"verifier.sol\":3995:4004  inputSize */\n      dup2\n        /* \"verifier.sol\":3984:4005  new uint[](inputSize) */\n      0xffffffffffffffff\n      dup2\n      gt\n      iszero\n      tag_135\n      jumpi\n      tag_135\n      tag_13\n      jump\t// in\n    tag_135:\n      mload(0x40)\n      swap1\n      dup1\n      dup3\n      mstore\n      dup1\n      0x20\n      mul\n      0x20\n      add\n      dup3\n      add\n      0x40\n      mstore\n      dup1\n      iszero\n      tag_136\n      jumpi\n      dup2\n      0x20\n      add\n      0x20\n      dup3\n      mul\n      dup1\n      calldatasize\n      dup4\n      calldatacopy\n      add\n      swap1\n      pop\n    tag_136:\n      pop\n        /* \"verifier.sol\":3962:4005  uint[] memory input = new uint[](inputSize) */\n      swap1\n      pop\n        /* \"verifier.sol\":4020:4026  uint i */\n      0x00\n        /* \"verifier.sol\":4015:4322  for (uint i = 0; i < elements; i++)... */\n    tag_137:\n        /* \"verifier.sol\":4036:4044  elements */\n      dup4\n        /* \"verifier.sol\":4032:4033  i */\n      dup2\n        /* \"verifier.sol\":4032:4044  i < elements */\n      lt\n        /* \"verifier.sol\":4015:4322  for (uint i = 0; i < elements; i++)... */\n      iszero\n      tag_138\n      jumpi\n        /* \"verifier.sol\":4092:4094  p1 */\n      dup7\n        /* \"verifier.sol\":4095:4096  i */\n      dup2\n        /* \"verifier.sol\":4092:4097  p1[i] */\n      dup2\n      mload\n      dup2\n      lt\n      tag_141\n      jumpi\n      tag_141\n      tag_30\n      jump\t// in\n    tag_141:\n      0x20\n      mul\n      0x20\n      add\n      add\n      mload\n        /* \"verifier.sol\":4092:4099  p1[i].X */\n      0x00\n      add\n      mload\n        /* \"verifier.sol\":4073:4078  input */\n      dup3\n        /* \"verifier.sol\":4079:4080  i */\n      dup3\n        /* \"verifier.sol\":4083:4084  6 */\n      0x06\n        /* \"verifier.sol\":4079:4084  i * 6 */\n      tag_142\n      swap2\n      swap1\n      tag_133\n      jump\t// in\n    tag_142:\n        /* \"verifier.sol\":4079:4088  i * 6 + 0 */\n      tag_143\n      swap1\n        /* \"verifier.sol\":4087:4088  0 */\n      0x00\n        /* \"verifier.sol\":4079:4088  i * 6 + 0 */\n      tag_23\n      jump\t// in\n    tag_143:\n        /* \"verifier.sol\":4073:4089  input[i * 6 + 0] */\n      dup2\n      mload\n      dup2\n      lt\n      tag_145\n      jumpi\n      tag_145\n      tag_30\n      jump\t// in\n    tag_145:\n      0x20\n      mul\n      0x20\n      add\n      add\n        /* \"verifier.sol\":4073:4099  input[i * 6 + 0] = p1[i].X */\n      dup2\n      dup2\n      mstore\n      pop\n      pop\n        /* \"verifier.sol\":4132:4134  p1 */\n      dup7\n        /* \"verifier.sol\":4135:4136  i */\n      dup2\n        /* \"verifier.sol\":4132:4137  p1[i] */\n      dup2\n      mload\n      dup2\n      lt\n      tag_147\n      jumpi\n      tag_147\n      tag_30\n      jump\t// in\n    tag_147:\n      0x20\n      mul\n      0x20\n      add\n      add\n      mload\n        /* \"verifier.sol\":4132:4139  p1[i].Y */\n      0x20\n      add\n      mload\n        /* \"verifier.sol\":4113:4118  input */\n      dup3\n        /* \"verifier.sol\":4119:4120  i */\n      dup3\n        /* \"verifier.sol\":4123:4124  6 */\n      0x06\n        /* \"verifier.sol\":4119:4124  i * 6 */\n      tag_148\n      swap2\n      swap1\n      tag_133\n      jump\t// in\n    tag_148:\n        /* \"verifier.sol\":4119:4128  i * 6 + 1 */\n      tag_149\n      swap1\n        /* \"verifier.sol\":4127:4128  1 */\n      0x01\n        /* \"verifier.sol\":4119:4128  i * 6 + 1 */\n      tag_23\n      jump\t// in\n    tag_149:\n        /* \"verifier.sol\":4113:4129  input[i * 6 + 1] */\n      dup2\n      mload\n      dup2\n      lt\n      tag_151\n      jumpi\n      tag_151\n      tag_30\n      jump\t// in\n    tag_151:\n      0x20\n      mul\n      0x20\n      add\n      add\n        /* \"verifier.sol\":4113:4139  input[i * 6 + 1] = p1[i].Y */\n      dup2\n      dup2\n      mstore\n      pop\n      pop\n        /* \"verifier.sol\":4172:4174  p2 */\n      dup6\n        /* \"verifier.sol\":4175:4176  i */\n      dup2\n        /* \"verifier.sol\":4172:4177  p2[i] */\n      dup2\n      mload\n      dup2\n      lt\n      tag_153\n      jumpi\n      tag_153\n      tag_30\n      jump\t// in\n    tag_153:\n      0x20\n      swap1\n      dup2\n      mul\n      swap2\n      swap1\n      swap2\n      add\n      dup2\n      add\n      mload\n        /* \"verifier.sol\":4172:4179  p2[i].X */\n      mload\n        /* \"verifier.sol\":4172:4182  p2[i].X[1] */\n      add\n      mload\n        /* \"verifier.sol\":4153:4158  input */\n      dup3\n        /* \"verifier.sol\":4159:4164  i * 6 */\n      tag_156\n        /* \"verifier.sol\":4159:4160  i */\n      dup4\n        /* \"verifier.sol\":4163:4164  6 */\n      0x06\n        /* \"verifier.sol\":4159:4164  i * 6 */\n      tag_133\n      jump\t// in\n    tag_156:\n        /* \"verifier.sol\":4159:4168  i * 6 + 2 */\n      tag_157\n      swap1\n        /* \"verifier.sol\":4167:4168  2 */\n      0x02\n        /* \"verifier.sol\":4159:4168  i * 6 + 2 */\n      tag_23\n      jump\t// in\n    tag_157:\n        /* \"verifier.sol\":4153:4169  input[i * 6 + 2] */\n      dup2\n      mload\n      dup2\n      lt\n      tag_159\n      jumpi\n      tag_159\n      tag_30\n      jump\t// in\n    tag_159:\n      0x20\n      mul\n      0x20\n      add\n      add\n        /* \"verifier.sol\":4153:4182  input[i * 6 + 2] = p2[i].X[1] */\n      dup2\n      dup2\n      mstore\n      pop\n      pop\n        /* \"verifier.sol\":4215:4217  p2 */\n      dup6\n        /* \"verifier.sol\":4218:4219  i */\n      dup2\n        /* \"verifier.sol\":4215:4220  p2[i] */\n      dup2\n      mload\n      dup2\n      lt\n      tag_161\n      jumpi\n      tag_161\n      tag_30\n      jump\t// in\n    tag_161:\n      0x20\n      swap1\n      dup2\n      mul\n      swap2\n      swap1\n      swap2\n      add\n      add\n      mload\n        /* \"verifier.sol\":4215:4222  p2[i].X */\n      mload\n        /* \"verifier.sol\":4215:4225  p2[i].X[0] */\n      mload\n        /* \"verifier.sol\":4196:4201  input */\n      dup3\n        /* \"verifier.sol\":4202:4207  i * 6 */\n      tag_164\n        /* \"verifier.sol\":4202:4203  i */\n      dup4\n        /* \"verifier.sol\":4206:4207  6 */\n      0x06\n        /* \"verifier.sol\":4202:4207  i * 6 */\n      tag_133\n      jump\t// in\n    tag_164:\n        /* \"verifier.sol\":4202:4211  i * 6 + 3 */\n      tag_165\n      swap1\n        /* \"verifier.sol\":4210:4211  3 */\n      0x03\n        /* \"verifier.sol\":4202:4211  i * 6 + 3 */\n      tag_23\n      jump\t// in\n    tag_165:\n        /* \"verifier.sol\":4196:4212  input[i * 6 + 3] */\n      dup2\n      mload\n      dup2\n      lt\n      tag_167\n      jumpi\n      tag_167\n      tag_30\n      jump\t// in\n    tag_167:\n      0x20\n      mul\n      0x20\n      add\n      add\n        /* \"verifier.sol\":4196:4225  input[i * 6 + 3] = p2[i].X[0] */\n      dup2\n      dup2\n      mstore\n      pop\n      pop\n        /* \"verifier.sol\":4258:4260  p2 */\n      dup6\n        /* \"verifier.sol\":4261:4262  i */\n      dup2\n        /* \"verifier.sol\":4258:4263  p2[i] */\n      dup2\n      mload\n      dup2\n      lt\n      tag_169\n      jumpi\n      tag_169\n      tag_30\n      jump\t// in\n    tag_169:\n      0x20\n      mul\n      0x20\n      add\n      add\n      mload\n        /* \"verifier.sol\":4258:4265  p2[i].Y */\n      0x20\n      add\n      mload\n        /* \"verifier.sol\":4266:4267  1 */\n      0x01\n        /* \"verifier.sol\":4258:4268  p2[i].Y[1] */\n      0x02\n      dup2\n      lt\n      tag_171\n      jumpi\n      tag_171\n      tag_30\n      jump\t// in\n    tag_171:\n      0x20\n      mul\n      add\n      mload\n        /* \"verifier.sol\":4239:4244  input */\n      dup3\n        /* \"verifier.sol\":4245:4250  i * 6 */\n      tag_172\n        /* \"verifier.sol\":4245:4246  i */\n      dup4\n        /* \"verifier.sol\":4249:4250  6 */\n      0x06\n        /* \"verifier.sol\":4245:4250  i * 6 */\n      tag_133\n      jump\t// in\n    tag_172:\n        /* \"verifier.sol\":4245:4254  i * 6 + 4 */\n      tag_173\n      swap1\n        /* \"verifier.sol\":4253:4254  4 */\n      0x04\n        /* \"verifier.sol\":4245:4254  i * 6 + 4 */\n      tag_23\n      jump\t// in\n    tag_173:\n        /* \"verifier.sol\":4239:4255  input[i * 6 + 4] */\n      dup2\n      mload\n      dup2\n      lt\n      tag_175\n      jumpi\n      tag_175\n      tag_30\n      jump\t// in\n    tag_175:\n      0x20\n      mul\n      0x20\n      add\n      add\n        /* \"verifier.sol\":4239:4268  input[i * 6 + 4] = p2[i].Y[1] */\n      dup2\n      dup2\n      mstore\n      pop\n      pop\n        /* \"verifier.sol\":4301:4303  p2 */\n      dup6\n        /* \"verifier.sol\":4304:4305  i */\n      dup2\n        /* \"verifier.sol\":4301:4306  p2[i] */\n      dup2\n      mload\n      dup2\n      lt\n      tag_177\n      jumpi\n      tag_177\n      tag_30\n      jump\t// in\n    tag_177:\n      0x20\n      mul\n      0x20\n      add\n      add\n      mload\n        /* \"verifier.sol\":4301:4308  p2[i].Y */\n      0x20\n      add\n      mload\n        /* \"verifier.sol\":4309:4310  0 */\n      0x00\n        /* \"verifier.sol\":4301:4311  p2[i].Y[0] */\n      0x02\n      dup2\n      lt\n      tag_179\n      jumpi\n      tag_179\n      tag_30\n      jump\t// in\n    tag_179:\n      0x20\n      mul\n      add\n      mload\n        /* \"verifier.sol\":4282:4287  input */\n      dup3\n        /* \"verifier.sol\":4288:4293  i * 6 */\n      tag_180\n        /* \"verifier.sol\":4288:4289  i */\n      dup4\n        /* \"verifier.sol\":4292:4293  6 */\n      0x06\n        /* \"verifier.sol\":4288:4293  i * 6 */\n      tag_133\n      jump\t// in\n    tag_180:\n        /* \"verifier.sol\":4288:4297  i * 6 + 5 */\n      tag_181\n      swap1\n        /* \"verifier.sol\":4296:4297  5 */\n      0x05\n        /* \"verifier.sol\":4288:4297  i * 6 + 5 */\n      tag_23\n      jump\t// in\n    tag_181:\n        /* \"verifier.sol\":4282:4298  input[i * 6 + 5] */\n      dup2\n      mload\n      dup2\n      lt\n      tag_183\n      jumpi\n      tag_183\n      tag_30\n      jump\t// in\n    tag_183:\n      0x20\n      swap1\n      dup2\n      mul\n      swap2\n      swap1\n      swap2\n      add\n      add\n        /* \"verifier.sol\":4282:4311  input[i * 6 + 5] = p2[i].Y[0] */\n      mstore\n        /* \"verifier.sol\":4046:4049  i++ */\n      dup1\n      tag_184\n      dup2\n      tag_42\n      jump\t// in\n    tag_184:\n      swap2\n      pop\n      pop\n        /* \"verifier.sol\":4015:4322  for (uint i = 0; i < elements; i++)... */\n      jump(tag_137)\n    tag_138:\n      pop\n        /* \"verifier.sol\":4331:4349  uint[1] memory out */\n      tag_185\n      tag_186\n      jump\t// in\n    tag_185:\n        /* \"verifier.sol\":4359:4371  bool success */\n      0x00\n        /* \"verifier.sol\":4492:4496  0x20 */\n      0x20\n        /* \"verifier.sol\":4487:4490  out */\n      dup3\n        /* \"verifier.sol\":4480:4484  0x20 */\n      0x20\n        /* \"verifier.sol\":4469:4478  inputSize */\n      dup7\n        /* \"verifier.sol\":4465:4485  mul(inputSize, 0x20) */\n      mul\n        /* \"verifier.sol\":4458:4462  0x20 */\n      0x20\n        /* \"verifier.sol\":4451:4456  input */\n      dup7\n        /* \"verifier.sol\":4447:4463  add(input, 0x20) */\n      add\n        /* \"verifier.sol\":4444:4445  8 */\n      0x08\n        /* \"verifier.sol\":4437:4441  2000 */\n      0x07d0\n        /* \"verifier.sol\":4430:4435  gas() */\n      gas\n        /* \"verifier.sol\":4426:4442  sub(gas(), 2000) */\n      sub\n        /* \"verifier.sol\":4415:4497  staticcall(sub(gas(), 2000), 8, add(input, 0x20), mul(inputSize, 0x20), out, 0x20) */\n      staticcall\n        /* \"verifier.sol\":4404:4497  success := staticcall(sub(gas(), 2000), 8, add(input, 0x20), mul(inputSize, 0x20), out, 0x20) */\n      swap1\n      pop\n      dup1\n      dup1\n        /* \"verifier.sol\":4567:4602  switch success case 0 { invalid() } */\n      tag_187\n        /* \"verifier.sol\":4582:4602  case 0 { invalid() } */\n      jumpi\n        /* \"verifier.sol\":4591:4600  invalid() */\n      invalid\n        /* \"verifier.sol\":4567:4602  switch success case 0 { invalid() } */\n    tag_187:\n      pop\n        /* \"verifier.sol\":4629:4636  success */\n      dup1\n        /* \"verifier.sol\":4621:4637  require(success) */\n      tag_189\n      jumpi\n      0x00\n      dup1\n      revert\n    tag_189:\n      pop\n        /* \"verifier.sol\":4654:4660  out[0] */\n      mload\n        /* \"verifier.sol\":4654:4665  out[0] != 0 */\n      iszero\n      iszero\n      swap7\n      swap6\n      pop\n      pop\n      pop\n      pop\n      pop\n      pop\n        /* \"verifier.sol\":3749:4672  function pairing(G1Point[] memory p1, G2Point[] memory p2) internal view returns (bool) {... */\n      jump\t// out\n    tag_54:\n      0x40\n      dup1\n      mload\n      0xe0\n      dup2\n      add\n      swap1\n      swap2\n      mstore\n      0x00\n      0xa0\n      dup3\n      add\n      dup2\n      dup2\n      mstore\n      0xc0\n      dup4\n      add\n      swap2\n      swap1\n      swap2\n      mstore\n      dup2\n      mstore\n      0x20\n      dup2\n      add\n      tag_193\n      tag_111\n      jump\t// in\n    tag_193:\n      dup2\n      mstore\n      0x20\n      add\n      tag_194\n      tag_111\n      jump\t// in\n    tag_194:\n      dup2\n      mstore\n      0x20\n      add\n      tag_195\n      tag_111\n      jump\t// in\n    tag_195:\n      dup2\n      mstore\n      0x20\n      add\n      0x60\n      dup2\n      mstore\n      pop\n      swap1\n      jump\t// out\n    tag_67:\n      mload(0x40)\n      dup1\n      0x60\n      add\n      0x40\n      mstore\n      dup1\n      0x03\n      swap1\n      0x20\n      dup3\n      mul\n      dup1\n      calldatasize\n      dup4\n      calldatacopy\n      pop\n      swap2\n      swap3\n      swap2\n      pop\n      pop\n      jump\t// out\n    tag_80:\n      mload(0x40)\n      dup1\n      0x80\n      add\n      0x40\n      mstore\n      dup1\n      0x04\n      swap1\n      0x20\n      dup3\n      mul\n      dup1\n      calldatasize\n      dup4\n      calldatacopy\n      pop\n      swap2\n      swap3\n      swap2\n      pop\n      pop\n      jump\t// out\n    tag_111:\n      mload(0x40)\n      dup1\n      0x40\n      add\n      0x40\n      mstore\n      dup1\n      tag_196\n      tag_197\n      jump\t// in\n    tag_196:\n      dup2\n      mstore\n      0x20\n      add\n      tag_198\n      tag_197\n      jump\t// in\n    tag_198:\n      swap1\n      mstore\n      swap1\n      jump\t// out\n    tag_186:\n      mload(0x40)\n      dup1\n      0x20\n      add\n      0x40\n      mstore\n      dup1\n      0x01\n      swap1\n      0x20\n      dup3\n      mul\n      dup1\n      calldatasize\n      dup4\n      calldatacopy\n      pop\n      swap2\n      swap3\n      swap2\n      pop\n      pop\n      jump\t// out\n    tag_197:\n      mload(0x40)\n      dup1\n      0x40\n      add\n      0x40\n      mstore\n      dup1\n      0x02\n      swap1\n      0x20\n      dup3\n      mul\n      dup1\n      calldatasize\n      dup4\n      calldatacopy\n      pop\n      swap2\n      swap3\n      swap2\n      pop\n      pop\n      jump\t// out\n        /* \"#utility.yul\":14:141   */\n    tag_13:\n        /* \"#utility.yul\":75:85   */\n      0x4e487b71\n        /* \"#utility.yul\":70:73   */\n      0xe0\n        /* \"#utility.yul\":66:86   */\n      shl\n        /* \"#utility.yul\":63:64   */\n      0x00\n        /* \"#utility.yul\":56:87   */\n      mstore\n        /* \"#utility.yul\":106:110   */\n      0x41\n        /* \"#utility.yul\":103:104   */\n      0x04\n        /* \"#utility.yul\":96:111   */\n      mstore\n        /* \"#utility.yul\":130:134   */\n      0x24\n        /* \"#utility.yul\":127:128   */\n      0x00\n        /* \"#utility.yul\":120:135   */\n      revert\n        /* \"#utility.yul\":146:398   */\n    tag_199:\n        /* \"#utility.yul\":213:217   */\n      0x40\n        /* \"#utility.yul\":207:218   */\n      dup1\n      mload\n      swap1\n        /* \"#utility.yul\":245:262   */\n      dup2\n      add\n        /* \"#utility.yul\":292:310   */\n      0xffffffffffffffff\n        /* \"#utility.yul\":277:311   */\n      dup2\n      gt\n        /* \"#utility.yul\":313:335   */\n      dup3\n      dup3\n      lt\n        /* \"#utility.yul\":274:336   */\n      or\n        /* \"#utility.yul\":271:359   */\n      iszero\n      tag_207\n      jumpi\n        /* \"#utility.yul\":339:357   */\n      tag_207\n      tag_13\n      jump\t// in\n    tag_207:\n        /* \"#utility.yul\":375:379   */\n      0x40\n        /* \"#utility.yul\":368:392   */\n      mstore\n        /* \"#utility.yul\":146:398   */\n      swap1\n      jump\t// out\n        /* \"#utility.yul\":403:680   */\n    tag_200:\n        /* \"#utility.yul\":457:462   */\n      0x00\n        /* \"#utility.yul\":505:509   */\n      0x40\n        /* \"#utility.yul\":493:502   */\n      dup3\n        /* \"#utility.yul\":488:491   */\n      dup5\n        /* \"#utility.yul\":484:503   */\n      sub\n        /* \"#utility.yul\":480:510   */\n      slt\n        /* \"#utility.yul\":477:527   */\n      iszero\n      tag_209\n      jumpi\n        /* \"#utility.yul\":523:524   */\n      0x00\n        /* \"#utility.yul\":520:521   */\n      dup1\n        /* \"#utility.yul\":513:525   */\n      revert\n        /* \"#utility.yul\":477:527   */\n    tag_209:\n        /* \"#utility.yul\":545:562   */\n      tag_210\n      tag_199\n      jump\t// in\n    tag_210:\n        /* \"#utility.yul\":536:562   */\n      swap1\n      pop\n        /* \"#utility.yul\":598:607   */\n      dup2\n        /* \"#utility.yul\":585:608   */\n      calldataload\n        /* \"#utility.yul\":578:583   */\n      dup2\n        /* \"#utility.yul\":571:609   */\n      mstore\n        /* \"#utility.yul\":669:671   */\n      0x20\n        /* \"#utility.yul\":658:667   */\n      dup3\n        /* \"#utility.yul\":654:672   */\n      add\n        /* \"#utility.yul\":641:673   */\n      calldataload\n        /* \"#utility.yul\":636:638   */\n      0x20\n        /* \"#utility.yul\":629:634   */\n      dup3\n        /* \"#utility.yul\":625:639   */\n      add\n        /* \"#utility.yul\":618:674   */\n      mstore\n        /* \"#utility.yul\":403:680   */\n      swap3\n      swap2\n      pop\n      pop\n      jump\t// out\n        /* \"#utility.yul\":685:1164   */\n    tag_201:\n        /* \"#utility.yul\":735:740   */\n      0x00\n        /* \"#utility.yul\":788:791   */\n      dup3\n        /* \"#utility.yul\":781:785   */\n      0x1f\n        /* \"#utility.yul\":773:779   */\n      dup4\n        /* \"#utility.yul\":769:786   */\n      add\n        /* \"#utility.yul\":765:792   */\n      slt\n        /* \"#utility.yul\":755:810   */\n      tag_212\n      jumpi\n        /* \"#utility.yul\":806:807   */\n      0x00\n        /* \"#utility.yul\":803:804   */\n      dup1\n        /* \"#utility.yul\":796:808   */\n      revert\n        /* \"#utility.yul\":755:810   */\n    tag_212:\n        /* \"#utility.yul\":830:847   */\n      tag_213\n      tag_199\n      jump\t// in\n    tag_213:\n        /* \"#utility.yul\":869:872   */\n      dup1\n        /* \"#utility.yul\":907:909   */\n      0x40\n        /* \"#utility.yul\":899:905   */\n      dup5\n        /* \"#utility.yul\":895:910   */\n      add\n        /* \"#utility.yul\":933:936   */\n      dup6\n        /* \"#utility.yul\":925:931   */\n      dup2\n        /* \"#utility.yul\":922:937   */\n      gt\n        /* \"#utility.yul\":919:954   */\n      iszero\n      tag_214\n      jumpi\n        /* \"#utility.yul\":950:951   */\n      0x00\n        /* \"#utility.yul\":947:948   */\n      dup1\n        /* \"#utility.yul\":940:952   */\n      revert\n        /* \"#utility.yul\":919:954   */\n    tag_214:\n        /* \"#utility.yul\":974:980   */\n      dup5\n        /* \"#utility.yul\":989:1135   */\n    tag_215:\n        /* \"#utility.yul\":1005:1011   */\n      dup2\n        /* \"#utility.yul\":1000:1003   */\n      dup2\n        /* \"#utility.yul\":997:1012   */\n      lt\n        /* \"#utility.yul\":989:1135   */\n      iszero\n      tag_217\n      jumpi\n        /* \"#utility.yul\":1073:1090   */\n      dup1\n      calldataload\n        /* \"#utility.yul\":1061:1091   */\n      dup5\n      mstore\n        /* \"#utility.yul\":1120:1124   */\n      0x20\n        /* \"#utility.yul\":1111:1125   */\n      swap4\n      dup5\n      add\n      swap4\n        /* \"#utility.yul\":1022:1036   */\n      add\n        /* \"#utility.yul\":989:1135   */\n      jump(tag_215)\n    tag_217:\n      pop\n        /* \"#utility.yul\":1153:1158   */\n      swap1\n      swap6\n        /* \"#utility.yul\":685:1164   */\n      swap5\n      pop\n      pop\n      pop\n      pop\n      pop\n      jump\t// out\n        /* \"#utility.yul\":1169:2042   */\n    tag_6:\n        /* \"#utility.yul\":1250:1256   */\n      0x00\n        /* \"#utility.yul\":1294:1303   */\n      dup2\n        /* \"#utility.yul\":1285:1292   */\n      dup4\n        /* \"#utility.yul\":1281:1304   */\n      sub\n        /* \"#utility.yul\":1324:1327   */\n      0x0100\n        /* \"#utility.yul\":1320:1322   */\n      dup2\n        /* \"#utility.yul\":1316:1328   */\n      slt\n        /* \"#utility.yul\":1313:1345   */\n      iszero\n      tag_219\n      jumpi\n        /* \"#utility.yul\":1341:1342   */\n      0x00\n        /* \"#utility.yul\":1338:1339   */\n      dup1\n        /* \"#utility.yul\":1331:1343   */\n      revert\n        /* \"#utility.yul\":1313:1345   */\n    tag_219:\n        /* \"#utility.yul\":1374:1376   */\n      0x40\n        /* \"#utility.yul\":1368:1377   */\n      mload\n        /* \"#utility.yul\":1416:1420   */\n      0x60\n        /* \"#utility.yul\":1408:1414   */\n      dup2\n        /* \"#utility.yul\":1404:1421   */\n      add\n        /* \"#utility.yul\":1487:1493   */\n      dup2\n        /* \"#utility.yul\":1475:1485   */\n      dup2\n        /* \"#utility.yul\":1472:1494   */\n      lt\n        /* \"#utility.yul\":1451:1469   */\n      0xffffffffffffffff\n        /* \"#utility.yul\":1439:1449   */\n      dup3\n        /* \"#utility.yul\":1436:1470   */\n      gt\n        /* \"#utility.yul\":1433:1495   */\n      or\n        /* \"#utility.yul\":1430:1518   */\n      iszero\n      tag_221\n      jumpi\n        /* \"#utility.yul\":1498:1516   */\n      tag_221\n      tag_13\n      jump\t// in\n    tag_221:\n        /* \"#utility.yul\":1534:1536   */\n      0x40\n        /* \"#utility.yul\":1527:1549   */\n      mstore\n        /* \"#utility.yul\":1573:1618   */\n      tag_222\n        /* \"#utility.yul\":1610:1617   */\n      dup6\n        /* \"#utility.yul\":1599:1608   */\n      dup6\n        /* \"#utility.yul\":1573:1618   */\n      tag_200\n      jump\t// in\n    tag_222:\n        /* \"#utility.yul\":1558:1619   */\n      dup2\n      mstore\n        /* \"#utility.yul\":1653:1657   */\n      0x80\n      not(0x3f)\n        /* \"#utility.yul\":1635:1651   */\n      dup4\n      add\n        /* \"#utility.yul\":1631:1658   */\n      slt\n        /* \"#utility.yul\":1628:1675   */\n      iszero\n      tag_223\n      jumpi\n        /* \"#utility.yul\":1671:1672   */\n      0x00\n        /* \"#utility.yul\":1668:1669   */\n      dup1\n        /* \"#utility.yul\":1661:1673   */\n      revert\n        /* \"#utility.yul\":1628:1675   */\n    tag_223:\n        /* \"#utility.yul\":1697:1714   */\n      tag_224\n      tag_199\n      jump\t// in\n    tag_224:\n        /* \"#utility.yul\":1684:1714   */\n      swap2\n      pop\n        /* \"#utility.yul\":1737:1790   */\n      tag_225\n        /* \"#utility.yul\":1782:1789   */\n      dup6\n        /* \"#utility.yul\":1777:1779   */\n      0x40\n        /* \"#utility.yul\":1766:1775   */\n      dup7\n        /* \"#utility.yul\":1762:1780   */\n      add\n        /* \"#utility.yul\":1737:1790   */\n      tag_201\n      jump\t// in\n    tag_225:\n        /* \"#utility.yul\":1730:1735   */\n      dup3\n        /* \"#utility.yul\":1723:1791   */\n      mstore\n        /* \"#utility.yul\":1825:1880   */\n      tag_226\n        /* \"#utility.yul\":1872:1879   */\n      dup6\n        /* \"#utility.yul\":1865:1869   */\n      0x80\n        /* \"#utility.yul\":1854:1863   */\n      dup7\n        /* \"#utility.yul\":1850:1870   */\n      add\n        /* \"#utility.yul\":1825:1880   */\n      tag_201\n      jump\t// in\n    tag_226:\n        /* \"#utility.yul\":1818:1822   */\n      0x20\n        /* \"#utility.yul\":1811:1816   */\n      dup4\n        /* \"#utility.yul\":1807:1823   */\n      add\n        /* \"#utility.yul\":1800:1881   */\n      mstore\n        /* \"#utility.yul\":1916:1921   */\n      dup2\n        /* \"#utility.yul\":1909:1913   */\n      0x20\n        /* \"#utility.yul\":1901:1907   */\n      dup3\n        /* \"#utility.yul\":1897:1914   */\n      add\n        /* \"#utility.yul\":1890:1922   */\n      mstore\n        /* \"#utility.yul\":1955:2010   */\n      tag_227\n        /* \"#utility.yul\":2002:2009   */\n      dup6\n        /* \"#utility.yul\":1996:1999   */\n      0xc0\n        /* \"#utility.yul\":1985:1994   */\n      dup7\n        /* \"#utility.yul\":1981:2000   */\n      add\n        /* \"#utility.yul\":1955:2010   */\n      tag_200\n      jump\t// in\n    tag_227:\n        /* \"#utility.yul\":1950:1952   */\n      0x40\n        /* \"#utility.yul\":1938:1953   */\n      dup3\n      add\n        /* \"#utility.yul\":1931:2011   */\n      mstore\n        /* \"#utility.yul\":1942:1948   */\n      swap5\n        /* \"#utility.yul\":1169:2042   */\n      swap4\n      pop\n      pop\n      pop\n      pop\n      jump\t// out\n        /* \"#utility.yul\":2239:2366   */\n    tag_202:\n        /* \"#utility.yul\":2300:2310   */\n      0x4e487b71\n        /* \"#utility.yul\":2295:2298   */\n      0xe0\n        /* \"#utility.yul\":2291:2311   */\n      shl\n        /* \"#utility.yul\":2288:2289   */\n      0x00\n        /* \"#utility.yul\":2281:2312   */\n      mstore\n        /* \"#utility.yul\":2331:2335   */\n      0x11\n        /* \"#utility.yul\":2328:2329   */\n      0x04\n        /* \"#utility.yul\":2321:2336   */\n      mstore\n        /* \"#utility.yul\":2355:2359   */\n      0x24\n        /* \"#utility.yul\":2352:2353   */\n      0x00\n        /* \"#utility.yul\":2345:2360   */\n      revert\n        /* \"#utility.yul\":2371:2496   */\n    tag_23:\n        /* \"#utility.yul\":2436:2445   */\n      dup1\n      dup3\n      add\n        /* \"#utility.yul\":2457:2467   */\n      dup1\n      dup3\n      gt\n        /* \"#utility.yul\":2454:2490   */\n      iszero\n      tag_19\n      jumpi\n        /* \"#utility.yul\":2470:2488   */\n      tag_19\n      tag_202\n      jump\t// in\n        /* \"#utility.yul\":2501:2628   */\n    tag_30:\n        /* \"#utility.yul\":2562:2572   */\n      0x4e487b71\n        /* \"#utility.yul\":2557:2560   */\n      0xe0\n        /* \"#utility.yul\":2553:2573   */\n      shl\n        /* \"#utility.yul\":2550:2551   */\n      0x00\n        /* \"#utility.yul\":2543:2574   */\n      mstore\n        /* \"#utility.yul\":2593:2597   */\n      0x32\n        /* \"#utility.yul\":2590:2591   */\n      0x04\n        /* \"#utility.yul\":2583:2598   */\n      mstore\n        /* \"#utility.yul\":2617:2621   */\n      0x24\n        /* \"#utility.yul\":2614:2615   */\n      0x00\n        /* \"#utility.yul\":2607:2622   */\n      revert\n        /* \"#utility.yul\":2633:2768   */\n    tag_42:\n        /* \"#utility.yul\":2672:2675   */\n      0x00\n        /* \"#utility.yul\":2693:2710   */\n      0x01\n      dup3\n      add\n        /* \"#utility.yul\":2690:2733   */\n      tag_236\n      jumpi\n        /* \"#utility.yul\":2713:2731   */\n      tag_236\n      tag_202\n      jump\t// in\n    tag_236:\n      pop\n        /* \"#utility.yul\":2760:2761   */\n      0x01\n        /* \"#utility.yul\":2749:2762   */\n      add\n      swap1\n        /* \"#utility.yul\":2633:2768   */\n      jump\t// out\n        /* \"#utility.yul\":2773:2982   */\n    tag_97:\n        /* \"#utility.yul\":2805:2806   */\n      0x00\n        /* \"#utility.yul\":2831:2832   */\n      dup3\n        /* \"#utility.yul\":2821:2953   */\n      tag_238\n      jumpi\n        /* \"#utility.yul\":2875:2885   */\n      0x4e487b71\n        /* \"#utility.yul\":2870:2873   */\n      0xe0\n        /* \"#utility.yul\":2866:2886   */\n      shl\n        /* \"#utility.yul\":2863:2864   */\n      0x00\n        /* \"#utility.yul\":2856:2887   */\n      mstore\n        /* \"#utility.yul\":2910:2914   */\n      0x12\n        /* \"#utility.yul\":2907:2908   */\n      0x04\n        /* \"#utility.yul\":2900:2915   */\n      mstore\n        /* \"#utility.yul\":2938:2942   */\n      0x24\n        /* \"#utility.yul\":2935:2936   */\n      0x00\n        /* \"#utility.yul\":2928:2943   */\n      revert\n        /* \"#utility.yul\":2821:2953   */\n    tag_238:\n      pop\n        /* \"#utility.yul\":2967:2976   */\n      mod\n      swap1\n        /* \"#utility.yul\":2773:2982   */\n      jump\t// out\n        /* \"#utility.yul\":2987:3115   */\n    tag_99:\n        /* \"#utility.yul\":3054:3063   */\n      dup2\n      dup2\n      sub\n        /* \"#utility.yul\":3075:3086   */\n      dup2\n      dup2\n      gt\n        /* \"#utility.yul\":3072:3109   */\n      iszero\n      tag_19\n      jumpi\n        /* \"#utility.yul\":3089:3107   */\n      tag_19\n      tag_202\n      jump\t// in\n        /* \"#utility.yul\":3120:3288   */\n    tag_133:\n        /* \"#utility.yul\":3193:3202   */\n      dup1\n      dup3\n      mul\n        /* \"#utility.yul\":3224:3233   */\n      dup2\n      iszero\n        /* \"#utility.yul\":3241:3256   */\n      dup3\n      dup3\n      div\n        /* \"#utility.yul\":3235:3257   */\n      dup5\n      eq\n        /* \"#utility.yul\":3221:3258   */\n      or\n        /* \"#utility.yul\":3211:3282   */\n      tag_19\n      jumpi\n        /* \"#utility.yul\":3262:3280   */\n      tag_19\n      tag_202\n      jump\t// in\n\n    auxdata: 0xa264697066735822122052cadd729bab10998fb936ed3790f774670629d713b777c90c37e2b7d31b5fa664736f6c63430008150033\n}\n",
				"bytecode": {
					"linkReferences": {},
					"object": "608060405234801561000f575f80fd5b50610de28061001d5f395ff3fe608060405234801561000f575f80fd5b5060043610610029575f3560e01c8063f6af03111461002d575b5f80fd5b61004061003b366004610c70565b610054565b604051901515815260200160405180910390f35b604080515f8082526020820190925261006d8184610084565b5f0361007c5750600192915050565b505f92915050565b5f7f30644e72e131a029b85045b68181585d2833e84879b9709143e1f593f0000001816100af610202565b9050806080015151855160016100c59190610d24565b146100ce575f80fd5b604080518082019091525f808252602082018190525b865181101561017a578387828151811061010057610100610d37565b602002602001015110610111575f80fd5b61016682610161856080015184600161012a9190610d24565b8151811061013a5761013a610d37565b60200260200101518a858151811061015457610154610d37565b6020026020010151610523565b61057e565b91508061017281610d4b565b9150506100e4565b506101a28183608001515f8151811061019557610195610d37565b602002602001015161057e565b90506101e5855f015186602001516101b9846105d2565b85604001516101cb8a604001516105d2565b606088015188516101db906105d2565b896020015161066e565b6101f557600193505050506101fc565b5f93505050505b92915050565b61020a610acb565b6040805180820182527f206d960593d941bf781f3b6e3f95916f6520377bff96299cd16ba8d8ef9120b581527f29a95be0f241b789a1fe8cdcf9c7e3f3d4aa637c5dcb0382f88285f6582adade6020808301919091529083528151608080820184527f251a596db059ea83f20caa9d1b4374816cca7f5f9c9c390f909d7f434686a58f8285019081527f291f5a2ff34731a219db79627796becab5d92e4ad89249ae03b39b65737d1983606080850191909152908352845180860186527f2d509c0da4ab56f26890d29d0cdd6f5a4a9cedf0aa81f06e8487617918947eea81527f2204201ec00a2d0da8b4cb010c79f4ebcecbf9707e6f4f551e4d1f862073dac3818601528385015285840192909252835180820185527f1dd14e44f2b02a66b5e29b44aa92bf941419d625f4616fc2a95e77fd5811dadb8186019081527f26a61cc4785a135211c384bd63d8f0a31af7a4cde00f3e9988e5443c87952b34828501528152845180860186527f15aabbe70630d13fe6b322ab27d8324a46fab2e9198377f9c6cd34667277453481527f1554660dda2fa742dea97963e3fd288334955bcbbce2f7a49a5954bd3420039a818601528185015285850152835190810184527f2d836df4b09b09bc96a308a8457129bd716ac8996628901ba014777e38b91d368185019081527f204672d7224748a862be81d235d059a0d0b61cd8e9ba31e0b7a54b0884a28b1b828401528152835180850185527f19437a9cdfd12b7d453b5193141d0cfbbdf41cd30a886d7a0d92b34c5e2324d581527f1e49c1f10b587d76b876e8ff64d69e3a22ad9704d67d53ca05b5a5706d339d3d81850152818401529084015281516001808252818401909352919082015b604080518082019091525f808252602082015281526020019060019003908161048457505060808201908152604080518082019091527f0ba3aaceace761acc25977784cffe381c89288ee0c978c0c256b93cd7c2f552f81527f06bd36158541f776b681ec199087fcb24d44e92330b055c7e7ebd5f9edcb7d686020820152905180515f9061051557610515610d37565b602002602001018190525090565b604080518082019091525f808252602082015261053e610b1b565b8351815260208085015190820152604081018390525f60608360808460076107d05a03fa9050808061056c57fe5b5080610576575f80fd5b505092915050565b604080518082019091525f8082526020820152610599610b39565b8351815260208085015181830152835160408301528301516060808301919091525f908360c08460066107d05a03fa9050808061056c57fe5b604080518082019091525f808252602082015281517f30644e72e131a029b85045b68181585d97816a916871ca8d3c208c16d87cfd479015801561061857506020830151155b15610637575050604080518082019091525f8082526020820152919050565b6040518060400160405280845f0151815260200182856020015161065b9190610d63565b6106659084610d82565b90529392505050565b60408051600480825260a082019092525f91829190816020015b604080518082019091525f808252602082015281526020019060019003908161068857505060408051600480825260a082019092529192505f9190602082015b6106d0610b57565b8152602001906001900390816106c85790505090508a825f815181106106f8576106f8610d37565b6020026020010181905250888260018151811061071757610717610d37565b6020026020010181905250868260028151811061073657610736610d37565b6020026020010181905250848260038151811061075557610755610d37565b602002602001018190525089815f8151811061077357610773610d37565b6020026020010181905250878160018151811061079257610792610d37565b602002602001018190525085816002815181106107b1576107b1610d37565b602002602001018190525083816003815181106107d0576107d0610d37565b60200260200101819052506107e582826107f4565b9b9a5050505050505050505050565b5f8151835114610802575f80fd5b82515f610810826006610d95565b90505f8167ffffffffffffffff81111561082c5761082c610bb8565b604051908082528060200260200182016040528015610855578160200160208202803683370190505b5090505f5b83811015610a8c5786818151811061087457610874610d37565b60200260200101515f01518282600661088d9190610d95565b610897905f610d24565b815181106108a7576108a7610d37565b6020026020010181815250508681815181106108c5576108c5610d37565b602002602001015160200151828260066108df9190610d95565b6108ea906001610d24565b815181106108fa576108fa610d37565b60200260200101818152505085818151811061091857610918610d37565b60209081029190910181015151015182610933836006610d95565b61093e906002610d24565b8151811061094e5761094e610d37565b60200260200101818152505085818151811061096c5761096c610d37565b6020908102919091010151515182610985836006610d95565b610990906003610d24565b815181106109a0576109a0610d37565b6020026020010181815250508581815181106109be576109be610d37565b6020026020010151602001516001600281106109dc576109dc610d37565b6020020151826109ed836006610d95565b6109f8906004610d24565b81518110610a0857610a08610d37565b602002602001018181525050858181518110610a2657610a26610d37565b6020026020010151602001515f60028110610a4357610a43610d37565b602002015182610a54836006610d95565b610a5f906005610d24565b81518110610a6f57610a6f610d37565b602090810291909101015280610a8481610d4b565b91505061085a565b50610a95610b7c565b5f602082602086026020860160086107d05a03fa90508080610ab357fe5b5080610abd575f80fd5b505115159695505050505050565b6040805160e081019091525f60a0820181815260c0830191909152815260208101610af4610b57565b8152602001610b01610b57565b8152602001610b0e610b57565b8152602001606081525090565b60405180606001604052806003906020820280368337509192915050565b60405180608001604052806004906020820280368337509192915050565b6040518060400160405280610b6a610b9a565b8152602001610b77610b9a565b905290565b60405180602001604052806001906020820280368337509192915050565b60405180604001604052806002906020820280368337509192915050565b634e487b7160e01b5f52604160045260245ffd5b6040805190810167ffffffffffffffff81118282101715610bef57610bef610bb8565b60405290565b5f60408284031215610c05575f80fd5b610c0d610bcc565b9050813581526020820135602082015292915050565b5f82601f830112610c32575f80fd5b610c3a610bcc565b806040840185811115610c4b575f80fd5b845b81811015610c65578035845260209384019301610c4d565b509095945050505050565b5f818303610100811215610c82575f80fd5b6040516060810181811067ffffffffffffffff82111715610ca557610ca5610bb8565b604052610cb28585610bf5565b81526080603f1983011215610cc5575f80fd5b610ccd610bcc565b9150610cdc8560408601610c23565b8252610ceb8560808601610c23565b6020830152816020820152610d038560c08601610bf5565b6040820152949350505050565b634e487b7160e01b5f52601160045260245ffd5b808201808211156101fc576101fc610d10565b634e487b7160e01b5f52603260045260245ffd5b5f60018201610d5c57610d5c610d10565b5060010190565b5f82610d7d57634e487b7160e01b5f52601260045260245ffd5b500690565b818103818111156101fc576101fc610d10565b80820281158282048414176101fc576101fc610d1056fea264697066735822122052cadd729bab10998fb936ed3790f774670629d713b777c90c37e2b7d31b5fa664736f6c63430008150033",
					"opcodes": "PUSH1 0x80 PUSH1 0x40 MSTORE CALLVALUE DUP1 ISZERO PUSH2 0xF JUMPI PUSH0 DUP1 REVERT JUMPDEST POP PUSH2 0xDE2 DUP1 PUSH2 0x1D PUSH0 CODECOPY PUSH0 RETURN INVALID PUSH1 0x80 PUSH1 0x40 MSTORE CALLVALUE DUP1 ISZERO PUSH2 0xF JUMPI PUSH0 DUP1 REVERT JUMPDEST POP PUSH1 0x4 CALLDATASIZE LT PUSH2 0x29 JUMPI PUSH0 CALLDATALOAD PUSH1 0xE0 SHR DUP1 PUSH4 0xF6AF0311 EQ PUSH2 0x2D JUMPI JUMPDEST PUSH0 DUP1 REVERT JUMPDEST PUSH2 0x40 PUSH2 0x3B CALLDATASIZE PUSH1 0x4 PUSH2 0xC70 JUMP JUMPDEST PUSH2 0x54 JUMP JUMPDEST PUSH1 0x40 MLOAD SWAP1 ISZERO ISZERO DUP2 MSTORE PUSH1 0x20 ADD PUSH1 0x40 MLOAD DUP1 SWAP2 SUB SWAP1 RETURN JUMPDEST PUSH1 0x40 DUP1 MLOAD PUSH0 DUP1 DUP3 MSTORE PUSH1 0x20 DUP3 ADD SWAP1 SWAP3 MSTORE PUSH2 0x6D DUP2 DUP5 PUSH2 0x84 JUMP JUMPDEST PUSH0 SUB PUSH2 0x7C JUMPI POP PUSH1 0x1 SWAP3 SWAP2 POP POP JUMP JUMPDEST POP PUSH0 SWAP3 SWAP2 POP POP JUMP JUMPDEST PUSH0 PUSH32 0x30644E72E131A029B85045B68181585D2833E84879B9709143E1F593F0000001 DUP2 PUSH2 0xAF PUSH2 0x202 JUMP JUMPDEST SWAP1 POP DUP1 PUSH1 0x80 ADD MLOAD MLOAD DUP6 MLOAD PUSH1 0x1 PUSH2 0xC5 SWAP2 SWAP1 PUSH2 0xD24 JUMP JUMPDEST EQ PUSH2 0xCE JUMPI PUSH0 DUP1 REVERT JUMPDEST PUSH1 0x40 DUP1 MLOAD DUP1 DUP3 ADD SWAP1 SWAP2 MSTORE PUSH0 DUP1 DUP3 MSTORE PUSH1 0x20 DUP3 ADD DUP2 SWAP1 MSTORE JUMPDEST DUP7 MLOAD DUP2 LT ISZERO PUSH2 0x17A JUMPI DUP4 DUP8 DUP3 DUP2 MLOAD DUP2 LT PUSH2 0x100 JUMPI PUSH2 0x100 PUSH2 0xD37 JUMP JUMPDEST PUSH1 0x20 MUL PUSH1 0x20 ADD ADD MLOAD LT PUSH2 0x111 JUMPI PUSH0 DUP1 REVERT JUMPDEST PUSH2 0x166 DUP3 PUSH2 0x161 DUP6 PUSH1 0x80 ADD MLOAD DUP5 PUSH1 0x1 PUSH2 0x12A SWAP2 SWAP1 PUSH2 0xD24 JUMP JUMPDEST DUP2 MLOAD DUP2 LT PUSH2 0x13A JUMPI PUSH2 0x13A PUSH2 0xD37 JUMP JUMPDEST PUSH1 0x20 MUL PUSH1 0x20 ADD ADD MLOAD DUP11 DUP6 DUP2 MLOAD DUP2 LT PUSH2 0x154 JUMPI PUSH2 0x154 PUSH2 0xD37 JUMP JUMPDEST PUSH1 0x20 MUL PUSH1 0x20 ADD ADD MLOAD PUSH2 0x523 JUMP JUMPDEST PUSH2 0x57E JUMP JUMPDEST SWAP2 POP DUP1 PUSH2 0x172 DUP2 PUSH2 0xD4B JUMP JUMPDEST SWAP2 POP POP PUSH2 0xE4 JUMP JUMPDEST POP PUSH2 0x1A2 DUP2 DUP4 PUSH1 0x80 ADD MLOAD PUSH0 DUP2 MLOAD DUP2 LT PUSH2 0x195 JUMPI PUSH2 0x195 PUSH2 0xD37 JUMP JUMPDEST PUSH1 0x20 MUL PUSH1 0x20 ADD ADD MLOAD PUSH2 0x57E JUMP JUMPDEST SWAP1 POP PUSH2 0x1E5 DUP6 PUSH0 ADD MLOAD DUP7 PUSH1 0x20 ADD MLOAD PUSH2 0x1B9 DUP5 PUSH2 0x5D2 JUMP JUMPDEST DUP6 PUSH1 0x40 ADD MLOAD PUSH2 0x1CB DUP11 PUSH1 0x40 ADD MLOAD PUSH2 0x5D2 JUMP JUMPDEST PUSH1 0x60 DUP9 ADD MLOAD DUP9 MLOAD PUSH2 0x1DB SWAP1 PUSH2 0x5D2 JUMP JUMPDEST DUP10 PUSH1 0x20 ADD MLOAD PUSH2 0x66E JUMP JUMPDEST PUSH2 0x1F5 JUMPI PUSH1 0x1 SWAP4 POP POP POP POP PUSH2 0x1FC JUMP JUMPDEST PUSH0 SWAP4 POP POP POP POP JUMPDEST SWAP3 SWAP2 POP POP JUMP JUMPDEST PUSH2 0x20A PUSH2 0xACB JUMP JUMPDEST PUSH1 0x40 DUP1 MLOAD DUP1 DUP3 ADD DUP3 MSTORE PUSH32 0x206D960593D941BF781F3B6E3F95916F6520377BFF96299CD16BA8D8EF9120B5 DUP2 MSTORE PUSH32 0x29A95BE0F241B789A1FE8CDCF9C7E3F3D4AA637C5DCB0382F88285F6582ADADE PUSH1 0x20 DUP1 DUP4 ADD SWAP2 SWAP1 SWAP2 MSTORE SWAP1 DUP4 MSTORE DUP2 MLOAD PUSH1 0x80 DUP1 DUP3 ADD DUP5 MSTORE PUSH32 0x251A596DB059EA83F20CAA9D1B4374816CCA7F5F9C9C390F909D7F434686A58F DUP3 DUP6 ADD SWAP1 DUP2 MSTORE PUSH32 0x291F5A2FF34731A219DB79627796BECAB5D92E4AD89249AE03B39B65737D1983 PUSH1 0x60 DUP1 DUP6 ADD SWAP2 SWAP1 SWAP2 MSTORE SWAP1 DUP4 MSTORE DUP5 MLOAD DUP1 DUP7 ADD DUP7 MSTORE PUSH32 0x2D509C0DA4AB56F26890D29D0CDD6F5A4A9CEDF0AA81F06E8487617918947EEA DUP2 MSTORE PUSH32 0x2204201EC00A2D0DA8B4CB010C79F4EBCECBF9707E6F4F551E4D1F862073DAC3 DUP2 DUP7 ADD MSTORE DUP4 DUP6 ADD MSTORE DUP6 DUP5 ADD SWAP3 SWAP1 SWAP3 MSTORE DUP4 MLOAD DUP1 DUP3 ADD DUP6 MSTORE PUSH32 0x1DD14E44F2B02A66B5E29B44AA92BF941419D625F4616FC2A95E77FD5811DADB DUP2 DUP7 ADD SWAP1 DUP2 MSTORE PUSH32 0x26A61CC4785A135211C384BD63D8F0A31AF7A4CDE00F3E9988E5443C87952B34 DUP3 DUP6 ADD MSTORE DUP2 MSTORE DUP5 MLOAD DUP1 DUP7 ADD DUP7 MSTORE PUSH32 0x15AABBE70630D13FE6B322AB27D8324A46FAB2E9198377F9C6CD346672774534 DUP2 MSTORE PUSH32 0x1554660DDA2FA742DEA97963E3FD288334955BCBBCE2F7A49A5954BD3420039A DUP2 DUP7 ADD MSTORE DUP2 DUP6 ADD MSTORE DUP6 DUP6 ADD MSTORE DUP4 MLOAD SWAP1 DUP2 ADD DUP5 MSTORE PUSH32 0x2D836DF4B09B09BC96A308A8457129BD716AC8996628901BA014777E38B91D36 DUP2 DUP6 ADD SWAP1 DUP2 MSTORE PUSH32 0x204672D7224748A862BE81D235D059A0D0B61CD8E9BA31E0B7A54B0884A28B1B DUP3 DUP5 ADD MSTORE DUP2 MSTORE DUP4 MLOAD DUP1 DUP6 ADD DUP6 MSTORE PUSH32 0x19437A9CDFD12B7D453B5193141D0CFBBDF41CD30A886D7A0D92B34C5E2324D5 DUP2 MSTORE PUSH32 0x1E49C1F10B587D76B876E8FF64D69E3A22AD9704D67D53CA05B5A5706D339D3D DUP2 DUP6 ADD MSTORE DUP2 DUP5 ADD MSTORE SWAP1 DUP5 ADD MSTORE DUP2 MLOAD PUSH1 0x1 DUP1 DUP3 MSTORE DUP2 DUP5 ADD SWAP1 SWAP4 MSTORE SWAP2 SWAP1 DUP3 ADD JUMPDEST PUSH1 0x40 DUP1 MLOAD DUP1 DUP3 ADD SWAP1 SWAP2 MSTORE PUSH0 DUP1 DUP3 MSTORE PUSH1 0x20 DUP3 ADD MSTORE DUP2 MSTORE PUSH1 0x20 ADD SWAP1 PUSH1 0x1 SWAP1 SUB SWAP1 DUP2 PUSH2 0x484 JUMPI POP POP PUSH1 0x80 DUP3 ADD SWAP1 DUP2 MSTORE PUSH1 0x40 DUP1 MLOAD DUP1 DUP3 ADD SWAP1 SWAP2 MSTORE PUSH32 0xBA3AACEACE761ACC25977784CFFE381C89288EE0C978C0C256B93CD7C2F552F DUP2 MSTORE PUSH32 0x6BD36158541F776B681EC199087FCB24D44E92330B055C7E7EBD5F9EDCB7D68 PUSH1 0x20 DUP3 ADD MSTORE SWAP1 MLOAD DUP1 MLOAD PUSH0 SWAP1 PUSH2 0x515 JUMPI PUSH2 0x515 PUSH2 0xD37 JUMP JUMPDEST PUSH1 0x20 MUL PUSH1 0x20 ADD ADD DUP2 SWAP1 MSTORE POP SWAP1 JUMP JUMPDEST PUSH1 0x40 DUP1 MLOAD DUP1 DUP3 ADD SWAP1 SWAP2 MSTORE PUSH0 DUP1 DUP3 MSTORE PUSH1 0x20 DUP3 ADD MSTORE PUSH2 0x53E PUSH2 0xB1B JUMP JUMPDEST DUP4 MLOAD DUP2 MSTORE PUSH1 0x20 DUP1 DUP6 ADD MLOAD SWAP1 DUP3 ADD MSTORE PUSH1 0x40 DUP2 ADD DUP4 SWAP1 MSTORE PUSH0 PUSH1 0x60 DUP4 PUSH1 0x80 DUP5 PUSH1 0x7 PUSH2 0x7D0 GAS SUB STATICCALL SWAP1 POP DUP1 DUP1 PUSH2 0x56C JUMPI INVALID JUMPDEST POP DUP1 PUSH2 0x576 JUMPI PUSH0 DUP1 REVERT JUMPDEST POP POP SWAP3 SWAP2 POP POP JUMP JUMPDEST PUSH1 0x40 DUP1 MLOAD DUP1 DUP3 ADD SWAP1 SWAP2 MSTORE PUSH0 DUP1 DUP3 MSTORE PUSH1 0x20 DUP3 ADD MSTORE PUSH2 0x599 PUSH2 0xB39 JUMP JUMPDEST DUP4 MLOAD DUP2 MSTORE PUSH1 0x20 DUP1 DUP6 ADD MLOAD DUP2 DUP4 ADD MSTORE DUP4 MLOAD PUSH1 0x40 DUP4 ADD MSTORE DUP4 ADD MLOAD PUSH1 0x60 DUP1 DUP4 ADD SWAP2 SWAP1 SWAP2 MSTORE PUSH0 SWAP1 DUP4 PUSH1 0xC0 DUP5 PUSH1 0x6 PUSH2 0x7D0 GAS SUB STATICCALL SWAP1 POP DUP1 DUP1 PUSH2 0x56C JUMPI INVALID JUMPDEST PUSH1 0x40 DUP1 MLOAD DUP1 DUP3 ADD SWAP1 SWAP2 MSTORE PUSH0 DUP1 DUP3 MSTORE PUSH1 0x20 DUP3 ADD MSTORE DUP2 MLOAD PUSH32 0x30644E72E131A029B85045B68181585D97816A916871CA8D3C208C16D87CFD47 SWAP1 ISZERO DUP1 ISZERO PUSH2 0x618 JUMPI POP PUSH1 0x20 DUP4 ADD MLOAD ISZERO JUMPDEST ISZERO PUSH2 0x637 JUMPI POP POP PUSH1 0x40 DUP1 MLOAD DUP1 DUP3 ADD SWAP1 SWAP2 MSTORE PUSH0 DUP1 DUP3 MSTORE PUSH1 0x20 DUP3 ADD MSTORE SWAP2 SWAP1 POP JUMP JUMPDEST PUSH1 0x40 MLOAD DUP1 PUSH1 0x40 ADD PUSH1 0x40 MSTORE DUP1 DUP5 PUSH0 ADD MLOAD DUP2 MSTORE PUSH1 0x20 ADD DUP3 DUP6 PUSH1 0x20 ADD MLOAD PUSH2 0x65B SWAP2 SWAP1 PUSH2 0xD63 JUMP JUMPDEST PUSH2 0x665 SWAP1 DUP5 PUSH2 0xD82 JUMP JUMPDEST SWAP1 MSTORE SWAP4 SWAP3 POP POP POP JUMP JUMPDEST PUSH1 0x40 DUP1 MLOAD PUSH1 0x4 DUP1 DUP3 MSTORE PUSH1 0xA0 DUP3 ADD SWAP1 SWAP3 MSTORE PUSH0 SWAP2 DUP3 SWAP2 SWAP1 DUP2 PUSH1 0x20 ADD JUMPDEST PUSH1 0x40 DUP1 MLOAD DUP1 DUP3 ADD SWAP1 SWAP2 MSTORE PUSH0 DUP1 DUP3 MSTORE PUSH1 0x20 DUP3 ADD MSTORE DUP2 MSTORE PUSH1 0x20 ADD SWAP1 PUSH1 0x1 SWAP1 SUB SWAP1 DUP2 PUSH2 0x688 JUMPI POP POP PUSH1 0x40 DUP1 MLOAD PUSH1 0x4 DUP1 DUP3 MSTORE PUSH1 0xA0 DUP3 ADD SWAP1 SWAP3 MSTORE SWAP2 SWAP3 POP PUSH0 SWAP2 SWAP1 PUSH1 0x20 DUP3 ADD JUMPDEST PUSH2 0x6D0 PUSH2 0xB57 JUMP JUMPDEST DUP2 MSTORE PUSH1 0x20 ADD SWAP1 PUSH1 0x1 SWAP1 SUB SWAP1 DUP2 PUSH2 0x6C8 JUMPI SWAP1 POP POP SWAP1 POP DUP11 DUP3 PUSH0 DUP2 MLOAD DUP2 LT PUSH2 0x6F8 JUMPI PUSH2 0x6F8 PUSH2 0xD37 JUMP JUMPDEST PUSH1 0x20 MUL PUSH1 0x20 ADD ADD DUP2 SWAP1 MSTORE POP DUP9 DUP3 PUSH1 0x1 DUP2 MLOAD DUP2 LT PUSH2 0x717 JUMPI PUSH2 0x717 PUSH2 0xD37 JUMP JUMPDEST PUSH1 0x20 MUL PUSH1 0x20 ADD ADD DUP2 SWAP1 MSTORE POP DUP7 DUP3 PUSH1 0x2 DUP2 MLOAD DUP2 LT PUSH2 0x736 JUMPI PUSH2 0x736 PUSH2 0xD37 JUMP JUMPDEST PUSH1 0x20 MUL PUSH1 0x20 ADD ADD DUP2 SWAP1 MSTORE POP DUP5 DUP3 PUSH1 0x3 DUP2 MLOAD DUP2 LT PUSH2 0x755 JUMPI PUSH2 0x755 PUSH2 0xD37 JUMP JUMPDEST PUSH1 0x20 MUL PUSH1 0x20 ADD ADD DUP2 SWAP1 MSTORE POP DUP10 DUP2 PUSH0 DUP2 MLOAD DUP2 LT PUSH2 0x773 JUMPI PUSH2 0x773 PUSH2 0xD37 JUMP JUMPDEST PUSH1 0x20 MUL PUSH1 0x20 ADD ADD DUP2 SWAP1 MSTORE POP DUP8 DUP2 PUSH1 0x1 DUP2 MLOAD DUP2 LT PUSH2 0x792 JUMPI PUSH2 0x792 PUSH2 0xD37 JUMP JUMPDEST PUSH1 0x20 MUL PUSH1 0x20 ADD ADD DUP2 SWAP1 MSTORE POP DUP6 DUP2 PUSH1 0x2 DUP2 MLOAD DUP2 LT PUSH2 0x7B1 JUMPI PUSH2 0x7B1 PUSH2 0xD37 JUMP JUMPDEST PUSH1 0x20 MUL PUSH1 0x20 ADD ADD DUP2 SWAP1 MSTORE POP DUP4 DUP2 PUSH1 0x3 DUP2 MLOAD DUP2 LT PUSH2 0x7D0 JUMPI PUSH2 0x7D0 PUSH2 0xD37 JUMP JUMPDEST PUSH1 0x20 MUL PUSH1 0x20 ADD ADD DUP2 SWAP1 MSTORE POP PUSH2 0x7E5 DUP3 DUP3 PUSH2 0x7F4 JUMP JUMPDEST SWAP12 SWAP11 POP POP POP POP POP POP POP POP POP POP POP JUMP JUMPDEST PUSH0 DUP2 MLOAD DUP4 MLOAD EQ PUSH2 0x802 JUMPI PUSH0 DUP1 REVERT JUMPDEST DUP3 MLOAD PUSH0 PUSH2 0x810 DUP3 PUSH1 0x6 PUSH2 0xD95 JUMP JUMPDEST SWAP1 POP PUSH0 DUP2 PUSH8 0xFFFFFFFFFFFFFFFF DUP2 GT ISZERO PUSH2 0x82C JUMPI PUSH2 0x82C PUSH2 0xBB8 JUMP JUMPDEST PUSH1 0x40 MLOAD SWAP1 DUP1 DUP3 MSTORE DUP1 PUSH1 0x20 MUL PUSH1 0x20 ADD DUP3 ADD PUSH1 0x40 MSTORE DUP1 ISZERO PUSH2 0x855 JUMPI DUP2 PUSH1 0x20 ADD PUSH1 0x20 DUP3 MUL DUP1 CALLDATASIZE DUP4 CALLDATACOPY ADD SWAP1 POP JUMPDEST POP SWAP1 POP PUSH0 JUMPDEST DUP4 DUP2 LT ISZERO PUSH2 0xA8C JUMPI DUP7 DUP2 DUP2 MLOAD DUP2 LT PUSH2 0x874 JUMPI PUSH2 0x874 PUSH2 0xD37 JUMP JUMPDEST PUSH1 0x20 MUL PUSH1 0x20 ADD ADD MLOAD PUSH0 ADD MLOAD DUP3 DUP3 PUSH1 0x6 PUSH2 0x88D SWAP2 SWAP1 PUSH2 0xD95 JUMP JUMPDEST PUSH2 0x897 SWAP1 PUSH0 PUSH2 0xD24 JUMP JUMPDEST DUP2 MLOAD DUP2 LT PUSH2 0x8A7 JUMPI PUSH2 0x8A7 PUSH2 0xD37 JUMP JUMPDEST PUSH1 0x20 MUL PUSH1 0x20 ADD ADD DUP2 DUP2 MSTORE POP POP DUP7 DUP2 DUP2 MLOAD DUP2 LT PUSH2 0x8C5 JUMPI PUSH2 0x8C5 PUSH2 0xD37 JUMP JUMPDEST PUSH1 0x20 MUL PUSH1 0x20 ADD ADD MLOAD PUSH1 0x20 ADD MLOAD DUP3 DUP3 PUSH1 0x6 PUSH2 0x8DF SWAP2 SWAP1 PUSH2 0xD95 JUMP JUMPDEST PUSH2 0x8EA SWAP1 PUSH1 0x1 PUSH2 0xD24 JUMP JUMPDEST DUP2 MLOAD DUP2 LT PUSH2 0x8FA JUMPI PUSH2 0x8FA PUSH2 0xD37 JUMP JUMPDEST PUSH1 0x20 MUL PUSH1 0x20 ADD ADD DUP2 DUP2 MSTORE POP POP DUP6 DUP2 DUP2 MLOAD DUP2 LT PUSH2 0x918 JUMPI PUSH2 0x918 PUSH2 0xD37 JUMP JUMPDEST PUSH1 0x20 SWAP1 DUP2 MUL SWAP2 SWAP1 SWAP2 ADD DUP2 ADD MLOAD MLOAD ADD MLOAD DUP3 PUSH2 0x933 DUP4 PUSH1 0x6 PUSH2 0xD95 JUMP JUMPDEST PUSH2 0x93E SWAP1 PUSH1 0x2 PUSH2 0xD24 JUMP JUMPDEST DUP2 MLOAD DUP2 LT PUSH2 0x94E JUMPI PUSH2 0x94E PUSH2 0xD37 JUMP JUMPDEST PUSH1 0x20 MUL PUSH1 0x20 ADD ADD DUP2 DUP2 MSTORE POP POP DUP6 DUP2 DUP2 MLOAD DUP2 LT PUSH2 0x96C JUMPI PUSH2 0x96C PUSH2 0xD37 JUMP JUMPDEST PUSH1 0x20 SWAP1 DUP2 MUL SWAP2 SWAP1 SWAP2 ADD ADD MLOAD MLOAD MLOAD DUP3 PUSH2 0x985 DUP4 PUSH1 0x6 PUSH2 0xD95 JUMP JUMPDEST PUSH2 0x990 SWAP1 PUSH1 0x3 PUSH2 0xD24 JUMP JUMPDEST DUP2 MLOAD DUP2 LT PUSH2 0x9A0 JUMPI PUSH2 0x9A0 PUSH2 0xD37 JUMP JUMPDEST PUSH1 0x20 MUL PUSH1 0x20 ADD ADD DUP2 DUP2 MSTORE POP POP DUP6 DUP2 DUP2 MLOAD DUP2 LT PUSH2 0x9BE JUMPI PUSH2 0x9BE PUSH2 0xD37 JUMP JUMPDEST PUSH1 0x20 MUL PUSH1 0x20 ADD ADD MLOAD PUSH1 0x20 ADD MLOAD PUSH1 0x1 PUSH1 0x2 DUP2 LT PUSH2 0x9DC JUMPI PUSH2 0x9DC PUSH2 0xD37 JUMP JUMPDEST PUSH1 0x20 MUL ADD MLOAD DUP3 PUSH2 0x9ED DUP4 PUSH1 0x6 PUSH2 0xD95 JUMP JUMPDEST PUSH2 0x9F8 SWAP1 PUSH1 0x4 PUSH2 0xD24 JUMP JUMPDEST DUP2 MLOAD DUP2 LT PUSH2 0xA08 JUMPI PUSH2 0xA08 PUSH2 0xD37 JUMP JUMPDEST PUSH1 0x20 MUL PUSH1 0x20 ADD ADD DUP2 DUP2 MSTORE POP POP DUP6 DUP2 DUP2 MLOAD DUP2 LT PUSH2 0xA26 JUMPI PUSH2 0xA26 PUSH2 0xD37 JUMP JUMPDEST PUSH1 0x20 MUL PUSH1 0x20 ADD ADD MLOAD PUSH1 0x20 ADD MLOAD PUSH0 PUSH1 0x2 DUP2 LT PUSH2 0xA43 JUMPI PUSH2 0xA43 PUSH2 0xD37 JUMP JUMPDEST PUSH1 0x20 MUL ADD MLOAD DUP3 PUSH2 0xA54 DUP4 PUSH1 0x6 PUSH2 0xD95 JUMP JUMPDEST PUSH2 0xA5F SWAP1 PUSH1 0x5 PUSH2 0xD24 JUMP JUMPDEST DUP2 MLOAD DUP2 LT PUSH2 0xA6F JUMPI PUSH2 0xA6F PUSH2 0xD37 JUMP JUMPDEST PUSH1 0x20 SWAP1 DUP2 MUL SWAP2 SWAP1 SWAP2 ADD ADD MSTORE DUP1 PUSH2 0xA84 DUP2 PUSH2 0xD4B JUMP JUMPDEST SWAP2 POP POP PUSH2 0x85A JUMP JUMPDEST POP PUSH2 0xA95 PUSH2 0xB7C JUMP JUMPDEST PUSH0 PUSH1 0x20 DUP3 PUSH1 0x20 DUP7 MUL PUSH1 0x20 DUP7 ADD PUSH1 0x8 PUSH2 0x7D0 GAS SUB STATICCALL SWAP1 POP DUP1 DUP1 PUSH2 0xAB3 JUMPI INVALID JUMPDEST POP DUP1 PUSH2 0xABD JUMPI PUSH0 DUP1 REVERT JUMPDEST POP MLOAD ISZERO ISZERO SWAP7 SWAP6 POP POP POP POP POP POP JUMP JUMPDEST PUSH1 0x40 DUP1 MLOAD PUSH1 0xE0 DUP2 ADD SWAP1 SWAP2 MSTORE PUSH0 PUSH1 0xA0 DUP3 ADD DUP2 DUP2 MSTORE PUSH1 0xC0 DUP4 ADD SWAP2 SWAP1 SWAP2 MSTORE DUP2 MSTORE PUSH1 0x20 DUP2 ADD PUSH2 0xAF4 PUSH2 0xB57 JUMP JUMPDEST DUP2 MSTORE PUSH1 0x20 ADD PUSH2 0xB01 PUSH2 0xB57 JUMP JUMPDEST DUP2 MSTORE PUSH1 0x20 ADD PUSH2 0xB0E PUSH2 0xB57 JUMP JUMPDEST DUP2 MSTORE PUSH1 0x20 ADD PUSH1 0x60 DUP2 MSTORE POP SWAP1 JUMP JUMPDEST PUSH1 0x40 MLOAD DUP1 PUSH1 0x60 ADD PUSH1 0x40 MSTORE DUP1 PUSH1 0x3 SWAP1 PUSH1 0x20 DUP3 MUL DUP1 CALLDATASIZE DUP4 CALLDATACOPY POP SWAP2 SWAP3 SWAP2 POP POP JUMP JUMPDEST PUSH1 0x40 MLOAD DUP1 PUSH1 0x80 ADD PUSH1 0x40 MSTORE DUP1 PUSH1 0x4 SWAP1 PUSH1 0x20 DUP3 MUL DUP1 CALLDATASIZE DUP4 CALLDATACOPY POP SWAP2 SWAP3 SWAP2 POP POP JUMP JUMPDEST PUSH1 0x40 MLOAD DUP1 PUSH1 0x40 ADD PUSH1 0x40 MSTORE DUP1 PUSH2 0xB6A PUSH2 0xB9A JUMP JUMPDEST DUP2 MSTORE PUSH1 0x20 ADD PUSH2 0xB77 PUSH2 0xB9A JUMP JUMPDEST SWAP1 MSTORE SWAP1 JUMP JUMPDEST PUSH1 0x40 MLOAD DUP1 PUSH1 0x20 ADD PUSH1 0x40 MSTORE DUP1 PUSH1 0x1 SWAP1 PUSH1 0x20 DUP3 MUL DUP1 CALLDATASIZE DUP4 CALLDATACOPY POP SWAP2 SWAP3 SWAP2 POP POP JUMP JUMPDEST PUSH1 0x40 MLOAD DUP1 PUSH1 0x40 ADD PUSH1 0x40 MSTORE DUP1 PUSH1 0x2 SWAP1 PUSH1 0x20 DUP3 MUL DUP1 CALLDATASIZE DUP4 CALLDATACOPY POP SWAP2 SWAP3 SWAP2 POP POP JUMP JUMPDEST PUSH4 0x4E487B71 PUSH1 0xE0 SHL PUSH0 MSTORE PUSH1 0x41 PUSH1 0x4 MSTORE PUSH1 0x24 PUSH0 REVERT JUMPDEST PUSH1 0x40 DUP1 MLOAD SWAP1 DUP2 ADD PUSH8 0xFFFFFFFFFFFFFFFF DUP2 GT DUP3 DUP3 LT OR ISZERO PUSH2 0xBEF JUMPI PUSH2 0xBEF PUSH2 0xBB8 JUMP JUMPDEST PUSH1 0x40 MSTORE SWAP1 JUMP JUMPDEST PUSH0 PUSH1 0x40 DUP3 DUP5 SUB SLT ISZERO PUSH2 0xC05 JUMPI PUSH0 DUP1 REVERT JUMPDEST PUSH2 0xC0D PUSH2 0xBCC JUMP JUMPDEST SWAP1 POP DUP2 CALLDATALOAD DUP2 MSTORE PUSH1 0x20 DUP3 ADD CALLDATALOAD PUSH1 0x20 DUP3 ADD MSTORE SWAP3 SWAP2 POP POP JUMP JUMPDEST PUSH0 DUP3 PUSH1 0x1F DUP4 ADD SLT PUSH2 0xC32 JUMPI PUSH0 DUP1 REVERT JUMPDEST PUSH2 0xC3A PUSH2 0xBCC JUMP JUMPDEST DUP1 PUSH1 0x40 DUP5 ADD DUP6 DUP2 GT ISZERO PUSH2 0xC4B JUMPI PUSH0 DUP1 REVERT JUMPDEST DUP5 JUMPDEST DUP2 DUP2 LT ISZERO PUSH2 0xC65 JUMPI DUP1 CALLDATALOAD DUP5 MSTORE PUSH1 0x20 SWAP4 DUP5 ADD SWAP4 ADD PUSH2 0xC4D JUMP JUMPDEST POP SWAP1 SWAP6 SWAP5 POP POP POP POP POP JUMP JUMPDEST PUSH0 DUP2 DUP4 SUB PUSH2 0x100 DUP2 SLT ISZERO PUSH2 0xC82 JUMPI PUSH0 DUP1 REVERT JUMPDEST PUSH1 0x40 MLOAD PUSH1 0x60 DUP2 ADD DUP2 DUP2 LT PUSH8 0xFFFFFFFFFFFFFFFF DUP3 GT OR ISZERO PUSH2 0xCA5 JUMPI PUSH2 0xCA5 PUSH2 0xBB8 JUMP JUMPDEST PUSH1 0x40 MSTORE PUSH2 0xCB2 DUP6 DUP6 PUSH2 0xBF5 JUMP JUMPDEST DUP2 MSTORE PUSH1 0x80 PUSH1 0x3F NOT DUP4 ADD SLT ISZERO PUSH2 0xCC5 JUMPI PUSH0 DUP1 REVERT JUMPDEST PUSH2 0xCCD PUSH2 0xBCC JUMP JUMPDEST SWAP2 POP PUSH2 0xCDC DUP6 PUSH1 0x40 DUP7 ADD PUSH2 0xC23 JUMP JUMPDEST DUP3 MSTORE PUSH2 0xCEB DUP6 PUSH1 0x80 DUP7 ADD PUSH2 0xC23 JUMP JUMPDEST PUSH1 0x20 DUP4 ADD MSTORE DUP2 PUSH1 0x20 DUP3 ADD MSTORE PUSH2 0xD03 DUP6 PUSH1 0xC0 DUP7 ADD PUSH2 0xBF5 JUMP JUMPDEST PUSH1 0x40 DUP3 ADD MSTORE SWAP5 SWAP4 POP POP POP POP JUMP JUMPDEST PUSH4 0x4E487B71 PUSH1 0xE0 SHL PUSH0 MSTORE PUSH1 0x11 PUSH1 0x4 MSTORE PUSH1 0x24 PUSH0 REVERT JUMPDEST DUP1 DUP3 ADD DUP1 DUP3 GT ISZERO PUSH2 0x1FC JUMPI PUSH2 0x1FC PUSH2 0xD10 JUMP JUMPDEST PUSH4 0x4E487B71 PUSH1 0xE0 SHL PUSH0 MSTORE PUSH1 0x32 PUSH1 0x4 MSTORE PUSH1 0x24 PUSH0 REVERT JUMPDEST PUSH0 PUSH1 0x1 DUP3 ADD PUSH2 0xD5C JUMPI PUSH2 0xD5C PUSH2 0xD10 JUMP JUMPDEST POP PUSH1 0x1 ADD SWAP1 JUMP JUMPDEST PUSH0 DUP3 PUSH2 0xD7D JUMPI PUSH4 0x4E487B71 PUSH1 0xE0 SHL PUSH0 MSTORE PUSH1 0x12 PUSH1 0x4 MSTORE PUSH1 0x24 PUSH0 REVERT JUMPDEST POP MOD SWAP1 JUMP JUMPDEST DUP2 DUP2 SUB DUP2 DUP2 GT ISZERO PUSH2 0x1FC JUMPI PUSH2 0x1FC PUSH2 0xD10 JUMP JUMPDEST DUP1 DUP3 MUL DUP2 ISZERO DUP3 DUP3 DIV DUP5 EQ OR PUSH2 0x1FC JUMPI PUSH2 0x1FC PUSH2 0xD10 JUMP INVALID LOG2 PUSH5 0x6970667358 0x22 SLT KECCAK256 MSTORE 0xCA 0xDD PUSH19 0x9BAB10998FB936ED3790F774670629D713B777 0xC9 0xC CALLDATACOPY 0xE2 0xB7 0xD3 SHL PUSH0 0xA6 PUSH5 0x736F6C6343 STOP ADDMOD ISZERO STOP CALLER "
				},
				"gasEstimates": {
					"creation": {
						"codeDepositCost": "710800",
						"executionCost": "745",
						"totalCost": "711545"
					},
					"external": {
						"verifyTx(((uint256,uint256),(uint256[2],uint256[2]),(uint256,uint256)))": "infinite"
					},
					"internal": {
						"verify(uint256[] memory,struct Verifier.Proof memory)": "infinite",
						"verifyingKey()": "infinite"
					}
				},
				"methodIdentifiers": {
					"verifyTx(((uint256,uint256),(uint256[2],uint256[2]),(uint256,uint256)))": "f6af0311"
				}
			},
			"storageLayout": {
				"storage": [],
				"types": null
			},
			"userdoc": {
				"kind": "user",
				"methods": {},
				"version": 1
			}
		}
	}
}