{
	"ChildLabourDataManagement.sol": {
		"ChildLabourDataManagement": {
			"abi": [
				{
					"inputs": [
						{
							"internalType": "address",
							"name": "_registration",
							"type": "address"
						},
						{
							"internalType": "address",
							"name": "_verifier",
							"type": "address"
						}
					],
					"stateMutability": "nonpayable",
					"type": "constructor"
				},
				{
					"anonymous": false,
					"inputs": [
						{
							"indexed": false,
							"internalType": "address",
							"name": "regulatoryAuthority",
							"type": "address"
						},
						{
							"indexed": false,
							"internalType": "address",
							"name": "entity",
							"type": "address"
						},
						{
							"indexed": false,
							"internalType": "uint256",
							"name": "date",
							"type": "uint256"
						}
					],
					"name": "AccessRevoked",
					"type": "event"
				},
				{
					"anonymous": false,
					"inputs": [
						{
							"indexed": false,
							"internalType": "uint256",
							"name": "childId",
							"type": "uint256"
						},
						{
							"indexed": false,
							"internalType": "bytes32",
							"name": "hashedName",
							"type": "bytes32"
						},
						{
							"indexed": false,
							"internalType": "uint256",
							"name": "age",
							"type": "uint256"
						},
						{
							"indexed": false,
							"internalType": "bytes1",
							"name": "gender",
							"type": "bytes1"
						},
						{
							"indexed": false,
							"internalType": "uint256",
							"name": "reportId",
							"type": "uint256"
						}
					],
					"name": "ChildDataStored",
					"type": "event"
				},
				{
					"anonymous": false,
					"inputs": [
						{
							"indexed": false,
							"internalType": "uint256",
							"name": "childId",
							"type": "uint256"
						},
						{
							"indexed": false,
							"internalType": "uint256",
							"name": "reportId",
							"type": "uint256"
						},
						{
							"indexed": false,
							"internalType": "address",
							"name": "guardian",
							"type": "address"
						}
					],
					"name": "GuardianAssigned",
					"type": "event"
				},
				{
					"anonymous": false,
					"inputs": [
						{
							"indexed": true,
							"internalType": "uint256",
							"name": "reportCount",
							"type": "uint256"
						},
						{
							"indexed": false,
							"internalType": "address",
							"name": "reporter",
							"type": "address"
						},
						{
							"indexed": false,
							"internalType": "uint256",
							"name": "date",
							"type": "uint256"
						},
						{
							"indexed": false,
							"internalType": "bytes32",
							"name": "reportDetails",
							"type": "bytes32"
						}
					],
					"name": "NewViolationReport",
					"type": "event"
				},
				{
					"anonymous": false,
					"inputs": [
						{
							"indexed": false,
							"internalType": "uint256",
							"name": "violationReportId",
							"type": "uint256"
						},
						{
							"indexed": false,
							"internalType": "uint256",
							"name": "childId",
							"type": "uint256"
						},
						{
							"indexed": false,
							"internalType": "uint256",
							"name": "remediationCompletionDate",
							"type": "uint256"
						}
					],
					"name": "RemediationCompleted",
					"type": "event"
				},
				{
					"anonymous": false,
					"inputs": [
						{
							"indexed": false,
							"internalType": "uint256",
							"name": "violationReportId",
							"type": "uint256"
						},
						{
							"indexed": false,
							"internalType": "uint256",
							"name": "childId",
							"type": "uint256"
						},
						{
							"indexed": false,
							"internalType": "uint256",
							"name": "remediationStartDate",
							"type": "uint256"
						},
						{
							"indexed": false,
							"internalType": "uint256",
							"name": "remediationCompletionDate",
							"type": "uint256"
						}
					],
					"name": "RemediationStarted",
					"type": "event"
				},
				{
					"anonymous": false,
					"inputs": [
						{
							"indexed": false,
							"internalType": "uint256",
							"name": "violationReportId",
							"type": "uint256"
						},
						{
							"indexed": false,
							"internalType": "uint256",
							"name": "childId",
							"type": "uint256"
						},
						{
							"indexed": false,
							"internalType": "uint256",
							"name": "remediationUpdatedate",
							"type": "uint256"
						},
						{
							"indexed": false,
							"internalType": "bytes32",
							"name": "reportUpdate",
							"type": "bytes32"
						}
					],
					"name": "RemediationUpdate",
					"type": "event"
				},
				{
					"anonymous": false,
					"inputs": [
						{
							"indexed": false,
							"internalType": "address",
							"name": "regulatoryAuthority",
							"type": "address"
						},
						{
							"indexed": false,
							"internalType": "address",
							"name": "verifierSC",
							"type": "address"
						},
						{
							"indexed": false,
							"internalType": "uint256",
							"name": "date",
							"type": "uint256"
						}
					],
					"name": "VerifierUpdated",
					"type": "event"
				},
				{
					"anonymous": false,
					"inputs": [
						{
							"indexed": true,
							"internalType": "uint256",
							"name": "reportCount",
							"type": "uint256"
						},
						{
							"indexed": false,
							"internalType": "address",
							"name": "inspector",
							"type": "address"
						},
						{
							"indexed": false,
							"internalType": "bool",
							"name": "isVerified",
							"type": "bool"
						},
						{
							"indexed": false,
							"internalType": "uint256",
							"name": "verificationDate",
							"type": "uint256"
						}
					],
					"name": "ViolationReportVerification",
					"type": "event"
				},
				{
					"anonymous": false,
					"inputs": [
						{
							"indexed": false,
							"internalType": "address",
							"name": "user",
							"type": "address"
						},
						{
							"indexed": false,
							"internalType": "uint256",
							"name": "Date",
							"type": "uint256"
						}
					],
					"name": "Whitelisted",
					"type": "event"
				},
				{
					"inputs": [],
					"name": "Registration",
					"outputs": [
						{
							"internalType": "contract IRegistration",
							"name": "",
							"type": "address"
						}
					],
					"stateMutability": "view",
					"type": "function"
				},
				{
					"inputs": [],
					"name": "Verifier",
					"outputs": [
						{
							"internalType": "contract IVerifier",
							"name": "",
							"type": "address"
						}
					],
					"stateMutability": "view",
					"type": "function"
				},
				{
					"inputs": [
						{
							"internalType": "address",
							"name": "",
							"type": "address"
						}
					],
					"name": "accessWhitelist",
					"outputs": [
						{
							"internalType": "bool",
							"name": "",
							"type": "bool"
						}
					],
					"stateMutability": "view",
					"type": "function"
				},
				{
					"inputs": [
						{
							"internalType": "uint256",
							"name": "_violationReportId",
							"type": "uint256"
						},
						{
							"internalType": "uint256",
							"name": "_childId",
							"type": "uint256"
						},
						{
							"internalType": "address",
							"name": "_guardian",
							"type": "address"
						}
					],
					"name": "assignGuardian",
					"outputs": [],
					"stateMutability": "nonpayable",
					"type": "function"
				},
				{
					"inputs": [
						{
							"internalType": "uint256",
							"name": "",
							"type": "uint256"
						}
					],
					"name": "child2ReportMapping",
					"outputs": [
						{
							"internalType": "uint256",
							"name": "",
							"type": "uint256"
						}
					],
					"stateMutability": "view",
					"type": "function"
				},
				{
					"inputs": [],
					"name": "childCount",
					"outputs": [
						{
							"internalType": "uint256",
							"name": "",
							"type": "uint256"
						}
					],
					"stateMutability": "view",
					"type": "function"
				},
				{
					"inputs": [
						{
							"internalType": "uint256",
							"name": "",
							"type": "uint256"
						},
						{
							"internalType": "uint256",
							"name": "",
							"type": "uint256"
						}
					],
					"name": "childData",
					"outputs": [
						{
							"internalType": "uint256",
							"name": "childId",
							"type": "uint256"
						},
						{
							"internalType": "bytes32",
							"name": "hashedName",
							"type": "bytes32"
						},
						{
							"internalType": "uint256",
							"name": "age",
							"type": "uint256"
						},
						{
							"internalType": "bytes1",
							"name": "gender",
							"type": "bytes1"
						},
						{
							"internalType": "uint256",
							"name": "violationReportId",
							"type": "uint256"
						},
						{
							"internalType": "enum ChildLabourDataManagement.ChildStatus",
							"name": "status",
							"type": "uint8"
						}
					],
					"stateMutability": "view",
					"type": "function"
				},
				{
					"inputs": [
						{
							"internalType": "uint256",
							"name": "",
							"type": "uint256"
						}
					],
					"name": "childRemediationData",
					"outputs": [
						{
							"internalType": "address",
							"name": "guardian",
							"type": "address"
						},
						{
							"internalType": "uint256",
							"name": "childId",
							"type": "uint256"
						},
						{
							"internalType": "uint256",
							"name": "remediationStart",
							"type": "uint256"
						},
						{
							"internalType": "uint256",
							"name": "remediationCompletion",
							"type": "uint256"
						},
						{
							"internalType": "uint256",
							"name": "lastUpdated",
							"type": "uint256"
						},
						{
							"internalType": "bytes32",
							"name": "updateReport",
							"type": "bytes32"
						},
						{
							"internalType": "enum ChildLabourDataManagement.ChildStatus",
							"name": "status",
							"type": "uint8"
						}
					],
					"stateMutability": "view",
					"type": "function"
				},
				{
					"inputs": [
						{
							"internalType": "uint256",
							"name": "_violationReportId",
							"type": "uint256"
						},
						{
							"internalType": "uint256",
							"name": "_childId",
							"type": "uint256"
						}
					],
					"name": "completeRemediation",
					"outputs": [],
					"stateMutability": "nonpayable",
					"type": "function"
				},
				{
					"inputs": [
						{
							"internalType": "uint256",
							"name": "_violationReportId",
							"type": "uint256"
						},
						{
							"internalType": "uint256",
							"name": "_childId",
							"type": "uint256"
						}
					],
					"name": "getChildData",
					"outputs": [
						{
							"internalType": "bytes32",
							"name": "hashedName",
							"type": "bytes32"
						},
						{
							"internalType": "uint256",
							"name": "age",
							"type": "uint256"
						},
						{
							"internalType": "bytes1",
							"name": "gender",
							"type": "bytes1"
						},
						{
							"internalType": "bytes32",
							"name": "reportipfshash",
							"type": "bytes32"
						}
					],
					"stateMutability": "nonpayable",
					"type": "function"
				},
				{
					"inputs": [
						{
							"internalType": "uint256",
							"name": "_violationReportId",
							"type": "uint256"
						},
						{
							"internalType": "uint256",
							"name": "_childId",
							"type": "uint256"
						}
					],
					"name": "getChildStatus",
					"outputs": [
						{
							"internalType": "enum ChildLabourDataManagement.ChildStatus",
							"name": "",
							"type": "uint8"
						},
						{
							"internalType": "uint256",
							"name": "",
							"type": "uint256"
						},
						{
							"internalType": "uint256",
							"name": "",
							"type": "uint256"
						},
						{
							"internalType": "uint256",
							"name": "",
							"type": "uint256"
						}
					],
					"stateMutability": "nonpayable",
					"type": "function"
				},
				{
					"inputs": [
						{
							"internalType": "uint256",
							"name": "_violationReportId",
							"type": "uint256"
						}
					],
					"name": "getViolationReport",
					"outputs": [
						{
							"internalType": "address",
							"name": "reporter",
							"type": "address"
						},
						{
							"internalType": "uint256",
							"name": "date",
							"type": "uint256"
						},
						{
							"internalType": "bytes32",
							"name": "reportDetails",
							"type": "bytes32"
						}
					],
					"stateMutability": "nonpayable",
					"type": "function"
				},
				{
					"inputs": [
						{
							"internalType": "address",
							"name": "_user",
							"type": "address"
						}
					],
					"name": "grantAccess",
					"outputs": [],
					"stateMutability": "nonpayable",
					"type": "function"
				},
				{
					"inputs": [
						{
							"internalType": "uint256",
							"name": "_violationReportId",
							"type": "uint256"
						},
						{
							"internalType": "uint256",
							"name": "_childId",
							"type": "uint256"
						},
						{
							"internalType": "string",
							"name": "_updateReport",
							"type": "string"
						}
					],
					"name": "remediationUpdate",
					"outputs": [],
					"stateMutability": "nonpayable",
					"type": "function"
				},
				{
					"inputs": [
						{
							"internalType": "uint256",
							"name": "",
							"type": "uint256"
						}
					],
					"name": "reportChildrenCount",
					"outputs": [
						{
							"internalType": "uint256",
							"name": "",
							"type": "uint256"
						}
					],
					"stateMutability": "view",
					"type": "function"
				},
				{
					"inputs": [],
					"name": "reportCount",
					"outputs": [
						{
							"internalType": "uint256",
							"name": "",
							"type": "uint256"
						}
					],
					"stateMutability": "view",
					"type": "function"
				},
				{
					"inputs": [
						{
							"internalType": "uint256",
							"name": "",
							"type": "uint256"
						}
					],
					"name": "reportProof",
					"outputs": [
						{
							"components": [
								{
									"internalType": "uint256",
									"name": "X",
									"type": "uint256"
								},
								{
									"internalType": "uint256",
									"name": "Y",
									"type": "uint256"
								}
							],
							"internalType": "struct Pairing.G1Point",
							"name": "a",
							"type": "tuple"
						},
						{
							"components": [
								{
									"internalType": "uint256[2]",
									"name": "X",
									"type": "uint256[2]"
								},
								{
									"internalType": "uint256[2]",
									"name": "Y",
									"type": "uint256[2]"
								}
							],
							"internalType": "struct Pairing.G2Point",
							"name": "b",
							"type": "tuple"
						},
						{
							"components": [
								{
									"internalType": "uint256",
									"name": "X",
									"type": "uint256"
								},
								{
									"internalType": "uint256",
									"name": "Y",
									"type": "uint256"
								}
							],
							"internalType": "struct Pairing.G1Point",
							"name": "c",
							"type": "tuple"
						}
					],
					"stateMutability": "view",
					"type": "function"
				},
				{
					"inputs": [
						{
							"internalType": "address",
							"name": "_user",
							"type": "address"
						}
					],
					"name": "revokeAccess",
					"outputs": [],
					"stateMutability": "nonpayable",
					"type": "function"
				},
				{
					"inputs": [
						{
							"internalType": "uint256",
							"name": "_violationReportId",
							"type": "uint256"
						},
						{
							"internalType": "uint256",
							"name": "_childId",
							"type": "uint256"
						},
						{
							"internalType": "uint256",
							"name": "_daysToRemediate",
							"type": "uint256"
						}
					],
					"name": "startRemediation",
					"outputs": [],
					"stateMutability": "nonpayable",
					"type": "function"
				},
				{
					"inputs": [
						{
							"internalType": "bytes32",
							"name": "_hashedName",
							"type": "bytes32"
						},
						{
							"internalType": "uint256",
							"name": "_age",
							"type": "uint256"
						},
						{
							"internalType": "bytes1",
							"name": "_gender",
							"type": "bytes1"
						},
						{
							"internalType": "uint256",
							"name": "_violationReportId",
							"type": "uint256"
						}
					],
					"name": "storeChildData",
					"outputs": [],
					"stateMutability": "nonpayable",
					"type": "function"
				},
				{
					"inputs": [
						{
							"internalType": "string",
							"name": "_reportIPFSHash",
							"type": "string"
						},
						{
							"internalType": "uint256",
							"name": "_spottedChildrenNumber",
							"type": "uint256"
						}
					],
					"name": "submitViolationReport",
					"outputs": [],
					"stateMutability": "nonpayable",
					"type": "function"
				},
				{
					"inputs": [
						{
							"internalType": "address",
							"name": "_verifier",
							"type": "address"
						}
					],
					"name": "updateVerifier",
					"outputs": [],
					"stateMutability": "nonpayable",
					"type": "function"
				},
				{
					"inputs": [
						{
							"internalType": "uint256",
							"name": "_violationReportId",
							"type": "uint256"
						},
						{
							"internalType": "bool",
							"name": "_decision",
							"type": "bool"
						}
					],
					"name": "verifyViolationReport",
					"outputs": [],
					"stateMutability": "nonpayable",
					"type": "function"
				},
				{
					"inputs": [
						{
							"internalType": "uint256",
							"name": "",
							"type": "uint256"
						}
					],
					"name": "violationReports",
					"outputs": [
						{
							"internalType": "address",
							"name": "reporter",
							"type": "address"
						},
						{
							"internalType": "uint256",
							"name": "timestamp",
							"type": "uint256"
						},
						{
							"internalType": "uint256",
							"name": "spottedChildrenNumber",
							"type": "uint256"
						},
						{
							"internalType": "bytes32",
							"name": "ipfsHash",
							"type": "bytes32"
						},
						{
							"internalType": "bool",
							"name": "isInspected",
							"type": "bool"
						},
						{
							"internalType": "bool",
							"name": "isVerified",
							"type": "bool"
						}
					],
					"stateMutability": "view",
					"type": "function"
				}
			],
			"devdoc": {
				"kind": "dev",
				"methods": {},
				"version": 1
			},
			"evm": {
				"assembly": "    /* \"ChildLabourDataManagement.sol\":5808:19854  contract ChildLabourDataManagement{... */\n  mstore(0x40, 0x80)\n    /* \"ChildLabourDataManagement.sol\":7714:7922  constructor(address _registration, address _verifier){... */\n  callvalue\n  dup1\n  iszero\n  tag_1\n  jumpi\n  0x00\n  dup1\n  revert\ntag_1:\n  pop\n  mload(0x40)\n  sub(codesize, bytecodeSize)\n  dup1\n  bytecodeSize\n  dup4\n  codecopy\n  dup2\n  dup2\n  add\n  0x40\n  mstore\n  dup2\n  add\n  swap1\n  tag_2\n  swap2\n  swap1\n  tag_3\n  jump\t// in\ntag_2:\n    /* \"ChildLabourDataManagement.sol\":7807:7820  _registration */\n  dup2\n    /* \"ChildLabourDataManagement.sol\":7778:7790  Registration */\n  0x00\n  dup1\n    /* \"ChildLabourDataManagement.sol\":7778:7821  Registration = IRegistration(_registration) */\n  0x0100\n  exp\n  dup2\n  sload\n  dup2\n  0xffffffffffffffffffffffffffffffffffffffff\n  mul\n  not\n  and\n  swap1\n  dup4\n  0xffffffffffffffffffffffffffffffffffffffff\n  and\n  mul\n  or\n  swap1\n  sstore\n  pop\n    /* \"ChildLabourDataManagement.sol\":7853:7862  _verifier */\n  dup1\n    /* \"ChildLabourDataManagement.sol\":7832:7840  Verifier */\n  0x01\n  0x00\n    /* \"ChildLabourDataManagement.sol\":7832:7863  Verifier = IVerifier(_verifier) */\n  0x0100\n  exp\n  dup2\n  sload\n  dup2\n  0xffffffffffffffffffffffffffffffffffffffff\n  mul\n  not\n  and\n  swap1\n  dup4\n  0xffffffffffffffffffffffffffffffffffffffff\n  and\n  mul\n  or\n  swap1\n  sstore\n  pop\n    /* \"ChildLabourDataManagement.sol\":7888:7889  0 */\n  0x00\n    /* \"ChildLabourDataManagement.sol\":7874:7885  reportCount */\n  0x02\n    /* \"ChildLabourDataManagement.sol\":7874:7889  reportCount = 0 */\n  dup2\n  swap1\n  sstore\n  pop\n    /* \"ChildLabourDataManagement.sol\":7913:7914  0 */\n  0x00\n    /* \"ChildLabourDataManagement.sol\":7900:7910  childCount */\n  0x03\n    /* \"ChildLabourDataManagement.sol\":7900:7914  childCount = 0 */\n  dup2\n  swap1\n  sstore\n  pop\n    /* \"ChildLabourDataManagement.sol\":7714:7922  constructor(address _registration, address _verifier){... */\n  pop\n  pop\n    /* \"ChildLabourDataManagement.sol\":5808:19854  contract ChildLabourDataManagement{... */\n  jump(tag_6)\n    /* \"#utility.yul\":88:205   */\ntag_8:\n    /* \"#utility.yul\":197:198   */\n  0x00\n    /* \"#utility.yul\":194:195   */\n  dup1\n    /* \"#utility.yul\":187:199   */\n  revert\n    /* \"#utility.yul\":334:460   */\ntag_10:\n    /* \"#utility.yul\":371:378   */\n  0x00\n    /* \"#utility.yul\":411:453   */\n  0xffffffffffffffffffffffffffffffffffffffff\n    /* \"#utility.yul\":404:409   */\n  dup3\n    /* \"#utility.yul\":400:454   */\n  and\n    /* \"#utility.yul\":389:454   */\n  swap1\n  pop\n    /* \"#utility.yul\":334:460   */\n  swap2\n  swap1\n  pop\n  jump\t// out\n    /* \"#utility.yul\":466:562   */\ntag_11:\n    /* \"#utility.yul\":503:510   */\n  0x00\n    /* \"#utility.yul\":532:556   */\n  tag_20\n    /* \"#utility.yul\":550:555   */\n  dup3\n    /* \"#utility.yul\":532:556   */\n  tag_10\n  jump\t// in\ntag_20:\n    /* \"#utility.yul\":521:556   */\n  swap1\n  pop\n    /* \"#utility.yul\":466:562   */\n  swap2\n  swap1\n  pop\n  jump\t// out\n    /* \"#utility.yul\":568:690   */\ntag_12:\n    /* \"#utility.yul\":641:665   */\n  tag_22\n    /* \"#utility.yul\":659:664   */\n  dup2\n    /* \"#utility.yul\":641:665   */\n  tag_11\n  jump\t// in\ntag_22:\n    /* \"#utility.yul\":634:639   */\n  dup2\n    /* \"#utility.yul\":631:666   */\n  eq\n    /* \"#utility.yul\":621:684   */\n  tag_23\n  jumpi\n    /* \"#utility.yul\":680:681   */\n  0x00\n    /* \"#utility.yul\":677:678   */\n  dup1\n    /* \"#utility.yul\":670:682   */\n  revert\n    /* \"#utility.yul\":621:684   */\ntag_23:\n    /* \"#utility.yul\":568:690   */\n  pop\n  jump\t// out\n    /* \"#utility.yul\":696:839   */\ntag_13:\n    /* \"#utility.yul\":753:758   */\n  0x00\n    /* \"#utility.yul\":784:790   */\n  dup2\n    /* \"#utility.yul\":778:791   */\n  mload\n    /* \"#utility.yul\":769:791   */\n  swap1\n  pop\n    /* \"#utility.yul\":800:833   */\n  tag_25\n    /* \"#utility.yul\":827:832   */\n  dup2\n    /* \"#utility.yul\":800:833   */\n  tag_12\n  jump\t// in\ntag_25:\n    /* \"#utility.yul\":696:839   */\n  swap3\n  swap2\n  pop\n  pop\n  jump\t// out\n    /* \"#utility.yul\":845:1352   */\ntag_3:\n    /* \"#utility.yul\":924:930   */\n  0x00\n    /* \"#utility.yul\":932:938   */\n  dup1\n    /* \"#utility.yul\":981:983   */\n  0x40\n    /* \"#utility.yul\":969:978   */\n  dup4\n    /* \"#utility.yul\":960:967   */\n  dup6\n    /* \"#utility.yul\":956:979   */\n  sub\n    /* \"#utility.yul\":952:984   */\n  slt\n    /* \"#utility.yul\":949:1068   */\n  iszero\n  tag_27\n  jumpi\n    /* \"#utility.yul\":987:1066   */\n  tag_28\n  tag_8\n  jump\t// in\ntag_28:\n    /* \"#utility.yul\":949:1068   */\ntag_27:\n    /* \"#utility.yul\":1107:1108   */\n  0x00\n    /* \"#utility.yul\":1132:1196   */\n  tag_29\n    /* \"#utility.yul\":1188:1195   */\n  dup6\n    /* \"#utility.yul\":1179:1185   */\n  dup3\n    /* \"#utility.yul\":1168:1177   */\n  dup7\n    /* \"#utility.yul\":1164:1186   */\n  add\n    /* \"#utility.yul\":1132:1196   */\n  tag_13\n  jump\t// in\ntag_29:\n    /* \"#utility.yul\":1122:1196   */\n  swap3\n  pop\n    /* \"#utility.yul\":1078:1206   */\n  pop\n    /* \"#utility.yul\":1245:1247   */\n  0x20\n    /* \"#utility.yul\":1271:1335   */\n  tag_30\n    /* \"#utility.yul\":1327:1334   */\n  dup6\n    /* \"#utility.yul\":1318:1324   */\n  dup3\n    /* \"#utility.yul\":1307:1316   */\n  dup7\n    /* \"#utility.yul\":1303:1325   */\n  add\n    /* \"#utility.yul\":1271:1335   */\n  tag_13\n  jump\t// in\ntag_30:\n    /* \"#utility.yul\":1261:1335   */\n  swap2\n  pop\n    /* \"#utility.yul\":1216:1345   */\n  pop\n    /* \"#utility.yul\":845:1352   */\n  swap3\n  pop\n  swap3\n  swap1\n  pop\n  jump\t// out\n    /* \"ChildLabourDataManagement.sol\":5808:19854  contract ChildLabourDataManagement{... */\ntag_6:\n  dataSize(sub_0)\n  dup1\n  dataOffset(sub_0)\n  0x00\n  codecopy\n  0x00\n  return\nstop\n\nsub_0: assembly {\n        /* \"ChildLabourDataManagement.sol\":5808:19854  contract ChildLabourDataManagement{... */\n      mstore(0x40, 0x80)\n      callvalue\n      dup1\n      iszero\n      tag_1\n      jumpi\n      0x00\n      dup1\n      revert\n    tag_1:\n      pop\n      jumpi(tag_2, lt(calldatasize, 0x04))\n      shr(0xe0, calldataload(0x00))\n      dup1\n      0x85e68531\n      gt\n      tag_27\n      jumpi\n      dup1\n      0xa1dc99b4\n      gt\n      tag_28\n      jumpi\n      dup1\n      0xa1dc99b4\n      eq\n      tag_21\n      jumpi\n      dup1\n      0xb05efaab\n      eq\n      tag_22\n      jumpi\n      dup1\n      0xe60e5ee2\n      eq\n      tag_23\n      jumpi\n      dup1\n      0xe8a37919\n      eq\n      tag_24\n      jumpi\n      dup1\n      0xeff5cfae\n      eq\n      tag_25\n      jumpi\n      dup1\n      0xf8b4d690\n      eq\n      tag_26\n      jumpi\n      jump(tag_2)\n    tag_28:\n      dup1\n      0x85e68531\n      eq\n      tag_15\n      jumpi\n      dup1\n      0x8bc3bbc0\n      eq\n      tag_16\n      jumpi\n      dup1\n      0x8fe2d950\n      eq\n      tag_17\n      jumpi\n      dup1\n      0x97fc007c\n      eq\n      tag_18\n      jumpi\n      dup1\n      0x992cc022\n      eq\n      tag_19\n      jumpi\n      dup1\n      0xa0619d4a\n      eq\n      tag_20\n      jumpi\n      jump(tag_2)\n    tag_27:\n      dup1\n      0x53ca8115\n      gt\n      tag_29\n      jumpi\n      dup1\n      0x53ca8115\n      eq\n      tag_9\n      jumpi\n      dup1\n      0x636d0262\n      eq\n      tag_10\n      jumpi\n      dup1\n      0x6388bafc\n      eq\n      tag_11\n      jumpi\n      dup1\n      0x739f48a6\n      eq\n      tag_12\n      jumpi\n      dup1\n      0x832de71e\n      eq\n      tag_13\n      jumpi\n      dup1\n      0x84e2395d\n      eq\n      tag_14\n      jumpi\n      jump(tag_2)\n    tag_29:\n      dup1\n      0x0ae5e739\n      eq\n      tag_3\n      jumpi\n      dup1\n      0x12f1a83a\n      eq\n      tag_4\n      jumpi\n      dup1\n      0x185c6f84\n      eq\n      tag_5\n      jumpi\n      dup1\n      0x28c10330\n      eq\n      tag_6\n      jumpi\n      dup1\n      0x2b76ea9c\n      eq\n      tag_7\n      jumpi\n      dup1\n      0x3835a119\n      eq\n      tag_8\n      jumpi\n    tag_2:\n      0x00\n      dup1\n      revert\n        /* \"ChildLabourDataManagement.sol\":19137:19302  function grantAccess(address _user) public onlyOracle {... */\n    tag_3:\n      tag_30\n      0x04\n      dup1\n      calldatasize\n      sub\n      dup2\n      add\n      swap1\n      tag_31\n      swap2\n      swap1\n      tag_32\n      jump\t// in\n    tag_31:\n      tag_33\n      jump\t// in\n    tag_30:\n      stop\n        /* \"ChildLabourDataManagement.sol\":7109:7175  mapping(uint256 => mapping(uint256 => ChildData)) public childData */\n    tag_4:\n      tag_34\n      0x04\n      dup1\n      calldatasize\n      sub\n      dup2\n      add\n      swap1\n      tag_35\n      swap2\n      swap1\n      tag_36\n      jump\t// in\n    tag_35:\n      tag_37\n      jump\t// in\n    tag_34:\n      mload(0x40)\n      tag_38\n      swap7\n      swap6\n      swap5\n      swap4\n      swap3\n      swap2\n      swap1\n      tag_39\n      jump\t// in\n    tag_38:\n      mload(0x40)\n      dup1\n      swap2\n      sub\n      swap1\n      return\n        /* \"ChildLabourDataManagement.sol\":5957:5983  uint256 public reportCount */\n    tag_5:\n      tag_40\n      tag_41\n      jump\t// in\n    tag_40:\n      mload(0x40)\n      tag_42\n      swap2\n      swap1\n      tag_43\n      jump\t// in\n    tag_42:\n      mload(0x40)\n      dup1\n      swap2\n      sub\n      swap1\n      return\n        /* \"ChildLabourDataManagement.sol\":12234:12796  function verifyViolationReport(uint256 _violationReportId, bool _decision) public onlyInspectionAgent{... */\n    tag_6:\n      tag_44\n      0x04\n      dup1\n      calldatasize\n      sub\n      dup2\n      add\n      swap1\n      tag_45\n      swap2\n      swap1\n      tag_46\n      jump\t// in\n    tag_45:\n      tag_47\n      jump\t// in\n    tag_44:\n      stop\n        /* \"ChildLabourDataManagement.sol\":7330:7394  mapping(uint256 => ChildRemediation) public childRemediationData */\n    tag_7:\n      tag_48\n      0x04\n      dup1\n      calldatasize\n      sub\n      dup2\n      add\n      swap1\n      tag_49\n      swap2\n      swap1\n      tag_50\n      jump\t// in\n    tag_49:\n      tag_51\n      jump\t// in\n    tag_48:\n      mload(0x40)\n      tag_52\n      swap8\n      swap7\n      swap6\n      swap5\n      swap4\n      swap3\n      swap2\n      swap1\n      tag_53\n      jump\t// in\n    tag_52:\n      mload(0x40)\n      dup1\n      swap2\n      sub\n      swap1\n      return\n        /* \"ChildLabourDataManagement.sol\":6843:6902  mapping(uint256 => ViolationReport) public violationReports */\n    tag_8:\n      tag_54\n      0x04\n      dup1\n      calldatasize\n      sub\n      dup2\n      add\n      swap1\n      tag_55\n      swap2\n      swap1\n      tag_50\n      jump\t// in\n    tag_55:\n      tag_56\n      jump\t// in\n    tag_54:\n      mload(0x40)\n      tag_57\n      swap7\n      swap6\n      swap5\n      swap4\n      swap3\n      swap2\n      swap1\n      tag_58\n      jump\t// in\n    tag_57:\n      mload(0x40)\n      dup1\n      swap2\n      sub\n      swap1\n      return\n        /* \"ChildLabourDataManagement.sol\":5925:5950  IVerifier public Verifier */\n    tag_9:\n      tag_59\n      tag_60\n      jump\t// in\n    tag_59:\n      mload(0x40)\n      tag_61\n      swap2\n      swap1\n      tag_62\n      jump\t// in\n    tag_61:\n      mload(0x40)\n      dup1\n      swap2\n      sub\n      swap1\n      return\n        /* \"ChildLabourDataManagement.sol\":11824:12226  function getViolationReport(uint256 _violationReportId) public onlyInspectionAgent returns(address reporter, uint256 date, bytes32 reportDetails){... */\n    tag_10:\n      tag_63\n      0x04\n      dup1\n      calldatasize\n      sub\n      dup2\n      add\n      swap1\n      tag_64\n      swap2\n      swap1\n      tag_50\n      jump\t// in\n    tag_64:\n      tag_65\n      jump\t// in\n    tag_63:\n      mload(0x40)\n      tag_66\n      swap4\n      swap3\n      swap2\n      swap1\n      tag_67\n      jump\t// in\n    tag_66:\n      mload(0x40)\n      dup1\n      swap2\n      sub\n      swap1\n      return\n        /* \"ChildLabourDataManagement.sol\":7216:7270  mapping(uint256 => uint256) public reportChildrenCount */\n    tag_11:\n      tag_68\n      0x04\n      dup1\n      calldatasize\n      sub\n      dup2\n      add\n      swap1\n      tag_69\n      swap2\n      swap1\n      tag_50\n      jump\t// in\n    tag_69:\n      tag_70\n      jump\t// in\n    tag_68:\n      mload(0x40)\n      tag_71\n      swap2\n      swap1\n      tag_43\n      jump\t// in\n    tag_71:\n      mload(0x40)\n      dup1\n      swap2\n      sub\n      swap1\n      return\n        /* \"ChildLabourDataManagement.sol\":17526:18303  function completeRemediation(uint256 _violationReportId, uint256 _childId) public onlyGuardian(_childId){... */\n    tag_12:\n      tag_72\n      0x04\n      dup1\n      calldatasize\n      sub\n      dup2\n      add\n      swap1\n      tag_73\n      swap2\n      swap1\n      tag_36\n      jump\t// in\n    tag_73:\n      tag_74\n      jump\t// in\n    tag_72:\n      stop\n        /* \"ChildLabourDataManagement.sol\":12908:13828  function storeChildData(bytes32 _hashedName, uint256 _age, bytes1 _gender, uint256 _violationReportId) public onlyInspectionAgent{... */\n    tag_13:\n      tag_75\n      0x04\n      dup1\n      calldatasize\n      sub\n      dup2\n      add\n      swap1\n      tag_76\n      swap2\n      swap1\n      tag_77\n      jump\t// in\n    tag_76:\n      tag_78\n      jump\t// in\n    tag_75:\n      stop\n        /* \"ChildLabourDataManagement.sol\":13836:14779  function getChildData(uint256 _violationReportId, uint256 _childId) public returns(bytes32 hashedName, uint256 age, bytes1 gender, bytes32 reportipfshash){... */\n    tag_14:\n      tag_79\n      0x04\n      dup1\n      calldatasize\n      sub\n      dup2\n      add\n      swap1\n      tag_80\n      swap2\n      swap1\n      tag_36\n      jump\t// in\n    tag_80:\n      tag_81\n      jump\t// in\n    tag_79:\n      mload(0x40)\n      tag_82\n      swap5\n      swap4\n      swap3\n      swap2\n      swap1\n      tag_83\n      jump\t// in\n    tag_82:\n      mload(0x40)\n      dup1\n      swap2\n      sub\n      swap1\n      return\n        /* \"ChildLabourDataManagement.sol\":19379:19562  function revokeAccess( address _user) public onlyRegulatoryAuthority {... */\n    tag_15:\n      tag_84\n      0x04\n      dup1\n      calldatasize\n      sub\n      dup2\n      add\n      swap1\n      tag_85\n      swap2\n      swap1\n      tag_32\n      jump\t// in\n    tag_85:\n      tag_86\n      jump\t// in\n    tag_84:\n      stop\n        /* \"ChildLabourDataManagement.sol\":5990:6015  uint256 public childCount */\n    tag_16:\n      tag_87\n      tag_88\n      jump\t// in\n    tag_87:\n      mload(0x40)\n      tag_89\n      swap2\n      swap1\n      tag_43\n      jump\t// in\n    tag_89:\n      mload(0x40)\n      dup1\n      swap2\n      sub\n      swap1\n      return\n        /* \"ChildLabourDataManagement.sol\":11111:11588  function submitViolationReport(string memory _reportIPFSHash, uint256 _spottedChildrenNumber) public onlywhistleBlowers{... */\n    tag_17:\n      tag_90\n      0x04\n      dup1\n      calldatasize\n      sub\n      dup2\n      add\n      swap1\n      tag_91\n      swap2\n      swap1\n      tag_92\n      jump\t// in\n    tag_91:\n      tag_93\n      jump\t// in\n    tag_90:\n      stop\n        /* \"ChildLabourDataManagement.sol\":19655:19849  function updateVerifier(address _verifier) public onlyRegulatoryAuthority{... */\n    tag_18:\n      tag_94\n      0x04\n      dup1\n      calldatasize\n      sub\n      dup2\n      add\n      swap1\n      tag_95\n      swap2\n      swap1\n      tag_32\n      jump\t// in\n    tag_95:\n      tag_96\n      jump\t// in\n    tag_94:\n      stop\n        /* \"ChildLabourDataManagement.sol\":15675:16690  function startRemediation(uint256 _violationReportId, uint256 _childId, uint256 _daysToRemediate) public onlyGuardian(_childId) {... */\n    tag_19:\n      tag_97\n      0x04\n      dup1\n      calldatasize\n      sub\n      dup2\n      add\n      swap1\n      tag_98\n      swap2\n      swap1\n      tag_99\n      jump\t// in\n    tag_98:\n      tag_100\n      jump\t// in\n    tag_97:\n      stop\n        /* \"ChildLabourDataManagement.sol\":7528:7575  mapping(address => bool) public accessWhitelist */\n    tag_20:\n      tag_101\n      0x04\n      dup1\n      calldatasize\n      sub\n      dup2\n      add\n      swap1\n      tag_102\n      swap2\n      swap1\n      tag_32\n      jump\t// in\n    tag_102:\n      tag_103\n      jump\t// in\n    tag_101:\n      mload(0x40)\n      tag_104\n      swap2\n      swap1\n      tag_105\n      jump\t// in\n    tag_104:\n      mload(0x40)\n      dup1\n      swap2\n      sub\n      swap1\n      return\n        /* \"ChildLabourDataManagement.sol\":18311:18902  function getChildStatus(uint256 _violationReportId, uint256 _childId) public onlyRegulatoryAuthority returns(ChildStatus, uint256, uint256, uint256){... */\n    tag_21:\n      tag_106\n      0x04\n      dup1\n      calldatasize\n      sub\n      dup2\n      add\n      swap1\n      tag_107\n      swap2\n      swap1\n      tag_36\n      jump\t// in\n    tag_107:\n      tag_108\n      jump\t// in\n    tag_106:\n      mload(0x40)\n      tag_109\n      swap5\n      swap4\n      swap3\n      swap2\n      swap1\n      tag_110\n      jump\t// in\n    tag_109:\n      mload(0x40)\n      dup1\n      swap2\n      sub\n      swap1\n      return\n        /* \"ChildLabourDataManagement.sol\":6940:6994  mapping(uint256 => uint256) public child2ReportMapping */\n    tag_22:\n      tag_111\n      0x04\n      dup1\n      calldatasize\n      sub\n      dup2\n      add\n      swap1\n      tag_112\n      swap2\n      swap1\n      tag_50\n      jump\t// in\n    tag_112:\n      tag_113\n      jump\t// in\n    tag_111:\n      mload(0x40)\n      tag_114\n      swap2\n      swap1\n      tag_43\n      jump\t// in\n    tag_114:\n      mload(0x40)\n      dup1\n      swap2\n      sub\n      swap1\n      return\n        /* \"ChildLabourDataManagement.sol\":16698:17518  function remediationUpdate(uint256 _violationReportId, uint256 _childId, string memory _updateReport) public onlyGuardian(_childId){... */\n    tag_23:\n      tag_115\n      0x04\n      dup1\n      calldatasize\n      sub\n      dup2\n      add\n      swap1\n      tag_116\n      swap2\n      swap1\n      tag_117\n      jump\t// in\n    tag_116:\n      tag_118\n      jump\t// in\n    tag_115:\n      stop\n        /* \"ChildLabourDataManagement.sol\":5885:5918  IRegistration public Registration */\n    tag_24:\n      tag_119\n      tag_120\n      jump\t// in\n    tag_119:\n      mload(0x40)\n      tag_121\n      swap2\n      swap1\n      tag_122\n      jump\t// in\n    tag_121:\n      mload(0x40)\n      dup1\n      swap2\n      sub\n      swap1\n      return\n        /* \"ChildLabourDataManagement.sol\":14787:15605  function assignGuardian(uint256 _violationReportId, uint256 _childId, address _guardian) public onlyRegulatoryAuthority{... */\n    tag_25:\n      tag_123\n      0x04\n      dup1\n      calldatasize\n      sub\n      dup2\n      add\n      swap1\n      tag_124\n      swap2\n      swap1\n      tag_125\n      jump\t// in\n    tag_124:\n      tag_126\n      jump\t// in\n    tag_123:\n      stop\n        /* \"ChildLabourDataManagement.sol\":7620:7674  mapping(uint256 => IVerifier.Proof) public reportProof */\n    tag_26:\n      tag_127\n      0x04\n      dup1\n      calldatasize\n      sub\n      dup2\n      add\n      swap1\n      tag_128\n      swap2\n      swap1\n      tag_50\n      jump\t// in\n    tag_128:\n      tag_129\n      jump\t// in\n    tag_127:\n      mload(0x40)\n      tag_130\n      swap4\n      swap3\n      swap2\n      swap1\n      tag_131\n      jump\t// in\n    tag_130:\n      mload(0x40)\n      dup1\n      swap2\n      sub\n      swap1\n      return\n        /* \"ChildLabourDataManagement.sol\":19137:19302  function grantAccess(address _user) public onlyOracle {... */\n    tag_33:\n        /* \"ChildLabourDataManagement.sol\":9633:9668  IRegistration.EntityType entitytype */\n      0x00\n        /* \"ChildLabourDataManagement.sol\":9670:9687  bool isRegistered */\n      dup1\n        /* \"ChildLabourDataManagement.sol\":9691:9703  Registration */\n      0x00\n      dup1\n      sload\n      swap1\n      0x0100\n      exp\n      swap1\n      div\n      0xffffffffffffffffffffffffffffffffffffffff\n      and\n        /* \"ChildLabourDataManagement.sol\":9691:9713  Registration.getEntity */\n      0xffffffffffffffffffffffffffffffffffffffff\n      and\n      0x75894e8c\n        /* \"ChildLabourDataManagement.sol\":9714:9724  msg.sender */\n      caller\n        /* \"ChildLabourDataManagement.sol\":9691:9725  Registration.getEntity(msg.sender) */\n      mload(0x40)\n      dup3\n      0xffffffff\n      and\n      0xe0\n      shl\n      dup2\n      mstore\n      0x04\n      add\n      tag_133\n      swap2\n      swap1\n      tag_134\n      jump\t// in\n    tag_133:\n      0x40\n      dup1\n      mload\n      dup1\n      dup4\n      sub\n      dup2\n      0x00\n      dup8\n      gas\n      call\n      iszero\n      dup1\n      iszero\n      tag_136\n      jumpi\n      returndatasize\n      0x00\n      dup1\n      returndatacopy\n      revert(0x00, returndatasize)\n    tag_136:\n      pop\n      pop\n      pop\n      pop\n      mload(0x40)\n      returndatasize\n      not(0x1f)\n      0x1f\n      dup3\n      add\n      and\n      dup3\n      add\n      dup1\n      0x40\n      mstore\n      pop\n      dup2\n      add\n      swap1\n      tag_137\n      swap2\n      swap1\n      tag_138\n      jump\t// in\n    tag_137:\n        /* \"ChildLabourDataManagement.sol\":9632:9725  (IRegistration.EntityType entitytype, bool isRegistered) = Registration.getEntity(msg.sender) */\n      swap2\n      pop\n      swap2\n      pop\n        /* \"ChildLabourDataManagement.sol\":9758:9789  IRegistration.EntityType.Oracle */\n      0x05\n        /* \"ChildLabourDataManagement.sol\":9744:9789  entitytype == IRegistration.EntityType.Oracle */\n      dup1\n      dup2\n      gt\n      iszero\n      tag_139\n      jumpi\n      tag_140\n      tag_141\n      jump\t// in\n    tag_140:\n    tag_139:\n        /* \"ChildLabourDataManagement.sol\":9744:9754  entitytype */\n      dup3\n        /* \"ChildLabourDataManagement.sol\":9744:9789  entitytype == IRegistration.EntityType.Oracle */\n      0x05\n      dup2\n      gt\n      iszero\n      tag_142\n      jumpi\n      tag_143\n      tag_141\n      jump\t// in\n    tag_143:\n    tag_142:\n      eq\n        /* \"ChildLabourDataManagement.sol\":9744:9805  entitytype == IRegistration.EntityType.Oracle && isRegistered */\n      dup1\n      iszero\n      tag_144\n      jumpi\n      pop\n        /* \"ChildLabourDataManagement.sol\":9793:9805  isRegistered */\n      dup1\n        /* \"ChildLabourDataManagement.sol\":9744:9805  entitytype == IRegistration.EntityType.Oracle && isRegistered */\n    tag_144:\n        /* \"ChildLabourDataManagement.sol\":9736:9858  require(entitytype == IRegistration.EntityType.Oracle && isRegistered, \"Only the Blockchain Oracle can run this function\") */\n      tag_145\n      jumpi\n      mload(0x40)\n      0x08c379a000000000000000000000000000000000000000000000000000000000\n      dup2\n      mstore\n      0x04\n      add\n      tag_146\n      swap1\n      tag_147\n      jump\t// in\n    tag_146:\n      mload(0x40)\n      dup1\n      swap2\n      sub\n      swap1\n      revert\n    tag_145:\n        /* \"ChildLabourDataManagement.sol\":19233:19237  true */\n      0x01\n        /* \"ChildLabourDataManagement.sol\":19208:19223  accessWhitelist */\n      0x09\n        /* \"ChildLabourDataManagement.sol\":19208:19230  accessWhitelist[_user] */\n      0x00\n        /* \"ChildLabourDataManagement.sol\":19224:19229  _user */\n      dup6\n        /* \"ChildLabourDataManagement.sol\":19208:19230  accessWhitelist[_user] */\n      0xffffffffffffffffffffffffffffffffffffffff\n      and\n      0xffffffffffffffffffffffffffffffffffffffff\n      and\n      dup2\n      mstore\n      0x20\n      add\n      swap1\n      dup2\n      mstore\n      0x20\n      add\n      0x00\n      keccak256\n      0x00\n        /* \"ChildLabourDataManagement.sol\":19208:19237  accessWhitelist[_user] = true */\n      0x0100\n      exp\n      dup2\n      sload\n      dup2\n      0xff\n      mul\n      not\n      and\n      swap1\n      dup4\n      iszero\n      iszero\n      mul\n      or\n      swap1\n      sstore\n      pop\n        /* \"ChildLabourDataManagement.sol\":19257:19292  Whitelisted(_user, block.timestamp) */\n      0x6ea640312e182de387819fbeb13be00db3171a445412852248559054871c4199\n        /* \"ChildLabourDataManagement.sol\":19269:19274  _user */\n      dup4\n        /* \"ChildLabourDataManagement.sol\":19276:19291  block.timestamp */\n      timestamp\n        /* \"ChildLabourDataManagement.sol\":19257:19292  Whitelisted(_user, block.timestamp) */\n      mload(0x40)\n      tag_149\n      swap3\n      swap2\n      swap1\n      tag_150\n      jump\t// in\n    tag_149:\n      mload(0x40)\n      dup1\n      swap2\n      sub\n      swap1\n      log1\n        /* \"ChildLabourDataManagement.sol\":9621:9878  {... */\n      pop\n      pop\n        /* \"ChildLabourDataManagement.sol\":19137:19302  function grantAccess(address _user) public onlyOracle {... */\n      pop\n      jump\t// out\n        /* \"ChildLabourDataManagement.sol\":7109:7175  mapping(uint256 => mapping(uint256 => ChildData)) public childData */\n    tag_37:\n      mstore(0x20, 0x06)\n      dup2\n      0x00\n      mstore\n      mstore(0x20, keccak256(0x00, 0x40))\n      dup1\n      0x00\n      mstore\n      keccak256(0x00, 0x40)\n      0x00\n      swap2\n      pop\n      swap2\n      pop\n      pop\n      dup1\n      0x00\n      add\n      sload\n      swap1\n      dup1\n      0x01\n      add\n      sload\n      swap1\n      dup1\n      0x02\n      add\n      sload\n      swap1\n      dup1\n      0x03\n      add\n      0x00\n      swap1\n      sload\n      swap1\n      0x0100\n      exp\n      swap1\n      div\n      0xf8\n      shl\n      swap1\n      dup1\n      0x04\n      add\n      sload\n      swap1\n      dup1\n      0x05\n      add\n      0x00\n      swap1\n      sload\n      swap1\n      0x0100\n      exp\n      swap1\n      div\n      0xff\n      and\n      swap1\n      pop\n      dup7\n      jump\t// out\n        /* \"ChildLabourDataManagement.sol\":5957:5983  uint256 public reportCount */\n    tag_41:\n      sload(0x02)\n      dup2\n      jump\t// out\n        /* \"ChildLabourDataManagement.sol\":12234:12796  function verifyViolationReport(uint256 _violationReportId, bool _decision) public onlyInspectionAgent{... */\n    tag_47:\n        /* \"ChildLabourDataManagement.sol\":8610:8645  IRegistration.EntityType entitytype */\n      0x00\n        /* \"ChildLabourDataManagement.sol\":8647:8664  bool isRegistered */\n      dup1\n        /* \"ChildLabourDataManagement.sol\":8668:8680  Registration */\n      0x00\n      dup1\n      sload\n      swap1\n      0x0100\n      exp\n      swap1\n      div\n      0xffffffffffffffffffffffffffffffffffffffff\n      and\n        /* \"ChildLabourDataManagement.sol\":8668:8690  Registration.getEntity */\n      0xffffffffffffffffffffffffffffffffffffffff\n      and\n      0x75894e8c\n        /* \"ChildLabourDataManagement.sol\":8691:8701  msg.sender */\n      caller\n        /* \"ChildLabourDataManagement.sol\":8668:8702  Registration.getEntity(msg.sender) */\n      mload(0x40)\n      dup3\n      0xffffffff\n      and\n      0xe0\n      shl\n      dup2\n      mstore\n      0x04\n      add\n      tag_152\n      swap2\n      swap1\n      tag_134\n      jump\t// in\n    tag_152:\n      0x40\n      dup1\n      mload\n      dup1\n      dup4\n      sub\n      dup2\n      0x00\n      dup8\n      gas\n      call\n      iszero\n      dup1\n      iszero\n      tag_154\n      jumpi\n      returndatasize\n      0x00\n      dup1\n      returndatacopy\n      revert(0x00, returndatasize)\n    tag_154:\n      pop\n      pop\n      pop\n      pop\n      mload(0x40)\n      returndatasize\n      not(0x1f)\n      0x1f\n      dup3\n      add\n      and\n      dup3\n      add\n      dup1\n      0x40\n      mstore\n      pop\n      dup2\n      add\n      swap1\n      tag_155\n      swap2\n      swap1\n      tag_138\n      jump\t// in\n    tag_155:\n        /* \"ChildLabourDataManagement.sol\":8609:8702  (IRegistration.EntityType entitytype, bool isRegistered) = Registration.getEntity(msg.sender) */\n      swap2\n      pop\n      swap2\n      pop\n        /* \"ChildLabourDataManagement.sol\":8735:8775  IRegistration.EntityType.InspectionAgent */\n      0x02\n        /* \"ChildLabourDataManagement.sol\":8721:8775  entitytype == IRegistration.EntityType.InspectionAgent */\n      0x05\n      dup2\n      gt\n      iszero\n      tag_156\n      jumpi\n      tag_157\n      tag_141\n      jump\t// in\n    tag_157:\n    tag_156:\n        /* \"ChildLabourDataManagement.sol\":8721:8731  entitytype */\n      dup3\n        /* \"ChildLabourDataManagement.sol\":8721:8775  entitytype == IRegistration.EntityType.InspectionAgent */\n      0x05\n      dup2\n      gt\n      iszero\n      tag_158\n      jumpi\n      tag_159\n      tag_141\n      jump\t// in\n    tag_159:\n    tag_158:\n      eq\n        /* \"ChildLabourDataManagement.sol\":8721:8791  entitytype == IRegistration.EntityType.InspectionAgent && isRegistered */\n      dup1\n      iszero\n      tag_160\n      jumpi\n      pop\n        /* \"ChildLabourDataManagement.sol\":8779:8791  isRegistered */\n      dup1\n        /* \"ChildLabourDataManagement.sol\":8721:8791  entitytype == IRegistration.EntityType.InspectionAgent && isRegistered */\n    tag_160:\n        /* \"ChildLabourDataManagement.sol\":8713:8843  require(entitytype == IRegistration.EntityType.InspectionAgent && isRegistered, \"Only the Inspection Agent can run this function\") */\n      tag_161\n      jumpi\n      mload(0x40)\n      0x08c379a000000000000000000000000000000000000000000000000000000000\n      dup2\n      mstore\n      0x04\n      add\n      tag_162\n      swap1\n      tag_163\n      jump\t// in\n    tag_162:\n      mload(0x40)\n      dup1\n      swap2\n      sub\n      swap1\n      revert\n    tag_161:\n        /* \"ChildLabourDataManagement.sol\":12376:12377  1 */\n      0x01\n        /* \"ChildLabourDataManagement.sol\":12354:12372  _violationReportId */\n      dup5\n        /* \"ChildLabourDataManagement.sol\":12354:12377  _violationReportId >= 1 */\n      lt\n      iszero\n        /* \"ChildLabourDataManagement.sol\":12354:12414  _violationReportId >= 1 && _violationReportId <= reportCount */\n      dup1\n      iszero\n      tag_165\n      jumpi\n      pop\n        /* \"ChildLabourDataManagement.sol\":12403:12414  reportCount */\n      sload(0x02)\n        /* \"ChildLabourDataManagement.sol\":12381:12399  _violationReportId */\n      dup5\n        /* \"ChildLabourDataManagement.sol\":12381:12414  _violationReportId <= reportCount */\n      gt\n      iszero\n        /* \"ChildLabourDataManagement.sol\":12354:12414  _violationReportId >= 1 && _violationReportId <= reportCount */\n    tag_165:\n        /* \"ChildLabourDataManagement.sol\":12346:12436  require(_violationReportId >= 1 && _violationReportId <= reportCount, \"Invalid Report ID\") */\n      tag_166\n      jumpi\n      mload(0x40)\n      0x08c379a000000000000000000000000000000000000000000000000000000000\n      dup2\n      mstore\n      0x04\n      add\n      tag_167\n      swap1\n      tag_168\n      jump\t// in\n    tag_167:\n      mload(0x40)\n      dup1\n      swap2\n      sub\n      swap1\n      revert\n    tag_166:\n        /* \"ChildLabourDataManagement.sol\":12456:12472  violationReports */\n      0x04\n        /* \"ChildLabourDataManagement.sol\":12456:12492  violationReports[_violationReportId] */\n      0x00\n        /* \"ChildLabourDataManagement.sol\":12473:12491  _violationReportId */\n      dup6\n        /* \"ChildLabourDataManagement.sol\":12456:12492  violationReports[_violationReportId] */\n      dup2\n      mstore\n      0x20\n      add\n      swap1\n      dup2\n      mstore\n      0x20\n      add\n      0x00\n      keccak256\n        /* \"ChildLabourDataManagement.sol\":12456:12504  violationReports[_violationReportId].isInspected */\n      0x04\n      add\n      0x00\n      swap1\n      sload\n      swap1\n      0x0100\n      exp\n      swap1\n      div\n      0xff\n      and\n        /* \"ChildLabourDataManagement.sol\":12455:12504  !violationReports[_violationReportId].isInspected */\n      iszero\n        /* \"ChildLabourDataManagement.sol\":12447:12547  require(!violationReports[_violationReportId].isInspected, \"This report has already been inspected\") */\n      tag_169\n      jumpi\n      mload(0x40)\n      0x08c379a000000000000000000000000000000000000000000000000000000000\n      dup2\n      mstore\n      0x04\n      add\n      tag_170\n      swap1\n      tag_171\n      jump\t// in\n    tag_170:\n      mload(0x40)\n      dup1\n      swap2\n      sub\n      swap1\n      revert\n    tag_169:\n        /* \"ChildLabourDataManagement.sol\":12609:12613  true */\n      0x01\n        /* \"ChildLabourDataManagement.sol\":12558:12574  violationReports */\n      0x04\n        /* \"ChildLabourDataManagement.sol\":12558:12594  violationReports[_violationReportId] */\n      0x00\n        /* \"ChildLabourDataManagement.sol\":12575:12593  _violationReportId */\n      dup7\n        /* \"ChildLabourDataManagement.sol\":12558:12594  violationReports[_violationReportId] */\n      dup2\n      mstore\n      0x20\n      add\n      swap1\n      dup2\n      mstore\n      0x20\n      add\n      0x00\n      keccak256\n        /* \"ChildLabourDataManagement.sol\":12558:12606  violationReports[_violationReportId].isInspected */\n      0x04\n      add\n      0x00\n        /* \"ChildLabourDataManagement.sol\":12558:12613  violationReports[_violationReportId].isInspected = true */\n      0x0100\n      exp\n      dup2\n      sload\n      dup2\n      0xff\n      mul\n      not\n      and\n      swap1\n      dup4\n      iszero\n      iszero\n      mul\n      or\n      swap1\n      sstore\n      pop\n        /* \"ChildLabourDataManagement.sol\":12674:12683  _decision */\n      dup3\n        /* \"ChildLabourDataManagement.sol\":12624:12640  violationReports */\n      0x04\n        /* \"ChildLabourDataManagement.sol\":12624:12660  violationReports[_violationReportId] */\n      0x00\n        /* \"ChildLabourDataManagement.sol\":12641:12659  _violationReportId */\n      dup7\n        /* \"ChildLabourDataManagement.sol\":12624:12660  violationReports[_violationReportId] */\n      dup2\n      mstore\n      0x20\n      add\n      swap1\n      dup2\n      mstore\n      0x20\n      add\n      0x00\n      keccak256\n        /* \"ChildLabourDataManagement.sol\":12624:12671  violationReports[_violationReportId].isVerified */\n      0x04\n      add\n      0x01\n        /* \"ChildLabourDataManagement.sol\":12624:12683  violationReports[_violationReportId].isVerified = _decision */\n      0x0100\n      exp\n      dup2\n      sload\n      dup2\n      0xff\n      mul\n      not\n      and\n      swap1\n      dup4\n      iszero\n      iszero\n      mul\n      or\n      swap1\n      sstore\n      pop\n        /* \"ChildLabourDataManagement.sol\":12729:12747  _violationReportId */\n      dup4\n        /* \"ChildLabourDataManagement.sol\":12701:12788  ViolationReportVerification(_violationReportId, msg.sender, _decision, block.timestamp) */\n      0x5e672278b5a4ce7f1deaeb816f60398e65c2401c6f90928e8344510d7fa92755\n        /* \"ChildLabourDataManagement.sol\":12749:12759  msg.sender */\n      caller\n        /* \"ChildLabourDataManagement.sol\":12761:12770  _decision */\n      dup6\n        /* \"ChildLabourDataManagement.sol\":12772:12787  block.timestamp */\n      timestamp\n        /* \"ChildLabourDataManagement.sol\":12701:12788  ViolationReportVerification(_violationReportId, msg.sender, _decision, block.timestamp) */\n      mload(0x40)\n      tag_172\n      swap4\n      swap3\n      swap2\n      swap1\n      tag_173\n      jump\t// in\n    tag_172:\n      mload(0x40)\n      dup1\n      swap2\n      sub\n      swap1\n      log2\n        /* \"ChildLabourDataManagement.sol\":8598:8863  {... */\n      pop\n      pop\n        /* \"ChildLabourDataManagement.sol\":12234:12796  function verifyViolationReport(uint256 _violationReportId, bool _decision) public onlyInspectionAgent{... */\n      pop\n      pop\n      jump\t// out\n        /* \"ChildLabourDataManagement.sol\":7330:7394  mapping(uint256 => ChildRemediation) public childRemediationData */\n    tag_51:\n      mstore(0x20, 0x08)\n      dup1\n      0x00\n      mstore\n      keccak256(0x00, 0x40)\n      0x00\n      swap2\n      pop\n      swap1\n      pop\n      dup1\n      0x00\n      add\n      0x00\n      swap1\n      sload\n      swap1\n      0x0100\n      exp\n      swap1\n      div\n      0xffffffffffffffffffffffffffffffffffffffff\n      and\n      swap1\n      dup1\n      0x01\n      add\n      sload\n      swap1\n      dup1\n      0x02\n      add\n      sload\n      swap1\n      dup1\n      0x03\n      add\n      sload\n      swap1\n      dup1\n      0x04\n      add\n      sload\n      swap1\n      dup1\n      0x05\n      add\n      sload\n      swap1\n      dup1\n      0x06\n      add\n      0x00\n      swap1\n      sload\n      swap1\n      0x0100\n      exp\n      swap1\n      div\n      0xff\n      and\n      swap1\n      pop\n      dup8\n      jump\t// out\n        /* \"ChildLabourDataManagement.sol\":6843:6902  mapping(uint256 => ViolationReport) public violationReports */\n    tag_56:\n      mstore(0x20, 0x04)\n      dup1\n      0x00\n      mstore\n      keccak256(0x00, 0x40)\n      0x00\n      swap2\n      pop\n      swap1\n      pop\n      dup1\n      0x00\n      add\n      0x00\n      swap1\n      sload\n      swap1\n      0x0100\n      exp\n      swap1\n      div\n      0xffffffffffffffffffffffffffffffffffffffff\n      and\n      swap1\n      dup1\n      0x01\n      add\n      sload\n      swap1\n      dup1\n      0x02\n      add\n      sload\n      swap1\n      dup1\n      0x03\n      add\n      sload\n      swap1\n      dup1\n      0x04\n      add\n      0x00\n      swap1\n      sload\n      swap1\n      0x0100\n      exp\n      swap1\n      div\n      0xff\n      and\n      swap1\n      dup1\n      0x04\n      add\n      0x01\n      swap1\n      sload\n      swap1\n      0x0100\n      exp\n      swap1\n      div\n      0xff\n      and\n      swap1\n      pop\n      dup7\n      jump\t// out\n        /* \"ChildLabourDataManagement.sol\":5925:5950  IVerifier public Verifier */\n    tag_60:\n      0x01\n      0x00\n      swap1\n      sload\n      swap1\n      0x0100\n      exp\n      swap1\n      div\n      0xffffffffffffffffffffffffffffffffffffffff\n      and\n      dup2\n      jump\t// out\n        /* \"ChildLabourDataManagement.sol\":11824:12226  function getViolationReport(uint256 _violationReportId) public onlyInspectionAgent returns(address reporter, uint256 date, bytes32 reportDetails){... */\n    tag_65:\n        /* \"ChildLabourDataManagement.sol\":11915:11931  address reporter */\n      0x00\n        /* \"ChildLabourDataManagement.sol\":11933:11945  uint256 date */\n      dup1\n        /* \"ChildLabourDataManagement.sol\":11947:11968  bytes32 reportDetails */\n      0x00\n        /* \"ChildLabourDataManagement.sol\":8610:8645  IRegistration.EntityType entitytype */\n      dup1\n        /* \"ChildLabourDataManagement.sol\":8647:8664  bool isRegistered */\n      0x00\n        /* \"ChildLabourDataManagement.sol\":8668:8680  Registration */\n      dup1\n      0x00\n      swap1\n      sload\n      swap1\n      0x0100\n      exp\n      swap1\n      div\n      0xffffffffffffffffffffffffffffffffffffffff\n      and\n        /* \"ChildLabourDataManagement.sol\":8668:8690  Registration.getEntity */\n      0xffffffffffffffffffffffffffffffffffffffff\n      and\n      0x75894e8c\n        /* \"ChildLabourDataManagement.sol\":8691:8701  msg.sender */\n      caller\n        /* \"ChildLabourDataManagement.sol\":8668:8702  Registration.getEntity(msg.sender) */\n      mload(0x40)\n      dup3\n      0xffffffff\n      and\n      0xe0\n      shl\n      dup2\n      mstore\n      0x04\n      add\n      tag_175\n      swap2\n      swap1\n      tag_134\n      jump\t// in\n    tag_175:\n      0x40\n      dup1\n      mload\n      dup1\n      dup4\n      sub\n      dup2\n      0x00\n      dup8\n      gas\n      call\n      iszero\n      dup1\n      iszero\n      tag_177\n      jumpi\n      returndatasize\n      0x00\n      dup1\n      returndatacopy\n      revert(0x00, returndatasize)\n    tag_177:\n      pop\n      pop\n      pop\n      pop\n      mload(0x40)\n      returndatasize\n      not(0x1f)\n      0x1f\n      dup3\n      add\n      and\n      dup3\n      add\n      dup1\n      0x40\n      mstore\n      pop\n      dup2\n      add\n      swap1\n      tag_178\n      swap2\n      swap1\n      tag_138\n      jump\t// in\n    tag_178:\n        /* \"ChildLabourDataManagement.sol\":8609:8702  (IRegistration.EntityType entitytype, bool isRegistered) = Registration.getEntity(msg.sender) */\n      swap2\n      pop\n      swap2\n      pop\n        /* \"ChildLabourDataManagement.sol\":8735:8775  IRegistration.EntityType.InspectionAgent */\n      0x02\n        /* \"ChildLabourDataManagement.sol\":8721:8775  entitytype == IRegistration.EntityType.InspectionAgent */\n      0x05\n      dup2\n      gt\n      iszero\n      tag_179\n      jumpi\n      tag_180\n      tag_141\n      jump\t// in\n    tag_180:\n    tag_179:\n        /* \"ChildLabourDataManagement.sol\":8721:8731  entitytype */\n      dup3\n        /* \"ChildLabourDataManagement.sol\":8721:8775  entitytype == IRegistration.EntityType.InspectionAgent */\n      0x05\n      dup2\n      gt\n      iszero\n      tag_181\n      jumpi\n      tag_182\n      tag_141\n      jump\t// in\n    tag_182:\n    tag_181:\n      eq\n        /* \"ChildLabourDataManagement.sol\":8721:8791  entitytype == IRegistration.EntityType.InspectionAgent && isRegistered */\n      dup1\n      iszero\n      tag_183\n      jumpi\n      pop\n        /* \"ChildLabourDataManagement.sol\":8779:8791  isRegistered */\n      dup1\n        /* \"ChildLabourDataManagement.sol\":8721:8791  entitytype == IRegistration.EntityType.InspectionAgent && isRegistered */\n    tag_183:\n        /* \"ChildLabourDataManagement.sol\":8713:8843  require(entitytype == IRegistration.EntityType.InspectionAgent && isRegistered, \"Only the Inspection Agent can run this function\") */\n      tag_184\n      jumpi\n      mload(0x40)\n      0x08c379a000000000000000000000000000000000000000000000000000000000\n      dup2\n      mstore\n      0x04\n      add\n      tag_185\n      swap1\n      tag_163\n      jump\t// in\n    tag_185:\n      mload(0x40)\n      dup1\n      swap2\n      sub\n      swap1\n      revert\n    tag_184:\n        /* \"ChildLabourDataManagement.sol\":12010:12011  1 */\n      0x01\n        /* \"ChildLabourDataManagement.sol\":11988:12006  _violationReportId */\n      dup7\n        /* \"ChildLabourDataManagement.sol\":11988:12011  _violationReportId >= 1 */\n      lt\n      iszero\n        /* \"ChildLabourDataManagement.sol\":11988:12048  _violationReportId >= 1 && _violationReportId <= reportCount */\n      dup1\n      iszero\n      tag_187\n      jumpi\n      pop\n        /* \"ChildLabourDataManagement.sol\":12037:12048  reportCount */\n      sload(0x02)\n        /* \"ChildLabourDataManagement.sol\":12015:12033  _violationReportId */\n      dup7\n        /* \"ChildLabourDataManagement.sol\":12015:12048  _violationReportId <= reportCount */\n      gt\n      iszero\n        /* \"ChildLabourDataManagement.sol\":11988:12048  _violationReportId >= 1 && _violationReportId <= reportCount */\n    tag_187:\n        /* \"ChildLabourDataManagement.sol\":11980:12070  require(_violationReportId >= 1 && _violationReportId <= reportCount, \"Invalid Report ID\") */\n      tag_188\n      jumpi\n      mload(0x40)\n      0x08c379a000000000000000000000000000000000000000000000000000000000\n      dup2\n      mstore\n      0x04\n      add\n      tag_189\n      swap1\n      tag_168\n      jump\t// in\n    tag_189:\n      mload(0x40)\n      dup1\n      swap2\n      sub\n      swap1\n      revert\n    tag_188:\n        /* \"ChildLabourDataManagement.sol\":12081:12110  ViolationReport memory report */\n      0x00\n        /* \"ChildLabourDataManagement.sol\":12113:12129  violationReports */\n      0x04\n        /* \"ChildLabourDataManagement.sol\":12113:12149  violationReports[_violationReportId] */\n      0x00\n        /* \"ChildLabourDataManagement.sol\":12130:12148  _violationReportId */\n      dup9\n        /* \"ChildLabourDataManagement.sol\":12113:12149  violationReports[_violationReportId] */\n      dup2\n      mstore\n      0x20\n      add\n      swap1\n      dup2\n      mstore\n      0x20\n      add\n      0x00\n      keccak256\n        /* \"ChildLabourDataManagement.sol\":12081:12149  ViolationReport memory report = violationReports[_violationReportId] */\n      mload(0x40)\n      dup1\n      0xc0\n      add\n      0x40\n      mstore\n      swap1\n      dup2\n      0x00\n      dup3\n      add\n      0x00\n      swap1\n      sload\n      swap1\n      0x0100\n      exp\n      swap1\n      div\n      0xffffffffffffffffffffffffffffffffffffffff\n      and\n      0xffffffffffffffffffffffffffffffffffffffff\n      and\n      0xffffffffffffffffffffffffffffffffffffffff\n      and\n      dup2\n      mstore\n      0x20\n      add\n      0x01\n      dup3\n      add\n      sload\n      dup2\n      mstore\n      0x20\n      add\n      0x02\n      dup3\n      add\n      sload\n      dup2\n      mstore\n      0x20\n      add\n      0x03\n      dup3\n      add\n      sload\n      dup2\n      mstore\n      0x20\n      add\n      0x04\n      dup3\n      add\n      0x00\n      swap1\n      sload\n      swap1\n      0x0100\n      exp\n      swap1\n      div\n      0xff\n      and\n      iszero\n      iszero\n      iszero\n      iszero\n      dup2\n      mstore\n      0x20\n      add\n      0x04\n      dup3\n      add\n      0x01\n      swap1\n      sload\n      swap1\n      0x0100\n      exp\n      swap1\n      div\n      0xff\n      and\n      iszero\n      iszero\n      iszero\n      iszero\n      dup2\n      mstore\n      pop\n      pop\n      swap1\n      pop\n        /* \"ChildLabourDataManagement.sol\":12167:12173  report */\n      dup1\n        /* \"ChildLabourDataManagement.sol\":12167:12182  report.reporter */\n      0x00\n      add\n      mload\n        /* \"ChildLabourDataManagement.sol\":12184:12190  report */\n      dup2\n        /* \"ChildLabourDataManagement.sol\":12184:12200  report.timestamp */\n      0x20\n      add\n      mload\n        /* \"ChildLabourDataManagement.sol\":12202:12208  report */\n      dup3\n        /* \"ChildLabourDataManagement.sol\":12202:12217  report.ipfsHash */\n      0x60\n      add\n      mload\n        /* \"ChildLabourDataManagement.sol\":12160:12218  return(report.reporter, report.timestamp, report.ipfsHash) */\n      swap6\n      pop\n      swap6\n      pop\n      swap6\n      pop\n      pop\n        /* \"ChildLabourDataManagement.sol\":8598:8863  {... */\n      pop\n      pop\n        /* \"ChildLabourDataManagement.sol\":11824:12226  function getViolationReport(uint256 _violationReportId) public onlyInspectionAgent returns(address reporter, uint256 date, bytes32 reportDetails){... */\n      swap2\n      swap4\n      swap1\n      swap3\n      pop\n      jump\t// out\n        /* \"ChildLabourDataManagement.sol\":7216:7270  mapping(uint256 => uint256) public reportChildrenCount */\n    tag_70:\n      mstore(0x20, 0x07)\n      dup1\n      0x00\n      mstore\n      keccak256(0x00, 0x40)\n      0x00\n      swap2\n      pop\n      swap1\n      pop\n      sload\n      dup2\n      jump\t// out\n        /* \"ChildLabourDataManagement.sol\":17526:18303  function completeRemediation(uint256 _violationReportId, uint256 _childId) public onlyGuardian(_childId){... */\n    tag_74:\n        /* \"ChildLabourDataManagement.sol\":17621:17629  _childId */\n      dup1\n        /* \"ChildLabourDataManagement.sol\":9211:9246  IRegistration.EntityType entitytype */\n      0x00\n        /* \"ChildLabourDataManagement.sol\":9248:9265  bool isRegistered */\n      dup1\n        /* \"ChildLabourDataManagement.sol\":9269:9281  Registration */\n      0x00\n      dup1\n      sload\n      swap1\n      0x0100\n      exp\n      swap1\n      div\n      0xffffffffffffffffffffffffffffffffffffffff\n      and\n        /* \"ChildLabourDataManagement.sol\":9269:9291  Registration.getEntity */\n      0xffffffffffffffffffffffffffffffffffffffff\n      and\n      0x75894e8c\n        /* \"ChildLabourDataManagement.sol\":9292:9302  msg.sender */\n      caller\n        /* \"ChildLabourDataManagement.sol\":9269:9303  Registration.getEntity(msg.sender) */\n      mload(0x40)\n      dup3\n      0xffffffff\n      and\n      0xe0\n      shl\n      dup2\n      mstore\n      0x04\n      add\n      tag_191\n      swap2\n      swap1\n      tag_134\n      jump\t// in\n    tag_191:\n      0x40\n      dup1\n      mload\n      dup1\n      dup4\n      sub\n      dup2\n      0x00\n      dup8\n      gas\n      call\n      iszero\n      dup1\n      iszero\n      tag_193\n      jumpi\n      returndatasize\n      0x00\n      dup1\n      returndatacopy\n      revert(0x00, returndatasize)\n    tag_193:\n      pop\n      pop\n      pop\n      pop\n      mload(0x40)\n      returndatasize\n      not(0x1f)\n      0x1f\n      dup3\n      add\n      and\n      dup3\n      add\n      dup1\n      0x40\n      mstore\n      pop\n      dup2\n      add\n      swap1\n      tag_194\n      swap2\n      swap1\n      tag_138\n      jump\t// in\n    tag_194:\n        /* \"ChildLabourDataManagement.sol\":9210:9303  (IRegistration.EntityType entitytype, bool isRegistered) = Registration.getEntity(msg.sender) */\n      swap2\n      pop\n      swap2\n      pop\n        /* \"ChildLabourDataManagement.sol\":9336:9369  IRegistration.EntityType.Guardian */\n      0x04\n        /* \"ChildLabourDataManagement.sol\":9322:9369  entitytype == IRegistration.EntityType.Guardian */\n      0x05\n      dup2\n      gt\n      iszero\n      tag_195\n      jumpi\n      tag_196\n      tag_141\n      jump\t// in\n    tag_196:\n    tag_195:\n        /* \"ChildLabourDataManagement.sol\":9322:9332  entitytype */\n      dup3\n        /* \"ChildLabourDataManagement.sol\":9322:9369  entitytype == IRegistration.EntityType.Guardian */\n      0x05\n      dup2\n      gt\n      iszero\n      tag_197\n      jumpi\n      tag_198\n      tag_141\n      jump\t// in\n    tag_198:\n    tag_197:\n      eq\n        /* \"ChildLabourDataManagement.sol\":9322:9385  entitytype == IRegistration.EntityType.Guardian && isRegistered */\n      dup1\n      iszero\n      tag_199\n      jumpi\n      pop\n        /* \"ChildLabourDataManagement.sol\":9373:9385  isRegistered */\n      dup1\n        /* \"ChildLabourDataManagement.sol\":9322:9385  entitytype == IRegistration.EntityType.Guardian && isRegistered */\n    tag_199:\n        /* \"ChildLabourDataManagement.sol\":9314:9435  require(entitytype == IRegistration.EntityType.Guardian && isRegistered, \"Only the Child Guardian can run this function\") */\n      tag_200\n      jumpi\n      mload(0x40)\n      0x08c379a000000000000000000000000000000000000000000000000000000000\n      dup2\n      mstore\n      0x04\n      add\n      tag_201\n      swap1\n      tag_202\n      jump\t// in\n    tag_201:\n      mload(0x40)\n      dup1\n      swap2\n      sub\n      swap1\n      revert\n    tag_200:\n        /* \"ChildLabourDataManagement.sol\":9497:9507  msg.sender */\n      caller\n        /* \"ChildLabourDataManagement.sol\":9454:9507  childRemediationData[_childId].guardian == msg.sender */\n      0xffffffffffffffffffffffffffffffffffffffff\n      and\n        /* \"ChildLabourDataManagement.sol\":9454:9474  childRemediationData */\n      0x08\n        /* \"ChildLabourDataManagement.sol\":9454:9484  childRemediationData[_childId] */\n      0x00\n        /* \"ChildLabourDataManagement.sol\":9475:9483  _childId */\n      dup6\n        /* \"ChildLabourDataManagement.sol\":9454:9484  childRemediationData[_childId] */\n      dup2\n      mstore\n      0x20\n      add\n      swap1\n      dup2\n      mstore\n      0x20\n      add\n      0x00\n      keccak256\n        /* \"ChildLabourDataManagement.sol\":9454:9493  childRemediationData[_childId].guardian */\n      0x00\n      add\n      0x00\n      swap1\n      sload\n      swap1\n      0x0100\n      exp\n      swap1\n      div\n      0xffffffffffffffffffffffffffffffffffffffff\n      and\n        /* \"ChildLabourDataManagement.sol\":9454:9507  childRemediationData[_childId].guardian == msg.sender */\n      0xffffffffffffffffffffffffffffffffffffffff\n      and\n      eq\n        /* \"ChildLabourDataManagement.sol\":9446:9574  require(childRemediationData[_childId].guardian == msg.sender, \"Only the assigned Guardian to this child can run this function\") */\n      tag_203\n      jumpi\n      mload(0x40)\n      0x08c379a000000000000000000000000000000000000000000000000000000000\n      dup2\n      mstore\n      0x04\n      add\n      tag_204\n      swap1\n      tag_205\n      jump\t// in\n    tag_204:\n      mload(0x40)\n      dup1\n      swap2\n      sub\n      swap1\n      revert\n    tag_203:\n        /* \"ChildLabourDataManagement.sol\":17641:17680  ChildRemediation memory remediationdata */\n      0x00\n        /* \"ChildLabourDataManagement.sol\":17683:17703  childRemediationData */\n      0x08\n        /* \"ChildLabourDataManagement.sol\":17683:17713  childRemediationData[_childId] */\n      0x00\n        /* \"ChildLabourDataManagement.sol\":17704:17712  _childId */\n      dup7\n        /* \"ChildLabourDataManagement.sol\":17683:17713  childRemediationData[_childId] */\n      dup2\n      mstore\n      0x20\n      add\n      swap1\n      dup2\n      mstore\n      0x20\n      add\n      0x00\n      keccak256\n        /* \"ChildLabourDataManagement.sol\":17641:17713  ChildRemediation memory remediationdata = childRemediationData[_childId] */\n      mload(0x40)\n      dup1\n      0xe0\n      add\n      0x40\n      mstore\n      swap1\n      dup2\n      0x00\n      dup3\n      add\n      0x00\n      swap1\n      sload\n      swap1\n      0x0100\n      exp\n      swap1\n      div\n      0xffffffffffffffffffffffffffffffffffffffff\n      and\n      0xffffffffffffffffffffffffffffffffffffffff\n      and\n      0xffffffffffffffffffffffffffffffffffffffff\n      and\n      dup2\n      mstore\n      0x20\n      add\n      0x01\n      dup3\n      add\n      sload\n      dup2\n      mstore\n      0x20\n      add\n      0x02\n      dup3\n      add\n      sload\n      dup2\n      mstore\n      0x20\n      add\n      0x03\n      dup3\n      add\n      sload\n      dup2\n      mstore\n      0x20\n      add\n      0x04\n      dup3\n      add\n      sload\n      dup2\n      mstore\n      0x20\n      add\n      0x05\n      dup3\n      add\n      sload\n      dup2\n      mstore\n      0x20\n      add\n      0x06\n      dup3\n      add\n      0x00\n      swap1\n      sload\n      swap1\n      0x0100\n      exp\n      swap1\n      div\n      0xff\n      and\n      0x03\n      dup2\n      gt\n      iszero\n      tag_207\n      jumpi\n      tag_208\n      tag_141\n      jump\t// in\n    tag_208:\n    tag_207:\n      0x03\n      dup2\n      gt\n      iszero\n      tag_209\n      jumpi\n      tag_210\n      tag_141\n      jump\t// in\n    tag_210:\n    tag_209:\n      dup2\n      mstore\n      pop\n      pop\n      swap1\n      pop\n        /* \"ChildLabourDataManagement.sol\":17744:17745  1 */\n      0x01\n        /* \"ChildLabourDataManagement.sol\":17732:17740  _childId */\n      dup6\n        /* \"ChildLabourDataManagement.sol\":17732:17745  _childId >= 1 */\n      lt\n      iszero\n        /* \"ChildLabourDataManagement.sol\":17732:17800  _childId >= 1 && _childId <= reportChildrenCount[_violationReportId] */\n      dup1\n      iszero\n      tag_211\n      jumpi\n      pop\n        /* \"ChildLabourDataManagement.sol\":17761:17780  reportChildrenCount */\n      0x07\n        /* \"ChildLabourDataManagement.sol\":17761:17800  reportChildrenCount[_violationReportId] */\n      0x00\n        /* \"ChildLabourDataManagement.sol\":17781:17799  _violationReportId */\n      dup8\n        /* \"ChildLabourDataManagement.sol\":17761:17800  reportChildrenCount[_violationReportId] */\n      dup2\n      mstore\n      0x20\n      add\n      swap1\n      dup2\n      mstore\n      0x20\n      add\n      0x00\n      keccak256\n      sload\n        /* \"ChildLabourDataManagement.sol\":17749:17757  _childId */\n      dup6\n        /* \"ChildLabourDataManagement.sol\":17749:17800  _childId <= reportChildrenCount[_violationReportId] */\n      gt\n      iszero\n        /* \"ChildLabourDataManagement.sol\":17732:17800  _childId >= 1 && _childId <= reportChildrenCount[_violationReportId] */\n    tag_211:\n        /* \"ChildLabourDataManagement.sol\":17724:17821  require(_childId >= 1 && _childId <= reportChildrenCount[_violationReportId], \"Invalid Child ID\") */\n      tag_212\n      jumpi\n      mload(0x40)\n      0x08c379a000000000000000000000000000000000000000000000000000000000\n      dup2\n      mstore\n      0x04\n      add\n      tag_213\n      swap1\n      tag_214\n      jump\t// in\n    tag_213:\n      mload(0x40)\n      dup1\n      swap2\n      sub\n      swap1\n      revert\n    tag_212:\n        /* \"ChildLabourDataManagement.sol\":17866:17891  ChildStatus.InRemediation */\n      0x02\n        /* \"ChildLabourDataManagement.sol\":17840:17891  remediationdata.status == ChildStatus.InRemediation */\n      0x03\n      dup2\n      gt\n      iszero\n      tag_215\n      jumpi\n      tag_216\n      tag_141\n      jump\t// in\n    tag_216:\n    tag_215:\n        /* \"ChildLabourDataManagement.sol\":17840:17855  remediationdata */\n      dup2\n        /* \"ChildLabourDataManagement.sol\":17840:17862  remediationdata.status */\n      0xc0\n      add\n      mload\n        /* \"ChildLabourDataManagement.sol\":17840:17891  remediationdata.status == ChildStatus.InRemediation */\n      0x03\n      dup2\n      gt\n      iszero\n      tag_217\n      jumpi\n      tag_218\n      tag_141\n      jump\t// in\n    tag_218:\n    tag_217:\n      eq\n        /* \"ChildLabourDataManagement.sol\":17832:17938  require(remediationdata.status == ChildStatus.InRemediation, \"This child is not currently in remediation\") */\n      tag_219\n      jumpi\n      mload(0x40)\n      0x08c379a000000000000000000000000000000000000000000000000000000000\n      dup2\n      mstore\n      0x04\n      add\n      tag_220\n      swap1\n      tag_221\n      jump\t// in\n    tag_220:\n      mload(0x40)\n      dup1\n      swap2\n      sub\n      swap1\n      revert\n    tag_219:\n        /* \"ChildLabourDataManagement.sol\":17976:17991  remediationdata */\n      dup1\n        /* \"ChildLabourDataManagement.sol\":17976:18013  remediationdata.remediationCompletion */\n      0x60\n      add\n      mload\n        /* \"ChildLabourDataManagement.sol\":17957:17972  block.timestamp */\n      timestamp\n        /* \"ChildLabourDataManagement.sol\":17957:18013  block.timestamp >= remediationdata.remediationCompletion */\n      lt\n      iszero\n        /* \"ChildLabourDataManagement.sol\":17949:18063  require(block.timestamp >= remediationdata.remediationCompletion, \"The time window for remediation is still open\") */\n      tag_222\n      jumpi\n      mload(0x40)\n      0x08c379a000000000000000000000000000000000000000000000000000000000\n      dup2\n      mstore\n      0x04\n      add\n      tag_223\n      swap1\n      tag_224\n      jump\t// in\n    tag_223:\n      mload(0x40)\n      dup1\n      swap2\n      sub\n      swap1\n      revert\n    tag_222:\n        /* \"ChildLabourDataManagement.sol\":18116:18139  ChildStatus.TakenCareOf */\n      0x03\n        /* \"ChildLabourDataManagement.sol\":18076:18096  childRemediationData */\n      0x08\n        /* \"ChildLabourDataManagement.sol\":18076:18106  childRemediationData[_childId] */\n      0x00\n        /* \"ChildLabourDataManagement.sol\":18097:18105  _childId */\n      dup8\n        /* \"ChildLabourDataManagement.sol\":18076:18106  childRemediationData[_childId] */\n      dup2\n      mstore\n      0x20\n      add\n      swap1\n      dup2\n      mstore\n      0x20\n      add\n      0x00\n      keccak256\n        /* \"ChildLabourDataManagement.sol\":18076:18113  childRemediationData[_childId].status */\n      0x06\n      add\n      0x00\n        /* \"ChildLabourDataManagement.sol\":18076:18139  childRemediationData[_childId].status = ChildStatus.TakenCareOf */\n      0x0100\n      exp\n      dup2\n      sload\n      dup2\n      0xff\n      mul\n      not\n      and\n      swap1\n      dup4\n      0x03\n      dup2\n      gt\n      iszero\n      tag_225\n      jumpi\n      tag_226\n      tag_141\n      jump\t// in\n    tag_226:\n    tag_225:\n      mul\n      or\n      swap1\n      sstore\n      pop\n        /* \"ChildLabourDataManagement.sol\":18195:18210  block.timestamp */\n      timestamp\n        /* \"ChildLabourDataManagement.sol\":18150:18170  childRemediationData */\n      0x08\n        /* \"ChildLabourDataManagement.sol\":18150:18180  childRemediationData[_childId] */\n      0x00\n        /* \"ChildLabourDataManagement.sol\":18171:18179  _childId */\n      dup8\n        /* \"ChildLabourDataManagement.sol\":18150:18180  childRemediationData[_childId] */\n      dup2\n      mstore\n      0x20\n      add\n      swap1\n      dup2\n      mstore\n      0x20\n      add\n      0x00\n      keccak256\n        /* \"ChildLabourDataManagement.sol\":18150:18192  childRemediationData[_childId].lastUpdated */\n      0x04\n      add\n        /* \"ChildLabourDataManagement.sol\":18150:18210  childRemediationData[_childId].lastUpdated = block.timestamp */\n      dup2\n      swap1\n      sstore\n      pop\n        /* \"ChildLabourDataManagement.sol\":18228:18295  RemediationCompleted(_violationReportId, _childId, block.timestamp) */\n      0xf0759b1c58f2eb04b7275484184a141f88fedeb54c9a6a48b4e7d9d332edb1a7\n        /* \"ChildLabourDataManagement.sol\":18249:18267  _violationReportId */\n      dup7\n        /* \"ChildLabourDataManagement.sol\":18269:18277  _childId */\n      dup7\n        /* \"ChildLabourDataManagement.sol\":18279:18294  block.timestamp */\n      timestamp\n        /* \"ChildLabourDataManagement.sol\":18228:18295  RemediationCompleted(_violationReportId, _childId, block.timestamp) */\n      mload(0x40)\n      tag_227\n      swap4\n      swap3\n      swap2\n      swap1\n      tag_228\n      jump\t// in\n    tag_227:\n      mload(0x40)\n      dup1\n      swap2\n      sub\n      swap1\n      log1\n        /* \"ChildLabourDataManagement.sol\":17630:18303  {... */\n      pop\n        /* \"ChildLabourDataManagement.sol\":9199:9594  {... */\n      pop\n      pop\n        /* \"ChildLabourDataManagement.sol\":17526:18303  function completeRemediation(uint256 _violationReportId, uint256 _childId) public onlyGuardian(_childId){... */\n      pop\n      pop\n      pop\n      jump\t// out\n        /* \"ChildLabourDataManagement.sol\":12908:13828  function storeChildData(bytes32 _hashedName, uint256 _age, bytes1 _gender, uint256 _violationReportId) public onlyInspectionAgent{... */\n    tag_78:\n        /* \"ChildLabourDataManagement.sol\":8610:8645  IRegistration.EntityType entitytype */\n      0x00\n        /* \"ChildLabourDataManagement.sol\":8647:8664  bool isRegistered */\n      dup1\n        /* \"ChildLabourDataManagement.sol\":8668:8680  Registration */\n      0x00\n      dup1\n      sload\n      swap1\n      0x0100\n      exp\n      swap1\n      div\n      0xffffffffffffffffffffffffffffffffffffffff\n      and\n        /* \"ChildLabourDataManagement.sol\":8668:8690  Registration.getEntity */\n      0xffffffffffffffffffffffffffffffffffffffff\n      and\n      0x75894e8c\n        /* \"ChildLabourDataManagement.sol\":8691:8701  msg.sender */\n      caller\n        /* \"ChildLabourDataManagement.sol\":8668:8702  Registration.getEntity(msg.sender) */\n      mload(0x40)\n      dup3\n      0xffffffff\n      and\n      0xe0\n      shl\n      dup2\n      mstore\n      0x04\n      add\n      tag_230\n      swap2\n      swap1\n      tag_134\n      jump\t// in\n    tag_230:\n      0x40\n      dup1\n      mload\n      dup1\n      dup4\n      sub\n      dup2\n      0x00\n      dup8\n      gas\n      call\n      iszero\n      dup1\n      iszero\n      tag_232\n      jumpi\n      returndatasize\n      0x00\n      dup1\n      returndatacopy\n      revert(0x00, returndatasize)\n    tag_232:\n      pop\n      pop\n      pop\n      pop\n      mload(0x40)\n      returndatasize\n      not(0x1f)\n      0x1f\n      dup3\n      add\n      and\n      dup3\n      add\n      dup1\n      0x40\n      mstore\n      pop\n      dup2\n      add\n      swap1\n      tag_233\n      swap2\n      swap1\n      tag_138\n      jump\t// in\n    tag_233:\n        /* \"ChildLabourDataManagement.sol\":8609:8702  (IRegistration.EntityType entitytype, bool isRegistered) = Registration.getEntity(msg.sender) */\n      swap2\n      pop\n      swap2\n      pop\n        /* \"ChildLabourDataManagement.sol\":8735:8775  IRegistration.EntityType.InspectionAgent */\n      0x02\n        /* \"ChildLabourDataManagement.sol\":8721:8775  entitytype == IRegistration.EntityType.InspectionAgent */\n      0x05\n      dup2\n      gt\n      iszero\n      tag_234\n      jumpi\n      tag_235\n      tag_141\n      jump\t// in\n    tag_235:\n    tag_234:\n        /* \"ChildLabourDataManagement.sol\":8721:8731  entitytype */\n      dup3\n        /* \"ChildLabourDataManagement.sol\":8721:8775  entitytype == IRegistration.EntityType.InspectionAgent */\n      0x05\n      dup2\n      gt\n      iszero\n      tag_236\n      jumpi\n      tag_237\n      tag_141\n      jump\t// in\n    tag_237:\n    tag_236:\n      eq\n        /* \"ChildLabourDataManagement.sol\":8721:8791  entitytype == IRegistration.EntityType.InspectionAgent && isRegistered */\n      dup1\n      iszero\n      tag_238\n      jumpi\n      pop\n        /* \"ChildLabourDataManagement.sol\":8779:8791  isRegistered */\n      dup1\n        /* \"ChildLabourDataManagement.sol\":8721:8791  entitytype == IRegistration.EntityType.InspectionAgent && isRegistered */\n    tag_238:\n        /* \"ChildLabourDataManagement.sol\":8713:8843  require(entitytype == IRegistration.EntityType.InspectionAgent && isRegistered, \"Only the Inspection Agent can run this function\") */\n      tag_239\n      jumpi\n      mload(0x40)\n      0x08c379a000000000000000000000000000000000000000000000000000000000\n      dup2\n      mstore\n      0x04\n      add\n      tag_240\n      swap1\n      tag_163\n      jump\t// in\n    tag_240:\n      mload(0x40)\n      dup1\n      swap2\n      sub\n      swap1\n      revert\n    tag_239:\n        /* \"ChildLabourDataManagement.sol\":13079:13080  0 */\n      0x00\n        /* \"ChildLabourDataManagement.sol\":13071:13081  bytes32(0) */\n      dup1\n      shl\n        /* \"ChildLabourDataManagement.sol\":13056:13067  _hashedName */\n      dup7\n        /* \"ChildLabourDataManagement.sol\":13056:13081  _hashedName != bytes32(0) */\n      sub\n        /* \"ChildLabourDataManagement.sol\":13048:13105  require(_hashedName != bytes32(0), \"Invalid hashed name\") */\n      tag_242\n      jumpi\n      mload(0x40)\n      0x08c379a000000000000000000000000000000000000000000000000000000000\n      dup2\n      mstore\n      0x04\n      add\n      tag_243\n      swap1\n      tag_244\n      jump\t// in\n    tag_243:\n      mload(0x40)\n      dup1\n      swap2\n      sub\n      swap1\n      revert\n    tag_242:\n        /* \"ChildLabourDataManagement.sol\":13131:13132  0 */\n      0x00\n        /* \"ChildLabourDataManagement.sol\":13124:13128  _age */\n      dup6\n        /* \"ChildLabourDataManagement.sol\":13124:13132  _age > 0 */\n      gt\n        /* \"ChildLabourDataManagement.sol\":13116:13149  require(_age > 0 , \"Invalid Age\") */\n      tag_245\n      jumpi\n      mload(0x40)\n      0x08c379a000000000000000000000000000000000000000000000000000000000\n      dup2\n      mstore\n      0x04\n      add\n      tag_246\n      swap1\n      tag_247\n      jump\t// in\n    tag_246:\n      mload(0x40)\n      dup1\n      swap2\n      sub\n      swap1\n      revert\n    tag_245:\n        /* \"ChildLabourDataManagement.sol\":13168:13190  bytes1(_gender) == \"M\" */\n      0x4d00000000000000000000000000000000000000000000000000000000000000\n        /* \"ChildLabourDataManagement.sol\":13175:13182  _gender */\n      dup5\n        /* \"ChildLabourDataManagement.sol\":13168:13190  bytes1(_gender) == \"M\" */\n      not(0xffffffffffffffffffffffffffffffffffffffffffffffffffffffffffffff)\n      and\n      eq\n        /* \"ChildLabourDataManagement.sol\":13168:13216  bytes1(_gender) == \"M\" || bytes1(_gender) == \"F\" */\n      dup1\n      tag_248\n      jumpi\n      pop\n        /* \"ChildLabourDataManagement.sol\":13194:13216  bytes1(_gender) == \"F\" */\n      0x4600000000000000000000000000000000000000000000000000000000000000\n        /* \"ChildLabourDataManagement.sol\":13201:13208  _gender */\n      dup5\n        /* \"ChildLabourDataManagement.sol\":13194:13216  bytes1(_gender) == \"F\" */\n      not(0xffffffffffffffffffffffffffffffffffffffffffffffffffffffffffffff)\n      and\n      eq\n        /* \"ChildLabourDataManagement.sol\":13168:13216  bytes1(_gender) == \"M\" || bytes1(_gender) == \"F\" */\n    tag_248:\n        /* \"ChildLabourDataManagement.sol\":13160:13235  require(bytes1(_gender) == \"M\" || bytes1(_gender) == \"F\", \"Invalid Gender\") */\n      tag_249\n      jumpi\n      mload(0x40)\n      0x08c379a000000000000000000000000000000000000000000000000000000000\n      dup2\n      mstore\n      0x04\n      add\n      tag_250\n      swap1\n      tag_251\n      jump\t// in\n    tag_250:\n      mload(0x40)\n      dup1\n      swap2\n      sub\n      swap1\n      revert\n    tag_249:\n        /* \"ChildLabourDataManagement.sol\":13276:13277  1 */\n      0x01\n        /* \"ChildLabourDataManagement.sol\":13254:13272  _violationReportId */\n      dup4\n        /* \"ChildLabourDataManagement.sol\":13254:13277  _violationReportId >= 1 */\n      lt\n      iszero\n        /* \"ChildLabourDataManagement.sol\":13254:13314  _violationReportId >= 1 && _violationReportId <= reportCount */\n      dup1\n      iszero\n      tag_252\n      jumpi\n      pop\n        /* \"ChildLabourDataManagement.sol\":13303:13314  reportCount */\n      sload(0x02)\n        /* \"ChildLabourDataManagement.sol\":13281:13299  _violationReportId */\n      dup4\n        /* \"ChildLabourDataManagement.sol\":13281:13314  _violationReportId <= reportCount */\n      gt\n      iszero\n        /* \"ChildLabourDataManagement.sol\":13254:13314  _violationReportId >= 1 && _violationReportId <= reportCount */\n    tag_252:\n        /* \"ChildLabourDataManagement.sol\":13246:13336  require(_violationReportId >= 1 && _violationReportId <= reportCount, \"Invalid Report ID\") */\n      tag_253\n      jumpi\n      mload(0x40)\n      0x08c379a000000000000000000000000000000000000000000000000000000000\n      dup2\n      mstore\n      0x04\n      add\n      tag_254\n      swap1\n      tag_168\n      jump\t// in\n    tag_254:\n      mload(0x40)\n      dup1\n      swap2\n      sub\n      swap1\n      revert\n    tag_253:\n        /* \"ChildLabourDataManagement.sol\":13349:13368  reportChildrenCount */\n      0x07\n        /* \"ChildLabourDataManagement.sol\":13349:13388  reportChildrenCount[_violationReportId] */\n      0x00\n        /* \"ChildLabourDataManagement.sol\":13369:13387  _violationReportId */\n      dup5\n        /* \"ChildLabourDataManagement.sol\":13349:13388  reportChildrenCount[_violationReportId] */\n      dup2\n      mstore\n      0x20\n      add\n      swap1\n      dup2\n      mstore\n      0x20\n      add\n      0x00\n      keccak256\n      0x00\n        /* \"ChildLabourDataManagement.sol\":13349:13391  reportChildrenCount[_violationReportId] ++ */\n      dup2\n      sload\n      dup1\n      swap3\n      swap2\n      swap1\n      tag_255\n      swap1\n      tag_256\n      jump\t// in\n    tag_255:\n      swap2\n      swap1\n      pop\n      sstore\n      pop\n        /* \"ChildLabourDataManagement.sol\":13475:13594  ChildData(reportChildrenCount[_violationReportId], _hashedName, _age, _gender, _violationReportId, ChildStatus.Spotted) */\n      mload(0x40)\n      dup1\n      0xc0\n      add\n      0x40\n      mstore\n      dup1\n        /* \"ChildLabourDataManagement.sol\":13485:13504  reportChildrenCount */\n      0x07\n        /* \"ChildLabourDataManagement.sol\":13485:13524  reportChildrenCount[_violationReportId] */\n      0x00\n        /* \"ChildLabourDataManagement.sol\":13505:13523  _violationReportId */\n      dup7\n        /* \"ChildLabourDataManagement.sol\":13485:13524  reportChildrenCount[_violationReportId] */\n      dup2\n      mstore\n      0x20\n      add\n      swap1\n      dup2\n      mstore\n      0x20\n      add\n      0x00\n      keccak256\n      sload\n        /* \"ChildLabourDataManagement.sol\":13475:13594  ChildData(reportChildrenCount[_violationReportId], _hashedName, _age, _gender, _violationReportId, ChildStatus.Spotted) */\n      dup2\n      mstore\n      0x20\n      add\n        /* \"ChildLabourDataManagement.sol\":13526:13537  _hashedName */\n      dup8\n        /* \"ChildLabourDataManagement.sol\":13475:13594  ChildData(reportChildrenCount[_violationReportId], _hashedName, _age, _gender, _violationReportId, ChildStatus.Spotted) */\n      dup2\n      mstore\n      0x20\n      add\n        /* \"ChildLabourDataManagement.sol\":13539:13543  _age */\n      dup7\n        /* \"ChildLabourDataManagement.sol\":13475:13594  ChildData(reportChildrenCount[_violationReportId], _hashedName, _age, _gender, _violationReportId, ChildStatus.Spotted) */\n      dup2\n      mstore\n      0x20\n      add\n        /* \"ChildLabourDataManagement.sol\":13545:13552  _gender */\n      dup6\n        /* \"ChildLabourDataManagement.sol\":13475:13594  ChildData(reportChildrenCount[_violationReportId], _hashedName, _age, _gender, _violationReportId, ChildStatus.Spotted) */\n      not(0xffffffffffffffffffffffffffffffffffffffffffffffffffffffffffffff)\n      and\n      dup2\n      mstore\n      0x20\n      add\n        /* \"ChildLabourDataManagement.sol\":13554:13572  _violationReportId */\n      dup5\n        /* \"ChildLabourDataManagement.sol\":13475:13594  ChildData(reportChildrenCount[_violationReportId], _hashedName, _age, _gender, _violationReportId, ChildStatus.Spotted) */\n      dup2\n      mstore\n      0x20\n      add\n        /* \"ChildLabourDataManagement.sol\":13574:13593  ChildStatus.Spotted */\n      0x00\n        /* \"ChildLabourDataManagement.sol\":13475:13594  ChildData(reportChildrenCount[_violationReportId], _hashedName, _age, _gender, _violationReportId, ChildStatus.Spotted) */\n      0x03\n      dup2\n      gt\n      iszero\n      tag_257\n      jumpi\n      tag_258\n      tag_141\n      jump\t// in\n    tag_258:\n    tag_257:\n      dup2\n      mstore\n      pop\n        /* \"ChildLabourDataManagement.sol\":13402:13411  childData */\n      0x06\n        /* \"ChildLabourDataManagement.sol\":13402:13431  childData[_violationReportId] */\n      0x00\n        /* \"ChildLabourDataManagement.sol\":13412:13430  _violationReportId */\n      dup6\n        /* \"ChildLabourDataManagement.sol\":13402:13431  childData[_violationReportId] */\n      dup2\n      mstore\n      0x20\n      add\n      swap1\n      dup2\n      mstore\n      0x20\n      add\n      0x00\n      keccak256\n        /* \"ChildLabourDataManagement.sol\":13402:13472  childData[_violationReportId][reportChildrenCount[_violationReportId]] */\n      0x00\n        /* \"ChildLabourDataManagement.sol\":13432:13451  reportChildrenCount */\n      0x07\n        /* \"ChildLabourDataManagement.sol\":13432:13471  reportChildrenCount[_violationReportId] */\n      0x00\n        /* \"ChildLabourDataManagement.sol\":13452:13470  _violationReportId */\n      dup8\n        /* \"ChildLabourDataManagement.sol\":13432:13471  reportChildrenCount[_violationReportId] */\n      dup2\n      mstore\n      0x20\n      add\n      swap1\n      dup2\n      mstore\n      0x20\n      add\n      0x00\n      keccak256\n      sload\n        /* \"ChildLabourDataManagement.sol\":13402:13472  childData[_violationReportId][reportChildrenCount[_violationReportId]] */\n      dup2\n      mstore\n      0x20\n      add\n      swap1\n      dup2\n      mstore\n      0x20\n      add\n      0x00\n      keccak256\n        /* \"ChildLabourDataManagement.sol\":13402:13594  childData[_violationReportId][reportChildrenCount[_violationReportId]] = ChildData(reportChildrenCount[_violationReportId], _hashedName, _age, _gender, _violationReportId, ChildStatus.Spotted) */\n      0x00\n      dup3\n      add\n      mload\n      dup2\n      0x00\n      add\n      sstore\n      0x20\n      dup3\n      add\n      mload\n      dup2\n      0x01\n      add\n      sstore\n      0x40\n      dup3\n      add\n      mload\n      dup2\n      0x02\n      add\n      sstore\n      0x60\n      dup3\n      add\n      mload\n      dup2\n      0x03\n      add\n      exp(0x0100, 0x00)\n      dup2\n      sload\n      dup2\n      0xff\n      mul\n      not\n      and\n      swap1\n      dup4\n      0xf8\n      shr\n      mul\n      or\n      swap1\n      sstore\n      pop\n      0x80\n      dup3\n      add\n      mload\n      dup2\n      0x04\n      add\n      sstore\n      0xa0\n      dup3\n      add\n      mload\n      dup2\n      0x05\n      add\n      exp(0x0100, 0x00)\n      dup2\n      sload\n      dup2\n      0xff\n      mul\n      not\n      and\n      swap1\n      dup4\n      0x03\n      dup2\n      gt\n      iszero\n      tag_259\n      jumpi\n      tag_260\n      tag_141\n      jump\t// in\n    tag_260:\n    tag_259:\n      mul\n      or\n      swap1\n      sstore\n      pop\n      swap1\n      pop\n      pop\n        /* \"ChildLabourDataManagement.sol\":13680:13698  _violationReportId */\n      dup3\n        /* \"ChildLabourDataManagement.sol\":13617:13636  child2ReportMapping */\n      0x05\n        /* \"ChildLabourDataManagement.sol\":13617:13677  child2ReportMapping[reportChildrenCount[_violationReportId]] */\n      0x00\n        /* \"ChildLabourDataManagement.sol\":13637:13656  reportChildrenCount */\n      0x07\n        /* \"ChildLabourDataManagement.sol\":13637:13676  reportChildrenCount[_violationReportId] */\n      0x00\n        /* \"ChildLabourDataManagement.sol\":13657:13675  _violationReportId */\n      dup8\n        /* \"ChildLabourDataManagement.sol\":13637:13676  reportChildrenCount[_violationReportId] */\n      dup2\n      mstore\n      0x20\n      add\n      swap1\n      dup2\n      mstore\n      0x20\n      add\n      0x00\n      keccak256\n      sload\n        /* \"ChildLabourDataManagement.sol\":13617:13677  child2ReportMapping[reportChildrenCount[_violationReportId]] */\n      dup2\n      mstore\n      0x20\n      add\n      swap1\n      dup2\n      mstore\n      0x20\n      add\n      0x00\n      keccak256\n        /* \"ChildLabourDataManagement.sol\":13617:13698  child2ReportMapping[reportChildrenCount[_violationReportId]] = _violationReportId */\n      dup2\n      swap1\n      sstore\n      pop\n        /* \"ChildLabourDataManagement.sol\":13716:13820  ChildDataStored(reportChildrenCount[_violationReportId], _hashedName, _age, _gender, _violationReportId) */\n      0x8f6937edcd05ce1c1912e225ec700cb996d92333e3b1631ce16e703fc6b8e77a\n        /* \"ChildLabourDataManagement.sol\":13732:13751  reportChildrenCount */\n      0x07\n        /* \"ChildLabourDataManagement.sol\":13732:13771  reportChildrenCount[_violationReportId] */\n      0x00\n        /* \"ChildLabourDataManagement.sol\":13752:13770  _violationReportId */\n      dup6\n        /* \"ChildLabourDataManagement.sol\":13732:13771  reportChildrenCount[_violationReportId] */\n      dup2\n      mstore\n      0x20\n      add\n      swap1\n      dup2\n      mstore\n      0x20\n      add\n      0x00\n      keccak256\n      sload\n        /* \"ChildLabourDataManagement.sol\":13773:13784  _hashedName */\n      dup8\n        /* \"ChildLabourDataManagement.sol\":13786:13790  _age */\n      dup8\n        /* \"ChildLabourDataManagement.sol\":13792:13799  _gender */\n      dup8\n        /* \"ChildLabourDataManagement.sol\":13801:13819  _violationReportId */\n      dup8\n        /* \"ChildLabourDataManagement.sol\":13716:13820  ChildDataStored(reportChildrenCount[_violationReportId], _hashedName, _age, _gender, _violationReportId) */\n      mload(0x40)\n      tag_261\n      swap6\n      swap5\n      swap4\n      swap3\n      swap2\n      swap1\n      tag_262\n      jump\t// in\n    tag_261:\n      mload(0x40)\n      dup1\n      swap2\n      sub\n      swap1\n      log1\n        /* \"ChildLabourDataManagement.sol\":8598:8863  {... */\n      pop\n      pop\n        /* \"ChildLabourDataManagement.sol\":12908:13828  function storeChildData(bytes32 _hashedName, uint256 _age, bytes1 _gender, uint256 _violationReportId) public onlyInspectionAgent{... */\n      pop\n      pop\n      pop\n      pop\n      jump\t// out\n        /* \"ChildLabourDataManagement.sol\":13836:14779  function getChildData(uint256 _violationReportId, uint256 _childId) public returns(bytes32 hashedName, uint256 age, bytes1 gender, bytes32 reportipfshash){... */\n    tag_81:\n        /* \"ChildLabourDataManagement.sol\":13919:13937  bytes32 hashedName */\n      0x00\n        /* \"ChildLabourDataManagement.sol\":13939:13950  uint256 age */\n      dup1\n        /* \"ChildLabourDataManagement.sol\":13952:13965  bytes1 gender */\n      0x00\n        /* \"ChildLabourDataManagement.sol\":13967:13989  bytes32 reportipfshash */\n      dup1\n        /* \"ChildLabourDataManagement.sol\":14002:14037  IRegistration.EntityType entitytype */\n      0x00\n        /* \"ChildLabourDataManagement.sol\":14039:14056  bool isRegistered */\n      dup1\n        /* \"ChildLabourDataManagement.sol\":14060:14072  Registration */\n      0x00\n      dup1\n      sload\n      swap1\n      0x0100\n      exp\n      swap1\n      div\n      0xffffffffffffffffffffffffffffffffffffffff\n      and\n        /* \"ChildLabourDataManagement.sol\":14060:14082  Registration.getEntity */\n      0xffffffffffffffffffffffffffffffffffffffff\n      and\n      0x75894e8c\n        /* \"ChildLabourDataManagement.sol\":14083:14093  msg.sender */\n      caller\n        /* \"ChildLabourDataManagement.sol\":14060:14094  Registration.getEntity(msg.sender) */\n      mload(0x40)\n      dup3\n      0xffffffff\n      and\n      0xe0\n      shl\n      dup2\n      mstore\n      0x04\n      add\n      tag_264\n      swap2\n      swap1\n      tag_134\n      jump\t// in\n    tag_264:\n      0x40\n      dup1\n      mload\n      dup1\n      dup4\n      sub\n      dup2\n      0x00\n      dup8\n      gas\n      call\n      iszero\n      dup1\n      iszero\n      tag_266\n      jumpi\n      returndatasize\n      0x00\n      dup1\n      returndatacopy\n      revert(0x00, returndatasize)\n    tag_266:\n      pop\n      pop\n      pop\n      pop\n      mload(0x40)\n      returndatasize\n      not(0x1f)\n      0x1f\n      dup3\n      add\n      and\n      dup3\n      add\n      dup1\n      0x40\n      mstore\n      pop\n      dup2\n      add\n      swap1\n      tag_267\n      swap2\n      swap1\n      tag_138\n      jump\t// in\n    tag_267:\n        /* \"ChildLabourDataManagement.sol\":14001:14094  (IRegistration.EntityType entitytype, bool isRegistered) = Registration.getEntity(msg.sender) */\n      swap2\n      pop\n      swap2\n      pop\n        /* \"ChildLabourDataManagement.sol\":14127:14163  IRegistration.EntityType.DataAnalyst */\n      0x03\n        /* \"ChildLabourDataManagement.sol\":14113:14163  entitytype == IRegistration.EntityType.DataAnalyst */\n      0x05\n      dup2\n      gt\n      iszero\n      tag_268\n      jumpi\n      tag_269\n      tag_141\n      jump\t// in\n    tag_269:\n    tag_268:\n        /* \"ChildLabourDataManagement.sol\":14113:14123  entitytype */\n      dup3\n        /* \"ChildLabourDataManagement.sol\":14113:14163  entitytype == IRegistration.EntityType.DataAnalyst */\n      0x05\n      dup2\n      gt\n      iszero\n      tag_270\n      jumpi\n      tag_271\n      tag_141\n      jump\t// in\n    tag_271:\n    tag_270:\n      eq\n        /* \"ChildLabourDataManagement.sol\":14113:14179  entitytype == IRegistration.EntityType.DataAnalyst && isRegistered */\n      dup1\n      iszero\n      tag_272\n      jumpi\n      pop\n        /* \"ChildLabourDataManagement.sol\":14167:14179  isRegistered */\n      dup1\n        /* \"ChildLabourDataManagement.sol\":14113:14179  entitytype == IRegistration.EntityType.DataAnalyst && isRegistered */\n    tag_272:\n        /* \"ChildLabourDataManagement.sol\":14113:14257  entitytype == IRegistration.EntityType.DataAnalyst && isRegistered || entitytype == IRegistration.EntityType.RegulatoryAuthority && isRegistered */\n      dup1\n      tag_273\n      jumpi\n      pop\n        /* \"ChildLabourDataManagement.sol\":14197:14241  IRegistration.EntityType.RegulatoryAuthority */\n      0x00\n        /* \"ChildLabourDataManagement.sol\":14183:14241  entitytype == IRegistration.EntityType.RegulatoryAuthority */\n      0x05\n      dup2\n      gt\n      iszero\n      tag_274\n      jumpi\n      tag_275\n      tag_141\n      jump\t// in\n    tag_275:\n    tag_274:\n        /* \"ChildLabourDataManagement.sol\":14183:14193  entitytype */\n      dup3\n        /* \"ChildLabourDataManagement.sol\":14183:14241  entitytype == IRegistration.EntityType.RegulatoryAuthority */\n      0x05\n      dup2\n      gt\n      iszero\n      tag_276\n      jumpi\n      tag_277\n      tag_141\n      jump\t// in\n    tag_277:\n    tag_276:\n      eq\n        /* \"ChildLabourDataManagement.sol\":14183:14257  entitytype == IRegistration.EntityType.RegulatoryAuthority && isRegistered */\n      dup1\n      iszero\n      tag_278\n      jumpi\n      pop\n        /* \"ChildLabourDataManagement.sol\":14245:14257  isRegistered */\n      dup1\n        /* \"ChildLabourDataManagement.sol\":14183:14257  entitytype == IRegistration.EntityType.RegulatoryAuthority && isRegistered */\n    tag_278:\n        /* \"ChildLabourDataManagement.sol\":14113:14257  entitytype == IRegistration.EntityType.DataAnalyst && isRegistered || entitytype == IRegistration.EntityType.RegulatoryAuthority && isRegistered */\n    tag_273:\n        /* \"ChildLabourDataManagement.sol\":14105:14331  require(entitytype == IRegistration.EntityType.DataAnalyst && isRegistered || entitytype == IRegistration.EntityType.RegulatoryAuthority && isRegistered, \"Only the Regulatory Authority and Data Analysts can run this function\") */\n      tag_279\n      jumpi\n      mload(0x40)\n      0x08c379a000000000000000000000000000000000000000000000000000000000\n      dup2\n      mstore\n      0x04\n      add\n      tag_280\n      swap1\n      tag_281\n      jump\t// in\n    tag_280:\n      mload(0x40)\n      dup1\n      swap2\n      sub\n      swap1\n      revert\n    tag_279:\n        /* \"ChildLabourDataManagement.sol\":14372:14373  1 */\n      0x01\n        /* \"ChildLabourDataManagement.sol\":14350:14368  _violationReportId */\n      dup9\n        /* \"ChildLabourDataManagement.sol\":14350:14373  _violationReportId >= 1 */\n      lt\n      iszero\n        /* \"ChildLabourDataManagement.sol\":14350:14410  _violationReportId >= 1 && _violationReportId <= reportCount */\n      dup1\n      iszero\n      tag_282\n      jumpi\n      pop\n        /* \"ChildLabourDataManagement.sol\":14399:14410  reportCount */\n      sload(0x02)\n        /* \"ChildLabourDataManagement.sol\":14377:14395  _violationReportId */\n      dup9\n        /* \"ChildLabourDataManagement.sol\":14377:14410  _violationReportId <= reportCount */\n      gt\n      iszero\n        /* \"ChildLabourDataManagement.sol\":14350:14410  _violationReportId >= 1 && _violationReportId <= reportCount */\n    tag_282:\n        /* \"ChildLabourDataManagement.sol\":14342:14432  require(_violationReportId >= 1 && _violationReportId <= reportCount, \"Invalid Report ID\") */\n      tag_283\n      jumpi\n      mload(0x40)\n      0x08c379a000000000000000000000000000000000000000000000000000000000\n      dup2\n      mstore\n      0x04\n      add\n      tag_284\n      swap1\n      tag_168\n      jump\t// in\n    tag_284:\n      mload(0x40)\n      dup1\n      swap2\n      sub\n      swap1\n      revert\n    tag_283:\n        /* \"ChildLabourDataManagement.sol\":14463:14464  1 */\n      0x01\n        /* \"ChildLabourDataManagement.sol\":14451:14459  _childId */\n      dup8\n        /* \"ChildLabourDataManagement.sol\":14451:14464  _childId >= 1 */\n      lt\n      iszero\n        /* \"ChildLabourDataManagement.sol\":14451:14519  _childId >= 1 && _childId <= reportChildrenCount[_violationReportId] */\n      dup1\n      iszero\n      tag_285\n      jumpi\n      pop\n        /* \"ChildLabourDataManagement.sol\":14480:14499  reportChildrenCount */\n      0x07\n        /* \"ChildLabourDataManagement.sol\":14480:14519  reportChildrenCount[_violationReportId] */\n      0x00\n        /* \"ChildLabourDataManagement.sol\":14500:14518  _violationReportId */\n      dup10\n        /* \"ChildLabourDataManagement.sol\":14480:14519  reportChildrenCount[_violationReportId] */\n      dup2\n      mstore\n      0x20\n      add\n      swap1\n      dup2\n      mstore\n      0x20\n      add\n      0x00\n      keccak256\n      sload\n        /* \"ChildLabourDataManagement.sol\":14468:14476  _childId */\n      dup8\n        /* \"ChildLabourDataManagement.sol\":14468:14519  _childId <= reportChildrenCount[_violationReportId] */\n      gt\n      iszero\n        /* \"ChildLabourDataManagement.sol\":14451:14519  _childId >= 1 && _childId <= reportChildrenCount[_violationReportId] */\n    tag_285:\n        /* \"ChildLabourDataManagement.sol\":14443:14540  require(_childId >= 1 && _childId <= reportChildrenCount[_violationReportId], \"Invalid Child ID\") */\n      tag_286\n      jumpi\n      mload(0x40)\n      0x08c379a000000000000000000000000000000000000000000000000000000000\n      dup2\n      mstore\n      0x04\n      add\n      tag_287\n      swap1\n      tag_214\n      jump\t// in\n    tag_287:\n      mload(0x40)\n      dup1\n      swap2\n      sub\n      swap1\n      revert\n    tag_286:\n        /* \"ChildLabourDataManagement.sol\":14551:14572  ChildData memory data */\n      0x00\n        /* \"ChildLabourDataManagement.sol\":14575:14584  childData */\n      0x06\n        /* \"ChildLabourDataManagement.sol\":14575:14604  childData[_violationReportId] */\n      0x00\n        /* \"ChildLabourDataManagement.sol\":14585:14603  _violationReportId */\n      dup11\n        /* \"ChildLabourDataManagement.sol\":14575:14604  childData[_violationReportId] */\n      dup2\n      mstore\n      0x20\n      add\n      swap1\n      dup2\n      mstore\n      0x20\n      add\n      0x00\n      keccak256\n        /* \"ChildLabourDataManagement.sol\":14575:14614  childData[_violationReportId][_childId] */\n      0x00\n        /* \"ChildLabourDataManagement.sol\":14605:14613  _childId */\n      dup10\n        /* \"ChildLabourDataManagement.sol\":14575:14614  childData[_violationReportId][_childId] */\n      dup2\n      mstore\n      0x20\n      add\n      swap1\n      dup2\n      mstore\n      0x20\n      add\n      0x00\n      keccak256\n        /* \"ChildLabourDataManagement.sol\":14551:14614  ChildData memory data = childData[_violationReportId][_childId] */\n      mload(0x40)\n      dup1\n      0xc0\n      add\n      0x40\n      mstore\n      swap1\n      dup2\n      0x00\n      dup3\n      add\n      sload\n      dup2\n      mstore\n      0x20\n      add\n      0x01\n      dup3\n      add\n      sload\n      dup2\n      mstore\n      0x20\n      add\n      0x02\n      dup3\n      add\n      sload\n      dup2\n      mstore\n      0x20\n      add\n      0x03\n      dup3\n      add\n      0x00\n      swap1\n      sload\n      swap1\n      0x0100\n      exp\n      swap1\n      div\n      0xf8\n      shl\n      not(0xffffffffffffffffffffffffffffffffffffffffffffffffffffffffffffff)\n      and\n      not(0xffffffffffffffffffffffffffffffffffffffffffffffffffffffffffffff)\n      and\n      dup2\n      mstore\n      0x20\n      add\n      0x04\n      dup3\n      add\n      sload\n      dup2\n      mstore\n      0x20\n      add\n      0x05\n      dup3\n      add\n      0x00\n      swap1\n      sload\n      swap1\n      0x0100\n      exp\n      swap1\n      div\n      0xff\n      and\n      0x03\n      dup2\n      gt\n      iszero\n      tag_288\n      jumpi\n      tag_289\n      tag_141\n      jump\t// in\n    tag_289:\n    tag_288:\n      0x03\n      dup2\n      gt\n      iszero\n      tag_290\n      jumpi\n      tag_291\n      tag_141\n      jump\t// in\n    tag_291:\n    tag_290:\n      dup2\n      mstore\n      pop\n      pop\n      swap1\n      pop\n        /* \"ChildLabourDataManagement.sol\":14625:14654  ViolationReport memory report */\n      0x00\n        /* \"ChildLabourDataManagement.sol\":14657:14673  violationReports */\n      0x04\n        /* \"ChildLabourDataManagement.sol\":14657:14693  violationReports[_violationReportId] */\n      0x00\n        /* \"ChildLabourDataManagement.sol\":14674:14692  _violationReportId */\n      dup12\n        /* \"ChildLabourDataManagement.sol\":14657:14693  violationReports[_violationReportId] */\n      dup2\n      mstore\n      0x20\n      add\n      swap1\n      dup2\n      mstore\n      0x20\n      add\n      0x00\n      keccak256\n        /* \"ChildLabourDataManagement.sol\":14625:14693  ViolationReport memory report = violationReports[_violationReportId] */\n      mload(0x40)\n      dup1\n      0xc0\n      add\n      0x40\n      mstore\n      swap1\n      dup2\n      0x00\n      dup3\n      add\n      0x00\n      swap1\n      sload\n      swap1\n      0x0100\n      exp\n      swap1\n      div\n      0xffffffffffffffffffffffffffffffffffffffff\n      and\n      0xffffffffffffffffffffffffffffffffffffffff\n      and\n      0xffffffffffffffffffffffffffffffffffffffff\n      and\n      dup2\n      mstore\n      0x20\n      add\n      0x01\n      dup3\n      add\n      sload\n      dup2\n      mstore\n      0x20\n      add\n      0x02\n      dup3\n      add\n      sload\n      dup2\n      mstore\n      0x20\n      add\n      0x03\n      dup3\n      add\n      sload\n      dup2\n      mstore\n      0x20\n      add\n      0x04\n      dup3\n      add\n      0x00\n      swap1\n      sload\n      swap1\n      0x0100\n      exp\n      swap1\n      div\n      0xff\n      and\n      iszero\n      iszero\n      iszero\n      iszero\n      dup2\n      mstore\n      0x20\n      add\n      0x04\n      dup3\n      add\n      0x01\n      swap1\n      sload\n      swap1\n      0x0100\n      exp\n      swap1\n      div\n      0xff\n      and\n      iszero\n      iszero\n      iszero\n      iszero\n      dup2\n      mstore\n      pop\n      pop\n      swap1\n      pop\n        /* \"ChildLabourDataManagement.sol\":14715:14719  data */\n      dup2\n        /* \"ChildLabourDataManagement.sol\":14715:14730  data.hashedName */\n      0x20\n      add\n      mload\n        /* \"ChildLabourDataManagement.sol\":14732:14736  data */\n      dup3\n        /* \"ChildLabourDataManagement.sol\":14732:14740  data.age */\n      0x40\n      add\n      mload\n        /* \"ChildLabourDataManagement.sol\":14742:14746  data */\n      dup4\n        /* \"ChildLabourDataManagement.sol\":14742:14753  data.gender */\n      0x60\n      add\n      mload\n        /* \"ChildLabourDataManagement.sol\":14755:14761  report */\n      dup4\n        /* \"ChildLabourDataManagement.sol\":14755:14770  report.ipfsHash */\n      0x60\n      add\n      mload\n        /* \"ChildLabourDataManagement.sol\":14708:14771  return(data.hashedName, data.age, data.gender, report.ipfsHash) */\n      swap8\n      pop\n      swap8\n      pop\n      swap8\n      pop\n      swap8\n      pop\n      pop\n      pop\n      pop\n      pop\n        /* \"ChildLabourDataManagement.sol\":13836:14779  function getChildData(uint256 _violationReportId, uint256 _childId) public returns(bytes32 hashedName, uint256 age, bytes1 gender, bytes32 reportipfshash){... */\n      swap3\n      swap6\n      swap2\n      swap5\n      pop\n      swap3\n      pop\n      jump\t// out\n        /* \"ChildLabourDataManagement.sol\":19379:19562  function revokeAccess( address _user) public onlyRegulatoryAuthority {... */\n    tag_86:\n        /* \"ChildLabourDataManagement.sol\":8003:8038  IRegistration.EntityType entitytype */\n      0x00\n        /* \"ChildLabourDataManagement.sol\":8040:8057  bool isRegistered */\n      dup1\n        /* \"ChildLabourDataManagement.sol\":8061:8073  Registration */\n      0x00\n      dup1\n      sload\n      swap1\n      0x0100\n      exp\n      swap1\n      div\n      0xffffffffffffffffffffffffffffffffffffffff\n      and\n        /* \"ChildLabourDataManagement.sol\":8061:8083  Registration.getEntity */\n      0xffffffffffffffffffffffffffffffffffffffff\n      and\n      0x75894e8c\n        /* \"ChildLabourDataManagement.sol\":8084:8094  msg.sender */\n      caller\n        /* \"ChildLabourDataManagement.sol\":8061:8095  Registration.getEntity(msg.sender) */\n      mload(0x40)\n      dup3\n      0xffffffff\n      and\n      0xe0\n      shl\n      dup2\n      mstore\n      0x04\n      add\n      tag_293\n      swap2\n      swap1\n      tag_134\n      jump\t// in\n    tag_293:\n      0x40\n      dup1\n      mload\n      dup1\n      dup4\n      sub\n      dup2\n      0x00\n      dup8\n      gas\n      call\n      iszero\n      dup1\n      iszero\n      tag_295\n      jumpi\n      returndatasize\n      0x00\n      dup1\n      returndatacopy\n      revert(0x00, returndatasize)\n    tag_295:\n      pop\n      pop\n      pop\n      pop\n      mload(0x40)\n      returndatasize\n      not(0x1f)\n      0x1f\n      dup3\n      add\n      and\n      dup3\n      add\n      dup1\n      0x40\n      mstore\n      pop\n      dup2\n      add\n      swap1\n      tag_296\n      swap2\n      swap1\n      tag_138\n      jump\t// in\n    tag_296:\n        /* \"ChildLabourDataManagement.sol\":8002:8095  (IRegistration.EntityType entitytype, bool isRegistered) = Registration.getEntity(msg.sender) */\n      swap2\n      pop\n      swap2\n      pop\n        /* \"ChildLabourDataManagement.sol\":8128:8172  IRegistration.EntityType.RegulatoryAuthority */\n      0x00\n        /* \"ChildLabourDataManagement.sol\":8114:8172  entitytype == IRegistration.EntityType.RegulatoryAuthority */\n      0x05\n      dup2\n      gt\n      iszero\n      tag_297\n      jumpi\n      tag_298\n      tag_141\n      jump\t// in\n    tag_298:\n    tag_297:\n        /* \"ChildLabourDataManagement.sol\":8114:8124  entitytype */\n      dup3\n        /* \"ChildLabourDataManagement.sol\":8114:8172  entitytype == IRegistration.EntityType.RegulatoryAuthority */\n      0x05\n      dup2\n      gt\n      iszero\n      tag_299\n      jumpi\n      tag_300\n      tag_141\n      jump\t// in\n    tag_300:\n    tag_299:\n      eq\n        /* \"ChildLabourDataManagement.sol\":8114:8188  entitytype == IRegistration.EntityType.RegulatoryAuthority && isRegistered */\n      dup1\n      iszero\n      tag_301\n      jumpi\n      pop\n        /* \"ChildLabourDataManagement.sol\":8176:8188  isRegistered */\n      dup1\n        /* \"ChildLabourDataManagement.sol\":8114:8188  entitytype == IRegistration.EntityType.RegulatoryAuthority && isRegistered */\n    tag_301:\n        /* \"ChildLabourDataManagement.sol\":8106:8244  require(entitytype == IRegistration.EntityType.RegulatoryAuthority && isRegistered, \"Only the regulatory authority can run this function\") */\n      tag_302\n      jumpi\n      mload(0x40)\n      0x08c379a000000000000000000000000000000000000000000000000000000000\n      dup2\n      mstore\n      0x04\n      add\n      tag_303\n      swap1\n      tag_304\n      jump\t// in\n    tag_303:\n      mload(0x40)\n      dup1\n      swap2\n      sub\n      swap1\n      revert\n    tag_302:\n        /* \"ChildLabourDataManagement.sol\":19484:19489  false */\n      0x00\n        /* \"ChildLabourDataManagement.sol\":19459:19474  accessWhitelist */\n      0x09\n        /* \"ChildLabourDataManagement.sol\":19459:19481  accessWhitelist[_user] */\n      0x00\n        /* \"ChildLabourDataManagement.sol\":19475:19480  _user */\n      dup6\n        /* \"ChildLabourDataManagement.sol\":19459:19481  accessWhitelist[_user] */\n      0xffffffffffffffffffffffffffffffffffffffff\n      and\n      0xffffffffffffffffffffffffffffffffffffffff\n      and\n      dup2\n      mstore\n      0x20\n      add\n      swap1\n      dup2\n      mstore\n      0x20\n      add\n      0x00\n      keccak256\n      0x00\n        /* \"ChildLabourDataManagement.sol\":19459:19489  accessWhitelist[_user] = false */\n      0x0100\n      exp\n      dup2\n      sload\n      dup2\n      0xff\n      mul\n      not\n      and\n      swap1\n      dup4\n      iszero\n      iszero\n      mul\n      or\n      swap1\n      sstore\n      pop\n        /* \"ChildLabourDataManagement.sol\":19505:19554  AccessRevoked(msg.sender, _user, block.timestamp) */\n      0x6f6a404ffd2cea4713256a4fd9ce99c8cf8cf32d85c2bb8061d1603ff57d50c3\n        /* \"ChildLabourDataManagement.sol\":19519:19529  msg.sender */\n      caller\n        /* \"ChildLabourDataManagement.sol\":19531:19536  _user */\n      dup5\n        /* \"ChildLabourDataManagement.sol\":19538:19553  block.timestamp */\n      timestamp\n        /* \"ChildLabourDataManagement.sol\":19505:19554  AccessRevoked(msg.sender, _user, block.timestamp) */\n      mload(0x40)\n      tag_306\n      swap4\n      swap3\n      swap2\n      swap1\n      tag_307\n      jump\t// in\n    tag_306:\n      mload(0x40)\n      dup1\n      swap2\n      sub\n      swap1\n      log1\n        /* \"ChildLabourDataManagement.sol\":7991:8264  {... */\n      pop\n      pop\n        /* \"ChildLabourDataManagement.sol\":19379:19562  function revokeAccess( address _user) public onlyRegulatoryAuthority {... */\n      pop\n      jump\t// out\n        /* \"ChildLabourDataManagement.sol\":5990:6015  uint256 public childCount */\n    tag_88:\n      sload(0x03)\n      dup2\n      jump\t// out\n        /* \"ChildLabourDataManagement.sol\":11111:11588  function submitViolationReport(string memory _reportIPFSHash, uint256 _spottedChildrenNumber) public onlywhistleBlowers{... */\n    tag_93:\n        /* \"ChildLabourDataManagement.sol\":8311:8346  IRegistration.EntityType entitytype */\n      0x00\n        /* \"ChildLabourDataManagement.sol\":8348:8365  bool isRegistered */\n      dup1\n        /* \"ChildLabourDataManagement.sol\":8369:8381  Registration */\n      0x00\n      dup1\n      sload\n      swap1\n      0x0100\n      exp\n      swap1\n      div\n      0xffffffffffffffffffffffffffffffffffffffff\n      and\n        /* \"ChildLabourDataManagement.sol\":8369:8391  Registration.getEntity */\n      0xffffffffffffffffffffffffffffffffffffffff\n      and\n      0x75894e8c\n        /* \"ChildLabourDataManagement.sol\":8392:8402  msg.sender */\n      caller\n        /* \"ChildLabourDataManagement.sol\":8369:8403  Registration.getEntity(msg.sender) */\n      mload(0x40)\n      dup3\n      0xffffffff\n      and\n      0xe0\n      shl\n      dup2\n      mstore\n      0x04\n      add\n      tag_309\n      swap2\n      swap1\n      tag_134\n      jump\t// in\n    tag_309:\n      0x40\n      dup1\n      mload\n      dup1\n      dup4\n      sub\n      dup2\n      0x00\n      dup8\n      gas\n      call\n      iszero\n      dup1\n      iszero\n      tag_311\n      jumpi\n      returndatasize\n      0x00\n      dup1\n      returndatacopy\n      revert(0x00, returndatasize)\n    tag_311:\n      pop\n      pop\n      pop\n      pop\n      mload(0x40)\n      returndatasize\n      not(0x1f)\n      0x1f\n      dup3\n      add\n      and\n      dup3\n      add\n      dup1\n      0x40\n      mstore\n      pop\n      dup2\n      add\n      swap1\n      tag_312\n      swap2\n      swap1\n      tag_138\n      jump\t// in\n    tag_312:\n        /* \"ChildLabourDataManagement.sol\":8310:8403  (IRegistration.EntityType entitytype, bool isRegistered) = Registration.getEntity(msg.sender) */\n      swap2\n      pop\n      swap2\n      pop\n        /* \"ChildLabourDataManagement.sol\":8436:8475  IRegistration.EntityType.whistleBlowers */\n      0x01\n        /* \"ChildLabourDataManagement.sol\":8422:8475  entitytype == IRegistration.EntityType.whistleBlowers */\n      0x05\n      dup2\n      gt\n      iszero\n      tag_313\n      jumpi\n      tag_314\n      tag_141\n      jump\t// in\n    tag_314:\n    tag_313:\n        /* \"ChildLabourDataManagement.sol\":8422:8432  entitytype */\n      dup3\n        /* \"ChildLabourDataManagement.sol\":8422:8475  entitytype == IRegistration.EntityType.whistleBlowers */\n      0x05\n      dup2\n      gt\n      iszero\n      tag_315\n      jumpi\n      tag_316\n      tag_141\n      jump\t// in\n    tag_316:\n    tag_315:\n      eq\n        /* \"ChildLabourDataManagement.sol\":8422:8491  entitytype == IRegistration.EntityType.whistleBlowers && isRegistered */\n      dup1\n      iszero\n      tag_317\n      jumpi\n      pop\n        /* \"ChildLabourDataManagement.sol\":8479:8491  isRegistered */\n      dup1\n        /* \"ChildLabourDataManagement.sol\":8422:8491  entitytype == IRegistration.EntityType.whistleBlowers && isRegistered */\n    tag_317:\n        /* \"ChildLabourDataManagement.sol\":8414:8542  require(entitytype == IRegistration.EntityType.whistleBlowers && isRegistered, \"Only the Liaison Officer can run this function\") */\n      tag_318\n      jumpi\n      mload(0x40)\n      0x08c379a000000000000000000000000000000000000000000000000000000000\n      dup2\n      mstore\n      0x04\n      add\n      tag_319\n      swap1\n      tag_320\n      jump\t// in\n    tag_319:\n      mload(0x40)\n      dup1\n      swap2\n      sub\n      swap1\n      revert\n    tag_318:\n        /* \"ChildLabourDataManagement.sol\":11251:11262  reportCount */\n      0x02\n      0x00\n        /* \"ChildLabourDataManagement.sol\":11251:11264  reportCount++ */\n      dup2\n      sload\n      dup1\n      swap3\n      swap2\n      swap1\n      tag_322\n      swap1\n      tag_256\n      jump\t// in\n    tag_322:\n      swap2\n      swap1\n      pop\n      sstore\n      pop\n        /* \"ChildLabourDataManagement.sol\":11307:11422  ViolationReport(msg.sender, block.timestamp, _spottedChildrenNumber, bytes32(bytes(_reportIPFSHash)), false, false) */\n      mload(0x40)\n      dup1\n      0xc0\n      add\n      0x40\n      mstore\n      dup1\n        /* \"ChildLabourDataManagement.sol\":11323:11333  msg.sender */\n      caller\n        /* \"ChildLabourDataManagement.sol\":11307:11422  ViolationReport(msg.sender, block.timestamp, _spottedChildrenNumber, bytes32(bytes(_reportIPFSHash)), false, false) */\n      0xffffffffffffffffffffffffffffffffffffffff\n      and\n      dup2\n      mstore\n      0x20\n      add\n        /* \"ChildLabourDataManagement.sol\":11335:11350  block.timestamp */\n      timestamp\n        /* \"ChildLabourDataManagement.sol\":11307:11422  ViolationReport(msg.sender, block.timestamp, _spottedChildrenNumber, bytes32(bytes(_reportIPFSHash)), false, false) */\n      dup2\n      mstore\n      0x20\n      add\n        /* \"ChildLabourDataManagement.sol\":11352:11374  _spottedChildrenNumber */\n      dup5\n        /* \"ChildLabourDataManagement.sol\":11307:11422  ViolationReport(msg.sender, block.timestamp, _spottedChildrenNumber, bytes32(bytes(_reportIPFSHash)), false, false) */\n      dup2\n      mstore\n      0x20\n      add\n        /* \"ChildLabourDataManagement.sol\":11390:11405  _reportIPFSHash */\n      dup6\n        /* \"ChildLabourDataManagement.sol\":11376:11407  bytes32(bytes(_reportIPFSHash)) */\n      tag_323\n      swap1\n      tag_324\n      jump\t// in\n    tag_323:\n        /* \"ChildLabourDataManagement.sol\":11307:11422  ViolationReport(msg.sender, block.timestamp, _spottedChildrenNumber, bytes32(bytes(_reportIPFSHash)), false, false) */\n      dup2\n      mstore\n      0x20\n      add\n        /* \"ChildLabourDataManagement.sol\":11409:11414  false */\n      0x00\n        /* \"ChildLabourDataManagement.sol\":11307:11422  ViolationReport(msg.sender, block.timestamp, _spottedChildrenNumber, bytes32(bytes(_reportIPFSHash)), false, false) */\n      iszero\n      iszero\n      dup2\n      mstore\n      0x20\n      add\n        /* \"ChildLabourDataManagement.sol\":11416:11421  false */\n      0x00\n        /* \"ChildLabourDataManagement.sol\":11307:11422  ViolationReport(msg.sender, block.timestamp, _spottedChildrenNumber, bytes32(bytes(_reportIPFSHash)), false, false) */\n      iszero\n      iszero\n      dup2\n      mstore\n      pop\n        /* \"ChildLabourDataManagement.sol\":11275:11291  violationReports */\n      0x04\n        /* \"ChildLabourDataManagement.sol\":11275:11304  violationReports[reportCount] */\n      0x00\n        /* \"ChildLabourDataManagement.sol\":11292:11303  reportCount */\n      sload(0x02)\n        /* \"ChildLabourDataManagement.sol\":11275:11304  violationReports[reportCount] */\n      dup2\n      mstore\n      0x20\n      add\n      swap1\n      dup2\n      mstore\n      0x20\n      add\n      0x00\n      keccak256\n        /* \"ChildLabourDataManagement.sol\":11275:11422  violationReports[reportCount] = ViolationReport(msg.sender, block.timestamp, _spottedChildrenNumber, bytes32(bytes(_reportIPFSHash)), false, false) */\n      0x00\n      dup3\n      add\n      mload\n      dup2\n      0x00\n      add\n      exp(0x0100, 0x00)\n      dup2\n      sload\n      dup2\n      0xffffffffffffffffffffffffffffffffffffffff\n      mul\n      not\n      and\n      swap1\n      dup4\n      0xffffffffffffffffffffffffffffffffffffffff\n      and\n      mul\n      or\n      swap1\n      sstore\n      pop\n      0x20\n      dup3\n      add\n      mload\n      dup2\n      0x01\n      add\n      sstore\n      0x40\n      dup3\n      add\n      mload\n      dup2\n      0x02\n      add\n      sstore\n      0x60\n      dup3\n      add\n      mload\n      dup2\n      0x03\n      add\n      sstore\n      0x80\n      dup3\n      add\n      mload\n      dup2\n      0x04\n      add\n      exp(0x0100, 0x00)\n      dup2\n      sload\n      dup2\n      0xff\n      mul\n      not\n      and\n      swap1\n      dup4\n      iszero\n      iszero\n      mul\n      or\n      swap1\n      sstore\n      pop\n      0xa0\n      dup3\n      add\n      mload\n      dup2\n      0x04\n      add\n      exp(0x0100, 0x01)\n      dup2\n      sload\n      dup2\n      0xff\n      mul\n      not\n      and\n      swap1\n      dup4\n      iszero\n      iszero\n      mul\n      or\n      swap1\n      sstore\n      pop\n      swap1\n      pop\n      pop\n        /* \"ChildLabourDataManagement.sol\":11447:11469  _spottedChildrenNumber */\n      dup3\n        /* \"ChildLabourDataManagement.sol\":11433:11443  childCount */\n      0x03\n      0x00\n        /* \"ChildLabourDataManagement.sol\":11433:11469  childCount += _spottedChildrenNumber */\n      dup3\n      dup3\n      sload\n      tag_325\n      swap2\n      swap1\n      tag_326\n      jump\t// in\n    tag_325:\n      swap3\n      pop\n      pop\n      dup2\n      swap1\n      sstore\n      pop\n        /* \"ChildLabourDataManagement.sol\":11506:11517  reportCount */\n      sload(0x02)\n        /* \"ChildLabourDataManagement.sol\":11487:11580  NewViolationReport(reportCount, msg.sender, block.timestamp, bytes32(bytes(_reportIPFSHash))) */\n      0x681f3195132986285e497b66d82a1d87dee04fe482a1e74020677b543e3f7c40\n        /* \"ChildLabourDataManagement.sol\":11519:11529  msg.sender */\n      caller\n        /* \"ChildLabourDataManagement.sol\":11531:11546  block.timestamp */\n      timestamp\n        /* \"ChildLabourDataManagement.sol\":11562:11577  _reportIPFSHash */\n      dup8\n        /* \"ChildLabourDataManagement.sol\":11548:11579  bytes32(bytes(_reportIPFSHash)) */\n      tag_327\n      swap1\n      tag_324\n      jump\t// in\n    tag_327:\n        /* \"ChildLabourDataManagement.sol\":11487:11580  NewViolationReport(reportCount, msg.sender, block.timestamp, bytes32(bytes(_reportIPFSHash))) */\n      mload(0x40)\n      tag_328\n      swap4\n      swap3\n      swap2\n      swap1\n      tag_67\n      jump\t// in\n    tag_328:\n      mload(0x40)\n      dup1\n      swap2\n      sub\n      swap1\n      log2\n        /* \"ChildLabourDataManagement.sol\":8299:8562  {... */\n      pop\n      pop\n        /* \"ChildLabourDataManagement.sol\":11111:11588  function submitViolationReport(string memory _reportIPFSHash, uint256 _spottedChildrenNumber) public onlywhistleBlowers{... */\n      pop\n      pop\n      jump\t// out\n        /* \"ChildLabourDataManagement.sol\":19655:19849  function updateVerifier(address _verifier) public onlyRegulatoryAuthority{... */\n    tag_96:\n        /* \"ChildLabourDataManagement.sol\":8003:8038  IRegistration.EntityType entitytype */\n      0x00\n        /* \"ChildLabourDataManagement.sol\":8040:8057  bool isRegistered */\n      dup1\n        /* \"ChildLabourDataManagement.sol\":8061:8073  Registration */\n      0x00\n      dup1\n      sload\n      swap1\n      0x0100\n      exp\n      swap1\n      div\n      0xffffffffffffffffffffffffffffffffffffffff\n      and\n        /* \"ChildLabourDataManagement.sol\":8061:8083  Registration.getEntity */\n      0xffffffffffffffffffffffffffffffffffffffff\n      and\n      0x75894e8c\n        /* \"ChildLabourDataManagement.sol\":8084:8094  msg.sender */\n      caller\n        /* \"ChildLabourDataManagement.sol\":8061:8095  Registration.getEntity(msg.sender) */\n      mload(0x40)\n      dup3\n      0xffffffff\n      and\n      0xe0\n      shl\n      dup2\n      mstore\n      0x04\n      add\n      tag_330\n      swap2\n      swap1\n      tag_134\n      jump\t// in\n    tag_330:\n      0x40\n      dup1\n      mload\n      dup1\n      dup4\n      sub\n      dup2\n      0x00\n      dup8\n      gas\n      call\n      iszero\n      dup1\n      iszero\n      tag_332\n      jumpi\n      returndatasize\n      0x00\n      dup1\n      returndatacopy\n      revert(0x00, returndatasize)\n    tag_332:\n      pop\n      pop\n      pop\n      pop\n      mload(0x40)\n      returndatasize\n      not(0x1f)\n      0x1f\n      dup3\n      add\n      and\n      dup3\n      add\n      dup1\n      0x40\n      mstore\n      pop\n      dup2\n      add\n      swap1\n      tag_333\n      swap2\n      swap1\n      tag_138\n      jump\t// in\n    tag_333:\n        /* \"ChildLabourDataManagement.sol\":8002:8095  (IRegistration.EntityType entitytype, bool isRegistered) = Registration.getEntity(msg.sender) */\n      swap2\n      pop\n      swap2\n      pop\n        /* \"ChildLabourDataManagement.sol\":8128:8172  IRegistration.EntityType.RegulatoryAuthority */\n      0x00\n        /* \"ChildLabourDataManagement.sol\":8114:8172  entitytype == IRegistration.EntityType.RegulatoryAuthority */\n      0x05\n      dup2\n      gt\n      iszero\n      tag_334\n      jumpi\n      tag_335\n      tag_141\n      jump\t// in\n    tag_335:\n    tag_334:\n        /* \"ChildLabourDataManagement.sol\":8114:8124  entitytype */\n      dup3\n        /* \"ChildLabourDataManagement.sol\":8114:8172  entitytype == IRegistration.EntityType.RegulatoryAuthority */\n      0x05\n      dup2\n      gt\n      iszero\n      tag_336\n      jumpi\n      tag_337\n      tag_141\n      jump\t// in\n    tag_337:\n    tag_336:\n      eq\n        /* \"ChildLabourDataManagement.sol\":8114:8188  entitytype == IRegistration.EntityType.RegulatoryAuthority && isRegistered */\n      dup1\n      iszero\n      tag_338\n      jumpi\n      pop\n        /* \"ChildLabourDataManagement.sol\":8176:8188  isRegistered */\n      dup1\n        /* \"ChildLabourDataManagement.sol\":8114:8188  entitytype == IRegistration.EntityType.RegulatoryAuthority && isRegistered */\n    tag_338:\n        /* \"ChildLabourDataManagement.sol\":8106:8244  require(entitytype == IRegistration.EntityType.RegulatoryAuthority && isRegistered, \"Only the regulatory authority can run this function\") */\n      tag_339\n      jumpi\n      mload(0x40)\n      0x08c379a000000000000000000000000000000000000000000000000000000000\n      dup2\n      mstore\n      0x04\n      add\n      tag_340\n      swap1\n      tag_304\n      jump\t// in\n    tag_340:\n      mload(0x40)\n      dup1\n      swap2\n      sub\n      swap1\n      revert\n    tag_339:\n        /* \"ChildLabourDataManagement.sol\":19760:19769  _verifier */\n      dup3\n        /* \"ChildLabourDataManagement.sol\":19739:19747  Verifier */\n      0x01\n      0x00\n        /* \"ChildLabourDataManagement.sol\":19739:19770  Verifier = IVerifier(_verifier) */\n      0x0100\n      exp\n      dup2\n      sload\n      dup2\n      0xffffffffffffffffffffffffffffffffffffffff\n      mul\n      not\n      and\n      swap1\n      dup4\n      0xffffffffffffffffffffffffffffffffffffffff\n      and\n      mul\n      or\n      swap1\n      sstore\n      pop\n        /* \"ChildLabourDataManagement.sol\":19786:19841  VerifierUpdated(msg.sender, _verifier, block.timestamp) */\n      0xd64ae07f3ddea489022b7c3651c0b93cc96296695feac84461061dfa1f34c0cb\n        /* \"ChildLabourDataManagement.sol\":19802:19812  msg.sender */\n      caller\n        /* \"ChildLabourDataManagement.sol\":19814:19823  _verifier */\n      dup5\n        /* \"ChildLabourDataManagement.sol\":19825:19840  block.timestamp */\n      timestamp\n        /* \"ChildLabourDataManagement.sol\":19786:19841  VerifierUpdated(msg.sender, _verifier, block.timestamp) */\n      mload(0x40)\n      tag_342\n      swap4\n      swap3\n      swap2\n      swap1\n      tag_307\n      jump\t// in\n    tag_342:\n      mload(0x40)\n      dup1\n      swap2\n      sub\n      swap1\n      log1\n        /* \"ChildLabourDataManagement.sol\":7991:8264  {... */\n      pop\n      pop\n        /* \"ChildLabourDataManagement.sol\":19655:19849  function updateVerifier(address _verifier) public onlyRegulatoryAuthority{... */\n      pop\n      jump\t// out\n        /* \"ChildLabourDataManagement.sol\":15675:16690  function startRemediation(uint256 _violationReportId, uint256 _childId, uint256 _daysToRemediate) public onlyGuardian(_childId) {... */\n    tag_100:\n        /* \"ChildLabourDataManagement.sol\":15793:15801  _childId */\n      dup2\n        /* \"ChildLabourDataManagement.sol\":9211:9246  IRegistration.EntityType entitytype */\n      0x00\n        /* \"ChildLabourDataManagement.sol\":9248:9265  bool isRegistered */\n      dup1\n        /* \"ChildLabourDataManagement.sol\":9269:9281  Registration */\n      0x00\n      dup1\n      sload\n      swap1\n      0x0100\n      exp\n      swap1\n      div\n      0xffffffffffffffffffffffffffffffffffffffff\n      and\n        /* \"ChildLabourDataManagement.sol\":9269:9291  Registration.getEntity */\n      0xffffffffffffffffffffffffffffffffffffffff\n      and\n      0x75894e8c\n        /* \"ChildLabourDataManagement.sol\":9292:9302  msg.sender */\n      caller\n        /* \"ChildLabourDataManagement.sol\":9269:9303  Registration.getEntity(msg.sender) */\n      mload(0x40)\n      dup3\n      0xffffffff\n      and\n      0xe0\n      shl\n      dup2\n      mstore\n      0x04\n      add\n      tag_344\n      swap2\n      swap1\n      tag_134\n      jump\t// in\n    tag_344:\n      0x40\n      dup1\n      mload\n      dup1\n      dup4\n      sub\n      dup2\n      0x00\n      dup8\n      gas\n      call\n      iszero\n      dup1\n      iszero\n      tag_346\n      jumpi\n      returndatasize\n      0x00\n      dup1\n      returndatacopy\n      revert(0x00, returndatasize)\n    tag_346:\n      pop\n      pop\n      pop\n      pop\n      mload(0x40)\n      returndatasize\n      not(0x1f)\n      0x1f\n      dup3\n      add\n      and\n      dup3\n      add\n      dup1\n      0x40\n      mstore\n      pop\n      dup2\n      add\n      swap1\n      tag_347\n      swap2\n      swap1\n      tag_138\n      jump\t// in\n    tag_347:\n        /* \"ChildLabourDataManagement.sol\":9210:9303  (IRegistration.EntityType entitytype, bool isRegistered) = Registration.getEntity(msg.sender) */\n      swap2\n      pop\n      swap2\n      pop\n        /* \"ChildLabourDataManagement.sol\":9336:9369  IRegistration.EntityType.Guardian */\n      0x04\n        /* \"ChildLabourDataManagement.sol\":9322:9369  entitytype == IRegistration.EntityType.Guardian */\n      0x05\n      dup2\n      gt\n      iszero\n      tag_348\n      jumpi\n      tag_349\n      tag_141\n      jump\t// in\n    tag_349:\n    tag_348:\n        /* \"ChildLabourDataManagement.sol\":9322:9332  entitytype */\n      dup3\n        /* \"ChildLabourDataManagement.sol\":9322:9369  entitytype == IRegistration.EntityType.Guardian */\n      0x05\n      dup2\n      gt\n      iszero\n      tag_350\n      jumpi\n      tag_351\n      tag_141\n      jump\t// in\n    tag_351:\n    tag_350:\n      eq\n        /* \"ChildLabourDataManagement.sol\":9322:9385  entitytype == IRegistration.EntityType.Guardian && isRegistered */\n      dup1\n      iszero\n      tag_352\n      jumpi\n      pop\n        /* \"ChildLabourDataManagement.sol\":9373:9385  isRegistered */\n      dup1\n        /* \"ChildLabourDataManagement.sol\":9322:9385  entitytype == IRegistration.EntityType.Guardian && isRegistered */\n    tag_352:\n        /* \"ChildLabourDataManagement.sol\":9314:9435  require(entitytype == IRegistration.EntityType.Guardian && isRegistered, \"Only the Child Guardian can run this function\") */\n      tag_353\n      jumpi\n      mload(0x40)\n      0x08c379a000000000000000000000000000000000000000000000000000000000\n      dup2\n      mstore\n      0x04\n      add\n      tag_354\n      swap1\n      tag_202\n      jump\t// in\n    tag_354:\n      mload(0x40)\n      dup1\n      swap2\n      sub\n      swap1\n      revert\n    tag_353:\n        /* \"ChildLabourDataManagement.sol\":9497:9507  msg.sender */\n      caller\n        /* \"ChildLabourDataManagement.sol\":9454:9507  childRemediationData[_childId].guardian == msg.sender */\n      0xffffffffffffffffffffffffffffffffffffffff\n      and\n        /* \"ChildLabourDataManagement.sol\":9454:9474  childRemediationData */\n      0x08\n        /* \"ChildLabourDataManagement.sol\":9454:9484  childRemediationData[_childId] */\n      0x00\n        /* \"ChildLabourDataManagement.sol\":9475:9483  _childId */\n      dup6\n        /* \"ChildLabourDataManagement.sol\":9454:9484  childRemediationData[_childId] */\n      dup2\n      mstore\n      0x20\n      add\n      swap1\n      dup2\n      mstore\n      0x20\n      add\n      0x00\n      keccak256\n        /* \"ChildLabourDataManagement.sol\":9454:9493  childRemediationData[_childId].guardian */\n      0x00\n      add\n      0x00\n      swap1\n      sload\n      swap1\n      0x0100\n      exp\n      swap1\n      div\n      0xffffffffffffffffffffffffffffffffffffffff\n      and\n        /* \"ChildLabourDataManagement.sol\":9454:9507  childRemediationData[_childId].guardian == msg.sender */\n      0xffffffffffffffffffffffffffffffffffffffff\n      and\n      eq\n        /* \"ChildLabourDataManagement.sol\":9446:9574  require(childRemediationData[_childId].guardian == msg.sender, \"Only the assigned Guardian to this child can run this function\") */\n      tag_355\n      jumpi\n      mload(0x40)\n      0x08c379a000000000000000000000000000000000000000000000000000000000\n      dup2\n      mstore\n      0x04\n      add\n      tag_356\n      swap1\n      tag_205\n      jump\t// in\n    tag_356:\n      mload(0x40)\n      dup1\n      swap2\n      sub\n      swap1\n      revert\n    tag_355:\n        /* \"ChildLabourDataManagement.sol\":15814:15853  ChildRemediation memory remediationdata */\n      0x00\n        /* \"ChildLabourDataManagement.sol\":15856:15876  childRemediationData */\n      0x08\n        /* \"ChildLabourDataManagement.sol\":15856:15886  childRemediationData[_childId] */\n      0x00\n        /* \"ChildLabourDataManagement.sol\":15877:15885  _childId */\n      dup8\n        /* \"ChildLabourDataManagement.sol\":15856:15886  childRemediationData[_childId] */\n      dup2\n      mstore\n      0x20\n      add\n      swap1\n      dup2\n      mstore\n      0x20\n      add\n      0x00\n      keccak256\n        /* \"ChildLabourDataManagement.sol\":15814:15886  ChildRemediation memory remediationdata = childRemediationData[_childId] */\n      mload(0x40)\n      dup1\n      0xe0\n      add\n      0x40\n      mstore\n      swap1\n      dup2\n      0x00\n      dup3\n      add\n      0x00\n      swap1\n      sload\n      swap1\n      0x0100\n      exp\n      swap1\n      div\n      0xffffffffffffffffffffffffffffffffffffffff\n      and\n      0xffffffffffffffffffffffffffffffffffffffff\n      and\n      0xffffffffffffffffffffffffffffffffffffffff\n      and\n      dup2\n      mstore\n      0x20\n      add\n      0x01\n      dup3\n      add\n      sload\n      dup2\n      mstore\n      0x20\n      add\n      0x02\n      dup3\n      add\n      sload\n      dup2\n      mstore\n      0x20\n      add\n      0x03\n      dup3\n      add\n      sload\n      dup2\n      mstore\n      0x20\n      add\n      0x04\n      dup3\n      add\n      sload\n      dup2\n      mstore\n      0x20\n      add\n      0x05\n      dup3\n      add\n      sload\n      dup2\n      mstore\n      0x20\n      add\n      0x06\n      dup3\n      add\n      0x00\n      swap1\n      sload\n      swap1\n      0x0100\n      exp\n      swap1\n      div\n      0xff\n      and\n      0x03\n      dup2\n      gt\n      iszero\n      tag_358\n      jumpi\n      tag_359\n      tag_141\n      jump\t// in\n    tag_359:\n    tag_358:\n      0x03\n      dup2\n      gt\n      iszero\n      tag_360\n      jumpi\n      tag_361\n      tag_141\n      jump\t// in\n    tag_361:\n    tag_360:\n      dup2\n      mstore\n      pop\n      pop\n      swap1\n      pop\n        /* \"ChildLabourDataManagement.sol\":15927:15928  1 */\n      0x01\n        /* \"ChildLabourDataManagement.sol\":15905:15923  _violationReportId */\n      dup8\n        /* \"ChildLabourDataManagement.sol\":15905:15928  _violationReportId >= 1 */\n      lt\n      iszero\n        /* \"ChildLabourDataManagement.sol\":15905:15965  _violationReportId >= 1 && _violationReportId <= reportCount */\n      dup1\n      iszero\n      tag_362\n      jumpi\n      pop\n        /* \"ChildLabourDataManagement.sol\":15954:15965  reportCount */\n      sload(0x02)\n        /* \"ChildLabourDataManagement.sol\":15932:15950  _violationReportId */\n      dup8\n        /* \"ChildLabourDataManagement.sol\":15932:15965  _violationReportId <= reportCount */\n      gt\n      iszero\n        /* \"ChildLabourDataManagement.sol\":15905:15965  _violationReportId >= 1 && _violationReportId <= reportCount */\n    tag_362:\n        /* \"ChildLabourDataManagement.sol\":15897:15987  require(_violationReportId >= 1 && _violationReportId <= reportCount, \"Invalid Report ID\") */\n      tag_363\n      jumpi\n      mload(0x40)\n      0x08c379a000000000000000000000000000000000000000000000000000000000\n      dup2\n      mstore\n      0x04\n      add\n      tag_364\n      swap1\n      tag_168\n      jump\t// in\n    tag_364:\n      mload(0x40)\n      dup1\n      swap2\n      sub\n      swap1\n      revert\n    tag_363:\n        /* \"ChildLabourDataManagement.sol\":16018:16019  1 */\n      0x01\n        /* \"ChildLabourDataManagement.sol\":16006:16014  _childId */\n      dup7\n        /* \"ChildLabourDataManagement.sol\":16006:16019  _childId >= 1 */\n      lt\n      iszero\n        /* \"ChildLabourDataManagement.sol\":16006:16074  _childId >= 1 && _childId <= reportChildrenCount[_violationReportId] */\n      dup1\n      iszero\n      tag_365\n      jumpi\n      pop\n        /* \"ChildLabourDataManagement.sol\":16035:16054  reportChildrenCount */\n      0x07\n        /* \"ChildLabourDataManagement.sol\":16035:16074  reportChildrenCount[_violationReportId] */\n      0x00\n        /* \"ChildLabourDataManagement.sol\":16055:16073  _violationReportId */\n      dup9\n        /* \"ChildLabourDataManagement.sol\":16035:16074  reportChildrenCount[_violationReportId] */\n      dup2\n      mstore\n      0x20\n      add\n      swap1\n      dup2\n      mstore\n      0x20\n      add\n      0x00\n      keccak256\n      sload\n        /* \"ChildLabourDataManagement.sol\":16023:16031  _childId */\n      dup7\n        /* \"ChildLabourDataManagement.sol\":16023:16074  _childId <= reportChildrenCount[_violationReportId] */\n      gt\n      iszero\n        /* \"ChildLabourDataManagement.sol\":16006:16074  _childId >= 1 && _childId <= reportChildrenCount[_violationReportId] */\n    tag_365:\n        /* \"ChildLabourDataManagement.sol\":15998:16095  require(_childId >= 1 && _childId <= reportChildrenCount[_violationReportId], \"Invalid Child ID\") */\n      tag_366\n      jumpi\n      mload(0x40)\n      0x08c379a000000000000000000000000000000000000000000000000000000000\n      dup2\n      mstore\n      0x04\n      add\n      tag_367\n      swap1\n      tag_214\n      jump\t// in\n    tag_367:\n      mload(0x40)\n      dup1\n      swap2\n      sub\n      swap1\n      revert\n    tag_366:\n        /* \"ChildLabourDataManagement.sol\":16140:16168  ChildStatus.GuardianAssigned */\n      0x01\n        /* \"ChildLabourDataManagement.sol\":16114:16168  remediationdata.status == ChildStatus.GuardianAssigned */\n      0x03\n      dup2\n      gt\n      iszero\n      tag_368\n      jumpi\n      tag_369\n      tag_141\n      jump\t// in\n    tag_369:\n    tag_368:\n        /* \"ChildLabourDataManagement.sol\":16114:16129  remediationdata */\n      dup2\n        /* \"ChildLabourDataManagement.sol\":16114:16136  remediationdata.status */\n      0xc0\n      add\n      mload\n        /* \"ChildLabourDataManagement.sol\":16114:16168  remediationdata.status == ChildStatus.GuardianAssigned */\n      0x03\n      dup2\n      gt\n      iszero\n      tag_370\n      jumpi\n      tag_371\n      tag_141\n      jump\t// in\n    tag_371:\n    tag_370:\n      eq\n        /* \"ChildLabourDataManagement.sol\":16106:16212  require(remediationdata.status == ChildStatus.GuardianAssigned, \"This child is not ready for remediation\") */\n      tag_372\n      jumpi\n      mload(0x40)\n      0x08c379a000000000000000000000000000000000000000000000000000000000\n      dup2\n      mstore\n      0x04\n      add\n      tag_373\n      swap1\n      tag_374\n      jump\t// in\n    tag_373:\n      mload(0x40)\n      dup1\n      swap2\n      sub\n      swap1\n      revert\n    tag_372:\n        /* \"ChildLabourDataManagement.sol\":16265:16290  ChildStatus.InRemediation */\n      0x02\n        /* \"ChildLabourDataManagement.sol\":16225:16245  childRemediationData */\n      0x08\n        /* \"ChildLabourDataManagement.sol\":16225:16255  childRemediationData[_childId] */\n      0x00\n        /* \"ChildLabourDataManagement.sol\":16246:16254  _childId */\n      dup9\n        /* \"ChildLabourDataManagement.sol\":16225:16255  childRemediationData[_childId] */\n      dup2\n      mstore\n      0x20\n      add\n      swap1\n      dup2\n      mstore\n      0x20\n      add\n      0x00\n      keccak256\n        /* \"ChildLabourDataManagement.sol\":16225:16262  childRemediationData[_childId].status */\n      0x06\n      add\n      0x00\n        /* \"ChildLabourDataManagement.sol\":16225:16290  childRemediationData[_childId].status = ChildStatus.InRemediation */\n      0x0100\n      exp\n      dup2\n      sload\n      dup2\n      0xff\n      mul\n      not\n      and\n      swap1\n      dup4\n      0x03\n      dup2\n      gt\n      iszero\n      tag_375\n      jumpi\n      tag_376\n      tag_141\n      jump\t// in\n    tag_376:\n    tag_375:\n      mul\n      or\n      swap1\n      sstore\n      pop\n        /* \"ChildLabourDataManagement.sol\":16351:16366  block.timestamp */\n      timestamp\n        /* \"ChildLabourDataManagement.sol\":16301:16321  childRemediationData */\n      0x08\n        /* \"ChildLabourDataManagement.sol\":16301:16331  childRemediationData[_childId] */\n      0x00\n        /* \"ChildLabourDataManagement.sol\":16322:16330  _childId */\n      dup9\n        /* \"ChildLabourDataManagement.sol\":16301:16331  childRemediationData[_childId] */\n      dup2\n      mstore\n      0x20\n      add\n      swap1\n      dup2\n      mstore\n      0x20\n      add\n      0x00\n      keccak256\n        /* \"ChildLabourDataManagement.sol\":16301:16348  childRemediationData[_childId].remediationStart */\n      0x02\n      add\n        /* \"ChildLabourDataManagement.sol\":16301:16366  childRemediationData[_childId].remediationStart = block.timestamp */\n      dup2\n      swap1\n      sstore\n      pop\n        /* \"ChildLabourDataManagement.sol\":16469:16478  1 seconds */\n      0x01\n        /* \"ChildLabourDataManagement.sol\":16450:16466  _daysToRemediate */\n      dup6\n        /* \"ChildLabourDataManagement.sol\":16450:16478  _daysToRemediate * 1 seconds */\n      tag_377\n      swap2\n      swap1\n      tag_378\n      jump\t// in\n    tag_377:\n        /* \"ChildLabourDataManagement.sol\":16432:16447  block.timestamp */\n      timestamp\n        /* \"ChildLabourDataManagement.sol\":16432:16478  block.timestamp + _daysToRemediate * 1 seconds */\n      tag_379\n      swap2\n      swap1\n      tag_326\n      jump\t// in\n    tag_379:\n        /* \"ChildLabourDataManagement.sol\":16377:16397  childRemediationData */\n      0x08\n        /* \"ChildLabourDataManagement.sol\":16377:16407  childRemediationData[_childId] */\n      0x00\n        /* \"ChildLabourDataManagement.sol\":16398:16406  _childId */\n      dup9\n        /* \"ChildLabourDataManagement.sol\":16377:16407  childRemediationData[_childId] */\n      dup2\n      mstore\n      0x20\n      add\n      swap1\n      dup2\n      mstore\n      0x20\n      add\n      0x00\n      keccak256\n        /* \"ChildLabourDataManagement.sol\":16377:16429  childRemediationData[_childId].remediationCompletion */\n      0x03\n      add\n        /* \"ChildLabourDataManagement.sol\":16377:16478  childRemediationData[_childId].remediationCompletion = block.timestamp + _daysToRemediate * 1 seconds */\n      dup2\n      swap1\n      sstore\n      pop\n        /* \"ChildLabourDataManagement.sol\":16534:16549  block.timestamp */\n      timestamp\n        /* \"ChildLabourDataManagement.sol\":16489:16509  childRemediationData */\n      0x08\n        /* \"ChildLabourDataManagement.sol\":16489:16519  childRemediationData[_childId] */\n      0x00\n        /* \"ChildLabourDataManagement.sol\":16510:16518  _childId */\n      dup9\n        /* \"ChildLabourDataManagement.sol\":16489:16519  childRemediationData[_childId] */\n      dup2\n      mstore\n      0x20\n      add\n      swap1\n      dup2\n      mstore\n      0x20\n      add\n      0x00\n      keccak256\n        /* \"ChildLabourDataManagement.sol\":16489:16531  childRemediationData[_childId].lastUpdated */\n      0x04\n      add\n        /* \"ChildLabourDataManagement.sol\":16489:16549  childRemediationData[_childId].lastUpdated = block.timestamp */\n      dup2\n      swap1\n      sstore\n      pop\n        /* \"ChildLabourDataManagement.sol\":16567:16682  RemediationStarted(_violationReportId, _childId, block.timestamp, (block.timestamp + _daysToRemediate * 1 seconds)) */\n      0x29dc036766d8e77f495b0b42f18a239419af9f8dd528d84e1251663aa6da16c9\n        /* \"ChildLabourDataManagement.sol\":16586:16604  _violationReportId */\n      dup8\n        /* \"ChildLabourDataManagement.sol\":16606:16614  _childId */\n      dup8\n        /* \"ChildLabourDataManagement.sol\":16616:16631  block.timestamp */\n      timestamp\n        /* \"ChildLabourDataManagement.sol\":16671:16680  1 seconds */\n      0x01\n        /* \"ChildLabourDataManagement.sol\":16652:16668  _daysToRemediate */\n      dup10\n        /* \"ChildLabourDataManagement.sol\":16652:16680  _daysToRemediate * 1 seconds */\n      tag_380\n      swap2\n      swap1\n      tag_378\n      jump\t// in\n    tag_380:\n        /* \"ChildLabourDataManagement.sol\":16634:16649  block.timestamp */\n      timestamp\n        /* \"ChildLabourDataManagement.sol\":16634:16680  block.timestamp + _daysToRemediate * 1 seconds */\n      tag_381\n      swap2\n      swap1\n      tag_326\n      jump\t// in\n    tag_381:\n        /* \"ChildLabourDataManagement.sol\":16567:16682  RemediationStarted(_violationReportId, _childId, block.timestamp, (block.timestamp + _daysToRemediate * 1 seconds)) */\n      mload(0x40)\n      tag_382\n      swap5\n      swap4\n      swap3\n      swap2\n      swap1\n      tag_383\n      jump\t// in\n    tag_382:\n      mload(0x40)\n      dup1\n      swap2\n      sub\n      swap1\n      log1\n        /* \"ChildLabourDataManagement.sol\":15803:16690  {... */\n      pop\n        /* \"ChildLabourDataManagement.sol\":9199:9594  {... */\n      pop\n      pop\n        /* \"ChildLabourDataManagement.sol\":15675:16690  function startRemediation(uint256 _violationReportId, uint256 _childId, uint256 _daysToRemediate) public onlyGuardian(_childId) {... */\n      pop\n      pop\n      pop\n      pop\n      jump\t// out\n        /* \"ChildLabourDataManagement.sol\":7528:7575  mapping(address => bool) public accessWhitelist */\n    tag_103:\n      mstore(0x20, 0x09)\n      dup1\n      0x00\n      mstore\n      keccak256(0x00, 0x40)\n      0x00\n      swap2\n      pop\n      sload\n      swap1\n      0x0100\n      exp\n      swap1\n      div\n      0xff\n      and\n      dup2\n      jump\t// out\n        /* \"ChildLabourDataManagement.sol\":18311:18902  function getChildStatus(uint256 _violationReportId, uint256 _childId) public onlyRegulatoryAuthority returns(ChildStatus, uint256, uint256, uint256){... */\n    tag_108:\n        /* \"ChildLabourDataManagement.sol\":18420:18431  ChildStatus */\n      0x00\n        /* \"ChildLabourDataManagement.sol\":18433:18440  uint256 */\n      dup1\n        /* \"ChildLabourDataManagement.sol\":18442:18449  uint256 */\n      0x00\n        /* \"ChildLabourDataManagement.sol\":18451:18458  uint256 */\n      dup1\n        /* \"ChildLabourDataManagement.sol\":8003:8038  IRegistration.EntityType entitytype */\n      0x00\n        /* \"ChildLabourDataManagement.sol\":8040:8057  bool isRegistered */\n      dup1\n        /* \"ChildLabourDataManagement.sol\":8061:8073  Registration */\n      0x00\n      dup1\n      sload\n      swap1\n      0x0100\n      exp\n      swap1\n      div\n      0xffffffffffffffffffffffffffffffffffffffff\n      and\n        /* \"ChildLabourDataManagement.sol\":8061:8083  Registration.getEntity */\n      0xffffffffffffffffffffffffffffffffffffffff\n      and\n      0x75894e8c\n        /* \"ChildLabourDataManagement.sol\":8084:8094  msg.sender */\n      caller\n        /* \"ChildLabourDataManagement.sol\":8061:8095  Registration.getEntity(msg.sender) */\n      mload(0x40)\n      dup3\n      0xffffffff\n      and\n      0xe0\n      shl\n      dup2\n      mstore\n      0x04\n      add\n      tag_385\n      swap2\n      swap1\n      tag_134\n      jump\t// in\n    tag_385:\n      0x40\n      dup1\n      mload\n      dup1\n      dup4\n      sub\n      dup2\n      0x00\n      dup8\n      gas\n      call\n      iszero\n      dup1\n      iszero\n      tag_387\n      jumpi\n      returndatasize\n      0x00\n      dup1\n      returndatacopy\n      revert(0x00, returndatasize)\n    tag_387:\n      pop\n      pop\n      pop\n      pop\n      mload(0x40)\n      returndatasize\n      not(0x1f)\n      0x1f\n      dup3\n      add\n      and\n      dup3\n      add\n      dup1\n      0x40\n      mstore\n      pop\n      dup2\n      add\n      swap1\n      tag_388\n      swap2\n      swap1\n      tag_138\n      jump\t// in\n    tag_388:\n        /* \"ChildLabourDataManagement.sol\":8002:8095  (IRegistration.EntityType entitytype, bool isRegistered) = Registration.getEntity(msg.sender) */\n      swap2\n      pop\n      swap2\n      pop\n        /* \"ChildLabourDataManagement.sol\":8128:8172  IRegistration.EntityType.RegulatoryAuthority */\n      0x00\n        /* \"ChildLabourDataManagement.sol\":8114:8172  entitytype == IRegistration.EntityType.RegulatoryAuthority */\n      0x05\n      dup2\n      gt\n      iszero\n      tag_389\n      jumpi\n      tag_390\n      tag_141\n      jump\t// in\n    tag_390:\n    tag_389:\n        /* \"ChildLabourDataManagement.sol\":8114:8124  entitytype */\n      dup3\n        /* \"ChildLabourDataManagement.sol\":8114:8172  entitytype == IRegistration.EntityType.RegulatoryAuthority */\n      0x05\n      dup2\n      gt\n      iszero\n      tag_391\n      jumpi\n      tag_392\n      tag_141\n      jump\t// in\n    tag_392:\n    tag_391:\n      eq\n        /* \"ChildLabourDataManagement.sol\":8114:8188  entitytype == IRegistration.EntityType.RegulatoryAuthority && isRegistered */\n      dup1\n      iszero\n      tag_393\n      jumpi\n      pop\n        /* \"ChildLabourDataManagement.sol\":8176:8188  isRegistered */\n      dup1\n        /* \"ChildLabourDataManagement.sol\":8114:8188  entitytype == IRegistration.EntityType.RegulatoryAuthority && isRegistered */\n    tag_393:\n        /* \"ChildLabourDataManagement.sol\":8106:8244  require(entitytype == IRegistration.EntityType.RegulatoryAuthority && isRegistered, \"Only the regulatory authority can run this function\") */\n      tag_394\n      jumpi\n      mload(0x40)\n      0x08c379a000000000000000000000000000000000000000000000000000000000\n      dup2\n      mstore\n      0x04\n      add\n      tag_395\n      swap1\n      tag_304\n      jump\t// in\n    tag_395:\n      mload(0x40)\n      dup1\n      swap2\n      sub\n      swap1\n      revert\n    tag_394:\n        /* \"ChildLabourDataManagement.sol\":18470:18509  ChildRemediation memory remediationdata */\n      0x00\n        /* \"ChildLabourDataManagement.sol\":18512:18532  childRemediationData */\n      0x08\n        /* \"ChildLabourDataManagement.sol\":18512:18542  childRemediationData[_childId] */\n      0x00\n        /* \"ChildLabourDataManagement.sol\":18533:18541  _childId */\n      dup10\n        /* \"ChildLabourDataManagement.sol\":18512:18542  childRemediationData[_childId] */\n      dup2\n      mstore\n      0x20\n      add\n      swap1\n      dup2\n      mstore\n      0x20\n      add\n      0x00\n      keccak256\n        /* \"ChildLabourDataManagement.sol\":18470:18542  ChildRemediation memory remediationdata = childRemediationData[_childId] */\n      mload(0x40)\n      dup1\n      0xe0\n      add\n      0x40\n      mstore\n      swap1\n      dup2\n      0x00\n      dup3\n      add\n      0x00\n      swap1\n      sload\n      swap1\n      0x0100\n      exp\n      swap1\n      div\n      0xffffffffffffffffffffffffffffffffffffffff\n      and\n      0xffffffffffffffffffffffffffffffffffffffff\n      and\n      0xffffffffffffffffffffffffffffffffffffffff\n      and\n      dup2\n      mstore\n      0x20\n      add\n      0x01\n      dup3\n      add\n      sload\n      dup2\n      mstore\n      0x20\n      add\n      0x02\n      dup3\n      add\n      sload\n      dup2\n      mstore\n      0x20\n      add\n      0x03\n      dup3\n      add\n      sload\n      dup2\n      mstore\n      0x20\n      add\n      0x04\n      dup3\n      add\n      sload\n      dup2\n      mstore\n      0x20\n      add\n      0x05\n      dup3\n      add\n      sload\n      dup2\n      mstore\n      0x20\n      add\n      0x06\n      dup3\n      add\n      0x00\n      swap1\n      sload\n      swap1\n      0x0100\n      exp\n      swap1\n      div\n      0xff\n      and\n      0x03\n      dup2\n      gt\n      iszero\n      tag_397\n      jumpi\n      tag_398\n      tag_141\n      jump\t// in\n    tag_398:\n    tag_397:\n      0x03\n      dup2\n      gt\n      iszero\n      tag_399\n      jumpi\n      tag_400\n      tag_141\n      jump\t// in\n    tag_400:\n    tag_399:\n      dup2\n      mstore\n      pop\n      pop\n      swap1\n      pop\n        /* \"ChildLabourDataManagement.sol\":18583:18584  1 */\n      0x01\n        /* \"ChildLabourDataManagement.sol\":18561:18579  _violationReportId */\n      dup10\n        /* \"ChildLabourDataManagement.sol\":18561:18584  _violationReportId >= 1 */\n      lt\n      iszero\n        /* \"ChildLabourDataManagement.sol\":18561:18621  _violationReportId >= 1 && _violationReportId <= reportCount */\n      dup1\n      iszero\n      tag_401\n      jumpi\n      pop\n        /* \"ChildLabourDataManagement.sol\":18610:18621  reportCount */\n      sload(0x02)\n        /* \"ChildLabourDataManagement.sol\":18588:18606  _violationReportId */\n      dup10\n        /* \"ChildLabourDataManagement.sol\":18588:18621  _violationReportId <= reportCount */\n      gt\n      iszero\n        /* \"ChildLabourDataManagement.sol\":18561:18621  _violationReportId >= 1 && _violationReportId <= reportCount */\n    tag_401:\n        /* \"ChildLabourDataManagement.sol\":18553:18643  require(_violationReportId >= 1 && _violationReportId <= reportCount, \"Invalid Report ID\") */\n      tag_402\n      jumpi\n      mload(0x40)\n      0x08c379a000000000000000000000000000000000000000000000000000000000\n      dup2\n      mstore\n      0x04\n      add\n      tag_403\n      swap1\n      tag_168\n      jump\t// in\n    tag_403:\n      mload(0x40)\n      dup1\n      swap2\n      sub\n      swap1\n      revert\n    tag_402:\n        /* \"ChildLabourDataManagement.sol\":18674:18675  1 */\n      0x01\n        /* \"ChildLabourDataManagement.sol\":18662:18670  _childId */\n      dup9\n        /* \"ChildLabourDataManagement.sol\":18662:18675  _childId >= 1 */\n      lt\n      iszero\n        /* \"ChildLabourDataManagement.sol\":18662:18730  _childId >= 1 && _childId <= reportChildrenCount[_violationReportId] */\n      dup1\n      iszero\n      tag_404\n      jumpi\n      pop\n        /* \"ChildLabourDataManagement.sol\":18691:18710  reportChildrenCount */\n      0x07\n        /* \"ChildLabourDataManagement.sol\":18691:18730  reportChildrenCount[_violationReportId] */\n      0x00\n        /* \"ChildLabourDataManagement.sol\":18711:18729  _violationReportId */\n      dup11\n        /* \"ChildLabourDataManagement.sol\":18691:18730  reportChildrenCount[_violationReportId] */\n      dup2\n      mstore\n      0x20\n      add\n      swap1\n      dup2\n      mstore\n      0x20\n      add\n      0x00\n      keccak256\n      sload\n        /* \"ChildLabourDataManagement.sol\":18679:18687  _childId */\n      dup9\n        /* \"ChildLabourDataManagement.sol\":18679:18730  _childId <= reportChildrenCount[_violationReportId] */\n      gt\n      iszero\n        /* \"ChildLabourDataManagement.sol\":18662:18730  _childId >= 1 && _childId <= reportChildrenCount[_violationReportId] */\n    tag_404:\n        /* \"ChildLabourDataManagement.sol\":18654:18751  require(_childId >= 1 && _childId <= reportChildrenCount[_violationReportId], \"Invalid Child ID\") */\n      tag_405\n      jumpi\n      mload(0x40)\n      0x08c379a000000000000000000000000000000000000000000000000000000000\n      dup2\n      mstore\n      0x04\n      add\n      tag_406\n      swap1\n      tag_214\n      jump\t// in\n    tag_406:\n      mload(0x40)\n      dup1\n      swap2\n      sub\n      swap1\n      revert\n    tag_405:\n        /* \"ChildLabourDataManagement.sol\":18769:18784  remediationdata */\n      dup1\n        /* \"ChildLabourDataManagement.sol\":18769:18791  remediationdata.status */\n      0xc0\n      add\n      mload\n        /* \"ChildLabourDataManagement.sol\":18793:18808  remediationdata */\n      dup2\n        /* \"ChildLabourDataManagement.sol\":18793:18820  remediationdata.lastUpdated */\n      0x80\n      add\n      mload\n        /* \"ChildLabourDataManagement.sol\":18822:18837  remediationdata */\n      dup3\n        /* \"ChildLabourDataManagement.sol\":18822:18854  remediationdata.remediationStart */\n      0x40\n      add\n      mload\n        /* \"ChildLabourDataManagement.sol\":18856:18871  remediationdata */\n      dup4\n        /* \"ChildLabourDataManagement.sol\":18856:18893  remediationdata.remediationCompletion */\n      0x60\n      add\n      mload\n        /* \"ChildLabourDataManagement.sol\":18762:18894  return(remediationdata.status, remediationdata.lastUpdated, remediationdata.remediationStart, remediationdata.remediationCompletion) */\n      swap7\n      pop\n      swap7\n      pop\n      swap7\n      pop\n      swap7\n      pop\n      pop\n        /* \"ChildLabourDataManagement.sol\":7991:8264  {... */\n      pop\n      pop\n        /* \"ChildLabourDataManagement.sol\":18311:18902  function getChildStatus(uint256 _violationReportId, uint256 _childId) public onlyRegulatoryAuthority returns(ChildStatus, uint256, uint256, uint256){... */\n      swap3\n      swap6\n      swap2\n      swap5\n      pop\n      swap3\n      pop\n      jump\t// out\n        /* \"ChildLabourDataManagement.sol\":6940:6994  mapping(uint256 => uint256) public child2ReportMapping */\n    tag_113:\n      mstore(0x20, 0x05)\n      dup1\n      0x00\n      mstore\n      keccak256(0x00, 0x40)\n      0x00\n      swap2\n      pop\n      swap1\n      pop\n      sload\n      dup2\n      jump\t// out\n        /* \"ChildLabourDataManagement.sol\":16698:17518  function remediationUpdate(uint256 _violationReportId, uint256 _childId, string memory _updateReport) public onlyGuardian(_childId){... */\n    tag_118:\n        /* \"ChildLabourDataManagement.sol\":16820:16828  _childId */\n      dup2\n        /* \"ChildLabourDataManagement.sol\":9211:9246  IRegistration.EntityType entitytype */\n      0x00\n        /* \"ChildLabourDataManagement.sol\":9248:9265  bool isRegistered */\n      dup1\n        /* \"ChildLabourDataManagement.sol\":9269:9281  Registration */\n      0x00\n      dup1\n      sload\n      swap1\n      0x0100\n      exp\n      swap1\n      div\n      0xffffffffffffffffffffffffffffffffffffffff\n      and\n        /* \"ChildLabourDataManagement.sol\":9269:9291  Registration.getEntity */\n      0xffffffffffffffffffffffffffffffffffffffff\n      and\n      0x75894e8c\n        /* \"ChildLabourDataManagement.sol\":9292:9302  msg.sender */\n      caller\n        /* \"ChildLabourDataManagement.sol\":9269:9303  Registration.getEntity(msg.sender) */\n      mload(0x40)\n      dup3\n      0xffffffff\n      and\n      0xe0\n      shl\n      dup2\n      mstore\n      0x04\n      add\n      tag_408\n      swap2\n      swap1\n      tag_134\n      jump\t// in\n    tag_408:\n      0x40\n      dup1\n      mload\n      dup1\n      dup4\n      sub\n      dup2\n      0x00\n      dup8\n      gas\n      call\n      iszero\n      dup1\n      iszero\n      tag_410\n      jumpi\n      returndatasize\n      0x00\n      dup1\n      returndatacopy\n      revert(0x00, returndatasize)\n    tag_410:\n      pop\n      pop\n      pop\n      pop\n      mload(0x40)\n      returndatasize\n      not(0x1f)\n      0x1f\n      dup3\n      add\n      and\n      dup3\n      add\n      dup1\n      0x40\n      mstore\n      pop\n      dup2\n      add\n      swap1\n      tag_411\n      swap2\n      swap1\n      tag_138\n      jump\t// in\n    tag_411:\n        /* \"ChildLabourDataManagement.sol\":9210:9303  (IRegistration.EntityType entitytype, bool isRegistered) = Registration.getEntity(msg.sender) */\n      swap2\n      pop\n      swap2\n      pop\n        /* \"ChildLabourDataManagement.sol\":9336:9369  IRegistration.EntityType.Guardian */\n      0x04\n        /* \"ChildLabourDataManagement.sol\":9322:9369  entitytype == IRegistration.EntityType.Guardian */\n      0x05\n      dup2\n      gt\n      iszero\n      tag_412\n      jumpi\n      tag_413\n      tag_141\n      jump\t// in\n    tag_413:\n    tag_412:\n        /* \"ChildLabourDataManagement.sol\":9322:9332  entitytype */\n      dup3\n        /* \"ChildLabourDataManagement.sol\":9322:9369  entitytype == IRegistration.EntityType.Guardian */\n      0x05\n      dup2\n      gt\n      iszero\n      tag_414\n      jumpi\n      tag_415\n      tag_141\n      jump\t// in\n    tag_415:\n    tag_414:\n      eq\n        /* \"ChildLabourDataManagement.sol\":9322:9385  entitytype == IRegistration.EntityType.Guardian && isRegistered */\n      dup1\n      iszero\n      tag_416\n      jumpi\n      pop\n        /* \"ChildLabourDataManagement.sol\":9373:9385  isRegistered */\n      dup1\n        /* \"ChildLabourDataManagement.sol\":9322:9385  entitytype == IRegistration.EntityType.Guardian && isRegistered */\n    tag_416:\n        /* \"ChildLabourDataManagement.sol\":9314:9435  require(entitytype == IRegistration.EntityType.Guardian && isRegistered, \"Only the Child Guardian can run this function\") */\n      tag_417\n      jumpi\n      mload(0x40)\n      0x08c379a000000000000000000000000000000000000000000000000000000000\n      dup2\n      mstore\n      0x04\n      add\n      tag_418\n      swap1\n      tag_202\n      jump\t// in\n    tag_418:\n      mload(0x40)\n      dup1\n      swap2\n      sub\n      swap1\n      revert\n    tag_417:\n        /* \"ChildLabourDataManagement.sol\":9497:9507  msg.sender */\n      caller\n        /* \"ChildLabourDataManagement.sol\":9454:9507  childRemediationData[_childId].guardian == msg.sender */\n      0xffffffffffffffffffffffffffffffffffffffff\n      and\n        /* \"ChildLabourDataManagement.sol\":9454:9474  childRemediationData */\n      0x08\n        /* \"ChildLabourDataManagement.sol\":9454:9484  childRemediationData[_childId] */\n      0x00\n        /* \"ChildLabourDataManagement.sol\":9475:9483  _childId */\n      dup6\n        /* \"ChildLabourDataManagement.sol\":9454:9484  childRemediationData[_childId] */\n      dup2\n      mstore\n      0x20\n      add\n      swap1\n      dup2\n      mstore\n      0x20\n      add\n      0x00\n      keccak256\n        /* \"ChildLabourDataManagement.sol\":9454:9493  childRemediationData[_childId].guardian */\n      0x00\n      add\n      0x00\n      swap1\n      sload\n      swap1\n      0x0100\n      exp\n      swap1\n      div\n      0xffffffffffffffffffffffffffffffffffffffff\n      and\n        /* \"ChildLabourDataManagement.sol\":9454:9507  childRemediationData[_childId].guardian == msg.sender */\n      0xffffffffffffffffffffffffffffffffffffffff\n      and\n      eq\n        /* \"ChildLabourDataManagement.sol\":9446:9574  require(childRemediationData[_childId].guardian == msg.sender, \"Only the assigned Guardian to this child can run this function\") */\n      tag_419\n      jumpi\n      mload(0x40)\n      0x08c379a000000000000000000000000000000000000000000000000000000000\n      dup2\n      mstore\n      0x04\n      add\n      tag_420\n      swap1\n      tag_205\n      jump\t// in\n    tag_420:\n      mload(0x40)\n      dup1\n      swap2\n      sub\n      swap1\n      revert\n    tag_419:\n        /* \"ChildLabourDataManagement.sol\":16840:16879  ChildRemediation memory remediationdata */\n      0x00\n        /* \"ChildLabourDataManagement.sol\":16882:16902  childRemediationData */\n      0x08\n        /* \"ChildLabourDataManagement.sol\":16882:16912  childRemediationData[_childId] */\n      0x00\n        /* \"ChildLabourDataManagement.sol\":16903:16911  _childId */\n      dup8\n        /* \"ChildLabourDataManagement.sol\":16882:16912  childRemediationData[_childId] */\n      dup2\n      mstore\n      0x20\n      add\n      swap1\n      dup2\n      mstore\n      0x20\n      add\n      0x00\n      keccak256\n        /* \"ChildLabourDataManagement.sol\":16840:16912  ChildRemediation memory remediationdata = childRemediationData[_childId] */\n      mload(0x40)\n      dup1\n      0xe0\n      add\n      0x40\n      mstore\n      swap1\n      dup2\n      0x00\n      dup3\n      add\n      0x00\n      swap1\n      sload\n      swap1\n      0x0100\n      exp\n      swap1\n      div\n      0xffffffffffffffffffffffffffffffffffffffff\n      and\n      0xffffffffffffffffffffffffffffffffffffffff\n      and\n      0xffffffffffffffffffffffffffffffffffffffff\n      and\n      dup2\n      mstore\n      0x20\n      add\n      0x01\n      dup3\n      add\n      sload\n      dup2\n      mstore\n      0x20\n      add\n      0x02\n      dup3\n      add\n      sload\n      dup2\n      mstore\n      0x20\n      add\n      0x03\n      dup3\n      add\n      sload\n      dup2\n      mstore\n      0x20\n      add\n      0x04\n      dup3\n      add\n      sload\n      dup2\n      mstore\n      0x20\n      add\n      0x05\n      dup3\n      add\n      sload\n      dup2\n      mstore\n      0x20\n      add\n      0x06\n      dup3\n      add\n      0x00\n      swap1\n      sload\n      swap1\n      0x0100\n      exp\n      swap1\n      div\n      0xff\n      and\n      0x03\n      dup2\n      gt\n      iszero\n      tag_422\n      jumpi\n      tag_423\n      tag_141\n      jump\t// in\n    tag_423:\n    tag_422:\n      0x03\n      dup2\n      gt\n      iszero\n      tag_424\n      jumpi\n      tag_425\n      tag_141\n      jump\t// in\n    tag_425:\n    tag_424:\n      dup2\n      mstore\n      pop\n      pop\n      swap1\n      pop\n        /* \"ChildLabourDataManagement.sol\":16953:16954  1 */\n      0x01\n        /* \"ChildLabourDataManagement.sol\":16931:16949  _violationReportId */\n      dup8\n        /* \"ChildLabourDataManagement.sol\":16931:16954  _violationReportId >= 1 */\n      lt\n      iszero\n        /* \"ChildLabourDataManagement.sol\":16931:16991  _violationReportId >= 1 && _violationReportId <= reportCount */\n      dup1\n      iszero\n      tag_426\n      jumpi\n      pop\n        /* \"ChildLabourDataManagement.sol\":16980:16991  reportCount */\n      sload(0x02)\n        /* \"ChildLabourDataManagement.sol\":16958:16976  _violationReportId */\n      dup8\n        /* \"ChildLabourDataManagement.sol\":16958:16991  _violationReportId <= reportCount */\n      gt\n      iszero\n        /* \"ChildLabourDataManagement.sol\":16931:16991  _violationReportId >= 1 && _violationReportId <= reportCount */\n    tag_426:\n        /* \"ChildLabourDataManagement.sol\":16923:17013  require(_violationReportId >= 1 && _violationReportId <= reportCount, \"Invalid Report ID\") */\n      tag_427\n      jumpi\n      mload(0x40)\n      0x08c379a000000000000000000000000000000000000000000000000000000000\n      dup2\n      mstore\n      0x04\n      add\n      tag_428\n      swap1\n      tag_168\n      jump\t// in\n    tag_428:\n      mload(0x40)\n      dup1\n      swap2\n      sub\n      swap1\n      revert\n    tag_427:\n        /* \"ChildLabourDataManagement.sol\":17044:17045  1 */\n      0x01\n        /* \"ChildLabourDataManagement.sol\":17032:17040  _childId */\n      dup7\n        /* \"ChildLabourDataManagement.sol\":17032:17045  _childId >= 1 */\n      lt\n      iszero\n        /* \"ChildLabourDataManagement.sol\":17032:17100  _childId >= 1 && _childId <= reportChildrenCount[_violationReportId] */\n      dup1\n      iszero\n      tag_429\n      jumpi\n      pop\n        /* \"ChildLabourDataManagement.sol\":17061:17080  reportChildrenCount */\n      0x07\n        /* \"ChildLabourDataManagement.sol\":17061:17100  reportChildrenCount[_violationReportId] */\n      0x00\n        /* \"ChildLabourDataManagement.sol\":17081:17099  _violationReportId */\n      dup9\n        /* \"ChildLabourDataManagement.sol\":17061:17100  reportChildrenCount[_violationReportId] */\n      dup2\n      mstore\n      0x20\n      add\n      swap1\n      dup2\n      mstore\n      0x20\n      add\n      0x00\n      keccak256\n      sload\n        /* \"ChildLabourDataManagement.sol\":17049:17057  _childId */\n      dup7\n        /* \"ChildLabourDataManagement.sol\":17049:17100  _childId <= reportChildrenCount[_violationReportId] */\n      gt\n      iszero\n        /* \"ChildLabourDataManagement.sol\":17032:17100  _childId >= 1 && _childId <= reportChildrenCount[_violationReportId] */\n    tag_429:\n        /* \"ChildLabourDataManagement.sol\":17024:17121  require(_childId >= 1 && _childId <= reportChildrenCount[_violationReportId], \"Invalid Child ID\") */\n      tag_430\n      jumpi\n      mload(0x40)\n      0x08c379a000000000000000000000000000000000000000000000000000000000\n      dup2\n      mstore\n      0x04\n      add\n      tag_431\n      swap1\n      tag_214\n      jump\t// in\n    tag_431:\n      mload(0x40)\n      dup1\n      swap2\n      sub\n      swap1\n      revert\n    tag_430:\n        /* \"ChildLabourDataManagement.sol\":17166:17191  ChildStatus.InRemediation */\n      0x02\n        /* \"ChildLabourDataManagement.sol\":17140:17191  remediationdata.status == ChildStatus.InRemediation */\n      0x03\n      dup2\n      gt\n      iszero\n      tag_432\n      jumpi\n      tag_433\n      tag_141\n      jump\t// in\n    tag_433:\n    tag_432:\n        /* \"ChildLabourDataManagement.sol\":17140:17155  remediationdata */\n      dup2\n        /* \"ChildLabourDataManagement.sol\":17140:17162  remediationdata.status */\n      0xc0\n      add\n      mload\n        /* \"ChildLabourDataManagement.sol\":17140:17191  remediationdata.status == ChildStatus.InRemediation */\n      0x03\n      dup2\n      gt\n      iszero\n      tag_434\n      jumpi\n      tag_435\n      tag_141\n      jump\t// in\n    tag_435:\n    tag_434:\n      eq\n        /* \"ChildLabourDataManagement.sol\":17132:17238  require(remediationdata.status == ChildStatus.InRemediation, \"This child is not currently in remediation\") */\n      tag_436\n      jumpi\n      mload(0x40)\n      0x08c379a000000000000000000000000000000000000000000000000000000000\n      dup2\n      mstore\n      0x04\n      add\n      tag_437\n      swap1\n      tag_221\n      jump\t// in\n    tag_437:\n      mload(0x40)\n      dup1\n      swap2\n      sub\n      swap1\n      revert\n    tag_436:\n        /* \"ChildLabourDataManagement.sol\":17311:17324  _updateReport */\n      dup5\n        /* \"ChildLabourDataManagement.sol\":17297:17326  bytes32(bytes(_updateReport)) */\n      tag_438\n      swap1\n      tag_324\n      jump\t// in\n    tag_438:\n        /* \"ChildLabourDataManagement.sol\":17251:17271  childRemediationData */\n      0x08\n        /* \"ChildLabourDataManagement.sol\":17251:17281  childRemediationData[_childId] */\n      0x00\n        /* \"ChildLabourDataManagement.sol\":17272:17280  _childId */\n      dup9\n        /* \"ChildLabourDataManagement.sol\":17251:17281  childRemediationData[_childId] */\n      dup2\n      mstore\n      0x20\n      add\n      swap1\n      dup2\n      mstore\n      0x20\n      add\n      0x00\n      keccak256\n        /* \"ChildLabourDataManagement.sol\":17251:17294  childRemediationData[_childId].updateReport */\n      0x05\n      add\n        /* \"ChildLabourDataManagement.sol\":17251:17326  childRemediationData[_childId].updateReport = bytes32(bytes(_updateReport)) */\n      dup2\n      swap1\n      sstore\n      pop\n        /* \"ChildLabourDataManagement.sol\":17382:17397  block.timestamp */\n      timestamp\n        /* \"ChildLabourDataManagement.sol\":17337:17357  childRemediationData */\n      0x08\n        /* \"ChildLabourDataManagement.sol\":17337:17367  childRemediationData[_childId] */\n      0x00\n        /* \"ChildLabourDataManagement.sol\":17358:17366  _childId */\n      dup9\n        /* \"ChildLabourDataManagement.sol\":17337:17367  childRemediationData[_childId] */\n      dup2\n      mstore\n      0x20\n      add\n      swap1\n      dup2\n      mstore\n      0x20\n      add\n      0x00\n      keccak256\n        /* \"ChildLabourDataManagement.sol\":17337:17379  childRemediationData[_childId].lastUpdated */\n      0x04\n      add\n        /* \"ChildLabourDataManagement.sol\":17337:17397  childRemediationData[_childId].lastUpdated = block.timestamp */\n      dup2\n      swap1\n      sstore\n      pop\n        /* \"ChildLabourDataManagement.sol\":17413:17508  RemediationUpdate(_violationReportId, _childId, block.timestamp, bytes32(bytes(_updateReport))) */\n      0xde2669f070bfb51d280ef42c92c59e3f20bbeef765e99cab94cd673cc2bf0f2f\n        /* \"ChildLabourDataManagement.sol\":17431:17449  _violationReportId */\n      dup8\n        /* \"ChildLabourDataManagement.sol\":17451:17459  _childId */\n      dup8\n        /* \"ChildLabourDataManagement.sol\":17461:17476  block.timestamp */\n      timestamp\n        /* \"ChildLabourDataManagement.sol\":17492:17505  _updateReport */\n      dup9\n        /* \"ChildLabourDataManagement.sol\":17478:17507  bytes32(bytes(_updateReport)) */\n      tag_439\n      swap1\n      tag_324\n      jump\t// in\n    tag_439:\n        /* \"ChildLabourDataManagement.sol\":17413:17508  RemediationUpdate(_violationReportId, _childId, block.timestamp, bytes32(bytes(_updateReport))) */\n      mload(0x40)\n      tag_440\n      swap5\n      swap4\n      swap3\n      swap2\n      swap1\n      tag_441\n      jump\t// in\n    tag_440:\n      mload(0x40)\n      dup1\n      swap2\n      sub\n      swap1\n      log1\n        /* \"ChildLabourDataManagement.sol\":16829:17518  {... */\n      pop\n        /* \"ChildLabourDataManagement.sol\":9199:9594  {... */\n      pop\n      pop\n        /* \"ChildLabourDataManagement.sol\":16698:17518  function remediationUpdate(uint256 _violationReportId, uint256 _childId, string memory _updateReport) public onlyGuardian(_childId){... */\n      pop\n      pop\n      pop\n      pop\n      jump\t// out\n        /* \"ChildLabourDataManagement.sol\":5885:5918  IRegistration public Registration */\n    tag_120:\n      0x00\n      dup1\n      sload\n      swap1\n      0x0100\n      exp\n      swap1\n      div\n      0xffffffffffffffffffffffffffffffffffffffff\n      and\n      dup2\n      jump\t// out\n        /* \"ChildLabourDataManagement.sol\":14787:15605  function assignGuardian(uint256 _violationReportId, uint256 _childId, address _guardian) public onlyRegulatoryAuthority{... */\n    tag_126:\n        /* \"ChildLabourDataManagement.sol\":8003:8038  IRegistration.EntityType entitytype */\n      0x00\n        /* \"ChildLabourDataManagement.sol\":8040:8057  bool isRegistered */\n      dup1\n        /* \"ChildLabourDataManagement.sol\":8061:8073  Registration */\n      0x00\n      dup1\n      sload\n      swap1\n      0x0100\n      exp\n      swap1\n      div\n      0xffffffffffffffffffffffffffffffffffffffff\n      and\n        /* \"ChildLabourDataManagement.sol\":8061:8083  Registration.getEntity */\n      0xffffffffffffffffffffffffffffffffffffffff\n      and\n      0x75894e8c\n        /* \"ChildLabourDataManagement.sol\":8084:8094  msg.sender */\n      caller\n        /* \"ChildLabourDataManagement.sol\":8061:8095  Registration.getEntity(msg.sender) */\n      mload(0x40)\n      dup3\n      0xffffffff\n      and\n      0xe0\n      shl\n      dup2\n      mstore\n      0x04\n      add\n      tag_443\n      swap2\n      swap1\n      tag_134\n      jump\t// in\n    tag_443:\n      0x40\n      dup1\n      mload\n      dup1\n      dup4\n      sub\n      dup2\n      0x00\n      dup8\n      gas\n      call\n      iszero\n      dup1\n      iszero\n      tag_445\n      jumpi\n      returndatasize\n      0x00\n      dup1\n      returndatacopy\n      revert(0x00, returndatasize)\n    tag_445:\n      pop\n      pop\n      pop\n      pop\n      mload(0x40)\n      returndatasize\n      not(0x1f)\n      0x1f\n      dup3\n      add\n      and\n      dup3\n      add\n      dup1\n      0x40\n      mstore\n      pop\n      dup2\n      add\n      swap1\n      tag_446\n      swap2\n      swap1\n      tag_138\n      jump\t// in\n    tag_446:\n        /* \"ChildLabourDataManagement.sol\":8002:8095  (IRegistration.EntityType entitytype, bool isRegistered) = Registration.getEntity(msg.sender) */\n      swap2\n      pop\n      swap2\n      pop\n        /* \"ChildLabourDataManagement.sol\":8128:8172  IRegistration.EntityType.RegulatoryAuthority */\n      0x00\n        /* \"ChildLabourDataManagement.sol\":8114:8172  entitytype == IRegistration.EntityType.RegulatoryAuthority */\n      0x05\n      dup2\n      gt\n      iszero\n      tag_447\n      jumpi\n      tag_448\n      tag_141\n      jump\t// in\n    tag_448:\n    tag_447:\n        /* \"ChildLabourDataManagement.sol\":8114:8124  entitytype */\n      dup3\n        /* \"ChildLabourDataManagement.sol\":8114:8172  entitytype == IRegistration.EntityType.RegulatoryAuthority */\n      0x05\n      dup2\n      gt\n      iszero\n      tag_449\n      jumpi\n      tag_450\n      tag_141\n      jump\t// in\n    tag_450:\n    tag_449:\n      eq\n        /* \"ChildLabourDataManagement.sol\":8114:8188  entitytype == IRegistration.EntityType.RegulatoryAuthority && isRegistered */\n      dup1\n      iszero\n      tag_451\n      jumpi\n      pop\n        /* \"ChildLabourDataManagement.sol\":8176:8188  isRegistered */\n      dup1\n        /* \"ChildLabourDataManagement.sol\":8114:8188  entitytype == IRegistration.EntityType.RegulatoryAuthority && isRegistered */\n    tag_451:\n        /* \"ChildLabourDataManagement.sol\":8106:8244  require(entitytype == IRegistration.EntityType.RegulatoryAuthority && isRegistered, \"Only the regulatory authority can run this function\") */\n      tag_452\n      jumpi\n      mload(0x40)\n      0x08c379a000000000000000000000000000000000000000000000000000000000\n      dup2\n      mstore\n      0x04\n      add\n      tag_453\n      swap1\n      tag_304\n      jump\t// in\n    tag_453:\n      mload(0x40)\n      dup1\n      swap2\n      sub\n      swap1\n      revert\n    tag_452:\n        /* \"ChildLabourDataManagement.sol\":14917:14938  ChildData memory data */\n      0x00\n        /* \"ChildLabourDataManagement.sol\":14941:14950  childData */\n      0x06\n        /* \"ChildLabourDataManagement.sol\":14941:14970  childData[_violationReportId] */\n      0x00\n        /* \"ChildLabourDataManagement.sol\":14951:14969  _violationReportId */\n      dup8\n        /* \"ChildLabourDataManagement.sol\":14941:14970  childData[_violationReportId] */\n      dup2\n      mstore\n      0x20\n      add\n      swap1\n      dup2\n      mstore\n      0x20\n      add\n      0x00\n      keccak256\n        /* \"ChildLabourDataManagement.sol\":14941:14980  childData[_violationReportId][_childId] */\n      0x00\n        /* \"ChildLabourDataManagement.sol\":14971:14979  _childId */\n      dup7\n        /* \"ChildLabourDataManagement.sol\":14941:14980  childData[_violationReportId][_childId] */\n      dup2\n      mstore\n      0x20\n      add\n      swap1\n      dup2\n      mstore\n      0x20\n      add\n      0x00\n      keccak256\n        /* \"ChildLabourDataManagement.sol\":14917:14980  ChildData memory data = childData[_violationReportId][_childId] */\n      mload(0x40)\n      dup1\n      0xc0\n      add\n      0x40\n      mstore\n      swap1\n      dup2\n      0x00\n      dup3\n      add\n      sload\n      dup2\n      mstore\n      0x20\n      add\n      0x01\n      dup3\n      add\n      sload\n      dup2\n      mstore\n      0x20\n      add\n      0x02\n      dup3\n      add\n      sload\n      dup2\n      mstore\n      0x20\n      add\n      0x03\n      dup3\n      add\n      0x00\n      swap1\n      sload\n      swap1\n      0x0100\n      exp\n      swap1\n      div\n      0xf8\n      shl\n      not(0xffffffffffffffffffffffffffffffffffffffffffffffffffffffffffffff)\n      and\n      not(0xffffffffffffffffffffffffffffffffffffffffffffffffffffffffffffff)\n      and\n      dup2\n      mstore\n      0x20\n      add\n      0x04\n      dup3\n      add\n      sload\n      dup2\n      mstore\n      0x20\n      add\n      0x05\n      dup3\n      add\n      0x00\n      swap1\n      sload\n      swap1\n      0x0100\n      exp\n      swap1\n      div\n      0xff\n      and\n      0x03\n      dup2\n      gt\n      iszero\n      tag_455\n      jumpi\n      tag_456\n      tag_141\n      jump\t// in\n    tag_456:\n    tag_455:\n      0x03\n      dup2\n      gt\n      iszero\n      tag_457\n      jumpi\n      tag_458\n      tag_141\n      jump\t// in\n    tag_458:\n    tag_457:\n      dup2\n      mstore\n      pop\n      pop\n      swap1\n      pop\n        /* \"ChildLabourDataManagement.sol\":15014:15033  ChildStatus.Spotted */\n      0x00\n        /* \"ChildLabourDataManagement.sol\":14999:15033  data.status == ChildStatus.Spotted */\n      0x03\n      dup2\n      gt\n      iszero\n      tag_459\n      jumpi\n      tag_460\n      tag_141\n      jump\t// in\n    tag_460:\n    tag_459:\n        /* \"ChildLabourDataManagement.sol\":14999:15003  data */\n      dup2\n        /* \"ChildLabourDataManagement.sol\":14999:15010  data.status */\n      0xa0\n      add\n      mload\n        /* \"ChildLabourDataManagement.sol\":14999:15033  data.status == ChildStatus.Spotted */\n      0x03\n      dup2\n      gt\n      iszero\n      tag_461\n      jumpi\n      tag_462\n      tag_141\n      jump\t// in\n    tag_462:\n    tag_461:\n      eq\n        /* \"ChildLabourDataManagement.sol\":14991:15106  require(data.status == ChildStatus.Spotted, \"This child Id does not exist or has already been assigned a guardian\") */\n      tag_463\n      jumpi\n      mload(0x40)\n      0x08c379a000000000000000000000000000000000000000000000000000000000\n      dup2\n      mstore\n      0x04\n      add\n      tag_464\n      swap1\n      tag_465\n      jump\t// in\n    tag_464:\n      mload(0x40)\n      dup1\n      swap2\n      sub\n      swap1\n      revert\n    tag_463:\n        /* \"ChildLabourDataManagement.sol\":15147:15148  1 */\n      0x01\n        /* \"ChildLabourDataManagement.sol\":15125:15143  _violationReportId */\n      dup7\n        /* \"ChildLabourDataManagement.sol\":15125:15148  _violationReportId >= 1 */\n      lt\n      iszero\n        /* \"ChildLabourDataManagement.sol\":15125:15185  _violationReportId >= 1 && _violationReportId <= reportCount */\n      dup1\n      iszero\n      tag_466\n      jumpi\n      pop\n        /* \"ChildLabourDataManagement.sol\":15174:15185  reportCount */\n      sload(0x02)\n        /* \"ChildLabourDataManagement.sol\":15152:15170  _violationReportId */\n      dup7\n        /* \"ChildLabourDataManagement.sol\":15152:15185  _violationReportId <= reportCount */\n      gt\n      iszero\n        /* \"ChildLabourDataManagement.sol\":15125:15185  _violationReportId >= 1 && _violationReportId <= reportCount */\n    tag_466:\n        /* \"ChildLabourDataManagement.sol\":15117:15207  require(_violationReportId >= 1 && _violationReportId <= reportCount, \"Invalid Report ID\") */\n      tag_467\n      jumpi\n      mload(0x40)\n      0x08c379a000000000000000000000000000000000000000000000000000000000\n      dup2\n      mstore\n      0x04\n      add\n      tag_468\n      swap1\n      tag_168\n      jump\t// in\n    tag_468:\n      mload(0x40)\n      dup1\n      swap2\n      sub\n      swap1\n      revert\n    tag_467:\n        /* \"ChildLabourDataManagement.sol\":15238:15239  1 */\n      0x01\n        /* \"ChildLabourDataManagement.sol\":15226:15234  _childId */\n      dup6\n        /* \"ChildLabourDataManagement.sol\":15226:15239  _childId >= 1 */\n      lt\n      iszero\n        /* \"ChildLabourDataManagement.sol\":15226:15294  _childId >= 1 && _childId <= reportChildrenCount[_violationReportId] */\n      dup1\n      iszero\n      tag_469\n      jumpi\n      pop\n        /* \"ChildLabourDataManagement.sol\":15255:15274  reportChildrenCount */\n      0x07\n        /* \"ChildLabourDataManagement.sol\":15255:15294  reportChildrenCount[_violationReportId] */\n      0x00\n        /* \"ChildLabourDataManagement.sol\":15275:15293  _violationReportId */\n      dup8\n        /* \"ChildLabourDataManagement.sol\":15255:15294  reportChildrenCount[_violationReportId] */\n      dup2\n      mstore\n      0x20\n      add\n      swap1\n      dup2\n      mstore\n      0x20\n      add\n      0x00\n      keccak256\n      sload\n        /* \"ChildLabourDataManagement.sol\":15243:15251  _childId */\n      dup6\n        /* \"ChildLabourDataManagement.sol\":15243:15294  _childId <= reportChildrenCount[_violationReportId] */\n      gt\n      iszero\n        /* \"ChildLabourDataManagement.sol\":15226:15294  _childId >= 1 && _childId <= reportChildrenCount[_violationReportId] */\n    tag_469:\n        /* \"ChildLabourDataManagement.sol\":15218:15315  require(_childId >= 1 && _childId <= reportChildrenCount[_violationReportId], \"Invalid Child ID\") */\n      tag_470\n      jumpi\n      mload(0x40)\n      0x08c379a000000000000000000000000000000000000000000000000000000000\n      dup2\n      mstore\n      0x04\n      add\n      tag_471\n      swap1\n      tag_214\n      jump\t// in\n    tag_471:\n      mload(0x40)\n      dup1\n      swap2\n      sub\n      swap1\n      revert\n    tag_470:\n        /* \"ChildLabourDataManagement.sol\":15372:15381  _guardian */\n      dup4\n        /* \"ChildLabourDataManagement.sol\":15330:15350  childRemediationData */\n      0x08\n        /* \"ChildLabourDataManagement.sol\":15330:15360  childRemediationData[_childId] */\n      0x00\n        /* \"ChildLabourDataManagement.sol\":15351:15359  _childId */\n      dup8\n        /* \"ChildLabourDataManagement.sol\":15330:15360  childRemediationData[_childId] */\n      dup2\n      mstore\n      0x20\n      add\n      swap1\n      dup2\n      mstore\n      0x20\n      add\n      0x00\n      keccak256\n        /* \"ChildLabourDataManagement.sol\":15330:15369  childRemediationData[_childId].guardian */\n      0x00\n      add\n      0x00\n        /* \"ChildLabourDataManagement.sol\":15330:15381  childRemediationData[_childId].guardian = _guardian */\n      0x0100\n      exp\n      dup2\n      sload\n      dup2\n      0xffffffffffffffffffffffffffffffffffffffff\n      mul\n      not\n      and\n      swap1\n      dup4\n      0xffffffffffffffffffffffffffffffffffffffff\n      and\n      mul\n      or\n      swap1\n      sstore\n      pop\n        /* \"ChildLabourDataManagement.sol\":15433:15441  _childId */\n      dup5\n        /* \"ChildLabourDataManagement.sol\":15392:15412  childRemediationData */\n      0x08\n        /* \"ChildLabourDataManagement.sol\":15392:15422  childRemediationData[_childId] */\n      0x00\n        /* \"ChildLabourDataManagement.sol\":15413:15421  _childId */\n      dup8\n        /* \"ChildLabourDataManagement.sol\":15392:15422  childRemediationData[_childId] */\n      dup2\n      mstore\n      0x20\n      add\n      swap1\n      dup2\n      mstore\n      0x20\n      add\n      0x00\n      keccak256\n        /* \"ChildLabourDataManagement.sol\":15392:15430  childRemediationData[_childId].childId */\n      0x01\n      add\n        /* \"ChildLabourDataManagement.sol\":15392:15441  childRemediationData[_childId].childId = _childId */\n      dup2\n      swap1\n      sstore\n      pop\n        /* \"ChildLabourDataManagement.sol\":15492:15520  ChildStatus.GuardianAssigned */\n      0x01\n        /* \"ChildLabourDataManagement.sol\":15452:15472  childRemediationData */\n      0x08\n        /* \"ChildLabourDataManagement.sol\":15452:15482  childRemediationData[_childId] */\n      0x00\n        /* \"ChildLabourDataManagement.sol\":15473:15481  _childId */\n      dup8\n        /* \"ChildLabourDataManagement.sol\":15452:15482  childRemediationData[_childId] */\n      dup2\n      mstore\n      0x20\n      add\n      swap1\n      dup2\n      mstore\n      0x20\n      add\n      0x00\n      keccak256\n        /* \"ChildLabourDataManagement.sol\":15452:15489  childRemediationData[_childId].status */\n      0x06\n      add\n      0x00\n        /* \"ChildLabourDataManagement.sol\":15452:15520  childRemediationData[_childId].status = ChildStatus.GuardianAssigned */\n      0x0100\n      exp\n      dup2\n      sload\n      dup2\n      0xff\n      mul\n      not\n      and\n      swap1\n      dup4\n      0x03\n      dup2\n      gt\n      iszero\n      tag_472\n      jumpi\n      tag_473\n      tag_141\n      jump\t// in\n    tag_473:\n    tag_472:\n      mul\n      or\n      swap1\n      sstore\n      pop\n        /* \"ChildLabourDataManagement.sol\":15538:15595  GuardianAssigned(_childId, _violationReportId, _guardian) */\n      0xe1a03807ff7b7d8ac4c42cf3fe3905d10b2b30935d18974726482db3bf232e36\n        /* \"ChildLabourDataManagement.sol\":15555:15563  _childId */\n      dup6\n        /* \"ChildLabourDataManagement.sol\":15565:15583  _violationReportId */\n      dup8\n        /* \"ChildLabourDataManagement.sol\":15585:15594  _guardian */\n      dup7\n        /* \"ChildLabourDataManagement.sol\":15538:15595  GuardianAssigned(_childId, _violationReportId, _guardian) */\n      mload(0x40)\n      tag_474\n      swap4\n      swap3\n      swap2\n      swap1\n      tag_475\n      jump\t// in\n    tag_474:\n      mload(0x40)\n      dup1\n      swap2\n      sub\n      swap1\n      log1\n        /* \"ChildLabourDataManagement.sol\":14906:15605  {... */\n      pop\n        /* \"ChildLabourDataManagement.sol\":7991:8264  {... */\n      pop\n      pop\n        /* \"ChildLabourDataManagement.sol\":14787:15605  function assignGuardian(uint256 _violationReportId, uint256 _childId, address _guardian) public onlyRegulatoryAuthority{... */\n      pop\n      pop\n      pop\n      jump\t// out\n        /* \"ChildLabourDataManagement.sol\":7620:7674  mapping(uint256 => IVerifier.Proof) public reportProof */\n    tag_129:\n      mstore(0x20, 0x0a)\n      dup1\n      0x00\n      mstore\n      keccak256(0x00, 0x40)\n      0x00\n      swap2\n      pop\n      swap1\n      pop\n      dup1\n      0x00\n      add\n      mload(0x40)\n      dup1\n      0x40\n      add\n      0x40\n      mstore\n      swap1\n      dup2\n      0x00\n      dup3\n      add\n      sload\n      dup2\n      mstore\n      0x20\n      add\n      0x01\n      dup3\n      add\n      sload\n      dup2\n      mstore\n      pop\n      pop\n      swap1\n      dup1\n      0x02\n      add\n      mload(0x40)\n      dup1\n      0x40\n      add\n      0x40\n      mstore\n      swap1\n      dup2\n      0x00\n      dup3\n      add\n      0x02\n      dup1\n      0x20\n      mul\n      mload(0x40)\n      swap1\n      dup2\n      add\n      0x40\n      mstore\n      dup1\n      swap3\n      swap2\n      swap1\n      dup3\n      0x02\n      dup1\n      iszero\n      tag_476\n      jumpi\n      0x20\n      mul\n      dup3\n      add\n      swap2\n    tag_477:\n      dup2\n      sload\n      dup2\n      mstore\n      0x20\n      add\n      swap1\n      0x01\n      add\n      swap1\n      dup1\n      dup4\n      gt\n      tag_477\n      jumpi\n    tag_476:\n      pop\n      pop\n      pop\n      pop\n      pop\n      dup2\n      mstore\n      0x20\n      add\n      0x02\n      dup3\n      add\n      0x02\n      dup1\n      0x20\n      mul\n      mload(0x40)\n      swap1\n      dup2\n      add\n      0x40\n      mstore\n      dup1\n      swap3\n      swap2\n      swap1\n      dup3\n      0x02\n      dup1\n      iszero\n      tag_478\n      jumpi\n      0x20\n      mul\n      dup3\n      add\n      swap2\n    tag_479:\n      dup2\n      sload\n      dup2\n      mstore\n      0x20\n      add\n      swap1\n      0x01\n      add\n      swap1\n      dup1\n      dup4\n      gt\n      tag_479\n      jumpi\n    tag_478:\n      pop\n      pop\n      pop\n      pop\n      pop\n      dup2\n      mstore\n      pop\n      pop\n      swap1\n      dup1\n      0x06\n      add\n      mload(0x40)\n      dup1\n      0x40\n      add\n      0x40\n      mstore\n      swap1\n      dup2\n      0x00\n      dup3\n      add\n      sload\n      dup2\n      mstore\n      0x20\n      add\n      0x01\n      dup3\n      add\n      sload\n      dup2\n      mstore\n      pop\n      pop\n      swap1\n      pop\n      dup4\n      jump\t// out\n        /* \"#utility.yul\":7:82   */\n    tag_480:\n        /* \"#utility.yul\":40:46   */\n      0x00\n        /* \"#utility.yul\":73:75   */\n      0x40\n        /* \"#utility.yul\":67:76   */\n      mload\n        /* \"#utility.yul\":57:76   */\n      swap1\n      pop\n        /* \"#utility.yul\":7:82   */\n      swap1\n      jump\t// out\n        /* \"#utility.yul\":88:205   */\n    tag_481:\n        /* \"#utility.yul\":197:198   */\n      0x00\n        /* \"#utility.yul\":194:195   */\n      dup1\n        /* \"#utility.yul\":187:199   */\n      revert\n        /* \"#utility.yul\":211:328   */\n    tag_482:\n        /* \"#utility.yul\":320:321   */\n      0x00\n        /* \"#utility.yul\":317:318   */\n      dup1\n        /* \"#utility.yul\":310:322   */\n      revert\n        /* \"#utility.yul\":334:460   */\n    tag_483:\n        /* \"#utility.yul\":371:378   */\n      0x00\n        /* \"#utility.yul\":411:453   */\n      0xffffffffffffffffffffffffffffffffffffffff\n        /* \"#utility.yul\":404:409   */\n      dup3\n        /* \"#utility.yul\":400:454   */\n      and\n        /* \"#utility.yul\":389:454   */\n      swap1\n      pop\n        /* \"#utility.yul\":334:460   */\n      swap2\n      swap1\n      pop\n      jump\t// out\n        /* \"#utility.yul\":466:562   */\n    tag_484:\n        /* \"#utility.yul\":503:510   */\n      0x00\n        /* \"#utility.yul\":532:556   */\n      tag_583\n        /* \"#utility.yul\":550:555   */\n      dup3\n        /* \"#utility.yul\":532:556   */\n      tag_483\n      jump\t// in\n    tag_583:\n        /* \"#utility.yul\":521:556   */\n      swap1\n      pop\n        /* \"#utility.yul\":466:562   */\n      swap2\n      swap1\n      pop\n      jump\t// out\n        /* \"#utility.yul\":568:690   */\n    tag_485:\n        /* \"#utility.yul\":641:665   */\n      tag_585\n        /* \"#utility.yul\":659:664   */\n      dup2\n        /* \"#utility.yul\":641:665   */\n      tag_484\n      jump\t// in\n    tag_585:\n        /* \"#utility.yul\":634:639   */\n      dup2\n        /* \"#utility.yul\":631:666   */\n      eq\n        /* \"#utility.yul\":621:684   */\n      tag_586\n      jumpi\n        /* \"#utility.yul\":680:681   */\n      0x00\n        /* \"#utility.yul\":677:678   */\n      dup1\n        /* \"#utility.yul\":670:682   */\n      revert\n        /* \"#utility.yul\":621:684   */\n    tag_586:\n        /* \"#utility.yul\":568:690   */\n      pop\n      jump\t// out\n        /* \"#utility.yul\":696:835   */\n    tag_486:\n        /* \"#utility.yul\":742:747   */\n      0x00\n        /* \"#utility.yul\":780:786   */\n      dup2\n        /* \"#utility.yul\":767:787   */\n      calldataload\n        /* \"#utility.yul\":758:787   */\n      swap1\n      pop\n        /* \"#utility.yul\":796:829   */\n      tag_588\n        /* \"#utility.yul\":823:828   */\n      dup2\n        /* \"#utility.yul\":796:829   */\n      tag_485\n      jump\t// in\n    tag_588:\n        /* \"#utility.yul\":696:835   */\n      swap3\n      swap2\n      pop\n      pop\n      jump\t// out\n        /* \"#utility.yul\":841:1170   */\n    tag_32:\n        /* \"#utility.yul\":900:906   */\n      0x00\n        /* \"#utility.yul\":949:951   */\n      0x20\n        /* \"#utility.yul\":937:946   */\n      dup3\n        /* \"#utility.yul\":928:935   */\n      dup5\n        /* \"#utility.yul\":924:947   */\n      sub\n        /* \"#utility.yul\":920:952   */\n      slt\n        /* \"#utility.yul\":917:1036   */\n      iszero\n      tag_590\n      jumpi\n        /* \"#utility.yul\":955:1034   */\n      tag_591\n      tag_481\n      jump\t// in\n    tag_591:\n        /* \"#utility.yul\":917:1036   */\n    tag_590:\n        /* \"#utility.yul\":1075:1076   */\n      0x00\n        /* \"#utility.yul\":1100:1153   */\n      tag_592\n        /* \"#utility.yul\":1145:1152   */\n      dup5\n        /* \"#utility.yul\":1136:1142   */\n      dup3\n        /* \"#utility.yul\":1125:1134   */\n      dup6\n        /* \"#utility.yul\":1121:1143   */\n      add\n        /* \"#utility.yul\":1100:1153   */\n      tag_486\n      jump\t// in\n    tag_592:\n        /* \"#utility.yul\":1090:1153   */\n      swap2\n      pop\n        /* \"#utility.yul\":1046:1163   */\n      pop\n        /* \"#utility.yul\":841:1170   */\n      swap3\n      swap2\n      pop\n      pop\n      jump\t// out\n        /* \"#utility.yul\":1176:1253   */\n    tag_487:\n        /* \"#utility.yul\":1213:1220   */\n      0x00\n        /* \"#utility.yul\":1242:1247   */\n      dup2\n        /* \"#utility.yul\":1231:1247   */\n      swap1\n      pop\n        /* \"#utility.yul\":1176:1253   */\n      swap2\n      swap1\n      pop\n      jump\t// out\n        /* \"#utility.yul\":1259:1381   */\n    tag_488:\n        /* \"#utility.yul\":1332:1356   */\n      tag_595\n        /* \"#utility.yul\":1350:1355   */\n      dup2\n        /* \"#utility.yul\":1332:1356   */\n      tag_487\n      jump\t// in\n    tag_595:\n        /* \"#utility.yul\":1325:1330   */\n      dup2\n        /* \"#utility.yul\":1322:1357   */\n      eq\n        /* \"#utility.yul\":1312:1375   */\n      tag_596\n      jumpi\n        /* \"#utility.yul\":1371:1372   */\n      0x00\n        /* \"#utility.yul\":1368:1369   */\n      dup1\n        /* \"#utility.yul\":1361:1373   */\n      revert\n        /* \"#utility.yul\":1312:1375   */\n    tag_596:\n        /* \"#utility.yul\":1259:1381   */\n      pop\n      jump\t// out\n        /* \"#utility.yul\":1387:1526   */\n    tag_489:\n        /* \"#utility.yul\":1433:1438   */\n      0x00\n        /* \"#utility.yul\":1471:1477   */\n      dup2\n        /* \"#utility.yul\":1458:1478   */\n      calldataload\n        /* \"#utility.yul\":1449:1478   */\n      swap1\n      pop\n        /* \"#utility.yul\":1487:1520   */\n      tag_598\n        /* \"#utility.yul\":1514:1519   */\n      dup2\n        /* \"#utility.yul\":1487:1520   */\n      tag_488\n      jump\t// in\n    tag_598:\n        /* \"#utility.yul\":1387:1526   */\n      swap3\n      swap2\n      pop\n      pop\n      jump\t// out\n        /* \"#utility.yul\":1532:2006   */\n    tag_36:\n        /* \"#utility.yul\":1600:1606   */\n      0x00\n        /* \"#utility.yul\":1608:1614   */\n      dup1\n        /* \"#utility.yul\":1657:1659   */\n      0x40\n        /* \"#utility.yul\":1645:1654   */\n      dup4\n        /* \"#utility.yul\":1636:1643   */\n      dup6\n        /* \"#utility.yul\":1632:1655   */\n      sub\n        /* \"#utility.yul\":1628:1660   */\n      slt\n        /* \"#utility.yul\":1625:1744   */\n      iszero\n      tag_600\n      jumpi\n        /* \"#utility.yul\":1663:1742   */\n      tag_601\n      tag_481\n      jump\t// in\n    tag_601:\n        /* \"#utility.yul\":1625:1744   */\n    tag_600:\n        /* \"#utility.yul\":1783:1784   */\n      0x00\n        /* \"#utility.yul\":1808:1861   */\n      tag_602\n        /* \"#utility.yul\":1853:1860   */\n      dup6\n        /* \"#utility.yul\":1844:1850   */\n      dup3\n        /* \"#utility.yul\":1833:1842   */\n      dup7\n        /* \"#utility.yul\":1829:1851   */\n      add\n        /* \"#utility.yul\":1808:1861   */\n      tag_489\n      jump\t// in\n    tag_602:\n        /* \"#utility.yul\":1798:1861   */\n      swap3\n      pop\n        /* \"#utility.yul\":1754:1871   */\n      pop\n        /* \"#utility.yul\":1910:1912   */\n      0x20\n        /* \"#utility.yul\":1936:1989   */\n      tag_603\n        /* \"#utility.yul\":1981:1988   */\n      dup6\n        /* \"#utility.yul\":1972:1978   */\n      dup3\n        /* \"#utility.yul\":1961:1970   */\n      dup7\n        /* \"#utility.yul\":1957:1979   */\n      add\n        /* \"#utility.yul\":1936:1989   */\n      tag_489\n      jump\t// in\n    tag_603:\n        /* \"#utility.yul\":1926:1989   */\n      swap2\n      pop\n        /* \"#utility.yul\":1881:1999   */\n      pop\n        /* \"#utility.yul\":1532:2006   */\n      swap3\n      pop\n      swap3\n      swap1\n      pop\n      jump\t// out\n        /* \"#utility.yul\":2012:2130   */\n    tag_490:\n        /* \"#utility.yul\":2099:2123   */\n      tag_605\n        /* \"#utility.yul\":2117:2122   */\n      dup2\n        /* \"#utility.yul\":2099:2123   */\n      tag_487\n      jump\t// in\n    tag_605:\n        /* \"#utility.yul\":2094:2097   */\n      dup3\n        /* \"#utility.yul\":2087:2124   */\n      mstore\n        /* \"#utility.yul\":2012:2130   */\n      pop\n      pop\n      jump\t// out\n        /* \"#utility.yul\":2136:2213   */\n    tag_491:\n        /* \"#utility.yul\":2173:2180   */\n      0x00\n        /* \"#utility.yul\":2202:2207   */\n      dup2\n        /* \"#utility.yul\":2191:2207   */\n      swap1\n      pop\n        /* \"#utility.yul\":2136:2213   */\n      swap2\n      swap1\n      pop\n      jump\t// out\n        /* \"#utility.yul\":2219:2337   */\n    tag_492:\n        /* \"#utility.yul\":2306:2330   */\n      tag_608\n        /* \"#utility.yul\":2324:2329   */\n      dup2\n        /* \"#utility.yul\":2306:2330   */\n      tag_491\n      jump\t// in\n    tag_608:\n        /* \"#utility.yul\":2301:2304   */\n      dup3\n        /* \"#utility.yul\":2294:2331   */\n      mstore\n        /* \"#utility.yul\":2219:2337   */\n      pop\n      pop\n      jump\t// out\n        /* \"#utility.yul\":2343:2492   */\n    tag_493:\n        /* \"#utility.yul\":2379:2386   */\n      0x00\n        /* \"#utility.yul\":2419:2485   */\n      0xff00000000000000000000000000000000000000000000000000000000000000\n        /* \"#utility.yul\":2412:2417   */\n      dup3\n        /* \"#utility.yul\":2408:2486   */\n      and\n        /* \"#utility.yul\":2397:2486   */\n      swap1\n      pop\n        /* \"#utility.yul\":2343:2492   */\n      swap2\n      swap1\n      pop\n      jump\t// out\n        /* \"#utility.yul\":2498:2613   */\n    tag_494:\n        /* \"#utility.yul\":2583:2606   */\n      tag_611\n        /* \"#utility.yul\":2600:2605   */\n      dup2\n        /* \"#utility.yul\":2583:2606   */\n      tag_493\n      jump\t// in\n    tag_611:\n        /* \"#utility.yul\":2578:2581   */\n      dup3\n        /* \"#utility.yul\":2571:2607   */\n      mstore\n        /* \"#utility.yul\":2498:2613   */\n      pop\n      pop\n      jump\t// out\n        /* \"#utility.yul\":2619:2799   */\n    tag_141:\n        /* \"#utility.yul\":2667:2744   */\n      0x4e487b7100000000000000000000000000000000000000000000000000000000\n        /* \"#utility.yul\":2664:2665   */\n      0x00\n        /* \"#utility.yul\":2657:2745   */\n      mstore\n        /* \"#utility.yul\":2764:2768   */\n      0x21\n        /* \"#utility.yul\":2761:2762   */\n      0x04\n        /* \"#utility.yul\":2754:2769   */\n      mstore\n        /* \"#utility.yul\":2788:2792   */\n      0x24\n        /* \"#utility.yul\":2785:2786   */\n      0x00\n        /* \"#utility.yul\":2778:2793   */\n      revert\n        /* \"#utility.yul\":2805:2925   */\n    tag_495:\n        /* \"#utility.yul\":2893:2894   */\n      0x04\n        /* \"#utility.yul\":2886:2891   */\n      dup2\n        /* \"#utility.yul\":2883:2895   */\n      lt\n        /* \"#utility.yul\":2873:2919   */\n      tag_614\n      jumpi\n        /* \"#utility.yul\":2899:2917   */\n      tag_615\n      tag_141\n      jump\t// in\n    tag_615:\n        /* \"#utility.yul\":2873:2919   */\n    tag_614:\n        /* \"#utility.yul\":2805:2925   */\n      pop\n      jump\t// out\n        /* \"#utility.yul\":2931:3072   */\n    tag_496:\n        /* \"#utility.yul\":2983:2990   */\n      0x00\n        /* \"#utility.yul\":3012:3017   */\n      dup2\n        /* \"#utility.yul\":3001:3017   */\n      swap1\n      pop\n        /* \"#utility.yul\":3018:3066   */\n      tag_617\n        /* \"#utility.yul\":3060:3065   */\n      dup3\n        /* \"#utility.yul\":3018:3066   */\n      tag_495\n      jump\t// in\n    tag_617:\n        /* \"#utility.yul\":2931:3072   */\n      swap2\n      swap1\n      pop\n      jump\t// out\n        /* \"#utility.yul\":3078:3219   */\n    tag_497:\n        /* \"#utility.yul\":3141:3150   */\n      0x00\n        /* \"#utility.yul\":3174:3213   */\n      tag_619\n        /* \"#utility.yul\":3207:3212   */\n      dup3\n        /* \"#utility.yul\":3174:3213   */\n      tag_496\n      jump\t// in\n    tag_619:\n        /* \"#utility.yul\":3161:3213   */\n      swap1\n      pop\n        /* \"#utility.yul\":3078:3219   */\n      swap2\n      swap1\n      pop\n      jump\t// out\n        /* \"#utility.yul\":3225:3382   */\n    tag_498:\n        /* \"#utility.yul\":3325:3375   */\n      tag_621\n        /* \"#utility.yul\":3369:3374   */\n      dup2\n        /* \"#utility.yul\":3325:3375   */\n      tag_497\n      jump\t// in\n    tag_621:\n        /* \"#utility.yul\":3320:3323   */\n      dup3\n        /* \"#utility.yul\":3313:3376   */\n      mstore\n        /* \"#utility.yul\":3225:3382   */\n      pop\n      pop\n      jump\t// out\n        /* \"#utility.yul\":3388:4185   */\n    tag_39:\n        /* \"#utility.yul\":3632:3636   */\n      0x00\n        /* \"#utility.yul\":3670:3673   */\n      0xc0\n        /* \"#utility.yul\":3659:3668   */\n      dup3\n        /* \"#utility.yul\":3655:3674   */\n      add\n        /* \"#utility.yul\":3647:3674   */\n      swap1\n      pop\n        /* \"#utility.yul\":3684:3755   */\n      tag_623\n        /* \"#utility.yul\":3752:3753   */\n      0x00\n        /* \"#utility.yul\":3741:3750   */\n      dup4\n        /* \"#utility.yul\":3737:3754   */\n      add\n        /* \"#utility.yul\":3728:3734   */\n      dup10\n        /* \"#utility.yul\":3684:3755   */\n      tag_490\n      jump\t// in\n    tag_623:\n        /* \"#utility.yul\":3765:3837   */\n      tag_624\n        /* \"#utility.yul\":3833:3835   */\n      0x20\n        /* \"#utility.yul\":3822:3831   */\n      dup4\n        /* \"#utility.yul\":3818:3836   */\n      add\n        /* \"#utility.yul\":3809:3815   */\n      dup9\n        /* \"#utility.yul\":3765:3837   */\n      tag_492\n      jump\t// in\n    tag_624:\n        /* \"#utility.yul\":3847:3919   */\n      tag_625\n        /* \"#utility.yul\":3915:3917   */\n      0x40\n        /* \"#utility.yul\":3904:3913   */\n      dup4\n        /* \"#utility.yul\":3900:3918   */\n      add\n        /* \"#utility.yul\":3891:3897   */\n      dup8\n        /* \"#utility.yul\":3847:3919   */\n      tag_490\n      jump\t// in\n    tag_625:\n        /* \"#utility.yul\":3929:3999   */\n      tag_626\n        /* \"#utility.yul\":3995:3997   */\n      0x60\n        /* \"#utility.yul\":3984:3993   */\n      dup4\n        /* \"#utility.yul\":3980:3998   */\n      add\n        /* \"#utility.yul\":3971:3977   */\n      dup7\n        /* \"#utility.yul\":3929:3999   */\n      tag_494\n      jump\t// in\n    tag_626:\n        /* \"#utility.yul\":4009:4082   */\n      tag_627\n        /* \"#utility.yul\":4077:4080   */\n      0x80\n        /* \"#utility.yul\":4066:4075   */\n      dup4\n        /* \"#utility.yul\":4062:4081   */\n      add\n        /* \"#utility.yul\":4053:4059   */\n      dup6\n        /* \"#utility.yul\":4009:4082   */\n      tag_490\n      jump\t// in\n    tag_627:\n        /* \"#utility.yul\":4092:4178   */\n      tag_628\n        /* \"#utility.yul\":4173:4176   */\n      0xa0\n        /* \"#utility.yul\":4162:4171   */\n      dup4\n        /* \"#utility.yul\":4158:4177   */\n      add\n        /* \"#utility.yul\":4149:4155   */\n      dup5\n        /* \"#utility.yul\":4092:4178   */\n      tag_498\n      jump\t// in\n    tag_628:\n        /* \"#utility.yul\":3388:4185   */\n      swap8\n      swap7\n      pop\n      pop\n      pop\n      pop\n      pop\n      pop\n      pop\n      jump\t// out\n        /* \"#utility.yul\":4191:4413   */\n    tag_43:\n        /* \"#utility.yul\":4284:4288   */\n      0x00\n        /* \"#utility.yul\":4322:4324   */\n      0x20\n        /* \"#utility.yul\":4311:4320   */\n      dup3\n        /* \"#utility.yul\":4307:4325   */\n      add\n        /* \"#utility.yul\":4299:4325   */\n      swap1\n      pop\n        /* \"#utility.yul\":4335:4406   */\n      tag_630\n        /* \"#utility.yul\":4403:4404   */\n      0x00\n        /* \"#utility.yul\":4392:4401   */\n      dup4\n        /* \"#utility.yul\":4388:4405   */\n      add\n        /* \"#utility.yul\":4379:4385   */\n      dup5\n        /* \"#utility.yul\":4335:4406   */\n      tag_490\n      jump\t// in\n    tag_630:\n        /* \"#utility.yul\":4191:4413   */\n      swap3\n      swap2\n      pop\n      pop\n      jump\t// out\n        /* \"#utility.yul\":4419:4509   */\n    tag_499:\n        /* \"#utility.yul\":4453:4460   */\n      0x00\n        /* \"#utility.yul\":4496:4501   */\n      dup2\n        /* \"#utility.yul\":4489:4502   */\n      iszero\n        /* \"#utility.yul\":4482:4503   */\n      iszero\n        /* \"#utility.yul\":4471:4503   */\n      swap1\n      pop\n        /* \"#utility.yul\":4419:4509   */\n      swap2\n      swap1\n      pop\n      jump\t// out\n        /* \"#utility.yul\":4515:4631   */\n    tag_500:\n        /* \"#utility.yul\":4585:4606   */\n      tag_633\n        /* \"#utility.yul\":4600:4605   */\n      dup2\n        /* \"#utility.yul\":4585:4606   */\n      tag_499\n      jump\t// in\n    tag_633:\n        /* \"#utility.yul\":4578:4583   */\n      dup2\n        /* \"#utility.yul\":4575:4607   */\n      eq\n        /* \"#utility.yul\":4565:4625   */\n      tag_634\n      jumpi\n        /* \"#utility.yul\":4621:4622   */\n      0x00\n        /* \"#utility.yul\":4618:4619   */\n      dup1\n        /* \"#utility.yul\":4611:4623   */\n      revert\n        /* \"#utility.yul\":4565:4625   */\n    tag_634:\n        /* \"#utility.yul\":4515:4631   */\n      pop\n      jump\t// out\n        /* \"#utility.yul\":4637:4770   */\n    tag_501:\n        /* \"#utility.yul\":4680:4685   */\n      0x00\n        /* \"#utility.yul\":4718:4724   */\n      dup2\n        /* \"#utility.yul\":4705:4725   */\n      calldataload\n        /* \"#utility.yul\":4696:4725   */\n      swap1\n      pop\n        /* \"#utility.yul\":4734:4764   */\n      tag_636\n        /* \"#utility.yul\":4758:4763   */\n      dup2\n        /* \"#utility.yul\":4734:4764   */\n      tag_500\n      jump\t// in\n    tag_636:\n        /* \"#utility.yul\":4637:4770   */\n      swap3\n      swap2\n      pop\n      pop\n      jump\t// out\n        /* \"#utility.yul\":4776:5244   */\n    tag_46:\n        /* \"#utility.yul\":4841:4847   */\n      0x00\n        /* \"#utility.yul\":4849:4855   */\n      dup1\n        /* \"#utility.yul\":4898:4900   */\n      0x40\n        /* \"#utility.yul\":4886:4895   */\n      dup4\n        /* \"#utility.yul\":4877:4884   */\n      dup6\n        /* \"#utility.yul\":4873:4896   */\n      sub\n        /* \"#utility.yul\":4869:4901   */\n      slt\n        /* \"#utility.yul\":4866:4985   */\n      iszero\n      tag_638\n      jumpi\n        /* \"#utility.yul\":4904:4983   */\n      tag_639\n      tag_481\n      jump\t// in\n    tag_639:\n        /* \"#utility.yul\":4866:4985   */\n    tag_638:\n        /* \"#utility.yul\":5024:5025   */\n      0x00\n        /* \"#utility.yul\":5049:5102   */\n      tag_640\n        /* \"#utility.yul\":5094:5101   */\n      dup6\n        /* \"#utility.yul\":5085:5091   */\n      dup3\n        /* \"#utility.yul\":5074:5083   */\n      dup7\n        /* \"#utility.yul\":5070:5092   */\n      add\n        /* \"#utility.yul\":5049:5102   */\n      tag_489\n      jump\t// in\n    tag_640:\n        /* \"#utility.yul\":5039:5102   */\n      swap3\n      pop\n        /* \"#utility.yul\":4995:5112   */\n      pop\n        /* \"#utility.yul\":5151:5153   */\n      0x20\n        /* \"#utility.yul\":5177:5227   */\n      tag_641\n        /* \"#utility.yul\":5219:5226   */\n      dup6\n        /* \"#utility.yul\":5210:5216   */\n      dup3\n        /* \"#utility.yul\":5199:5208   */\n      dup7\n        /* \"#utility.yul\":5195:5217   */\n      add\n        /* \"#utility.yul\":5177:5227   */\n      tag_501\n      jump\t// in\n    tag_641:\n        /* \"#utility.yul\":5167:5227   */\n      swap2\n      pop\n        /* \"#utility.yul\":5122:5237   */\n      pop\n        /* \"#utility.yul\":4776:5244   */\n      swap3\n      pop\n      swap3\n      swap1\n      pop\n      jump\t// out\n        /* \"#utility.yul\":5250:5579   */\n    tag_50:\n        /* \"#utility.yul\":5309:5315   */\n      0x00\n        /* \"#utility.yul\":5358:5360   */\n      0x20\n        /* \"#utility.yul\":5346:5355   */\n      dup3\n        /* \"#utility.yul\":5337:5344   */\n      dup5\n        /* \"#utility.yul\":5333:5356   */\n      sub\n        /* \"#utility.yul\":5329:5361   */\n      slt\n        /* \"#utility.yul\":5326:5445   */\n      iszero\n      tag_643\n      jumpi\n        /* \"#utility.yul\":5364:5443   */\n      tag_644\n      tag_481\n      jump\t// in\n    tag_644:\n        /* \"#utility.yul\":5326:5445   */\n    tag_643:\n        /* \"#utility.yul\":5484:5485   */\n      0x00\n        /* \"#utility.yul\":5509:5562   */\n      tag_645\n        /* \"#utility.yul\":5554:5561   */\n      dup5\n        /* \"#utility.yul\":5545:5551   */\n      dup3\n        /* \"#utility.yul\":5534:5543   */\n      dup6\n        /* \"#utility.yul\":5530:5552   */\n      add\n        /* \"#utility.yul\":5509:5562   */\n      tag_489\n      jump\t// in\n    tag_645:\n        /* \"#utility.yul\":5499:5562   */\n      swap2\n      pop\n        /* \"#utility.yul\":5455:5572   */\n      pop\n        /* \"#utility.yul\":5250:5579   */\n      swap3\n      swap2\n      pop\n      pop\n      jump\t// out\n        /* \"#utility.yul\":5585:5703   */\n    tag_502:\n        /* \"#utility.yul\":5672:5696   */\n      tag_647\n        /* \"#utility.yul\":5690:5695   */\n      dup2\n        /* \"#utility.yul\":5672:5696   */\n      tag_484\n      jump\t// in\n    tag_647:\n        /* \"#utility.yul\":5667:5670   */\n      dup3\n        /* \"#utility.yul\":5660:5697   */\n      mstore\n        /* \"#utility.yul\":5585:5703   */\n      pop\n      pop\n      jump\t// out\n        /* \"#utility.yul\":5709:6621   */\n    tag_53:\n        /* \"#utility.yul\":5983:5987   */\n      0x00\n        /* \"#utility.yul\":6021:6024   */\n      0xe0\n        /* \"#utility.yul\":6010:6019   */\n      dup3\n        /* \"#utility.yul\":6006:6025   */\n      add\n        /* \"#utility.yul\":5998:6025   */\n      swap1\n      pop\n        /* \"#utility.yul\":6035:6106   */\n      tag_649\n        /* \"#utility.yul\":6103:6104   */\n      0x00\n        /* \"#utility.yul\":6092:6101   */\n      dup4\n        /* \"#utility.yul\":6088:6105   */\n      add\n        /* \"#utility.yul\":6079:6085   */\n      dup11\n        /* \"#utility.yul\":6035:6106   */\n      tag_502\n      jump\t// in\n    tag_649:\n        /* \"#utility.yul\":6116:6188   */\n      tag_650\n        /* \"#utility.yul\":6184:6186   */\n      0x20\n        /* \"#utility.yul\":6173:6182   */\n      dup4\n        /* \"#utility.yul\":6169:6187   */\n      add\n        /* \"#utility.yul\":6160:6166   */\n      dup10\n        /* \"#utility.yul\":6116:6188   */\n      tag_490\n      jump\t// in\n    tag_650:\n        /* \"#utility.yul\":6198:6270   */\n      tag_651\n        /* \"#utility.yul\":6266:6268   */\n      0x40\n        /* \"#utility.yul\":6255:6264   */\n      dup4\n        /* \"#utility.yul\":6251:6269   */\n      add\n        /* \"#utility.yul\":6242:6248   */\n      dup9\n        /* \"#utility.yul\":6198:6270   */\n      tag_490\n      jump\t// in\n    tag_651:\n        /* \"#utility.yul\":6280:6352   */\n      tag_652\n        /* \"#utility.yul\":6348:6350   */\n      0x60\n        /* \"#utility.yul\":6337:6346   */\n      dup4\n        /* \"#utility.yul\":6333:6351   */\n      add\n        /* \"#utility.yul\":6324:6330   */\n      dup8\n        /* \"#utility.yul\":6280:6352   */\n      tag_490\n      jump\t// in\n    tag_652:\n        /* \"#utility.yul\":6362:6435   */\n      tag_653\n        /* \"#utility.yul\":6430:6433   */\n      0x80\n        /* \"#utility.yul\":6419:6428   */\n      dup4\n        /* \"#utility.yul\":6415:6434   */\n      add\n        /* \"#utility.yul\":6406:6412   */\n      dup7\n        /* \"#utility.yul\":6362:6435   */\n      tag_490\n      jump\t// in\n    tag_653:\n        /* \"#utility.yul\":6445:6518   */\n      tag_654\n        /* \"#utility.yul\":6513:6516   */\n      0xa0\n        /* \"#utility.yul\":6502:6511   */\n      dup4\n        /* \"#utility.yul\":6498:6517   */\n      add\n        /* \"#utility.yul\":6489:6495   */\n      dup6\n        /* \"#utility.yul\":6445:6518   */\n      tag_492\n      jump\t// in\n    tag_654:\n        /* \"#utility.yul\":6528:6614   */\n      tag_655\n        /* \"#utility.yul\":6609:6612   */\n      0xc0\n        /* \"#utility.yul\":6598:6607   */\n      dup4\n        /* \"#utility.yul\":6594:6613   */\n      add\n        /* \"#utility.yul\":6585:6591   */\n      dup5\n        /* \"#utility.yul\":6528:6614   */\n      tag_498\n      jump\t// in\n    tag_655:\n        /* \"#utility.yul\":5709:6621   */\n      swap9\n      swap8\n      pop\n      pop\n      pop\n      pop\n      pop\n      pop\n      pop\n      pop\n      jump\t// out\n        /* \"#utility.yul\":6627:6736   */\n    tag_503:\n        /* \"#utility.yul\":6708:6729   */\n      tag_657\n        /* \"#utility.yul\":6723:6728   */\n      dup2\n        /* \"#utility.yul\":6708:6729   */\n      tag_499\n      jump\t// in\n    tag_657:\n        /* \"#utility.yul\":6703:6706   */\n      dup3\n        /* \"#utility.yul\":6696:6730   */\n      mstore\n        /* \"#utility.yul\":6627:6736   */\n      pop\n      pop\n      jump\t// out\n        /* \"#utility.yul\":6742:7493   */\n    tag_58:\n        /* \"#utility.yul\":6963:6967   */\n      0x00\n        /* \"#utility.yul\":7001:7004   */\n      0xc0\n        /* \"#utility.yul\":6990:6999   */\n      dup3\n        /* \"#utility.yul\":6986:7005   */\n      add\n        /* \"#utility.yul\":6978:7005   */\n      swap1\n      pop\n        /* \"#utility.yul\":7015:7086   */\n      tag_659\n        /* \"#utility.yul\":7083:7084   */\n      0x00\n        /* \"#utility.yul\":7072:7081   */\n      dup4\n        /* \"#utility.yul\":7068:7085   */\n      add\n        /* \"#utility.yul\":7059:7065   */\n      dup10\n        /* \"#utility.yul\":7015:7086   */\n      tag_502\n      jump\t// in\n    tag_659:\n        /* \"#utility.yul\":7096:7168   */\n      tag_660\n        /* \"#utility.yul\":7164:7166   */\n      0x20\n        /* \"#utility.yul\":7153:7162   */\n      dup4\n        /* \"#utility.yul\":7149:7167   */\n      add\n        /* \"#utility.yul\":7140:7146   */\n      dup9\n        /* \"#utility.yul\":7096:7168   */\n      tag_490\n      jump\t// in\n    tag_660:\n        /* \"#utility.yul\":7178:7250   */\n      tag_661\n        /* \"#utility.yul\":7246:7248   */\n      0x40\n        /* \"#utility.yul\":7235:7244   */\n      dup4\n        /* \"#utility.yul\":7231:7249   */\n      add\n        /* \"#utility.yul\":7222:7228   */\n      dup8\n        /* \"#utility.yul\":7178:7250   */\n      tag_490\n      jump\t// in\n    tag_661:\n        /* \"#utility.yul\":7260:7332   */\n      tag_662\n        /* \"#utility.yul\":7328:7330   */\n      0x60\n        /* \"#utility.yul\":7317:7326   */\n      dup4\n        /* \"#utility.yul\":7313:7331   */\n      add\n        /* \"#utility.yul\":7304:7310   */\n      dup7\n        /* \"#utility.yul\":7260:7332   */\n      tag_492\n      jump\t// in\n    tag_662:\n        /* \"#utility.yul\":7342:7409   */\n      tag_663\n        /* \"#utility.yul\":7404:7407   */\n      0x80\n        /* \"#utility.yul\":7393:7402   */\n      dup4\n        /* \"#utility.yul\":7389:7408   */\n      add\n        /* \"#utility.yul\":7380:7386   */\n      dup6\n        /* \"#utility.yul\":7342:7409   */\n      tag_503\n      jump\t// in\n    tag_663:\n        /* \"#utility.yul\":7419:7486   */\n      tag_664\n        /* \"#utility.yul\":7481:7484   */\n      0xa0\n        /* \"#utility.yul\":7470:7479   */\n      dup4\n        /* \"#utility.yul\":7466:7485   */\n      add\n        /* \"#utility.yul\":7457:7463   */\n      dup5\n        /* \"#utility.yul\":7419:7486   */\n      tag_503\n      jump\t// in\n    tag_664:\n        /* \"#utility.yul\":6742:7493   */\n      swap8\n      swap7\n      pop\n      pop\n      pop\n      pop\n      pop\n      pop\n      pop\n      jump\t// out\n        /* \"#utility.yul\":7499:7559   */\n    tag_504:\n        /* \"#utility.yul\":7527:7530   */\n      0x00\n        /* \"#utility.yul\":7548:7553   */\n      dup2\n        /* \"#utility.yul\":7541:7553   */\n      swap1\n      pop\n        /* \"#utility.yul\":7499:7559   */\n      swap2\n      swap1\n      pop\n      jump\t// out\n        /* \"#utility.yul\":7565:7707   */\n    tag_505:\n        /* \"#utility.yul\":7615:7624   */\n      0x00\n        /* \"#utility.yul\":7648:7701   */\n      tag_667\n        /* \"#utility.yul\":7666:7700   */\n      tag_668\n        /* \"#utility.yul\":7675:7699   */\n      tag_669\n        /* \"#utility.yul\":7693:7698   */\n      dup5\n        /* \"#utility.yul\":7675:7699   */\n      tag_483\n      jump\t// in\n    tag_669:\n        /* \"#utility.yul\":7666:7700   */\n      tag_504\n      jump\t// in\n    tag_668:\n        /* \"#utility.yul\":7648:7701   */\n      tag_483\n      jump\t// in\n    tag_667:\n        /* \"#utility.yul\":7635:7701   */\n      swap1\n      pop\n        /* \"#utility.yul\":7565:7707   */\n      swap2\n      swap1\n      pop\n      jump\t// out\n        /* \"#utility.yul\":7713:7839   */\n    tag_506:\n        /* \"#utility.yul\":7763:7772   */\n      0x00\n        /* \"#utility.yul\":7796:7833   */\n      tag_671\n        /* \"#utility.yul\":7827:7832   */\n      dup3\n        /* \"#utility.yul\":7796:7833   */\n      tag_505\n      jump\t// in\n    tag_671:\n        /* \"#utility.yul\":7783:7833   */\n      swap1\n      pop\n        /* \"#utility.yul\":7713:7839   */\n      swap2\n      swap1\n      pop\n      jump\t// out\n        /* \"#utility.yul\":7845:7988   */\n    tag_507:\n        /* \"#utility.yul\":7912:7921   */\n      0x00\n        /* \"#utility.yul\":7945:7982   */\n      tag_673\n        /* \"#utility.yul\":7976:7981   */\n      dup3\n        /* \"#utility.yul\":7945:7982   */\n      tag_506\n      jump\t// in\n    tag_673:\n        /* \"#utility.yul\":7932:7982   */\n      swap1\n      pop\n        /* \"#utility.yul\":7845:7988   */\n      swap2\n      swap1\n      pop\n      jump\t// out\n        /* \"#utility.yul\":7994:8159   */\n    tag_508:\n        /* \"#utility.yul\":8098:8152   */\n      tag_675\n        /* \"#utility.yul\":8146:8151   */\n      dup2\n        /* \"#utility.yul\":8098:8152   */\n      tag_507\n      jump\t// in\n    tag_675:\n        /* \"#utility.yul\":8093:8096   */\n      dup3\n        /* \"#utility.yul\":8086:8153   */\n      mstore\n        /* \"#utility.yul\":7994:8159   */\n      pop\n      pop\n      jump\t// out\n        /* \"#utility.yul\":8165:8421   */\n    tag_62:\n        /* \"#utility.yul\":8275:8279   */\n      0x00\n        /* \"#utility.yul\":8313:8315   */\n      0x20\n        /* \"#utility.yul\":8302:8311   */\n      dup3\n        /* \"#utility.yul\":8298:8316   */\n      add\n        /* \"#utility.yul\":8290:8316   */\n      swap1\n      pop\n        /* \"#utility.yul\":8326:8414   */\n      tag_677\n        /* \"#utility.yul\":8411:8412   */\n      0x00\n        /* \"#utility.yul\":8400:8409   */\n      dup4\n        /* \"#utility.yul\":8396:8413   */\n      add\n        /* \"#utility.yul\":8387:8393   */\n      dup5\n        /* \"#utility.yul\":8326:8414   */\n      tag_508\n      jump\t// in\n    tag_677:\n        /* \"#utility.yul\":8165:8421   */\n      swap3\n      swap2\n      pop\n      pop\n      jump\t// out\n        /* \"#utility.yul\":8427:8869   */\n    tag_67:\n        /* \"#utility.yul\":8576:8580   */\n      0x00\n        /* \"#utility.yul\":8614:8616   */\n      0x60\n        /* \"#utility.yul\":8603:8612   */\n      dup3\n        /* \"#utility.yul\":8599:8617   */\n      add\n        /* \"#utility.yul\":8591:8617   */\n      swap1\n      pop\n        /* \"#utility.yul\":8627:8698   */\n      tag_679\n        /* \"#utility.yul\":8695:8696   */\n      0x00\n        /* \"#utility.yul\":8684:8693   */\n      dup4\n        /* \"#utility.yul\":8680:8697   */\n      add\n        /* \"#utility.yul\":8671:8677   */\n      dup7\n        /* \"#utility.yul\":8627:8698   */\n      tag_502\n      jump\t// in\n    tag_679:\n        /* \"#utility.yul\":8708:8780   */\n      tag_680\n        /* \"#utility.yul\":8776:8778   */\n      0x20\n        /* \"#utility.yul\":8765:8774   */\n      dup4\n        /* \"#utility.yul\":8761:8779   */\n      add\n        /* \"#utility.yul\":8752:8758   */\n      dup6\n        /* \"#utility.yul\":8708:8780   */\n      tag_490\n      jump\t// in\n    tag_680:\n        /* \"#utility.yul\":8790:8862   */\n      tag_681\n        /* \"#utility.yul\":8858:8860   */\n      0x40\n        /* \"#utility.yul\":8847:8856   */\n      dup4\n        /* \"#utility.yul\":8843:8861   */\n      add\n        /* \"#utility.yul\":8834:8840   */\n      dup5\n        /* \"#utility.yul\":8790:8862   */\n      tag_492\n      jump\t// in\n    tag_681:\n        /* \"#utility.yul\":8427:8869   */\n      swap5\n      swap4\n      pop\n      pop\n      pop\n      pop\n      jump\t// out\n        /* \"#utility.yul\":8875:8997   */\n    tag_509:\n        /* \"#utility.yul\":8948:8972   */\n      tag_683\n        /* \"#utility.yul\":8966:8971   */\n      dup2\n        /* \"#utility.yul\":8948:8972   */\n      tag_491\n      jump\t// in\n    tag_683:\n        /* \"#utility.yul\":8941:8946   */\n      dup2\n        /* \"#utility.yul\":8938:8973   */\n      eq\n        /* \"#utility.yul\":8928:8991   */\n      tag_684\n      jumpi\n        /* \"#utility.yul\":8987:8988   */\n      0x00\n        /* \"#utility.yul\":8984:8985   */\n      dup1\n        /* \"#utility.yul\":8977:8989   */\n      revert\n        /* \"#utility.yul\":8928:8991   */\n    tag_684:\n        /* \"#utility.yul\":8875:8997   */\n      pop\n      jump\t// out\n        /* \"#utility.yul\":9003:9142   */\n    tag_510:\n        /* \"#utility.yul\":9049:9054   */\n      0x00\n        /* \"#utility.yul\":9087:9093   */\n      dup2\n        /* \"#utility.yul\":9074:9094   */\n      calldataload\n        /* \"#utility.yul\":9065:9094   */\n      swap1\n      pop\n        /* \"#utility.yul\":9103:9136   */\n      tag_686\n        /* \"#utility.yul\":9130:9135   */\n      dup2\n        /* \"#utility.yul\":9103:9136   */\n      tag_509\n      jump\t// in\n    tag_686:\n        /* \"#utility.yul\":9003:9142   */\n      swap3\n      swap2\n      pop\n      pop\n      jump\t// out\n        /* \"#utility.yul\":9148:9268   */\n    tag_511:\n        /* \"#utility.yul\":9220:9243   */\n      tag_688\n        /* \"#utility.yul\":9237:9242   */\n      dup2\n        /* \"#utility.yul\":9220:9243   */\n      tag_493\n      jump\t// in\n    tag_688:\n        /* \"#utility.yul\":9213:9218   */\n      dup2\n        /* \"#utility.yul\":9210:9244   */\n      eq\n        /* \"#utility.yul\":9200:9262   */\n      tag_689\n      jumpi\n        /* \"#utility.yul\":9258:9259   */\n      0x00\n        /* \"#utility.yul\":9255:9256   */\n      dup1\n        /* \"#utility.yul\":9248:9260   */\n      revert\n        /* \"#utility.yul\":9200:9262   */\n    tag_689:\n        /* \"#utility.yul\":9148:9268   */\n      pop\n      jump\t// out\n        /* \"#utility.yul\":9274:9411   */\n    tag_512:\n        /* \"#utility.yul\":9319:9324   */\n      0x00\n        /* \"#utility.yul\":9357:9363   */\n      dup2\n        /* \"#utility.yul\":9344:9364   */\n      calldataload\n        /* \"#utility.yul\":9335:9364   */\n      swap1\n      pop\n        /* \"#utility.yul\":9373:9405   */\n      tag_691\n        /* \"#utility.yul\":9399:9404   */\n      dup2\n        /* \"#utility.yul\":9373:9405   */\n      tag_511\n      jump\t// in\n    tag_691:\n        /* \"#utility.yul\":9274:9411   */\n      swap3\n      swap2\n      pop\n      pop\n      jump\t// out\n        /* \"#utility.yul\":9417:10180   */\n    tag_77:\n        /* \"#utility.yul\":9502:9508   */\n      0x00\n        /* \"#utility.yul\":9510:9516   */\n      dup1\n        /* \"#utility.yul\":9518:9524   */\n      0x00\n        /* \"#utility.yul\":9526:9532   */\n      dup1\n        /* \"#utility.yul\":9575:9578   */\n      0x80\n        /* \"#utility.yul\":9563:9572   */\n      dup6\n        /* \"#utility.yul\":9554:9561   */\n      dup8\n        /* \"#utility.yul\":9550:9573   */\n      sub\n        /* \"#utility.yul\":9546:9579   */\n      slt\n        /* \"#utility.yul\":9543:9663   */\n      iszero\n      tag_693\n      jumpi\n        /* \"#utility.yul\":9582:9661   */\n      tag_694\n      tag_481\n      jump\t// in\n    tag_694:\n        /* \"#utility.yul\":9543:9663   */\n    tag_693:\n        /* \"#utility.yul\":9702:9703   */\n      0x00\n        /* \"#utility.yul\":9727:9780   */\n      tag_695\n        /* \"#utility.yul\":9772:9779   */\n      dup8\n        /* \"#utility.yul\":9763:9769   */\n      dup3\n        /* \"#utility.yul\":9752:9761   */\n      dup9\n        /* \"#utility.yul\":9748:9770   */\n      add\n        /* \"#utility.yul\":9727:9780   */\n      tag_510\n      jump\t// in\n    tag_695:\n        /* \"#utility.yul\":9717:9780   */\n      swap5\n      pop\n        /* \"#utility.yul\":9673:9790   */\n      pop\n        /* \"#utility.yul\":9829:9831   */\n      0x20\n        /* \"#utility.yul\":9855:9908   */\n      tag_696\n        /* \"#utility.yul\":9900:9907   */\n      dup8\n        /* \"#utility.yul\":9891:9897   */\n      dup3\n        /* \"#utility.yul\":9880:9889   */\n      dup9\n        /* \"#utility.yul\":9876:9898   */\n      add\n        /* \"#utility.yul\":9855:9908   */\n      tag_489\n      jump\t// in\n    tag_696:\n        /* \"#utility.yul\":9845:9908   */\n      swap4\n      pop\n        /* \"#utility.yul\":9800:9918   */\n      pop\n        /* \"#utility.yul\":9957:9959   */\n      0x40\n        /* \"#utility.yul\":9983:10035   */\n      tag_697\n        /* \"#utility.yul\":10027:10034   */\n      dup8\n        /* \"#utility.yul\":10018:10024   */\n      dup3\n        /* \"#utility.yul\":10007:10016   */\n      dup9\n        /* \"#utility.yul\":10003:10025   */\n      add\n        /* \"#utility.yul\":9983:10035   */\n      tag_512\n      jump\t// in\n    tag_697:\n        /* \"#utility.yul\":9973:10035   */\n      swap3\n      pop\n        /* \"#utility.yul\":9928:10045   */\n      pop\n        /* \"#utility.yul\":10084:10086   */\n      0x60\n        /* \"#utility.yul\":10110:10163   */\n      tag_698\n        /* \"#utility.yul\":10155:10162   */\n      dup8\n        /* \"#utility.yul\":10146:10152   */\n      dup3\n        /* \"#utility.yul\":10135:10144   */\n      dup9\n        /* \"#utility.yul\":10131:10153   */\n      add\n        /* \"#utility.yul\":10110:10163   */\n      tag_489\n      jump\t// in\n    tag_698:\n        /* \"#utility.yul\":10100:10163   */\n      swap2\n      pop\n        /* \"#utility.yul\":10055:10173   */\n      pop\n        /* \"#utility.yul\":9417:10180   */\n      swap3\n      swap6\n      swap2\n      swap5\n      pop\n      swap3\n      pop\n      jump\t// out\n        /* \"#utility.yul\":10186:10735   */\n    tag_83:\n        /* \"#utility.yul\":10361:10365   */\n      0x00\n        /* \"#utility.yul\":10399:10402   */\n      0x80\n        /* \"#utility.yul\":10388:10397   */\n      dup3\n        /* \"#utility.yul\":10384:10403   */\n      add\n        /* \"#utility.yul\":10376:10403   */\n      swap1\n      pop\n        /* \"#utility.yul\":10413:10484   */\n      tag_700\n        /* \"#utility.yul\":10481:10482   */\n      0x00\n        /* \"#utility.yul\":10470:10479   */\n      dup4\n        /* \"#utility.yul\":10466:10483   */\n      add\n        /* \"#utility.yul\":10457:10463   */\n      dup8\n        /* \"#utility.yul\":10413:10484   */\n      tag_492\n      jump\t// in\n    tag_700:\n        /* \"#utility.yul\":10494:10566   */\n      tag_701\n        /* \"#utility.yul\":10562:10564   */\n      0x20\n        /* \"#utility.yul\":10551:10560   */\n      dup4\n        /* \"#utility.yul\":10547:10565   */\n      add\n        /* \"#utility.yul\":10538:10544   */\n      dup7\n        /* \"#utility.yul\":10494:10566   */\n      tag_490\n      jump\t// in\n    tag_701:\n        /* \"#utility.yul\":10576:10646   */\n      tag_702\n        /* \"#utility.yul\":10642:10644   */\n      0x40\n        /* \"#utility.yul\":10631:10640   */\n      dup4\n        /* \"#utility.yul\":10627:10645   */\n      add\n        /* \"#utility.yul\":10618:10624   */\n      dup6\n        /* \"#utility.yul\":10576:10646   */\n      tag_494\n      jump\t// in\n    tag_702:\n        /* \"#utility.yul\":10656:10728   */\n      tag_703\n        /* \"#utility.yul\":10724:10726   */\n      0x60\n        /* \"#utility.yul\":10713:10722   */\n      dup4\n        /* \"#utility.yul\":10709:10727   */\n      add\n        /* \"#utility.yul\":10700:10706   */\n      dup5\n        /* \"#utility.yul\":10656:10728   */\n      tag_492\n      jump\t// in\n    tag_703:\n        /* \"#utility.yul\":10186:10735   */\n      swap6\n      swap5\n      pop\n      pop\n      pop\n      pop\n      pop\n      jump\t// out\n        /* \"#utility.yul\":10741:10858   */\n    tag_513:\n        /* \"#utility.yul\":10850:10851   */\n      0x00\n        /* \"#utility.yul\":10847:10848   */\n      dup1\n        /* \"#utility.yul\":10840:10852   */\n      revert\n        /* \"#utility.yul\":10864:10981   */\n    tag_514:\n        /* \"#utility.yul\":10973:10974   */\n      0x00\n        /* \"#utility.yul\":10970:10971   */\n      dup1\n        /* \"#utility.yul\":10963:10975   */\n      revert\n        /* \"#utility.yul\":10987:11089   */\n    tag_515:\n        /* \"#utility.yul\":11028:11034   */\n      0x00\n        /* \"#utility.yul\":11079:11081   */\n      0x1f\n        /* \"#utility.yul\":11075:11082   */\n      not\n        /* \"#utility.yul\":11070:11072   */\n      0x1f\n        /* \"#utility.yul\":11063:11068   */\n      dup4\n        /* \"#utility.yul\":11059:11073   */\n      add\n        /* \"#utility.yul\":11055:11083   */\n      and\n        /* \"#utility.yul\":11045:11083   */\n      swap1\n      pop\n        /* \"#utility.yul\":10987:11089   */\n      swap2\n      swap1\n      pop\n      jump\t// out\n        /* \"#utility.yul\":11095:11275   */\n    tag_516:\n        /* \"#utility.yul\":11143:11220   */\n      0x4e487b7100000000000000000000000000000000000000000000000000000000\n        /* \"#utility.yul\":11140:11141   */\n      0x00\n        /* \"#utility.yul\":11133:11221   */\n      mstore\n        /* \"#utility.yul\":11240:11244   */\n      0x41\n        /* \"#utility.yul\":11237:11238   */\n      0x04\n        /* \"#utility.yul\":11230:11245   */\n      mstore\n        /* \"#utility.yul\":11264:11268   */\n      0x24\n        /* \"#utility.yul\":11261:11262   */\n      0x00\n        /* \"#utility.yul\":11254:11269   */\n      revert\n        /* \"#utility.yul\":11281:11562   */\n    tag_517:\n        /* \"#utility.yul\":11364:11391   */\n      tag_709\n        /* \"#utility.yul\":11386:11390   */\n      dup3\n        /* \"#utility.yul\":11364:11391   */\n      tag_515\n      jump\t// in\n    tag_709:\n        /* \"#utility.yul\":11356:11362   */\n      dup2\n        /* \"#utility.yul\":11352:11392   */\n      add\n        /* \"#utility.yul\":11494:11500   */\n      dup2\n        /* \"#utility.yul\":11482:11492   */\n      dup2\n        /* \"#utility.yul\":11479:11501   */\n      lt\n        /* \"#utility.yul\":11458:11476   */\n      0xffffffffffffffff\n        /* \"#utility.yul\":11446:11456   */\n      dup3\n        /* \"#utility.yul\":11443:11477   */\n      gt\n        /* \"#utility.yul\":11440:11502   */\n      or\n        /* \"#utility.yul\":11437:11525   */\n      iszero\n      tag_710\n      jumpi\n        /* \"#utility.yul\":11505:11523   */\n      tag_711\n      tag_516\n      jump\t// in\n    tag_711:\n        /* \"#utility.yul\":11437:11525   */\n    tag_710:\n        /* \"#utility.yul\":11545:11555   */\n      dup1\n        /* \"#utility.yul\":11541:11543   */\n      0x40\n        /* \"#utility.yul\":11534:11556   */\n      mstore\n        /* \"#utility.yul\":11324:11562   */\n      pop\n        /* \"#utility.yul\":11281:11562   */\n      pop\n      pop\n      jump\t// out\n        /* \"#utility.yul\":11568:11697   */\n    tag_518:\n        /* \"#utility.yul\":11602:11608   */\n      0x00\n        /* \"#utility.yul\":11629:11649   */\n      tag_713\n      tag_480\n      jump\t// in\n    tag_713:\n        /* \"#utility.yul\":11619:11649   */\n      swap1\n      pop\n        /* \"#utility.yul\":11658:11691   */\n      tag_714\n        /* \"#utility.yul\":11686:11690   */\n      dup3\n        /* \"#utility.yul\":11678:11684   */\n      dup3\n        /* \"#utility.yul\":11658:11691   */\n      tag_517\n      jump\t// in\n    tag_714:\n        /* \"#utility.yul\":11568:11697   */\n      swap2\n      swap1\n      pop\n      jump\t// out\n        /* \"#utility.yul\":11703:12011   */\n    tag_519:\n        /* \"#utility.yul\":11765:11769   */\n      0x00\n        /* \"#utility.yul\":11855:11873   */\n      0xffffffffffffffff\n        /* \"#utility.yul\":11847:11853   */\n      dup3\n        /* \"#utility.yul\":11844:11874   */\n      gt\n        /* \"#utility.yul\":11841:11897   */\n      iszero\n      tag_716\n      jumpi\n        /* \"#utility.yul\":11877:11895   */\n      tag_717\n      tag_516\n      jump\t// in\n    tag_717:\n        /* \"#utility.yul\":11841:11897   */\n    tag_716:\n        /* \"#utility.yul\":11915:11944   */\n      tag_718\n        /* \"#utility.yul\":11937:11943   */\n      dup3\n        /* \"#utility.yul\":11915:11944   */\n      tag_515\n      jump\t// in\n    tag_718:\n        /* \"#utility.yul\":11907:11944   */\n      swap1\n      pop\n        /* \"#utility.yul\":11999:12003   */\n      0x20\n        /* \"#utility.yul\":11993:11997   */\n      dup2\n        /* \"#utility.yul\":11989:12004   */\n      add\n        /* \"#utility.yul\":11981:12004   */\n      swap1\n      pop\n        /* \"#utility.yul\":11703:12011   */\n      swap2\n      swap1\n      pop\n      jump\t// out\n        /* \"#utility.yul\":12017:12163   */\n    tag_520:\n        /* \"#utility.yul\":12114:12120   */\n      dup3\n        /* \"#utility.yul\":12109:12112   */\n      dup2\n        /* \"#utility.yul\":12104:12107   */\n      dup4\n        /* \"#utility.yul\":12091:12121   */\n      calldatacopy\n        /* \"#utility.yul\":12155:12156   */\n      0x00\n        /* \"#utility.yul\":12146:12152   */\n      dup4\n        /* \"#utility.yul\":12141:12144   */\n      dup4\n        /* \"#utility.yul\":12137:12153   */\n      add\n        /* \"#utility.yul\":12130:12157   */\n      mstore\n        /* \"#utility.yul\":12017:12163   */\n      pop\n      pop\n      pop\n      jump\t// out\n        /* \"#utility.yul\":12169:12594   */\n    tag_521:\n        /* \"#utility.yul\":12247:12252   */\n      0x00\n        /* \"#utility.yul\":12272:12338   */\n      tag_721\n        /* \"#utility.yul\":12288:12337   */\n      tag_722\n        /* \"#utility.yul\":12330:12336   */\n      dup5\n        /* \"#utility.yul\":12288:12337   */\n      tag_519\n      jump\t// in\n    tag_722:\n        /* \"#utility.yul\":12272:12338   */\n      tag_518\n      jump\t// in\n    tag_721:\n        /* \"#utility.yul\":12263:12338   */\n      swap1\n      pop\n        /* \"#utility.yul\":12361:12367   */\n      dup3\n        /* \"#utility.yul\":12354:12359   */\n      dup2\n        /* \"#utility.yul\":12347:12368   */\n      mstore\n        /* \"#utility.yul\":12399:12403   */\n      0x20\n        /* \"#utility.yul\":12392:12397   */\n      dup2\n        /* \"#utility.yul\":12388:12404   */\n      add\n        /* \"#utility.yul\":12437:12440   */\n      dup5\n        /* \"#utility.yul\":12428:12434   */\n      dup5\n        /* \"#utility.yul\":12423:12426   */\n      dup5\n        /* \"#utility.yul\":12419:12435   */\n      add\n        /* \"#utility.yul\":12416:12441   */\n      gt\n        /* \"#utility.yul\":12413:12525   */\n      iszero\n      tag_723\n      jumpi\n        /* \"#utility.yul\":12444:12523   */\n      tag_724\n      tag_514\n      jump\t// in\n    tag_724:\n        /* \"#utility.yul\":12413:12525   */\n    tag_723:\n        /* \"#utility.yul\":12534:12588   */\n      tag_725\n        /* \"#utility.yul\":12581:12587   */\n      dup5\n        /* \"#utility.yul\":12576:12579   */\n      dup3\n        /* \"#utility.yul\":12571:12574   */\n      dup6\n        /* \"#utility.yul\":12534:12588   */\n      tag_520\n      jump\t// in\n    tag_725:\n        /* \"#utility.yul\":12253:12594   */\n      pop\n        /* \"#utility.yul\":12169:12594   */\n      swap4\n      swap3\n      pop\n      pop\n      pop\n      jump\t// out\n        /* \"#utility.yul\":12614:12954   */\n    tag_522:\n        /* \"#utility.yul\":12670:12675   */\n      0x00\n        /* \"#utility.yul\":12719:12722   */\n      dup3\n        /* \"#utility.yul\":12712:12716   */\n      0x1f\n        /* \"#utility.yul\":12704:12710   */\n      dup4\n        /* \"#utility.yul\":12700:12717   */\n      add\n        /* \"#utility.yul\":12696:12723   */\n      slt\n        /* \"#utility.yul\":12686:12808   */\n      tag_727\n      jumpi\n        /* \"#utility.yul\":12727:12806   */\n      tag_728\n      tag_513\n      jump\t// in\n    tag_728:\n        /* \"#utility.yul\":12686:12808   */\n    tag_727:\n        /* \"#utility.yul\":12844:12850   */\n      dup2\n        /* \"#utility.yul\":12831:12851   */\n      calldataload\n        /* \"#utility.yul\":12869:12948   */\n      tag_729\n        /* \"#utility.yul\":12944:12947   */\n      dup5\n        /* \"#utility.yul\":12936:12942   */\n      dup3\n        /* \"#utility.yul\":12929:12933   */\n      0x20\n        /* \"#utility.yul\":12921:12927   */\n      dup7\n        /* \"#utility.yul\":12917:12934   */\n      add\n        /* \"#utility.yul\":12869:12948   */\n      tag_521\n      jump\t// in\n    tag_729:\n        /* \"#utility.yul\":12860:12948   */\n      swap2\n      pop\n        /* \"#utility.yul\":12676:12954   */\n      pop\n        /* \"#utility.yul\":12614:12954   */\n      swap3\n      swap2\n      pop\n      pop\n      jump\t// out\n        /* \"#utility.yul\":12960:13614   */\n    tag_92:\n        /* \"#utility.yul\":13038:13044   */\n      0x00\n        /* \"#utility.yul\":13046:13052   */\n      dup1\n        /* \"#utility.yul\":13095:13097   */\n      0x40\n        /* \"#utility.yul\":13083:13092   */\n      dup4\n        /* \"#utility.yul\":13074:13081   */\n      dup6\n        /* \"#utility.yul\":13070:13093   */\n      sub\n        /* \"#utility.yul\":13066:13098   */\n      slt\n        /* \"#utility.yul\":13063:13182   */\n      iszero\n      tag_731\n      jumpi\n        /* \"#utility.yul\":13101:13180   */\n      tag_732\n      tag_481\n      jump\t// in\n    tag_732:\n        /* \"#utility.yul\":13063:13182   */\n    tag_731:\n        /* \"#utility.yul\":13249:13250   */\n      0x00\n        /* \"#utility.yul\":13238:13247   */\n      dup4\n        /* \"#utility.yul\":13234:13251   */\n      add\n        /* \"#utility.yul\":13221:13252   */\n      calldataload\n        /* \"#utility.yul\":13279:13297   */\n      0xffffffffffffffff\n        /* \"#utility.yul\":13271:13277   */\n      dup2\n        /* \"#utility.yul\":13268:13298   */\n      gt\n        /* \"#utility.yul\":13265:13382   */\n      iszero\n      tag_733\n      jumpi\n        /* \"#utility.yul\":13301:13380   */\n      tag_734\n      tag_482\n      jump\t// in\n    tag_734:\n        /* \"#utility.yul\":13265:13382   */\n    tag_733:\n        /* \"#utility.yul\":13406:13469   */\n      tag_735\n        /* \"#utility.yul\":13461:13468   */\n      dup6\n        /* \"#utility.yul\":13452:13458   */\n      dup3\n        /* \"#utility.yul\":13441:13450   */\n      dup7\n        /* \"#utility.yul\":13437:13459   */\n      add\n        /* \"#utility.yul\":13406:13469   */\n      tag_522\n      jump\t// in\n    tag_735:\n        /* \"#utility.yul\":13396:13469   */\n      swap3\n      pop\n        /* \"#utility.yul\":13192:13479   */\n      pop\n        /* \"#utility.yul\":13518:13520   */\n      0x20\n        /* \"#utility.yul\":13544:13597   */\n      tag_736\n        /* \"#utility.yul\":13589:13596   */\n      dup6\n        /* \"#utility.yul\":13580:13586   */\n      dup3\n        /* \"#utility.yul\":13569:13578   */\n      dup7\n        /* \"#utility.yul\":13565:13587   */\n      add\n        /* \"#utility.yul\":13544:13597   */\n      tag_489\n      jump\t// in\n    tag_736:\n        /* \"#utility.yul\":13534:13597   */\n      swap2\n      pop\n        /* \"#utility.yul\":13489:13607   */\n      pop\n        /* \"#utility.yul\":12960:13614   */\n      swap3\n      pop\n      swap3\n      swap1\n      pop\n      jump\t// out\n        /* \"#utility.yul\":13620:14239   */\n    tag_99:\n        /* \"#utility.yul\":13697:13703   */\n      0x00\n        /* \"#utility.yul\":13705:13711   */\n      dup1\n        /* \"#utility.yul\":13713:13719   */\n      0x00\n        /* \"#utility.yul\":13762:13764   */\n      0x60\n        /* \"#utility.yul\":13750:13759   */\n      dup5\n        /* \"#utility.yul\":13741:13748   */\n      dup7\n        /* \"#utility.yul\":13737:13760   */\n      sub\n        /* \"#utility.yul\":13733:13765   */\n      slt\n        /* \"#utility.yul\":13730:13849   */\n      iszero\n      tag_738\n      jumpi\n        /* \"#utility.yul\":13768:13847   */\n      tag_739\n      tag_481\n      jump\t// in\n    tag_739:\n        /* \"#utility.yul\":13730:13849   */\n    tag_738:\n        /* \"#utility.yul\":13888:13889   */\n      0x00\n        /* \"#utility.yul\":13913:13966   */\n      tag_740\n        /* \"#utility.yul\":13958:13965   */\n      dup7\n        /* \"#utility.yul\":13949:13955   */\n      dup3\n        /* \"#utility.yul\":13938:13947   */\n      dup8\n        /* \"#utility.yul\":13934:13956   */\n      add\n        /* \"#utility.yul\":13913:13966   */\n      tag_489\n      jump\t// in\n    tag_740:\n        /* \"#utility.yul\":13903:13966   */\n      swap4\n      pop\n        /* \"#utility.yul\":13859:13976   */\n      pop\n        /* \"#utility.yul\":14015:14017   */\n      0x20\n        /* \"#utility.yul\":14041:14094   */\n      tag_741\n        /* \"#utility.yul\":14086:14093   */\n      dup7\n        /* \"#utility.yul\":14077:14083   */\n      dup3\n        /* \"#utility.yul\":14066:14075   */\n      dup8\n        /* \"#utility.yul\":14062:14084   */\n      add\n        /* \"#utility.yul\":14041:14094   */\n      tag_489\n      jump\t// in\n    tag_741:\n        /* \"#utility.yul\":14031:14094   */\n      swap3\n      pop\n        /* \"#utility.yul\":13986:14104   */\n      pop\n        /* \"#utility.yul\":14143:14145   */\n      0x40\n        /* \"#utility.yul\":14169:14222   */\n      tag_742\n        /* \"#utility.yul\":14214:14221   */\n      dup7\n        /* \"#utility.yul\":14205:14211   */\n      dup3\n        /* \"#utility.yul\":14194:14203   */\n      dup8\n        /* \"#utility.yul\":14190:14212   */\n      add\n        /* \"#utility.yul\":14169:14222   */\n      tag_489\n      jump\t// in\n    tag_742:\n        /* \"#utility.yul\":14159:14222   */\n      swap2\n      pop\n        /* \"#utility.yul\":14114:14232   */\n      pop\n        /* \"#utility.yul\":13620:14239   */\n      swap3\n      pop\n      swap3\n      pop\n      swap3\n      jump\t// out\n        /* \"#utility.yul\":14245:14455   */\n    tag_105:\n        /* \"#utility.yul\":14332:14336   */\n      0x00\n        /* \"#utility.yul\":14370:14372   */\n      0x20\n        /* \"#utility.yul\":14359:14368   */\n      dup3\n        /* \"#utility.yul\":14355:14373   */\n      add\n        /* \"#utility.yul\":14347:14373   */\n      swap1\n      pop\n        /* \"#utility.yul\":14383:14448   */\n      tag_744\n        /* \"#utility.yul\":14445:14446   */\n      0x00\n        /* \"#utility.yul\":14434:14443   */\n      dup4\n        /* \"#utility.yul\":14430:14447   */\n      add\n        /* \"#utility.yul\":14421:14427   */\n      dup5\n        /* \"#utility.yul\":14383:14448   */\n      tag_503\n      jump\t// in\n    tag_744:\n        /* \"#utility.yul\":14245:14455   */\n      swap3\n      swap2\n      pop\n      pop\n      jump\t// out\n        /* \"#utility.yul\":14461:15040   */\n    tag_110:\n        /* \"#utility.yul\":14651:14655   */\n      0x00\n        /* \"#utility.yul\":14689:14692   */\n      0x80\n        /* \"#utility.yul\":14678:14687   */\n      dup3\n        /* \"#utility.yul\":14674:14693   */\n      add\n        /* \"#utility.yul\":14666:14693   */\n      swap1\n      pop\n        /* \"#utility.yul\":14703:14787   */\n      tag_746\n        /* \"#utility.yul\":14784:14785   */\n      0x00\n        /* \"#utility.yul\":14773:14782   */\n      dup4\n        /* \"#utility.yul\":14769:14786   */\n      add\n        /* \"#utility.yul\":14760:14766   */\n      dup8\n        /* \"#utility.yul\":14703:14787   */\n      tag_498\n      jump\t// in\n    tag_746:\n        /* \"#utility.yul\":14797:14869   */\n      tag_747\n        /* \"#utility.yul\":14865:14867   */\n      0x20\n        /* \"#utility.yul\":14854:14863   */\n      dup4\n        /* \"#utility.yul\":14850:14868   */\n      add\n        /* \"#utility.yul\":14841:14847   */\n      dup7\n        /* \"#utility.yul\":14797:14869   */\n      tag_490\n      jump\t// in\n    tag_747:\n        /* \"#utility.yul\":14879:14951   */\n      tag_748\n        /* \"#utility.yul\":14947:14949   */\n      0x40\n        /* \"#utility.yul\":14936:14945   */\n      dup4\n        /* \"#utility.yul\":14932:14950   */\n      add\n        /* \"#utility.yul\":14923:14929   */\n      dup6\n        /* \"#utility.yul\":14879:14951   */\n      tag_490\n      jump\t// in\n    tag_748:\n        /* \"#utility.yul\":14961:15033   */\n      tag_749\n        /* \"#utility.yul\":15029:15031   */\n      0x60\n        /* \"#utility.yul\":15018:15027   */\n      dup4\n        /* \"#utility.yul\":15014:15032   */\n      add\n        /* \"#utility.yul\":15005:15011   */\n      dup5\n        /* \"#utility.yul\":14961:15033   */\n      tag_490\n      jump\t// in\n    tag_749:\n        /* \"#utility.yul\":14461:15040   */\n      swap6\n      swap5\n      pop\n      pop\n      pop\n      pop\n      pop\n      jump\t// out\n        /* \"#utility.yul\":15046:15845   */\n    tag_117:\n        /* \"#utility.yul\":15133:15139   */\n      0x00\n        /* \"#utility.yul\":15141:15147   */\n      dup1\n        /* \"#utility.yul\":15149:15155   */\n      0x00\n        /* \"#utility.yul\":15198:15200   */\n      0x60\n        /* \"#utility.yul\":15186:15195   */\n      dup5\n        /* \"#utility.yul\":15177:15184   */\n      dup7\n        /* \"#utility.yul\":15173:15196   */\n      sub\n        /* \"#utility.yul\":15169:15201   */\n      slt\n        /* \"#utility.yul\":15166:15285   */\n      iszero\n      tag_751\n      jumpi\n        /* \"#utility.yul\":15204:15283   */\n      tag_752\n      tag_481\n      jump\t// in\n    tag_752:\n        /* \"#utility.yul\":15166:15285   */\n    tag_751:\n        /* \"#utility.yul\":15324:15325   */\n      0x00\n        /* \"#utility.yul\":15349:15402   */\n      tag_753\n        /* \"#utility.yul\":15394:15401   */\n      dup7\n        /* \"#utility.yul\":15385:15391   */\n      dup3\n        /* \"#utility.yul\":15374:15383   */\n      dup8\n        /* \"#utility.yul\":15370:15392   */\n      add\n        /* \"#utility.yul\":15349:15402   */\n      tag_489\n      jump\t// in\n    tag_753:\n        /* \"#utility.yul\":15339:15402   */\n      swap4\n      pop\n        /* \"#utility.yul\":15295:15412   */\n      pop\n        /* \"#utility.yul\":15451:15453   */\n      0x20\n        /* \"#utility.yul\":15477:15530   */\n      tag_754\n        /* \"#utility.yul\":15522:15529   */\n      dup7\n        /* \"#utility.yul\":15513:15519   */\n      dup3\n        /* \"#utility.yul\":15502:15511   */\n      dup8\n        /* \"#utility.yul\":15498:15520   */\n      add\n        /* \"#utility.yul\":15477:15530   */\n      tag_489\n      jump\t// in\n    tag_754:\n        /* \"#utility.yul\":15467:15530   */\n      swap3\n      pop\n        /* \"#utility.yul\":15422:15540   */\n      pop\n        /* \"#utility.yul\":15607:15609   */\n      0x40\n        /* \"#utility.yul\":15596:15605   */\n      dup5\n        /* \"#utility.yul\":15592:15610   */\n      add\n        /* \"#utility.yul\":15579:15611   */\n      calldataload\n        /* \"#utility.yul\":15638:15656   */\n      0xffffffffffffffff\n        /* \"#utility.yul\":15630:15636   */\n      dup2\n        /* \"#utility.yul\":15627:15657   */\n      gt\n        /* \"#utility.yul\":15624:15741   */\n      iszero\n      tag_755\n      jumpi\n        /* \"#utility.yul\":15660:15739   */\n      tag_756\n      tag_482\n      jump\t// in\n    tag_756:\n        /* \"#utility.yul\":15624:15741   */\n    tag_755:\n        /* \"#utility.yul\":15765:15828   */\n      tag_757\n        /* \"#utility.yul\":15820:15827   */\n      dup7\n        /* \"#utility.yul\":15811:15817   */\n      dup3\n        /* \"#utility.yul\":15800:15809   */\n      dup8\n        /* \"#utility.yul\":15796:15818   */\n      add\n        /* \"#utility.yul\":15765:15828   */\n      tag_522\n      jump\t// in\n    tag_757:\n        /* \"#utility.yul\":15755:15828   */\n      swap2\n      pop\n        /* \"#utility.yul\":15550:15838   */\n      pop\n        /* \"#utility.yul\":15046:15845   */\n      swap3\n      pop\n      swap3\n      pop\n      swap3\n      jump\t// out\n        /* \"#utility.yul\":15851:15998   */\n    tag_523:\n        /* \"#utility.yul\":15922:15931   */\n      0x00\n        /* \"#utility.yul\":15955:15992   */\n      tag_759\n        /* \"#utility.yul\":15986:15991   */\n      dup3\n        /* \"#utility.yul\":15955:15992   */\n      tag_506\n      jump\t// in\n    tag_759:\n        /* \"#utility.yul\":15942:15992   */\n      swap1\n      pop\n        /* \"#utility.yul\":15851:15998   */\n      swap2\n      swap1\n      pop\n      jump\t// out\n        /* \"#utility.yul\":16004:16177   */\n    tag_524:\n        /* \"#utility.yul\":16112:16170   */\n      tag_761\n        /* \"#utility.yul\":16164:16169   */\n      dup2\n        /* \"#utility.yul\":16112:16170   */\n      tag_523\n      jump\t// in\n    tag_761:\n        /* \"#utility.yul\":16107:16110   */\n      dup3\n        /* \"#utility.yul\":16100:16171   */\n      mstore\n        /* \"#utility.yul\":16004:16177   */\n      pop\n      pop\n      jump\t// out\n        /* \"#utility.yul\":16183:16447   */\n    tag_122:\n        /* \"#utility.yul\":16297:16301   */\n      0x00\n        /* \"#utility.yul\":16335:16337   */\n      0x20\n        /* \"#utility.yul\":16324:16333   */\n      dup3\n        /* \"#utility.yul\":16320:16338   */\n      add\n        /* \"#utility.yul\":16312:16338   */\n      swap1\n      pop\n        /* \"#utility.yul\":16348:16440   */\n      tag_763\n        /* \"#utility.yul\":16437:16438   */\n      0x00\n        /* \"#utility.yul\":16426:16435   */\n      dup4\n        /* \"#utility.yul\":16422:16439   */\n      add\n        /* \"#utility.yul\":16413:16419   */\n      dup5\n        /* \"#utility.yul\":16348:16440   */\n      tag_524\n      jump\t// in\n    tag_763:\n        /* \"#utility.yul\":16183:16447   */\n      swap3\n      swap2\n      pop\n      pop\n      jump\t// out\n        /* \"#utility.yul\":16453:17072   */\n    tag_125:\n        /* \"#utility.yul\":16530:16536   */\n      0x00\n        /* \"#utility.yul\":16538:16544   */\n      dup1\n        /* \"#utility.yul\":16546:16552   */\n      0x00\n        /* \"#utility.yul\":16595:16597   */\n      0x60\n        /* \"#utility.yul\":16583:16592   */\n      dup5\n        /* \"#utility.yul\":16574:16581   */\n      dup7\n        /* \"#utility.yul\":16570:16593   */\n      sub\n        /* \"#utility.yul\":16566:16598   */\n      slt\n        /* \"#utility.yul\":16563:16682   */\n      iszero\n      tag_765\n      jumpi\n        /* \"#utility.yul\":16601:16680   */\n      tag_766\n      tag_481\n      jump\t// in\n    tag_766:\n        /* \"#utility.yul\":16563:16682   */\n    tag_765:\n        /* \"#utility.yul\":16721:16722   */\n      0x00\n        /* \"#utility.yul\":16746:16799   */\n      tag_767\n        /* \"#utility.yul\":16791:16798   */\n      dup7\n        /* \"#utility.yul\":16782:16788   */\n      dup3\n        /* \"#utility.yul\":16771:16780   */\n      dup8\n        /* \"#utility.yul\":16767:16789   */\n      add\n        /* \"#utility.yul\":16746:16799   */\n      tag_489\n      jump\t// in\n    tag_767:\n        /* \"#utility.yul\":16736:16799   */\n      swap4\n      pop\n        /* \"#utility.yul\":16692:16809   */\n      pop\n        /* \"#utility.yul\":16848:16850   */\n      0x20\n        /* \"#utility.yul\":16874:16927   */\n      tag_768\n        /* \"#utility.yul\":16919:16926   */\n      dup7\n        /* \"#utility.yul\":16910:16916   */\n      dup3\n        /* \"#utility.yul\":16899:16908   */\n      dup8\n        /* \"#utility.yul\":16895:16917   */\n      add\n        /* \"#utility.yul\":16874:16927   */\n      tag_489\n      jump\t// in\n    tag_768:\n        /* \"#utility.yul\":16864:16927   */\n      swap3\n      pop\n        /* \"#utility.yul\":16819:16937   */\n      pop\n        /* \"#utility.yul\":16976:16978   */\n      0x40\n        /* \"#utility.yul\":17002:17055   */\n      tag_769\n        /* \"#utility.yul\":17047:17054   */\n      dup7\n        /* \"#utility.yul\":17038:17044   */\n      dup3\n        /* \"#utility.yul\":17027:17036   */\n      dup8\n        /* \"#utility.yul\":17023:17045   */\n      add\n        /* \"#utility.yul\":17002:17055   */\n      tag_486\n      jump\t// in\n    tag_769:\n        /* \"#utility.yul\":16992:17055   */\n      swap2\n      pop\n        /* \"#utility.yul\":16947:17065   */\n      pop\n        /* \"#utility.yul\":16453:17072   */\n      swap3\n      pop\n      swap3\n      pop\n      swap3\n      jump\t// out\n        /* \"#utility.yul\":17078:17186   */\n    tag_525:\n        /* \"#utility.yul\":17155:17179   */\n      tag_771\n        /* \"#utility.yul\":17173:17178   */\n      dup2\n        /* \"#utility.yul\":17155:17179   */\n      tag_487\n      jump\t// in\n    tag_771:\n        /* \"#utility.yul\":17150:17153   */\n      dup3\n        /* \"#utility.yul\":17143:17180   */\n      mstore\n        /* \"#utility.yul\":17078:17186   */\n      pop\n      pop\n      jump\t// out\n        /* \"#utility.yul\":17248:17743   */\n    tag_526:\n        /* \"#utility.yul\":17389:17393   */\n      0x40\n        /* \"#utility.yul\":17384:17387   */\n      dup3\n        /* \"#utility.yul\":17380:17394   */\n      add\n        /* \"#utility.yul\":17473:17477   */\n      0x00\n        /* \"#utility.yul\":17466:17471   */\n      dup3\n        /* \"#utility.yul\":17462:17478   */\n      add\n        /* \"#utility.yul\":17456:17479   */\n      mload\n        /* \"#utility.yul\":17492:17555   */\n      tag_773\n        /* \"#utility.yul\":17549:17553   */\n      0x00\n        /* \"#utility.yul\":17544:17547   */\n      dup6\n        /* \"#utility.yul\":17540:17554   */\n      add\n        /* \"#utility.yul\":17526:17538   */\n      dup3\n        /* \"#utility.yul\":17492:17555   */\n      tag_525\n      jump\t// in\n    tag_773:\n        /* \"#utility.yul\":17404:17565   */\n      pop\n        /* \"#utility.yul\":17644:17648   */\n      0x20\n        /* \"#utility.yul\":17637:17642   */\n      dup3\n        /* \"#utility.yul\":17633:17649   */\n      add\n        /* \"#utility.yul\":17627:17650   */\n      mload\n        /* \"#utility.yul\":17663:17726   */\n      tag_774\n        /* \"#utility.yul\":17720:17724   */\n      0x20\n        /* \"#utility.yul\":17715:17718   */\n      dup6\n        /* \"#utility.yul\":17711:17725   */\n      add\n        /* \"#utility.yul\":17697:17709   */\n      dup3\n        /* \"#utility.yul\":17663:17726   */\n      tag_525\n      jump\t// in\n    tag_774:\n        /* \"#utility.yul\":17575:17736   */\n      pop\n        /* \"#utility.yul\":17358:17743   */\n      pop\n        /* \"#utility.yul\":17248:17743   */\n      pop\n      pop\n      jump\t// out\n        /* \"#utility.yul\":17749:17853   */\n    tag_527:\n        /* \"#utility.yul\":17814:17820   */\n      0x00\n        /* \"#utility.yul\":17842:17846   */\n      0x02\n        /* \"#utility.yul\":17832:17846   */\n      swap1\n      pop\n        /* \"#utility.yul\":17749:17853   */\n      swap2\n      swap1\n      pop\n      jump\t// out\n        /* \"#utility.yul\":17859:17992   */\n    tag_528:\n        /* \"#utility.yul\":17946:17957   */\n      0x00\n        /* \"#utility.yul\":17983:17986   */\n      dup2\n        /* \"#utility.yul\":17968:17986   */\n      swap1\n      pop\n        /* \"#utility.yul\":17859:17992   */\n      swap3\n      swap2\n      pop\n      pop\n      jump\t// out\n        /* \"#utility.yul\":17998:18096   */\n    tag_529:\n        /* \"#utility.yul\":18063:18067   */\n      0x00\n        /* \"#utility.yul\":18086:18089   */\n      dup2\n        /* \"#utility.yul\":18078:18089   */\n      swap1\n      pop\n        /* \"#utility.yul\":17998:18096   */\n      swap2\n      swap1\n      pop\n      jump\t// out\n        /* \"#utility.yul\":18102:18281   */\n    tag_530:\n        /* \"#utility.yul\":18171:18181   */\n      0x00\n        /* \"#utility.yul\":18192:18238   */\n      tag_779\n        /* \"#utility.yul\":18234:18237   */\n      dup4\n        /* \"#utility.yul\":18226:18232   */\n      dup4\n        /* \"#utility.yul\":18192:18238   */\n      tag_525\n      jump\t// in\n    tag_779:\n        /* \"#utility.yul\":18270:18274   */\n      0x20\n        /* \"#utility.yul\":18265:18268   */\n      dup4\n        /* \"#utility.yul\":18261:18275   */\n      add\n        /* \"#utility.yul\":18247:18275   */\n      swap1\n      pop\n        /* \"#utility.yul\":18102:18281   */\n      swap3\n      swap2\n      pop\n      pop\n      jump\t// out\n        /* \"#utility.yul\":18287:18398   */\n    tag_531:\n        /* \"#utility.yul\":18355:18359   */\n      0x00\n        /* \"#utility.yul\":18387:18391   */\n      0x20\n        /* \"#utility.yul\":18382:18385   */\n      dup3\n        /* \"#utility.yul\":18378:18392   */\n      add\n        /* \"#utility.yul\":18370:18392   */\n      swap1\n      pop\n        /* \"#utility.yul\":18287:18398   */\n      swap2\n      swap1\n      pop\n      jump\t// out\n        /* \"#utility.yul\":18436:19110   */\n    tag_532:\n        /* \"#utility.yul\":18562:18614   */\n      tag_782\n        /* \"#utility.yul\":18608:18613   */\n      dup2\n        /* \"#utility.yul\":18562:18614   */\n      tag_527\n      jump\t// in\n    tag_782:\n        /* \"#utility.yul\":18630:18704   */\n      tag_783\n        /* \"#utility.yul\":18697:18703   */\n      dup2\n        /* \"#utility.yul\":18692:18695   */\n      dup5\n        /* \"#utility.yul\":18630:18704   */\n      tag_528\n      jump\t// in\n    tag_783:\n        /* \"#utility.yul\":18623:18704   */\n      swap3\n      pop\n        /* \"#utility.yul\":18728:18782   */\n      tag_784\n        /* \"#utility.yul\":18776:18781   */\n      dup3\n        /* \"#utility.yul\":18728:18782   */\n      tag_529\n      jump\t// in\n    tag_784:\n        /* \"#utility.yul\":18805:18812   */\n      dup1\n        /* \"#utility.yul\":18836:18837   */\n      0x00\n        /* \"#utility.yul\":18821:19103   */\n    tag_785:\n        /* \"#utility.yul\":18846:18852   */\n      dup4\n        /* \"#utility.yul\":18843:18844   */\n      dup2\n        /* \"#utility.yul\":18840:18853   */\n      lt\n        /* \"#utility.yul\":18821:19103   */\n      iszero\n      tag_787\n      jumpi\n        /* \"#utility.yul\":18922:18928   */\n      dup2\n        /* \"#utility.yul\":18916:18929   */\n      mload\n        /* \"#utility.yul\":18949:19012   */\n      tag_788\n        /* \"#utility.yul\":19008:19011   */\n      dup8\n        /* \"#utility.yul\":18993:19006   */\n      dup3\n        /* \"#utility.yul\":18949:19012   */\n      tag_530\n      jump\t// in\n    tag_788:\n        /* \"#utility.yul\":18942:19012   */\n      swap7\n      pop\n        /* \"#utility.yul\":19035:19093   */\n      tag_789\n        /* \"#utility.yul\":19086:19092   */\n      dup4\n        /* \"#utility.yul\":19035:19093   */\n      tag_531\n      jump\t// in\n    tag_789:\n        /* \"#utility.yul\":19025:19093   */\n      swap3\n      pop\n        /* \"#utility.yul\":18881:19103   */\n      pop\n        /* \"#utility.yul\":18868:18869   */\n      0x01\n        /* \"#utility.yul\":18865:18866   */\n      dup2\n        /* \"#utility.yul\":18861:18870   */\n      add\n        /* \"#utility.yul\":18856:18870   */\n      swap1\n      pop\n        /* \"#utility.yul\":18821:19103   */\n      jump(tag_785)\n    tag_787:\n        /* \"#utility.yul\":18825:18839   */\n      pop\n        /* \"#utility.yul\":18538:19110   */\n      pop\n      pop\n      pop\n        /* \"#utility.yul\":18436:19110   */\n      pop\n      pop\n      jump\t// out\n        /* \"#utility.yul\":19172:19761   */\n    tag_533:\n        /* \"#utility.yul\":19315:19319   */\n      0x80\n        /* \"#utility.yul\":19310:19313   */\n      dup3\n        /* \"#utility.yul\":19306:19320   */\n      add\n        /* \"#utility.yul\":19399:19403   */\n      0x00\n        /* \"#utility.yul\":19392:19397   */\n      dup3\n        /* \"#utility.yul\":19388:19404   */\n      add\n        /* \"#utility.yul\":19382:19405   */\n      mload\n        /* \"#utility.yul\":19418:19527   */\n      tag_791\n        /* \"#utility.yul\":19521:19525   */\n      0x00\n        /* \"#utility.yul\":19516:19519   */\n      dup6\n        /* \"#utility.yul\":19512:19526   */\n      add\n        /* \"#utility.yul\":19498:19510   */\n      dup3\n        /* \"#utility.yul\":19418:19527   */\n      tag_532\n      jump\t// in\n    tag_791:\n        /* \"#utility.yul\":19330:19537   */\n      pop\n        /* \"#utility.yul\":19616:19620   */\n      0x20\n        /* \"#utility.yul\":19609:19614   */\n      dup3\n        /* \"#utility.yul\":19605:19621   */\n      add\n        /* \"#utility.yul\":19599:19622   */\n      mload\n        /* \"#utility.yul\":19635:19744   */\n      tag_792\n        /* \"#utility.yul\":19738:19742   */\n      0x40\n        /* \"#utility.yul\":19733:19736   */\n      dup6\n        /* \"#utility.yul\":19729:19743   */\n      add\n        /* \"#utility.yul\":19715:19727   */\n      dup3\n        /* \"#utility.yul\":19635:19744   */\n      tag_532\n      jump\t// in\n    tag_792:\n        /* \"#utility.yul\":19547:19754   */\n      pop\n        /* \"#utility.yul\":19284:19761   */\n      pop\n        /* \"#utility.yul\":19172:19761   */\n      pop\n      pop\n      jump\t// out\n        /* \"#utility.yul\":19767:20479   */\n    tag_131:\n        /* \"#utility.yul\":20050:20054   */\n      0x00\n        /* \"#utility.yul\":20088:20091   */\n      0x0100\n        /* \"#utility.yul\":20077:20086   */\n      dup3\n        /* \"#utility.yul\":20073:20092   */\n      add\n        /* \"#utility.yul\":20065:20092   */\n      swap1\n      pop\n        /* \"#utility.yul\":20102:20217   */\n      tag_794\n        /* \"#utility.yul\":20214:20215   */\n      0x00\n        /* \"#utility.yul\":20203:20212   */\n      dup4\n        /* \"#utility.yul\":20199:20216   */\n      add\n        /* \"#utility.yul\":20190:20196   */\n      dup7\n        /* \"#utility.yul\":20102:20217   */\n      tag_526\n      jump\t// in\n    tag_794:\n        /* \"#utility.yul\":20227:20345   */\n      tag_795\n        /* \"#utility.yul\":20341:20343   */\n      0x40\n        /* \"#utility.yul\":20330:20339   */\n      dup4\n        /* \"#utility.yul\":20326:20344   */\n      add\n        /* \"#utility.yul\":20317:20323   */\n      dup6\n        /* \"#utility.yul\":20227:20345   */\n      tag_533\n      jump\t// in\n    tag_795:\n        /* \"#utility.yul\":20355:20472   */\n      tag_796\n        /* \"#utility.yul\":20467:20470   */\n      0xc0\n        /* \"#utility.yul\":20456:20465   */\n      dup4\n        /* \"#utility.yul\":20452:20471   */\n      add\n        /* \"#utility.yul\":20443:20449   */\n      dup5\n        /* \"#utility.yul\":20355:20472   */\n      tag_526\n      jump\t// in\n    tag_796:\n        /* \"#utility.yul\":19767:20479   */\n      swap5\n      swap4\n      pop\n      pop\n      pop\n      pop\n      jump\t// out\n        /* \"#utility.yul\":20485:20707   */\n    tag_134:\n        /* \"#utility.yul\":20578:20582   */\n      0x00\n        /* \"#utility.yul\":20616:20618   */\n      0x20\n        /* \"#utility.yul\":20605:20614   */\n      dup3\n        /* \"#utility.yul\":20601:20619   */\n      add\n        /* \"#utility.yul\":20593:20619   */\n      swap1\n      pop\n        /* \"#utility.yul\":20629:20700   */\n      tag_798\n        /* \"#utility.yul\":20697:20698   */\n      0x00\n        /* \"#utility.yul\":20686:20695   */\n      dup4\n        /* \"#utility.yul\":20682:20699   */\n      add\n        /* \"#utility.yul\":20673:20679   */\n      dup5\n        /* \"#utility.yul\":20629:20700   */\n      tag_502\n      jump\t// in\n    tag_798:\n        /* \"#utility.yul\":20485:20707   */\n      swap3\n      swap2\n      pop\n      pop\n      jump\t// out\n        /* \"#utility.yul\":20713:20826   */\n    tag_534:\n        /* \"#utility.yul\":20800:20801   */\n      0x06\n        /* \"#utility.yul\":20793:20798   */\n      dup2\n        /* \"#utility.yul\":20790:20802   */\n      lt\n        /* \"#utility.yul\":20780:20820   */\n      tag_800\n      jumpi\n        /* \"#utility.yul\":20816:20817   */\n      0x00\n        /* \"#utility.yul\":20813:20814   */\n      dup1\n        /* \"#utility.yul\":20806:20818   */\n      revert\n        /* \"#utility.yul\":20780:20820   */\n    tag_800:\n        /* \"#utility.yul\":20713:20826   */\n      pop\n      jump\t// out\n        /* \"#utility.yul\":20832:21003   */\n    tag_535:\n        /* \"#utility.yul\":20903:20908   */\n      0x00\n        /* \"#utility.yul\":20934:20940   */\n      dup2\n        /* \"#utility.yul\":20928:20941   */\n      mload\n        /* \"#utility.yul\":20919:20941   */\n      swap1\n      pop\n        /* \"#utility.yul\":20950:20997   */\n      tag_802\n        /* \"#utility.yul\":20991:20996   */\n      dup2\n        /* \"#utility.yul\":20950:20997   */\n      tag_534\n      jump\t// in\n    tag_802:\n        /* \"#utility.yul\":20832:21003   */\n      swap3\n      swap2\n      pop\n      pop\n      jump\t// out\n        /* \"#utility.yul\":21009:21146   */\n    tag_536:\n        /* \"#utility.yul\":21063:21068   */\n      0x00\n        /* \"#utility.yul\":21094:21100   */\n      dup2\n        /* \"#utility.yul\":21088:21101   */\n      mload\n        /* \"#utility.yul\":21079:21101   */\n      swap1\n      pop\n        /* \"#utility.yul\":21110:21140   */\n      tag_804\n        /* \"#utility.yul\":21134:21139   */\n      dup2\n        /* \"#utility.yul\":21110:21140   */\n      tag_500\n      jump\t// in\n    tag_804:\n        /* \"#utility.yul\":21009:21146   */\n      swap3\n      swap2\n      pop\n      pop\n      jump\t// out\n        /* \"#utility.yul\":21152:21681   */\n    tag_138:\n        /* \"#utility.yul\":21242:21248   */\n      0x00\n        /* \"#utility.yul\":21250:21256   */\n      dup1\n        /* \"#utility.yul\":21299:21301   */\n      0x40\n        /* \"#utility.yul\":21287:21296   */\n      dup4\n        /* \"#utility.yul\":21278:21285   */\n      dup6\n        /* \"#utility.yul\":21274:21297   */\n      sub\n        /* \"#utility.yul\":21270:21302   */\n      slt\n        /* \"#utility.yul\":21267:21386   */\n      iszero\n      tag_806\n      jumpi\n        /* \"#utility.yul\":21305:21384   */\n      tag_807\n      tag_481\n      jump\t// in\n    tag_807:\n        /* \"#utility.yul\":21267:21386   */\n    tag_806:\n        /* \"#utility.yul\":21425:21426   */\n      0x00\n        /* \"#utility.yul\":21450:21528   */\n      tag_808\n        /* \"#utility.yul\":21520:21527   */\n      dup6\n        /* \"#utility.yul\":21511:21517   */\n      dup3\n        /* \"#utility.yul\":21500:21509   */\n      dup7\n        /* \"#utility.yul\":21496:21518   */\n      add\n        /* \"#utility.yul\":21450:21528   */\n      tag_535\n      jump\t// in\n    tag_808:\n        /* \"#utility.yul\":21440:21528   */\n      swap3\n      pop\n        /* \"#utility.yul\":21396:21538   */\n      pop\n        /* \"#utility.yul\":21577:21579   */\n      0x20\n        /* \"#utility.yul\":21603:21664   */\n      tag_809\n        /* \"#utility.yul\":21656:21663   */\n      dup6\n        /* \"#utility.yul\":21647:21653   */\n      dup3\n        /* \"#utility.yul\":21636:21645   */\n      dup7\n        /* \"#utility.yul\":21632:21654   */\n      add\n        /* \"#utility.yul\":21603:21664   */\n      tag_536\n      jump\t// in\n    tag_809:\n        /* \"#utility.yul\":21593:21664   */\n      swap2\n      pop\n        /* \"#utility.yul\":21548:21674   */\n      pop\n        /* \"#utility.yul\":21152:21681   */\n      swap3\n      pop\n      swap3\n      swap1\n      pop\n      jump\t// out\n        /* \"#utility.yul\":21687:21856   */\n    tag_537:\n        /* \"#utility.yul\":21771:21782   */\n      0x00\n        /* \"#utility.yul\":21805:21811   */\n      dup3\n        /* \"#utility.yul\":21800:21803   */\n      dup3\n        /* \"#utility.yul\":21793:21812   */\n      mstore\n        /* \"#utility.yul\":21845:21849   */\n      0x20\n        /* \"#utility.yul\":21840:21843   */\n      dup3\n        /* \"#utility.yul\":21836:21850   */\n      add\n        /* \"#utility.yul\":21821:21850   */\n      swap1\n      pop\n        /* \"#utility.yul\":21687:21856   */\n      swap3\n      swap2\n      pop\n      pop\n      jump\t// out\n        /* \"#utility.yul\":21862:22097   */\n    tag_538:\n        /* \"#utility.yul\":22002:22036   */\n      0x4f6e6c792074686520426c6f636b636861696e204f7261636c652063616e2072\n        /* \"#utility.yul\":21998:21999   */\n      0x00\n        /* \"#utility.yul\":21990:21996   */\n      dup3\n        /* \"#utility.yul\":21986:22000   */\n      add\n        /* \"#utility.yul\":21979:22037   */\n      mstore\n        /* \"#utility.yul\":22071:22089   */\n      0x756e20746869732066756e6374696f6e00000000000000000000000000000000\n        /* \"#utility.yul\":22066:22068   */\n      0x20\n        /* \"#utility.yul\":22058:22064   */\n      dup3\n        /* \"#utility.yul\":22054:22069   */\n      add\n        /* \"#utility.yul\":22047:22090   */\n      mstore\n        /* \"#utility.yul\":21862:22097   */\n      pop\n      jump\t// out\n        /* \"#utility.yul\":22103:22469   */\n    tag_539:\n        /* \"#utility.yul\":22245:22248   */\n      0x00\n        /* \"#utility.yul\":22266:22333   */\n      tag_813\n        /* \"#utility.yul\":22330:22332   */\n      0x30\n        /* \"#utility.yul\":22325:22328   */\n      dup4\n        /* \"#utility.yul\":22266:22333   */\n      tag_537\n      jump\t// in\n    tag_813:\n        /* \"#utility.yul\":22259:22333   */\n      swap2\n      pop\n        /* \"#utility.yul\":22342:22435   */\n      tag_814\n        /* \"#utility.yul\":22431:22434   */\n      dup3\n        /* \"#utility.yul\":22342:22435   */\n      tag_538\n      jump\t// in\n    tag_814:\n        /* \"#utility.yul\":22460:22462   */\n      0x40\n        /* \"#utility.yul\":22455:22458   */\n      dup3\n        /* \"#utility.yul\":22451:22463   */\n      add\n        /* \"#utility.yul\":22444:22463   */\n      swap1\n      pop\n        /* \"#utility.yul\":22103:22469   */\n      swap2\n      swap1\n      pop\n      jump\t// out\n        /* \"#utility.yul\":22475:22894   */\n    tag_147:\n        /* \"#utility.yul\":22641:22645   */\n      0x00\n        /* \"#utility.yul\":22679:22681   */\n      0x20\n        /* \"#utility.yul\":22668:22677   */\n      dup3\n        /* \"#utility.yul\":22664:22682   */\n      add\n        /* \"#utility.yul\":22656:22682   */\n      swap1\n      pop\n        /* \"#utility.yul\":22728:22737   */\n      dup2\n        /* \"#utility.yul\":22722:22726   */\n      dup2\n        /* \"#utility.yul\":22718:22738   */\n      sub\n        /* \"#utility.yul\":22714:22715   */\n      0x00\n        /* \"#utility.yul\":22703:22712   */\n      dup4\n        /* \"#utility.yul\":22699:22716   */\n      add\n        /* \"#utility.yul\":22692:22739   */\n      mstore\n        /* \"#utility.yul\":22756:22887   */\n      tag_816\n        /* \"#utility.yul\":22882:22886   */\n      dup2\n        /* \"#utility.yul\":22756:22887   */\n      tag_539\n      jump\t// in\n    tag_816:\n        /* \"#utility.yul\":22748:22887   */\n      swap1\n      pop\n        /* \"#utility.yul\":22475:22894   */\n      swap2\n      swap1\n      pop\n      jump\t// out\n        /* \"#utility.yul\":22900:23232   */\n    tag_150:\n        /* \"#utility.yul\":23021:23025   */\n      0x00\n        /* \"#utility.yul\":23059:23061   */\n      0x40\n        /* \"#utility.yul\":23048:23057   */\n      dup3\n        /* \"#utility.yul\":23044:23062   */\n      add\n        /* \"#utility.yul\":23036:23062   */\n      swap1\n      pop\n        /* \"#utility.yul\":23072:23143   */\n      tag_818\n        /* \"#utility.yul\":23140:23141   */\n      0x00\n        /* \"#utility.yul\":23129:23138   */\n      dup4\n        /* \"#utility.yul\":23125:23142   */\n      add\n        /* \"#utility.yul\":23116:23122   */\n      dup6\n        /* \"#utility.yul\":23072:23143   */\n      tag_502\n      jump\t// in\n    tag_818:\n        /* \"#utility.yul\":23153:23225   */\n      tag_819\n        /* \"#utility.yul\":23221:23223   */\n      0x20\n        /* \"#utility.yul\":23210:23219   */\n      dup4\n        /* \"#utility.yul\":23206:23224   */\n      add\n        /* \"#utility.yul\":23197:23203   */\n      dup5\n        /* \"#utility.yul\":23153:23225   */\n      tag_490\n      jump\t// in\n    tag_819:\n        /* \"#utility.yul\":22900:23232   */\n      swap4\n      swap3\n      pop\n      pop\n      pop\n      jump\t// out\n        /* \"#utility.yul\":23238:23472   */\n    tag_540:\n        /* \"#utility.yul\":23378:23412   */\n      0x4f6e6c792074686520496e7370656374696f6e204167656e742063616e207275\n        /* \"#utility.yul\":23374:23375   */\n      0x00\n        /* \"#utility.yul\":23366:23372   */\n      dup3\n        /* \"#utility.yul\":23362:23376   */\n      add\n        /* \"#utility.yul\":23355:23413   */\n      mstore\n        /* \"#utility.yul\":23447:23464   */\n      0x6e20746869732066756e6374696f6e0000000000000000000000000000000000\n        /* \"#utility.yul\":23442:23444   */\n      0x20\n        /* \"#utility.yul\":23434:23440   */\n      dup3\n        /* \"#utility.yul\":23430:23445   */\n      add\n        /* \"#utility.yul\":23423:23465   */\n      mstore\n        /* \"#utility.yul\":23238:23472   */\n      pop\n      jump\t// out\n        /* \"#utility.yul\":23478:23844   */\n    tag_541:\n        /* \"#utility.yul\":23620:23623   */\n      0x00\n        /* \"#utility.yul\":23641:23708   */\n      tag_822\n        /* \"#utility.yul\":23705:23707   */\n      0x2f\n        /* \"#utility.yul\":23700:23703   */\n      dup4\n        /* \"#utility.yul\":23641:23708   */\n      tag_537\n      jump\t// in\n    tag_822:\n        /* \"#utility.yul\":23634:23708   */\n      swap2\n      pop\n        /* \"#utility.yul\":23717:23810   */\n      tag_823\n        /* \"#utility.yul\":23806:23809   */\n      dup3\n        /* \"#utility.yul\":23717:23810   */\n      tag_540\n      jump\t// in\n    tag_823:\n        /* \"#utility.yul\":23835:23837   */\n      0x40\n        /* \"#utility.yul\":23830:23833   */\n      dup3\n        /* \"#utility.yul\":23826:23838   */\n      add\n        /* \"#utility.yul\":23819:23838   */\n      swap1\n      pop\n        /* \"#utility.yul\":23478:23844   */\n      swap2\n      swap1\n      pop\n      jump\t// out\n        /* \"#utility.yul\":23850:24269   */\n    tag_163:\n        /* \"#utility.yul\":24016:24020   */\n      0x00\n        /* \"#utility.yul\":24054:24056   */\n      0x20\n        /* \"#utility.yul\":24043:24052   */\n      dup3\n        /* \"#utility.yul\":24039:24057   */\n      add\n        /* \"#utility.yul\":24031:24057   */\n      swap1\n      pop\n        /* \"#utility.yul\":24103:24112   */\n      dup2\n        /* \"#utility.yul\":24097:24101   */\n      dup2\n        /* \"#utility.yul\":24093:24113   */\n      sub\n        /* \"#utility.yul\":24089:24090   */\n      0x00\n        /* \"#utility.yul\":24078:24087   */\n      dup4\n        /* \"#utility.yul\":24074:24091   */\n      add\n        /* \"#utility.yul\":24067:24114   */\n      mstore\n        /* \"#utility.yul\":24131:24262   */\n      tag_825\n        /* \"#utility.yul\":24257:24261   */\n      dup2\n        /* \"#utility.yul\":24131:24262   */\n      tag_541\n      jump\t// in\n    tag_825:\n        /* \"#utility.yul\":24123:24262   */\n      swap1\n      pop\n        /* \"#utility.yul\":23850:24269   */\n      swap2\n      swap1\n      pop\n      jump\t// out\n        /* \"#utility.yul\":24275:24442   */\n    tag_542:\n        /* \"#utility.yul\":24415:24434   */\n      0x496e76616c6964205265706f7274204944000000000000000000000000000000\n        /* \"#utility.yul\":24411:24412   */\n      0x00\n        /* \"#utility.yul\":24403:24409   */\n      dup3\n        /* \"#utility.yul\":24399:24413   */\n      add\n        /* \"#utility.yul\":24392:24435   */\n      mstore\n        /* \"#utility.yul\":24275:24442   */\n      pop\n      jump\t// out\n        /* \"#utility.yul\":24448:24814   */\n    tag_543:\n        /* \"#utility.yul\":24590:24593   */\n      0x00\n        /* \"#utility.yul\":24611:24678   */\n      tag_828\n        /* \"#utility.yul\":24675:24677   */\n      0x11\n        /* \"#utility.yul\":24670:24673   */\n      dup4\n        /* \"#utility.yul\":24611:24678   */\n      tag_537\n      jump\t// in\n    tag_828:\n        /* \"#utility.yul\":24604:24678   */\n      swap2\n      pop\n        /* \"#utility.yul\":24687:24780   */\n      tag_829\n        /* \"#utility.yul\":24776:24779   */\n      dup3\n        /* \"#utility.yul\":24687:24780   */\n      tag_542\n      jump\t// in\n    tag_829:\n        /* \"#utility.yul\":24805:24807   */\n      0x20\n        /* \"#utility.yul\":24800:24803   */\n      dup3\n        /* \"#utility.yul\":24796:24808   */\n      add\n        /* \"#utility.yul\":24789:24808   */\n      swap1\n      pop\n        /* \"#utility.yul\":24448:24814   */\n      swap2\n      swap1\n      pop\n      jump\t// out\n        /* \"#utility.yul\":24820:25239   */\n    tag_168:\n        /* \"#utility.yul\":24986:24990   */\n      0x00\n        /* \"#utility.yul\":25024:25026   */\n      0x20\n        /* \"#utility.yul\":25013:25022   */\n      dup3\n        /* \"#utility.yul\":25009:25027   */\n      add\n        /* \"#utility.yul\":25001:25027   */\n      swap1\n      pop\n        /* \"#utility.yul\":25073:25082   */\n      dup2\n        /* \"#utility.yul\":25067:25071   */\n      dup2\n        /* \"#utility.yul\":25063:25083   */\n      sub\n        /* \"#utility.yul\":25059:25060   */\n      0x00\n        /* \"#utility.yul\":25048:25057   */\n      dup4\n        /* \"#utility.yul\":25044:25061   */\n      add\n        /* \"#utility.yul\":25037:25084   */\n      mstore\n        /* \"#utility.yul\":25101:25232   */\n      tag_831\n        /* \"#utility.yul\":25227:25231   */\n      dup2\n        /* \"#utility.yul\":25101:25232   */\n      tag_543\n      jump\t// in\n    tag_831:\n        /* \"#utility.yul\":25093:25232   */\n      swap1\n      pop\n        /* \"#utility.yul\":24820:25239   */\n      swap2\n      swap1\n      pop\n      jump\t// out\n        /* \"#utility.yul\":25245:25470   */\n    tag_544:\n        /* \"#utility.yul\":25385:25419   */\n      0x54686973207265706f72742068617320616c7265616479206265656e20696e73\n        /* \"#utility.yul\":25381:25382   */\n      0x00\n        /* \"#utility.yul\":25373:25379   */\n      dup3\n        /* \"#utility.yul\":25369:25383   */\n      add\n        /* \"#utility.yul\":25362:25420   */\n      mstore\n        /* \"#utility.yul\":25454:25462   */\n      0x7065637465640000000000000000000000000000000000000000000000000000\n        /* \"#utility.yul\":25449:25451   */\n      0x20\n        /* \"#utility.yul\":25441:25447   */\n      dup3\n        /* \"#utility.yul\":25437:25452   */\n      add\n        /* \"#utility.yul\":25430:25463   */\n      mstore\n        /* \"#utility.yul\":25245:25470   */\n      pop\n      jump\t// out\n        /* \"#utility.yul\":25476:25842   */\n    tag_545:\n        /* \"#utility.yul\":25618:25621   */\n      0x00\n        /* \"#utility.yul\":25639:25706   */\n      tag_834\n        /* \"#utility.yul\":25703:25705   */\n      0x26\n        /* \"#utility.yul\":25698:25701   */\n      dup4\n        /* \"#utility.yul\":25639:25706   */\n      tag_537\n      jump\t// in\n    tag_834:\n        /* \"#utility.yul\":25632:25706   */\n      swap2\n      pop\n        /* \"#utility.yul\":25715:25808   */\n      tag_835\n        /* \"#utility.yul\":25804:25807   */\n      dup3\n        /* \"#utility.yul\":25715:25808   */\n      tag_544\n      jump\t// in\n    tag_835:\n        /* \"#utility.yul\":25833:25835   */\n      0x40\n        /* \"#utility.yul\":25828:25831   */\n      dup3\n        /* \"#utility.yul\":25824:25836   */\n      add\n        /* \"#utility.yul\":25817:25836   */\n      swap1\n      pop\n        /* \"#utility.yul\":25476:25842   */\n      swap2\n      swap1\n      pop\n      jump\t// out\n        /* \"#utility.yul\":25848:26267   */\n    tag_171:\n        /* \"#utility.yul\":26014:26018   */\n      0x00\n        /* \"#utility.yul\":26052:26054   */\n      0x20\n        /* \"#utility.yul\":26041:26050   */\n      dup3\n        /* \"#utility.yul\":26037:26055   */\n      add\n        /* \"#utility.yul\":26029:26055   */\n      swap1\n      pop\n        /* \"#utility.yul\":26101:26110   */\n      dup2\n        /* \"#utility.yul\":26095:26099   */\n      dup2\n        /* \"#utility.yul\":26091:26111   */\n      sub\n        /* \"#utility.yul\":26087:26088   */\n      0x00\n        /* \"#utility.yul\":26076:26085   */\n      dup4\n        /* \"#utility.yul\":26072:26089   */\n      add\n        /* \"#utility.yul\":26065:26112   */\n      mstore\n        /* \"#utility.yul\":26129:26260   */\n      tag_837\n        /* \"#utility.yul\":26255:26259   */\n      dup2\n        /* \"#utility.yul\":26129:26260   */\n      tag_545\n      jump\t// in\n    tag_837:\n        /* \"#utility.yul\":26121:26260   */\n      swap1\n      pop\n        /* \"#utility.yul\":25848:26267   */\n      swap2\n      swap1\n      pop\n      jump\t// out\n        /* \"#utility.yul\":26273:26703   */\n    tag_173:\n        /* \"#utility.yul\":26416:26420   */\n      0x00\n        /* \"#utility.yul\":26454:26456   */\n      0x60\n        /* \"#utility.yul\":26443:26452   */\n      dup3\n        /* \"#utility.yul\":26439:26457   */\n      add\n        /* \"#utility.yul\":26431:26457   */\n      swap1\n      pop\n        /* \"#utility.yul\":26467:26538   */\n      tag_839\n        /* \"#utility.yul\":26535:26536   */\n      0x00\n        /* \"#utility.yul\":26524:26533   */\n      dup4\n        /* \"#utility.yul\":26520:26537   */\n      add\n        /* \"#utility.yul\":26511:26517   */\n      dup7\n        /* \"#utility.yul\":26467:26538   */\n      tag_502\n      jump\t// in\n    tag_839:\n        /* \"#utility.yul\":26548:26614   */\n      tag_840\n        /* \"#utility.yul\":26610:26612   */\n      0x20\n        /* \"#utility.yul\":26599:26608   */\n      dup4\n        /* \"#utility.yul\":26595:26613   */\n      add\n        /* \"#utility.yul\":26586:26592   */\n      dup6\n        /* \"#utility.yul\":26548:26614   */\n      tag_503\n      jump\t// in\n    tag_840:\n        /* \"#utility.yul\":26624:26696   */\n      tag_841\n        /* \"#utility.yul\":26692:26694   */\n      0x40\n        /* \"#utility.yul\":26681:26690   */\n      dup4\n        /* \"#utility.yul\":26677:26695   */\n      add\n        /* \"#utility.yul\":26668:26674   */\n      dup5\n        /* \"#utility.yul\":26624:26696   */\n      tag_490\n      jump\t// in\n    tag_841:\n        /* \"#utility.yul\":26273:26703   */\n      swap5\n      swap4\n      pop\n      pop\n      pop\n      pop\n      jump\t// out\n        /* \"#utility.yul\":26709:26941   */\n    tag_546:\n        /* \"#utility.yul\":26849:26883   */\n      0x4f6e6c7920746865204368696c6420477561726469616e2063616e2072756e20\n        /* \"#utility.yul\":26845:26846   */\n      0x00\n        /* \"#utility.yul\":26837:26843   */\n      dup3\n        /* \"#utility.yul\":26833:26847   */\n      add\n        /* \"#utility.yul\":26826:26884   */\n      mstore\n        /* \"#utility.yul\":26918:26933   */\n      0x746869732066756e6374696f6e00000000000000000000000000000000000000\n        /* \"#utility.yul\":26913:26915   */\n      0x20\n        /* \"#utility.yul\":26905:26911   */\n      dup3\n        /* \"#utility.yul\":26901:26916   */\n      add\n        /* \"#utility.yul\":26894:26934   */\n      mstore\n        /* \"#utility.yul\":26709:26941   */\n      pop\n      jump\t// out\n        /* \"#utility.yul\":26947:27313   */\n    tag_547:\n        /* \"#utility.yul\":27089:27092   */\n      0x00\n        /* \"#utility.yul\":27110:27177   */\n      tag_844\n        /* \"#utility.yul\":27174:27176   */\n      0x2d\n        /* \"#utility.yul\":27169:27172   */\n      dup4\n        /* \"#utility.yul\":27110:27177   */\n      tag_537\n      jump\t// in\n    tag_844:\n        /* \"#utility.yul\":27103:27177   */\n      swap2\n      pop\n        /* \"#utility.yul\":27186:27279   */\n      tag_845\n        /* \"#utility.yul\":27275:27278   */\n      dup3\n        /* \"#utility.yul\":27186:27279   */\n      tag_546\n      jump\t// in\n    tag_845:\n        /* \"#utility.yul\":27304:27306   */\n      0x40\n        /* \"#utility.yul\":27299:27302   */\n      dup3\n        /* \"#utility.yul\":27295:27307   */\n      add\n        /* \"#utility.yul\":27288:27307   */\n      swap1\n      pop\n        /* \"#utility.yul\":26947:27313   */\n      swap2\n      swap1\n      pop\n      jump\t// out\n        /* \"#utility.yul\":27319:27738   */\n    tag_202:\n        /* \"#utility.yul\":27485:27489   */\n      0x00\n        /* \"#utility.yul\":27523:27525   */\n      0x20\n        /* \"#utility.yul\":27512:27521   */\n      dup3\n        /* \"#utility.yul\":27508:27526   */\n      add\n        /* \"#utility.yul\":27500:27526   */\n      swap1\n      pop\n        /* \"#utility.yul\":27572:27581   */\n      dup2\n        /* \"#utility.yul\":27566:27570   */\n      dup2\n        /* \"#utility.yul\":27562:27582   */\n      sub\n        /* \"#utility.yul\":27558:27559   */\n      0x00\n        /* \"#utility.yul\":27547:27556   */\n      dup4\n        /* \"#utility.yul\":27543:27560   */\n      add\n        /* \"#utility.yul\":27536:27583   */\n      mstore\n        /* \"#utility.yul\":27600:27731   */\n      tag_847\n        /* \"#utility.yul\":27726:27730   */\n      dup2\n        /* \"#utility.yul\":27600:27731   */\n      tag_547\n      jump\t// in\n    tag_847:\n        /* \"#utility.yul\":27592:27731   */\n      swap1\n      pop\n        /* \"#utility.yul\":27319:27738   */\n      swap2\n      swap1\n      pop\n      jump\t// out\n        /* \"#utility.yul\":27744:27993   */\n    tag_548:\n        /* \"#utility.yul\":27884:27918   */\n      0x4f6e6c79207468652061737369676e656420477561726469616e20746f207468\n        /* \"#utility.yul\":27880:27881   */\n      0x00\n        /* \"#utility.yul\":27872:27878   */\n      dup3\n        /* \"#utility.yul\":27868:27882   */\n      add\n        /* \"#utility.yul\":27861:27919   */\n      mstore\n        /* \"#utility.yul\":27953:27985   */\n      0x6973206368696c642063616e2072756e20746869732066756e6374696f6e0000\n        /* \"#utility.yul\":27948:27950   */\n      0x20\n        /* \"#utility.yul\":27940:27946   */\n      dup3\n        /* \"#utility.yul\":27936:27951   */\n      add\n        /* \"#utility.yul\":27929:27986   */\n      mstore\n        /* \"#utility.yul\":27744:27993   */\n      pop\n      jump\t// out\n        /* \"#utility.yul\":27999:28365   */\n    tag_549:\n        /* \"#utility.yul\":28141:28144   */\n      0x00\n        /* \"#utility.yul\":28162:28229   */\n      tag_850\n        /* \"#utility.yul\":28226:28228   */\n      0x3e\n        /* \"#utility.yul\":28221:28224   */\n      dup4\n        /* \"#utility.yul\":28162:28229   */\n      tag_537\n      jump\t// in\n    tag_850:\n        /* \"#utility.yul\":28155:28229   */\n      swap2\n      pop\n        /* \"#utility.yul\":28238:28331   */\n      tag_851\n        /* \"#utility.yul\":28327:28330   */\n      dup3\n        /* \"#utility.yul\":28238:28331   */\n      tag_548\n      jump\t// in\n    tag_851:\n        /* \"#utility.yul\":28356:28358   */\n      0x40\n        /* \"#utility.yul\":28351:28354   */\n      dup3\n        /* \"#utility.yul\":28347:28359   */\n      add\n        /* \"#utility.yul\":28340:28359   */\n      swap1\n      pop\n        /* \"#utility.yul\":27999:28365   */\n      swap2\n      swap1\n      pop\n      jump\t// out\n        /* \"#utility.yul\":28371:28790   */\n    tag_205:\n        /* \"#utility.yul\":28537:28541   */\n      0x00\n        /* \"#utility.yul\":28575:28577   */\n      0x20\n        /* \"#utility.yul\":28564:28573   */\n      dup3\n        /* \"#utility.yul\":28560:28578   */\n      add\n        /* \"#utility.yul\":28552:28578   */\n      swap1\n      pop\n        /* \"#utility.yul\":28624:28633   */\n      dup2\n        /* \"#utility.yul\":28618:28622   */\n      dup2\n        /* \"#utility.yul\":28614:28634   */\n      sub\n        /* \"#utility.yul\":28610:28611   */\n      0x00\n        /* \"#utility.yul\":28599:28608   */\n      dup4\n        /* \"#utility.yul\":28595:28612   */\n      add\n        /* \"#utility.yul\":28588:28635   */\n      mstore\n        /* \"#utility.yul\":28652:28783   */\n      tag_853\n        /* \"#utility.yul\":28778:28782   */\n      dup2\n        /* \"#utility.yul\":28652:28783   */\n      tag_549\n      jump\t// in\n    tag_853:\n        /* \"#utility.yul\":28644:28783   */\n      swap1\n      pop\n        /* \"#utility.yul\":28371:28790   */\n      swap2\n      swap1\n      pop\n      jump\t// out\n        /* \"#utility.yul\":28796:28962   */\n    tag_550:\n        /* \"#utility.yul\":28936:28954   */\n      0x496e76616c6964204368696c6420494400000000000000000000000000000000\n        /* \"#utility.yul\":28932:28933   */\n      0x00\n        /* \"#utility.yul\":28924:28930   */\n      dup3\n        /* \"#utility.yul\":28920:28934   */\n      add\n        /* \"#utility.yul\":28913:28955   */\n      mstore\n        /* \"#utility.yul\":28796:28962   */\n      pop\n      jump\t// out\n        /* \"#utility.yul\":28968:29334   */\n    tag_551:\n        /* \"#utility.yul\":29110:29113   */\n      0x00\n        /* \"#utility.yul\":29131:29198   */\n      tag_856\n        /* \"#utility.yul\":29195:29197   */\n      0x10\n        /* \"#utility.yul\":29190:29193   */\n      dup4\n        /* \"#utility.yul\":29131:29198   */\n      tag_537\n      jump\t// in\n    tag_856:\n        /* \"#utility.yul\":29124:29198   */\n      swap2\n      pop\n        /* \"#utility.yul\":29207:29300   */\n      tag_857\n        /* \"#utility.yul\":29296:29299   */\n      dup3\n        /* \"#utility.yul\":29207:29300   */\n      tag_550\n      jump\t// in\n    tag_857:\n        /* \"#utility.yul\":29325:29327   */\n      0x20\n        /* \"#utility.yul\":29320:29323   */\n      dup3\n        /* \"#utility.yul\":29316:29328   */\n      add\n        /* \"#utility.yul\":29309:29328   */\n      swap1\n      pop\n        /* \"#utility.yul\":28968:29334   */\n      swap2\n      swap1\n      pop\n      jump\t// out\n        /* \"#utility.yul\":29340:29759   */\n    tag_214:\n        /* \"#utility.yul\":29506:29510   */\n      0x00\n        /* \"#utility.yul\":29544:29546   */\n      0x20\n        /* \"#utility.yul\":29533:29542   */\n      dup3\n        /* \"#utility.yul\":29529:29547   */\n      add\n        /* \"#utility.yul\":29521:29547   */\n      swap1\n      pop\n        /* \"#utility.yul\":29593:29602   */\n      dup2\n        /* \"#utility.yul\":29587:29591   */\n      dup2\n        /* \"#utility.yul\":29583:29603   */\n      sub\n        /* \"#utility.yul\":29579:29580   */\n      0x00\n        /* \"#utility.yul\":29568:29577   */\n      dup4\n        /* \"#utility.yul\":29564:29581   */\n      add\n        /* \"#utility.yul\":29557:29604   */\n      mstore\n        /* \"#utility.yul\":29621:29752   */\n      tag_859\n        /* \"#utility.yul\":29747:29751   */\n      dup2\n        /* \"#utility.yul\":29621:29752   */\n      tag_551\n      jump\t// in\n    tag_859:\n        /* \"#utility.yul\":29613:29752   */\n      swap1\n      pop\n        /* \"#utility.yul\":29340:29759   */\n      swap2\n      swap1\n      pop\n      jump\t// out\n        /* \"#utility.yul\":29765:29994   */\n    tag_552:\n        /* \"#utility.yul\":29905:29939   */\n      0x54686973206368696c64206973206e6f742063757272656e746c7920696e2072\n        /* \"#utility.yul\":29901:29902   */\n      0x00\n        /* \"#utility.yul\":29893:29899   */\n      dup3\n        /* \"#utility.yul\":29889:29903   */\n      add\n        /* \"#utility.yul\":29882:29940   */\n      mstore\n        /* \"#utility.yul\":29974:29986   */\n      0x656d6564696174696f6e00000000000000000000000000000000000000000000\n        /* \"#utility.yul\":29969:29971   */\n      0x20\n        /* \"#utility.yul\":29961:29967   */\n      dup3\n        /* \"#utility.yul\":29957:29972   */\n      add\n        /* \"#utility.yul\":29950:29987   */\n      mstore\n        /* \"#utility.yul\":29765:29994   */\n      pop\n      jump\t// out\n        /* \"#utility.yul\":30000:30366   */\n    tag_553:\n        /* \"#utility.yul\":30142:30145   */\n      0x00\n        /* \"#utility.yul\":30163:30230   */\n      tag_862\n        /* \"#utility.yul\":30227:30229   */\n      0x2a\n        /* \"#utility.yul\":30222:30225   */\n      dup4\n        /* \"#utility.yul\":30163:30230   */\n      tag_537\n      jump\t// in\n    tag_862:\n        /* \"#utility.yul\":30156:30230   */\n      swap2\n      pop\n        /* \"#utility.yul\":30239:30332   */\n      tag_863\n        /* \"#utility.yul\":30328:30331   */\n      dup3\n        /* \"#utility.yul\":30239:30332   */\n      tag_552\n      jump\t// in\n    tag_863:\n        /* \"#utility.yul\":30357:30359   */\n      0x40\n        /* \"#utility.yul\":30352:30355   */\n      dup3\n        /* \"#utility.yul\":30348:30360   */\n      add\n        /* \"#utility.yul\":30341:30360   */\n      swap1\n      pop\n        /* \"#utility.yul\":30000:30366   */\n      swap2\n      swap1\n      pop\n      jump\t// out\n        /* \"#utility.yul\":30372:30791   */\n    tag_221:\n        /* \"#utility.yul\":30538:30542   */\n      0x00\n        /* \"#utility.yul\":30576:30578   */\n      0x20\n        /* \"#utility.yul\":30565:30574   */\n      dup3\n        /* \"#utility.yul\":30561:30579   */\n      add\n        /* \"#utility.yul\":30553:30579   */\n      swap1\n      pop\n        /* \"#utility.yul\":30625:30634   */\n      dup2\n        /* \"#utility.yul\":30619:30623   */\n      dup2\n        /* \"#utility.yul\":30615:30635   */\n      sub\n        /* \"#utility.yul\":30611:30612   */\n      0x00\n        /* \"#utility.yul\":30600:30609   */\n      dup4\n        /* \"#utility.yul\":30596:30613   */\n      add\n        /* \"#utility.yul\":30589:30636   */\n      mstore\n        /* \"#utility.yul\":30653:30784   */\n      tag_865\n        /* \"#utility.yul\":30779:30783   */\n      dup2\n        /* \"#utility.yul\":30653:30784   */\n      tag_553\n      jump\t// in\n    tag_865:\n        /* \"#utility.yul\":30645:30784   */\n      swap1\n      pop\n        /* \"#utility.yul\":30372:30791   */\n      swap2\n      swap1\n      pop\n      jump\t// out\n        /* \"#utility.yul\":30797:31029   */\n    tag_554:\n        /* \"#utility.yul\":30937:30971   */\n      0x5468652074696d652077696e646f7720666f722072656d6564696174696f6e20\n        /* \"#utility.yul\":30933:30934   */\n      0x00\n        /* \"#utility.yul\":30925:30931   */\n      dup3\n        /* \"#utility.yul\":30921:30935   */\n      add\n        /* \"#utility.yul\":30914:30972   */\n      mstore\n        /* \"#utility.yul\":31006:31021   */\n      0x6973207374696c6c206f70656e00000000000000000000000000000000000000\n        /* \"#utility.yul\":31001:31003   */\n      0x20\n        /* \"#utility.yul\":30993:30999   */\n      dup3\n        /* \"#utility.yul\":30989:31004   */\n      add\n        /* \"#utility.yul\":30982:31022   */\n      mstore\n        /* \"#utility.yul\":30797:31029   */\n      pop\n      jump\t// out\n        /* \"#utility.yul\":31035:31401   */\n    tag_555:\n        /* \"#utility.yul\":31177:31180   */\n      0x00\n        /* \"#utility.yul\":31198:31265   */\n      tag_868\n        /* \"#utility.yul\":31262:31264   */\n      0x2d\n        /* \"#utility.yul\":31257:31260   */\n      dup4\n        /* \"#utility.yul\":31198:31265   */\n      tag_537\n      jump\t// in\n    tag_868:\n        /* \"#utility.yul\":31191:31265   */\n      swap2\n      pop\n        /* \"#utility.yul\":31274:31367   */\n      tag_869\n        /* \"#utility.yul\":31363:31366   */\n      dup3\n        /* \"#utility.yul\":31274:31367   */\n      tag_554\n      jump\t// in\n    tag_869:\n        /* \"#utility.yul\":31392:31394   */\n      0x40\n        /* \"#utility.yul\":31387:31390   */\n      dup3\n        /* \"#utility.yul\":31383:31395   */\n      add\n        /* \"#utility.yul\":31376:31395   */\n      swap1\n      pop\n        /* \"#utility.yul\":31035:31401   */\n      swap2\n      swap1\n      pop\n      jump\t// out\n        /* \"#utility.yul\":31407:31826   */\n    tag_224:\n        /* \"#utility.yul\":31573:31577   */\n      0x00\n        /* \"#utility.yul\":31611:31613   */\n      0x20\n        /* \"#utility.yul\":31600:31609   */\n      dup3\n        /* \"#utility.yul\":31596:31614   */\n      add\n        /* \"#utility.yul\":31588:31614   */\n      swap1\n      pop\n        /* \"#utility.yul\":31660:31669   */\n      dup2\n        /* \"#utility.yul\":31654:31658   */\n      dup2\n        /* \"#utility.yul\":31650:31670   */\n      sub\n        /* \"#utility.yul\":31646:31647   */\n      0x00\n        /* \"#utility.yul\":31635:31644   */\n      dup4\n        /* \"#utility.yul\":31631:31648   */\n      add\n        /* \"#utility.yul\":31624:31671   */\n      mstore\n        /* \"#utility.yul\":31688:31819   */\n      tag_871\n        /* \"#utility.yul\":31814:31818   */\n      dup2\n        /* \"#utility.yul\":31688:31819   */\n      tag_555\n      jump\t// in\n    tag_871:\n        /* \"#utility.yul\":31680:31819   */\n      swap1\n      pop\n        /* \"#utility.yul\":31407:31826   */\n      swap2\n      swap1\n      pop\n      jump\t// out\n        /* \"#utility.yul\":31832:32274   */\n    tag_228:\n        /* \"#utility.yul\":31981:31985   */\n      0x00\n        /* \"#utility.yul\":32019:32021   */\n      0x60\n        /* \"#utility.yul\":32008:32017   */\n      dup3\n        /* \"#utility.yul\":32004:32022   */\n      add\n        /* \"#utility.yul\":31996:32022   */\n      swap1\n      pop\n        /* \"#utility.yul\":32032:32103   */\n      tag_873\n        /* \"#utility.yul\":32100:32101   */\n      0x00\n        /* \"#utility.yul\":32089:32098   */\n      dup4\n        /* \"#utility.yul\":32085:32102   */\n      add\n        /* \"#utility.yul\":32076:32082   */\n      dup7\n        /* \"#utility.yul\":32032:32103   */\n      tag_490\n      jump\t// in\n    tag_873:\n        /* \"#utility.yul\":32113:32185   */\n      tag_874\n        /* \"#utility.yul\":32181:32183   */\n      0x20\n        /* \"#utility.yul\":32170:32179   */\n      dup4\n        /* \"#utility.yul\":32166:32184   */\n      add\n        /* \"#utility.yul\":32157:32163   */\n      dup6\n        /* \"#utility.yul\":32113:32185   */\n      tag_490\n      jump\t// in\n    tag_874:\n        /* \"#utility.yul\":32195:32267   */\n      tag_875\n        /* \"#utility.yul\":32263:32265   */\n      0x40\n        /* \"#utility.yul\":32252:32261   */\n      dup4\n        /* \"#utility.yul\":32248:32266   */\n      add\n        /* \"#utility.yul\":32239:32245   */\n      dup5\n        /* \"#utility.yul\":32195:32267   */\n      tag_490\n      jump\t// in\n    tag_875:\n        /* \"#utility.yul\":31832:32274   */\n      swap5\n      swap4\n      pop\n      pop\n      pop\n      pop\n      jump\t// out\n        /* \"#utility.yul\":32280:32449   */\n    tag_556:\n        /* \"#utility.yul\":32420:32441   */\n      0x496e76616c696420686173686564206e616d6500000000000000000000000000\n        /* \"#utility.yul\":32416:32417   */\n      0x00\n        /* \"#utility.yul\":32408:32414   */\n      dup3\n        /* \"#utility.yul\":32404:32418   */\n      add\n        /* \"#utility.yul\":32397:32442   */\n      mstore\n        /* \"#utility.yul\":32280:32449   */\n      pop\n      jump\t// out\n        /* \"#utility.yul\":32455:32821   */\n    tag_557:\n        /* \"#utility.yul\":32597:32600   */\n      0x00\n        /* \"#utility.yul\":32618:32685   */\n      tag_878\n        /* \"#utility.yul\":32682:32684   */\n      0x13\n        /* \"#utility.yul\":32677:32680   */\n      dup4\n        /* \"#utility.yul\":32618:32685   */\n      tag_537\n      jump\t// in\n    tag_878:\n        /* \"#utility.yul\":32611:32685   */\n      swap2\n      pop\n        /* \"#utility.yul\":32694:32787   */\n      tag_879\n        /* \"#utility.yul\":32783:32786   */\n      dup3\n        /* \"#utility.yul\":32694:32787   */\n      tag_556\n      jump\t// in\n    tag_879:\n        /* \"#utility.yul\":32812:32814   */\n      0x20\n        /* \"#utility.yul\":32807:32810   */\n      dup3\n        /* \"#utility.yul\":32803:32815   */\n      add\n        /* \"#utility.yul\":32796:32815   */\n      swap1\n      pop\n        /* \"#utility.yul\":32455:32821   */\n      swap2\n      swap1\n      pop\n      jump\t// out\n        /* \"#utility.yul\":32827:33246   */\n    tag_244:\n        /* \"#utility.yul\":32993:32997   */\n      0x00\n        /* \"#utility.yul\":33031:33033   */\n      0x20\n        /* \"#utility.yul\":33020:33029   */\n      dup3\n        /* \"#utility.yul\":33016:33034   */\n      add\n        /* \"#utility.yul\":33008:33034   */\n      swap1\n      pop\n        /* \"#utility.yul\":33080:33089   */\n      dup2\n        /* \"#utility.yul\":33074:33078   */\n      dup2\n        /* \"#utility.yul\":33070:33090   */\n      sub\n        /* \"#utility.yul\":33066:33067   */\n      0x00\n        /* \"#utility.yul\":33055:33064   */\n      dup4\n        /* \"#utility.yul\":33051:33068   */\n      add\n        /* \"#utility.yul\":33044:33091   */\n      mstore\n        /* \"#utility.yul\":33108:33239   */\n      tag_881\n        /* \"#utility.yul\":33234:33238   */\n      dup2\n        /* \"#utility.yul\":33108:33239   */\n      tag_557\n      jump\t// in\n    tag_881:\n        /* \"#utility.yul\":33100:33239   */\n      swap1\n      pop\n        /* \"#utility.yul\":32827:33246   */\n      swap2\n      swap1\n      pop\n      jump\t// out\n        /* \"#utility.yul\":33252:33413   */\n    tag_558:\n        /* \"#utility.yul\":33392:33405   */\n      0x496e76616c696420416765000000000000000000000000000000000000000000\n        /* \"#utility.yul\":33388:33389   */\n      0x00\n        /* \"#utility.yul\":33380:33386   */\n      dup3\n        /* \"#utility.yul\":33376:33390   */\n      add\n        /* \"#utility.yul\":33369:33406   */\n      mstore\n        /* \"#utility.yul\":33252:33413   */\n      pop\n      jump\t// out\n        /* \"#utility.yul\":33419:33785   */\n    tag_559:\n        /* \"#utility.yul\":33561:33564   */\n      0x00\n        /* \"#utility.yul\":33582:33649   */\n      tag_884\n        /* \"#utility.yul\":33646:33648   */\n      0x0b\n        /* \"#utility.yul\":33641:33644   */\n      dup4\n        /* \"#utility.yul\":33582:33649   */\n      tag_537\n      jump\t// in\n    tag_884:\n        /* \"#utility.yul\":33575:33649   */\n      swap2\n      pop\n        /* \"#utility.yul\":33658:33751   */\n      tag_885\n        /* \"#utility.yul\":33747:33750   */\n      dup3\n        /* \"#utility.yul\":33658:33751   */\n      tag_558\n      jump\t// in\n    tag_885:\n        /* \"#utility.yul\":33776:33778   */\n      0x20\n        /* \"#utility.yul\":33771:33774   */\n      dup3\n        /* \"#utility.yul\":33767:33779   */\n      add\n        /* \"#utility.yul\":33760:33779   */\n      swap1\n      pop\n        /* \"#utility.yul\":33419:33785   */\n      swap2\n      swap1\n      pop\n      jump\t// out\n        /* \"#utility.yul\":33791:34210   */\n    tag_247:\n        /* \"#utility.yul\":33957:33961   */\n      0x00\n        /* \"#utility.yul\":33995:33997   */\n      0x20\n        /* \"#utility.yul\":33984:33993   */\n      dup3\n        /* \"#utility.yul\":33980:33998   */\n      add\n        /* \"#utility.yul\":33972:33998   */\n      swap1\n      pop\n        /* \"#utility.yul\":34044:34053   */\n      dup2\n        /* \"#utility.yul\":34038:34042   */\n      dup2\n        /* \"#utility.yul\":34034:34054   */\n      sub\n        /* \"#utility.yul\":34030:34031   */\n      0x00\n        /* \"#utility.yul\":34019:34028   */\n      dup4\n        /* \"#utility.yul\":34015:34032   */\n      add\n        /* \"#utility.yul\":34008:34055   */\n      mstore\n        /* \"#utility.yul\":34072:34203   */\n      tag_887\n        /* \"#utility.yul\":34198:34202   */\n      dup2\n        /* \"#utility.yul\":34072:34203   */\n      tag_559\n      jump\t// in\n    tag_887:\n        /* \"#utility.yul\":34064:34203   */\n      swap1\n      pop\n        /* \"#utility.yul\":33791:34210   */\n      swap2\n      swap1\n      pop\n      jump\t// out\n        /* \"#utility.yul\":34216:34380   */\n    tag_560:\n        /* \"#utility.yul\":34356:34372   */\n      0x496e76616c69642047656e646572000000000000000000000000000000000000\n        /* \"#utility.yul\":34352:34353   */\n      0x00\n        /* \"#utility.yul\":34344:34350   */\n      dup3\n        /* \"#utility.yul\":34340:34354   */\n      add\n        /* \"#utility.yul\":34333:34373   */\n      mstore\n        /* \"#utility.yul\":34216:34380   */\n      pop\n      jump\t// out\n        /* \"#utility.yul\":34386:34752   */\n    tag_561:\n        /* \"#utility.yul\":34528:34531   */\n      0x00\n        /* \"#utility.yul\":34549:34616   */\n      tag_890\n        /* \"#utility.yul\":34613:34615   */\n      0x0e\n        /* \"#utility.yul\":34608:34611   */\n      dup4\n        /* \"#utility.yul\":34549:34616   */\n      tag_537\n      jump\t// in\n    tag_890:\n        /* \"#utility.yul\":34542:34616   */\n      swap2\n      pop\n        /* \"#utility.yul\":34625:34718   */\n      tag_891\n        /* \"#utility.yul\":34714:34717   */\n      dup3\n        /* \"#utility.yul\":34625:34718   */\n      tag_560\n      jump\t// in\n    tag_891:\n        /* \"#utility.yul\":34743:34745   */\n      0x20\n        /* \"#utility.yul\":34738:34741   */\n      dup3\n        /* \"#utility.yul\":34734:34746   */\n      add\n        /* \"#utility.yul\":34727:34746   */\n      swap1\n      pop\n        /* \"#utility.yul\":34386:34752   */\n      swap2\n      swap1\n      pop\n      jump\t// out\n        /* \"#utility.yul\":34758:35177   */\n    tag_251:\n        /* \"#utility.yul\":34924:34928   */\n      0x00\n        /* \"#utility.yul\":34962:34964   */\n      0x20\n        /* \"#utility.yul\":34951:34960   */\n      dup3\n        /* \"#utility.yul\":34947:34965   */\n      add\n        /* \"#utility.yul\":34939:34965   */\n      swap1\n      pop\n        /* \"#utility.yul\":35011:35020   */\n      dup2\n        /* \"#utility.yul\":35005:35009   */\n      dup2\n        /* \"#utility.yul\":35001:35021   */\n      sub\n        /* \"#utility.yul\":34997:34998   */\n      0x00\n        /* \"#utility.yul\":34986:34995   */\n      dup4\n        /* \"#utility.yul\":34982:34999   */\n      add\n        /* \"#utility.yul\":34975:35022   */\n      mstore\n        /* \"#utility.yul\":35039:35170   */\n      tag_893\n        /* \"#utility.yul\":35165:35169   */\n      dup2\n        /* \"#utility.yul\":35039:35170   */\n      tag_561\n      jump\t// in\n    tag_893:\n        /* \"#utility.yul\":35031:35170   */\n      swap1\n      pop\n        /* \"#utility.yul\":34758:35177   */\n      swap2\n      swap1\n      pop\n      jump\t// out\n        /* \"#utility.yul\":35183:35363   */\n    tag_562:\n        /* \"#utility.yul\":35231:35308   */\n      0x4e487b7100000000000000000000000000000000000000000000000000000000\n        /* \"#utility.yul\":35228:35229   */\n      0x00\n        /* \"#utility.yul\":35221:35309   */\n      mstore\n        /* \"#utility.yul\":35328:35332   */\n      0x11\n        /* \"#utility.yul\":35325:35326   */\n      0x04\n        /* \"#utility.yul\":35318:35333   */\n      mstore\n        /* \"#utility.yul\":35352:35356   */\n      0x24\n        /* \"#utility.yul\":35349:35350   */\n      0x00\n        /* \"#utility.yul\":35342:35357   */\n      revert\n        /* \"#utility.yul\":35369:35602   */\n    tag_256:\n        /* \"#utility.yul\":35408:35411   */\n      0x00\n        /* \"#utility.yul\":35431:35455   */\n      tag_896\n        /* \"#utility.yul\":35449:35454   */\n      dup3\n        /* \"#utility.yul\":35431:35455   */\n      tag_487\n      jump\t// in\n    tag_896:\n        /* \"#utility.yul\":35422:35455   */\n      swap2\n      pop\n        /* \"#utility.yul\":35477:35543   */\n      0xffffffffffffffffffffffffffffffffffffffffffffffffffffffffffffffff\n        /* \"#utility.yul\":35470:35475   */\n      dup3\n        /* \"#utility.yul\":35467:35544   */\n      sub\n        /* \"#utility.yul\":35464:35567   */\n      tag_897\n      jumpi\n        /* \"#utility.yul\":35547:35565   */\n      tag_898\n      tag_562\n      jump\t// in\n    tag_898:\n        /* \"#utility.yul\":35464:35567   */\n    tag_897:\n        /* \"#utility.yul\":35594:35595   */\n      0x01\n        /* \"#utility.yul\":35587:35592   */\n      dup3\n        /* \"#utility.yul\":35583:35596   */\n      add\n        /* \"#utility.yul\":35576:35596   */\n      swap1\n      pop\n        /* \"#utility.yul\":35369:35602   */\n      swap2\n      swap1\n      pop\n      jump\t// out\n        /* \"#utility.yul\":35608:36268   */\n    tag_262:\n        /* \"#utility.yul\":35811:35815   */\n      0x00\n        /* \"#utility.yul\":35849:35852   */\n      0xa0\n        /* \"#utility.yul\":35838:35847   */\n      dup3\n        /* \"#utility.yul\":35834:35853   */\n      add\n        /* \"#utility.yul\":35826:35853   */\n      swap1\n      pop\n        /* \"#utility.yul\":35863:35934   */\n      tag_900\n        /* \"#utility.yul\":35931:35932   */\n      0x00\n        /* \"#utility.yul\":35920:35929   */\n      dup4\n        /* \"#utility.yul\":35916:35933   */\n      add\n        /* \"#utility.yul\":35907:35913   */\n      dup9\n        /* \"#utility.yul\":35863:35934   */\n      tag_490\n      jump\t// in\n    tag_900:\n        /* \"#utility.yul\":35944:36016   */\n      tag_901\n        /* \"#utility.yul\":36012:36014   */\n      0x20\n        /* \"#utility.yul\":36001:36010   */\n      dup4\n        /* \"#utility.yul\":35997:36015   */\n      add\n        /* \"#utility.yul\":35988:35994   */\n      dup8\n        /* \"#utility.yul\":35944:36016   */\n      tag_492\n      jump\t// in\n    tag_901:\n        /* \"#utility.yul\":36026:36098   */\n      tag_902\n        /* \"#utility.yul\":36094:36096   */\n      0x40\n        /* \"#utility.yul\":36083:36092   */\n      dup4\n        /* \"#utility.yul\":36079:36097   */\n      add\n        /* \"#utility.yul\":36070:36076   */\n      dup7\n        /* \"#utility.yul\":36026:36098   */\n      tag_490\n      jump\t// in\n    tag_902:\n        /* \"#utility.yul\":36108:36178   */\n      tag_903\n        /* \"#utility.yul\":36174:36176   */\n      0x60\n        /* \"#utility.yul\":36163:36172   */\n      dup4\n        /* \"#utility.yul\":36159:36177   */\n      add\n        /* \"#utility.yul\":36150:36156   */\n      dup6\n        /* \"#utility.yul\":36108:36178   */\n      tag_494\n      jump\t// in\n    tag_903:\n        /* \"#utility.yul\":36188:36261   */\n      tag_904\n        /* \"#utility.yul\":36256:36259   */\n      0x80\n        /* \"#utility.yul\":36245:36254   */\n      dup4\n        /* \"#utility.yul\":36241:36260   */\n      add\n        /* \"#utility.yul\":36232:36238   */\n      dup5\n        /* \"#utility.yul\":36188:36261   */\n      tag_490\n      jump\t// in\n    tag_904:\n        /* \"#utility.yul\":35608:36268   */\n      swap7\n      swap6\n      pop\n      pop\n      pop\n      pop\n      pop\n      pop\n      jump\t// out\n        /* \"#utility.yul\":36274:36567   */\n    tag_563:\n        /* \"#utility.yul\":36414:36448   */\n      0x4f6e6c792074686520526567756c61746f727920417574686f7269747920616e\n        /* \"#utility.yul\":36410:36411   */\n      0x00\n        /* \"#utility.yul\":36402:36408   */\n      dup3\n        /* \"#utility.yul\":36398:36412   */\n      add\n        /* \"#utility.yul\":36391:36449   */\n      mstore\n        /* \"#utility.yul\":36483:36517   */\n      0x64204461746120416e616c797374732063616e2072756e20746869732066756e\n        /* \"#utility.yul\":36478:36480   */\n      0x20\n        /* \"#utility.yul\":36470:36476   */\n      dup3\n        /* \"#utility.yul\":36466:36481   */\n      add\n        /* \"#utility.yul\":36459:36518   */\n      mstore\n        /* \"#utility.yul\":36552:36559   */\n      0x6374696f6e000000000000000000000000000000000000000000000000000000\n        /* \"#utility.yul\":36547:36549   */\n      0x40\n        /* \"#utility.yul\":36539:36545   */\n      dup3\n        /* \"#utility.yul\":36535:36550   */\n      add\n        /* \"#utility.yul\":36528:36560   */\n      mstore\n        /* \"#utility.yul\":36274:36567   */\n      pop\n      jump\t// out\n        /* \"#utility.yul\":36573:36939   */\n    tag_564:\n        /* \"#utility.yul\":36715:36718   */\n      0x00\n        /* \"#utility.yul\":36736:36803   */\n      tag_907\n        /* \"#utility.yul\":36800:36802   */\n      0x45\n        /* \"#utility.yul\":36795:36798   */\n      dup4\n        /* \"#utility.yul\":36736:36803   */\n      tag_537\n      jump\t// in\n    tag_907:\n        /* \"#utility.yul\":36729:36803   */\n      swap2\n      pop\n        /* \"#utility.yul\":36812:36905   */\n      tag_908\n        /* \"#utility.yul\":36901:36904   */\n      dup3\n        /* \"#utility.yul\":36812:36905   */\n      tag_563\n      jump\t// in\n    tag_908:\n        /* \"#utility.yul\":36930:36932   */\n      0x60\n        /* \"#utility.yul\":36925:36928   */\n      dup3\n        /* \"#utility.yul\":36921:36933   */\n      add\n        /* \"#utility.yul\":36914:36933   */\n      swap1\n      pop\n        /* \"#utility.yul\":36573:36939   */\n      swap2\n      swap1\n      pop\n      jump\t// out\n        /* \"#utility.yul\":36945:37364   */\n    tag_281:\n        /* \"#utility.yul\":37111:37115   */\n      0x00\n        /* \"#utility.yul\":37149:37151   */\n      0x20\n        /* \"#utility.yul\":37138:37147   */\n      dup3\n        /* \"#utility.yul\":37134:37152   */\n      add\n        /* \"#utility.yul\":37126:37152   */\n      swap1\n      pop\n        /* \"#utility.yul\":37198:37207   */\n      dup2\n        /* \"#utility.yul\":37192:37196   */\n      dup2\n        /* \"#utility.yul\":37188:37208   */\n      sub\n        /* \"#utility.yul\":37184:37185   */\n      0x00\n        /* \"#utility.yul\":37173:37182   */\n      dup4\n        /* \"#utility.yul\":37169:37186   */\n      add\n        /* \"#utility.yul\":37162:37209   */\n      mstore\n        /* \"#utility.yul\":37226:37357   */\n      tag_910\n        /* \"#utility.yul\":37352:37356   */\n      dup2\n        /* \"#utility.yul\":37226:37357   */\n      tag_564\n      jump\t// in\n    tag_910:\n        /* \"#utility.yul\":37218:37357   */\n      swap1\n      pop\n        /* \"#utility.yul\":36945:37364   */\n      swap2\n      swap1\n      pop\n      jump\t// out\n        /* \"#utility.yul\":37370:37608   */\n    tag_565:\n        /* \"#utility.yul\":37510:37544   */\n      0x4f6e6c792074686520726567756c61746f727920617574686f72697479206361\n        /* \"#utility.yul\":37506:37507   */\n      0x00\n        /* \"#utility.yul\":37498:37504   */\n      dup3\n        /* \"#utility.yul\":37494:37508   */\n      add\n        /* \"#utility.yul\":37487:37545   */\n      mstore\n        /* \"#utility.yul\":37579:37600   */\n      0x6e2072756e20746869732066756e6374696f6e00000000000000000000000000\n        /* \"#utility.yul\":37574:37576   */\n      0x20\n        /* \"#utility.yul\":37566:37572   */\n      dup3\n        /* \"#utility.yul\":37562:37577   */\n      add\n        /* \"#utility.yul\":37555:37601   */\n      mstore\n        /* \"#utility.yul\":37370:37608   */\n      pop\n      jump\t// out\n        /* \"#utility.yul\":37614:37980   */\n    tag_566:\n        /* \"#utility.yul\":37756:37759   */\n      0x00\n        /* \"#utility.yul\":37777:37844   */\n      tag_913\n        /* \"#utility.yul\":37841:37843   */\n      0x33\n        /* \"#utility.yul\":37836:37839   */\n      dup4\n        /* \"#utility.yul\":37777:37844   */\n      tag_537\n      jump\t// in\n    tag_913:\n        /* \"#utility.yul\":37770:37844   */\n      swap2\n      pop\n        /* \"#utility.yul\":37853:37946   */\n      tag_914\n        /* \"#utility.yul\":37942:37945   */\n      dup3\n        /* \"#utility.yul\":37853:37946   */\n      tag_565\n      jump\t// in\n    tag_914:\n        /* \"#utility.yul\":37971:37973   */\n      0x40\n        /* \"#utility.yul\":37966:37969   */\n      dup3\n        /* \"#utility.yul\":37962:37974   */\n      add\n        /* \"#utility.yul\":37955:37974   */\n      swap1\n      pop\n        /* \"#utility.yul\":37614:37980   */\n      swap2\n      swap1\n      pop\n      jump\t// out\n        /* \"#utility.yul\":37986:38405   */\n    tag_304:\n        /* \"#utility.yul\":38152:38156   */\n      0x00\n        /* \"#utility.yul\":38190:38192   */\n      0x20\n        /* \"#utility.yul\":38179:38188   */\n      dup3\n        /* \"#utility.yul\":38175:38193   */\n      add\n        /* \"#utility.yul\":38167:38193   */\n      swap1\n      pop\n        /* \"#utility.yul\":38239:38248   */\n      dup2\n        /* \"#utility.yul\":38233:38237   */\n      dup2\n        /* \"#utility.yul\":38229:38249   */\n      sub\n        /* \"#utility.yul\":38225:38226   */\n      0x00\n        /* \"#utility.yul\":38214:38223   */\n      dup4\n        /* \"#utility.yul\":38210:38227   */\n      add\n        /* \"#utility.yul\":38203:38250   */\n      mstore\n        /* \"#utility.yul\":38267:38398   */\n      tag_916\n        /* \"#utility.yul\":38393:38397   */\n      dup2\n        /* \"#utility.yul\":38267:38398   */\n      tag_566\n      jump\t// in\n    tag_916:\n        /* \"#utility.yul\":38259:38398   */\n      swap1\n      pop\n        /* \"#utility.yul\":37986:38405   */\n      swap2\n      swap1\n      pop\n      jump\t// out\n        /* \"#utility.yul\":38411:38853   */\n    tag_307:\n        /* \"#utility.yul\":38560:38564   */\n      0x00\n        /* \"#utility.yul\":38598:38600   */\n      0x60\n        /* \"#utility.yul\":38587:38596   */\n      dup3\n        /* \"#utility.yul\":38583:38601   */\n      add\n        /* \"#utility.yul\":38575:38601   */\n      swap1\n      pop\n        /* \"#utility.yul\":38611:38682   */\n      tag_918\n        /* \"#utility.yul\":38679:38680   */\n      0x00\n        /* \"#utility.yul\":38668:38677   */\n      dup4\n        /* \"#utility.yul\":38664:38681   */\n      add\n        /* \"#utility.yul\":38655:38661   */\n      dup7\n        /* \"#utility.yul\":38611:38682   */\n      tag_502\n      jump\t// in\n    tag_918:\n        /* \"#utility.yul\":38692:38764   */\n      tag_919\n        /* \"#utility.yul\":38760:38762   */\n      0x20\n        /* \"#utility.yul\":38749:38758   */\n      dup4\n        /* \"#utility.yul\":38745:38763   */\n      add\n        /* \"#utility.yul\":38736:38742   */\n      dup6\n        /* \"#utility.yul\":38692:38764   */\n      tag_502\n      jump\t// in\n    tag_919:\n        /* \"#utility.yul\":38774:38846   */\n      tag_920\n        /* \"#utility.yul\":38842:38844   */\n      0x40\n        /* \"#utility.yul\":38831:38840   */\n      dup4\n        /* \"#utility.yul\":38827:38845   */\n      add\n        /* \"#utility.yul\":38818:38824   */\n      dup5\n        /* \"#utility.yul\":38774:38846   */\n      tag_490\n      jump\t// in\n    tag_920:\n        /* \"#utility.yul\":38411:38853   */\n      swap5\n      swap4\n      pop\n      pop\n      pop\n      pop\n      jump\t// out\n        /* \"#utility.yul\":38859:39092   */\n    tag_567:\n        /* \"#utility.yul\":38999:39033   */\n      0x4f6e6c7920746865204c696169736f6e204f6666696365722063616e2072756e\n        /* \"#utility.yul\":38995:38996   */\n      0x00\n        /* \"#utility.yul\":38987:38993   */\n      dup3\n        /* \"#utility.yul\":38983:38997   */\n      add\n        /* \"#utility.yul\":38976:39034   */\n      mstore\n        /* \"#utility.yul\":39068:39084   */\n      0x20746869732066756e6374696f6e000000000000000000000000000000000000\n        /* \"#utility.yul\":39063:39065   */\n      0x20\n        /* \"#utility.yul\":39055:39061   */\n      dup3\n        /* \"#utility.yul\":39051:39066   */\n      add\n        /* \"#utility.yul\":39044:39085   */\n      mstore\n        /* \"#utility.yul\":38859:39092   */\n      pop\n      jump\t// out\n        /* \"#utility.yul\":39098:39464   */\n    tag_568:\n        /* \"#utility.yul\":39240:39243   */\n      0x00\n        /* \"#utility.yul\":39261:39328   */\n      tag_923\n        /* \"#utility.yul\":39325:39327   */\n      0x2e\n        /* \"#utility.yul\":39320:39323   */\n      dup4\n        /* \"#utility.yul\":39261:39328   */\n      tag_537\n      jump\t// in\n    tag_923:\n        /* \"#utility.yul\":39254:39328   */\n      swap2\n      pop\n        /* \"#utility.yul\":39337:39430   */\n      tag_924\n        /* \"#utility.yul\":39426:39429   */\n      dup3\n        /* \"#utility.yul\":39337:39430   */\n      tag_567\n      jump\t// in\n    tag_924:\n        /* \"#utility.yul\":39455:39457   */\n      0x40\n        /* \"#utility.yul\":39450:39453   */\n      dup3\n        /* \"#utility.yul\":39446:39458   */\n      add\n        /* \"#utility.yul\":39439:39458   */\n      swap1\n      pop\n        /* \"#utility.yul\":39098:39464   */\n      swap2\n      swap1\n      pop\n      jump\t// out\n        /* \"#utility.yul\":39470:39889   */\n    tag_320:\n        /* \"#utility.yul\":39636:39640   */\n      0x00\n        /* \"#utility.yul\":39674:39676   */\n      0x20\n        /* \"#utility.yul\":39663:39672   */\n      dup3\n        /* \"#utility.yul\":39659:39677   */\n      add\n        /* \"#utility.yul\":39651:39677   */\n      swap1\n      pop\n        /* \"#utility.yul\":39723:39732   */\n      dup2\n        /* \"#utility.yul\":39717:39721   */\n      dup2\n        /* \"#utility.yul\":39713:39733   */\n      sub\n        /* \"#utility.yul\":39709:39710   */\n      0x00\n        /* \"#utility.yul\":39698:39707   */\n      dup4\n        /* \"#utility.yul\":39694:39711   */\n      add\n        /* \"#utility.yul\":39687:39734   */\n      mstore\n        /* \"#utility.yul\":39751:39882   */\n      tag_926\n        /* \"#utility.yul\":39877:39881   */\n      dup2\n        /* \"#utility.yul\":39751:39882   */\n      tag_568\n      jump\t// in\n    tag_926:\n        /* \"#utility.yul\":39743:39882   */\n      swap1\n      pop\n        /* \"#utility.yul\":39470:39889   */\n      swap2\n      swap1\n      pop\n      jump\t// out\n        /* \"#utility.yul\":39895:39993   */\n    tag_569:\n        /* \"#utility.yul\":39946:39952   */\n      0x00\n        /* \"#utility.yul\":39980:39985   */\n      dup2\n        /* \"#utility.yul\":39974:39986   */\n      mload\n        /* \"#utility.yul\":39964:39986   */\n      swap1\n      pop\n        /* \"#utility.yul\":39895:39993   */\n      swap2\n      swap1\n      pop\n      jump\t// out\n        /* \"#utility.yul\":39999:40115   */\n    tag_570:\n        /* \"#utility.yul\":40050:40054   */\n      0x00\n        /* \"#utility.yul\":40073:40076   */\n      dup2\n        /* \"#utility.yul\":40065:40076   */\n      swap1\n      pop\n        /* \"#utility.yul\":40103:40107   */\n      0x20\n        /* \"#utility.yul\":40098:40101   */\n      dup3\n        /* \"#utility.yul\":40094:40108   */\n      add\n        /* \"#utility.yul\":40086:40108   */\n      swap1\n      pop\n        /* \"#utility.yul\":39999:40115   */\n      swap2\n      swap1\n      pop\n      jump\t// out\n        /* \"#utility.yul\":40121:40275   */\n    tag_571:\n        /* \"#utility.yul\":40164:40175   */\n      0x00\n        /* \"#utility.yul\":40200:40229   */\n      tag_930\n        /* \"#utility.yul\":40224:40227   */\n      dup3\n        /* \"#utility.yul\":40218:40228   */\n      mload\n        /* \"#utility.yul\":40200:40229   */\n      tag_491\n      jump\t// in\n    tag_930:\n        /* \"#utility.yul\":40263:40268   */\n      dup1\n        /* \"#utility.yul\":40239:40268   */\n      swap2\n      pop\n        /* \"#utility.yul\":40176:40275   */\n      pop\n        /* \"#utility.yul\":40121:40275   */\n      swap2\n      swap1\n      pop\n      jump\t// out\n        /* \"#utility.yul\":40281:40388   */\n    tag_572:\n        /* \"#utility.yul\":40325:40333   */\n      0x00\n        /* \"#utility.yul\":40375:40380   */\n      dup3\n        /* \"#utility.yul\":40369:40373   */\n      dup3\n        /* \"#utility.yul\":40365:40381   */\n      shl\n        /* \"#utility.yul\":40344:40381   */\n      swap1\n      pop\n        /* \"#utility.yul\":40281:40388   */\n      swap3\n      swap2\n      pop\n      pop\n      jump\t// out\n        /* \"#utility.yul\":40394:40988   */\n    tag_324:\n        /* \"#utility.yul\":40478:40483   */\n      0x00\n        /* \"#utility.yul\":40509:40547   */\n      tag_933\n        /* \"#utility.yul\":40541:40546   */\n      dup3\n        /* \"#utility.yul\":40509:40547   */\n      tag_569\n      jump\t// in\n    tag_933:\n        /* \"#utility.yul\":40572:40577   */\n      dup3\n        /* \"#utility.yul\":40599:40639   */\n      tag_934\n        /* \"#utility.yul\":40633:40638   */\n      dup5\n        /* \"#utility.yul\":40599:40639   */\n      tag_570\n      jump\t// in\n    tag_934:\n        /* \"#utility.yul\":40587:40639   */\n      swap1\n      pop\n        /* \"#utility.yul\":40658:40693   */\n      tag_935\n        /* \"#utility.yul\":40684:40692   */\n      dup2\n        /* \"#utility.yul\":40658:40693   */\n      tag_571\n      jump\t// in\n    tag_935:\n        /* \"#utility.yul\":40649:40693   */\n      swap3\n      pop\n        /* \"#utility.yul\":40717:40719   */\n      0x20\n        /* \"#utility.yul\":40709:40715   */\n      dup3\n        /* \"#utility.yul\":40706:40720   */\n      lt\n        /* \"#utility.yul\":40703:40981   */\n      iszero\n      tag_936\n      jumpi\n        /* \"#utility.yul\":40788:40957   */\n      tag_937\n        /* \"#utility.yul\":40873:40939   */\n      0xffffffffffffffffffffffffffffffffffffffffffffffffffffffffffffffff\n        /* \"#utility.yul\":40843:40849   */\n      dup4\n        /* \"#utility.yul\":40839:40841   */\n      0x20\n        /* \"#utility.yul\":40835:40850   */\n      sub\n        /* \"#utility.yul\":40832:40833   */\n      0x08\n        /* \"#utility.yul\":40828:40851   */\n      mul\n        /* \"#utility.yul\":40788:40957   */\n      tag_572\n      jump\t// in\n    tag_937:\n        /* \"#utility.yul\":40765:40770   */\n      dup4\n        /* \"#utility.yul\":40744:40971   */\n      and\n        /* \"#utility.yul\":40735:40971   */\n      swap3\n      pop\n        /* \"#utility.yul\":40703:40981   */\n    tag_936:\n        /* \"#utility.yul\":40484:40988   */\n      pop\n      pop\n        /* \"#utility.yul\":40394:40988   */\n      swap2\n      swap1\n      pop\n      jump\t// out\n        /* \"#utility.yul\":40994:41185   */\n    tag_326:\n        /* \"#utility.yul\":41034:41037   */\n      0x00\n        /* \"#utility.yul\":41053:41073   */\n      tag_939\n        /* \"#utility.yul\":41071:41072   */\n      dup3\n        /* \"#utility.yul\":41053:41073   */\n      tag_487\n      jump\t// in\n    tag_939:\n        /* \"#utility.yul\":41048:41073   */\n      swap2\n      pop\n        /* \"#utility.yul\":41087:41107   */\n      tag_940\n        /* \"#utility.yul\":41105:41106   */\n      dup4\n        /* \"#utility.yul\":41087:41107   */\n      tag_487\n      jump\t// in\n    tag_940:\n        /* \"#utility.yul\":41082:41107   */\n      swap3\n      pop\n        /* \"#utility.yul\":41130:41131   */\n      dup3\n        /* \"#utility.yul\":41127:41128   */\n      dup3\n        /* \"#utility.yul\":41123:41132   */\n      add\n        /* \"#utility.yul\":41116:41132   */\n      swap1\n      pop\n        /* \"#utility.yul\":41151:41154   */\n      dup1\n        /* \"#utility.yul\":41148:41149   */\n      dup3\n        /* \"#utility.yul\":41145:41155   */\n      gt\n        /* \"#utility.yul\":41142:41178   */\n      iszero\n      tag_941\n      jumpi\n        /* \"#utility.yul\":41158:41176   */\n      tag_942\n      tag_562\n      jump\t// in\n    tag_942:\n        /* \"#utility.yul\":41142:41178   */\n    tag_941:\n        /* \"#utility.yul\":40994:41185   */\n      swap3\n      swap2\n      pop\n      pop\n      jump\t// out\n        /* \"#utility.yul\":41191:41417   */\n    tag_573:\n        /* \"#utility.yul\":41331:41365   */\n      0x54686973206368696c64206973206e6f7420726561647920666f722072656d65\n        /* \"#utility.yul\":41327:41328   */\n      0x00\n        /* \"#utility.yul\":41319:41325   */\n      dup3\n        /* \"#utility.yul\":41315:41329   */\n      add\n        /* \"#utility.yul\":41308:41366   */\n      mstore\n        /* \"#utility.yul\":41400:41409   */\n      0x64696174696f6e00000000000000000000000000000000000000000000000000\n        /* \"#utility.yul\":41395:41397   */\n      0x20\n        /* \"#utility.yul\":41387:41393   */\n      dup3\n        /* \"#utility.yul\":41383:41398   */\n      add\n        /* \"#utility.yul\":41376:41410   */\n      mstore\n        /* \"#utility.yul\":41191:41417   */\n      pop\n      jump\t// out\n        /* \"#utility.yul\":41423:41789   */\n    tag_574:\n        /* \"#utility.yul\":41565:41568   */\n      0x00\n        /* \"#utility.yul\":41586:41653   */\n      tag_945\n        /* \"#utility.yul\":41650:41652   */\n      0x27\n        /* \"#utility.yul\":41645:41648   */\n      dup4\n        /* \"#utility.yul\":41586:41653   */\n      tag_537\n      jump\t// in\n    tag_945:\n        /* \"#utility.yul\":41579:41653   */\n      swap2\n      pop\n        /* \"#utility.yul\":41662:41755   */\n      tag_946\n        /* \"#utility.yul\":41751:41754   */\n      dup3\n        /* \"#utility.yul\":41662:41755   */\n      tag_573\n      jump\t// in\n    tag_946:\n        /* \"#utility.yul\":41780:41782   */\n      0x40\n        /* \"#utility.yul\":41775:41778   */\n      dup3\n        /* \"#utility.yul\":41771:41783   */\n      add\n        /* \"#utility.yul\":41764:41783   */\n      swap1\n      pop\n        /* \"#utility.yul\":41423:41789   */\n      swap2\n      swap1\n      pop\n      jump\t// out\n        /* \"#utility.yul\":41795:42214   */\n    tag_374:\n        /* \"#utility.yul\":41961:41965   */\n      0x00\n        /* \"#utility.yul\":41999:42001   */\n      0x20\n        /* \"#utility.yul\":41988:41997   */\n      dup3\n        /* \"#utility.yul\":41984:42002   */\n      add\n        /* \"#utility.yul\":41976:42002   */\n      swap1\n      pop\n        /* \"#utility.yul\":42048:42057   */\n      dup2\n        /* \"#utility.yul\":42042:42046   */\n      dup2\n        /* \"#utility.yul\":42038:42058   */\n      sub\n        /* \"#utility.yul\":42034:42035   */\n      0x00\n        /* \"#utility.yul\":42023:42032   */\n      dup4\n        /* \"#utility.yul\":42019:42036   */\n      add\n        /* \"#utility.yul\":42012:42059   */\n      mstore\n        /* \"#utility.yul\":42076:42207   */\n      tag_948\n        /* \"#utility.yul\":42202:42206   */\n      dup2\n        /* \"#utility.yul\":42076:42207   */\n      tag_574\n      jump\t// in\n    tag_948:\n        /* \"#utility.yul\":42068:42207   */\n      swap1\n      pop\n        /* \"#utility.yul\":41795:42214   */\n      swap2\n      swap1\n      pop\n      jump\t// out\n        /* \"#utility.yul\":42220:42630   */\n    tag_378:\n        /* \"#utility.yul\":42260:42267   */\n      0x00\n        /* \"#utility.yul\":42283:42303   */\n      tag_950\n        /* \"#utility.yul\":42301:42302   */\n      dup3\n        /* \"#utility.yul\":42283:42303   */\n      tag_487\n      jump\t// in\n    tag_950:\n        /* \"#utility.yul\":42278:42303   */\n      swap2\n      pop\n        /* \"#utility.yul\":42317:42337   */\n      tag_951\n        /* \"#utility.yul\":42335:42336   */\n      dup4\n        /* \"#utility.yul\":42317:42337   */\n      tag_487\n      jump\t// in\n    tag_951:\n        /* \"#utility.yul\":42312:42337   */\n      swap3\n      pop\n        /* \"#utility.yul\":42372:42373   */\n      dup3\n        /* \"#utility.yul\":42369:42370   */\n      dup3\n        /* \"#utility.yul\":42365:42374   */\n      mul\n        /* \"#utility.yul\":42394:42424   */\n      tag_952\n        /* \"#utility.yul\":42412:42423   */\n      dup2\n        /* \"#utility.yul\":42394:42424   */\n      tag_487\n      jump\t// in\n    tag_952:\n        /* \"#utility.yul\":42383:42424   */\n      swap2\n      pop\n        /* \"#utility.yul\":42573:42574   */\n      dup3\n        /* \"#utility.yul\":42564:42571   */\n      dup3\n        /* \"#utility.yul\":42560:42575   */\n      div\n        /* \"#utility.yul\":42557:42558   */\n      dup5\n        /* \"#utility.yul\":42554:42576   */\n      eq\n        /* \"#utility.yul\":42534:42535   */\n      dup4\n        /* \"#utility.yul\":42527:42536   */\n      iszero\n        /* \"#utility.yul\":42507:42590   */\n      or\n        /* \"#utility.yul\":42484:42623   */\n      tag_953\n      jumpi\n        /* \"#utility.yul\":42603:42621   */\n      tag_954\n      tag_562\n      jump\t// in\n    tag_954:\n        /* \"#utility.yul\":42484:42623   */\n    tag_953:\n        /* \"#utility.yul\":42268:42630   */\n      pop\n        /* \"#utility.yul\":42220:42630   */\n      swap3\n      swap2\n      pop\n      pop\n      jump\t// out\n        /* \"#utility.yul\":42636:43189   */\n    tag_383:\n        /* \"#utility.yul\":42813:42817   */\n      0x00\n        /* \"#utility.yul\":42851:42854   */\n      0x80\n        /* \"#utility.yul\":42840:42849   */\n      dup3\n        /* \"#utility.yul\":42836:42855   */\n      add\n        /* \"#utility.yul\":42828:42855   */\n      swap1\n      pop\n        /* \"#utility.yul\":42865:42936   */\n      tag_956\n        /* \"#utility.yul\":42933:42934   */\n      0x00\n        /* \"#utility.yul\":42922:42931   */\n      dup4\n        /* \"#utility.yul\":42918:42935   */\n      add\n        /* \"#utility.yul\":42909:42915   */\n      dup8\n        /* \"#utility.yul\":42865:42936   */\n      tag_490\n      jump\t// in\n    tag_956:\n        /* \"#utility.yul\":42946:43018   */\n      tag_957\n        /* \"#utility.yul\":43014:43016   */\n      0x20\n        /* \"#utility.yul\":43003:43012   */\n      dup4\n        /* \"#utility.yul\":42999:43017   */\n      add\n        /* \"#utility.yul\":42990:42996   */\n      dup7\n        /* \"#utility.yul\":42946:43018   */\n      tag_490\n      jump\t// in\n    tag_957:\n        /* \"#utility.yul\":43028:43100   */\n      tag_958\n        /* \"#utility.yul\":43096:43098   */\n      0x40\n        /* \"#utility.yul\":43085:43094   */\n      dup4\n        /* \"#utility.yul\":43081:43099   */\n      add\n        /* \"#utility.yul\":43072:43078   */\n      dup6\n        /* \"#utility.yul\":43028:43100   */\n      tag_490\n      jump\t// in\n    tag_958:\n        /* \"#utility.yul\":43110:43182   */\n      tag_959\n        /* \"#utility.yul\":43178:43180   */\n      0x60\n        /* \"#utility.yul\":43167:43176   */\n      dup4\n        /* \"#utility.yul\":43163:43181   */\n      add\n        /* \"#utility.yul\":43154:43160   */\n      dup5\n        /* \"#utility.yul\":43110:43182   */\n      tag_490\n      jump\t// in\n    tag_959:\n        /* \"#utility.yul\":42636:43189   */\n      swap6\n      swap5\n      pop\n      pop\n      pop\n      pop\n      pop\n      jump\t// out\n        /* \"#utility.yul\":43195:43748   */\n    tag_441:\n        /* \"#utility.yul\":43372:43376   */\n      0x00\n        /* \"#utility.yul\":43410:43413   */\n      0x80\n        /* \"#utility.yul\":43399:43408   */\n      dup3\n        /* \"#utility.yul\":43395:43414   */\n      add\n        /* \"#utility.yul\":43387:43414   */\n      swap1\n      pop\n        /* \"#utility.yul\":43424:43495   */\n      tag_961\n        /* \"#utility.yul\":43492:43493   */\n      0x00\n        /* \"#utility.yul\":43481:43490   */\n      dup4\n        /* \"#utility.yul\":43477:43494   */\n      add\n        /* \"#utility.yul\":43468:43474   */\n      dup8\n        /* \"#utility.yul\":43424:43495   */\n      tag_490\n      jump\t// in\n    tag_961:\n        /* \"#utility.yul\":43505:43577   */\n      tag_962\n        /* \"#utility.yul\":43573:43575   */\n      0x20\n        /* \"#utility.yul\":43562:43571   */\n      dup4\n        /* \"#utility.yul\":43558:43576   */\n      add\n        /* \"#utility.yul\":43549:43555   */\n      dup7\n        /* \"#utility.yul\":43505:43577   */\n      tag_490\n      jump\t// in\n    tag_962:\n        /* \"#utility.yul\":43587:43659   */\n      tag_963\n        /* \"#utility.yul\":43655:43657   */\n      0x40\n        /* \"#utility.yul\":43644:43653   */\n      dup4\n        /* \"#utility.yul\":43640:43658   */\n      add\n        /* \"#utility.yul\":43631:43637   */\n      dup6\n        /* \"#utility.yul\":43587:43659   */\n      tag_490\n      jump\t// in\n    tag_963:\n        /* \"#utility.yul\":43669:43741   */\n      tag_964\n        /* \"#utility.yul\":43737:43739   */\n      0x60\n        /* \"#utility.yul\":43726:43735   */\n      dup4\n        /* \"#utility.yul\":43722:43740   */\n      add\n        /* \"#utility.yul\":43713:43719   */\n      dup5\n        /* \"#utility.yul\":43669:43741   */\n      tag_492\n      jump\t// in\n    tag_964:\n        /* \"#utility.yul\":43195:43748   */\n      swap6\n      swap5\n      pop\n      pop\n      pop\n      pop\n      pop\n      jump\t// out\n        /* \"#utility.yul\":43754:44046   */\n    tag_575:\n        /* \"#utility.yul\":43894:43928   */\n      0x54686973206368696c6420496420646f6573206e6f74206578697374206f7220\n        /* \"#utility.yul\":43890:43891   */\n      0x00\n        /* \"#utility.yul\":43882:43888   */\n      dup3\n        /* \"#utility.yul\":43878:43892   */\n      add\n        /* \"#utility.yul\":43871:43929   */\n      mstore\n        /* \"#utility.yul\":43963:43997   */\n      0x68617320616c7265616479206265656e2061737369676e656420612067756172\n        /* \"#utility.yul\":43958:43960   */\n      0x20\n        /* \"#utility.yul\":43950:43956   */\n      dup3\n        /* \"#utility.yul\":43946:43961   */\n      add\n        /* \"#utility.yul\":43939:43998   */\n      mstore\n        /* \"#utility.yul\":44032:44038   */\n      0x6469616e00000000000000000000000000000000000000000000000000000000\n        /* \"#utility.yul\":44027:44029   */\n      0x40\n        /* \"#utility.yul\":44019:44025   */\n      dup3\n        /* \"#utility.yul\":44015:44030   */\n      add\n        /* \"#utility.yul\":44008:44039   */\n      mstore\n        /* \"#utility.yul\":43754:44046   */\n      pop\n      jump\t// out\n        /* \"#utility.yul\":44052:44418   */\n    tag_576:\n        /* \"#utility.yul\":44194:44197   */\n      0x00\n        /* \"#utility.yul\":44215:44282   */\n      tag_967\n        /* \"#utility.yul\":44279:44281   */\n      0x44\n        /* \"#utility.yul\":44274:44277   */\n      dup4\n        /* \"#utility.yul\":44215:44282   */\n      tag_537\n      jump\t// in\n    tag_967:\n        /* \"#utility.yul\":44208:44282   */\n      swap2\n      pop\n        /* \"#utility.yul\":44291:44384   */\n      tag_968\n        /* \"#utility.yul\":44380:44383   */\n      dup3\n        /* \"#utility.yul\":44291:44384   */\n      tag_575\n      jump\t// in\n    tag_968:\n        /* \"#utility.yul\":44409:44411   */\n      0x60\n        /* \"#utility.yul\":44404:44407   */\n      dup3\n        /* \"#utility.yul\":44400:44412   */\n      add\n        /* \"#utility.yul\":44393:44412   */\n      swap1\n      pop\n        /* \"#utility.yul\":44052:44418   */\n      swap2\n      swap1\n      pop\n      jump\t// out\n        /* \"#utility.yul\":44424:44843   */\n    tag_465:\n        /* \"#utility.yul\":44590:44594   */\n      0x00\n        /* \"#utility.yul\":44628:44630   */\n      0x20\n        /* \"#utility.yul\":44617:44626   */\n      dup3\n        /* \"#utility.yul\":44613:44631   */\n      add\n        /* \"#utility.yul\":44605:44631   */\n      swap1\n      pop\n        /* \"#utility.yul\":44677:44686   */\n      dup2\n        /* \"#utility.yul\":44671:44675   */\n      dup2\n        /* \"#utility.yul\":44667:44687   */\n      sub\n        /* \"#utility.yul\":44663:44664   */\n      0x00\n        /* \"#utility.yul\":44652:44661   */\n      dup4\n        /* \"#utility.yul\":44648:44665   */\n      add\n        /* \"#utility.yul\":44641:44688   */\n      mstore\n        /* \"#utility.yul\":44705:44836   */\n      tag_970\n        /* \"#utility.yul\":44831:44835   */\n      dup2\n        /* \"#utility.yul\":44705:44836   */\n      tag_576\n      jump\t// in\n    tag_970:\n        /* \"#utility.yul\":44697:44836   */\n      swap1\n      pop\n        /* \"#utility.yul\":44424:44843   */\n      swap2\n      swap1\n      pop\n      jump\t// out\n        /* \"#utility.yul\":44849:45291   */\n    tag_475:\n        /* \"#utility.yul\":44998:45002   */\n      0x00\n        /* \"#utility.yul\":45036:45038   */\n      0x60\n        /* \"#utility.yul\":45025:45034   */\n      dup3\n        /* \"#utility.yul\":45021:45039   */\n      add\n        /* \"#utility.yul\":45013:45039   */\n      swap1\n      pop\n        /* \"#utility.yul\":45049:45120   */\n      tag_972\n        /* \"#utility.yul\":45117:45118   */\n      0x00\n        /* \"#utility.yul\":45106:45115   */\n      dup4\n        /* \"#utility.yul\":45102:45119   */\n      add\n        /* \"#utility.yul\":45093:45099   */\n      dup7\n        /* \"#utility.yul\":45049:45120   */\n      tag_490\n      jump\t// in\n    tag_972:\n        /* \"#utility.yul\":45130:45202   */\n      tag_973\n        /* \"#utility.yul\":45198:45200   */\n      0x20\n        /* \"#utility.yul\":45187:45196   */\n      dup4\n        /* \"#utility.yul\":45183:45201   */\n      add\n        /* \"#utility.yul\":45174:45180   */\n      dup6\n        /* \"#utility.yul\":45130:45202   */\n      tag_490\n      jump\t// in\n    tag_973:\n        /* \"#utility.yul\":45212:45284   */\n      tag_974\n        /* \"#utility.yul\":45280:45282   */\n      0x40\n        /* \"#utility.yul\":45269:45278   */\n      dup4\n        /* \"#utility.yul\":45265:45283   */\n      add\n        /* \"#utility.yul\":45256:45262   */\n      dup5\n        /* \"#utility.yul\":45212:45284   */\n      tag_502\n      jump\t// in\n    tag_974:\n        /* \"#utility.yul\":44849:45291   */\n      swap5\n      swap4\n      pop\n      pop\n      pop\n      pop\n      jump\t// out\n\n    auxdata: 0xa26469706673582212205beada54db5936e40b1520ce6084ed884952cb2851b198757570452f4fd1655e64736f6c63430008150033\n}\n",
				"bytecode": {
					"linkReferences": {},
					"object": "608060405234801562000010575f80fd5b506040516200485938038062004859833981810160405281019062000036919062000130565b815f806101000a81548173ffffffffffffffffffffffffffffffffffffffff021916908373ffffffffffffffffffffffffffffffffffffffff1602179055508060015f6101000a81548173ffffffffffffffffffffffffffffffffffffffff021916908373ffffffffffffffffffffffffffffffffffffffff1602179055505f6002819055505f600381905550505062000175565b5f80fd5b5f73ffffffffffffffffffffffffffffffffffffffff82169050919050565b5f620000fa82620000cf565b9050919050565b6200010c81620000ee565b811462000117575f80fd5b50565b5f815190506200012a8162000101565b92915050565b5f8060408385031215620001495762000148620000cb565b5b5f62000158858286016200011a565b92505060206200016b858286016200011a565b9150509250929050565b6146d680620001835f395ff3fe608060405234801561000f575f80fd5b5060043610610156575f3560e01c806385e68531116100c1578063a1dc99b41161007a578063a1dc99b4146103f9578063b05efaab1461042c578063e60e5ee21461045c578063e8a3791914610478578063eff5cfae14610496578063f8b4d690146104b257610156565b806385e685311461033b5780638bc3bbc0146103575780638fe2d9501461037557806397fc007c14610391578063992cc022146103ad578063a0619d4a146103c957610156565b806353ca81151161011357806353ca811514610250578063636d02621461026e5780636388bafc146102a0578063739f48a6146102d0578063832de71e146102ec57806384e2395d1461030857610156565b80630ae5e7391461015a57806312f1a83a14610176578063185c6f84146101ab57806328c10330146101c95780632b76ea9c146101e55780633835a1191461021b575b5f80fd5b610174600480360381019061016f919061302d565b6104e4565b005b610190600480360381019061018b919061308b565b610683565b6040516101a29695949392919061319d565b60405180910390f35b6101b36106de565b6040516101c091906131fc565b60405180910390f35b6101e360048036038101906101de919061324a565b6106e4565b005b6101ff60048036038101906101fa9190613288565b61093e565b60405161021297969594939291906132c2565b60405180910390f35b61023560048036038101906102309190613288565b6109a7565b6040516102479695949392919061333e565b60405180910390f35b610258610a17565b60405161026591906133f8565b60405180910390f35b61028860048036038101906102839190613288565b610a3c565b60405161029793929190613411565b60405180910390f35b6102ba60048036038101906102b59190613288565b610c83565b6040516102c791906131fc565b60405180910390f35b6102ea60048036038101906102e5919061308b565b610c98565b005b6103066004803603810190610301919061349a565b6110d0565b005b610322600480360381019061031d919061308b565b611545565b60405161033294939291906134fe565b60405180910390f35b6103556004803603810190610350919061302d565b611918565b005b61035f611ab8565b60405161036c91906131fc565b60405180910390f35b61038f600480360381019061038a919061367d565b611abe565b005b6103ab60048036038101906103a6919061302d565b611d4e565b005b6103c760048036038101906103c291906136d7565b611eda565b005b6103e360048036038101906103de919061302d565b612380565b6040516103f09190613727565b60405180910390f35b610413600480360381019061040e919061308b565b61239d565b6040516104239493929190613740565b60405180910390f35b61044660048036038101906104419190613288565b612667565b60405161045391906131fc565b60405180910390f35b61047660048036038101906104719190613783565b61267c565b005b610480612ab1565b60405161048d919061380f565b60405180910390f35b6104b060048036038101906104ab9190613828565b612ad4565b005b6104cc60048036038101906104c79190613288565b612ecf565b6040516104db93929190613977565b60405180910390f35b5f805f8054906101000a900473ffffffffffffffffffffffffffffffffffffffff1673ffffffffffffffffffffffffffffffffffffffff166375894e8c336040518263ffffffff1660e01b815260040161053e91906139ad565b60408051808303815f875af1158015610559573d5f803e3d5ffd5b505050506040513d601f19601f8201168201806040525081019061057d91906139fd565b915091506005808111156105945761059361312a565b5b8260058111156105a7576105a661312a565b5b1480156105b15750805b6105f0576040517f08c379a00000000000000000000000000000000000000000000000000000000081526004016105e790613abb565b60405180910390fd5b600160095f8573ffffffffffffffffffffffffffffffffffffffff1673ffffffffffffffffffffffffffffffffffffffff1681526020019081526020015f205f6101000a81548160ff0219169083151502179055507f6ea640312e182de387819fbeb13be00db3171a445412852248559054871c41998342604051610676929190613ad9565b60405180910390a1505050565b6006602052815f5260405f20602052805f5260405f205f9150915050805f015490806001015490806002015490806003015f9054906101000a900460f81b90806004015490806005015f9054906101000a900460ff16905086565b60025481565b5f805f8054906101000a900473ffffffffffffffffffffffffffffffffffffffff1673ffffffffffffffffffffffffffffffffffffffff166375894e8c336040518263ffffffff1660e01b815260040161073e91906139ad565b60408051808303815f875af1158015610759573d5f803e3d5ffd5b505050506040513d601f19601f8201168201806040525081019061077d91906139fd565b91509150600260058111156107955761079461312a565b5b8260058111156107a8576107a761312a565b5b1480156107b25750805b6107f1576040517f08c379a00000000000000000000000000000000000000000000000000000000081526004016107e890613b70565b60405180910390fd5b6001841015801561080457506002548411155b610843576040517f08c379a000000000000000000000000000000000000000000000000000000000815260040161083a90613bd8565b60405180910390fd5b60045f8581526020019081526020015f206004015f9054906101000a900460ff16156108a4576040517f08c379a000000000000000000000000000000000000000000000000000000000815260040161089b90613c66565b60405180910390fd5b600160045f8681526020019081526020015f206004015f6101000a81548160ff0219169083151502179055508260045f8681526020019081526020015f2060040160016101000a81548160ff021916908315150217905550837f5e672278b5a4ce7f1deaeb816f60398e65c2401c6f90928e8344510d7fa9275533854260405161093093929190613c84565b60405180910390a250505050565b6008602052805f5260405f205f91509050805f015f9054906101000a900473ffffffffffffffffffffffffffffffffffffffff1690806001015490806002015490806003015490806004015490806005015490806006015f9054906101000a900460ff16905087565b6004602052805f5260405f205f91509050805f015f9054906101000a900473ffffffffffffffffffffffffffffffffffffffff1690806001015490806002015490806003015490806004015f9054906101000a900460ff16908060040160019054906101000a900460ff16905086565b60015f9054906101000a900473ffffffffffffffffffffffffffffffffffffffff1681565b5f805f805f805f9054906101000a900473ffffffffffffffffffffffffffffffffffffffff1673ffffffffffffffffffffffffffffffffffffffff166375894e8c336040518263ffffffff1660e01b8152600401610a9a91906139ad565b60408051808303815f875af1158015610ab5573d5f803e3d5ffd5b505050506040513d601f19601f82011682018060405250810190610ad991906139fd565b9150915060026005811115610af157610af061312a565b5b826005811115610b0457610b0361312a565b5b148015610b0e5750805b610b4d576040517f08c379a0000000000000000000000000000000000000000000000000000000008152600401610b4490613b70565b60405180910390fd5b60018610158015610b6057506002548611155b610b9f576040517f08c379a0000000000000000000000000000000000000000000000000000000008152600401610b9690613bd8565b60405180910390fd5b5f60045f8881526020019081526020015f206040518060c00160405290815f82015f9054906101000a900473ffffffffffffffffffffffffffffffffffffffff1673ffffffffffffffffffffffffffffffffffffffff1673ffffffffffffffffffffffffffffffffffffffff168152602001600182015481526020016002820154815260200160038201548152602001600482015f9054906101000a900460ff161515151581526020016004820160019054906101000a900460ff1615151515815250509050805f0151816020015182606001519550955095505050509193909250565b6007602052805f5260405f205f915090505481565b805f805f8054906101000a900473ffffffffffffffffffffffffffffffffffffffff1673ffffffffffffffffffffffffffffffffffffffff166375894e8c336040518263ffffffff1660e01b8152600401610cf391906139ad565b60408051808303815f875af1158015610d0e573d5f803e3d5ffd5b505050506040513d601f19601f82011682018060405250810190610d3291906139fd565b9150915060046005811115610d4a57610d4961312a565b5b826005811115610d5d57610d5c61312a565b5b148015610d675750805b610da6576040517f08c379a0000000000000000000000000000000000000000000000000000000008152600401610d9d90613d29565b60405180910390fd5b3373ffffffffffffffffffffffffffffffffffffffff1660085f8581526020019081526020015f205f015f9054906101000a900473ffffffffffffffffffffffffffffffffffffffff1673ffffffffffffffffffffffffffffffffffffffff1614610e46576040517f08c379a0000000000000000000000000000000000000000000000000000000008152600401610e3d90613db7565b60405180910390fd5b5f60085f8681526020019081526020015f206040518060e00160405290815f82015f9054906101000a900473ffffffffffffffffffffffffffffffffffffffff1673ffffffffffffffffffffffffffffffffffffffff1673ffffffffffffffffffffffffffffffffffffffff1681526020016001820154815260200160028201548152602001600382015481526020016004820154815260200160058201548152602001600682015f9054906101000a900460ff166003811115610f0d57610f0c61312a565b5b6003811115610f1f57610f1e61312a565b5b81525050905060018510158015610f47575060075f8781526020019081526020015f20548511155b610f86576040517f08c379a0000000000000000000000000000000000000000000000000000000008152600401610f7d90613e1f565b60405180910390fd5b60026003811115610f9a57610f9961312a565b5b8160c001516003811115610fb157610fb061312a565b5b14610ff1576040517f08c379a0000000000000000000000000000000000000000000000000000000008152600401610fe890613ead565b60405180910390fd5b8060600151421015611038576040517f08c379a000000000000000000000000000000000000000000000000000000000815260040161102f90613f3b565b60405180910390fd5b600360085f8781526020019081526020015f206006015f6101000a81548160ff0219169083600381111561106f5761106e61312a565b5b02179055504260085f8781526020019081526020015f20600401819055507ff0759b1c58f2eb04b7275484184a141f88fedeb54c9a6a48b4e7d9d332edb1a78686426040516110c093929190613f59565b60405180910390a1505050505050565b5f805f8054906101000a900473ffffffffffffffffffffffffffffffffffffffff1673ffffffffffffffffffffffffffffffffffffffff166375894e8c336040518263ffffffff1660e01b815260040161112a91906139ad565b60408051808303815f875af1158015611145573d5f803e3d5ffd5b505050506040513d601f19601f8201168201806040525081019061116991906139fd565b91509150600260058111156111815761118061312a565b5b8260058111156111945761119361312a565b5b14801561119e5750805b6111dd576040517f08c379a00000000000000000000000000000000000000000000000000000000081526004016111d490613b70565b60405180910390fd5b5f801b8603611221576040517f08c379a000000000000000000000000000000000000000000000000000000000815260040161121890613fd8565b60405180910390fd5b5f8511611263576040517f08c379a000000000000000000000000000000000000000000000000000000000815260040161125a90614040565b60405180910390fd5b7f4d00000000000000000000000000000000000000000000000000000000000000847effffffffffffffffffffffffffffffffffffffffffffffffffffffffffffff191614806112f457507f4600000000000000000000000000000000000000000000000000000000000000847effffffffffffffffffffffffffffffffffffffffffffffffffffffffffffff1916145b611333576040517f08c379a000000000000000000000000000000000000000000000000000000000815260040161132a906140a8565b60405180910390fd5b6001831015801561134657506002548311155b611385576040517f08c379a000000000000000000000000000000000000000000000000000000000815260040161137c90613bd8565b60405180910390fd5b60075f8481526020019081526020015f205f8154809291906113a6906140f3565b91905055506040518060c0016040528060075f8681526020019081526020015f20548152602001878152602001868152602001857effffffffffffffffffffffffffffffffffffffffffffffffffffffffffffff191681526020018481526020015f600381111561141a5761141961312a565b5b81525060065f8581526020019081526020015f205f60075f8781526020019081526020015f205481526020019081526020015f205f820151815f015560208201518160010155604082015181600201556060820151816003015f6101000a81548160ff021916908360f81c02179055506080820151816004015560a0820151816005015f6101000a81548160ff021916908360038111156114be576114bd61312a565b5b02179055509050508260055f60075f8781526020019081526020015f205481526020019081526020015f20819055507f8f6937edcd05ce1c1912e225ec700cb996d92333e3b1631ce16e703fc6b8e77a60075f8581526020019081526020015f20548787878760405161153595949392919061413a565b60405180910390a1505050505050565b5f805f805f805f8054906101000a900473ffffffffffffffffffffffffffffffffffffffff1673ffffffffffffffffffffffffffffffffffffffff166375894e8c336040518263ffffffff1660e01b81526004016115a391906139ad565b60408051808303815f875af11580156115be573d5f803e3d5ffd5b505050506040513d601f19601f820116820180604052508101906115e291906139fd565b91509150600360058111156115fa576115f961312a565b5b82600581111561160d5761160c61312a565b5b1480156116175750805b8061164e57505f60058111156116305761162f61312a565b5b8260058111156116435761164261312a565b5b14801561164d5750805b5b61168d576040517f08c379a000000000000000000000000000000000000000000000000000000000815260040161168490614221565b60405180910390fd5b600188101580156116a057506002548811155b6116df576040517f08c379a00000000000000000000000000000000000000000000000000000000081526004016116d690613bd8565b60405180910390fd5b60018710158015611701575060075f8981526020019081526020015f20548711155b611740576040517f08c379a000000000000000000000000000000000000000000000000000000000815260040161173790613e1f565b60405180910390fd5b5f60065f8a81526020019081526020015f205f8981526020019081526020015f206040518060c00160405290815f82015481526020016001820154815260200160028201548152602001600382015f9054906101000a900460f81b7effffffffffffffffffffffffffffffffffffffffffffffffffffffffffffff19167effffffffffffffffffffffffffffffffffffffffffffffffffffffffffffff1916815260200160048201548152602001600582015f9054906101000a900460ff1660038111156118115761181061312a565b5b60038111156118235761182261312a565b5b8152505090505f60045f8b81526020019081526020015f206040518060c00160405290815f82015f9054906101000a900473ffffffffffffffffffffffffffffffffffffffff1673ffffffffffffffffffffffffffffffffffffffff1673ffffffffffffffffffffffffffffffffffffffff168152602001600182015481526020016002820154815260200160038201548152602001600482015f9054906101000a900460ff161515151581526020016004820160019054906101000a900460ff1615151515815250509050816020015182604001518360600151836060015197509750975097505050505092959194509250565b5f805f8054906101000a900473ffffffffffffffffffffffffffffffffffffffff1673ffffffffffffffffffffffffffffffffffffffff166375894e8c336040518263ffffffff1660e01b815260040161197291906139ad565b60408051808303815f875af115801561198d573d5f803e3d5ffd5b505050506040513d601f19601f820116820180604052508101906119b191906139fd565b915091505f60058111156119c8576119c761312a565b5b8260058111156119db576119da61312a565b5b1480156119e55750805b611a24576040517f08c379a0000000000000000000000000000000000000000000000000000000008152600401611a1b906142af565b60405180910390fd5b5f60095f8573ffffffffffffffffffffffffffffffffffffffff1673ffffffffffffffffffffffffffffffffffffffff1681526020019081526020015f205f6101000a81548160ff0219169083151502179055507f6f6a404ffd2cea4713256a4fd9ce99c8cf8cf32d85c2bb8061d1603ff57d50c3338442604051611aab939291906142cd565b60405180910390a1505050565b60035481565b5f805f8054906101000a900473ffffffffffffffffffffffffffffffffffffffff1673ffffffffffffffffffffffffffffffffffffffff166375894e8c336040518263ffffffff1660e01b8152600401611b1891906139ad565b60408051808303815f875af1158015611b33573d5f803e3d5ffd5b505050506040513d601f19601f82011682018060405250810190611b5791906139fd565b9150915060016005811115611b6f57611b6e61312a565b5b826005811115611b8257611b8161312a565b5b148015611b8c5750805b611bcb576040517f08c379a0000000000000000000000000000000000000000000000000000000008152600401611bc290614372565b60405180910390fd5b60025f815480929190611bdd906140f3565b91905055506040518060c001604052803373ffffffffffffffffffffffffffffffffffffffff16815260200142815260200184815260200185611c1f906143c9565b81526020015f151581526020015f151581525060045f60025481526020019081526020015f205f820151815f015f6101000a81548173ffffffffffffffffffffffffffffffffffffffff021916908373ffffffffffffffffffffffffffffffffffffffff1602179055506020820151816001015560408201518160020155606082015181600301556080820151816004015f6101000a81548160ff02191690831515021790555060a08201518160040160016101000a81548160ff0219169083151502179055509050508260035f828254611cfa919061442f565b925050819055506002547f681f3195132986285e497b66d82a1d87dee04fe482a1e74020677b543e3f7c40334287611d31906143c9565b604051611d4093929190613411565b60405180910390a250505050565b5f805f8054906101000a900473ffffffffffffffffffffffffffffffffffffffff1673ffffffffffffffffffffffffffffffffffffffff166375894e8c336040518263ffffffff1660e01b8152600401611da891906139ad565b60408051808303815f875af1158015611dc3573d5f803e3d5ffd5b505050506040513d601f19601f82011682018060405250810190611de791906139fd565b915091505f6005811115611dfe57611dfd61312a565b5b826005811115611e1157611e1061312a565b5b148015611e1b5750805b611e5a576040517f08c379a0000000000000000000000000000000000000000000000000000000008152600401611e51906142af565b60405180910390fd5b8260015f6101000a81548173ffffffffffffffffffffffffffffffffffffffff021916908373ffffffffffffffffffffffffffffffffffffffff1602179055507fd64ae07f3ddea489022b7c3651c0b93cc96296695feac84461061dfa1f34c0cb338442604051611ecd939291906142cd565b60405180910390a1505050565b815f805f8054906101000a900473ffffffffffffffffffffffffffffffffffffffff1673ffffffffffffffffffffffffffffffffffffffff166375894e8c336040518263ffffffff1660e01b8152600401611f3591906139ad565b60408051808303815f875af1158015611f50573d5f803e3d5ffd5b505050506040513d601f19601f82011682018060405250810190611f7491906139fd565b9150915060046005811115611f8c57611f8b61312a565b5b826005811115611f9f57611f9e61312a565b5b148015611fa95750805b611fe8576040517f08c379a0000000000000000000000000000000000000000000000000000000008152600401611fdf90613d29565b60405180910390fd5b3373ffffffffffffffffffffffffffffffffffffffff1660085f8581526020019081526020015f205f015f9054906101000a900473ffffffffffffffffffffffffffffffffffffffff1673ffffffffffffffffffffffffffffffffffffffff1614612088576040517f08c379a000000000000000000000000000000000000000000000000000000000815260040161207f90613db7565b60405180910390fd5b5f60085f8781526020019081526020015f206040518060e00160405290815f82015f9054906101000a900473ffffffffffffffffffffffffffffffffffffffff1673ffffffffffffffffffffffffffffffffffffffff1673ffffffffffffffffffffffffffffffffffffffff1681526020016001820154815260200160028201548152602001600382015481526020016004820154815260200160058201548152602001600682015f9054906101000a900460ff16600381111561214f5761214e61312a565b5b60038111156121615761216061312a565b5b8152505090506001871015801561217a57506002548711155b6121b9576040517f08c379a00000000000000000000000000000000000000000000000000000000081526004016121b090613bd8565b60405180910390fd5b600186101580156121db575060075f8881526020019081526020015f20548611155b61221a576040517f08c379a000000000000000000000000000000000000000000000000000000000815260040161221190613e1f565b60405180910390fd5b6001600381111561222e5761222d61312a565b5b8160c0015160038111156122455761224461312a565b5b14612285576040517f08c379a000000000000000000000000000000000000000000000000000000000815260040161227c906144d2565b60405180910390fd5b600260085f8881526020019081526020015f206006015f6101000a81548160ff021916908360038111156122bc576122bb61312a565b5b02179055504260085f8881526020019081526020015f20600201819055506001856122e791906144f0565b426122f2919061442f565b60085f8881526020019081526020015f20600301819055504260085f8881526020019081526020015f20600401819055507f29dc036766d8e77f495b0b42f18a239419af9f8dd528d84e1251663aa6da16c987874260018961235491906144f0565b4261235f919061442f565b60405161236f9493929190614531565b60405180910390a150505050505050565b6009602052805f5260405f205f915054906101000a900460ff1681565b5f805f805f805f8054906101000a900473ffffffffffffffffffffffffffffffffffffffff1673ffffffffffffffffffffffffffffffffffffffff166375894e8c336040518263ffffffff1660e01b81526004016123fb91906139ad565b60408051808303815f875af1158015612416573d5f803e3d5ffd5b505050506040513d601f19601f8201168201806040525081019061243a91906139fd565b915091505f60058111156124515761245061312a565b5b8260058111156124645761246361312a565b5b14801561246e5750805b6124ad576040517f08c379a00000000000000000000000000000000000000000000000000000000081526004016124a4906142af565b60405180910390fd5b5f60085f8981526020019081526020015f206040518060e00160405290815f82015f9054906101000a900473ffffffffffffffffffffffffffffffffffffffff1673ffffffffffffffffffffffffffffffffffffffff1673ffffffffffffffffffffffffffffffffffffffff1681526020016001820154815260200160028201548152602001600382015481526020016004820154815260200160058201548152602001600682015f9054906101000a900460ff1660038111156125745761257361312a565b5b60038111156125865761258561312a565b5b8152505090506001891015801561259f57506002548911155b6125de576040517f08c379a00000000000000000000000000000000000000000000000000000000081526004016125d590613bd8565b60405180910390fd5b60018810158015612600575060075f8a81526020019081526020015f20548811155b61263f576040517f08c379a000000000000000000000000000000000000000000000000000000000815260040161263690613e1f565b60405180910390fd5b8060c00151816080015182604001518360600151965096509650965050505092959194509250565b6005602052805f5260405f205f915090505481565b815f805f8054906101000a900473ffffffffffffffffffffffffffffffffffffffff1673ffffffffffffffffffffffffffffffffffffffff166375894e8c336040518263ffffffff1660e01b81526004016126d791906139ad565b60408051808303815f875af11580156126f2573d5f803e3d5ffd5b505050506040513d601f19601f8201168201806040525081019061271691906139fd565b915091506004600581111561272e5761272d61312a565b5b8260058111156127415761274061312a565b5b14801561274b5750805b61278a576040517f08c379a000000000000000000000000000000000000000000000000000000000815260040161278190613d29565b60405180910390fd5b3373ffffffffffffffffffffffffffffffffffffffff1660085f8581526020019081526020015f205f015f9054906101000a900473ffffffffffffffffffffffffffffffffffffffff1673ffffffffffffffffffffffffffffffffffffffff161461282a576040517f08c379a000000000000000000000000000000000000000000000000000000000815260040161282190613db7565b60405180910390fd5b5f60085f8781526020019081526020015f206040518060e00160405290815f82015f9054906101000a900473ffffffffffffffffffffffffffffffffffffffff1673ffffffffffffffffffffffffffffffffffffffff1673ffffffffffffffffffffffffffffffffffffffff1681526020016001820154815260200160028201548152602001600382015481526020016004820154815260200160058201548152602001600682015f9054906101000a900460ff1660038111156128f1576128f061312a565b5b60038111156129035761290261312a565b5b8152505090506001871015801561291c57506002548711155b61295b576040517f08c379a000000000000000000000000000000000000000000000000000000000815260040161295290613bd8565b60405180910390fd5b6001861015801561297d575060075f8881526020019081526020015f20548611155b6129bc576040517f08c379a00000000000000000000000000000000000000000000000000000000081526004016129b390613e1f565b60405180910390fd5b600260038111156129d0576129cf61312a565b5b8160c0015160038111156129e7576129e661312a565b5b14612a27576040517f08c379a0000000000000000000000000000000000000000000000000000000008152600401612a1e90613ead565b60405180910390fd5b84612a31906143c9565b60085f8881526020019081526020015f20600501819055504260085f8881526020019081526020015f20600401819055507fde2669f070bfb51d280ef42c92c59e3f20bbeef765e99cab94cd673cc2bf0f2f87874288612a90906143c9565b604051612aa09493929190614574565b60405180910390a150505050505050565b5f8054906101000a900473ffffffffffffffffffffffffffffffffffffffff1681565b5f805f8054906101000a900473ffffffffffffffffffffffffffffffffffffffff1673ffffffffffffffffffffffffffffffffffffffff166375894e8c336040518263ffffffff1660e01b8152600401612b2e91906139ad565b60408051808303815f875af1158015612b49573d5f803e3d5ffd5b505050506040513d601f19601f82011682018060405250810190612b6d91906139fd565b915091505f6005811115612b8457612b8361312a565b5b826005811115612b9757612b9661312a565b5b148015612ba15750805b612be0576040517f08c379a0000000000000000000000000000000000000000000000000000000008152600401612bd7906142af565b60405180910390fd5b5f60065f8781526020019081526020015f205f8681526020019081526020015f206040518060c00160405290815f82015481526020016001820154815260200160028201548152602001600382015f9054906101000a900460f81b7effffffffffffffffffffffffffffffffffffffffffffffffffffffffffffff19167effffffffffffffffffffffffffffffffffffffffffffffffffffffffffffff1916815260200160048201548152602001600582015f9054906101000a900460ff166003811115612cb157612cb061312a565b5b6003811115612cc357612cc261312a565b5b8152505090505f6003811115612cdc57612cdb61312a565b5b8160a001516003811115612cf357612cf261312a565b5b14612d33576040517f08c379a0000000000000000000000000000000000000000000000000000000008152600401612d2a9061464d565b60405180910390fd5b60018610158015612d4657506002548611155b612d85576040517f08c379a0000000000000000000000000000000000000000000000000000000008152600401612d7c90613bd8565b60405180910390fd5b60018510158015612da7575060075f8781526020019081526020015f20548511155b612de6576040517f08c379a0000000000000000000000000000000000000000000000000000000008152600401612ddd90613e1f565b60405180910390fd5b8360085f8781526020019081526020015f205f015f6101000a81548173ffffffffffffffffffffffffffffffffffffffff021916908373ffffffffffffffffffffffffffffffffffffffff1602179055508460085f8781526020019081526020015f2060010181905550600160085f8781526020019081526020015f206006015f6101000a81548160ff02191690836003811115612e8757612e8661312a565b5b02179055507fe1a03807ff7b7d8ac4c42cf3fe3905d10b2b30935d18974726482db3bf232e36858786604051612ebf9392919061466b565b60405180910390a1505050505050565b600a602052805f5260405f205f91509050805f016040518060400160405290815f820154815260200160018201548152505090806002016040518060400160405290815f8201600280602002604051908101604052809291908260028015612f4c576020028201915b815481526020019060010190808311612f38575b5050505050815260200160028201600280602002604051908101604052809291908260028015612f91576020028201915b815481526020019060010190808311612f7d575b50505050508152505090806006016040518060400160405290815f8201548152602001600182015481525050905083565b5f604051905090565b5f80fd5b5f80fd5b5f73ffffffffffffffffffffffffffffffffffffffff82169050919050565b5f612ffc82612fd3565b9050919050565b61300c81612ff2565b8114613016575f80fd5b50565b5f8135905061302781613003565b92915050565b5f6020828403121561304257613041612fcb565b5b5f61304f84828501613019565b91505092915050565b5f819050919050565b61306a81613058565b8114613074575f80fd5b50565b5f8135905061308581613061565b92915050565b5f80604083850312156130a1576130a0612fcb565b5b5f6130ae85828601613077565b92505060206130bf85828601613077565b9150509250929050565b6130d281613058565b82525050565b5f819050919050565b6130ea816130d8565b82525050565b5f7fff0000000000000000000000000000000000000000000000000000000000000082169050919050565b613124816130f0565b82525050565b7f4e487b71000000000000000000000000000000000000000000000000000000005f52602160045260245ffd5b600481106131685761316761312a565b5b50565b5f81905061317882613157565b919050565b5f6131878261316b565b9050919050565b6131978161317d565b82525050565b5f60c0820190506131b05f8301896130c9565b6131bd60208301886130e1565b6131ca60408301876130c9565b6131d7606083018661311b565b6131e460808301856130c9565b6131f160a083018461318e565b979650505050505050565b5f60208201905061320f5f8301846130c9565b92915050565b5f8115159050919050565b61322981613215565b8114613233575f80fd5b50565b5f8135905061324481613220565b92915050565b5f80604083850312156132605761325f612fcb565b5b5f61326d85828601613077565b925050602061327e85828601613236565b9150509250929050565b5f6020828403121561329d5761329c612fcb565b5b5f6132aa84828501613077565b91505092915050565b6132bc81612ff2565b82525050565b5f60e0820190506132d55f83018a6132b3565b6132e260208301896130c9565b6132ef60408301886130c9565b6132fc60608301876130c9565b61330960808301866130c9565b61331660a08301856130e1565b61332360c083018461318e565b98975050505050505050565b61333881613215565b82525050565b5f60c0820190506133515f8301896132b3565b61335e60208301886130c9565b61336b60408301876130c9565b61337860608301866130e1565b613385608083018561332f565b61339260a083018461332f565b979650505050505050565b5f819050919050565b5f6133c06133bb6133b684612fd3565b61339d565b612fd3565b9050919050565b5f6133d1826133a6565b9050919050565b5f6133e2826133c7565b9050919050565b6133f2816133d8565b82525050565b5f60208201905061340b5f8301846133e9565b92915050565b5f6060820190506134245f8301866132b3565b61343160208301856130c9565b61343e60408301846130e1565b949350505050565b61344f816130d8565b8114613459575f80fd5b50565b5f8135905061346a81613446565b92915050565b613479816130f0565b8114613483575f80fd5b50565b5f8135905061349481613470565b92915050565b5f805f80608085870312156134b2576134b1612fcb565b5b5f6134bf8782880161345c565b94505060206134d087828801613077565b93505060406134e187828801613486565b92505060606134f287828801613077565b91505092959194509250565b5f6080820190506135115f8301876130e1565b61351e60208301866130c9565b61352b604083018561311b565b61353860608301846130e1565b95945050505050565b5f80fd5b5f80fd5b5f601f19601f8301169050919050565b7f4e487b71000000000000000000000000000000000000000000000000000000005f52604160045260245ffd5b61358f82613549565b810181811067ffffffffffffffff821117156135ae576135ad613559565b5b80604052505050565b5f6135c0612fc2565b90506135cc8282613586565b919050565b5f67ffffffffffffffff8211156135eb576135ea613559565b5b6135f482613549565b9050602081019050919050565b828183375f83830152505050565b5f61362161361c846135d1565b6135b7565b90508281526020810184848401111561363d5761363c613545565b5b613648848285613601565b509392505050565b5f82601f83011261366457613663613541565b5b813561367484826020860161360f565b91505092915050565b5f806040838503121561369357613692612fcb565b5b5f83013567ffffffffffffffff8111156136b0576136af612fcf565b5b6136bc85828601613650565b92505060206136cd85828601613077565b9150509250929050565b5f805f606084860312156136ee576136ed612fcb565b5b5f6136fb86828701613077565b935050602061370c86828701613077565b925050604061371d86828701613077565b9150509250925092565b5f60208201905061373a5f83018461332f565b92915050565b5f6080820190506137535f83018761318e565b61376060208301866130c9565b61376d60408301856130c9565b61377a60608301846130c9565b95945050505050565b5f805f6060848603121561379a57613799612fcb565b5b5f6137a786828701613077565b93505060206137b886828701613077565b925050604084013567ffffffffffffffff8111156137d9576137d8612fcf565b5b6137e586828701613650565b9150509250925092565b5f6137f9826133c7565b9050919050565b613809816137ef565b82525050565b5f6020820190506138225f830184613800565b92915050565b5f805f6060848603121561383f5761383e612fcb565b5b5f61384c86828701613077565b935050602061385d86828701613077565b925050604061386e86828701613019565b9150509250925092565b61388181613058565b82525050565b604082015f82015161389b5f850182613878565b5060208201516138ae6020850182613878565b50505050565b5f60029050919050565b5f81905092915050565b5f819050919050565b5f6138dc8383613878565b60208301905092915050565b5f602082019050919050565b6138fd816138b4565b61390781846138be565b9250613912826138c8565b805f5b8381101561394257815161392987826138d1565b9650613934836138e8565b925050600181019050613915565b505050505050565b608082015f82015161395e5f8501826138f4565b50602082015161397160408501826138f4565b50505050565b5f6101008201905061398b5f830186613887565b613998604083018561394a565b6139a560c0830184613887565b949350505050565b5f6020820190506139c05f8301846132b3565b92915050565b600681106139d2575f80fd5b50565b5f815190506139e3816139c6565b92915050565b5f815190506139f781613220565b92915050565b5f8060408385031215613a1357613a12612fcb565b5b5f613a20858286016139d5565b9250506020613a31858286016139e9565b9150509250929050565b5f82825260208201905092915050565b7f4f6e6c792074686520426c6f636b636861696e204f7261636c652063616e20725f8201527f756e20746869732066756e6374696f6e00000000000000000000000000000000602082015250565b5f613aa5603083613a3b565b9150613ab082613a4b565b604082019050919050565b5f6020820190508181035f830152613ad281613a99565b9050919050565b5f604082019050613aec5f8301856132b3565b613af960208301846130c9565b9392505050565b7f4f6e6c792074686520496e7370656374696f6e204167656e742063616e2072755f8201527f6e20746869732066756e6374696f6e0000000000000000000000000000000000602082015250565b5f613b5a602f83613a3b565b9150613b6582613b00565b604082019050919050565b5f6020820190508181035f830152613b8781613b4e565b9050919050565b7f496e76616c6964205265706f72742049440000000000000000000000000000005f82015250565b5f613bc2601183613a3b565b9150613bcd82613b8e565b602082019050919050565b5f6020820190508181035f830152613bef81613bb6565b9050919050565b7f54686973207265706f72742068617320616c7265616479206265656e20696e735f8201527f7065637465640000000000000000000000000000000000000000000000000000602082015250565b5f613c50602683613a3b565b9150613c5b82613bf6565b604082019050919050565b5f6020820190508181035f830152613c7d81613c44565b9050919050565b5f606082019050613c975f8301866132b3565b613ca4602083018561332f565b613cb160408301846130c9565b949350505050565b7f4f6e6c7920746865204368696c6420477561726469616e2063616e2072756e205f8201527f746869732066756e6374696f6e00000000000000000000000000000000000000602082015250565b5f613d13602d83613a3b565b9150613d1e82613cb9565b604082019050919050565b5f6020820190508181035f830152613d4081613d07565b9050919050565b7f4f6e6c79207468652061737369676e656420477561726469616e20746f2074685f8201527f6973206368696c642063616e2072756e20746869732066756e6374696f6e0000602082015250565b5f613da1603e83613a3b565b9150613dac82613d47565b604082019050919050565b5f6020820190508181035f830152613dce81613d95565b9050919050565b7f496e76616c6964204368696c64204944000000000000000000000000000000005f82015250565b5f613e09601083613a3b565b9150613e1482613dd5565b602082019050919050565b5f6020820190508181035f830152613e3681613dfd565b9050919050565b7f54686973206368696c64206973206e6f742063757272656e746c7920696e20725f8201527f656d6564696174696f6e00000000000000000000000000000000000000000000602082015250565b5f613e97602a83613a3b565b9150613ea282613e3d565b604082019050919050565b5f6020820190508181035f830152613ec481613e8b565b9050919050565b7f5468652074696d652077696e646f7720666f722072656d6564696174696f6e205f8201527f6973207374696c6c206f70656e00000000000000000000000000000000000000602082015250565b5f613f25602d83613a3b565b9150613f3082613ecb565b604082019050919050565b5f6020820190508181035f830152613f5281613f19565b9050919050565b5f606082019050613f6c5f8301866130c9565b613f7960208301856130c9565b613f8660408301846130c9565b949350505050565b7f496e76616c696420686173686564206e616d65000000000000000000000000005f82015250565b5f613fc2601383613a3b565b9150613fcd82613f8e565b602082019050919050565b5f6020820190508181035f830152613fef81613fb6565b9050919050565b7f496e76616c6964204167650000000000000000000000000000000000000000005f82015250565b5f61402a600b83613a3b565b915061403582613ff6565b602082019050919050565b5f6020820190508181035f8301526140578161401e565b9050919050565b7f496e76616c69642047656e6465720000000000000000000000000000000000005f82015250565b5f614092600e83613a3b565b915061409d8261405e565b602082019050919050565b5f6020820190508181035f8301526140bf81614086565b9050919050565b7f4e487b71000000000000000000000000000000000000000000000000000000005f52601160045260245ffd5b5f6140fd82613058565b91507fffffffffffffffffffffffffffffffffffffffffffffffffffffffffffffffff820361412f5761412e6140c6565b5b600182019050919050565b5f60a08201905061414d5f8301886130c9565b61415a60208301876130e1565b61416760408301866130c9565b614174606083018561311b565b61418160808301846130c9565b9695505050505050565b7f4f6e6c792074686520526567756c61746f727920417574686f7269747920616e5f8201527f64204461746120416e616c797374732063616e2072756e20746869732066756e60208201527f6374696f6e000000000000000000000000000000000000000000000000000000604082015250565b5f61420b604583613a3b565b91506142168261418b565b606082019050919050565b5f6020820190508181035f830152614238816141ff565b9050919050565b7f4f6e6c792074686520726567756c61746f727920617574686f726974792063615f8201527f6e2072756e20746869732066756e6374696f6e00000000000000000000000000602082015250565b5f614299603383613a3b565b91506142a48261423f565b604082019050919050565b5f6020820190508181035f8301526142c68161428d565b9050919050565b5f6060820190506142e05f8301866132b3565b6142ed60208301856132b3565b6142fa60408301846130c9565b949350505050565b7f4f6e6c7920746865204c696169736f6e204f6666696365722063616e2072756e5f8201527f20746869732066756e6374696f6e000000000000000000000000000000000000602082015250565b5f61435c602e83613a3b565b915061436782614302565b604082019050919050565b5f6020820190508181035f83015261438981614350565b9050919050565b5f81519050919050565b5f819050602082019050919050565b5f6143b482516130d8565b80915050919050565b5f82821b905092915050565b5f6143d382614390565b826143dd8461439a565b90506143e8816143a9565b92506020821015614428576144237fffffffffffffffffffffffffffffffffffffffffffffffffffffffffffffffff836020036008026143bd565b831692505b5050919050565b5f61443982613058565b915061444483613058565b925082820190508082111561445c5761445b6140c6565b5b92915050565b7f54686973206368696c64206973206e6f7420726561647920666f722072656d655f8201527f64696174696f6e00000000000000000000000000000000000000000000000000602082015250565b5f6144bc602783613a3b565b91506144c782614462565b604082019050919050565b5f6020820190508181035f8301526144e9816144b0565b9050919050565b5f6144fa82613058565b915061450583613058565b925082820261451381613058565b9150828204841483151761452a576145296140c6565b5b5092915050565b5f6080820190506145445f8301876130c9565b61455160208301866130c9565b61455e60408301856130c9565b61456b60608301846130c9565b95945050505050565b5f6080820190506145875f8301876130c9565b61459460208301866130c9565b6145a160408301856130c9565b6145ae60608301846130e1565b95945050505050565b7f54686973206368696c6420496420646f6573206e6f74206578697374206f72205f8201527f68617320616c7265616479206265656e2061737369676e65642061206775617260208201527f6469616e00000000000000000000000000000000000000000000000000000000604082015250565b5f614637604483613a3b565b9150614642826145b7565b606082019050919050565b5f6020820190508181035f8301526146648161462b565b9050919050565b5f60608201905061467e5f8301866130c9565b61468b60208301856130c9565b61469860408301846132b3565b94935050505056fea26469706673582212205beada54db5936e40b1520ce6084ed884952cb2851b198757570452f4fd1655e64736f6c63430008150033",
					"opcodes": "PUSH1 0x80 PUSH1 0x40 MSTORE CALLVALUE DUP1 ISZERO PUSH3 0x10 JUMPI PUSH0 DUP1 REVERT JUMPDEST POP PUSH1 0x40 MLOAD PUSH3 0x4859 CODESIZE SUB DUP1 PUSH3 0x4859 DUP4 CODECOPY DUP2 DUP2 ADD PUSH1 0x40 MSTORE DUP2 ADD SWAP1 PUSH3 0x36 SWAP2 SWAP1 PUSH3 0x130 JUMP JUMPDEST DUP2 PUSH0 DUP1 PUSH2 0x100 EXP DUP2 SLOAD DUP2 PUSH20 0xFFFFFFFFFFFFFFFFFFFFFFFFFFFFFFFFFFFFFFFF MUL NOT AND SWAP1 DUP4 PUSH20 0xFFFFFFFFFFFFFFFFFFFFFFFFFFFFFFFFFFFFFFFF AND MUL OR SWAP1 SSTORE POP DUP1 PUSH1 0x1 PUSH0 PUSH2 0x100 EXP DUP2 SLOAD DUP2 PUSH20 0xFFFFFFFFFFFFFFFFFFFFFFFFFFFFFFFFFFFFFFFF MUL NOT AND SWAP1 DUP4 PUSH20 0xFFFFFFFFFFFFFFFFFFFFFFFFFFFFFFFFFFFFFFFF AND MUL OR SWAP1 SSTORE POP PUSH0 PUSH1 0x2 DUP2 SWAP1 SSTORE POP PUSH0 PUSH1 0x3 DUP2 SWAP1 SSTORE POP POP POP PUSH3 0x175 JUMP JUMPDEST PUSH0 DUP1 REVERT JUMPDEST PUSH0 PUSH20 0xFFFFFFFFFFFFFFFFFFFFFFFFFFFFFFFFFFFFFFFF DUP3 AND SWAP1 POP SWAP2 SWAP1 POP JUMP JUMPDEST PUSH0 PUSH3 0xFA DUP3 PUSH3 0xCF JUMP JUMPDEST SWAP1 POP SWAP2 SWAP1 POP JUMP JUMPDEST PUSH3 0x10C DUP2 PUSH3 0xEE JUMP JUMPDEST DUP2 EQ PUSH3 0x117 JUMPI PUSH0 DUP1 REVERT JUMPDEST POP JUMP JUMPDEST PUSH0 DUP2 MLOAD SWAP1 POP PUSH3 0x12A DUP2 PUSH3 0x101 JUMP JUMPDEST SWAP3 SWAP2 POP POP JUMP JUMPDEST PUSH0 DUP1 PUSH1 0x40 DUP4 DUP6 SUB SLT ISZERO PUSH3 0x149 JUMPI PUSH3 0x148 PUSH3 0xCB JUMP JUMPDEST JUMPDEST PUSH0 PUSH3 0x158 DUP6 DUP3 DUP7 ADD PUSH3 0x11A JUMP JUMPDEST SWAP3 POP POP PUSH1 0x20 PUSH3 0x16B DUP6 DUP3 DUP7 ADD PUSH3 0x11A JUMP JUMPDEST SWAP2 POP POP SWAP3 POP SWAP3 SWAP1 POP JUMP JUMPDEST PUSH2 0x46D6 DUP1 PUSH3 0x183 PUSH0 CODECOPY PUSH0 RETURN INVALID PUSH1 0x80 PUSH1 0x40 MSTORE CALLVALUE DUP1 ISZERO PUSH2 0xF JUMPI PUSH0 DUP1 REVERT JUMPDEST POP PUSH1 0x4 CALLDATASIZE LT PUSH2 0x156 JUMPI PUSH0 CALLDATALOAD PUSH1 0xE0 SHR DUP1 PUSH4 0x85E68531 GT PUSH2 0xC1 JUMPI DUP1 PUSH4 0xA1DC99B4 GT PUSH2 0x7A JUMPI DUP1 PUSH4 0xA1DC99B4 EQ PUSH2 0x3F9 JUMPI DUP1 PUSH4 0xB05EFAAB EQ PUSH2 0x42C JUMPI DUP1 PUSH4 0xE60E5EE2 EQ PUSH2 0x45C JUMPI DUP1 PUSH4 0xE8A37919 EQ PUSH2 0x478 JUMPI DUP1 PUSH4 0xEFF5CFAE EQ PUSH2 0x496 JUMPI DUP1 PUSH4 0xF8B4D690 EQ PUSH2 0x4B2 JUMPI PUSH2 0x156 JUMP JUMPDEST DUP1 PUSH4 0x85E68531 EQ PUSH2 0x33B JUMPI DUP1 PUSH4 0x8BC3BBC0 EQ PUSH2 0x357 JUMPI DUP1 PUSH4 0x8FE2D950 EQ PUSH2 0x375 JUMPI DUP1 PUSH4 0x97FC007C EQ PUSH2 0x391 JUMPI DUP1 PUSH4 0x992CC022 EQ PUSH2 0x3AD JUMPI DUP1 PUSH4 0xA0619D4A EQ PUSH2 0x3C9 JUMPI PUSH2 0x156 JUMP JUMPDEST DUP1 PUSH4 0x53CA8115 GT PUSH2 0x113 JUMPI DUP1 PUSH4 0x53CA8115 EQ PUSH2 0x250 JUMPI DUP1 PUSH4 0x636D0262 EQ PUSH2 0x26E JUMPI DUP1 PUSH4 0x6388BAFC EQ PUSH2 0x2A0 JUMPI DUP1 PUSH4 0x739F48A6 EQ PUSH2 0x2D0 JUMPI DUP1 PUSH4 0x832DE71E EQ PUSH2 0x2EC JUMPI DUP1 PUSH4 0x84E2395D EQ PUSH2 0x308 JUMPI PUSH2 0x156 JUMP JUMPDEST DUP1 PUSH4 0xAE5E739 EQ PUSH2 0x15A JUMPI DUP1 PUSH4 0x12F1A83A EQ PUSH2 0x176 JUMPI DUP1 PUSH4 0x185C6F84 EQ PUSH2 0x1AB JUMPI DUP1 PUSH4 0x28C10330 EQ PUSH2 0x1C9 JUMPI DUP1 PUSH4 0x2B76EA9C EQ PUSH2 0x1E5 JUMPI DUP1 PUSH4 0x3835A119 EQ PUSH2 0x21B JUMPI JUMPDEST PUSH0 DUP1 REVERT JUMPDEST PUSH2 0x174 PUSH1 0x4 DUP1 CALLDATASIZE SUB DUP2 ADD SWAP1 PUSH2 0x16F SWAP2 SWAP1 PUSH2 0x302D JUMP JUMPDEST PUSH2 0x4E4 JUMP JUMPDEST STOP JUMPDEST PUSH2 0x190 PUSH1 0x4 DUP1 CALLDATASIZE SUB DUP2 ADD SWAP1 PUSH2 0x18B SWAP2 SWAP1 PUSH2 0x308B JUMP JUMPDEST PUSH2 0x683 JUMP JUMPDEST PUSH1 0x40 MLOAD PUSH2 0x1A2 SWAP7 SWAP6 SWAP5 SWAP4 SWAP3 SWAP2 SWAP1 PUSH2 0x319D JUMP JUMPDEST PUSH1 0x40 MLOAD DUP1 SWAP2 SUB SWAP1 RETURN JUMPDEST PUSH2 0x1B3 PUSH2 0x6DE JUMP JUMPDEST PUSH1 0x40 MLOAD PUSH2 0x1C0 SWAP2 SWAP1 PUSH2 0x31FC JUMP JUMPDEST PUSH1 0x40 MLOAD DUP1 SWAP2 SUB SWAP1 RETURN JUMPDEST PUSH2 0x1E3 PUSH1 0x4 DUP1 CALLDATASIZE SUB DUP2 ADD SWAP1 PUSH2 0x1DE SWAP2 SWAP1 PUSH2 0x324A JUMP JUMPDEST PUSH2 0x6E4 JUMP JUMPDEST STOP JUMPDEST PUSH2 0x1FF PUSH1 0x4 DUP1 CALLDATASIZE SUB DUP2 ADD SWAP1 PUSH2 0x1FA SWAP2 SWAP1 PUSH2 0x3288 JUMP JUMPDEST PUSH2 0x93E JUMP JUMPDEST PUSH1 0x40 MLOAD PUSH2 0x212 SWAP8 SWAP7 SWAP6 SWAP5 SWAP4 SWAP3 SWAP2 SWAP1 PUSH2 0x32C2 JUMP JUMPDEST PUSH1 0x40 MLOAD DUP1 SWAP2 SUB SWAP1 RETURN JUMPDEST PUSH2 0x235 PUSH1 0x4 DUP1 CALLDATASIZE SUB DUP2 ADD SWAP1 PUSH2 0x230 SWAP2 SWAP1 PUSH2 0x3288 JUMP JUMPDEST PUSH2 0x9A7 JUMP JUMPDEST PUSH1 0x40 MLOAD PUSH2 0x247 SWAP7 SWAP6 SWAP5 SWAP4 SWAP3 SWAP2 SWAP1 PUSH2 0x333E JUMP JUMPDEST PUSH1 0x40 MLOAD DUP1 SWAP2 SUB SWAP1 RETURN JUMPDEST PUSH2 0x258 PUSH2 0xA17 JUMP JUMPDEST PUSH1 0x40 MLOAD PUSH2 0x265 SWAP2 SWAP1 PUSH2 0x33F8 JUMP JUMPDEST PUSH1 0x40 MLOAD DUP1 SWAP2 SUB SWAP1 RETURN JUMPDEST PUSH2 0x288 PUSH1 0x4 DUP1 CALLDATASIZE SUB DUP2 ADD SWAP1 PUSH2 0x283 SWAP2 SWAP1 PUSH2 0x3288 JUMP JUMPDEST PUSH2 0xA3C JUMP JUMPDEST PUSH1 0x40 MLOAD PUSH2 0x297 SWAP4 SWAP3 SWAP2 SWAP1 PUSH2 0x3411 JUMP JUMPDEST PUSH1 0x40 MLOAD DUP1 SWAP2 SUB SWAP1 RETURN JUMPDEST PUSH2 0x2BA PUSH1 0x4 DUP1 CALLDATASIZE SUB DUP2 ADD SWAP1 PUSH2 0x2B5 SWAP2 SWAP1 PUSH2 0x3288 JUMP JUMPDEST PUSH2 0xC83 JUMP JUMPDEST PUSH1 0x40 MLOAD PUSH2 0x2C7 SWAP2 SWAP1 PUSH2 0x31FC JUMP JUMPDEST PUSH1 0x40 MLOAD DUP1 SWAP2 SUB SWAP1 RETURN JUMPDEST PUSH2 0x2EA PUSH1 0x4 DUP1 CALLDATASIZE SUB DUP2 ADD SWAP1 PUSH2 0x2E5 SWAP2 SWAP1 PUSH2 0x308B JUMP JUMPDEST PUSH2 0xC98 JUMP JUMPDEST STOP JUMPDEST PUSH2 0x306 PUSH1 0x4 DUP1 CALLDATASIZE SUB DUP2 ADD SWAP1 PUSH2 0x301 SWAP2 SWAP1 PUSH2 0x349A JUMP JUMPDEST PUSH2 0x10D0 JUMP JUMPDEST STOP JUMPDEST PUSH2 0x322 PUSH1 0x4 DUP1 CALLDATASIZE SUB DUP2 ADD SWAP1 PUSH2 0x31D SWAP2 SWAP1 PUSH2 0x308B JUMP JUMPDEST PUSH2 0x1545 JUMP JUMPDEST PUSH1 0x40 MLOAD PUSH2 0x332 SWAP5 SWAP4 SWAP3 SWAP2 SWAP1 PUSH2 0x34FE JUMP JUMPDEST PUSH1 0x40 MLOAD DUP1 SWAP2 SUB SWAP1 RETURN JUMPDEST PUSH2 0x355 PUSH1 0x4 DUP1 CALLDATASIZE SUB DUP2 ADD SWAP1 PUSH2 0x350 SWAP2 SWAP1 PUSH2 0x302D JUMP JUMPDEST PUSH2 0x1918 JUMP JUMPDEST STOP JUMPDEST PUSH2 0x35F PUSH2 0x1AB8 JUMP JUMPDEST PUSH1 0x40 MLOAD PUSH2 0x36C SWAP2 SWAP1 PUSH2 0x31FC JUMP JUMPDEST PUSH1 0x40 MLOAD DUP1 SWAP2 SUB SWAP1 RETURN JUMPDEST PUSH2 0x38F PUSH1 0x4 DUP1 CALLDATASIZE SUB DUP2 ADD SWAP1 PUSH2 0x38A SWAP2 SWAP1 PUSH2 0x367D JUMP JUMPDEST PUSH2 0x1ABE JUMP JUMPDEST STOP JUMPDEST PUSH2 0x3AB PUSH1 0x4 DUP1 CALLDATASIZE SUB DUP2 ADD SWAP1 PUSH2 0x3A6 SWAP2 SWAP1 PUSH2 0x302D JUMP JUMPDEST PUSH2 0x1D4E JUMP JUMPDEST STOP JUMPDEST PUSH2 0x3C7 PUSH1 0x4 DUP1 CALLDATASIZE SUB DUP2 ADD SWAP1 PUSH2 0x3C2 SWAP2 SWAP1 PUSH2 0x36D7 JUMP JUMPDEST PUSH2 0x1EDA JUMP JUMPDEST STOP JUMPDEST PUSH2 0x3E3 PUSH1 0x4 DUP1 CALLDATASIZE SUB DUP2 ADD SWAP1 PUSH2 0x3DE SWAP2 SWAP1 PUSH2 0x302D JUMP JUMPDEST PUSH2 0x2380 JUMP JUMPDEST PUSH1 0x40 MLOAD PUSH2 0x3F0 SWAP2 SWAP1 PUSH2 0x3727 JUMP JUMPDEST PUSH1 0x40 MLOAD DUP1 SWAP2 SUB SWAP1 RETURN JUMPDEST PUSH2 0x413 PUSH1 0x4 DUP1 CALLDATASIZE SUB DUP2 ADD SWAP1 PUSH2 0x40E SWAP2 SWAP1 PUSH2 0x308B JUMP JUMPDEST PUSH2 0x239D JUMP JUMPDEST PUSH1 0x40 MLOAD PUSH2 0x423 SWAP5 SWAP4 SWAP3 SWAP2 SWAP1 PUSH2 0x3740 JUMP JUMPDEST PUSH1 0x40 MLOAD DUP1 SWAP2 SUB SWAP1 RETURN JUMPDEST PUSH2 0x446 PUSH1 0x4 DUP1 CALLDATASIZE SUB DUP2 ADD SWAP1 PUSH2 0x441 SWAP2 SWAP1 PUSH2 0x3288 JUMP JUMPDEST PUSH2 0x2667 JUMP JUMPDEST PUSH1 0x40 MLOAD PUSH2 0x453 SWAP2 SWAP1 PUSH2 0x31FC JUMP JUMPDEST PUSH1 0x40 MLOAD DUP1 SWAP2 SUB SWAP1 RETURN JUMPDEST PUSH2 0x476 PUSH1 0x4 DUP1 CALLDATASIZE SUB DUP2 ADD SWAP1 PUSH2 0x471 SWAP2 SWAP1 PUSH2 0x3783 JUMP JUMPDEST PUSH2 0x267C JUMP JUMPDEST STOP JUMPDEST PUSH2 0x480 PUSH2 0x2AB1 JUMP JUMPDEST PUSH1 0x40 MLOAD PUSH2 0x48D SWAP2 SWAP1 PUSH2 0x380F JUMP JUMPDEST PUSH1 0x40 MLOAD DUP1 SWAP2 SUB SWAP1 RETURN JUMPDEST PUSH2 0x4B0 PUSH1 0x4 DUP1 CALLDATASIZE SUB DUP2 ADD SWAP1 PUSH2 0x4AB SWAP2 SWAP1 PUSH2 0x3828 JUMP JUMPDEST PUSH2 0x2AD4 JUMP JUMPDEST STOP JUMPDEST PUSH2 0x4CC PUSH1 0x4 DUP1 CALLDATASIZE SUB DUP2 ADD SWAP1 PUSH2 0x4C7 SWAP2 SWAP1 PUSH2 0x3288 JUMP JUMPDEST PUSH2 0x2ECF JUMP JUMPDEST PUSH1 0x40 MLOAD PUSH2 0x4DB SWAP4 SWAP3 SWAP2 SWAP1 PUSH2 0x3977 JUMP JUMPDEST PUSH1 0x40 MLOAD DUP1 SWAP2 SUB SWAP1 RETURN JUMPDEST PUSH0 DUP1 PUSH0 DUP1 SLOAD SWAP1 PUSH2 0x100 EXP SWAP1 DIV PUSH20 0xFFFFFFFFFFFFFFFFFFFFFFFFFFFFFFFFFFFFFFFF AND PUSH20 0xFFFFFFFFFFFFFFFFFFFFFFFFFFFFFFFFFFFFFFFF AND PUSH4 0x75894E8C CALLER PUSH1 0x40 MLOAD DUP3 PUSH4 0xFFFFFFFF AND PUSH1 0xE0 SHL DUP2 MSTORE PUSH1 0x4 ADD PUSH2 0x53E SWAP2 SWAP1 PUSH2 0x39AD JUMP JUMPDEST PUSH1 0x40 DUP1 MLOAD DUP1 DUP4 SUB DUP2 PUSH0 DUP8 GAS CALL ISZERO DUP1 ISZERO PUSH2 0x559 JUMPI RETURNDATASIZE PUSH0 DUP1 RETURNDATACOPY RETURNDATASIZE PUSH0 REVERT JUMPDEST POP POP POP POP PUSH1 0x40 MLOAD RETURNDATASIZE PUSH1 0x1F NOT PUSH1 0x1F DUP3 ADD AND DUP3 ADD DUP1 PUSH1 0x40 MSTORE POP DUP2 ADD SWAP1 PUSH2 0x57D SWAP2 SWAP1 PUSH2 0x39FD JUMP JUMPDEST SWAP2 POP SWAP2 POP PUSH1 0x5 DUP1 DUP2 GT ISZERO PUSH2 0x594 JUMPI PUSH2 0x593 PUSH2 0x312A JUMP JUMPDEST JUMPDEST DUP3 PUSH1 0x5 DUP2 GT ISZERO PUSH2 0x5A7 JUMPI PUSH2 0x5A6 PUSH2 0x312A JUMP JUMPDEST JUMPDEST EQ DUP1 ISZERO PUSH2 0x5B1 JUMPI POP DUP1 JUMPDEST PUSH2 0x5F0 JUMPI PUSH1 0x40 MLOAD PUSH32 0x8C379A000000000000000000000000000000000000000000000000000000000 DUP2 MSTORE PUSH1 0x4 ADD PUSH2 0x5E7 SWAP1 PUSH2 0x3ABB JUMP JUMPDEST PUSH1 0x40 MLOAD DUP1 SWAP2 SUB SWAP1 REVERT JUMPDEST PUSH1 0x1 PUSH1 0x9 PUSH0 DUP6 PUSH20 0xFFFFFFFFFFFFFFFFFFFFFFFFFFFFFFFFFFFFFFFF AND PUSH20 0xFFFFFFFFFFFFFFFFFFFFFFFFFFFFFFFFFFFFFFFF AND DUP2 MSTORE PUSH1 0x20 ADD SWAP1 DUP2 MSTORE PUSH1 0x20 ADD PUSH0 KECCAK256 PUSH0 PUSH2 0x100 EXP DUP2 SLOAD DUP2 PUSH1 0xFF MUL NOT AND SWAP1 DUP4 ISZERO ISZERO MUL OR SWAP1 SSTORE POP PUSH32 0x6EA640312E182DE387819FBEB13BE00DB3171A445412852248559054871C4199 DUP4 TIMESTAMP PUSH1 0x40 MLOAD PUSH2 0x676 SWAP3 SWAP2 SWAP1 PUSH2 0x3AD9 JUMP JUMPDEST PUSH1 0x40 MLOAD DUP1 SWAP2 SUB SWAP1 LOG1 POP POP POP JUMP JUMPDEST PUSH1 0x6 PUSH1 0x20 MSTORE DUP2 PUSH0 MSTORE PUSH1 0x40 PUSH0 KECCAK256 PUSH1 0x20 MSTORE DUP1 PUSH0 MSTORE PUSH1 0x40 PUSH0 KECCAK256 PUSH0 SWAP2 POP SWAP2 POP POP DUP1 PUSH0 ADD SLOAD SWAP1 DUP1 PUSH1 0x1 ADD SLOAD SWAP1 DUP1 PUSH1 0x2 ADD SLOAD SWAP1 DUP1 PUSH1 0x3 ADD PUSH0 SWAP1 SLOAD SWAP1 PUSH2 0x100 EXP SWAP1 DIV PUSH1 0xF8 SHL SWAP1 DUP1 PUSH1 0x4 ADD SLOAD SWAP1 DUP1 PUSH1 0x5 ADD PUSH0 SWAP1 SLOAD SWAP1 PUSH2 0x100 EXP SWAP1 DIV PUSH1 0xFF AND SWAP1 POP DUP7 JUMP JUMPDEST PUSH1 0x2 SLOAD DUP2 JUMP JUMPDEST PUSH0 DUP1 PUSH0 DUP1 SLOAD SWAP1 PUSH2 0x100 EXP SWAP1 DIV PUSH20 0xFFFFFFFFFFFFFFFFFFFFFFFFFFFFFFFFFFFFFFFF AND PUSH20 0xFFFFFFFFFFFFFFFFFFFFFFFFFFFFFFFFFFFFFFFF AND PUSH4 0x75894E8C CALLER PUSH1 0x40 MLOAD DUP3 PUSH4 0xFFFFFFFF AND PUSH1 0xE0 SHL DUP2 MSTORE PUSH1 0x4 ADD PUSH2 0x73E SWAP2 SWAP1 PUSH2 0x39AD JUMP JUMPDEST PUSH1 0x40 DUP1 MLOAD DUP1 DUP4 SUB DUP2 PUSH0 DUP8 GAS CALL ISZERO DUP1 ISZERO PUSH2 0x759 JUMPI RETURNDATASIZE PUSH0 DUP1 RETURNDATACOPY RETURNDATASIZE PUSH0 REVERT JUMPDEST POP POP POP POP PUSH1 0x40 MLOAD RETURNDATASIZE PUSH1 0x1F NOT PUSH1 0x1F DUP3 ADD AND DUP3 ADD DUP1 PUSH1 0x40 MSTORE POP DUP2 ADD SWAP1 PUSH2 0x77D SWAP2 SWAP1 PUSH2 0x39FD JUMP JUMPDEST SWAP2 POP SWAP2 POP PUSH1 0x2 PUSH1 0x5 DUP2 GT ISZERO PUSH2 0x795 JUMPI PUSH2 0x794 PUSH2 0x312A JUMP JUMPDEST JUMPDEST DUP3 PUSH1 0x5 DUP2 GT ISZERO PUSH2 0x7A8 JUMPI PUSH2 0x7A7 PUSH2 0x312A JUMP JUMPDEST JUMPDEST EQ DUP1 ISZERO PUSH2 0x7B2 JUMPI POP DUP1 JUMPDEST PUSH2 0x7F1 JUMPI PUSH1 0x40 MLOAD PUSH32 0x8C379A000000000000000000000000000000000000000000000000000000000 DUP2 MSTORE PUSH1 0x4 ADD PUSH2 0x7E8 SWAP1 PUSH2 0x3B70 JUMP JUMPDEST PUSH1 0x40 MLOAD DUP1 SWAP2 SUB SWAP1 REVERT JUMPDEST PUSH1 0x1 DUP5 LT ISZERO DUP1 ISZERO PUSH2 0x804 JUMPI POP PUSH1 0x2 SLOAD DUP5 GT ISZERO JUMPDEST PUSH2 0x843 JUMPI PUSH1 0x40 MLOAD PUSH32 0x8C379A000000000000000000000000000000000000000000000000000000000 DUP2 MSTORE PUSH1 0x4 ADD PUSH2 0x83A SWAP1 PUSH2 0x3BD8 JUMP JUMPDEST PUSH1 0x40 MLOAD DUP1 SWAP2 SUB SWAP1 REVERT JUMPDEST PUSH1 0x4 PUSH0 DUP6 DUP2 MSTORE PUSH1 0x20 ADD SWAP1 DUP2 MSTORE PUSH1 0x20 ADD PUSH0 KECCAK256 PUSH1 0x4 ADD PUSH0 SWAP1 SLOAD SWAP1 PUSH2 0x100 EXP SWAP1 DIV PUSH1 0xFF AND ISZERO PUSH2 0x8A4 JUMPI PUSH1 0x40 MLOAD PUSH32 0x8C379A000000000000000000000000000000000000000000000000000000000 DUP2 MSTORE PUSH1 0x4 ADD PUSH2 0x89B SWAP1 PUSH2 0x3C66 JUMP JUMPDEST PUSH1 0x40 MLOAD DUP1 SWAP2 SUB SWAP1 REVERT JUMPDEST PUSH1 0x1 PUSH1 0x4 PUSH0 DUP7 DUP2 MSTORE PUSH1 0x20 ADD SWAP1 DUP2 MSTORE PUSH1 0x20 ADD PUSH0 KECCAK256 PUSH1 0x4 ADD PUSH0 PUSH2 0x100 EXP DUP2 SLOAD DUP2 PUSH1 0xFF MUL NOT AND SWAP1 DUP4 ISZERO ISZERO MUL OR SWAP1 SSTORE POP DUP3 PUSH1 0x4 PUSH0 DUP7 DUP2 MSTORE PUSH1 0x20 ADD SWAP1 DUP2 MSTORE PUSH1 0x20 ADD PUSH0 KECCAK256 PUSH1 0x4 ADD PUSH1 0x1 PUSH2 0x100 EXP DUP2 SLOAD DUP2 PUSH1 0xFF MUL NOT AND SWAP1 DUP4 ISZERO ISZERO MUL OR SWAP1 SSTORE POP DUP4 PUSH32 0x5E672278B5A4CE7F1DEAEB816F60398E65C2401C6F90928E8344510D7FA92755 CALLER DUP6 TIMESTAMP PUSH1 0x40 MLOAD PUSH2 0x930 SWAP4 SWAP3 SWAP2 SWAP1 PUSH2 0x3C84 JUMP JUMPDEST PUSH1 0x40 MLOAD DUP1 SWAP2 SUB SWAP1 LOG2 POP POP POP POP JUMP JUMPDEST PUSH1 0x8 PUSH1 0x20 MSTORE DUP1 PUSH0 MSTORE PUSH1 0x40 PUSH0 KECCAK256 PUSH0 SWAP2 POP SWAP1 POP DUP1 PUSH0 ADD PUSH0 SWAP1 SLOAD SWAP1 PUSH2 0x100 EXP SWAP1 DIV PUSH20 0xFFFFFFFFFFFFFFFFFFFFFFFFFFFFFFFFFFFFFFFF AND SWAP1 DUP1 PUSH1 0x1 ADD SLOAD SWAP1 DUP1 PUSH1 0x2 ADD SLOAD SWAP1 DUP1 PUSH1 0x3 ADD SLOAD SWAP1 DUP1 PUSH1 0x4 ADD SLOAD SWAP1 DUP1 PUSH1 0x5 ADD SLOAD SWAP1 DUP1 PUSH1 0x6 ADD PUSH0 SWAP1 SLOAD SWAP1 PUSH2 0x100 EXP SWAP1 DIV PUSH1 0xFF AND SWAP1 POP DUP8 JUMP JUMPDEST PUSH1 0x4 PUSH1 0x20 MSTORE DUP1 PUSH0 MSTORE PUSH1 0x40 PUSH0 KECCAK256 PUSH0 SWAP2 POP SWAP1 POP DUP1 PUSH0 ADD PUSH0 SWAP1 SLOAD SWAP1 PUSH2 0x100 EXP SWAP1 DIV PUSH20 0xFFFFFFFFFFFFFFFFFFFFFFFFFFFFFFFFFFFFFFFF AND SWAP1 DUP1 PUSH1 0x1 ADD SLOAD SWAP1 DUP1 PUSH1 0x2 ADD SLOAD SWAP1 DUP1 PUSH1 0x3 ADD SLOAD SWAP1 DUP1 PUSH1 0x4 ADD PUSH0 SWAP1 SLOAD SWAP1 PUSH2 0x100 EXP SWAP1 DIV PUSH1 0xFF AND SWAP1 DUP1 PUSH1 0x4 ADD PUSH1 0x1 SWAP1 SLOAD SWAP1 PUSH2 0x100 EXP SWAP1 DIV PUSH1 0xFF AND SWAP1 POP DUP7 JUMP JUMPDEST PUSH1 0x1 PUSH0 SWAP1 SLOAD SWAP1 PUSH2 0x100 EXP SWAP1 DIV PUSH20 0xFFFFFFFFFFFFFFFFFFFFFFFFFFFFFFFFFFFFFFFF AND DUP2 JUMP JUMPDEST PUSH0 DUP1 PUSH0 DUP1 PUSH0 DUP1 PUSH0 SWAP1 SLOAD SWAP1 PUSH2 0x100 EXP SWAP1 DIV PUSH20 0xFFFFFFFFFFFFFFFFFFFFFFFFFFFFFFFFFFFFFFFF AND PUSH20 0xFFFFFFFFFFFFFFFFFFFFFFFFFFFFFFFFFFFFFFFF AND PUSH4 0x75894E8C CALLER PUSH1 0x40 MLOAD DUP3 PUSH4 0xFFFFFFFF AND PUSH1 0xE0 SHL DUP2 MSTORE PUSH1 0x4 ADD PUSH2 0xA9A SWAP2 SWAP1 PUSH2 0x39AD JUMP JUMPDEST PUSH1 0x40 DUP1 MLOAD DUP1 DUP4 SUB DUP2 PUSH0 DUP8 GAS CALL ISZERO DUP1 ISZERO PUSH2 0xAB5 JUMPI RETURNDATASIZE PUSH0 DUP1 RETURNDATACOPY RETURNDATASIZE PUSH0 REVERT JUMPDEST POP POP POP POP PUSH1 0x40 MLOAD RETURNDATASIZE PUSH1 0x1F NOT PUSH1 0x1F DUP3 ADD AND DUP3 ADD DUP1 PUSH1 0x40 MSTORE POP DUP2 ADD SWAP1 PUSH2 0xAD9 SWAP2 SWAP1 PUSH2 0x39FD JUMP JUMPDEST SWAP2 POP SWAP2 POP PUSH1 0x2 PUSH1 0x5 DUP2 GT ISZERO PUSH2 0xAF1 JUMPI PUSH2 0xAF0 PUSH2 0x312A JUMP JUMPDEST JUMPDEST DUP3 PUSH1 0x5 DUP2 GT ISZERO PUSH2 0xB04 JUMPI PUSH2 0xB03 PUSH2 0x312A JUMP JUMPDEST JUMPDEST EQ DUP1 ISZERO PUSH2 0xB0E JUMPI POP DUP1 JUMPDEST PUSH2 0xB4D JUMPI PUSH1 0x40 MLOAD PUSH32 0x8C379A000000000000000000000000000000000000000000000000000000000 DUP2 MSTORE PUSH1 0x4 ADD PUSH2 0xB44 SWAP1 PUSH2 0x3B70 JUMP JUMPDEST PUSH1 0x40 MLOAD DUP1 SWAP2 SUB SWAP1 REVERT JUMPDEST PUSH1 0x1 DUP7 LT ISZERO DUP1 ISZERO PUSH2 0xB60 JUMPI POP PUSH1 0x2 SLOAD DUP7 GT ISZERO JUMPDEST PUSH2 0xB9F JUMPI PUSH1 0x40 MLOAD PUSH32 0x8C379A000000000000000000000000000000000000000000000000000000000 DUP2 MSTORE PUSH1 0x4 ADD PUSH2 0xB96 SWAP1 PUSH2 0x3BD8 JUMP JUMPDEST PUSH1 0x40 MLOAD DUP1 SWAP2 SUB SWAP1 REVERT JUMPDEST PUSH0 PUSH1 0x4 PUSH0 DUP9 DUP2 MSTORE PUSH1 0x20 ADD SWAP1 DUP2 MSTORE PUSH1 0x20 ADD PUSH0 KECCAK256 PUSH1 0x40 MLOAD DUP1 PUSH1 0xC0 ADD PUSH1 0x40 MSTORE SWAP1 DUP2 PUSH0 DUP3 ADD PUSH0 SWAP1 SLOAD SWAP1 PUSH2 0x100 EXP SWAP1 DIV PUSH20 0xFFFFFFFFFFFFFFFFFFFFFFFFFFFFFFFFFFFFFFFF AND PUSH20 0xFFFFFFFFFFFFFFFFFFFFFFFFFFFFFFFFFFFFFFFF AND PUSH20 0xFFFFFFFFFFFFFFFFFFFFFFFFFFFFFFFFFFFFFFFF AND DUP2 MSTORE PUSH1 0x20 ADD PUSH1 0x1 DUP3 ADD SLOAD DUP2 MSTORE PUSH1 0x20 ADD PUSH1 0x2 DUP3 ADD SLOAD DUP2 MSTORE PUSH1 0x20 ADD PUSH1 0x3 DUP3 ADD SLOAD DUP2 MSTORE PUSH1 0x20 ADD PUSH1 0x4 DUP3 ADD PUSH0 SWAP1 SLOAD SWAP1 PUSH2 0x100 EXP SWAP1 DIV PUSH1 0xFF AND ISZERO ISZERO ISZERO ISZERO DUP2 MSTORE PUSH1 0x20 ADD PUSH1 0x4 DUP3 ADD PUSH1 0x1 SWAP1 SLOAD SWAP1 PUSH2 0x100 EXP SWAP1 DIV PUSH1 0xFF AND ISZERO ISZERO ISZERO ISZERO DUP2 MSTORE POP POP SWAP1 POP DUP1 PUSH0 ADD MLOAD DUP2 PUSH1 0x20 ADD MLOAD DUP3 PUSH1 0x60 ADD MLOAD SWAP6 POP SWAP6 POP SWAP6 POP POP POP POP SWAP2 SWAP4 SWAP1 SWAP3 POP JUMP JUMPDEST PUSH1 0x7 PUSH1 0x20 MSTORE DUP1 PUSH0 MSTORE PUSH1 0x40 PUSH0 KECCAK256 PUSH0 SWAP2 POP SWAP1 POP SLOAD DUP2 JUMP JUMPDEST DUP1 PUSH0 DUP1 PUSH0 DUP1 SLOAD SWAP1 PUSH2 0x100 EXP SWAP1 DIV PUSH20 0xFFFFFFFFFFFFFFFFFFFFFFFFFFFFFFFFFFFFFFFF AND PUSH20 0xFFFFFFFFFFFFFFFFFFFFFFFFFFFFFFFFFFFFFFFF AND PUSH4 0x75894E8C CALLER PUSH1 0x40 MLOAD DUP3 PUSH4 0xFFFFFFFF AND PUSH1 0xE0 SHL DUP2 MSTORE PUSH1 0x4 ADD PUSH2 0xCF3 SWAP2 SWAP1 PUSH2 0x39AD JUMP JUMPDEST PUSH1 0x40 DUP1 MLOAD DUP1 DUP4 SUB DUP2 PUSH0 DUP8 GAS CALL ISZERO DUP1 ISZERO PUSH2 0xD0E JUMPI RETURNDATASIZE PUSH0 DUP1 RETURNDATACOPY RETURNDATASIZE PUSH0 REVERT JUMPDEST POP POP POP POP PUSH1 0x40 MLOAD RETURNDATASIZE PUSH1 0x1F NOT PUSH1 0x1F DUP3 ADD AND DUP3 ADD DUP1 PUSH1 0x40 MSTORE POP DUP2 ADD SWAP1 PUSH2 0xD32 SWAP2 SWAP1 PUSH2 0x39FD JUMP JUMPDEST SWAP2 POP SWAP2 POP PUSH1 0x4 PUSH1 0x5 DUP2 GT ISZERO PUSH2 0xD4A JUMPI PUSH2 0xD49 PUSH2 0x312A JUMP JUMPDEST JUMPDEST DUP3 PUSH1 0x5 DUP2 GT ISZERO PUSH2 0xD5D JUMPI PUSH2 0xD5C PUSH2 0x312A JUMP JUMPDEST JUMPDEST EQ DUP1 ISZERO PUSH2 0xD67 JUMPI POP DUP1 JUMPDEST PUSH2 0xDA6 JUMPI PUSH1 0x40 MLOAD PUSH32 0x8C379A000000000000000000000000000000000000000000000000000000000 DUP2 MSTORE PUSH1 0x4 ADD PUSH2 0xD9D SWAP1 PUSH2 0x3D29 JUMP JUMPDEST PUSH1 0x40 MLOAD DUP1 SWAP2 SUB SWAP1 REVERT JUMPDEST CALLER PUSH20 0xFFFFFFFFFFFFFFFFFFFFFFFFFFFFFFFFFFFFFFFF AND PUSH1 0x8 PUSH0 DUP6 DUP2 MSTORE PUSH1 0x20 ADD SWAP1 DUP2 MSTORE PUSH1 0x20 ADD PUSH0 KECCAK256 PUSH0 ADD PUSH0 SWAP1 SLOAD SWAP1 PUSH2 0x100 EXP SWAP1 DIV PUSH20 0xFFFFFFFFFFFFFFFFFFFFFFFFFFFFFFFFFFFFFFFF AND PUSH20 0xFFFFFFFFFFFFFFFFFFFFFFFFFFFFFFFFFFFFFFFF AND EQ PUSH2 0xE46 JUMPI PUSH1 0x40 MLOAD PUSH32 0x8C379A000000000000000000000000000000000000000000000000000000000 DUP2 MSTORE PUSH1 0x4 ADD PUSH2 0xE3D SWAP1 PUSH2 0x3DB7 JUMP JUMPDEST PUSH1 0x40 MLOAD DUP1 SWAP2 SUB SWAP1 REVERT JUMPDEST PUSH0 PUSH1 0x8 PUSH0 DUP7 DUP2 MSTORE PUSH1 0x20 ADD SWAP1 DUP2 MSTORE PUSH1 0x20 ADD PUSH0 KECCAK256 PUSH1 0x40 MLOAD DUP1 PUSH1 0xE0 ADD PUSH1 0x40 MSTORE SWAP1 DUP2 PUSH0 DUP3 ADD PUSH0 SWAP1 SLOAD SWAP1 PUSH2 0x100 EXP SWAP1 DIV PUSH20 0xFFFFFFFFFFFFFFFFFFFFFFFFFFFFFFFFFFFFFFFF AND PUSH20 0xFFFFFFFFFFFFFFFFFFFFFFFFFFFFFFFFFFFFFFFF AND PUSH20 0xFFFFFFFFFFFFFFFFFFFFFFFFFFFFFFFFFFFFFFFF AND DUP2 MSTORE PUSH1 0x20 ADD PUSH1 0x1 DUP3 ADD SLOAD DUP2 MSTORE PUSH1 0x20 ADD PUSH1 0x2 DUP3 ADD SLOAD DUP2 MSTORE PUSH1 0x20 ADD PUSH1 0x3 DUP3 ADD SLOAD DUP2 MSTORE PUSH1 0x20 ADD PUSH1 0x4 DUP3 ADD SLOAD DUP2 MSTORE PUSH1 0x20 ADD PUSH1 0x5 DUP3 ADD SLOAD DUP2 MSTORE PUSH1 0x20 ADD PUSH1 0x6 DUP3 ADD PUSH0 SWAP1 SLOAD SWAP1 PUSH2 0x100 EXP SWAP1 DIV PUSH1 0xFF AND PUSH1 0x3 DUP2 GT ISZERO PUSH2 0xF0D JUMPI PUSH2 0xF0C PUSH2 0x312A JUMP JUMPDEST JUMPDEST PUSH1 0x3 DUP2 GT ISZERO PUSH2 0xF1F JUMPI PUSH2 0xF1E PUSH2 0x312A JUMP JUMPDEST JUMPDEST DUP2 MSTORE POP POP SWAP1 POP PUSH1 0x1 DUP6 LT ISZERO DUP1 ISZERO PUSH2 0xF47 JUMPI POP PUSH1 0x7 PUSH0 DUP8 DUP2 MSTORE PUSH1 0x20 ADD SWAP1 DUP2 MSTORE PUSH1 0x20 ADD PUSH0 KECCAK256 SLOAD DUP6 GT ISZERO JUMPDEST PUSH2 0xF86 JUMPI PUSH1 0x40 MLOAD PUSH32 0x8C379A000000000000000000000000000000000000000000000000000000000 DUP2 MSTORE PUSH1 0x4 ADD PUSH2 0xF7D SWAP1 PUSH2 0x3E1F JUMP JUMPDEST PUSH1 0x40 MLOAD DUP1 SWAP2 SUB SWAP1 REVERT JUMPDEST PUSH1 0x2 PUSH1 0x3 DUP2 GT ISZERO PUSH2 0xF9A JUMPI PUSH2 0xF99 PUSH2 0x312A JUMP JUMPDEST JUMPDEST DUP2 PUSH1 0xC0 ADD MLOAD PUSH1 0x3 DUP2 GT ISZERO PUSH2 0xFB1 JUMPI PUSH2 0xFB0 PUSH2 0x312A JUMP JUMPDEST JUMPDEST EQ PUSH2 0xFF1 JUMPI PUSH1 0x40 MLOAD PUSH32 0x8C379A000000000000000000000000000000000000000000000000000000000 DUP2 MSTORE PUSH1 0x4 ADD PUSH2 0xFE8 SWAP1 PUSH2 0x3EAD JUMP JUMPDEST PUSH1 0x40 MLOAD DUP1 SWAP2 SUB SWAP1 REVERT JUMPDEST DUP1 PUSH1 0x60 ADD MLOAD TIMESTAMP LT ISZERO PUSH2 0x1038 JUMPI PUSH1 0x40 MLOAD PUSH32 0x8C379A000000000000000000000000000000000000000000000000000000000 DUP2 MSTORE PUSH1 0x4 ADD PUSH2 0x102F SWAP1 PUSH2 0x3F3B JUMP JUMPDEST PUSH1 0x40 MLOAD DUP1 SWAP2 SUB SWAP1 REVERT JUMPDEST PUSH1 0x3 PUSH1 0x8 PUSH0 DUP8 DUP2 MSTORE PUSH1 0x20 ADD SWAP1 DUP2 MSTORE PUSH1 0x20 ADD PUSH0 KECCAK256 PUSH1 0x6 ADD PUSH0 PUSH2 0x100 EXP DUP2 SLOAD DUP2 PUSH1 0xFF MUL NOT AND SWAP1 DUP4 PUSH1 0x3 DUP2 GT ISZERO PUSH2 0x106F JUMPI PUSH2 0x106E PUSH2 0x312A JUMP JUMPDEST JUMPDEST MUL OR SWAP1 SSTORE POP TIMESTAMP PUSH1 0x8 PUSH0 DUP8 DUP2 MSTORE PUSH1 0x20 ADD SWAP1 DUP2 MSTORE PUSH1 0x20 ADD PUSH0 KECCAK256 PUSH1 0x4 ADD DUP2 SWAP1 SSTORE POP PUSH32 0xF0759B1C58F2EB04B7275484184A141F88FEDEB54C9A6A48B4E7D9D332EDB1A7 DUP7 DUP7 TIMESTAMP PUSH1 0x40 MLOAD PUSH2 0x10C0 SWAP4 SWAP3 SWAP2 SWAP1 PUSH2 0x3F59 JUMP JUMPDEST PUSH1 0x40 MLOAD DUP1 SWAP2 SUB SWAP1 LOG1 POP POP POP POP POP POP JUMP JUMPDEST PUSH0 DUP1 PUSH0 DUP1 SLOAD SWAP1 PUSH2 0x100 EXP SWAP1 DIV PUSH20 0xFFFFFFFFFFFFFFFFFFFFFFFFFFFFFFFFFFFFFFFF AND PUSH20 0xFFFFFFFFFFFFFFFFFFFFFFFFFFFFFFFFFFFFFFFF AND PUSH4 0x75894E8C CALLER PUSH1 0x40 MLOAD DUP3 PUSH4 0xFFFFFFFF AND PUSH1 0xE0 SHL DUP2 MSTORE PUSH1 0x4 ADD PUSH2 0x112A SWAP2 SWAP1 PUSH2 0x39AD JUMP JUMPDEST PUSH1 0x40 DUP1 MLOAD DUP1 DUP4 SUB DUP2 PUSH0 DUP8 GAS CALL ISZERO DUP1 ISZERO PUSH2 0x1145 JUMPI RETURNDATASIZE PUSH0 DUP1 RETURNDATACOPY RETURNDATASIZE PUSH0 REVERT JUMPDEST POP POP POP POP PUSH1 0x40 MLOAD RETURNDATASIZE PUSH1 0x1F NOT PUSH1 0x1F DUP3 ADD AND DUP3 ADD DUP1 PUSH1 0x40 MSTORE POP DUP2 ADD SWAP1 PUSH2 0x1169 SWAP2 SWAP1 PUSH2 0x39FD JUMP JUMPDEST SWAP2 POP SWAP2 POP PUSH1 0x2 PUSH1 0x5 DUP2 GT ISZERO PUSH2 0x1181 JUMPI PUSH2 0x1180 PUSH2 0x312A JUMP JUMPDEST JUMPDEST DUP3 PUSH1 0x5 DUP2 GT ISZERO PUSH2 0x1194 JUMPI PUSH2 0x1193 PUSH2 0x312A JUMP JUMPDEST JUMPDEST EQ DUP1 ISZERO PUSH2 0x119E JUMPI POP DUP1 JUMPDEST PUSH2 0x11DD JUMPI PUSH1 0x40 MLOAD PUSH32 0x8C379A000000000000000000000000000000000000000000000000000000000 DUP2 MSTORE PUSH1 0x4 ADD PUSH2 0x11D4 SWAP1 PUSH2 0x3B70 JUMP JUMPDEST PUSH1 0x40 MLOAD DUP1 SWAP2 SUB SWAP1 REVERT JUMPDEST PUSH0 DUP1 SHL DUP7 SUB PUSH2 0x1221 JUMPI PUSH1 0x40 MLOAD PUSH32 0x8C379A000000000000000000000000000000000000000000000000000000000 DUP2 MSTORE PUSH1 0x4 ADD PUSH2 0x1218 SWAP1 PUSH2 0x3FD8 JUMP JUMPDEST PUSH1 0x40 MLOAD DUP1 SWAP2 SUB SWAP1 REVERT JUMPDEST PUSH0 DUP6 GT PUSH2 0x1263 JUMPI PUSH1 0x40 MLOAD PUSH32 0x8C379A000000000000000000000000000000000000000000000000000000000 DUP2 MSTORE PUSH1 0x4 ADD PUSH2 0x125A SWAP1 PUSH2 0x4040 JUMP JUMPDEST PUSH1 0x40 MLOAD DUP1 SWAP2 SUB SWAP1 REVERT JUMPDEST PUSH32 0x4D00000000000000000000000000000000000000000000000000000000000000 DUP5 PUSH31 0xFFFFFFFFFFFFFFFFFFFFFFFFFFFFFFFFFFFFFFFFFFFFFFFFFFFFFFFFFFFFFF NOT AND EQ DUP1 PUSH2 0x12F4 JUMPI POP PUSH32 0x4600000000000000000000000000000000000000000000000000000000000000 DUP5 PUSH31 0xFFFFFFFFFFFFFFFFFFFFFFFFFFFFFFFFFFFFFFFFFFFFFFFFFFFFFFFFFFFFFF NOT AND EQ JUMPDEST PUSH2 0x1333 JUMPI PUSH1 0x40 MLOAD PUSH32 0x8C379A000000000000000000000000000000000000000000000000000000000 DUP2 MSTORE PUSH1 0x4 ADD PUSH2 0x132A SWAP1 PUSH2 0x40A8 JUMP JUMPDEST PUSH1 0x40 MLOAD DUP1 SWAP2 SUB SWAP1 REVERT JUMPDEST PUSH1 0x1 DUP4 LT ISZERO DUP1 ISZERO PUSH2 0x1346 JUMPI POP PUSH1 0x2 SLOAD DUP4 GT ISZERO JUMPDEST PUSH2 0x1385 JUMPI PUSH1 0x40 MLOAD PUSH32 0x8C379A000000000000000000000000000000000000000000000000000000000 DUP2 MSTORE PUSH1 0x4 ADD PUSH2 0x137C SWAP1 PUSH2 0x3BD8 JUMP JUMPDEST PUSH1 0x40 MLOAD DUP1 SWAP2 SUB SWAP1 REVERT JUMPDEST PUSH1 0x7 PUSH0 DUP5 DUP2 MSTORE PUSH1 0x20 ADD SWAP1 DUP2 MSTORE PUSH1 0x20 ADD PUSH0 KECCAK256 PUSH0 DUP2 SLOAD DUP1 SWAP3 SWAP2 SWAP1 PUSH2 0x13A6 SWAP1 PUSH2 0x40F3 JUMP JUMPDEST SWAP2 SWAP1 POP SSTORE POP PUSH1 0x40 MLOAD DUP1 PUSH1 0xC0 ADD PUSH1 0x40 MSTORE DUP1 PUSH1 0x7 PUSH0 DUP7 DUP2 MSTORE PUSH1 0x20 ADD SWAP1 DUP2 MSTORE PUSH1 0x20 ADD PUSH0 KECCAK256 SLOAD DUP2 MSTORE PUSH1 0x20 ADD DUP8 DUP2 MSTORE PUSH1 0x20 ADD DUP7 DUP2 MSTORE PUSH1 0x20 ADD DUP6 PUSH31 0xFFFFFFFFFFFFFFFFFFFFFFFFFFFFFFFFFFFFFFFFFFFFFFFFFFFFFFFFFFFFFF NOT AND DUP2 MSTORE PUSH1 0x20 ADD DUP5 DUP2 MSTORE PUSH1 0x20 ADD PUSH0 PUSH1 0x3 DUP2 GT ISZERO PUSH2 0x141A JUMPI PUSH2 0x1419 PUSH2 0x312A JUMP JUMPDEST JUMPDEST DUP2 MSTORE POP PUSH1 0x6 PUSH0 DUP6 DUP2 MSTORE PUSH1 0x20 ADD SWAP1 DUP2 MSTORE PUSH1 0x20 ADD PUSH0 KECCAK256 PUSH0 PUSH1 0x7 PUSH0 DUP8 DUP2 MSTORE PUSH1 0x20 ADD SWAP1 DUP2 MSTORE PUSH1 0x20 ADD PUSH0 KECCAK256 SLOAD DUP2 MSTORE PUSH1 0x20 ADD SWAP1 DUP2 MSTORE PUSH1 0x20 ADD PUSH0 KECCAK256 PUSH0 DUP3 ADD MLOAD DUP2 PUSH0 ADD SSTORE PUSH1 0x20 DUP3 ADD MLOAD DUP2 PUSH1 0x1 ADD SSTORE PUSH1 0x40 DUP3 ADD MLOAD DUP2 PUSH1 0x2 ADD SSTORE PUSH1 0x60 DUP3 ADD MLOAD DUP2 PUSH1 0x3 ADD PUSH0 PUSH2 0x100 EXP DUP2 SLOAD DUP2 PUSH1 0xFF MUL NOT AND SWAP1 DUP4 PUSH1 0xF8 SHR MUL OR SWAP1 SSTORE POP PUSH1 0x80 DUP3 ADD MLOAD DUP2 PUSH1 0x4 ADD SSTORE PUSH1 0xA0 DUP3 ADD MLOAD DUP2 PUSH1 0x5 ADD PUSH0 PUSH2 0x100 EXP DUP2 SLOAD DUP2 PUSH1 0xFF MUL NOT AND SWAP1 DUP4 PUSH1 0x3 DUP2 GT ISZERO PUSH2 0x14BE JUMPI PUSH2 0x14BD PUSH2 0x312A JUMP JUMPDEST JUMPDEST MUL OR SWAP1 SSTORE POP SWAP1 POP POP DUP3 PUSH1 0x5 PUSH0 PUSH1 0x7 PUSH0 DUP8 DUP2 MSTORE PUSH1 0x20 ADD SWAP1 DUP2 MSTORE PUSH1 0x20 ADD PUSH0 KECCAK256 SLOAD DUP2 MSTORE PUSH1 0x20 ADD SWAP1 DUP2 MSTORE PUSH1 0x20 ADD PUSH0 KECCAK256 DUP2 SWAP1 SSTORE POP PUSH32 0x8F6937EDCD05CE1C1912E225EC700CB996D92333E3B1631CE16E703FC6B8E77A PUSH1 0x7 PUSH0 DUP6 DUP2 MSTORE PUSH1 0x20 ADD SWAP1 DUP2 MSTORE PUSH1 0x20 ADD PUSH0 KECCAK256 SLOAD DUP8 DUP8 DUP8 DUP8 PUSH1 0x40 MLOAD PUSH2 0x1535 SWAP6 SWAP5 SWAP4 SWAP3 SWAP2 SWAP1 PUSH2 0x413A JUMP JUMPDEST PUSH1 0x40 MLOAD DUP1 SWAP2 SUB SWAP1 LOG1 POP POP POP POP POP POP JUMP JUMPDEST PUSH0 DUP1 PUSH0 DUP1 PUSH0 DUP1 PUSH0 DUP1 SLOAD SWAP1 PUSH2 0x100 EXP SWAP1 DIV PUSH20 0xFFFFFFFFFFFFFFFFFFFFFFFFFFFFFFFFFFFFFFFF AND PUSH20 0xFFFFFFFFFFFFFFFFFFFFFFFFFFFFFFFFFFFFFFFF AND PUSH4 0x75894E8C CALLER PUSH1 0x40 MLOAD DUP3 PUSH4 0xFFFFFFFF AND PUSH1 0xE0 SHL DUP2 MSTORE PUSH1 0x4 ADD PUSH2 0x15A3 SWAP2 SWAP1 PUSH2 0x39AD JUMP JUMPDEST PUSH1 0x40 DUP1 MLOAD DUP1 DUP4 SUB DUP2 PUSH0 DUP8 GAS CALL ISZERO DUP1 ISZERO PUSH2 0x15BE JUMPI RETURNDATASIZE PUSH0 DUP1 RETURNDATACOPY RETURNDATASIZE PUSH0 REVERT JUMPDEST POP POP POP POP PUSH1 0x40 MLOAD RETURNDATASIZE PUSH1 0x1F NOT PUSH1 0x1F DUP3 ADD AND DUP3 ADD DUP1 PUSH1 0x40 MSTORE POP DUP2 ADD SWAP1 PUSH2 0x15E2 SWAP2 SWAP1 PUSH2 0x39FD JUMP JUMPDEST SWAP2 POP SWAP2 POP PUSH1 0x3 PUSH1 0x5 DUP2 GT ISZERO PUSH2 0x15FA JUMPI PUSH2 0x15F9 PUSH2 0x312A JUMP JUMPDEST JUMPDEST DUP3 PUSH1 0x5 DUP2 GT ISZERO PUSH2 0x160D JUMPI PUSH2 0x160C PUSH2 0x312A JUMP JUMPDEST JUMPDEST EQ DUP1 ISZERO PUSH2 0x1617 JUMPI POP DUP1 JUMPDEST DUP1 PUSH2 0x164E JUMPI POP PUSH0 PUSH1 0x5 DUP2 GT ISZERO PUSH2 0x1630 JUMPI PUSH2 0x162F PUSH2 0x312A JUMP JUMPDEST JUMPDEST DUP3 PUSH1 0x5 DUP2 GT ISZERO PUSH2 0x1643 JUMPI PUSH2 0x1642 PUSH2 0x312A JUMP JUMPDEST JUMPDEST EQ DUP1 ISZERO PUSH2 0x164D JUMPI POP DUP1 JUMPDEST JUMPDEST PUSH2 0x168D JUMPI PUSH1 0x40 MLOAD PUSH32 0x8C379A000000000000000000000000000000000000000000000000000000000 DUP2 MSTORE PUSH1 0x4 ADD PUSH2 0x1684 SWAP1 PUSH2 0x4221 JUMP JUMPDEST PUSH1 0x40 MLOAD DUP1 SWAP2 SUB SWAP1 REVERT JUMPDEST PUSH1 0x1 DUP9 LT ISZERO DUP1 ISZERO PUSH2 0x16A0 JUMPI POP PUSH1 0x2 SLOAD DUP9 GT ISZERO JUMPDEST PUSH2 0x16DF JUMPI PUSH1 0x40 MLOAD PUSH32 0x8C379A000000000000000000000000000000000000000000000000000000000 DUP2 MSTORE PUSH1 0x4 ADD PUSH2 0x16D6 SWAP1 PUSH2 0x3BD8 JUMP JUMPDEST PUSH1 0x40 MLOAD DUP1 SWAP2 SUB SWAP1 REVERT JUMPDEST PUSH1 0x1 DUP8 LT ISZERO DUP1 ISZERO PUSH2 0x1701 JUMPI POP PUSH1 0x7 PUSH0 DUP10 DUP2 MSTORE PUSH1 0x20 ADD SWAP1 DUP2 MSTORE PUSH1 0x20 ADD PUSH0 KECCAK256 SLOAD DUP8 GT ISZERO JUMPDEST PUSH2 0x1740 JUMPI PUSH1 0x40 MLOAD PUSH32 0x8C379A000000000000000000000000000000000000000000000000000000000 DUP2 MSTORE PUSH1 0x4 ADD PUSH2 0x1737 SWAP1 PUSH2 0x3E1F JUMP JUMPDEST PUSH1 0x40 MLOAD DUP1 SWAP2 SUB SWAP1 REVERT JUMPDEST PUSH0 PUSH1 0x6 PUSH0 DUP11 DUP2 MSTORE PUSH1 0x20 ADD SWAP1 DUP2 MSTORE PUSH1 0x20 ADD PUSH0 KECCAK256 PUSH0 DUP10 DUP2 MSTORE PUSH1 0x20 ADD SWAP1 DUP2 MSTORE PUSH1 0x20 ADD PUSH0 KECCAK256 PUSH1 0x40 MLOAD DUP1 PUSH1 0xC0 ADD PUSH1 0x40 MSTORE SWAP1 DUP2 PUSH0 DUP3 ADD SLOAD DUP2 MSTORE PUSH1 0x20 ADD PUSH1 0x1 DUP3 ADD SLOAD DUP2 MSTORE PUSH1 0x20 ADD PUSH1 0x2 DUP3 ADD SLOAD DUP2 MSTORE PUSH1 0x20 ADD PUSH1 0x3 DUP3 ADD PUSH0 SWAP1 SLOAD SWAP1 PUSH2 0x100 EXP SWAP1 DIV PUSH1 0xF8 SHL PUSH31 0xFFFFFFFFFFFFFFFFFFFFFFFFFFFFFFFFFFFFFFFFFFFFFFFFFFFFFFFFFFFFFF NOT AND PUSH31 0xFFFFFFFFFFFFFFFFFFFFFFFFFFFFFFFFFFFFFFFFFFFFFFFFFFFFFFFFFFFFFF NOT AND DUP2 MSTORE PUSH1 0x20 ADD PUSH1 0x4 DUP3 ADD SLOAD DUP2 MSTORE PUSH1 0x20 ADD PUSH1 0x5 DUP3 ADD PUSH0 SWAP1 SLOAD SWAP1 PUSH2 0x100 EXP SWAP1 DIV PUSH1 0xFF AND PUSH1 0x3 DUP2 GT ISZERO PUSH2 0x1811 JUMPI PUSH2 0x1810 PUSH2 0x312A JUMP JUMPDEST JUMPDEST PUSH1 0x3 DUP2 GT ISZERO PUSH2 0x1823 JUMPI PUSH2 0x1822 PUSH2 0x312A JUMP JUMPDEST JUMPDEST DUP2 MSTORE POP POP SWAP1 POP PUSH0 PUSH1 0x4 PUSH0 DUP12 DUP2 MSTORE PUSH1 0x20 ADD SWAP1 DUP2 MSTORE PUSH1 0x20 ADD PUSH0 KECCAK256 PUSH1 0x40 MLOAD DUP1 PUSH1 0xC0 ADD PUSH1 0x40 MSTORE SWAP1 DUP2 PUSH0 DUP3 ADD PUSH0 SWAP1 SLOAD SWAP1 PUSH2 0x100 EXP SWAP1 DIV PUSH20 0xFFFFFFFFFFFFFFFFFFFFFFFFFFFFFFFFFFFFFFFF AND PUSH20 0xFFFFFFFFFFFFFFFFFFFFFFFFFFFFFFFFFFFFFFFF AND PUSH20 0xFFFFFFFFFFFFFFFFFFFFFFFFFFFFFFFFFFFFFFFF AND DUP2 MSTORE PUSH1 0x20 ADD PUSH1 0x1 DUP3 ADD SLOAD DUP2 MSTORE PUSH1 0x20 ADD PUSH1 0x2 DUP3 ADD SLOAD DUP2 MSTORE PUSH1 0x20 ADD PUSH1 0x3 DUP3 ADD SLOAD DUP2 MSTORE PUSH1 0x20 ADD PUSH1 0x4 DUP3 ADD PUSH0 SWAP1 SLOAD SWAP1 PUSH2 0x100 EXP SWAP1 DIV PUSH1 0xFF AND ISZERO ISZERO ISZERO ISZERO DUP2 MSTORE PUSH1 0x20 ADD PUSH1 0x4 DUP3 ADD PUSH1 0x1 SWAP1 SLOAD SWAP1 PUSH2 0x100 EXP SWAP1 DIV PUSH1 0xFF AND ISZERO ISZERO ISZERO ISZERO DUP2 MSTORE POP POP SWAP1 POP DUP2 PUSH1 0x20 ADD MLOAD DUP3 PUSH1 0x40 ADD MLOAD DUP4 PUSH1 0x60 ADD MLOAD DUP4 PUSH1 0x60 ADD MLOAD SWAP8 POP SWAP8 POP SWAP8 POP SWAP8 POP POP POP POP POP SWAP3 SWAP6 SWAP2 SWAP5 POP SWAP3 POP JUMP JUMPDEST PUSH0 DUP1 PUSH0 DUP1 SLOAD SWAP1 PUSH2 0x100 EXP SWAP1 DIV PUSH20 0xFFFFFFFFFFFFFFFFFFFFFFFFFFFFFFFFFFFFFFFF AND PUSH20 0xFFFFFFFFFFFFFFFFFFFFFFFFFFFFFFFFFFFFFFFF AND PUSH4 0x75894E8C CALLER PUSH1 0x40 MLOAD DUP3 PUSH4 0xFFFFFFFF AND PUSH1 0xE0 SHL DUP2 MSTORE PUSH1 0x4 ADD PUSH2 0x1972 SWAP2 SWAP1 PUSH2 0x39AD JUMP JUMPDEST PUSH1 0x40 DUP1 MLOAD DUP1 DUP4 SUB DUP2 PUSH0 DUP8 GAS CALL ISZERO DUP1 ISZERO PUSH2 0x198D JUMPI RETURNDATASIZE PUSH0 DUP1 RETURNDATACOPY RETURNDATASIZE PUSH0 REVERT JUMPDEST POP POP POP POP PUSH1 0x40 MLOAD RETURNDATASIZE PUSH1 0x1F NOT PUSH1 0x1F DUP3 ADD AND DUP3 ADD DUP1 PUSH1 0x40 MSTORE POP DUP2 ADD SWAP1 PUSH2 0x19B1 SWAP2 SWAP1 PUSH2 0x39FD JUMP JUMPDEST SWAP2 POP SWAP2 POP PUSH0 PUSH1 0x5 DUP2 GT ISZERO PUSH2 0x19C8 JUMPI PUSH2 0x19C7 PUSH2 0x312A JUMP JUMPDEST JUMPDEST DUP3 PUSH1 0x5 DUP2 GT ISZERO PUSH2 0x19DB JUMPI PUSH2 0x19DA PUSH2 0x312A JUMP JUMPDEST JUMPDEST EQ DUP1 ISZERO PUSH2 0x19E5 JUMPI POP DUP1 JUMPDEST PUSH2 0x1A24 JUMPI PUSH1 0x40 MLOAD PUSH32 0x8C379A000000000000000000000000000000000000000000000000000000000 DUP2 MSTORE PUSH1 0x4 ADD PUSH2 0x1A1B SWAP1 PUSH2 0x42AF JUMP JUMPDEST PUSH1 0x40 MLOAD DUP1 SWAP2 SUB SWAP1 REVERT JUMPDEST PUSH0 PUSH1 0x9 PUSH0 DUP6 PUSH20 0xFFFFFFFFFFFFFFFFFFFFFFFFFFFFFFFFFFFFFFFF AND PUSH20 0xFFFFFFFFFFFFFFFFFFFFFFFFFFFFFFFFFFFFFFFF AND DUP2 MSTORE PUSH1 0x20 ADD SWAP1 DUP2 MSTORE PUSH1 0x20 ADD PUSH0 KECCAK256 PUSH0 PUSH2 0x100 EXP DUP2 SLOAD DUP2 PUSH1 0xFF MUL NOT AND SWAP1 DUP4 ISZERO ISZERO MUL OR SWAP1 SSTORE POP PUSH32 0x6F6A404FFD2CEA4713256A4FD9CE99C8CF8CF32D85C2BB8061D1603FF57D50C3 CALLER DUP5 TIMESTAMP PUSH1 0x40 MLOAD PUSH2 0x1AAB SWAP4 SWAP3 SWAP2 SWAP1 PUSH2 0x42CD JUMP JUMPDEST PUSH1 0x40 MLOAD DUP1 SWAP2 SUB SWAP1 LOG1 POP POP POP JUMP JUMPDEST PUSH1 0x3 SLOAD DUP2 JUMP JUMPDEST PUSH0 DUP1 PUSH0 DUP1 SLOAD SWAP1 PUSH2 0x100 EXP SWAP1 DIV PUSH20 0xFFFFFFFFFFFFFFFFFFFFFFFFFFFFFFFFFFFFFFFF AND PUSH20 0xFFFFFFFFFFFFFFFFFFFFFFFFFFFFFFFFFFFFFFFF AND PUSH4 0x75894E8C CALLER PUSH1 0x40 MLOAD DUP3 PUSH4 0xFFFFFFFF AND PUSH1 0xE0 SHL DUP2 MSTORE PUSH1 0x4 ADD PUSH2 0x1B18 SWAP2 SWAP1 PUSH2 0x39AD JUMP JUMPDEST PUSH1 0x40 DUP1 MLOAD DUP1 DUP4 SUB DUP2 PUSH0 DUP8 GAS CALL ISZERO DUP1 ISZERO PUSH2 0x1B33 JUMPI RETURNDATASIZE PUSH0 DUP1 RETURNDATACOPY RETURNDATASIZE PUSH0 REVERT JUMPDEST POP POP POP POP PUSH1 0x40 MLOAD RETURNDATASIZE PUSH1 0x1F NOT PUSH1 0x1F DUP3 ADD AND DUP3 ADD DUP1 PUSH1 0x40 MSTORE POP DUP2 ADD SWAP1 PUSH2 0x1B57 SWAP2 SWAP1 PUSH2 0x39FD JUMP JUMPDEST SWAP2 POP SWAP2 POP PUSH1 0x1 PUSH1 0x5 DUP2 GT ISZERO PUSH2 0x1B6F JUMPI PUSH2 0x1B6E PUSH2 0x312A JUMP JUMPDEST JUMPDEST DUP3 PUSH1 0x5 DUP2 GT ISZERO PUSH2 0x1B82 JUMPI PUSH2 0x1B81 PUSH2 0x312A JUMP JUMPDEST JUMPDEST EQ DUP1 ISZERO PUSH2 0x1B8C JUMPI POP DUP1 JUMPDEST PUSH2 0x1BCB JUMPI PUSH1 0x40 MLOAD PUSH32 0x8C379A000000000000000000000000000000000000000000000000000000000 DUP2 MSTORE PUSH1 0x4 ADD PUSH2 0x1BC2 SWAP1 PUSH2 0x4372 JUMP JUMPDEST PUSH1 0x40 MLOAD DUP1 SWAP2 SUB SWAP1 REVERT JUMPDEST PUSH1 0x2 PUSH0 DUP2 SLOAD DUP1 SWAP3 SWAP2 SWAP1 PUSH2 0x1BDD SWAP1 PUSH2 0x40F3 JUMP JUMPDEST SWAP2 SWAP1 POP SSTORE POP PUSH1 0x40 MLOAD DUP1 PUSH1 0xC0 ADD PUSH1 0x40 MSTORE DUP1 CALLER PUSH20 0xFFFFFFFFFFFFFFFFFFFFFFFFFFFFFFFFFFFFFFFF AND DUP2 MSTORE PUSH1 0x20 ADD TIMESTAMP DUP2 MSTORE PUSH1 0x20 ADD DUP5 DUP2 MSTORE PUSH1 0x20 ADD DUP6 PUSH2 0x1C1F SWAP1 PUSH2 0x43C9 JUMP JUMPDEST DUP2 MSTORE PUSH1 0x20 ADD PUSH0 ISZERO ISZERO DUP2 MSTORE PUSH1 0x20 ADD PUSH0 ISZERO ISZERO DUP2 MSTORE POP PUSH1 0x4 PUSH0 PUSH1 0x2 SLOAD DUP2 MSTORE PUSH1 0x20 ADD SWAP1 DUP2 MSTORE PUSH1 0x20 ADD PUSH0 KECCAK256 PUSH0 DUP3 ADD MLOAD DUP2 PUSH0 ADD PUSH0 PUSH2 0x100 EXP DUP2 SLOAD DUP2 PUSH20 0xFFFFFFFFFFFFFFFFFFFFFFFFFFFFFFFFFFFFFFFF MUL NOT AND SWAP1 DUP4 PUSH20 0xFFFFFFFFFFFFFFFFFFFFFFFFFFFFFFFFFFFFFFFF AND MUL OR SWAP1 SSTORE POP PUSH1 0x20 DUP3 ADD MLOAD DUP2 PUSH1 0x1 ADD SSTORE PUSH1 0x40 DUP3 ADD MLOAD DUP2 PUSH1 0x2 ADD SSTORE PUSH1 0x60 DUP3 ADD MLOAD DUP2 PUSH1 0x3 ADD SSTORE PUSH1 0x80 DUP3 ADD MLOAD DUP2 PUSH1 0x4 ADD PUSH0 PUSH2 0x100 EXP DUP2 SLOAD DUP2 PUSH1 0xFF MUL NOT AND SWAP1 DUP4 ISZERO ISZERO MUL OR SWAP1 SSTORE POP PUSH1 0xA0 DUP3 ADD MLOAD DUP2 PUSH1 0x4 ADD PUSH1 0x1 PUSH2 0x100 EXP DUP2 SLOAD DUP2 PUSH1 0xFF MUL NOT AND SWAP1 DUP4 ISZERO ISZERO MUL OR SWAP1 SSTORE POP SWAP1 POP POP DUP3 PUSH1 0x3 PUSH0 DUP3 DUP3 SLOAD PUSH2 0x1CFA SWAP2 SWAP1 PUSH2 0x442F JUMP JUMPDEST SWAP3 POP POP DUP2 SWAP1 SSTORE POP PUSH1 0x2 SLOAD PUSH32 0x681F3195132986285E497B66D82A1D87DEE04FE482A1E74020677B543E3F7C40 CALLER TIMESTAMP DUP8 PUSH2 0x1D31 SWAP1 PUSH2 0x43C9 JUMP JUMPDEST PUSH1 0x40 MLOAD PUSH2 0x1D40 SWAP4 SWAP3 SWAP2 SWAP1 PUSH2 0x3411 JUMP JUMPDEST PUSH1 0x40 MLOAD DUP1 SWAP2 SUB SWAP1 LOG2 POP POP POP POP JUMP JUMPDEST PUSH0 DUP1 PUSH0 DUP1 SLOAD SWAP1 PUSH2 0x100 EXP SWAP1 DIV PUSH20 0xFFFFFFFFFFFFFFFFFFFFFFFFFFFFFFFFFFFFFFFF AND PUSH20 0xFFFFFFFFFFFFFFFFFFFFFFFFFFFFFFFFFFFFFFFF AND PUSH4 0x75894E8C CALLER PUSH1 0x40 MLOAD DUP3 PUSH4 0xFFFFFFFF AND PUSH1 0xE0 SHL DUP2 MSTORE PUSH1 0x4 ADD PUSH2 0x1DA8 SWAP2 SWAP1 PUSH2 0x39AD JUMP JUMPDEST PUSH1 0x40 DUP1 MLOAD DUP1 DUP4 SUB DUP2 PUSH0 DUP8 GAS CALL ISZERO DUP1 ISZERO PUSH2 0x1DC3 JUMPI RETURNDATASIZE PUSH0 DUP1 RETURNDATACOPY RETURNDATASIZE PUSH0 REVERT JUMPDEST POP POP POP POP PUSH1 0x40 MLOAD RETURNDATASIZE PUSH1 0x1F NOT PUSH1 0x1F DUP3 ADD AND DUP3 ADD DUP1 PUSH1 0x40 MSTORE POP DUP2 ADD SWAP1 PUSH2 0x1DE7 SWAP2 SWAP1 PUSH2 0x39FD JUMP JUMPDEST SWAP2 POP SWAP2 POP PUSH0 PUSH1 0x5 DUP2 GT ISZERO PUSH2 0x1DFE JUMPI PUSH2 0x1DFD PUSH2 0x312A JUMP JUMPDEST JUMPDEST DUP3 PUSH1 0x5 DUP2 GT ISZERO PUSH2 0x1E11 JUMPI PUSH2 0x1E10 PUSH2 0x312A JUMP JUMPDEST JUMPDEST EQ DUP1 ISZERO PUSH2 0x1E1B JUMPI POP DUP1 JUMPDEST PUSH2 0x1E5A JUMPI PUSH1 0x40 MLOAD PUSH32 0x8C379A000000000000000000000000000000000000000000000000000000000 DUP2 MSTORE PUSH1 0x4 ADD PUSH2 0x1E51 SWAP1 PUSH2 0x42AF JUMP JUMPDEST PUSH1 0x40 MLOAD DUP1 SWAP2 SUB SWAP1 REVERT JUMPDEST DUP3 PUSH1 0x1 PUSH0 PUSH2 0x100 EXP DUP2 SLOAD DUP2 PUSH20 0xFFFFFFFFFFFFFFFFFFFFFFFFFFFFFFFFFFFFFFFF MUL NOT AND SWAP1 DUP4 PUSH20 0xFFFFFFFFFFFFFFFFFFFFFFFFFFFFFFFFFFFFFFFF AND MUL OR SWAP1 SSTORE POP PUSH32 0xD64AE07F3DDEA489022B7C3651C0B93CC96296695FEAC84461061DFA1F34C0CB CALLER DUP5 TIMESTAMP PUSH1 0x40 MLOAD PUSH2 0x1ECD SWAP4 SWAP3 SWAP2 SWAP1 PUSH2 0x42CD JUMP JUMPDEST PUSH1 0x40 MLOAD DUP1 SWAP2 SUB SWAP1 LOG1 POP POP POP JUMP JUMPDEST DUP2 PUSH0 DUP1 PUSH0 DUP1 SLOAD SWAP1 PUSH2 0x100 EXP SWAP1 DIV PUSH20 0xFFFFFFFFFFFFFFFFFFFFFFFFFFFFFFFFFFFFFFFF AND PUSH20 0xFFFFFFFFFFFFFFFFFFFFFFFFFFFFFFFFFFFFFFFF AND PUSH4 0x75894E8C CALLER PUSH1 0x40 MLOAD DUP3 PUSH4 0xFFFFFFFF AND PUSH1 0xE0 SHL DUP2 MSTORE PUSH1 0x4 ADD PUSH2 0x1F35 SWAP2 SWAP1 PUSH2 0x39AD JUMP JUMPDEST PUSH1 0x40 DUP1 MLOAD DUP1 DUP4 SUB DUP2 PUSH0 DUP8 GAS CALL ISZERO DUP1 ISZERO PUSH2 0x1F50 JUMPI RETURNDATASIZE PUSH0 DUP1 RETURNDATACOPY RETURNDATASIZE PUSH0 REVERT JUMPDEST POP POP POP POP PUSH1 0x40 MLOAD RETURNDATASIZE PUSH1 0x1F NOT PUSH1 0x1F DUP3 ADD AND DUP3 ADD DUP1 PUSH1 0x40 MSTORE POP DUP2 ADD SWAP1 PUSH2 0x1F74 SWAP2 SWAP1 PUSH2 0x39FD JUMP JUMPDEST SWAP2 POP SWAP2 POP PUSH1 0x4 PUSH1 0x5 DUP2 GT ISZERO PUSH2 0x1F8C JUMPI PUSH2 0x1F8B PUSH2 0x312A JUMP JUMPDEST JUMPDEST DUP3 PUSH1 0x5 DUP2 GT ISZERO PUSH2 0x1F9F JUMPI PUSH2 0x1F9E PUSH2 0x312A JUMP JUMPDEST JUMPDEST EQ DUP1 ISZERO PUSH2 0x1FA9 JUMPI POP DUP1 JUMPDEST PUSH2 0x1FE8 JUMPI PUSH1 0x40 MLOAD PUSH32 0x8C379A000000000000000000000000000000000000000000000000000000000 DUP2 MSTORE PUSH1 0x4 ADD PUSH2 0x1FDF SWAP1 PUSH2 0x3D29 JUMP JUMPDEST PUSH1 0x40 MLOAD DUP1 SWAP2 SUB SWAP1 REVERT JUMPDEST CALLER PUSH20 0xFFFFFFFFFFFFFFFFFFFFFFFFFFFFFFFFFFFFFFFF AND PUSH1 0x8 PUSH0 DUP6 DUP2 MSTORE PUSH1 0x20 ADD SWAP1 DUP2 MSTORE PUSH1 0x20 ADD PUSH0 KECCAK256 PUSH0 ADD PUSH0 SWAP1 SLOAD SWAP1 PUSH2 0x100 EXP SWAP1 DIV PUSH20 0xFFFFFFFFFFFFFFFFFFFFFFFFFFFFFFFFFFFFFFFF AND PUSH20 0xFFFFFFFFFFFFFFFFFFFFFFFFFFFFFFFFFFFFFFFF AND EQ PUSH2 0x2088 JUMPI PUSH1 0x40 MLOAD PUSH32 0x8C379A000000000000000000000000000000000000000000000000000000000 DUP2 MSTORE PUSH1 0x4 ADD PUSH2 0x207F SWAP1 PUSH2 0x3DB7 JUMP JUMPDEST PUSH1 0x40 MLOAD DUP1 SWAP2 SUB SWAP1 REVERT JUMPDEST PUSH0 PUSH1 0x8 PUSH0 DUP8 DUP2 MSTORE PUSH1 0x20 ADD SWAP1 DUP2 MSTORE PUSH1 0x20 ADD PUSH0 KECCAK256 PUSH1 0x40 MLOAD DUP1 PUSH1 0xE0 ADD PUSH1 0x40 MSTORE SWAP1 DUP2 PUSH0 DUP3 ADD PUSH0 SWAP1 SLOAD SWAP1 PUSH2 0x100 EXP SWAP1 DIV PUSH20 0xFFFFFFFFFFFFFFFFFFFFFFFFFFFFFFFFFFFFFFFF AND PUSH20 0xFFFFFFFFFFFFFFFFFFFFFFFFFFFFFFFFFFFFFFFF AND PUSH20 0xFFFFFFFFFFFFFFFFFFFFFFFFFFFFFFFFFFFFFFFF AND DUP2 MSTORE PUSH1 0x20 ADD PUSH1 0x1 DUP3 ADD SLOAD DUP2 MSTORE PUSH1 0x20 ADD PUSH1 0x2 DUP3 ADD SLOAD DUP2 MSTORE PUSH1 0x20 ADD PUSH1 0x3 DUP3 ADD SLOAD DUP2 MSTORE PUSH1 0x20 ADD PUSH1 0x4 DUP3 ADD SLOAD DUP2 MSTORE PUSH1 0x20 ADD PUSH1 0x5 DUP3 ADD SLOAD DUP2 MSTORE PUSH1 0x20 ADD PUSH1 0x6 DUP3 ADD PUSH0 SWAP1 SLOAD SWAP1 PUSH2 0x100 EXP SWAP1 DIV PUSH1 0xFF AND PUSH1 0x3 DUP2 GT ISZERO PUSH2 0x214F JUMPI PUSH2 0x214E PUSH2 0x312A JUMP JUMPDEST JUMPDEST PUSH1 0x3 DUP2 GT ISZERO PUSH2 0x2161 JUMPI PUSH2 0x2160 PUSH2 0x312A JUMP JUMPDEST JUMPDEST DUP2 MSTORE POP POP SWAP1 POP PUSH1 0x1 DUP8 LT ISZERO DUP1 ISZERO PUSH2 0x217A JUMPI POP PUSH1 0x2 SLOAD DUP8 GT ISZERO JUMPDEST PUSH2 0x21B9 JUMPI PUSH1 0x40 MLOAD PUSH32 0x8C379A000000000000000000000000000000000000000000000000000000000 DUP2 MSTORE PUSH1 0x4 ADD PUSH2 0x21B0 SWAP1 PUSH2 0x3BD8 JUMP JUMPDEST PUSH1 0x40 MLOAD DUP1 SWAP2 SUB SWAP1 REVERT JUMPDEST PUSH1 0x1 DUP7 LT ISZERO DUP1 ISZERO PUSH2 0x21DB JUMPI POP PUSH1 0x7 PUSH0 DUP9 DUP2 MSTORE PUSH1 0x20 ADD SWAP1 DUP2 MSTORE PUSH1 0x20 ADD PUSH0 KECCAK256 SLOAD DUP7 GT ISZERO JUMPDEST PUSH2 0x221A JUMPI PUSH1 0x40 MLOAD PUSH32 0x8C379A000000000000000000000000000000000000000000000000000000000 DUP2 MSTORE PUSH1 0x4 ADD PUSH2 0x2211 SWAP1 PUSH2 0x3E1F JUMP JUMPDEST PUSH1 0x40 MLOAD DUP1 SWAP2 SUB SWAP1 REVERT JUMPDEST PUSH1 0x1 PUSH1 0x3 DUP2 GT ISZERO PUSH2 0x222E JUMPI PUSH2 0x222D PUSH2 0x312A JUMP JUMPDEST JUMPDEST DUP2 PUSH1 0xC0 ADD MLOAD PUSH1 0x3 DUP2 GT ISZERO PUSH2 0x2245 JUMPI PUSH2 0x2244 PUSH2 0x312A JUMP JUMPDEST JUMPDEST EQ PUSH2 0x2285 JUMPI PUSH1 0x40 MLOAD PUSH32 0x8C379A000000000000000000000000000000000000000000000000000000000 DUP2 MSTORE PUSH1 0x4 ADD PUSH2 0x227C SWAP1 PUSH2 0x44D2 JUMP JUMPDEST PUSH1 0x40 MLOAD DUP1 SWAP2 SUB SWAP1 REVERT JUMPDEST PUSH1 0x2 PUSH1 0x8 PUSH0 DUP9 DUP2 MSTORE PUSH1 0x20 ADD SWAP1 DUP2 MSTORE PUSH1 0x20 ADD PUSH0 KECCAK256 PUSH1 0x6 ADD PUSH0 PUSH2 0x100 EXP DUP2 SLOAD DUP2 PUSH1 0xFF MUL NOT AND SWAP1 DUP4 PUSH1 0x3 DUP2 GT ISZERO PUSH2 0x22BC JUMPI PUSH2 0x22BB PUSH2 0x312A JUMP JUMPDEST JUMPDEST MUL OR SWAP1 SSTORE POP TIMESTAMP PUSH1 0x8 PUSH0 DUP9 DUP2 MSTORE PUSH1 0x20 ADD SWAP1 DUP2 MSTORE PUSH1 0x20 ADD PUSH0 KECCAK256 PUSH1 0x2 ADD DUP2 SWAP1 SSTORE POP PUSH1 0x1 DUP6 PUSH2 0x22E7 SWAP2 SWAP1 PUSH2 0x44F0 JUMP JUMPDEST TIMESTAMP PUSH2 0x22F2 SWAP2 SWAP1 PUSH2 0x442F JUMP JUMPDEST PUSH1 0x8 PUSH0 DUP9 DUP2 MSTORE PUSH1 0x20 ADD SWAP1 DUP2 MSTORE PUSH1 0x20 ADD PUSH0 KECCAK256 PUSH1 0x3 ADD DUP2 SWAP1 SSTORE POP TIMESTAMP PUSH1 0x8 PUSH0 DUP9 DUP2 MSTORE PUSH1 0x20 ADD SWAP1 DUP2 MSTORE PUSH1 0x20 ADD PUSH0 KECCAK256 PUSH1 0x4 ADD DUP2 SWAP1 SSTORE POP PUSH32 0x29DC036766D8E77F495B0B42F18A239419AF9F8DD528D84E1251663AA6DA16C9 DUP8 DUP8 TIMESTAMP PUSH1 0x1 DUP10 PUSH2 0x2354 SWAP2 SWAP1 PUSH2 0x44F0 JUMP JUMPDEST TIMESTAMP PUSH2 0x235F SWAP2 SWAP1 PUSH2 0x442F JUMP JUMPDEST PUSH1 0x40 MLOAD PUSH2 0x236F SWAP5 SWAP4 SWAP3 SWAP2 SWAP1 PUSH2 0x4531 JUMP JUMPDEST PUSH1 0x40 MLOAD DUP1 SWAP2 SUB SWAP1 LOG1 POP POP POP POP POP POP POP JUMP JUMPDEST PUSH1 0x9 PUSH1 0x20 MSTORE DUP1 PUSH0 MSTORE PUSH1 0x40 PUSH0 KECCAK256 PUSH0 SWAP2 POP SLOAD SWAP1 PUSH2 0x100 EXP SWAP1 DIV PUSH1 0xFF AND DUP2 JUMP JUMPDEST PUSH0 DUP1 PUSH0 DUP1 PUSH0 DUP1 PUSH0 DUP1 SLOAD SWAP1 PUSH2 0x100 EXP SWAP1 DIV PUSH20 0xFFFFFFFFFFFFFFFFFFFFFFFFFFFFFFFFFFFFFFFF AND PUSH20 0xFFFFFFFFFFFFFFFFFFFFFFFFFFFFFFFFFFFFFFFF AND PUSH4 0x75894E8C CALLER PUSH1 0x40 MLOAD DUP3 PUSH4 0xFFFFFFFF AND PUSH1 0xE0 SHL DUP2 MSTORE PUSH1 0x4 ADD PUSH2 0x23FB SWAP2 SWAP1 PUSH2 0x39AD JUMP JUMPDEST PUSH1 0x40 DUP1 MLOAD DUP1 DUP4 SUB DUP2 PUSH0 DUP8 GAS CALL ISZERO DUP1 ISZERO PUSH2 0x2416 JUMPI RETURNDATASIZE PUSH0 DUP1 RETURNDATACOPY RETURNDATASIZE PUSH0 REVERT JUMPDEST POP POP POP POP PUSH1 0x40 MLOAD RETURNDATASIZE PUSH1 0x1F NOT PUSH1 0x1F DUP3 ADD AND DUP3 ADD DUP1 PUSH1 0x40 MSTORE POP DUP2 ADD SWAP1 PUSH2 0x243A SWAP2 SWAP1 PUSH2 0x39FD JUMP JUMPDEST SWAP2 POP SWAP2 POP PUSH0 PUSH1 0x5 DUP2 GT ISZERO PUSH2 0x2451 JUMPI PUSH2 0x2450 PUSH2 0x312A JUMP JUMPDEST JUMPDEST DUP3 PUSH1 0x5 DUP2 GT ISZERO PUSH2 0x2464 JUMPI PUSH2 0x2463 PUSH2 0x312A JUMP JUMPDEST JUMPDEST EQ DUP1 ISZERO PUSH2 0x246E JUMPI POP DUP1 JUMPDEST PUSH2 0x24AD JUMPI PUSH1 0x40 MLOAD PUSH32 0x8C379A000000000000000000000000000000000000000000000000000000000 DUP2 MSTORE PUSH1 0x4 ADD PUSH2 0x24A4 SWAP1 PUSH2 0x42AF JUMP JUMPDEST PUSH1 0x40 MLOAD DUP1 SWAP2 SUB SWAP1 REVERT JUMPDEST PUSH0 PUSH1 0x8 PUSH0 DUP10 DUP2 MSTORE PUSH1 0x20 ADD SWAP1 DUP2 MSTORE PUSH1 0x20 ADD PUSH0 KECCAK256 PUSH1 0x40 MLOAD DUP1 PUSH1 0xE0 ADD PUSH1 0x40 MSTORE SWAP1 DUP2 PUSH0 DUP3 ADD PUSH0 SWAP1 SLOAD SWAP1 PUSH2 0x100 EXP SWAP1 DIV PUSH20 0xFFFFFFFFFFFFFFFFFFFFFFFFFFFFFFFFFFFFFFFF AND PUSH20 0xFFFFFFFFFFFFFFFFFFFFFFFFFFFFFFFFFFFFFFFF AND PUSH20 0xFFFFFFFFFFFFFFFFFFFFFFFFFFFFFFFFFFFFFFFF AND DUP2 MSTORE PUSH1 0x20 ADD PUSH1 0x1 DUP3 ADD SLOAD DUP2 MSTORE PUSH1 0x20 ADD PUSH1 0x2 DUP3 ADD SLOAD DUP2 MSTORE PUSH1 0x20 ADD PUSH1 0x3 DUP3 ADD SLOAD DUP2 MSTORE PUSH1 0x20 ADD PUSH1 0x4 DUP3 ADD SLOAD DUP2 MSTORE PUSH1 0x20 ADD PUSH1 0x5 DUP3 ADD SLOAD DUP2 MSTORE PUSH1 0x20 ADD PUSH1 0x6 DUP3 ADD PUSH0 SWAP1 SLOAD SWAP1 PUSH2 0x100 EXP SWAP1 DIV PUSH1 0xFF AND PUSH1 0x3 DUP2 GT ISZERO PUSH2 0x2574 JUMPI PUSH2 0x2573 PUSH2 0x312A JUMP JUMPDEST JUMPDEST PUSH1 0x3 DUP2 GT ISZERO PUSH2 0x2586 JUMPI PUSH2 0x2585 PUSH2 0x312A JUMP JUMPDEST JUMPDEST DUP2 MSTORE POP POP SWAP1 POP PUSH1 0x1 DUP10 LT ISZERO DUP1 ISZERO PUSH2 0x259F JUMPI POP PUSH1 0x2 SLOAD DUP10 GT ISZERO JUMPDEST PUSH2 0x25DE JUMPI PUSH1 0x40 MLOAD PUSH32 0x8C379A000000000000000000000000000000000000000000000000000000000 DUP2 MSTORE PUSH1 0x4 ADD PUSH2 0x25D5 SWAP1 PUSH2 0x3BD8 JUMP JUMPDEST PUSH1 0x40 MLOAD DUP1 SWAP2 SUB SWAP1 REVERT JUMPDEST PUSH1 0x1 DUP9 LT ISZERO DUP1 ISZERO PUSH2 0x2600 JUMPI POP PUSH1 0x7 PUSH0 DUP11 DUP2 MSTORE PUSH1 0x20 ADD SWAP1 DUP2 MSTORE PUSH1 0x20 ADD PUSH0 KECCAK256 SLOAD DUP9 GT ISZERO JUMPDEST PUSH2 0x263F JUMPI PUSH1 0x40 MLOAD PUSH32 0x8C379A000000000000000000000000000000000000000000000000000000000 DUP2 MSTORE PUSH1 0x4 ADD PUSH2 0x2636 SWAP1 PUSH2 0x3E1F JUMP JUMPDEST PUSH1 0x40 MLOAD DUP1 SWAP2 SUB SWAP1 REVERT JUMPDEST DUP1 PUSH1 0xC0 ADD MLOAD DUP2 PUSH1 0x80 ADD MLOAD DUP3 PUSH1 0x40 ADD MLOAD DUP4 PUSH1 0x60 ADD MLOAD SWAP7 POP SWAP7 POP SWAP7 POP SWAP7 POP POP POP POP SWAP3 SWAP6 SWAP2 SWAP5 POP SWAP3 POP JUMP JUMPDEST PUSH1 0x5 PUSH1 0x20 MSTORE DUP1 PUSH0 MSTORE PUSH1 0x40 PUSH0 KECCAK256 PUSH0 SWAP2 POP SWAP1 POP SLOAD DUP2 JUMP JUMPDEST DUP2 PUSH0 DUP1 PUSH0 DUP1 SLOAD SWAP1 PUSH2 0x100 EXP SWAP1 DIV PUSH20 0xFFFFFFFFFFFFFFFFFFFFFFFFFFFFFFFFFFFFFFFF AND PUSH20 0xFFFFFFFFFFFFFFFFFFFFFFFFFFFFFFFFFFFFFFFF AND PUSH4 0x75894E8C CALLER PUSH1 0x40 MLOAD DUP3 PUSH4 0xFFFFFFFF AND PUSH1 0xE0 SHL DUP2 MSTORE PUSH1 0x4 ADD PUSH2 0x26D7 SWAP2 SWAP1 PUSH2 0x39AD JUMP JUMPDEST PUSH1 0x40 DUP1 MLOAD DUP1 DUP4 SUB DUP2 PUSH0 DUP8 GAS CALL ISZERO DUP1 ISZERO PUSH2 0x26F2 JUMPI RETURNDATASIZE PUSH0 DUP1 RETURNDATACOPY RETURNDATASIZE PUSH0 REVERT JUMPDEST POP POP POP POP PUSH1 0x40 MLOAD RETURNDATASIZE PUSH1 0x1F NOT PUSH1 0x1F DUP3 ADD AND DUP3 ADD DUP1 PUSH1 0x40 MSTORE POP DUP2 ADD SWAP1 PUSH2 0x2716 SWAP2 SWAP1 PUSH2 0x39FD JUMP JUMPDEST SWAP2 POP SWAP2 POP PUSH1 0x4 PUSH1 0x5 DUP2 GT ISZERO PUSH2 0x272E JUMPI PUSH2 0x272D PUSH2 0x312A JUMP JUMPDEST JUMPDEST DUP3 PUSH1 0x5 DUP2 GT ISZERO PUSH2 0x2741 JUMPI PUSH2 0x2740 PUSH2 0x312A JUMP JUMPDEST JUMPDEST EQ DUP1 ISZERO PUSH2 0x274B JUMPI POP DUP1 JUMPDEST PUSH2 0x278A JUMPI PUSH1 0x40 MLOAD PUSH32 0x8C379A000000000000000000000000000000000000000000000000000000000 DUP2 MSTORE PUSH1 0x4 ADD PUSH2 0x2781 SWAP1 PUSH2 0x3D29 JUMP JUMPDEST PUSH1 0x40 MLOAD DUP1 SWAP2 SUB SWAP1 REVERT JUMPDEST CALLER PUSH20 0xFFFFFFFFFFFFFFFFFFFFFFFFFFFFFFFFFFFFFFFF AND PUSH1 0x8 PUSH0 DUP6 DUP2 MSTORE PUSH1 0x20 ADD SWAP1 DUP2 MSTORE PUSH1 0x20 ADD PUSH0 KECCAK256 PUSH0 ADD PUSH0 SWAP1 SLOAD SWAP1 PUSH2 0x100 EXP SWAP1 DIV PUSH20 0xFFFFFFFFFFFFFFFFFFFFFFFFFFFFFFFFFFFFFFFF AND PUSH20 0xFFFFFFFFFFFFFFFFFFFFFFFFFFFFFFFFFFFFFFFF AND EQ PUSH2 0x282A JUMPI PUSH1 0x40 MLOAD PUSH32 0x8C379A000000000000000000000000000000000000000000000000000000000 DUP2 MSTORE PUSH1 0x4 ADD PUSH2 0x2821 SWAP1 PUSH2 0x3DB7 JUMP JUMPDEST PUSH1 0x40 MLOAD DUP1 SWAP2 SUB SWAP1 REVERT JUMPDEST PUSH0 PUSH1 0x8 PUSH0 DUP8 DUP2 MSTORE PUSH1 0x20 ADD SWAP1 DUP2 MSTORE PUSH1 0x20 ADD PUSH0 KECCAK256 PUSH1 0x40 MLOAD DUP1 PUSH1 0xE0 ADD PUSH1 0x40 MSTORE SWAP1 DUP2 PUSH0 DUP3 ADD PUSH0 SWAP1 SLOAD SWAP1 PUSH2 0x100 EXP SWAP1 DIV PUSH20 0xFFFFFFFFFFFFFFFFFFFFFFFFFFFFFFFFFFFFFFFF AND PUSH20 0xFFFFFFFFFFFFFFFFFFFFFFFFFFFFFFFFFFFFFFFF AND PUSH20 0xFFFFFFFFFFFFFFFFFFFFFFFFFFFFFFFFFFFFFFFF AND DUP2 MSTORE PUSH1 0x20 ADD PUSH1 0x1 DUP3 ADD SLOAD DUP2 MSTORE PUSH1 0x20 ADD PUSH1 0x2 DUP3 ADD SLOAD DUP2 MSTORE PUSH1 0x20 ADD PUSH1 0x3 DUP3 ADD SLOAD DUP2 MSTORE PUSH1 0x20 ADD PUSH1 0x4 DUP3 ADD SLOAD DUP2 MSTORE PUSH1 0x20 ADD PUSH1 0x5 DUP3 ADD SLOAD DUP2 MSTORE PUSH1 0x20 ADD PUSH1 0x6 DUP3 ADD PUSH0 SWAP1 SLOAD SWAP1 PUSH2 0x100 EXP SWAP1 DIV PUSH1 0xFF AND PUSH1 0x3 DUP2 GT ISZERO PUSH2 0x28F1 JUMPI PUSH2 0x28F0 PUSH2 0x312A JUMP JUMPDEST JUMPDEST PUSH1 0x3 DUP2 GT ISZERO PUSH2 0x2903 JUMPI PUSH2 0x2902 PUSH2 0x312A JUMP JUMPDEST JUMPDEST DUP2 MSTORE POP POP SWAP1 POP PUSH1 0x1 DUP8 LT ISZERO DUP1 ISZERO PUSH2 0x291C JUMPI POP PUSH1 0x2 SLOAD DUP8 GT ISZERO JUMPDEST PUSH2 0x295B JUMPI PUSH1 0x40 MLOAD PUSH32 0x8C379A000000000000000000000000000000000000000000000000000000000 DUP2 MSTORE PUSH1 0x4 ADD PUSH2 0x2952 SWAP1 PUSH2 0x3BD8 JUMP JUMPDEST PUSH1 0x40 MLOAD DUP1 SWAP2 SUB SWAP1 REVERT JUMPDEST PUSH1 0x1 DUP7 LT ISZERO DUP1 ISZERO PUSH2 0x297D JUMPI POP PUSH1 0x7 PUSH0 DUP9 DUP2 MSTORE PUSH1 0x20 ADD SWAP1 DUP2 MSTORE PUSH1 0x20 ADD PUSH0 KECCAK256 SLOAD DUP7 GT ISZERO JUMPDEST PUSH2 0x29BC JUMPI PUSH1 0x40 MLOAD PUSH32 0x8C379A000000000000000000000000000000000000000000000000000000000 DUP2 MSTORE PUSH1 0x4 ADD PUSH2 0x29B3 SWAP1 PUSH2 0x3E1F JUMP JUMPDEST PUSH1 0x40 MLOAD DUP1 SWAP2 SUB SWAP1 REVERT JUMPDEST PUSH1 0x2 PUSH1 0x3 DUP2 GT ISZERO PUSH2 0x29D0 JUMPI PUSH2 0x29CF PUSH2 0x312A JUMP JUMPDEST JUMPDEST DUP2 PUSH1 0xC0 ADD MLOAD PUSH1 0x3 DUP2 GT ISZERO PUSH2 0x29E7 JUMPI PUSH2 0x29E6 PUSH2 0x312A JUMP JUMPDEST JUMPDEST EQ PUSH2 0x2A27 JUMPI PUSH1 0x40 MLOAD PUSH32 0x8C379A000000000000000000000000000000000000000000000000000000000 DUP2 MSTORE PUSH1 0x4 ADD PUSH2 0x2A1E SWAP1 PUSH2 0x3EAD JUMP JUMPDEST PUSH1 0x40 MLOAD DUP1 SWAP2 SUB SWAP1 REVERT JUMPDEST DUP5 PUSH2 0x2A31 SWAP1 PUSH2 0x43C9 JUMP JUMPDEST PUSH1 0x8 PUSH0 DUP9 DUP2 MSTORE PUSH1 0x20 ADD SWAP1 DUP2 MSTORE PUSH1 0x20 ADD PUSH0 KECCAK256 PUSH1 0x5 ADD DUP2 SWAP1 SSTORE POP TIMESTAMP PUSH1 0x8 PUSH0 DUP9 DUP2 MSTORE PUSH1 0x20 ADD SWAP1 DUP2 MSTORE PUSH1 0x20 ADD PUSH0 KECCAK256 PUSH1 0x4 ADD DUP2 SWAP1 SSTORE POP PUSH32 0xDE2669F070BFB51D280EF42C92C59E3F20BBEEF765E99CAB94CD673CC2BF0F2F DUP8 DUP8 TIMESTAMP DUP9 PUSH2 0x2A90 SWAP1 PUSH2 0x43C9 JUMP JUMPDEST PUSH1 0x40 MLOAD PUSH2 0x2AA0 SWAP5 SWAP4 SWAP3 SWAP2 SWAP1 PUSH2 0x4574 JUMP JUMPDEST PUSH1 0x40 MLOAD DUP1 SWAP2 SUB SWAP1 LOG1 POP POP POP POP POP POP POP JUMP JUMPDEST PUSH0 DUP1 SLOAD SWAP1 PUSH2 0x100 EXP SWAP1 DIV PUSH20 0xFFFFFFFFFFFFFFFFFFFFFFFFFFFFFFFFFFFFFFFF AND DUP2 JUMP JUMPDEST PUSH0 DUP1 PUSH0 DUP1 SLOAD SWAP1 PUSH2 0x100 EXP SWAP1 DIV PUSH20 0xFFFFFFFFFFFFFFFFFFFFFFFFFFFFFFFFFFFFFFFF AND PUSH20 0xFFFFFFFFFFFFFFFFFFFFFFFFFFFFFFFFFFFFFFFF AND PUSH4 0x75894E8C CALLER PUSH1 0x40 MLOAD DUP3 PUSH4 0xFFFFFFFF AND PUSH1 0xE0 SHL DUP2 MSTORE PUSH1 0x4 ADD PUSH2 0x2B2E SWAP2 SWAP1 PUSH2 0x39AD JUMP JUMPDEST PUSH1 0x40 DUP1 MLOAD DUP1 DUP4 SUB DUP2 PUSH0 DUP8 GAS CALL ISZERO DUP1 ISZERO PUSH2 0x2B49 JUMPI RETURNDATASIZE PUSH0 DUP1 RETURNDATACOPY RETURNDATASIZE PUSH0 REVERT JUMPDEST POP POP POP POP PUSH1 0x40 MLOAD RETURNDATASIZE PUSH1 0x1F NOT PUSH1 0x1F DUP3 ADD AND DUP3 ADD DUP1 PUSH1 0x40 MSTORE POP DUP2 ADD SWAP1 PUSH2 0x2B6D SWAP2 SWAP1 PUSH2 0x39FD JUMP JUMPDEST SWAP2 POP SWAP2 POP PUSH0 PUSH1 0x5 DUP2 GT ISZERO PUSH2 0x2B84 JUMPI PUSH2 0x2B83 PUSH2 0x312A JUMP JUMPDEST JUMPDEST DUP3 PUSH1 0x5 DUP2 GT ISZERO PUSH2 0x2B97 JUMPI PUSH2 0x2B96 PUSH2 0x312A JUMP JUMPDEST JUMPDEST EQ DUP1 ISZERO PUSH2 0x2BA1 JUMPI POP DUP1 JUMPDEST PUSH2 0x2BE0 JUMPI PUSH1 0x40 MLOAD PUSH32 0x8C379A000000000000000000000000000000000000000000000000000000000 DUP2 MSTORE PUSH1 0x4 ADD PUSH2 0x2BD7 SWAP1 PUSH2 0x42AF JUMP JUMPDEST PUSH1 0x40 MLOAD DUP1 SWAP2 SUB SWAP1 REVERT JUMPDEST PUSH0 PUSH1 0x6 PUSH0 DUP8 DUP2 MSTORE PUSH1 0x20 ADD SWAP1 DUP2 MSTORE PUSH1 0x20 ADD PUSH0 KECCAK256 PUSH0 DUP7 DUP2 MSTORE PUSH1 0x20 ADD SWAP1 DUP2 MSTORE PUSH1 0x20 ADD PUSH0 KECCAK256 PUSH1 0x40 MLOAD DUP1 PUSH1 0xC0 ADD PUSH1 0x40 MSTORE SWAP1 DUP2 PUSH0 DUP3 ADD SLOAD DUP2 MSTORE PUSH1 0x20 ADD PUSH1 0x1 DUP3 ADD SLOAD DUP2 MSTORE PUSH1 0x20 ADD PUSH1 0x2 DUP3 ADD SLOAD DUP2 MSTORE PUSH1 0x20 ADD PUSH1 0x3 DUP3 ADD PUSH0 SWAP1 SLOAD SWAP1 PUSH2 0x100 EXP SWAP1 DIV PUSH1 0xF8 SHL PUSH31 0xFFFFFFFFFFFFFFFFFFFFFFFFFFFFFFFFFFFFFFFFFFFFFFFFFFFFFFFFFFFFFF NOT AND PUSH31 0xFFFFFFFFFFFFFFFFFFFFFFFFFFFFFFFFFFFFFFFFFFFFFFFFFFFFFFFFFFFFFF NOT AND DUP2 MSTORE PUSH1 0x20 ADD PUSH1 0x4 DUP3 ADD SLOAD DUP2 MSTORE PUSH1 0x20 ADD PUSH1 0x5 DUP3 ADD PUSH0 SWAP1 SLOAD SWAP1 PUSH2 0x100 EXP SWAP1 DIV PUSH1 0xFF AND PUSH1 0x3 DUP2 GT ISZERO PUSH2 0x2CB1 JUMPI PUSH2 0x2CB0 PUSH2 0x312A JUMP JUMPDEST JUMPDEST PUSH1 0x3 DUP2 GT ISZERO PUSH2 0x2CC3 JUMPI PUSH2 0x2CC2 PUSH2 0x312A JUMP JUMPDEST JUMPDEST DUP2 MSTORE POP POP SWAP1 POP PUSH0 PUSH1 0x3 DUP2 GT ISZERO PUSH2 0x2CDC JUMPI PUSH2 0x2CDB PUSH2 0x312A JUMP JUMPDEST JUMPDEST DUP2 PUSH1 0xA0 ADD MLOAD PUSH1 0x3 DUP2 GT ISZERO PUSH2 0x2CF3 JUMPI PUSH2 0x2CF2 PUSH2 0x312A JUMP JUMPDEST JUMPDEST EQ PUSH2 0x2D33 JUMPI PUSH1 0x40 MLOAD PUSH32 0x8C379A000000000000000000000000000000000000000000000000000000000 DUP2 MSTORE PUSH1 0x4 ADD PUSH2 0x2D2A SWAP1 PUSH2 0x464D JUMP JUMPDEST PUSH1 0x40 MLOAD DUP1 SWAP2 SUB SWAP1 REVERT JUMPDEST PUSH1 0x1 DUP7 LT ISZERO DUP1 ISZERO PUSH2 0x2D46 JUMPI POP PUSH1 0x2 SLOAD DUP7 GT ISZERO JUMPDEST PUSH2 0x2D85 JUMPI PUSH1 0x40 MLOAD PUSH32 0x8C379A000000000000000000000000000000000000000000000000000000000 DUP2 MSTORE PUSH1 0x4 ADD PUSH2 0x2D7C SWAP1 PUSH2 0x3BD8 JUMP JUMPDEST PUSH1 0x40 MLOAD DUP1 SWAP2 SUB SWAP1 REVERT JUMPDEST PUSH1 0x1 DUP6 LT ISZERO DUP1 ISZERO PUSH2 0x2DA7 JUMPI POP PUSH1 0x7 PUSH0 DUP8 DUP2 MSTORE PUSH1 0x20 ADD SWAP1 DUP2 MSTORE PUSH1 0x20 ADD PUSH0 KECCAK256 SLOAD DUP6 GT ISZERO JUMPDEST PUSH2 0x2DE6 JUMPI PUSH1 0x40 MLOAD PUSH32 0x8C379A000000000000000000000000000000000000000000000000000000000 DUP2 MSTORE PUSH1 0x4 ADD PUSH2 0x2DDD SWAP1 PUSH2 0x3E1F JUMP JUMPDEST PUSH1 0x40 MLOAD DUP1 SWAP2 SUB SWAP1 REVERT JUMPDEST DUP4 PUSH1 0x8 PUSH0 DUP8 DUP2 MSTORE PUSH1 0x20 ADD SWAP1 DUP2 MSTORE PUSH1 0x20 ADD PUSH0 KECCAK256 PUSH0 ADD PUSH0 PUSH2 0x100 EXP DUP2 SLOAD DUP2 PUSH20 0xFFFFFFFFFFFFFFFFFFFFFFFFFFFFFFFFFFFFFFFF MUL NOT AND SWAP1 DUP4 PUSH20 0xFFFFFFFFFFFFFFFFFFFFFFFFFFFFFFFFFFFFFFFF AND MUL OR SWAP1 SSTORE POP DUP5 PUSH1 0x8 PUSH0 DUP8 DUP2 MSTORE PUSH1 0x20 ADD SWAP1 DUP2 MSTORE PUSH1 0x20 ADD PUSH0 KECCAK256 PUSH1 0x1 ADD DUP2 SWAP1 SSTORE POP PUSH1 0x1 PUSH1 0x8 PUSH0 DUP8 DUP2 MSTORE PUSH1 0x20 ADD SWAP1 DUP2 MSTORE PUSH1 0x20 ADD PUSH0 KECCAK256 PUSH1 0x6 ADD PUSH0 PUSH2 0x100 EXP DUP2 SLOAD DUP2 PUSH1 0xFF MUL NOT AND SWAP1 DUP4 PUSH1 0x3 DUP2 GT ISZERO PUSH2 0x2E87 JUMPI PUSH2 0x2E86 PUSH2 0x312A JUMP JUMPDEST JUMPDEST MUL OR SWAP1 SSTORE POP PUSH32 0xE1A03807FF7B7D8AC4C42CF3FE3905D10B2B30935D18974726482DB3BF232E36 DUP6 DUP8 DUP7 PUSH1 0x40 MLOAD PUSH2 0x2EBF SWAP4 SWAP3 SWAP2 SWAP1 PUSH2 0x466B JUMP JUMPDEST PUSH1 0x40 MLOAD DUP1 SWAP2 SUB SWAP1 LOG1 POP POP POP POP POP POP JUMP JUMPDEST PUSH1 0xA PUSH1 0x20 MSTORE DUP1 PUSH0 MSTORE PUSH1 0x40 PUSH0 KECCAK256 PUSH0 SWAP2 POP SWAP1 POP DUP1 PUSH0 ADD PUSH1 0x40 MLOAD DUP1 PUSH1 0x40 ADD PUSH1 0x40 MSTORE SWAP1 DUP2 PUSH0 DUP3 ADD SLOAD DUP2 MSTORE PUSH1 0x20 ADD PUSH1 0x1 DUP3 ADD SLOAD DUP2 MSTORE POP POP SWAP1 DUP1 PUSH1 0x2 ADD PUSH1 0x40 MLOAD DUP1 PUSH1 0x40 ADD PUSH1 0x40 MSTORE SWAP1 DUP2 PUSH0 DUP3 ADD PUSH1 0x2 DUP1 PUSH1 0x20 MUL PUSH1 0x40 MLOAD SWAP1 DUP2 ADD PUSH1 0x40 MSTORE DUP1 SWAP3 SWAP2 SWAP1 DUP3 PUSH1 0x2 DUP1 ISZERO PUSH2 0x2F4C JUMPI PUSH1 0x20 MUL DUP3 ADD SWAP2 JUMPDEST DUP2 SLOAD DUP2 MSTORE PUSH1 0x20 ADD SWAP1 PUSH1 0x1 ADD SWAP1 DUP1 DUP4 GT PUSH2 0x2F38 JUMPI JUMPDEST POP POP POP POP POP DUP2 MSTORE PUSH1 0x20 ADD PUSH1 0x2 DUP3 ADD PUSH1 0x2 DUP1 PUSH1 0x20 MUL PUSH1 0x40 MLOAD SWAP1 DUP2 ADD PUSH1 0x40 MSTORE DUP1 SWAP3 SWAP2 SWAP1 DUP3 PUSH1 0x2 DUP1 ISZERO PUSH2 0x2F91 JUMPI PUSH1 0x20 MUL DUP3 ADD SWAP2 JUMPDEST DUP2 SLOAD DUP2 MSTORE PUSH1 0x20 ADD SWAP1 PUSH1 0x1 ADD SWAP1 DUP1 DUP4 GT PUSH2 0x2F7D JUMPI JUMPDEST POP POP POP POP POP DUP2 MSTORE POP POP SWAP1 DUP1 PUSH1 0x6 ADD PUSH1 0x40 MLOAD DUP1 PUSH1 0x40 ADD PUSH1 0x40 MSTORE SWAP1 DUP2 PUSH0 DUP3 ADD SLOAD DUP2 MSTORE PUSH1 0x20 ADD PUSH1 0x1 DUP3 ADD SLOAD DUP2 MSTORE POP POP SWAP1 POP DUP4 JUMP JUMPDEST PUSH0 PUSH1 0x40 MLOAD SWAP1 POP SWAP1 JUMP JUMPDEST PUSH0 DUP1 REVERT JUMPDEST PUSH0 DUP1 REVERT JUMPDEST PUSH0 PUSH20 0xFFFFFFFFFFFFFFFFFFFFFFFFFFFFFFFFFFFFFFFF DUP3 AND SWAP1 POP SWAP2 SWAP1 POP JUMP JUMPDEST PUSH0 PUSH2 0x2FFC DUP3 PUSH2 0x2FD3 JUMP JUMPDEST SWAP1 POP SWAP2 SWAP1 POP JUMP JUMPDEST PUSH2 0x300C DUP2 PUSH2 0x2FF2 JUMP JUMPDEST DUP2 EQ PUSH2 0x3016 JUMPI PUSH0 DUP1 REVERT JUMPDEST POP JUMP JUMPDEST PUSH0 DUP2 CALLDATALOAD SWAP1 POP PUSH2 0x3027 DUP2 PUSH2 0x3003 JUMP JUMPDEST SWAP3 SWAP2 POP POP JUMP JUMPDEST PUSH0 PUSH1 0x20 DUP3 DUP5 SUB SLT ISZERO PUSH2 0x3042 JUMPI PUSH2 0x3041 PUSH2 0x2FCB JUMP JUMPDEST JUMPDEST PUSH0 PUSH2 0x304F DUP5 DUP3 DUP6 ADD PUSH2 0x3019 JUMP JUMPDEST SWAP2 POP POP SWAP3 SWAP2 POP POP JUMP JUMPDEST PUSH0 DUP2 SWAP1 POP SWAP2 SWAP1 POP JUMP JUMPDEST PUSH2 0x306A DUP2 PUSH2 0x3058 JUMP JUMPDEST DUP2 EQ PUSH2 0x3074 JUMPI PUSH0 DUP1 REVERT JUMPDEST POP JUMP JUMPDEST PUSH0 DUP2 CALLDATALOAD SWAP1 POP PUSH2 0x3085 DUP2 PUSH2 0x3061 JUMP JUMPDEST SWAP3 SWAP2 POP POP JUMP JUMPDEST PUSH0 DUP1 PUSH1 0x40 DUP4 DUP6 SUB SLT ISZERO PUSH2 0x30A1 JUMPI PUSH2 0x30A0 PUSH2 0x2FCB JUMP JUMPDEST JUMPDEST PUSH0 PUSH2 0x30AE DUP6 DUP3 DUP7 ADD PUSH2 0x3077 JUMP JUMPDEST SWAP3 POP POP PUSH1 0x20 PUSH2 0x30BF DUP6 DUP3 DUP7 ADD PUSH2 0x3077 JUMP JUMPDEST SWAP2 POP POP SWAP3 POP SWAP3 SWAP1 POP JUMP JUMPDEST PUSH2 0x30D2 DUP2 PUSH2 0x3058 JUMP JUMPDEST DUP3 MSTORE POP POP JUMP JUMPDEST PUSH0 DUP2 SWAP1 POP SWAP2 SWAP1 POP JUMP JUMPDEST PUSH2 0x30EA DUP2 PUSH2 0x30D8 JUMP JUMPDEST DUP3 MSTORE POP POP JUMP JUMPDEST PUSH0 PUSH32 0xFF00000000000000000000000000000000000000000000000000000000000000 DUP3 AND SWAP1 POP SWAP2 SWAP1 POP JUMP JUMPDEST PUSH2 0x3124 DUP2 PUSH2 0x30F0 JUMP JUMPDEST DUP3 MSTORE POP POP JUMP JUMPDEST PUSH32 0x4E487B7100000000000000000000000000000000000000000000000000000000 PUSH0 MSTORE PUSH1 0x21 PUSH1 0x4 MSTORE PUSH1 0x24 PUSH0 REVERT JUMPDEST PUSH1 0x4 DUP2 LT PUSH2 0x3168 JUMPI PUSH2 0x3167 PUSH2 0x312A JUMP JUMPDEST JUMPDEST POP JUMP JUMPDEST PUSH0 DUP2 SWAP1 POP PUSH2 0x3178 DUP3 PUSH2 0x3157 JUMP JUMPDEST SWAP2 SWAP1 POP JUMP JUMPDEST PUSH0 PUSH2 0x3187 DUP3 PUSH2 0x316B JUMP JUMPDEST SWAP1 POP SWAP2 SWAP1 POP JUMP JUMPDEST PUSH2 0x3197 DUP2 PUSH2 0x317D JUMP JUMPDEST DUP3 MSTORE POP POP JUMP JUMPDEST PUSH0 PUSH1 0xC0 DUP3 ADD SWAP1 POP PUSH2 0x31B0 PUSH0 DUP4 ADD DUP10 PUSH2 0x30C9 JUMP JUMPDEST PUSH2 0x31BD PUSH1 0x20 DUP4 ADD DUP9 PUSH2 0x30E1 JUMP JUMPDEST PUSH2 0x31CA PUSH1 0x40 DUP4 ADD DUP8 PUSH2 0x30C9 JUMP JUMPDEST PUSH2 0x31D7 PUSH1 0x60 DUP4 ADD DUP7 PUSH2 0x311B JUMP JUMPDEST PUSH2 0x31E4 PUSH1 0x80 DUP4 ADD DUP6 PUSH2 0x30C9 JUMP JUMPDEST PUSH2 0x31F1 PUSH1 0xA0 DUP4 ADD DUP5 PUSH2 0x318E JUMP JUMPDEST SWAP8 SWAP7 POP POP POP POP POP POP POP JUMP JUMPDEST PUSH0 PUSH1 0x20 DUP3 ADD SWAP1 POP PUSH2 0x320F PUSH0 DUP4 ADD DUP5 PUSH2 0x30C9 JUMP JUMPDEST SWAP3 SWAP2 POP POP JUMP JUMPDEST PUSH0 DUP2 ISZERO ISZERO SWAP1 POP SWAP2 SWAP1 POP JUMP JUMPDEST PUSH2 0x3229 DUP2 PUSH2 0x3215 JUMP JUMPDEST DUP2 EQ PUSH2 0x3233 JUMPI PUSH0 DUP1 REVERT JUMPDEST POP JUMP JUMPDEST PUSH0 DUP2 CALLDATALOAD SWAP1 POP PUSH2 0x3244 DUP2 PUSH2 0x3220 JUMP JUMPDEST SWAP3 SWAP2 POP POP JUMP JUMPDEST PUSH0 DUP1 PUSH1 0x40 DUP4 DUP6 SUB SLT ISZERO PUSH2 0x3260 JUMPI PUSH2 0x325F PUSH2 0x2FCB JUMP JUMPDEST JUMPDEST PUSH0 PUSH2 0x326D DUP6 DUP3 DUP7 ADD PUSH2 0x3077 JUMP JUMPDEST SWAP3 POP POP PUSH1 0x20 PUSH2 0x327E DUP6 DUP3 DUP7 ADD PUSH2 0x3236 JUMP JUMPDEST SWAP2 POP POP SWAP3 POP SWAP3 SWAP1 POP JUMP JUMPDEST PUSH0 PUSH1 0x20 DUP3 DUP5 SUB SLT ISZERO PUSH2 0x329D JUMPI PUSH2 0x329C PUSH2 0x2FCB JUMP JUMPDEST JUMPDEST PUSH0 PUSH2 0x32AA DUP5 DUP3 DUP6 ADD PUSH2 0x3077 JUMP JUMPDEST SWAP2 POP POP SWAP3 SWAP2 POP POP JUMP JUMPDEST PUSH2 0x32BC DUP2 PUSH2 0x2FF2 JUMP JUMPDEST DUP3 MSTORE POP POP JUMP JUMPDEST PUSH0 PUSH1 0xE0 DUP3 ADD SWAP1 POP PUSH2 0x32D5 PUSH0 DUP4 ADD DUP11 PUSH2 0x32B3 JUMP JUMPDEST PUSH2 0x32E2 PUSH1 0x20 DUP4 ADD DUP10 PUSH2 0x30C9 JUMP JUMPDEST PUSH2 0x32EF PUSH1 0x40 DUP4 ADD DUP9 PUSH2 0x30C9 JUMP JUMPDEST PUSH2 0x32FC PUSH1 0x60 DUP4 ADD DUP8 PUSH2 0x30C9 JUMP JUMPDEST PUSH2 0x3309 PUSH1 0x80 DUP4 ADD DUP7 PUSH2 0x30C9 JUMP JUMPDEST PUSH2 0x3316 PUSH1 0xA0 DUP4 ADD DUP6 PUSH2 0x30E1 JUMP JUMPDEST PUSH2 0x3323 PUSH1 0xC0 DUP4 ADD DUP5 PUSH2 0x318E JUMP JUMPDEST SWAP9 SWAP8 POP POP POP POP POP POP POP POP JUMP JUMPDEST PUSH2 0x3338 DUP2 PUSH2 0x3215 JUMP JUMPDEST DUP3 MSTORE POP POP JUMP JUMPDEST PUSH0 PUSH1 0xC0 DUP3 ADD SWAP1 POP PUSH2 0x3351 PUSH0 DUP4 ADD DUP10 PUSH2 0x32B3 JUMP JUMPDEST PUSH2 0x335E PUSH1 0x20 DUP4 ADD DUP9 PUSH2 0x30C9 JUMP JUMPDEST PUSH2 0x336B PUSH1 0x40 DUP4 ADD DUP8 PUSH2 0x30C9 JUMP JUMPDEST PUSH2 0x3378 PUSH1 0x60 DUP4 ADD DUP7 PUSH2 0x30E1 JUMP JUMPDEST PUSH2 0x3385 PUSH1 0x80 DUP4 ADD DUP6 PUSH2 0x332F JUMP JUMPDEST PUSH2 0x3392 PUSH1 0xA0 DUP4 ADD DUP5 PUSH2 0x332F JUMP JUMPDEST SWAP8 SWAP7 POP POP POP POP POP POP POP JUMP JUMPDEST PUSH0 DUP2 SWAP1 POP SWAP2 SWAP1 POP JUMP JUMPDEST PUSH0 PUSH2 0x33C0 PUSH2 0x33BB PUSH2 0x33B6 DUP5 PUSH2 0x2FD3 JUMP JUMPDEST PUSH2 0x339D JUMP JUMPDEST PUSH2 0x2FD3 JUMP JUMPDEST SWAP1 POP SWAP2 SWAP1 POP JUMP JUMPDEST PUSH0 PUSH2 0x33D1 DUP3 PUSH2 0x33A6 JUMP JUMPDEST SWAP1 POP SWAP2 SWAP1 POP JUMP JUMPDEST PUSH0 PUSH2 0x33E2 DUP3 PUSH2 0x33C7 JUMP JUMPDEST SWAP1 POP SWAP2 SWAP1 POP JUMP JUMPDEST PUSH2 0x33F2 DUP2 PUSH2 0x33D8 JUMP JUMPDEST DUP3 MSTORE POP POP JUMP JUMPDEST PUSH0 PUSH1 0x20 DUP3 ADD SWAP1 POP PUSH2 0x340B PUSH0 DUP4 ADD DUP5 PUSH2 0x33E9 JUMP JUMPDEST SWAP3 SWAP2 POP POP JUMP JUMPDEST PUSH0 PUSH1 0x60 DUP3 ADD SWAP1 POP PUSH2 0x3424 PUSH0 DUP4 ADD DUP7 PUSH2 0x32B3 JUMP JUMPDEST PUSH2 0x3431 PUSH1 0x20 DUP4 ADD DUP6 PUSH2 0x30C9 JUMP JUMPDEST PUSH2 0x343E PUSH1 0x40 DUP4 ADD DUP5 PUSH2 0x30E1 JUMP JUMPDEST SWAP5 SWAP4 POP POP POP POP JUMP JUMPDEST PUSH2 0x344F DUP2 PUSH2 0x30D8 JUMP JUMPDEST DUP2 EQ PUSH2 0x3459 JUMPI PUSH0 DUP1 REVERT JUMPDEST POP JUMP JUMPDEST PUSH0 DUP2 CALLDATALOAD SWAP1 POP PUSH2 0x346A DUP2 PUSH2 0x3446 JUMP JUMPDEST SWAP3 SWAP2 POP POP JUMP JUMPDEST PUSH2 0x3479 DUP2 PUSH2 0x30F0 JUMP JUMPDEST DUP2 EQ PUSH2 0x3483 JUMPI PUSH0 DUP1 REVERT JUMPDEST POP JUMP JUMPDEST PUSH0 DUP2 CALLDATALOAD SWAP1 POP PUSH2 0x3494 DUP2 PUSH2 0x3470 JUMP JUMPDEST SWAP3 SWAP2 POP POP JUMP JUMPDEST PUSH0 DUP1 PUSH0 DUP1 PUSH1 0x80 DUP6 DUP8 SUB SLT ISZERO PUSH2 0x34B2 JUMPI PUSH2 0x34B1 PUSH2 0x2FCB JUMP JUMPDEST JUMPDEST PUSH0 PUSH2 0x34BF DUP8 DUP3 DUP9 ADD PUSH2 0x345C JUMP JUMPDEST SWAP5 POP POP PUSH1 0x20 PUSH2 0x34D0 DUP8 DUP3 DUP9 ADD PUSH2 0x3077 JUMP JUMPDEST SWAP4 POP POP PUSH1 0x40 PUSH2 0x34E1 DUP8 DUP3 DUP9 ADD PUSH2 0x3486 JUMP JUMPDEST SWAP3 POP POP PUSH1 0x60 PUSH2 0x34F2 DUP8 DUP3 DUP9 ADD PUSH2 0x3077 JUMP JUMPDEST SWAP2 POP POP SWAP3 SWAP6 SWAP2 SWAP5 POP SWAP3 POP JUMP JUMPDEST PUSH0 PUSH1 0x80 DUP3 ADD SWAP1 POP PUSH2 0x3511 PUSH0 DUP4 ADD DUP8 PUSH2 0x30E1 JUMP JUMPDEST PUSH2 0x351E PUSH1 0x20 DUP4 ADD DUP7 PUSH2 0x30C9 JUMP JUMPDEST PUSH2 0x352B PUSH1 0x40 DUP4 ADD DUP6 PUSH2 0x311B JUMP JUMPDEST PUSH2 0x3538 PUSH1 0x60 DUP4 ADD DUP5 PUSH2 0x30E1 JUMP JUMPDEST SWAP6 SWAP5 POP POP POP POP POP JUMP JUMPDEST PUSH0 DUP1 REVERT JUMPDEST PUSH0 DUP1 REVERT JUMPDEST PUSH0 PUSH1 0x1F NOT PUSH1 0x1F DUP4 ADD AND SWAP1 POP SWAP2 SWAP1 POP JUMP JUMPDEST PUSH32 0x4E487B7100000000000000000000000000000000000000000000000000000000 PUSH0 MSTORE PUSH1 0x41 PUSH1 0x4 MSTORE PUSH1 0x24 PUSH0 REVERT JUMPDEST PUSH2 0x358F DUP3 PUSH2 0x3549 JUMP JUMPDEST DUP2 ADD DUP2 DUP2 LT PUSH8 0xFFFFFFFFFFFFFFFF DUP3 GT OR ISZERO PUSH2 0x35AE JUMPI PUSH2 0x35AD PUSH2 0x3559 JUMP JUMPDEST JUMPDEST DUP1 PUSH1 0x40 MSTORE POP POP POP JUMP JUMPDEST PUSH0 PUSH2 0x35C0 PUSH2 0x2FC2 JUMP JUMPDEST SWAP1 POP PUSH2 0x35CC DUP3 DUP3 PUSH2 0x3586 JUMP JUMPDEST SWAP2 SWAP1 POP JUMP JUMPDEST PUSH0 PUSH8 0xFFFFFFFFFFFFFFFF DUP3 GT ISZERO PUSH2 0x35EB JUMPI PUSH2 0x35EA PUSH2 0x3559 JUMP JUMPDEST JUMPDEST PUSH2 0x35F4 DUP3 PUSH2 0x3549 JUMP JUMPDEST SWAP1 POP PUSH1 0x20 DUP2 ADD SWAP1 POP SWAP2 SWAP1 POP JUMP JUMPDEST DUP3 DUP2 DUP4 CALLDATACOPY PUSH0 DUP4 DUP4 ADD MSTORE POP POP POP JUMP JUMPDEST PUSH0 PUSH2 0x3621 PUSH2 0x361C DUP5 PUSH2 0x35D1 JUMP JUMPDEST PUSH2 0x35B7 JUMP JUMPDEST SWAP1 POP DUP3 DUP2 MSTORE PUSH1 0x20 DUP2 ADD DUP5 DUP5 DUP5 ADD GT ISZERO PUSH2 0x363D JUMPI PUSH2 0x363C PUSH2 0x3545 JUMP JUMPDEST JUMPDEST PUSH2 0x3648 DUP5 DUP3 DUP6 PUSH2 0x3601 JUMP JUMPDEST POP SWAP4 SWAP3 POP POP POP JUMP JUMPDEST PUSH0 DUP3 PUSH1 0x1F DUP4 ADD SLT PUSH2 0x3664 JUMPI PUSH2 0x3663 PUSH2 0x3541 JUMP JUMPDEST JUMPDEST DUP2 CALLDATALOAD PUSH2 0x3674 DUP5 DUP3 PUSH1 0x20 DUP7 ADD PUSH2 0x360F JUMP JUMPDEST SWAP2 POP POP SWAP3 SWAP2 POP POP JUMP JUMPDEST PUSH0 DUP1 PUSH1 0x40 DUP4 DUP6 SUB SLT ISZERO PUSH2 0x3693 JUMPI PUSH2 0x3692 PUSH2 0x2FCB JUMP JUMPDEST JUMPDEST PUSH0 DUP4 ADD CALLDATALOAD PUSH8 0xFFFFFFFFFFFFFFFF DUP2 GT ISZERO PUSH2 0x36B0 JUMPI PUSH2 0x36AF PUSH2 0x2FCF JUMP JUMPDEST JUMPDEST PUSH2 0x36BC DUP6 DUP3 DUP7 ADD PUSH2 0x3650 JUMP JUMPDEST SWAP3 POP POP PUSH1 0x20 PUSH2 0x36CD DUP6 DUP3 DUP7 ADD PUSH2 0x3077 JUMP JUMPDEST SWAP2 POP POP SWAP3 POP SWAP3 SWAP1 POP JUMP JUMPDEST PUSH0 DUP1 PUSH0 PUSH1 0x60 DUP5 DUP7 SUB SLT ISZERO PUSH2 0x36EE JUMPI PUSH2 0x36ED PUSH2 0x2FCB JUMP JUMPDEST JUMPDEST PUSH0 PUSH2 0x36FB DUP7 DUP3 DUP8 ADD PUSH2 0x3077 JUMP JUMPDEST SWAP4 POP POP PUSH1 0x20 PUSH2 0x370C DUP7 DUP3 DUP8 ADD PUSH2 0x3077 JUMP JUMPDEST SWAP3 POP POP PUSH1 0x40 PUSH2 0x371D DUP7 DUP3 DUP8 ADD PUSH2 0x3077 JUMP JUMPDEST SWAP2 POP POP SWAP3 POP SWAP3 POP SWAP3 JUMP JUMPDEST PUSH0 PUSH1 0x20 DUP3 ADD SWAP1 POP PUSH2 0x373A PUSH0 DUP4 ADD DUP5 PUSH2 0x332F JUMP JUMPDEST SWAP3 SWAP2 POP POP JUMP JUMPDEST PUSH0 PUSH1 0x80 DUP3 ADD SWAP1 POP PUSH2 0x3753 PUSH0 DUP4 ADD DUP8 PUSH2 0x318E JUMP JUMPDEST PUSH2 0x3760 PUSH1 0x20 DUP4 ADD DUP7 PUSH2 0x30C9 JUMP JUMPDEST PUSH2 0x376D PUSH1 0x40 DUP4 ADD DUP6 PUSH2 0x30C9 JUMP JUMPDEST PUSH2 0x377A PUSH1 0x60 DUP4 ADD DUP5 PUSH2 0x30C9 JUMP JUMPDEST SWAP6 SWAP5 POP POP POP POP POP JUMP JUMPDEST PUSH0 DUP1 PUSH0 PUSH1 0x60 DUP5 DUP7 SUB SLT ISZERO PUSH2 0x379A JUMPI PUSH2 0x3799 PUSH2 0x2FCB JUMP JUMPDEST JUMPDEST PUSH0 PUSH2 0x37A7 DUP7 DUP3 DUP8 ADD PUSH2 0x3077 JUMP JUMPDEST SWAP4 POP POP PUSH1 0x20 PUSH2 0x37B8 DUP7 DUP3 DUP8 ADD PUSH2 0x3077 JUMP JUMPDEST SWAP3 POP POP PUSH1 0x40 DUP5 ADD CALLDATALOAD PUSH8 0xFFFFFFFFFFFFFFFF DUP2 GT ISZERO PUSH2 0x37D9 JUMPI PUSH2 0x37D8 PUSH2 0x2FCF JUMP JUMPDEST JUMPDEST PUSH2 0x37E5 DUP7 DUP3 DUP8 ADD PUSH2 0x3650 JUMP JUMPDEST SWAP2 POP POP SWAP3 POP SWAP3 POP SWAP3 JUMP JUMPDEST PUSH0 PUSH2 0x37F9 DUP3 PUSH2 0x33C7 JUMP JUMPDEST SWAP1 POP SWAP2 SWAP1 POP JUMP JUMPDEST PUSH2 0x3809 DUP2 PUSH2 0x37EF JUMP JUMPDEST DUP3 MSTORE POP POP JUMP JUMPDEST PUSH0 PUSH1 0x20 DUP3 ADD SWAP1 POP PUSH2 0x3822 PUSH0 DUP4 ADD DUP5 PUSH2 0x3800 JUMP JUMPDEST SWAP3 SWAP2 POP POP JUMP JUMPDEST PUSH0 DUP1 PUSH0 PUSH1 0x60 DUP5 DUP7 SUB SLT ISZERO PUSH2 0x383F JUMPI PUSH2 0x383E PUSH2 0x2FCB JUMP JUMPDEST JUMPDEST PUSH0 PUSH2 0x384C DUP7 DUP3 DUP8 ADD PUSH2 0x3077 JUMP JUMPDEST SWAP4 POP POP PUSH1 0x20 PUSH2 0x385D DUP7 DUP3 DUP8 ADD PUSH2 0x3077 JUMP JUMPDEST SWAP3 POP POP PUSH1 0x40 PUSH2 0x386E DUP7 DUP3 DUP8 ADD PUSH2 0x3019 JUMP JUMPDEST SWAP2 POP POP SWAP3 POP SWAP3 POP SWAP3 JUMP JUMPDEST PUSH2 0x3881 DUP2 PUSH2 0x3058 JUMP JUMPDEST DUP3 MSTORE POP POP JUMP JUMPDEST PUSH1 0x40 DUP3 ADD PUSH0 DUP3 ADD MLOAD PUSH2 0x389B PUSH0 DUP6 ADD DUP3 PUSH2 0x3878 JUMP JUMPDEST POP PUSH1 0x20 DUP3 ADD MLOAD PUSH2 0x38AE PUSH1 0x20 DUP6 ADD DUP3 PUSH2 0x3878 JUMP JUMPDEST POP POP POP POP JUMP JUMPDEST PUSH0 PUSH1 0x2 SWAP1 POP SWAP2 SWAP1 POP JUMP JUMPDEST PUSH0 DUP2 SWAP1 POP SWAP3 SWAP2 POP POP JUMP JUMPDEST PUSH0 DUP2 SWAP1 POP SWAP2 SWAP1 POP JUMP JUMPDEST PUSH0 PUSH2 0x38DC DUP4 DUP4 PUSH2 0x3878 JUMP JUMPDEST PUSH1 0x20 DUP4 ADD SWAP1 POP SWAP3 SWAP2 POP POP JUMP JUMPDEST PUSH0 PUSH1 0x20 DUP3 ADD SWAP1 POP SWAP2 SWAP1 POP JUMP JUMPDEST PUSH2 0x38FD DUP2 PUSH2 0x38B4 JUMP JUMPDEST PUSH2 0x3907 DUP2 DUP5 PUSH2 0x38BE JUMP JUMPDEST SWAP3 POP PUSH2 0x3912 DUP3 PUSH2 0x38C8 JUMP JUMPDEST DUP1 PUSH0 JUMPDEST DUP4 DUP2 LT ISZERO PUSH2 0x3942 JUMPI DUP2 MLOAD PUSH2 0x3929 DUP8 DUP3 PUSH2 0x38D1 JUMP JUMPDEST SWAP7 POP PUSH2 0x3934 DUP4 PUSH2 0x38E8 JUMP JUMPDEST SWAP3 POP POP PUSH1 0x1 DUP2 ADD SWAP1 POP PUSH2 0x3915 JUMP JUMPDEST POP POP POP POP POP POP JUMP JUMPDEST PUSH1 0x80 DUP3 ADD PUSH0 DUP3 ADD MLOAD PUSH2 0x395E PUSH0 DUP6 ADD DUP3 PUSH2 0x38F4 JUMP JUMPDEST POP PUSH1 0x20 DUP3 ADD MLOAD PUSH2 0x3971 PUSH1 0x40 DUP6 ADD DUP3 PUSH2 0x38F4 JUMP JUMPDEST POP POP POP POP JUMP JUMPDEST PUSH0 PUSH2 0x100 DUP3 ADD SWAP1 POP PUSH2 0x398B PUSH0 DUP4 ADD DUP7 PUSH2 0x3887 JUMP JUMPDEST PUSH2 0x3998 PUSH1 0x40 DUP4 ADD DUP6 PUSH2 0x394A JUMP JUMPDEST PUSH2 0x39A5 PUSH1 0xC0 DUP4 ADD DUP5 PUSH2 0x3887 JUMP JUMPDEST SWAP5 SWAP4 POP POP POP POP JUMP JUMPDEST PUSH0 PUSH1 0x20 DUP3 ADD SWAP1 POP PUSH2 0x39C0 PUSH0 DUP4 ADD DUP5 PUSH2 0x32B3 JUMP JUMPDEST SWAP3 SWAP2 POP POP JUMP JUMPDEST PUSH1 0x6 DUP2 LT PUSH2 0x39D2 JUMPI PUSH0 DUP1 REVERT JUMPDEST POP JUMP JUMPDEST PUSH0 DUP2 MLOAD SWAP1 POP PUSH2 0x39E3 DUP2 PUSH2 0x39C6 JUMP JUMPDEST SWAP3 SWAP2 POP POP JUMP JUMPDEST PUSH0 DUP2 MLOAD SWAP1 POP PUSH2 0x39F7 DUP2 PUSH2 0x3220 JUMP JUMPDEST SWAP3 SWAP2 POP POP JUMP JUMPDEST PUSH0 DUP1 PUSH1 0x40 DUP4 DUP6 SUB SLT ISZERO PUSH2 0x3A13 JUMPI PUSH2 0x3A12 PUSH2 0x2FCB JUMP JUMPDEST JUMPDEST PUSH0 PUSH2 0x3A20 DUP6 DUP3 DUP7 ADD PUSH2 0x39D5 JUMP JUMPDEST SWAP3 POP POP PUSH1 0x20 PUSH2 0x3A31 DUP6 DUP3 DUP7 ADD PUSH2 0x39E9 JUMP JUMPDEST SWAP2 POP POP SWAP3 POP SWAP3 SWAP1 POP JUMP JUMPDEST PUSH0 DUP3 DUP3 MSTORE PUSH1 0x20 DUP3 ADD SWAP1 POP SWAP3 SWAP2 POP POP JUMP JUMPDEST PUSH32 0x4F6E6C792074686520426C6F636B636861696E204F7261636C652063616E2072 PUSH0 DUP3 ADD MSTORE PUSH32 0x756E20746869732066756E6374696F6E00000000000000000000000000000000 PUSH1 0x20 DUP3 ADD MSTORE POP JUMP JUMPDEST PUSH0 PUSH2 0x3AA5 PUSH1 0x30 DUP4 PUSH2 0x3A3B JUMP JUMPDEST SWAP2 POP PUSH2 0x3AB0 DUP3 PUSH2 0x3A4B JUMP JUMPDEST PUSH1 0x40 DUP3 ADD SWAP1 POP SWAP2 SWAP1 POP JUMP JUMPDEST PUSH0 PUSH1 0x20 DUP3 ADD SWAP1 POP DUP2 DUP2 SUB PUSH0 DUP4 ADD MSTORE PUSH2 0x3AD2 DUP2 PUSH2 0x3A99 JUMP JUMPDEST SWAP1 POP SWAP2 SWAP1 POP JUMP JUMPDEST PUSH0 PUSH1 0x40 DUP3 ADD SWAP1 POP PUSH2 0x3AEC PUSH0 DUP4 ADD DUP6 PUSH2 0x32B3 JUMP JUMPDEST PUSH2 0x3AF9 PUSH1 0x20 DUP4 ADD DUP5 PUSH2 0x30C9 JUMP JUMPDEST SWAP4 SWAP3 POP POP POP JUMP JUMPDEST PUSH32 0x4F6E6C792074686520496E7370656374696F6E204167656E742063616E207275 PUSH0 DUP3 ADD MSTORE PUSH32 0x6E20746869732066756E6374696F6E0000000000000000000000000000000000 PUSH1 0x20 DUP3 ADD MSTORE POP JUMP JUMPDEST PUSH0 PUSH2 0x3B5A PUSH1 0x2F DUP4 PUSH2 0x3A3B JUMP JUMPDEST SWAP2 POP PUSH2 0x3B65 DUP3 PUSH2 0x3B00 JUMP JUMPDEST PUSH1 0x40 DUP3 ADD SWAP1 POP SWAP2 SWAP1 POP JUMP JUMPDEST PUSH0 PUSH1 0x20 DUP3 ADD SWAP1 POP DUP2 DUP2 SUB PUSH0 DUP4 ADD MSTORE PUSH2 0x3B87 DUP2 PUSH2 0x3B4E JUMP JUMPDEST SWAP1 POP SWAP2 SWAP1 POP JUMP JUMPDEST PUSH32 0x496E76616C6964205265706F7274204944000000000000000000000000000000 PUSH0 DUP3 ADD MSTORE POP JUMP JUMPDEST PUSH0 PUSH2 0x3BC2 PUSH1 0x11 DUP4 PUSH2 0x3A3B JUMP JUMPDEST SWAP2 POP PUSH2 0x3BCD DUP3 PUSH2 0x3B8E JUMP JUMPDEST PUSH1 0x20 DUP3 ADD SWAP1 POP SWAP2 SWAP1 POP JUMP JUMPDEST PUSH0 PUSH1 0x20 DUP3 ADD SWAP1 POP DUP2 DUP2 SUB PUSH0 DUP4 ADD MSTORE PUSH2 0x3BEF DUP2 PUSH2 0x3BB6 JUMP JUMPDEST SWAP1 POP SWAP2 SWAP1 POP JUMP JUMPDEST PUSH32 0x54686973207265706F72742068617320616C7265616479206265656E20696E73 PUSH0 DUP3 ADD MSTORE PUSH32 0x7065637465640000000000000000000000000000000000000000000000000000 PUSH1 0x20 DUP3 ADD MSTORE POP JUMP JUMPDEST PUSH0 PUSH2 0x3C50 PUSH1 0x26 DUP4 PUSH2 0x3A3B JUMP JUMPDEST SWAP2 POP PUSH2 0x3C5B DUP3 PUSH2 0x3BF6 JUMP JUMPDEST PUSH1 0x40 DUP3 ADD SWAP1 POP SWAP2 SWAP1 POP JUMP JUMPDEST PUSH0 PUSH1 0x20 DUP3 ADD SWAP1 POP DUP2 DUP2 SUB PUSH0 DUP4 ADD MSTORE PUSH2 0x3C7D DUP2 PUSH2 0x3C44 JUMP JUMPDEST SWAP1 POP SWAP2 SWAP1 POP JUMP JUMPDEST PUSH0 PUSH1 0x60 DUP3 ADD SWAP1 POP PUSH2 0x3C97 PUSH0 DUP4 ADD DUP7 PUSH2 0x32B3 JUMP JUMPDEST PUSH2 0x3CA4 PUSH1 0x20 DUP4 ADD DUP6 PUSH2 0x332F JUMP JUMPDEST PUSH2 0x3CB1 PUSH1 0x40 DUP4 ADD DUP5 PUSH2 0x30C9 JUMP JUMPDEST SWAP5 SWAP4 POP POP POP POP JUMP JUMPDEST PUSH32 0x4F6E6C7920746865204368696C6420477561726469616E2063616E2072756E20 PUSH0 DUP3 ADD MSTORE PUSH32 0x746869732066756E6374696F6E00000000000000000000000000000000000000 PUSH1 0x20 DUP3 ADD MSTORE POP JUMP JUMPDEST PUSH0 PUSH2 0x3D13 PUSH1 0x2D DUP4 PUSH2 0x3A3B JUMP JUMPDEST SWAP2 POP PUSH2 0x3D1E DUP3 PUSH2 0x3CB9 JUMP JUMPDEST PUSH1 0x40 DUP3 ADD SWAP1 POP SWAP2 SWAP1 POP JUMP JUMPDEST PUSH0 PUSH1 0x20 DUP3 ADD SWAP1 POP DUP2 DUP2 SUB PUSH0 DUP4 ADD MSTORE PUSH2 0x3D40 DUP2 PUSH2 0x3D07 JUMP JUMPDEST SWAP1 POP SWAP2 SWAP1 POP JUMP JUMPDEST PUSH32 0x4F6E6C79207468652061737369676E656420477561726469616E20746F207468 PUSH0 DUP3 ADD MSTORE PUSH32 0x6973206368696C642063616E2072756E20746869732066756E6374696F6E0000 PUSH1 0x20 DUP3 ADD MSTORE POP JUMP JUMPDEST PUSH0 PUSH2 0x3DA1 PUSH1 0x3E DUP4 PUSH2 0x3A3B JUMP JUMPDEST SWAP2 POP PUSH2 0x3DAC DUP3 PUSH2 0x3D47 JUMP JUMPDEST PUSH1 0x40 DUP3 ADD SWAP1 POP SWAP2 SWAP1 POP JUMP JUMPDEST PUSH0 PUSH1 0x20 DUP3 ADD SWAP1 POP DUP2 DUP2 SUB PUSH0 DUP4 ADD MSTORE PUSH2 0x3DCE DUP2 PUSH2 0x3D95 JUMP JUMPDEST SWAP1 POP SWAP2 SWAP1 POP JUMP JUMPDEST PUSH32 0x496E76616C6964204368696C6420494400000000000000000000000000000000 PUSH0 DUP3 ADD MSTORE POP JUMP JUMPDEST PUSH0 PUSH2 0x3E09 PUSH1 0x10 DUP4 PUSH2 0x3A3B JUMP JUMPDEST SWAP2 POP PUSH2 0x3E14 DUP3 PUSH2 0x3DD5 JUMP JUMPDEST PUSH1 0x20 DUP3 ADD SWAP1 POP SWAP2 SWAP1 POP JUMP JUMPDEST PUSH0 PUSH1 0x20 DUP3 ADD SWAP1 POP DUP2 DUP2 SUB PUSH0 DUP4 ADD MSTORE PUSH2 0x3E36 DUP2 PUSH2 0x3DFD JUMP JUMPDEST SWAP1 POP SWAP2 SWAP1 POP JUMP JUMPDEST PUSH32 0x54686973206368696C64206973206E6F742063757272656E746C7920696E2072 PUSH0 DUP3 ADD MSTORE PUSH32 0x656D6564696174696F6E00000000000000000000000000000000000000000000 PUSH1 0x20 DUP3 ADD MSTORE POP JUMP JUMPDEST PUSH0 PUSH2 0x3E97 PUSH1 0x2A DUP4 PUSH2 0x3A3B JUMP JUMPDEST SWAP2 POP PUSH2 0x3EA2 DUP3 PUSH2 0x3E3D JUMP JUMPDEST PUSH1 0x40 DUP3 ADD SWAP1 POP SWAP2 SWAP1 POP JUMP JUMPDEST PUSH0 PUSH1 0x20 DUP3 ADD SWAP1 POP DUP2 DUP2 SUB PUSH0 DUP4 ADD MSTORE PUSH2 0x3EC4 DUP2 PUSH2 0x3E8B JUMP JUMPDEST SWAP1 POP SWAP2 SWAP1 POP JUMP JUMPDEST PUSH32 0x5468652074696D652077696E646F7720666F722072656D6564696174696F6E20 PUSH0 DUP3 ADD MSTORE PUSH32 0x6973207374696C6C206F70656E00000000000000000000000000000000000000 PUSH1 0x20 DUP3 ADD MSTORE POP JUMP JUMPDEST PUSH0 PUSH2 0x3F25 PUSH1 0x2D DUP4 PUSH2 0x3A3B JUMP JUMPDEST SWAP2 POP PUSH2 0x3F30 DUP3 PUSH2 0x3ECB JUMP JUMPDEST PUSH1 0x40 DUP3 ADD SWAP1 POP SWAP2 SWAP1 POP JUMP JUMPDEST PUSH0 PUSH1 0x20 DUP3 ADD SWAP1 POP DUP2 DUP2 SUB PUSH0 DUP4 ADD MSTORE PUSH2 0x3F52 DUP2 PUSH2 0x3F19 JUMP JUMPDEST SWAP1 POP SWAP2 SWAP1 POP JUMP JUMPDEST PUSH0 PUSH1 0x60 DUP3 ADD SWAP1 POP PUSH2 0x3F6C PUSH0 DUP4 ADD DUP7 PUSH2 0x30C9 JUMP JUMPDEST PUSH2 0x3F79 PUSH1 0x20 DUP4 ADD DUP6 PUSH2 0x30C9 JUMP JUMPDEST PUSH2 0x3F86 PUSH1 0x40 DUP4 ADD DUP5 PUSH2 0x30C9 JUMP JUMPDEST SWAP5 SWAP4 POP POP POP POP JUMP JUMPDEST PUSH32 0x496E76616C696420686173686564206E616D6500000000000000000000000000 PUSH0 DUP3 ADD MSTORE POP JUMP JUMPDEST PUSH0 PUSH2 0x3FC2 PUSH1 0x13 DUP4 PUSH2 0x3A3B JUMP JUMPDEST SWAP2 POP PUSH2 0x3FCD DUP3 PUSH2 0x3F8E JUMP JUMPDEST PUSH1 0x20 DUP3 ADD SWAP1 POP SWAP2 SWAP1 POP JUMP JUMPDEST PUSH0 PUSH1 0x20 DUP3 ADD SWAP1 POP DUP2 DUP2 SUB PUSH0 DUP4 ADD MSTORE PUSH2 0x3FEF DUP2 PUSH2 0x3FB6 JUMP JUMPDEST SWAP1 POP SWAP2 SWAP1 POP JUMP JUMPDEST PUSH32 0x496E76616C696420416765000000000000000000000000000000000000000000 PUSH0 DUP3 ADD MSTORE POP JUMP JUMPDEST PUSH0 PUSH2 0x402A PUSH1 0xB DUP4 PUSH2 0x3A3B JUMP JUMPDEST SWAP2 POP PUSH2 0x4035 DUP3 PUSH2 0x3FF6 JUMP JUMPDEST PUSH1 0x20 DUP3 ADD SWAP1 POP SWAP2 SWAP1 POP JUMP JUMPDEST PUSH0 PUSH1 0x20 DUP3 ADD SWAP1 POP DUP2 DUP2 SUB PUSH0 DUP4 ADD MSTORE PUSH2 0x4057 DUP2 PUSH2 0x401E JUMP JUMPDEST SWAP1 POP SWAP2 SWAP1 POP JUMP JUMPDEST PUSH32 0x496E76616C69642047656E646572000000000000000000000000000000000000 PUSH0 DUP3 ADD MSTORE POP JUMP JUMPDEST PUSH0 PUSH2 0x4092 PUSH1 0xE DUP4 PUSH2 0x3A3B JUMP JUMPDEST SWAP2 POP PUSH2 0x409D DUP3 PUSH2 0x405E JUMP JUMPDEST PUSH1 0x20 DUP3 ADD SWAP1 POP SWAP2 SWAP1 POP JUMP JUMPDEST PUSH0 PUSH1 0x20 DUP3 ADD SWAP1 POP DUP2 DUP2 SUB PUSH0 DUP4 ADD MSTORE PUSH2 0x40BF DUP2 PUSH2 0x4086 JUMP JUMPDEST SWAP1 POP SWAP2 SWAP1 POP JUMP JUMPDEST PUSH32 0x4E487B7100000000000000000000000000000000000000000000000000000000 PUSH0 MSTORE PUSH1 0x11 PUSH1 0x4 MSTORE PUSH1 0x24 PUSH0 REVERT JUMPDEST PUSH0 PUSH2 0x40FD DUP3 PUSH2 0x3058 JUMP JUMPDEST SWAP2 POP PUSH32 0xFFFFFFFFFFFFFFFFFFFFFFFFFFFFFFFFFFFFFFFFFFFFFFFFFFFFFFFFFFFFFFFF DUP3 SUB PUSH2 0x412F JUMPI PUSH2 0x412E PUSH2 0x40C6 JUMP JUMPDEST JUMPDEST PUSH1 0x1 DUP3 ADD SWAP1 POP SWAP2 SWAP1 POP JUMP JUMPDEST PUSH0 PUSH1 0xA0 DUP3 ADD SWAP1 POP PUSH2 0x414D PUSH0 DUP4 ADD DUP9 PUSH2 0x30C9 JUMP JUMPDEST PUSH2 0x415A PUSH1 0x20 DUP4 ADD DUP8 PUSH2 0x30E1 JUMP JUMPDEST PUSH2 0x4167 PUSH1 0x40 DUP4 ADD DUP7 PUSH2 0x30C9 JUMP JUMPDEST PUSH2 0x4174 PUSH1 0x60 DUP4 ADD DUP6 PUSH2 0x311B JUMP JUMPDEST PUSH2 0x4181 PUSH1 0x80 DUP4 ADD DUP5 PUSH2 0x30C9 JUMP JUMPDEST SWAP7 SWAP6 POP POP POP POP POP POP JUMP JUMPDEST PUSH32 0x4F6E6C792074686520526567756C61746F727920417574686F7269747920616E PUSH0 DUP3 ADD MSTORE PUSH32 0x64204461746120416E616C797374732063616E2072756E20746869732066756E PUSH1 0x20 DUP3 ADD MSTORE PUSH32 0x6374696F6E000000000000000000000000000000000000000000000000000000 PUSH1 0x40 DUP3 ADD MSTORE POP JUMP JUMPDEST PUSH0 PUSH2 0x420B PUSH1 0x45 DUP4 PUSH2 0x3A3B JUMP JUMPDEST SWAP2 POP PUSH2 0x4216 DUP3 PUSH2 0x418B JUMP JUMPDEST PUSH1 0x60 DUP3 ADD SWAP1 POP SWAP2 SWAP1 POP JUMP JUMPDEST PUSH0 PUSH1 0x20 DUP3 ADD SWAP1 POP DUP2 DUP2 SUB PUSH0 DUP4 ADD MSTORE PUSH2 0x4238 DUP2 PUSH2 0x41FF JUMP JUMPDEST SWAP1 POP SWAP2 SWAP1 POP JUMP JUMPDEST PUSH32 0x4F6E6C792074686520726567756C61746F727920617574686F72697479206361 PUSH0 DUP3 ADD MSTORE PUSH32 0x6E2072756E20746869732066756E6374696F6E00000000000000000000000000 PUSH1 0x20 DUP3 ADD MSTORE POP JUMP JUMPDEST PUSH0 PUSH2 0x4299 PUSH1 0x33 DUP4 PUSH2 0x3A3B JUMP JUMPDEST SWAP2 POP PUSH2 0x42A4 DUP3 PUSH2 0x423F JUMP JUMPDEST PUSH1 0x40 DUP3 ADD SWAP1 POP SWAP2 SWAP1 POP JUMP JUMPDEST PUSH0 PUSH1 0x20 DUP3 ADD SWAP1 POP DUP2 DUP2 SUB PUSH0 DUP4 ADD MSTORE PUSH2 0x42C6 DUP2 PUSH2 0x428D JUMP JUMPDEST SWAP1 POP SWAP2 SWAP1 POP JUMP JUMPDEST PUSH0 PUSH1 0x60 DUP3 ADD SWAP1 POP PUSH2 0x42E0 PUSH0 DUP4 ADD DUP7 PUSH2 0x32B3 JUMP JUMPDEST PUSH2 0x42ED PUSH1 0x20 DUP4 ADD DUP6 PUSH2 0x32B3 JUMP JUMPDEST PUSH2 0x42FA PUSH1 0x40 DUP4 ADD DUP5 PUSH2 0x30C9 JUMP JUMPDEST SWAP5 SWAP4 POP POP POP POP JUMP JUMPDEST PUSH32 0x4F6E6C7920746865204C696169736F6E204F6666696365722063616E2072756E PUSH0 DUP3 ADD MSTORE PUSH32 0x20746869732066756E6374696F6E000000000000000000000000000000000000 PUSH1 0x20 DUP3 ADD MSTORE POP JUMP JUMPDEST PUSH0 PUSH2 0x435C PUSH1 0x2E DUP4 PUSH2 0x3A3B JUMP JUMPDEST SWAP2 POP PUSH2 0x4367 DUP3 PUSH2 0x4302 JUMP JUMPDEST PUSH1 0x40 DUP3 ADD SWAP1 POP SWAP2 SWAP1 POP JUMP JUMPDEST PUSH0 PUSH1 0x20 DUP3 ADD SWAP1 POP DUP2 DUP2 SUB PUSH0 DUP4 ADD MSTORE PUSH2 0x4389 DUP2 PUSH2 0x4350 JUMP JUMPDEST SWAP1 POP SWAP2 SWAP1 POP JUMP JUMPDEST PUSH0 DUP2 MLOAD SWAP1 POP SWAP2 SWAP1 POP JUMP JUMPDEST PUSH0 DUP2 SWAP1 POP PUSH1 0x20 DUP3 ADD SWAP1 POP SWAP2 SWAP1 POP JUMP JUMPDEST PUSH0 PUSH2 0x43B4 DUP3 MLOAD PUSH2 0x30D8 JUMP JUMPDEST DUP1 SWAP2 POP POP SWAP2 SWAP1 POP JUMP JUMPDEST PUSH0 DUP3 DUP3 SHL SWAP1 POP SWAP3 SWAP2 POP POP JUMP JUMPDEST PUSH0 PUSH2 0x43D3 DUP3 PUSH2 0x4390 JUMP JUMPDEST DUP3 PUSH2 0x43DD DUP5 PUSH2 0x439A JUMP JUMPDEST SWAP1 POP PUSH2 0x43E8 DUP2 PUSH2 0x43A9 JUMP JUMPDEST SWAP3 POP PUSH1 0x20 DUP3 LT ISZERO PUSH2 0x4428 JUMPI PUSH2 0x4423 PUSH32 0xFFFFFFFFFFFFFFFFFFFFFFFFFFFFFFFFFFFFFFFFFFFFFFFFFFFFFFFFFFFFFFFF DUP4 PUSH1 0x20 SUB PUSH1 0x8 MUL PUSH2 0x43BD JUMP JUMPDEST DUP4 AND SWAP3 POP JUMPDEST POP POP SWAP2 SWAP1 POP JUMP JUMPDEST PUSH0 PUSH2 0x4439 DUP3 PUSH2 0x3058 JUMP JUMPDEST SWAP2 POP PUSH2 0x4444 DUP4 PUSH2 0x3058 JUMP JUMPDEST SWAP3 POP DUP3 DUP3 ADD SWAP1 POP DUP1 DUP3 GT ISZERO PUSH2 0x445C JUMPI PUSH2 0x445B PUSH2 0x40C6 JUMP JUMPDEST JUMPDEST SWAP3 SWAP2 POP POP JUMP JUMPDEST PUSH32 0x54686973206368696C64206973206E6F7420726561647920666F722072656D65 PUSH0 DUP3 ADD MSTORE PUSH32 0x64696174696F6E00000000000000000000000000000000000000000000000000 PUSH1 0x20 DUP3 ADD MSTORE POP JUMP JUMPDEST PUSH0 PUSH2 0x44BC PUSH1 0x27 DUP4 PUSH2 0x3A3B JUMP JUMPDEST SWAP2 POP PUSH2 0x44C7 DUP3 PUSH2 0x4462 JUMP JUMPDEST PUSH1 0x40 DUP3 ADD SWAP1 POP SWAP2 SWAP1 POP JUMP JUMPDEST PUSH0 PUSH1 0x20 DUP3 ADD SWAP1 POP DUP2 DUP2 SUB PUSH0 DUP4 ADD MSTORE PUSH2 0x44E9 DUP2 PUSH2 0x44B0 JUMP JUMPDEST SWAP1 POP SWAP2 SWAP1 POP JUMP JUMPDEST PUSH0 PUSH2 0x44FA DUP3 PUSH2 0x3058 JUMP JUMPDEST SWAP2 POP PUSH2 0x4505 DUP4 PUSH2 0x3058 JUMP JUMPDEST SWAP3 POP DUP3 DUP3 MUL PUSH2 0x4513 DUP2 PUSH2 0x3058 JUMP JUMPDEST SWAP2 POP DUP3 DUP3 DIV DUP5 EQ DUP4 ISZERO OR PUSH2 0x452A JUMPI PUSH2 0x4529 PUSH2 0x40C6 JUMP JUMPDEST JUMPDEST POP SWAP3 SWAP2 POP POP JUMP JUMPDEST PUSH0 PUSH1 0x80 DUP3 ADD SWAP1 POP PUSH2 0x4544 PUSH0 DUP4 ADD DUP8 PUSH2 0x30C9 JUMP JUMPDEST PUSH2 0x4551 PUSH1 0x20 DUP4 ADD DUP7 PUSH2 0x30C9 JUMP JUMPDEST PUSH2 0x455E PUSH1 0x40 DUP4 ADD DUP6 PUSH2 0x30C9 JUMP JUMPDEST PUSH2 0x456B PUSH1 0x60 DUP4 ADD DUP5 PUSH2 0x30C9 JUMP JUMPDEST SWAP6 SWAP5 POP POP POP POP POP JUMP JUMPDEST PUSH0 PUSH1 0x80 DUP3 ADD SWAP1 POP PUSH2 0x4587 PUSH0 DUP4 ADD DUP8 PUSH2 0x30C9 JUMP JUMPDEST PUSH2 0x4594 PUSH1 0x20 DUP4 ADD DUP7 PUSH2 0x30C9 JUMP JUMPDEST PUSH2 0x45A1 PUSH1 0x40 DUP4 ADD DUP6 PUSH2 0x30C9 JUMP JUMPDEST PUSH2 0x45AE PUSH1 0x60 DUP4 ADD DUP5 PUSH2 0x30E1 JUMP JUMPDEST SWAP6 SWAP5 POP POP POP POP POP JUMP JUMPDEST PUSH32 0x54686973206368696C6420496420646F6573206E6F74206578697374206F7220 PUSH0 DUP3 ADD MSTORE PUSH32 0x68617320616C7265616479206265656E2061737369676E656420612067756172 PUSH1 0x20 DUP3 ADD MSTORE PUSH32 0x6469616E00000000000000000000000000000000000000000000000000000000 PUSH1 0x40 DUP3 ADD MSTORE POP JUMP JUMPDEST PUSH0 PUSH2 0x4637 PUSH1 0x44 DUP4 PUSH2 0x3A3B JUMP JUMPDEST SWAP2 POP PUSH2 0x4642 DUP3 PUSH2 0x45B7 JUMP JUMPDEST PUSH1 0x60 DUP3 ADD SWAP1 POP SWAP2 SWAP1 POP JUMP JUMPDEST PUSH0 PUSH1 0x20 DUP3 ADD SWAP1 POP DUP2 DUP2 SUB PUSH0 DUP4 ADD MSTORE PUSH2 0x4664 DUP2 PUSH2 0x462B JUMP JUMPDEST SWAP1 POP SWAP2 SWAP1 POP JUMP JUMPDEST PUSH0 PUSH1 0x60 DUP3 ADD SWAP1 POP PUSH2 0x467E PUSH0 DUP4 ADD DUP7 PUSH2 0x30C9 JUMP JUMPDEST PUSH2 0x468B PUSH1 0x20 DUP4 ADD DUP6 PUSH2 0x30C9 JUMP JUMPDEST PUSH2 0x4698 PUSH1 0x40 DUP4 ADD DUP5 PUSH2 0x32B3 JUMP JUMPDEST SWAP5 SWAP4 POP POP POP POP JUMP INVALID LOG2 PUSH5 0x6970667358 0x22 SLT KECCAK256 JUMPDEST 0xEA 0xDA SLOAD 0xDB MSIZE CALLDATASIZE 0xE4 SIGNEXTEND ISZERO KECCAK256 0xCE PUSH1 0x84 0xED DUP9 0x49 MSTORE 0xCB 0x28 MLOAD 0xB1 SWAP9 PUSH22 0x7570452F4FD1655E64736F6C63430008150033000000 "
				},
				"gasEstimates": {
					"creation": {
						"codeDepositCost": "3626800",
						"executionCost": "infinite",
						"totalCost": "infinite"
					},
					"external": {
						"Registration()": "infinite",
						"Verifier()": "infinite",
						"accessWhitelist(address)": "2966",
						"assignGuardian(uint256,uint256,address)": "infinite",
						"child2ReportMapping(uint256)": "infinite",
						"childCount()": "2470",
						"childData(uint256,uint256)": "infinite",
						"childRemediationData(uint256)": "infinite",
						"completeRemediation(uint256,uint256)": "infinite",
						"getChildData(uint256,uint256)": "infinite",
						"getChildStatus(uint256,uint256)": "infinite",
						"getViolationReport(uint256)": "infinite",
						"grantAccess(address)": "infinite",
						"remediationUpdate(uint256,uint256,string)": "infinite",
						"reportChildrenCount(uint256)": "infinite",
						"reportCount()": "2493",
						"reportProof(uint256)": "infinite",
						"revokeAccess(address)": "infinite",
						"startRemediation(uint256,uint256,uint256)": "infinite",
						"storeChildData(bytes32,uint256,bytes1,uint256)": "infinite",
						"submitViolationReport(string,uint256)": "infinite",
						"updateVerifier(address)": "infinite",
						"verifyViolationReport(uint256,bool)": "infinite",
						"violationReports(uint256)": "infinite"
					}
				},
				"methodIdentifiers": {
					"Registration()": "e8a37919",
					"Verifier()": "53ca8115",
					"accessWhitelist(address)": "a0619d4a",
					"assignGuardian(uint256,uint256,address)": "eff5cfae",
					"child2ReportMapping(uint256)": "b05efaab",
					"childCount()": "8bc3bbc0",
					"childData(uint256,uint256)": "12f1a83a",
					"childRemediationData(uint256)": "2b76ea9c",
					"completeRemediation(uint256,uint256)": "739f48a6",
					"getChildData(uint256,uint256)": "84e2395d",
					"getChildStatus(uint256,uint256)": "a1dc99b4",
					"getViolationReport(uint256)": "636d0262",
					"grantAccess(address)": "0ae5e739",
					"remediationUpdate(uint256,uint256,string)": "e60e5ee2",
					"reportChildrenCount(uint256)": "6388bafc",
					"reportCount()": "185c6f84",
					"reportProof(uint256)": "f8b4d690",
					"revokeAccess(address)": "85e68531",
					"startRemediation(uint256,uint256,uint256)": "992cc022",
					"storeChildData(bytes32,uint256,bytes1,uint256)": "832de71e",
					"submitViolationReport(string,uint256)": "8fe2d950",
					"updateVerifier(address)": "97fc007c",
					"verifyViolationReport(uint256,bool)": "28c10330",
					"violationReports(uint256)": "3835a119"
				}
			},
			"storageLayout": {
				"storage": [
					{
						"astId": 667,
						"contract": "ChildLabourDataManagement.sol:ChildLabourDataManagement",
						"label": "Registration",
						"offset": 0,
						"slot": "0",
						"type": "t_contract(IRegistration)645"
					},
					{
						"astId": 670,
						"contract": "ChildLabourDataManagement.sol:ChildLabourDataManagement",
						"label": "Verifier",
						"offset": 0,
						"slot": "1",
						"type": "t_contract(IVerifier)664"
					},
					{
						"astId": 672,
						"contract": "ChildLabourDataManagement.sol:ChildLabourDataManagement",
						"label": "reportCount",
						"offset": 0,
						"slot": "2",
						"type": "t_uint256"
					},
					{
						"astId": 674,
						"contract": "ChildLabourDataManagement.sol:ChildLabourDataManagement",
						"label": "childCount",
						"offset": 0,
						"slot": "3",
						"type": "t_uint256"
					},
					{
						"astId": 727,
						"contract": "ChildLabourDataManagement.sol:ChildLabourDataManagement",
						"label": "violationReports",
						"offset": 0,
						"slot": "4",
						"type": "t_mapping(t_uint256,t_struct(ViolationReport)692_storage)"
					},
					{
						"astId": 731,
						"contract": "ChildLabourDataManagement.sol:ChildLabourDataManagement",
						"label": "child2ReportMapping",
						"offset": 0,
						"slot": "5",
						"type": "t_mapping(t_uint256,t_uint256)"
					},
					{
						"astId": 738,
						"contract": "ChildLabourDataManagement.sol:ChildLabourDataManagement",
						"label": "childData",
						"offset": 0,
						"slot": "6",
						"type": "t_mapping(t_uint256,t_mapping(t_uint256,t_struct(ChildData)706_storage))"
					},
					{
						"astId": 742,
						"contract": "ChildLabourDataManagement.sol:ChildLabourDataManagement",
						"label": "reportChildrenCount",
						"offset": 0,
						"slot": "7",
						"type": "t_mapping(t_uint256,t_uint256)"
					},
					{
						"astId": 747,
						"contract": "ChildLabourDataManagement.sol:ChildLabourDataManagement",
						"label": "childRemediationData",
						"offset": 0,
						"slot": "8",
						"type": "t_mapping(t_uint256,t_struct(ChildRemediation)722_storage)"
					},
					{
						"astId": 751,
						"contract": "ChildLabourDataManagement.sol:ChildLabourDataManagement",
						"label": "accessWhitelist",
						"offset": 0,
						"slot": "9",
						"type": "t_mapping(t_address,t_bool)"
					},
					{
						"astId": 756,
						"contract": "ChildLabourDataManagement.sol:ChildLabourDataManagement",
						"label": "reportProof",
						"offset": 0,
						"slot": "10",
						"type": "t_mapping(t_uint256,t_struct(Proof)655_storage)"
					}
				],
				"types": {
					"t_address": {
						"encoding": "inplace",
						"label": "address",
						"numberOfBytes": "20"
					},
					"t_array(t_uint256)2_storage": {
						"base": "t_uint256",
						"encoding": "inplace",
						"label": "uint256[2]",
						"numberOfBytes": "64"
					},
					"t_bool": {
						"encoding": "inplace",
						"label": "bool",
						"numberOfBytes": "1"
					},
					"t_bytes1": {
						"encoding": "inplace",
						"label": "bytes1",
						"numberOfBytes": "1"
					},
					"t_bytes32": {
						"encoding": "inplace",
						"label": "bytes32",
						"numberOfBytes": "32"
					},
					"t_contract(IRegistration)645": {
						"encoding": "inplace",
						"label": "contract IRegistration",
						"numberOfBytes": "20"
					},
					"t_contract(IVerifier)664": {
						"encoding": "inplace",
						"label": "contract IVerifier",
						"numberOfBytes": "20"
					},
					"t_enum(ChildStatus)679": {
						"encoding": "inplace",
						"label": "enum ChildLabourDataManagement.ChildStatus",
						"numberOfBytes": "1"
					},
					"t_mapping(t_address,t_bool)": {
						"encoding": "mapping",
						"key": "t_address",
						"label": "mapping(address => bool)",
						"numberOfBytes": "32",
						"value": "t_bool"
					},
					"t_mapping(t_uint256,t_mapping(t_uint256,t_struct(ChildData)706_storage))": {
						"encoding": "mapping",
						"key": "t_uint256",
						"label": "mapping(uint256 => mapping(uint256 => struct ChildLabourDataManagement.ChildData))",
						"numberOfBytes": "32",
						"value": "t_mapping(t_uint256,t_struct(ChildData)706_storage)"
					},
					"t_mapping(t_uint256,t_struct(ChildData)706_storage)": {
						"encoding": "mapping",
						"key": "t_uint256",
						"label": "mapping(uint256 => struct ChildLabourDataManagement.ChildData)",
						"numberOfBytes": "32",
						"value": "t_struct(ChildData)706_storage"
					},
					"t_mapping(t_uint256,t_struct(ChildRemediation)722_storage)": {
						"encoding": "mapping",
						"key": "t_uint256",
						"label": "mapping(uint256 => struct ChildLabourDataManagement.ChildRemediation)",
						"numberOfBytes": "32",
						"value": "t_struct(ChildRemediation)722_storage"
					},
					"t_mapping(t_uint256,t_struct(Proof)655_storage)": {
						"encoding": "mapping",
						"key": "t_uint256",
						"label": "mapping(uint256 => struct IVerifier.Proof)",
						"numberOfBytes": "32",
						"value": "t_struct(Proof)655_storage"
					},
					"t_mapping(t_uint256,t_struct(ViolationReport)692_storage)": {
						"encoding": "mapping",
						"key": "t_uint256",
						"label": "mapping(uint256 => struct ChildLabourDataManagement.ViolationReport)",
						"numberOfBytes": "32",
						"value": "t_struct(ViolationReport)692_storage"
					},
					"t_mapping(t_uint256,t_uint256)": {
						"encoding": "mapping",
						"key": "t_uint256",
						"label": "mapping(uint256 => uint256)",
						"numberOfBytes": "32",
						"value": "t_uint256"
					},
					"t_struct(ChildData)706_storage": {
						"encoding": "inplace",
						"label": "struct ChildLabourDataManagement.ChildData",
						"members": [
							{
								"astId": 694,
								"contract": "ChildLabourDataManagement.sol:ChildLabourDataManagement",
								"label": "childId",
								"offset": 0,
								"slot": "0",
								"type": "t_uint256"
							},
							{
								"astId": 696,
								"contract": "ChildLabourDataManagement.sol:ChildLabourDataManagement",
								"label": "hashedName",
								"offset": 0,
								"slot": "1",
								"type": "t_bytes32"
							},
							{
								"astId": 698,
								"contract": "ChildLabourDataManagement.sol:ChildLabourDataManagement",
								"label": "age",
								"offset": 0,
								"slot": "2",
								"type": "t_uint256"
							},
							{
								"astId": 700,
								"contract": "ChildLabourDataManagement.sol:ChildLabourDataManagement",
								"label": "gender",
								"offset": 0,
								"slot": "3",
								"type": "t_bytes1"
							},
							{
								"astId": 702,
								"contract": "ChildLabourDataManagement.sol:ChildLabourDataManagement",
								"label": "violationReportId",
								"offset": 0,
								"slot": "4",
								"type": "t_uint256"
							},
							{
								"astId": 705,
								"contract": "ChildLabourDataManagement.sol:ChildLabourDataManagement",
								"label": "status",
								"offset": 0,
								"slot": "5",
								"type": "t_enum(ChildStatus)679"
							}
						],
						"numberOfBytes": "192"
					},
					"t_struct(ChildRemediation)722_storage": {
						"encoding": "inplace",
						"label": "struct ChildLabourDataManagement.ChildRemediation",
						"members": [
							{
								"astId": 708,
								"contract": "ChildLabourDataManagement.sol:ChildLabourDataManagement",
								"label": "guardian",
								"offset": 0,
								"slot": "0",
								"type": "t_address"
							},
							{
								"astId": 710,
								"contract": "ChildLabourDataManagement.sol:ChildLabourDataManagement",
								"label": "childId",
								"offset": 0,
								"slot": "1",
								"type": "t_uint256"
							},
							{
								"astId": 712,
								"contract": "ChildLabourDataManagement.sol:ChildLabourDataManagement",
								"label": "remediationStart",
								"offset": 0,
								"slot": "2",
								"type": "t_uint256"
							},
							{
								"astId": 714,
								"contract": "ChildLabourDataManagement.sol:ChildLabourDataManagement",
								"label": "remediationCompletion",
								"offset": 0,
								"slot": "3",
								"type": "t_uint256"
							},
							{
								"astId": 716,
								"contract": "ChildLabourDataManagement.sol:ChildLabourDataManagement",
								"label": "lastUpdated",
								"offset": 0,
								"slot": "4",
								"type": "t_uint256"
							},
							{
								"astId": 718,
								"contract": "ChildLabourDataManagement.sol:ChildLabourDataManagement",
								"label": "updateReport",
								"offset": 0,
								"slot": "5",
								"type": "t_bytes32"
							},
							{
								"astId": 721,
								"contract": "ChildLabourDataManagement.sol:ChildLabourDataManagement",
								"label": "status",
								"offset": 0,
								"slot": "6",
								"type": "t_enum(ChildStatus)679"
							}
						],
						"numberOfBytes": "224"
					},
					"t_struct(G1Point)5_storage": {
						"encoding": "inplace",
						"label": "struct Pairing.G1Point",
						"members": [
							{
								"astId": 2,
								"contract": "ChildLabourDataManagement.sol:ChildLabourDataManagement",
								"label": "X",
								"offset": 0,
								"slot": "0",
								"type": "t_uint256"
							},
							{
								"astId": 4,
								"contract": "ChildLabourDataManagement.sol:ChildLabourDataManagement",
								"label": "Y",
								"offset": 0,
								"slot": "1",
								"type": "t_uint256"
							}
						],
						"numberOfBytes": "64"
					},
					"t_struct(G2Point)14_storage": {
						"encoding": "inplace",
						"label": "struct Pairing.G2Point",
						"members": [
							{
								"astId": 9,
								"contract": "ChildLabourDataManagement.sol:ChildLabourDataManagement",
								"label": "X",
								"offset": 0,
								"slot": "0",
								"type": "t_array(t_uint256)2_storage"
							},
							{
								"astId": 13,
								"contract": "ChildLabourDataManagement.sol:ChildLabourDataManagement",
								"label": "Y",
								"offset": 0,
								"slot": "2",
								"type": "t_array(t_uint256)2_storage"
							}
						],
						"numberOfBytes": "128"
					},
					"t_struct(Proof)655_storage": {
						"encoding": "inplace",
						"label": "struct IVerifier.Proof",
						"members": [
							{
								"astId": 648,
								"contract": "ChildLabourDataManagement.sol:ChildLabourDataManagement",
								"label": "a",
								"offset": 0,
								"slot": "0",
								"type": "t_struct(G1Point)5_storage"
							},
							{
								"astId": 651,
								"contract": "ChildLabourDataManagement.sol:ChildLabourDataManagement",
								"label": "b",
								"offset": 0,
								"slot": "2",
								"type": "t_struct(G2Point)14_storage"
							},
							{
								"astId": 654,
								"contract": "ChildLabourDataManagement.sol:ChildLabourDataManagement",
								"label": "c",
								"offset": 0,
								"slot": "6",
								"type": "t_struct(G1Point)5_storage"
							}
						],
						"numberOfBytes": "256"
					},
					"t_struct(ViolationReport)692_storage": {
						"encoding": "inplace",
						"label": "struct ChildLabourDataManagement.ViolationReport",
						"members": [
							{
								"astId": 681,
								"contract": "ChildLabourDataManagement.sol:ChildLabourDataManagement",
								"label": "reporter",
								"offset": 0,
								"slot": "0",
								"type": "t_address"
							},
							{
								"astId": 683,
								"contract": "ChildLabourDataManagement.sol:ChildLabourDataManagement",
								"label": "timestamp",
								"offset": 0,
								"slot": "1",
								"type": "t_uint256"
							},
							{
								"astId": 685,
								"contract": "ChildLabourDataManagement.sol:ChildLabourDataManagement",
								"label": "spottedChildrenNumber",
								"offset": 0,
								"slot": "2",
								"type": "t_uint256"
							},
							{
								"astId": 687,
								"contract": "ChildLabourDataManagement.sol:ChildLabourDataManagement",
								"label": "ipfsHash",
								"offset": 0,
								"slot": "3",
								"type": "t_bytes32"
							},
							{
								"astId": 689,
								"contract": "ChildLabourDataManagement.sol:ChildLabourDataManagement",
								"label": "isInspected",
								"offset": 0,
								"slot": "4",
								"type": "t_bool"
							},
							{
								"astId": 691,
								"contract": "ChildLabourDataManagement.sol:ChildLabourDataManagement",
								"label": "isVerified",
								"offset": 1,
								"slot": "4",
								"type": "t_bool"
							}
						],
						"numberOfBytes": "160"
					},
					"t_uint256": {
						"encoding": "inplace",
						"label": "uint256",
						"numberOfBytes": "32"
					}
				}
			},
			"userdoc": {
				"kind": "user",
				"methods": {},
				"version": 1
			}
		}
	}
}